{
  "address": "0x2F1FCF873DB8026895746E02584dF800400DC4b0",
  "abi": [
    {
      "inputs": [
        {
          "internalType": "address",
          "name": "controller",
          "type": "address"
        }
      ],
      "name": "addController",
      "outputs": [],
      "stateMutability": "nonpayable",
      "type": "function"
    },
    {
      "inputs": [
        {
          "internalType": "uint256",
          "name": "",
          "type": "uint256"
        }
      ],
      "name": "controllers",
      "outputs": [
        {
          "internalType": "address",
          "name": "",
          "type": "address"
        }
      ],
      "stateMutability": "view",
      "type": "function"
    },
    {
      "inputs": [
        {
          "internalType": "bytes32",
          "name": "_implementationHash",
          "type": "bytes32"
        },
        {
          "internalType": "address",
          "name": "_implementationAddress",
          "type": "address"
        },
        {
          "internalType": "uint256",
          "name": "_startSalt",
          "type": "uint256"
        }
      ],
      "name": "createImplementation",
      "outputs": [],
      "stateMutability": "nonpayable",
      "type": "function"
    },
    {
      "inputs": [
        {
          "internalType": "bytes32",
          "name": "_implementationHash",
          "type": "bytes32"
        },
        {
          "internalType": "bytes",
          "name": "_initData",
          "type": "bytes"
        }
      ],
      "name": "deployClone",
      "outputs": [
        {
          "internalType": "address",
          "name": "deployedERC20Address_",
          "type": "address"
        }
      ],
      "stateMutability": "nonpayable",
      "type": "function"
    },
    {
      "inputs": [],
      "name": "getAllControllers",
      "outputs": [
        {
          "internalType": "address[]",
          "name": "currentControllers",
          "type": "address[]"
        }
      ],
      "stateMutability": "view",
      "type": "function"
    },
    {
      "inputs": [
        {
          "internalType": "bytes32",
          "name": "_implementationHash",
          "type": "bytes32"
        }
      ],
      "name": "getNextCloneAddress",
      "outputs": [
        {
          "internalType": "address",
          "name": "",
          "type": "address"
        }
      ],
      "stateMutability": "view",
      "type": "function"
    },
    {
      "inputs": [
        {
          "internalType": "bytes32",
          "name": "",
          "type": "bytes32"
        }
      ],
      "name": "implementations",
      "outputs": [
        {
          "internalType": "address",
          "name": "origin",
          "type": "address"
        },
        {
          "internalType": "uint96",
          "name": "salt",
          "type": "uint96"
        }
      ],
      "stateMutability": "view",
      "type": "function"
    },
    {
      "inputs": [
        {
          "internalType": "address[]",
          "name": "controllers_",
          "type": "address[]"
        },
        {
          "internalType": "address",
          "name": "moduleMap_",
          "type": "address"
        }
      ],
      "name": "initialize",
      "outputs": [],
      "stateMutability": "nonpayable",
      "type": "function"
    },
    {
      "inputs": [
        {
          "internalType": "address",
          "name": "controller",
          "type": "address"
        }
      ],
      "name": "isController",
      "outputs": [
        {
          "internalType": "bool",
          "name": "status",
          "type": "bool"
        }
      ],
      "stateMutability": "view",
      "type": "function"
    },
    {
      "inputs": [],
      "name": "moduleMap",
      "outputs": [
        {
          "internalType": "contract IModuleMap",
          "name": "",
          "type": "address"
        }
      ],
      "stateMutability": "view",
      "type": "function"
    }
  ],
  "transactionHash": "0xd3d0c6fd99ebc8f4c1898585ded0bc4b376b8f51312c96295e91f7680bde6d67",
  "args": [],
  "solcInputHash": "d10b0a7fa20e19205abacb811a65837e",
  "bytecode": "0x608060405234801561001057600080fd5b50611069806100206000396000f3fe608060405234801561001057600080fd5b506004361061008e5760003560e01c806302cfeaca146100935780630f0a1c6f146100fa578063337993cb146101205780633f78bdf014610135578063462d0b2e1461014857806356a918aa1461015d5780636135542114610170578063a7fc7a0714610183578063b429afeb14610196578063e94b0dd2146101d2575b600080fd5b6100ce6100a1366004610d93565b6003602052600090815260409020546001600160a01b03811690600160a01b90046001600160601b031682565b604080516001600160a01b0390931683526001600160601b039091166020830152015b60405180910390f35b600054610113906201000090046001600160a01b031681565b6040516100f19190610e58565b6101286101e5565b6040516100f19190610e6c565b610113610143366004610d93565b610247565b61015b610156366004610cf3565b6102a2565b005b61011361016b366004610de2565b6103a1565b61015b61017e366004610dab565b610517565b61015b610191366004610cbb565b6106c4565b6101c26101a4366004610cbb565b6001600160a01b031660009081526001602052604090205460ff1690565b60405190151581526020016100f1565b6101136101e0366004610d93565b6108ff565b6060600280548060200260200160405190810160405280929190818152602001828054801561023d57602002820191906000526020600020905b81546001600160a01b0316815260019091019060200180831161021f575b5050505050905090565b6000818152600360205260408120805461029b9061028a90859061027c90600160a01b90046001600160601b03166001610f98565b6001600160601b0316610929565b82546001600160a01b03169061099b565b9392505050565b600054610100900460ff166102bd5760005460ff16156102c1565b303b155b6103295760405162461bcd60e51b815260206004820152602e60248201527f496e697469616c697a61626c653a20636f6e747261637420697320616c72656160448201526d191e481a5b9a5d1a585b1a5e995960921b60648201526084015b60405180910390fd5b600054610100900460ff1615801561034b576000805461ffff19166101011790555b610389848480806020026020016040519081016040528093929190818152602001838360200280828437600092019190915250869250610a01915050565b801561039b576000805461ff00191690555b50505050565b3360009081526001602052604081205460ff1661041d5760405162461bcd60e51b815260206004820152603460248201527f436f6e74726f6c6c65643a3a6f6e6c79436f6e74726f6c6c65723a2043616c6c60448201527332b91034b9903737ba1031b7b73a3937b63632b960611b6064820152608401610320565b60008481526003602052604090208054600160a01b90046001600160601b031681601461044983610fde565b91906101000a8154816001600160601b0302191690836001600160601b03160217905550506104ac61049b868360000160149054906101000a90046001600160601b03166001600160601b0316610929565b82546001600160a01b031690610b56565b60405163439fab9160e01b81529092506001600160a01b0383169063439fab91906104dd9087908790600401610eb9565b600060405180830381600087803b1580156104f757600080fd5b505af115801561050b573d6000803e3d6000fd5b50505050509392505050565b600080546040516337c61fc560e11b8152620100009091046001600160a01b031691636f8c3f8a9161054c9190600401610ee8565b60206040518083038186803b15801561056457600080fd5b505afa158015610578573d6000803e3d6000fd5b505050506040513d601f19601f8201168201806040525081019061059c9190610cd7565b6001600160a01b031663f3ae2415336040518263ffffffff1660e01b81526004016105c79190610e58565b60206040518083038186803b1580156105df57600080fd5b505afa1580156105f3573d6000803e3d6000fd5b505050506040513d601f19601f820116820180604052508101906106179190610d73565b61067a5760405162461bcd60e51b815260206004820152602e60248201527f436f6e74726f6c6c65643a3a6f6e6c794d616e616765723a2043616c6c65722060448201526d34b9903737ba1036b0b730b3b2b960911b6064820152608401610320565b6040805180820182526001600160a01b0393841681526001600160601b0392831660208083019182526000968752600390529190942093519051909116600160a01b029116179055565b600080546040516337c61fc560e11b8152620100009091046001600160a01b031691636f8c3f8a916106f99190600401610ee8565b60206040518083038186803b15801561071157600080fd5b505afa158015610725573d6000803e3d6000fd5b505050506040513d601f19601f820116820180604052508101906107499190610cd7565b6001600160a01b0316632f54bf6e336040518263ffffffff1660e01b81526004016107749190610e58565b60206040518083038186803b15801561078c57600080fd5b505afa1580156107a0573d6000803e3d6000fd5b505050506040513d601f19601f820116820180604052508101906107c49190610d73565b6108235760405162461bcd60e51b815260206004820152602a60248201527f436f6e74726f6c6c65643a3a6f6e6c794f776e65723a2043616c6c6572206973604482015269103737ba1037bbb732b960b11b6064820152608401610320565b6001600160a01b03811660009081526001602081905260408220805460ff19169091179055805b6002548110156108a9576002818154811061087557634e487b7160e01b600052603260045260246000fd5b6000918252602090912001546001600160a01b038481169116141561089957600191505b6108a281610fc3565b905061084a565b50806108fb57600280546001810182556000919091527f405787fa12a823e0f2b7631cc41b3ba8828b3321ca811111fa75cd3aa3bb5ace0180546001600160a01b0319166001600160a01b0384161790555b5050565b6002818154811061090f57600080fd5b6000918252602090912001546001600160a01b0316905081565b6000808360405160200161093f91815260200190565b60408051601f198184030181529190528051602090910120905060006109658483610f80565b90508060405160200161097a91815260200190565b60405160208183030381529060405280519060200120925050505b92915050565b600061029b838330604051733d602d80600a3d3981f3363d3d373d3d3d363d7360601b8152606093841b60148201526f5af43d82803e903d91602b57fd5bf3ff60801b6028820152921b6038830152604c8201526037808220606c830152605591012090565b600054610100900460ff16610a285760405162461bcd60e51b815260040161032090610f35565b6001600160a01b038116610a4e5760405162461bcd60e51b815260040161032090610f10565b60005b8251811015610ac45760006001600160a01b0316838281518110610a8557634e487b7160e01b600052603260045260246000fd5b60200260200101516001600160a01b03161415610ab45760405162461bcd60e51b815260040161032090610f10565b610abd81610fc3565b9050610a51565b5060005b8251811015610b38576001806000858481518110610af657634e487b7160e01b600052603260045260246000fd5b6020908102919091018101516001600160a01b03168252810191909152604001600020805460ff1916911515919091179055610b3181610fc3565b9050610ac8565b508151610b4c906002906020850190610c41565b506108fb81610bf0565b6000604051733d602d80600a3d3981f3363d3d373d3d3d363d7360601b81528360601b60148201526e5af43d82803e903d91602b57fd5bf360881b6028820152826037826000f59150506001600160a01b0381166109955760405162461bcd60e51b8152602060048201526017602482015276115490cc4c4d8dce8818dc99585d194c8819985a5b1959604a1b6044820152606401610320565b600054610100900460ff16610c175760405162461bcd60e51b815260040161032090610f35565b600080546001600160a01b03909216620100000262010000600160b01b0319909216919091179055565b828054828255906000526020600020908101928215610c96579160200282015b82811115610c9657825182546001600160a01b0319166001600160a01b03909116178255602090920191600190910190610c61565b50610ca2929150610ca6565b5090565b5b80821115610ca25760008155600101610ca7565b600060208284031215610ccc578081fd5b813561029b8161101b565b600060208284031215610ce8578081fd5b815161029b8161101b565b600080600060408486031215610d07578182fd5b83356001600160401b0380821115610d1d578384fd5b818601915086601f830112610d30578384fd5b813581811115610d3e578485fd5b8760208260051b8501011115610d52578485fd5b60209283019550935050840135610d688161101b565b809150509250925092565b600060208284031215610d84578081fd5b8151801515811461029b578182fd5b600060208284031215610da4578081fd5b5035919050565b600080600060608486031215610dbf578283fd5b833592506020840135610dd18161101b565b929592945050506040919091013590565b600080600060408486031215610df6578283fd5b8335925060208401356001600160401b0380821115610e13578384fd5b818601915086601f830112610e26578384fd5b813581811115610e34578485fd5b876020828501011115610e45578485fd5b6020830194508093505050509250925092565b6001600160a01b0391909116815260200190565b6020808252825182820181905260009190848201906040850190845b81811015610ead5783516001600160a01b031683529284019291840191600101610e88565b50909695505050505050565b60208152816020820152818360408301376000818301604090810191909152601f909201601f19160101919050565b60208101600e8310610f0a57634e487b7160e01b600052602160045260246000fd5b91905290565b6020808252600b908201526a626164206164647265737360a81b604082015260600190565b6020808252602b908201527f496e697469616c697a61626c653a20636f6e7472616374206973206e6f74206960408201526a6e697469616c697a696e6760a81b606082015260800190565b60008219821115610f9357610f93611005565b500190565b60006001600160601b03828116848216808303821115610fba57610fba611005565b01949350505050565b6000600019821415610fd757610fd7611005565b5060010190565b60006001600160601b0382811680821415610ffb57610ffb611005565b6001019392505050565b634e487b7160e01b600052601160045260246000fd5b6001600160a01b038116811461103057600080fd5b5056fea264697066735822122048f0d8650f0fbfcdc20ec0046d9a8150d4afe49478c18b1bca8adda929ff469864736f6c63430008040033",
  "devdoc": {
    "kind": "dev",
    "methods": {},
    "version": 1
  },
  "userdoc": {
    "kind": "user",
    "methods": {},
    "version": 1
  },
  "storageLayout": {
    "storage": [
      {
        "astId": 782,
        "contract": "contracts/token/CloneFactory.sol:CloneFactory",
        "label": "_initialized",
        "offset": 0,
        "slot": "0",
        "type": "t_bool"
      },
      {
        "astId": 785,
        "contract": "contracts/token/CloneFactory.sol:CloneFactory",
        "label": "_initializing",
        "offset": 1,
        "slot": "0",
        "type": "t_bool"
      },
      {
        "astId": 13291,
        "contract": "contracts/token/CloneFactory.sol:CloneFactory",
        "label": "moduleMap",
        "offset": 2,
        "slot": "0",
        "type": "t_contract(IModuleMap)23021"
      },
      {
        "astId": 6616,
        "contract": "contracts/token/CloneFactory.sol:CloneFactory",
        "label": "_controllers",
        "offset": 0,
        "slot": "1",
        "type": "t_mapping(t_address,t_bool)"
      },
      {
        "astId": 6619,
        "contract": "contracts/token/CloneFactory.sol:CloneFactory",
        "label": "controllers",
        "offset": 0,
        "slot": "2",
        "type": "t_array(t_address)dyn_storage"
      },
      {
        "astId": 28557,
        "contract": "contracts/token/CloneFactory.sol:CloneFactory",
        "label": "implementations",
        "offset": 0,
        "slot": "3",
        "type": "t_mapping(t_bytes32,t_struct(Implementation)21079_storage)"
      }
    ],
    "types": {
      "t_address": {
        "encoding": "inplace",
        "label": "address",
        "numberOfBytes": "20"
      },
      "t_array(t_address)dyn_storage": {
        "base": "t_address",
        "encoding": "dynamic_array",
        "label": "address[]",
        "numberOfBytes": "32"
      },
      "t_bool": {
        "encoding": "inplace",
        "label": "bool",
        "numberOfBytes": "1"
      },
      "t_bytes32": {
        "encoding": "inplace",
        "label": "bytes32",
        "numberOfBytes": "32"
      },
      "t_contract(IModuleMap)23021": {
        "encoding": "inplace",
        "label": "contract IModuleMap",
        "numberOfBytes": "20"
      },
      "t_mapping(t_address,t_bool)": {
        "encoding": "mapping",
        "key": "t_address",
        "label": "mapping(address => bool)",
        "numberOfBytes": "32",
        "value": "t_bool"
      },
      "t_mapping(t_bytes32,t_struct(Implementation)21079_storage)": {
        "encoding": "mapping",
        "key": "t_bytes32",
        "label": "mapping(bytes32 => struct ICloneFactory.Implementation)",
        "numberOfBytes": "32",
        "value": "t_struct(Implementation)21079_storage"
      },
      "t_struct(Implementation)21079_storage": {
        "encoding": "inplace",
        "label": "struct ICloneFactory.Implementation",
        "members": [
          {
            "astId": 21076,
            "contract": "contracts/token/CloneFactory.sol:CloneFactory",
            "label": "origin",
            "offset": 0,
            "slot": "0",
            "type": "t_address"
          },
          {
            "astId": 21078,
            "contract": "contracts/token/CloneFactory.sol:CloneFactory",
            "label": "salt",
            "offset": 20,
            "slot": "0",
            "type": "t_uint96"
          }
        ],
        "numberOfBytes": "32"
      },
      "t_uint96": {
        "encoding": "inplace",
        "label": "uint96",
        "numberOfBytes": "12"
      }
    }
  }
}