{
  "address": "0x955343f9389913E2Bd9CfF7B4Da32E43652D6552",
  "abi": [
    {
      "inputs": [
        {
          "internalType": "address",
          "name": "controller",
          "type": "address"
        }
      ],
      "name": "addController",
      "outputs": [],
      "stateMutability": "nonpayable",
      "type": "function"
    },
    {
      "inputs": [
        {
          "internalType": "address",
          "name": "user",
          "type": "address"
        },
        {
          "internalType": "uint256[]",
          "name": "ids",
          "type": "uint256[]"
        }
      ],
      "name": "claimEthRewards",
      "outputs": [
        {
          "internalType": "uint256",
          "name": "ethRewards",
          "type": "uint256"
        }
      ],
      "stateMutability": "nonpayable",
      "type": "function"
    },
    {
      "inputs": [
        {
          "internalType": "uint256",
          "name": "",
          "type": "uint256"
        }
      ],
      "name": "controllers",
      "outputs": [
        {
          "internalType": "address",
          "name": "",
          "type": "address"
        }
      ],
      "stateMutability": "view",
      "type": "function"
    },
    {
      "inputs": [
        {
          "internalType": "uint256",
          "name": "strategyId",
          "type": "uint256"
        },
        {
          "internalType": "uint256",
          "name": "amount",
          "type": "uint256"
        },
        {
          "internalType": "address",
          "name": "user",
          "type": "address"
        }
      ],
      "name": "decreaseUserRewards",
      "outputs": [],
      "stateMutability": "nonpayable",
      "type": "function"
    },
    {
      "inputs": [
        {
          "internalType": "uint256",
          "name": "strategyId",
          "type": "uint256"
        },
        {
          "internalType": "uint256",
          "name": "ethRewardsAmount",
          "type": "uint256"
        }
      ],
      "name": "donate",
      "outputs": [],
      "stateMutability": "payable",
      "type": "function"
    },
    {
      "inputs": [],
      "name": "emissionPeriod",
      "outputs": [
        {
          "internalType": "uint256",
          "name": "",
          "type": "uint256"
        }
      ],
      "stateMutability": "view",
      "type": "function"
    },
    {
      "inputs": [],
      "name": "getAllControllers",
      "outputs": [
        {
          "internalType": "address[]",
          "name": "currentControllers",
          "type": "address[]"
        }
      ],
      "stateMutability": "view",
      "type": "function"
    },
    {
      "inputs": [],
      "name": "getEthRewards",
      "outputs": [
        {
          "internalType": "uint256",
          "name": "",
          "type": "uint256"
        }
      ],
      "stateMutability": "view",
      "type": "function"
    },
    {
      "inputs": [
        {
          "internalType": "uint256",
          "name": "strategyId",
          "type": "uint256"
        }
      ],
      "name": "getStrategyInfo",
      "outputs": [
        {
          "components": [
            {
              "internalType": "uint256",
              "name": "rewardPerShare",
              "type": "uint256"
            },
            {
              "internalType": "uint256",
              "name": "totalRewards",
              "type": "uint256"
            }
          ],
          "internalType": "struct IEtherRewards.StrategyInfo",
          "name": "",
          "type": "tuple"
        }
      ],
      "stateMutability": "view",
      "type": "function"
    },
    {
      "inputs": [],
      "name": "getTotalClaimedEthRewards",
      "outputs": [
        {
          "internalType": "uint256",
          "name": "",
          "type": "uint256"
        }
      ],
      "stateMutability": "view",
      "type": "function"
    },
    {
      "inputs": [
        {
          "internalType": "address",
          "name": "user",
          "type": "address"
        },
        {
          "internalType": "uint256[]",
          "name": "ids",
          "type": "uint256[]"
        }
      ],
      "name": "getTotalUserClaimedEthByStrategy",
      "outputs": [
        {
          "internalType": "uint256[]",
          "name": "",
          "type": "uint256[]"
        }
      ],
      "stateMutability": "view",
      "type": "function"
    },
    {
      "inputs": [
        {
          "internalType": "address",
          "name": "account",
          "type": "address"
        }
      ],
      "name": "getTotalUserClaimedEthRewards",
      "outputs": [
        {
          "internalType": "uint256",
          "name": "",
          "type": "uint256"
        }
      ],
      "stateMutability": "view",
      "type": "function"
    },
    {
      "inputs": [
        {
          "internalType": "address",
          "name": "user",
          "type": "address"
        }
      ],
      "name": "getUserEthRewards",
      "outputs": [
        {
          "internalType": "uint256",
          "name": "",
          "type": "uint256"
        }
      ],
      "stateMutability": "view",
      "type": "function"
    },
    {
      "inputs": [
        {
          "internalType": "address",
          "name": "user",
          "type": "address"
        },
        {
          "internalType": "uint256[]",
          "name": "ids",
          "type": "uint256[]"
        }
      ],
      "name": "getUserEthRewards",
      "outputs": [
        {
          "internalType": "uint256",
          "name": "totalRewards",
          "type": "uint256"
        }
      ],
      "stateMutability": "view",
      "type": "function"
    },
    {
      "inputs": [
        {
          "internalType": "uint256",
          "name": "strategyId",
          "type": "uint256"
        },
        {
          "internalType": "address",
          "name": "user",
          "type": "address"
        }
      ],
      "name": "getUserInfo",
      "outputs": [
        {
          "components": [
            {
              "internalType": "int256",
              "name": "rewardDebt",
              "type": "int256"
            },
            {
              "internalType": "uint256",
              "name": "claimedRewards",
              "type": "uint256"
            }
          ],
          "internalType": "struct IEtherRewards.UserInfo",
          "name": "",
          "type": "tuple"
        }
      ],
      "stateMutability": "view",
      "type": "function"
    },
    {
      "inputs": [
        {
          "internalType": "uint256",
          "name": "strategyId",
          "type": "uint256"
        },
        {
          "internalType": "address",
          "name": "user",
          "type": "address"
        }
      ],
      "name": "getUserStrategyRewards",
      "outputs": [
        {
          "internalType": "uint256",
          "name": "ethRewards",
          "type": "uint256"
        }
      ],
      "stateMutability": "view",
      "type": "function"
    },
    {
      "inputs": [
        {
          "internalType": "uint256",
          "name": "strategyId",
          "type": "uint256"
        },
        {
          "internalType": "uint256",
          "name": "ethRewardsAmount",
          "type": "uint256"
        }
      ],
      "name": "increaseEthRewards",
      "outputs": [],
      "stateMutability": "nonpayable",
      "type": "function"
    },
    {
      "inputs": [
        {
          "internalType": "uint256",
          "name": "strategyId",
          "type": "uint256"
        },
        {
          "internalType": "uint256",
          "name": "amount",
          "type": "uint256"
        },
        {
          "internalType": "address",
          "name": "user",
          "type": "address"
        }
      ],
      "name": "increaseUserRewards",
      "outputs": [],
      "stateMutability": "nonpayable",
      "type": "function"
    },
    {
      "inputs": [
        {
          "internalType": "address[]",
          "name": "controllers_",
          "type": "address[]"
        },
        {
          "internalType": "address",
          "name": "moduleMap_",
          "type": "address"
        }
      ],
      "name": "initialize",
      "outputs": [],
      "stateMutability": "nonpayable",
      "type": "function"
    },
    {
      "inputs": [
        {
          "internalType": "address",
          "name": "controller",
          "type": "address"
        }
      ],
      "name": "isController",
      "outputs": [
        {
          "internalType": "bool",
          "name": "status",
          "type": "bool"
        }
      ],
      "stateMutability": "view",
      "type": "function"
    },
    {
      "inputs": [
        {
          "internalType": "uint256",
          "name": "",
          "type": "uint256"
        }
      ],
      "name": "lastEthDistribution",
      "outputs": [
        {
          "internalType": "uint256",
          "name": "",
          "type": "uint256"
        }
      ],
      "stateMutability": "view",
      "type": "function"
    },
    {
      "inputs": [],
      "name": "moduleMap",
      "outputs": [
        {
          "internalType": "contract IModuleMap",
          "name": "",
          "type": "address"
        }
      ],
      "stateMutability": "view",
      "type": "function"
    },
    {
      "inputs": [
        {
          "internalType": "uint256",
          "name": "",
          "type": "uint256"
        }
      ],
      "name": "rpsAtPeriodStart",
      "outputs": [
        {
          "internalType": "uint256",
          "name": "",
          "type": "uint256"
        }
      ],
      "stateMutability": "view",
      "type": "function"
    },
    {
      "inputs": [
        {
          "internalType": "uint256",
          "name": "period",
          "type": "uint256"
        }
      ],
      "name": "setEmissionPeriod",
      "outputs": [],
      "stateMutability": "nonpayable",
      "type": "function"
    },
    {
      "inputs": [
        {
          "internalType": "address",
          "name": "",
          "type": "address"
        },
        {
          "internalType": "uint256",
          "name": "",
          "type": "uint256"
        }
      ],
      "name": "userLastWithdrawalRPS",
      "outputs": [
        {
          "internalType": "uint256",
          "name": "",
          "type": "uint256"
        }
      ],
      "stateMutability": "view",
      "type": "function"
    },
    {
      "inputs": [
        {
          "internalType": "address",
          "name": "",
          "type": "address"
        },
        {
          "internalType": "uint256",
          "name": "",
          "type": "uint256"
        }
      ],
      "name": "userLastWithdrawalTime",
      "outputs": [
        {
          "internalType": "uint256",
          "name": "",
          "type": "uint256"
        }
      ],
      "stateMutability": "view",
      "type": "function"
    }
  ],
  "transactionHash": "0x4a9e02cff7c404682c56d2441f04229649a89fa9f6206259ac3fae85ad1cac95",
  "args": [],
  "solcInputHash": "8691a89ebd8d69f8412923e433444233",
  "bytecode": "0x608060405234801561001057600080fd5b50612512806100206000396000f3fe6080604052600436106101315760003560e01c80630c52b797146101365780630cdd53f61461015a5780630f0a1c6f1461016f5780631069f3b5146101a257806313cf6b00146101dd5780631e97e4ca146101fd578063337993cb14610235578063462d0b2e1461025757806354ed0e59146102775780636500d90f14610297578063991f2fac146102cd578063a179802e146102ed578063a22aecd11461031a578063a5fbe1b71461033a578063a7fc7a0714610350578063b429afeb14610370578063ba8b482c146103b9578063bd48c397146103f1578063c3b2a7f414610411578063d390c73a14610431578063db089e791461045e578063e87e88dc146104b7578063e94b0dd2146104cc578063ebfd2da4146104ec578063f15230dd1461050c578063f4f104b514610539575b600080fd5b34801561014257600080fd5b506004545b6040519081526020015b60405180910390f35b61016d610168366004612091565b610559565b005b34801561017b57600080fd5b50600054610195906201000090046001600160a01b031681565b60405161015191906120ea565b3480156101ae57600080fd5b506101c26101bd366004612062565b6105b2565b60408051825181526020928301519281019290925201610151565b3480156101e957600080fd5b5061016d6101f83660046120b2565b6105fe565b34801561020957600080fd5b50610147610218366004611e21565b600a60209081526000928352604080842090915290825290205481565b34801561024157600080fd5b5061024a610694565b60405161015191906120fe565b34801561026357600080fd5b5061016d610272366004611e4c565b6106f6565b34801561028357600080fd5b50610147610292366004611d60565b6107bb565b3480156102a357600080fd5b506101476102b2366004611d60565b6001600160a01b031660009081526005602052604090205490565b3480156102d957600080fd5b5061016d6102e8366004612032565b6108f5565b3480156102f957600080fd5b50610147610308366004612032565b60096020526000908152604090205481565b34801561032657600080fd5b5061016d6103353660046120b2565b610a5d565b34801561034657600080fd5b50610147600c5481565b34801561035c57600080fd5b5061016d61036b366004611d60565b610ae9565b34801561037c57600080fd5b506103a961038b366004611d60565b6001600160a01b031660009081526001602052604090205460ff1690565b6040519015158152602001610151565b3480156103c557600080fd5b506101476103d4366004611e21565b600b60209081526000928352604080842090915290825290205481565b3480156103fd57600080fd5b5061014761040c366004611d9f565b610d25565b34801561041d57600080fd5b5061014761042c366004611d9f565b610d60565b34801561043d57600080fd5b5061045161044c366004611d9f565b610de6565b604051610151919061214b565b34801561046a57600080fd5b506101c2610479366004612032565b604080518082019091526000808252602082015250600090815260076020908152604091829020825180840190935280548352600101549082015290565b3480156104c357600080fd5b50600354610147565b3480156104d857600080fd5b506101956104e7366004612032565b610edd565b3480156104f857600080fd5b50610147610507366004612062565b610f07565b34801561051857600080fd5b50610147610527366004612032565b60086020526000908152604090205481565b34801561054557600080fd5b5061016d610554366004612091565b610f13565b60008111801561056857508034145b6105a45760405162461bcd60e51b81526020600482015260086024820152670dccacac840cae8d60c31b60448201526064015b60405180910390fd5b6105ae8282610f42565b5050565b604080518082018252600080825260209182018190526001600160a01b038416815260068252828120858252825282902082518084019093528054835260010154908201525b92915050565b3360009081526001602052604090205460ff1661062d5760405162461bcd60e51b815260040161059b906121d0565b60008381526007602052604090205464e8d4a510009061064d9084612408565b6106579190612365565b6001600160a01b03821660009081526006602090815260408083208784529091528120805490919061068a90849061230c565b9091555050505050565b606060028054806020026020016040519081016040528092919081815260200182805480156106ec57602002820191906000526020600020905b81546001600160a01b031681526001909101906020018083116106ce575b5050505050905090565b600054610100900460ff166107115760005460ff1615610715565b303b155b6107785760405162461bcd60e51b815260206004820152602e60248201527f496e697469616c697a61626c653a20636f6e747261637420697320616c72656160448201526d191e481a5b9a5d1a585b1a5e995960921b606482015260840161059b565b600054610100900460ff1615801561079a576000805461ffff19166101011790555b6107a48383611350565b80156107b6576000805461ff00191690555b505050565b600080546040516337c61fc560e11b815282916201000090046001600160a01b031690636f8c3f8a906107f390600890600401612183565b60206040518083038186803b15801561080b57600080fd5b505afa15801561081f573d6000803e3d6000fd5b505050506040513d601f19601f820116820180604052508101906108439190611d83565b90506000805b826001600160a01b031663eb08ab286040518163ffffffff1660e01b815260040160206040518083038186803b15801561088257600080fd5b505afa158015610896573d6000803e3d6000fd5b505050506040513d601f19601f820116820180604052508101906108ba919061204a565b81116108ed5760006108cc82876114a5565b5090506108d9818461234d565b925050806108e69061247d565b9050610849565b509392505050565b600080546040516337c61fc560e11b8152620100009091046001600160a01b031691636f8c3f8a9161092a9190600401612183565b60206040518083038186803b15801561094257600080fd5b505afa158015610956573d6000803e3d6000fd5b505050506040513d601f19601f8201168201806040525081019061097a9190611d83565b6001600160a01b031663f3ae2415336040518263ffffffff1660e01b81526004016109a591906120ea565b60206040518083038186803b1580156109bd57600080fd5b505afa1580156109d1573d6000803e3d6000fd5b505050506040513d601f19601f820116820180604052508101906109f59190611ef9565b610a585760405162461bcd60e51b815260206004820152602e60248201527f436f6e74726f6c6c65643a3a6f6e6c794d616e616765723a2043616c6c65722060448201526d34b9903737ba1036b0b730b3b2b960911b606482015260840161059b565b600c55565b3360009081526001602052604090205460ff16610a8c5760405162461bcd60e51b815260040161059b906121d0565b60008381526007602052604090205464e8d4a5100090610aac9084612408565b610ab69190612365565b6001600160a01b03821660009081526006602090815260408083208784529091528120805490919061068a908490612427565b600080546040516337c61fc560e11b8152620100009091046001600160a01b031691636f8c3f8a91610b1e9190600401612183565b60206040518083038186803b158015610b3657600080fd5b505afa158015610b4a573d6000803e3d6000fd5b505050506040513d601f19601f82011682018060405250810190610b6e9190611d83565b6001600160a01b0316632f54bf6e336040518263ffffffff1660e01b8152600401610b9991906120ea565b60206040518083038186803b158015610bb157600080fd5b505afa158015610bc5573d6000803e3d6000fd5b505050506040513d601f19601f82011682018060405250810190610be99190611ef9565b610c485760405162461bcd60e51b815260206004820152602a60248201527f436f6e74726f6c6c65643a3a6f6e6c794f776e65723a2043616c6c6572206973604482015269103737ba1037bbb732b960b11b606482015260840161059b565b6001600160a01b03811660009081526001602081905260408220805460ff19169091179055805b600254811015610cce5760028181548110610c9a57634e487b7160e01b600052603260045260246000fd5b6000918252602090912001546001600160a01b0384811691161415610cbe57600191505b610cc78161247d565b9050610c6f565b50806105ae57600280546001810182556000919091527f405787fa12a823e0f2b7631cc41b3ba8828b3321ca811111fa75cd3aa3bb5ace0180546001600160a01b0384166001600160a01b03199091161790555050565b6000805b828110156108ed576000610d3d82876114a5565b509050610d4a818461234d565b9250508080610d589061247d565b915050610d29565b3360009081526001602052604081205460ff16610d8f5760405162461bcd60e51b815260040161059b906121d0565b60005b828110156108ed57610dca848483818110610dbd57634e487b7160e01b600052603260045260246000fd5b905060200201358661162a565b610dd4908361234d565b9150610ddf8161247d565b9050610d92565b60606000826001600160401b03811115610e1057634e487b7160e01b600052604160045260246000fd5b604051908082528060200260200182016040528015610e39578160200160208202803683370190505b50905060005b83811015610ed4576001600160a01b038616600090815260066020526040812090868684818110610e8057634e487b7160e01b600052603260045260246000fd5b90506020020135815260200190815260200160002060010154828281518110610eb957634e487b7160e01b600052603260045260246000fd5b6020908102919091010152610ecd8161247d565b9050610e3f565b50949350505050565b60028181548110610eed57600080fd5b6000918252602090912001546001600160a01b0316905081565b60006108ed83836114a5565b3360009081526001602052604090205460ff166105a45760405162461bcd60e51b815260040161059b906121d0565b600082815260076020526040808220825491516337c61fc560e11b81529092916201000090046001600160a01b031690636f8c3f8a90610f8790600390600401612183565b60206040518083038186803b158015610f9f57600080fd5b505afa158015610fb3573d6000803e3d6000fd5b505050506040513d601f19601f82011682018060405250810190610fd79190611d83565b905060008415611101576000546040516337c61fc560e11b8152620100009091046001600160a01b031690636f8c3f8a9061101790600890600401612183565b60206040518083038186803b15801561102f57600080fd5b505afa158015611043573d6000803e3d6000fd5b505050506040513d601f19601f820116820180604052508101906110679190611d83565b6001600160a01b0316639d6eaec28661107f886118bf565b6040516001600160e01b031960e085901b16815260048101929092526001600160a01b0316602482015260440160206040518083038186803b1580156110c457600080fd5b505afa1580156110d8573d6000803e3d6000fd5b505050506040513d601f19601f820116820180604052508101906110fc919061204a565b611272565b6000546040516337c61fc560e11b8152620100009091046001600160a01b031690636f8c3f8a9061113790600190600401612183565b60206040518083038186803b15801561114f57600080fd5b505afa158015611163573d6000803e3d6000fd5b505050506040513d601f19601f820116820180604052508101906111879190611d83565b6001600160a01b031663f5465992836001600160a01b03166344fc9b566040518163ffffffff1660e01b815260040160206040518083038186803b1580156111ce57600080fd5b505afa1580156111e2573d6000803e3d6000fd5b505050506040513d601f19601f820116820180604052508101906112069190611d83565b6040518263ffffffff1660e01b815260040161122291906120ea565b60206040518083038186803b15801561123a57600080fd5b505afa15801561124e573d6000803e3d6000fd5b505050506040513d601f19601f82011682018060405250810190611272919061204a565b9050600081116112c45760405162461bcd60e51b815260206004820152601f60248201527f4574686572526577617264733a3a746f6b656e4e6f744465706f736974656400604482015260640161059b565b82546000868152600960209081526040808320939093556008905220429055806112f364e8d4a5100086612408565b6112fd9190612365565b836000016000828254611310919061234d565b925050819055508383600101600082825461132b919061234d565b925050819055508360036000828254611344919061234d565b90915550505050505050565b600054610100900460ff166113775760405162461bcd60e51b815260040161059b90612224565b6001600160a01b03811661139d5760405162461bcd60e51b815260040161059b906121ab565b60005b82518110156114135760006001600160a01b03168382815181106113d457634e487b7160e01b600052603260045260246000fd5b60200260200101516001600160a01b031614156114035760405162461bcd60e51b815260040161059b906121ab565b61140c8161247d565b90506113a0565b5060005b825181101561148757600180600085848151811061144557634e487b7160e01b600052603260045260246000fd5b6020908102919091018101516001600160a01b03168252810191909152604001600020805460ff19169115159190911790556114808161247d565b9050611417565b50815161149b906002906020850190611b81565b506105ae81611aff565b6001600160a01b0380821660009081526006602090815260408083208684528252808320815180830183528154815260019182015493810193909352835491516337c61fc560e11b815293948594859362010000900490911691636f8c3f8a916115129190600401612183565b60206040518083038186803b15801561152a57600080fd5b505afa15801561153e573d6000803e3d6000fd5b505050506040513d601f19601f820116820180604052508101906115629190611d83565b604051632dae18b360e01b81526001600160a01b0387811660048301526024820189905291925090821690632dae18b39060440160206040518083038186803b1580156115ae57600080fd5b505afa1580156115c2573d6000803e3d6000fd5b505050506040513d601f19601f820116820180604052508101906115e6919061204a565b60008781526007602052604090205490935061161f9064e8d4a510009061160e908690612408565b6116189190612365565b8351611b50565b935050509250929050565b600080600061163985856114a5565b909250905081156108ed576001600160a01b03841660009081526006602090815260408083208884528252808320546009835281842054600790935292205481156116845781611686565b805b6001600160a01b0388166000908152600a602090815260408083208c8452909152812054919350838210156116e8576116bf8285612466565b905064e8d4a510006116d18783612408565b6116db9190612365565b6116e5908661230c565b94505b6001600160a01b0389166000908152600b602090815260408083208d84529091529020548015611718578061171a565b425b60008c8152600860205260409020549091508015611738578061173a565b425b9050806117478342612466565b116117525780611754565b815b600c541561176457600c54611767565b60015b6117718888612466565b61177b9190612365565b6117859190612408565b925064e8d4a510006117978985612408565b6117a19190612365565b6117ab908861230c565b965086600660008d6001600160a01b03166001600160a01b0316815260200190815260200160002060008e81526020019081526020016000206000018190555082866117f7919061234d565b600a60008d6001600160a01b03166001600160a01b0316815260200190815260200160002060008e81526020019081526020016000208190555042600b60008d6001600160a01b03166001600160a01b0316815260200190815260200160002060008e815260200190815260200160002081905550886004600082825461187e919061234d565b90915550506001600160a01b038b16600090815260056020526040812080548b92906118ab90849061234d565b909155505050505050505050509392505050565b6000816119bc576000546040516337c61fc560e11b8152620100009091046001600160a01b031690636f8c3f8a906118fc90600390600401612183565b60206040518083038186803b15801561191457600080fd5b505afa158015611928573d6000803e3d6000fd5b505050506040513d601f19601f8201168201806040525081019061194c9190611d83565b6001600160a01b03166344fc9b566040518163ffffffff1660e01b815260040160206040518083038186803b15801561198457600080fd5b505afa158015611998573d6000803e3d6000fd5b505050506040513d601f19601f820116820180604052508101906105f89190611d83565b6000546040516337c61fc560e11b8152620100009091046001600160a01b031690636f8c3f8a906119f290600890600401612183565b60206040518083038186803b158015611a0a57600080fd5b505afa158015611a1e573d6000803e3d6000fd5b505050506040513d601f19601f82011682018060405250810190611a429190611d83565b6001600160a01b031663cfc0cc34836040518263ffffffff1660e01b8152600401611a6f91815260200190565b60006040518083038186803b158015611a8757600080fd5b505afa158015611a9b573d6000803e3d6000fd5b505050506040513d6000823e601f3d908101601f19168201604052611ac39190810190611f19565b60400151600081518110611ae757634e487b7160e01b600052603260045260246000fd5b6020026020010151602001519050919050565b919050565b600054610100900460ff16611b265760405162461bcd60e51b815260040161059b90612224565b600080546001600160a01b03909216620100000262010000600160b01b0319909216919091179055565b600080821215611b7757611b6682600019612385565b611b70908461234d565b90506105f8565b611b708284612466565b828054828255906000526020600020908101928215611bd6579160200282015b82811115611bd657825182546001600160a01b0319166001600160a01b03909116178255602090920191600190910190611ba1565b50611be2929150611be6565b5090565b5b80821115611be25760008155600101611be7565b8035611afa816124c4565b600082601f830112611c16578081fd5b81516020611c2b611c26836122e9565b6122b9565b80838252828201915082860187848660061b8901011115611c4a578586fd5b855b85811015611c9b57604080838b031215611c64578788fd5b611c6c61226f565b8351611c77816124c4565b8152611c84848801611d4c565b818801528552938501939190910190600101611c4c565b5090979650505050505050565b600082601f830112611cb8578081fd5b81516020611cc8611c26836122e9565b82815281810190858301606080860288018501891015611ce6578687fd5b865b86811015611d3e5781838b031215611cfe578788fd5b611d06612297565b8351815286840151611d17816124c4565b818801526040611d28858201611d4c565b9082015285529385019391810191600101611ce8565b509198975050505050505050565b805163ffffffff81168114611afa57600080fd5b600060208284031215611d71578081fd5b8135611d7c816124c4565b9392505050565b600060208284031215611d94578081fd5b8151611d7c816124c4565b600080600060408486031215611db3578182fd5b8335611dbe816124c4565b925060208401356001600160401b0380821115611dd9578384fd5b818601915086601f830112611dec578384fd5b813581811115611dfa578485fd5b8760208260051b8501011115611e0e578485fd5b6020830194508093505050509250925092565b60008060408385031215611e33578182fd5b8235611e3e816124c4565b946020939093013593505050565b60008060408385031215611e5e578182fd5b82356001600160401b03811115611e73578283fd5b8301601f81018513611e83578283fd5b80356020611e93611c26836122e9565b80838252828201915082850189848660051b8801011115611eb2578788fd5b8795505b84861015611edd578035611ec9816124c4565b835260019590950194918301918301611eb6565b509550611eed9050868201611bfb565b93505050509250929050565b600060208284031215611f0a578081fd5b81518015158114611d7c578182fd5b60006020808385031215611f2b578182fd5b82516001600160401b0380821115611f41578384fd5b9084019060608287031215611f54578384fd5b611f5c612297565b825182811115611f6a578586fd5b8301601f81018813611f7a578586fd5b805183811115611f8c57611f8c6124ae565b611f9e601f8201601f191687016122b9565b8181528987838501011115611fb1578788fd5b875b82811015611fce578381018801518282018901528701611fb3565b82811115611fde57888884840101525b50835250508284015182811115611ff3578586fd5b611fff88828601611c06565b85830152506040830151935081841115612017578485fd5b61202387858501611ca8565b60408201529695505050505050565b600060208284031215612043578081fd5b5035919050565b60006020828403121561205b578081fd5b5051919050565b60008060408385031215612074578182fd5b823591506020830135612086816124c4565b809150509250929050565b600080604083850312156120a3578182fd5b50508035926020909101359150565b6000806000606084860312156120c6578081fd5b833592506020840135915060408401356120df816124c4565b809150509250925092565b6001600160a01b0391909116815260200190565b6020808252825182820181905260009190848201906040850190845b8181101561213f5783516001600160a01b03168352928401929184019160010161211a565b50909695505050505050565b6020808252825182820181905260009190848201906040850190845b8181101561213f57835183529284019291840191600101612167565b60208101600e83106121a557634e487b7160e01b600052602160045260246000fd5b91905290565b6020808252600b908201526a626164206164647265737360a81b604082015260600190565b60208082526034908201527f436f6e74726f6c6c65643a3a6f6e6c79436f6e74726f6c6c65723a2043616c6c60408201527332b91034b9903737ba1031b7b73a3937b63632b960611b606082015260800190565b6020808252602b908201527f496e697469616c697a61626c653a20636f6e7472616374206973206e6f74206960408201526a6e697469616c697a696e6760a81b606082015260800190565b604080519081016001600160401b0381118282101715612291576122916124ae565b60405290565b604051606081016001600160401b0381118282101715612291576122916124ae565b604051601f8201601f191681016001600160401b03811182821017156122e1576122e16124ae565b604052919050565b60006001600160401b03821115612302576123026124ae565b5060051b60200190565b600080821280156001600160ff1b038490038513161561232e5761232e612498565b600160ff1b839003841281161561234757612347612498565b50500190565b6000821982111561236057612360612498565b500190565b60008261238057634e487b7160e01b81526012600452602481fd5b500490565b60006001600160ff1b03818413828413808216868404861116156123ab576123ab612498565b600160ff1b848712828116878305891216156123c9576123c9612498565b8587129250878205871284841616156123e4576123e4612498565b878505871281841616156123fa576123fa612498565b505050929093029392505050565b600081600019048311821515161561242257612422612498565b500290565b60008083128015600160ff1b85018412161561244557612445612498565b6001600160ff1b038401831381161561246057612460612498565b50500390565b60008282101561247857612478612498565b500390565b600060001982141561249157612491612498565b5060010190565b634e487b7160e01b600052601160045260246000fd5b634e487b7160e01b600052604160045260246000fd5b6001600160a01b03811681146124d957600080fd5b5056fea26469706673582212202d7484e4dbf235868aaf8f8f0c74a6306da25b71c302ebf4fca6ae6187afc0fc64736f6c63430008040033",
  "devdoc": {
    "kind": "dev",
    "methods": {
      "claimEthRewards(address,uint256[])": {
        "params": {
          "ids": "An array of strategyIds to claim rewards for",
          "user": "The address of the user"
        },
        "returns": {
          "ethRewards": "The amount of Ether claimed"
        }
      },
      "decreaseUserRewards(uint256,uint256,address)": {
        "params": {
          "amount": "Amount of token exiting from a strategy",
          "strategyId": "Strategy the user exited",
          "user": "The address of the user"
        }
      },
      "getEthRewards()": {
        "returns": {
          "_0": "The total amount of Ether rewards"
        }
      },
      "getTotalClaimedEthRewards()": {
        "returns": {
          "_0": "The total value of ETH claimed by users"
        }
      },
      "getTotalUserClaimedEthRewards(address)": {
        "returns": {
          "_0": "The total value of ETH claimed by a user"
        }
      },
      "getUserEthRewards(address)": {
        "params": {
          "user": "The address of the user"
        },
        "returns": {
          "_0": "ethRewards The amount of Ether claimed"
        }
      },
      "getUserEthRewards(address,uint256[])": {
        "params": {
          "ids": "An array of strategyIds to claim rewards for",
          "user": "The address of the user"
        },
        "returns": {
          "totalRewards": "The amount of Ether claimed"
        }
      },
      "getUserStrategyRewards(uint256,address)": {
        "params": {
          "strategyId": "The ID of the strategy",
          "user": "The address of the user"
        },
        "returns": {
          "ethRewards": "The amount of claimable Ether"
        }
      },
      "increaseEthRewards(uint256,uint256)": {
        "details": "strategyId = 0 for BIOS PFA!",
        "params": {
          "ethRewardsAmount": "The amount of Ether rewards to add",
          "strategyId": "The strategyId of the strategy to increase rewards for"
        }
      },
      "increaseUserRewards(uint256,uint256,address)": {
        "params": {
          "amount": "Amount of token entered into strategy",
          "strategyId": "Strategy the user entered into",
          "user": "The address of the user"
        }
      },
      "initialize(address[],address)": {
        "params": {
          "controllers_": "The array of controllers for this contract",
          "moduleMap_": "The address of the ModuleMap contract"
        }
      }
    },
    "version": 1
  },
  "userdoc": {
    "kind": "user",
    "methods": {
      "setEmissionPeriod(uint256)": {
        "notice": "Sets the nominal period between eth distributions"
      },
      "userLastWithdrawalRPS(address,uint256)": {
        "notice": "user => strategy => rps at last withdrawal"
      }
    },
    "version": 1
  },
  "storageLayout": {
    "storage": [
      {
        "astId": 702,
        "contract": "contracts/core/EtherRewards.sol:EtherRewards",
        "label": "_initialized",
        "offset": 0,
        "slot": "0",
        "type": "t_bool"
      },
      {
        "astId": 705,
        "contract": "contracts/core/EtherRewards.sol:EtherRewards",
        "label": "_initializing",
        "offset": 1,
        "slot": "0",
        "type": "t_bool"
      },
      {
        "astId": 15684,
        "contract": "contracts/core/EtherRewards.sol:EtherRewards",
        "label": "moduleMap",
        "offset": 2,
        "slot": "0",
        "type": "t_contract(IModuleMap)29669"
      },
      {
        "astId": 9016,
        "contract": "contracts/core/EtherRewards.sol:EtherRewards",
        "label": "_controllers",
        "offset": 0,
        "slot": "1",
        "type": "t_mapping(t_address,t_bool)"
      },
      {
        "astId": 9019,
        "contract": "contracts/core/EtherRewards.sol:EtherRewards",
        "label": "controllers",
        "offset": 0,
        "slot": "2",
        "type": "t_array(t_address)dyn_storage"
      },
      {
        "astId": 9233,
        "contract": "contracts/core/EtherRewards.sol:EtherRewards",
        "label": "totalEthRewards",
        "offset": 0,
        "slot": "3",
        "type": "t_uint256"
      },
      {
        "astId": 9235,
        "contract": "contracts/core/EtherRewards.sol:EtherRewards",
        "label": "totalClaimedEthRewards",
        "offset": 0,
        "slot": "4",
        "type": "t_uint256"
      },
      {
        "astId": 9239,
        "contract": "contracts/core/EtherRewards.sol:EtherRewards",
        "label": "totalUserClaimedEthRewards",
        "offset": 0,
        "slot": "5",
        "type": "t_mapping(t_address,t_uint256)"
      },
      {
        "astId": 9246,
        "contract": "contracts/core/EtherRewards.sol:EtherRewards",
        "label": "users",
        "offset": 0,
        "slot": "6",
        "type": "t_mapping(t_address,t_mapping(t_uint256,t_struct(UserInfo)28345_storage))"
      },
      {
        "astId": 9251,
        "contract": "contracts/core/EtherRewards.sol:EtherRewards",
        "label": "strategies",
        "offset": 0,
        "slot": "7",
        "type": "t_mapping(t_uint256,t_struct(StrategyInfo)28350_storage)"
      },
      {
        "astId": 9258,
        "contract": "contracts/core/EtherRewards.sol:EtherRewards",
        "label": "lastEthDistribution",
        "offset": 0,
        "slot": "8",
        "type": "t_mapping(t_uint256,t_uint256)"
      },
      {
        "astId": 9262,
        "contract": "contracts/core/EtherRewards.sol:EtherRewards",
        "label": "rpsAtPeriodStart",
        "offset": 0,
        "slot": "9",
        "type": "t_mapping(t_uint256,t_uint256)"
      },
      {
        "astId": 9269,
        "contract": "contracts/core/EtherRewards.sol:EtherRewards",
        "label": "userLastWithdrawalRPS",
        "offset": 0,
        "slot": "10",
        "type": "t_mapping(t_address,t_mapping(t_uint256,t_uint256))"
      },
      {
        "astId": 9275,
        "contract": "contracts/core/EtherRewards.sol:EtherRewards",
        "label": "userLastWithdrawalTime",
        "offset": 0,
        "slot": "11",
        "type": "t_mapping(t_address,t_mapping(t_uint256,t_uint256))"
      },
      {
        "astId": 9277,
        "contract": "contracts/core/EtherRewards.sol:EtherRewards",
        "label": "emissionPeriod",
        "offset": 0,
        "slot": "12",
        "type": "t_uint256"
      }
    ],
    "types": {
      "t_address": {
        "encoding": "inplace",
        "label": "address",
        "numberOfBytes": "20"
      },
      "t_array(t_address)dyn_storage": {
        "base": "t_address",
        "encoding": "dynamic_array",
        "label": "address[]",
        "numberOfBytes": "32"
      },
      "t_bool": {
        "encoding": "inplace",
        "label": "bool",
        "numberOfBytes": "1"
      },
      "t_contract(IModuleMap)29669": {
        "encoding": "inplace",
        "label": "contract IModuleMap",
        "numberOfBytes": "20"
      },
      "t_int256": {
        "encoding": "inplace",
        "label": "int256",
        "numberOfBytes": "32"
      },
      "t_mapping(t_address,t_bool)": {
        "encoding": "mapping",
        "key": "t_address",
        "label": "mapping(address => bool)",
        "numberOfBytes": "32",
        "value": "t_bool"
      },
      "t_mapping(t_address,t_mapping(t_uint256,t_struct(UserInfo)28345_storage))": {
        "encoding": "mapping",
        "key": "t_address",
        "label": "mapping(address => mapping(uint256 => struct IEtherRewards.UserInfo))",
        "numberOfBytes": "32",
        "value": "t_mapping(t_uint256,t_struct(UserInfo)28345_storage)"
      },
      "t_mapping(t_address,t_mapping(t_uint256,t_uint256))": {
        "encoding": "mapping",
        "key": "t_address",
        "label": "mapping(address => mapping(uint256 => uint256))",
        "numberOfBytes": "32",
        "value": "t_mapping(t_uint256,t_uint256)"
      },
      "t_mapping(t_address,t_uint256)": {
        "encoding": "mapping",
        "key": "t_address",
        "label": "mapping(address => uint256)",
        "numberOfBytes": "32",
        "value": "t_uint256"
      },
      "t_mapping(t_uint256,t_struct(StrategyInfo)28350_storage)": {
        "encoding": "mapping",
        "key": "t_uint256",
        "label": "mapping(uint256 => struct IEtherRewards.StrategyInfo)",
        "numberOfBytes": "32",
        "value": "t_struct(StrategyInfo)28350_storage"
      },
      "t_mapping(t_uint256,t_struct(UserInfo)28345_storage)": {
        "encoding": "mapping",
        "key": "t_uint256",
        "label": "mapping(uint256 => struct IEtherRewards.UserInfo)",
        "numberOfBytes": "32",
        "value": "t_struct(UserInfo)28345_storage"
      },
      "t_mapping(t_uint256,t_uint256)": {
        "encoding": "mapping",
        "key": "t_uint256",
        "label": "mapping(uint256 => uint256)",
        "numberOfBytes": "32",
        "value": "t_uint256"
      },
      "t_struct(StrategyInfo)28350_storage": {
        "encoding": "inplace",
        "label": "struct IEtherRewards.StrategyInfo",
        "members": [
          {
            "astId": 28347,
            "contract": "contracts/core/EtherRewards.sol:EtherRewards",
            "label": "rewardPerShare",
            "offset": 0,
            "slot": "0",
            "type": "t_uint256"
          },
          {
            "astId": 28349,
            "contract": "contracts/core/EtherRewards.sol:EtherRewards",
            "label": "totalRewards",
            "offset": 0,
            "slot": "1",
            "type": "t_uint256"
          }
        ],
        "numberOfBytes": "64"
      },
      "t_struct(UserInfo)28345_storage": {
        "encoding": "inplace",
        "label": "struct IEtherRewards.UserInfo",
        "members": [
          {
            "astId": 28342,
            "contract": "contracts/core/EtherRewards.sol:EtherRewards",
            "label": "rewardDebt",
            "offset": 0,
            "slot": "0",
            "type": "t_int256"
          },
          {
            "astId": 28344,
            "contract": "contracts/core/EtherRewards.sol:EtherRewards",
            "label": "claimedRewards",
            "offset": 0,
            "slot": "1",
            "type": "t_uint256"
          }
        ],
        "numberOfBytes": "64"
      },
      "t_uint256": {
        "encoding": "inplace",
        "label": "uint256",
        "numberOfBytes": "32"
      }
    }
  }
}