{
  "address": "0xC338967E0E296d11A0Fa81d640A23051BE21F7cb",
  "abi": [
    {
      "anonymous": false,
      "inputs": [
        {
          "indexed": true,
          "internalType": "address",
          "name": "user",
          "type": "address"
        },
        {
          "indexed": false,
          "internalType": "address[]",
          "name": "tokens",
          "type": "address[]"
        },
        {
          "indexed": false,
          "internalType": "uint256[]",
          "name": "amounts",
          "type": "uint256[]"
        }
      ],
      "name": "BridgeFrom",
      "type": "event"
    },
    {
      "anonymous": false,
      "inputs": [
        {
          "indexed": true,
          "internalType": "address",
          "name": "user",
          "type": "address"
        },
        {
          "indexed": false,
          "internalType": "address[]",
          "name": "tokens",
          "type": "address[]"
        },
        {
          "indexed": false,
          "internalType": "uint256[]",
          "name": "amounts",
          "type": "uint256[]"
        }
      ],
      "name": "BridgeTo",
      "type": "event"
    },
    {
      "anonymous": false,
      "inputs": [
        {
          "indexed": true,
          "internalType": "address",
          "name": "user",
          "type": "address"
        },
        {
          "indexed": false,
          "internalType": "address[]",
          "name": "tokens",
          "type": "address[]"
        }
      ],
      "name": "ClaimLpFeeRewards",
      "type": "event"
    },
    {
      "anonymous": false,
      "inputs": [
        {
          "indexed": true,
          "internalType": "address",
          "name": "user",
          "type": "address"
        },
        {
          "indexed": false,
          "internalType": "address[]",
          "name": "tokens",
          "type": "address[]"
        },
        {
          "indexed": false,
          "internalType": "uint256[]",
          "name": "tokenAmounts",
          "type": "uint256[]"
        }
      ],
      "name": "ProvideLiquidity",
      "type": "event"
    },
    {
      "anonymous": false,
      "inputs": [
        {
          "components": [
            {
              "internalType": "address",
              "name": "user",
              "type": "address"
            },
            {
              "internalType": "uint256",
              "name": "strategyId",
              "type": "uint256"
            },
            {
              "internalType": "bool",
              "name": "enterStrat",
              "type": "bool"
            },
            {
              "internalType": "uint256",
              "name": "nonce",
              "type": "uint256"
            },
            {
              "components": [
                {
                  "internalType": "address",
                  "name": "token",
                  "type": "address"
                },
                {
                  "internalType": "uint256",
                  "name": "amount",
                  "type": "uint256"
                }
              ],
              "internalType": "struct IUserPositions.TokenMovement[]",
              "name": "movements",
              "type": "tuple[]"
            },
            {
              "internalType": "bytes",
              "name": "signature",
              "type": "bytes"
            }
          ],
          "indexed": false,
          "internalType": "struct IInterconnects.RemoteStrategyExecutionBody",
          "name": "req",
          "type": "tuple"
        }
      ],
      "name": "RSE",
      "type": "event"
    },
    {
      "anonymous": false,
      "inputs": [
        {
          "indexed": true,
          "internalType": "address",
          "name": "user",
          "type": "address"
        },
        {
          "indexed": false,
          "internalType": "address[]",
          "name": "tokens",
          "type": "address[]"
        },
        {
          "indexed": false,
          "internalType": "uint256[]",
          "name": "tokenAmounts",
          "type": "uint256[]"
        }
      ],
      "name": "TakeLiquidity",
      "type": "event"
    },
    {
      "anonymous": false,
      "inputs": [
        {
          "indexed": true,
          "internalType": "address",
          "name": "user",
          "type": "address"
        },
        {
          "indexed": false,
          "internalType": "address[]",
          "name": "tokens",
          "type": "address[]"
        },
        {
          "indexed": false,
          "internalType": "uint256[]",
          "name": "amounts",
          "type": "uint256[]"
        }
      ],
      "name": "UndoBridgeFrom",
      "type": "event"
    },
    {
      "anonymous": false,
      "inputs": [
        {
          "indexed": false,
          "internalType": "address[]",
          "name": "tokens",
          "type": "address[]"
        },
        {
          "indexed": false,
          "internalType": "uint256[]",
          "name": "tokenAmounts",
          "type": "uint256[]"
        },
        {
          "indexed": false,
          "internalType": "bool[]",
          "name": "add",
          "type": "bool[]"
        }
      ],
      "name": "UpdateTokenPoolLpBalances",
      "type": "event"
    },
    {
      "inputs": [],
      "name": "RSE_FEE_DENOMINATOR",
      "outputs": [
        {
          "internalType": "uint32",
          "name": "",
          "type": "uint32"
        }
      ],
      "stateMutability": "view",
      "type": "function"
    },
    {
      "inputs": [
        {
          "internalType": "address[]",
          "name": "controllers_",
          "type": "address[]"
        },
        {
          "internalType": "address",
          "name": "moduleMap_",
          "type": "address"
        }
      ],
      "name": "__Controlled_init",
      "outputs": [],
      "stateMutability": "nonpayable",
      "type": "function"
    },
    {
      "inputs": [
        {
          "internalType": "address",
          "name": "controller",
          "type": "address"
        }
      ],
      "name": "addController",
      "outputs": [],
      "stateMutability": "nonpayable",
      "type": "function"
    },
    {
      "inputs": [
        {
          "internalType": "address",
          "name": "user",
          "type": "address"
        },
        {
          "internalType": "address[]",
          "name": "tokens",
          "type": "address[]"
        },
        {
          "internalType": "uint256[]",
          "name": "amounts",
          "type": "uint256[]"
        }
      ],
      "name": "bridgeFrom",
      "outputs": [],
      "stateMutability": "nonpayable",
      "type": "function"
    },
    {
      "inputs": [
        {
          "internalType": "address",
          "name": "user",
          "type": "address"
        },
        {
          "internalType": "address[]",
          "name": "tokens",
          "type": "address[]"
        },
        {
          "internalType": "uint256[]",
          "name": "amounts",
          "type": "uint256[]"
        }
      ],
      "name": "bridgeTo",
      "outputs": [],
      "stateMutability": "nonpayable",
      "type": "function"
    },
    {
      "inputs": [
        {
          "internalType": "address",
          "name": "user",
          "type": "address"
        },
        {
          "internalType": "address[]",
          "name": "tokens",
          "type": "address[]"
        }
      ],
      "name": "claimLpFeeRewards",
      "outputs": [],
      "stateMutability": "nonpayable",
      "type": "function"
    },
    {
      "inputs": [
        {
          "internalType": "uint256",
          "name": "",
          "type": "uint256"
        }
      ],
      "name": "controllers",
      "outputs": [
        {
          "internalType": "address",
          "name": "",
          "type": "address"
        }
      ],
      "stateMutability": "view",
      "type": "function"
    },
    {
      "inputs": [],
      "name": "getRelayAccount",
      "outputs": [
        {
          "internalType": "address",
          "name": "",
          "type": "address"
        }
      ],
      "stateMutability": "view",
      "type": "function"
    },
    {
      "inputs": [
        {
          "internalType": "address",
          "name": "asset",
          "type": "address"
        }
      ],
      "name": "getTokenLpUsers",
      "outputs": [
        {
          "internalType": "address[]",
          "name": "",
          "type": "address[]"
        }
      ],
      "stateMutability": "view",
      "type": "function"
    },
    {
      "inputs": [
        {
          "internalType": "address",
          "name": "asset",
          "type": "address"
        }
      ],
      "name": "getTokenPoolLpActivePositions",
      "outputs": [
        {
          "internalType": "uint256",
          "name": "",
          "type": "uint256"
        }
      ],
      "stateMutability": "view",
      "type": "function"
    },
    {
      "inputs": [
        {
          "internalType": "address",
          "name": "asset",
          "type": "address"
        }
      ],
      "name": "getTokenPoolLpBalance",
      "outputs": [
        {
          "internalType": "uint256",
          "name": "",
          "type": "uint256"
        }
      ],
      "stateMutability": "view",
      "type": "function"
    },
    {
      "inputs": [
        {
          "internalType": "address",
          "name": "asset",
          "type": "address"
        }
      ],
      "name": "getTokenProtocolFeeRewards",
      "outputs": [
        {
          "internalType": "uint256",
          "name": "",
          "type": "uint256"
        }
      ],
      "stateMutability": "view",
      "type": "function"
    },
    {
      "inputs": [
        {
          "internalType": "address",
          "name": "asset",
          "type": "address"
        },
        {
          "internalType": "address",
          "name": "user",
          "type": "address"
        }
      ],
      "name": "getTokenUserLpBalance",
      "outputs": [
        {
          "internalType": "uint256",
          "name": "",
          "type": "uint256"
        }
      ],
      "stateMutability": "view",
      "type": "function"
    },
    {
      "inputs": [
        {
          "internalType": "address",
          "name": "asset",
          "type": "address"
        },
        {
          "internalType": "address",
          "name": "user",
          "type": "address"
        }
      ],
      "name": "getTokenUserLpFeeRewardBalance",
      "outputs": [
        {
          "internalType": "uint256",
          "name": "",
          "type": "uint256"
        }
      ],
      "stateMutability": "view",
      "type": "function"
    },
    {
      "inputs": [
        {
          "internalType": "address[]",
          "name": "controllers_",
          "type": "address[]"
        },
        {
          "internalType": "address",
          "name": "moduleMap_",
          "type": "address"
        },
        {
          "internalType": "address payable",
          "name": "relayAccount_",
          "type": "address"
        },
        {
          "internalType": "uint32",
          "name": "_rseFeeNumerator",
          "type": "uint32"
        }
      ],
      "name": "initialize",
      "outputs": [],
      "stateMutability": "nonpayable",
      "type": "function"
    },
    {
      "inputs": [],
      "name": "moduleMap",
      "outputs": [
        {
          "internalType": "contract IModuleMap",
          "name": "",
          "type": "address"
        }
      ],
      "stateMutability": "view",
      "type": "function"
    },
    {
      "inputs": [
        {
          "internalType": "address",
          "name": "user",
          "type": "address"
        },
        {
          "internalType": "address[]",
          "name": "tokens",
          "type": "address[]"
        },
        {
          "internalType": "uint256[]",
          "name": "amounts",
          "type": "uint256[]"
        }
      ],
      "name": "provideLiquidity",
      "outputs": [],
      "stateMutability": "nonpayable",
      "type": "function"
    },
    {
      "inputs": [
        {
          "components": [
            {
              "internalType": "address",
              "name": "user",
              "type": "address"
            },
            {
              "internalType": "uint256",
              "name": "strategyId",
              "type": "uint256"
            },
            {
              "internalType": "bool",
              "name": "enterStrat",
              "type": "bool"
            },
            {
              "internalType": "uint256",
              "name": "nonce",
              "type": "uint256"
            },
            {
              "components": [
                {
                  "internalType": "address",
                  "name": "token",
                  "type": "address"
                },
                {
                  "internalType": "uint256",
                  "name": "amount",
                  "type": "uint256"
                }
              ],
              "internalType": "struct IUserPositions.TokenMovement[]",
              "name": "movements",
              "type": "tuple[]"
            },
            {
              "internalType": "bytes",
              "name": "signature",
              "type": "bytes"
            }
          ],
          "internalType": "struct IInterconnects.RemoteStrategyExecutionBody",
          "name": "req",
          "type": "tuple"
        }
      ],
      "name": "remoteStrategyExecution",
      "outputs": [],
      "stateMutability": "nonpayable",
      "type": "function"
    },
    {
      "inputs": [],
      "name": "rseFeeNumerator",
      "outputs": [
        {
          "internalType": "uint32",
          "name": "",
          "type": "uint32"
        }
      ],
      "stateMutability": "view",
      "type": "function"
    },
    {
      "inputs": [
        {
          "internalType": "address",
          "name": "user",
          "type": "address"
        },
        {
          "internalType": "address[]",
          "name": "tokens",
          "type": "address[]"
        },
        {
          "internalType": "uint256[]",
          "name": "amounts",
          "type": "uint256[]"
        }
      ],
      "name": "takeLiquidity",
      "outputs": [],
      "stateMutability": "nonpayable",
      "type": "function"
    },
    {
      "inputs": [
        {
          "internalType": "address",
          "name": "user",
          "type": "address"
        },
        {
          "internalType": "address[]",
          "name": "tokens",
          "type": "address[]"
        },
        {
          "internalType": "uint256[]",
          "name": "amounts",
          "type": "uint256[]"
        }
      ],
      "name": "undoBridgeFrom",
      "outputs": [],
      "stateMutability": "nonpayable",
      "type": "function"
    },
    {
      "inputs": [
        {
          "internalType": "uint32",
          "name": "numerator",
          "type": "uint32"
        }
      ],
      "name": "updateRSEFeeNumerator",
      "outputs": [],
      "stateMutability": "nonpayable",
      "type": "function"
    },
    {
      "inputs": [
        {
          "internalType": "address payable",
          "name": "relayAccount_",
          "type": "address"
        }
      ],
      "name": "updateRelayAccount",
      "outputs": [],
      "stateMutability": "nonpayable",
      "type": "function"
    },
    {
      "inputs": [
        {
          "components": [
            {
              "internalType": "address",
              "name": "user",
              "type": "address"
            },
            {
              "internalType": "uint256",
              "name": "strategyId",
              "type": "uint256"
            },
            {
              "internalType": "bool",
              "name": "enterStrat",
              "type": "bool"
            },
            {
              "internalType": "uint256",
              "name": "nonce",
              "type": "uint256"
            },
            {
              "components": [
                {
                  "internalType": "address",
                  "name": "token",
                  "type": "address"
                },
                {
                  "internalType": "uint256",
                  "name": "amount",
                  "type": "uint256"
                }
              ],
              "internalType": "struct IUserPositions.TokenMovement[]",
              "name": "movements",
              "type": "tuple[]"
            },
            {
              "internalType": "bytes",
              "name": "signature",
              "type": "bytes"
            }
          ],
          "internalType": "struct IInterconnects.RemoteStrategyExecutionBody",
          "name": "req",
          "type": "tuple"
        }
      ],
      "name": "verifyRSE",
      "outputs": [
        {
          "internalType": "bool",
          "name": "",
          "type": "bool"
        }
      ],
      "stateMutability": "pure",
      "type": "function"
    }
  ],
  "transactionHash": "0xcbe1dd432b2711b62e3e9339690b158d1ad8a09f8ebf7995b15632864b1926c0",
  "args": [],
  "solcInputHash": "0647925c6c56694193b41876b5cccaaf",
  "bytecode": "0x608060405234801561001057600080fd5b506151c8806100206000396000f3fe608060405234801561001057600080fd5b50600436106101285760003560e01c80630f0a1c6f1461012d57806316c0f76b1461015c5780632e140f1d1461016d5780633dbcbbae14610190578063402c68cc146101c757806343f0a5bb146101dc5780634572b30c146101ef5780634da193951461020257806364ee534714610221578063894105e0146102345780638ba2f3cf1461024457806390d81be91461028057806392092de71461029357806392f917c8146102a657806398c671ce146102b9578063a07f12a3146102cc578063a7fc7a07146102f5578063aaba1ca214610308578063b59b464b14610328578063c52170461461033b578063c5efb53a1461034e578063d84ac98c14610387578063e94b0dd21461039a578063fd2b5134146103ad575b600080fd5b600054610146906201000090046001600160a01b031681565b6040516101539190614a30565b60405180910390f35b6035546001600160a01b0316610146565b61018061017b3660046147c8565b6103c0565b6040519015158152602001610153565b6101b961019e3660046144e2565b6001600160a01b031660009081526038602052604090205490565b604051908152602001610153565b6101da6101d536600461462a565b610490565b005b6101da6101ea3660046145ab565b61081a565b6101da6101fd3660046148b9565b6110c8565b61020c620f424081565b60405163ffffffff9091168152602001610153565b6101da61022f3660046147c8565b611200565b603c5461020c9063ffffffff1681565b6101b9610252366004614521565b6001600160a01b03918216600090815260366020908152604080832093909416825291909152206001015490565b6101da61028e36600461462a565b611712565b6101da6102a136600461462a565b611aca565b6101da6102b436600461473a565b611ff1565b6101da6102c73660046146f6565b6120a1565b6101b96102da3660046144e2565b6001600160a01b031660009081526037602052604090205490565b6101da6103033660046144e2565b612247565b61031b6103163660046144e2565b612484565b6040516101539190614b42565b6101da6103363660046144e2565b6124fa565b6101b96103493660046144e2565b612638565b6101b961035c366004614521565b6001600160a01b03918216600090815260366020908152604080832093909416825291909152205490565b6101da610395366004614559565b612737565b6101466103a8366004614889565b612b0d565b6101da6103bb3660046145ab565b612b37565b600080826000015183602001518460400151856060015186608001516040516020016103f0959493929190614a44565b6040516020818303038152906040528051906020012090506000610460826040517b0ca2ba3432b932bab69029b4b3b732b21026b2b9b9b0b3b29d05199960211b6020820152603c8101829052600090605c01604051602081830303815290604052805190602001209050919050565b905083600001516001600160a01b031661047e828660a001516133c4565b6001600160a01b031614949350505050565b6035546001600160a01b031633146104c35760405162461bcd60e51b81526004016104ba90614c36565b60405180910390fd5b818160008060029054906101000a90046001600160a01b03166001600160a01b0316636f8c3f8a60036040518263ffffffff1660e01b81526004016105089190614c0e565b60206040518083038186803b15801561052057600080fd5b505afa158015610534573d6000803e3d6000fd5b505050506040513d601f19601f820116820180604052508101906105589190614505565b9050815183511461057b5760405162461bcd60e51b81526004016104ba90614d51565b60005b835181101561065857816001600160a01b031663ea0db2968583815181106105b657634e487b7160e01b600052603260045260246000fd5b60200260200101516040518263ffffffff1660e01b81526004016105da9190614a30565b60206040518083038186803b1580156105f257600080fd5b505afa158015610606573d6000803e3d6000fd5b505050506040513d601f19601f8201168201806040525081019061062a91906147ac565b6106465760405162461bcd60e51b81526004016104ba90614c92565b8061065081615073565b91505061057e565b506002600354141561067c5760405162461bcd60e51b81526004016104ba90614e40565b600260035584516000906001600160401b038111156106ab57634e487b7160e01b600052604160045260246000fd5b6040519080825280602002602001820160405280156106d4578160200160208202803683370190505b50600080546040516337c61fc560e11b81529293509091620100009091046001600160a01b031690636f8c3f8a9061071190600190600401614c0e565b60206040518083038186803b15801561072957600080fd5b505afa15801561073d573d6000803e3d6000fd5b505050506040513d601f19601f820116820180604052508101906107619190614505565b60405163f0f25dd560e01b81529091506001600160a01b0382169063f0f25dd590610796908a908c908b908890600401614b55565b600060405180830381600087803b1580156107b057600080fd5b505af11580156107c4573d6000803e3d6000fd5b50505050876001600160a01b03167fc0d927b1a552ab2c106f99c6abfa28a20e4ad4feea024b7997adff3d1885bd0b8888604051610803929190614b9d565b60405180910390a250506001600355505050505050565b3360009081526001602052604090205460ff166108495760405162461bcd60e51b81526004016104ba90614dec565b8281146108cf5760405162461bcd60e51b815260206004820152604860248201527f496e746572636f6e6e656374733a3a74616b654c69717569646974793a204c6560448201527f6e677468206f6620746f6b656e7320616e6420616d6f756e7473206d75737420606482015267189948195c5d585b60c21b608482015260a4016104ba565b600080546040516337c61fc560e11b8152620100009091046001600160a01b031690636f8c3f8a9061090690600190600401614c0e565b60206040518083038186803b15801561091e57600080fd5b505afa158015610932573d6000803e3d6000fd5b505050506040513d601f19601f820116820180604052508101906109569190614505565b90506000846001600160401b0381111561098057634e487b7160e01b600052604160045260246000fd5b6040519080825280602002602001820160405280156109a9578160200160208202803683370190505b5090506000836001600160401b038111156109d457634e487b7160e01b600052604160045260246000fd5b6040519080825280602002602001820160405280156109fd578160200160208202803683370190505b5090506000866001600160401b03811115610a2857634e487b7160e01b600052604160045260246000fd5b604051908082528060200260200182016040528015610a51578160200160208202803683370190505b50905060005b87811015611011576000898983818110610a8157634e487b7160e01b600052603260045260246000fd5b9050602002016020810190610a9691906144e2565b90506000888884818110610aba57634e487b7160e01b600052603260045260246000fd5b90506020020135118015610b1957506001600160a01b038082166000908152603660209081526040808320938f1683529290522054888884818110610b0f57634e487b7160e01b600052603260045260246000fd5b9050602002013511155b610bbb5760405162461bcd60e51b8152602060048201526073602482015260008051602061515383398151915260448201527f20616d6f756e74206d7573742062652067726561746572207468616e207a657260648201527f6f20616e64206e6f206d6f7265207468616e20746865207573657227732062616084820152723630b731b2903337b9103a3432903a37b5b2b760691b60a482015260c4016104ba565b6001600160a01b038116600090815260376020526040902054888884818110610bf457634e487b7160e01b600052603260045260246000fd5b905060200201351115610c8f5760405162461bcd60e51b8152602060048201526063602482015260008051602061515383398151915260448201527f20616d6f756e74206d757374206265206e6f206d6f7265207468616e2074686560648201527f20617661696c61626c6520616d6f756e7420696e2074686520746f6b656e20706084820152621bdbdb60ea1b60a482015260c4016104ba565b80858381518110610cb057634e487b7160e01b600052603260045260246000fd5b60200260200101906001600160a01b031690816001600160a01b031681525050878783818110610cf057634e487b7160e01b600052603260045260246000fd5b90506020020135848381518110610d1757634e487b7160e01b600052603260045260246000fd5b6020026020010181815250506001838381518110610d4557634e487b7160e01b600052603260045260246000fd5b91151560209283029190910190910152878783818110610d7557634e487b7160e01b600052603260045260246000fd5b9050602002013560366000836001600160a01b03166001600160a01b0316815260200190815260200160002060008d6001600160a01b03166001600160a01b031681526020019081526020016000206000016000828254610dd69190615030565b909155508890508783818110610dfc57634e487b7160e01b600052603260045260246000fd5b9050602002013560376000836001600160a01b03166001600160a01b031681526020019081526020016000206000828254610e379190615030565b90915550506001600160a01b038082166000908152603660209081526040808320938f1683529290522054610ffe5760005b6001600160a01b038216600090815260396020526040902054811015610ffc576001600160a01b0382811660009081526039602052604090208054918e169183908110610ec657634e487b7160e01b600052603260045260246000fd5b6000918252602090912001546001600160a01b03161415610fea576001600160a01b03821660009081526039602052604090208054610f0790600190615030565b81548110610f2557634e487b7160e01b600052603260045260246000fd5b60009182526020808320909101546001600160a01b03858116845260399092526040909220805491909216919083908110610f7057634e487b7160e01b600052603260045260246000fd5b600091825260208083209190910180546001600160a01b0319166001600160a01b039485161790559184168152603990915260409020805480610fc357634e487b7160e01b600052603160045260246000fd5b600082815260209020810160001990810180546001600160a01b0319169055019055610ffc565b80610ff481615073565b915050610e69565b505b508061100981615073565b915050610a57565b5060405163f0f25dd560e01b81526001600160a01b0385169063f0f25dd5906110449086908d9087908790600401614b55565b600060405180830381600087803b15801561105e57600080fd5b505af1158015611072573d6000803e3d6000fd5b50505050886001600160a01b03167fa1f0a36e60af87632f11db638faac61619cceacdc0aa92c9d55c6145fc0c8957898989896040516110b59493929190614af5565b60405180910390a2505050505050505050565b600080546040516337c61fc560e11b8152620100009091046001600160a01b031691636f8c3f8a916110fd9190600401614c0e565b60206040518083038186803b15801561111557600080fd5b505afa158015611129573d6000803e3d6000fd5b505050506040513d601f19601f8201168201806040525081019061114d9190614505565b6001600160a01b031663f3ae2415336040518263ffffffff1660e01b81526004016111789190614a30565b60206040518083038186803b15801561119057600080fd5b505afa1580156111a4573d6000803e3d6000fd5b505050506040513d601f19601f820116820180604052508101906111c891906147ac565b6111e45760405162461bcd60e51b81526004016104ba90614d9e565b603c805463ffffffff191663ffffffff92909216919091179055565b6035546001600160a01b0316331461122a5760405162461bcd60e51b81526004016104ba90614c36565b80611234816103c0565b61128c5760405162461bcd60e51b815260206004820152603560248201526000805160206151738339815191526044820152740814da59db985d1d5c99481a5cc81a5b9d985b1a59605a1b60648201526084016104ba565b600260035414156112af5760405162461bcd60e51b81526004016104ba90614e40565b600260035560a08201516112c290613443565b600080546040516337c61fc560e11b8152620100009091046001600160a01b031690636f8c3f8a906112f990600190600401614c0e565b60206040518083038186803b15801561131157600080fd5b505afa158015611325573d6000803e3d6000fd5b505050506040513d601f19601f820116820180604052508101906113499190614505565b9050600061135a8460800151613506565b905060008460800151516001600160401b0381111561138957634e487b7160e01b600052604160045260246000fd5b6040519080825280602002602001820160405280156113b2578160200160208202803683370190505b50905060005b8560800151518110156114d857856080015181815181106113e957634e487b7160e01b600052603260045260246000fd5b60200260200101516000015182828151811061141557634e487b7160e01b600052603260045260246000fd5b60200260200101906001600160a01b031690816001600160a01b03168152505082818151811061145557634e487b7160e01b600052603260045260246000fd5b6020026020010151603b60008860800151848151811061148557634e487b7160e01b600052603260045260246000fd5b6020026020010151600001516001600160a01b03166001600160a01b0316815260200190815260200160002060008282546114c09190614fd9565b909155508190506114d081615073565b9150506113b8565b5084604001511561159c57826001600160a01b031663f0f25dd58287600001518585516001600160401b0381111561152057634e487b7160e01b600052604160045260246000fd5b604051908082528060200260200182016040528015611549578160200160208202803683370190505b506040518563ffffffff1660e01b81526004016115699493929190614b55565b600060405180830381600087803b15801561158357600080fd5b505af1158015611597573d6000803e3d6000fd5b505050505b602085015185516080870151604080890151905163d969f1b560e01b81526001600160a01b0388169463d969f1b5946115db9491939092600401614eff565b600060405180830381600087803b1580156115f557600080fd5b505af1158015611609573d6000803e3d6000fd5b5050505084604001516116cf57826001600160a01b031663f0f25dd58287600001518585516001600160401b0381111561165357634e487b7160e01b600052604160045260246000fd5b60405190808252806020026020018201604052801561167c578160200160208202803683370190505b506040518563ffffffff1660e01b815260040161169c9493929190614b55565b600060405180830381600087803b1580156116b657600080fd5b505af11580156116ca573d6000803e3d6000fd5b505050505b7fb181eff2e901f498767095da3758c77d213a159e5b445fb357cc1bcfe4f2cbd8856040516116fe9190614e77565b60405180910390a150506001600355505050565b6035546001600160a01b0316331461173c5760405162461bcd60e51b81526004016104ba90614c36565b818160008060029054906101000a90046001600160a01b03166001600160a01b0316636f8c3f8a60036040518263ffffffff1660e01b81526004016117819190614c0e565b60206040518083038186803b15801561179957600080fd5b505afa1580156117ad573d6000803e3d6000fd5b505050506040513d601f19601f820116820180604052508101906117d19190614505565b905081518351146117f45760405162461bcd60e51b81526004016104ba90614d51565b60005b83518110156118d157816001600160a01b031663ea0db29685838151811061182f57634e487b7160e01b600052603260045260246000fd5b60200260200101516040518263ffffffff1660e01b81526004016118539190614a30565b60206040518083038186803b15801561186b57600080fd5b505afa15801561187f573d6000803e3d6000fd5b505050506040513d601f19601f820116820180604052508101906118a391906147ac565b6118bf5760405162461bcd60e51b81526004016104ba90614c92565b806118c981615073565b9150506117f7565b50600260035414156118f55760405162461bcd60e51b81526004016104ba90614e40565b600260035584516000906001600160401b0381111561192457634e487b7160e01b600052604160045260246000fd5b60405190808252806020026020018201604052801561194d578160200160208202803683370190505b50905060005b86518110156119a057600182828151811061197e57634e487b7160e01b600052603260045260246000fd5b911515602092830291909101909101528061199881615073565b915050611953565b50600080546040516337c61fc560e11b8152620100009091046001600160a01b031690636f8c3f8a906119d890600190600401614c0e565b60206040518083038186803b1580156119f057600080fd5b505afa158015611a04573d6000803e3d6000fd5b505050506040513d601f19601f82011682018060405250810190611a289190614505565b60405163f0f25dd560e01b81529091506001600160a01b0382169063f0f25dd590611a5d908a908c908b908890600401614b55565b600060405180830381600087803b158015611a7757600080fd5b505af1158015611a8b573d6000803e3d6000fd5b50505050876001600160a01b03167fe74c23878a8558dd68d0e6448fc8c06e1c5b0652bc2d0181d9e95797d9cb7c418888604051610803929190614b9d565b6035546001600160a01b03163314611af45760405162461bcd60e51b81526004016104ba90614c36565b818160008060029054906101000a90046001600160a01b03166001600160a01b0316636f8c3f8a60036040518263ffffffff1660e01b8152600401611b399190614c0e565b60206040518083038186803b158015611b5157600080fd5b505afa158015611b65573d6000803e3d6000fd5b505050506040513d601f19601f82011682018060405250810190611b899190614505565b90508151835114611bac5760405162461bcd60e51b81526004016104ba90614d51565b60005b8351811015611c8957816001600160a01b031663ea0db296858381518110611be757634e487b7160e01b600052603260045260246000fd5b60200260200101516040518263ffffffff1660e01b8152600401611c0b9190614a30565b60206040518083038186803b158015611c2357600080fd5b505afa158015611c37573d6000803e3d6000fd5b505050506040513d601f19601f82011682018060405250810190611c5b91906147ac565b611c775760405162461bcd60e51b81526004016104ba90614c92565b80611c8181615073565b915050611baf565b5060026003541415611cad5760405162461bcd60e51b81526004016104ba90614e40565b600260035584516000906001600160401b03811115611cdc57634e487b7160e01b600052604160045260246000fd5b604051908082528060200260200182016040528015611d05578160200160208202803683370190505b509050600086516001600160401b03811115611d3157634e487b7160e01b600052604160045260246000fd5b604051908082528060200260200182016040528015611d5a578160200160208202803683370190505b50905060005b8751811015611dad576001838281518110611d8b57634e487b7160e01b600052603260045260246000fd5b9115156020928302919091019091015280611da581615073565b915050611d60565b506000806000611dbd8a8a6135fb565b925092509250611dce8a8a86613c56565b600080546040516337c61fc560e11b8152620100009091046001600160a01b031690636f8c3f8a90611e0590600190600401614c0e565b60206040518083038186803b158015611e1d57600080fd5b505afa158015611e31573d6000803e3d6000fd5b505050506040513d601f19601f82011682018060405250810190611e559190614505565b9050806001600160a01b0316635702ea2a8c8e858a6040518563ffffffff1660e01b8152600401611e899493929190614b55565b600060405180830381600087803b158015611ea357600080fd5b505af1158015611eb7573d6000803e3d6000fd5b5050505060005b8b51811015611f9a5760008c8281518110611ee957634e487b7160e01b600052603260045260246000fd5b602002602001015190506000858381518110611f1557634e487b7160e01b600052603260045260246000fd5b602002602001015190506000878481518110611f4157634e487b7160e01b600052603260045260246000fd5b60200260200101519050611f55838361408b565b6001600160a01b03831660009081526038602052604081208054839290611f7d908490614fd9565b925050819055505050508080611f9290615073565b915050611ebe565b508b6001600160a01b03167f3e5de4d4037a75074ae26c1254648d020c004bfbee680cd606953c27223c126e8c8c604051611fd6929190614b9d565b60405180910390a25050600160035550505050505050505050565b600054610100900460ff1661200c5760005460ff1615612010565b303b155b61202c5760405162461bcd60e51b81526004016104ba90614cde565b600054610100900460ff1615801561204e576000805461ffff19166101011790555b61205885856120a1565b603580546001600160a01b0319166001600160a01b038516179055603c805463ffffffff191663ffffffff8416179055801561209a576000805461ff00191690555b5050505050565b600054610100900460ff166120bc5760005460ff16156120c0565b303b155b6120dc5760405162461bcd60e51b81526004016104ba90614cde565b600054610100900460ff161580156120fe576000805461ffff19166101011790555b6001600160a01b0382166121245760405162461bcd60e51b81526004016104ba90614d2c565b60005b835181101561219c5760006001600160a01b031684828151811061215b57634e487b7160e01b600052603260045260246000fd5b60200260200101516001600160a01b0316141561218a5760405162461bcd60e51b81526004016104ba90614d2c565b8061219481615073565b915050612127565b5060005b83518110156122125760018060008684815181106121ce57634e487b7160e01b600052603260045260246000fd5b6020908102919091018101516001600160a01b03168252810191909152604001600020805460ff19169115159190911790558061220a81615073565b9150506121a0565b50825161222690600290602086019061429a565b5061223082614197565b8015612242576000805461ff00191690555b505050565b600080546040516337c61fc560e11b8152620100009091046001600160a01b031691636f8c3f8a9161227c9190600401614c0e565b60206040518083038186803b15801561229457600080fd5b505afa1580156122a8573d6000803e3d6000fd5b505050506040513d601f19601f820116820180604052508101906122cc9190614505565b6001600160a01b0316632f54bf6e336040518263ffffffff1660e01b81526004016122f79190614a30565b60206040518083038186803b15801561230f57600080fd5b505afa158015612323573d6000803e3d6000fd5b505050506040513d601f19601f8201168201806040525081019061234791906147ac565b6123a65760405162461bcd60e51b815260206004820152602a60248201527f436f6e74726f6c6c65643a3a6f6e6c794f776e65723a2043616c6c6572206973604482015269103737ba1037bbb732b960b11b60648201526084016104ba565b6001600160a01b03811660009081526001602081905260408220805460ff19169091179055805b60025481101561242e57600281815481106123f857634e487b7160e01b600052603260045260246000fd5b6000918252602090912001546001600160a01b038481169116141561241c57600191505b8061242681615073565b9150506123cd565b508061248057600280546001810182556000919091527f405787fa12a823e0f2b7631cc41b3ba8828b3321ca811111fa75cd3aa3bb5ace0180546001600160a01b0319166001600160a01b0384161790555b5050565b6001600160a01b0381166000908152603960209081526040918290208054835181840281018401909452808452606093928301828280156124ee57602002820191906000526020600020905b81546001600160a01b031681526001909101906020018083116124d0575b50505050509050919050565b600080546040516337c61fc560e11b8152620100009091046001600160a01b031691636f8c3f8a9161252f9190600401614c0e565b60206040518083038186803b15801561254757600080fd5b505afa15801561255b573d6000803e3d6000fd5b505050506040513d601f19601f8201168201806040525081019061257f9190614505565b6001600160a01b031663f3ae2415336040518263ffffffff1660e01b81526004016125aa9190614a30565b60206040518083038186803b1580156125c257600080fd5b505afa1580156125d6573d6000803e3d6000fd5b505050506040513d601f19601f820116820180604052508101906125fa91906147ac565b6126165760405162461bcd60e51b81526004016104ba90614d9e565b603580546001600160a01b0319166001600160a01b0392909216919091179055565b6001600160a01b03811660009081526039602090815260408083208054825181850281018501909352808352849384939291908301828280156126a457602002820191906000526020600020905b81546001600160a01b03168152600190910190602001808311612686575b5050505050905060005b815181101561272e5760008282815181106126d957634e487b7160e01b600052603260045260246000fd5b6020908102919091018101516001600160a01b038089166000908152603684526040808220928416825291909352909120549091506127189085614fd9565b935050808061272690615073565b9150506126ae565b50909392505050565b3360009081526001602052604090205460ff166127665760405162461bcd60e51b81526004016104ba90614dec565b600260035414156127895760405162461bcd60e51b81526004016104ba90614e40565b6002600355600080546040516337c61fc560e11b8152620100009091046001600160a01b031690636f8c3f8a906127c590600190600401614c0e565b60206040518083038186803b1580156127dd57600080fd5b505afa1580156127f1573d6000803e3d6000fd5b505050506040513d601f19601f820116820180604052508101906128159190614505565b90506000826001600160401b0381111561283f57634e487b7160e01b600052604160045260246000fd5b604051908082528060200260200182016040528015612868578160200160208202803683370190505b5090506000836001600160401b0381111561289357634e487b7160e01b600052604160045260246000fd5b6040519080825280602002602001820160405280156128bc578160200160208202803683370190505b50905060005b84811015612a565760008686838181106128ec57634e487b7160e01b600052603260045260246000fd5b905060200201602081019061290191906144e2565b6001600160a01b038082166000908152603660209081526040808320938d1683529290522060010154909150806129b45760405162461bcd60e51b815260206004820152604b60248201527f496e746572636f6e6e656374733a3a636c61696d4c70466565733a204c50206660448201527f6565207265776172642062616c616e6365206d7573742062652067726561746560648201526a72207468616e207a65726f60a81b608482015260a4016104ba565b6001600160a01b038083166000908152603660209081526040808320938d1683529290529081206001015584518190869085908110612a0357634e487b7160e01b600052603260045260246000fd5b6020026020010181815250506001848481518110612a3157634e487b7160e01b600052603260045260246000fd5b9115156020928302919091019091015250819050612a4e81615073565b9150506128c2565b5060405163f0f25dd560e01b81526001600160a01b0384169063f0f25dd590612a8b90889088908b9088908890600401614aa0565b600060405180830381600087803b158015612aa557600080fd5b505af1158015612ab9573d6000803e3d6000fd5b50505050856001600160a01b03167f85de76e33a0549b6782937a91bc55eb27cc8f5554c303a9e263cac55e52c92938686604051612af8929190614a84565b60405180910390a25050600160035550505050565b60028181548110612b1d57600080fd5b6000918252602090912001546001600160a01b0316905081565b3360009081526001602052604090205460ff16612b665760405162461bcd60e51b81526004016104ba90614dec565b828114612bcb5760405162461bcd60e51b815260206004820152604b602482015260008051602061513383398151915260448201526000805160206150f383398151915260648201526a1cdd08189948195c5d585b60aa1b608482015260a4016104ba565b600080546040516337c61fc560e11b8152620100009091046001600160a01b031690636f8c3f8a90612c0290600390600401614c0e565b60206040518083038186803b158015612c1a57600080fd5b505afa158015612c2e573d6000803e3d6000fd5b505050506040513d601f19601f82011682018060405250810190612c529190614505565b600080546040516337c61fc560e11b81529293509091620100009091046001600160a01b031690636f8c3f8a90612c8e90600190600401614c0e565b60206040518083038186803b158015612ca657600080fd5b505afa158015612cba573d6000803e3d6000fd5b505050506040513d601f19601f82011682018060405250810190612cde9190614505565b90506000856001600160401b03811115612d0857634e487b7160e01b600052604160045260246000fd5b604051908082528060200260200182016040528015612d31578160200160208202803683370190505b5090506000846001600160401b03811115612d5c57634e487b7160e01b600052604160045260246000fd5b604051908082528060200260200182016040528015612d85578160200160208202803683370190505b5090506000876001600160401b03811115612db057634e487b7160e01b600052604160045260246000fd5b604051908082528060200260200182016040528015612dd9578160200160208202803683370190505b50905060005b8881101561330c57856001600160a01b031663b17f0b638b8b84818110612e1657634e487b7160e01b600052603260045260246000fd5b9050602002016020810190612e2b91906144e2565b6040518263ffffffff1660e01b8152600401612e479190614a30565b60206040518083038186803b158015612e5f57600080fd5b505afa158015612e73573d6000803e3d6000fd5b505050506040513d601f19601f82011682018060405250810190612e9791906147ac565b612f095760405162461bcd60e51b8152602060048201526049602482015260008051602061513383398151915260448201527f205468697320746f6b656e206973206e6f7420616363657074696e67204c5020606482015268706f736974696f6e7360b81b608482015260a4016104ba565b60008a8a83818110612f2b57634e487b7160e01b600052603260045260246000fd5b9050602002016020810190612f4091906144e2565b90506000898984818110612f6457634e487b7160e01b600052603260045260246000fd5b9050602002013511801561301e575060405163168e0c9960e31b81526001600160a01b0382811660048301528d8116602483015287169063b47064c89060440160206040518083038186803b158015612fbc57600080fd5b505afa158015612fd0573d6000803e3d6000fd5b505050506040513d601f19601f82011682018060405250810190612ff491906148a1565b89898481811061301457634e487b7160e01b600052603260045260246000fd5b9050602002013511155b6130b55760405162461bcd60e51b8152602060048201526068602482015260008051602061513383398151915260448201527f204c5020616d6f756e74206d7573742062652067726561746572207468616e2060648201527f7a65726f20616e64206e6f206d6f7265207468616e20746865207573657227736084820152672062616c616e636560c01b60a482015260c4016104ba565b808583815181106130d657634e487b7160e01b600052603260045260246000fd5b60200260200101906001600160a01b031690816001600160a01b03168152505088888381811061311657634e487b7160e01b600052603260045260246000fd5b9050602002013584838151811061313d57634e487b7160e01b600052603260045260246000fd5b602002602001018181525050600083838151811061316b57634e487b7160e01b600052603260045260246000fd5b60200260200101901515908115158152505060366000826001600160a01b03166001600160a01b0316815260200190815260200160002060008d6001600160a01b03166001600160a01b031681526020019081526020016000206000015460001415613210576001600160a01b0381811660009081526039602090815260408220805460018101825590835291200180546001600160a01b031916918e169190911790555b88888381811061323057634e487b7160e01b600052603260045260246000fd5b9050602002013560366000836001600160a01b03166001600160a01b0316815260200190815260200160002060008e6001600160a01b03166001600160a01b0316815260200190815260200160002060000160008282546132919190614fd9565b9091555089905088838181106132b757634e487b7160e01b600052603260045260246000fd5b9050602002013560376000836001600160a01b03166001600160a01b0316815260200190815260200160002060008282546132f29190614fd9565b90915550829150613304905081615073565b915050612ddf565b5060405163f0f25dd560e01b81526001600160a01b0385169063f0f25dd59061333f9086908e9087908790600401614b55565b600060405180830381600087803b15801561335957600080fd5b505af115801561336d573d6000803e3d6000fd5b50505050896001600160a01b03167f22e6ae20e2e0df5f416bcd6e7f6d19e21922b83a293acce479b03994e40120718a8a8a8a6040516133b09493929190614af5565b60405180910390a250505050505050505050565b6000806000806133d38561422b565b6040805160008152602081018083528b905260ff8316918101919091526060810184905260808101839052929550909350915060019060a0016020604051602081039080840390855afa15801561342e573d6000803e3d6000fd5b5050604051601f190151979650505050505050565b603a816040516134539190614a14565b9081526040519081900360200190205460ff16156134d15760405162461bcd60e51b815260206004820152603560248201527f496e746572636f6e6e656374733a3a6d61726b54786e4173436f6d706c657465604482015274643a20416c726561647920636f6d706c657465642160581b60648201526084016104ba565b6001603a826040516134e39190614a14565b908152604051908190036020019020805491151560ff1990921691909117905550565b606081516001600160401b0381111561352f57634e487b7160e01b600052604160045260246000fd5b604051908082528060200260200182016040528015613558578160200160208202803683370190505b50905060005b82518110156135f557603c548351620f42409163ffffffff169085908490811061359857634e487b7160e01b600052603260045260246000fd5b6020026020010151602001516135ae9190615011565b6135b89190614ff1565b8282815181106135d857634e487b7160e01b600052603260045260246000fd5b6020908102919091010152806135ed81615073565b91505061355e565b50919050565b600080546040516337c61fc560e11b815260609283928392620100009091046001600160a01b031690636f8c3f8a9061363990600390600401614c0e565b60206040518083038186803b15801561365157600080fd5b505afa158015613665573d6000803e3d6000fd5b505050506040513d601f19601f820116820180604052508101906136899190614505565b90506000816001600160a01b03166350e7fc376040518163ffffffff1660e01b815260040160206040518083038186803b1580156136c657600080fd5b505afa1580156136da573d6000803e3d6000fd5b505050506040513d601f19601f820116820180604052508101906136fe91906148d5565b90506000826001600160a01b031663804773c86040518163ffffffff1660e01b815260040160206040518083038186803b15801561373b57600080fd5b505afa15801561374f573d6000803e3d6000fd5b505050506040513d601f19601f8201168201806040525081019061377391906148d5565b90506000836001600160a01b031663967cb96e6040518163ffffffff1660e01b815260040160206040518083038186803b1580156137b057600080fd5b505afa1580156137c4573d6000803e3d6000fd5b505050506040513d601f19601f820116820180604052508101906137e891906148d5565b905088516001600160401b0381111561381157634e487b7160e01b600052604160045260246000fd5b60405190808252806020026020018201604052801561383a578160200160208202803683370190505b50965088516001600160401b0381111561386457634e487b7160e01b600052604160045260246000fd5b60405190808252806020026020018201604052801561388d578160200160208202803683370190505b50955088516001600160401b038111156138b757634e487b7160e01b600052604160045260246000fd5b6040519080825280602002602001820160405280156138e0578160200160208202803683370190505b50945060005b8951811015613c4a5760008a828151811061391157634e487b7160e01b600052603260045260246000fd5b602002602001015190506000866001600160a01b031663eab12c95836040518263ffffffff1660e01b81526004016139499190614a30565b60206040518083038186803b15801561396157600080fd5b505afa158015613975573d6000803e3d6000fd5b505050506040513d601f19601f8201168201806040525081019061399991906148a1565b905060006139a683612638565b604051637d471f9760e01b81526001600160a01b038a1690637d471f97906139d2908790600401614a30565b60206040518083038186803b1580156139ea57600080fd5b505afa1580156139fe573d6000803e3d6000fd5b505050506040513d601f19601f82011682018060405250810190613a2291906148a1565b613a2c9190615011565b6001600160a01b038416600090815260376020526040902054613a569063ffffffff8a1690615011565b613a609190614ff1565b90506000613a748263ffffffff8916615011565b8d8681518110613a9457634e487b7160e01b600052603260045260246000fd5b60200260200101518a6001600160a01b03166372836bcf876040518263ffffffff1660e01b8152600401613ac89190614a30565b60206040518083038186803b158015613ae057600080fd5b505afa158015613af4573d6000803e3d6000fd5b505050506040513d601f19601f82011682018060405250810190613b1891906148a1565b613b229190615011565b613b2c9190614ff1565b905063ffffffff8616613b3f8483615011565b613b499190614ff1565b8c8681518110613b6957634e487b7160e01b600052603260045260246000fd5b6020026020010181815250508b8581518110613b9557634e487b7160e01b600052603260045260246000fd5b602002602001015181613ba89190615030565b8b8681518110613bc857634e487b7160e01b600052603260045260246000fd5b602002602001018181525050808d8681518110613bf557634e487b7160e01b600052603260045260246000fd5b6020026020010151613c079190615030565b8a8681518110613c2757634e487b7160e01b600052603260045260246000fd5b602002602001018181525050505050508080613c4290615073565b9150506138e6565b50505050509250925092565b81518351148015613c68575080518351145b613cfa5760405162461bcd60e51b8152602060048201526063602482015260008051602061511383398151915260448201527f42616c616e6365733a204c656e677468206f6620746f6b656e732c20616d6f7560648201527f6e74732c20616e64206164642f7375627472616374206d7573742062652065716084820152621d585b60ea1b60a482015260c4016104ba565b600080546040516337c61fc560e11b8152620100009091046001600160a01b031690636f8c3f8a90613d3190600390600401614c0e565b60206040518083038186803b158015613d4957600080fd5b505afa158015613d5d573d6000803e3d6000fd5b505050506040513d601f19601f82011682018060405250810190613d819190614505565b905060005b845181101561404957816001600160a01b031663b17f0b63868381518110613dbe57634e487b7160e01b600052603260045260246000fd5b60200260200101516040518263ffffffff1660e01b8152600401613de29190614a30565b60206040518083038186803b158015613dfa57600080fd5b505afa158015613e0e573d6000803e3d6000fd5b505050506040513d601f19601f82011682018060405250810190613e3291906147ac565b613ead5760405162461bcd60e51b8152602060048201526052602482015260008051602061511383398151915260448201527f42616c616e6365733a205468697320746f6b656e206973206e6f7420616363656064820152717074696e67204c5020706f736974696f6e7360701b608482015260a4016104ba565b6000838281518110613ecf57634e487b7160e01b600052603260045260246000fd5b602002602001015115613f6257848281518110613efc57634e487b7160e01b600052603260045260246000fd5b602002602001015160376000888581518110613f2857634e487b7160e01b600052603260045260246000fd5b60200260200101516001600160a01b03166001600160a01b0316815260200190815260200160002054613f5b9190614fd9565b9050613fe4565b848281518110613f8257634e487b7160e01b600052603260045260246000fd5b602002602001015160376000888581518110613fae57634e487b7160e01b600052603260045260246000fd5b60200260200101516001600160a01b03166001600160a01b0316815260200190815260200160002054613fe19190615030565b90505b806037600088858151811061400957634e487b7160e01b600052603260045260246000fd5b60200260200101516001600160a01b03166001600160a01b031681526020019081526020016000208190555050808061404190615073565b915050613d86565b507f092d5ff091ec017019ed95dfec6b3f8524e73fc3a80d5fee8f763e1829aed54b84848460405161407d93929190614bcb565b60405180910390a150505050565b600061409683612638565b905060005b6001600160a01b038416600090815260396020526040902054811015614191576001600160a01b03841660009081526039602052604081208054839081106140f357634e487b7160e01b600052603260045260246000fd5b60009182526020808320909101546001600160a01b0388811684526036835260408085209190921680855292529091205490915083906141339086615011565b61413d9190614ff1565b6001600160a01b03808716600090815260366020908152604080832093861683529290529081206001018054909190614177908490614fd9565b90915550829150614189905081615073565b91505061409b565b50505050565b600054610100900460ff166141b25760005460ff16156141b6565b303b155b6141d25760405162461bcd60e51b81526004016104ba90614cde565b600054610100900460ff161580156141f4576000805461ffff19166101011790555b6000805462010000600160b01b031916620100006001600160a01b038516021790558015612480576000805461ff00191690555050565b6000806000835160411461427c5760405162461bcd60e51b81526020600482015260186024820152770d2dcecc2d8d2c840e6d2cedcc2e8eae4ca40d8cadccee8d60431b60448201526064016104ba565b50505060208101516040820151606090920151909260009190911a90565b8280548282559060005260206000209081019282156142ef579160200282015b828111156142ef57825182546001600160a01b0319166001600160a01b039091161782556020909201916001909101906142ba565b506142fb9291506142ff565b5090565b5b808211156142fb5760008155600101614300565b803561431f816150ba565b919050565b60008083601f840112614335578182fd5b5081356001600160401b0381111561434b578182fd5b6020830191508360208260051b850101111561436657600080fd5b9250929050565b600082601f83011261437d578081fd5b8135602061439261438d83614fb6565b614f86565b80838252828201915082860187848660051b89010111156143b1578586fd5b855b858110156143d85781356143c6816150ba565b845292840192908401906001016143b3565b5090979650505050505050565b600082601f8301126143f5578081fd5b8135602061440561438d83614fb6565b80838252828201915082860187848660061b8901011115614424578586fd5b855b858110156143d857604080838b03121561443e578788fd5b614446614f3c565b8335614451816150ba565b8152838701358782015285529385019390910190600101614426565b803561431f816150d2565b600082601f830112614488578081fd5b81356001600160401b038111156144a1576144a16150a4565b6144b4601f8201601f1916602001614f86565b8181528460208386010111156144c8578283fd5b816020850160208301379081016020019190915292915050565b6000602082840312156144f3578081fd5b81356144fe816150ba565b9392505050565b600060208284031215614516578081fd5b81516144fe816150ba565b60008060408385031215614533578081fd5b823561453e816150ba565b9150602083013561454e816150ba565b809150509250929050565b60008060006040848603121561456d578081fd5b8335614578816150ba565b925060208401356001600160401b03811115614592578182fd5b61459e86828701614324565b9497909650939450505050565b6000806000806000606086880312156145c2578283fd5b85356145cd816150ba565b945060208601356001600160401b03808211156145e8578485fd5b6145f489838a01614324565b9096509450604088013591508082111561460c578283fd5b5061461988828901614324565b969995985093965092949392505050565b60008060006060848603121561463e578081fd5b8335614649816150ba565b92506020848101356001600160401b0380821115614665578384fd5b6146718883890161436d565b94506040870135915080821115614686578384fd5b508501601f81018713614697578283fd5b80356146a561438d82614fb6565b8082825284820191508484018a868560051b87010111156146c4578687fd5b8694505b838510156146e65780358352600194909401939185019185016146c8565b5080955050505050509250925092565b60008060408385031215614708578182fd5b82356001600160401b0381111561471d578283fd5b6147298582860161436d565b925050602083013561454e816150ba565b6000806000806080858703121561474f578182fd5b84356001600160401b03811115614764578283fd5b6147708782880161436d565b9450506020850135614781816150ba565b92506040850135614791816150ba565b915060608501356147a1816150e0565b939692955090935050565b6000602082840312156147bd578081fd5b81516144fe816150d2565b6000602082840312156147d9578081fd5b81356001600160401b03808211156147ef578283fd5b9083019060c08286031215614802578283fd5b61480a614f64565b61481383614314565b81526020830135602082015261482b6040840161446d565b60408201526060830135606082015260808301358281111561484b578485fd5b614857878286016143e5565b60808301525060a08301358281111561486e578485fd5b61487a87828601614478565b60a08301525095945050505050565b60006020828403121561489a578081fd5b5035919050565b6000602082840312156148b2578081fd5b5051919050565b6000602082840312156148ca578081fd5b81356144fe816150e0565b6000602082840312156148e6578081fd5b81516144fe816150e0565b81835260006020808501945082825b8581101561492e578135614913816150ba565b6001600160a01b031687529582019590820190600101614900565b509495945050505050565b6000815180845260208085019450808401835b8381101561492e5781516001600160a01b03168752958201959082019060010161494c565b6000815180845260208085019450808401835b8381101561492e578151151587529582019590820190600101614984565b6000815180845260208085019450808401835b8381101561492e57815180516001600160a01b0316885283015183880152604090960195908201906001016149b5565b6000815180845260208085019450808401835b8381101561492e578151875295820195908201906001016149f8565b60008251614a26818460208701615047565b9190910192915050565b6001600160a01b0391909116815260200190565b60018060a01b0386168152846020820152831515604082015282606082015260a060808201526000614a7960a08301846149a2565b979650505050505050565b602081526000614a986020830184866148f1565b949350505050565b608081526000614ab46080830187896148f1565b6001600160a01b03861660208401528281036040840152614ad581866149e5565b90508281036060840152614ae98185614971565b98975050505050505050565b604081526000614b096040830186886148f1565b82810360208401528381526001600160fb1b03841115614b27578182fd5b8360051b808660208401370160200190815295945050505050565b6020815260006144fe6020830184614939565b608081526000614b686080830187614939565b6001600160a01b03861660208401528281036040840152614b8981866149e5565b90508281036060840152614a798185614971565b604081526000614bb06040830185614939565b8281036020840152614bc281856149e5565b95945050505050565b606081526000614bde6060830186614939565b8281036020840152614bf081866149e5565b90508281036040840152614c048185614971565b9695505050505050565b60208101600d8310614c3057634e487b7160e01b600052602160045260246000fd5b91905290565b6020808252603c908201527f496e746572636f6e6e656374733a3a6f6e6c7952656c61794163636f756e743a60408201527b0810d85b1b195c881a5cc81b9bdd081c995b185e481858d8dbdd5b9d60221b606082015260800190565b60208082526040908201819052600080516020615173833981519152908201527f20546f6b656e206973206e6f7420616363657074696e67206272696467696e67606082015260800190565b6020808252602e908201527f496e697469616c697a61626c653a20636f6e747261637420697320616c72656160408201526d191e481a5b9a5d1a585b1a5e995960921b606082015260800190565b6020808252600b908201526a626164206164647265737360a81b604082015260600190565b6020808252604b9082015260008051602061517383398151915260408201526000805160206150f383398151915260608201526a1cdd08189948195c5d585b60aa1b608082015260a00190565b6020808252602e908201527f436f6e74726f6c6c65643a3a6f6e6c794d616e616765723a2043616c6c65722060408201526d34b9903737ba1036b0b730b3b2b960911b606082015260800190565b60208082526034908201527f436f6e74726f6c6c65643a3a6f6e6c79436f6e74726f6c6c65723a2043616c6c60408201527332b91034b9903737ba1031b7b73a3937b63632b960611b606082015260800190565b6020808252601f908201527f5265656e7472616e637947756172643a207265656e7472616e742063616c6c00604082015260600190565b6000602080835260018060a01b038451168184015280840151604084015260408401511515606084015260608401516080840152608084015160c060a0850152614ec460e08501826149a2565b905060a0850151601f19808684030160c08701528151808452614eec81868601878601615047565b601f011691909101909101949350505050565b8481526001600160a01b0384166020820152608060408201819052600090614f29908301856149a2565b9050821515606083015295945050505050565b604080519081016001600160401b0381118282101715614f5e57614f5e6150a4565b60405290565b60405160c081016001600160401b0381118282101715614f5e57614f5e6150a4565b604051601f8201601f191681016001600160401b0381118282101715614fae57614fae6150a4565b604052919050565b60006001600160401b03821115614fcf57614fcf6150a4565b5060051b60200190565b60008219821115614fec57614fec61508e565b500190565b60008261500c57634e487b7160e01b81526012600452602481fd5b500490565b600081600019048311821515161561502b5761502b61508e565b500290565b6000828210156150425761504261508e565b500390565b60005b8381101561506257818101518382015260200161504a565b838111156141915750506000910152565b60006000198214156150875761508761508e565b5060010190565b634e487b7160e01b600052601160045260246000fd5b634e487b7160e01b600052604160045260246000fd5b6001600160a01b03811681146150cf57600080fd5b50565b80151581146150cf57600080fd5b63ffffffff811681146150cf57600080fdfe204c656e677468206f6620746f6b656e7320616e6420616d6f756e7473206d75496e746572636f6e6e656374733a3a757064617465546f6b656e506f6f6c4c70496e746572636f6e6e656374733a3a70726f766964654c69717569646974793a496e746572636f6e6e656374733a3a74616b654c69717569646974793a204c50496e746572636f6e6e656374733a3a76616c69646174654272696467696e673aa26469706673582212201eedf53d7dc5fc2484c175b7a987547efc0ee03e1a1cfe07972937d934eac98964736f6c63430008040033",
  "devdoc": {
    "kind": "dev",
    "methods": {
      "bridgeFrom(address,address[],uint256[])": {
        "details": "Wrapper around userPositions func to decrease user's token balance",
        "params": {
          "amounts": "Array of the token amounts",
          "tokens": "Array of the token addresses",
          "user": "user bridging"
        }
      },
      "bridgeTo(address,address[],uint256[])": {
        "details": "Wrapper around userPositions func, updateTokenPoolLpBalances, and feeHandler",
        "params": {
          "amounts": "Array of the token amounts",
          "tokens": "Array of the token addresses",
          "user": "user bridging"
        }
      },
      "claimLpFeeRewards(address,address[])": {
        "params": {
          "tokens": "Array of the token addresses",
          "user": "Address of the account LP-ing"
        }
      },
      "getRelayAccount()": {
        "returns": {
          "_0": "The address of the gas account"
        }
      },
      "getTokenLpUsers(address)": {
        "params": {
          "asset": "Address of the ERC20 token contract"
        }
      },
      "getTokenPoolLpActivePositions(address)": {
        "details": "this returns the sum of all active LP positions for a given token. This is different than the LP balance, as the LP balance is the available amount of this sum. This number is gte the LP balance, usually greater than.",
        "params": {
          "asset": "Address of the ERC20 token contract"
        }
      },
      "getTokenPoolLpBalance(address)": {
        "params": {
          "asset": "Address of the ERC20 token contract"
        }
      },
      "getTokenProtocolFeeRewards(address)": {
        "params": {
          "asset": "Address of the ERC20 token contract"
        }
      },
      "getTokenUserLpBalance(address,address)": {
        "params": {
          "asset": "Address of the ERC20 token contract",
          "user": "Address of the user account"
        }
      },
      "getTokenUserLpFeeRewardBalance(address,address)": {
        "params": {
          "asset": "Address of the ERC20 token contract",
          "user": "Address of the user account"
        }
      },
      "initialize(address[],address,address,uint32)": {
        "params": {
          "_rseFeeNumerator": "The numerator for RSE fees. Denominator is 1,000,000. So 10,000 = 1% fee.",
          "controllers_": "The addresses of the controlling contracts",
          "moduleMap_": "Address of the Module Map",
          "relayAccount_": "The address of the relay account that will control this account"
        }
      },
      "provideLiquidity(address,address[],uint256[])": {
        "params": {
          "amounts": "Array of the token amounts",
          "tokens": "Array of the token addresses",
          "user": "Address of the account LP-ing"
        }
      },
      "takeLiquidity(address,address[],uint256[])": {
        "params": {
          "amounts": "Array of the token amounts",
          "tokens": "Array of the token addresses",
          "user": "Address of the account LP-ing"
        }
      },
      "undoBridgeFrom(address,address[],uint256[])": {
        "details": "Wrapper around userPositions func to increase user's token balance",
        "params": {
          "amounts": "Array of the token amounts",
          "tokens": "Array of the token addresses",
          "user": "user bridging"
        }
      },
      "updateRSEFeeNumerator(uint32)": {
        "params": {
          "numerator": "fee numerator"
        }
      },
      "updateRelayAccount(address)": {
        "params": {
          "relayAccount_": "The address of the relay account"
        }
      },
      "verifyRSE((address,uint256,bool,uint256,(address,uint256)[],bytes))": {
        "details": "this function verifies that the signature is from the signer and contains the correct hashed contents",
        "params": {
          "req": "- RSE request as struct RemoteStrategyExecutionBody"
        }
      }
    },
    "version": 1
  },
  "userdoc": {
    "kind": "user",
    "methods": {
      "claimLpFeeRewards(address,address[])": {
        "notice": "User is allowed to claim fees"
      },
      "provideLiquidity(address,address[],uint256[])": {
        "notice": "User is allowed to LP whitelisted tokens"
      }
    },
    "version": 1
  },
  "storageLayout": {
    "storage": [
      {
        "astId": 723,
        "contract": "contracts/core/Interconnects.sol:Interconnects",
        "label": "_initialized",
        "offset": 0,
        "slot": "0",
        "type": "t_bool"
      },
      {
        "astId": 726,
        "contract": "contracts/core/Interconnects.sol:Interconnects",
        "label": "_initializing",
        "offset": 1,
        "slot": "0",
        "type": "t_bool"
      },
      {
        "astId": 10099,
        "contract": "contracts/core/Interconnects.sol:Interconnects",
        "label": "moduleMap",
        "offset": 2,
        "slot": "0",
        "type": "t_contract(IModuleMap)21019"
      },
      {
        "astId": 4667,
        "contract": "contracts/core/Interconnects.sol:Interconnects",
        "label": "_controllers",
        "offset": 0,
        "slot": "1",
        "type": "t_mapping(t_address,t_bool)"
      },
      {
        "astId": 4670,
        "contract": "contracts/core/Interconnects.sol:Interconnects",
        "label": "controllers",
        "offset": 0,
        "slot": "2",
        "type": "t_array(t_address)dyn_storage"
      },
      {
        "astId": 804,
        "contract": "contracts/core/Interconnects.sol:Interconnects",
        "label": "_status",
        "offset": 0,
        "slot": "3",
        "type": "t_uint256"
      },
      {
        "astId": 847,
        "contract": "contracts/core/Interconnects.sol:Interconnects",
        "label": "__gap",
        "offset": 0,
        "slot": "4",
        "type": "t_array(t_uint256)49_storage"
      },
      {
        "astId": 6839,
        "contract": "contracts/core/Interconnects.sol:Interconnects",
        "label": "_relayAccount",
        "offset": 0,
        "slot": "53",
        "type": "t_address_payable"
      },
      {
        "astId": 6846,
        "contract": "contracts/core/Interconnects.sol:Interconnects",
        "label": "_tokenUserLpBalances",
        "offset": 0,
        "slot": "54",
        "type": "t_mapping(t_address,t_mapping(t_address,t_struct(lpData)20340_storage))"
      },
      {
        "astId": 6850,
        "contract": "contracts/core/Interconnects.sol:Interconnects",
        "label": "_tokenPoolLpBalances",
        "offset": 0,
        "slot": "55",
        "type": "t_mapping(t_address,t_uint256)"
      },
      {
        "astId": 6854,
        "contract": "contracts/core/Interconnects.sol:Interconnects",
        "label": "_tokenProtocolFeeRewards",
        "offset": 0,
        "slot": "56",
        "type": "t_mapping(t_address,t_uint256)"
      },
      {
        "astId": 6859,
        "contract": "contracts/core/Interconnects.sol:Interconnects",
        "label": "_tokenLpUsers",
        "offset": 0,
        "slot": "57",
        "type": "t_mapping(t_address,t_array(t_address)dyn_storage)"
      },
      {
        "astId": 6863,
        "contract": "contracts/core/Interconnects.sol:Interconnects",
        "label": "relayTxns",
        "offset": 0,
        "slot": "58",
        "type": "t_mapping(t_bytes_memory_ptr,t_bool)"
      },
      {
        "astId": 6867,
        "contract": "contracts/core/Interconnects.sol:Interconnects",
        "label": "_tokenRSEFees",
        "offset": 0,
        "slot": "59",
        "type": "t_mapping(t_address,t_uint256)"
      },
      {
        "astId": 6872,
        "contract": "contracts/core/Interconnects.sol:Interconnects",
        "label": "rseFeeNumerator",
        "offset": 0,
        "slot": "60",
        "type": "t_uint32"
      }
    ],
    "types": {
      "t_address": {
        "encoding": "inplace",
        "label": "address",
        "numberOfBytes": "20"
      },
      "t_address_payable": {
        "encoding": "inplace",
        "label": "address payable",
        "numberOfBytes": "20"
      },
      "t_array(t_address)dyn_storage": {
        "base": "t_address",
        "encoding": "dynamic_array",
        "label": "address[]",
        "numberOfBytes": "32"
      },
      "t_array(t_uint256)49_storage": {
        "base": "t_uint256",
        "encoding": "inplace",
        "label": "uint256[49]",
        "numberOfBytes": "1568"
      },
      "t_bool": {
        "encoding": "inplace",
        "label": "bool",
        "numberOfBytes": "1"
      },
      "t_bytes_memory_ptr": {
        "encoding": "bytes",
        "label": "bytes",
        "numberOfBytes": "32"
      },
      "t_contract(IModuleMap)21019": {
        "encoding": "inplace",
        "label": "contract IModuleMap",
        "numberOfBytes": "20"
      },
      "t_mapping(t_address,t_array(t_address)dyn_storage)": {
        "encoding": "mapping",
        "key": "t_address",
        "label": "mapping(address => address[])",
        "numberOfBytes": "32",
        "value": "t_array(t_address)dyn_storage"
      },
      "t_mapping(t_address,t_bool)": {
        "encoding": "mapping",
        "key": "t_address",
        "label": "mapping(address => bool)",
        "numberOfBytes": "32",
        "value": "t_bool"
      },
      "t_mapping(t_address,t_mapping(t_address,t_struct(lpData)20340_storage))": {
        "encoding": "mapping",
        "key": "t_address",
        "label": "mapping(address => mapping(address => struct IInterconnects.lpData))",
        "numberOfBytes": "32",
        "value": "t_mapping(t_address,t_struct(lpData)20340_storage)"
      },
      "t_mapping(t_address,t_struct(lpData)20340_storage)": {
        "encoding": "mapping",
        "key": "t_address",
        "label": "mapping(address => struct IInterconnects.lpData)",
        "numberOfBytes": "32",
        "value": "t_struct(lpData)20340_storage"
      },
      "t_mapping(t_address,t_uint256)": {
        "encoding": "mapping",
        "key": "t_address",
        "label": "mapping(address => uint256)",
        "numberOfBytes": "32",
        "value": "t_uint256"
      },
      "t_mapping(t_bytes_memory_ptr,t_bool)": {
        "encoding": "mapping",
        "key": "t_bytes_memory_ptr",
        "label": "mapping(bytes => bool)",
        "numberOfBytes": "32",
        "value": "t_bool"
      },
      "t_struct(lpData)20340_storage": {
        "encoding": "inplace",
        "label": "struct IInterconnects.lpData",
        "members": [
          {
            "astId": 20337,
            "contract": "contracts/core/Interconnects.sol:Interconnects",
            "label": "position",
            "offset": 0,
            "slot": "0",
            "type": "t_uint256"
          },
          {
            "astId": 20339,
            "contract": "contracts/core/Interconnects.sol:Interconnects",
            "label": "rewards",
            "offset": 0,
            "slot": "1",
            "type": "t_uint256"
          }
        ],
        "numberOfBytes": "64"
      },
      "t_uint256": {
        "encoding": "inplace",
        "label": "uint256",
        "numberOfBytes": "32"
      },
      "t_uint32": {
        "encoding": "inplace",
        "label": "uint32",
        "numberOfBytes": "4"
      }
    }
  }
}