{
  "address": "0x6d4F48782B4aB5a50d484815Fc416a016d913d4E",
  "abi": [
    {
      "anonymous": false,
      "inputs": [],
      "name": "BiosBuyBack",
      "type": "event"
    },
    {
      "anonymous": false,
      "inputs": [
        {
          "indexed": true,
          "internalType": "address",
          "name": "user",
          "type": "address"
        },
        {
          "indexed": false,
          "internalType": "uint256",
          "name": "biosRewards",
          "type": "uint256"
        }
      ],
      "name": "ClaimBiosRewards",
      "type": "event"
    },
    {
      "anonymous": false,
      "inputs": [
        {
          "indexed": true,
          "internalType": "address",
          "name": "user",
          "type": "address"
        },
        {
          "indexed": false,
          "internalType": "uint256[]",
          "name": "strategies",
          "type": "uint256[]"
        },
        {
          "indexed": false,
          "internalType": "uint256",
          "name": "ethRewards",
          "type": "uint256"
        }
      ],
      "name": "ClaimEthRewards",
      "type": "event"
    },
    {
      "anonymous": false,
      "inputs": [],
      "name": "Deploy",
      "type": "event"
    },
    {
      "anonymous": false,
      "inputs": [],
      "name": "DistributeEth",
      "type": "event"
    },
    {
      "anonymous": false,
      "inputs": [
        {
          "indexed": false,
          "internalType": "uint32",
          "name": "biosBuyBackEthWeight",
          "type": "uint32"
        },
        {
          "indexed": false,
          "internalType": "uint32",
          "name": "treasuryEthWeight",
          "type": "uint32"
        },
        {
          "indexed": false,
          "internalType": "uint32",
          "name": "protocolFeeEthWeight",
          "type": "uint32"
        },
        {
          "indexed": false,
          "internalType": "uint32",
          "name": "rewardsEthWeight",
          "type": "uint32"
        },
        {
          "indexed": false,
          "internalType": "uint32",
          "name": "syntheticPoolSupplementWeight",
          "type": "uint32"
        }
      ],
      "name": "EthDistributionWeightsUpdated",
      "type": "event"
    },
    {
      "anonymous": false,
      "inputs": [
        {
          "indexed": false,
          "internalType": "uint256",
          "name": "gasAccountTargetEthBalance",
          "type": "uint256"
        }
      ],
      "name": "GasAccountTargetEthBalanceUpdated",
      "type": "event"
    },
    {
      "anonymous": false,
      "inputs": [
        {
          "indexed": false,
          "internalType": "address",
          "name": "gasAccount",
          "type": "address"
        }
      ],
      "name": "GasAccountUpdated",
      "type": "event"
    },
    {
      "anonymous": false,
      "inputs": [],
      "name": "HarvestYield",
      "type": "event"
    },
    {
      "anonymous": false,
      "inputs": [
        {
          "indexed": true,
          "internalType": "address",
          "name": "contractAddress",
          "type": "address"
        },
        {
          "indexed": false,
          "internalType": "string",
          "name": "name",
          "type": "string"
        }
      ],
      "name": "IntegrationAdded",
      "type": "event"
    },
    {
      "anonymous": false,
      "inputs": [
        {
          "indexed": true,
          "internalType": "bytes32",
          "name": "role",
          "type": "bytes32"
        },
        {
          "indexed": true,
          "internalType": "bytes32",
          "name": "previousAdminRole",
          "type": "bytes32"
        },
        {
          "indexed": true,
          "internalType": "bytes32",
          "name": "newAdminRole",
          "type": "bytes32"
        }
      ],
      "name": "RoleAdminChanged",
      "type": "event"
    },
    {
      "anonymous": false,
      "inputs": [
        {
          "indexed": true,
          "internalType": "bytes32",
          "name": "role",
          "type": "bytes32"
        },
        {
          "indexed": true,
          "internalType": "address",
          "name": "account",
          "type": "address"
        },
        {
          "indexed": true,
          "internalType": "address",
          "name": "sender",
          "type": "address"
        }
      ],
      "name": "RoleGranted",
      "type": "event"
    },
    {
      "anonymous": false,
      "inputs": [
        {
          "indexed": true,
          "internalType": "bytes32",
          "name": "role",
          "type": "bytes32"
        },
        {
          "indexed": true,
          "internalType": "address",
          "name": "account",
          "type": "address"
        },
        {
          "indexed": true,
          "internalType": "address",
          "name": "sender",
          "type": "address"
        }
      ],
      "name": "RoleRevoked",
      "type": "event"
    },
    {
      "anonymous": false,
      "inputs": [
        {
          "indexed": false,
          "internalType": "uint256",
          "name": "biosAmount",
          "type": "uint256"
        }
      ],
      "name": "SeedBiosRewards",
      "type": "event"
    },
    {
      "anonymous": false,
      "inputs": [
        {
          "indexed": false,
          "internalType": "uint32",
          "name": "biosRewardsDuration",
          "type": "uint32"
        }
      ],
      "name": "SetBiosRewardsDuration",
      "type": "event"
    },
    {
      "anonymous": false,
      "inputs": [
        {
          "indexed": true,
          "internalType": "address",
          "name": "tokenAddress",
          "type": "address"
        },
        {
          "indexed": false,
          "internalType": "bool",
          "name": "acceptingDeposits",
          "type": "bool"
        },
        {
          "indexed": false,
          "internalType": "bool",
          "name": "acceptingWithdrawals",
          "type": "bool"
        },
        {
          "indexed": false,
          "internalType": "bool",
          "name": "acceptingLping",
          "type": "bool"
        },
        {
          "indexed": false,
          "internalType": "bool",
          "name": "acceptingBridging",
          "type": "bool"
        },
        {
          "indexed": false,
          "internalType": "uint256",
          "name": "biosRewardWeight",
          "type": "uint256"
        },
        {
          "indexed": false,
          "internalType": "uint256",
          "name": "reserveRatioNumerator",
          "type": "uint256"
        },
        {
          "indexed": false,
          "internalType": "uint256",
          "name": "targetLiquidityRatioNumerator",
          "type": "uint256"
        },
        {
          "indexed": false,
          "internalType": "uint256",
          "name": "transferFeeKValueNumerator",
          "type": "uint256"
        },
        {
          "indexed": false,
          "internalType": "uint256",
          "name": "transferFeePlatformRatioNumerator",
          "type": "uint256"
        }
      ],
      "name": "TokenAdded",
      "type": "event"
    },
    {
      "anonymous": false,
      "inputs": [
        {
          "indexed": false,
          "internalType": "address",
          "name": "treasuryAccount",
          "type": "address"
        }
      ],
      "name": "TreasuryAccountUpdated",
      "type": "event"
    },
    {
      "anonymous": false,
      "inputs": [
        {
          "indexed": true,
          "internalType": "address",
          "name": "user",
          "type": "address"
        },
        {
          "indexed": false,
          "internalType": "address[]",
          "name": "tokens",
          "type": "address[]"
        },
        {
          "indexed": false,
          "internalType": "uint256[]",
          "name": "tokenAmounts",
          "type": "uint256[]"
        },
        {
          "indexed": false,
          "internalType": "uint256",
          "name": "ethAmount",
          "type": "uint256"
        }
      ],
      "name": "Withdraw",
      "type": "event"
    },
    {
      "anonymous": false,
      "inputs": [
        {
          "indexed": true,
          "internalType": "address",
          "name": "user",
          "type": "address"
        },
        {
          "indexed": false,
          "internalType": "address[]",
          "name": "tokens",
          "type": "address[]"
        },
        {
          "indexed": false,
          "internalType": "uint256[]",
          "name": "strategies",
          "type": "uint256[]"
        },
        {
          "indexed": false,
          "internalType": "bool",
          "name": "withdrawWethAsEth",
          "type": "bool"
        },
        {
          "indexed": false,
          "internalType": "uint256[]",
          "name": "tokenAmounts",
          "type": "uint256[]"
        },
        {
          "indexed": false,
          "internalType": "uint256",
          "name": "ethWithdrawn",
          "type": "uint256"
        },
        {
          "indexed": false,
          "internalType": "uint256",
          "name": "ethRewards",
          "type": "uint256"
        },
        {
          "indexed": false,
          "internalType": "uint256",
          "name": "biosRewards",
          "type": "uint256"
        }
      ],
      "name": "WithdrawAllAndClaim",
      "type": "event"
    },
    {
      "inputs": [],
      "name": "DEFAULT_ADMIN_ROLE",
      "outputs": [
        {
          "internalType": "bytes32",
          "name": "",
          "type": "bytes32"
        }
      ],
      "stateMutability": "view",
      "type": "function"
    },
    {
      "inputs": [],
      "name": "LIQUIDITY_PROVIDER_ROLE",
      "outputs": [
        {
          "internalType": "bytes32",
          "name": "",
          "type": "bytes32"
        }
      ],
      "stateMutability": "view",
      "type": "function"
    },
    {
      "inputs": [],
      "name": "MANAGER_ROLE",
      "outputs": [
        {
          "internalType": "bytes32",
          "name": "",
          "type": "bytes32"
        }
      ],
      "stateMutability": "view",
      "type": "function"
    },
    {
      "inputs": [],
      "name": "OWNER_ROLE",
      "outputs": [
        {
          "internalType": "bytes32",
          "name": "",
          "type": "bytes32"
        }
      ],
      "stateMutability": "view",
      "type": "function"
    },
    {
      "inputs": [
        {
          "internalType": "address",
          "name": "contractAddress",
          "type": "address"
        },
        {
          "internalType": "string",
          "name": "name",
          "type": "string"
        }
      ],
      "name": "addIntegration",
      "outputs": [],
      "stateMutability": "nonpayable",
      "type": "function"
    },
    {
      "inputs": [
        {
          "internalType": "address",
          "name": "tokenAddress",
          "type": "address"
        },
        {
          "internalType": "bool",
          "name": "acceptingDeposits",
          "type": "bool"
        },
        {
          "internalType": "bool",
          "name": "acceptingWithdrawals",
          "type": "bool"
        },
        {
          "internalType": "bool",
          "name": "acceptingLping",
          "type": "bool"
        },
        {
          "internalType": "bool",
          "name": "acceptingBridging",
          "type": "bool"
        },
        {
          "internalType": "uint256",
          "name": "biosRewardWeight",
          "type": "uint256"
        },
        {
          "internalType": "uint256",
          "name": "reserveRatioNumerator",
          "type": "uint256"
        },
        {
          "internalType": "uint256",
          "name": "targetLiquidityRatioNumerator",
          "type": "uint256"
        },
        {
          "internalType": "uint256",
          "name": "transferFeeKValueNumerator",
          "type": "uint256"
        },
        {
          "internalType": "uint256",
          "name": "transferFeePlatformRatioNumerator",
          "type": "uint256"
        }
      ],
      "name": "addToken",
      "outputs": [],
      "stateMutability": "nonpayable",
      "type": "function"
    },
    {
      "inputs": [
        {
          "internalType": "uint256",
          "name": "ratioX1000",
          "type": "uint256"
        }
      ],
      "name": "biosBuyBack",
      "outputs": [],
      "stateMutability": "nonpayable",
      "type": "function"
    },
    {
      "inputs": [
        {
          "internalType": "uint256[]",
          "name": "strategies",
          "type": "uint256[]"
        }
      ],
      "name": "claimAllRewards",
      "outputs": [
        {
          "internalType": "uint256",
          "name": "ethClaimed",
          "type": "uint256"
        },
        {
          "internalType": "uint256",
          "name": "biosClaimed",
          "type": "uint256"
        }
      ],
      "stateMutability": "nonpayable",
      "type": "function"
    },
    {
      "inputs": [],
      "name": "claimBiosRewards",
      "outputs": [
        {
          "internalType": "uint256",
          "name": "biosClaimed",
          "type": "uint256"
        }
      ],
      "stateMutability": "nonpayable",
      "type": "function"
    },
    {
      "inputs": [
        {
          "internalType": "uint256[]",
          "name": "strategies",
          "type": "uint256[]"
        }
      ],
      "name": "claimEthRewards",
      "outputs": [
        {
          "internalType": "uint256",
          "name": "ethClaimed",
          "type": "uint256"
        }
      ],
      "stateMutability": "nonpayable",
      "type": "function"
    },
    {
      "inputs": [
        {
          "internalType": "address[]",
          "name": "tokens",
          "type": "address[]"
        }
      ],
      "name": "claimLpFees",
      "outputs": [],
      "stateMutability": "nonpayable",
      "type": "function"
    },
    {
      "inputs": [
        {
          "components": [
            {
              "internalType": "address",
              "name": "integration",
              "type": "address"
            },
            {
              "internalType": "address[]",
              "name": "tokens",
              "type": "address[]"
            },
            {
              "internalType": "uint32",
              "name": "ammPoolID",
              "type": "uint32"
            }
          ],
          "internalType": "struct IYieldManager.DeployRequest[]",
          "name": "deployments",
          "type": "tuple[]"
        }
      ],
      "name": "deploy",
      "outputs": [],
      "stateMutability": "nonpayable",
      "type": "function"
    },
    {
      "inputs": [
        {
          "internalType": "address[]",
          "name": "tokens",
          "type": "address[]"
        },
        {
          "internalType": "uint256[]",
          "name": "amounts",
          "type": "uint256[]"
        }
      ],
      "name": "deposit",
      "outputs": [],
      "stateMutability": "payable",
      "type": "function"
    },
    {
      "inputs": [],
      "name": "disableLpWhitelist",
      "outputs": [],
      "stateMutability": "nonpayable",
      "type": "function"
    },
    {
      "inputs": [
        {
          "internalType": "uint256[]",
          "name": "strategies",
          "type": "uint256[]"
        },
        {
          "internalType": "uint256[]",
          "name": "positions",
          "type": "uint256[]"
        },
        {
          "internalType": "uint256",
          "name": "biosAmount",
          "type": "uint256"
        }
      ],
      "name": "distributeEth",
      "outputs": [],
      "stateMutability": "nonpayable",
      "type": "function"
    },
    {
      "inputs": [],
      "name": "enableLpWhitelist",
      "outputs": [],
      "stateMutability": "nonpayable",
      "type": "function"
    },
    {
      "inputs": [],
      "name": "getEthRewardsTimePeriod",
      "outputs": [
        {
          "internalType": "uint256",
          "name": "ethRewardsTimePeriod",
          "type": "uint256"
        }
      ],
      "stateMutability": "view",
      "type": "function"
    },
    {
      "inputs": [],
      "name": "getLastBiosBuyBackTimestamp",
      "outputs": [
        {
          "internalType": "uint256",
          "name": "",
          "type": "uint256"
        }
      ],
      "stateMutability": "view",
      "type": "function"
    },
    {
      "inputs": [],
      "name": "getLastDeployTimestamp",
      "outputs": [
        {
          "internalType": "uint256",
          "name": "",
          "type": "uint256"
        }
      ],
      "stateMutability": "view",
      "type": "function"
    },
    {
      "inputs": [],
      "name": "getLastDistributeEthTimestamp",
      "outputs": [
        {
          "internalType": "uint256",
          "name": "",
          "type": "uint256"
        }
      ],
      "stateMutability": "view",
      "type": "function"
    },
    {
      "inputs": [],
      "name": "getLpWhitelistEnabled",
      "outputs": [
        {
          "internalType": "bool",
          "name": "",
          "type": "bool"
        }
      ],
      "stateMutability": "view",
      "type": "function"
    },
    {
      "inputs": [
        {
          "internalType": "bytes32",
          "name": "role",
          "type": "bytes32"
        }
      ],
      "name": "getRoleAdmin",
      "outputs": [
        {
          "internalType": "bytes32",
          "name": "",
          "type": "bytes32"
        }
      ],
      "stateMutability": "view",
      "type": "function"
    },
    {
      "inputs": [
        {
          "internalType": "bytes32",
          "name": "role",
          "type": "bytes32"
        },
        {
          "internalType": "uint256",
          "name": "index",
          "type": "uint256"
        }
      ],
      "name": "getRoleMember",
      "outputs": [
        {
          "internalType": "address",
          "name": "",
          "type": "address"
        }
      ],
      "stateMutability": "view",
      "type": "function"
    },
    {
      "inputs": [
        {
          "internalType": "bytes32",
          "name": "role",
          "type": "bytes32"
        }
      ],
      "name": "getRoleMemberCount",
      "outputs": [
        {
          "internalType": "uint256",
          "name": "",
          "type": "uint256"
        }
      ],
      "stateMutability": "view",
      "type": "function"
    },
    {
      "inputs": [
        {
          "internalType": "bytes32",
          "name": "role",
          "type": "bytes32"
        },
        {
          "internalType": "address",
          "name": "account",
          "type": "address"
        }
      ],
      "name": "grantRole",
      "outputs": [],
      "stateMutability": "nonpayable",
      "type": "function"
    },
    {
      "inputs": [
        {
          "internalType": "bytes32",
          "name": "role",
          "type": "bytes32"
        },
        {
          "internalType": "address",
          "name": "account",
          "type": "address"
        }
      ],
      "name": "hasRole",
      "outputs": [
        {
          "internalType": "bool",
          "name": "",
          "type": "bool"
        }
      ],
      "stateMutability": "view",
      "type": "function"
    },
    {
      "inputs": [
        {
          "internalType": "address",
          "name": "admin_",
          "type": "address"
        },
        {
          "internalType": "address",
          "name": "owner_",
          "type": "address"
        },
        {
          "internalType": "address",
          "name": "manager_",
          "type": "address"
        },
        {
          "internalType": "address",
          "name": "liquidityProvider_",
          "type": "address"
        },
        {
          "internalType": "address",
          "name": "moduleMap_",
          "type": "address"
        }
      ],
      "name": "initialize",
      "outputs": [],
      "stateMutability": "nonpayable",
      "type": "function"
    },
    {
      "inputs": [
        {
          "internalType": "address",
          "name": "account",
          "type": "address"
        }
      ],
      "name": "isLiquidityProvider",
      "outputs": [
        {
          "internalType": "bool",
          "name": "",
          "type": "bool"
        }
      ],
      "stateMutability": "view",
      "type": "function"
    },
    {
      "inputs": [
        {
          "internalType": "address",
          "name": "account",
          "type": "address"
        }
      ],
      "name": "isManager",
      "outputs": [
        {
          "internalType": "bool",
          "name": "",
          "type": "bool"
        }
      ],
      "stateMutability": "view",
      "type": "function"
    },
    {
      "inputs": [
        {
          "internalType": "address",
          "name": "account",
          "type": "address"
        }
      ],
      "name": "isOwner",
      "outputs": [
        {
          "internalType": "bool",
          "name": "",
          "type": "bool"
        }
      ],
      "stateMutability": "view",
      "type": "function"
    },
    {
      "inputs": [],
      "name": "moduleMap",
      "outputs": [
        {
          "internalType": "contract IModuleMap",
          "name": "",
          "type": "address"
        }
      ],
      "stateMutability": "view",
      "type": "function"
    },
    {
      "inputs": [
        {
          "internalType": "address[]",
          "name": "tokens",
          "type": "address[]"
        },
        {
          "internalType": "uint256[]",
          "name": "amounts",
          "type": "uint256[]"
        }
      ],
      "name": "provideLiquidity",
      "outputs": [],
      "stateMutability": "nonpayable",
      "type": "function"
    },
    {
      "inputs": [
        {
          "internalType": "bytes32",
          "name": "role",
          "type": "bytes32"
        },
        {
          "internalType": "address",
          "name": "account",
          "type": "address"
        }
      ],
      "name": "renounceRole",
      "outputs": [],
      "stateMutability": "nonpayable",
      "type": "function"
    },
    {
      "inputs": [
        {
          "internalType": "bytes32",
          "name": "role",
          "type": "bytes32"
        },
        {
          "internalType": "address",
          "name": "account",
          "type": "address"
        }
      ],
      "name": "revokeRole",
      "outputs": [],
      "stateMutability": "nonpayable",
      "type": "function"
    },
    {
      "inputs": [
        {
          "internalType": "bytes4",
          "name": "interfaceId",
          "type": "bytes4"
        }
      ],
      "name": "supportsInterface",
      "outputs": [
        {
          "internalType": "bool",
          "name": "",
          "type": "bool"
        }
      ],
      "stateMutability": "view",
      "type": "function"
    },
    {
      "inputs": [
        {
          "internalType": "address[]",
          "name": "tokens",
          "type": "address[]"
        },
        {
          "internalType": "uint256[]",
          "name": "amounts",
          "type": "uint256[]"
        }
      ],
      "name": "takeLiquidity",
      "outputs": [],
      "stateMutability": "nonpayable",
      "type": "function"
    },
    {
      "inputs": [],
      "name": "tokenApprovals",
      "outputs": [],
      "stateMutability": "nonpayable",
      "type": "function"
    },
    {
      "inputs": [
        {
          "internalType": "uint32",
          "name": "biosBuyBackEthWeight",
          "type": "uint32"
        },
        {
          "internalType": "uint32",
          "name": "treasuryEthWeight",
          "type": "uint32"
        },
        {
          "internalType": "uint32",
          "name": "protocolFeeEthWeight",
          "type": "uint32"
        },
        {
          "internalType": "uint32",
          "name": "rewardsEthWeight",
          "type": "uint32"
        },
        {
          "internalType": "uint32",
          "name": "syntheticPoolSupplementWeight",
          "type": "uint32"
        }
      ],
      "name": "updateEthDistributionWeights",
      "outputs": [],
      "stateMutability": "nonpayable",
      "type": "function"
    },
    {
      "inputs": [
        {
          "internalType": "address payable",
          "name": "gasAccount",
          "type": "address"
        }
      ],
      "name": "updateGasAccount",
      "outputs": [],
      "stateMutability": "nonpayable",
      "type": "function"
    },
    {
      "inputs": [
        {
          "internalType": "uint256",
          "name": "gasAccountTargetEthBalance",
          "type": "uint256"
        }
      ],
      "name": "updateGasAccountTargetEthBalance",
      "outputs": [],
      "stateMutability": "nonpayable",
      "type": "function"
    },
    {
      "inputs": [
        {
          "internalType": "address payable",
          "name": "treasuryAccount",
          "type": "address"
        }
      ],
      "name": "updateTreasuryAccount",
      "outputs": [],
      "stateMutability": "nonpayable",
      "type": "function"
    },
    {
      "inputs": [
        {
          "internalType": "address[]",
          "name": "tokens",
          "type": "address[]"
        },
        {
          "internalType": "uint256[]",
          "name": "amounts",
          "type": "uint256[]"
        },
        {
          "internalType": "bool",
          "name": "withdrawWethAsEth",
          "type": "bool"
        }
      ],
      "name": "withdraw",
      "outputs": [],
      "stateMutability": "nonpayable",
      "type": "function"
    },
    {
      "inputs": [
        {
          "internalType": "address[]",
          "name": "tokens",
          "type": "address[]"
        },
        {
          "internalType": "uint256[]",
          "name": "strategies",
          "type": "uint256[]"
        },
        {
          "internalType": "bool",
          "name": "withdrawWethAsEth",
          "type": "bool"
        }
      ],
      "name": "withdrawAllAndClaim",
      "outputs": [
        {
          "internalType": "uint256[]",
          "name": "tokenAmounts",
          "type": "uint256[]"
        },
        {
          "internalType": "uint256",
          "name": "ethWithdrawn",
          "type": "uint256"
        },
        {
          "internalType": "uint256",
          "name": "ethClaimed",
          "type": "uint256"
        },
        {
          "internalType": "uint256",
          "name": "biosClaimed",
          "type": "uint256"
        }
      ],
      "stateMutability": "nonpayable",
      "type": "function"
    },
    {
      "stateMutability": "payable",
      "type": "receive"
    }
  ],
  "transactionHash": "0x6fe15ec543621c8cb0e4097653ee9695b14f3390229acd6e380171364616c806",
  "args": [],
  "solcInputHash": "8691a89ebd8d69f8412923e433444233",
  "bytecode": "0x608060405234801561001057600080fd5b50614fdd806100206000396000f3fe6080604052600436106101f05760003560e01c806301eb7a19146101fc57806301ffc9a7146102265780630b1ff20a146102465780630f0a1c6f1461026857806312804d23146102955780631459457a146102aa5780631542d6dd146102ca5780631a8821db146102e95780631b42f1541461030957806320037cdd146103295780632369fde51461034b578063248a9ca3146103605780632f2ff15d146103805780632f54bf6e146103a057806330dd79dd146103c057806336568abe146103e05780633f10724c146104005780634bc3f872146104205780634dee99b4146104365780635b21a5561461044b57806369c32f601461046b578063845fe1d01461048b5780638811d21b146104ab57806388656055146104db5780638a34be28146104fb5780639010d07c1461051b57806391d148541461053b57806399f7854a1461055b578063a1bc29081461057b578063a217fddf1461059b578063a2beb510146105b0578063a703b729146105e5578063b4f0abf014610605578063ca15c87314610625578063cb3c582214610645578063d547741f1461065a578063d690d13e1461067a578063da6b22071461068f578063de726b71146106a4578063e58378bb146106c4578063ec87621c146106e6578063efc908a114610708578063f3ae24151461071b57600080fd5b366101f757005b600080fd5b34801561020857600080fd5b506101025460ff165b60405190151581526020015b60405180910390f35b34801561023257600080fd5b506102116102413660046145bd565b61073b565b34801561025257600080fd5b50610266610261366004614555565b610766565b005b34801561027457600080fd5b5060c954610288906001600160a01b031681565b60405161021d91906148ad565b3480156102a157600080fd5b5061026661089c565b3480156102b657600080fd5b506102666102c53660046141fe565b6108c3565b3480156102d657600080fd5b5060fe545b60405190815260200161021d565b3480156102f557600080fd5b50610266610304366004614430565b610b13565b34801561031557600080fd5b506102666103243660046146ea565b610da8565b34801561033557600080fd5b506102db600080516020614f4883398151915281565b34801561035757600080fd5b50610266610eee565b34801561036c57600080fd5b506102db61037b366004614555565b611602565b34801561038c57600080fd5b5061026661039b36600461456d565b611617565b3480156103ac57600080fd5b506102116103bb3660046141c6565b611639565b3480156103cc57600080fd5b506102666103db3660046144c9565b611653565b3480156103ec57600080fd5b506102666103fb36600461456d565b611894565b34801561040c57600080fd5b5061026661041b3660046144a2565b611912565b34801561042c57600080fd5b50610100546102db565b34801561044257600080fd5b50610266611b44565b34801561045757600080fd5b50610266610466366004614389565b611b6e565b34801561047757600080fd5b506102666104863660046143c8565b611cc3565b34801561049757600080fd5b506102666104a6366004614555565b611e1e565b3480156104b757600080fd5b506104cb6104c6366004614430565b612050565b60405161021d9493929190614c14565b3480156104e757600080fd5b506102666104f636600461430a565b612243565b34801561050757600080fd5b506102666105163660046143c8565b612387565b34801561052757600080fd5b5061028861053636600461459c565b6124a5565b34801561054757600080fd5b5061021161055636600461456d565b6124c4565b34801561056757600080fd5b506102116105763660046141c6565b6124ef565b34801561058757600080fd5b506102666105963660046141c6565b612509565b3480156105a757600080fd5b506102db600081565b3480156105bc57600080fd5b506105d06105cb3660046144a2565b61262f565b6040805192835260208301919091520161021d565b3480156105f157600080fd5b5061026661060036600461426e565b61267f565b34801561061157600080fd5b506102666106203660046141c6565b612dcd565b34801561063157600080fd5b506102db610640366004614555565b612ef3565b34801561065157600080fd5b506102db612f0a565b34801561066657600080fd5b5061026661067536600461456d565b612f49565b34801561068657600080fd5b506102db612f66565b34801561069b57600080fd5b5060fc546102db565b3480156106b057600080fd5b506102db6106bf3660046144a2565b612fa3565b3480156106d057600080fd5b506102db600080516020614f8883398151915281565b3480156106f257600080fd5b506102db600080516020614f6883398151915281565b6102666107163660046143c8565b612fe3565b34801561072757600080fd5b506102116107363660046141c6565b613214565b60006001600160e01b03198216635a05180f60e01b148061076057506107608261322e565b92915050565b600080516020614f6883398151915261077f8133613263565b60c9546040516337c61fc560e11b81526001600160a01b0390911690636f8c3f8a906107b090600290600401614c43565b60206040518083038186803b1580156107c857600080fd5b505afa1580156107dc573d6000803e3d6000fd5b505050506040513d601f19601f8201168201806040525081019061080091906141e2565b6001600160a01b0316630b1ff20a836040518263ffffffff1660e01b815260040161082d91815260200190565b600060405180830381600087803b15801561084757600080fd5b505af115801561085b573d6000803e3d6000fd5b505050507f70002914330d9c830892c922ec3403d9d8a2cc3719a69cede0b9069f3f82b2bb8260405161089091815260200190565b60405180910390a15050565b600080516020614f688339815191526108b58133613263565b50610102805460ff19169055565b600054610100900460ff166108de5760005460ff16156108e6565b6108e66132c7565b61094e5760405162461bcd60e51b815260206004820152602e60248201527f496e697469616c697a61626c653a20636f6e747261637420697320616c72656160448201526d191e481a5b9a5d1a585b1a5e995960921b60648201526084015b60405180910390fd5b600054610100900460ff16158015610970576000805461ffff19166101011790555b6001600160a01b0386166109965760405162461bcd60e51b815260040161094590614d03565b6001600160a01b0385166109bc5760405162461bcd60e51b815260040161094590614d03565b6001600160a01b0384166109e25760405162461bcd60e51b815260040161094590614d03565b6001600160a01b038216610a085760405162461bcd60e51b815260040161094590614d03565b6001600160a01b038316610a2e5760405162461bcd60e51b815260040161094590614d03565b610a37826132d8565b610a3f613321565b610a47613352565b610a52600087613379565b610a6a600080516020614f8883398151915286613379565b610a82600080516020614f6883398151915285613379565b610a9a600080516020614f4883398151915284613379565b610ac0600080516020614f68833981519152600080516020614f88833981519152613383565b610ae6600080516020614f48833981519152600080516020614f68833981519152613383565b4261010155610102805460ff191660011790558015610b0b576000805461ff00191690555b505050505050565b600260ca541415610b365760405162461bcd60e51b815260040161094590614da6565b600260ca5560c9546040516337c61fc560e11b81526000916001600160a01b031690636f8c3f8a90610b6d90600190600401614c43565b60206040518083038186803b158015610b8557600080fd5b505afa158015610b99573d6000803e3d6000fd5b505050506040513d601f19601f82011682018060405250810190610bbd91906141e2565b6001600160a01b031663558c811e3388888888886040518763ffffffff1660e01b8152600401610bf29695949392919061494d565b602060405180830381600087803b158015610c0c57600080fd5b505af1158015610c20573d6000803e3d6000fd5b505050506040513d601f19601f82011682018060405250810190610c4491906146d2565b90508015610d525760c9546040516337c61fc560e11b8152610d489183916001600160a01b0390911690636f8c3f8a90610c8390600390600401614c43565b60206040518083038186803b158015610c9b57600080fd5b505afa158015610caf573d6000803e3d6000fd5b505050506040513d601f19601f82011682018060405250810190610cd391906141e2565b6001600160a01b0316638b9c94896040518163ffffffff1660e01b815260040160206040518083038186803b158015610d0b57600080fd5b505afa158015610d1f573d6000803e3d6000fd5b505050506040513d601f19601f82011682018060405250810190610d4391906141e2565b6133d6565b610d528133613537565b336001600160a01b03167f91e54360cfab588303c49bbbb2869608cb9a9fd5ff9b4431f86988f91290421d8787878786604051610d93959493929190614ab7565b60405180910390a25050600160ca5550505050565b600080516020614f68833981519152610dc18133613263565b60c9546040516337c61fc560e11b81526001600160a01b0390911690636f8c3f8a90610df290600290600401614c43565b60206040518083038186803b158015610e0a57600080fd5b505afa158015610e1e573d6000803e3d6000fd5b505050506040513d601f19601f82011682018060405250810190610e4291906141e2565b6001600160a01b0316631b42f15487878787876040518663ffffffff1660e01b8152600401610e75959493929190614ddd565b600060405180830381600087803b158015610e8f57600080fd5b505af1158015610ea3573d6000803e3d6000fd5b505050507f5b9ecd4f9898a7fceb189185cb35fed7bf15d71de4d3ba11765994abd17e30128686868686604051610ede959493929190614ddd565b60405180910390a1505050505050565b600080516020614f68833981519152610f078133613263565b60c9546040516337c61fc560e11b81526000916001600160a01b031690636f8c3f8a90610f3990600390600401614c43565b60206040518083038186803b158015610f5157600080fd5b505afa158015610f65573d6000803e3d6000fd5b505050506040513d601f19601f82011682018060405250810190610f8991906141e2565b90506000816001600160a01b03166344fc9b566040518163ffffffff1660e01b815260040160206040518083038186803b158015610fc657600080fd5b505afa158015610fda573d6000803e3d6000fd5b505050506040513d601f19601f82011682018060405250810190610ffe91906141e2565b90506000826001600160a01b0316638b9c94896040518163ffffffff1660e01b815260040160206040518083038186803b15801561103b57600080fd5b505afa15801561104f573d6000803e3d6000fd5b505050506040513d601f19601f8201168201806040525081019061107391906141e2565b60c9546040516337c61fc560e11b81529192506001600160a01b038085169263dd62ed3e9230921690636f8c3f8a906110b0906004908101614c43565b60206040518083038186803b1580156110c857600080fd5b505afa1580156110dc573d6000803e3d6000fd5b505050506040513d601f19601f8201168201806040525081019061110091906141e2565b6040518363ffffffff1660e01b815260040161111d9291906148c1565b60206040518083038186803b15801561113557600080fd5b505afa158015611149573d6000803e3d6000fd5b505050506040513d601f19601f8201168201806040525081019061116d91906146d2565b6112065760c9546040516337c61fc560e11b8152611206916001600160a01b031690636f8c3f8a906111a3906004908101614c43565b60206040518083038186803b1580156111bb57600080fd5b505afa1580156111cf573d6000803e3d6000fd5b505050506040513d601f19601f820116820180604052508101906111f391906141e2565b6001600160a01b038416906000196135d5565b60c9546040516337c61fc560e11b81526001600160a01b038481169263dd62ed3e92309290911690636f8c3f8a9061124390600290600401614c43565b60206040518083038186803b15801561125b57600080fd5b505afa15801561126f573d6000803e3d6000fd5b505050506040513d601f19601f8201168201806040525081019061129391906141e2565b6040518363ffffffff1660e01b81526004016112b09291906148c1565b60206040518083038186803b1580156112c857600080fd5b505afa1580156112dc573d6000803e3d6000fd5b505050506040513d601f19601f8201168201806040525081019061130091906146d2565b6113375760c9546040516337c61fc560e11b8152611337916001600160a01b031690636f8c3f8a906111a390600290600401614c43565b60c9546040516337c61fc560e11b81526001600160a01b038381169263dd62ed3e92309290911690636f8c3f8a9061137490600190600401614c43565b60206040518083038186803b15801561138c57600080fd5b505afa1580156113a0573d6000803e3d6000fd5b505050506040513d601f19601f820116820180604052508101906113c491906141e2565b6040518363ffffffff1660e01b81526004016113e19291906148c1565b60206040518083038186803b1580156113f957600080fd5b505afa15801561140d573d6000803e3d6000fd5b505050506040513d601f19601f8201168201806040525081019061143191906146d2565b6114cb5760c9546040516337c61fc560e11b81526114cb916001600160a01b031690636f8c3f8a9061146890600190600401614c43565b60206040518083038186803b15801561148057600080fd5b505afa158015611494573d6000803e3d6000fd5b505050506040513d601f19601f820116820180604052508101906114b891906141e2565b6001600160a01b038316906000196135d5565b60c9546040516337c61fc560e11b81526001600160a01b038381169263dd62ed3e92309290911690636f8c3f8a9061150890600290600401614c43565b60206040518083038186803b15801561152057600080fd5b505afa158015611534573d6000803e3d6000fd5b505050506040513d601f19601f8201168201806040525081019061155891906141e2565b6040518363ffffffff1660e01b81526004016115759291906148c1565b60206040518083038186803b15801561158d57600080fd5b505afa1580156115a1573d6000803e3d6000fd5b505050506040513d601f19601f820116820180604052508101906115c591906146d2565b6115fc5760c9546040516337c61fc560e11b81526115fc916001600160a01b031690636f8c3f8a9061146890600290600401614c43565b50505050565b60009081526065602052604090206001015490565b61162082611602565b61162a8133613263565b611634838361371e565b505050565b6000610760600080516020614f88833981519152836124c4565b60c9546040516337c61fc560e11b81526001600160a01b0390911690636f8c3f8a9061168490600290600401614c43565b60206040518083038186803b15801561169c57600080fd5b505afa1580156116b0573d6000803e3d6000fd5b505050506040513d601f19601f820116820180604052508101906116d491906141e2565b6001600160a01b031663e0a30f736040518163ffffffff1660e01b815260040160206040518083038186803b15801561170c57600080fd5b505afa158015611720573d6000803e3d6000fd5b505050506040513d601f19601f8201168201806040525081019061174491906141e2565b6001600160a01b0316336001600160a01b0316146117745760405162461bcd60e51b815260040161094590614d73565b60c9546040516337c61fc560e11b81526001600160a01b0390911690636f8c3f8a906117a590600290600401614c43565b60206040518083038186803b1580156117bd57600080fd5b505afa1580156117d1573d6000803e3d6000fd5b505050506040513d601f19601f820116820180604052508101906117f591906141e2565b6001600160a01b03166330dd79dd86868686866040518663ffffffff1660e01b8152600401611828959493929190614bdc565b600060405180830381600087803b15801561184257600080fd5b505af1158015611856573d6000803e3d6000fd5b505060fe805460ff5542905550506040517f975dc81fc1f814abf091a0d0126f3d75cde1a0b0aa2dee81138793762eea42fc90600090a15050505050565b6001600160a01b03811633146119045760405162461bcd60e51b815260206004820152602f60248201527f416363657373436f6e74726f6c3a2063616e206f6e6c792072656e6f756e636560448201526e103937b632b9903337b91039b2b63360891b6064820152608401610945565b61190e8282613740565b5050565b60c9546040516337c61fc560e11b81526001600160a01b0390911690636f8c3f8a9061194390600290600401614c43565b60206040518083038186803b15801561195b57600080fd5b505afa15801561196f573d6000803e3d6000fd5b505050506040513d601f19601f8201168201806040525081019061199391906141e2565b6001600160a01b031663e0a30f736040518163ffffffff1660e01b815260040160206040518083038186803b1580156119cb57600080fd5b505afa1580156119df573d6000803e3d6000fd5b505050506040513d601f19601f82011682018060405250810190611a0391906141e2565b6001600160a01b0316336001600160a01b031614611a335760405162461bcd60e51b815260040161094590614d73565b60c9546040516337c61fc560e11b81526001600160a01b0390911690636f8c3f8a90611a6490600290600401614c43565b60206040518083038186803b158015611a7c57600080fd5b505afa158015611a90573d6000803e3d6000fd5b505050506040513d601f19601f82011682018060405250810190611ab491906141e2565b6001600160a01b0316633f10724c83836040518363ffffffff1660e01b8152600401611ae1929190614af1565b600060405180830381600087803b158015611afb57600080fd5b505af1158015611b0f573d6000803e3d6000fd5b50504260fc5550506040517fd9659eff71087e0e5ae7a01868fb393704aec3a891860a55e69a47b9ad2f2dab90600090a15050565b600080516020614f68833981519152611b5d8133613263565b50610102805460ff19166001179055565b6101025460ff161580611b945750611b94600080516020614f48833981519152336124c4565b611bb05760405162461bcd60e51b815260040161094590614cb2565b600260ca541415611bd35760405162461bcd60e51b815260040161094590614da6565b600260ca5560c9546040516337c61fc560e11b81526001600160a01b0390911690636f8c3f8a90611c0990600a90600401614c43565b60206040518083038186803b158015611c2157600080fd5b505afa158015611c35573d6000803e3d6000fd5b505050506040513d601f19601f82011682018060405250810190611c5991906141e2565b6001600160a01b031663d84ac98c3384846040518463ffffffff1660e01b8152600401611c88939291906148db565b600060405180830381600087803b158015611ca257600080fd5b505af1158015611cb6573d6000803e3d6000fd5b5050600160ca5550505050565b6101025460ff161580611ce95750611ce9600080516020614f48833981519152336124c4565b611d055760405162461bcd60e51b815260040161094590614cb2565b600260ca541415611d285760405162461bcd60e51b815260040161094590614da6565b600260ca5560c9546040516337c61fc560e11b81526001600160a01b0390911690636f8c3f8a90611d5e90600a90600401614c43565b60206040518083038186803b158015611d7657600080fd5b505afa158015611d8a573d6000803e3d6000fd5b505050506040513d601f19601f82011682018060405250810190611dae91906141e2565b6001600160a01b03166343f0a5bb33868686866040518663ffffffff1660e01b8152600401611de1959493929190614909565b600060405180830381600087803b158015611dfb57600080fd5b505af1158015611e0f573d6000803e3d6000fd5b5050600160ca55505050505050565b60c9546040516337c61fc560e11b81526001600160a01b0390911690636f8c3f8a90611e4f90600290600401614c43565b60206040518083038186803b158015611e6757600080fd5b505afa158015611e7b573d6000803e3d6000fd5b505050506040513d601f19601f82011682018060405250810190611e9f91906141e2565b6001600160a01b031663e0a30f736040518163ffffffff1660e01b815260040160206040518083038186803b158015611ed757600080fd5b505afa158015611eeb573d6000803e3d6000fd5b505050506040513d601f19601f82011682018060405250810190611f0f91906141e2565b6001600160a01b0316336001600160a01b031614611f3f5760405162461bcd60e51b815260040161094590614d73565b60c9546040516337c61fc560e11b81526001600160a01b0390911690636f8c3f8a90611f7090600290600401614c43565b60206040518083038186803b158015611f8857600080fd5b505afa158015611f9c573d6000803e3d6000fd5b505050506040513d601f19601f82011682018060405250810190611fc091906141e2565b6001600160a01b031663845fe1d0826040518263ffffffff1660e01b8152600401611fed91815260200190565b600060405180830381600087803b15801561200757600080fd5b505af115801561201b573d6000803e3d6000fd5b5050426101005550506040517f0de1d02cebd74da6199efdd09bf1124d52c591382b792cfcce400d8c8396672a90600090a150565b60c9546040516337c61fc560e11b81526060916000918291829182916001600160a01b031690636f8c3f8a9061208b90600190600401614c43565b60206040518083038186803b1580156120a357600080fd5b505afa1580156120b7573d6000803e3d6000fd5b505050506040513d601f19601f820116820180604052508101906120db91906141e2565b6001600160a01b03166395be0546338c8c8c8c8c6040518763ffffffff1660e01b81526004016121109695949392919061494d565b600060405180830381600087803b15801561212a57600080fd5b505af115801561213e573d6000803e3d6000fd5b505050506040513d6000823e601f3d908101601f1916820160405261216691908101906145e5565b805160208201516040830151606084015192985090965094509250905083156121c05760c9546040516337c61fc560e11b81526121c09186916001600160a01b0390911690636f8c3f8a90610c8390600390600401614c43565b60006121cc8486614e64565b11156121e5576121e56121df8486614e64565b33613537565b336001600160a01b03167fc5b4b8ab390a1b4492016dad7a8c2c74bb8044f074a79c621297e84f465d2e688b8b8b8b8b8b8b8b8b60405161222e99989796959493929190614a52565b60405180910390a25095509550955095915050565b600080516020614f6883398151915261225c8133613263565b60c9546040516337c61fc560e11b81526001600160a01b0390911690636f8c3f8a9061228d90600390600401614c43565b60206040518083038186803b1580156122a557600080fd5b505afa1580156122b9573d6000803e3d6000fd5b505050506040513d601f19601f820116820180604052508101906122dd91906141e2565b6001600160a01b031663886560558585856040518463ffffffff1660e01b815260040161230c93929190614a14565b600060405180830381600087803b15801561232657600080fd5b505af115801561233a573d6000803e3d6000fd5b50505050836001600160a01b03167ff15c2370ab3e2550092505583d19a745408c68d87d83f56843652d6f01df378d8484604051612379929190614c6b565b60405180910390a250505050565b6101025460ff1615806123ad57506123ad600080516020614f48833981519152336124c4565b6123c95760405162461bcd60e51b815260040161094590614cb2565b600260ca5414156123ec5760405162461bcd60e51b815260040161094590614da6565b600260ca5560c9546040516337c61fc560e11b81526001600160a01b0390911690636f8c3f8a9061242290600a90600401614c43565b60206040518083038186803b15801561243a57600080fd5b505afa15801561244e573d6000803e3d6000fd5b505050506040513d601f19601f8201168201806040525081019061247291906141e2565b6001600160a01b031663fd2b513433868686866040518663ffffffff1660e01b8152600401611de1959493929190614909565b60008281526097602052604081206124bd9083613762565b9392505050565b60009182526065602090815260408084206001600160a01b0393909316845291905290205460ff1690565b6000610760600080516020614f48833981519152836124c4565b600080516020614f688339815191526125228133613263565b60c9546040516337c61fc560e11b81526001600160a01b0390911690636f8c3f8a9061255390600290600401614c43565b60206040518083038186803b15801561256b57600080fd5b505afa15801561257f573d6000803e3d6000fd5b505050506040513d601f19601f820116820180604052508101906125a391906141e2565b6001600160a01b031663a1bc2908836040518263ffffffff1660e01b81526004016125ce91906148ad565b600060405180830381600087803b1580156125e857600080fd5b505af11580156125fc573d6000803e3d6000fd5b505050507f56b5bc41858c1c8ea6c49bbaa714990fccbcefd31efe9d22cfbebf5d311dfdfc8260405161089091906148ad565b600080600260ca5414156126555760405162461bcd60e51b815260040161094590614da6565b600260ca55612664848461376e565b915061266f336138c8565b600160ca55919491935090915050565b600080516020614f688339815191526126988133613263565b60c9546040516337c61fc560e11b81526001600160a01b0390911690636f8c3f8a906126c990600390600401614c43565b60206040518083038186803b1580156126e157600080fd5b505afa1580156126f5573d6000803e3d6000fd5b505050506040513d601f19601f8201168201806040525081019061271991906141e2565b60405163a703b72960e01b81526001600160a01b038d811660048301528c151560248301528b151560448301528a15156064830152891515608483015260a4820189905260c4820188905260e4820187905261010482018690526101248201859052919091169063a703b7299061014401600060405180830381600087803b1580156127a457600080fd5b505af11580156127b8573d6000803e3d6000fd5b505050508a6001600160a01b031663dd62ed3e60c960009054906101000a90046001600160a01b03166001600160a01b0316636f8c3f8a60006040518263ffffffff1660e01b815260040161280d9190614c43565b60206040518083038186803b15801561282557600080fd5b505afa158015612839573d6000803e3d6000fd5b505050506040513d601f19601f8201168201806040525081019061285d91906141e2565b60c9546040516337c61fc560e11b81526001600160a01b0390911690636f8c3f8a9061288e90600290600401614c43565b60206040518083038186803b1580156128a657600080fd5b505afa1580156128ba573d6000803e3d6000fd5b505050506040513d601f19601f820116820180604052508101906128de91906141e2565b6040518363ffffffff1660e01b81526004016128fb9291906148c1565b60206040518083038186803b15801561291357600080fd5b505afa158015612927573d6000803e3d6000fd5b505050506040513d601f19601f8201168201806040525081019061294b91906146d2565b6129e55760c9546040516337c61fc560e11b81526129e5916001600160a01b031690636f8c3f8a9061298290600290600401614c43565b60206040518083038186803b15801561299a57600080fd5b505afa1580156129ae573d6000803e3d6000fd5b505050506040513d601f19601f820116820180604052508101906129d291906141e2565b6001600160a01b038d16906000196135d5565b60c9546040516337c61fc560e11b81526001600160a01b03808e169263dd62ed3e92911690636f8c3f8a90612a1f90600090600401614c43565b60206040518083038186803b158015612a3757600080fd5b505afa158015612a4b573d6000803e3d6000fd5b505050506040513d601f19601f82011682018060405250810190612a6f91906141e2565b60c9546040516337c61fc560e11b81526001600160a01b0390911690636f8c3f8a90612aa090600190600401614c43565b60206040518083038186803b158015612ab857600080fd5b505afa158015612acc573d6000803e3d6000fd5b505050506040513d601f19601f82011682018060405250810190612af091906141e2565b6040518363ffffffff1660e01b8152600401612b0d9291906148c1565b60206040518083038186803b158015612b2557600080fd5b505afa158015612b39573d6000803e3d6000fd5b505050506040513d601f19601f82011682018060405250810190612b5d91906146d2565b612b945760c9546040516337c61fc560e11b8152612b94916001600160a01b031690636f8c3f8a9061298290600190600401614c43565b60c9546040516337c61fc560e11b81526001600160a01b03808e169263dd62ed3e92911690636f8c3f8a90612bce90600090600401614c43565b60206040518083038186803b158015612be657600080fd5b505afa158015612bfa573d6000803e3d6000fd5b505050506040513d601f19601f82011682018060405250810190612c1e91906141e2565b60c9546040516337c61fc560e11b81526001600160a01b0390911690636f8c3f8a90612c4f90600b90600401614c43565b60206040518083038186803b158015612c6757600080fd5b505afa158015612c7b573d6000803e3d6000fd5b505050506040513d601f19601f82011682018060405250810190612c9f91906141e2565b6040518363ffffffff1660e01b8152600401612cbc9291906148c1565b60206040518083038186803b158015612cd457600080fd5b505afa158015612ce8573d6000803e3d6000fd5b505050506040513d601f19601f82011682018060405250810190612d0c91906146d2565b612d435760c9546040516337c61fc560e11b8152612d43916001600160a01b031690636f8c3f8a9061298290600b90600401614c43565b604080518b151581528a151560208201528915158183015288151560608201526080810188905260a0810187905260c0810186905260e08101859052610100810184905290516001600160a01b038d16917f7bc8b8972b091625aaef49aac424a93abb527b8507448b2935e656c5a4ffcbf691908190036101200190a25050505050505050505050565b600080516020614f68833981519152612de68133613263565b60c9546040516337c61fc560e11b81526001600160a01b0390911690636f8c3f8a90612e1790600290600401614c43565b60206040518083038186803b158015612e2f57600080fd5b505afa158015612e43573d6000803e3d6000fd5b505050506040513d601f19601f82011682018060405250810190612e6791906141e2565b6001600160a01b031663b4f0abf0836040518263ffffffff1660e01b8152600401612e9291906148ad565b600060405180830381600087803b158015612eac57600080fd5b505af1158015612ec0573d6000803e3d6000fd5b505050507f29136396b324aa7f7a8d1b8f00da39b8d88642bc714a9747c151b20e3d2af2338260405161089091906148ad565b600081815260976020526040812061076090613a11565b60fe5460009015612f435760ff5415612f325760ff5460fe54612f2d9190614e9b565b905090565b6101015460fe54612f2d9190614e9b565b50600090565b612f5282611602565b612f5c8133613263565b6116348383613740565b6000600260ca541415612f8b5760405162461bcd60e51b815260040161094590614da6565b600260ca55612f99336138c8565b9050600160ca5590565b6000600260ca541415612fc85760405162461bcd60e51b815260040161094590614da6565b600260ca55612fd7838361376e565b600160ca559392505050565b600260ca5414156130065760405162461bcd60e51b815260040161094590614da6565b600260ca55341561315b5760c9546040516337c61fc560e11b81526000916001600160a01b031690636f8c3f8a9061304390600390600401614c43565b60206040518083038186803b15801561305b57600080fd5b505afa15801561306f573d6000803e3d6000fd5b505050506040513d601f19601f8201168201806040525081019061309391906141e2565b6001600160a01b0316638b9c94896040518163ffffffff1660e01b815260040160206040518083038186803b1580156130cb57600080fd5b505afa1580156130df573d6000803e3d6000fd5b505050506040513d601f19601f8201168201806040525081019061310391906141e2565b9050806001600160a01b031663d0e30db0346040518263ffffffff1660e01b81526004016000604051808303818588803b15801561314057600080fd5b505af1158015613154573d6000803e3d6000fd5b5050505050505b60c9546040516337c61fc560e11b81526001600160a01b0390911690636f8c3f8a9061318c90600190600401614c43565b60206040518083038186803b1580156131a457600080fd5b505afa1580156131b8573d6000803e3d6000fd5b505050506040513d601f19601f820116820180604052508101906131dc91906141e2565b6001600160a01b031663776f5a8d33868686863460006040518863ffffffff1660e01b8152600401611de1979695949392919061499b565b6000610760600080516020614f68833981519152836124c4565b60006001600160e01b03198216637965db0b60e01b148061076057506301ffc9a760e01b6001600160e01b0319831614610760565b61326d82826124c4565b61190e57613285816001600160a01b03166014613a1b565b613290836020613a1b565b6040516020016132a192919061483e565b60408051601f198184030181529082905262461bcd60e51b825261094591600401614c7f565b60006132d230613bfc565b15905090565b600054610100900460ff166132ff5760405162461bcd60e51b815260040161094590614d28565b60c980546001600160a01b0319166001600160a01b0392909216919091179055565b600054610100900460ff166133485760405162461bcd60e51b815260040161094590614d28565b613350613c0b565b565b600054610100900460ff166133505760405162461bcd60e51b815260040161094590614d28565b61190e828261371e565b600061338e83611602565b600084815260656020526040808220600101859055519192508391839186917fbd79b86ffe0ab8e8776151514217cd7cacd52c909f66475c3af44e129f0b00ff9190a4505050565b60fa4614806133e55750603846145b156134e15760c9546040516337c61fc560e11b81526000916001600160a01b031690636f8c3f8a9061341c90600c90600401614c43565b60206040518083038186803b15801561343457600080fd5b505afa158015613448573d6000803e3d6000fd5b505050506040513d601f19601f8201168201806040525081019061346c91906141e2565b90506134826001600160a01b0383168285613c39565b604051636f074d1f60e11b8152600481018490526001600160a01b0382169063de0e9a3e90602401600060405180830381600087803b1580156134c457600080fd5b505af11580156134d8573d6000803e3d6000fd5b50505050505050565b604051632e1a7d4d60e01b8152600481018390526001600160a01b03821690632e1a7d4d90602401600060405180830381600087803b15801561352357600080fd5b505af1158015610b0b573d6000803e3d6000fd5b6000816001600160a01b03168360405160006040518083038185875af1925050503d8060008114613584576040519150601f19603f3d011682016040523d82523d6000602084013e613589565b606091505b50509050806116345760405162461bcd60e51b81526020600482015260186024820152774661696c656420746f207472616e736665722076616c756560401b6044820152606401610945565b80158061365d5750604051636eb1769f60e11b81526001600160a01b0384169063dd62ed3e9061360b90309086906004016148c1565b60206040518083038186803b15801561362357600080fd5b505afa158015613637573d6000803e3d6000fd5b505050506040513d601f19601f8201168201806040525081019061365b91906146d2565b155b6136c85760405162461bcd60e51b815260206004820152603660248201527f5361666545524332303a20617070726f76652066726f6d206e6f6e2d7a65726f60448201527520746f206e6f6e2d7a65726f20616c6c6f77616e636560501b6064820152608401610945565b6116348363095ea7b360e01b84846040516024016136e7929190614a39565b60408051601f198184030181529190526020810180516001600160e01b03166001600160e01b031990931692909217909152613c58565b6137288282613d2a565b60008281526097602052604090206116349082613db0565b61374a8282613dc5565b60008281526097602052604090206116349082613e2c565b60006124bd8383613e41565b60c9546040516337c61fc560e11b81526000916001600160a01b031690636f8c3f8a906137a090600190600401614c43565b60206040518083038186803b1580156137b857600080fd5b505afa1580156137cc573d6000803e3d6000fd5b505050506040513d601f19601f820116820180604052508101906137f091906141e2565b6001600160a01b031663c3b2a7f43385856040518463ffffffff1660e01b815260040161381f939291906149ef565b602060405180830381600087803b15801561383957600080fd5b505af115801561384d573d6000803e3d6000fd5b505050506040513d601f19601f8201168201806040525081019061387191906146d2565b905061387d8133613537565b336001600160a01b03167f52641a01fee1d4b51c574b806315d8012d15a005587807a7f0a84e42393b09228484846040516138ba93929190614bf0565b60405180910390a292915050565b60c9546040516337c61fc560e11b81526000916001600160a01b031690636f8c3f8a906138fa90600d90600401614c43565b60206040518083038186803b15801561391257600080fd5b505afa158015613926573d6000803e3d6000fd5b505050506040513d601f19601f8201168201806040525081019061394a91906141e2565b6001600160a01b031663699bdca9836040518263ffffffff1660e01b815260040161397591906148ad565b602060405180830381600087803b15801561398f57600080fd5b505af11580156139a3573d6000803e3d6000fd5b505050506040513d601f19601f820116820180604052508101906139c791906146d2565b9050816001600160a01b03167fbb219a4ef7ab353b9ff2f337e191975fba0952436ef67efea1aecca5f6f766d682604051613a0491815260200190565b60405180910390a2919050565b6000610760825490565b60606000613a2a836002614e7c565b613a35906002614e64565b6001600160401b03811115613a5a57634e487b7160e01b600052604160045260246000fd5b6040519080825280601f01601f191660200182016040528015613a84576020820181803683370190505b509050600360fc1b81600081518110613aad57634e487b7160e01b600052603260045260246000fd5b60200101906001600160f81b031916908160001a905350600f60fb1b81600181518110613aea57634e487b7160e01b600052603260045260246000fd5b60200101906001600160f81b031916908160001a9053506000613b0e846002614e7c565b613b19906001614e64565b90505b6001811115613bad576f181899199a1a9b1b9c1cb0b131b232b360811b85600f1660108110613b5b57634e487b7160e01b600052603260045260246000fd5b1a60f81b828281518110613b7f57634e487b7160e01b600052603260045260246000fd5b60200101906001600160f81b031916908160001a90535060049490941c93613ba681614ede565b9050613b1c565b5083156124bd5760405162461bcd60e51b815260206004820181905260248201527f537472696e67733a20686578206c656e67746820696e73756666696369656e746044820152606401610945565b6001600160a01b03163b151590565b600054610100900460ff16613c325760405162461bcd60e51b815260040161094590614d28565b600160ca55565b6116348363a9059cbb60e01b84846040516024016136e7929190614a39565b6000613cad826040518060400160405280602081526020017f5361666545524332303a206c6f772d6c6576656c2063616c6c206661696c6564815250856001600160a01b0316613e799092919063ffffffff16565b8051909150156116345780806020019051810190613ccb9190614539565b6116345760405162461bcd60e51b815260206004820152602a60248201527f5361666545524332303a204552433230206f7065726174696f6e20646964206e6044820152691bdd081cdd58d8d9595960b21b6064820152608401610945565b613d3482826124c4565b61190e5760008281526065602090815260408083206001600160a01b03851684529091529020805460ff19166001179055613d6c3390565b6001600160a01b0316816001600160a01b0316837f2f8788117e7eff1d82e926ec794901d17c78024a50270940304540a733656f0d60405160405180910390a45050565b60006124bd836001600160a01b038416613e90565b613dcf82826124c4565b1561190e5760008281526065602090815260408083206001600160a01b0385168085529252808320805460ff1916905551339285917ff6391f5c32d9c69d2a47ea670b442974b53935d1edc7fd64eb21e047a839171b9190a45050565b60006124bd836001600160a01b038416613edf565b6000826000018281548110613e6657634e487b7160e01b600052603260045260246000fd5b9060005260206000200154905092915050565b6060613e888484600085613ffc565b949350505050565b6000818152600183016020526040812054613ed757508154600181810184556000848152602080822090930184905584548482528286019093526040902091909155610760565b506000610760565b60008181526001830160205260408120548015613ff2576000613f03600183614e9b565b8554909150600090613f1790600190614e9b565b9050818114613f98576000866000018281548110613f4557634e487b7160e01b600052603260045260246000fd5b9060005260206000200154905080876000018481548110613f7657634e487b7160e01b600052603260045260246000fd5b6000918252602080832090910192909255918252600188019052604090208390555b8554869080613fb757634e487b7160e01b600052603160045260246000fd5b600190038181906000526020600020016000905590558560010160008681526020019081526020016000206000905560019350505050610760565b6000915050610760565b60608247101561405d5760405162461bcd60e51b815260206004820152602660248201527f416464726573733a20696e73756666696369656e742062616c616e636520666f6044820152651c8818d85b1b60d21b6064820152608401610945565b61406685613bfc565b6140b25760405162461bcd60e51b815260206004820152601d60248201527f416464726573733a2063616c6c20746f206e6f6e2d636f6e74726163740000006044820152606401610945565b600080866001600160a01b031685876040516140ce9190614822565b60006040518083038185875af1925050503d806000811461410b576040519150601f19603f3d011682016040523d82523d6000602084013e614110565b606091505b509150915061412082828661412b565b979650505050505050565b6060831561413a5750816124bd565b82511561414a5782518084602001fd5b8160405162461bcd60e51b81526004016109459190614c7f565b60008083601f840112614175578182fd5b5081356001600160401b0381111561418b578182fd5b6020830191508360208260051b85010111156141a657600080fd5b9250929050565b803563ffffffff811681146141c157600080fd5b919050565b6000602082840312156141d7578081fd5b81356124bd81614f21565b6000602082840312156141f3578081fd5b81516124bd81614f21565b600080600080600060a08688031215614215578081fd5b853561422081614f21565b9450602086013561423081614f21565b9350604086013561424081614f21565b9250606086013561425081614f21565b9150608086013561426081614f21565b809150509295509295909350565b6000806000806000806000806000806101408b8d03121561428d578485fd5b8a3561429881614f21565b995060208b01356142a881614f39565b985060408b01356142b881614f39565b975060608b01356142c881614f39565b965060808b01356142d881614f39565b999c989b50969995989760a0870135975060c08701359660e08101359650610100810135955061012001359350915050565b60008060006040848603121561431e578283fd5b833561432981614f21565b925060208401356001600160401b0380821115614344578384fd5b818601915086601f830112614357578384fd5b813581811115614365578485fd5b876020828501011115614376578485fd5b6020830194508093505050509250925092565b6000806020838503121561439b578081fd5b82356001600160401b038111156143b0578182fd5b6143bc85828601614164565b90969095509350505050565b600080600080604085870312156143dd578182fd5b84356001600160401b03808211156143f3578384fd5b6143ff88838901614164565b90965094506020870135915080821115614417578384fd5b5061442487828801614164565b95989497509550505050565b600080600080600060608688031215614447578283fd5b85356001600160401b038082111561445d578485fd5b61446989838a01614164565b90975095506020880135915080821115614481578485fd5b5061448e88828901614164565b909450925050604086013561426081614f39565b600080602083850312156144b4578182fd5b82356001600160401b038111156143b0578283fd5b6000806000806000606086880312156144e0578283fd5b85356001600160401b03808211156144f6578485fd5b61450289838a01614164565b9097509550602088013591508082111561451a578485fd5b5061452788828901614164565b96999598509660400135949350505050565b60006020828403121561454a578081fd5b81516124bd81614f39565b600060208284031215614566578081fd5b5035919050565b6000806040838503121561457f578182fd5b82359150602083013561459181614f21565b809150509250929050565b600080604083850312156145ae578182fd5b50508035926020909101359150565b6000602082840312156145ce578081fd5b81356001600160e01b0319811681146124bd578182fd5b600060208083850312156145f7578182fd5b82516001600160401b038082111561460d578384fd5b9084019060808287031215614620578384fd5b614628614e0c565b825182811115614636578586fd5b8301601f81018813614646578586fd5b80518381111561465857614658614f0b565b8060051b9350614669868501614e34565b8181528681019083880186850189018c101561468357898afd5b8996505b838710156146a5578051835260019690960195918801918801614687565b50845250505082840151938101939093525060408082015190830152606090810151908201529392505050565b6000602082840312156146e3578081fd5b5051919050565b600080600080600060a08688031215614701578283fd5b61470a866141ad565b9450614718602087016141ad565b9350614726604087016141ad565b9250614734606087016141ad565b9150614742608087016141ad565b90509295509295909350565b81835260006020808501945082825b8581101561478b57813561477081614f21565b6001600160a01b03168752958201959082019060010161475d565b509495945050505050565b81835260006001600160fb1b038311156147ae578081fd5b8260051b80836020870137939093016020019283525090919050565b6000815180845260208085019450808401835b8381101561478b578151875295820195908201906001016147dd565b81835281816020850137506000828201602090810191909152601f909101601f19169091010190565b60008251614834818460208701614eb2565b9190910192915050565b76020b1b1b2b9b9a1b7b73a3937b61d1030b1b1b7bab73a1604d1b815260008351614870816017850160208801614eb2565b7001034b99036b4b9b9b4b733903937b6329607d1b60179184019182015283516148a1816028840160208801614eb2565b01602801949350505050565b6001600160a01b0391909116815260200190565b6001600160a01b0392831681529116602082015260400190565b6001600160a01b0384168152604060208201819052600090614900908301848661474e565b95945050505050565b6001600160a01b038616815260606020820181905260009061492e908301868861474e565b8281036040840152614941818587614796565b98975050505050505050565b6001600160a01b0387168152608060208201819052600090614972908301878961474e565b8281036040840152614985818688614796565b9150508215156060830152979650505050505050565b6001600160a01b038816815260a0602082018190526000906149c0908301888a61474e565b82810360408401526149d3818789614796565b6060840195909552505090151560809091015295945050505050565b6001600160a01b03841681526040602082018190526000906149009083018486614796565b6001600160a01b038416815260406020820181905260009061490090830184866147f9565b6001600160a01b03929092168252602082015260400190565b60e081526000614a6660e083018b8d61474e565b8281036020840152614a79818a8c614796565b905087151560408401528281036060840152614a9581886147ca565b6080840196909652505060a081019290925260c0909101529695505050505050565b606081526000614acb60608301878961474e565b8281036020840152614ade818688614796565b9150508260408301529695505050505050565b60208082528181018390526000906040808401600586811b8601830188865b89811015614bcd57888303603f190185528135368c9003605e19018112614b35578889fd5b8b0160608135614b4481614f21565b6001600160a01b031685528189013536839003601e19018112614b65578a8bfd5b820180356001600160401b03811115614b7c578b8cfd5b80881b3603841315614b8c578b8cfd5b828b880152614ba0838801828d850161474e565b92505050614baf8883016141ad565b63ffffffff1694880194909452509386019390860190600101614b10565b50909998505050505050505050565b606081526000614acb606083018789614796565b604081526000614c04604083018587614796565b9050826020830152949350505050565b608081526000614c2760808301876147ca565b6020830195909552506040810192909252606090910152919050565b60208101600e8310614c6557634e487b7160e01b600052602160045260246000fd5b91905290565b602081526000613e886020830184866147f9565b6020815260008251806020840152614c9e816040850160208701614eb2565b601f01601f19169190910160400192915050565b60208082526031908201527f43616c6c6572206973206e6f742077686974656c69737465642061732061206c60408201527034b8bab4b234ba3c90383937bb34b232b960791b606082015260800190565b6020808252600b908201526a626164206164647265737360a81b604082015260600190565b6020808252602b908201527f496e697469616c697a61626c653a20636f6e7472616374206973206e6f74206960408201526a6e697469616c697a696e6760a81b606082015260800190565b60208082526019908201527810d85b1b195c881a5cc81b9bdd0819d85cc81858d8dbdd5b9d603a1b604082015260600190565b6020808252601f908201527f5265656e7472616e637947756172643a207265656e7472616e742063616c6c00604082015260600190565b63ffffffff95861681529385166020850152918416604084015283166060830152909116608082015260a00190565b604051608081016001600160401b0381118282101715614e2e57614e2e614f0b565b60405290565b604051601f8201601f191681016001600160401b0381118282101715614e5c57614e5c614f0b565b604052919050565b60008219821115614e7757614e77614ef5565b500190565b6000816000190483118215151615614e9657614e96614ef5565b500290565b600082821015614ead57614ead614ef5565b500390565b60005b83811015614ecd578181015183820152602001614eb5565b838111156115fc5750506000910152565b600081614eed57614eed614ef5565b506000190190565b634e487b7160e01b600052601160045260246000fd5b634e487b7160e01b600052604160045260246000fd5b6001600160a01b0381168114614f3657600080fd5b50565b8015158114614f3657600080fdfe6d53deaa1363a9a09a38da6f41ec59fc13a00b08c43141d19c181ddb970e9d2a45a03fb503c1bf173e1a78fdc6b62e74bfc9c0cac4b0db3c4a667287a0fb7b9d72fed0a30cb639f27f755e6f7c6edf975db0859d96eb67b27d2695c6486b1be0a2646970667358221220246386e2905e24061a458f4b729cb1dfce912190352d9ae494636c85ff6d033664736f6c63430008040033",
  "devdoc": {
    "kind": "dev",
    "methods": {
      "addIntegration(address,string)": {
        "params": {
          "contractAddress": "The address of the integration contract",
          "name": "The name of the protocol being integrated to"
        }
      },
      "addToken(address,bool,bool,bool,bool,uint256,uint256,uint256,uint256,uint256)": {
        "params": {
          "acceptingDeposits": "Whether token deposits are enabled",
          "acceptingWithdrawals": "Whether token withdrawals are enabled",
          "biosRewardWeight": "Token weight for BIOS rewards",
          "reserveRatioNumerator": "Number that gets divided by reserve ratio denominator to get reserve ratio",
          "tokenAddress": "The address of the ERC20 token contract"
        }
      },
      "biosBuyBack(uint256)": {
        "params": {
          "ratioX1000": "BIOS/WETH ratio for front runner protection"
        }
      },
      "claimAllRewards(uint256[])": {
        "params": {
          "strategies": "Array of strategy IDs to claim eth rewards from"
        },
        "returns": {
          "biosClaimed": "The amount of BIOS claimed by the user",
          "ethClaimed": "The amount of ETH claimed by the user"
        }
      },
      "claimBiosRewards()": {
        "returns": {
          "biosClaimed": "The amount of BIOS claimed by the user"
        }
      },
      "claimEthRewards(uint256[])": {
        "params": {
          "strategies": "Array of strategy IDs to claim rewards from. 0 for BIOS PFA!"
        },
        "returns": {
          "ethClaimed": "The amount of ETH claimed by the user"
        }
      },
      "claimLpFees(address[])": {
        "params": {
          "tokens": "Array of token the token addresses"
        }
      },
      "deposit(address[],uint256[])": {
        "params": {
          "amounts": "Array of token amounts",
          "tokens": "Array of token the token addresses"
        }
      },
      "getEthRewardsTimePeriod()": {
        "returns": {
          "ethRewardsTimePeriod": "The number of seconds between the last two ETH payouts"
        }
      },
      "getLastBiosBuyBackTimestamp()": {
        "returns": {
          "_0": "The timestamp the biosBuyBack function was last called"
        }
      },
      "getLastDeployTimestamp()": {
        "returns": {
          "_0": "The timestamp the deploy function was last called"
        }
      },
      "getLastDistributeEthTimestamp()": {
        "returns": {
          "_0": "The timestamp the distributeEth function was last called"
        }
      },
      "getRoleAdmin(bytes32)": {
        "details": "Returns the admin role that controls `role`. See {grantRole} and {revokeRole}. To change a role's admin, use {_setRoleAdmin}."
      },
      "getRoleMember(bytes32,uint256)": {
        "details": "Returns one of the accounts that have `role`. `index` must be a value between 0 and {getRoleMemberCount}, non-inclusive. Role bearers are not sorted in any particular way, and their ordering may change at any point. WARNING: When using {getRoleMember} and {getRoleMemberCount}, make sure you perform all queries on the same block. See the following https://forum.openzeppelin.com/t/iterating-over-elements-on-enumerableset-in-openzeppelin-contracts/2296[forum post] for more information."
      },
      "getRoleMemberCount(bytes32)": {
        "details": "Returns the number of accounts that have `role`. Can be used together with {getRoleMember} to enumerate all bearers of a role."
      },
      "grantRole(bytes32,address)": {
        "details": "Grants `role` to `account`. If `account` had not been already granted `role`, emits a {RoleGranted} event. Requirements: - the caller must have ``role``'s admin role."
      },
      "hasRole(bytes32,address)": {
        "details": "Returns `true` if `account` has been granted `role`."
      },
      "initialize(address,address,address,address,address)": {
        "params": {
          "admin_": "default administrator, a cold storage address",
          "moduleMap_": "Module Map address",
          "owner_": "single owner account, used to manage the managers"
        }
      },
      "isLiquidityProvider(address)": {
        "params": {
          "account": "The address of the account to check if they are a liquidity provider"
        },
        "returns": {
          "_0": "Bool indicating whether the account is a liquidity provider"
        }
      },
      "isManager(address)": {
        "params": {
          "account": "The address of the account to check if they are a manager"
        },
        "returns": {
          "_0": "Bool indicating whether the account is a manger"
        }
      },
      "isOwner(address)": {
        "params": {
          "account": "The address of the account to check if they are an owner"
        },
        "returns": {
          "_0": "Bool indicating whether the account is an owner"
        }
      },
      "provideLiquidity(address[],uint256[])": {
        "params": {
          "amounts": "Array of token amounts",
          "tokens": "Array of token the token addresses"
        }
      },
      "renounceRole(bytes32,address)": {
        "details": "Revokes `role` from the calling account. Roles are often managed via {grantRole} and {revokeRole}: this function's purpose is to provide a mechanism for accounts to lose their privileges if they are compromised (such as when a trusted device is misplaced). If the calling account had been revoked `role`, emits a {RoleRevoked} event. Requirements: - the caller must be `account`."
      },
      "revokeRole(bytes32,address)": {
        "details": "Revokes `role` from `account`. If `account` had been granted `role`, emits a {RoleRevoked} event. Requirements: - the caller must have ``role``'s admin role."
      },
      "supportsInterface(bytes4)": {
        "details": "See {IERC165-supportsInterface}."
      },
      "takeLiquidity(address[],uint256[])": {
        "params": {
          "amounts": "Array of token amounts",
          "tokens": "Array of token the token addresses"
        }
      },
      "updateEthDistributionWeights(uint32,uint32,uint32,uint32,uint32)": {
        "params": {
          "biosBuyBackEthWeight": "The relative weight of ETH to send to BIOS buy back",
          "protocolFeeEthWeight": "The relative weight of ETH to send to protocol fee accrual",
          "rewardsEthWeight": "The relative weight of ETH to send to user rewards",
          "syntheticPoolSupplementWeight": "The relative weight of ETH to send to synthetic pool",
          "treasuryEthWeight": "The relative weight of ETH to send to the treasury"
        }
      },
      "updateGasAccount(address)": {
        "params": {
          "gasAccount": "The address of the account to send ETH to gas for executing bulk system functions"
        }
      },
      "updateGasAccountTargetEthBalance(uint256)": {
        "params": {
          "gasAccountTargetEthBalance": "The target ETH balance of the gas account"
        }
      },
      "updateTreasuryAccount(address)": {
        "params": {
          "treasuryAccount": "The address of the system treasury account"
        }
      },
      "withdraw(address[],uint256[],bool)": {
        "params": {
          "amounts": "Array of token amounts",
          "tokens": "Array of token the token addresses",
          "withdrawWethAsEth": "Boolean indicating whether should receive WETH balance as ETH"
        }
      },
      "withdrawAllAndClaim(address[],uint256[],bool)": {
        "params": {
          "strategies": "Array of strategyIDs that user is claiming rewards from",
          "tokens": "Array of token address that user is exiting positions from",
          "withdrawWethAsEth": "Boolean indicating whether should receive WETH balance as ETH"
        },
        "returns": {
          "biosClaimed": "The amount of BIOS being claimed from rewards",
          "ethClaimed": "The amount of ETH being claimed from rewards",
          "ethWithdrawn": "The amount of WETH balance being withdrawn as ETH",
          "tokenAmounts": "The amounts of each token being withdrawn"
        }
      }
    },
    "title": "Kernel",
    "version": 1
  },
  "userdoc": {
    "kind": "user",
    "methods": {
      "addIntegration(address,string)": {
        "notice": "This function is used after tokens have been added, and a weight array should be included"
      },
      "biosBuyBack(uint256)": {
        "notice": "Uses any WETH held in the SushiSwap integration to buy back BIOS which is sent to the Kernel"
      },
      "claimAllRewards(uint256[])": {
        "notice": "Allows user to claim their ETH and BIOS rewards"
      },
      "claimBiosRewards()": {
        "notice": "Allows user to claim their BIOS rewards"
      },
      "claimEthRewards(uint256[])": {
        "notice": "Allows user to claim their ETH rewards"
      },
      "deploy((address,address[],uint32)[])": {
        "notice": "Deploys all tokens to all integrations according to configured weights"
      },
      "deposit(address[],uint256[])": {
        "notice": "User is allowed to deposit whitelisted tokens"
      },
      "distributeEth(uint256[],uint256[],uint256)": {
        "notice": "Distributes WETH to the gas account, BIOS buy back, treasury, protocol fee accrual, and user rewards"
      },
      "initialize(address,address,address,address,address)": {
        "notice": "Initializes contract - used as a replacement for a constructor"
      },
      "provideLiquidity(address[],uint256[])": {
        "notice": "User is allowed to LP whitelisted tokens"
      },
      "tokenApprovals()": {
        "notice": "Gives the UserPositions contract approval to transfer BIOS from Kernel"
      },
      "withdraw(address[],uint256[],bool)": {
        "notice": "User is allowed to withdraw tokens"
      },
      "withdrawAllAndClaim(address[],uint256[],bool)": {
        "notice": "Allows a user to withdraw entire undeployed balances of the specified tokens and claim rewards"
      }
    },
    "notice": "Allows users to deposit/withdraw erc20 tokensAllows a system admin to control which tokens are depositable",
    "version": 1
  },
  "storageLayout": {
    "storage": [
      {
        "astId": 702,
        "contract": "contracts/core/Kernel.sol:Kernel",
        "label": "_initialized",
        "offset": 0,
        "slot": "0",
        "type": "t_bool"
      },
      {
        "astId": 705,
        "contract": "contracts/core/Kernel.sol:Kernel",
        "label": "_initializing",
        "offset": 1,
        "slot": "0",
        "type": "t_bool"
      },
      {
        "astId": 2052,
        "contract": "contracts/core/Kernel.sol:Kernel",
        "label": "__gap",
        "offset": 0,
        "slot": "1",
        "type": "t_array(t_uint256)50_storage"
      },
      {
        "astId": 2299,
        "contract": "contracts/core/Kernel.sol:Kernel",
        "label": "__gap",
        "offset": 0,
        "slot": "51",
        "type": "t_array(t_uint256)50_storage"
      },
      {
        "astId": 184,
        "contract": "contracts/core/Kernel.sol:Kernel",
        "label": "_roles",
        "offset": 0,
        "slot": "101",
        "type": "t_mapping(t_bytes32,t_struct(RoleData)179_storage)"
      },
      {
        "astId": 472,
        "contract": "contracts/core/Kernel.sol:Kernel",
        "label": "__gap",
        "offset": 0,
        "slot": "102",
        "type": "t_array(t_uint256)49_storage"
      },
      {
        "astId": 33,
        "contract": "contracts/core/Kernel.sol:Kernel",
        "label": "_roleMembers",
        "offset": 0,
        "slot": "151",
        "type": "t_mapping(t_bytes32,t_struct(AddressSet)2712_storage)"
      },
      {
        "astId": 143,
        "contract": "contracts/core/Kernel.sol:Kernel",
        "label": "__gap",
        "offset": 0,
        "slot": "152",
        "type": "t_array(t_uint256)49_storage"
      },
      {
        "astId": 15684,
        "contract": "contracts/core/Kernel.sol:Kernel",
        "label": "moduleMap",
        "offset": 0,
        "slot": "201",
        "type": "t_contract(IModuleMap)29669"
      },
      {
        "astId": 783,
        "contract": "contracts/core/Kernel.sol:Kernel",
        "label": "_status",
        "offset": 0,
        "slot": "202",
        "type": "t_uint256"
      },
      {
        "astId": 827,
        "contract": "contracts/core/Kernel.sol:Kernel",
        "label": "__gap",
        "offset": 0,
        "slot": "203",
        "type": "t_array(t_uint256)49_storage"
      },
      {
        "astId": 14233,
        "contract": "contracts/core/Kernel.sol:Kernel",
        "label": "lastDeployTimestamp",
        "offset": 0,
        "slot": "252",
        "type": "t_uint256"
      },
      {
        "astId": 14235,
        "contract": "contracts/core/Kernel.sol:Kernel",
        "label": "lastHarvestYieldTimestamp",
        "offset": 0,
        "slot": "253",
        "type": "t_uint256"
      },
      {
        "astId": 14237,
        "contract": "contracts/core/Kernel.sol:Kernel",
        "label": "lastDistributeEthTimestamp",
        "offset": 0,
        "slot": "254",
        "type": "t_uint256"
      },
      {
        "astId": 14239,
        "contract": "contracts/core/Kernel.sol:Kernel",
        "label": "lastLastDistributeEthTimestamp",
        "offset": 0,
        "slot": "255",
        "type": "t_uint256"
      },
      {
        "astId": 14241,
        "contract": "contracts/core/Kernel.sol:Kernel",
        "label": "lastBiosBuyBackTimestamp",
        "offset": 0,
        "slot": "256",
        "type": "t_uint256"
      },
      {
        "astId": 14243,
        "contract": "contracts/core/Kernel.sol:Kernel",
        "label": "initializationTimestamp",
        "offset": 0,
        "slot": "257",
        "type": "t_uint256"
      },
      {
        "astId": 14245,
        "contract": "contracts/core/Kernel.sol:Kernel",
        "label": "lpWhitelistEnabled",
        "offset": 0,
        "slot": "258",
        "type": "t_bool"
      }
    ],
    "types": {
      "t_address": {
        "encoding": "inplace",
        "label": "address",
        "numberOfBytes": "20"
      },
      "t_array(t_bytes32)dyn_storage": {
        "base": "t_bytes32",
        "encoding": "dynamic_array",
        "label": "bytes32[]",
        "numberOfBytes": "32"
      },
      "t_array(t_uint256)49_storage": {
        "base": "t_uint256",
        "encoding": "inplace",
        "label": "uint256[49]",
        "numberOfBytes": "1568"
      },
      "t_array(t_uint256)50_storage": {
        "base": "t_uint256",
        "encoding": "inplace",
        "label": "uint256[50]",
        "numberOfBytes": "1600"
      },
      "t_bool": {
        "encoding": "inplace",
        "label": "bool",
        "numberOfBytes": "1"
      },
      "t_bytes32": {
        "encoding": "inplace",
        "label": "bytes32",
        "numberOfBytes": "32"
      },
      "t_contract(IModuleMap)29669": {
        "encoding": "inplace",
        "label": "contract IModuleMap",
        "numberOfBytes": "20"
      },
      "t_mapping(t_address,t_bool)": {
        "encoding": "mapping",
        "key": "t_address",
        "label": "mapping(address => bool)",
        "numberOfBytes": "32",
        "value": "t_bool"
      },
      "t_mapping(t_bytes32,t_struct(AddressSet)2712_storage)": {
        "encoding": "mapping",
        "key": "t_bytes32",
        "label": "mapping(bytes32 => struct EnumerableSetUpgradeable.AddressSet)",
        "numberOfBytes": "32",
        "value": "t_struct(AddressSet)2712_storage"
      },
      "t_mapping(t_bytes32,t_struct(RoleData)179_storage)": {
        "encoding": "mapping",
        "key": "t_bytes32",
        "label": "mapping(bytes32 => struct AccessControlUpgradeable.RoleData)",
        "numberOfBytes": "32",
        "value": "t_struct(RoleData)179_storage"
      },
      "t_mapping(t_bytes32,t_uint256)": {
        "encoding": "mapping",
        "key": "t_bytes32",
        "label": "mapping(bytes32 => uint256)",
        "numberOfBytes": "32",
        "value": "t_uint256"
      },
      "t_struct(AddressSet)2712_storage": {
        "encoding": "inplace",
        "label": "struct EnumerableSetUpgradeable.AddressSet",
        "members": [
          {
            "astId": 2711,
            "contract": "contracts/core/Kernel.sol:Kernel",
            "label": "_inner",
            "offset": 0,
            "slot": "0",
            "type": "t_struct(Set)2411_storage"
          }
        ],
        "numberOfBytes": "64"
      },
      "t_struct(RoleData)179_storage": {
        "encoding": "inplace",
        "label": "struct AccessControlUpgradeable.RoleData",
        "members": [
          {
            "astId": 176,
            "contract": "contracts/core/Kernel.sol:Kernel",
            "label": "members",
            "offset": 0,
            "slot": "0",
            "type": "t_mapping(t_address,t_bool)"
          },
          {
            "astId": 178,
            "contract": "contracts/core/Kernel.sol:Kernel",
            "label": "adminRole",
            "offset": 0,
            "slot": "1",
            "type": "t_bytes32"
          }
        ],
        "numberOfBytes": "64"
      },
      "t_struct(Set)2411_storage": {
        "encoding": "inplace",
        "label": "struct EnumerableSetUpgradeable.Set",
        "members": [
          {
            "astId": 2406,
            "contract": "contracts/core/Kernel.sol:Kernel",
            "label": "_values",
            "offset": 0,
            "slot": "0",
            "type": "t_array(t_bytes32)dyn_storage"
          },
          {
            "astId": 2410,
            "contract": "contracts/core/Kernel.sol:Kernel",
            "label": "_indexes",
            "offset": 0,
            "slot": "1",
            "type": "t_mapping(t_bytes32,t_uint256)"
          }
        ],
        "numberOfBytes": "64"
      },
      "t_uint256": {
        "encoding": "inplace",
        "label": "uint256",
        "numberOfBytes": "32"
      }
    }
  }
}