{
  "address": "0xbc3A830287B16203cF554898847158beC0d7f126",
  "abi": [
    {
      "anonymous": false,
      "inputs": [
        {
          "indexed": true,
          "internalType": "address",
          "name": "tokenA",
          "type": "address"
        },
        {
          "indexed": true,
          "internalType": "address",
          "name": "tokenB",
          "type": "address"
        },
        {
          "indexed": false,
          "internalType": "uint32",
          "name": "poolID",
          "type": "uint32"
        }
      ],
      "name": "CreatePool",
      "type": "event"
    },
    {
      "anonymous": false,
      "inputs": [
        {
          "indexed": false,
          "internalType": "address",
          "name": "token",
          "type": "address"
        },
        {
          "indexed": false,
          "internalType": "uint256",
          "name": "amount",
          "type": "uint256"
        },
        {
          "indexed": false,
          "internalType": "uint32",
          "name": "poolID",
          "type": "uint32"
        }
      ],
      "name": "Deposit",
      "type": "event"
    },
    {
      "anonymous": false,
      "inputs": [
        {
          "indexed": false,
          "internalType": "uint256",
          "name": "poolId",
          "type": "uint256"
        },
        {
          "indexed": false,
          "internalType": "uint256",
          "name": "amount",
          "type": "uint256"
        }
      ],
      "name": "DepositToPool",
      "type": "event"
    },
    {
      "anonymous": false,
      "inputs": [
        {
          "indexed": true,
          "internalType": "uint32",
          "name": "poolID",
          "type": "uint32"
        }
      ],
      "name": "HarvestYieldError",
      "type": "event"
    },
    {
      "anonymous": false,
      "inputs": [
        {
          "indexed": false,
          "internalType": "uint256",
          "name": "amount",
          "type": "uint256"
        }
      ],
      "name": "LPTokensAcquired",
      "type": "event"
    },
    {
      "anonymous": false,
      "inputs": [
        {
          "indexed": false,
          "internalType": "uint256",
          "name": "poolId",
          "type": "uint256"
        },
        {
          "indexed": false,
          "internalType": "address",
          "name": "tokenSold",
          "type": "address"
        },
        {
          "indexed": false,
          "internalType": "uint256",
          "name": "amountSold",
          "type": "uint256"
        },
        {
          "indexed": false,
          "internalType": "address",
          "name": "tokenBought",
          "type": "address"
        },
        {
          "indexed": false,
          "internalType": "uint256",
          "name": "amountBought",
          "type": "uint256"
        }
      ],
      "name": "PoolRebalanced",
      "type": "event"
    },
    {
      "anonymous": false,
      "inputs": [
        {
          "indexed": false,
          "internalType": "uint256",
          "name": "amount",
          "type": "uint256"
        }
      ],
      "name": "TokensReceived",
      "type": "event"
    },
    {
      "anonymous": false,
      "inputs": [
        {
          "indexed": false,
          "internalType": "uint256",
          "name": "poolId",
          "type": "uint256"
        },
        {
          "indexed": false,
          "internalType": "uint256",
          "name": "amount",
          "type": "uint256"
        }
      ],
      "name": "WithdrawnFromPool",
      "type": "event"
    },
    {
      "anonymous": false,
      "inputs": [
        {
          "indexed": false,
          "internalType": "uint32",
          "name": "poolID",
          "type": "uint32"
        }
      ],
      "name": "YieldHarvested",
      "type": "event"
    },
    {
      "anonymous": false,
      "inputs": [
        {
          "indexed": false,
          "internalType": "uint256",
          "name": "amount",
          "type": "uint256"
        }
      ],
      "name": "YieldReceived",
      "type": "event"
    },
    {
      "inputs": [
        {
          "internalType": "address",
          "name": "controller",
          "type": "address"
        }
      ],
      "name": "addController",
      "outputs": [],
      "stateMutability": "nonpayable",
      "type": "function"
    },
    {
      "inputs": [
        {
          "internalType": "uint32",
          "name": "",
          "type": "uint32"
        },
        {
          "internalType": "address",
          "name": "",
          "type": "address"
        }
      ],
      "name": "balances",
      "outputs": [
        {
          "internalType": "uint256",
          "name": "",
          "type": "uint256"
        }
      ],
      "stateMutability": "view",
      "type": "function"
    },
    {
      "inputs": [],
      "name": "configureAllowance",
      "outputs": [],
      "stateMutability": "nonpayable",
      "type": "function"
    },
    {
      "inputs": [
        {
          "internalType": "uint32",
          "name": "poolId",
          "type": "uint32"
        },
        {
          "internalType": "address",
          "name": "gaugeAddress",
          "type": "address"
        }
      ],
      "name": "configureStaking",
      "outputs": [],
      "stateMutability": "nonpayable",
      "type": "function"
    },
    {
      "inputs": [
        {
          "internalType": "uint32",
          "name": "poolId",
          "type": "uint32"
        },
        {
          "internalType": "address",
          "name": "gaugeAddress",
          "type": "address"
        }
      ],
      "name": "configureStakingOverwrite",
      "outputs": [],
      "stateMutability": "nonpayable",
      "type": "function"
    },
    {
      "inputs": [
        {
          "internalType": "uint256",
          "name": "",
          "type": "uint256"
        }
      ],
      "name": "controllers",
      "outputs": [
        {
          "internalType": "address",
          "name": "",
          "type": "address"
        }
      ],
      "stateMutability": "view",
      "type": "function"
    },
    {
      "inputs": [
        {
          "internalType": "address",
          "name": "tokenA",
          "type": "address"
        },
        {
          "internalType": "address",
          "name": "tokenB",
          "type": "address"
        },
        {
          "internalType": "bool",
          "name": "stable",
          "type": "bool"
        }
      ],
      "name": "createPool",
      "outputs": [],
      "stateMutability": "nonpayable",
      "type": "function"
    },
    {
      "inputs": [
        {
          "internalType": "uint32",
          "name": "poolId",
          "type": "uint32"
        },
        {
          "internalType": "address",
          "name": "token",
          "type": "address"
        },
        {
          "internalType": "uint256",
          "name": "amount",
          "type": "uint256"
        }
      ],
      "name": "decrementBalance",
      "outputs": [],
      "stateMutability": "nonpayable",
      "type": "function"
    },
    {
      "inputs": [
        {
          "internalType": "uint32",
          "name": "poolId",
          "type": "uint32"
        }
      ],
      "name": "deploy",
      "outputs": [],
      "stateMutability": "nonpayable",
      "type": "function"
    },
    {
      "inputs": [
        {
          "internalType": "address",
          "name": "token",
          "type": "address"
        },
        {
          "internalType": "uint256",
          "name": "amount",
          "type": "uint256"
        },
        {
          "internalType": "uint32",
          "name": "poolId",
          "type": "uint32"
        }
      ],
      "name": "deposit",
      "outputs": [],
      "stateMutability": "nonpayable",
      "type": "function"
    },
    {
      "inputs": [
        {
          "internalType": "uint32",
          "name": "poolId",
          "type": "uint32"
        },
        {
          "internalType": "uint256",
          "name": "amount",
          "type": "uint256"
        }
      ],
      "name": "donate",
      "outputs": [],
      "stateMutability": "nonpayable",
      "type": "function"
    },
    {
      "inputs": [],
      "name": "getAllControllers",
      "outputs": [
        {
          "internalType": "address[]",
          "name": "currentControllers",
          "type": "address[]"
        }
      ],
      "stateMutability": "view",
      "type": "function"
    },
    {
      "inputs": [
        {
          "internalType": "uint32",
          "name": "poolId",
          "type": "uint32"
        },
        {
          "internalType": "address",
          "name": "token",
          "type": "address"
        }
      ],
      "name": "getBalance",
      "outputs": [
        {
          "internalType": "uint256",
          "name": "",
          "type": "uint256"
        }
      ],
      "stateMutability": "view",
      "type": "function"
    },
    {
      "inputs": [
        {
          "internalType": "uint32",
          "name": "poolId",
          "type": "uint32"
        }
      ],
      "name": "getPool",
      "outputs": [
        {
          "components": [
            {
              "internalType": "address",
              "name": "tokenA",
              "type": "address"
            },
            {
              "internalType": "address",
              "name": "tokenB",
              "type": "address"
            },
            {
              "internalType": "uint256",
              "name": "positionID",
              "type": "uint256"
            }
          ],
          "internalType": "struct IAMMIntegration.Pool",
          "name": "",
          "type": "tuple"
        }
      ],
      "stateMutability": "view",
      "type": "function"
    },
    {
      "inputs": [
        {
          "internalType": "uint32[]",
          "name": "pids",
          "type": "uint32[]"
        }
      ],
      "name": "getYieldBalances",
      "outputs": [
        {
          "internalType": "uint256[]",
          "name": "amounts",
          "type": "uint256[]"
        }
      ],
      "stateMutability": "view",
      "type": "function"
    },
    {
      "inputs": [],
      "name": "harvestYield",
      "outputs": [],
      "stateMutability": "nonpayable",
      "type": "function"
    },
    {
      "inputs": [
        {
          "internalType": "uint32",
          "name": "poolId",
          "type": "uint32"
        }
      ],
      "name": "harvestYieldByPool",
      "outputs": [],
      "stateMutability": "nonpayable",
      "type": "function"
    },
    {
      "inputs": [
        {
          "internalType": "uint32[]",
          "name": "poolIds",
          "type": "uint32[]"
        }
      ],
      "name": "harvestYieldByPools",
      "outputs": [],
      "stateMutability": "nonpayable",
      "type": "function"
    },
    {
      "inputs": [
        {
          "internalType": "uint32",
          "name": "",
          "type": "uint32"
        }
      ],
      "name": "harvestedYield",
      "outputs": [
        {
          "internalType": "uint256",
          "name": "",
          "type": "uint256"
        }
      ],
      "stateMutability": "view",
      "type": "function"
    },
    {
      "inputs": [
        {
          "internalType": "uint32",
          "name": "poolId",
          "type": "uint32"
        },
        {
          "internalType": "address",
          "name": "token",
          "type": "address"
        },
        {
          "internalType": "uint256",
          "name": "amount",
          "type": "uint256"
        }
      ],
      "name": "incrementBalance",
      "outputs": [],
      "stateMutability": "nonpayable",
      "type": "function"
    },
    {
      "inputs": [
        {
          "internalType": "address[]",
          "name": "controllers_",
          "type": "address[]"
        },
        {
          "internalType": "address",
          "name": "moduleMap_",
          "type": "address"
        },
        {
          "internalType": "address",
          "name": "factoryAddress_",
          "type": "address"
        },
        {
          "internalType": "address",
          "name": "swapRouterAddress_",
          "type": "address"
        },
        {
          "internalType": "uint24",
          "name": "slippageNumerator_",
          "type": "uint24"
        }
      ],
      "name": "initialize",
      "outputs": [],
      "stateMutability": "nonpayable",
      "type": "function"
    },
    {
      "inputs": [
        {
          "internalType": "address",
          "name": "controller",
          "type": "address"
        }
      ],
      "name": "isController",
      "outputs": [
        {
          "internalType": "bool",
          "name": "status",
          "type": "bool"
        }
      ],
      "stateMutability": "view",
      "type": "function"
    },
    {
      "inputs": [
        {
          "internalType": "uint32",
          "name": "poolId",
          "type": "uint32"
        }
      ],
      "name": "manualDeploy",
      "outputs": [],
      "stateMutability": "nonpayable",
      "type": "function"
    },
    {
      "inputs": [
        {
          "internalType": "address",
          "name": "token",
          "type": "address"
        },
        {
          "internalType": "uint256",
          "name": "amount",
          "type": "uint256"
        },
        {
          "internalType": "uint32",
          "name": "poolId",
          "type": "uint32"
        },
        {
          "internalType": "uint256",
          "name": "ratioX1000",
          "type": "uint256"
        }
      ],
      "name": "manualWithdraw",
      "outputs": [
        {
          "internalType": "uint256",
          "name": "amountToWithdraw",
          "type": "uint256"
        }
      ],
      "stateMutability": "nonpayable",
      "type": "function"
    },
    {
      "inputs": [],
      "name": "moduleMap",
      "outputs": [
        {
          "internalType": "contract IModuleMap",
          "name": "",
          "type": "address"
        }
      ],
      "stateMutability": "view",
      "type": "function"
    },
    {
      "inputs": [],
      "name": "poolCount",
      "outputs": [
        {
          "internalType": "uint32",
          "name": "",
          "type": "uint32"
        }
      ],
      "stateMutability": "view",
      "type": "function"
    },
    {
      "inputs": [
        {
          "internalType": "uint32",
          "name": "",
          "type": "uint32"
        }
      ],
      "name": "pools",
      "outputs": [
        {
          "internalType": "address",
          "name": "tokenA",
          "type": "address"
        },
        {
          "internalType": "address",
          "name": "tokenB",
          "type": "address"
        },
        {
          "internalType": "uint256",
          "name": "positionID",
          "type": "uint256"
        }
      ],
      "stateMutability": "view",
      "type": "function"
    },
    {
      "inputs": [
        {
          "internalType": "uint32",
          "name": "poolId",
          "type": "uint32"
        },
        {
          "internalType": "uint256",
          "name": "ratioX1000",
          "type": "uint256"
        },
        {
          "internalType": "uint256",
          "name": "maxSellTokenA",
          "type": "uint256"
        },
        {
          "internalType": "uint256",
          "name": "maxSellTokenB",
          "type": "uint256"
        }
      ],
      "name": "rebalancePool",
      "outputs": [],
      "stateMutability": "nonpayable",
      "type": "function"
    },
    {
      "inputs": [],
      "name": "rewardToken",
      "outputs": [
        {
          "internalType": "address",
          "name": "",
          "type": "address"
        }
      ],
      "stateMutability": "view",
      "type": "function"
    },
    {
      "inputs": [
        {
          "internalType": "uint24",
          "name": "slippageNumerator_",
          "type": "uint24"
        }
      ],
      "name": "setSlippage",
      "outputs": [],
      "stateMutability": "nonpayable",
      "type": "function"
    },
    {
      "inputs": [],
      "name": "slippageNumerator",
      "outputs": [
        {
          "internalType": "uint24",
          "name": "",
          "type": "uint24"
        }
      ],
      "stateMutability": "view",
      "type": "function"
    },
    {
      "inputs": [
        {
          "internalType": "uint32",
          "name": "",
          "type": "uint32"
        }
      ],
      "name": "stablePools",
      "outputs": [
        {
          "internalType": "bool",
          "name": "",
          "type": "bool"
        }
      ],
      "stateMutability": "view",
      "type": "function"
    },
    {
      "inputs": [
        {
          "internalType": "uint32",
          "name": "poolId",
          "type": "uint32"
        }
      ],
      "name": "stakeLPTokens",
      "outputs": [],
      "stateMutability": "nonpayable",
      "type": "function"
    },
    {
      "inputs": [
        {
          "internalType": "address",
          "name": "token",
          "type": "address"
        },
        {
          "internalType": "uint256",
          "name": "amount",
          "type": "uint256"
        },
        {
          "internalType": "uint32",
          "name": "poolId",
          "type": "uint32"
        }
      ],
      "name": "withdraw",
      "outputs": [],
      "stateMutability": "nonpayable",
      "type": "function"
    },
    {
      "inputs": [
        {
          "internalType": "address",
          "name": "token",
          "type": "address"
        },
        {
          "internalType": "uint256",
          "name": "amount",
          "type": "uint256"
        },
        {
          "internalType": "uint32",
          "name": "poolId",
          "type": "uint32"
        },
        {
          "internalType": "uint256",
          "name": "ratioX1000",
          "type": "uint256"
        }
      ],
      "name": "withdraw",
      "outputs": [],
      "stateMutability": "nonpayable",
      "type": "function"
    },
    {
      "inputs": [
        {
          "internalType": "uint32",
          "name": "",
          "type": "uint32"
        }
      ],
      "name": "yieldBalances",
      "outputs": [
        {
          "internalType": "uint256",
          "name": "",
          "type": "uint256"
        }
      ],
      "stateMutability": "view",
      "type": "function"
    }
  ],
  "transactionHash": "0xb53421b1318958a8838f91d9497961a4cd0ac06ce9d0ff5e120c307978691690",
  "args": [],
  "solcInputHash": "bae0d42316781cd9ddd577ae93223874",
  "bytecode": "0x608060405234801561001057600080fd5b50615bcf80620000216000396000f3fe608060405234801561001057600080fd5b50600436106101ac5760003560e01c80630c3fa05f146101b15780630f0a1c6f146101c6578063147bd3af146101f55780631a09e7761461021f57806320acc1be1461024d578063257b318514610260578063337993cb1461027357806336bf95a0146102885780635441c2b61461029b57806357efda03146102d957806358a0f0491461030457806359cf86da146103245780635a1fcc3a146103375780635ce564f41461034a5780635f53bc431461035d578063704ae286146103705780637334efac14610378578063754a02741461038b5780637db2ddfe1461039e57806390428160146103b1578063950e9261146103c45780639da46ee3146103d7578063a7fc7a0714610474578063a816800c14610487578063ac211b951461049a578063addf32d2146104ad578063b1cccca2146104c0578063b429afeb146104d3578063ced08b2d1461050f578063cf73715a1461055a578063e809529e1461056d578063e8d991d11461058d578063e94b0dd214610595578063f525cb68146105a8578063f7c618c1146105d4578063f9467a32146105e9575b600080fd5b6101c46101bf3660046154d9565b61060c565b005b6000546101df906201000090046001600160a01b031681565b6040516101ec9190615631565b60405180910390f35b60055461020b90600160c01b900462ffffff1681565b60405162ffffff90911681526020016101ec565b61023f61022d3660046154d9565b600a6020526000908152604090205481565b6040519081526020016101ec565b6101c461025b36600461543f565b6107a4565b6101c461026e36600461520f565b6108e4565b61027b610b51565b6040516101ec91906156c0565b6101c4610296366004615148565b610bb3565b61023f6102a93660046154f5565b63ffffffff821660009081526006602090815260408083206001600160a01b038516845290915290205492915050565b61023f6102e73660046154f5565b600660209081526000928352604080842090915290825290205481565b610317610312366004615379565b610df5565b6040516101ec91906156d3565b6101c461033236600461552d565b610eea565b6101c46103453660046154f5565b611049565b6101c46103583660046154d9565b611175565b6101c461036b36600461552d565b6111a7565b6101c46112fc565b6101c461038636600461556d565b611511565b61023f6103993660046151c8565b611808565b6101c46103ac366004615192565b61193c565b6101c46103bf3660046154f5565b611a91565b6101c46103d2366004615379565b611bb9565b6104446103e53660046154d9565b60408051606080820183526000808352602080840182905292840181905263ffffffff94909416845260078252928290208251938401835280546001600160a01b03908116855260018201541691840191909152600201549082015290565b6040805182516001600160a01b0390811682526020808501519091169082015291810151908201526060016101ec565b6101c4610482366004615110565b611d37565b6101c46104953660046151c8565b611f73565b6101c46104a8366004615598565b612108565b6101c46104bb3660046154d9565b6124cf565b6101c46104ce366004615192565b6125f7565b6104ff6104e1366004615110565b6001600160a01b031660009081526001602052604090205460ff1690565b60405190151581526020016101ec565b61054b61051d3660046154d9565b6007602052600090815260409020805460018201546002909201546001600160a01b03918216929091169083565b6040516101ec9392919061565f565b6101c46105683660046154d9565b61265f565b61023f61057b3660046154d9565b60096020526000908152604090205481565b6101c4612784565b6101df6105a3366004615459565b61291e565b6005546105bf90600160a01b900463ffffffff1681565b60405163ffffffff90911681526020016101ec565b6101df600080516020615b7a83398151915281565b6104ff6105f73660046154d9565b60086020526000908152604090205460ff1681565b600080546040516337c61fc560e11b8152620100009091046001600160a01b031691636f8c3f8a916106419190600401615717565b60206040518083038186803b15801561065957600080fd5b505afa15801561066d573d6000803e3d6000fd5b505050506040513d601f19601f82011682018060405250810190610691919061512c565b6001600160a01b031663f3ae2415336040518263ffffffff1660e01b81526004016106bc9190615631565b60206040518083038186803b1580156106d457600080fd5b505afa1580156106e8573d6000803e3d6000fd5b505050506040513d601f19601f8201168201806040525081019061070c91906153e8565b6107315760405162461bcd60e51b815260040161072890615831565b60405180910390fd5b63ffffffff81166000908152600b602052604080822054905163c6f678bd60e01b815260048101929092526001600160a01b03169063c6f678bd90602401600060405180830381600087803b15801561078957600080fd5b505af115801561079d573d6000803e3d6000fd5b5050505050565b600080546040516337c61fc560e11b8152620100009091046001600160a01b031691636f8c3f8a916107d99190600401615717565b60206040518083038186803b1580156107f157600080fd5b505afa158015610805573d6000803e3d6000fd5b505050506040513d601f19601f82011682018060405250810190610829919061512c565b6001600160a01b031663f3ae2415336040518263ffffffff1660e01b81526004016108549190615631565b60206040518083038186803b15801561086c57600080fd5b505afa158015610880573d6000803e3d6000fd5b505050506040513d601f19601f820116820180604052508101906108a491906153e8565b6108c05760405162461bcd60e51b815260040161072890615831565b6005805462ffffff909216600160c01b0262ffffff60c01b19909216919091179055565b600054610100900460ff166108ff5760005460ff1615610907565b610907612948565b61096a5760405162461bcd60e51b815260206004820152602e60248201527f496e697469616c697a61626c653a20636f6e747261637420697320616c72656160448201526d191e481a5b9a5d1a585b1a5e995960921b6064820152608401610728565b600054610100900460ff1615801561098c576000805461ffff19166101011790555b6001600160a01b0384166109b25760405162461bcd60e51b81526004016107289061579f565b6001600160a01b0383166109d85760405162461bcd60e51b81526004016107289061579f565b6109e28686612959565b600380546001600160a01b03199081166001600160a01b03878116919091178355600480549092168682161782556005805462ffffff60c01b1916600160c01b62ffffff8816021790556000546040516337c61fc560e11b81526201000090910490911692636f8c3f8a92610a579201615717565b60206040518083038186803b158015610a6f57600080fd5b505afa158015610a83573d6000803e3d6000fd5b505050506040513d601f19601f82011682018060405250810190610aa7919061512c565b6001600160a01b0316638b9c94896040518163ffffffff1660e01b815260040160206040518083038186803b158015610adf57600080fd5b505afa158015610af3573d6000803e3d6000fd5b505050506040513d601f19601f82011682018060405250810190610b17919061512c565b600580546001600160a01b0319166001600160a01b03929092169190911790558015610b49576000805461ff00191690555b505050505050565b60606002805480602002602001604051908101604052809291908181526020018280548015610ba957602002820191906000526020600020905b81546001600160a01b03168152600190910190602001808311610b8b575b5050505050905090565b600080546040516337c61fc560e11b8152620100009091046001600160a01b031691636f8c3f8a91610be89190600401615717565b60206040518083038186803b158015610c0057600080fd5b505afa158015610c14573d6000803e3d6000fd5b505050506040513d601f19601f82011682018060405250810190610c38919061512c565b6001600160a01b031663f3ae2415336040518263ffffffff1660e01b8152600401610c639190615631565b60206040518083038186803b158015610c7b57600080fd5b505afa158015610c8f573d6000803e3d6000fd5b505050506040513d601f19601f82011682018060405250810190610cb391906153e8565b610ccf5760405162461bcd60e51b815260040161072890615831565b60058054600160a01b900463ffffffff16906014610cec83615af4565b82546101009290920a63ffffffff818102199093169183160217909155600554600160a01b9004169050600080610d238686612aae565b63ffffffff8516600081815260086020908152604080832080548b151560ff1990911617905580516060810182526001600160a01b038088168252808716828501908152828401868152968652600790945291909320925183549082166001600160a01b0319918216178455915160018401805491831691909316179091559151600290910155600454929450909250610dbf91849116612b83565b600454610dd69082906001600160a01b0316612b83565b610b49610de4838387612c1d565b6004546001600160a01b0316612b83565b6060816001600160401b03811115610e1d57634e487b7160e01b600052604160045260246000fd5b604051908082528060200260200182016040528015610e46578160200160208202803683370190505b50905060005b82811015610ee35760096000858584818110610e7857634e487b7160e01b600052603260045260246000fd5b9050602002016020810190610e8d91906154d9565b63ffffffff1663ffffffff16815260200190815260200160002054828281518110610ec857634e487b7160e01b600052603260045260246000fd5b6020908102919091010152610edc81615ad9565b9050610e4c565b5092915050565b600080546040516337c61fc560e11b8152620100009091046001600160a01b031691636f8c3f8a91610f1f9190600401615717565b60206040518083038186803b158015610f3757600080fd5b505afa158015610f4b573d6000803e3d6000fd5b505050506040513d601f19601f82011682018060405250810190610f6f919061512c565b6001600160a01b031663f3ae2415336040518263ffffffff1660e01b8152600401610f9a9190615631565b60206040518083038186803b158015610fb257600080fd5b505afa158015610fc6573d6000803e3d6000fd5b505050506040513d601f19601f82011682018060405250810190610fea91906153e8565b6110065760405162461bcd60e51b815260040161072890615831565b63ffffffff831660009081526006602090815260408083206001600160a01b03861684529091528120805483929061103f908490615a1b565b9091555050505050565b600080546040516337c61fc560e11b8152620100009091046001600160a01b031691636f8c3f8a9161107e9190600401615717565b60206040518083038186803b15801561109657600080fd5b505afa1580156110aa573d6000803e3d6000fd5b505050506040513d601f19601f820116820180604052508101906110ce919061512c565b6001600160a01b031663f3ae2415336040518263ffffffff1660e01b81526004016110f99190615631565b60206040518083038186803b15801561111157600080fd5b505afa158015611125573d6000803e3d6000fd5b505050506040513d601f19601f8201168201806040525081019061114991906153e8565b6111655760405162461bcd60e51b815260040161072890615831565b61117182826000612cb3565b5050565b3360009081526001602052604090205460ff166111a45760405162461bcd60e51b81526004016107289061587f565b50565b600080546040516337c61fc560e11b8152620100009091046001600160a01b031691636f8c3f8a916111dc9190600401615717565b60206040518083038186803b1580156111f457600080fd5b505afa158015611208573d6000803e3d6000fd5b505050506040513d601f19601f8201168201806040525081019061122c919061512c565b6001600160a01b031663f3ae2415336040518263ffffffff1660e01b81526004016112579190615631565b60206040518083038186803b15801561126f57600080fd5b505afa158015611283573d6000803e3d6000fd5b505050506040513d601f19601f820116820180604052508101906112a791906153e8565b6112c35760405162461bcd60e51b815260040161072890615831565b63ffffffff831660009081526006602090815260408083206001600160a01b03861684529091528120805483929061103f908490615a96565b600080546040516337c61fc560e11b8152620100009091046001600160a01b031691636f8c3f8a916113319190600401615717565b60206040518083038186803b15801561134957600080fd5b505afa15801561135d573d6000803e3d6000fd5b505050506040513d601f19601f82011682018060405250810190611381919061512c565b6001600160a01b031663f3ae2415336040518263ffffffff1660e01b81526004016113ac9190615631565b60206040518083038186803b1580156113c457600080fd5b505afa1580156113d8573d6000803e3d6000fd5b505050506040513d601f19601f820116820180604052508101906113fc91906153e8565b6114185760405162461bcd60e51b815260040161072890615831565b60045461143d90600080516020615b7a833981519152906001600160a01b0316612b83565b60015b60055463ffffffff600160a01b9091048116908216116111a45763ffffffff8116600090815260076020908152604091829020825160608101845281546001600160a01b039081168083526001840154821694830194909452600290920154938101939093526004546114b4929116612b83565b60208101516004546114cf91906001600160a01b0316612b83565b805160208083015163ffffffff85166000908152600890925260409091205461150092610de492909160ff16612c1d565b5061150a81615af4565b9050611440565b63ffffffff821660009081526009602052604081208054839290611536908490615a1b565b9091555050600080546040516337c61fc560e11b8152620100009091046001600160a01b031690636f8c3f8a9061157290600390600401615717565b60206040518083038186803b15801561158a57600080fd5b505afa15801561159e573d6000803e3d6000fd5b505050506040513d601f19601f820116820180604052508101906115c2919061512c565b6001600160a01b0316638b9c94896040518163ffffffff1660e01b815260040160206040518083038186803b1580156115fa57600080fd5b505afa15801561160e573d6000803e3d6000fd5b505050506040513d601f19601f82011682018060405250810190611632919061512c565b90506000816001600160a01b03166370a08231306040518263ffffffff1660e01b81526004016116629190615631565b60206040518083038186803b15801561167a57600080fd5b505afa15801561168e573d6000803e3d6000fd5b505050506040513d601f19601f820116820180604052508101906116b29190615471565b6040516323b872dd60e01b81529091506001600160a01b038316906323b872dd906116e59033903090889060040161565f565b602060405180830381600087803b1580156116ff57600080fd5b505af1158015611713573d6000803e3d6000fd5b505050506040513d601f19601f8201168201806040525081019061173791906153e8565b50600081836001600160a01b03166370a08231306040518263ffffffff1660e01b81526004016117679190615631565b60206040518083038186803b15801561177f57600080fd5b505afa158015611793573d6000803e3d6000fd5b505050506040513d601f19601f820116820180604052508101906117b79190615471565b6117c19190615a96565b905083811461079d5760405162461bcd60e51b815260206004820152601360248201527218985908185b5bdd5b9d081c9958d95a5d9959606a1b6044820152606401610728565b600080546040516337c61fc560e11b8152620100009091046001600160a01b031690636f8c3f8a9061183e908490600401615717565b60206040518083038186803b15801561185657600080fd5b505afa15801561186a573d6000803e3d6000fd5b505050506040513d601f19601f8201168201806040525081019061188e919061512c565b6001600160a01b031663f3ae2415336040518263ffffffff1660e01b81526004016118b99190615631565b60206040518083038186803b1580156118d157600080fd5b505afa1580156118e5573d6000803e3d6000fd5b505050506040513d601f19601f8201168201806040525081019061190991906153e8565b6119255760405162461bcd60e51b815260040161072890615831565b611933858585856000612f7a565b95945050505050565b3360009081526001602052604090205460ff1661196b5760405162461bcd60e51b81526004016107289061587f565b63ffffffff811660009081526006602090815260408083206001600160a01b03871684529091529020548211156119b45760405162461bcd60e51b8152600401610728906157f0565b63ffffffff811660009081526006602090815260408083206001600160a01b0387168452909152812080548492906119ed908490615a96565b9091555050600080546040516337c61fc560e11b8152611a8c92620100009092046001600160a01b031691636f8c3f8a91611a2b9190600401615717565b60206040518083038186803b158015611a4357600080fd5b505afa158015611a57573d6000803e3d6000fd5b505050506040513d601f19601f82011682018060405250810190611a7b919061512c565b6001600160a01b03851690846137a5565b505050565b600080546040516337c61fc560e11b8152620100009091046001600160a01b031691636f8c3f8a91611ac69190600401615717565b60206040518083038186803b158015611ade57600080fd5b505afa158015611af2573d6000803e3d6000fd5b505050506040513d601f19601f82011682018060405250810190611b16919061512c565b6001600160a01b031663f3ae2415336040518263ffffffff1660e01b8152600401611b419190615631565b60206040518083038186803b158015611b5957600080fd5b505afa158015611b6d573d6000803e3d6000fd5b505050506040513d601f19601f82011682018060405250810190611b9191906153e8565b611bad5760405162461bcd60e51b815260040161072890615831565b61117182826001612cb3565b600080546040516337c61fc560e11b8152620100009091046001600160a01b031691636f8c3f8a91611bee9190600401615717565b60206040518083038186803b158015611c0657600080fd5b505afa158015611c1a573d6000803e3d6000fd5b505050506040513d601f19601f82011682018060405250810190611c3e919061512c565b6001600160a01b031663f3ae2415336040518263ffffffff1660e01b8152600401611c699190615631565b60206040518083038186803b158015611c8157600080fd5b505afa158015611c95573d6000803e3d6000fd5b505050506040513d601f19601f82011682018060405250810190611cb991906153e8565b611cd55760405162461bcd60e51b815260040161072890615831565b8060005b81811015611d3157611d21848483818110611d0457634e487b7160e01b600052603260045260246000fd5b9050602002016020810190611d1991906154d9565b6001806137fb565b611d2a81615ad9565b9050611cd9565b50505050565b600080546040516337c61fc560e11b8152620100009091046001600160a01b031691636f8c3f8a91611d6c9190600401615717565b60206040518083038186803b158015611d8457600080fd5b505afa158015611d98573d6000803e3d6000fd5b505050506040513d601f19601f82011682018060405250810190611dbc919061512c565b6001600160a01b0316632f54bf6e336040518263ffffffff1660e01b8152600401611de79190615631565b60206040518083038186803b158015611dff57600080fd5b505afa158015611e13573d6000803e3d6000fd5b505050506040513d601f19601f82011682018060405250810190611e3791906153e8565b611e965760405162461bcd60e51b815260206004820152602a60248201527f436f6e74726f6c6c65643a3a6f6e6c794f776e65723a2043616c6c6572206973604482015269103737ba1037bbb732b960b11b6064820152608401610728565b6001600160a01b03811660009081526001602081905260408220805460ff19169091179055805b600254811015611f1c5760028181548110611ee857634e487b7160e01b600052603260045260246000fd5b6000918252602090912001546001600160a01b0384811691161415611f0c57600191505b611f1581615ad9565b9050611ebd565b508061117157600280546001810182556000919091527f405787fa12a823e0f2b7631cc41b3ba8828b3321ca811111fa75cd3aa3bb5ace0180546001600160a01b0384166001600160a01b03199091161790555050565b3360009081526001602052604090205460ff16611fa25760405162461bcd60e51b81526004016107289061587f565b63ffffffff821660009081526006602090815260408083206001600160a01b038816845290915290205483116120af5763ffffffff821660009081526006602090815260408083206001600160a01b03881684529091528120805485929061200b908490615a96565b9091555050600080546040516337c61fc560e11b81526120aa92620100009092046001600160a01b031691636f8c3f8a916120499190600401615717565b60206040518083038186803b15801561206157600080fd5b505afa158015612075573d6000803e3d6000fd5b505050506040513d601f19601f82011682018060405250810190612099919061512c565b6001600160a01b03861690856137a5565b6120bf565b6120bd848484846001612f7a565b505b63ffffffff821660009081526006602090815260408083206001600160a01b0388168452909152902054831115611d315760405162461bcd60e51b8152600401610728906157f0565b600080546040516337c61fc560e11b8152620100009091046001600160a01b031691636f8c3f8a9161213d9190600401615717565b60206040518083038186803b15801561215557600080fd5b505afa158015612169573d6000803e3d6000fd5b505050506040513d601f19601f8201168201806040525081019061218d919061512c565b6001600160a01b031663f3ae2415336040518263ffffffff1660e01b81526004016121b89190615631565b60206040518083038186803b1580156121d057600080fd5b505afa1580156121e4573d6000803e3d6000fd5b505050506040513d601f19601f8201168201806040525081019061220891906153e8565b6122245760405162461bcd60e51b815260040161072890615831565b63ffffffff84166000818152600760208181526040808420815160608101835281546001600160a01b03908116808352600184015490911682860152600290920154818401529585526008835293205491905260ff16906122975760405162461bcd60e51b8152600401610728906157c4565b6122ab82600001518360200151838861386c565b63ffffffff8616600081815260066020818152604080842087516001600160a01b03908116865281845282862054968652938352828801519093168452919052812054909182916122fe91869186613899565b915091506000806123128487858b8b61391f565b9150915060006123b5858330866123af61232d8b898e612c1d565b6001600160a01b031663517b3f828c8b6040518363ffffffff1660e01b815260040161235a9291906156a7565b60206040518083038186803b15801561237257600080fd5b505afa158015612386573d6000803e3d6000fd5b505050506040513d601f19601f820116820180604052508101906123aa9190615471565b61397b565b8b6139bb565b6001815181106123d557634e487b7160e01b600052603260045260246000fd5b6020026020010151905060008111156124c25763ffffffff8b1660009081526006602090815260408083206001600160a01b038916845290915281208054859290612421908490615a96565b909155505063ffffffff8b1660009081526006602090815260408083206001600160a01b03861684529091528120805483929061245f908490615a1b565b90915550506040805163ffffffff8d1681526001600160a01b038781166020830152818301869052841660608201526080810183905290517f3318ce2371d9cd19d64b4ca999bd8bdcfcf18e4ec416d7dc611b729b2e59c5009181900360a00190a15b5050505050505050505050565b600080546040516337c61fc560e11b8152620100009091046001600160a01b031691636f8c3f8a916125049190600401615717565b60206040518083038186803b15801561251c57600080fd5b505afa158015612530573d6000803e3d6000fd5b505050506040513d601f19601f82011682018060405250810190612554919061512c565b6001600160a01b031663f3ae2415336040518263ffffffff1660e01b815260040161257f9190615631565b60206040518083038186803b15801561259757600080fd5b505afa1580156125ab573d6000803e3d6000fd5b505050506040513d601f19601f820116820180604052508101906125cf91906153e8565b6125eb5760405162461bcd60e51b815260040161072890615831565b6111a4816001806137fb565b3360009081526001602052604090205460ff166126265760405162461bcd60e51b81526004016107289061587f565b63ffffffff811660009081526006602090815260408083206001600160a01b03871684529091528120805484929061103f908490615a1b565b600080546040516337c61fc560e11b8152620100009091046001600160a01b031691636f8c3f8a916126949190600401615717565b60206040518083038186803b1580156126ac57600080fd5b505afa1580156126c0573d6000803e3d6000fd5b505050506040513d601f19601f820116820180604052508101906126e4919061512c565b6001600160a01b031663f3ae2415336040518263ffffffff1660e01b815260040161270f9190615631565b60206040518083038186803b15801561272757600080fd5b505afa15801561273b573d6000803e3d6000fd5b505050506040513d601f19601f8201168201806040525081019061275f91906153e8565b61277b5760405162461bcd60e51b815260040161072890615831565b6111a481613a03565b3360009081526001602052604090205460ff166127b35760405162461bcd60e51b81526004016107289061587f565b6000805b60055463ffffffff600160a01b9091048116908216116128455763ffffffff81166000908152600960205260409020548015612834576127f78184615a1b565b63ffffffff83166000908152600960209081526040808320839055600a90915281208054929550859290919061282e908490615a1b565b90915550505b5061283e81615af4565b90506127b7565b5080156111a4576000546040516337c61fc560e11b81526128e8916201000090046001600160a01b031690636f8c3f8a9061288590600290600401615717565b60206040518083038186803b15801561289d57600080fd5b505afa1580156128b1573d6000803e3d6000fd5b505050506040513d601f19601f820116820180604052508101906128d5919061512c565b6005546001600160a01b031690836137a5565b6040518181527fd0e841f234010ad7f57b7c09faffb2245cd240429c6e8fa3cd934a0a8bf58eb09060200160405180910390a150565b6002818154811061292e57600080fd5b6000918252602090912001546001600160a01b0316905081565b600061295330613d29565b15905090565b600054610100900460ff166129805760405162461bcd60e51b8152600401610728906158d3565b6001600160a01b0381166129a65760405162461bcd60e51b81526004016107289061579f565b60005b8251811015612a1c5760006001600160a01b03168382815181106129dd57634e487b7160e01b600052603260045260246000fd5b60200260200101516001600160a01b03161415612a0c5760405162461bcd60e51b81526004016107289061579f565b612a1581615ad9565b90506129a9565b5060005b8251811015612a90576001806000858481518110612a4e57634e487b7160e01b600052603260045260246000fd5b6020908102919091018101516001600160a01b03168252810191909152604001600020805460ff1916911515919091179055612a8981615ad9565b9050612a20565b508151612aa490600290602085019061505c565b5061117181613d38565b600080826001600160a01b0316846001600160a01b03161415612b0f5760405162461bcd60e51b81526020600482015260196024820152784964656e746963616c20746f6b656e2061646472657373657360381b6044820152606401610728565b826001600160a01b0316846001600160a01b031610612b2f578284612b32565b83835b90925090506001600160a01b038216612b7c5760405162461bcd60e51b815260206004820152600c60248201526b5a65726f206164647265737360a01b6044820152606401610728565b9250929050565b604051636eb1769f60e11b815282906001600160a01b0382169063dd62ed3e90612bb39030908690600401615645565b60206040518083038186803b158015612bcb57600080fd5b505afa158015612bdf573d6000803e3d6000fd5b505050506040513d601f19601f82011682018060405250810190612c039190615471565b611a8c57611a8c6001600160a01b03821683600019613d89565b6003546040516306801cc360e41b81526001600160a01b038581166004830152848116602483015283151560448301526000921690636801cc309060640160206040518083038186803b158015612c7357600080fd5b505afa158015612c87573d6000803e3d6000fd5b505050506040513d601f19601f82011682018060405250810190612cab919061512c565b949350505050565b63ffffffff8316600090815260076020908152604091829020825160608101845281546001600160a01b0390811680835260018401549091169382019390935260029091015492810192909252612d1c5760405162461bcd60e51b8152600401610728906157c4565b600182151514612d8f5763ffffffff84166000908152600b60205260409020546001600160a01b031615612d8f5760405162461bcd60e51b815260206004820152601a60248201527914dd185ada5b99c8185b1c9958591e4818dbdb999a59dd5c995960321b6044820152606401610728565b805160208083015163ffffffff87166000908152600890925260408220549192612dbe9290919060ff16612c1d565b90506000849050816001600160a01b0316816001600160a01b0316633a4b66f16040518163ffffffff1660e01b815260040160206040518083038186803b158015612e0857600080fd5b505afa158015612e1c573d6000803e3d6000fd5b505050506040513d601f19601f82011682018060405250810190612e40919061512c565b6001600160a01b031614612e905760405162461bcd60e51b8152602060048201526017602482015276496e636f7272656374206761756765206164647265737360481b6044820152606401610728565b63ffffffff86166000908152600b60205260409081902080546001600160a01b0319166001600160a01b03848116919091179091559051636eb1769f60e11b81528391600019919083169063dd62ed3e90612ef19030908b90600401615645565b60206040518083038186803b158015612f0957600080fd5b505afa158015612f1d573d6000803e3d6000fd5b505050506040513d601f19601f82011682018060405250810190612f419190615471565b11612f7157612f5b6001600160a01b038216876000613d89565b612f716001600160a01b03821687600019613d89565b50505050505050565b600080546040516337c61fc560e11b815282916201000090046001600160a01b031690636f8c3f8a90612fb290600390600401615717565b60206040518083038186803b158015612fca57600080fd5b505afa158015612fde573d6000803e3d6000fd5b505050506040513d601f19601f82011682018060405250810190613002919061512c565b6001600160a01b03166344fc9b566040518163ffffffff1660e01b815260040160206040518083038186803b15801561303a57600080fd5b505afa15801561304e573d6000803e3d6000fd5b505050506040513d601f19601f82011682018060405250810190613072919061512c565b63ffffffff86166000818152600760209081526040808320815160608101835281546001600160a01b039081168252600183015416818501526002909101548183015293835260089091529020549192509060ff1685156130e1576130e182600001518360200151838961386c565b6130ed876001806137fb565b6000836001600160a01b031683600001516001600160a01b031614806131285750836001600160a01b031683602001516001600160a01b0316145b613133576001613136565b60025b60ff1690506000806131518560000151866020015186613e9b565b909250905060006132858d613166868f615a53565b63ffffffff8e166000908152600b6020526040908190205490516370a0823160e01b81526001600160a01b03909116906370a08231906131aa903090600401615631565b60206040518083038186803b1580156131c257600080fd5b505afa1580156131d6573d6000803e3d6000fd5b505050506040513d601f19601f820116820180604052508101906131fa9190615471565b868661320f8c600001518d602001518d612c1d565b6001600160a01b03166318160ddd6040518163ffffffff1660e01b815260040160206040518083038186803b15801561324757600080fd5b505afa15801561325b573d6000803e3d6000fd5b505050506040513d601f19601f8201168201806040525081019061327f9190615471565b8c613f6f565b63ffffffff8c166000908152600b602052604090819020549051632e1a7d4d60e01b8152600481018390529192506001600160a01b031690632e1a7d4d90602401600060405180830381600087803b1580156132e057600080fd5b505af11580156132f4573d6000803e3d6000fd5b505060048054895160208b015160405163037b79b160e21b81526001600160a01b03928316948101949094528116602484015289151560448401526064830186905260006084840181905260a484018190523060c48501524260e485015294508493501690630dede6c490610104016040805180830381600087803b15801561337c57600080fd5b505af1158015613390573d6000803e3d6000fd5b505050506040513d601f19601f820116820180604052508101906133b49190615489565b915091508e6001600160a01b031688600001516001600160a01b0316141561359f57856002141561342b5763ffffffff8d1660009081526006602090815260408083208b8301516001600160a01b0316845290915281208054939b508b93839290613420908490615a1b565b909155506134b49050565b6020880151885161347e9190308461347861344784868f612c1d565b6001600160a01b031663517b3f828f60200151896040518363ffffffff1660e01b815260040161235a9291906156a7565b8c6139bb565b60018151811061349e57634e487b7160e01b600052603260045260246000fd5b6020026020010151826134b19190615a1b565b99505b8a1561355a57600080546040516337c61fc560e11b815261355592620100009092046001600160a01b031691636f8c3f8a916134f39190600401615717565b60206040518083038186803b15801561350b57600080fd5b505afa15801561351f573d6000803e3d6000fd5b505050506040513d601f19601f82011682018060405250810190613543919061512c565b89516001600160a01b0316908c6137a5565b61375a565b63ffffffff8d1660009081526006602090815260408083208b516001600160a01b03168452909152812080548c9290613594908490615a1b565b9091555061375a9050565b85600214156135f25763ffffffff8d1660009081526006602090815260408083208b516001600160a01b0316845290915281208054929b508b928492906135e7908490615a1b565b909155506136749050565b8751602089015161363e9190308561347861360e85858f612c1d565b8e516040516328bd9fc160e11b81526001600160a01b03929092169163517b3f829161235a918c906004016156a7565b60018151811061365e57634e487b7160e01b600052603260045260246000fd5b6020026020010151816136719190615a1b565b99505b8a1561371857600080546040516337c61fc560e11b815261355592620100009092046001600160a01b031691636f8c3f8a916136b39190600401615717565b60206040518083038186803b1580156136cb57600080fd5b505afa1580156136df573d6000803e3d6000fd5b505050506040513d601f19601f82011682018060405250810190613703919061512c565b60208a01516001600160a01b0316908c6137a5565b63ffffffff8d1660009081526006602090815260408083208b8301516001600160a01b03168452909152812080548c9290613754908490615a1b565b90915550505b7f6fb183d14e6407db4dfb55deb83841283e9e3015e3aabe210d446b16f1ce09378d8b60405161378b9291906159b2565b60405180910390a150505050505050505095945050505050565b611a8c8363a9059cbb60e01b84846040516024016137c49291906156a7565b60408051601f198184030181529190526020810180516001600160e01b03166001600160e01b031990931692909217909152614042565b63ffffffff8316600090815260076020908152604091829020825160608101845281546001600160a01b039081168083526001840154909116938201939093526002909101549281019290925215611d3157821561385d5761385d8482614114565b8115611d3157611d31846145ec565b6000613879858585612c1d565b9050600080613889878787613e9b565b91509150612f718383838761491f565b600080806138a78587615a1b565b116138e95760405162461bcd60e51b81526020600482015260126024820152716865726d65733a206e6f2062616c616e636560701b6044820152606401610728565b6000806138ff8860000151896020015187613e9b565b915091506139108888888585614a49565b90999098509650505050505050565b60008085600001516001600160a01b0316876001600160a01b0316141561395c575060208501518385106139535783613955565b845b9150613971565b50845182851061396c578261396e565b845b91505b9550959350505050565b600554600090620f42409061399c90600160c01b900462ffffff1682615a72565b6139ab9062ffffff1684615a53565b6139b59190615a33565b92915050565b606083156139d8576139d1878787878787614bab565b90506139f9565b60408051600280825260608201835290916020830190803683370190505090505b9695505050505050565b63ffffffff8116600090815260076020908152604091829020825160608101845281546001600160a01b0390811680835260018401549091169382019390935260029091015492810192909252613a915760405162461bcd60e51b81526020600482015260126024820152711c1bdbdb08191bd95cdb89dd08195e1a5cdd60721b6044820152606401610728565b63ffffffff8216600081815260066020818152604080842086516001600160a01b03908116865281845282862054968652938352868301519093168452919052902054811580613adf575080155b15613aea5750505050565b63ffffffff8416600090815260086020908152604082205485519186015160ff90911692918291613b1c919085613e9b565b91509150600080613b2f87878686614daa565b91509150613b3d8989614114565b613b46896145ec565b60048054895160208b0151604051635a47ddc360e01b81526001600160a01b03928316948101949094528116602484015287151560448401526064830185905260848301849052600060a4840181905260c484018190523060e48501524261010485015292839283921690635a47ddc39061012401606060405180830381600087803b158015613bd557600080fd5b505af1158015613be9573d6000803e3d6000fd5b505050506040513d601f19601f82011682018060405250810190613c0d91906154ac565b92509250925082600660008e63ffffffff1663ffffffff16815260200190815260200160002060008d600001516001600160a01b03166001600160a01b031681526020019081526020016000206000828254613c699190615a96565b909155505063ffffffff8c1660009081526006602090815260408083208e8301516001600160a01b0316845290915281208054849290613caa908490615a96565b90915550506040518181527f250600b7e1d8b908a0f07fa409e087c1b43ef3a5de3c0e23a41998c311f0ea909060200160405180910390a17fb28fd890673610fa2a3efb1cf64ae1b26dd83c3261fbd99f0d4a5821ccdaa9938c82604051613d139291906159b2565b60405180910390a1505050505050505050505050565b6001600160a01b03163b151590565b600054610100900460ff16613d5f5760405162461bcd60e51b8152600401610728906158d3565b600080546001600160a01b03909216620100000262010000600160b01b0319909216919091179055565b801580613e115750604051636eb1769f60e11b81526001600160a01b0384169063dd62ed3e90613dbf9030908690600401615645565b60206040518083038186803b158015613dd757600080fd5b505afa158015613deb573d6000803e3d6000fd5b505050506040513d601f19601f82011682018060405250810190613e0f9190615471565b155b613e7c5760405162461bcd60e51b815260206004820152603660248201527f5361666545524332303a20617070726f76652066726f6d206e6f6e2d7a65726f60448201527520746f206e6f6e2d7a65726f20616c6c6f77616e636560501b6064820152608401610728565b611a8c8363095ea7b360e01b84846040516024016137c49291906156a7565b6000806000613eaa8686612aae565b509050600080613ebb888888612c1d565b6001600160a01b0316630902f1ac6040518163ffffffff1660e01b815260040160606040518083038186803b158015613ef357600080fd5b505afa158015613f07573d6000803e3d6000fd5b505050506040513d601f19601f82011682018060405250810190613f2b9190615404565b506001600160701b031691506001600160701b03169150826001600160a01b0316886001600160a01b031614613f62578082613910565b9097909650945050505050565b60008082600001516001600160a01b0316896001600160a01b03161415613fc2578315613fb85783613fa987670de0b6b3a7640000615a53565b613fb39190615a33565b613fbb565b60005b9050613ff0565b8315613fea5783613fdb86670de0b6b3a7640000615a53565b613fe59190615a33565b613fed565b60005b90505b80613fff576000915050614037565b8061400b60028a615a33565b61401d90670de0b6b3a7640000615a53565b6140279190615a33565b915086821115614035578691505b505b979650505050505050565b6000614097826040518060400160405280602081526020017f5361666545524332303a206c6f772d6c6576656c2063616c6c206661696c6564815250856001600160a01b0316614eee9092919063ffffffff16565b805190915015611a8c57808060200190518101906140b591906153e8565b611a8c5760405162461bcd60e51b815260206004820152602a60248201527f5361666545524332303a204552433230206f7065726174696f6e20646964206e6044820152691bdd081cdd58d8d9595960b21b6064820152608401610728565b63ffffffff8216600090815260086020908152604082205483519184015160ff90911692918291614146919085612c1d565b6001600160a01b031663d294f0936040518163ffffffff1660e01b81526004016040805180830381600087803b15801561417f57600080fd5b505af1158015614193573d6000803e3d6000fd5b505050506040513d601f19601f820116820180604052508101906141b79190615489565b600080546040516337c61fc560e11b815293955091935091620100009091046001600160a01b031690636f8c3f8a906141f590600390600401615717565b60206040518083038186803b15801561420d57600080fd5b505afa158015614221573d6000803e3d6000fd5b505050506040513d601f19601f82011682018060405250810190614245919061512c565b6001600160a01b03166344fc9b566040518163ffffffff1660e01b815260040160206040518083038186803b15801561427d57600080fd5b505afa158015614291573d6000803e3d6000fd5b505050506040513d601f19601f820116820180604052508101906142b5919061512c565b600554865191925060009182916001600160a01b039182169116141561438457826001600160a01b031687602001516001600160a01b031614156142fd57508390508261456c565b6020870151875161434a919030876123af61431984868e612c1d565b6001600160a01b031663517b3f828e602001518c6040518363ffffffff1660e01b815260040161235a9291906156a7565b60018151811061436a57634e487b7160e01b600052603260045260246000fd5b60200260200101518561437d9190615a1b565b915061456c565b60055460208801516001600160a01b039081169116141561444657826001600160a01b031687600001516001600160a01b031614156143c757508290508361456c565b86516020880151614413919030886123af6143e385858e612c1d565b8d516040516328bd9fc160e11b81526001600160a01b03929092169163517b3f829161235a918f906004016156a7565b60018151811061443357634e487b7160e01b600052603260045260246000fd5b60200260200101518461437d9190615a1b565b826001600160a01b031687600001516001600160a01b031614156144755761446e8582615a1b565b90506144e0565b865160055460208901516144aa92916001600160a01b031690309089906144a3906143e39086906000612c1d565b60006139bb565b6001815181106144ca57634e487b7160e01b600052603260045260246000fd5b6020026020010151826144dd9190615a1b565b91505b826001600160a01b031687602001516001600160a01b0316141561450f576145088482615a1b565b905061456c565b602087015160055461453691906001600160a01b031630876144a361431985856000612c1d565b60018151811061455657634e487b7160e01b600052603260045260246000fd5b6020026020010151826145699190615a1b565b91505b811561459d5763ffffffff881660009081526009602052604081208054849290614597908490615a1b565b90915550505b80156145e25763ffffffff881660009081526006602090815260408083206001600160a01b0387168452909152812080548392906145dc908490615a1b565b90915550505b5050505050505050565b60408051600180825281830190925260009160208083019080368337019050509050600080516020615b7a8339815191528160008151811061463e57634e487b7160e01b600052603260045260246000fd5b6001600160a01b03909216602092830291909101909101526040516370a0823160e01b8152600080516020615b7a8339815191529060009082906370a082319061468c903090600401615631565b60206040518083038186803b1580156146a457600080fd5b505afa1580156146b8573d6000803e3d6000fd5b505050506040513d601f19601f820116820180604052508101906146dc9190615471565b63ffffffff85166000908152600b6020526040908190205490516331279d3d60e01b81529192506001600160a01b0316906331279d3d906147239030908790600401615683565b600060405180830381600087803b15801561473d57600080fd5b505af1158015614751573d6000803e3d6000fd5b50506040516370a0823160e01b815260009250839150600080516020615b7a833981519152906370a082319061478b903090600401615631565b60206040518083038186803b1580156147a357600080fd5b505afa1580156147b7573d6000803e3d6000fd5b505050506040513d601f19601f820116820180604052508101906147db9190615471565b6147e59190615a96565b9050801561079d576005546148bd90600080516020615b7a833981519152906001600160a01b03163084606461481d85856000612c1d565b6001600160a01b031663517b3f82600080516020615b7a833981519152896040518363ffffffff1660e01b81526004016148589291906156a7565b60206040518083038186803b15801561487057600080fd5b505afa158015614884573d6000803e3d6000fd5b505050506040513d601f19601f820116820180604052508101906148a89190615471565b6148b3906063615a53565b6144a39190615a33565b6001815181106148dd57634e487b7160e01b600052603260045260246000fd5b6020026020010151600960008763ffffffff1663ffffffff16815260200190815260200160002060008282546149139190615a1b565b90915550505050505050565b6001600160a01b0384166149745760405162461bcd60e51b815260206004820152601c60248201527b2a3930b232b92537b2a4b73a32b3b930ba34b7b71d2130b22830b4b960211b6044820152606401610728565b60008284101561499c578361498b846103e8615a53565b6149959190615a33565b90506149b6565b838310156149b1578261498b856103e8615a53565b506103e85b81811115614a02576001826149cb8184615a96565b6149d6906064615a53565b6149e09190615a33565b106149fd5760405162461bcd60e51b815260040161072890615772565b61079d565b8082111561079d57600182614a178382615a96565b614a22906064615a53565b614a2c9190615a33565b1061079d5760405162461bcd60e51b815260040161072890615772565b60008082841115614af957600083614a63866103e8615a53565b614a6d9190615a33565b905060006103e8614a7e8389615a53565b614a889190615a33565b905080881015614acd57600282614aa18a6103e8615a53565b614aab9190615a33565b614ab59089615a96565b614abf9190615a33565b925088602001519350614af2565b87811015614af2576002614ae1828a615a96565b614aeb9190615a33565b8951945092505b5050613971565b8284101561397157600084614b10856103e8615a53565b614b1a9190615a33565b905060006103e8614b2b838a615a53565b614b359190615a33565b905086811015614b63576002614b4b8289615a96565b614b559190615a33565b925088602001519350614b9f565b80871015614b9f57600282614b7a896103e8615a53565b614b849190615a33565b614b8e908a615a96565b614b989190615a33565b8951945092505b50509550959350505050565b60408051600180825281830190925260609160009190816020015b6040805160608101825260008082526020808301829052928201528252600019909201910181614bc65790505090506040518060600160405280896001600160a01b03168152602001886001600160a01b0316815260200184151581525081600081518110614c4557634e487b7160e01b600052603260045260246000fd5b602090810291909101015260048054604051636eb1769f60e11b8152429288926001600160a01b03808e169363dd62ed3e93614c85933093169101615645565b60206040518083038186803b158015614c9d57600080fd5b505afa158015614cb1573d6000803e3d6000fd5b505050506040513d601f19601f82011682018060405250810190614cd59190615471565b1015614d1057600454614cf6906001600160a01b038b811691166000613d89565b600454614d10906001600160a01b038b8116911688613d89565b60048054604051631e82ecdb60e31b81526001600160a01b039091169163f41766d891614d47918a918a9188918e9189910161591e565b600060405180830381600087803b158015614d6157600080fd5b505af1158015614d75573d6000803e3d6000fd5b505050506040513d6000823e601f3d908101601f19168201604052614d9d91908101906152f3565b9998505050505050505050565b60008082841115614e4b57600083614dc4866103e8615a53565b614dce9190615a33565b905060006103e8614ddf8389615a53565b614de99190615a33565b905080881015614e145787935081614e03856103e8615a53565b614e0d9190615a33565b9250614e44565b87811015614e3d576103e8614e298389615a53565b614e339190615a33565b9350869250614e44565b8793508692505b5050614ee5565b82841015614ee557600084614e62856103e8615a53565b614e6c9190615a33565b905060006103e8614e7d838a615a53565b614e879190615a33565b905080871015614eb25781614e9e886103e8615a53565b614ea89190615a33565b9350869250614ee2565b86811015614edb578793506103e8614eca8386615a53565b614ed49190615a33565b9250614ee2565b8793508692505b50505b94509492505050565b6060612cab8484600085614f04565b9392505050565b606082471015614f655760405162461bcd60e51b815260206004820152602660248201527f416464726573733a20696e73756666696369656e742062616c616e636520666f6044820152651c8818d85b1b60d21b6064820152608401610728565b614f6e85613d29565b614fba5760405162461bcd60e51b815260206004820152601d60248201527f416464726573733a2063616c6c20746f206e6f6e2d636f6e74726163740000006044820152606401610728565b600080866001600160a01b03168587604051614fd69190615615565b60006040518083038185875af1925050503d8060008114615013576040519150601f19603f3d011682016040523d82523d6000602084013e615018565b606091505b509150915061403782828660608315615032575081614efd565b8251156150425782518084602001fd5b8160405162461bcd60e51b8152600401610728919061573f565b8280548282559060005260206000209081019282156150b1579160200282015b828111156150b157825182546001600160a01b0319166001600160a01b0390911617825560209092019160019091019061507c565b506150bd9291506150c1565b5090565b5b808211156150bd57600081556001016150c2565b80356150e181615b44565b919050565b80516001600160701b03811681146150e157600080fd5b803562ffffff811681146150e157600080fd5b600060208284031215615121578081fd5b8135614efd81615b44565b60006020828403121561513d578081fd5b8151614efd81615b44565b60008060006060848603121561515c578182fd5b833561516781615b44565b9250602084013561517781615b44565b9150604084013561518781615b59565b809150509250925092565b6000806000606084860312156151a6578283fd5b83356151b181615b44565b925060208401359150604084013561518781615b67565b600080600080608085870312156151dd578081fd5b84356151e881615b44565b93506020850135925060408501356151ff81615b67565b9396929550929360600135925050565b600080600080600060a08688031215615226578081fd5b85356001600160401b0381111561523b578182fd5b8601601f8101881361524b578182fd5b8035602061526061525b836159f8565b6159c8565b8083825282820191508285018c848660051b880101111561527f578687fd5b8695505b848610156152aa57803561529681615b44565b835260019590950194918301918301615283565b5098506152ba90508982016150d6565b96505050506152cb604087016150d6565b92506152d9606087016150d6565b91506152e7608087016150fd565b90509295509295909350565b60006020808385031215615305578182fd5b82516001600160401b0381111561531a578283fd5b8301601f8101851361532a578283fd5b805161533861525b826159f8565b80828252848201915084840188868560051b8701011115615357578687fd5b8694505b8385101561403557805183526001949094019391850191850161535b565b6000806020838503121561538b578182fd5b82356001600160401b03808211156153a1578384fd5b818501915085601f8301126153b4578384fd5b8135818111156153c2578485fd5b8660208260051b85010111156153d6578485fd5b60209290920196919550909350505050565b6000602082840312156153f9578081fd5b8151614efd81615b59565b600080600060608486031215615418578081fd5b615421846150e6565b925061542f602085016150e6565b9150604084015161518781615b67565b600060208284031215615450578081fd5b614efd826150fd565b60006020828403121561546a578081fd5b5035919050565b600060208284031215615482578081fd5b5051919050565b6000806040838503121561549b578182fd5b505080516020909101519092909150565b6000806000606084860312156154c0578081fd5b8351925060208401519150604084015190509250925092565b6000602082840312156154ea578081fd5b8135614efd81615b67565b60008060408385031215615507578182fd5b823561551281615b67565b9150602083013561552281615b44565b809150509250929050565b600080600060608486031215615541578081fd5b833561554c81615b67565b9250602084013561555c81615b44565b929592945050506040919091013590565b6000806040838503121561557f578182fd5b823561558a81615b67565b946020939093013593505050565b600080600080608085870312156155ad578182fd5b84356155b881615b67565b966020860135965060408601359560600135945092505050565b6000815180845260208085019450808401835b8381101561560a5781516001600160a01b0316875295820195908201906001016155e5565b509495945050505050565b60008251615627818460208701615aad565b9190910192915050565b6001600160a01b0391909116815260200190565b6001600160a01b0392831681529116602082015260400190565b6001600160a01b039384168152919092166020820152604081019190915260600190565b6001600160a01b0383168152604060208201819052600090612cab908301846155d2565b6001600160a01b03929092168252602082015260400190565b602081526000614efd60208301846155d2565b6020808252825182820181905260009190848201906040850190845b8181101561570b578351835292840192918401916001016156ef565b50909695505050505050565b60208101600e831061573957634e487b7160e01b600052602160045260246000fd5b91905290565b602081526000825180602084015261575e816040850160208701615aad565b601f01601f19169190910160400192915050565b60208082526013908201527210d95a5b1a5b99d31a5b5a5d14995858da1959606a1b604082015260600190565b6020808252600b908201526a626164206164647265737360a81b604082015260600190565b602080825260129082015271141bdbdb08191bd95cdb89dd08195e1a5cdd60721b604082015260600190565b60208082526021908201527f696e73756666696369656e7420696e746567726174696f6e2062616c616e63656040820152607360f81b606082015260800190565b6020808252602e908201527f436f6e74726f6c6c65643a3a6f6e6c794d616e616765723a2043616c6c65722060408201526d34b9903737ba1036b0b730b3b2b960911b606082015260800190565b60208082526034908201527f436f6e74726f6c6c65643a3a6f6e6c79436f6e74726f6c6c65723a2043616c6c60408201527332b91034b9903737ba1031b7b73a3937b63632b960611b606082015260800190565b6020808252602b908201527f496e697469616c697a61626c653a20636f6e7472616374206973206e6f74206960408201526a6e697469616c697a696e6760a81b606082015260800190565b600060a0820187835260208781850152604060a08186015282885180855260c087019150838a019450855b8181101561598657855180516001600160a01b03908116855286820151168685015284015115158484015294840194606090920191600101615949565b50506001600160a01b038816606087015293506159a292505050565b8260808301529695505050505050565b63ffffffff929092168252602082015260400190565b604051601f8201601f191681016001600160401b03811182821017156159f0576159f0615b2e565b604052919050565b60006001600160401b03821115615a1157615a11615b2e565b5060051b60200190565b60008219821115615a2e57615a2e615b18565b500190565b600082615a4e57634e487b7160e01b81526012600452602481fd5b500490565b6000816000190483118215151615615a6d57615a6d615b18565b500290565b600062ffffff83811690831681811015615a8e57615a8e615b18565b039392505050565b600082821015615aa857615aa8615b18565b500390565b60005b83811015615ac8578181015183820152602001615ab0565b83811115611d315750506000910152565b6000600019821415615aed57615aed615b18565b5060010190565b600063ffffffff80831681811415615b0e57615b0e615b18565b6001019392505050565b634e487b7160e01b600052601160045260246000fd5b634e487b7160e01b600052604160045260246000fd5b6001600160a01b03811681146111a457600080fd5b80151581146111a457600080fd5b63ffffffff811681146111a457600080fdfe000000000000000000000000b27bbeaaca2c00d6258c3118bab6b5b6975161c8a2646970667358221220fd12bd7e2215622456a31e9d9d3193ee04e4490b1439010cbacbfc707badf67464736f6c63430008040033",
  "devdoc": {
    "kind": "dev",
    "methods": {
      "deploy(uint32)": {
        "details": "Deploys all the tokens for the specified pools"
      },
      "harvestYield()": {
        "details": "Harvests token yield from the integration"
      },
      "incrementBalance(uint32,address,uint256)": {
        "params": {
          "amount": "The amount of the token being deposited",
          "token": "The address of the deposited token"
        }
      },
      "rebalancePool(uint32,uint256,uint256,uint256)": {
        "params": {
          "maxSellTokenA": "max amount of tokenA to sell (to limit rebalancing)",
          "maxSellTokenB": "max amount of tokenB to sell (to limit rebalancing)",
          "poolId": "The ID of the pool to rebalance",
          "ratioX1000": "reserves ratio to control the price slippage"
        }
      },
      "withdraw(address,uint256,uint32)": {
        "params": {
          "amount": "The amount of token in the pool to withdraw",
          "poolId": "the pool to withdraw from",
          "token": "the token to withdraw"
        }
      }
    },
    "version": 1
  },
  "userdoc": {
    "events": {
      "CreatePool(address,address,uint32)": {
        "notice": "Events"
      }
    },
    "kind": "user",
    "methods": {
      "rebalancePool(uint32,uint256,uint256,uint256)": {
        "notice": "Rebalances by attempting to swap up to max to get into position ratio"
      }
    },
    "version": 1
  },
  "storageLayout": {
    "storage": [
      {
        "astId": 702,
        "contract": "contracts/yield-integrations/MaiaDaoHermesIntegration.sol:MaiaDaoHermesIntegration",
        "label": "_initialized",
        "offset": 0,
        "slot": "0",
        "type": "t_bool"
      },
      {
        "astId": 705,
        "contract": "contracts/yield-integrations/MaiaDaoHermesIntegration.sol:MaiaDaoHermesIntegration",
        "label": "_initializing",
        "offset": 1,
        "slot": "0",
        "type": "t_bool"
      },
      {
        "astId": 15667,
        "contract": "contracts/yield-integrations/MaiaDaoHermesIntegration.sol:MaiaDaoHermesIntegration",
        "label": "moduleMap",
        "offset": 2,
        "slot": "0",
        "type": "t_contract(IModuleMap)29584"
      },
      {
        "astId": 8991,
        "contract": "contracts/yield-integrations/MaiaDaoHermesIntegration.sol:MaiaDaoHermesIntegration",
        "label": "_controllers",
        "offset": 0,
        "slot": "1",
        "type": "t_mapping(t_address,t_bool)"
      },
      {
        "astId": 8994,
        "contract": "contracts/yield-integrations/MaiaDaoHermesIntegration.sol:MaiaDaoHermesIntegration",
        "label": "controllers",
        "offset": 0,
        "slot": "2",
        "type": "t_array(t_address)dyn_storage"
      },
      {
        "astId": 56558,
        "contract": "contracts/yield-integrations/MaiaDaoHermesIntegration.sol:MaiaDaoHermesIntegration",
        "label": "factoryAddress",
        "offset": 0,
        "slot": "3",
        "type": "t_address"
      },
      {
        "astId": 56560,
        "contract": "contracts/yield-integrations/MaiaDaoHermesIntegration.sol:MaiaDaoHermesIntegration",
        "label": "swapRouterAddress",
        "offset": 0,
        "slot": "4",
        "type": "t_address"
      },
      {
        "astId": 56562,
        "contract": "contracts/yield-integrations/MaiaDaoHermesIntegration.sol:MaiaDaoHermesIntegration",
        "label": "wnativeAddress",
        "offset": 0,
        "slot": "5",
        "type": "t_address"
      },
      {
        "astId": 56564,
        "contract": "contracts/yield-integrations/MaiaDaoHermesIntegration.sol:MaiaDaoHermesIntegration",
        "label": "poolCount",
        "offset": 20,
        "slot": "5",
        "type": "t_uint32"
      },
      {
        "astId": 56569,
        "contract": "contracts/yield-integrations/MaiaDaoHermesIntegration.sol:MaiaDaoHermesIntegration",
        "label": "slippageNumerator",
        "offset": 24,
        "slot": "5",
        "type": "t_uint24"
      },
      {
        "astId": 56575,
        "contract": "contracts/yield-integrations/MaiaDaoHermesIntegration.sol:MaiaDaoHermesIntegration",
        "label": "balances",
        "offset": 0,
        "slot": "6",
        "type": "t_mapping(t_uint32,t_mapping(t_address,t_uint256))"
      },
      {
        "astId": 56580,
        "contract": "contracts/yield-integrations/MaiaDaoHermesIntegration.sol:MaiaDaoHermesIntegration",
        "label": "pools",
        "offset": 0,
        "slot": "7",
        "type": "t_mapping(t_uint32,t_struct(Pool)27308_storage)"
      },
      {
        "astId": 56584,
        "contract": "contracts/yield-integrations/MaiaDaoHermesIntegration.sol:MaiaDaoHermesIntegration",
        "label": "stablePools",
        "offset": 0,
        "slot": "8",
        "type": "t_mapping(t_uint32,t_bool)"
      },
      {
        "astId": 56588,
        "contract": "contracts/yield-integrations/MaiaDaoHermesIntegration.sol:MaiaDaoHermesIntegration",
        "label": "yieldBalances",
        "offset": 0,
        "slot": "9",
        "type": "t_mapping(t_uint32,t_uint256)"
      },
      {
        "astId": 56592,
        "contract": "contracts/yield-integrations/MaiaDaoHermesIntegration.sol:MaiaDaoHermesIntegration",
        "label": "harvestedYield",
        "offset": 0,
        "slot": "10",
        "type": "t_mapping(t_uint32,t_uint256)"
      },
      {
        "astId": 56597,
        "contract": "contracts/yield-integrations/MaiaDaoHermesIntegration.sol:MaiaDaoHermesIntegration",
        "label": "stakings",
        "offset": 0,
        "slot": "11",
        "type": "t_mapping(t_uint32,t_contract(ISolidlyGauge)30114)"
      }
    ],
    "types": {
      "t_address": {
        "encoding": "inplace",
        "label": "address",
        "numberOfBytes": "20"
      },
      "t_array(t_address)dyn_storage": {
        "base": "t_address",
        "encoding": "dynamic_array",
        "label": "address[]",
        "numberOfBytes": "32"
      },
      "t_bool": {
        "encoding": "inplace",
        "label": "bool",
        "numberOfBytes": "1"
      },
      "t_contract(IModuleMap)29584": {
        "encoding": "inplace",
        "label": "contract IModuleMap",
        "numberOfBytes": "20"
      },
      "t_contract(ISolidlyGauge)30114": {
        "encoding": "inplace",
        "label": "contract ISolidlyGauge",
        "numberOfBytes": "20"
      },
      "t_mapping(t_address,t_bool)": {
        "encoding": "mapping",
        "key": "t_address",
        "label": "mapping(address => bool)",
        "numberOfBytes": "32",
        "value": "t_bool"
      },
      "t_mapping(t_address,t_uint256)": {
        "encoding": "mapping",
        "key": "t_address",
        "label": "mapping(address => uint256)",
        "numberOfBytes": "32",
        "value": "t_uint256"
      },
      "t_mapping(t_uint32,t_bool)": {
        "encoding": "mapping",
        "key": "t_uint32",
        "label": "mapping(uint32 => bool)",
        "numberOfBytes": "32",
        "value": "t_bool"
      },
      "t_mapping(t_uint32,t_contract(ISolidlyGauge)30114)": {
        "encoding": "mapping",
        "key": "t_uint32",
        "label": "mapping(uint32 => contract ISolidlyGauge)",
        "numberOfBytes": "32",
        "value": "t_contract(ISolidlyGauge)30114"
      },
      "t_mapping(t_uint32,t_mapping(t_address,t_uint256))": {
        "encoding": "mapping",
        "key": "t_uint32",
        "label": "mapping(uint32 => mapping(address => uint256))",
        "numberOfBytes": "32",
        "value": "t_mapping(t_address,t_uint256)"
      },
      "t_mapping(t_uint32,t_struct(Pool)27308_storage)": {
        "encoding": "mapping",
        "key": "t_uint32",
        "label": "mapping(uint32 => struct IAMMIntegration.Pool)",
        "numberOfBytes": "32",
        "value": "t_struct(Pool)27308_storage"
      },
      "t_mapping(t_uint32,t_uint256)": {
        "encoding": "mapping",
        "key": "t_uint32",
        "label": "mapping(uint32 => uint256)",
        "numberOfBytes": "32",
        "value": "t_uint256"
      },
      "t_struct(Pool)27308_storage": {
        "encoding": "inplace",
        "label": "struct IAMMIntegration.Pool",
        "members": [
          {
            "astId": 27303,
            "contract": "contracts/yield-integrations/MaiaDaoHermesIntegration.sol:MaiaDaoHermesIntegration",
            "label": "tokenA",
            "offset": 0,
            "slot": "0",
            "type": "t_address"
          },
          {
            "astId": 27305,
            "contract": "contracts/yield-integrations/MaiaDaoHermesIntegration.sol:MaiaDaoHermesIntegration",
            "label": "tokenB",
            "offset": 0,
            "slot": "1",
            "type": "t_address"
          },
          {
            "astId": 27307,
            "contract": "contracts/yield-integrations/MaiaDaoHermesIntegration.sol:MaiaDaoHermesIntegration",
            "label": "positionID",
            "offset": 0,
            "slot": "2",
            "type": "t_uint256"
          }
        ],
        "numberOfBytes": "96"
      },
      "t_uint24": {
        "encoding": "inplace",
        "label": "uint24",
        "numberOfBytes": "3"
      },
      "t_uint256": {
        "encoding": "inplace",
        "label": "uint256",
        "numberOfBytes": "32"
      },
      "t_uint32": {
        "encoding": "inplace",
        "label": "uint32",
        "numberOfBytes": "4"
      }
    }
  }
}