{
  "address": "0x0004aac8D9E41b55a7d3eF3b8F76A484c651aaF9",
  "abi": [
    {
      "anonymous": false,
      "inputs": [
        {
          "indexed": true,
          "internalType": "address",
          "name": "tokenA",
          "type": "address"
        },
        {
          "indexed": true,
          "internalType": "address",
          "name": "tokenB",
          "type": "address"
        },
        {
          "indexed": false,
          "internalType": "uint32",
          "name": "poolID",
          "type": "uint32"
        }
      ],
      "name": "CreatePool",
      "type": "event"
    },
    {
      "anonymous": false,
      "inputs": [
        {
          "indexed": false,
          "internalType": "address",
          "name": "token",
          "type": "address"
        },
        {
          "indexed": false,
          "internalType": "uint256",
          "name": "amount",
          "type": "uint256"
        },
        {
          "indexed": false,
          "internalType": "uint32",
          "name": "poolID",
          "type": "uint32"
        }
      ],
      "name": "Deposit",
      "type": "event"
    },
    {
      "anonymous": false,
      "inputs": [
        {
          "indexed": false,
          "internalType": "uint256",
          "name": "poolId",
          "type": "uint256"
        },
        {
          "indexed": false,
          "internalType": "uint256",
          "name": "amount",
          "type": "uint256"
        }
      ],
      "name": "DepositToPool",
      "type": "event"
    },
    {
      "anonymous": false,
      "inputs": [
        {
          "indexed": true,
          "internalType": "uint32",
          "name": "poolID",
          "type": "uint32"
        }
      ],
      "name": "HarvestYieldError",
      "type": "event"
    },
    {
      "anonymous": false,
      "inputs": [
        {
          "indexed": false,
          "internalType": "uint256",
          "name": "amount",
          "type": "uint256"
        }
      ],
      "name": "LPTokensAcquired",
      "type": "event"
    },
    {
      "anonymous": false,
      "inputs": [
        {
          "indexed": false,
          "internalType": "uint256",
          "name": "poolId",
          "type": "uint256"
        },
        {
          "indexed": false,
          "internalType": "address",
          "name": "tokenSold",
          "type": "address"
        },
        {
          "indexed": false,
          "internalType": "uint256",
          "name": "amountSold",
          "type": "uint256"
        },
        {
          "indexed": false,
          "internalType": "address",
          "name": "tokenBought",
          "type": "address"
        },
        {
          "indexed": false,
          "internalType": "uint256",
          "name": "amountBought",
          "type": "uint256"
        }
      ],
      "name": "PoolRebalanced",
      "type": "event"
    },
    {
      "anonymous": false,
      "inputs": [
        {
          "indexed": false,
          "internalType": "uint256",
          "name": "amount",
          "type": "uint256"
        }
      ],
      "name": "TokensReceived",
      "type": "event"
    },
    {
      "anonymous": false,
      "inputs": [
        {
          "indexed": false,
          "internalType": "uint256",
          "name": "poolId",
          "type": "uint256"
        },
        {
          "indexed": false,
          "internalType": "uint256",
          "name": "amount",
          "type": "uint256"
        }
      ],
      "name": "WithdrawnFromPool",
      "type": "event"
    },
    {
      "anonymous": false,
      "inputs": [
        {
          "indexed": false,
          "internalType": "uint32",
          "name": "poolID",
          "type": "uint32"
        }
      ],
      "name": "YieldHarvested",
      "type": "event"
    },
    {
      "anonymous": false,
      "inputs": [
        {
          "indexed": false,
          "internalType": "uint256",
          "name": "amount",
          "type": "uint256"
        }
      ],
      "name": "YieldReceived",
      "type": "event"
    },
    {
      "inputs": [
        {
          "internalType": "address",
          "name": "controller",
          "type": "address"
        }
      ],
      "name": "addController",
      "outputs": [],
      "stateMutability": "nonpayable",
      "type": "function"
    },
    {
      "inputs": [
        {
          "internalType": "uint32",
          "name": "",
          "type": "uint32"
        },
        {
          "internalType": "address",
          "name": "",
          "type": "address"
        }
      ],
      "name": "balances",
      "outputs": [
        {
          "internalType": "uint256",
          "name": "",
          "type": "uint256"
        }
      ],
      "stateMutability": "view",
      "type": "function"
    },
    {
      "inputs": [],
      "name": "configureAllowance",
      "outputs": [],
      "stateMutability": "nonpayable",
      "type": "function"
    },
    {
      "inputs": [
        {
          "internalType": "uint32",
          "name": "poolId",
          "type": "uint32"
        },
        {
          "internalType": "address",
          "name": "gaugeAddress",
          "type": "address"
        }
      ],
      "name": "configureStaking",
      "outputs": [],
      "stateMutability": "nonpayable",
      "type": "function"
    },
    {
      "inputs": [
        {
          "internalType": "uint32",
          "name": "poolId",
          "type": "uint32"
        },
        {
          "internalType": "address",
          "name": "gaugeAddress",
          "type": "address"
        }
      ],
      "name": "configureStakingOverwrite",
      "outputs": [],
      "stateMutability": "nonpayable",
      "type": "function"
    },
    {
      "inputs": [
        {
          "internalType": "uint256",
          "name": "",
          "type": "uint256"
        }
      ],
      "name": "controllers",
      "outputs": [
        {
          "internalType": "address",
          "name": "",
          "type": "address"
        }
      ],
      "stateMutability": "view",
      "type": "function"
    },
    {
      "inputs": [
        {
          "internalType": "address",
          "name": "tokenA",
          "type": "address"
        },
        {
          "internalType": "address",
          "name": "tokenB",
          "type": "address"
        },
        {
          "internalType": "bool",
          "name": "stable",
          "type": "bool"
        }
      ],
      "name": "createPool",
      "outputs": [],
      "stateMutability": "nonpayable",
      "type": "function"
    },
    {
      "inputs": [
        {
          "internalType": "uint32",
          "name": "poolId",
          "type": "uint32"
        }
      ],
      "name": "deploy",
      "outputs": [],
      "stateMutability": "nonpayable",
      "type": "function"
    },
    {
      "inputs": [
        {
          "internalType": "address",
          "name": "token",
          "type": "address"
        },
        {
          "internalType": "uint256",
          "name": "amount",
          "type": "uint256"
        },
        {
          "internalType": "uint32",
          "name": "poolId",
          "type": "uint32"
        }
      ],
      "name": "deposit",
      "outputs": [],
      "stateMutability": "nonpayable",
      "type": "function"
    },
    {
      "inputs": [],
      "name": "getAllControllers",
      "outputs": [
        {
          "internalType": "address[]",
          "name": "currentControllers",
          "type": "address[]"
        }
      ],
      "stateMutability": "view",
      "type": "function"
    },
    {
      "inputs": [
        {
          "internalType": "address",
          "name": "tokenIn",
          "type": "address"
        },
        {
          "internalType": "address",
          "name": "tokenOut",
          "type": "address"
        },
        {
          "internalType": "uint256",
          "name": "amountIn",
          "type": "uint256"
        }
      ],
      "name": "getAmountOut",
      "outputs": [
        {
          "internalType": "uint256",
          "name": "amountOut",
          "type": "uint256"
        }
      ],
      "stateMutability": "view",
      "type": "function"
    },
    {
      "inputs": [
        {
          "internalType": "address",
          "name": "tokenIn",
          "type": "address"
        },
        {
          "internalType": "address",
          "name": "tokenOut",
          "type": "address"
        },
        {
          "internalType": "uint256",
          "name": "amountIn",
          "type": "uint256"
        }
      ],
      "name": "getAmountOutMinimum",
      "outputs": [
        {
          "internalType": "uint256",
          "name": "amountOutMinimum",
          "type": "uint256"
        }
      ],
      "stateMutability": "view",
      "type": "function"
    },
    {
      "inputs": [
        {
          "internalType": "uint32",
          "name": "poolId",
          "type": "uint32"
        },
        {
          "internalType": "address",
          "name": "token",
          "type": "address"
        }
      ],
      "name": "getBalance",
      "outputs": [
        {
          "internalType": "uint256",
          "name": "",
          "type": "uint256"
        }
      ],
      "stateMutability": "view",
      "type": "function"
    },
    {
      "inputs": [
        {
          "internalType": "uint32",
          "name": "poolId",
          "type": "uint32"
        }
      ],
      "name": "getPool",
      "outputs": [
        {
          "components": [
            {
              "internalType": "address",
              "name": "tokenA",
              "type": "address"
            },
            {
              "internalType": "address",
              "name": "tokenB",
              "type": "address"
            },
            {
              "internalType": "uint256",
              "name": "positionID",
              "type": "uint256"
            }
          ],
          "internalType": "struct IAMMIntegration.Pool",
          "name": "",
          "type": "tuple"
        }
      ],
      "stateMutability": "view",
      "type": "function"
    },
    {
      "inputs": [
        {
          "internalType": "address",
          "name": "tokenA",
          "type": "address"
        },
        {
          "internalType": "address",
          "name": "tokenB",
          "type": "address"
        }
      ],
      "name": "getReserves",
      "outputs": [
        {
          "internalType": "uint256",
          "name": "reserveA",
          "type": "uint256"
        },
        {
          "internalType": "uint256",
          "name": "reserveB",
          "type": "uint256"
        }
      ],
      "stateMutability": "view",
      "type": "function"
    },
    {
      "inputs": [
        {
          "internalType": "uint32[]",
          "name": "pids",
          "type": "uint32[]"
        }
      ],
      "name": "getYieldBalances",
      "outputs": [
        {
          "internalType": "uint256[]",
          "name": "amounts",
          "type": "uint256[]"
        }
      ],
      "stateMutability": "view",
      "type": "function"
    },
    {
      "inputs": [],
      "name": "harvestYield",
      "outputs": [],
      "stateMutability": "nonpayable",
      "type": "function"
    },
    {
      "inputs": [
        {
          "internalType": "uint32",
          "name": "poolId",
          "type": "uint32"
        }
      ],
      "name": "harvestYieldByPool",
      "outputs": [],
      "stateMutability": "nonpayable",
      "type": "function"
    },
    {
      "inputs": [
        {
          "internalType": "uint32[]",
          "name": "poolIds",
          "type": "uint32[]"
        }
      ],
      "name": "harvestYieldByPools",
      "outputs": [],
      "stateMutability": "nonpayable",
      "type": "function"
    },
    {
      "inputs": [
        {
          "internalType": "uint32",
          "name": "",
          "type": "uint32"
        }
      ],
      "name": "harvestedYield",
      "outputs": [
        {
          "internalType": "uint256",
          "name": "",
          "type": "uint256"
        }
      ],
      "stateMutability": "view",
      "type": "function"
    },
    {
      "inputs": [
        {
          "internalType": "address[]",
          "name": "controllers_",
          "type": "address[]"
        },
        {
          "internalType": "address",
          "name": "moduleMap_",
          "type": "address"
        },
        {
          "internalType": "address",
          "name": "factoryAddress_",
          "type": "address"
        },
        {
          "internalType": "address",
          "name": "swapRouterAddress_",
          "type": "address"
        },
        {
          "internalType": "uint24",
          "name": "slippageNumerator_",
          "type": "uint24"
        }
      ],
      "name": "initialize",
      "outputs": [],
      "stateMutability": "nonpayable",
      "type": "function"
    },
    {
      "inputs": [
        {
          "internalType": "address",
          "name": "controller",
          "type": "address"
        }
      ],
      "name": "isController",
      "outputs": [
        {
          "internalType": "bool",
          "name": "status",
          "type": "bool"
        }
      ],
      "stateMutability": "view",
      "type": "function"
    },
    {
      "inputs": [
        {
          "internalType": "address",
          "name": "_tokenA",
          "type": "address"
        },
        {
          "internalType": "address",
          "name": "_tokenB",
          "type": "address"
        }
      ],
      "name": "isPoolExist",
      "outputs": [
        {
          "internalType": "bool",
          "name": "",
          "type": "bool"
        }
      ],
      "stateMutability": "view",
      "type": "function"
    },
    {
      "inputs": [],
      "name": "moduleMap",
      "outputs": [
        {
          "internalType": "contract IModuleMap",
          "name": "",
          "type": "address"
        }
      ],
      "stateMutability": "view",
      "type": "function"
    },
    {
      "inputs": [],
      "name": "poolCount",
      "outputs": [
        {
          "internalType": "uint32",
          "name": "",
          "type": "uint32"
        }
      ],
      "stateMutability": "view",
      "type": "function"
    },
    {
      "inputs": [
        {
          "internalType": "uint32",
          "name": "",
          "type": "uint32"
        }
      ],
      "name": "pools",
      "outputs": [
        {
          "internalType": "address",
          "name": "tokenA",
          "type": "address"
        },
        {
          "internalType": "address",
          "name": "tokenB",
          "type": "address"
        },
        {
          "internalType": "uint256",
          "name": "positionID",
          "type": "uint256"
        }
      ],
      "stateMutability": "view",
      "type": "function"
    },
    {
      "inputs": [],
      "name": "rewardToken",
      "outputs": [
        {
          "internalType": "address",
          "name": "",
          "type": "address"
        }
      ],
      "stateMutability": "view",
      "type": "function"
    },
    {
      "inputs": [
        {
          "internalType": "address",
          "name": "_rewardDistributor",
          "type": "address"
        }
      ],
      "name": "setRewardDistributor",
      "outputs": [],
      "stateMutability": "nonpayable",
      "type": "function"
    },
    {
      "inputs": [
        {
          "internalType": "uint24",
          "name": "slippageNumerator_",
          "type": "uint24"
        }
      ],
      "name": "setSlippage",
      "outputs": [],
      "stateMutability": "nonpayable",
      "type": "function"
    },
    {
      "inputs": [],
      "name": "slippageNumerator",
      "outputs": [
        {
          "internalType": "uint24",
          "name": "",
          "type": "uint24"
        }
      ],
      "stateMutability": "view",
      "type": "function"
    },
    {
      "inputs": [
        {
          "internalType": "uint32",
          "name": "",
          "type": "uint32"
        }
      ],
      "name": "stablePools",
      "outputs": [
        {
          "internalType": "bool",
          "name": "",
          "type": "bool"
        }
      ],
      "stateMutability": "view",
      "type": "function"
    },
    {
      "inputs": [
        {
          "internalType": "uint32",
          "name": "poolId",
          "type": "uint32"
        }
      ],
      "name": "stakeLPTokens",
      "outputs": [],
      "stateMutability": "nonpayable",
      "type": "function"
    },
    {
      "inputs": [
        {
          "internalType": "address",
          "name": "tokenIn",
          "type": "address"
        },
        {
          "internalType": "address",
          "name": "tokenOut",
          "type": "address"
        },
        {
          "internalType": "address",
          "name": "recipient",
          "type": "address"
        },
        {
          "internalType": "uint256",
          "name": "amountIn",
          "type": "uint256"
        },
        {
          "internalType": "uint256",
          "name": "amountOutMin",
          "type": "uint256"
        }
      ],
      "name": "swapExactInput",
      "outputs": [
        {
          "internalType": "bool",
          "name": "",
          "type": "bool"
        }
      ],
      "stateMutability": "nonpayable",
      "type": "function"
    },
    {
      "inputs": [
        {
          "internalType": "address",
          "name": "token",
          "type": "address"
        },
        {
          "internalType": "uint256",
          "name": "amount",
          "type": "uint256"
        },
        {
          "internalType": "uint32",
          "name": "poolId",
          "type": "uint32"
        }
      ],
      "name": "withdraw",
      "outputs": [],
      "stateMutability": "nonpayable",
      "type": "function"
    },
    {
      "inputs": [
        {
          "internalType": "uint32",
          "name": "",
          "type": "uint32"
        }
      ],
      "name": "yieldBalances",
      "outputs": [
        {
          "internalType": "uint256",
          "name": "",
          "type": "uint256"
        }
      ],
      "stateMutability": "view",
      "type": "function"
    }
  ],
  "transactionHash": "0xd5ef551b4925029091361eef7269262926e7f1a91d01891b779801a7a9000045",
  "args": [],
  "solcInputHash": "45afef2d0098b5b4751ca820c0864600",
  "bytecode": "0x608060405234801561001057600080fd5b506151f8806100206000396000f3fe608060405234801561001057600080fd5b50600436106101a15760003560e01c80630c3fa05f146101a65780630f0a1c6f146101bb578063147bd3af146101ea5780631a09e7761461021457806320acc1be14610242578063257b318514610255578063337993cb1461026857806336bf95a01461027d57806349470541146102905780634aa06652146102b35780635441c2b6146102c657806357efda031461030457806358a0f0491461032f5780635a1fcc3a1461034f5780635ce564f414610362578063704ae286146103755780637db2ddfe1461037d578063841bdb9e1461039057806390428160146103a3578063950e9261146103b65780639da46ee3146103c9578063a1809b9514610466578063a7fc7a0714610479578063addf32d21461048c578063b1cccca21461049f578063b429afeb146104b2578063ccbfc16c146104de578063ced08b2d146104f1578063d52bb6f414610553578063e809529e1461057b578063e8d991d11461059b578063e94b0dd2146105a3578063f525cb68146105b6578063f7c618c1146105e2578063f9467a32146105f7575b600080fd5b6101b96101b4366004614bdb565b61061a565b005b6000546101d4906201000090046001600160a01b031681565b6040516101e19190614ca1565b60405180910390f35b60055461020090600160c01b900462ffffff1681565b60405162ffffff90911681526020016101e1565b610234610222366004614bdb565b600a6020526000908152604090205481565b6040519081526020016101e1565b6101b9610250366004614b41565b61074b565b6101b9610263366004614911565b61088b565b610270610af8565b6040516101e19190614d0c565b6101b961028b366004614851565b610b5a565b6102a361029e3660046147f7565b610d9c565b60405190151581526020016101e1565b6102346102c136600461489b565b610dba565b6102346102d4366004614bf7565b63ffffffff821660009081526006602090815260408083206001600160a01b038516845290915290205492915050565b610234610312366004614bf7565b600660209081526000928352604080842090915290825290205481565b61034261033d366004614a7b565b610de2565b6040516101e19190614d1f565b6101b961035d366004614bf7565b610ed7565b6101b9610370366004614bdb565b611003565b6101b961103b565b6101b961038b3660046148db565b611250565b6102a361039e3660046147bf565b61139f565b6101b96103b1366004614bf7565b6113c0565b6101b96103c4366004614a7b565b6114e8565b6104366103d7366004614bdb565b60408051606080820183526000808352602080840182905292840181905263ffffffff94909416845260078252928290208251938401835280546001600160a01b03908116855260018201541691840191909152600201549082015290565b6040805182516001600160a01b0390811682526020808501519091169082015291810151908201526060016101e1565b6101b9610474366004614787565b611660565b6101b9610487366004614787565b6118a1565b6101b961049a366004614bdb565b611a9a565b6101b96104ad3660046148db565b611bc2565b6102a36104c0366004614787565b6001600160a01b031660009081526001602052604090205460ff1690565b6102346104ec36600461489b565b611c34565b61052d6104ff366004614bdb565b6007602052600090815260409020805460018201546002909201546001600160a01b03918216929091169083565b604080516001600160a01b039485168152939092166020840152908201526060016101e1565b6105666105613660046147bf565b611c81565b604080519283526020830191909152016101e1565b610234610589366004614bdb565b60096020526000908152604090205481565b6101b9611d5a565b6101d46105b1366004614b5b565b611ec6565b6005546105cd90600160a01b900463ffffffff1681565b60405163ffffffff90911681526020016101e1565b6101d46000805160206151a383398151915281565b6102a3610605366004614bdb565b60086020526000908152604090205460ff1681565b600080546040516337c61fc560e11b8152620100009091046001600160a01b031691636f8c3f8a9161064f9190600401614d63565b60206040518083038186803b15801561066757600080fd5b505afa15801561067b573d6000803e3d6000fd5b505050506040513d601f19601f8201168201806040525081019061069f91906147a3565b6001600160a01b031663f3ae2415336040518263ffffffff1660e01b81526004016106ca9190614ca1565b60206040518083038186803b1580156106e257600080fd5b505afa1580156106f6573d6000803e3d6000fd5b505050506040513d601f19601f8201168201806040525081019061071a9190614aea565b61073f5760405162461bcd60e51b815260040161073690614e5a565b60405180910390fd5b61074881611ef0565b50565b600080546040516337c61fc560e11b8152620100009091046001600160a01b031691636f8c3f8a916107809190600401614d63565b60206040518083038186803b15801561079857600080fd5b505afa1580156107ac573d6000803e3d6000fd5b505050506040513d601f19601f820116820180604052508101906107d091906147a3565b6001600160a01b031663f3ae2415336040518263ffffffff1660e01b81526004016107fb9190614ca1565b60206040518083038186803b15801561081357600080fd5b505afa158015610827573d6000803e3d6000fd5b505050506040513d601f19601f8201168201806040525081019061084b9190614aea565b6108675760405162461bcd60e51b815260040161073690614e5a565b6005805462ffffff909216600160c01b0262ffffff60c01b19909216919091179055565b600054610100900460ff166108a65760005460ff16156108ae565b6108ae611f63565b6109115760405162461bcd60e51b815260206004820152602e60248201527f496e697469616c697a61626c653a20636f6e747261637420697320616c72656160448201526d191e481a5b9a5d1a585b1a5e995960921b6064820152608401610736565b600054610100900460ff16158015610933576000805461ffff19166101011790555b6001600160a01b0384166109595760405162461bcd60e51b815260040161073690614e35565b6001600160a01b03831661097f5760405162461bcd60e51b815260040161073690614e35565b6109898686611f74565b600380546001600160a01b03199081166001600160a01b03878116919091178355600480549092168682161782556005805462ffffff60c01b1916600160c01b62ffffff8816021790556000546040516337c61fc560e11b81526201000090910490911692636f8c3f8a926109fe9201614d63565b60206040518083038186803b158015610a1657600080fd5b505afa158015610a2a573d6000803e3d6000fd5b505050506040513d601f19601f82011682018060405250810190610a4e91906147a3565b6001600160a01b0316638b9c94896040518163ffffffff1660e01b815260040160206040518083038186803b158015610a8657600080fd5b505afa158015610a9a573d6000803e3d6000fd5b505050506040513d601f19601f82011682018060405250810190610abe91906147a3565b600580546001600160a01b0319166001600160a01b03929092169190911790558015610af0576000805461ff00191690555b505050505050565b60606002805480602002602001604051908101604052809291908181526020018280548015610b5057602002820191906000526020600020905b81546001600160a01b03168152600190910190602001808311610b32575b5050505050905090565b600080546040516337c61fc560e11b8152620100009091046001600160a01b031691636f8c3f8a91610b8f9190600401614d63565b60206040518083038186803b158015610ba757600080fd5b505afa158015610bbb573d6000803e3d6000fd5b505050506040513d601f19601f82011682018060405250810190610bdf91906147a3565b6001600160a01b031663f3ae2415336040518263ffffffff1660e01b8152600401610c0a9190614ca1565b60206040518083038186803b158015610c2257600080fd5b505afa158015610c36573d6000803e3d6000fd5b505050506040513d601f19601f82011682018060405250810190610c5a9190614aea565b610c765760405162461bcd60e51b815260040161073690614e5a565b60058054600160a01b900463ffffffff16906014610c938361511d565b82546101009290920a63ffffffff818102199093169183160217909155600554600160a01b9004169050600080610cca86866120c9565b63ffffffff8516600081815260086020908152604080832080548b151560ff1990911617905580516060810182526001600160a01b038088168252808716828501908152828401868152968652600790945291909320925183549082166001600160a01b0319918216178455915160018401805491831691909316179091559151600290910155600454929450909250610d669184911661219e565b600454610d7d9082906001600160a01b031661219e565b610af0610d8b838387612238565b6004546001600160a01b031661219e565b6000610dad868686868660016122c6565b5060019695505050505050565b6000806000610dc98686611c81565b91509150610dd88483836124c5565b9695505050505050565b6060816001600160401b03811115610e0a57634e487b7160e01b600052604160045260246000fd5b604051908082528060200260200182016040528015610e33578160200160208202803683370190505b50905060005b82811015610ed05760096000858584818110610e6557634e487b7160e01b600052603260045260246000fd5b9050602002016020810190610e7a9190614bdb565b63ffffffff1663ffffffff16815260200190815260200160002054828281518110610eb557634e487b7160e01b600052603260045260246000fd5b6020908102919091010152610ec981615102565b9050610e39565b5092915050565b600080546040516337c61fc560e11b8152620100009091046001600160a01b031691636f8c3f8a91610f0c9190600401614d63565b60206040518083038186803b158015610f2457600080fd5b505afa158015610f38573d6000803e3d6000fd5b505050506040513d601f19601f82011682018060405250810190610f5c91906147a3565b6001600160a01b031663f3ae2415336040518263ffffffff1660e01b8152600401610f879190614ca1565b60206040518083038186803b158015610f9f57600080fd5b505afa158015610fb3573d6000803e3d6000fd5b505050506040513d601f19601f82011682018060405250810190610fd79190614aea565b610ff35760405162461bcd60e51b815260040161073690614e5a565b610fff828260006125cb565b5050565b3360009081526001602052604090205460ff166110325760405162461bcd60e51b815260040161073690614ea8565b610748816128b7565b600080546040516337c61fc560e11b8152620100009091046001600160a01b031691636f8c3f8a916110709190600401614d63565b60206040518083038186803b15801561108857600080fd5b505afa15801561109c573d6000803e3d6000fd5b505050506040513d601f19601f820116820180604052508101906110c091906147a3565b6001600160a01b031663f3ae2415336040518263ffffffff1660e01b81526004016110eb9190614ca1565b60206040518083038186803b15801561110357600080fd5b505afa158015611117573d6000803e3d6000fd5b505050506040513d601f19601f8201168201806040525081019061113b9190614aea565b6111575760405162461bcd60e51b815260040161073690614e5a565b60045461117c906000805160206151a3833981519152906001600160a01b031661219e565b60015b60055463ffffffff600160a01b9091048116908216116107485763ffffffff8116600090815260076020908152604091829020825160608101845281546001600160a01b039081168083526001840154821694830194909452600290920154938101939093526004546111f392911661219e565b602081015160045461120e91906001600160a01b031661219e565b805160208083015163ffffffff85166000908152600890925260409091205461123f92610d8b92909160ff16612238565b506112498161511d565b905061117f565b3360009081526001602052604090205460ff1661127f5760405162461bcd60e51b815260040161073690614ea8565b63ffffffff811660009081526006602090815260408083206001600160a01b0387168452909152902054821161138c5763ffffffff811660009081526006602090815260408083206001600160a01b0387168452909152812080548492906112e89084906150bf565b9091555050600080546040516337c61fc560e11b815261138792620100009092046001600160a01b031691636f8c3f8a916113269190600401614d63565b60206040518083038186803b15801561133e57600080fd5b505afa158015611352573d6000803e3d6000fd5b505050506040513d601f19601f8201168201806040525081019061137691906147a3565b6001600160a01b0385169084612be6565b505050565b6113998383836001612c3c565b50505050565b6000806113ae84846001612238565b6001600160a01b031614159392505050565b600080546040516337c61fc560e11b8152620100009091046001600160a01b031691636f8c3f8a916113f59190600401614d63565b60206040518083038186803b15801561140d57600080fd5b505afa158015611421573d6000803e3d6000fd5b505050506040513d601f19601f8201168201806040525081019061144591906147a3565b6001600160a01b031663f3ae2415336040518263ffffffff1660e01b81526004016114709190614ca1565b60206040518083038186803b15801561148857600080fd5b505afa15801561149c573d6000803e3d6000fd5b505050506040513d601f19601f820116820180604052508101906114c09190614aea565b6114dc5760405162461bcd60e51b815260040161073690614e5a565b610fff828260016125cb565b600080546040516337c61fc560e11b8152620100009091046001600160a01b031691636f8c3f8a9161151d9190600401614d63565b60206040518083038186803b15801561153557600080fd5b505afa158015611549573d6000803e3d6000fd5b505050506040513d601f19601f8201168201806040525081019061156d91906147a3565b6001600160a01b031663f3ae2415336040518263ffffffff1660e01b81526004016115989190614ca1565b60206040518083038186803b1580156115b057600080fd5b505afa1580156115c4573d6000803e3d6000fd5b505050506040513d601f19601f820116820180604052508101906115e89190614aea565b6116045760405162461bcd60e51b815260040161073690614e5a565b8060005b818110156113995761165084848381811061163357634e487b7160e01b600052603260045260246000fd5b90506020020160208101906116489190614bdb565b6001806134b5565b61165981615102565b9050611608565b600080546040516337c61fc560e11b8152620100009091046001600160a01b031691636f8c3f8a916116959190600401614d63565b60206040518083038186803b1580156116ad57600080fd5b505afa1580156116c1573d6000803e3d6000fd5b505050506040513d601f19601f820116820180604052508101906116e591906147a3565b6001600160a01b0316632f54bf6e336040518263ffffffff1660e01b81526004016117109190614ca1565b60206040518083038186803b15801561172857600080fd5b505afa15801561173c573d6000803e3d6000fd5b505050506040513d601f19601f820116820180604052508101906117609190614aea565b61177c5760405162461bcd60e51b815260040161073690614deb565b600c80546001600160a01b0319166001600160a01b03838116918217909255600554604051636eb1769f60e11b815292169163dd62ed3e916117c391309190600401614cb5565b60206040518083038186803b1580156117db57600080fd5b505afa1580156117ef573d6000803e3d6000fd5b505050506040513d601f19601f820116820180604052508101906118139190614b73565b61074857600554600c5460405163095ea7b360e01b81526001600160a01b039283169263095ea7b39261184f9291169060001990600401614cf3565b602060405180830381600087803b15801561186957600080fd5b505af115801561187d573d6000803e3d6000fd5b505050506040513d601f19601f82011682018060405250810190610fff9190614aea565b600080546040516337c61fc560e11b8152620100009091046001600160a01b031691636f8c3f8a916118d69190600401614d63565b60206040518083038186803b1580156118ee57600080fd5b505afa158015611902573d6000803e3d6000fd5b505050506040513d601f19601f8201168201806040525081019061192691906147a3565b6001600160a01b0316632f54bf6e336040518263ffffffff1660e01b81526004016119519190614ca1565b60206040518083038186803b15801561196957600080fd5b505afa15801561197d573d6000803e3d6000fd5b505050506040513d601f19601f820116820180604052508101906119a19190614aea565b6119bd5760405162461bcd60e51b815260040161073690614deb565b6001600160a01b03811660009081526001602081905260408220805460ff19169091179055805b600254811015611a435760028181548110611a0f57634e487b7160e01b600052603260045260246000fd5b6000918252602090912001546001600160a01b0384811691161415611a3357600191505b611a3c81615102565b90506119e4565b5080610fff57600280546001810182556000919091527f405787fa12a823e0f2b7631cc41b3ba8828b3321ca811111fa75cd3aa3bb5ace0180546001600160a01b0384166001600160a01b03199091161790555050565b600080546040516337c61fc560e11b8152620100009091046001600160a01b031691636f8c3f8a91611acf9190600401614d63565b60206040518083038186803b158015611ae757600080fd5b505afa158015611afb573d6000803e3d6000fd5b505050506040513d601f19601f82011682018060405250810190611b1f91906147a3565b6001600160a01b031663f3ae2415336040518263ffffffff1660e01b8152600401611b4a9190614ca1565b60206040518083038186803b158015611b6257600080fd5b505afa158015611b76573d6000803e3d6000fd5b505050506040513d601f19601f82011682018060405250810190611b9a9190614aea565b611bb65760405162461bcd60e51b815260040161073690614e5a565b610748816001806134b5565b3360009081526001602052604090205460ff16611bf15760405162461bcd60e51b815260040161073690614ea8565b63ffffffff811660009081526006602090815260408083206001600160a01b038716845290915281208054849290611c2a908490615044565b9091555050505050565b600554600090620f424090611c5590600160c01b900462ffffff168261509b565b62ffffff16611c65868686610dba565b611c6f919061507c565b611c79919061505c565b949350505050565b6000806000611c9085856120c9565b509050600080611ca287876001612238565b6001600160a01b0316630902f1ac6040518163ffffffff1660e01b815260040160606040518083038186803b158015611cda57600080fd5b505afa158015611cee573d6000803e3d6000fd5b505050506040513d601f19601f82011682018060405250810190611d129190614b06565b506001600160701b031691506001600160701b03169150826001600160a01b0316876001600160a01b031614611d49578082611d4c565b81815b909890975095505050505050565b3360009081526001602052604090205460ff16611d895760405162461bcd60e51b815260040161073690614ea8565b6000805b60055463ffffffff600160a01b909104811690821611611e1b5763ffffffff81166000908152600960205260409020548015611e0a57611dcd8184615044565b63ffffffff83166000908152600960209081526040808320839055600a909152812080549295508592909190611e04908490615044565b90915550505b50611e148161511d565b9050611d8d565b50801561074857600c5460055460405163a8031a1d60e01b81526001600160a01b039283169263a8031a1d92611e58929116908590600401614cf3565b600060405180830381600087803b158015611e7257600080fd5b505af1158015611e86573d6000803e3d6000fd5b505050507fd0e841f234010ad7f57b7c09faffb2245cd240429c6e8fa3cd934a0a8bf58eb081604051611ebb91815260200190565b60405180910390a150565b60028181548110611ed657600080fd5b6000918252602090912001546001600160a01b0316905081565b63ffffffff81166000908152600b602052604080822054905163c6f678bd60e01b815260048101929092526001600160a01b03169063c6f678bd90602401600060405180830381600087803b158015611f4857600080fd5b505af1158015611f5c573d6000803e3d6000fd5b5050505050565b6000611f6e30613526565b15905090565b600054610100900460ff16611f9b5760405162461bcd60e51b815260040161073690614efc565b6001600160a01b038116611fc15760405162461bcd60e51b815260040161073690614e35565b60005b82518110156120375760006001600160a01b0316838281518110611ff857634e487b7160e01b600052603260045260246000fd5b60200260200101516001600160a01b031614156120275760405162461bcd60e51b815260040161073690614e35565b61203081615102565b9050611fc4565b5060005b82518110156120ab57600180600085848151811061206957634e487b7160e01b600052603260045260246000fd5b6020908102919091018101516001600160a01b03168252810191909152604001600020805460ff19169115159190911790556120a481615102565b905061203b565b5081516120bf9060029060208501906146d3565b50610fff81613535565b600080826001600160a01b0316846001600160a01b0316141561212a5760405162461bcd60e51b81526020600482015260196024820152784964656e746963616c20746f6b656e2061646472657373657360381b6044820152606401610736565b826001600160a01b0316846001600160a01b03161061214a57828461214d565b83835b90925090506001600160a01b0382166121975760405162461bcd60e51b815260206004820152600c60248201526b5a65726f206164647265737360a01b6044820152606401610736565b9250929050565b604051636eb1769f60e11b815282906001600160a01b0382169063dd62ed3e906121ce9030908690600401614cb5565b60206040518083038186803b1580156121e657600080fd5b505afa1580156121fa573d6000803e3d6000fd5b505050506040513d601f19601f8201168201806040525081019061221e9190614b73565b611387576113876001600160a01b03821683600019613586565b6003546040516306801cc360e41b81526001600160a01b038581166004830152848116602483015283151560448301526000921690636801cc309060640160206040518083038186803b15801561228e57600080fd5b505afa1580156122a2573d6000803e3d6000fd5b505050506040513d601f19601f82011682018060405250810190611c7991906147a3565b60408051600180825281830190925260609160009190816020015b60408051606081018252600080825260208083018290529282015282526000199092019101816122e15790505090506040518060600160405280896001600160a01b03168152602001886001600160a01b031681526020018415158152508160008151811061236057634e487b7160e01b600052603260045260246000fd5b602090810291909101015260048054604051636eb1769f60e11b8152429288926001600160a01b03808e169363dd62ed3e936123a0933093169101614cb5565b60206040518083038186803b1580156123b857600080fd5b505afa1580156123cc573d6000803e3d6000fd5b505050506040513d601f19601f820116820180604052508101906123f09190614b73565b101561242b57600454612411906001600160a01b038b811691166000613586565b60045461242b906001600160a01b038b8116911688613586565b60048054604051631e82ecdb60e31b81526001600160a01b039091169163f41766d891612462918a918a9188918e91899101614f47565b600060405180830381600087803b15801561247c57600080fd5b505af1158015612490573d6000803e3d6000fd5b505050506040513d6000823e601f3d908101601f191682016040526124b891908101906149f5565b9998505050505050505050565b60008084116125215760405162461bcd60e51b815260206004820152602260248201527f616d6f756e74496e206d7573742062652067726561746572207468616e207a65604482015261726f60f01b6064820152608401610736565b6000831180156125315750600082115b61257d5760405162461bcd60e51b815260206004820152601d60248201527f4e6f206c697175696469747920696e20706f6f6c2072657365727665730000006044820152606401610736565b600061258b856103e561507c565b90506000612599848361507c565b90506000826125aa876103e861507c565b6125b49190615044565b90506125c0818361505c565b979650505050505050565b63ffffffff8316600090815260076020908152604091829020825160608101845281546001600160a01b03908116808352600184015490911693820193909352600290910154928101929092526126595760405162461bcd60e51b8152602060048201526012602482015271141bdbdb08191bd95cdb89dd08195e1a5cdd60721b6044820152606401610736565b6001821515146126cc5763ffffffff84166000908152600b60205260409020546001600160a01b0316156126cc5760405162461bcd60e51b815260206004820152601a60248201527914dd185ada5b99c8185b1c9958591e4818dbdb999a59dd5c995960321b6044820152606401610736565b805160208083015163ffffffff871660009081526008909252604082205491926126fb9290919060ff16612238565b90506000849050816001600160a01b0316816001600160a01b0316633a4b66f16040518163ffffffff1660e01b815260040160206040518083038186803b15801561274557600080fd5b505afa158015612759573d6000803e3d6000fd5b505050506040513d601f19601f8201168201806040525081019061277d91906147a3565b6001600160a01b0316146127cd5760405162461bcd60e51b8152602060048201526017602482015276496e636f7272656374206761756765206164647265737360481b6044820152606401610736565b63ffffffff86166000908152600b60205260409081902080546001600160a01b0319166001600160a01b03848116919091179091559051636eb1769f60e11b81528391600019919083169063dd62ed3e9061282e9030908b90600401614cb5565b60206040518083038186803b15801561284657600080fd5b505afa15801561285a573d6000803e3d6000fd5b505050506040513d601f19601f8201168201806040525081019061287e9190614b73565b116128ae576128986001600160a01b038216876000613586565b6128ae6001600160a01b03821687600019613586565b50505050505050565b63ffffffff8116600090815260076020908152604091829020825160608101845281546001600160a01b03908116808352600184015490911693820193909352600290910154928101929092526129455760405162461bcd60e51b81526020600482015260126024820152711c1bdbdb08191bd95cdb89dd08195e1a5cdd60721b6044820152606401610736565b63ffffffff8216600081815260066020818152604080842086516001600160a01b03908116865281845282862054968652938352868301519093168452919052902054811580612993575080155b1561299e5750505050565b63ffffffff8416600090815260086020908152604082205485519186015160ff909116929182916129cf9190611c81565b915091506000806129e287878686613698565b915091506129f089896137dc565b6129f989613cba565b60048054895160208b0151604051635a47ddc360e01b81526001600160a01b03928316948101949094528116602484015287151560448401526064830185905260848301849052600060a4840181905260c484018190523060e48501524261010485015292839283921690635a47ddc39061012401606060405180830381600087803b158015612a8857600080fd5b505af1158015612a9c573d6000803e3d6000fd5b505050506040513d601f19601f82011682018060405250810190612ac09190614bae565b92509250925082600660008e63ffffffff1663ffffffff16815260200190815260200160002060008d600001516001600160a01b03166001600160a01b031681526020019081526020016000206000828254612b1c91906150bf565b909155505063ffffffff8c1660009081526006602090815260408083208e8301516001600160a01b0316845290915281208054849290612b5d9084906150bf565b90915550612b6c90508c611ef0565b6040518181527f250600b7e1d8b908a0f07fa409e087c1b43ef3a5de3c0e23a41998c311f0ea909060200160405180910390a17fb28fd890673610fa2a3efb1cf64ae1b26dd83c3261fbd99f0d4a5821ccdaa9938c82604051612bd0929190614fdb565b60405180910390a1505050505050505050505050565b6113878363a9059cbb60e01b8484604051602401612c05929190614cf3565b60408051601f198184030181529190526020810180516001600160e01b03166001600160e01b031990931692909217909152613fed565b600080546040516337c61fc560e11b815282916201000090046001600160a01b031690636f8c3f8a90612c7490600390600401614d63565b60206040518083038186803b158015612c8c57600080fd5b505afa158015612ca0573d6000803e3d6000fd5b505050506040513d601f19601f82011682018060405250810190612cc491906147a3565b6001600160a01b03166344fc9b566040518163ffffffff1660e01b815260040160206040518083038186803b158015612cfc57600080fd5b505afa158015612d10573d6000803e3d6000fd5b505050506040513d601f19601f82011682018060405250810190612d3491906147a3565b63ffffffff85166000818152600760209081526040808320815160608101835281546001600160a01b0390811682526001830154168185019081526002909201548184015294845260089092529091205482519151939450919260ff90921691612d9e91906140bf565b612daa866001806134b5565b6000836001600160a01b031683600001516001600160a01b03161480612de55750836001600160a01b031683602001516001600160a01b0316145b612df0576001612df3565b60025b60ff169050600080612e0d85600001518660200151611c81565b90925090506000612f418c612e22868e61507c565b63ffffffff8d166000908152600b6020526040908190205490516370a0823160e01b81526001600160a01b03909116906370a0823190612e66903090600401614ca1565b60206040518083038186803b158015612e7e57600080fd5b505afa158015612e92573d6000803e3d6000fd5b505050506040513d601f19601f82011682018060405250810190612eb69190614b73565b8686612ecb8c600001518d602001518d612238565b6001600160a01b03166318160ddd6040518163ffffffff1660e01b815260040160206040518083038186803b158015612f0357600080fd5b505afa158015612f17573d6000803e3d6000fd5b505050506040513d601f19601f82011682018060405250810190612f3b9190614b73565b8c61440d565b63ffffffff8b166000908152600b602052604090819020549051632e1a7d4d60e01b8152600481018390529192506001600160a01b031690632e1a7d4d90602401600060405180830381600087803b158015612f9c57600080fd5b505af1158015612fb0573d6000803e3d6000fd5b505060048054895160208b015160405163037b79b160e21b81526001600160a01b03928316948101949094528116602484015289151560448401526064830186905260006084840181905260a484018190523060c48501524260e485015294508493501690630dede6c490610104016040805180830381600087803b15801561303857600080fd5b505af115801561304c573d6000803e3d6000fd5b505050506040513d601f19601f820116820180604052508101906130709190614b8b565b915091508d6001600160a01b031688600001516001600160a01b031614156132b05785600214156130e75763ffffffff8c1660009081526006602090815260408083208b8301516001600160a01b0316845290915281208054939b508b938392906130dc908490615044565b909155506131c59050565b6020880151885161318f9190308461318961310384868f612238565b6001600160a01b031663517b3f828f60200151896040518363ffffffff1660e01b8152600401613134929190614cf3565b60206040518083038186803b15801561314c57600080fd5b505afa158015613160573d6000803e3d6000fd5b505050506040513d601f19601f820116820180604052508101906131849190614b73565b6144df565b8c61451f565b6001815181106131af57634e487b7160e01b600052603260045260246000fd5b6020026020010151826131c29190615044565b99505b8a1561326b57600080546040516337c61fc560e11b815261326692620100009092046001600160a01b031691636f8c3f8a916132049190600401614d63565b60206040518083038186803b15801561321c57600080fd5b505afa158015613230573d6000803e3d6000fd5b505050506040513d601f19601f8201168201806040525081019061325491906147a3565b89516001600160a01b0316908c612be6565b61346b565b63ffffffff8c1660009081526006602090815260408083208b516001600160a01b03168452909152812080548c92906132a5908490615044565b9091555061346b9050565b85600214156133035763ffffffff8c1660009081526006602090815260408083208b516001600160a01b0316845290915281208054929b508b928492906132f8908490615044565b909155506133859050565b8751602089015161334f9190308561318961331f85858f612238565b8e516040516328bd9fc160e11b81526001600160a01b03929092169163517b3f8291613134918c90600401614cf3565b60018151811061336f57634e487b7160e01b600052603260045260246000fd5b6020026020010151816133829190615044565b99505b8a1561342957600080546040516337c61fc560e11b815261326692620100009092046001600160a01b031691636f8c3f8a916133c49190600401614d63565b60206040518083038186803b1580156133dc57600080fd5b505afa1580156133f0573d6000803e3d6000fd5b505050506040513d601f19601f8201168201806040525081019061341491906147a3565b60208a01516001600160a01b0316908c612be6565b63ffffffff8c1660009081526006602090815260408083208b8301516001600160a01b03168452909152812080548c9290613465908490615044565b90915550505b7f6fb183d14e6407db4dfb55deb83841283e9e3015e3aabe210d446b16f1ce09378c8b60405161349c929190614fdb565b60405180910390a1505050505050505050949350505050565b63ffffffff8316600090815260076020908152604091829020825160608101845281546001600160a01b0390811680835260018401549091169382019390935260029091015492810192909252156113995782156135175761351784826137dc565b81156113995761139984613cba565b6001600160a01b03163b151590565b600054610100900460ff1661355c5760405162461bcd60e51b815260040161073690614efc565b600080546001600160a01b03909216620100000262010000600160b01b0319909216919091179055565b80158061360e5750604051636eb1769f60e11b81526001600160a01b0384169063dd62ed3e906135bc9030908690600401614cb5565b60206040518083038186803b1580156135d457600080fd5b505afa1580156135e8573d6000803e3d6000fd5b505050506040513d601f19601f8201168201806040525081019061360c9190614b73565b155b6136795760405162461bcd60e51b815260206004820152603660248201527f5361666545524332303a20617070726f76652066726f6d206e6f6e2d7a65726f60448201527520746f206e6f6e2d7a65726f20616c6c6f77616e636560501b6064820152608401610736565b6113878363095ea7b360e01b8484604051602401612c05929190614cf3565b60008082841115613739576000836136b2866103e861507c565b6136bc919061505c565b905060006103e86136cd838961507c565b6136d7919061505c565b90508088101561370257879350816136f1856103e861507c565b6136fb919061505c565b9250613732565b8781101561372b576103e8613717838961507c565b613721919061505c565b9350869250613732565b8793508692505b50506137d3565b828410156137d357600084613750856103e861507c565b61375a919061505c565b905060006103e861376b838a61507c565b613775919061505c565b9050808710156137a0578161378c886103e861507c565b613796919061505c565b93508692506137d0565b868110156137c9578793506103e86137b8838661507c565b6137c2919061505c565b92506137d0565b8793508692505b50505b94509492505050565b63ffffffff8216600090815260086020908152604082205483519184015160ff9091169291829161380e919085612238565b6001600160a01b031663d294f0936040518163ffffffff1660e01b81526004016040805180830381600087803b15801561384757600080fd5b505af115801561385b573d6000803e3d6000fd5b505050506040513d601f19601f8201168201806040525081019061387f9190614b8b565b600080546040516337c61fc560e11b815293955091935091620100009091046001600160a01b031690636f8c3f8a906138bd90600390600401614d63565b60206040518083038186803b1580156138d557600080fd5b505afa1580156138e9573d6000803e3d6000fd5b505050506040513d601f19601f8201168201806040525081019061390d91906147a3565b6001600160a01b03166344fc9b566040518163ffffffff1660e01b815260040160206040518083038186803b15801561394557600080fd5b505afa158015613959573d6000803e3d6000fd5b505050506040513d601f19601f8201168201806040525081019061397d91906147a3565b600554865191925060009182916001600160a01b0391821691161415613a5257826001600160a01b031687602001516001600160a01b031614156139c5575083905082613c3a565b60208701518751613a1891903087613a126139e184868e612238565b6001600160a01b031663517b3f828e602001518c6040518363ffffffff1660e01b8152600401613134929190614cf3565b8b61451f565b600181518110613a3857634e487b7160e01b600052603260045260246000fd5b602002602001015185613a4b9190615044565b9150613c3a565b60055460208801516001600160a01b0390811691161415613b1457826001600160a01b031687600001516001600160a01b03161415613a95575082905083613c3a565b86516020880151613ae191903088613a12613ab185858e612238565b8d516040516328bd9fc160e11b81526001600160a01b03929092169163517b3f8291613134918f90600401614cf3565b600181518110613b0157634e487b7160e01b600052603260045260246000fd5b602002602001015184613a4b9190615044565b826001600160a01b031687600001516001600160a01b03161415613b4357613b3c8582615044565b9050613bae565b86516005546020890151613b7892916001600160a01b03169030908990613b7190613ab19086906000612238565b600061451f565b600181518110613b9857634e487b7160e01b600052603260045260246000fd5b602002602001015182613bab9190615044565b91505b826001600160a01b031687602001516001600160a01b03161415613bdd57613bd68482615044565b9050613c3a565b6020870151600554613c0491906001600160a01b03163087613b716139e185856000612238565b600181518110613c2457634e487b7160e01b600052603260045260246000fd5b602002602001015182613c379190615044565b91505b8115613c6b5763ffffffff881660009081526009602052604081208054849290613c65908490615044565b90915550505b8015613cb05763ffffffff881660009081526006602090815260408083206001600160a01b038716845290915281208054839290613caa908490615044565b90915550505b5050505050505050565b604080516001808252818301909252600091602080830190803683370190505090506000805160206151a383398151915281600081518110613d0c57634e487b7160e01b600052603260045260246000fd5b6001600160a01b03909216602092830291909101909101526040516370a0823160e01b81526000805160206151a38339815191529060009082906370a0823190613d5a903090600401614ca1565b60206040518083038186803b158015613d7257600080fd5b505afa158015613d86573d6000803e3d6000fd5b505050506040513d601f19601f82011682018060405250810190613daa9190614b73565b63ffffffff85166000908152600b6020526040908190205490516331279d3d60e01b81529192506001600160a01b0316906331279d3d90613df19030908790600401614ccf565b600060405180830381600087803b158015613e0b57600080fd5b505af1158015613e1f573d6000803e3d6000fd5b50506040516370a0823160e01b8152600092508391506000805160206151a3833981519152906370a0823190613e59903090600401614ca1565b60206040518083038186803b158015613e7157600080fd5b505afa158015613e85573d6000803e3d6000fd5b505050506040513d601f19601f82011682018060405250810190613ea99190614b73565b613eb391906150bf565b90508015611f5c57600554613f8b906000805160206151a3833981519152906001600160a01b031630846064613eeb85856000612238565b6001600160a01b031663517b3f826000805160206151a3833981519152896040518363ffffffff1660e01b8152600401613f26929190614cf3565b60206040518083038186803b158015613f3e57600080fd5b505afa158015613f52573d6000803e3d6000fd5b505050506040513d601f19601f82011682018060405250810190613f769190614b73565b613f8190606361507c565b613b71919061505c565b600181518110613fab57634e487b7160e01b600052603260045260246000fd5b6020026020010151600960008763ffffffff1663ffffffff1681526020019081526020016000206000828254613fe19190615044565b90915550505050505050565b6000614042826040518060400160405280602081526020017f5361666545524332303a206c6f772d6c6576656c2063616c6c206661696c6564815250856001600160a01b03166145659092919063ffffffff16565b80519091501561138757808060200190518101906140609190614aea565b6113875760405162461bcd60e51b815260206004820152602a60248201527f5361666545524332303a204552433230206f7065726174696f6e20646964206e6044820152691bdd081cdd58d8d9595960b21b6064820152608401610736565b600080546040516337c61fc560e11b8152620100009091046001600160a01b031690636f8c3f8a906140f690600790600401614d63565b60206040518083038186803b15801561410e57600080fd5b505afa158015614122573d6000803e3d6000fd5b505050506040513d601f19601f8201168201806040525081019061414691906147a3565b90506000806141558585611c81565b6040516310612a1960e31b815291935091506000906001600160a01b0385169063830950c890614189908990600401614ca1565b60206040518083038186803b1580156141a157600080fd5b505afa1580156141b5573d6000803e3d6000fd5b505050506040513d601f19601f820116820180604052508101906141d991906147a3565b6001600160a01b0316146142fe576000849050600080826001600160a01b031663f7a54c806040518163ffffffff1660e01b8152600401604080518083038186803b15801561422757600080fd5b505afa15801561423b573d6000803e3d6000fd5b505050506040513d601f19601f8201168201806040525081019061425f9190614c14565b915091508063ffffffff168263ffffffff1610156142b9576142878563ffffffff831661507c565b6142978563ffffffff851661507c565b106142b45760405162461bcd60e51b815260040161073690614dbe565b6142f6565b6142c98563ffffffff831661507c565b6142d98563ffffffff851661507c565b116142f65760405162461bcd60e51b815260040161073690614dbe565b505050611f5c565b6000859050600080826001600160a01b031663f7a54c806040518163ffffffff1660e01b8152600401604080518083038186803b15801561433e57600080fd5b505afa158015614352573d6000803e3d6000fd5b505050506040513d601f19601f820116820180604052508101906143769190614c14565b915091508063ffffffff168263ffffffff1610156143d05761439e8463ffffffff831661507c565b6143ae8663ffffffff851661507c565b106143cb5760405162461bcd60e51b815260040161073690614dbe565b613cb0565b6143e08463ffffffff831661507c565b6143f08663ffffffff851661507c565b11613cb05760405162461bcd60e51b815260040161073690614dbe565b60008082600001516001600160a01b0316896001600160a01b03161415614460578315614456578361444787670de0b6b3a764000061507c565b614451919061505c565b614459565b60005b905061448e565b8315614488578361447986670de0b6b3a764000061507c565b614483919061505c565b61448b565b60005b90505b8061449d5760009150506125c0565b806144a960028a61505c565b6144bb90670de0b6b3a764000061507c565b6144c5919061505c565b9150868211156144d3578691505b50979650505050505050565b600554600090620f42409061450090600160c01b900462ffffff168261509b565b61450f9062ffffff168461507c565b614519919061505c565b92915050565b6060831561453c576145358787878787876122c6565b9050610dd8565b604080516002808252606082018352909160208301908036833701905050979650505050505050565b6060611c79848460008561457b565b9392505050565b6060824710156145dc5760405162461bcd60e51b815260206004820152602660248201527f416464726573733a20696e73756666696369656e742062616c616e636520666f6044820152651c8818d85b1b60d21b6064820152608401610736565b6145e585613526565b6146315760405162461bcd60e51b815260206004820152601d60248201527f416464726573733a2063616c6c20746f206e6f6e2d636f6e74726163740000006044820152606401610736565b600080866001600160a01b0316858760405161464d9190614c85565b60006040518083038185875af1925050503d806000811461468a576040519150601f19603f3d011682016040523d82523d6000602084013e61468f565b606091505b50915091506125c0828286606083156146a9575081614574565b8251156146b95782518084602001fd5b8160405162461bcd60e51b81526004016107369190614d8b565b828054828255906000526020600020908101928215614728579160200282015b8281111561472857825182546001600160a01b0319166001600160a01b039091161782556020909201916001909101906146f3565b50614734929150614738565b5090565b5b808211156147345760008155600101614739565b80356147588161516d565b919050565b80516001600160701b038116811461475857600080fd5b803562ffffff8116811461475857600080fd5b600060208284031215614798578081fd5b81356145748161516d565b6000602082840312156147b4578081fd5b81516145748161516d565b600080604083850312156147d1578081fd5b82356147dc8161516d565b915060208301356147ec8161516d565b809150509250929050565b600080600080600060a0868803121561480e578081fd5b85356148198161516d565b945060208601356148298161516d565b935060408601356148398161516d565b94979396509394606081013594506080013592915050565b600080600060608486031215614865578283fd5b83356148708161516d565b925060208401356148808161516d565b9150604084013561489081615182565b809150509250925092565b6000806000606084860312156148af578283fd5b83356148ba8161516d565b925060208401356148ca8161516d565b929592945050506040919091013590565b6000806000606084860312156148ef578283fd5b83356148fa8161516d565b925060208401359150604084013561489081615190565b600080600080600060a08688031215614928578081fd5b85356001600160401b0381111561493d578182fd5b8601601f8101881361494d578182fd5b8035602061496261495d83615021565b614ff1565b8083825282820191508285018c848660051b8801011115614981578687fd5b8695505b848610156149ac5780356149988161516d565b835260019590950194918301918301614985565b5098506149bc905089820161474d565b96505050506149cd6040870161474d565b92506149db6060870161474d565b91506149e960808701614774565b90509295509295909350565b60006020808385031215614a07578182fd5b82516001600160401b03811115614a1c578283fd5b8301601f81018513614a2c578283fd5b8051614a3a61495d82615021565b80828252848201915084840188868560051b8701011115614a59578687fd5b8694505b838510156144d3578051835260019490940193918501918501614a5d565b60008060208385031215614a8d578182fd5b82356001600160401b0380821115614aa3578384fd5b818501915085601f830112614ab6578384fd5b813581811115614ac4578485fd5b8660208260051b8501011115614ad8578485fd5b60209290920196919550909350505050565b600060208284031215614afb578081fd5b815161457481615182565b600080600060608486031215614b1a578081fd5b614b238461475d565b9250614b316020850161475d565b9150604084015161489081615190565b600060208284031215614b52578081fd5b61457482614774565b600060208284031215614b6c578081fd5b5035919050565b600060208284031215614b84578081fd5b5051919050565b60008060408385031215614b9d578182fd5b505080516020909101519092909150565b600080600060608486031215614bc2578081fd5b8351925060208401519150604084015190509250925092565b600060208284031215614bec578081fd5b813561457481615190565b60008060408385031215614c09578182fd5b82356147dc81615190565b60008060408385031215614c26578182fd5b8251614c3181615190565b60208401519092506147ec81615190565b6000815180845260208085019450808401835b83811015614c7a5781516001600160a01b031687529582019590820190600101614c55565b509495945050505050565b60008251614c978184602087016150d6565b9190910192915050565b6001600160a01b0391909116815260200190565b6001600160a01b0392831681529116602082015260400190565b6001600160a01b0383168152604060208201819052600090611c7990830184614c42565b6001600160a01b03929092168252602082015260400190565b6020815260006145746020830184614c42565b6020808252825182820181905260009190848201906040850190845b81811015614d5757835183529284019291840191600101614d3b565b50909695505050505050565b60208101600e8310614d8557634e487b7160e01b600052602160045260246000fd5b91905290565b6020815260008251806020840152614daa8160408501602087016150d6565b601f01601f19169190910160400192915050565b60208082526013908201527210d95a5b1a5b99d31a5b5a5d14995858da1959606a1b604082015260600190565b6020808252602a908201527f436f6e74726f6c6c65643a3a6f6e6c794f776e65723a2043616c6c6572206973604082015269103737ba1037bbb732b960b11b606082015260800190565b6020808252600b908201526a626164206164647265737360a81b604082015260600190565b6020808252602e908201527f436f6e74726f6c6c65643a3a6f6e6c794d616e616765723a2043616c6c65722060408201526d34b9903737ba1036b0b730b3b2b960911b606082015260800190565b60208082526034908201527f436f6e74726f6c6c65643a3a6f6e6c79436f6e74726f6c6c65723a2043616c6c60408201527332b91034b9903737ba1031b7b73a3937b63632b960611b606082015260800190565b6020808252602b908201527f496e697469616c697a61626c653a20636f6e7472616374206973206e6f74206960408201526a6e697469616c697a696e6760a81b606082015260800190565b600060a0820187835260208781850152604060a08186015282885180855260c087019150838a019450855b81811015614faf57855180516001600160a01b03908116855286820151168685015284015115158484015294840194606090920191600101614f72565b50506001600160a01b03881660608701529350614fcb92505050565b8260808301529695505050505050565b63ffffffff929092168252602082015260400190565b604051601f8201601f191681016001600160401b038111828210171561501957615019615157565b604052919050565b60006001600160401b0382111561503a5761503a615157565b5060051b60200190565b6000821982111561505757615057615141565b500190565b60008261507757634e487b7160e01b81526012600452602481fd5b500490565b600081600019048311821515161561509657615096615141565b500290565b600062ffffff838116908316818110156150b7576150b7615141565b039392505050565b6000828210156150d1576150d1615141565b500390565b60005b838110156150f15781810151838201526020016150d9565b838111156113995750506000910152565b600060001982141561511657615116615141565b5060010190565b600063ffffffff8083168181141561513757615137615141565b6001019392505050565b634e487b7160e01b600052601160045260246000fd5b634e487b7160e01b600052604160045260246000fd5b6001600160a01b038116811461074857600080fd5b801515811461074857600080fd5b63ffffffff8116811461074857600080fdfe000000000000000000000000b27bbeaaca2c00d6258c3118bab6b5b6975161c8a264697066735822122013a8e3e949ef69fe1977496fa76eeb45d74f298bd85a15c3d47bfe1514d0a14d64736f6c63430008040033",
  "devdoc": {
    "kind": "dev",
    "methods": {
      "deploy(uint32)": {
        "details": "Deploys all the tokens for the specified pools"
      },
      "getAmountOut(address,address,uint256)": {
        "params": {
          "amountIn": "The exact amount of the input to swap",
          "tokenIn": "The address of the input token",
          "tokenOut": "The address of the output token"
        },
        "returns": {
          "amountOut": "The estimated amount of tokenOut to receive"
        }
      },
      "getAmountOutMinimum(address,address,uint256)": {
        "params": {
          "amountIn": "The exact amount of the input to swap",
          "tokenIn": "The address of the input token",
          "tokenOut": "The address of the output token"
        },
        "returns": {
          "amountOutMinimum": "The minimum amount of tokenOut to receive, factoring in allowable slippage"
        }
      },
      "harvestYield()": {
        "details": "Harvests token yield from the integration"
      },
      "isPoolExist(address,address)": {
        "params": {
          "_tokenA": "The address of the first  token from the token pair",
          "_tokenB": "The address of the second token from the token pair return true if pool exist else overwise"
        }
      }
    },
    "version": 1
  },
  "userdoc": {
    "events": {
      "CreatePool(address,address,uint32)": {
        "notice": "Events"
      }
    },
    "kind": "user",
    "methods": {},
    "version": 1
  },
  "storageLayout": {
    "storage": [
      {
        "astId": 702,
        "contract": "contracts/yield-integrations/MaiaDaoHermesSyntheticIntegration.sol:MaiaDaoHermesSyntheticIntegration",
        "label": "_initialized",
        "offset": 0,
        "slot": "0",
        "type": "t_bool"
      },
      {
        "astId": 705,
        "contract": "contracts/yield-integrations/MaiaDaoHermesSyntheticIntegration.sol:MaiaDaoHermesSyntheticIntegration",
        "label": "_initializing",
        "offset": 1,
        "slot": "0",
        "type": "t_bool"
      },
      {
        "astId": 15684,
        "contract": "contracts/yield-integrations/MaiaDaoHermesSyntheticIntegration.sol:MaiaDaoHermesSyntheticIntegration",
        "label": "moduleMap",
        "offset": 2,
        "slot": "0",
        "type": "t_contract(IModuleMap)29669"
      },
      {
        "astId": 9016,
        "contract": "contracts/yield-integrations/MaiaDaoHermesSyntheticIntegration.sol:MaiaDaoHermesSyntheticIntegration",
        "label": "_controllers",
        "offset": 0,
        "slot": "1",
        "type": "t_mapping(t_address,t_bool)"
      },
      {
        "astId": 9019,
        "contract": "contracts/yield-integrations/MaiaDaoHermesSyntheticIntegration.sol:MaiaDaoHermesSyntheticIntegration",
        "label": "controllers",
        "offset": 0,
        "slot": "2",
        "type": "t_array(t_address)dyn_storage"
      },
      {
        "astId": 59022,
        "contract": "contracts/yield-integrations/MaiaDaoHermesSyntheticIntegration.sol:MaiaDaoHermesSyntheticIntegration",
        "label": "factoryAddress",
        "offset": 0,
        "slot": "3",
        "type": "t_address"
      },
      {
        "astId": 59024,
        "contract": "contracts/yield-integrations/MaiaDaoHermesSyntheticIntegration.sol:MaiaDaoHermesSyntheticIntegration",
        "label": "swapRouterAddress",
        "offset": 0,
        "slot": "4",
        "type": "t_address"
      },
      {
        "astId": 59026,
        "contract": "contracts/yield-integrations/MaiaDaoHermesSyntheticIntegration.sol:MaiaDaoHermesSyntheticIntegration",
        "label": "wnativeAddress",
        "offset": 0,
        "slot": "5",
        "type": "t_address"
      },
      {
        "astId": 59028,
        "contract": "contracts/yield-integrations/MaiaDaoHermesSyntheticIntegration.sol:MaiaDaoHermesSyntheticIntegration",
        "label": "poolCount",
        "offset": 20,
        "slot": "5",
        "type": "t_uint32"
      },
      {
        "astId": 59033,
        "contract": "contracts/yield-integrations/MaiaDaoHermesSyntheticIntegration.sol:MaiaDaoHermesSyntheticIntegration",
        "label": "slippageNumerator",
        "offset": 24,
        "slot": "5",
        "type": "t_uint24"
      },
      {
        "astId": 59039,
        "contract": "contracts/yield-integrations/MaiaDaoHermesSyntheticIntegration.sol:MaiaDaoHermesSyntheticIntegration",
        "label": "balances",
        "offset": 0,
        "slot": "6",
        "type": "t_mapping(t_uint32,t_mapping(t_address,t_uint256))"
      },
      {
        "astId": 59044,
        "contract": "contracts/yield-integrations/MaiaDaoHermesSyntheticIntegration.sol:MaiaDaoHermesSyntheticIntegration",
        "label": "pools",
        "offset": 0,
        "slot": "7",
        "type": "t_mapping(t_uint32,t_struct(Pool)27393_storage)"
      },
      {
        "astId": 59048,
        "contract": "contracts/yield-integrations/MaiaDaoHermesSyntheticIntegration.sol:MaiaDaoHermesSyntheticIntegration",
        "label": "stablePools",
        "offset": 0,
        "slot": "8",
        "type": "t_mapping(t_uint32,t_bool)"
      },
      {
        "astId": 59052,
        "contract": "contracts/yield-integrations/MaiaDaoHermesSyntheticIntegration.sol:MaiaDaoHermesSyntheticIntegration",
        "label": "yieldBalances",
        "offset": 0,
        "slot": "9",
        "type": "t_mapping(t_uint32,t_uint256)"
      },
      {
        "astId": 59056,
        "contract": "contracts/yield-integrations/MaiaDaoHermesSyntheticIntegration.sol:MaiaDaoHermesSyntheticIntegration",
        "label": "harvestedYield",
        "offset": 0,
        "slot": "10",
        "type": "t_mapping(t_uint32,t_uint256)"
      },
      {
        "astId": 59061,
        "contract": "contracts/yield-integrations/MaiaDaoHermesSyntheticIntegration.sol:MaiaDaoHermesSyntheticIntegration",
        "label": "stakings",
        "offset": 0,
        "slot": "11",
        "type": "t_mapping(t_uint32,t_contract(ISolidlyGauge)30199)"
      },
      {
        "astId": 59064,
        "contract": "contracts/yield-integrations/MaiaDaoHermesSyntheticIntegration.sol:MaiaDaoHermesSyntheticIntegration",
        "label": "smartRewardDistributor",
        "offset": 0,
        "slot": "12",
        "type": "t_contract(ISmartRewardDistributor)30084"
      }
    ],
    "types": {
      "t_address": {
        "encoding": "inplace",
        "label": "address",
        "numberOfBytes": "20"
      },
      "t_array(t_address)dyn_storage": {
        "base": "t_address",
        "encoding": "dynamic_array",
        "label": "address[]",
        "numberOfBytes": "32"
      },
      "t_bool": {
        "encoding": "inplace",
        "label": "bool",
        "numberOfBytes": "1"
      },
      "t_contract(IModuleMap)29669": {
        "encoding": "inplace",
        "label": "contract IModuleMap",
        "numberOfBytes": "20"
      },
      "t_contract(ISmartRewardDistributor)30084": {
        "encoding": "inplace",
        "label": "contract ISmartRewardDistributor",
        "numberOfBytes": "20"
      },
      "t_contract(ISolidlyGauge)30199": {
        "encoding": "inplace",
        "label": "contract ISolidlyGauge",
        "numberOfBytes": "20"
      },
      "t_mapping(t_address,t_bool)": {
        "encoding": "mapping",
        "key": "t_address",
        "label": "mapping(address => bool)",
        "numberOfBytes": "32",
        "value": "t_bool"
      },
      "t_mapping(t_address,t_uint256)": {
        "encoding": "mapping",
        "key": "t_address",
        "label": "mapping(address => uint256)",
        "numberOfBytes": "32",
        "value": "t_uint256"
      },
      "t_mapping(t_uint32,t_bool)": {
        "encoding": "mapping",
        "key": "t_uint32",
        "label": "mapping(uint32 => bool)",
        "numberOfBytes": "32",
        "value": "t_bool"
      },
      "t_mapping(t_uint32,t_contract(ISolidlyGauge)30199)": {
        "encoding": "mapping",
        "key": "t_uint32",
        "label": "mapping(uint32 => contract ISolidlyGauge)",
        "numberOfBytes": "32",
        "value": "t_contract(ISolidlyGauge)30199"
      },
      "t_mapping(t_uint32,t_mapping(t_address,t_uint256))": {
        "encoding": "mapping",
        "key": "t_uint32",
        "label": "mapping(uint32 => mapping(address => uint256))",
        "numberOfBytes": "32",
        "value": "t_mapping(t_address,t_uint256)"
      },
      "t_mapping(t_uint32,t_struct(Pool)27393_storage)": {
        "encoding": "mapping",
        "key": "t_uint32",
        "label": "mapping(uint32 => struct IAMMIntegration.Pool)",
        "numberOfBytes": "32",
        "value": "t_struct(Pool)27393_storage"
      },
      "t_mapping(t_uint32,t_uint256)": {
        "encoding": "mapping",
        "key": "t_uint32",
        "label": "mapping(uint32 => uint256)",
        "numberOfBytes": "32",
        "value": "t_uint256"
      },
      "t_struct(Pool)27393_storage": {
        "encoding": "inplace",
        "label": "struct IAMMIntegration.Pool",
        "members": [
          {
            "astId": 27388,
            "contract": "contracts/yield-integrations/MaiaDaoHermesSyntheticIntegration.sol:MaiaDaoHermesSyntheticIntegration",
            "label": "tokenA",
            "offset": 0,
            "slot": "0",
            "type": "t_address"
          },
          {
            "astId": 27390,
            "contract": "contracts/yield-integrations/MaiaDaoHermesSyntheticIntegration.sol:MaiaDaoHermesSyntheticIntegration",
            "label": "tokenB",
            "offset": 0,
            "slot": "1",
            "type": "t_address"
          },
          {
            "astId": 27392,
            "contract": "contracts/yield-integrations/MaiaDaoHermesSyntheticIntegration.sol:MaiaDaoHermesSyntheticIntegration",
            "label": "positionID",
            "offset": 0,
            "slot": "2",
            "type": "t_uint256"
          }
        ],
        "numberOfBytes": "96"
      },
      "t_uint24": {
        "encoding": "inplace",
        "label": "uint24",
        "numberOfBytes": "3"
      },
      "t_uint256": {
        "encoding": "inplace",
        "label": "uint256",
        "numberOfBytes": "32"
      },
      "t_uint32": {
        "encoding": "inplace",
        "label": "uint32",
        "numberOfBytes": "4"
      }
    }
  }
}