{
  "address": "0xf1f5978d874E84De6B0F3b51a61feEDB41575208",
  "abi": [
    {
      "anonymous": false,
      "inputs": [
        {
          "indexed": true,
          "internalType": "address",
          "name": "tokenA",
          "type": "address"
        },
        {
          "indexed": true,
          "internalType": "address",
          "name": "tokenB",
          "type": "address"
        },
        {
          "indexed": false,
          "internalType": "uint32",
          "name": "poolID",
          "type": "uint32"
        }
      ],
      "name": "CreatePool",
      "type": "event"
    },
    {
      "anonymous": false,
      "inputs": [
        {
          "indexed": false,
          "internalType": "address",
          "name": "token",
          "type": "address"
        },
        {
          "indexed": false,
          "internalType": "uint256",
          "name": "amount",
          "type": "uint256"
        },
        {
          "indexed": false,
          "internalType": "uint32",
          "name": "poolID",
          "type": "uint32"
        }
      ],
      "name": "Deposit",
      "type": "event"
    },
    {
      "anonymous": false,
      "inputs": [
        {
          "indexed": false,
          "internalType": "uint256",
          "name": "poolId",
          "type": "uint256"
        },
        {
          "indexed": false,
          "internalType": "uint256",
          "name": "amount",
          "type": "uint256"
        }
      ],
      "name": "DepositToPool",
      "type": "event"
    },
    {
      "anonymous": false,
      "inputs": [
        {
          "indexed": true,
          "internalType": "uint32",
          "name": "poolID",
          "type": "uint32"
        }
      ],
      "name": "HarvestYieldError",
      "type": "event"
    },
    {
      "anonymous": false,
      "inputs": [
        {
          "indexed": false,
          "internalType": "uint256",
          "name": "amount",
          "type": "uint256"
        }
      ],
      "name": "LPTokensAcquired",
      "type": "event"
    },
    {
      "anonymous": false,
      "inputs": [
        {
          "indexed": false,
          "internalType": "uint256",
          "name": "poolId",
          "type": "uint256"
        },
        {
          "indexed": false,
          "internalType": "address",
          "name": "tokenSold",
          "type": "address"
        },
        {
          "indexed": false,
          "internalType": "uint256",
          "name": "amountSold",
          "type": "uint256"
        },
        {
          "indexed": false,
          "internalType": "address",
          "name": "tokenBought",
          "type": "address"
        },
        {
          "indexed": false,
          "internalType": "uint256",
          "name": "amountBought",
          "type": "uint256"
        }
      ],
      "name": "PoolRebalanced",
      "type": "event"
    },
    {
      "anonymous": false,
      "inputs": [
        {
          "indexed": false,
          "internalType": "uint256",
          "name": "amount",
          "type": "uint256"
        }
      ],
      "name": "TokensReceived",
      "type": "event"
    },
    {
      "anonymous": false,
      "inputs": [
        {
          "indexed": false,
          "internalType": "uint32",
          "name": "source",
          "type": "uint32"
        },
        {
          "indexed": false,
          "internalType": "uint32",
          "name": "destination",
          "type": "uint32"
        },
        {
          "indexed": false,
          "internalType": "uint256[]",
          "name": "amounts",
          "type": "uint256[]"
        },
        {
          "indexed": false,
          "internalType": "address[]",
          "name": "tokens",
          "type": "address[]"
        }
      ],
      "name": "TransferBetweenPools",
      "type": "event"
    },
    {
      "anonymous": false,
      "inputs": [
        {
          "indexed": false,
          "internalType": "uint256",
          "name": "poolId",
          "type": "uint256"
        },
        {
          "indexed": false,
          "internalType": "uint256",
          "name": "amount",
          "type": "uint256"
        }
      ],
      "name": "WithdrawnFromPool",
      "type": "event"
    },
    {
      "anonymous": false,
      "inputs": [
        {
          "indexed": false,
          "internalType": "uint32",
          "name": "poolID",
          "type": "uint32"
        }
      ],
      "name": "YieldHarvested",
      "type": "event"
    },
    {
      "anonymous": false,
      "inputs": [
        {
          "indexed": false,
          "internalType": "uint256",
          "name": "amount",
          "type": "uint256"
        }
      ],
      "name": "YieldReceived",
      "type": "event"
    },
    {
      "inputs": [
        {
          "internalType": "address",
          "name": "controller",
          "type": "address"
        }
      ],
      "name": "addController",
      "outputs": [],
      "stateMutability": "nonpayable",
      "type": "function"
    },
    {
      "inputs": [
        {
          "internalType": "uint32",
          "name": "poolId",
          "type": "uint32"
        },
        {
          "internalType": "uint256",
          "name": "masterChefPoolId",
          "type": "uint256"
        }
      ],
      "name": "configureStaking",
      "outputs": [],
      "stateMutability": "nonpayable",
      "type": "function"
    },
    {
      "inputs": [
        {
          "internalType": "uint32",
          "name": "poolId",
          "type": "uint32"
        },
        {
          "internalType": "uint256",
          "name": "masterChefPoolId",
          "type": "uint256"
        }
      ],
      "name": "configureStakingOverwrite",
      "outputs": [],
      "stateMutability": "nonpayable",
      "type": "function"
    },
    {
      "inputs": [
        {
          "internalType": "uint256",
          "name": "",
          "type": "uint256"
        }
      ],
      "name": "controllers",
      "outputs": [
        {
          "internalType": "address",
          "name": "",
          "type": "address"
        }
      ],
      "stateMutability": "view",
      "type": "function"
    },
    {
      "inputs": [
        {
          "internalType": "uint32",
          "name": "poolId",
          "type": "uint32"
        },
        {
          "internalType": "uint256",
          "name": "max",
          "type": "uint256"
        }
      ],
      "name": "countExtraReward",
      "outputs": [
        {
          "internalType": "uint256",
          "name": "addedReward",
          "type": "uint256"
        },
        {
          "internalType": "uint256",
          "name": "accountedReward",
          "type": "uint256"
        },
        {
          "internalType": "uint256",
          "name": "extraReward",
          "type": "uint256"
        }
      ],
      "stateMutability": "nonpayable",
      "type": "function"
    },
    {
      "inputs": [
        {
          "internalType": "address",
          "name": "tokenA",
          "type": "address"
        },
        {
          "internalType": "address",
          "name": "tokenB",
          "type": "address"
        },
        {
          "internalType": "uint256",
          "name": "",
          "type": "uint256"
        }
      ],
      "name": "createPool",
      "outputs": [],
      "stateMutability": "nonpayable",
      "type": "function"
    },
    {
      "inputs": [
        {
          "internalType": "uint32",
          "name": "poolId",
          "type": "uint32"
        },
        {
          "internalType": "address",
          "name": "token",
          "type": "address"
        },
        {
          "internalType": "uint256",
          "name": "amount",
          "type": "uint256"
        }
      ],
      "name": "decrementBalance",
      "outputs": [],
      "stateMutability": "nonpayable",
      "type": "function"
    },
    {
      "inputs": [
        {
          "internalType": "uint32",
          "name": "poolId",
          "type": "uint32"
        }
      ],
      "name": "deploy",
      "outputs": [],
      "stateMutability": "nonpayable",
      "type": "function"
    },
    {
      "inputs": [
        {
          "internalType": "address",
          "name": "tokenAddress",
          "type": "address"
        },
        {
          "internalType": "uint256",
          "name": "amount",
          "type": "uint256"
        },
        {
          "internalType": "uint32",
          "name": "poolId",
          "type": "uint32"
        }
      ],
      "name": "deposit",
      "outputs": [],
      "stateMutability": "nonpayable",
      "type": "function"
    },
    {
      "inputs": [],
      "name": "getAllControllers",
      "outputs": [
        {
          "internalType": "address[]",
          "name": "currentControllers",
          "type": "address[]"
        }
      ],
      "stateMutability": "view",
      "type": "function"
    },
    {
      "inputs": [
        {
          "internalType": "address",
          "name": "tokenIn",
          "type": "address"
        },
        {
          "internalType": "address",
          "name": "tokenOut",
          "type": "address"
        },
        {
          "internalType": "uint256",
          "name": "amountIn",
          "type": "uint256"
        }
      ],
      "name": "getAmountOut",
      "outputs": [
        {
          "internalType": "uint256",
          "name": "amountOut",
          "type": "uint256"
        }
      ],
      "stateMutability": "view",
      "type": "function"
    },
    {
      "inputs": [
        {
          "internalType": "address",
          "name": "tokenIn",
          "type": "address"
        },
        {
          "internalType": "address",
          "name": "tokenOut",
          "type": "address"
        },
        {
          "internalType": "uint256",
          "name": "amountIn",
          "type": "uint256"
        }
      ],
      "name": "getAmountOutMinimum",
      "outputs": [
        {
          "internalType": "uint256",
          "name": "amountOutMinimum",
          "type": "uint256"
        }
      ],
      "stateMutability": "view",
      "type": "function"
    },
    {
      "inputs": [
        {
          "internalType": "uint32",
          "name": "poolId",
          "type": "uint32"
        },
        {
          "internalType": "address",
          "name": "tokenAddress",
          "type": "address"
        }
      ],
      "name": "getBalance",
      "outputs": [
        {
          "internalType": "uint256",
          "name": "",
          "type": "uint256"
        }
      ],
      "stateMutability": "view",
      "type": "function"
    },
    {
      "inputs": [
        {
          "internalType": "uint32",
          "name": "poolId",
          "type": "uint32"
        }
      ],
      "name": "getHarvestedYield",
      "outputs": [
        {
          "internalType": "uint256",
          "name": "",
          "type": "uint256"
        }
      ],
      "stateMutability": "view",
      "type": "function"
    },
    {
      "inputs": [
        {
          "internalType": "uint32",
          "name": "poolId",
          "type": "uint32"
        }
      ],
      "name": "getPendingYield",
      "outputs": [
        {
          "internalType": "address[1]",
          "name": "tokens",
          "type": "address[1]"
        },
        {
          "internalType": "uint256[1]",
          "name": "amounts",
          "type": "uint256[1]"
        }
      ],
      "stateMutability": "view",
      "type": "function"
    },
    {
      "inputs": [
        {
          "internalType": "uint32",
          "name": "pid",
          "type": "uint32"
        }
      ],
      "name": "getPool",
      "outputs": [
        {
          "components": [
            {
              "internalType": "address",
              "name": "tokenA",
              "type": "address"
            },
            {
              "internalType": "address",
              "name": "tokenB",
              "type": "address"
            },
            {
              "internalType": "uint256",
              "name": "positionID",
              "type": "uint256"
            }
          ],
          "internalType": "struct IAMMIntegration.Pool",
          "name": "",
          "type": "tuple"
        }
      ],
      "stateMutability": "view",
      "type": "function"
    },
    {
      "inputs": [
        {
          "internalType": "uint32",
          "name": "poolId",
          "type": "uint32"
        }
      ],
      "name": "getPoolBalance",
      "outputs": [
        {
          "internalType": "uint256",
          "name": "tokenA",
          "type": "uint256"
        },
        {
          "internalType": "uint256",
          "name": "tokenB",
          "type": "uint256"
        }
      ],
      "stateMutability": "view",
      "type": "function"
    },
    {
      "inputs": [
        {
          "internalType": "uint32[]",
          "name": "pids",
          "type": "uint32[]"
        }
      ],
      "name": "getRewardBalances",
      "outputs": [
        {
          "internalType": "uint256[]",
          "name": "rewardAmounts",
          "type": "uint256[]"
        }
      ],
      "stateMutability": "view",
      "type": "function"
    },
    {
      "inputs": [
        {
          "internalType": "uint32",
          "name": "poolId",
          "type": "uint32"
        }
      ],
      "name": "getStakingPoolId",
      "outputs": [
        {
          "internalType": "uint256",
          "name": "",
          "type": "uint256"
        }
      ],
      "stateMutability": "view",
      "type": "function"
    },
    {
      "inputs": [],
      "name": "getTotalHarvestedYield",
      "outputs": [
        {
          "internalType": "uint256",
          "name": "amount",
          "type": "uint256"
        }
      ],
      "stateMutability": "view",
      "type": "function"
    },
    {
      "inputs": [
        {
          "internalType": "uint32[]",
          "name": "pids",
          "type": "uint32[]"
        }
      ],
      "name": "getYieldBalances",
      "outputs": [
        {
          "internalType": "uint256[]",
          "name": "amounts",
          "type": "uint256[]"
        }
      ],
      "stateMutability": "view",
      "type": "function"
    },
    {
      "inputs": [],
      "name": "harvestYield",
      "outputs": [],
      "stateMutability": "nonpayable",
      "type": "function"
    },
    {
      "inputs": [
        {
          "internalType": "uint32",
          "name": "poolId",
          "type": "uint32"
        },
        {
          "internalType": "uint256",
          "name": "rewardRatioX1000",
          "type": "uint256"
        },
        {
          "internalType": "uint256",
          "name": "",
          "type": "uint256"
        },
        {
          "internalType": "bool",
          "name": "",
          "type": "bool"
        }
      ],
      "name": "harvestYieldByPool",
      "outputs": [],
      "stateMutability": "nonpayable",
      "type": "function"
    },
    {
      "inputs": [
        {
          "internalType": "uint32",
          "name": "poolId",
          "type": "uint32"
        },
        {
          "internalType": "address",
          "name": "token",
          "type": "address"
        },
        {
          "internalType": "uint256",
          "name": "amount",
          "type": "uint256"
        }
      ],
      "name": "incrementBalance",
      "outputs": [],
      "stateMutability": "nonpayable",
      "type": "function"
    },
    {
      "inputs": [
        {
          "internalType": "address[]",
          "name": "controllers_",
          "type": "address[]"
        },
        {
          "internalType": "address",
          "name": "moduleMap_",
          "type": "address"
        },
        {
          "internalType": "address",
          "name": "factoryAddress_",
          "type": "address"
        },
        {
          "internalType": "address",
          "name": "swapRouterAddress_",
          "type": "address"
        },
        {
          "internalType": "address",
          "name": "masterChef_",
          "type": "address"
        },
        {
          "internalType": "address",
          "name": "rewardToken_",
          "type": "address"
        },
        {
          "internalType": "uint24",
          "name": "slippageNumerator_",
          "type": "uint24"
        }
      ],
      "name": "initialize",
      "outputs": [],
      "stateMutability": "nonpayable",
      "type": "function"
    },
    {
      "inputs": [
        {
          "internalType": "address",
          "name": "controller",
          "type": "address"
        }
      ],
      "name": "isController",
      "outputs": [
        {
          "internalType": "bool",
          "name": "status",
          "type": "bool"
        }
      ],
      "stateMutability": "view",
      "type": "function"
    },
    {
      "inputs": [
        {
          "internalType": "address",
          "name": "_tokenA",
          "type": "address"
        },
        {
          "internalType": "address",
          "name": "_tokenB",
          "type": "address"
        }
      ],
      "name": "isPoolExist",
      "outputs": [
        {
          "internalType": "bool",
          "name": "",
          "type": "bool"
        }
      ],
      "stateMutability": "view",
      "type": "function"
    },
    {
      "inputs": [
        {
          "internalType": "uint32",
          "name": "poolId",
          "type": "uint32"
        }
      ],
      "name": "manualDeploy",
      "outputs": [],
      "stateMutability": "nonpayable",
      "type": "function"
    },
    {
      "inputs": [
        {
          "internalType": "address",
          "name": "tokenAddress",
          "type": "address"
        },
        {
          "internalType": "uint256",
          "name": "amount",
          "type": "uint256"
        },
        {
          "internalType": "uint32",
          "name": "poolId",
          "type": "uint32"
        },
        {
          "internalType": "uint256",
          "name": "ratioX1000",
          "type": "uint256"
        }
      ],
      "name": "manualWithdraw",
      "outputs": [],
      "stateMutability": "nonpayable",
      "type": "function"
    },
    {
      "inputs": [],
      "name": "moduleMap",
      "outputs": [
        {
          "internalType": "contract IModuleMap",
          "name": "",
          "type": "address"
        }
      ],
      "stateMutability": "view",
      "type": "function"
    },
    {
      "inputs": [],
      "name": "poolCount",
      "outputs": [
        {
          "internalType": "uint32",
          "name": "",
          "type": "uint32"
        }
      ],
      "stateMutability": "view",
      "type": "function"
    },
    {
      "inputs": [
        {
          "internalType": "uint32",
          "name": "poolId",
          "type": "uint32"
        },
        {
          "internalType": "uint256",
          "name": "ratioX1000",
          "type": "uint256"
        },
        {
          "internalType": "uint256",
          "name": "maxSellTokenA",
          "type": "uint256"
        },
        {
          "internalType": "uint256",
          "name": "maxSellTokenB",
          "type": "uint256"
        }
      ],
      "name": "rebalancePool",
      "outputs": [],
      "stateMutability": "nonpayable",
      "type": "function"
    },
    {
      "inputs": [
        {
          "internalType": "uint32",
          "name": "poolId",
          "type": "uint32"
        }
      ],
      "name": "stakeLPTokens",
      "outputs": [],
      "stateMutability": "nonpayable",
      "type": "function"
    },
    {
      "inputs": [
        {
          "internalType": "address",
          "name": "tokenIn",
          "type": "address"
        },
        {
          "internalType": "address",
          "name": "tokenOut",
          "type": "address"
        },
        {
          "internalType": "address",
          "name": "recipient",
          "type": "address"
        },
        {
          "internalType": "uint256",
          "name": "amountIn",
          "type": "uint256"
        },
        {
          "internalType": "uint256",
          "name": "amountOutMin",
          "type": "uint256"
        }
      ],
      "name": "swapExactInput",
      "outputs": [
        {
          "internalType": "bool",
          "name": "",
          "type": "bool"
        }
      ],
      "stateMutability": "nonpayable",
      "type": "function"
    },
    {
      "inputs": [
        {
          "internalType": "address",
          "name": "tokenAddress",
          "type": "address"
        },
        {
          "internalType": "uint256",
          "name": "amount",
          "type": "uint256"
        },
        {
          "internalType": "uint32",
          "name": "poolId",
          "type": "uint32"
        }
      ],
      "name": "withdraw",
      "outputs": [],
      "stateMutability": "nonpayable",
      "type": "function"
    },
    {
      "inputs": [
        {
          "internalType": "address",
          "name": "tokenAddress",
          "type": "address"
        },
        {
          "internalType": "uint256",
          "name": "amount",
          "type": "uint256"
        },
        {
          "internalType": "uint32",
          "name": "poolId",
          "type": "uint32"
        },
        {
          "internalType": "uint256",
          "name": "ratioX1000",
          "type": "uint256"
        }
      ],
      "name": "withdraw",
      "outputs": [],
      "stateMutability": "nonpayable",
      "type": "function"
    },
    {
      "inputs": [
        {
          "internalType": "uint32",
          "name": "",
          "type": "uint32"
        }
      ],
      "name": "yieldBalances",
      "outputs": [
        {
          "internalType": "uint256",
          "name": "",
          "type": "uint256"
        }
      ],
      "stateMutability": "view",
      "type": "function"
    },
    {
      "stateMutability": "payable",
      "type": "receive"
    }
  ],
  "transactionHash": "0xed4f5d3b343153d43fa3caf9c61709ca70a5332e0be2ff7711bc0a6be01d9d6c",
  "args": [],
  "solcInputHash": "2524e61dad4bc868e4ac327f322032e0",
  "bytecode": "0x608060405234801561001057600080fd5b50615abb80620000216000396000f3fe6080604052600436106101ae5760003560e01c80630c3fa05f146101ba5780630f0a1c6f146101dc578063337993cb14610218578063364d0f5a1461023a578063403df5441461025a57806349470541146102885780634aa06652146102b85780634d24e9e4146102e657806351810fb5146103135780635441c2b61461033357806355b961801461035357806358a0f0491461036857806359cf86da146103885780635ce564f4146103a85780635f53bc43146103c8578063680c3052146103e85780637534e06014610408578063754a0274146104285780637db2ddfe14610448578063841bdb9e14610468578063983673d4146104885780639da46ee3146104c3578063a4515d3714610513578063a7fc7a0714610546578063a816800c14610566578063ac211b9514610586578063b1cccca2146105a6578063b429afeb146105c6578063ccbfc16c146105ff578063cf73715a1461061f578063d23c84b81461063f578063e7daae2e14610672578063e809529e14610692578063e8d991d1146106bf578063e94b0dd2146106d4578063eb40c545146106f4578063f525cb681461072257600080fd5b366101b557005b600080fd5b3480156101c657600080fd5b506101da6101d53660046153e4565b610754565b005b3480156101e857600080fd5b50600054610202906201000090046001600160a01b031681565b60405161020f9190615549565b60405180910390f35b34801561022457600080fd5b5061022d6109fa565b60405161020f91906155f5565b34801561024657600080fd5b506101da61025536600461543c565b610a5c565b34801561026657600080fd5b5061027a6102753660046153e4565b610b88565b60405161020f929190615590565b34801561029457600080fd5b506102a86102a3366004614e69565b610c73565b604051901515815260200161020f565b3480156102c457600080fd5b506102d86102d3366004614ec3565b610ce5565b60405190815260200161020f565b3480156102f257600080fd5b50610306610301366004615116565b610d0d565b60405161020f9190615608565b34801561031f57600080fd5b506101da61032e366004614ec3565b610e02565b34801561033f57600080fd5b506102d861034e366004615400565b611170565b34801561035f57600080fd5b506102d86111a1565b34801561037457600080fd5b50610306610383366004615116565b6111e7565b34801561039457600080fd5b506101da6103a336600461541d565b6112d1565b3480156103b457600080fd5b506101da6103c33660046153e4565b611430565b3480156103d457600080fd5b506101da6103e336600461541d565b61146b565b3480156103f457600080fd5b506101da61040336600461543c565b6115c0565b34801561041457600080fd5b506101da610423366004615467565b6116e8565b34801561043457600080fd5b506101da610443366004614f44565b611988565b34801561045457600080fd5b506101da610463366004614f03565b611ab8565b34801561047457600080fd5b506102a8610483366004614e31565b611c18565b34801561049457600080fd5b506104a86104a336600461543c565b611c4c565b6040805193845260208401929092529082015260600161020f565b3480156104cf57600080fd5b506104e36104de3660046153e4565b611ea9565b6040805182516001600160a01b03908116825260208085015190911690820152918101519082015260600161020f565b34801561051f57600080fd5b506102d861052e3660046153e4565b63ffffffff166000908152600e602052604090205490565b34801561055257600080fd5b506101da610561366004614df9565b611f08565b34801561057257600080fd5b506101da610581366004614f44565b612144565b34801561059257600080fd5b506101da6105a13660046154b0565b61226f565b3480156105b257600080fd5b506101da6105c1366004614f03565b612632565b3480156105d257600080fd5b506102a86105e1366004614df9565b6001600160a01b031660009081526001602052604090205460ff1690565b34801561060b57600080fd5b506102d861061a366004614ec3565b61269a565b34801561062b57600080fd5b506101da61063a3660046153e4565b6126e0565b34801561064b57600080fd5b506102d861065a3660046153e4565b63ffffffff166000908152600b602052604090205490565b34801561067e57600080fd5b506101da61068d366004614f8b565b6127fc565b34801561069e57600080fd5b506102d86106ad3660046153e4565b600d6020526000908152604090205481565b3480156106cb57600080fd5b506101da612a85565b3480156106e057600080fd5b506102026106ef3660046152b0565b612c79565b34801561070057600080fd5b5061071461070f3660046153e4565b612ca3565b60405161020f92919061582c565b34801561072e57600080fd5b5060095461073f9063ffffffff1681565b60405163ffffffff909116815260200161020f565b600080546040516337c61fc560e11b8152620100009091046001600160a01b031691636f8c3f8a91610789919060040161564c565b60206040518083038186803b1580156107a157600080fd5b505afa1580156107b5573d6000803e3d6000fd5b505050506040513d601f19601f820116820180604052508101906107d99190614e15565b6001600160a01b031663f3ae2415336040518263ffffffff1660e01b81526004016108049190615549565b60206040518083038186803b15801561081c57600080fd5b505afa158015610830573d6000803e3d6000fd5b505050506040513d601f19601f820116820180604052508101906108549190615185565b6108795760405162461bcd60e51b815260040161087090615773565b60405180910390fd5b63ffffffff81166000908152600860209081526040808320815160608101835281546001600160a01b039081168083526001840154909116948201859052600290920154928101929092529092916108d19190612cb9565b6001600160a01b03166370a08231306040518263ffffffff1660e01b81526004016108fc9190615549565b60206040518083038186803b15801561091457600080fd5b505afa158015610928573d6000803e3d6000fd5b505050506040513d601f19601f8201168201806040525081019061094c91906152c8565b905080156109f55760065460009061096c906001600160a01b0316612d4a565b60055463ffffffff86166000908152600b602052604090819020549051631c57762b60e31b81529293506001600160a01b039091169163e2bbb158916109b691869060040161582c565b600060405180830381600087803b1580156109d057600080fd5b505af11580156109e4573d6000803e3d6000fd5b505050506109f28482612dc9565b50505b505050565b60606002805480602002602001604051908101604052809291908181526020018280548015610a5257602002820191906000526020600020905b81546001600160a01b03168152600190910190602001808311610a34575b5050505050905090565b600080546040516337c61fc560e11b8152620100009091046001600160a01b031691636f8c3f8a91610a91919060040161564c565b60206040518083038186803b158015610aa957600080fd5b505afa158015610abd573d6000803e3d6000fd5b505050506040513d601f19601f82011682018060405250810190610ae19190614e15565b6001600160a01b031663f3ae2415336040518263ffffffff1660e01b8152600401610b0c9190615549565b60206040518083038186803b158015610b2457600080fd5b505afa158015610b38573d6000803e3d6000fd5b505050506040513d601f19601f82011682018060405250810190610b5c9190615185565b610b785760405162461bcd60e51b815260040161087090615773565b610b8482826001612e25565b5050565b610b90614d30565b610b98614d30565b60055463ffffffff84166000908152600b602052604080822054905160016232bd9d60e01b0319815291926001600160a01b03169163ffcd426391610be1913090600401615815565b60006040518083038186803b158015610bf957600080fd5b505afa158015610c0d573d6000803e3d6000fd5b505050506040513d6000823e601f3d908101601f19168201604052610c3591908101906152e0565b50506006546001600160a01b031685525063ffffffff85166000908152600f6020526040902054909150610c6990826158df565b8252509092909150565b3360009081526001602052604081205460ff16610ca25760405162461bcd60e51b8152600401610870906157c1565b6000610cb187878787876130af565b600181518110610cd157634e487b7160e01b600052603260045260246000fd5b602002602001015111905095945050505050565b6000806000610cf486866132a0565b91509150610d03848383613377565b9695505050505050565b6060816001600160401b03811115610d3557634e487b7160e01b600052604160045260246000fd5b604051908082528060200260200182016040528015610d5e578160200160208202803683370190505b50905060005b82811015610dfb57600f6000858584818110610d9057634e487b7160e01b600052603260045260246000fd5b9050602002016020810190610da591906153e4565b63ffffffff1663ffffffff16815260200190815260200160002054828281518110610de057634e487b7160e01b600052603260045260246000fd5b6020908102919091010152610df4816159c5565b9050610d64565b5092915050565b600080546040516337c61fc560e11b8152620100009091046001600160a01b031691636f8c3f8a91610e37919060040161564c565b60206040518083038186803b158015610e4f57600080fd5b505afa158015610e63573d6000803e3d6000fd5b505050506040513d601f19601f82011682018060405250810190610e879190614e15565b6001600160a01b031663f3ae2415336040518263ffffffff1660e01b8152600401610eb29190615549565b60206040518083038186803b158015610eca57600080fd5b505afa158015610ede573d6000803e3d6000fd5b505050506040513d601f19601f82011682018060405250810190610f029190615185565b610f1e5760405162461bcd60e51b815260040161087090615773565b6009805463ffffffff16906000610f34836159e0565b825463ffffffff91821661010093840a9081029083021990911617909255600980548316600090815260086020819052604080832080546001600160a01b03808d166001600160a01b03199283168117909355865489168652838620600190810180548e84169416939093179092559554600a805492830181559095529283047fc65a7bb8d6351c1cf70c95a316cc6a92839c986682d98bc35f958f4883f9d2a801805460046007909516850290970a948816850294909702199095169290921790945583549051636eb1769f60e11b81526000199550929363dd62ed3e9361102193309316910161555d565b60206040518083038186803b15801561103957600080fd5b505afa15801561104d573d6000803e3d6000fd5b505050506040513d601f19601f8201168201806040525081019061107191906152c8565b146110ad57600454611091906001600160a01b038581169116600061347d565b6004546110ad906001600160a01b03858116911660001961347d565b60048054604051636eb1769f60e11b8152600019926001600160a01b038681169363dd62ed3e936110e4933093909216910161555d565b60206040518083038186803b1580156110fc57600080fd5b505afa158015611110573d6000803e3d6000fd5b505050506040513d601f19601f8201168201806040525081019061113491906152c8565b146109f557600454611154906001600160a01b038481169116600061347d565b6004546109f5906001600160a01b03848116911660001961347d565b63ffffffff82166000908152600c602090815260408083206001600160a01b03851684529091529020545b92915050565b6000805b60095463ffffffff90811690821610156111e3576111c761052e8260016158f7565b6111d190836158df565b91506111dc816159e0565b90506111a5565b5090565b6060816001600160401b0381111561120f57634e487b7160e01b600052604160045260246000fd5b604051908082528060200260200182016040528015611238578160200160208202803683370190505b50905060005b82811015610dfb5761129684848381811061126957634e487b7160e01b600052603260045260246000fd5b905060200201602081019061127e91906153e4565b63ffffffff166000908152600d602052604090205490565b8282815181106112b657634e487b7160e01b600052603260045260246000fd5b60209081029190910101526112ca816159c5565b905061123e565b600080546040516337c61fc560e11b8152620100009091046001600160a01b031691636f8c3f8a91611306919060040161564c565b60206040518083038186803b15801561131e57600080fd5b505afa158015611332573d6000803e3d6000fd5b505050506040513d601f19601f820116820180604052508101906113569190614e15565b6001600160a01b031663f3ae2415336040518263ffffffff1660e01b81526004016113819190615549565b60206040518083038186803b15801561139957600080fd5b505afa1580156113ad573d6000803e3d6000fd5b505050506040513d601f19601f820116820180604052508101906113d19190615185565b6113ed5760405162461bcd60e51b815260040161087090615773565b63ffffffff83166000908152600c602090815260408083206001600160a01b0386168452909152812080548392906114269084906158df565b9091555050505050565b3360009081526001602052604090205460ff1661145f5760405162461bcd60e51b8152600401610870906157c1565b611468816135c6565b50565b600080546040516337c61fc560e11b8152620100009091046001600160a01b031691636f8c3f8a916114a0919060040161564c565b60206040518083038186803b1580156114b857600080fd5b505afa1580156114cc573d6000803e3d6000fd5b505050506040513d601f19601f820116820180604052508101906114f09190614e15565b6001600160a01b031663f3ae2415336040518263ffffffff1660e01b815260040161151b9190615549565b60206040518083038186803b15801561153357600080fd5b505afa158015611547573d6000803e3d6000fd5b505050506040513d601f19601f8201168201806040525081019061156b9190615185565b6115875760405162461bcd60e51b815260040161087090615773565b63ffffffff83166000908152600c602090815260408083206001600160a01b038616845290915281208054839290611426908490615982565b600080546040516337c61fc560e11b8152620100009091046001600160a01b031691636f8c3f8a916115f5919060040161564c565b60206040518083038186803b15801561160d57600080fd5b505afa158015611621573d6000803e3d6000fd5b505050506040513d601f19601f820116820180604052508101906116459190614e15565b6001600160a01b031663f3ae2415336040518263ffffffff1660e01b81526004016116709190615549565b60206040518083038186803b15801561168857600080fd5b505afa15801561169c573d6000803e3d6000fd5b505050506040513d601f19601f820116820180604052508101906116c09190615185565b6116dc5760405162461bcd60e51b815260040161087090615773565b610b8482826000612e25565b600080546040516337c61fc560e11b8152620100009091046001600160a01b031691636f8c3f8a9161171d919060040161564c565b60206040518083038186803b15801561173557600080fd5b505afa158015611749573d6000803e3d6000fd5b505050506040513d601f19601f8201168201806040525081019061176d9190614e15565b6001600160a01b031663f3ae2415336040518263ffffffff1660e01b81526004016117989190615549565b60206040518083038186803b1580156117b057600080fd5b505afa1580156117c4573d6000803e3d6000fd5b505050506040513d601f19601f820116820180604052508101906117e89190615185565b6118045760405162461bcd60e51b815260040161087090615773565b60065460009061181c906001600160a01b0316612d4a565b60055463ffffffff87166000908152600b6020526040808220549051631c57762b60e31b81529394506001600160a01b039092169263e2bbb1589261186592909160040161582c565b600060405180830381600087803b15801561187f57600080fd5b505af1158015611893573d6000803e3d6000fd5b505050506118a18582612dc9565b5063ffffffff85166000908152600f60205260409020548015611980576006546007546118db916001600160a01b0390811691168761382f565b600654600754600091611907916001600160a01b039182169116308561190284848361269a565b6130af565b63ffffffff88166000908152600f602052604081205580519091508190600190811061194357634e487b7160e01b600052603260045260246000fd5b6020026020010151600d60008963ffffffff1663ffffffff168152602001908152602001600020600082825461197991906158df565b9091555050505b505050505050565b600080546040516337c61fc560e11b8152620100009091046001600160a01b031691636f8c3f8a916119bd919060040161564c565b60206040518083038186803b1580156119d557600080fd5b505afa1580156119e9573d6000803e3d6000fd5b505050506040513d601f19601f82011682018060405250810190611a0d9190614e15565b6001600160a01b031663f3ae2415336040518263ffffffff1660e01b8152600401611a389190615549565b60206040518083038186803b158015611a5057600080fd5b505afa158015611a64573d6000803e3d6000fd5b505050506040513d601f19601f82011682018060405250810190611a889190615185565b611aa45760405162461bcd60e51b815260040161087090615773565b611ab284848484600061385a565b50505050565b3360009081526001602052604090205460ff16611ae75760405162461bcd60e51b8152600401610870906157c1565b611af18184611170565b821115611b405760405162461bcd60e51b815260206004820152601d60248201527f696e746567726174696f6e3a2062616c616e63652065786365656465640000006044820152606401610870565b63ffffffff81166000908152600c602090815260408083206001600160a01b038716845290915281208054849290611b79908490615982565b9091555050600080546040516337c61fc560e11b81526109f592620100009092046001600160a01b031691636f8c3f8a91611bb7919060040161564c565b60206040518083038186803b158015611bcf57600080fd5b505afa158015611be3573d6000803e3d6000fd5b505050506040513d601f19601f82011682018060405250810190611c079190614e15565b6001600160a01b0385169084613b95565b6000806000611c278585613bb4565b90925090506000611c388383612cb9565b6001600160a01b0316141595945050505050565b600080546040516337c61fc560e11b815282918291620100009091046001600160a01b031690636f8c3f8a90611c8690849060040161564c565b60206040518083038186803b158015611c9e57600080fd5b505afa158015611cb2573d6000803e3d6000fd5b505050506040513d601f19601f82011682018060405250810190611cd69190614e15565b6001600160a01b031663f3ae2415336040518263ffffffff1660e01b8152600401611d019190615549565b60206040518083038186803b158015611d1957600080fd5b505afa158015611d2d573d6000803e3d6000fd5b505050506040513d601f19601f82011682018060405250810190611d519190615185565b611d6d5760405162461bcd60e51b815260040161087090615773565b60095463ffffffff1680611dd95760405162461bcd60e51b815260206004820152602d60248201527f43616e6e6f7420636f756e7420657874726120726577617264207768656e206e60448201526c1bc81c1bdbdb1cc8195e1a5cdd609a1b6064820152608401610870565b60005b818163ffffffff161015611e2c57600f6000611df98360016158f7565b63ffffffff168152602081019190915260400160002054611e1a90856158df565b9350611e25816159e0565b9050611ddc565b506006548390611e44906001600160a01b0316612d4a565b611e4e9190615982565b91508115611ea157600085118015611e6557508185105b611e6f5781611e71565b845b63ffffffff87166000908152600f6020526040812080549296508692909190611e9b9084906158df565b90915550505b509250925092565b60408051606080820183526000808352602080840182905292840181905263ffffffff94909416845260088252928290208251938401835280546001600160a01b03908116855260018201541691840191909152600201549082015290565b600080546040516337c61fc560e11b8152620100009091046001600160a01b031691636f8c3f8a91611f3d919060040161564c565b60206040518083038186803b158015611f5557600080fd5b505afa158015611f69573d6000803e3d6000fd5b505050506040513d601f19601f82011682018060405250810190611f8d9190614e15565b6001600160a01b0316632f54bf6e336040518263ffffffff1660e01b8152600401611fb89190615549565b60206040518083038186803b158015611fd057600080fd5b505afa158015611fe4573d6000803e3d6000fd5b505050506040513d601f19601f820116820180604052508101906120089190615185565b6120675760405162461bcd60e51b815260206004820152602a60248201527f436f6e74726f6c6c65643a3a6f6e6c794f776e65723a2043616c6c6572206973604482015269103737ba1037bbb732b960b11b6064820152608401610870565b6001600160a01b03811660009081526001602081905260408220805460ff19169091179055805b6002548110156120ed57600281815481106120b957634e487b7160e01b600052603260045260246000fd5b6000918252602090912001546001600160a01b03848116911614156120dd57600191505b6120e6816159c5565b905061208e565b5080610b8457600280546001810182556000919091527f405787fa12a823e0f2b7631cc41b3ba8828b3321ca811111fa75cd3aa3bb5ace0180546001600160a01b0384166001600160a01b03199091161790555050565b3360009081526001602052604090205460ff166121735760405162461bcd60e51b8152600401610870906157c1565b61217d8285611170565b831161226157600080546040516337c61fc560e11b815261221d92620100009092046001600160a01b031691636f8c3f8a916121bc919060040161564c565b60206040518083038186803b1580156121d457600080fd5b505afa1580156121e8573d6000803e3d6000fd5b505050506040513d601f19601f8201168201806040525081019061220c9190614e15565b6001600160a01b0386169085613b95565b63ffffffff82166000908152600c602090815260408083206001600160a01b038816845290915281208054859290612256908490615982565b90915550611ab29050565b611ab284848484600161385a565b600080546040516337c61fc560e11b8152620100009091046001600160a01b031691636f8c3f8a916122a4919060040161564c565b60206040518083038186803b1580156122bc57600080fd5b505afa1580156122d0573d6000803e3d6000fd5b505050506040513d601f19601f820116820180604052508101906122f49190614e15565b6001600160a01b031663f3ae2415336040518263ffffffff1660e01b815260040161231f9190615549565b60206040518083038186803b15801561233757600080fd5b505afa15801561234b573d6000803e3d6000fd5b505050506040513d601f19601f8201168201806040525081019061236f9190615185565b61238b5760405162461bcd60e51b815260040161087090615773565b600061239685611ea9565b63ffffffff86166000908152600860205260409020549091506001600160a01b03166123d45760405162461bcd60e51b815260040161087090615747565b6123e7816000015182602001518661382f565b60008061240f836123fc898660000151611170565b61240a8a8760200151611170565b613c89565b915091506000806124238486858a8a613d0a565b915091506000816001600160a01b03166370a08231306040518263ffffffff1660e01b81526004016124559190615549565b60206040518083038186803b15801561246d57600080fd5b505afa158015612481573d6000803e3d6000fd5b505050506040513d601f19601f820116820180604052508101906124a591906152c8565b90506124b9858330866119028a888a61269a565b50600081836001600160a01b03166370a08231306040518263ffffffff1660e01b81526004016124e99190615549565b60206040518083038186803b15801561250157600080fd5b505afa158015612515573d6000803e3d6000fd5b505050506040513d601f19601f8201168201806040525081019061253991906152c8565b6125439190615982565b905080156126255763ffffffff8b166000908152600c602090815260408083206001600160a01b038a16845290915281208054869290612584908490615982565b909155505063ffffffff8b166000908152600c602090815260408083206001600160a01b0387168452909152812080548392906125c29084906158df565b90915550506040805163ffffffff8d1681526001600160a01b038881166020830152818301879052851660608201526080810183905290517f3318ce2371d9cd19d64b4ca999bd8bdcfcf18e4ec416d7dc611b729b2e59c5009181900360a00190a15b5050505050505050505050565b3360009081526001602052604090205460ff166126615760405162461bcd60e51b8152600401610870906157c1565b63ffffffff81166000908152600c602090815260408083206001600160a01b0387168452909152812080548492906114269084906158df565b600354600090620f4240906126b49062ffffff168261595e565b62ffffff166126c4868686610ce5565b6126ce919061593f565b6126d8919061591f565b949350505050565b600080546040516337c61fc560e11b8152620100009091046001600160a01b031691636f8c3f8a91612715919060040161564c565b60206040518083038186803b15801561272d57600080fd5b505afa158015612741573d6000803e3d6000fd5b505050506040513d601f19601f820116820180604052508101906127659190614e15565b6001600160a01b031663f3ae2415336040518263ffffffff1660e01b81526004016127909190615549565b60206040518083038186803b1580156127a857600080fd5b505afa1580156127bc573d6000803e3d6000fd5b505050506040513d601f19601f820116820180604052508101906127e09190615185565b61145f5760405162461bcd60e51b815260040161087090615773565b600054610100900460ff166128175760005460ff161561281b565b303b155b6128375760405162461bcd60e51b8152600401610870906156d4565b600054610100900460ff16158015612859576000805461ffff19166101011790555b6001600160a01b03861661287f5760405162461bcd60e51b815260040161087090615722565b6001600160a01b0385166128a55760405162461bcd60e51b815260040161087090615722565b6001600160a01b0384166128cb5760405162461bcd60e51b815260040161087090615722565b6001600160a01b0383166128f15760405162461bcd60e51b815260040161087090615722565b6128fb8888613d66565b60038054600480546001600160a01b03199081166001600160a01b038a81169190911783556005805483168a83161790556001600160b81b031990931663010000008b85160262ffffff19161762ffffff8716178455600680549091168784161790556000546040516337c61fc560e11b81526201000090910490921692636f8c3f8a92612989920161564c565b60206040518083038186803b1580156129a157600080fd5b505afa1580156129b5573d6000803e3d6000fd5b505050506040513d601f19601f820116820180604052508101906129d99190614e15565b6001600160a01b0316638b9c94896040518163ffffffff1660e01b815260040160206040518083038186803b158015612a1157600080fd5b505afa158015612a25573d6000803e3d6000fd5b505050506040513d601f19601f82011682018060405250810190612a499190614e15565b600780546001600160a01b0319166001600160a01b03929092169190911790558015612a7b576000805461ff00191690555b5050505050505050565b3360009081526001602052604090205460ff16612ab45760405162461bcd60e51b8152600401610870906157c1565b6000805b60095463ffffffff16811015612ba0576000600a8281548110612aeb57634e487b7160e01b600052603260045260246000fd5b6000918252602080832060088304015460079092166004026101000a90910463ffffffff16808352600d9091526040909120549091508015612b8d5763ffffffff82166000908152600d6020526040902054612b4790856158df565b63ffffffff83166000908152600e6020526040812080549296508392909190612b719084906158df565b909155505063ffffffff82166000908152600d60205260408120555b505080612b99906159c5565b9050612ab8565b508015611468576000546040516337c61fc560e11b8152612c43916201000090046001600160a01b031690636f8c3f8a90612be09060029060040161564c565b60206040518083038186803b158015612bf857600080fd5b505afa158015612c0c573d6000803e3d6000fd5b505050506040513d601f19601f82011682018060405250810190612c309190614e15565b6007546001600160a01b03169083613b95565b6040518181527fd0e841f234010ad7f57b7c09faffb2245cd240429c6e8fa3cd934a0a8bf58eb09060200160405180910390a150565b60028181548110612c8957600080fd5b6000918252602090912001546001600160a01b0316905081565b600080612caf83613f07565b9094909350915050565b60035460405163e6a4390560e01b8152600091630100000090046001600160a01b03169063e6a4390590612cf3908690869060040161555d565b60206040518083038186803b158015612d0b57600080fd5b505afa158015612d1f573d6000803e3d6000fd5b505050506040513d601f19601f82011682018060405250810190612d439190614e15565b9392505050565b6040516370a0823160e01b81526000906001600160a01b038316906370a0823190612d79903090600401615549565b60206040518083038186803b158015612d9157600080fd5b505afa158015612da5573d6000803e3d6000fd5b505050506040513d601f19601f8201168201806040525081019061119b91906152c8565b6006546000908290612de3906001600160a01b0316612d4a565b612ded9190615982565b9050801561119b5763ffffffff83166000908152600f602052604081208054839290612e1a9084906158df565b909155505092915050565b6000612e3084611ea9565b80519091506001600160a01b0316612e5a5760405162461bcd60e51b815260040161087090615747565b600182151514612ec45763ffffffff84166000908152600b602052604090205415612ec45760405162461bcd60e51b815260206004820152601a60248201527914dd185ada5b99c8185b1c9958591e4818dbdb999a59dd5c995960321b6044820152606401610870565b600554604051631526fe2760e01b8152600481018590526000916001600160a01b031690631526fe279060240160c060405180830381600087803b158015612f0b57600080fd5b505af1158015612f1f573d6000803e3d6000fd5b505050506040513d601f19601f82011682018060405250810190612f4391906151a1565b90506000612f5983600001518460200151612cb9565b9050806001600160a01b031682600001516001600160a01b031614612fd35760405162461bcd60e51b815260206004820152602a60248201527f496e636f7272656374204d617374657243686566277320706f6f6c49642077616044820152691cc81c1c9bdd9a59195960b21b6064820152608401610870565b63ffffffff86166000908152600b6020526040908190208690556005549051636eb1769f60e11b8152600019916001600160a01b038085169263dd62ed3e9261302392309291169060040161555d565b60206040518083038186803b15801561303b57600080fd5b505afa15801561304f573d6000803e3d6000fd5b505050506040513d601f19601f8201168201806040525081019061307391906152c8565b1461198057600554613093906001600160a01b038381169116600061347d565b600554611980906001600160a01b03838116911660001961347d565b6040805160028082526060808301845292600092919060208301908036833701905050905086816000815181106130f657634e487b7160e01b600052603260045260246000fd5b60200260200101906001600160a01b031690816001600160a01b031681525050858160018151811061313857634e487b7160e01b600052603260045260246000fd5b6001600160a01b03928316602091820292909201015260048054604051636eb1769f60e11b8152429388938c82169363dd62ed3e9361317c9330939216910161555d565b60206040518083038186803b15801561319457600080fd5b505afa1580156131a8573d6000803e3d6000fd5b505050506040513d601f19601f820116820180604052508101906131cc91906152c8565b1015613207576004546131ed906001600160a01b038a81169116600061347d565b600454613207906001600160a01b038a811691168761347d565b600480546040516338ed173960e01b81526001600160a01b03909116916338ed17399161323e918991899188918d9189910161583a565b600060405180830381600087803b15801561325857600080fd5b505af115801561326c573d6000803e3d6000fd5b505050506040513d6000823e601f3d908101601f191682016040526132949190810190615090565b98975050505050505050565b60008060006132af8585613bb4565b5090506000806132bf8787612cb9565b6001600160a01b0316630902f1ac6040518163ffffffff1660e01b815260040160606040518083038186803b1580156132f757600080fd5b505afa15801561330b573d6000803e3d6000fd5b505050506040513d601f19601f8201168201806040525081019061332f9190615275565b506001600160701b031691506001600160701b03169150826001600160a01b0316876001600160a01b031614613366578082613369565b81815b909890975095505050505050565b60008084116133d35760405162461bcd60e51b815260206004820152602260248201527f616d6f756e74496e206d7573742062652067726561746572207468616e207a65604482015261726f60f01b6064820152608401610870565b6000831180156133e35750600082115b61342f5760405162461bcd60e51b815260206004820152601d60248201527f4e6f206c697175696469747920696e20706f6f6c2072657365727665730000006044820152606401610870565b600061343d856103e561593f565b9050600061344b848361593f565b905060008261345c876103e861593f565b61346691906158df565b9050613472818361591f565b979650505050505050565b8015806135055750604051636eb1769f60e11b81526001600160a01b0384169063dd62ed3e906134b3903090869060040161555d565b60206040518083038186803b1580156134cb57600080fd5b505afa1580156134df573d6000803e3d6000fd5b505050506040513d601f19601f8201168201806040525081019061350391906152c8565b155b6135705760405162461bcd60e51b815260206004820152603660248201527f5361666545524332303a20617070726f76652066726f6d206e6f6e2d7a65726f60448201527520746f206e6f6e2d7a65726f20616c6c6f77616e636560501b6064820152608401610870565b6109f58363095ea7b360e01b848460405160240161358f929190615577565b60408051601f198184030181529190526020810180516001600160e01b03166001600160e01b0319909316929092179091526141fa565b60006135d182611ea9565b63ffffffff83166000908152600860205260409020549091506001600160a01b031661360f5760405162461bcd60e51b815260040161087090615747565b600061361f838360000151611170565b90506000613631848460200151611170565b905081158061363e575080155b156136495750505050565b60008061365e856000015186602001516132a0565b91509150600080613671868686866142cc565b600480548a5160208c015160405162e8e33760e81b81526001600160a01b039283169481019490945281166024840152604483018590526064830184905260006084840181905260a484018190523060c48501524260e4850152949650929450919091169063e8e337009061010401606060405180830381600087803b1580156136fa57600080fd5b505af115801561370e573d6000803e3d6000fd5b505050506040513d601f19601f8201168201806040525081019061373291906153b7565b63ffffffff8c166000908152600c602090815260408083208e516001600160a01b0316845290915281208054929550879450925090613772908490615982565b909155505063ffffffff89166000908152600c602090815260408083208b8301516001600160a01b03168452909152812080548492906137b3908490615982565b90915550506040518181527f250600b7e1d8b908a0f07fa409e087c1b43ef3a5de3c0e23a41998c311f0ea909060200160405180910390a17fb28fd890673610fa2a3efb1cf64ae1b26dd83c3261fbd99f0d4a5821ccdaa993898260405161381c929190615876565b60405180910390a1505050505050505050565b600061383b8484612cb9565b905060008061384a86866132a0565b9150915061198083838387614410565b600061386584611ea9565b9050821561388057613880816000015182602001518561382f565b600080613895836000015184602001516132a0565b60055463ffffffff89166000908152600b60205260408082205490516393f1a40b60e01b8152949650929450926139c8928c928c926001600160a01b03909116916393f1a40b916138eb91903090600401615815565b604080518083038186803b15801561390257600080fd5b505afa158015613916573d6000803e3d6000fd5b505050506040513d601f19601f8201168201806040525081019061393a9190615228565b6000015186866139528a600001518b60200151612cb9565b6001600160a01b03166318160ddd6040518163ffffffff1660e01b815260040160206040518083038186803b15801561398a57600080fd5b505afa15801561399e573d6000803e3d6000fd5b505050506040513d601f19601f820116820180604052508101906139c291906152c8565b8a61453a565b6006549091506000906139e3906001600160a01b0316612d4a565b60055463ffffffff8a166000908152600b602052604090819020549051630441a3e760e41b81529293506001600160a01b039091169163441a3e7091613a2d91869060040161582c565b600060405180830381600087803b158015613a4757600080fd5b505af1158015613a5b573d6000803e3d6000fd5b50505050613a698882612dc9565b5060045485516020870151613a9e926001600160a01b0316918591613a8e9190612cb9565b6001600160a01b0316919061347d565b6004548551602087015160009283926001600160a01b039091169163baa2abde919087858030613ad0426101686158df565b60405160e089901b6001600160e01b03191681526001600160a01b039788166004820152958716602487015260448601949094526064850192909252608484015290921660a482015260c481019190915260e4016040805180830381600087803b158015613b3d57600080fd5b505af1158015613b51573d6000803e3d6000fd5b505050506040513d601f19601f82011682018060405250810190613b759190615394565b91509150613b87878b8e85858d61460c565b505050505050505050505050565b6109f58363a9059cbb60e01b848460405160240161358f929190615577565b600080826001600160a01b0316846001600160a01b03161415613c155760405162461bcd60e51b81526020600482015260196024820152784964656e746963616c20746f6b656e2061646472657373657360381b6044820152606401610870565b826001600160a01b0316846001600160a01b031610613c35578284613c38565b83835b90925090506001600160a01b038216613c825760405162461bcd60e51b815260206004820152600c60248201526b5a65726f206164647265737360a01b6044820152606401610870565b9250929050565b60008080613c9784866158df565b11613ce45760405162461bcd60e51b815260206004820181905260248201527f5472616465724a6f65496e746567726174696f6e3a206e6f2062616c616e63656044820152606401610870565b600080613cf9876000015188602001516132a0565b9150915061336987878785856149dd565b60008085600001516001600160a01b0316876001600160a01b03161415613d4757506020850151838510613d3e5783613d40565b845b9150613d5c565b508451828510613d575782613d59565b845b91505b9550959350505050565b600054610100900460ff16613d815760005460ff1615613d85565b303b155b613da15760405162461bcd60e51b8152600401610870906156d4565b600054610100900460ff16158015613dc3576000805461ffff19166101011790555b6001600160a01b038216613de95760405162461bcd60e51b815260040161087090615722565b60005b8351811015613e5f5760006001600160a01b0316848281518110613e2057634e487b7160e01b600052603260045260246000fd5b60200260200101516001600160a01b03161415613e4f5760405162461bcd60e51b815260040161087090615722565b613e58816159c5565b9050613dec565b5060005b8351811015613ed3576001806000868481518110613e9157634e487b7160e01b600052603260045260246000fd5b6020908102919091018101516001600160a01b03168252810191909152604001600020805460ff1916911515919091179055613ecc816159c5565b9050613e63565b508251613ee7906002906020860190614d4e565b50613ef182614b3f565b80156109f5576000805461ff0019169055505050565b6000806000613f1584611ea9565b60055463ffffffff86166000908152600b60205260408082205490516393f1a40b60e01b815293945090926001600160a01b03909216916393f1a40b91613f60913090600401615815565b604080518083038186803b158015613f7757600080fd5b505afa158015613f8b573d6000803e3d6000fd5b505050506040513d601f19601f82011682018060405250810190613faf9190615228565b5182516020840151613fc19190612cb9565b6001600160a01b03166370a08231306040518263ffffffff1660e01b8152600401613fec9190615549565b60206040518083038186803b15801561400457600080fd5b505afa158015614018573d6000803e3d6000fd5b505050506040513d601f19601f8201168201806040525081019061403c91906152c8565b61404691906158df565b90506141ee8161405e84600001518560200151612cb9565b6001600160a01b03166318160ddd6040518163ffffffff1660e01b815260040160206040518083038186803b15801561409657600080fd5b505afa1580156140aa573d6000803e3d6000fd5b505050506040513d601f19601f820116820180604052508101906140ce91906152c8565b845160208601516001600160a01b038216916370a08231916140f09190612cb9565b6040518263ffffffff1660e01b815260040161410c9190615549565b60206040518083038186803b15801561412457600080fd5b505afa158015614138573d6000803e3d6000fd5b505050506040513d601f19601f8201168201806040525081019061415c91906152c8565b602086015186516001600160a01b038216916370a082319161417d91612cb9565b6040518263ffffffff1660e01b81526004016141999190615549565b60206040518083038186803b1580156141b157600080fd5b505afa1580156141c5573d6000803e3d6000fd5b505050506040513d601f19601f820116820180604052508101906141e991906152c8565b614bd3565b90969095509350505050565b600061424f826040518060400160405280602081526020017f5361666545524332303a206c6f772d6c6576656c2063616c6c206661696c6564815250856001600160a01b0316614c359092919063ffffffff16565b8051909150156109f5578080602001905181019061426d9190615185565b6109f55760405162461bcd60e51b815260206004820152602a60248201527f5361666545524332303a204552433230206f7065726174696f6e20646964206e6044820152691bdd081cdd58d8d9595960b21b6064820152608401610870565b6000808284111561436d576000836142e6866103e861593f565b6142f0919061591f565b905060006103e8614301838961593f565b61430b919061591f565b9050808810156143365787935081614325856103e861593f565b61432f919061591f565b9250614366565b8781101561435f576103e861434b838961593f565b614355919061591f565b9350869250614366565b8793508692505b5050614407565b8284101561440757600084614384856103e861593f565b61438e919061591f565b905060006103e861439f838a61593f565b6143a9919061591f565b9050808710156143d457816143c0886103e861593f565b6143ca919061591f565b9350869250614404565b868110156143fd578793506103e86143ec838661593f565b6143f6919061591f565b9250614404565b8793508692505b50505b94509492505050565b6001600160a01b0384166144655760405162461bcd60e51b815260206004820152601c60248201527b2a3930b232b92537b2a4b73a32b3b930ba34b7b71d2130b22830b4b960211b6044820152606401610870565b60008284101561448d578361447c846103e861593f565b614486919061591f565b90506144a7565b838310156144a2578261447c856103e861593f565b506103e85b818111156144f3576001826144bc8184615982565b6144c790606461593f565b6144d1919061591f565b106144ee5760405162461bcd60e51b8152600401610870906156a7565b6109f2565b808211156109f2576001826145088382615982565b61451390606461593f565b61451d919061591f565b106109f25760405162461bcd60e51b8152600401610870906156a7565b60008082600001516001600160a01b0316896001600160a01b0316141561458d578315614583578361457487670de0b6b3a764000061593f565b61457e919061591f565b614586565b60005b90506145bb565b83156145b557836145a686670de0b6b3a764000061593f565b6145b0919061591f565b6145b8565b60005b90505b806145ca576000915050613472565b806145d660028a61591f565b6145e890670de0b6b3a764000061593f565b6145f2919061591f565b915086821115614600578691505b50979650505050505050565b606086600001516001600160a01b0316856001600160a01b031614156147f25760208701516146439086308661190284848361269a565b9050811561471f57600080546040516337c61fc560e11b815261471a92620100009092046001600160a01b031691636f8c3f8a91614684919060040161564c565b60206040518083038186803b15801561469c57600080fd5b505afa1580156146b0573d6000803e3d6000fd5b505050506040513d601f19601f820116820180604052508101906146d49190614e15565b826001815181106146f557634e487b7160e01b600052603260045260246000fd5b60200260200101518661470891906158df565b89516001600160a01b03169190613b95565b614793565b8060018151811061474057634e487b7160e01b600052603260045260246000fd5b60200260200101518461475391906158df565b63ffffffff87166000908152600c602090815260408083208b516001600160a01b031684529091528120805490919061478d9084906158df565b90915550505b600080516020615a668339815191528685836001815181106147c557634e487b7160e01b600052603260045260246000fd5b60200260200101516147d791906158df565b6040516147e5929190615876565b60405180910390a16149d4565b86602001516001600160a01b0316856001600160a01b031614156149d45786516148249086308761190284848361269a565b9050811561490357600080546040516337c61fc560e11b81526148fe92620100009092046001600160a01b031691636f8c3f8a91614865919060040161564c565b60206040518083038186803b15801561487d57600080fd5b505afa158015614891573d6000803e3d6000fd5b505050506040513d601f19601f820116820180604052508101906148b59190614e15565b826001815181106148d657634e487b7160e01b600052603260045260246000fd5b6020026020010151856148e991906158df565b60208a01516001600160a01b03169190613b95565b614979565b8060018151811061492457634e487b7160e01b600052603260045260246000fd5b60200260200101518361493791906158df565b63ffffffff87166000908152600c602090815260408083208b8301516001600160a01b03168452909152812080549091906149739084906158df565b90915550505b600080516020615a668339815191528684836001815181106149ab57634e487b7160e01b600052603260045260246000fd5b60200260200101516149bd91906158df565b6040516149cb929190615876565b60405180910390a15b50505050505050565b60008082841115614a8d576000836149f7866103e861593f565b614a01919061591f565b905060006103e8614a12838961593f565b614a1c919061591f565b905080881015614a6157600282614a358a6103e861593f565b614a3f919061591f565b614a499089615982565b614a53919061591f565b925088602001519350614a86565b87811015614a86576002614a75828a615982565b614a7f919061591f565b8951945092505b5050613d5c565b82841015613d5c57600084614aa4856103e861593f565b614aae919061591f565b905060006103e8614abf838a61593f565b614ac9919061591f565b905086811015614af7576002614adf8289615982565b614ae9919061591f565b925088602001519350614b33565b80871015614b3357600282614b0e896103e861593f565b614b18919061591f565b614b22908a615982565b614b2c919061591f565b8951945092505b50509550959350505050565b600054610100900460ff16614b5a5760005460ff1615614b5e565b303b155b614b7a5760405162461bcd60e51b8152600401610870906156d4565b600054610100900460ff16158015614b9c576000805461ffff19166101011790555b6000805462010000600160b01b031916620100006001600160a01b038516021790558015610b84576000805461ff00191690555050565b6000808085614be7886402540be40061593f565b614bf1919061591f565b90506402540be400614c03828761593f565b614c0d919061591f565b92506402540be400614c1f828661593f565b614c29919061591f565b91505094509492505050565b60606126d8848460008585843b614c8e5760405162461bcd60e51b815260206004820152601d60248201527f416464726573733a2063616c6c20746f206e6f6e2d636f6e74726163740000006044820152606401610870565b600080866001600160a01b03168587604051614caa919061552d565b60006040518083038185875af1925050503d8060008114614ce7576040519150601f19603f3d011682016040523d82523d6000602084013e614cec565b606091505b509150915061347282828660608315614d06575081612d43565b825115614d165782518084602001fd5b8160405162461bcd60e51b81526004016108709190615674565b60405180602001604052806001906020820280368337509192915050565b828054828255906000526020600020908101928215614da3579160200282015b82811115614da357825182546001600160a01b0319166001600160a01b03909116178255602090920191600190910190614d6e565b506111e39291505b808211156111e35760008155600101614dab565b8035614dca81615a30565b919050565b80516001600160701b0381168114614dca57600080fd5b803562ffffff81168114614dca57600080fd5b600060208284031215614e0a578081fd5b8135612d4381615a30565b600060208284031215614e26578081fd5b8151612d4381615a30565b60008060408385031215614e43578081fd5b8235614e4e81615a30565b91506020830135614e5e81615a30565b809150509250929050565b600080600080600060a08688031215614e80578081fd5b8535614e8b81615a30565b94506020860135614e9b81615a30565b93506040860135614eab81615a30565b94979396509394606081013594506080013592915050565b600080600060608486031215614ed7578283fd5b8335614ee281615a30565b92506020840135614ef281615a30565b929592945050506040919091013590565b600080600060608486031215614f17578081fd5b8335614f2281615a30565b9250602084013591506040840135614f3981615a53565b809150509250925092565b60008060008060808587031215614f59578182fd5b8435614f6481615a30565b9350602085013592506040850135614f7b81615a53565b9396929550929360600135925050565b600080600080600080600060e0888a031215614fa5578485fd5b87356001600160401b03811115614fba578586fd5b8801601f81018a13614fca578586fd5b80356020614fdf614fda836158bc565b61588c565b8083825282820191508285018e848660051b8801011115614ffe578a8bfd5b8a95505b8486101561502957803561501581615a30565b835260019590950194918301918301615002565b509a5061503990508b8201614dbf565b985050505061504a60408901614dbf565b945061505860608901614dbf565b935061506660808901614dbf565b925061507460a08901614dbf565b915061508260c08901614de6565b905092959891949750929550565b600060208083850312156150a2578182fd5b82516001600160401b038111156150b7578283fd5b8301601f810185136150c7578283fd5b80516150d5614fda826158bc565b80828252848201915084840188868560051b87010111156150f4578687fd5b8694505b838510156146005780518352600194909401939185019185016150f8565b60008060208385031215615128578182fd5b82356001600160401b038082111561513e578384fd5b818501915085601f830112615151578384fd5b81358181111561515f578485fd5b8660208260051b8501011115615173578485fd5b60209290920196919550909350505050565b600060208284031215615196578081fd5b8151612d4381615a45565b600060c082840312156151b2578081fd5b60405160c081016001600160401b03811182821017156151d4576151d4615a1a565b60405282516151e281615a30565b808252506020830151602082015260408301516040820152606083015160608201526080830151608082015260a083015161521c81615a30565b60a08201529392505050565b600060408284031215615239578081fd5b604080519081016001600160401b038111828210171561525b5761525b615a1a565b604052825181526020928301519281019290925250919050565b600080600060608486031215615289578081fd5b61529284614dcf565b92506152a060208501614dcf565b91506040840151614f3981615a53565b6000602082840312156152c1578081fd5b5035919050565b6000602082840312156152d9578081fd5b5051919050565b600080600080608085870312156152f5578182fd5b84519350602085015161530781615a30565b60408601519093506001600160401b0380821115615323578384fd5b818701915087601f830112615336578384fd5b81518181111561534857615348615a1a565b61535b601f8201601f191660200161588c565b9150808252886020828501011115615371578485fd5b615382816020840160208601615999565b50606096909601519497939650505050565b600080604083850312156153a6578182fd5b505080516020909101519092909150565b6000806000606084860312156153cb578081fd5b8351925060208401519150604084015190509250925092565b6000602082840312156153f5578081fd5b8135612d4381615a53565b60008060408385031215615412578182fd5b8235614e4e81615a53565b600080600060608486031215615431578081fd5b8335614ee281615a53565b6000806040838503121561544e578182fd5b823561545981615a53565b946020939093013593505050565b6000806000806080858703121561547c578182fd5b843561548781615a53565b9350602085013592506040850135915060608501356154a581615a45565b939692955090935050565b600080600080608085870312156154c5578182fd5b84356154d081615a53565b966020860135965060408601359560600135945092505050565b6000815180845260208085019450808401835b838110156155225781516001600160a01b0316875295820195908201906001016154fd565b509495945050505050565b6000825161553f818460208701615999565b9190910192915050565b6001600160a01b0391909116815260200190565b6001600160a01b0392831681529116602082015260400190565b6001600160a01b03929092168252602082015260400190565b60408101818460005b60018110156155c15781516001600160a01b0316835260209283019290910190600101615599565b50505060208083018460005b60018110156155ea578151835291830191908301906001016155cd565b505050509392505050565b602081526000612d4360208301846154ea565b6020808252825182820181905260009190848201906040850190845b8181101561564057835183529284019291840191600101615624565b50909695505050505050565b60208101600d831061566e57634e487b7160e01b600052602160045260246000fd5b91905290565b6020815260008251806020840152615693816040850160208701615999565b601f01601f19169190910160400192915050565b60208082526013908201527210d95a5b1a5b99d31a5b5a5d14995858da1959606a1b604082015260600190565b6020808252602e908201527f496e697469616c697a61626c653a20636f6e747261637420697320616c72656160408201526d191e481a5b9a5d1a585b1a5e995960921b606082015260800190565b6020808252600b908201526a626164206164647265737360a81b604082015260600190565b602080825260129082015271141bdbdb08191bd95cdb89dd08195e1a5cdd60721b604082015260600190565b6020808252602e908201527f436f6e74726f6c6c65643a3a6f6e6c794d616e616765723a2043616c6c65722060408201526d34b9903737ba1036b0b730b3b2b960911b606082015260800190565b60208082526034908201527f436f6e74726f6c6c65643a3a6f6e6c79436f6e74726f6c6c65723a2043616c6c60408201527332b91034b9903737ba1031b7b73a3937b63632b960611b606082015260800190565b9182526001600160a01b0316602082015260400190565b918252602082015260400190565b85815284602082015260a06040820152600061585960a08301866154ea565b6001600160a01b0394909416606083015250608001529392505050565b63ffffffff929092168252602082015260400190565b604051601f8201601f191681016001600160401b03811182821017156158b4576158b4615a1a565b604052919050565b60006001600160401b038211156158d5576158d5615a1a565b5060051b60200190565b600082198211156158f2576158f2615a04565b500190565b600063ffffffff80831681851680830382111561591657615916615a04565b01949350505050565b60008261593a57634e487b7160e01b81526012600452602481fd5b500490565b600081600019048311821515161561595957615959615a04565b500290565b600062ffffff8381169083168181101561597a5761597a615a04565b039392505050565b60008282101561599457615994615a04565b500390565b60005b838110156159b457818101518382015260200161599c565b83811115611ab25750506000910152565b60006000198214156159d9576159d9615a04565b5060010190565b600063ffffffff808316818114156159fa576159fa615a04565b6001019392505050565b634e487b7160e01b600052601160045260246000fd5b634e487b7160e01b600052604160045260246000fd5b6001600160a01b038116811461146857600080fd5b801515811461146857600080fd5b63ffffffff8116811461146857600080fdfe6fb183d14e6407db4dfb55deb83841283e9e3015e3aabe210d446b16f1ce0937a26469706673582212208b69c8f652f299dee3d04fd4e2f8af284460c7904f0d2adb51bdd99fec7afb6d64736f6c63430008040033",
  "devdoc": {
    "kind": "dev",
    "methods": {
      "deposit(address,uint256,uint32)": {
        "params": {
          "amount": "The amount of the token being deposited",
          "tokenAddress": "The address of the deposited token"
        }
      },
      "getAmountOut(address,address,uint256)": {
        "params": {
          "amountIn": "The exact amount of the input to swap",
          "tokenIn": "The address of the input token",
          "tokenOut": "The address of the output token"
        },
        "returns": {
          "amountOut": "The estimated amount of tokenOut to receive"
        }
      },
      "getAmountOutMinimum(address,address,uint256)": {
        "params": {
          "amountIn": "The exact amount of the input to swap",
          "tokenIn": "The address of the input token",
          "tokenOut": "The address of the output token"
        },
        "returns": {
          "amountOutMinimum": "The minimum amount of tokenOut to receive, factoring in allowable slippage"
        }
      },
      "getBalance(uint32,address)": {
        "returns": {
          "_0": "tokenAddress The address of the token to get the balance of"
        }
      },
      "getPendingYield(uint32)": {
        "details": "Returns total amount of pending yield in SPIRIT rewards",
        "params": {
          "poolId": "the integration pool to retrieve yield for"
        },
        "returns": {
          "amounts": "Amounts of pending yield",
          "tokens": "Token addresses of pending yield"
        }
      },
      "harvestYield()": {
        "details": "Harvests token yield from the integration"
      },
      "incrementBalance(uint32,address,uint256)": {
        "params": {
          "amount": "The amount of the token being deposited",
          "token": "The address of the deposited token"
        }
      },
      "initialize(address[],address,address,address,address,address,uint24)": {
        "params": {
          "controllers_": "The address of the controlling contract",
          "factoryAddress_": "The address of the TraderJoe factory contract",
          "swapRouterAddress_": "The address of the TraderJoe  router contract"
        }
      },
      "isPoolExist(address,address)": {
        "params": {
          "_tokenA": "The address of the first  token from the token pair",
          "_tokenB": "The address of the second token from the token pair return true if pool exist else overwise"
        }
      },
      "rebalancePool(uint32,uint256,uint256,uint256)": {
        "params": {
          "maxSellTokenA": "max amount of tokenA to sell (to limit rebalancing)",
          "maxSellTokenB": "max amount of tokenB to sell (to limit rebalancing)",
          "poolId": "The ID of the pool to rebalance",
          "ratioX1000": "reserves ratio to control the price slippage"
        }
      },
      "withdraw(address,uint256,uint32)": {
        "params": {
          "amount": "The amoutn of the token to withdraw",
          "tokenAddress": "The address of the underlying token to withdraw"
        }
      }
    },
    "version": 1
  },
  "userdoc": {
    "events": {
      "CreatePool(address,address,uint32)": {
        "notice": "Events"
      }
    },
    "kind": "user",
    "methods": {
      "harvestYieldByPool(uint32,uint256,uint256,bool)": {
        "notice": "Harvest available yield for desired pool"
      },
      "rebalancePool(uint32,uint256,uint256,uint256)": {
        "notice": "Rebalances by attempting to swap up to max to get into position ratio"
      },
      "withdraw(address,uint256,uint32)": {
        "notice": "Withdraws token from the integration"
      }
    },
    "notice": "Integrates 0x Nodes to TraderJoe in Avalanche",
    "version": 1
  },
  "storageLayout": {
    "storage": [
      {
        "astId": 723,
        "contract": "contracts/yield-integrations/NetSwapIntegration.sol:NetSwapIntegration",
        "label": "_initialized",
        "offset": 0,
        "slot": "0",
        "type": "t_bool"
      },
      {
        "astId": 726,
        "contract": "contracts/yield-integrations/NetSwapIntegration.sol:NetSwapIntegration",
        "label": "_initializing",
        "offset": 1,
        "slot": "0",
        "type": "t_bool"
      },
      {
        "astId": 10147,
        "contract": "contracts/yield-integrations/NetSwapIntegration.sol:NetSwapIntegration",
        "label": "moduleMap",
        "offset": 2,
        "slot": "0",
        "type": "t_contract(IModuleMap)21221"
      },
      {
        "astId": 4666,
        "contract": "contracts/yield-integrations/NetSwapIntegration.sol:NetSwapIntegration",
        "label": "_controllers",
        "offset": 0,
        "slot": "1",
        "type": "t_mapping(t_address,t_bool)"
      },
      {
        "astId": 4669,
        "contract": "contracts/yield-integrations/NetSwapIntegration.sol:NetSwapIntegration",
        "label": "controllers",
        "offset": 0,
        "slot": "2",
        "type": "t_array(t_address)dyn_storage"
      },
      {
        "astId": 42706,
        "contract": "contracts/yield-integrations/NetSwapIntegration.sol:NetSwapIntegration",
        "label": "slippageNumerator",
        "offset": 0,
        "slot": "3",
        "type": "t_uint24"
      },
      {
        "astId": 42708,
        "contract": "contracts/yield-integrations/NetSwapIntegration.sol:NetSwapIntegration",
        "label": "factoryAddress",
        "offset": 3,
        "slot": "3",
        "type": "t_address"
      },
      {
        "astId": 42710,
        "contract": "contracts/yield-integrations/NetSwapIntegration.sol:NetSwapIntegration",
        "label": "swapRouterAddress",
        "offset": 0,
        "slot": "4",
        "type": "t_address"
      },
      {
        "astId": 42712,
        "contract": "contracts/yield-integrations/NetSwapIntegration.sol:NetSwapIntegration",
        "label": "masterChef",
        "offset": 0,
        "slot": "5",
        "type": "t_address"
      },
      {
        "astId": 42714,
        "contract": "contracts/yield-integrations/NetSwapIntegration.sol:NetSwapIntegration",
        "label": "rewardToken",
        "offset": 0,
        "slot": "6",
        "type": "t_address"
      },
      {
        "astId": 42716,
        "contract": "contracts/yield-integrations/NetSwapIntegration.sol:NetSwapIntegration",
        "label": "wnativeAddress",
        "offset": 0,
        "slot": "7",
        "type": "t_address"
      },
      {
        "astId": 42721,
        "contract": "contracts/yield-integrations/NetSwapIntegration.sol:NetSwapIntegration",
        "label": "pools",
        "offset": 0,
        "slot": "8",
        "type": "t_mapping(t_uint256,t_struct(Pool)19450_storage)"
      },
      {
        "astId": 42723,
        "contract": "contracts/yield-integrations/NetSwapIntegration.sol:NetSwapIntegration",
        "label": "poolCount",
        "offset": 0,
        "slot": "9",
        "type": "t_uint32"
      },
      {
        "astId": 42726,
        "contract": "contracts/yield-integrations/NetSwapIntegration.sol:NetSwapIntegration",
        "label": "poolIds",
        "offset": 0,
        "slot": "10",
        "type": "t_array(t_uint32)dyn_storage"
      },
      {
        "astId": 42730,
        "contract": "contracts/yield-integrations/NetSwapIntegration.sol:NetSwapIntegration",
        "label": "stakings",
        "offset": 0,
        "slot": "11",
        "type": "t_mapping(t_uint32,t_uint256)"
      },
      {
        "astId": 42736,
        "contract": "contracts/yield-integrations/NetSwapIntegration.sol:NetSwapIntegration",
        "label": "balances",
        "offset": 0,
        "slot": "12",
        "type": "t_mapping(t_uint256,t_mapping(t_address,t_uint256))"
      },
      {
        "astId": 42740,
        "contract": "contracts/yield-integrations/NetSwapIntegration.sol:NetSwapIntegration",
        "label": "yieldBalances",
        "offset": 0,
        "slot": "13",
        "type": "t_mapping(t_uint32,t_uint256)"
      },
      {
        "astId": 42744,
        "contract": "contracts/yield-integrations/NetSwapIntegration.sol:NetSwapIntegration",
        "label": "harvestedYield",
        "offset": 0,
        "slot": "14",
        "type": "t_mapping(t_uint32,t_uint256)"
      },
      {
        "astId": 42748,
        "contract": "contracts/yield-integrations/NetSwapIntegration.sol:NetSwapIntegration",
        "label": "rewardBalances",
        "offset": 0,
        "slot": "15",
        "type": "t_mapping(t_uint32,t_uint256)"
      }
    ],
    "types": {
      "t_address": {
        "encoding": "inplace",
        "label": "address",
        "numberOfBytes": "20"
      },
      "t_array(t_address)dyn_storage": {
        "base": "t_address",
        "encoding": "dynamic_array",
        "label": "address[]",
        "numberOfBytes": "32"
      },
      "t_array(t_uint32)dyn_storage": {
        "base": "t_uint32",
        "encoding": "dynamic_array",
        "label": "uint32[]",
        "numberOfBytes": "32"
      },
      "t_bool": {
        "encoding": "inplace",
        "label": "bool",
        "numberOfBytes": "1"
      },
      "t_contract(IModuleMap)21221": {
        "encoding": "inplace",
        "label": "contract IModuleMap",
        "numberOfBytes": "20"
      },
      "t_mapping(t_address,t_bool)": {
        "encoding": "mapping",
        "key": "t_address",
        "label": "mapping(address => bool)",
        "numberOfBytes": "32",
        "value": "t_bool"
      },
      "t_mapping(t_address,t_uint256)": {
        "encoding": "mapping",
        "key": "t_address",
        "label": "mapping(address => uint256)",
        "numberOfBytes": "32",
        "value": "t_uint256"
      },
      "t_mapping(t_uint256,t_mapping(t_address,t_uint256))": {
        "encoding": "mapping",
        "key": "t_uint256",
        "label": "mapping(uint256 => mapping(address => uint256))",
        "numberOfBytes": "32",
        "value": "t_mapping(t_address,t_uint256)"
      },
      "t_mapping(t_uint256,t_struct(Pool)19450_storage)": {
        "encoding": "mapping",
        "key": "t_uint256",
        "label": "mapping(uint256 => struct IAMMIntegration.Pool)",
        "numberOfBytes": "32",
        "value": "t_struct(Pool)19450_storage"
      },
      "t_mapping(t_uint32,t_uint256)": {
        "encoding": "mapping",
        "key": "t_uint32",
        "label": "mapping(uint32 => uint256)",
        "numberOfBytes": "32",
        "value": "t_uint256"
      },
      "t_struct(Pool)19450_storage": {
        "encoding": "inplace",
        "label": "struct IAMMIntegration.Pool",
        "members": [
          {
            "astId": 19445,
            "contract": "contracts/yield-integrations/NetSwapIntegration.sol:NetSwapIntegration",
            "label": "tokenA",
            "offset": 0,
            "slot": "0",
            "type": "t_address"
          },
          {
            "astId": 19447,
            "contract": "contracts/yield-integrations/NetSwapIntegration.sol:NetSwapIntegration",
            "label": "tokenB",
            "offset": 0,
            "slot": "1",
            "type": "t_address"
          },
          {
            "astId": 19449,
            "contract": "contracts/yield-integrations/NetSwapIntegration.sol:NetSwapIntegration",
            "label": "positionID",
            "offset": 0,
            "slot": "2",
            "type": "t_uint256"
          }
        ],
        "numberOfBytes": "96"
      },
      "t_uint24": {
        "encoding": "inplace",
        "label": "uint24",
        "numberOfBytes": "3"
      },
      "t_uint256": {
        "encoding": "inplace",
        "label": "uint256",
        "numberOfBytes": "32"
      },
      "t_uint32": {
        "encoding": "inplace",
        "label": "uint32",
        "numberOfBytes": "4"
      }
    }
  }
}