{
  "address": "0x90e6B742889B56904a596d29E5e2921A7cf32189",
  "abi": [
    {
      "anonymous": false,
      "inputs": [
        {
          "indexed": true,
          "internalType": "address",
          "name": "token",
          "type": "address"
        },
        {
          "indexed": false,
          "internalType": "uint256",
          "name": "amount",
          "type": "uint256"
        },
        {
          "indexed": false,
          "internalType": "bool",
          "name": "add",
          "type": "bool"
        }
      ],
      "name": "BalanceUpdated",
      "type": "event"
    },
    {
      "anonymous": false,
      "inputs": [
        {
          "indexed": false,
          "internalType": "address",
          "name": "token",
          "type": "address"
        },
        {
          "indexed": false,
          "internalType": "uint256",
          "name": "amount",
          "type": "uint256"
        }
      ],
      "name": "Deploy",
      "type": "event"
    },
    {
      "anonymous": false,
      "inputs": [
        {
          "indexed": false,
          "internalType": "address",
          "name": "token",
          "type": "address"
        },
        {
          "indexed": false,
          "internalType": "uint256",
          "name": "amount",
          "type": "uint256"
        }
      ],
      "name": "Deposit",
      "type": "event"
    },
    {
      "anonymous": false,
      "inputs": [
        {
          "indexed": true,
          "internalType": "address",
          "name": "from",
          "type": "address"
        },
        {
          "indexed": true,
          "internalType": "address",
          "name": "token",
          "type": "address"
        },
        {
          "indexed": false,
          "internalType": "uint256",
          "name": "amount",
          "type": "uint256"
        }
      ],
      "name": "DepositFrom",
      "type": "event"
    },
    {
      "anonymous": false,
      "inputs": [
        {
          "indexed": false,
          "internalType": "address",
          "name": "token",
          "type": "address"
        },
        {
          "indexed": false,
          "internalType": "uint256",
          "name": "amount",
          "type": "uint256"
        }
      ],
      "name": "HarvestYield",
      "type": "event"
    },
    {
      "anonymous": false,
      "inputs": [
        {
          "indexed": true,
          "internalType": "address",
          "name": "to",
          "type": "address"
        },
        {
          "indexed": true,
          "internalType": "address",
          "name": "token",
          "type": "address"
        },
        {
          "indexed": false,
          "internalType": "uint256",
          "name": "amount",
          "type": "uint256"
        }
      ],
      "name": "Send",
      "type": "event"
    },
    {
      "anonymous": false,
      "inputs": [
        {
          "indexed": false,
          "internalType": "address",
          "name": "token",
          "type": "address"
        },
        {
          "indexed": false,
          "internalType": "uint256",
          "name": "amount",
          "type": "uint256"
        }
      ],
      "name": "Withdraw",
      "type": "event"
    },
    {
      "inputs": [
        {
          "internalType": "address",
          "name": "controller",
          "type": "address"
        }
      ],
      "name": "addController",
      "outputs": [],
      "stateMutability": "nonpayable",
      "type": "function"
    },
    {
      "inputs": [
        {
          "internalType": "uint256",
          "name": "",
          "type": "uint256"
        }
      ],
      "name": "controllers",
      "outputs": [
        {
          "internalType": "address",
          "name": "",
          "type": "address"
        }
      ],
      "stateMutability": "view",
      "type": "function"
    },
    {
      "inputs": [],
      "name": "deploy",
      "outputs": [],
      "stateMutability": "nonpayable",
      "type": "function"
    },
    {
      "inputs": [
        {
          "internalType": "address",
          "name": "token",
          "type": "address"
        },
        {
          "internalType": "uint256",
          "name": "amount",
          "type": "uint256"
        }
      ],
      "name": "deposit",
      "outputs": [],
      "stateMutability": "nonpayable",
      "type": "function"
    },
    {
      "inputs": [
        {
          "internalType": "address",
          "name": "from",
          "type": "address"
        },
        {
          "internalType": "address[]",
          "name": "tokens",
          "type": "address[]"
        },
        {
          "internalType": "uint256[]",
          "name": "amounts",
          "type": "uint256[]"
        }
      ],
      "name": "depositFrom",
      "outputs": [],
      "stateMutability": "nonpayable",
      "type": "function"
    },
    {
      "inputs": [],
      "name": "getAllControllers",
      "outputs": [
        {
          "internalType": "address[]",
          "name": "currentControllers",
          "type": "address[]"
        }
      ],
      "stateMutability": "view",
      "type": "function"
    },
    {
      "inputs": [
        {
          "internalType": "address",
          "name": "token",
          "type": "address"
        }
      ],
      "name": "getBalance",
      "outputs": [
        {
          "internalType": "uint256",
          "name": "",
          "type": "uint256"
        }
      ],
      "stateMutability": "view",
      "type": "function"
    },
    {
      "inputs": [
        {
          "internalType": "address",
          "name": "",
          "type": "address"
        }
      ],
      "name": "getPendingYield",
      "outputs": [
        {
          "internalType": "uint256",
          "name": "",
          "type": "uint256"
        }
      ],
      "stateMutability": "pure",
      "type": "function"
    },
    {
      "inputs": [],
      "name": "harvestYield",
      "outputs": [],
      "stateMutability": "nonpayable",
      "type": "function"
    },
    {
      "inputs": [
        {
          "internalType": "address[]",
          "name": "_controllers",
          "type": "address[]"
        },
        {
          "internalType": "address",
          "name": "_moduleMap",
          "type": "address"
        }
      ],
      "name": "initialize",
      "outputs": [],
      "stateMutability": "nonpayable",
      "type": "function"
    },
    {
      "inputs": [
        {
          "internalType": "address",
          "name": "controller",
          "type": "address"
        }
      ],
      "name": "isController",
      "outputs": [
        {
          "internalType": "bool",
          "name": "status",
          "type": "bool"
        }
      ],
      "stateMutability": "view",
      "type": "function"
    },
    {
      "inputs": [],
      "name": "moduleMap",
      "outputs": [
        {
          "internalType": "contract IModuleMap",
          "name": "",
          "type": "address"
        }
      ],
      "stateMutability": "view",
      "type": "function"
    },
    {
      "inputs": [
        {
          "internalType": "address",
          "name": "to",
          "type": "address"
        },
        {
          "internalType": "address[]",
          "name": "tokens",
          "type": "address[]"
        },
        {
          "internalType": "uint256[]",
          "name": "amounts",
          "type": "uint256[]"
        }
      ],
      "name": "send",
      "outputs": [],
      "stateMutability": "nonpayable",
      "type": "function"
    },
    {
      "inputs": [
        {
          "internalType": "uint256",
          "name": "amount",
          "type": "uint256"
        },
        {
          "internalType": "address payable",
          "name": "to",
          "type": "address"
        }
      ],
      "name": "sendEth",
      "outputs": [],
      "stateMutability": "nonpayable",
      "type": "function"
    },
    {
      "inputs": [
        {
          "internalType": "address",
          "name": "token",
          "type": "address"
        },
        {
          "internalType": "uint256",
          "name": "amount",
          "type": "uint256"
        },
        {
          "internalType": "bool",
          "name": "add",
          "type": "bool"
        }
      ],
      "name": "updateBalance",
      "outputs": [],
      "stateMutability": "nonpayable",
      "type": "function"
    },
    {
      "inputs": [
        {
          "internalType": "address",
          "name": "token",
          "type": "address"
        },
        {
          "internalType": "uint256",
          "name": "amount",
          "type": "uint256"
        }
      ],
      "name": "withdraw",
      "outputs": [],
      "stateMutability": "nonpayable",
      "type": "function"
    },
    {
      "inputs": [
        {
          "internalType": "uint256",
          "name": "amount",
          "type": "uint256"
        },
        {
          "internalType": "address payable",
          "name": "to",
          "type": "address"
        }
      ],
      "name": "withdrawEth",
      "outputs": [],
      "stateMutability": "nonpayable",
      "type": "function"
    },
    {
      "stateMutability": "payable",
      "type": "receive"
    }
  ],
  "transactionHash": "0x6331cd388337defe432fb394b2e87bc77102f6896a8378b97d306da99dff1895",
  "args": [],
  "solcInputHash": "346f688a9a812bd7d72b32dd553b8acc",
  "bytecode": "0x608060405234801561001057600080fd5b50612239806100206000396000f3fe6080604052600436106100d25760003560e01c80630f0a1c6f1461010d578063337993cb14610149578063343686021461016b578063412288031461018b578063462d0b2e146101ab57806347e7ef24146101cb578063537bb137146101eb578063775c300c1461021a578063a158657c1461022f578063a7fc7a071461024f578063b429afeb1461026f578063d3e46f58146102b8578063e8d991d11461021a578063e94b0dd2146102d8578063f3fef3a3146102f8578063f8129cd214610318578063f8b2cb4f1461033857600080fd5b36610108573415610106576000805160206121e48339815191526000346040516100fd929190611ee0565b60405180910390a15b005b600080fd5b34801561011957600080fd5b50600054610133906201000090046001600160a01b031681565b6040516101409190611ecc565b60405180910390f35b34801561015557600080fd5b5061015e610358565b6040516101409190611ef9565b34801561017757600080fd5b50610106610186366004611e81565b6103ba565b34801561019757600080fd5b506101066101a6366004611d1c565b610549565b3480156101b757600080fd5b506101066101c6366004611d5d565b610716565b3480156101d757600080fd5b506101066101e6366004611cf1565b610798565b3480156101f757600080fd5b5061020c610206366004611c3a565b50600090565b604051908152602001610140565b34801561022657600080fd5b5061010661087d565b34801561023b57600080fd5b5061010661024a366004611e81565b6108ae565b34801561025b57600080fd5b5061010661026a366004611c3a565b610a2c565b34801561027b57600080fd5b506102a861028a366004611c3a565b6001600160a01b031660009081526001602052604090205460ff1690565b6040519015158152602001610140565b3480156102c457600080fd5b506101066102d3366004611c72565b610c68565b3480156102e457600080fd5b506101336102f3366004611e51565b611058565b34801561030457600080fd5b50610106610313366004611cf1565b611082565b34801561032457600080fd5b50610106610333366004611c72565b61118c565b34801561034457600080fd5b5061020c610353366004611c3a565b6114c7565b606060028054806020026020016040519081016040528092919081815260200182805480156103b057602002820191906000526020600020905b81546001600160a01b03168152600190910190602001808311610392575b5050505050905090565b600080546040516337c61fc560e11b8152620100009091046001600160a01b031691636f8c3f8a916103ef9190600401611f46565b60206040518083038186803b15801561040757600080fd5b505afa15801561041b573d6000803e3d6000fd5b505050506040513d601f19601f8201168201806040525081019061043f9190611c56565b6001600160a01b031663f3ae2415336040518263ffffffff1660e01b815260040161046a9190611ecc565b60206040518083038186803b15801561048257600080fd5b505afa158015610496573d6000803e3d6000fd5b505050506040513d601f19601f820116820180604052508101906104ba9190611e35565b6104df5760405162461bcd60e51b81526004016104d690612039565b60405180910390fd5b8115610545576001600160a01b03811661050b5760405162461bcd60e51b81526004016104d690612014565b61051582826114fe565b6040518281526000906001600160a01b038316906000805160206121a48339815191529060200160405180910390a35b5050565b600080546040516337c61fc560e11b8152620100009091046001600160a01b031691636f8c3f8a9161057e9190600401611f46565b60206040518083038186803b15801561059657600080fd5b505afa1580156105aa573d6000803e3d6000fd5b505050506040513d601f19601f820116820180604052508101906105ce9190611c56565b6001600160a01b031663f3ae2415336040518263ffffffff1660e01b81526004016105f99190611ecc565b60206040518083038186803b15801561061157600080fd5b505afa158015610625573d6000803e3d6000fd5b505050506040513d601f19601f820116820180604052508101906106499190611e35565b6106655760405162461bcd60e51b81526004016104d690612039565b801561069e576001600160a01b038316600090815260036020526040812080548492906106939084906120db565b909155506106cc9050565b6001600160a01b038316600090815260036020526040812080548492906106c69084906120f3565b90915550505b6040805183815282151560208201526001600160a01b038516917f344c79d576d93b5c6b2b3061f2f6dfd1c5aaa34694fcfa1faa5f82dc33984c40910160405180910390a2505050565b600054610100900460ff166107315760005460ff1615610739565b610739611595565b6107555760405162461bcd60e51b81526004016104d690611fc6565b600054610100900460ff16158015610777576000805461ffff19166101011790555b61078183836115a6565b8015610793576000805461ff00191690555b505050565b3360009081526001602052604090205460ff166107c75760405162461bcd60e51b81526004016104d690612087565b60006107d283611735565b6001600160a01b03841660009081526003602052604090205490915082906107fa90836120f3565b10156108355760405162461bcd60e51b815260206004820152600a60248201526918985908185b5bdd5b9d60b21b60448201526064016104d6565b6001600160a01b03831660009081526003602052604090819020829055516000805160206121e4833981519152906108709085908590611ee0565b60405180910390a1505050565b3360009081526001602052604090205460ff166108ac5760405162461bcd60e51b81526004016104d690612087565b565b600080546040516337c61fc560e11b8152620100009091046001600160a01b031691636f8c3f8a916108e39190600401611f46565b60206040518083038186803b1580156108fb57600080fd5b505afa15801561090f573d6000803e3d6000fd5b505050506040513d601f19601f820116820180604052508101906109339190611c56565b6001600160a01b031663f3ae2415336040518263ffffffff1660e01b815260040161095e9190611ecc565b60206040518083038186803b15801561097657600080fd5b505afa15801561098a573d6000803e3d6000fd5b505050506040513d601f19601f820116820180604052508101906109ae9190611e35565b6109ca5760405162461bcd60e51b81526004016104d690612039565b8115610545576001600160a01b0381166109f65760405162461bcd60e51b81526004016104d690612014565b610a0082826114fe565b6000805160206121c4833981519152600083604051610a20929190611ee0565b60405180910390a15050565b600080546040516337c61fc560e11b8152620100009091046001600160a01b031691636f8c3f8a91610a619190600401611f46565b60206040518083038186803b158015610a7957600080fd5b505afa158015610a8d573d6000803e3d6000fd5b505050506040513d601f19601f82011682018060405250810190610ab19190611c56565b6001600160a01b0316632f54bf6e336040518263ffffffff1660e01b8152600401610adc9190611ecc565b60206040518083038186803b158015610af457600080fd5b505afa158015610b08573d6000803e3d6000fd5b505050506040513d601f19601f82011682018060405250810190610b2c9190611e35565b610b8b5760405162461bcd60e51b815260206004820152602a60248201527f436f6e74726f6c6c65643a3a6f6e6c794f776e65723a2043616c6c6572206973604482015269103737ba1037bbb732b960b11b60648201526084016104d6565b6001600160a01b03811660009081526001602081905260408220805460ff19169091179055805b600254811015610c115760028181548110610bdd57634e487b7160e01b600052603260045260246000fd5b6000918252602090912001546001600160a01b0384811691161415610c0157600191505b610c0a81612136565b9050610bb2565b508061054557600280546001810182556000919091527f405787fa12a823e0f2b7631cc41b3ba8828b3321ca811111fa75cd3aa3bb5ace0180546001600160a01b0384166001600160a01b03199091161790555050565b600080546040516337c61fc560e11b8152620100009091046001600160a01b031691636f8c3f8a91610c9d9190600401611f46565b60206040518083038186803b158015610cb557600080fd5b505afa158015610cc9573d6000803e3d6000fd5b505050506040513d601f19601f82011682018060405250810190610ced9190611c56565b6001600160a01b031663f3ae2415336040518263ffffffff1660e01b8152600401610d189190611ecc565b60206040518083038186803b158015610d3057600080fd5b505afa158015610d44573d6000803e3d6000fd5b505050506040513d601f19601f82011682018060405250810190610d689190611e35565b610d845760405162461bcd60e51b81526004016104d690612039565b82818114610da45760405162461bcd60e51b81526004016104d690611fa1565b60005b8181101561104f57838382818110610dcf57634e487b7160e01b600052603260045260246000fd5b9050602002013560001461103f57610e42868683818110610e0057634e487b7160e01b600052603260045260246000fd5b9050602002016020810190610e159190611c3a565b88868685818110610e3657634e487b7160e01b600052603260045260246000fd5b905060200201356117b4565b6000610e81878784818110610e6757634e487b7160e01b600052603260045260246000fd5b9050602002016020810190610e7c9190611c3a565b611735565b9050848483818110610ea357634e487b7160e01b600052603260045260246000fd5b9050602002013560036000898986818110610ece57634e487b7160e01b600052603260045260246000fd5b9050602002016020810190610ee39190611c3a565b6001600160a01b03168152602081019190915260400160002054610f0790836120f3565b1015610f425760405162461bcd60e51b815260206004820152600a6024820152690dcdee840cadcdeeaced60b31b60448201526064016104d6565b8060036000898986818110610f6757634e487b7160e01b600052603260045260246000fd5b9050602002016020810190610f7c9190611c3a565b6001600160a01b03168152602081019190915260400160002055868683818110610fb657634e487b7160e01b600052603260045260246000fd5b9050602002016020810190610fcb9190611c3a565b6001600160a01b0316886001600160a01b03167ffd2d54d2d9112ad97045b5ba3b3e53730486cf58755c7c5e10a0e34ff90fbe7f87878681811061101f57634e487b7160e01b600052603260045260246000fd5b9050602002013560405161103591815260200190565b60405180910390a3505b61104881612136565b9050610da7565b50505050505050565b6002818154811061106857600080fd5b6000918252602090912001546001600160a01b0316905081565b3360009081526001602052604090205460ff166110b15760405162461bcd60e51b81526004016104d690612087565b6001600160a01b038216600090815260036020526040812080548392906110d99084906120f3565b9091555050600080546040516337c61fc560e11b815261116d9285926201000090046001600160a01b031691636f8c3f8a9161111791600401611f46565b60206040518083038186803b15801561112f57600080fd5b505afa158015611143573d6000803e3d6000fd5b505050506040513d601f19601f820116820180604052508101906111679190611c56565b836117c9565b6000805160206121c48339815191528282604051610a20929190611ee0565b600080546040516337c61fc560e11b8152620100009091046001600160a01b031691636f8c3f8a916111c19190600401611f46565b60206040518083038186803b1580156111d957600080fd5b505afa1580156111ed573d6000803e3d6000fd5b505050506040513d601f19601f820116820180604052508101906112119190611c56565b6001600160a01b031663f3ae2415336040518263ffffffff1660e01b815260040161123c9190611ecc565b60206040518083038186803b15801561125457600080fd5b505afa158015611268573d6000803e3d6000fd5b505050506040513d601f19601f8201168201806040525081019061128c9190611e35565b6112a85760405162461bcd60e51b81526004016104d690612039565b6001600160a01b0385166112ce5760405162461bcd60e51b81526004016104d690612014565b828181146112ee5760405162461bcd60e51b81526004016104d690611fa1565b60005b8181101561104f5783838281811061131957634e487b7160e01b600052603260045260246000fd5b905060200201356000146114b75783838281811061134757634e487b7160e01b600052603260045260246000fd5b905060200201356003600088888581811061137257634e487b7160e01b600052603260045260246000fd5b90506020020160208101906113879190611c3a565b6001600160a01b03166001600160a01b0316815260200190815260200160002060008282546113b691906120f3565b9091555061142190508686838181106113df57634e487b7160e01b600052603260045260246000fd5b90506020020160208101906113f49190611c3a565b8886868581811061141557634e487b7160e01b600052603260045260246000fd5b905060200201356117c9565b85858281811061144157634e487b7160e01b600052603260045260246000fd5b90506020020160208101906114569190611c3a565b6001600160a01b0316876001600160a01b03166000805160206121a483398151915286868581811061149857634e487b7160e01b600052603260045260246000fd5b905060200201356040516114ae91815260200190565b60405180910390a35b6114c081612136565b90506112f1565b60006001600160a01b038216156114f6576001600160a01b0382166000908152600360205260409020546114f8565b475b92915050565b6000816001600160a01b03168360405160006040518083038185875af1925050503d806000811461154b576040519150601f19603f3d011682016040523d82523d6000602084013e611550565b606091505b50509050806107935760405162461bcd60e51b8152602060048201526011602482015270115d1a081d1c985b9cd9995c8819985a5b607a1b60448201526064016104d6565b60006115a0306117dd565b15905090565b600054610100900460ff166115c15760005460ff16156115c9565b6115c9611595565b6115e55760405162461bcd60e51b81526004016104d690611fc6565b600054610100900460ff16158015611607576000805461ffff19166101011790555b6001600160a01b03821661162d5760405162461bcd60e51b81526004016104d690612014565b60005b83518110156116a35760006001600160a01b031684828151811061166457634e487b7160e01b600052603260045260246000fd5b60200260200101516001600160a01b031614156116935760405162461bcd60e51b81526004016104d690612014565b61169c81612136565b9050611630565b5060005b83518110156117175760018060008684815181106116d557634e487b7160e01b600052603260045260246000fd5b6020908102919091018101516001600160a01b03168252810191909152604001600020805460ff191691151591909117905561171081612136565b90506116a7565b50825161172b906002906020860190611b67565b50610781826117ec565b6040516370a0823160e01b81526000906001600160a01b038316906370a0823190611764903090600401611ecc565b60206040518083038186803b15801561177c57600080fd5b505afa158015611790573d6000803e3d6000fd5b505050506040513d601f19601f820116820180604052508101906114f89190611e69565b6107936001600160a01b038416833084611884565b6107936001600160a01b03841683836118f5565b6001600160a01b03163b151590565b600054610100900460ff166118075760005460ff161561180f565b61180f611595565b61182b5760405162461bcd60e51b81526004016104d690611fc6565b600054610100900460ff1615801561184d576000805461ffff19166101011790555b6000805462010000600160b01b031916620100006001600160a01b038516021790558015610545576000805461ff00191690555050565b6040516001600160a01b03808516602483015283166044820152606481018290526118ef9085906323b872dd60e01b906084015b60408051601f198184030181529190526020810180516001600160e01b03166001600160e01b031990931692909217909152611914565b50505050565b6107938363a9059cbb60e01b84846040516024016118b8929190611ee0565b6000611969826040518060400160405280602081526020017f5361666545524332303a206c6f772d6c6576656c2063616c6c206661696c6564815250856001600160a01b03166119e69092919063ffffffff16565b80519091501561079357808060200190518101906119879190611e35565b6107935760405162461bcd60e51b815260206004820152602a60248201527f5361666545524332303a204552433230206f7065726174696f6e20646964206e6044820152691bdd081cdd58d8d9595960b21b60648201526084016104d6565b60606119f584846000856119ff565b90505b9392505050565b606082471015611a605760405162461bcd60e51b815260206004820152602660248201527f416464726573733a20696e73756666696369656e742062616c616e636520666f6044820152651c8818d85b1b60d21b60648201526084016104d6565b611a69856117dd565b611ab55760405162461bcd60e51b815260206004820152601d60248201527f416464726573733a2063616c6c20746f206e6f6e2d636f6e747261637400000060448201526064016104d6565b600080866001600160a01b03168587604051611ad19190611eb0565b60006040518083038185875af1925050503d8060008114611b0e576040519150601f19603f3d011682016040523d82523d6000602084013e611b13565b606091505b5091509150611b23828286611b2e565b979650505050505050565b60608315611b3d5750816119f8565b825115611b4d5782518084602001fd5b8160405162461bcd60e51b81526004016104d69190611f6e565b828054828255906000526020600020908101928215611bbc579160200282015b82811115611bbc57825182546001600160a01b0319166001600160a01b03909116178255602090920191600190910190611b87565b50611bc8929150611bcc565b5090565b5b80821115611bc85760008155600101611bcd565b8035611bec8161217d565b919050565b60008083601f840112611c02578182fd5b5081356001600160401b03811115611c18578182fd5b6020830191508360208260051b8501011115611c3357600080fd5b9250929050565b600060208284031215611c4b578081fd5b81356119f88161217d565b600060208284031215611c67578081fd5b81516119f88161217d565b600080600080600060608688031215611c89578081fd5b8535611c948161217d565b945060208601356001600160401b0380821115611caf578283fd5b611cbb89838a01611bf1565b90965094506040880135915080821115611cd3578283fd5b50611ce088828901611bf1565b969995985093965092949392505050565b60008060408385031215611d03578182fd5b8235611d0e8161217d565b946020939093013593505050565b600080600060608486031215611d30578283fd5b8335611d3b8161217d565b9250602084013591506040840135611d5281612195565b809150509250925092565b60008060408385031215611d6f578182fd5b82356001600160401b0380821115611d85578384fd5b818501915085601f830112611d98578384fd5b8135602082821115611dac57611dac612167565b8160051b604051601f19603f83011681018181108682111715611dd157611dd1612167565b604052838152828101945085830182870184018b1015611def578889fd5b8896505b84871015611e1857611e0481611be1565b865260019690960195948301948301611df3565b509650611e289050878201611be1565b9450505050509250929050565b600060208284031215611e46578081fd5b81516119f881612195565b600060208284031215611e62578081fd5b5035919050565b600060208284031215611e7a578081fd5b5051919050565b60008060408385031215611e93578182fd5b823591506020830135611ea58161217d565b809150509250929050565b60008251611ec281846020870161210a565b9190910192915050565b6001600160a01b0391909116815260200190565b6001600160a01b03929092168252602082015260400190565b6020808252825182820181905260009190848201906040850190845b81811015611f3a5783516001600160a01b031683529284019291840191600101611f15565b50909695505050505050565b60208101600e8310611f6857634e487b7160e01b600052602160045260246000fd5b91905290565b6020815260008251806020840152611f8d81604085016020870161210a565b601f01601f19169190910160400192915050565b6020808252600b908201526a626164206c656e6774687360a81b604082015260600190565b6020808252602e908201527f496e697469616c697a61626c653a20636f6e747261637420697320616c72656160408201526d191e481a5b9a5d1a585b1a5e995960921b606082015260800190565b6020808252600b908201526a626164206164647265737360a81b604082015260600190565b6020808252602e908201527f436f6e74726f6c6c65643a3a6f6e6c794d616e616765723a2043616c6c65722060408201526d34b9903737ba1036b0b730b3b2b960911b606082015260800190565b60208082526034908201527f436f6e74726f6c6c65643a3a6f6e6c79436f6e74726f6c6c65723a2043616c6c60408201527332b91034b9903737ba1031b7b73a3937b63632b960611b606082015260800190565b600082198211156120ee576120ee612151565b500190565b60008282101561210557612105612151565b500390565b60005b8381101561212557818101518382015260200161210d565b838111156118ef5750506000910152565b600060001982141561214a5761214a612151565b5060010190565b634e487b7160e01b600052601160045260246000fd5b634e487b7160e01b600052604160045260246000fd5b6001600160a01b038116811461219257600080fd5b50565b801515811461219257600080fdfe93eb3c629eb575edaf0252e4f9fc0c5ccada50496f8c1d32f0f93a65a8257eb5884edad9ce6fa2440d8a54cc123490eb96d2768479d49ff9c7366125a9424364e1fffcc4923d04b559f4d29a8bfc6cda04eb5b0d3c460751c2402c5c5cc9109ca2646970667358221220c90b842d8c3c5c92b15ffedc0fa97566151433a0c45203bda88d921aa5c0a86264736f6c63430008040033",
  "devdoc": {
    "kind": "dev",
    "methods": {
      "deposit(address,uint256)": {
        "params": {
          "amount": "The amount being deposited",
          "token": "The address of the deposited token"
        }
      },
      "depositFrom(address,address[],uint256[])": {
        "params": {
          "amounts": "Amounts to deposit",
          "from": "Address to deposit the tokens from",
          "tokens": "Tokens to deposit"
        }
      },
      "getBalance(address)": {
        "params": {
          "token": "The address of the token"
        },
        "returns": {
          "_0": "The balance of the token"
        }
      },
      "send(address,address[],uint256[])": {
        "params": {
          "amounts": "Amounts to send",
          "to": "Address to send the tokens to",
          "tokens": "Tokens to send"
        }
      },
      "sendEth(uint256,address)": {
        "params": {
          "amount": "Amount to send",
          "to": "Recipient to send ETH to"
        }
      },
      "updateBalance(address,uint256,bool)": {
        "params": {
          "add": "True for add, false for subtract",
          "amount": "The amount to adjust the balance by",
          "token": "The token to update"
        }
      },
      "withdraw(address,uint256)": {
        "params": {
          "amount": "The amount being withdrawn",
          "token": "The address of the withdrawal token"
        }
      },
      "withdrawEth(uint256,address)": {
        "params": {
          "amount": "Amount to withdraw",
          "to": "Destination of withdrawn ETH"
        }
      }
    },
    "version": 1
  },
  "userdoc": {
    "kind": "user",
    "methods": {
      "deploy()": {
        "notice": "This is just here to satisfy the interface and allow YieldManager to call during system deploy"
      },
      "deposit(address,uint256)": {
        "notice": "Used by YieldManager to deposit funds."
      },
      "depositFrom(address,address[],uint256[])": {
        "notice": "Deposit funds from a depositor into the OTC contract."
      },
      "getBalance(address)": {
        "notice": "Get the token balance."
      },
      "getPendingYield(address)": {
        "notice": "This is just here to satisfy the interface"
      },
      "harvestYield()": {
        "notice": "This is just here to satisfy the interface"
      },
      "send(address,address[],uint256[])": {
        "notice": "Send funds from the OTC contract to a recipient."
      },
      "sendEth(uint256,address)": {
        "notice": "Send ETH from the OTC contract to a recipient."
      },
      "updateBalance(address,uint256,bool)": {
        "notice": "Admin method to update accounting"
      },
      "withdraw(address,uint256)": {
        "notice": "Used by YieldManager to withdraw funds."
      },
      "withdrawEth(uint256,address)": {
        "notice": "Withdraw ETH from the OTC contract"
      }
    },
    "version": 1
  },
  "storageLayout": {
    "storage": [
      {
        "astId": 702,
        "contract": "contracts/yield-integrations/OTCIntegrationV0.sol:OTCIntegrationV0",
        "label": "_initialized",
        "offset": 0,
        "slot": "0",
        "type": "t_bool"
      },
      {
        "astId": 705,
        "contract": "contracts/yield-integrations/OTCIntegrationV0.sol:OTCIntegrationV0",
        "label": "_initializing",
        "offset": 1,
        "slot": "0",
        "type": "t_bool"
      },
      {
        "astId": 12684,
        "contract": "contracts/yield-integrations/OTCIntegrationV0.sol:OTCIntegrationV0",
        "label": "moduleMap",
        "offset": 2,
        "slot": "0",
        "type": "t_contract(IModuleMap)24020"
      },
      {
        "astId": 7155,
        "contract": "contracts/yield-integrations/OTCIntegrationV0.sol:OTCIntegrationV0",
        "label": "_controllers",
        "offset": 0,
        "slot": "1",
        "type": "t_mapping(t_address,t_bool)"
      },
      {
        "astId": 7158,
        "contract": "contracts/yield-integrations/OTCIntegrationV0.sol:OTCIntegrationV0",
        "label": "controllers",
        "offset": 0,
        "slot": "2",
        "type": "t_array(t_address)dyn_storage"
      },
      {
        "astId": 49098,
        "contract": "contracts/yield-integrations/OTCIntegrationV0.sol:OTCIntegrationV0",
        "label": "_balances",
        "offset": 0,
        "slot": "3",
        "type": "t_mapping(t_address,t_uint256)"
      }
    ],
    "types": {
      "t_address": {
        "encoding": "inplace",
        "label": "address",
        "numberOfBytes": "20"
      },
      "t_array(t_address)dyn_storage": {
        "base": "t_address",
        "encoding": "dynamic_array",
        "label": "address[]",
        "numberOfBytes": "32"
      },
      "t_bool": {
        "encoding": "inplace",
        "label": "bool",
        "numberOfBytes": "1"
      },
      "t_contract(IModuleMap)24020": {
        "encoding": "inplace",
        "label": "contract IModuleMap",
        "numberOfBytes": "20"
      },
      "t_mapping(t_address,t_bool)": {
        "encoding": "mapping",
        "key": "t_address",
        "label": "mapping(address => bool)",
        "numberOfBytes": "32",
        "value": "t_bool"
      },
      "t_mapping(t_address,t_uint256)": {
        "encoding": "mapping",
        "key": "t_address",
        "label": "mapping(address => uint256)",
        "numberOfBytes": "32",
        "value": "t_uint256"
      },
      "t_uint256": {
        "encoding": "inplace",
        "label": "uint256",
        "numberOfBytes": "32"
      }
    }
  }
}