{
  "address": "0x4127fa6DC21437f9Ba21c91b80f1aA527d02FF08",
  "abi": [
    {
      "anonymous": false,
      "inputs": [
        {
          "indexed": false,
          "internalType": "bytes32",
          "name": "implemetationHash",
          "type": "bytes32"
        },
        {
          "indexed": false,
          "internalType": "address",
          "name": "deployedClone",
          "type": "address"
        }
      ],
      "name": "CloneDeployed",
      "type": "event"
    },
    {
      "anonymous": false,
      "inputs": [
        {
          "indexed": false,
          "internalType": "bytes32",
          "name": "implemetationHash",
          "type": "bytes32"
        },
        {
          "indexed": false,
          "internalType": "address",
          "name": "proxyAdmin",
          "type": "address"
        },
        {
          "indexed": false,
          "internalType": "address",
          "name": "proxy",
          "type": "address"
        },
        {
          "indexed": false,
          "internalType": "address",
          "name": "implementation",
          "type": "address"
        }
      ],
      "name": "SetImplementation",
      "type": "event"
    },
    {
      "inputs": [
        {
          "internalType": "address",
          "name": "controller",
          "type": "address"
        }
      ],
      "name": "addController",
      "outputs": [],
      "stateMutability": "nonpayable",
      "type": "function"
    },
    {
      "inputs": [
        {
          "internalType": "uint256",
          "name": "",
          "type": "uint256"
        }
      ],
      "name": "controllers",
      "outputs": [
        {
          "internalType": "address",
          "name": "",
          "type": "address"
        }
      ],
      "stateMutability": "view",
      "type": "function"
    },
    {
      "inputs": [
        {
          "internalType": "bytes32",
          "name": "_implementationHash",
          "type": "bytes32"
        },
        {
          "internalType": "bytes",
          "name": "_initData",
          "type": "bytes"
        }
      ],
      "name": "deployClone",
      "outputs": [
        {
          "internalType": "address",
          "name": "deployedCloneAddress_",
          "type": "address"
        }
      ],
      "stateMutability": "nonpayable",
      "type": "function"
    },
    {
      "inputs": [],
      "name": "getAllControllers",
      "outputs": [
        {
          "internalType": "address[]",
          "name": "currentControllers",
          "type": "address[]"
        }
      ],
      "stateMutability": "view",
      "type": "function"
    },
    {
      "inputs": [
        {
          "internalType": "bytes32",
          "name": "_implementationHash",
          "type": "bytes32"
        }
      ],
      "name": "getNextCloneAddress",
      "outputs": [
        {
          "internalType": "address",
          "name": "",
          "type": "address"
        }
      ],
      "stateMutability": "view",
      "type": "function"
    },
    {
      "inputs": [
        {
          "internalType": "bytes32",
          "name": "",
          "type": "bytes32"
        }
      ],
      "name": "implementations",
      "outputs": [
        {
          "internalType": "address",
          "name": "proxyAdmin",
          "type": "address"
        },
        {
          "internalType": "address",
          "name": "proxy",
          "type": "address"
        },
        {
          "internalType": "address",
          "name": "implementation",
          "type": "address"
        },
        {
          "internalType": "uint96",
          "name": "salt",
          "type": "uint96"
        }
      ],
      "stateMutability": "view",
      "type": "function"
    },
    {
      "inputs": [
        {
          "internalType": "address[]",
          "name": "controllers_",
          "type": "address[]"
        },
        {
          "internalType": "address",
          "name": "moduleMap_",
          "type": "address"
        }
      ],
      "name": "initialize",
      "outputs": [],
      "stateMutability": "nonpayable",
      "type": "function"
    },
    {
      "inputs": [
        {
          "internalType": "address",
          "name": "controller",
          "type": "address"
        }
      ],
      "name": "isController",
      "outputs": [
        {
          "internalType": "bool",
          "name": "status",
          "type": "bool"
        }
      ],
      "stateMutability": "view",
      "type": "function"
    },
    {
      "inputs": [],
      "name": "moduleMap",
      "outputs": [
        {
          "internalType": "contract IModuleMap",
          "name": "",
          "type": "address"
        }
      ],
      "stateMutability": "view",
      "type": "function"
    },
    {
      "inputs": [
        {
          "internalType": "bytes32",
          "name": "_implementationHash",
          "type": "bytes32"
        },
        {
          "internalType": "address",
          "name": "_proxyAdminAddress",
          "type": "address"
        },
        {
          "internalType": "address",
          "name": "_proxyAddress",
          "type": "address"
        },
        {
          "internalType": "address",
          "name": "_implementationAddress",
          "type": "address"
        }
      ],
      "name": "setImplementation",
      "outputs": [],
      "stateMutability": "nonpayable",
      "type": "function"
    }
  ],
  "transactionHash": "0xc0358d3aa7433d5cd1c75b63cdfe3422c27490c758eaee6b48b266639b88f3de",
  "args": [],
  "solcInputHash": "4290d5bdb7d07b535aef4dff2e9f9e7b",
  "bytecode": "0x608060405234801561001057600080fd5b506113ab806100206000396000f3fe608060405234801561001057600080fd5b506004361061008e5760003560e01c806302cfeaca146100935780630f0a1c6f1461011f5780632cdb56db14610145578063337993cb1461015a5780633f78bdf01461016f578063462d0b2e1461018257806356a918aa14610195578063a7fc7a07146101a8578063b429afeb146101bb578063e94b0dd2146101f7575b600080fd5b6100e16100a1366004610ece565b6003602052600090815260409020805460018201546002909201546001600160a01b0391821692821691811690600160a01b90046001600160601b031684565b604080516001600160a01b039586168152938516602085015291909316908201526001600160601b0390911660608201526080015b60405180910390f35b600054610138906201000090046001600160a01b031681565b6040516101169190611004565b610158610153366004610ee6565b61020a565b005b61016261040e565b6040516101169190611018565b61013861017d366004610ece565b610470565b610158610190366004610e2e565b61053f565b6101386101a3366004610f38565b610639565b6101586101b6366004610def565b610868565b6101e76101c9366004610def565b6001600160a01b031660009081526001602052604090205460ff1690565b6040519015158152602001610116565b610138610205366004610ece565b610aa3565b600080546040516337c61fc560e11b8152620100009091046001600160a01b031691636f8c3f8a9161023f9190600401611094565b60206040518083038186803b15801561025757600080fd5b505afa15801561026b573d6000803e3d6000fd5b505050506040513d601f19601f8201168201806040525081019061028f9190610e12565b6001600160a01b031663f3ae2415336040518263ffffffff1660e01b81526004016102ba9190611004565b60206040518083038186803b1580156102d257600080fd5b505afa1580156102e6573d6000803e3d6000fd5b505050506040513d601f19601f8201168201806040525081019061030a9190610eae565b6103725760405162461bcd60e51b815260206004820152602e60248201527f436f6e74726f6c6c65643a3a6f6e6c794d616e616765723a2043616c6c65722060448201526d34b9903737ba1036b0b730b3b2b960911b60648201526084015b60405180910390fd5b60008481526003602090815260409182902080546001600160a01b03199081166001600160a01b0388811691821784556001840180548416898316908117909155600290940180549093169087169081179092558451898152938401529282015260608101919091527fb608982bfcdd204befa232358aec18c4f94927a342487b3ef6e3dc74c077520e9060800160405180910390a150505050565b6060600280548060200260200160405190810160405280929190818152602001828054801561046657602002820191906000526020600020905b81546001600160a01b03168152600190910190602001808311610448575b5050505050905090565b600081815260036020526040812080546001820154600283015484926104a6926001600160a01b03918216929082169116610acd565b905060006104e0858460020160149054906101000a90046001600160601b031660016104d29190611144565b6001600160601b0316610b56565b8251602093840120604080516001600160f81b0319818701523060601b6001600160601b031916602182015260358101939093526055808401929092528051808403909201825260759092019091528051920191909120949350505050565b600054610100900460ff1661055a5760005460ff161561055e565b303b155b6105c15760405162461bcd60e51b815260206004820152602e60248201527f496e697469616c697a61626c653a20636f6e747261637420697320616c72656160448201526d191e481a5b9a5d1a585b1a5e995960921b6064820152608401610369565b600054610100900460ff161580156105e3576000805461ffff19166101011790555b610621848480806020026020016040519081016040528093929190818152602001838360200280828437600092019190915250869250610bc7915050565b8015610633576000805461ff00191690555b50505050565b3360009081526001602052604081205460ff166106b55760405162461bcd60e51b815260206004820152603460248201527f436f6e74726f6c6c65643a3a6f6e6c79436f6e74726f6c6c65723a2043616c6c60448201527332b91034b9903737ba1031b7b73a3937b63632b960611b6064820152608401610369565b6000848152600360205260409020600281018054600160a01b90046001600160601b03169060146106e58361118a565b82546001600160601b039182166101009390930a928302919092021990911617905550805460018201546002830154600092610731926001600160a01b03918216929082169116610acd565b6002830154909150600090610757908890600160a01b90046001600160601b0316610b56565b90508082516020840134f593506000846001600160a01b03163b116107bc5760405162461bcd60e51b815260206004820152601b60248201527a1c1c9bde1e4818db1bdb994818dc99585d1a5bdb8819985a5b1959602a1b6044820152606401610369565b60405163439fab9160e01b81526001600160a01b0385169063439fab91906107ea9089908990600401611065565b600060405180830381600087803b15801561080457600080fd5b505af1158015610818573d6000803e3d6000fd5b5050604080518a81526001600160a01b03881660208201527fd2b01fce9b359ab6c97383b2d0d8574bd49084b36a0c636ae27ce14592e52737935001905060405180910390a15050509392505050565b600080546040516337c61fc560e11b8152620100009091046001600160a01b031691636f8c3f8a9161089d9190600401611094565b60206040518083038186803b1580156108b557600080fd5b505afa1580156108c9573d6000803e3d6000fd5b505050506040513d601f19601f820116820180604052508101906108ed9190610e12565b6001600160a01b0316632f54bf6e336040518263ffffffff1660e01b81526004016109189190611004565b60206040518083038186803b15801561093057600080fd5b505afa158015610944573d6000803e3d6000fd5b505050506040513d601f19601f820116820180604052508101906109689190610eae565b6109c75760405162461bcd60e51b815260206004820152602a60248201527f436f6e74726f6c6c65643a3a6f6e6c794f776e65723a2043616c6c6572206973604482015269103737ba1037bbb732b960b11b6064820152608401610369565b6001600160a01b03811660009081526001602081905260408220805460ff19169091179055805b600254811015610a4d5760028181548110610a1957634e487b7160e01b600052603260045260246000fd5b6000918252602090912001546001600160a01b0384811691161415610a3d57600191505b610a468161116f565b90506109ee565b5080610a9f57600280546001810182556000919091527f405787fa12a823e0f2b7631cc41b3ba8828b3321ca811111fa75cd3aa3bb5ace0180546001600160a01b0319166001600160a01b0384161790555b5050565b60028181548110610ab357600080fd5b6000918252602090912001546001600160a01b0316905081565b6060600060405180602001610ae190610d68565b601f1982820381018352601f9091011660408181526001600160a01b0380891660208401528088169183019190915285166060820152909150819060800160408051601f1981840301815290829052610b3d9291602001610fe7565b6040516020818303038152906040529150509392505050565b60008083604051602001610b6c91815260200190565b60408051601f19818403018152919052805160209091012090506000610b92848361112c565b905080604051602001610ba791815260200190565b604051602081830303815290604052805190602001209250505092915050565b600054610100900460ff16610bee5760405162461bcd60e51b8152600401610369906110e1565b6001600160a01b038116610c145760405162461bcd60e51b8152600401610369906110bc565b60005b8251811015610c8a5760006001600160a01b0316838281518110610c4b57634e487b7160e01b600052603260045260246000fd5b60200260200101516001600160a01b03161415610c7a5760405162461bcd60e51b8152600401610369906110bc565b610c838161116f565b9050610c17565b5060005b8251811015610cfe576001806000858481518110610cbc57634e487b7160e01b600052603260045260246000fd5b6020908102919091018101516001600160a01b03168252810191909152604001600020805460ff1916911515919091179055610cf78161116f565b9050610c8e565b508151610d12906002906020850190610d75565b50610a9f81600054610100900460ff16610d3e5760405162461bcd60e51b8152600401610369906110e1565b600080546001600160a01b03909216620100000262010000600160b01b0319909216919091179055565b610196806111e083390190565b828054828255906000526020600020908101928215610dca579160200282015b82811115610dca57825182546001600160a01b0319166001600160a01b03909116178255602090920191600190910190610d95565b50610dd6929150610dda565b5090565b5b80821115610dd65760008155600101610ddb565b600060208284031215610e00578081fd5b8135610e0b816111c7565b9392505050565b600060208284031215610e23578081fd5b8151610e0b816111c7565b600080600060408486031215610e42578182fd5b83356001600160401b0380821115610e58578384fd5b818601915086601f830112610e6b578384fd5b813581811115610e79578485fd5b8760208260051b8501011115610e8d578485fd5b60209283019550935050840135610ea3816111c7565b809150509250925092565b600060208284031215610ebf578081fd5b81518015158114610e0b578182fd5b600060208284031215610edf578081fd5b5035919050565b60008060008060808587031215610efb578081fd5b843593506020850135610f0d816111c7565b92506040850135610f1d816111c7565b91506060850135610f2d816111c7565b939692955090935050565b600080600060408486031215610f4c578283fd5b8335925060208401356001600160401b0380821115610f69578384fd5b818601915086601f830112610f7c578384fd5b813581811115610f8a578485fd5b876020828501011115610f9b578485fd5b6020830194508093505050509250925092565b60008151815b81811015610fce5760208185018101518683015201610fb4565b81811115610fdc5782828601525b509290920192915050565b6000610ffc610ff68386610fae565b84610fae565b949350505050565b6001600160a01b0391909116815260200190565b6020808252825182820181905260009190848201906040850190845b818110156110595783516001600160a01b031683529284019291840191600101611034565b50909695505050505050565b60208152816020820152818360408301376000818301604090810191909152601f909201601f19160101919050565b60208101600e83106110b657634e487b7160e01b600052602160045260246000fd5b91905290565b6020808252600b908201526a626164206164647265737360a81b604082015260600190565b6020808252602b908201527f496e697469616c697a61626c653a20636f6e7472616374206973206e6f74206960408201526a6e697469616c697a696e6760a81b606082015260800190565b6000821982111561113f5761113f6111b1565b500190565b60006001600160601b03828116848216808303821115611166576111666111b1565b01949350505050565b6000600019821415611183576111836111b1565b5060010190565b60006001600160601b03828116808214156111a7576111a76111b1565b6001019392505050565b634e487b7160e01b600052601160045260246000fd5b6001600160a01b03811681146111dc57600080fd5b5056fe608060405234801561001057600080fd5b5060405161019638038061019683398101604081905261002f916100b9565b7fb53127684a568b3173ae13b9f8a6016e243e63b6e8ee1178d6a717850b5d6103929092557f12fe31f5c6f7b7eb37c3a9b1bcb2048b5844d6998ddcca840cc9fa541abf2a59557f360894a13ba1a3210667c828492db98dca3e2076cc3735a920a3ca505d382bbc556100fb565b80516001600160a01b03811681146100b457600080fd5b919050565b6000806000606084860312156100cd578283fd5b6100d68461009d565b92506100e46020850161009d565b91506100f26040850161009d565b90509250925092565b608d806101096000396000f3fe6080604052348015600f57600080fd5b507f12fe31f5c6f7b7eb37c3a9b1bcb2048b5844d6998ddcca840cc9fa541abf2a59543660008037600080366000845af490503d6000803e8080156052573d6000f35b3d6000fdfea26469706673582212203fee3b8d6a463b183e13684206ead80b5be2cb4b62b3921beaf3d055caa6137964736f6c63430008040033a26469706673582212200f213e4ca6e7b5df89ac45b0bd30df23b4c3b709031e49e772839ca400110a4364736f6c63430008040033",
  "devdoc": {
    "details": "Like EIP-1167, but for upgradeable contracts, meaning that clone will delegate to proxy which will delegate to actual implemenation. Address of the proxy is immutable, but implementation can be changed via API supporting EIP-1967*",
    "kind": "dev",
    "methods": {
      "deployClone(bytes32,bytes)": {
        "details": "Clones implementation according to EIP1167",
        "params": {
          "_implementationHash": "keccak256(implementation name)",
          "_initData": "Data for deployed token initialize method"
        },
        "returns": {
          "deployedCloneAddress_": "Address of the deployed clone"
        }
      },
      "getNextCloneAddress(bytes32)": {
        "params": {
          "_implementationHash": "keccak256(implementation name)"
        },
        "returns": {
          "_0": "Predicted address of the next lp token"
        }
      },
      "setImplementation(bytes32,address,address,address)": {
        "params": {
          "_implementationAddress": "An address of the implementation",
          "_implementationHash": "keccak256(implementation name)",
          "_proxyAddress": "An address of the proxy",
          "_proxyAdminAddress": "An address of the proxy admin"
        }
      }
    },
    "title": "Proxy clones factory",
    "version": 1
  },
  "userdoc": {
    "kind": "user",
    "methods": {},
    "version": 1
  },
  "storageLayout": {
    "storage": [
      {
        "astId": 702,
        "contract": "contracts/clones/ProxyCloneFactory.sol:ProxyCloneFactory",
        "label": "_initialized",
        "offset": 0,
        "slot": "0",
        "type": "t_bool"
      },
      {
        "astId": 705,
        "contract": "contracts/clones/ProxyCloneFactory.sol:ProxyCloneFactory",
        "label": "_initializing",
        "offset": 1,
        "slot": "0",
        "type": "t_bool"
      },
      {
        "astId": 15187,
        "contract": "contracts/clones/ProxyCloneFactory.sol:ProxyCloneFactory",
        "label": "moduleMap",
        "offset": 2,
        "slot": "0",
        "type": "t_contract(IModuleMap)24885"
      },
      {
        "astId": 8512,
        "contract": "contracts/clones/ProxyCloneFactory.sol:ProxyCloneFactory",
        "label": "_controllers",
        "offset": 0,
        "slot": "1",
        "type": "t_mapping(t_address,t_bool)"
      },
      {
        "astId": 8515,
        "contract": "contracts/clones/ProxyCloneFactory.sol:ProxyCloneFactory",
        "label": "controllers",
        "offset": 0,
        "slot": "2",
        "type": "t_array(t_address)dyn_storage"
      },
      {
        "astId": 4408,
        "contract": "contracts/clones/ProxyCloneFactory.sol:ProxyCloneFactory",
        "label": "implementations",
        "offset": 0,
        "slot": "3",
        "type": "t_mapping(t_bytes32,t_struct(Implementation)25243_storage)"
      }
    ],
    "types": {
      "t_address": {
        "encoding": "inplace",
        "label": "address",
        "numberOfBytes": "20"
      },
      "t_array(t_address)dyn_storage": {
        "base": "t_address",
        "encoding": "dynamic_array",
        "label": "address[]",
        "numberOfBytes": "32"
      },
      "t_bool": {
        "encoding": "inplace",
        "label": "bool",
        "numberOfBytes": "1"
      },
      "t_bytes32": {
        "encoding": "inplace",
        "label": "bytes32",
        "numberOfBytes": "32"
      },
      "t_contract(IModuleMap)24885": {
        "encoding": "inplace",
        "label": "contract IModuleMap",
        "numberOfBytes": "20"
      },
      "t_mapping(t_address,t_bool)": {
        "encoding": "mapping",
        "key": "t_address",
        "label": "mapping(address => bool)",
        "numberOfBytes": "32",
        "value": "t_bool"
      },
      "t_mapping(t_bytes32,t_struct(Implementation)25243_storage)": {
        "encoding": "mapping",
        "key": "t_bytes32",
        "label": "mapping(bytes32 => struct IProxyCloneFactory.Implementation)",
        "numberOfBytes": "32",
        "value": "t_struct(Implementation)25243_storage"
      },
      "t_struct(Implementation)25243_storage": {
        "encoding": "inplace",
        "label": "struct IProxyCloneFactory.Implementation",
        "members": [
          {
            "astId": 25236,
            "contract": "contracts/clones/ProxyCloneFactory.sol:ProxyCloneFactory",
            "label": "proxyAdmin",
            "offset": 0,
            "slot": "0",
            "type": "t_address"
          },
          {
            "astId": 25238,
            "contract": "contracts/clones/ProxyCloneFactory.sol:ProxyCloneFactory",
            "label": "proxy",
            "offset": 0,
            "slot": "1",
            "type": "t_address"
          },
          {
            "astId": 25240,
            "contract": "contracts/clones/ProxyCloneFactory.sol:ProxyCloneFactory",
            "label": "implementation",
            "offset": 0,
            "slot": "2",
            "type": "t_address"
          },
          {
            "astId": 25242,
            "contract": "contracts/clones/ProxyCloneFactory.sol:ProxyCloneFactory",
            "label": "salt",
            "offset": 20,
            "slot": "2",
            "type": "t_uint96"
          }
        ],
        "numberOfBytes": "96"
      },
      "t_uint96": {
        "encoding": "inplace",
        "label": "uint96",
        "numberOfBytes": "12"
      }
    }
  }
}