{
  "address": "0xBAe42cfd9d59eF0a015FfAf839f942D3eE7C9F0F",
  "abi": [
    {
      "inputs": [
        {
          "internalType": "address",
          "name": "controller",
          "type": "address"
        }
      ],
      "name": "addController",
      "outputs": [],
      "stateMutability": "nonpayable",
      "type": "function"
    },
    {
      "inputs": [
        {
          "internalType": "uint256",
          "name": "",
          "type": "uint256"
        }
      ],
      "name": "controllers",
      "outputs": [
        {
          "internalType": "address",
          "name": "",
          "type": "address"
        }
      ],
      "stateMutability": "view",
      "type": "function"
    },
    {
      "inputs": [
        {
          "internalType": "address",
          "name": "_token",
          "type": "address"
        },
        {
          "internalType": "uint256",
          "name": "_amount",
          "type": "uint256"
        }
      ],
      "name": "distributeRewards",
      "outputs": [],
      "stateMutability": "nonpayable",
      "type": "function"
    },
    {
      "inputs": [],
      "name": "getAllControllers",
      "outputs": [
        {
          "internalType": "address[]",
          "name": "currentControllers",
          "type": "address[]"
        }
      ],
      "stateMutability": "view",
      "type": "function"
    },
    {
      "inputs": [
        {
          "internalType": "address[]",
          "name": "controllers_",
          "type": "address[]"
        },
        {
          "internalType": "address",
          "name": "moduleMap_",
          "type": "address"
        },
        {
          "components": [
            {
              "internalType": "uint128",
              "name": "rawTransferTarget",
              "type": "uint128"
            },
            {
              "internalType": "uint128",
              "name": "customDataTarget",
              "type": "uint128"
            }
          ],
          "internalType": "struct SmartRewardDistributor.DistributionRatio",
          "name": "_ratio",
          "type": "tuple"
        },
        {
          "internalType": "address",
          "name": "_rawTransferTarget",
          "type": "address"
        },
        {
          "internalType": "address",
          "name": "_customDataTarget",
          "type": "address"
        },
        {
          "internalType": "bytes",
          "name": "_customData",
          "type": "bytes"
        }
      ],
      "name": "initialize",
      "outputs": [],
      "stateMutability": "nonpayable",
      "type": "function"
    },
    {
      "inputs": [
        {
          "internalType": "address",
          "name": "controller",
          "type": "address"
        }
      ],
      "name": "isController",
      "outputs": [
        {
          "internalType": "bool",
          "name": "status",
          "type": "bool"
        }
      ],
      "stateMutability": "view",
      "type": "function"
    },
    {
      "inputs": [],
      "name": "moduleMap",
      "outputs": [
        {
          "internalType": "contract IModuleMap",
          "name": "",
          "type": "address"
        }
      ],
      "stateMutability": "view",
      "type": "function"
    },
    {
      "inputs": [
        {
          "components": [
            {
              "internalType": "uint128",
              "name": "rawTransferTarget",
              "type": "uint128"
            },
            {
              "internalType": "uint128",
              "name": "customDataTarget",
              "type": "uint128"
            }
          ],
          "internalType": "struct SmartRewardDistributor.DistributionRatio",
          "name": "_ratio",
          "type": "tuple"
        },
        {
          "internalType": "address",
          "name": "_rawTransferTarget",
          "type": "address"
        },
        {
          "internalType": "address",
          "name": "_customDataTarget",
          "type": "address"
        },
        {
          "internalType": "bytes",
          "name": "_customData",
          "type": "bytes"
        }
      ],
      "name": "setDistributionParameters",
      "outputs": [],
      "stateMutability": "nonpayable",
      "type": "function"
    }
  ],
  "transactionHash": "0xf36cfbe22d31aad1a60e7c25b1cad948378b5766c326b24099e262ab07badc92",
  "args": [],
  "solcInputHash": "0a3424f7367ffd1ec4d33316cab8ebd3",
  "bytecode": "0x608060405234801561001057600080fd5b50611484806100206000396000f3fe608060405234801561001057600080fd5b50600436106100785760003560e01c80630f0a1c6f1461007d578063337993cb146100ac578063504dabb2146100c1578063a7fc7a07146100d6578063a8031a1d146100e9578063b429afeb146100fc578063b66fd1be14610138578063e94b0dd21461014b575b600080fd5b600054610096906201000090046001600160a01b031681565b6040516100a3919061113c565b60405180910390f35b6100b461015e565b6040516100a39190611150565b6100d46100cf366004610e96565b6101c0565b005b6100d46100e4366004610e33565b6102df565b6100d46100f7366004610e6b565b6104d7565b61012861010a366004610e33565b6001600160a01b031660009081526001602052604090205460ff1690565b60405190151581526020016100a3565b6100d4610146366004610ff2565b6106c9565b61009661015936600461106a565b610830565b606060028054806020026020016040519081016040528092919081815260200182805480156101b657602002820191906000526020600020905b81546001600160a01b03168152600190910190602001808311610198575b5050505050905090565b600054610100900460ff166101db5760005460ff16156101e3565b6101e361085a565b61024b5760405162461bcd60e51b815260206004820152602e60248201527f496e697469616c697a61626c653a20636f6e747261637420697320616c72656160448201526d191e481a5b9a5d1a585b1a5e995960921b60648201526084015b60405180910390fd5b600054610100900460ff1615801561026d576000805461ffff19166101011790555b610277888861086b565b85600361028482826113f9565b5050600480546001600160a01b038088166001600160a01b03199283161790925560058054928716929091169190911790556102c260068484610cd8565b5080156102d5576000805461ff00191690555b5050505050505050565b600080546040516337c61fc560e11b8152620100009091046001600160a01b031691636f8c3f8a91610314919060040161119d565b60206040518083038186803b15801561032c57600080fd5b505afa158015610340573d6000803e3d6000fd5b505050506040513d601f19601f820116820180604052508101906103649190610e4f565b6001600160a01b0316632f54bf6e336040518263ffffffff1660e01b815260040161038f919061113c565b60206040518083038186803b1580156103a757600080fd5b505afa1580156103bb573d6000803e3d6000fd5b505050506040513d601f19601f820116820180604052508101906103df9190610fd2565b6103fb5760405162461bcd60e51b8152600401610242906111f8565b6001600160a01b03811660009081526001602081905260408220805460ff19169091179055805b600254811015610481576002818154811061044d57634e487b7160e01b600052603260045260246000fd5b6000918252602090912001546001600160a01b038481169116141561047157600191505b61047a81611394565b9050610422565b50806104d357600280546001810182556000919091527f405787fa12a823e0f2b7631cc41b3ba8828b3321ca811111fa75cd3aa3bb5ace0180546001600160a01b0319166001600160a01b0384161790555b5050565b604080518082019091526003546001600160801b03808216808452600160801b909204166020830181905260009161050f91906112b2565b6001600160801b0316116105655760405162461bcd60e51b815260206004820152601d60248201527f646973747269627574696f6e20726174696f206973206e6f74207365740000006044820152606401610242565b60208101518151600091610578916112b2565b82516001600160801b03918216916105919116856112fd565b61059b91906112dd565b905060006105a9828561131c565b905081156105cd576004546105cd906001600160a01b0387811691339116856109c0565b80156106c2576005546105ef906001600160a01b0387811691339116846109c0565b6005546040516000916001600160a01b03169061061390600690859060200161109e565b60408051601f198184030181529082905261062d91611082565b6000604051808303816000865af19150503d806000811461066a576040519150601f19603f3d011682016040523d82523d6000602084013e61066f565b606091505b50509050806106c05760405162461bcd60e51b815260206004820181905260248201527f646973747269627574696f6e206c6f772d6c6576656c2063616c6c206661696c6044820152606401610242565b505b5050505050565b600080546040516337c61fc560e11b8152620100009091046001600160a01b031691636f8c3f8a916106fe919060040161119d565b60206040518083038186803b15801561071657600080fd5b505afa15801561072a573d6000803e3d6000fd5b505050506040513d601f19601f8201168201806040525081019061074e9190610e4f565b6001600160a01b0316632f54bf6e336040518263ffffffff1660e01b8152600401610779919061113c565b60206040518083038186803b15801561079157600080fd5b505afa1580156107a5573d6000803e3d6000fd5b505050506040513d601f19601f820116820180604052508101906107c99190610fd2565b6107e55760405162461bcd60e51b8152600401610242906111f8565b8460036107f282826113f9565b5050600480546001600160a01b038087166001600160a01b03199283161790925560058054928616929091169190911790556106c060068383610cd8565b6002818154811061084057600080fd5b6000918252602090912001546001600160a01b0316905081565b600061086530610a20565b15905090565b600054610100900460ff166108925760405162461bcd60e51b815260040161024290611267565b6001600160a01b0381166108b85760405162461bcd60e51b815260040161024290611242565b60005b825181101561092e5760006001600160a01b03168382815181106108ef57634e487b7160e01b600052603260045260246000fd5b60200260200101516001600160a01b0316141561091e5760405162461bcd60e51b815260040161024290611242565b61092781611394565b90506108bb565b5060005b82518110156109a257600180600085848151811061096057634e487b7160e01b600052603260045260246000fd5b6020908102919091018101516001600160a01b03168252810191909152604001600020805460ff191691151591909117905561099b81611394565b9050610932565b5081516109b6906002906020850190610d5c565b506104d381610a2f565b604080516001600160a01b0385811660248301528416604482015260648082018490528251808303909101815260849091019091526020810180516001600160e01b03166323b872dd60e01b179052610a1a908590610a80565b50505050565b6001600160a01b03163b151590565b600054610100900460ff16610a565760405162461bcd60e51b815260040161024290611267565b600080546001600160a01b03909216620100000262010000600160b01b0319909216919091179055565b6000610ad5826040518060400160405280602081526020017f5361666545524332303a206c6f772d6c6576656c2063616c6c206661696c6564815250856001600160a01b0316610b579092919063ffffffff16565b805190915015610b525780806020019051810190610af39190610fd2565b610b525760405162461bcd60e51b815260206004820152602a60248201527f5361666545524332303a204552433230206f7065726174696f6e20646964206e6044820152691bdd081cdd58d8d9595960b21b6064820152608401610242565b505050565b6060610b668484600085610b70565b90505b9392505050565b606082471015610bd15760405162461bcd60e51b815260206004820152602660248201527f416464726573733a20696e73756666696369656e742062616c616e636520666f6044820152651c8818d85b1b60d21b6064820152608401610242565b610bda85610a20565b610c265760405162461bcd60e51b815260206004820152601d60248201527f416464726573733a2063616c6c20746f206e6f6e2d636f6e74726163740000006044820152606401610242565b600080866001600160a01b03168587604051610c429190611082565b60006040518083038185875af1925050503d8060008114610c7f576040519150601f19603f3d011682016040523d82523d6000602084013e610c84565b606091505b5091509150610c94828286610c9f565b979650505050505050565b60608315610cae575081610b69565b825115610cbe5782518084602001fd5b8160405162461bcd60e51b815260040161024291906111c5565b828054610ce49061135f565b90600052602060002090601f016020900481019282610d065760008555610d4c565b82601f10610d1f5782800160ff19823516178555610d4c565b82800160010185558215610d4c579182015b82811115610d4c578235825591602001919060010190610d31565b50610d58929150610db1565b5090565b828054828255906000526020600020908101928215610d4c579160200282015b82811115610d4c57825182546001600160a01b0319166001600160a01b03909116178255602090920191600190910190610d7c565b5b80821115610d585760008155600101610db2565b8035610dd181611436565b919050565b60008083601f840112610de7578182fd5b5081356001600160401b03811115610dfd578182fd5b602083019150836020828501011115610e1557600080fd5b9250929050565b600060408284031215610e2d578081fd5b50919050565b600060208284031215610e44578081fd5b8135610b6981611436565b600060208284031215610e60578081fd5b8151610b6981611436565b60008060408385031215610e7d578081fd5b8235610e8881611436565b946020939093013593505050565b600080600080600080600060e0888a031215610eb0578283fd5b87356001600160401b0380821115610ec6578485fd5b818a0191508a601f830112610ed9578485fd5b813581811115610eeb57610eeb6113c5565b8060051b604051601f19603f83011681018181108582111715610f1057610f106113c5565b806040525080838252602082019050602086018f6020858901011115610f3457898afd5b8996505b84871015610f5e57610f4981610dc6565b82526001969096019560209182019101610f38565b5050809b50505050610f7260208b01610dc6565b9750610f818b60408c01610e1c565b9650610f8f60808b01610dc6565b9550610f9d60a08b01610dc6565b945060c08a0135915080821115610fb2578384fd5b50610fbf8a828b01610dd6565b989b979a50959850939692959293505050565b600060208284031215610fe3578081fd5b81518015158114610b69578182fd5b600080600080600060a08688031215611009578081fd5b6110138787610e1c565b9450604086013561102381611436565b9350606086013561103381611436565b925060808601356001600160401b0381111561104d578182fd5b61105988828901610dd6565b969995985093965092949392505050565b60006020828403121561107b578081fd5b5035919050565b60008251611094818460208701611333565b9190910192915050565b600080845482600182811c9150808316806110ba57607f831692505b60208084108214156110da57634e487b7160e01b87526022600452602487fd5b8180156110ee57600181146110ff5761112b565b60ff1986168952848901965061112b565b60008b815260209020885b868110156111235781548b82015290850190830161110a565b505084890196505b509785525050509301949350505050565b6001600160a01b0391909116815260200190565b6020808252825182820181905260009190848201906040850190845b818110156111915783516001600160a01b03168352928401929184019160010161116c565b50909695505050505050565b60208101600e83106111bf57634e487b7160e01b600052602160045260246000fd5b91905290565b60208152600082518060208401526111e4816040850160208701611333565b601f01601f19169190910160400192915050565b6020808252602a908201527f436f6e74726f6c6c65643a3a6f6e6c794f776e65723a2043616c6c6572206973604082015269103737ba1037bbb732b960b11b606082015260800190565b6020808252600b908201526a626164206164647265737360a81b604082015260600190565b6020808252602b908201527f496e697469616c697a61626c653a20636f6e7472616374206973206e6f74206960408201526a6e697469616c697a696e6760a81b606082015260800190565b60006001600160801b038281168482168083038211156112d4576112d46113af565b01949350505050565b6000826112f857634e487b7160e01b81526012600452602481fd5b500490565b6000816000190483118215151615611317576113176113af565b500290565b60008282101561132e5761132e6113af565b500390565b60005b8381101561134e578181015183820152602001611336565b83811115610a1a5750506000910152565b600181811c9082168061137357607f821691505b60208210811415610e2d57634e487b7160e01b600052602260045260246000fd5b60006000198214156113a8576113a86113af565b5060010190565b634e487b7160e01b600052601160045260246000fd5b634e487b7160e01b600052604160045260246000fd5b600081356001600160801b03811681146113f3578182fd5b92915050565b6001600160801b0361140a836113db565b1660018060801b0319818184541617835580611428602086016113db565b60801b168217835550505050565b6001600160a01b038116811461144b57600080fd5b5056fea26469706673582212207f39c2b1f92d328acaec060c05582d159d93f2c747fd93883407d51bd929494b64736f6c63430008040033",
  "devdoc": {
    "kind": "dev",
    "methods": {},
    "version": 1
  },
  "userdoc": {
    "kind": "user",
    "methods": {},
    "version": 1
  },
  "storageLayout": {
    "storage": [
      {
        "astId": 702,
        "contract": "contracts/yield-integrations/SmartRewardDistributor.sol:SmartRewardDistributor",
        "label": "_initialized",
        "offset": 0,
        "slot": "0",
        "type": "t_bool"
      },
      {
        "astId": 705,
        "contract": "contracts/yield-integrations/SmartRewardDistributor.sol:SmartRewardDistributor",
        "label": "_initializing",
        "offset": 1,
        "slot": "0",
        "type": "t_bool"
      },
      {
        "astId": 15658,
        "contract": "contracts/yield-integrations/SmartRewardDistributor.sol:SmartRewardDistributor",
        "label": "moduleMap",
        "offset": 2,
        "slot": "0",
        "type": "t_contract(IModuleMap)29381"
      },
      {
        "astId": 8983,
        "contract": "contracts/yield-integrations/SmartRewardDistributor.sol:SmartRewardDistributor",
        "label": "_controllers",
        "offset": 0,
        "slot": "1",
        "type": "t_mapping(t_address,t_bool)"
      },
      {
        "astId": 8986,
        "contract": "contracts/yield-integrations/SmartRewardDistributor.sol:SmartRewardDistributor",
        "label": "controllers",
        "offset": 0,
        "slot": "2",
        "type": "t_array(t_address)dyn_storage"
      },
      {
        "astId": 63726,
        "contract": "contracts/yield-integrations/SmartRewardDistributor.sol:SmartRewardDistributor",
        "label": "ratio",
        "offset": 0,
        "slot": "3",
        "type": "t_struct(DistributionRatio)63723_storage"
      },
      {
        "astId": 63728,
        "contract": "contracts/yield-integrations/SmartRewardDistributor.sol:SmartRewardDistributor",
        "label": "rawTransferTarget",
        "offset": 0,
        "slot": "4",
        "type": "t_address"
      },
      {
        "astId": 63730,
        "contract": "contracts/yield-integrations/SmartRewardDistributor.sol:SmartRewardDistributor",
        "label": "customDataTarget",
        "offset": 0,
        "slot": "5",
        "type": "t_address"
      },
      {
        "astId": 63732,
        "contract": "contracts/yield-integrations/SmartRewardDistributor.sol:SmartRewardDistributor",
        "label": "customData",
        "offset": 0,
        "slot": "6",
        "type": "t_bytes_storage"
      }
    ],
    "types": {
      "t_address": {
        "encoding": "inplace",
        "label": "address",
        "numberOfBytes": "20"
      },
      "t_array(t_address)dyn_storage": {
        "base": "t_address",
        "encoding": "dynamic_array",
        "label": "address[]",
        "numberOfBytes": "32"
      },
      "t_bool": {
        "encoding": "inplace",
        "label": "bool",
        "numberOfBytes": "1"
      },
      "t_bytes_storage": {
        "encoding": "bytes",
        "label": "bytes",
        "numberOfBytes": "32"
      },
      "t_contract(IModuleMap)29381": {
        "encoding": "inplace",
        "label": "contract IModuleMap",
        "numberOfBytes": "20"
      },
      "t_mapping(t_address,t_bool)": {
        "encoding": "mapping",
        "key": "t_address",
        "label": "mapping(address => bool)",
        "numberOfBytes": "32",
        "value": "t_bool"
      },
      "t_struct(DistributionRatio)63723_storage": {
        "encoding": "inplace",
        "label": "struct SmartRewardDistributor.DistributionRatio",
        "members": [
          {
            "astId": 63720,
            "contract": "contracts/yield-integrations/SmartRewardDistributor.sol:SmartRewardDistributor",
            "label": "rawTransferTarget",
            "offset": 0,
            "slot": "0",
            "type": "t_uint128"
          },
          {
            "astId": 63722,
            "contract": "contracts/yield-integrations/SmartRewardDistributor.sol:SmartRewardDistributor",
            "label": "customDataTarget",
            "offset": 16,
            "slot": "0",
            "type": "t_uint128"
          }
        ],
        "numberOfBytes": "32"
      },
      "t_uint128": {
        "encoding": "inplace",
        "label": "uint128",
        "numberOfBytes": "16"
      }
    }
  }
}