{
  "address": "0x6AC892c3C9256B34C3B5438EaD607e39Fe3789B1",
  "abi": [
    {
      "anonymous": false,
      "inputs": [
        {
          "indexed": true,
          "internalType": "address",
          "name": "owner",
          "type": "address"
        },
        {
          "indexed": true,
          "internalType": "address",
          "name": "spender",
          "type": "address"
        },
        {
          "indexed": false,
          "internalType": "uint256",
          "name": "value",
          "type": "uint256"
        }
      ],
      "name": "Approval",
      "type": "event"
    },
    {
      "anonymous": false,
      "inputs": [
        {
          "indexed": true,
          "internalType": "address",
          "name": "from",
          "type": "address"
        },
        {
          "indexed": true,
          "internalType": "address",
          "name": "to",
          "type": "address"
        },
        {
          "indexed": false,
          "internalType": "uint256",
          "name": "value",
          "type": "uint256"
        }
      ],
      "name": "Transfer",
      "type": "event"
    },
    {
      "inputs": [
        {
          "internalType": "address",
          "name": "controller",
          "type": "address"
        }
      ],
      "name": "addController",
      "outputs": [],
      "stateMutability": "nonpayable",
      "type": "function"
    },
    {
      "inputs": [
        {
          "internalType": "address",
          "name": "owner",
          "type": "address"
        },
        {
          "internalType": "address",
          "name": "spender",
          "type": "address"
        }
      ],
      "name": "allowance",
      "outputs": [
        {
          "internalType": "uint256",
          "name": "",
          "type": "uint256"
        }
      ],
      "stateMutability": "view",
      "type": "function"
    },
    {
      "inputs": [
        {
          "internalType": "address",
          "name": "spender",
          "type": "address"
        },
        {
          "internalType": "uint256",
          "name": "amount",
          "type": "uint256"
        }
      ],
      "name": "approve",
      "outputs": [
        {
          "internalType": "bool",
          "name": "",
          "type": "bool"
        }
      ],
      "stateMutability": "nonpayable",
      "type": "function"
    },
    {
      "inputs": [
        {
          "internalType": "address",
          "name": "account",
          "type": "address"
        }
      ],
      "name": "balanceOf",
      "outputs": [
        {
          "internalType": "uint256",
          "name": "",
          "type": "uint256"
        }
      ],
      "stateMutability": "view",
      "type": "function"
    },
    {
      "inputs": [
        {
          "internalType": "address",
          "name": "_account",
          "type": "address"
        },
        {
          "internalType": "uint256",
          "name": "_amount",
          "type": "uint256"
        }
      ],
      "name": "burn",
      "outputs": [],
      "stateMutability": "nonpayable",
      "type": "function"
    },
    {
      "inputs": [
        {
          "internalType": "uint256",
          "name": "",
          "type": "uint256"
        }
      ],
      "name": "controllers",
      "outputs": [
        {
          "internalType": "address",
          "name": "",
          "type": "address"
        }
      ],
      "stateMutability": "view",
      "type": "function"
    },
    {
      "inputs": [],
      "name": "decimals",
      "outputs": [
        {
          "internalType": "uint8",
          "name": "",
          "type": "uint8"
        }
      ],
      "stateMutability": "view",
      "type": "function"
    },
    {
      "inputs": [
        {
          "internalType": "address",
          "name": "spender",
          "type": "address"
        },
        {
          "internalType": "uint256",
          "name": "subtractedValue",
          "type": "uint256"
        }
      ],
      "name": "decreaseAllowance",
      "outputs": [
        {
          "internalType": "bool",
          "name": "",
          "type": "bool"
        }
      ],
      "stateMutability": "nonpayable",
      "type": "function"
    },
    {
      "inputs": [],
      "name": "getAllControllers",
      "outputs": [
        {
          "internalType": "address[]",
          "name": "currentControllers",
          "type": "address[]"
        }
      ],
      "stateMutability": "view",
      "type": "function"
    },
    {
      "inputs": [
        {
          "internalType": "address",
          "name": "spender",
          "type": "address"
        },
        {
          "internalType": "uint256",
          "name": "addedValue",
          "type": "uint256"
        }
      ],
      "name": "increaseAllowance",
      "outputs": [
        {
          "internalType": "bool",
          "name": "",
          "type": "bool"
        }
      ],
      "stateMutability": "nonpayable",
      "type": "function"
    },
    {
      "inputs": [
        {
          "internalType": "bytes",
          "name": "_data",
          "type": "bytes"
        }
      ],
      "name": "initialize",
      "outputs": [],
      "stateMutability": "nonpayable",
      "type": "function"
    },
    {
      "inputs": [
        {
          "internalType": "address",
          "name": "controller",
          "type": "address"
        }
      ],
      "name": "isController",
      "outputs": [
        {
          "internalType": "bool",
          "name": "status",
          "type": "bool"
        }
      ],
      "stateMutability": "view",
      "type": "function"
    },
    {
      "inputs": [
        {
          "internalType": "address",
          "name": "_account",
          "type": "address"
        },
        {
          "internalType": "uint256",
          "name": "_amount",
          "type": "uint256"
        }
      ],
      "name": "mint",
      "outputs": [],
      "stateMutability": "nonpayable",
      "type": "function"
    },
    {
      "inputs": [],
      "name": "moduleMap",
      "outputs": [
        {
          "internalType": "contract IModuleMap",
          "name": "",
          "type": "address"
        }
      ],
      "stateMutability": "view",
      "type": "function"
    },
    {
      "inputs": [],
      "name": "name",
      "outputs": [
        {
          "internalType": "string",
          "name": "",
          "type": "string"
        }
      ],
      "stateMutability": "view",
      "type": "function"
    },
    {
      "inputs": [],
      "name": "symbol",
      "outputs": [
        {
          "internalType": "string",
          "name": "",
          "type": "string"
        }
      ],
      "stateMutability": "view",
      "type": "function"
    },
    {
      "inputs": [],
      "name": "totalSupply",
      "outputs": [
        {
          "internalType": "uint256",
          "name": "",
          "type": "uint256"
        }
      ],
      "stateMutability": "view",
      "type": "function"
    },
    {
      "inputs": [
        {
          "internalType": "address",
          "name": "to",
          "type": "address"
        },
        {
          "internalType": "uint256",
          "name": "amount",
          "type": "uint256"
        }
      ],
      "name": "transfer",
      "outputs": [
        {
          "internalType": "bool",
          "name": "",
          "type": "bool"
        }
      ],
      "stateMutability": "nonpayable",
      "type": "function"
    },
    {
      "inputs": [
        {
          "internalType": "address",
          "name": "from",
          "type": "address"
        },
        {
          "internalType": "address",
          "name": "to",
          "type": "address"
        },
        {
          "internalType": "uint256",
          "name": "amount",
          "type": "uint256"
        }
      ],
      "name": "transferFrom",
      "outputs": [
        {
          "internalType": "bool",
          "name": "",
          "type": "bool"
        }
      ],
      "stateMutability": "nonpayable",
      "type": "function"
    }
  ],
  "transactionHash": "0x63ea32fd8659ac5fefd1fb5c6e4b2885392314314de895e9458acccbd6ce7add",
  "args": [],
  "solcInputHash": "8808451cf67f14b5f43f3d668b5cae67",
  "bytecode": "0x608060405234801561001057600080fd5b50611981806100206000396000f3fe608060405234801561001057600080fd5b50600436106100f15760003560e01c806306fdde03146100f6578063095ea7b3146101145780630f0a1c6f1461013757806318160ddd1461015d57806323b872dd14610173578063313ce56714610186578063337993cb1461019557806339509351146101aa57806340c10f19146101bd578063439fab91146101d257806370a08231146101e557806395d89b411461020e5780639dc29fac14610216578063a457c2d714610229578063a7fc7a071461023c578063a9059cbb1461024f578063b429afeb14610262578063dd62ed3e1461028e578063e94b0dd2146102a1575b600080fd5b6100fe6102b4565b60405161010b91906116fc565b60405180910390f35b610127610122366004611491565b610346565b604051901515815260200161010b565b600054610150906201000090046001600160a01b031681565b60405161010b9190611673565b61016561035e565b60405190815260200161010b565b610127610181366004611451565b61036e565b6040516012815260200161010b565b61019d610392565b60405161010b9190611687565b6101276101b8366004611491565b6103f3565b6101d06101cb366004611491565b610432565b005b6101d06101e03660046114dc565b610478565b6101656101f33660046113da565b6001600160a01b031660009081526035602052604090205490565b6100fe61056a565b6101d0610224366004611491565b610579565b610127610237366004611491565b6105b2565b6101d061024a3660046113da565b610644565b61012761025d366004611491565b610880565b6101276102703660046113da565b6001600160a01b031660009081526001602052604090205460ff1690565b61016561029c366004611419565b61088e565b6101506102af36600461165b565b6108b9565b6060603880546102c390611891565b80601f01602080910402602001604051908101604052809291908181526020018280546102ef90611891565b801561033c5780601f106103115761010080835404028352916020019161033c565b820191906000526020600020905b81548152906001019060200180831161031f57829003601f168201915b5050505050905090565b6000336103548185856108e3565b5060019392505050565b600061036960375490565b905090565b60003361037c858285610a07565b610387858585610a81565b506001949350505050565b6060600280548060200260200160405190810160405280929190818152602001828054801561033c57602002820191906000526020600020905b81546001600160a01b031681526001909101906020018083116103cc575050505050905090565b3360008181526036602090815260408083206001600160a01b0387168452909152812054909190610354908290869061042d908790611862565b6108e3565b3360009081526001602052604090205460ff1661046a5760405162461bcd60e51b815260040161046190611774565b60405180910390fd5b6104748282610c43565b5050565b600054610100900460ff166104935760005460ff1615610497565b303b155b6104fa5760405162461bcd60e51b815260206004820152602e60248201527f496e697469616c697a61626c653a20636f6e747261637420697320616c72656160448201526d191e481a5b9a5d1a585b1a5e995960921b6064820152608401610461565b600054610100900460ff1615801561051c576000805461ffff19166101011790555b60008080808061052e87890189611548565b945094509450945094506105428585610d18565b61054c8282610d49565b505060675550508015610565576000805461ff00191690555b505050565b6060603980546102c390611891565b3360009081526001602052604090205460ff166105a85760405162461bcd60e51b815260040161046190611774565b6104748282610e9e565b3360008181526036602090815260408083206001600160a01b0387168452909152812054909190838110156106375760405162461bcd60e51b815260206004820152602560248201527f45524332303a2064656372656173656420616c6c6f77616e63652062656c6f77604482015264207a65726f60d81b6064820152608401610461565b61038782868684036108e3565b600080546040516337c61fc560e11b8152620100009091046001600160a01b031691636f8c3f8a9161067991906004016116d4565b60206040518083038186803b15801561069157600080fd5b505afa1580156106a5573d6000803e3d6000fd5b505050506040513d601f19601f820116820180604052508101906106c991906113fd565b6001600160a01b0316632f54bf6e336040518263ffffffff1660e01b81526004016106f49190611673565b60206040518083038186803b15801561070c57600080fd5b505afa158015610720573d6000803e3d6000fd5b505050506040513d601f19601f8201168201806040525081019061074491906114bc565b6107a35760405162461bcd60e51b815260206004820152602a60248201527f436f6e74726f6c6c65643a3a6f6e6c794f776e65723a2043616c6c6572206973604482015269103737ba1037bbb732b960b11b6064820152608401610461565b6001600160a01b03811660009081526001602081905260408220805460ff19169091179055805b60025481101561082957600281815481106107f557634e487b7160e01b600052603260045260246000fd5b6000918252602090912001546001600160a01b038481169116141561081957600191505b610822816118cc565b90506107ca565b508061047457600280546001810182556000919091527f405787fa12a823e0f2b7631cc41b3ba8828b3321ca811111fa75cd3aa3bb5ace0180546001600160a01b0384166001600160a01b03199091161790555050565b600033610354818585610a81565b6001600160a01b03918216600090815260366020908152604080832093909416825291909152205490565b600281815481106108c957600080fd5b6000918252602090912001546001600160a01b0316905081565b6001600160a01b0383166109455760405162461bcd60e51b8152602060048201526024808201527f45524332303a20617070726f76652066726f6d20746865207a65726f206164646044820152637265737360e01b6064820152608401610461565b6001600160a01b0382166109a65760405162461bcd60e51b815260206004820152602260248201527f45524332303a20617070726f766520746f20746865207a65726f206164647265604482015261737360f01b6064820152608401610461565b6001600160a01b0383811660008181526036602090815260408083209487168084529482529182902085905590518481527f8c5be1e5ebec7d5bd14f71427d1e84f3dd0314c0f7b2291e5b200ac8c7c3b925910160405180910390a3505050565b6000610a13848461088e565b90506000198114610a7b5781811015610a6e5760405162461bcd60e51b815260206004820152601d60248201527f45524332303a20696e73756666696369656e7420616c6c6f77616e63650000006044820152606401610461565b610a7b84848484036108e3565b50505050565b6001600160a01b038316610ae55760405162461bcd60e51b815260206004820152602560248201527f45524332303a207472616e736665722066726f6d20746865207a65726f206164604482015264647265737360d81b6064820152608401610461565b6001600160a01b038216610b475760405162461bcd60e51b815260206004820152602360248201527f45524332303a207472616e7366657220746f20746865207a65726f206164647260448201526265737360e81b6064820152608401610461565b6001600160a01b03831660009081526035602052604090205481811015610bbf5760405162461bcd60e51b815260206004820152602660248201527f45524332303a207472616e7366657220616d6f756e7420657863656564732062604482015265616c616e636560d01b6064820152608401610461565b6001600160a01b03808516600090815260356020526040808220858503905591851681529081208054849290610bf6908490611862565b92505081905550826001600160a01b0316846001600160a01b031660008051602061192c83398151915284604051610c3091815260200190565b60405180910390a3610a7b848484610fdd565b6001600160a01b038216610c995760405162461bcd60e51b815260206004820152601f60248201527f45524332303a206d696e7420746f20746865207a65726f2061646472657373006044820152606401610461565b8060376000828254610cab9190611862565b90915550506001600160a01b03821660009081526035602052604081208054839290610cd8908490611862565b90915550506040518181526001600160a01b0383169060009060008051602061192c8339815191529060200160405180910390a361047460008383610fdd565b600054610100900460ff16610d3f5760405162461bcd60e51b8152600401610461906117c8565b61047482826111d3565b600054610100900460ff16610d705760405162461bcd60e51b8152600401610461906117c8565b6001600160a01b038116610d965760405162461bcd60e51b81526004016104619061174f565b60005b8251811015610e0c5760006001600160a01b0316838281518110610dcd57634e487b7160e01b600052603260045260246000fd5b60200260200101516001600160a01b03161415610dfc5760405162461bcd60e51b81526004016104619061174f565b610e05816118cc565b9050610d99565b5060005b8251811015610e80576001806000858481518110610e3e57634e487b7160e01b600052603260045260246000fd5b6020908102919091018101516001600160a01b03168252810191909152604001600020805460ff1916911515919091179055610e79816118cc565b9050610e10565b508151610e94906002906020850190611272565b5061047481611221565b6001600160a01b038216610efe5760405162461bcd60e51b815260206004820152602160248201527f45524332303a206275726e2066726f6d20746865207a65726f206164647265736044820152607360f81b6064820152608401610461565b6001600160a01b03821660009081526035602052604090205481811015610f725760405162461bcd60e51b815260206004820152602260248201527f45524332303a206275726e20616d6f756e7420657863656564732062616c616e604482015261636560f01b6064820152608401610461565b6001600160a01b0383166000908152603560205260408120838303905560378054849290610fa190849061187a565b90915550506040518281526000906001600160a01b0385169060008051602061192c8339815191529060200160405180910390a3610565836000845b6001600160a01b038316156110d6576000546040516337c61fc560e11b8152620100009091046001600160a01b031690636f8c3f8a90611022906005906004016116d4565b60206040518083038186803b15801561103a57600080fd5b505afa15801561104e573d6000803e3d6000fd5b505050506040513d601f19601f8201168201806040525081019061107291906113fd565b6001600160a01b031663a22aecd160675483866040518463ffffffff1660e01b81526004016110a393929190611813565b600060405180830381600087803b1580156110bd57600080fd5b505af11580156110d1573d6000803e3d6000fd5b505050505b6001600160a01b03821615610565576000546040516337c61fc560e11b8152620100009091046001600160a01b031690636f8c3f8a9061111b906005906004016116d4565b60206040518083038186803b15801561113357600080fd5b505afa158015611147573d6000803e3d6000fd5b505050506040513d601f19601f8201168201806040525081019061116b91906113fd565b6001600160a01b03166313cf6b0060675483856040518463ffffffff1660e01b815260040161119c93929190611813565b600060405180830381600087803b1580156111b657600080fd5b505af11580156111ca573d6000803e3d6000fd5b50505050505050565b600054610100900460ff166111fa5760405162461bcd60e51b8152600401610461906117c8565b815161120d9060389060208501906112d7565b5080516105659060399060208401906112d7565b600054610100900460ff166112485760405162461bcd60e51b8152600401610461906117c8565b600080546001600160a01b03909216620100000262010000600160b01b0319909216919091179055565b8280548282559060005260206000209081019282156112c7579160200282015b828111156112c757825182546001600160a01b0319166001600160a01b03909116178255602090920191600190910190611292565b506112d392915061134b565b5090565b8280546112e390611891565b90600052602060002090601f01602090048101928261130557600085556112c7565b82601f1061131e57805160ff19168380011785556112c7565b828001600101855582156112c7579182015b828111156112c7578251825591602001919060010190611330565b5b808211156112d3576000815560010161134c565b803561136b81611913565b919050565b600082601f830112611380578081fd5b81356001600160401b03811115611399576113996118fd565b6113ac601f8201601f1916602001611832565b8181528460208386010111156113c0578283fd5b816020850160208301379081016020019190915292915050565b6000602082840312156113eb578081fd5b81356113f681611913565b9392505050565b60006020828403121561140e578081fd5b81516113f681611913565b6000806040838503121561142b578081fd5b823561143681611913565b9150602083013561144681611913565b809150509250929050565b600080600060608486031215611465578081fd5b833561147081611913565b9250602084013561148081611913565b929592945050506040919091013590565b600080604083850312156114a3578182fd5b82356114ae81611913565b946020939093013593505050565b6000602082840312156114cd578081fd5b815180151581146113f6578182fd5b600080602083850312156114ee578182fd5b82356001600160401b0380821115611504578384fd5b818501915085601f830112611517578384fd5b813581811115611525578485fd5b866020828501011115611536578485fd5b60209290920196919550909350505050565b600080600080600060a0868803121561155f578081fd5b85356001600160401b0380821115611575578283fd5b61158189838a01611370565b9650602091508188013581811115611597578384fd5b6115a38a828b01611370565b965050604088013594506060880135818111156115be578384fd5b8801601f81018a136115ce578384fd5b8035828111156115e0576115e06118fd565b8060051b92506115f1848401611832565b8181528481019083860185850187018e101561160b578788fd5b8795505b83861015611639578035945061162485611913565b8483526001959095019491860191860161160f565b5080975050505050505061164f60808701611360565b90509295509295909350565b60006020828403121561166c578081fd5b5035919050565b6001600160a01b0391909116815260200190565b6020808252825182820181905260009190848201906040850190845b818110156116c85783516001600160a01b0316835292840192918401916001016116a3565b50909695505050505050565b60208101600e83106116f657634e487b7160e01b600052602160045260246000fd5b91905290565b6000602080835283518082850152825b818110156117285785810183015185820160400152820161170c565b818111156117395783604083870101525b50601f01601f1916929092016040019392505050565b6020808252600b908201526a626164206164647265737360a81b604082015260600190565b60208082526034908201527f436f6e74726f6c6c65643a3a6f6e6c79436f6e74726f6c6c65723a2043616c6c60408201527332b91034b9903737ba1031b7b73a3937b63632b960611b606082015260800190565b6020808252602b908201527f496e697469616c697a61626c653a20636f6e7472616374206973206e6f74206960408201526a6e697469616c697a696e6760a81b606082015260800190565b92835260208301919091526001600160a01b0316604082015260600190565b604051601f8201601f191681016001600160401b038111828210171561185a5761185a6118fd565b604052919050565b60008219821115611875576118756118e7565b500190565b60008282101561188c5761188c6118e7565b500390565b600181811c908216806118a557607f821691505b602082108114156118c657634e487b7160e01b600052602260045260246000fd5b50919050565b60006000198214156118e0576118e06118e7565b5060010190565b634e487b7160e01b600052601160045260246000fd5b634e487b7160e01b600052604160045260246000fd5b6001600160a01b038116811461192857600080fd5b5056feddf252ad1be2c89b69c2b068fc378daa952ba7f163c4a11628f55a4df523b3efa2646970667358221220056fdaf3fa14fdfa43732ae926256f5538b0ec25d4a6de24c7c561aedd34d41364736f6c63430008040033",
  "devdoc": {
    "kind": "dev",
    "methods": {
      "allowance(address,address)": {
        "details": "See {IERC20-allowance}."
      },
      "approve(address,uint256)": {
        "details": "See {IERC20-approve}. NOTE: If `amount` is the maximum `uint256`, the allowance is not updated on `transferFrom`. This is semantically equivalent to an infinite approval. Requirements: - `spender` cannot be the zero address."
      },
      "decimals()": {
        "details": "Returns the number of decimals used to get its user representation. For example, if `decimals` equals `2`, a balance of `505` tokens should be displayed to a user as `5.05` (`505 / 10 ** 2`). Tokens usually opt for a value of 18, imitating the relationship between Ether and Wei. This is the value {ERC20} uses, unless this function is overridden; NOTE: This information is only used for _display_ purposes: it in no way affects any of the arithmetic of the contract, including {IERC20-balanceOf} and {IERC20-transfer}."
      },
      "decreaseAllowance(address,uint256)": {
        "details": "Atomically decreases the allowance granted to `spender` by the caller. This is an alternative to {approve} that can be used as a mitigation for problems described in {IERC20-approve}. Emits an {Approval} event indicating the updated allowance. Requirements: - `spender` cannot be the zero address. - `spender` must have allowance for the caller of at least `subtractedValue`."
      },
      "increaseAllowance(address,uint256)": {
        "details": "Atomically increases the allowance granted to `spender` by the caller. This is an alternative to {approve} that can be used as a mitigation for problems described in {IERC20-approve}. Emits an {Approval} event indicating the updated allowance. Requirements: - `spender` cannot be the zero address."
      },
      "name()": {
        "details": "Returns the name of the token."
      },
      "symbol()": {
        "details": "Returns the symbol of the token, usually a shorter version of the name."
      },
      "transfer(address,uint256)": {
        "details": "See {IERC20-transfer}. Requirements: - `to` cannot be the zero address. - the caller must have a balance of at least `amount`."
      },
      "transferFrom(address,address,uint256)": {
        "details": "See {IERC20-transferFrom}. Emits an {Approval} event indicating the updated allowance. This is not required by the EIP. See the note at the beginning of {ERC20}. NOTE: Does not update the allowance if the current allowance is the maximum `uint256`. Requirements: - `from` and `to` cannot be the zero address. - `from` must have a balance of at least `amount`. - the caller must have allowance for ``from``'s tokens of at least `amount`."
      }
    },
    "version": 1
  },
  "userdoc": {
    "kind": "user",
    "methods": {},
    "version": 1
  },
  "storageLayout": {
    "storage": [
      {
        "astId": 782,
        "contract": "contracts/token/StrategyERC20.sol:StrategyERC20",
        "label": "_initialized",
        "offset": 0,
        "slot": "0",
        "type": "t_bool"
      },
      {
        "astId": 785,
        "contract": "contracts/token/StrategyERC20.sol:StrategyERC20",
        "label": "_initializing",
        "offset": 1,
        "slot": "0",
        "type": "t_bool"
      },
      {
        "astId": 13291,
        "contract": "contracts/token/StrategyERC20.sol:StrategyERC20",
        "label": "moduleMap",
        "offset": 2,
        "slot": "0",
        "type": "t_contract(IModuleMap)23021"
      },
      {
        "astId": 6616,
        "contract": "contracts/token/StrategyERC20.sol:StrategyERC20",
        "label": "_controllers",
        "offset": 0,
        "slot": "1",
        "type": "t_mapping(t_address,t_bool)"
      },
      {
        "astId": 6619,
        "contract": "contracts/token/StrategyERC20.sol:StrategyERC20",
        "label": "controllers",
        "offset": 0,
        "slot": "2",
        "type": "t_array(t_address)dyn_storage"
      },
      {
        "astId": 2132,
        "contract": "contracts/token/StrategyERC20.sol:StrategyERC20",
        "label": "__gap",
        "offset": 0,
        "slot": "3",
        "type": "t_array(t_uint256)50_storage"
      },
      {
        "astId": 927,
        "contract": "contracts/token/StrategyERC20.sol:StrategyERC20",
        "label": "_balances",
        "offset": 0,
        "slot": "53",
        "type": "t_mapping(t_address,t_uint256)"
      },
      {
        "astId": 933,
        "contract": "contracts/token/StrategyERC20.sol:StrategyERC20",
        "label": "_allowances",
        "offset": 0,
        "slot": "54",
        "type": "t_mapping(t_address,t_mapping(t_address,t_uint256))"
      },
      {
        "astId": 935,
        "contract": "contracts/token/StrategyERC20.sol:StrategyERC20",
        "label": "_totalSupply",
        "offset": 0,
        "slot": "55",
        "type": "t_uint256"
      },
      {
        "astId": 937,
        "contract": "contracts/token/StrategyERC20.sol:StrategyERC20",
        "label": "_name",
        "offset": 0,
        "slot": "56",
        "type": "t_string_storage"
      },
      {
        "astId": 939,
        "contract": "contracts/token/StrategyERC20.sol:StrategyERC20",
        "label": "_symbol",
        "offset": 0,
        "slot": "57",
        "type": "t_string_storage"
      },
      {
        "astId": 1520,
        "contract": "contracts/token/StrategyERC20.sol:StrategyERC20",
        "label": "__gap",
        "offset": 0,
        "slot": "58",
        "type": "t_array(t_uint256)45_storage"
      },
      {
        "astId": 29255,
        "contract": "contracts/token/StrategyERC20.sol:StrategyERC20",
        "label": "id",
        "offset": 0,
        "slot": "103",
        "type": "t_uint256"
      }
    ],
    "types": {
      "t_address": {
        "encoding": "inplace",
        "label": "address",
        "numberOfBytes": "20"
      },
      "t_array(t_address)dyn_storage": {
        "base": "t_address",
        "encoding": "dynamic_array",
        "label": "address[]",
        "numberOfBytes": "32"
      },
      "t_array(t_uint256)45_storage": {
        "base": "t_uint256",
        "encoding": "inplace",
        "label": "uint256[45]",
        "numberOfBytes": "1440"
      },
      "t_array(t_uint256)50_storage": {
        "base": "t_uint256",
        "encoding": "inplace",
        "label": "uint256[50]",
        "numberOfBytes": "1600"
      },
      "t_bool": {
        "encoding": "inplace",
        "label": "bool",
        "numberOfBytes": "1"
      },
      "t_contract(IModuleMap)23021": {
        "encoding": "inplace",
        "label": "contract IModuleMap",
        "numberOfBytes": "20"
      },
      "t_mapping(t_address,t_bool)": {
        "encoding": "mapping",
        "key": "t_address",
        "label": "mapping(address => bool)",
        "numberOfBytes": "32",
        "value": "t_bool"
      },
      "t_mapping(t_address,t_mapping(t_address,t_uint256))": {
        "encoding": "mapping",
        "key": "t_address",
        "label": "mapping(address => mapping(address => uint256))",
        "numberOfBytes": "32",
        "value": "t_mapping(t_address,t_uint256)"
      },
      "t_mapping(t_address,t_uint256)": {
        "encoding": "mapping",
        "key": "t_address",
        "label": "mapping(address => uint256)",
        "numberOfBytes": "32",
        "value": "t_uint256"
      },
      "t_string_storage": {
        "encoding": "bytes",
        "label": "string",
        "numberOfBytes": "32"
      },
      "t_uint256": {
        "encoding": "inplace",
        "label": "uint256",
        "numberOfBytes": "32"
      }
    }
  }
}