{
  "address": "0xF2fa55fc07c0379757Bad9579Dbd36c352c2c091",
  "abi": [
    {
      "anonymous": false,
      "inputs": [
        {
          "indexed": true,
          "internalType": "address",
          "name": "owner",
          "type": "address"
        },
        {
          "indexed": true,
          "internalType": "address",
          "name": "spender",
          "type": "address"
        },
        {
          "indexed": false,
          "internalType": "uint256",
          "name": "value",
          "type": "uint256"
        }
      ],
      "name": "Approval",
      "type": "event"
    },
    {
      "anonymous": false,
      "inputs": [
        {
          "indexed": true,
          "internalType": "address",
          "name": "from",
          "type": "address"
        },
        {
          "indexed": true,
          "internalType": "address",
          "name": "to",
          "type": "address"
        },
        {
          "indexed": false,
          "internalType": "uint256",
          "name": "value",
          "type": "uint256"
        }
      ],
      "name": "Transfer",
      "type": "event"
    },
    {
      "inputs": [
        {
          "internalType": "address",
          "name": "controller",
          "type": "address"
        }
      ],
      "name": "addController",
      "outputs": [],
      "stateMutability": "nonpayable",
      "type": "function"
    },
    {
      "inputs": [
        {
          "internalType": "address[]",
          "name": "users",
          "type": "address[]"
        },
        {
          "internalType": "uint256[]",
          "name": "amounts",
          "type": "uint256[]"
        }
      ],
      "name": "airdrop",
      "outputs": [],
      "stateMutability": "nonpayable",
      "type": "function"
    },
    {
      "inputs": [
        {
          "internalType": "address",
          "name": "owner",
          "type": "address"
        },
        {
          "internalType": "address",
          "name": "spender",
          "type": "address"
        }
      ],
      "name": "allowance",
      "outputs": [
        {
          "internalType": "uint256",
          "name": "",
          "type": "uint256"
        }
      ],
      "stateMutability": "view",
      "type": "function"
    },
    {
      "inputs": [
        {
          "internalType": "address",
          "name": "spender",
          "type": "address"
        },
        {
          "internalType": "uint256",
          "name": "amount",
          "type": "uint256"
        }
      ],
      "name": "approve",
      "outputs": [
        {
          "internalType": "bool",
          "name": "",
          "type": "bool"
        }
      ],
      "stateMutability": "nonpayable",
      "type": "function"
    },
    {
      "inputs": [
        {
          "internalType": "address",
          "name": "account",
          "type": "address"
        }
      ],
      "name": "balanceOf",
      "outputs": [
        {
          "internalType": "uint256",
          "name": "",
          "type": "uint256"
        }
      ],
      "stateMutability": "view",
      "type": "function"
    },
    {
      "inputs": [
        {
          "internalType": "address",
          "name": "_account",
          "type": "address"
        },
        {
          "internalType": "uint256",
          "name": "_amount",
          "type": "uint256"
        }
      ],
      "name": "burn",
      "outputs": [],
      "stateMutability": "nonpayable",
      "type": "function"
    },
    {
      "inputs": [
        {
          "internalType": "uint256",
          "name": "",
          "type": "uint256"
        }
      ],
      "name": "controllers",
      "outputs": [
        {
          "internalType": "address",
          "name": "",
          "type": "address"
        }
      ],
      "stateMutability": "view",
      "type": "function"
    },
    {
      "inputs": [],
      "name": "decimals",
      "outputs": [
        {
          "internalType": "uint8",
          "name": "",
          "type": "uint8"
        }
      ],
      "stateMutability": "view",
      "type": "function"
    },
    {
      "inputs": [
        {
          "internalType": "address",
          "name": "spender",
          "type": "address"
        },
        {
          "internalType": "uint256",
          "name": "subtractedValue",
          "type": "uint256"
        }
      ],
      "name": "decreaseAllowance",
      "outputs": [
        {
          "internalType": "bool",
          "name": "",
          "type": "bool"
        }
      ],
      "stateMutability": "nonpayable",
      "type": "function"
    },
    {
      "inputs": [],
      "name": "getAllControllers",
      "outputs": [
        {
          "internalType": "address[]",
          "name": "currentControllers",
          "type": "address[]"
        }
      ],
      "stateMutability": "view",
      "type": "function"
    },
    {
      "inputs": [],
      "name": "id",
      "outputs": [
        {
          "internalType": "uint256",
          "name": "",
          "type": "uint256"
        }
      ],
      "stateMutability": "view",
      "type": "function"
    },
    {
      "inputs": [
        {
          "internalType": "address",
          "name": "spender",
          "type": "address"
        },
        {
          "internalType": "uint256",
          "name": "addedValue",
          "type": "uint256"
        }
      ],
      "name": "increaseAllowance",
      "outputs": [
        {
          "internalType": "bool",
          "name": "",
          "type": "bool"
        }
      ],
      "stateMutability": "nonpayable",
      "type": "function"
    },
    {
      "inputs": [
        {
          "internalType": "bytes",
          "name": "_data",
          "type": "bytes"
        }
      ],
      "name": "initialize",
      "outputs": [],
      "stateMutability": "nonpayable",
      "type": "function"
    },
    {
      "inputs": [
        {
          "internalType": "address",
          "name": "controller",
          "type": "address"
        }
      ],
      "name": "isController",
      "outputs": [
        {
          "internalType": "bool",
          "name": "status",
          "type": "bool"
        }
      ],
      "stateMutability": "view",
      "type": "function"
    },
    {
      "inputs": [
        {
          "internalType": "address",
          "name": "_account",
          "type": "address"
        },
        {
          "internalType": "uint256",
          "name": "_amount",
          "type": "uint256"
        }
      ],
      "name": "mint",
      "outputs": [],
      "stateMutability": "nonpayable",
      "type": "function"
    },
    {
      "inputs": [],
      "name": "moduleMap",
      "outputs": [
        {
          "internalType": "contract IModuleMap",
          "name": "",
          "type": "address"
        }
      ],
      "stateMutability": "view",
      "type": "function"
    },
    {
      "inputs": [],
      "name": "name",
      "outputs": [
        {
          "internalType": "string",
          "name": "",
          "type": "string"
        }
      ],
      "stateMutability": "view",
      "type": "function"
    },
    {
      "inputs": [],
      "name": "symbol",
      "outputs": [
        {
          "internalType": "string",
          "name": "",
          "type": "string"
        }
      ],
      "stateMutability": "view",
      "type": "function"
    },
    {
      "inputs": [],
      "name": "totalSupply",
      "outputs": [
        {
          "internalType": "uint256",
          "name": "",
          "type": "uint256"
        }
      ],
      "stateMutability": "view",
      "type": "function"
    },
    {
      "inputs": [
        {
          "internalType": "address",
          "name": "to",
          "type": "address"
        },
        {
          "internalType": "uint256",
          "name": "amount",
          "type": "uint256"
        }
      ],
      "name": "transfer",
      "outputs": [
        {
          "internalType": "bool",
          "name": "",
          "type": "bool"
        }
      ],
      "stateMutability": "nonpayable",
      "type": "function"
    },
    {
      "inputs": [
        {
          "internalType": "address",
          "name": "from",
          "type": "address"
        },
        {
          "internalType": "address",
          "name": "to",
          "type": "address"
        },
        {
          "internalType": "uint256",
          "name": "amount",
          "type": "uint256"
        }
      ],
      "name": "transferFrom",
      "outputs": [
        {
          "internalType": "bool",
          "name": "",
          "type": "bool"
        }
      ],
      "stateMutability": "nonpayable",
      "type": "function"
    }
  ],
  "transactionHash": "0x56689237e2f0c11299fb198441bf8656f545f98cd020260832f65d0d43c6917c",
  "args": [],
  "solcInputHash": "0a3424f7367ffd1ec4d33316cab8ebd3",
  "bytecode": "0x608060405234801561001057600080fd5b50611c57806100206000396000f3fe608060405234801561001057600080fd5b50600436106101075760003560e01c806306fdde031461010c578063095ea7b31461012a5780630f0a1c6f1461014d57806318160ddd1461017357806323b872dd14610189578063313ce5671461019c578063337993cb146101ab57806339509351146101c057806340c10f19146101d3578063439fab91146101e857806367243482146101fb57806370a082311461020e57806395d89b41146102375780639dc29fac1461023f578063a457c2d714610252578063a7fc7a0714610265578063a9059cbb14610278578063af640d0f1461028b578063b429afeb14610294578063dd62ed3e146102c0578063e94b0dd2146102d3575b600080fd5b6101146102e6565b6040516101219190611988565b60405180910390f35b61013d6101383660046116b5565b610378565b6040519015158152602001610121565b600054610166906201000090046001600160a01b031681565b60405161012191906118ff565b61017b610390565b604051908152602001610121565b61013d610197366004611675565b6103a0565b60405160128152602001610121565b6101b36103c4565b6040516101219190611913565b61013d6101ce3660046116b5565b610425565b6101e66101e13660046116b5565b610464565b005b6101e66101f6366004611768565b6104b6565b6101e66102093660046116e0565b6105a8565b61017b61021c3660046115fe565b6001600160a01b031660009081526035602052604090205490565b61011461074c565b6101e661024d3660046116b5565b61075b565b61013d6102603660046116b5565b6107a0565b6101e66102733660046115fe565b610832565b61013d6102863660046116b5565b610a2b565b61017b60675481565b61013d6102a23660046115fe565b6001600160a01b031660009081526001602052604090205460ff1690565b61017b6102ce36600461163d565b610a39565b6101666102e13660046118e7565b610a64565b6060603880546102f590611b67565b80601f016020809104026020016040519081016040528092919081815260200182805461032190611b67565b801561036e5780601f106103435761010080835404028352916020019161036e565b820191906000526020600020905b81548152906001019060200180831161035157829003601f168201915b5050505050905090565b600033610386818585610a8e565b5060019392505050565b600061039b60375490565b905090565b6000336103ae858285610bb2565b6103b9858585610c2c565b506001949350505050565b6060600280548060200260200160405190810160405280929190818152602001828054801561036e57602002820191906000526020600020905b81546001600160a01b031681526001909101906020018083116103fe575050505050905090565b3360008181526036602090815260408083206001600160a01b0387168452909152812054909190610386908290869061045f908790611b38565b610a8e565b3360009081526001602052604090205460ff1661049c5760405162461bcd60e51b815260040161049390611a4a565b60405180910390fd5b6104a68282610dee565b6104b260008383610ec3565b5050565b600054610100900460ff166104d15760005460ff16156104d5565b303b155b6105385760405162461bcd60e51b815260206004820152602e60248201527f496e697469616c697a61626c653a20636f6e747261637420697320616c72656160448201526d191e481a5b9a5d1a585b1a5e995960921b6064820152608401610493565b600054610100900460ff1615801561055a576000805461ffff19166101011790555b60008080808061056c878901896117d4565b9450945094509450945061058085856110b9565b61058a82826110ea565b5050606755505080156105a3576000805461ff00191690555b505050565b600080546040516337c61fc560e11b8152620100009091046001600160a01b031691636f8c3f8a916105dd9190600401611960565b60206040518083038186803b1580156105f557600080fd5b505afa158015610609573d6000803e3d6000fd5b505050506040513d601f19601f8201168201806040525081019061062d9190611621565b6001600160a01b0316632f54bf6e336040518263ffffffff1660e01b815260040161065891906118ff565b60206040518083038186803b15801561067057600080fd5b505afa158015610684573d6000803e3d6000fd5b505050506040513d601f19601f820116820180604052508101906106a89190611748565b6106c45760405162461bcd60e51b8152600401610493906119db565b60005b83811015610745576107338585838181106106f257634e487b7160e01b600052603260045260246000fd5b905060200201602081019061070791906115fe565b84848481811061072757634e487b7160e01b600052603260045260246000fd5b90506020020135610dee565b8061073d81611ba2565b9150506106c7565b5050505050565b6060603980546102f590611b67565b3360009081526001602052604090205460ff1661078a5760405162461bcd60e51b815260040161049390611a4a565b610794828261123f565b6104b282600083610ec3565b3360008181526036602090815260408083206001600160a01b0387168452909152812054909190838110156108255760405162461bcd60e51b815260206004820152602560248201527f45524332303a2064656372656173656420616c6c6f77616e63652062656c6f77604482015264207a65726f60d81b6064820152608401610493565b6103b98286868403610a8e565b600080546040516337c61fc560e11b8152620100009091046001600160a01b031691636f8c3f8a916108679190600401611960565b60206040518083038186803b15801561087f57600080fd5b505afa158015610893573d6000803e3d6000fd5b505050506040513d601f19601f820116820180604052508101906108b79190611621565b6001600160a01b0316632f54bf6e336040518263ffffffff1660e01b81526004016108e291906118ff565b60206040518083038186803b1580156108fa57600080fd5b505afa15801561090e573d6000803e3d6000fd5b505050506040513d601f19601f820116820180604052508101906109329190611748565b61094e5760405162461bcd60e51b8152600401610493906119db565b6001600160a01b03811660009081526001602081905260408220805460ff19169091179055805b6002548110156109d457600281815481106109a057634e487b7160e01b600052603260045260246000fd5b6000918252602090912001546001600160a01b03848116911614156109c457600191505b6109cd81611ba2565b9050610975565b50806104b257600280546001810182556000919091527f405787fa12a823e0f2b7631cc41b3ba8828b3321ca811111fa75cd3aa3bb5ace0180546001600160a01b0384166001600160a01b03199091161790555050565b600033610386818585610c2c565b6001600160a01b03918216600090815260366020908152604080832093909416825291909152205490565b60028181548110610a7457600080fd5b6000918252602090912001546001600160a01b0316905081565b6001600160a01b038316610af05760405162461bcd60e51b8152602060048201526024808201527f45524332303a20617070726f76652066726f6d20746865207a65726f206164646044820152637265737360e01b6064820152608401610493565b6001600160a01b038216610b515760405162461bcd60e51b815260206004820152602260248201527f45524332303a20617070726f766520746f20746865207a65726f206164647265604482015261737360f01b6064820152608401610493565b6001600160a01b0383811660008181526036602090815260408083209487168084529482529182902085905590518481527f8c5be1e5ebec7d5bd14f71427d1e84f3dd0314c0f7b2291e5b200ac8c7c3b925910160405180910390a3505050565b6000610bbe8484610a39565b90506000198114610c265781811015610c195760405162461bcd60e51b815260206004820152601d60248201527f45524332303a20696e73756666696369656e7420616c6c6f77616e63650000006044820152606401610493565b610c268484848403610a8e565b50505050565b6001600160a01b038316610c905760405162461bcd60e51b815260206004820152602560248201527f45524332303a207472616e736665722066726f6d20746865207a65726f206164604482015264647265737360d81b6064820152608401610493565b6001600160a01b038216610cf25760405162461bcd60e51b815260206004820152602360248201527f45524332303a207472616e7366657220746f20746865207a65726f206164647260448201526265737360e81b6064820152608401610493565b6001600160a01b03831660009081526035602052604090205481811015610d6a5760405162461bcd60e51b815260206004820152602660248201527f45524332303a207472616e7366657220616d6f756e7420657863656564732062604482015265616c616e636560d01b6064820152608401610493565b6001600160a01b03808516600090815260356020526040808220858503905591851681529081208054849290610da1908490611b38565b92505081905550826001600160a01b0316846001600160a01b0316600080516020611c0283398151915284604051610ddb91815260200190565b60405180910390a3610c2684848461137e565b6001600160a01b038216610e445760405162461bcd60e51b815260206004820152601f60248201527f45524332303a206d696e7420746f20746865207a65726f2061646472657373006044820152606401610493565b8060376000828254610e569190611b38565b90915550506001600160a01b03821660009081526035602052604081208054839290610e83908490611b38565b90915550506040518181526001600160a01b03831690600090600080516020611c028339815191529060200160405180910390a36104b26000838361137e565b6001600160a01b03831615610fbc576000546040516337c61fc560e11b8152620100009091046001600160a01b031690636f8c3f8a90610f0890600590600401611960565b60206040518083038186803b158015610f2057600080fd5b505afa158015610f34573d6000803e3d6000fd5b505050506040513d601f19601f82011682018060405250810190610f589190611621565b6001600160a01b031663a22aecd160675483866040518463ffffffff1660e01b8152600401610f8993929190611ae9565b600060405180830381600087803b158015610fa357600080fd5b505af1158015610fb7573d6000803e3d6000fd5b505050505b6001600160a01b038216156105a3576000546040516337c61fc560e11b8152620100009091046001600160a01b031690636f8c3f8a9061100190600590600401611960565b60206040518083038186803b15801561101957600080fd5b505afa15801561102d573d6000803e3d6000fd5b505050506040513d601f19601f820116820180604052508101906110519190611621565b6001600160a01b03166313cf6b0060675483856040518463ffffffff1660e01b815260040161108293929190611ae9565b600060405180830381600087803b15801561109c57600080fd5b505af11580156110b0573d6000803e3d6000fd5b50505050505050565b600054610100900460ff166110e05760405162461bcd60e51b815260040161049390611a9e565b6104b282826113ae565b600054610100900460ff166111115760405162461bcd60e51b815260040161049390611a9e565b6001600160a01b0381166111375760405162461bcd60e51b815260040161049390611a25565b60005b82518110156111ad5760006001600160a01b031683828151811061116e57634e487b7160e01b600052603260045260246000fd5b60200260200101516001600160a01b0316141561119d5760405162461bcd60e51b815260040161049390611a25565b6111a681611ba2565b905061113a565b5060005b82518110156112215760018060008584815181106111df57634e487b7160e01b600052603260045260246000fd5b6020908102919091018101516001600160a01b03168252810191909152604001600020805460ff191691151591909117905561121a81611ba2565b90506111b1565b50815161123590600290602085019061144d565b506104b2816113fc565b6001600160a01b03821661129f5760405162461bcd60e51b815260206004820152602160248201527f45524332303a206275726e2066726f6d20746865207a65726f206164647265736044820152607360f81b6064820152608401610493565b6001600160a01b038216600090815260356020526040902054818110156113135760405162461bcd60e51b815260206004820152602260248201527f45524332303a206275726e20616d6f756e7420657863656564732062616c616e604482015261636560f01b6064820152608401610493565b6001600160a01b0383166000908152603560205260408120838303905560378054849290611342908490611b50565b90915550506040518281526000906001600160a01b03851690600080516020611c028339815191529060200160405180910390a36105a3836000845b6001600160a01b0383161580159061139e57506001600160a01b03821615155b156105a3576105a3838383610ec3565b600054610100900460ff166113d55760405162461bcd60e51b815260040161049390611a9e565b81516113e89060389060208501906114b2565b5080516105a39060399060208401906114b2565b600054610100900460ff166114235760405162461bcd60e51b815260040161049390611a9e565b600080546001600160a01b03909216620100000262010000600160b01b0319909216919091179055565b8280548282559060005260206000209081019282156114a2579160200282015b828111156114a257825182546001600160a01b0319166001600160a01b0390911617825560209092019160019091019061146d565b506114ae929150611526565b5090565b8280546114be90611b67565b90600052602060002090601f0160209004810192826114e057600085556114a2565b82601f106114f957805160ff19168380011785556114a2565b828001600101855582156114a2579182015b828111156114a257825182559160200191906001019061150b565b5b808211156114ae5760008155600101611527565b803561154681611be9565b919050565b60008083601f84011261155c578182fd5b5081356001600160401b03811115611572578182fd5b6020830191508360208260051b850101111561158d57600080fd5b9250929050565b600082601f8301126115a4578081fd5b81356001600160401b038111156115bd576115bd611bd3565b6115d0601f8201601f1916602001611b08565b8181528460208386010111156115e4578283fd5b816020850160208301379081016020019190915292915050565b60006020828403121561160f578081fd5b813561161a81611be9565b9392505050565b600060208284031215611632578081fd5b815161161a81611be9565b6000806040838503121561164f578081fd5b823561165a81611be9565b9150602083013561166a81611be9565b809150509250929050565b600080600060608486031215611689578081fd5b833561169481611be9565b925060208401356116a481611be9565b929592945050506040919091013590565b600080604083850312156116c7578182fd5b82356116d281611be9565b946020939093013593505050565b600080600080604085870312156116f5578081fd5b84356001600160401b038082111561170b578283fd5b6117178883890161154b565b9096509450602087013591508082111561172f578283fd5b5061173c8782880161154b565b95989497509550505050565b600060208284031215611759578081fd5b8151801515811461161a578182fd5b6000806020838503121561177a578182fd5b82356001600160401b0380821115611790578384fd5b818501915085601f8301126117a3578384fd5b8135818111156117b1578485fd5b8660208285010111156117c2578485fd5b60209290920196919550909350505050565b600080600080600060a086880312156117eb578081fd5b85356001600160401b0380821115611801578283fd5b61180d89838a01611594565b9650602091508188013581811115611823578384fd5b61182f8a828b01611594565b9650506040880135945060608801358181111561184a578384fd5b8801601f81018a1361185a578384fd5b80358281111561186c5761186c611bd3565b8060051b925061187d848401611b08565b8181528481019083860185850187018e1015611897578788fd5b8795505b838610156118c557803594506118b085611be9565b8483526001959095019491860191860161189b565b508097505050505050506118db6080870161153b565b90509295509295909350565b6000602082840312156118f8578081fd5b5035919050565b6001600160a01b0391909116815260200190565b6020808252825182820181905260009190848201906040850190845b818110156119545783516001600160a01b03168352928401929184019160010161192f565b50909695505050505050565b60208101600e831061198257634e487b7160e01b600052602160045260246000fd5b91905290565b6000602080835283518082850152825b818110156119b457858101830151858201604001528201611998565b818111156119c55783604083870101525b50601f01601f1916929092016040019392505050565b6020808252602a908201527f436f6e74726f6c6c65643a3a6f6e6c794f776e65723a2043616c6c6572206973604082015269103737ba1037bbb732b960b11b606082015260800190565b6020808252600b908201526a626164206164647265737360a81b604082015260600190565b60208082526034908201527f436f6e74726f6c6c65643a3a6f6e6c79436f6e74726f6c6c65723a2043616c6c60408201527332b91034b9903737ba1031b7b73a3937b63632b960611b606082015260800190565b6020808252602b908201527f496e697469616c697a61626c653a20636f6e7472616374206973206e6f74206960408201526a6e697469616c697a696e6760a81b606082015260800190565b92835260208301919091526001600160a01b0316604082015260600190565b604051601f8201601f191681016001600160401b0381118282101715611b3057611b30611bd3565b604052919050565b60008219821115611b4b57611b4b611bbd565b500190565b600082821015611b6257611b62611bbd565b500390565b600181811c90821680611b7b57607f821691505b60208210811415611b9c57634e487b7160e01b600052602260045260246000fd5b50919050565b6000600019821415611bb657611bb6611bbd565b5060010190565b634e487b7160e01b600052601160045260246000fd5b634e487b7160e01b600052604160045260246000fd5b6001600160a01b0381168114611bfe57600080fd5b5056feddf252ad1be2c89b69c2b068fc378daa952ba7f163c4a11628f55a4df523b3efa26469706673582212207e9c9c6c7fe8a94a62b4ff260d4bbb27995e1e4b63df7052a8c64ed316a1e74c64736f6c63430008040033",
  "devdoc": {
    "kind": "dev",
    "methods": {
      "allowance(address,address)": {
        "details": "See {IERC20-allowance}."
      },
      "approve(address,uint256)": {
        "details": "See {IERC20-approve}. NOTE: If `amount` is the maximum `uint256`, the allowance is not updated on `transferFrom`. This is semantically equivalent to an infinite approval. Requirements: - `spender` cannot be the zero address."
      },
      "decimals()": {
        "details": "Returns the number of decimals used to get its user representation. For example, if `decimals` equals `2`, a balance of `505` tokens should be displayed to a user as `5.05` (`505 / 10 ** 2`). Tokens usually opt for a value of 18, imitating the relationship between Ether and Wei. This is the value {ERC20} uses, unless this function is overridden; NOTE: This information is only used for _display_ purposes: it in no way affects any of the arithmetic of the contract, including {IERC20-balanceOf} and {IERC20-transfer}."
      },
      "decreaseAllowance(address,uint256)": {
        "details": "Atomically decreases the allowance granted to `spender` by the caller. This is an alternative to {approve} that can be used as a mitigation for problems described in {IERC20-approve}. Emits an {Approval} event indicating the updated allowance. Requirements: - `spender` cannot be the zero address. - `spender` must have allowance for the caller of at least `subtractedValue`."
      },
      "increaseAllowance(address,uint256)": {
        "details": "Atomically increases the allowance granted to `spender` by the caller. This is an alternative to {approve} that can be used as a mitigation for problems described in {IERC20-approve}. Emits an {Approval} event indicating the updated allowance. Requirements: - `spender` cannot be the zero address."
      },
      "name()": {
        "details": "Returns the name of the token."
      },
      "symbol()": {
        "details": "Returns the symbol of the token, usually a shorter version of the name."
      },
      "transfer(address,uint256)": {
        "details": "See {IERC20-transfer}. Requirements: - `to` cannot be the zero address. - the caller must have a balance of at least `amount`."
      },
      "transferFrom(address,address,uint256)": {
        "details": "See {IERC20-transferFrom}. Emits an {Approval} event indicating the updated allowance. This is not required by the EIP. See the note at the beginning of {ERC20}. NOTE: Does not update the allowance if the current allowance is the maximum `uint256`. Requirements: - `from` and `to` cannot be the zero address. - `from` must have a balance of at least `amount`. - the caller must have allowance for ``from``'s tokens of at least `amount`."
      }
    },
    "version": 1
  },
  "userdoc": {
    "kind": "user",
    "methods": {},
    "version": 1
  },
  "storageLayout": {
    "storage": [
      {
        "astId": 702,
        "contract": "contracts/clones/StrategyERC20.sol:StrategyERC20",
        "label": "_initialized",
        "offset": 0,
        "slot": "0",
        "type": "t_bool"
      },
      {
        "astId": 705,
        "contract": "contracts/clones/StrategyERC20.sol:StrategyERC20",
        "label": "_initializing",
        "offset": 1,
        "slot": "0",
        "type": "t_bool"
      },
      {
        "astId": 15658,
        "contract": "contracts/clones/StrategyERC20.sol:StrategyERC20",
        "label": "moduleMap",
        "offset": 2,
        "slot": "0",
        "type": "t_contract(IModuleMap)29381"
      },
      {
        "astId": 8983,
        "contract": "contracts/clones/StrategyERC20.sol:StrategyERC20",
        "label": "_controllers",
        "offset": 0,
        "slot": "1",
        "type": "t_mapping(t_address,t_bool)"
      },
      {
        "astId": 8986,
        "contract": "contracts/clones/StrategyERC20.sol:StrategyERC20",
        "label": "controllers",
        "offset": 0,
        "slot": "2",
        "type": "t_array(t_address)dyn_storage"
      },
      {
        "astId": 2052,
        "contract": "contracts/clones/StrategyERC20.sol:StrategyERC20",
        "label": "__gap",
        "offset": 0,
        "slot": "3",
        "type": "t_array(t_uint256)50_storage"
      },
      {
        "astId": 847,
        "contract": "contracts/clones/StrategyERC20.sol:StrategyERC20",
        "label": "_balances",
        "offset": 0,
        "slot": "53",
        "type": "t_mapping(t_address,t_uint256)"
      },
      {
        "astId": 853,
        "contract": "contracts/clones/StrategyERC20.sol:StrategyERC20",
        "label": "_allowances",
        "offset": 0,
        "slot": "54",
        "type": "t_mapping(t_address,t_mapping(t_address,t_uint256))"
      },
      {
        "astId": 855,
        "contract": "contracts/clones/StrategyERC20.sol:StrategyERC20",
        "label": "_totalSupply",
        "offset": 0,
        "slot": "55",
        "type": "t_uint256"
      },
      {
        "astId": 857,
        "contract": "contracts/clones/StrategyERC20.sol:StrategyERC20",
        "label": "_name",
        "offset": 0,
        "slot": "56",
        "type": "t_string_storage"
      },
      {
        "astId": 859,
        "contract": "contracts/clones/StrategyERC20.sol:StrategyERC20",
        "label": "_symbol",
        "offset": 0,
        "slot": "57",
        "type": "t_string_storage"
      },
      {
        "astId": 1440,
        "contract": "contracts/clones/StrategyERC20.sol:StrategyERC20",
        "label": "__gap",
        "offset": 0,
        "slot": "58",
        "type": "t_array(t_uint256)45_storage"
      },
      {
        "astId": 5604,
        "contract": "contracts/clones/StrategyERC20.sol:StrategyERC20",
        "label": "id",
        "offset": 0,
        "slot": "103",
        "type": "t_uint256"
      }
    ],
    "types": {
      "t_address": {
        "encoding": "inplace",
        "label": "address",
        "numberOfBytes": "20"
      },
      "t_array(t_address)dyn_storage": {
        "base": "t_address",
        "encoding": "dynamic_array",
        "label": "address[]",
        "numberOfBytes": "32"
      },
      "t_array(t_uint256)45_storage": {
        "base": "t_uint256",
        "encoding": "inplace",
        "label": "uint256[45]",
        "numberOfBytes": "1440"
      },
      "t_array(t_uint256)50_storage": {
        "base": "t_uint256",
        "encoding": "inplace",
        "label": "uint256[50]",
        "numberOfBytes": "1600"
      },
      "t_bool": {
        "encoding": "inplace",
        "label": "bool",
        "numberOfBytes": "1"
      },
      "t_contract(IModuleMap)29381": {
        "encoding": "inplace",
        "label": "contract IModuleMap",
        "numberOfBytes": "20"
      },
      "t_mapping(t_address,t_bool)": {
        "encoding": "mapping",
        "key": "t_address",
        "label": "mapping(address => bool)",
        "numberOfBytes": "32",
        "value": "t_bool"
      },
      "t_mapping(t_address,t_mapping(t_address,t_uint256))": {
        "encoding": "mapping",
        "key": "t_address",
        "label": "mapping(address => mapping(address => uint256))",
        "numberOfBytes": "32",
        "value": "t_mapping(t_address,t_uint256)"
      },
      "t_mapping(t_address,t_uint256)": {
        "encoding": "mapping",
        "key": "t_address",
        "label": "mapping(address => uint256)",
        "numberOfBytes": "32",
        "value": "t_uint256"
      },
      "t_string_storage": {
        "encoding": "bytes",
        "label": "string",
        "numberOfBytes": "32"
      },
      "t_uint256": {
        "encoding": "inplace",
        "label": "uint256",
        "numberOfBytes": "32"
      }
    }
  }
}