{
  "address": "0x7CE19403E3A39515Cd886d64F2c9Fc6DD5877Bc0",
  "abi": [
    {
      "anonymous": false,
      "inputs": [
        {
          "indexed": false,
          "internalType": "uint256",
          "name": "strategyId",
          "type": "uint256"
        },
        {
          "components": [
            {
              "internalType": "address",
              "name": "integration",
              "type": "address"
            },
            {
              "internalType": "uint32",
              "name": "ammPoolID",
              "type": "uint32"
            }
          ],
          "indexed": false,
          "internalType": "struct IStrategyMap.Integration",
          "name": "integration",
          "type": "tuple"
        },
        {
          "indexed": false,
          "internalType": "address",
          "name": "token",
          "type": "address"
        }
      ],
      "name": "AddIntegration",
      "type": "event"
    },
    {
      "anonymous": false,
      "inputs": [
        {
          "indexed": true,
          "internalType": "uint256",
          "name": "strategyId",
          "type": "uint256"
        }
      ],
      "name": "DeleteStrategy",
      "type": "event"
    },
    {
      "anonymous": false,
      "inputs": [
        {
          "indexed": false,
          "internalType": "uint256",
          "name": "strategyId",
          "type": "uint256"
        },
        {
          "indexed": false,
          "internalType": "uint256",
          "name": "sourceIndex",
          "type": "uint256"
        },
        {
          "indexed": false,
          "internalType": "uint256",
          "name": "destinationIndex",
          "type": "uint256"
        },
        {
          "indexed": false,
          "internalType": "uint32",
          "name": "amount",
          "type": "uint32"
        },
        {
          "indexed": false,
          "internalType": "bool",
          "name": "rebalance",
          "type": "bool"
        }
      ],
      "name": "IntegrationWeightAdjustment",
      "type": "event"
    },
    {
      "anonymous": false,
      "inputs": [
        {
          "indexed": true,
          "internalType": "uint256",
          "name": "strategyId",
          "type": "uint256"
        },
        {
          "components": [
            {
              "internalType": "address",
              "name": "integration",
              "type": "address"
            },
            {
              "internalType": "uint32",
              "name": "ammPoolID",
              "type": "uint32"
            }
          ],
          "indexed": false,
          "internalType": "struct IStrategyMap.Integration[]",
          "name": "integrations",
          "type": "tuple[]"
        },
        {
          "components": [
            {
              "internalType": "uint256",
              "name": "integrationPairIdx",
              "type": "uint256"
            },
            {
              "internalType": "address",
              "name": "token",
              "type": "address"
            },
            {
              "internalType": "uint32",
              "name": "weight",
              "type": "uint32"
            }
          ],
          "indexed": false,
          "internalType": "struct IStrategyMap.Token[]",
          "name": "tokens",
          "type": "tuple[]"
        },
        {
          "indexed": false,
          "internalType": "string",
          "name": "name",
          "type": "string"
        }
      ],
      "name": "NewStrategy",
      "type": "event"
    },
    {
      "anonymous": false,
      "inputs": [
        {
          "indexed": false,
          "internalType": "uint256",
          "name": "strategyId",
          "type": "uint256"
        },
        {
          "indexed": false,
          "internalType": "uint256",
          "name": "integrationIndex",
          "type": "uint256"
        },
        {
          "indexed": false,
          "internalType": "address",
          "name": "token",
          "type": "address"
        }
      ],
      "name": "RemoveIntegration",
      "type": "event"
    },
    {
      "anonymous": false,
      "inputs": [
        {
          "indexed": true,
          "internalType": "uint256",
          "name": "strategyId",
          "type": "uint256"
        },
        {
          "indexed": false,
          "internalType": "string",
          "name": "name",
          "type": "string"
        }
      ],
      "name": "UpdateName",
      "type": "event"
    },
    {
      "anonymous": false,
      "inputs": [
        {
          "indexed": true,
          "internalType": "uint256",
          "name": "strategyId",
          "type": "uint256"
        },
        {
          "components": [
            {
              "internalType": "address",
              "name": "integration",
              "type": "address"
            },
            {
              "internalType": "uint32",
              "name": "ammPoolID",
              "type": "uint32"
            }
          ],
          "indexed": false,
          "internalType": "struct IStrategyMap.Integration[]",
          "name": "integrations",
          "type": "tuple[]"
        },
        {
          "components": [
            {
              "internalType": "uint256",
              "name": "integrationPairIdx",
              "type": "uint256"
            },
            {
              "internalType": "address",
              "name": "token",
              "type": "address"
            },
            {
              "internalType": "uint32",
              "name": "weight",
              "type": "uint32"
            }
          ],
          "indexed": false,
          "internalType": "struct IStrategyMap.Token[]",
          "name": "tokens",
          "type": "tuple[]"
        }
      ],
      "name": "UpdateStrategy",
      "type": "event"
    },
    {
      "inputs": [],
      "name": "TOKEN_WEIGHT",
      "outputs": [
        {
          "internalType": "uint32",
          "name": "",
          "type": "uint32"
        }
      ],
      "stateMutability": "view",
      "type": "function"
    },
    {
      "inputs": [
        {
          "internalType": "address",
          "name": "controller",
          "type": "address"
        }
      ],
      "name": "addController",
      "outputs": [],
      "stateMutability": "nonpayable",
      "type": "function"
    },
    {
      "inputs": [
        {
          "internalType": "uint256",
          "name": "strategyId",
          "type": "uint256"
        },
        {
          "components": [
            {
              "internalType": "address",
              "name": "integration",
              "type": "address"
            },
            {
              "internalType": "uint32",
              "name": "ammPoolID",
              "type": "uint32"
            }
          ],
          "internalType": "struct IStrategyMap.Integration",
          "name": "integration",
          "type": "tuple"
        },
        {
          "internalType": "address",
          "name": "token",
          "type": "address"
        }
      ],
      "name": "addPairToStrategy",
      "outputs": [],
      "stateMutability": "nonpayable",
      "type": "function"
    },
    {
      "inputs": [
        {
          "internalType": "string",
          "name": "name",
          "type": "string"
        },
        {
          "components": [
            {
              "internalType": "address",
              "name": "integration",
              "type": "address"
            },
            {
              "internalType": "uint32",
              "name": "ammPoolID",
              "type": "uint32"
            }
          ],
          "internalType": "struct IStrategyMap.Integration[]",
          "name": "integrations",
          "type": "tuple[]"
        },
        {
          "components": [
            {
              "internalType": "uint256",
              "name": "integrationPairIdx",
              "type": "uint256"
            },
            {
              "internalType": "address",
              "name": "token",
              "type": "address"
            },
            {
              "internalType": "uint32",
              "name": "weight",
              "type": "uint32"
            }
          ],
          "internalType": "struct IStrategyMap.Token[]",
          "name": "tokens",
          "type": "tuple[]"
        },
        {
          "internalType": "uint256[]",
          "name": "maxCap",
          "type": "uint256[]"
        }
      ],
      "name": "addStrategy",
      "outputs": [],
      "stateMutability": "nonpayable",
      "type": "function"
    },
    {
      "inputs": [
        {
          "internalType": "uint256",
          "name": "",
          "type": "uint256"
        }
      ],
      "name": "controllers",
      "outputs": [
        {
          "internalType": "address",
          "name": "",
          "type": "address"
        }
      ],
      "stateMutability": "view",
      "type": "function"
    },
    {
      "inputs": [
        {
          "internalType": "address",
          "name": "_integration",
          "type": "address"
        },
        {
          "internalType": "uint32",
          "name": "_poolID",
          "type": "uint32"
        },
        {
          "internalType": "address",
          "name": "_token",
          "type": "address"
        },
        {
          "internalType": "uint256",
          "name": "_deployAmount",
          "type": "uint256"
        },
        {
          "internalType": "uint256",
          "name": "_hedgeAmount",
          "type": "uint256"
        }
      ],
      "name": "decreaseDeployAmountChange",
      "outputs": [],
      "stateMutability": "nonpayable",
      "type": "function"
    },
    {
      "inputs": [
        {
          "internalType": "uint256",
          "name": "strategyId",
          "type": "uint256"
        },
        {
          "internalType": "uint256",
          "name": "amount",
          "type": "uint256"
        }
      ],
      "name": "decreaseStrategy",
      "outputs": [],
      "stateMutability": "nonpayable",
      "type": "function"
    },
    {
      "inputs": [
        {
          "internalType": "uint256",
          "name": "strategyId",
          "type": "uint256"
        }
      ],
      "name": "deleteStrategy",
      "outputs": [],
      "stateMutability": "nonpayable",
      "type": "function"
    },
    {
      "inputs": [],
      "name": "getAllControllers",
      "outputs": [
        {
          "internalType": "address[]",
          "name": "currentControllers",
          "type": "address[]"
        }
      ],
      "stateMutability": "view",
      "type": "function"
    },
    {
      "inputs": [
        {
          "internalType": "address",
          "name": "_integration",
          "type": "address"
        },
        {
          "internalType": "uint32",
          "name": "_poolId",
          "type": "uint32"
        },
        {
          "internalType": "address",
          "name": "_token",
          "type": "address"
        }
      ],
      "name": "getDeployAmount",
      "outputs": [
        {
          "internalType": "int256",
          "name": "deployAmount_",
          "type": "int256"
        },
        {
          "internalType": "uint256",
          "name": "hedgeAmount_",
          "type": "uint256"
        }
      ],
      "stateMutability": "view",
      "type": "function"
    },
    {
      "inputs": [
        {
          "internalType": "uint256",
          "name": "strategyId",
          "type": "uint256"
        },
        {
          "internalType": "address",
          "name": "token",
          "type": "address"
        }
      ],
      "name": "getMaximumCap",
      "outputs": [
        {
          "internalType": "uint256",
          "name": "cap",
          "type": "uint256"
        }
      ],
      "stateMutability": "view",
      "type": "function"
    },
    {
      "inputs": [
        {
          "internalType": "uint256[]",
          "name": "strategyTokens",
          "type": "uint256[]"
        }
      ],
      "name": "getMultipleStrategies",
      "outputs": [
        {
          "components": [
            {
              "internalType": "string",
              "name": "name",
              "type": "string"
            },
            {
              "components": [
                {
                  "internalType": "address",
                  "name": "integration",
                  "type": "address"
                },
                {
                  "internalType": "uint32",
                  "name": "ammPoolID",
                  "type": "uint32"
                }
              ],
              "internalType": "struct IStrategyMap.Integration[]",
              "name": "integrations",
              "type": "tuple[]"
            },
            {
              "components": [
                {
                  "internalType": "uint256",
                  "name": "integrationPairIdx",
                  "type": "uint256"
                },
                {
                  "internalType": "address",
                  "name": "token",
                  "type": "address"
                },
                {
                  "internalType": "uint32",
                  "name": "weight",
                  "type": "uint32"
                }
              ],
              "internalType": "struct IStrategyMap.Token[]",
              "name": "tokens",
              "type": "tuple[]"
            }
          ],
          "internalType": "struct IStrategyMap.StrategySummary[]",
          "name": "",
          "type": "tuple[]"
        }
      ],
      "stateMutability": "view",
      "type": "function"
    },
    {
      "inputs": [
        {
          "internalType": "uint256",
          "name": "id",
          "type": "uint256"
        }
      ],
      "name": "getStrategy",
      "outputs": [
        {
          "components": [
            {
              "internalType": "string",
              "name": "name",
              "type": "string"
            },
            {
              "components": [
                {
                  "internalType": "address",
                  "name": "integration",
                  "type": "address"
                },
                {
                  "internalType": "uint32",
                  "name": "ammPoolID",
                  "type": "uint32"
                }
              ],
              "internalType": "struct IStrategyMap.Integration[]",
              "name": "integrations",
              "type": "tuple[]"
            },
            {
              "components": [
                {
                  "internalType": "uint256",
                  "name": "integrationPairIdx",
                  "type": "uint256"
                },
                {
                  "internalType": "address",
                  "name": "token",
                  "type": "address"
                },
                {
                  "internalType": "uint32",
                  "name": "weight",
                  "type": "uint32"
                }
              ],
              "internalType": "struct IStrategyMap.Token[]",
              "name": "tokens",
              "type": "tuple[]"
            }
          ],
          "internalType": "struct IStrategyMap.StrategySummary",
          "name": "",
          "type": "tuple"
        }
      ],
      "stateMutability": "view",
      "type": "function"
    },
    {
      "inputs": [
        {
          "internalType": "uint256",
          "name": "strategyId",
          "type": "uint256"
        },
        {
          "internalType": "address",
          "name": "token",
          "type": "address"
        }
      ],
      "name": "getStrategyTokenBalance",
      "outputs": [
        {
          "internalType": "uint256",
          "name": "",
          "type": "uint256"
        }
      ],
      "stateMutability": "view",
      "type": "function"
    },
    {
      "inputs": [
        {
          "internalType": "uint256",
          "name": "strategyId",
          "type": "uint256"
        }
      ],
      "name": "getStrategyTokenLength",
      "outputs": [
        {
          "internalType": "uint256",
          "name": "",
          "type": "uint256"
        }
      ],
      "stateMutability": "view",
      "type": "function"
    },
    {
      "inputs": [
        {
          "internalType": "address",
          "name": "token",
          "type": "address"
        },
        {
          "internalType": "uint256[]",
          "name": "strategyIds",
          "type": "uint256[]"
        }
      ],
      "name": "getTokenTotalBalance",
      "outputs": [
        {
          "internalType": "uint256",
          "name": "amount",
          "type": "uint256"
        }
      ],
      "stateMutability": "view",
      "type": "function"
    },
    {
      "inputs": [],
      "name": "idCounter",
      "outputs": [
        {
          "internalType": "uint256",
          "name": "",
          "type": "uint256"
        }
      ],
      "stateMutability": "view",
      "type": "function"
    },
    {
      "inputs": [
        {
          "internalType": "uint256",
          "name": "_strategyId",
          "type": "uint256"
        },
        {
          "internalType": "address",
          "name": "_token",
          "type": "address"
        },
        {
          "internalType": "uint256",
          "name": "_amount",
          "type": "uint256"
        }
      ],
      "name": "increaseStrategy",
      "outputs": [
        {
          "internalType": "uint256",
          "name": "strategyDebtClosed_",
          "type": "uint256"
        }
      ],
      "stateMutability": "nonpayable",
      "type": "function"
    },
    {
      "inputs": [
        {
          "internalType": "address[]",
          "name": "controllers_",
          "type": "address[]"
        },
        {
          "internalType": "address",
          "name": "moduleMap_",
          "type": "address"
        }
      ],
      "name": "initialize",
      "outputs": [],
      "stateMutability": "nonpayable",
      "type": "function"
    },
    {
      "inputs": [
        {
          "internalType": "address",
          "name": "controller",
          "type": "address"
        }
      ],
      "name": "isController",
      "outputs": [
        {
          "internalType": "bool",
          "name": "status",
          "type": "bool"
        }
      ],
      "stateMutability": "view",
      "type": "function"
    },
    {
      "inputs": [
        {
          "internalType": "address",
          "name": "_integration",
          "type": "address"
        },
        {
          "internalType": "address",
          "name": "_token",
          "type": "address"
        },
        {
          "internalType": "uint32[]",
          "name": "_poolIds",
          "type": "uint32[]"
        }
      ],
      "name": "migrateDeployAmounts",
      "outputs": [],
      "stateMutability": "nonpayable",
      "type": "function"
    },
    {
      "inputs": [],
      "name": "moduleMap",
      "outputs": [
        {
          "internalType": "contract IModuleMap",
          "name": "",
          "type": "address"
        }
      ],
      "stateMutability": "view",
      "type": "function"
    },
    {
      "inputs": [
        {
          "internalType": "uint256",
          "name": "strategyId",
          "type": "uint256"
        },
        {
          "internalType": "uint256",
          "name": "sourceIndex",
          "type": "uint256"
        },
        {
          "internalType": "uint256",
          "name": "destinationIndex",
          "type": "uint256"
        },
        {
          "internalType": "int256",
          "name": "vectorAmount",
          "type": "int256"
        },
        {
          "internalType": "uint32",
          "name": "amount",
          "type": "uint32"
        },
        {
          "internalType": "bool",
          "name": "rebalance",
          "type": "bool"
        }
      ],
      "name": "movePairWeight",
      "outputs": [],
      "stateMutability": "nonpayable",
      "type": "function"
    },
    {
      "inputs": [
        {
          "internalType": "uint256",
          "name": "strategyId",
          "type": "uint256"
        },
        {
          "internalType": "uint256",
          "name": "integrationIndex",
          "type": "uint256"
        },
        {
          "internalType": "address",
          "name": "token",
          "type": "address"
        }
      ],
      "name": "removePairFromStrategy",
      "outputs": [],
      "stateMutability": "nonpayable",
      "type": "function"
    },
    {
      "inputs": [
        {
          "internalType": "uint256",
          "name": "strategyId",
          "type": "uint256"
        },
        {
          "internalType": "address",
          "name": "token",
          "type": "address"
        },
        {
          "internalType": "bool",
          "name": "available",
          "type": "bool"
        }
      ],
      "name": "setAvailableTokens",
      "outputs": [],
      "stateMutability": "nonpayable",
      "type": "function"
    },
    {
      "inputs": [
        {
          "internalType": "uint256",
          "name": "strategyId",
          "type": "uint256"
        },
        {
          "internalType": "address",
          "name": "token",
          "type": "address"
        },
        {
          "internalType": "uint256",
          "name": "maxCap",
          "type": "uint256"
        }
      ],
      "name": "setMaximumCap",
      "outputs": [],
      "stateMutability": "nonpayable",
      "type": "function"
    },
    {
      "inputs": [
        {
          "internalType": "address",
          "name": "integration",
          "type": "address"
        },
        {
          "internalType": "uint32",
          "name": "poolID",
          "type": "uint32"
        },
        {
          "internalType": "address",
          "name": "token",
          "type": "address"
        },
        {
          "internalType": "uint256",
          "name": "amount",
          "type": "uint256"
        },
        {
          "internalType": "bool",
          "name": "add",
          "type": "bool"
        }
      ],
      "name": "updateDeployAmount",
      "outputs": [],
      "stateMutability": "nonpayable",
      "type": "function"
    },
    {
      "inputs": [
        {
          "internalType": "uint256",
          "name": "strategyId",
          "type": "uint256"
        },
        {
          "internalType": "string",
          "name": "name",
          "type": "string"
        }
      ],
      "name": "updateName",
      "outputs": [],
      "stateMutability": "nonpayable",
      "type": "function"
    }
  ],
  "transactionHash": "0x7b48d2594769a07e5b41663da2f1592379edceb51506ddf58a49aa642971d049",
  "args": [],
  "solcInputHash": "45afef2d0098b5b4751ca820c0864600",
  "bytecode": "0x608060405234801561001057600080fd5b50614ee4806100206000396000f3fe608060405234801561001057600080fd5b50600436106101545760003560e01c80630f0a1c6f146101595780630f363f18146101885780631975762f1461019d57806319fed71e146101bd57806327ddb971146101d05780632cf854ed14610201578063337993cb146102145780633771dafe14610229578063462d0b2e1461023c57806353e76f2c1461024f57806354017292146102625780637617957b1461027557806377205dce1461028857806387302037146102c1578063922e9fe3146102d457806398e277a4146102e75780639d6eaec2146102fa578063a7fc7a0714610330578063ad14c3a814610343578063b2da600014610356578063b429afeb14610369578063cbb8b12c146103a5578063cc6a8842146103b8578063ce19bda1146103cb578063cfc0cc34146103ea578063e94b0dd21461040a578063eb08ab281461041d578063f7e50fcf14610426575b600080fd5b600054610172906201000090046001600160a01b031681565b60405161017f91906147cb565b60405180910390f35b61019b610196366004614570565b61044e565b005b6101b06101ab366004614204565b6107b1565b60405161017f91906148f1565b61019b6101cb36600461425f565b610897565b6101f36101de366004614441565b60009081526003602052604090206002015490565b60405190815260200161017f565b61019b61020f366004614531565b610db8565b61021c6111eb565b60405161017f91906147df565b61019b6102373660046145be565b61124d565b61019b61024a36600461413f565b611760565b61019b61025d3660046144f5565b611825565b61019b61027036600461407e565b611947565b61019b610283366004613f80565b611c20565b6101f3610296366004614459565b60009182526003602090815260408084206001600160a01b0390931684526004909201905290205490565b61019b6102cf366004614441565b611e94565b61019b6102e2366004614488565b612068565b6101f36102f5366004613fe2565b6121bc565b6101f3610308366004614459565b60009182526005602090815260408084206001600160a01b0393909316845291905290205490565b61019b61033e366004613f41565b612244565b61019b610351366004614591565b61243c565b61019b6103643660046144be565b612863565b610395610377366004613f41565b6001600160a01b031660009081526001602052604090205460ff1690565b604051901515815260200161017f565b6101f36103b33660046144be565b612a20565b61019b6103c63660046140e5565b612d3f565b6103d5620186a081565b60405163ffffffff909116815260200161017f565b6103fd6103f8366004614441565b612da5565b60405161017f9190614b73565b610172610418366004614441565b612f6a565b6101f360085481565b610439610434366004614034565b612f94565b6040805192835260208301919091520161017f565b3360009081526001602052604090205460ff166104865760405162461bcd60e51b815260040161047d90614ad4565b60405180910390fd5b6000828152600360209081526040808320600281018054835181860281018601909452808452919493909190849084015b828210156105145760008481526020908190206040805160608101825260028602909201805483526001908101546001600160a01b03811684860152600160a01b900463ffffffff169183019190915290835290920191016104b7565b5050505090506005600085815260200190815260200160002060008260008151811061055057634e487b7160e01b600052603260045260246000fd5b6020026020010151602001516001600160a01b03166001600160a01b03168152602001908152602001600020548311156105c85760405162461bcd60e51b8152602060048201526019602482015278616d6f756e74203e2073747261746567792062616c616e636560381b604482015260640161047d565b805160008581526005602052604081208351869290859082906105fb57634e487b7160e01b600052603260045260246000fd5b6020026020010151602001516001600160a01b03166001600160a01b0316815260200190815260200160002060008282546106369190614d4d565b90915550600090505b818110156107a95760008460010184838151811061066d57634e487b7160e01b600052603260045260246000fd5b6020026020010151600001518154811061069757634e487b7160e01b600052603260045260246000fd5b906000526020600020019050600061073b8584815181106106c857634e487b7160e01b600052603260045260246000fd5b602002602001015160200151620186a063ffffffff1688600201868154811061070157634e487b7160e01b600052603260045260246000fd5b600091825260209091206002909102016001015461072c90600160a01b900463ffffffff168b614cb6565b6107369190614c96565b612fe8565b5082548651919250610794916001600160a01b03821691600160a01b900463ffffffff169088908790811061078057634e487b7160e01b600052603260045260246000fd5b6020026020010151602001518460006131a0565b505080806107a190614dbc565b91505061063f565b505050505050565b60606000826001600160401b038111156107db57634e487b7160e01b600052604160045260246000fd5b60405190808252806020026020018201604052801561081457816020015b610801613c0b565b8152602001906001900390816107f95790505b50905060005b8381101561088f5761085185858381811061084557634e487b7160e01b600052603260045260246000fd5b90506020020135612da5565b82828151811061087157634e487b7160e01b600052603260045260246000fd5b6020026020010181905250808061088790614dbc565b91505061081a565b509392505050565b3360009081526001602052604090205460ff166108c65760405162461bcd60e51b815260040161047d90614ad4565b8461090a5760405162461bcd60e51b8152602060048201526014602482015273696e746567726174696f6e73206d697373696e6760601b604482015260640161047d565b826109485760405162461bcd60e51b815260206004820152600e60248201526d746f6b656e73206d697373696e6760901b604482015260640161047d565b866109885760405162461bcd60e51b815260206004820152601060248201526f6d75737420686176652061206e616d6560801b604482015260640161047d565b8281146109ca5760405162461bcd60e51b815260206004820152601060248201526f6361707320617265206d697373696e6760801b604482015260640161047d565b600880549060006109da83614dbc565b919050555060006008549050610b0e818a8a8080601f016020809104026020016040519081016040528093929190818152602001838380828437600081840152601f19601f820116905080830192505050505050508989808060200260200160405190810160405280939291908181526020016000905b82821015610a7d57610a6e6040830286013681900381019061434b565b81526020019060010190610a51565b50505050508888808060200260200160405190810160405280939291908181526020016000905b82821015610ad057610ac1606083028601368190038101906143a8565b81526020019060010190610aa4565b505050505087878080602002602001604051908101604052809392919081815260200183836020028082843760009201919091525061328892505050565b6000546040516337c61fc560e11b8152620100009091046001600160a01b031690636f8c3f8a90610b4490600690600401614952565b60206040518083038186803b158015610b5c57600080fd5b505afa158015610b70573d6000803e3d6000fd5b505050506040513d601f19601f82011682018060405250810190610b949190613f64565b6001600160a01b031663f6bf0eba8a8a8489896000818110610bc657634e487b7160e01b600052603260045260246000fd5b9050606002016020016020810190610bde9190613f41565b6040518563ffffffff1660e01b8152600401610bfd9493929190614996565b600060405180830381600087803b158015610c1757600080fd5b505af1158015610c2b573d6000803e3d6000fd5b50506000546040516337c61fc560e11b8152620100009091046001600160a01b03169250636f8c3f8a9150610c6590600790600401614952565b60206040518083038186803b158015610c7d57600080fd5b505afa158015610c91573d6000803e3d6000fd5b505050506040513d601f19601f82011682018060405250810190610cb59190613f64565b6001600160a01b0316634ea8714486866000818110610ce457634e487b7160e01b600052603260045260246000fd5b9050606002016020016020810190610cfc9190613f41565b6040518263ffffffff1660e01b8152600401610d1891906147cb565b602060405180830381600087803b158015610d3257600080fd5b505af1158015610d46573d6000803e3d6000fd5b505050506040513d601f19601f82011682018060405250810190610d6a9190613f64565b50807f4e61f7bf6a133a1b5c26fdae178f0d6316fa1214e5d7f1153e67c688dc64eef0888888888e8e604051610da59695949392919061482c565b60405180910390a2505050505050505050565b600080546040516337c61fc560e11b8152620100009091046001600160a01b031691636f8c3f8a91610ded9190600401614952565b60206040518083038186803b158015610e0557600080fd5b505afa158015610e19573d6000803e3d6000fd5b505050506040513d601f19601f82011682018060405250810190610e3d9190613f64565b6001600160a01b031663f3ae2415336040518263ffffffff1660e01b8152600401610e6891906147cb565b60206040518083038186803b158015610e8057600080fd5b505afa158015610e94573d6000803e3d6000fd5b505050506040513d601f19601f82011682018060405250810190610eb89190614243565b610ed45760405162461bcd60e51b815260040161047d90614a5d565b6000610edf84612da5565b905060001960005b826020015151811015610f565760006001600160a01b031683602001518281518110610f2357634e487b7160e01b600052603260045260246000fd5b6020026020010151600001516001600160a01b03161415610f4657809150610f56565b610f4f81614dbc565b9050610ee7565b50600019811315610fb3576000858152600360205260409020600101805485919083908110610f9557634e487b7160e01b600052603260045260246000fd5b906000526020600020018181610fab9190614e1d565b905050610fea565b6000858152600360209081526040822060019081018054918201815583529120859101610fe08282614e1d565b5050506020810151515b60001960005b83604001515181101561105f5760006001600160a01b03168460400151828151811061102c57634e487b7160e01b600052603260045260246000fd5b6020026020010151602001516001600160a01b0316141561104f5780915061105f565b61105881614dbc565b9050610ff0565b50600019811315611123576040518060600160405280838152602001856001600160a01b03168152602001600063ffffffff168152506003600088815260200190815260200160002060020182815481106110ca57634e487b7160e01b600052603260045260246000fd5b60009182526020918290208351600290920201908155908201516001909101805460409093015163ffffffff16600160a01b026001600160c01b03199093166001600160a01b03909216919091179190911790556111a8565b600086815260036020908152604080832081516060810183528681526001600160a01b03808a168286019081529382018681526002938401805460018181018355918952969097209251959093029091019384559151929093018054935163ffffffff16600160a01b026001600160c01b031990941692909116919091179190911790555b7ff8fbc92087a4e86059181dcf1b783a6082cc38532cd41b8b5fcae727a4d2f70e8686866040516111db93929190614b86565b60405180910390a1505050505050565b6060600280548060200260200160405190810160405280929190818152602001828054801561124357602002820191906000526020600020905b81546001600160a01b03168152600190910190602001808311611225575b5050505050905090565b600080546040516337c61fc560e11b8152620100009091046001600160a01b031691636f8c3f8a916112829190600401614952565b60206040518083038186803b15801561129a57600080fd5b505afa1580156112ae573d6000803e3d6000fd5b505050506040513d601f19601f820116820180604052508101906112d29190613f64565b6001600160a01b031663f3ae2415336040518263ffffffff1660e01b81526004016112fd91906147cb565b60206040518083038186803b15801561131557600080fd5b505afa158015611329573d6000803e3d6000fd5b505050506040513d601f19601f8201168201806040525081019061134d9190614243565b6113695760405162461bcd60e51b815260040161047d90614a5d565b6000868152600360205260409020600201805463ffffffff84169190879081106113a357634e487b7160e01b600052603260045260246000fd5b6000918252602090912060029091020160010154600160a01b900463ffffffff1610156114035760405162461bcd60e51b815260206004820152600e60248201526d1a5b9d985b1a5908185b5bdd5b9d60921b604482015260640161047d565b600086815260036020526040902060020180548391908790811061143757634e487b7160e01b600052603260045260246000fd5b906000526020600020906002020160010160148282829054906101000a900463ffffffff166114669190614d64565b92506101000a81548163ffffffff021916908363ffffffff160217905550816003600088815260200190815260200160002060020185815481106114ba57634e487b7160e01b600052603260045260246000fd5b906000526020600020906002020160010160148282829054906101000a900463ffffffff166114e99190614c77565b92506101000a81548163ffffffff021916908363ffffffff160217905550801561170e57600061151887612da5565b905061161381602001518260400151888151811061154657634e487b7160e01b600052603260045260246000fd5b6020026020010151600001518151811061157057634e487b7160e01b600052603260045260246000fd5b6020026020010151600001518260200151836040015189815181106115a557634e487b7160e01b600052603260045260246000fd5b602002602001015160000151815181106115cf57634e487b7160e01b600052603260045260246000fd5b602002602001015160200151836040015189815181106115ff57634e487b7160e01b600052603260045260246000fd5b602002602001015160200151876000613952565b61170c81602001518260400151878151811061163f57634e487b7160e01b600052603260045260246000fd5b6020026020010151600001518151811061166957634e487b7160e01b600052603260045260246000fd5b60200260200101516000015182602001518360400151888151811061169e57634e487b7160e01b600052603260045260246000fd5b602002602001015160000151815181106116c857634e487b7160e01b600052603260045260246000fd5b602002602001015160200151836040015188815181106116f857634e487b7160e01b600052603260045260246000fd5b60200260200101516020015187600061397d565b505b604080518781526020810187905290810185905263ffffffff8316606082015281151560808201527f267e393d3a83262400cccd2af547b7d115a8c7b6f0ace9331f15e308d552c7be9060a0016111db565b600054610100900460ff1661177b5760005460ff161561177f565b303b155b6117e25760405162461bcd60e51b815260206004820152602e60248201527f496e697469616c697a61626c653a20636f6e747261637420697320616c72656160448201526d191e481a5b9a5d1a585b1a5e995960921b606482015260840161047d565b600054610100900460ff16158015611804576000805461ffff19166101011790555b61180e83836139a8565b8015611820576000805461ff00191690555b505050565b3360009081526001602052604090205460ff166118545760405162461bcd60e51b815260040161047d90614ad4565b6000838152600360205260408120805461186d90614d81565b9050116118b25760405162461bcd60e51b81526020600482015260136024820152721cdd1c985d1959de481b5d5cdd08195e1a5cdd606a1b604482015260640161047d565b806118ee5760405162461bcd60e51b815260206004820152600c60248201526b696e76616c6964206e616d6560a01b604482015260640161047d565b6000838152600360205260409020611907908383613c2c565b50827fac2072268d18e10aecad35c0c04acd66330b2571a8ff403e3c702d77d3bab134838360405161193a92919061497a565b60405180910390a2505050565b600080546040516337c61fc560e11b8152620100009091046001600160a01b031691636f8c3f8a9161197c9190600401614952565b60206040518083038186803b15801561199457600080fd5b505afa1580156119a8573d6000803e3d6000fd5b505050506040513d601f19601f820116820180604052508101906119cc9190613f64565b6001600160a01b031663f3ae2415336040518263ffffffff1660e01b81526004016119f791906147cb565b60206040518083038186803b158015611a0f57600080fd5b505afa158015611a23573d6000803e3d6000fd5b505050506040513d601f19601f82011682018060405250810190611a479190614243565b611a635760405162461bcd60e51b815260040161047d90614a5d565b6001600160ff1b03821115611aad5760405162461bcd60e51b815260206004820152601060248201526f616d6f756e7420746f6f206c6172676560801b604482015260640161047d565b6000546040516337c61fc560e11b8152620100009091046001600160a01b031690636f8c3f8a90611ae390600390600401614952565b60206040518083038186803b158015611afb57600080fd5b505afa158015611b0f573d6000803e3d6000fd5b505050506040513d601f19601f82011682018060405250810190611b339190613f64565b6001600160a01b0316631de4fe13866040518263ffffffff1660e01b8152600401611b5e91906147cb565b60206040518083038186803b158015611b7657600080fd5b505afa158015611b8a573d6000803e3d6000fd5b505050506040513d601f19601f82011682018060405250810190611bae9190614243565b611bf25760405162461bcd60e51b8152602060048201526015602482015274125b9d1959dc985d1a5bdb881b9bdd081859191959605a1b604482015260640161047d565b8015611c0b57611c06858585856000613afd565b611c19565b611c198585858560006131a0565b5050505050565b600080546040516337c61fc560e11b8152620100009091046001600160a01b031691636f8c3f8a91611c559190600401614952565b60206040518083038186803b158015611c6d57600080fd5b505afa158015611c81573d6000803e3d6000fd5b505050506040513d601f19601f82011682018060405250810190611ca59190613f64565b6001600160a01b0316632f54bf6e336040518263ffffffff1660e01b8152600401611cd091906147cb565b60206040518083038186803b158015611ce857600080fd5b505afa158015611cfc573d6000803e3d6000fd5b505050506040513d601f19601f82011682018060405250810190611d209190614243565b611d3c5760405162461bcd60e51b815260040161047d906149cb565b60005b81811015611c19576001600160a01b038516600090815260066020526040812081858585818110611d8057634e487b7160e01b600052603260045260246000fd5b9050602002016020810190611d95919061461b565b63ffffffff168152602080820192909252604090810160009081206001600160a01b03891682529092529020549050611e0686858585818110611de857634e487b7160e01b600052603260045260246000fd5b9050602002016020810190611dfd919061461b565b8784600061397d565b6001600160a01b038616600090815260066020526040812090858585818110611e3f57634e487b7160e01b600052603260045260246000fd5b9050602002016020810190611e54919061461b565b63ffffffff168152602080820192909252604090810160009081206001600160a01b03891682529092528120555080611e8c81614dbc565b915050611d3f565b3360009081526001602052604090205460ff16611ec35760405162461bcd60e51b815260040161047d90614ad4565b6000611ece82612da5565b905060005b8160400151518110156120015760056000848152602001908152602001600020600083604001518381518110611f1957634e487b7160e01b600052603260045260246000fd5b6020026020010151602001516001600160a01b03166001600160a01b0316815260200190815260200160002054600014611f875760405162461bcd60e51b815260206004820152600f60248201526e737472617465677920696e2075736560881b604482015260640161047d565b60036000848152602001908152602001600020600301600083604001518381518110611fc357634e487b7160e01b600052603260045260246000fd5b6020908102919091018101518101516001600160a01b03168252810191909152604001600020805460ff19169055611ffa81614dbc565b9050611ed3565b5060008281526003602052604081209061201b8282613cb0565b612029600183016000613ced565b612037600283016000613d0b565b505060405182907f79097c9b1a7ba453a3ecc60124deebb47c637495f9912752840842a8ae28905690600090a25050565b600080546040516337c61fc560e11b8152620100009091046001600160a01b031691636f8c3f8a9161209d9190600401614952565b60206040518083038186803b1580156120b557600080fd5b505afa1580156120c9573d6000803e3d6000fd5b505050506040513d601f19601f820116820180604052508101906120ed9190613f64565b6001600160a01b031663f3ae2415336040518263ffffffff1660e01b815260040161211891906147cb565b60206040518083038186803b15801561213057600080fd5b505afa158015612144573d6000803e3d6000fd5b505050506040513d601f19601f820116820180604052508101906121689190614243565b6121845760405162461bcd60e51b815260040161047d90614a5d565b60009283526003602081815260408086206001600160a01b039590951686529390910190529120805460ff1916911515919091179055565b6000805b8281101561088f57600560008585848181106121ec57634e487b7160e01b600052603260045260246000fd5b9050602002013581526020019081526020016000206000866001600160a01b03166001600160a01b0316815260200190815260200160002054826122309190614c5f565b91508061223c81614dbc565b9150506121c0565b600080546040516337c61fc560e11b8152620100009091046001600160a01b031691636f8c3f8a916122799190600401614952565b60206040518083038186803b15801561229157600080fd5b505afa1580156122a5573d6000803e3d6000fd5b505050506040513d601f19601f820116820180604052508101906122c99190613f64565b6001600160a01b0316632f54bf6e336040518263ffffffff1660e01b81526004016122f491906147cb565b60206040518083038186803b15801561230c57600080fd5b505afa158015612320573d6000803e3d6000fd5b505050506040513d601f19601f820116820180604052508101906123449190614243565b6123605760405162461bcd60e51b815260040161047d906149cb565b6001600160a01b03811660009081526001602081905260408220805460ff19169091179055805b6002548110156123e657600281815481106123b257634e487b7160e01b600052603260045260246000fd5b6000918252602090912001546001600160a01b03848116911614156123d657600191505b6123df81614dbc565b9050612387565b508061243857600280546001810182556000919091527f405787fa12a823e0f2b7631cc41b3ba8828b3321ca811111fa75cd3aa3bb5ace0180546001600160a01b0319166001600160a01b0384161790555b5050565b600080546040516337c61fc560e11b8152620100009091046001600160a01b031691636f8c3f8a916124719190600401614952565b60206040518083038186803b15801561248957600080fd5b505afa15801561249d573d6000803e3d6000fd5b505050506040513d601f19601f820116820180604052508101906124c19190613f64565b6001600160a01b031663f3ae2415336040518263ffffffff1660e01b81526004016124ec91906147cb565b60206040518083038186803b15801561250457600080fd5b505afa158015612518573d6000803e3d6000fd5b505050506040513d601f19601f8201168201806040525081019061253c9190614243565b6125585760405162461bcd60e51b815260040161047d90614a5d565b6008548311156125995760405162461bcd60e51b815260206004820152600c60248201526b42616420737472617465677960a01b604482015260640161047d565b60006125a484612da5565b90508060200151518311156125cb5760405162461bcd60e51b815260040161047d90614aab565b600160005b82604001515181101561278857848360400151828151811061260257634e487b7160e01b600052603260045260246000fd5b602002602001015160000151141561277857836001600160a01b03168360400151828151811061264257634e487b7160e01b600052603260045260246000fd5b6020026020010151602001516001600160a01b03161415612773578260400151818151811061268157634e487b7160e01b600052603260045260246000fd5b60200260200101516040015163ffffffff166000146126cf5760405162461bcd60e51b815260206004820152600a6024820152690776569676874203e20360b41b604482015260640161047d565b6040805160608101825260008082526020808301829052828401829052898252600390529190912060020180548390811061271a57634e487b7160e01b600052603260045260246000fd5b60009182526020918290208351600290920201908155908201516001909101805460409093015163ffffffff16600160a01b026001600160c01b03199093166001600160a01b0390921691909117919091179055612778565b600091505b61278181614dbc565b90506125d0565b508015612814576040805180820182526000808252602080830182905288825260039052919091206001018054869081106127d357634e487b7160e01b600052603260045260246000fd5b6000918252602091829020835191018054939092015163ffffffff16600160a01b026001600160c01b03199093166001600160a01b03909116179190911790555b60408051868152602081018690526001600160a01b0385168183015290517f0b0f8b860fd87e193c7e0c4262d6dd2e9279461c3a992ff9b4a435cd6c53bf919181900360600190a15050505050565b600080546040516337c61fc560e11b8152620100009091046001600160a01b031691636f8c3f8a916128989190600401614952565b60206040518083038186803b1580156128b057600080fd5b505afa1580156128c4573d6000803e3d6000fd5b505050506040513d601f19601f820116820180604052508101906128e89190613f64565b6001600160a01b031663f3ae2415336040518263ffffffff1660e01b815260040161291391906147cb565b60206040518083038186803b15801561292b57600080fd5b505afa15801561293f573d6000803e3d6000fd5b505050506040513d601f19601f820116820180604052508101906129639190614243565b61297f5760405162461bcd60e51b815260040161047d90614a5d565b6001600160a01b0382166129a55760405162461bcd60e51b815260040161047d90614a15565b6000838152600360205260409020600201546129f65760405162461bcd60e51b815260206004820152601060248201526f696e76616c696420737472617465677960801b604482015260640161047d565b60009283526003602090815260408085206001600160a01b03909416855260049093019052912055565b3360009081526001602052604081205460ff16612a4f5760405162461bcd60e51b815260040161047d90614ad4565b60008481526003602081815260408084206001600160a01b03881685529283019091529091205460ff16612ab55760405162461bcd60e51b815260206004820152600d60248201526c34b73b30b634b2103a37b5b2b760991b604482015260640161047d565b6001600160a01b03841660009081526004820160205260409020548015612b405760008681526005602090815260408083206001600160a01b0389168452909152902054612b04908590614c5f565b8111612b405760405162461bcd60e51b815260206004820152600b60248201526a617420636170616369747960a81b604482015260640161047d565b5060008581526005602090815260408083206001600160a01b038816845290915281208054859290612b73908490614c5f565b9091555050600281015460005b81811015612d3557826002018181548110612bab57634e487b7160e01b600052603260045260246000fd5b60009182526020909120600160029092020101546001600160a01b0387811691161415612d2357600083600101846002018381548110612bfb57634e487b7160e01b600052603260045260246000fd5b90600052602060002090600202016000015481548110612c2b57634e487b7160e01b600052603260045260246000fd5b906000526020600020019050600080612c9689620186a063ffffffff16886002018781548110612c6b57634e487b7160e01b600052603260045260246000fd5b600091825260209091206002909102016001015461072c90600160a01b900463ffffffff168c614cb6565b84549193509150600090612cc2906001600160a01b03811690600160a01b900463ffffffff168c612f94565b5090506000811215612cf8576000612cd982614dd7565b9050838111612ce85780612cea565b835b612cf4908a614c5f565b9850505b8354612d1e906001600160a01b03811690600160a01b900463ffffffff168c8686613afd565b505050505b80612d2d81614dbc565b915050612b80565b5050509392505050565b3360009081526001602052604090205460ff16612d6e5760405162461bcd60e51b815260040161047d90614ad4565b6000612d7b868686612f94565b50905060008112612d9857612d9386868686866131a0565b6107a9565b6107a98686868686613afd565b612dad613c0b565b612db5613c0b565b60008381526003602052604090208054612dce90614d81565b80601f0160208091040260200160405190810160405280929190818152602001828054612dfa90614d81565b8015612e475780601f10612e1c57610100808354040283529160200191612e47565b820191906000526020600020905b815481529060010190602001808311612e2a57829003601f168201915b5050509183525050600083815260036020908152604080832060010180548251818502810185019093528083529193909284015b82821015612ec757600084815260209081902060408051808201909152908401546001600160a01b0381168252600160a01b900463ffffffff1681830152825260019092019101612e7b565b5050505060208083019190915260008481526003825260408082206002018054825181860281018601909352808352919390929084015b82821015612f5b5760008481526020908190206040805160608101825260028602909201805483526001908101546001600160a01b03811684860152600160a01b900463ffffffff16918301919091529083529092019101612efe565b50505050604082015292915050565b60028181548110612f7a57600080fd5b6000918252602090912001546001600160a01b0316905081565b6001600160a01b039283166000908152600a6020908152604080832063ffffffff9590951683529381528382209290941681529252902054600f81810b900b91600160801b9091046001600160801b031690565b600080546040516337c61fc560e11b815282918291620100009091046001600160a01b031690636f8c3f8a9061302390600790600401614952565b60206040518083038186803b15801561303b57600080fd5b505afa15801561304f573d6000803e3d6000fd5b505050506040513d601f19601f820116820180604052508101906130739190613f64565b6001600160a01b031663830950c8866040518263ffffffff1660e01b815260040161309e91906147cb565b60206040518083038186803b1580156130b657600080fd5b505afa1580156130ca573d6000803e3d6000fd5b505050506040513d601f19601f820116820180604052508101906130ee9190613f64565b9050600080826001600160a01b031663fabe38476040518163ffffffff1660e01b8152600401604080518083038186803b15801561312b57600080fd5b505afa15801561313f573d6000803e3d6000fd5b505050506040513d601f19601f82011682018060405250810190613163919061440f565b6001600160801b0391821693501690508061317e8388614cb6565b6131889190614c96565b93506131948487614d4d565b94505050509250929050565b6001600160a01b038086166000908152600a6020908152604080832063ffffffff891684528252808320938716835292905290812080548492906131e8908490600f0b614cd5565b82546101009290920a6001600160801b0381810219909316600f9290920b831602179091556001600160a01b038781166000908152600a6020908152604080832063ffffffff8b16845282528083209389168352929052208054849350909160109161325d918591600160801b900416614d25565b92506101000a8154816001600160801b0302191690836001600160801b031602179055505050505050565b60005b83518110156133025760006001600160a01b03168482815181106132bf57634e487b7160e01b600052603260045260246000fd5b6020026020010151600001516001600160a01b031614156132f25760405162461bcd60e51b815260040161047d90614aab565b6132fb81614dbc565b905061328b565b50600082516001600160401b0381111561332c57634e487b7160e01b600052604160045260246000fd5b604051908082528060200260200182016040528015613355578160200160208202803683370190505b5090506000805b845181101561364257855185828151811061338757634e487b7160e01b600052603260045260246000fd5b602002602001015160000151106133e05760405162461bcd60e51b815260206004820152601d60248201527f696e746567726174696f6e20696478206f7574206f6620626f756e6473000000604482015260640161047d565b60006001600160a01b031685828151811061340b57634e487b7160e01b600052603260045260246000fd5b6020026020010151602001516001600160a01b0316141561343e5760405162461bcd60e51b815260040161047d90614a15565b6009600086838151811061346257634e487b7160e01b600052603260045260246000fd5b6020026020010151602001516001600160a01b03166001600160a01b031681526020019081526020016000205460001415613509578481815181106134b757634e487b7160e01b600052603260045260246000fd5b6020026020010151602001518383815181106134e357634e487b7160e01b600052603260045260246000fd5b6001600160a01b03909216602092830291909101909101528161350581614dbc565b9250505b84818151811061352957634e487b7160e01b600052603260045260246000fd5b60200260200101516040015163ffffffff166009600087848151811061355f57634e487b7160e01b600052603260045260246000fd5b6020026020010151602001516001600160a01b03166001600160a01b03168152602001908152602001600020600082825461359a9190614c5f565b925050819055508381815181106135c157634e487b7160e01b600052603260045260246000fd5b6020026020010151600360008a8152602001908152602001600020600401600087848151811061360157634e487b7160e01b600052603260045260246000fd5b6020026020010151602001516001600160a01b03166001600160a01b03168152602001908152602001600020819055508061363b90614dbc565b905061335c565b5060005b818110156137c357620186a063ffffffff166009600085848151811061367c57634e487b7160e01b600052603260045260246000fd5b60200260200101516001600160a01b03166001600160a01b0316815260200190815260200160002054146136e95760405162461bcd60e51b81526020600482015260146024820152731a5b9d985b1a59081d1bdad95b881dd95a59da1d60621b604482015260640161047d565b6001600360008a8152602001908152602001600020600301600085848151811061372357634e487b7160e01b600052603260045260246000fd5b60200260200101516001600160a01b03166001600160a01b0316815260200190815260200160002060006101000a81548160ff0219169083151502179055506009600084838151811061378657634e487b7160e01b600052603260045260246000fd5b60200260200101516001600160a01b03166001600160a01b0316815260200190815260200160002060009055806137bc90614dbc565b9050613646565b50600087815260036020908152604090912087516137e392890190613d2c565b5060005b855181101561388d576003600089815260200190815260200160002060010186828151811061382657634e487b7160e01b600052603260045260246000fd5b6020908102919091018101518254600181018455600093845292829020815193018054919092015163ffffffff16600160a01b026001600160c01b03199091166001600160a01b03909316929092179190911790558061388581614dbc565b9150506137e7565b5060005b845181101561394857600360008981526020019081526020016000206002018582815181106138d057634e487b7160e01b600052603260045260246000fd5b60209081029190910181015182546001818101855560009485529383902082516002909202019081559181015191909201805460409093015163ffffffff16600160a01b026001600160c01b03199093166001600160a01b03909216919091179190911790558061394081614dbc565b915050613891565b5050505050505050565b600082131561396857611c0685858585856131a0565b611c1985858561397786614dd7565b85613afd565b600082131561399357611c068585858585613afd565b611c198585856139a286614dd7565b856131a0565b600054610100900460ff166139cf5760405162461bcd60e51b815260040161047d90614b28565b6001600160a01b0381166139f55760405162461bcd60e51b815260040161047d90614a38565b60005b8251811015613a6b5760006001600160a01b0316838281518110613a2c57634e487b7160e01b600052603260045260246000fd5b60200260200101516001600160a01b03161415613a5b5760405162461bcd60e51b815260040161047d90614a38565b613a6481614dbc565b90506139f8565b5060005b8251811015613adf576001806000858481518110613a9d57634e487b7160e01b600052603260045260246000fd5b6020908102919091018101516001600160a01b03168252810191909152604001600020805460ff1916911515919091179055613ad881614dbc565b9050613a6f565b508151613af3906002906020850190613da0565b5061243881613bba565b6001600160a01b038086166000908152600a6020908152604080832063ffffffff89168452825280832093871683529290529081208054849290613b45908490600f0b614be3565b82546101009290920a6001600160801b0381810219909316600f9290920b831602179091556001600160a01b038781166000908152600a6020908152604080832063ffffffff8b16845282528083209389168352929052208054849350909160109161325d918591600160801b900416614c34565b600054610100900460ff16613be15760405162461bcd60e51b815260040161047d90614b28565b600080546001600160a01b03909216620100000262010000600160b01b0319909216919091179055565b60405180606001604052806060815260200160608152602001606081525090565b828054613c3890614d81565b90600052602060002090601f016020900481019282613c5a5760008555613ca0565b82601f10613c735782800160ff19823516178555613ca0565b82800160010185558215613ca0579182015b82811115613ca0578235825591602001919060010190613c85565b50613cac929150613df5565b5090565b508054613cbc90614d81565b6000825580601f10613ccc575050565b601f016020900490600052602060002090810190613cea9190613df5565b50565b5080546000825590600052602060002090810190613cea9190613e0a565b5080546000825560020290600052602060002090810190613cea9190613e29565b828054613d3890614d81565b90600052602060002090601f016020900481019282613d5a5760008555613ca0565b82601f10613d7357805160ff1916838001178555613ca0565b82800160010185558215613ca0579182015b82811115613ca0578251825591602001919060010190613d85565b828054828255906000526020600020908101928215613ca0579160200282015b82811115613ca057825182546001600160a01b0319166001600160a01b03909116178255602090920191600190910190613dc0565b5b80821115613cac5760008155600101613df6565b5b80821115613cac5780546001600160c01b0319168155600101613e0b565b5b80821115613cac57600081556001810180546001600160c01b0319169055600201613e2a565b8035613e5b81614e79565b919050565b60008083601f840112613e71578182fd5b5081356001600160401b03811115613e87578182fd5b602083019150836020606083028501011115613ea257600080fd5b9250929050565b60008083601f840112613eba578182fd5b5081356001600160401b03811115613ed0578182fd5b6020830191508360208260051b8501011115613ea257600080fd5b60008083601f840112613efc578182fd5b5081356001600160401b03811115613f12578182fd5b602083019150836020828501011115613ea257600080fd5b80516001600160801b0381168114613e5b57600080fd5b600060208284031215613f52578081fd5b8135613f5d81614e79565b9392505050565b600060208284031215613f75578081fd5b8151613f5d81614e79565b60008060008060608587031215613f95578283fd5b8435613fa081614e79565b93506020850135613fb081614e79565b925060408501356001600160401b03811115613fca578283fd5b613fd687828801613ea9565b95989497509550505050565b600080600060408486031215613ff6578283fd5b833561400181614e79565b925060208401356001600160401b0381111561401b578283fd5b61402786828701613ea9565b9497909650939450505050565b600080600060608486031215614048578283fd5b833561405381614e79565b9250602084013561406381614e9c565b9150604084013561407381614e79565b809150509250925092565b600080600080600060a08688031215614095578081fd5b85356140a081614e79565b945060208601356140b081614e9c565b935060408601356140c081614e79565b92506060860135915060808601356140d781614e8e565b809150509295509295909350565b600080600080600060a086880312156140fc578283fd5b853561410781614e79565b9450602086013561411781614e9c565b9350604086013561412781614e79565b94979396509394606081013594506080013592915050565b60008060408385031215614151578182fd5b82356001600160401b0380821115614167578384fd5b818501915085601f83011261417a578384fd5b813560208282111561418e5761418e614e07565b8160051b925061419f818401614bb3565b8281528181019085830185870184018b10156141b9578889fd5b8896505b848710156141e757803595506141d286614e79565b858352600196909601959183019183016141bd565b5096506141f79050878201613e50565b9450505050509250929050565b60008060208385031215614216578182fd5b82356001600160401b0381111561422b578283fd5b61423785828601613ea9565b90969095509350505050565b600060208284031215614254578081fd5b8151613f5d81614e8e565b6000806000806000806000806080898b03121561427a578586fd5b88356001600160401b0380821115614290578788fd5b61429c8c838d01613eeb565b909a50985060208b01359150808211156142b4578788fd5b818b0191508b601f8301126142c7578788fd5b8135818111156142d5578889fd5b8c60208260061b85010111156142e9578889fd5b6020830198508097505060408b0135915080821115614306578485fd5b6143128c838d01613e60565b909650945060608b013591508082111561432a578384fd5b506143378b828c01613ea9565b999c989b5096995094979396929594505050565b60006040828403121561435c578081fd5b604080519081016001600160401b038111828210171561437e5761437e614e07565b604052823561438c81614e79565b8152602083013561439c81614e9c565b60208201529392505050565b6000606082840312156143b9578081fd5b604051606081016001600160401b03811182821017156143db576143db614e07565b6040528235815260208301356143f081614e79565b6020820152604083013561440381614e9c565b60408201529392505050565b60008060408385031215614421578182fd5b61442a83613f2a565b915061443860208401613f2a565b90509250929050565b600060208284031215614452578081fd5b5035919050565b6000806040838503121561446b578182fd5b82359150602083013561447d81614e79565b809150509250929050565b60008060006060848603121561449c578081fd5b8335925060208401356144ae81614e79565b9150604084013561407381614e8e565b6000806000606084860312156144d2578081fd5b8335925060208401356144e481614e79565b929592945050506040919091013590565b600080600060408486031215614509578081fd5b8335925060208401356001600160401b03811115614525578182fd5b61402786828701613eeb565b60008060008385036080811215614546578182fd5b843593506040601f198201121561455b578182fd5b50602084019150606084013561407381614e79565b60008060408385031215614582578182fd5b50508035926020909101359150565b6000806000606084860312156145a5578081fd5b8335925060208401359150604084013561407381614e79565b60008060008060008060c087890312156145d6578384fd5b8635955060208701359450604087013593506060870135925060808701356145fd81614e9c565b915060a087013561460d81614e8e565b809150509295509295509295565b60006020828403121561462c578081fd5b8135613f5d81614e9c565b6000815180845260208085019450808401835b8381101561468057815180516001600160a01b0316885283015163ffffffff16838801526040909601959082019060010161464a565b509495945050505050565b6000815180845260208085019450808401835b8381101561468057815180518852838101516001600160a01b03168489015260409081015163ffffffff16908801526060909601959082019060010161469e565b81835281816020850137506000828201602090810191909152601f909101601f19169091010190565b803561471381614e79565b6001600160a01b03168252602081013561472c81614e9c565b63ffffffff81166020840152505050565b60008151606084528051806060860152825b8181101561476c576020818401810151608088840101520161474f565b8181111561477d5783608083880101525b50601f19601f8201168501915050602083015160808583030160208601526147a86080830182614637565b915050604083015184820360408601526147c2828261468b565b95945050505050565b6001600160a01b0391909116815260200190565b6020808252825182820181905260009190848201906040850190845b818110156148205783516001600160a01b0316835292840192918401916001016147fb565b50909695505050505050565b60608082528181018790526000908860808401835b8a811015614866576148538284614708565b6040928301929190910190600101614841565b50848103602086810191909152888252915088908201845b898110156148cd57823582528383013561489781614e79565b6001600160a01b0316828501526040838101356148b381614e9c565b63ffffffff1690830152918401919084019060010161487e565b5085810360408701526148e181888a6146df565b9c9b505050505050505050505050565b6000602080830181845280855180835260408601915060408160051b8701019250838701855b8281101561494557603f1988860301845261493385835161473d565b94509285019290850190600101614917565b5092979650505050505050565b60208101600e831061497457634e487b7160e01b600052602160045260246000fd5b91905290565b60208152600061498e6020830184866146df565b949350505050565b6060815260006149aa6060830186886146df565b6020830194909452506001600160a01b039190911660409091015292915050565b6020808252602a908201527f436f6e74726f6c6c65643a3a6f6e6c794f776e65723a2043616c6c6572206973604082015269103737ba1037bbb732b960b11b606082015260800190565b6020808252600990820152683130b2103a37b5b2b760b91b604082015260600190565b6020808252600b908201526a626164206164647265737360a81b604082015260600190565b6020808252602e908201527f436f6e74726f6c6c65643a3a6f6e6c794d616e616765723a2043616c6c65722060408201526d34b9903737ba1036b0b730b3b2b960911b606082015260800190565b6020808252600f908201526e3130b21034b73a32b3b930ba34b7b760891b604082015260600190565b60208082526034908201527f436f6e74726f6c6c65643a3a6f6e6c79436f6e74726f6c6c65723a2043616c6c60408201527332b91034b9903737ba1031b7b73a3937b63632b960611b606082015260800190565b6020808252602b908201527f496e697469616c697a61626c653a20636f6e7472616374206973206e6f74206960408201526a6e697469616c697a696e6760a81b606082015260800190565b602081526000613f5d602083018461473d565b83815260808101614b9a6020830185614708565b6001600160a01b03929092166060919091015292915050565b604051601f8201601f191681016001600160401b0381118282101715614bdb57614bdb614e07565b604052919050565b6000600f82810b9084900b828212801560016001607f1b0384900383131615614c0e57614c0e614df1565b60016001607f1b03198390038212811615614c2b57614c2b614df1565b50019392505050565b60006001600160801b03828116848216808303821115614c5657614c56614df1565b01949350505050565b60008219821115614c7257614c72614df1565b500190565b600063ffffffff808316818516808303821115614c5657614c56614df1565b600082614cb157634e487b7160e01b81526012600452602481fd5b500490565b6000816000190483118215151615614cd057614cd0614df1565b500290565b6000600f82810b9084900b828112801560016001607f1b0319830184121615614d0057614d00614df1565b60016001607f1b0382018313811615614d1b57614d1b614df1565b5090039392505050565b60006001600160801b0383811690831681811015614d4557614d45614df1565b039392505050565b600082821015614d5f57614d5f614df1565b500390565b600063ffffffff83811690831681811015614d4557614d45614df1565b600181811c90821680614d9557607f821691505b60208210811415614db657634e487b7160e01b600052602260045260246000fd5b50919050565b6000600019821415614dd057614dd0614df1565b5060010190565b6000600160ff1b821415614ded57614ded614df1565b0390565b634e487b7160e01b600052601160045260246000fd5b634e487b7160e01b600052604160045260246000fd5b8135614e2881614e79565b81546001600160a01b031981166001600160a01b039290921691821783556020840135614e5481614e9c565b6001600160c01b03199190911690911760a09190911b63ffffffff60a01b1617905550565b6001600160a01b0381168114613cea57600080fd5b8015158114613cea57600080fd5b63ffffffff81168114613cea57600080fdfea2646970667358221220afa91fe4b37a304fb6a18ff2decee9dbef06119c22502950f5d722b644a598dd64736f6c63430008040033",
  "devdoc": {
    "kind": "dev",
    "methods": {
      "decreaseStrategy(uint256,uint256)": {
        "params": {
          "amount": "amount of lp token that user have burned",
          "strategyId": "the strategy to withdraw assets from"
        }
      },
      "deleteStrategy(uint256)": {
        "details": "This can only be called successfully if the strategy being deleted doesn't have any assets invested in it.To delete a strategy with funds deployed in it, first update the strategy so that the existing tokens are no longer available in the strategy, then delete the strategy. This will unwind the users positions, and they will be able to withdraw their funds.",
        "params": {
          "strategyId": "the strategy to delete"
        }
      },
      "getMaximumCap(uint256,address)": {
        "params": {
          "strategyId": "the strategy strategyId",
          "token": "the token address"
        },
        "returns": {
          "cap": " the maximum cap for the strategy/token pair"
        }
      },
      "getStrategyTokenBalance(uint256,address)": {
        "params": {
          "strategyId": "the strategy strategyId to check",
          "token": "The token to retrieve the balance for"
        },
        "returns": {
          "_0": " the amount of token that is invested in the strategy"
        }
      },
      "movePairWeight(uint256,uint256,uint256,int256,uint32,bool)": {
        "details": "Changes weights of integrations,optionally rebalancing the integrations so that current fund allocation reflects new weights"
      },
      "setAvailableTokens(uint256,address,bool)": {
        "params": {
          "available": "An availability status. Velue \"true\" will enable token and vice versa",
          "strategyId": "The strategy strategyId",
          "token": "The token address"
        }
      },
      "setMaximumCap(uint256,address,uint256)": {
        "params": {
          "maxCap": "The maximum amount of funds that can be invested",
          "strategyId": "The strategy strategyId",
          "token": "the token address"
        }
      },
      "updateName(uint256,string)": {
        "params": {
          "name": "the new name"
        }
      }
    },
    "stateVariables": {
      "_closablePositions": {
        "details": "|-***-| Deprecated after tokenization |-***-|Users now are not able to close positions manually because they have synthetic pool for withdrawals"
      },
      "deployAmount_DEPRECATED": {
        "details": "|-***-| Deprecated after tokenization |-***-|use deployAmount instead"
      },
      "tokenBalances": {
        "details": "|-***-| Deprecated after tokenization |-***-|Use IStrategy1155.totalSupplyBatch() instead"
      }
    },
    "version": 1
  },
  "userdoc": {
    "events": {
      "NewStrategy(uint256,(address,uint32)[],(uint256,address,uint32)[],string)": {
        "notice": "events*"
      }
    },
    "kind": "user",
    "methods": {
      "addStrategy(string,(address,uint32)[],(uint256,address,uint32)[],uint256[])": {
        "notice": "manager's functions*"
      },
      "decreaseDeployAmountChange(address,uint32,address,uint256,uint256)": {
        "notice": "deploy flow*"
      },
      "decreaseStrategy(uint256,uint256)": {
        "notice": "Decreases the amount of a set of tokens invested in a strategy"
      },
      "deleteStrategy(uint256)": {
        "notice": "Deletes a strategy"
      },
      "getMaximumCap(uint256,address)": {
        "notice": "Retrieves the maximum cap for a strategy/token pair"
      },
      "getStrategy(uint256)": {
        "notice": "getters*"
      },
      "getStrategyTokenBalance(uint256,address)": {
        "notice": "Returns the amount of a given token currently invested in a strategy"
      },
      "idCounter()": {
        "notice": "autogenerated getter definition"
      },
      "increaseStrategy(uint256,address,uint256)": {
        "notice": "strategy flow*"
      },
      "setAvailableTokens(uint256,address,bool)": {
        "notice": "Sets availability status for the token"
      },
      "setMaximumCap(uint256,address,uint256)": {
        "notice": "Sets the maximum investment cap for a strategy and token pair"
      },
      "updateName(uint256,string)": {
        "notice": "Updates the strategy name"
      }
    },
    "version": 1
  },
  "storageLayout": {
    "storage": [
      {
        "astId": 702,
        "contract": "contracts/core/StrategyMap.sol:StrategyMap",
        "label": "_initialized",
        "offset": 0,
        "slot": "0",
        "type": "t_bool"
      },
      {
        "astId": 705,
        "contract": "contracts/core/StrategyMap.sol:StrategyMap",
        "label": "_initializing",
        "offset": 1,
        "slot": "0",
        "type": "t_bool"
      },
      {
        "astId": 15684,
        "contract": "contracts/core/StrategyMap.sol:StrategyMap",
        "label": "moduleMap",
        "offset": 2,
        "slot": "0",
        "type": "t_contract(IModuleMap)29669"
      },
      {
        "astId": 9016,
        "contract": "contracts/core/StrategyMap.sol:StrategyMap",
        "label": "_controllers",
        "offset": 0,
        "slot": "1",
        "type": "t_mapping(t_address,t_bool)"
      },
      {
        "astId": 9019,
        "contract": "contracts/core/StrategyMap.sol:StrategyMap",
        "label": "controllers",
        "offset": 0,
        "slot": "2",
        "type": "t_array(t_address)dyn_storage"
      },
      {
        "astId": 15876,
        "contract": "contracts/core/StrategyMap.sol:StrategyMap",
        "label": "strategies",
        "offset": 0,
        "slot": "3",
        "type": "t_mapping(t_uint256,t_struct(Strategy)31072_storage)"
      },
      {
        "astId": 15881,
        "contract": "contracts/core/StrategyMap.sol:StrategyMap",
        "label": "tokenBalances",
        "offset": 0,
        "slot": "4",
        "type": "t_mapping(t_address,t_uint256)"
      },
      {
        "astId": 15887,
        "contract": "contracts/core/StrategyMap.sol:StrategyMap",
        "label": "strategyTokenBalances",
        "offset": 0,
        "slot": "5",
        "type": "t_mapping(t_uint256,t_mapping(t_address,t_uint256))"
      },
      {
        "astId": 15896,
        "contract": "contracts/core/StrategyMap.sol:StrategyMap",
        "label": "deployAmount_DEPRECATED",
        "offset": 0,
        "slot": "6",
        "type": "t_mapping(t_address,t_mapping(t_uint32,t_mapping(t_address,t_int256)))"
      },
      {
        "astId": 15903,
        "contract": "contracts/core/StrategyMap.sol:StrategyMap",
        "label": "_closablePositions",
        "offset": 0,
        "slot": "7",
        "type": "t_mapping(t_address,t_array(t_struct(ClosablePosition)31097_storage)dyn_storage)"
      },
      {
        "astId": 15906,
        "contract": "contracts/core/StrategyMap.sol:StrategyMap",
        "label": "idCounter",
        "offset": 0,
        "slot": "8",
        "type": "t_uint256"
      },
      {
        "astId": 15910,
        "contract": "contracts/core/StrategyMap.sol:StrategyMap",
        "label": "tokenWeights",
        "offset": 0,
        "slot": "9",
        "type": "t_mapping(t_address,t_uint256)"
      },
      {
        "astId": 15919,
        "contract": "contracts/core/StrategyMap.sol:StrategyMap",
        "label": "deployAmount",
        "offset": 0,
        "slot": "10",
        "type": "t_mapping(t_address,t_mapping(t_uint32,t_mapping(t_address,t_struct(DeployAmount)31041_storage)))"
      }
    ],
    "types": {
      "t_address": {
        "encoding": "inplace",
        "label": "address",
        "numberOfBytes": "20"
      },
      "t_array(t_address)dyn_storage": {
        "base": "t_address",
        "encoding": "dynamic_array",
        "label": "address[]",
        "numberOfBytes": "32"
      },
      "t_array(t_struct(ClosablePosition)31097_storage)dyn_storage": {
        "base": "t_struct(ClosablePosition)31097_storage",
        "encoding": "dynamic_array",
        "label": "struct IStrategyMap.ClosablePosition[]",
        "numberOfBytes": "32"
      },
      "t_array(t_struct(Integration)31046_storage)dyn_storage": {
        "base": "t_struct(Integration)31046_storage",
        "encoding": "dynamic_array",
        "label": "struct IStrategyMap.Integration[]",
        "numberOfBytes": "32"
      },
      "t_array(t_struct(Token)31053_storage)dyn_storage": {
        "base": "t_struct(Token)31053_storage",
        "encoding": "dynamic_array",
        "label": "struct IStrategyMap.Token[]",
        "numberOfBytes": "32"
      },
      "t_bool": {
        "encoding": "inplace",
        "label": "bool",
        "numberOfBytes": "1"
      },
      "t_contract(IModuleMap)29669": {
        "encoding": "inplace",
        "label": "contract IModuleMap",
        "numberOfBytes": "20"
      },
      "t_int128": {
        "encoding": "inplace",
        "label": "int128",
        "numberOfBytes": "16"
      },
      "t_int256": {
        "encoding": "inplace",
        "label": "int256",
        "numberOfBytes": "32"
      },
      "t_mapping(t_address,t_array(t_struct(ClosablePosition)31097_storage)dyn_storage)": {
        "encoding": "mapping",
        "key": "t_address",
        "label": "mapping(address => struct IStrategyMap.ClosablePosition[])",
        "numberOfBytes": "32",
        "value": "t_array(t_struct(ClosablePosition)31097_storage)dyn_storage"
      },
      "t_mapping(t_address,t_bool)": {
        "encoding": "mapping",
        "key": "t_address",
        "label": "mapping(address => bool)",
        "numberOfBytes": "32",
        "value": "t_bool"
      },
      "t_mapping(t_address,t_int256)": {
        "encoding": "mapping",
        "key": "t_address",
        "label": "mapping(address => int256)",
        "numberOfBytes": "32",
        "value": "t_int256"
      },
      "t_mapping(t_address,t_mapping(t_uint32,t_mapping(t_address,t_int256)))": {
        "encoding": "mapping",
        "key": "t_address",
        "label": "mapping(address => mapping(uint32 => mapping(address => int256)))",
        "numberOfBytes": "32",
        "value": "t_mapping(t_uint32,t_mapping(t_address,t_int256))"
      },
      "t_mapping(t_address,t_mapping(t_uint32,t_mapping(t_address,t_struct(DeployAmount)31041_storage)))": {
        "encoding": "mapping",
        "key": "t_address",
        "label": "mapping(address => mapping(uint32 => mapping(address => struct IStrategyMap.DeployAmount)))",
        "numberOfBytes": "32",
        "value": "t_mapping(t_uint32,t_mapping(t_address,t_struct(DeployAmount)31041_storage))"
      },
      "t_mapping(t_address,t_struct(DeployAmount)31041_storage)": {
        "encoding": "mapping",
        "key": "t_address",
        "label": "mapping(address => struct IStrategyMap.DeployAmount)",
        "numberOfBytes": "32",
        "value": "t_struct(DeployAmount)31041_storage"
      },
      "t_mapping(t_address,t_uint256)": {
        "encoding": "mapping",
        "key": "t_address",
        "label": "mapping(address => uint256)",
        "numberOfBytes": "32",
        "value": "t_uint256"
      },
      "t_mapping(t_uint256,t_mapping(t_address,t_uint256))": {
        "encoding": "mapping",
        "key": "t_uint256",
        "label": "mapping(uint256 => mapping(address => uint256))",
        "numberOfBytes": "32",
        "value": "t_mapping(t_address,t_uint256)"
      },
      "t_mapping(t_uint256,t_struct(Strategy)31072_storage)": {
        "encoding": "mapping",
        "key": "t_uint256",
        "label": "mapping(uint256 => struct IStrategyMap.Strategy)",
        "numberOfBytes": "32",
        "value": "t_struct(Strategy)31072_storage"
      },
      "t_mapping(t_uint32,t_mapping(t_address,t_int256))": {
        "encoding": "mapping",
        "key": "t_uint32",
        "label": "mapping(uint32 => mapping(address => int256))",
        "numberOfBytes": "32",
        "value": "t_mapping(t_address,t_int256)"
      },
      "t_mapping(t_uint32,t_mapping(t_address,t_struct(DeployAmount)31041_storage))": {
        "encoding": "mapping",
        "key": "t_uint32",
        "label": "mapping(uint32 => mapping(address => struct IStrategyMap.DeployAmount))",
        "numberOfBytes": "32",
        "value": "t_mapping(t_address,t_struct(DeployAmount)31041_storage)"
      },
      "t_string_storage": {
        "encoding": "bytes",
        "label": "string",
        "numberOfBytes": "32"
      },
      "t_struct(ClosablePosition)31097_storage": {
        "encoding": "inplace",
        "label": "struct IStrategyMap.ClosablePosition",
        "members": [
          {
            "astId": 31092,
            "contract": "contracts/core/StrategyMap.sol:StrategyMap",
            "label": "integration",
            "offset": 0,
            "slot": "0",
            "type": "t_address"
          },
          {
            "astId": 31094,
            "contract": "contracts/core/StrategyMap.sol:StrategyMap",
            "label": "ammPoolID",
            "offset": 20,
            "slot": "0",
            "type": "t_uint32"
          },
          {
            "astId": 31096,
            "contract": "contracts/core/StrategyMap.sol:StrategyMap",
            "label": "amount",
            "offset": 0,
            "slot": "1",
            "type": "t_uint256"
          }
        ],
        "numberOfBytes": "64"
      },
      "t_struct(DeployAmount)31041_storage": {
        "encoding": "inplace",
        "label": "struct IStrategyMap.DeployAmount",
        "members": [
          {
            "astId": 31038,
            "contract": "contracts/core/StrategyMap.sol:StrategyMap",
            "label": "deploy",
            "offset": 0,
            "slot": "0",
            "type": "t_int128"
          },
          {
            "astId": 31040,
            "contract": "contracts/core/StrategyMap.sol:StrategyMap",
            "label": "hedge",
            "offset": 16,
            "slot": "0",
            "type": "t_uint128"
          }
        ],
        "numberOfBytes": "32"
      },
      "t_struct(Integration)31046_storage": {
        "encoding": "inplace",
        "label": "struct IStrategyMap.Integration",
        "members": [
          {
            "astId": 31043,
            "contract": "contracts/core/StrategyMap.sol:StrategyMap",
            "label": "integration",
            "offset": 0,
            "slot": "0",
            "type": "t_address"
          },
          {
            "astId": 31045,
            "contract": "contracts/core/StrategyMap.sol:StrategyMap",
            "label": "ammPoolID",
            "offset": 20,
            "slot": "0",
            "type": "t_uint32"
          }
        ],
        "numberOfBytes": "32"
      },
      "t_struct(Strategy)31072_storage": {
        "encoding": "inplace",
        "label": "struct IStrategyMap.Strategy",
        "members": [
          {
            "astId": 31055,
            "contract": "contracts/core/StrategyMap.sol:StrategyMap",
            "label": "name",
            "offset": 0,
            "slot": "0",
            "type": "t_string_storage"
          },
          {
            "astId": 31059,
            "contract": "contracts/core/StrategyMap.sol:StrategyMap",
            "label": "integrations",
            "offset": 0,
            "slot": "1",
            "type": "t_array(t_struct(Integration)31046_storage)dyn_storage"
          },
          {
            "astId": 31063,
            "contract": "contracts/core/StrategyMap.sol:StrategyMap",
            "label": "tokens",
            "offset": 0,
            "slot": "2",
            "type": "t_array(t_struct(Token)31053_storage)dyn_storage"
          },
          {
            "astId": 31067,
            "contract": "contracts/core/StrategyMap.sol:StrategyMap",
            "label": "availableTokens",
            "offset": 0,
            "slot": "3",
            "type": "t_mapping(t_address,t_bool)"
          },
          {
            "astId": 31071,
            "contract": "contracts/core/StrategyMap.sol:StrategyMap",
            "label": "maximumCap",
            "offset": 0,
            "slot": "4",
            "type": "t_mapping(t_address,t_uint256)"
          }
        ],
        "numberOfBytes": "160"
      },
      "t_struct(Token)31053_storage": {
        "encoding": "inplace",
        "label": "struct IStrategyMap.Token",
        "members": [
          {
            "astId": 31048,
            "contract": "contracts/core/StrategyMap.sol:StrategyMap",
            "label": "integrationPairIdx",
            "offset": 0,
            "slot": "0",
            "type": "t_uint256"
          },
          {
            "astId": 31050,
            "contract": "contracts/core/StrategyMap.sol:StrategyMap",
            "label": "token",
            "offset": 0,
            "slot": "1",
            "type": "t_address"
          },
          {
            "astId": 31052,
            "contract": "contracts/core/StrategyMap.sol:StrategyMap",
            "label": "weight",
            "offset": 20,
            "slot": "1",
            "type": "t_uint32"
          }
        ],
        "numberOfBytes": "64"
      },
      "t_uint128": {
        "encoding": "inplace",
        "label": "uint128",
        "numberOfBytes": "16"
      },
      "t_uint256": {
        "encoding": "inplace",
        "label": "uint256",
        "numberOfBytes": "32"
      },
      "t_uint32": {
        "encoding": "inplace",
        "label": "uint32",
        "numberOfBytes": "4"
      }
    }
  }
}