{
  "address": "0xCB674C4e030D0Dd4810c06bAf3F5766C1de25f72",
  "abi": [
    {
      "inputs": [
        {
          "internalType": "address",
          "name": "controller",
          "type": "address"
        }
      ],
      "name": "addController",
      "outputs": [],
      "stateMutability": "nonpayable",
      "type": "function"
    },
    {
      "inputs": [
        {
          "internalType": "address",
          "name": "_account",
          "type": "address"
        },
        {
          "internalType": "uint256",
          "name": "_id",
          "type": "uint256"
        }
      ],
      "name": "balanceOf",
      "outputs": [
        {
          "internalType": "uint256",
          "name": "balance_",
          "type": "uint256"
        }
      ],
      "stateMutability": "view",
      "type": "function"
    },
    {
      "inputs": [
        {
          "internalType": "address",
          "name": "_account",
          "type": "address"
        },
        {
          "internalType": "uint256[]",
          "name": "_ids",
          "type": "uint256[]"
        }
      ],
      "name": "balanceOfBatch",
      "outputs": [
        {
          "internalType": "uint256",
          "name": "totalBalance_",
          "type": "uint256"
        }
      ],
      "stateMutability": "view",
      "type": "function"
    },
    {
      "inputs": [
        {
          "internalType": "address",
          "name": "_account",
          "type": "address"
        },
        {
          "internalType": "uint256",
          "name": "_id",
          "type": "uint256"
        },
        {
          "internalType": "uint256",
          "name": "_amount",
          "type": "uint256"
        }
      ],
      "name": "burn",
      "outputs": [],
      "stateMutability": "nonpayable",
      "type": "function"
    },
    {
      "inputs": [
        {
          "internalType": "uint256",
          "name": "",
          "type": "uint256"
        }
      ],
      "name": "controllers",
      "outputs": [
        {
          "internalType": "address",
          "name": "",
          "type": "address"
        }
      ],
      "stateMutability": "view",
      "type": "function"
    },
    {
      "inputs": [
        {
          "internalType": "string",
          "name": "_strategyName",
          "type": "string"
        },
        {
          "internalType": "uint256",
          "name": "_strategyId",
          "type": "uint256"
        },
        {
          "internalType": "address",
          "name": "_underlying",
          "type": "address"
        }
      ],
      "name": "deployStrategyToken",
      "outputs": [],
      "stateMutability": "nonpayable",
      "type": "function"
    },
    {
      "inputs": [],
      "name": "getAllControllers",
      "outputs": [
        {
          "internalType": "address[]",
          "name": "currentControllers",
          "type": "address[]"
        }
      ],
      "stateMutability": "view",
      "type": "function"
    },
    {
      "inputs": [
        {
          "internalType": "uint256",
          "name": "",
          "type": "uint256"
        }
      ],
      "name": "idToERC20",
      "outputs": [
        {
          "internalType": "address",
          "name": "",
          "type": "address"
        }
      ],
      "stateMutability": "view",
      "type": "function"
    },
    {
      "inputs": [
        {
          "internalType": "uint256",
          "name": "",
          "type": "uint256"
        }
      ],
      "name": "idToUnderlying",
      "outputs": [
        {
          "internalType": "address",
          "name": "",
          "type": "address"
        }
      ],
      "stateMutability": "view",
      "type": "function"
    },
    {
      "inputs": [
        {
          "internalType": "address[]",
          "name": "controllers_",
          "type": "address[]"
        },
        {
          "internalType": "address",
          "name": "_moduleMap",
          "type": "address"
        },
        {
          "internalType": "address",
          "name": "_ProxyCloneFactory",
          "type": "address"
        },
        {
          "internalType": "address",
          "name": "_initialStrategyToken",
          "type": "address"
        },
        {
          "internalType": "uint256",
          "name": "_initialStrategyTokenId",
          "type": "uint256"
        },
        {
          "internalType": "address",
          "name": "_initialStrategyUnderlying",
          "type": "address"
        }
      ],
      "name": "initialize",
      "outputs": [],
      "stateMutability": "nonpayable",
      "type": "function"
    },
    {
      "inputs": [
        {
          "internalType": "address",
          "name": "controller",
          "type": "address"
        }
      ],
      "name": "isController",
      "outputs": [
        {
          "internalType": "bool",
          "name": "status",
          "type": "bool"
        }
      ],
      "stateMutability": "view",
      "type": "function"
    },
    {
      "inputs": [
        {
          "internalType": "string[]",
          "name": "_names",
          "type": "string[]"
        },
        {
          "internalType": "uint256[]",
          "name": "_ids",
          "type": "uint256[]"
        },
        {
          "internalType": "address[]",
          "name": "_underlyings",
          "type": "address[]"
        }
      ],
      "name": "migrateDeploy",
      "outputs": [],
      "stateMutability": "nonpayable",
      "type": "function"
    },
    {
      "inputs": [
        {
          "internalType": "address",
          "name": "_account",
          "type": "address"
        },
        {
          "internalType": "uint256",
          "name": "_id",
          "type": "uint256"
        },
        {
          "internalType": "uint256",
          "name": "_amount",
          "type": "uint256"
        }
      ],
      "name": "mint",
      "outputs": [],
      "stateMutability": "nonpayable",
      "type": "function"
    },
    {
      "inputs": [],
      "name": "moduleMap",
      "outputs": [
        {
          "internalType": "contract IModuleMap",
          "name": "",
          "type": "address"
        }
      ],
      "stateMutability": "view",
      "type": "function"
    },
    {
      "inputs": [
        {
          "internalType": "uint256",
          "name": "_id",
          "type": "uint256"
        }
      ],
      "name": "totalSupply",
      "outputs": [
        {
          "internalType": "uint256",
          "name": "supply_",
          "type": "uint256"
        }
      ],
      "stateMutability": "view",
      "type": "function"
    },
    {
      "inputs": [
        {
          "internalType": "uint256[]",
          "name": "_ids",
          "type": "uint256[]"
        }
      ],
      "name": "totalSupplyBatch",
      "outputs": [
        {
          "internalType": "uint256",
          "name": "totalSupply_",
          "type": "uint256"
        }
      ],
      "stateMutability": "view",
      "type": "function"
    }
  ],
  "transactionHash": "0x114c059b6cfb853d109a9b5cd46cfc63cac79118c24064cd2196c7ed013d3aea",
  "args": [],
  "solcInputHash": "795a3c27493dbed3f4b92b596f2e5929",
  "bytecode": "0x608060405234801561001057600080fd5b50611901806100206000396000f3fe608060405234801561001057600080fd5b50600436106100cf5760003560e01c8062fdd58e146100d45780630e1fe089146100fa5780630f0a1c6f1461010f578063156e29f6146101355780631ee78e7e1461014857806328ed341114610171578063337993cb1461018457806377954ac21461019957806396d5f51a146101ac578063a7fc7a07146101d5578063afd69086146101e8578063b429afeb146101fb578063bd85b03914610237578063e94b0dd21461024a578063f5298aca1461025d578063f6bf0eba14610270575b600080fd5b6100e76100e2366004611286565b610283565b6040519081526020015b60405180910390f35b61010d6101083660046112e5565b6102d1565b005b600054610128906201000090046001600160a01b031681565b6040516100f19190611656565b61010d6101433660046112b1565b610425565b610128610156366004611534565b6004602052600090815260409020546001600160a01b031681565b61010d61017f36600461137b565b610497565b61018c61073b565b6040516100f1919061166a565b6100e76101a7366004611410565b61079d565b6101286101ba366004611534565b6005602052600090815260409020546001600160a01b031681565b61010d6101e33660046111f5565b6107fd565b6100e76101f6366004611234565b610a38565b6102276102093660046111f5565b6001600160a01b031660009081526001602052604090205460ff1690565b60405190151581526020016100f1565b6100e7610245366004611534565b610a9a565b610128610258366004611534565b610ac8565b61010d61026b3660046112b1565b610af2565b61010d61027e36600461146f565b610b4a565b6040516370a0823160e01b60208201526001600160a01b038316602482015260009081906102c59084906044015b604051602081830303815290604052610b89565b60200151949350505050565b600054610100900460ff166102ec5760005460ff16156102f0565b303b155b6103585760405162461bcd60e51b815260206004820152602e60248201527f496e697469616c697a61626c653a20636f6e747261637420697320616c72656160448201526d191e481a5b9a5d1a585b1a5e995960921b60648201526084015b60405180910390fd5b600054610100900460ff1615801561037a576000805461ffff19166101011790555b6103b88888808060200260200160405190810160405280939291908181526020018383602002808284376000920191909152508a9250610c56915050565b600380546001600160a01b038088166001600160a01b031992831617909255600085815260056020908152604080832080548a871690861617905560049091529020805492851692909116919091179055801561041b576000805461ff00191690555b5050505050505050565b3360009081526001602052604090205460ff166104545760405162461bcd60e51b815260040161034f90611745565b610491826340c10f1960e01b856001600160a01b03168460405160200161047d939291906115bb565b604051602081830303815290604052610dab565b50505050565b600080546040516337c61fc560e11b8152620100009091046001600160a01b031691636f8c3f8a916104cc919060040161167d565b60206040518083038186803b1580156104e457600080fd5b505afa1580156104f8573d6000803e3d6000fd5b505050506040513d601f19601f8201168201806040525081019061051c9190611218565b6001600160a01b031663f3ae2415336040518263ffffffff1660e01b81526004016105479190611656565b60206040518083038186803b15801561055f57600080fd5b505afa158015610573573d6000803e3d6000fd5b505050506040513d601f19601f82011682018060405250810190610597919061144f565b6105fa5760405162461bcd60e51b815260206004820152602e60248201527f436f6e74726f6c6c65643a3a6f6e6c794d616e616765723a2043616c6c65722060448201526d34b9903737ba1036b0b730b3b2b960911b606482015260840161034f565b60005b8581101561073257600060058187878581811061062a57634e487b7160e01b600052603260045260246000fd5b60209081029290920135835250810191909152604001600020546001600160a01b031614156107205761072087878381811061067657634e487b7160e01b600052603260045260246000fd5b905060200281019061068891906117e4565b8080601f0160208091040260200160405190810160405280939291908181526020018383808284376000920191909152508992508891508590508181106106df57634e487b7160e01b600052603260045260246000fd5b9050602002013585858581811061070657634e487b7160e01b600052603260045260246000fd5b905060200201602081019061071b91906111f5565b610e74565b8061072a8161186c565b9150506105fd565b50505050505050565b6060600280548060200260200160405190810160405280929190818152602001828054801561079357602002820191906000526020600020905b81546001600160a01b03168152600190910190602001808311610775575b5050505050905090565b6000805b828110156107f6576107d88484838181106107cc57634e487b7160e01b600052603260045260246000fd5b90506020020135610a9a565b6107e29083611828565b9150806107ee8161186c565b9150506107a1565b5092915050565b600080546040516337c61fc560e11b8152620100009091046001600160a01b031691636f8c3f8a91610832919060040161167d565b60206040518083038186803b15801561084a57600080fd5b505afa15801561085e573d6000803e3d6000fd5b505050506040513d601f19601f820116820180604052508101906108829190611218565b6001600160a01b0316632f54bf6e336040518263ffffffff1660e01b81526004016108ad9190611656565b60206040518083038186803b1580156108c557600080fd5b505afa1580156108d9573d6000803e3d6000fd5b505050506040513d601f19601f820116820180604052508101906108fd919061144f565b61095c5760405162461bcd60e51b815260206004820152602a60248201527f436f6e74726f6c6c65643a3a6f6e6c794f776e65723a2043616c6c6572206973604482015269103737ba1037bbb732b960b11b606482015260840161034f565b6001600160a01b03811660009081526001602081905260408220805460ff19169091179055805b6002548110156109e257600281815481106109ae57634e487b7160e01b600052603260045260246000fd5b6000918252602090912001546001600160a01b03848116911614156109d257600191505b6109db8161186c565b9050610983565b5080610a3457600280546001810182556000919091527f405787fa12a823e0f2b7631cc41b3ba8828b3321ca811111fa75cd3aa3bb5ace0180546001600160a01b0319166001600160a01b0384161790555b5050565b6000805b82811015610a9257610a7485858584818110610a6857634e487b7160e01b600052603260045260246000fd5b90506020020135610283565b610a7e9083611828565b915080610a8a8161186c565b915050610a3c565b509392505050565b6040516318160ddd60e01b60208201526000908190610abd9084906024016102b1565b602001519392505050565b60028181548110610ad857600080fd5b6000918252602090912001546001600160a01b0316905081565b3360009081526001602052604090205460ff16610b215760405162461bcd60e51b815260040161034f90611745565b61049182639dc29fac60e01b856001600160a01b03168460405160200161047d939291906115bb565b3360009081526001602052604090205460ff16610b795760405162461bcd60e51b815260040161034f90611745565b610b84838383610e74565b505050565b60606000610b9684610ec1565b6001600160a01b031683604051610bad91906115dd565b600060405180830381855afa9150503d8060008114610be8576040519150601f19603f3d011682016040523d82523d6000602084013e610bed565b606091505b5092509050806107f65760405162461bcd60e51b815260206004820152602e60248201527f537472617465677931313535206c6f772d6c6576656c2045524332302073746160448201526d1d1a58d8d85b1b0819985a5b195960921b606482015260840161034f565b600054610100900460ff16610c7d5760405162461bcd60e51b815260040161034f90611799565b6001600160a01b038116610ca35760405162461bcd60e51b815260040161034f90611720565b60005b8251811015610d195760006001600160a01b0316838281518110610cda57634e487b7160e01b600052603260045260246000fd5b60200260200101516001600160a01b03161415610d095760405162461bcd60e51b815260040161034f90611720565b610d128161186c565b9050610ca6565b5060005b8251811015610d8d576001806000858481518110610d4b57634e487b7160e01b600052603260045260246000fd5b6020908102919091018101516001600160a01b03168252810191909152604001600020805460ff1916911515919091179055610d868161186c565b9050610d1d565b508151610da1906002906020850190611127565b50610a3481610f3a565b60606000610db884610ec1565b6001600160a01b031683604051610dcf91906115dd565b6000604051808303816000865af19150503d8060008114610e0c576040519150601f19603f3d011682016040523d82523d6000602084013e610e11565b606091505b5092509050806107f65760405162461bcd60e51b815260206004820152602860248201527f537472617465677931313535206c6f772d6c6576656c2045524332302063616c6044820152671b0819985a5b195960c21b606482015260840161034f565b610e7e8383610f8b565b600092835260056020908152604080852080546001600160a01b03199081166001600160a01b039586161790915560049092529093208054909316911617905550565b6000818152600560205260409020546001600160a01b031680610f355760405162461bcd60e51b815260206004820152602660248201527f53747261746567793131353520657263323020666f72205f696420646f6e277460448201526508195e1a5cdd60d21b606482015260840161034f565b919050565b600054610100900460ff16610f615760405162461bcd60e51b815260040161034f90611799565b600080546001600160a01b03909216620100000262010000600160b01b0319909216919091179055565b60008083604051602001610f9f91906115f9565b6040516020818303038152906040529050600084604051602001610fc3919061162c565b60408051601f198184030181529190526003549091506001600160a01b03166356a918aa7f9d0b6d0ad79fa832c2082e69387fafe9828decc4d2a4b44c042cc70d8df667cc848488611014306110c1565b60005460405161103a95949392916201000090046001600160a01b0316906020016116c6565b6040516020818303038152906040526040518363ffffffff1660e01b81526004016110669291906116a5565b602060405180830381600087803b15801561108057600080fd5b505af1158015611094573d6000803e3d6000fd5b505050506040513d601f19601f820116820180604052508101906110b89190611218565b95945050505050565b6040805160018082528183019092526060916000919060208083019080368337019050509050828160008151811061110957634e487b7160e01b600052603260045260246000fd5b6001600160a01b039092166020928302919091019091015292915050565b82805482825590600052602060002090810192821561117c579160200282015b8281111561117c57825182546001600160a01b0319166001600160a01b03909116178255602090920191600190910190611147565b5061118892915061118c565b5090565b5b80821115611188576000815560010161118d565b8035610f35816118b3565b60008083601f8401126111bd578081fd5b5081356001600160401b038111156111d3578182fd5b6020830191508360208260051b85010111156111ee57600080fd5b9250929050565b600060208284031215611206578081fd5b8135611211816118b3565b9392505050565b600060208284031215611229578081fd5b8151611211816118b3565b600080600060408486031215611248578182fd5b8335611253816118b3565b925060208401356001600160401b0381111561126d578283fd5b611279868287016111ac565b9497909650939450505050565b60008060408385031215611298578182fd5b82356112a3816118b3565b946020939093013593505050565b6000806000606084860312156112c5578283fd5b83356112d0816118b3565b95602085013595506040909401359392505050565b600080600080600080600060c0888a0312156112ff578283fd5b87356001600160401b03811115611314578384fd5b6113208a828b016111ac565b9098509650506020880135611334816118b3565b94506040880135611344816118b3565b93506060880135611354816118b3565b92506080880135915060a088013561136b816118b3565b8091505092959891949750929550565b60008060008060008060608789031215611393578182fd5b86356001600160401b03808211156113a9578384fd5b6113b58a838b016111ac565b909850965060208901359150808211156113cd578384fd5b6113d98a838b016111ac565b909650945060408901359150808211156113f1578384fd5b506113fe89828a016111ac565b979a9699509497509295939492505050565b60008060208385031215611422578182fd5b82356001600160401b03811115611437578283fd5b611443858286016111ac565b90969095509350505050565b600060208284031215611460578081fd5b81518015158114611211578182fd5b600080600060608486031215611483578283fd5b83356001600160401b0380821115611499578485fd5b818601915086601f8301126114ac578485fd5b8135818111156114be576114be61189d565b604051601f8201601f19908116603f011681019083821181831017156114e6576114e661189d565b816040528281528960208487010111156114fe578788fd5b82602086016020830137876020848301015280975050505050506020840135915061152b604085016111a1565b90509250925092565b600060208284031215611545578081fd5b5035919050565b6000815180845260208085019450808401835b838110156115845781516001600160a01b03168752958201959082019060010161155f565b509495945050505050565b600081518084526115a7816020860160208601611840565b601f01601f19169290920160200192915050565b6001600160e01b03199390931683526004830191909152602482015260440190565b600082516115ef818460208701611840565b9190910192915050565b6000825161160b818460208701611840565b6e1029ba3930ba32b3bc902a37b5b2b760891b920191825250600f01919050565b61060f60f31b815260008251611649816002850160208701611840565b9190910160020192915050565b6001600160a01b0391909116815260200190565b602081526000611211602083018461154c565b60208101600e831061169f57634e487b7160e01b600052602160045260246000fd5b91905290565b8281526040602082015260006116be604083018461158f565b949350505050565b60a0815260006116d960a083018861158f565b82810360208401526116eb818861158f565b90508560408401528281036060840152611705818661154c565b91505060018060a01b03831660808301529695505050505050565b6020808252600b908201526a626164206164647265737360a81b604082015260600190565b60208082526034908201527f436f6e74726f6c6c65643a3a6f6e6c79436f6e74726f6c6c65723a2043616c6c60408201527332b91034b9903737ba1031b7b73a3937b63632b960611b606082015260800190565b6020808252602b908201527f496e697469616c697a61626c653a20636f6e7472616374206973206e6f74206960408201526a6e697469616c697a696e6760a81b606082015260800190565b6000808335601e198436030181126117fa578283fd5b8301803591506001600160401b03821115611813578283fd5b6020019150368190038213156111ee57600080fd5b6000821982111561183b5761183b611887565b500190565b60005b8381101561185b578181015183820152602001611843565b838111156104915750506000910152565b600060001982141561188057611880611887565b5060010190565b634e487b7160e01b600052601160045260246000fd5b634e487b7160e01b600052604160045260246000fd5b6001600160a01b03811681146118c857600080fd5b5056fea2646970667358221220e1915a4b9c39de0669f62359d8d762690530ffddc11eeb71cbf527be05d1814064736f6c63430008040033",
  "devdoc": {
    "kind": "dev",
    "methods": {},
    "version": 1
  },
  "userdoc": {
    "kind": "user",
    "methods": {
      "balanceOf(address,uint256)": {
        "notice": "Getters*"
      },
      "deployStrategyToken(string,uint256,address)": {
        "notice": "ERC20 creation*"
      },
      "migrateDeploy(string[],uint256[],address[])": {
        "notice": "migration*"
      },
      "mint(address,uint256,uint256)": {
        "notice": "\"ERC1155\"*"
      }
    },
    "version": 1
  },
  "storageLayout": {
    "storage": [
      {
        "astId": 702,
        "contract": "contracts/clones/Strategy1155.sol:Strategy1155",
        "label": "_initialized",
        "offset": 0,
        "slot": "0",
        "type": "t_bool"
      },
      {
        "astId": 705,
        "contract": "contracts/clones/Strategy1155.sol:Strategy1155",
        "label": "_initializing",
        "offset": 1,
        "slot": "0",
        "type": "t_bool"
      },
      {
        "astId": 15667,
        "contract": "contracts/clones/Strategy1155.sol:Strategy1155",
        "label": "moduleMap",
        "offset": 2,
        "slot": "0",
        "type": "t_contract(IModuleMap)29515"
      },
      {
        "astId": 8991,
        "contract": "contracts/clones/Strategy1155.sol:Strategy1155",
        "label": "_controllers",
        "offset": 0,
        "slot": "1",
        "type": "t_mapping(t_address,t_bool)"
      },
      {
        "astId": 8994,
        "contract": "contracts/clones/Strategy1155.sol:Strategy1155",
        "label": "controllers",
        "offset": 0,
        "slot": "2",
        "type": "t_array(t_address)dyn_storage"
      },
      {
        "astId": 5105,
        "contract": "contracts/clones/Strategy1155.sol:Strategy1155",
        "label": "ProxyCloneFactory",
        "offset": 0,
        "slot": "3",
        "type": "t_contract(IProxyCloneFactory)29920"
      },
      {
        "astId": 5110,
        "contract": "contracts/clones/Strategy1155.sol:Strategy1155",
        "label": "idToUnderlying",
        "offset": 0,
        "slot": "4",
        "type": "t_mapping(t_uint256,t_address)"
      },
      {
        "astId": 5114,
        "contract": "contracts/clones/Strategy1155.sol:Strategy1155",
        "label": "idToERC20",
        "offset": 0,
        "slot": "5",
        "type": "t_mapping(t_uint256,t_address)"
      }
    ],
    "types": {
      "t_address": {
        "encoding": "inplace",
        "label": "address",
        "numberOfBytes": "20"
      },
      "t_array(t_address)dyn_storage": {
        "base": "t_address",
        "encoding": "dynamic_array",
        "label": "address[]",
        "numberOfBytes": "32"
      },
      "t_bool": {
        "encoding": "inplace",
        "label": "bool",
        "numberOfBytes": "1"
      },
      "t_contract(IModuleMap)29515": {
        "encoding": "inplace",
        "label": "contract IModuleMap",
        "numberOfBytes": "20"
      },
      "t_contract(IProxyCloneFactory)29920": {
        "encoding": "inplace",
        "label": "contract IProxyCloneFactory",
        "numberOfBytes": "20"
      },
      "t_mapping(t_address,t_bool)": {
        "encoding": "mapping",
        "key": "t_address",
        "label": "mapping(address => bool)",
        "numberOfBytes": "32",
        "value": "t_bool"
      },
      "t_mapping(t_uint256,t_address)": {
        "encoding": "mapping",
        "key": "t_uint256",
        "label": "mapping(uint256 => address)",
        "numberOfBytes": "32",
        "value": "t_address"
      },
      "t_uint256": {
        "encoding": "inplace",
        "label": "uint256",
        "numberOfBytes": "32"
      }
    }
  }
}