{
  "address": "0x290dDc3f9cF959B0583F646c5534B6E00131593f",
  "abi": [
    {
      "inputs": [
        {
          "internalType": "address",
          "name": "controller",
          "type": "address"
        }
      ],
      "name": "addController",
      "outputs": [],
      "stateMutability": "nonpayable",
      "type": "function"
    },
    {
      "inputs": [
        {
          "internalType": "address",
          "name": "_traderAddress",
          "type": "address"
        }
      ],
      "name": "addTrader",
      "outputs": [],
      "stateMutability": "nonpayable",
      "type": "function"
    },
    {
      "inputs": [
        {
          "internalType": "uint256",
          "name": "ratioX1000",
          "type": "uint256"
        }
      ],
      "name": "biosBuyBack",
      "outputs": [
        {
          "internalType": "bool",
          "name": "",
          "type": "bool"
        }
      ],
      "stateMutability": "nonpayable",
      "type": "function"
    },
    {
      "inputs": [
        {
          "internalType": "uint256",
          "name": "_inputAmountA",
          "type": "uint256"
        },
        {
          "internalType": "uint256",
          "name": "_reserveA",
          "type": "uint256"
        },
        {
          "internalType": "uint256",
          "name": "_reserveB",
          "type": "uint256"
        },
        {
          "internalType": "uint256",
          "name": "_decimalA",
          "type": "uint256"
        },
        {
          "internalType": "uint256",
          "name": "_decimalB",
          "type": "uint256"
        },
        {
          "internalType": "uint32",
          "name": "_ratioALimit",
          "type": "uint32"
        },
        {
          "internalType": "uint32",
          "name": "_ratioBLimit",
          "type": "uint32"
        }
      ],
      "name": "constraintInputAmountToNotExhaustThePool",
      "outputs": [
        {
          "internalType": "uint256",
          "name": "constraintedA_",
          "type": "uint256"
        }
      ],
      "stateMutability": "pure",
      "type": "function"
    },
    {
      "inputs": [
        {
          "internalType": "uint256",
          "name": "",
          "type": "uint256"
        }
      ],
      "name": "controllers",
      "outputs": [
        {
          "internalType": "address",
          "name": "",
          "type": "address"
        }
      ],
      "stateMutability": "view",
      "type": "function"
    },
    {
      "inputs": [
        {
          "internalType": "address",
          "name": "_tokenIn",
          "type": "address"
        },
        {
          "internalType": "address",
          "name": "_tokenOut",
          "type": "address"
        },
        {
          "internalType": "uint32",
          "name": "_ratioInLimit",
          "type": "uint32"
        },
        {
          "internalType": "uint32",
          "name": "_ratioOutLimit",
          "type": "uint32"
        },
        {
          "internalType": "address",
          "name": "_recipient",
          "type": "address"
        },
        {
          "internalType": "uint256",
          "name": "_desiredAmountIn",
          "type": "uint256"
        },
        {
          "internalType": "uint256",
          "name": "_desiredMinAmountOut",
          "type": "uint256"
        }
      ],
      "name": "gentleSwapExactIn",
      "outputs": [
        {
          "internalType": "uint256",
          "name": "",
          "type": "uint256"
        }
      ],
      "stateMutability": "nonpayable",
      "type": "function"
    },
    {
      "inputs": [],
      "name": "getAllControllers",
      "outputs": [
        {
          "internalType": "address[]",
          "name": "currentControllers",
          "type": "address[]"
        }
      ],
      "stateMutability": "view",
      "type": "function"
    },
    {
      "inputs": [
        {
          "internalType": "address",
          "name": "_tokenIn",
          "type": "address"
        },
        {
          "internalType": "address",
          "name": "_tokenOut",
          "type": "address"
        },
        {
          "internalType": "uint256",
          "name": "_amountIn",
          "type": "uint256"
        }
      ],
      "name": "getBestAmountOut",
      "outputs": [
        {
          "internalType": "bool",
          "name": "isPoolExist_",
          "type": "bool"
        },
        {
          "internalType": "uint256",
          "name": "bestPrice_",
          "type": "uint256"
        }
      ],
      "stateMutability": "view",
      "type": "function"
    },
    {
      "inputs": [
        {
          "internalType": "address",
          "name": "_traderAddress",
          "type": "address"
        }
      ],
      "name": "hasTrader",
      "outputs": [
        {
          "internalType": "bool",
          "name": "",
          "type": "bool"
        }
      ],
      "stateMutability": "view",
      "type": "function"
    },
    {
      "inputs": [
        {
          "internalType": "address[]",
          "name": "_controllers",
          "type": "address[]"
        },
        {
          "internalType": "address",
          "name": "_moduleMap",
          "type": "address"
        },
        {
          "internalType": "address",
          "name": "_internalWallet",
          "type": "address"
        }
      ],
      "name": "initialize",
      "outputs": [],
      "stateMutability": "nonpayable",
      "type": "function"
    },
    {
      "inputs": [],
      "name": "internalWallet",
      "outputs": [
        {
          "internalType": "address",
          "name": "",
          "type": "address"
        }
      ],
      "stateMutability": "view",
      "type": "function"
    },
    {
      "inputs": [
        {
          "internalType": "address",
          "name": "controller",
          "type": "address"
        }
      ],
      "name": "isController",
      "outputs": [
        {
          "internalType": "bool",
          "name": "status",
          "type": "bool"
        }
      ],
      "stateMutability": "view",
      "type": "function"
    },
    {
      "inputs": [],
      "name": "moduleMap",
      "outputs": [
        {
          "internalType": "contract IModuleMap",
          "name": "",
          "type": "address"
        }
      ],
      "stateMutability": "view",
      "type": "function"
    },
    {
      "inputs": [
        {
          "internalType": "address",
          "name": "_traderAddress",
          "type": "address"
        }
      ],
      "name": "removeTrader",
      "outputs": [],
      "stateMutability": "nonpayable",
      "type": "function"
    },
    {
      "inputs": [
        {
          "internalType": "address",
          "name": "_walletAddress",
          "type": "address"
        }
      ],
      "name": "setInternalWallet",
      "outputs": [],
      "stateMutability": "nonpayable",
      "type": "function"
    },
    {
      "inputs": [
        {
          "internalType": "address",
          "name": "_tokenIn",
          "type": "address"
        },
        {
          "internalType": "address",
          "name": "_tokenOut",
          "type": "address"
        },
        {
          "internalType": "address",
          "name": "_recipient",
          "type": "address"
        },
        {
          "internalType": "uint256",
          "name": "_amountIn",
          "type": "uint256"
        },
        {
          "internalType": "uint256",
          "name": "_minAmountOut",
          "type": "uint256"
        }
      ],
      "name": "swapExactIn",
      "outputs": [
        {
          "internalType": "bool",
          "name": "tradeSuccess_",
          "type": "bool"
        }
      ],
      "stateMutability": "nonpayable",
      "type": "function"
    },
    {
      "inputs": [
        {
          "internalType": "address",
          "name": "_tokenIn",
          "type": "address"
        },
        {
          "internalType": "address",
          "name": "_tokenOut",
          "type": "address"
        },
        {
          "internalType": "address",
          "name": "_recipient",
          "type": "address"
        },
        {
          "internalType": "uint256",
          "name": "_amountIn",
          "type": "uint256"
        }
      ],
      "name": "swapExactIn",
      "outputs": [
        {
          "internalType": "bool",
          "name": "tradeSuccess_",
          "type": "bool"
        }
      ],
      "stateMutability": "nonpayable",
      "type": "function"
    }
  ],
  "transactionHash": "0x62b73764838e129bd788de98b0f7eaa864d79018550e7e73c8d0a1a9ffd22954",
  "args": [],
  "solcInputHash": "8691a89ebd8d69f8412923e433444233",
  "bytecode": "0x608060405234801561001057600080fd5b50612d78806100206000396000f3fe608060405234801561001057600080fd5b50600436106100db5760003560e01c80630a1f194f146100e05780630f0a1c6f146100f557806319145798146101245780631e38ef061461014e578063337993cb146101615780635d428e0814610176578063845fe1d0146101895780638badf3b8146101ac57806390482d72146101cd578063a64bc4b4146101e0578063a7fc7a07146101f3578063b429afeb14610206578063c0e7e87014610232578063c343129f14610245578063c4ef281914610258578063dfeeaa7d1461026b578063e94b0dd21461027e575b600080fd5b6100f36100ee366004612512565b610291565b005b60005461010e906201000090046001600160a01b031681565b60405161011b91906128ac565b60405180910390f35b6101376101323660046125f4565b610434565b60408051921515835260208301919091520161011b565b60055461010e906001600160a01b031681565b61016961059b565b60405161011b9190612932565b6100f3610184366004612512565b6105fd565b61019c6101973660046127ba565b610791565b604051901515815260200161011b565b6101bf6101ba366004612634565b610af3565b60405190815260200161011b565b6100f36101db3660046126b2565b610df4565b6101bf6101ee36600461280d565b610ed9565b6100f3610201366004612512565b610f68565b61019c610214366004612512565b6001600160a01b031660009081526001602052604090205460ff1690565b61019c61024036600461259a565b6111a4565b6100f3610253366004612512565b6112da565b61019c61026636600461254a565b611418565b61019c610279366004612512565b611460565b61010e61028c3660046127ba565b61158e565b600080546040516337c61fc560e11b8152620100009091046001600160a01b031691636f8c3f8a916102c6919060040161297f565b60206040518083038186803b1580156102de57600080fd5b505afa1580156102f2573d6000803e3d6000fd5b505050506040513d601f19601f82011682018060405250810190610316919061252e565b6001600160a01b031663f3ae2415336040518263ffffffff1660e01b815260040161034191906128ac565b60206040518083038186803b15801561035957600080fd5b505afa15801561036d573d6000803e3d6000fd5b505050506040513d601f19601f82011682018060405250810190610391919061279a565b6103b65760405162461bcd60e51b81526004016103ad90612a2c565b60405180910390fd5b6103c16003826115b8565b6104255760405162461bcd60e51b815260206004820152602f60248201527f537761704d616e616765723a3a72656d6f76655472616465723a20547261646560448201526e1c881dd85cc81b9bdd081859191959608a1b60648201526084016103ad565b6104306003826115d4565b5050565b60008060005b61044460036115e9565b8160ff16101561059257600061045e600360ff84166115f3565b90506000816001600160a01b031663841bdb9e89896040518363ffffffff1660e01b81526004016104909291906128c0565b60206040518083038186803b1580156104a857600080fd5b505afa1580156104bc573d6000803e3d6000fd5b505050506040513d601f19601f820116820180604052508101906104e0919061279a565b1561057157604051632550332960e11b81526001600160a01b03831690634aa0665290610515908b908b908b9060040161290e565b60206040518083038186803b15801561052d57600080fd5b505afa158015610541573d6000803e3d6000fd5b505050506040513d601f19601f8201168201806040525081019061056591906127d2565b90508461057157600194505b8381111561057d578093505b5050808061058a90612cde565b91505061043a565b50935093915050565b606060028054806020026020016040519081016040528092919081815260200182805480156105f357602002820191906000526020600020905b81546001600160a01b031681526001909101906020018083116105d5575b5050505050905090565b600080546040516337c61fc560e11b8152620100009091046001600160a01b031691636f8c3f8a91610632919060040161297f565b60206040518083038186803b15801561064a57600080fd5b505afa15801561065e573d6000803e3d6000fd5b505050506040513d601f19601f82011682018060405250810190610682919061252e565b6001600160a01b031663f3ae2415336040518263ffffffff1660e01b81526004016106ad91906128ac565b60206040518083038186803b1580156106c557600080fd5b505afa1580156106d9573d6000803e3d6000fd5b505050506040513d601f19601f820116820180604052508101906106fd919061279a565b6107195760405162461bcd60e51b81526004016103ad90612a2c565b6107246003826115b8565b156107865760405162461bcd60e51b815260206004820152602c60248201527f537761704d616e616765723a3a6164645472616465723a20547261646572206160448201526b1b1c9958591e48185919195960a21b60648201526084016103ad565b6104306003826115ff565b3360009081526001602052604081205460ff166107c05760405162461bcd60e51b81526004016103ad90612a7a565b600080546040516337c61fc560e11b8152620100009091046001600160a01b031690636f8c3f8a906107f79060039060040161297f565b60206040518083038186803b15801561080f57600080fd5b505afa158015610823573d6000803e3d6000fd5b505050506040513d601f19601f82011682018060405250810190610847919061252e565b90506000816001600160a01b0316638b9c94896040518163ffffffff1660e01b815260040160206040518083038186803b15801561088457600080fd5b505afa158015610898573d6000803e3d6000fd5b505050506040513d601f19601f820116820180604052508101906108bc919061252e565b90506000826001600160a01b03166344fc9b566040518163ffffffff1660e01b815260040160206040518083038186803b1580156108f957600080fd5b505afa15801561090d573d6000803e3d6000fd5b505050506040513d601f19601f82011682018060405250810190610931919061252e565b90506000826001600160a01b03166370a08231306040518263ffffffff1660e01b815260040161096191906128ac565b60206040518083038186803b15801561097957600080fd5b505afa15801561098d573d6000803e3d6000fd5b505050506040513d601f19601f820116820180604052508101906109b191906127d2565b90506000806109c1858585611614565b915091506109d18286868b61180a565b6109dc85838561196d565b600080546040516337c61fc560e11b81526001600160a01b03808616936349470541938a938a936201000090920490911691636f8c3f8a91610a21919060040161297f565b60206040518083038186803b158015610a3957600080fd5b505afa158015610a4d573d6000803e3d6000fd5b505050506040513d601f19601f82011682018060405250810190610a71919061252e565b87866040518663ffffffff1660e01b8152600401610a939594939291906128da565b602060405180830381600087803b158015610aad57600080fd5b505af1158015610ac1573d6000803e3d6000fd5b505050506040513d601f19601f82011682018060405250810190610ae5919061279a565b96505050505050505b919050565b3360009081526001602052604081205460ff16610b225760405162461bcd60e51b81526004016103ad90612a7a565b600080610b308a8a87611614565b5090506001600160a01b038116610b5357610b4a8a611aa4565b92505050610de9565b60405163354aedbd60e21b815290915060009081906001600160a01b0384169063d52bb6f490610b89908e908e906004016128c0565b604080518083038186803b158015610ba057600080fd5b505afa158015610bb4573d6000803e3d6000fd5b505050506040513d601f19601f82011682018060405250810190610bd891906127ea565b915091506000610cd38784848f6001600160a01b031663313ce5676040518163ffffffff1660e01b815260040160206040518083038186803b158015610c1d57600080fd5b505afa158015610c31573d6000803e3d6000fd5b505050506040513d601f19601f82011682018060405250810190610c55919061286f565b60ff168f6001600160a01b031663313ce5676040518163ffffffff1660e01b815260040160206040518083038186803b158015610c9157600080fd5b505afa158015610ca5573d6000803e3d6000fd5b505050506040513d601f19601f82011682018060405250810190610cc9919061286f565b60ff168f8f610ed9565b905080610cee57610ce38c611aa4565b945050505050610de9565b86811015610d0e5786610d018288612c61565b610d0b9190612b56565b95505b6000610d278b63ffffffff168b63ffffffff1684611b53565b905086811115610d35578096505b610d408d868461196d565b846001600160a01b031663494705418e8e8c868c6040518663ffffffff1660e01b8152600401610d749594939291906128da565b602060405180830381600087803b158015610d8e57600080fd5b505af1158015610da2573d6000803e3d6000fd5b505050506040513d601f19601f82011682018060405250810190610dc6919061279a565b610de25760405162461bcd60e51b81526004016103ad90612b19565b5093505050505b979650505050505050565b600054610100900460ff16610e0f5760005460ff1615610e17565b610e17611b6a565b610e7a5760405162461bcd60e51b815260206004820152602e60248201527f496e697469616c697a61626c653a20636f6e747261637420697320616c72656160448201526d191e481a5b9a5d1a585b1a5e995960921b60648201526084016103ad565b600054610100900460ff16158015610e9c576000805461ffff19166101011790555b610ea68484611b7b565b600580546001600160a01b0319166001600160a01b0384161790558015610ed3576000805461ff00191690555b50505050565b6000600184861115610f0b57610eef8587612c80565b610efa90600a612bb9565b610f049088612c61565b9650610f43565b84861015610f4357610f1d8686612c80565b610f2890600a612bb9565b9050610f348189612c61565b9750610f40818a612c61565b98505b80610f518a8a8a8888611cd0565b610f5b9190612b56565b9998505050505050505050565b600080546040516337c61fc560e11b8152620100009091046001600160a01b031691636f8c3f8a91610f9d919060040161297f565b60206040518083038186803b158015610fb557600080fd5b505afa158015610fc9573d6000803e3d6000fd5b505050506040513d601f19601f82011682018060405250810190610fed919061252e565b6001600160a01b0316632f54bf6e336040518263ffffffff1660e01b815260040161101891906128ac565b60206040518083038186803b15801561103057600080fd5b505afa158015611044573d6000803e3d6000fd5b505050506040513d601f19601f82011682018060405250810190611068919061279a565b6110c75760405162461bcd60e51b815260206004820152602a60248201527f436f6e74726f6c6c65643a3a6f6e6c794f776e65723a2043616c6c6572206973604482015269103737ba1037bbb732b960b11b60648201526084016103ad565b6001600160a01b03811660009081526001602081905260408220805460ff19169091179055805b60025481101561114d576002818154811061111957634e487b7160e01b600052603260045260246000fd5b6000918252602090912001546001600160a01b038481169116141561113d57600191505b61114681612cc3565b90506110ee565b508061043057600280546001810182556000919091527f405787fa12a823e0f2b7631cc41b3ba8828b3321ca811111fa75cd3aa3bb5ace0180546001600160a01b0384166001600160a01b03199091161790555050565b3360009081526001602052604081205460ff166111d35760405162461bcd60e51b81526004016103ad90612a7a565b6000806111e1888887611614565b915091506000848210156111f557846111f7565b815b9050801561121b5761120b89898984611dad565b9350831561121b575050506112d1565b826112278a828961196d565b604051634947054160e01b81526001600160a01b0382169063494705419061125b908d908d908d908d9089906004016128da565b602060405180830381600087803b15801561127557600080fd5b505af1158015611289573d6000803e3d6000fd5b505050506040513d601f19601f820116820180604052508101906112ad919061279a565b9450846112cc5760405162461bcd60e51b81526004016103ad90612b19565b505050505b95945050505050565b600080546040516337c61fc560e11b8152620100009091046001600160a01b031691636f8c3f8a9161130f919060040161297f565b60206040518083038186803b15801561132757600080fd5b505afa15801561133b573d6000803e3d6000fd5b505050506040513d601f19601f8201168201806040525081019061135f919061252e565b6001600160a01b031663f3ae2415336040518263ffffffff1660e01b815260040161138a91906128ac565b60206040518083038186803b1580156113a257600080fd5b505afa1580156113b6573d6000803e3d6000fd5b505050506040513d601f19601f820116820180604052508101906113da919061279a565b6113f65760405162461bcd60e51b81526004016103ad90612a2c565b600580546001600160a01b0319166001600160a01b0392909216919091179055565b3360009081526001602052604081205460ff166114475760405162461bcd60e51b81526004016103ad90612a7a565b6114558585858560006111a4565b90505b949350505050565b600080546040516337c61fc560e11b8152620100009091046001600160a01b031690636f8c3f8a9061149690849060040161297f565b60206040518083038186803b1580156114ae57600080fd5b505afa1580156114c2573d6000803e3d6000fd5b505050506040513d601f19601f820116820180604052508101906114e6919061252e565b6001600160a01b031663f3ae2415336040518263ffffffff1660e01b815260040161151191906128ac565b60206040518083038186803b15801561152957600080fd5b505afa15801561153d573d6000803e3d6000fd5b505050506040513d601f19601f82011682018060405250810190611561919061279a565b61157d5760405162461bcd60e51b81526004016103ad90612a2c565b6115886003836115b8565b92915050565b6002818154811061159e57600080fd5b6000918252602090912001546001600160a01b0316905081565b60006115cd836001600160a01b038416611fdf565b9392505050565b60006115cd836001600160a01b038416611ff7565b6000611588825490565b60006115cd8383612114565b60006115cd836001600160a01b03841661214c565b6000806000805b61162560036115e9565b8160ff16101561180057600061163f600360ff84166115f3565b9050600080826001600160a01b031663841bdb9e8b8b6040518363ffffffff1660e01b81526004016116729291906128c0565b60206040518083038186803b15801561168a57600080fd5b505afa15801561169e573d6000803e3d6000fd5b505050506040513d601f19601f820116820180604052508101906116c2919061279a565b156117cd57604051632550332960e11b81526001600160a01b03841690634aa06652906116f7908d908d908d9060040161290e565b60206040518083038186803b15801561170f57600080fd5b505afa158015611723573d6000803e3d6000fd5b505050506040513d601f19601f8201168201806040525081019061174791906127d2565b60405163332ff05b60e21b81529092506001600160a01b0384169063ccbfc16c9061177a908d908d908d9060040161290e565b60206040518083038186803b15801561179257600080fd5b505afa1580156117a6573d6000803e3d6000fd5b505050506040513d601f19601f820116820180604052508101906117ca91906127d2565b90505b848211156117ec576117e3600360ff86166115f3565b96508194508095505b505050806117f990612cde565b905061161b565b5050935093915050565b6000806000866001600160a01b031663d52bb6f487876040518363ffffffff1660e01b815260040161183d9291906128c0565b604080518083038186803b15801561185457600080fd5b505afa158015611868573d6000803e3d6000fd5b505050506040513d601f19601f8201168201806040525081019061188c91906127ea565b91509150808210156118b657816118a5826103e8612c61565b6118af9190612b56565b92506118d1565b818110156118cb57806118a5836103e8612c61565b6103e892505b8383111561191d576001846118e68186612c80565b6118f1906064612c61565b6118fb9190612b56565b106119185760405162461bcd60e51b81526004016103ad906129da565b611964565b82841115611964576001846119328582612c80565b61193d906064612c61565b6119479190612b56565b106119645760405162461bcd60e51b81526004016103ad906129da565b50505050505050565b6040516370a0823160e01b815283906000906001600160a01b038316906370a082319061199e9030906004016128ac565b60206040518083038186803b1580156119b657600080fd5b505afa1580156119ca573d6000803e3d6000fd5b505050506040513d601f19601f820116820180604052508101906119ee91906127d2565b905082811415611a1157611a0c6001600160a01b0383168585612196565b611a9d565b82811115611a5857611a2d6001600160a01b0383168585612196565b600554611a0c906001600160a01b0316611a478584612c80565b6001600160a01b0385169190612196565b6000611a648285612c80565b90508115611a8057611a806001600160a01b0384168684612196565b600554611a9b906001600160a01b03858116911687846121fe565b505b5050505050565b6040516370a0823160e01b8152600090829082906001600160a01b038316906370a0823190611ad79030906004016128ac565b60206040518083038186803b158015611aef57600080fd5b505afa158015611b03573d6000803e3d6000fd5b505050506040513d601f19601f82011682018060405250810190611b2791906127d2565b90508015611b4957600554611b49906001600160a01b03848116911683612196565b5060009392505050565b600083611b608385612c61565b6114589190612b56565b6000611b753061221f565b15905090565b600054610100900460ff16611ba25760405162461bcd60e51b81526004016103ad90612ace565b6001600160a01b038116611bc85760405162461bcd60e51b81526004016103ad90612a07565b60005b8251811015611c3e5760006001600160a01b0316838281518110611bff57634e487b7160e01b600052603260045260246000fd5b60200260200101516001600160a01b03161415611c2e5760405162461bcd60e51b81526004016103ad90612a07565b611c3781612cc3565b9050611bcb565b5060005b8251811015611cb2576001806000858481518110611c7057634e487b7160e01b600052603260045260246000fd5b6020908102919091018101516001600160a01b03168252810191909152604001600020805460ff1916911515919091179055611cab81612cc3565b9050611c42565b508151611cc6906002906020850190612479565b506104308161222e565b600080611cdd8787612b3e565b611ce78689612c61565b611cf19190612b56565b905063ffffffff8416611d048287612c80565b611d0e9190612c61565b63ffffffff8416611d1f8989612b3e565b611d299190612c61565b11611d3657869150611da3565b60008363ffffffff1686888763ffffffff16611d529190612c61565b611d5c9190612c61565b611d669190612b56565b90506000611d738261227f565b9050878111611d83576000611d8d565b611d8d8882612c80565b9350838911611d9c5788611d9e565b835b935050505b5095945050505050565b6005546000906001600160a01b0316611dc857506000611458565b6005546040516370a0823160e01b8152869186916000916001600160a01b03808516926370a0823192611dff9216906004016128ac565b60206040518083038186803b158015611e1757600080fd5b505afa158015611e2b573d6000803e3d6000fd5b505050506040513d601f19601f82011682018060405250810190611e4f91906127d2565b600554604051636eb1769f60e11b81529192506000916001600160a01b038581169263dd62ed3e92611e89929091169030906004016128c0565b60206040518083038186803b158015611ea157600080fd5b505afa158015611eb5573d6000803e3d6000fd5b505050506040513d601f19601f82011682018060405250810190611ed991906127d2565b9050858210158015611eeb5750858110155b8015611ef75750600086115b15611fd3576005546001600160a01b03888116911614611f2c57600554611f2c906001600160a01b03858116911689896121fe565b6040516370a0823160e01b81526000906001600160a01b038616906370a0823190611f5b9030906004016128ac565b60206040518083038186803b158015611f7357600080fd5b505afa158015611f87573d6000803e3d6000fd5b505050506040513d601f19601f82011682018060405250810190611fab91906127d2565b90508015611fcd57600554611fcd906001600160a01b03878116911683612196565b60019550505b50505050949350505050565b60009081526001919091016020526040902054151590565b6000818152600183016020526040812054801561210a57600061201b600183612c80565b855490915060009061202f90600190612c80565b90508181146120b057600086600001828154811061205d57634e487b7160e01b600052603260045260246000fd5b906000526020600020015490508087600001848154811061208e57634e487b7160e01b600052603260045260246000fd5b6000918252602080832090910192909255918252600188019052604090208390555b85548690806120cf57634e487b7160e01b600052603160045260246000fd5b600190038181906000526020600020016000905590558560010160008681526020019081526020016000206000905560019350505050611588565b6000915050611588565b600082600001828154811061213957634e487b7160e01b600052603260045260246000fd5b9060005260206000200154905092915050565b60006121588383611fdf565b61218e57508154600181810184556000848152602080822090930184905584548482528286019093526040902091909155611588565b506000611588565b6040516001600160a01b0383166024820152604481018290526121f990849063a9059cbb60e01b906064015b60408051601f198184030181529190526020810180516001600160e01b03166001600160e01b0319909316929092179091526122a5565b505050565b610ed3846323b872dd60e01b8585856040516024016121c29392919061290e565b6001600160a01b03163b151590565b600054610100900460ff166122555760405162461bcd60e51b81526004016103ad90612ace565b600080546001600160a01b03909216620100000262010000600160b01b0319909216919091179055565b80600260018201045b8181101561229f5790506002818304820104612288565b50919050565b60006122fa826040518060400160405280602081526020017f5361666545524332303a206c6f772d6c6576656c2063616c6c206661696c6564815250856001600160a01b03166123779092919063ffffffff16565b8051909150156121f95780806020019051810190612318919061279a565b6121f95760405162461bcd60e51b815260206004820152602a60248201527f5361666545524332303a204552433230206f7065726174696f6e20646964206e6044820152691bdd081cdd58d8d9595960b21b60648201526084016103ad565b606061145884846000858561238b8561221f565b6123d75760405162461bcd60e51b815260206004820152601d60248201527f416464726573733a2063616c6c20746f206e6f6e2d636f6e747261637400000060448201526064016103ad565b600080866001600160a01b031685876040516123f39190612890565b60006040518083038185875af1925050503d8060008114612430576040519150601f19603f3d011682016040523d82523d6000602084013e612435565b606091505b5091509150610de98282866060831561244f5750816115cd565b82511561245f5782518084602001fd5b8160405162461bcd60e51b81526004016103ad91906129a7565b8280548282559060005260206000209081019282156124ce579160200282015b828111156124ce57825182546001600160a01b0319166001600160a01b03909116178255602090920191600190910190612499565b506124da9291506124de565b5090565b5b808211156124da57600081556001016124df565b8035610aee81612d2a565b803563ffffffff81168114610aee57600080fd5b600060208284031215612523578081fd5b81356115cd81612d2a565b60006020828403121561253f578081fd5b81516115cd81612d2a565b6000806000806080858703121561255f578283fd5b843561256a81612d2a565b9350602085013561257a81612d2a565b9250604085013561258a81612d2a565b9396929550929360600135925050565b600080600080600060a086880312156125b1578081fd5b85356125bc81612d2a565b945060208601356125cc81612d2a565b935060408601356125dc81612d2a565b94979396509394606081013594506080013592915050565b600080600060608486031215612608578283fd5b833561261381612d2a565b9250602084013561262381612d2a565b929592945050506040919091013590565b600080600080600080600060e0888a03121561264e578182fd5b873561265981612d2a565b9650602088013561266981612d2a565b9550612677604089016124fe565b9450612685606089016124fe565b9350608088013561269581612d2a565b9699959850939692959460a0840135945060c09093013592915050565b6000806000606084860312156126c6578283fd5b83356001600160401b03808211156126dc578485fd5b818601915086601f8301126126ef578485fd5b813560208282111561270357612703612d14565b8160051b604051601f19603f8301168101818110868211171561272857612728612d14565b604052838152828101945085830182870184018c101561274657898afd5b8996505b8487101561276f5761275b816124f3565b86526001969096019594830194830161274a565b50975061277f90508882016124f3565b955050505050612791604085016124f3565b90509250925092565b6000602082840312156127ab578081fd5b815180151581146115cd578182fd5b6000602082840312156127cb578081fd5b5035919050565b6000602082840312156127e3578081fd5b5051919050565b600080604083850312156127fc578182fd5b505080516020909101519092909150565b600080600080600080600060e0888a031215612827578081fd5b873596506020880135955060408801359450606088013593506080880135925061285360a089016124fe565b915061286160c089016124fe565b905092959891949750929550565b600060208284031215612880578081fd5b815160ff811681146115cd578182fd5b600082516128a2818460208701612c97565b9190910192915050565b6001600160a01b0391909116815260200190565b6001600160a01b0392831681529116602082015260400190565b6001600160a01b03958616815293851660208501529190931660408301526060820192909252608081019190915260a00190565b6001600160a01b039384168152919092166020820152604081019190915260600190565b6020808252825182820181905260009190848201906040850190845b818110156129735783516001600160a01b03168352928401929184019160010161294e565b50909695505050505050565b60208101600e83106129a157634e487b7160e01b600052602160045260246000fd5b91905290565b60208152600082518060208401526129c6816040850160208701612c97565b601f01601f19169190910160400192915050565b60208082526013908201527210d95a5b1a5b99d31a5b5a5d14995858da1959606a1b604082015260600190565b6020808252600b908201526a626164206164647265737360a81b604082015260600190565b6020808252602e908201527f436f6e74726f6c6c65643a3a6f6e6c794d616e616765723a2043616c6c65722060408201526d34b9903737ba1036b0b730b3b2b960911b606082015260800190565b60208082526034908201527f436f6e74726f6c6c65643a3a6f6e6c79436f6e74726f6c6c65723a2043616c6c60408201527332b91034b9903737ba1031b7b73a3937b63632b960611b606082015260800190565b6020808252602b908201527f496e697469616c697a61626c653a20636f6e7472616374206973206e6f74206960408201526a6e697469616c697a696e6760a81b606082015260800190565b6020808252600b908201526a1cddd85c0819985a5b195960aa1b604082015260600190565b60008219821115612b5157612b51612cfe565b500190565b600082612b7157634e487b7160e01b81526012600452602481fd5b500490565b600181815b80851115612bb1578160001904821115612b9757612b97612cfe565b80851615612ba457918102915b93841c9390800290612b7b565b509250929050565b60006115cd8383600082612bcf57506001611588565b81612bdc57506000611588565b8160018114612bf25760028114612bfc57612c18565b6001915050611588565b60ff841115612c0d57612c0d612cfe565b50506001821b611588565b5060208310610133831016604e8410600b8410161715612c3b575081810a611588565b612c458383612b76565b8060001904821115612c5957612c59612cfe565b029392505050565b6000816000190483118215151615612c7b57612c7b612cfe565b500290565b600082821015612c9257612c92612cfe565b500390565b60005b83811015612cb2578181015183820152602001612c9a565b83811115610ed35750506000910152565b6000600019821415612cd757612cd7612cfe565b5060010190565b600060ff821660ff811415612cf557612cf5612cfe565b60010192915050565b634e487b7160e01b600052601160045260246000fd5b634e487b7160e01b600052604160045260246000fd5b6001600160a01b0381168114612d3f57600080fd5b5056fea264697066735822122076fa13fa4353544c0a8fd77c961e04237b7f568b0828461841f9d304c870b21964736f6c63430008040033",
  "devdoc": {
    "kind": "dev",
    "methods": {
      "addTrader(address)": {
        "details": "Adds trader which will be used for futher swaps"
      },
      "biosBuyBack(uint256)": {
        "params": {
          "ratioX1000": "BIOS/WETH ratio for front runner protection"
        },
        "returns": {
          "_0": "Bool indicating whether the trade succeeded*"
        }
      },
      "gentleSwapExactIn(address,address,uint32,uint32,address,uint256,uint256)": {
        "details": "Executes swap only for amountIn which will not significantly imbalance the pool and returns this amountIn"
      },
      "getBestAmountOut(address,address,uint256)": {
        "returns": {
          "bestPrice_": "Best amount out from all traders",
          "isPoolExist_": "Can we swap these tokens via added traders?"
        }
      },
      "hasTrader(address)": {
        "details": "If we have sufficient amount of money we will use that money instead of swap via traders",
        "params": {
          "_traderAddress": "Address of the contract implementing IDexTrader interface"
        }
      },
      "removeTrader(address)": {
        "details": "Removes trader so we will be not able to use it for swaps"
      },
      "setInternalWallet(address)": {
        "params": {
          "_walletAddress": "The address of the contract (user) which will be used for internal swaps. Set to Zero address to disable internal"
        }
      },
      "swapExactIn(address,address,address,uint256)": {
        "params": {
          "_amountIn": "The exact amount of the input to swap",
          "_recipient": "The address of the token out recipient",
          "_tokenIn": "The address of the input token",
          "_tokenOut": "The address of the output token"
        },
        "returns": {
          "tradeSuccess_": "Indicates whether the swap succeeded*"
        }
      },
      "swapExactIn(address,address,address,uint256,uint256)": {
        "params": {
          "_amountIn": "The exact amount of the input to swap",
          "_minAmountOut": "The minimum amount of _tokenOut to receive",
          "_recipient": "The address of the token out recipient",
          "_tokenIn": "The address of the input token",
          "_tokenOut": "The address of the output token"
        },
        "returns": {
          "tradeSuccess_": "Indicates whether the swap succeeded*"
        }
      }
    },
    "version": 1
  },
  "userdoc": {
    "kind": "user",
    "methods": {
      "biosBuyBack(uint256)": {
        "notice": "Swaps all WETH held in this contract for BIOS and sends to the kernel"
      }
    },
    "version": 1
  },
  "storageLayout": {
    "storage": [
      {
        "astId": 702,
        "contract": "contracts/core/SwapManager.sol:SwapManager",
        "label": "_initialized",
        "offset": 0,
        "slot": "0",
        "type": "t_bool"
      },
      {
        "astId": 705,
        "contract": "contracts/core/SwapManager.sol:SwapManager",
        "label": "_initializing",
        "offset": 1,
        "slot": "0",
        "type": "t_bool"
      },
      {
        "astId": 15684,
        "contract": "contracts/core/SwapManager.sol:SwapManager",
        "label": "moduleMap",
        "offset": 2,
        "slot": "0",
        "type": "t_contract(IModuleMap)29669"
      },
      {
        "astId": 9016,
        "contract": "contracts/core/SwapManager.sol:SwapManager",
        "label": "_controllers",
        "offset": 0,
        "slot": "1",
        "type": "t_mapping(t_address,t_bool)"
      },
      {
        "astId": 9019,
        "contract": "contracts/core/SwapManager.sol:SwapManager",
        "label": "controllers",
        "offset": 0,
        "slot": "2",
        "type": "t_array(t_address)dyn_storage"
      },
      {
        "astId": 19858,
        "contract": "contracts/core/SwapManager.sol:SwapManager",
        "label": "traders",
        "offset": 0,
        "slot": "3",
        "type": "t_struct(AddressSet)2712_storage"
      },
      {
        "astId": 19860,
        "contract": "contracts/core/SwapManager.sol:SwapManager",
        "label": "internalWallet",
        "offset": 0,
        "slot": "5",
        "type": "t_address"
      }
    ],
    "types": {
      "t_address": {
        "encoding": "inplace",
        "label": "address",
        "numberOfBytes": "20"
      },
      "t_array(t_address)dyn_storage": {
        "base": "t_address",
        "encoding": "dynamic_array",
        "label": "address[]",
        "numberOfBytes": "32"
      },
      "t_array(t_bytes32)dyn_storage": {
        "base": "t_bytes32",
        "encoding": "dynamic_array",
        "label": "bytes32[]",
        "numberOfBytes": "32"
      },
      "t_bool": {
        "encoding": "inplace",
        "label": "bool",
        "numberOfBytes": "1"
      },
      "t_bytes32": {
        "encoding": "inplace",
        "label": "bytes32",
        "numberOfBytes": "32"
      },
      "t_contract(IModuleMap)29669": {
        "encoding": "inplace",
        "label": "contract IModuleMap",
        "numberOfBytes": "20"
      },
      "t_mapping(t_address,t_bool)": {
        "encoding": "mapping",
        "key": "t_address",
        "label": "mapping(address => bool)",
        "numberOfBytes": "32",
        "value": "t_bool"
      },
      "t_mapping(t_bytes32,t_uint256)": {
        "encoding": "mapping",
        "key": "t_bytes32",
        "label": "mapping(bytes32 => uint256)",
        "numberOfBytes": "32",
        "value": "t_uint256"
      },
      "t_struct(AddressSet)2712_storage": {
        "encoding": "inplace",
        "label": "struct EnumerableSetUpgradeable.AddressSet",
        "members": [
          {
            "astId": 2711,
            "contract": "contracts/core/SwapManager.sol:SwapManager",
            "label": "_inner",
            "offset": 0,
            "slot": "0",
            "type": "t_struct(Set)2411_storage"
          }
        ],
        "numberOfBytes": "64"
      },
      "t_struct(Set)2411_storage": {
        "encoding": "inplace",
        "label": "struct EnumerableSetUpgradeable.Set",
        "members": [
          {
            "astId": 2406,
            "contract": "contracts/core/SwapManager.sol:SwapManager",
            "label": "_values",
            "offset": 0,
            "slot": "0",
            "type": "t_array(t_bytes32)dyn_storage"
          },
          {
            "astId": 2410,
            "contract": "contracts/core/SwapManager.sol:SwapManager",
            "label": "_indexes",
            "offset": 0,
            "slot": "1",
            "type": "t_mapping(t_bytes32,t_uint256)"
          }
        ],
        "numberOfBytes": "64"
      },
      "t_uint256": {
        "encoding": "inplace",
        "label": "uint256",
        "numberOfBytes": "32"
      }
    }
  }
}