{
  "address": "0xa7355a19F7accd269E49D81c28dC82EF99377Fa9",
  "abi": [
    {
      "anonymous": false,
      "inputs": [
        {
          "indexed": true,
          "internalType": "address",
          "name": "owner",
          "type": "address"
        },
        {
          "indexed": true,
          "internalType": "address",
          "name": "spender",
          "type": "address"
        },
        {
          "indexed": false,
          "internalType": "uint256",
          "name": "value",
          "type": "uint256"
        }
      ],
      "name": "Approval",
      "type": "event"
    },
    {
      "anonymous": false,
      "inputs": [
        {
          "indexed": true,
          "internalType": "address",
          "name": "from",
          "type": "address"
        },
        {
          "indexed": true,
          "internalType": "address",
          "name": "to",
          "type": "address"
        },
        {
          "indexed": false,
          "internalType": "uint256",
          "name": "value",
          "type": "uint256"
        }
      ],
      "name": "Transfer",
      "type": "event"
    },
    {
      "inputs": [
        {
          "internalType": "address",
          "name": "controller",
          "type": "address"
        }
      ],
      "name": "addController",
      "outputs": [],
      "stateMutability": "nonpayable",
      "type": "function"
    },
    {
      "inputs": [
        {
          "internalType": "uint256",
          "name": "_desiredLiquidity",
          "type": "uint256"
        }
      ],
      "name": "adjustLiquidityAccordingToUnderlyingDebt",
      "outputs": [
        {
          "internalType": "uint256",
          "name": "_underlyingLiquidity",
          "type": "uint256"
        },
        {
          "internalType": "uint256",
          "name": "_syntheticLiquidity",
          "type": "uint256"
        }
      ],
      "stateMutability": "nonpayable",
      "type": "function"
    },
    {
      "inputs": [
        {
          "internalType": "address",
          "name": "owner",
          "type": "address"
        },
        {
          "internalType": "address",
          "name": "spender",
          "type": "address"
        }
      ],
      "name": "allowance",
      "outputs": [
        {
          "internalType": "uint256",
          "name": "",
          "type": "uint256"
        }
      ],
      "stateMutability": "view",
      "type": "function"
    },
    {
      "inputs": [
        {
          "internalType": "address",
          "name": "spender",
          "type": "address"
        },
        {
          "internalType": "uint256",
          "name": "amount",
          "type": "uint256"
        }
      ],
      "name": "approve",
      "outputs": [
        {
          "internalType": "bool",
          "name": "",
          "type": "bool"
        }
      ],
      "stateMutability": "nonpayable",
      "type": "function"
    },
    {
      "inputs": [
        {
          "internalType": "address",
          "name": "account",
          "type": "address"
        }
      ],
      "name": "balanceOf",
      "outputs": [
        {
          "internalType": "uint256",
          "name": "",
          "type": "uint256"
        }
      ],
      "stateMutability": "view",
      "type": "function"
    },
    {
      "inputs": [
        {
          "internalType": "address",
          "name": "_account",
          "type": "address"
        },
        {
          "internalType": "uint256",
          "name": "_amount",
          "type": "uint256"
        }
      ],
      "name": "burn",
      "outputs": [],
      "stateMutability": "nonpayable",
      "type": "function"
    },
    {
      "inputs": [
        {
          "internalType": "uint256",
          "name": "syntheticSpended",
          "type": "uint256"
        },
        {
          "internalType": "uint256",
          "name": "underlyingReceived",
          "type": "uint256"
        }
      ],
      "name": "changePoolDebt",
      "outputs": [],
      "stateMutability": "nonpayable",
      "type": "function"
    },
    {
      "inputs": [
        {
          "internalType": "uint256",
          "name": "",
          "type": "uint256"
        }
      ],
      "name": "controllers",
      "outputs": [
        {
          "internalType": "address",
          "name": "",
          "type": "address"
        }
      ],
      "stateMutability": "view",
      "type": "function"
    },
    {
      "inputs": [],
      "name": "decimals",
      "outputs": [
        {
          "internalType": "uint8",
          "name": "",
          "type": "uint8"
        }
      ],
      "stateMutability": "view",
      "type": "function"
    },
    {
      "inputs": [
        {
          "internalType": "address",
          "name": "spender",
          "type": "address"
        },
        {
          "internalType": "uint256",
          "name": "subtractedValue",
          "type": "uint256"
        }
      ],
      "name": "decreaseAllowance",
      "outputs": [
        {
          "internalType": "bool",
          "name": "",
          "type": "bool"
        }
      ],
      "stateMutability": "nonpayable",
      "type": "function"
    },
    {
      "inputs": [
        {
          "internalType": "uint256",
          "name": "_amount",
          "type": "uint256"
        }
      ],
      "name": "distributeAccordingToStrategiesDebt",
      "outputs": [
        {
          "internalType": "uint256",
          "name": "hold_",
          "type": "uint256"
        },
        {
          "internalType": "uint256",
          "name": "underlyingInToSwap_",
          "type": "uint256"
        }
      ],
      "stateMutability": "nonpayable",
      "type": "function"
    },
    {
      "inputs": [],
      "name": "getAllControllers",
      "outputs": [
        {
          "internalType": "address[]",
          "name": "currentControllers",
          "type": "address[]"
        }
      ],
      "stateMutability": "view",
      "type": "function"
    },
    {
      "inputs": [],
      "name": "getAndDeleteDelayedRedemptionOfSynthetic",
      "outputs": [
        {
          "internalType": "uint256",
          "name": "_amount",
          "type": "uint256"
        }
      ],
      "stateMutability": "nonpayable",
      "type": "function"
    },
    {
      "inputs": [],
      "name": "getAndDeleteStrategiesPoolDebt",
      "outputs": [
        {
          "internalType": "uint256",
          "name": "debt_",
          "type": "uint256"
        }
      ],
      "stateMutability": "nonpayable",
      "type": "function"
    },
    {
      "inputs": [],
      "name": "getDebts",
      "outputs": [
        {
          "internalType": "int256",
          "name": "",
          "type": "int256"
        },
        {
          "internalType": "uint256",
          "name": "",
          "type": "uint256"
        }
      ],
      "stateMutability": "view",
      "type": "function"
    },
    {
      "inputs": [],
      "name": "getHedgeDeployArgs",
      "outputs": [
        {
          "internalType": "address",
          "name": "integration_",
          "type": "address"
        },
        {
          "internalType": "uint32",
          "name": "ammPoolID_",
          "type": "uint32"
        },
        {
          "internalType": "address",
          "name": "syntheticToken_",
          "type": "address"
        }
      ],
      "stateMutability": "view",
      "type": "function"
    },
    {
      "inputs": [],
      "name": "getHedgePercent",
      "outputs": [
        {
          "internalType": "uint128",
          "name": "numerator_",
          "type": "uint128"
        },
        {
          "internalType": "uint128",
          "name": "denominator_",
          "type": "uint128"
        }
      ],
      "stateMutability": "view",
      "type": "function"
    },
    {
      "inputs": [],
      "name": "getPoolLimit",
      "outputs": [
        {
          "internalType": "uint32",
          "name": "underlying_",
          "type": "uint32"
        },
        {
          "internalType": "uint32",
          "name": "synthetic_",
          "type": "uint32"
        }
      ],
      "stateMutability": "view",
      "type": "function"
    },
    {
      "inputs": [
        {
          "internalType": "address",
          "name": "spender",
          "type": "address"
        },
        {
          "internalType": "uint256",
          "name": "addedValue",
          "type": "uint256"
        }
      ],
      "name": "increaseAllowance",
      "outputs": [
        {
          "internalType": "bool",
          "name": "",
          "type": "bool"
        }
      ],
      "stateMutability": "nonpayable",
      "type": "function"
    },
    {
      "inputs": [
        {
          "internalType": "uint256",
          "name": "_amount",
          "type": "uint256"
        }
      ],
      "name": "increaseRedemptionOfSynthetic",
      "outputs": [],
      "stateMutability": "nonpayable",
      "type": "function"
    },
    {
      "inputs": [
        {
          "internalType": "bytes",
          "name": "_data",
          "type": "bytes"
        }
      ],
      "name": "initialize",
      "outputs": [],
      "stateMutability": "nonpayable",
      "type": "function"
    },
    {
      "inputs": [
        {
          "internalType": "address",
          "name": "controller",
          "type": "address"
        }
      ],
      "name": "isController",
      "outputs": [
        {
          "internalType": "bool",
          "name": "status",
          "type": "bool"
        }
      ],
      "stateMutability": "view",
      "type": "function"
    },
    {
      "inputs": [
        {
          "internalType": "address",
          "name": "_recipient",
          "type": "address"
        },
        {
          "internalType": "uint256",
          "name": "_amount",
          "type": "uint256"
        }
      ],
      "name": "migrate",
      "outputs": [],
      "stateMutability": "nonpayable",
      "type": "function"
    },
    {
      "inputs": [
        {
          "internalType": "address",
          "name": "_account",
          "type": "address"
        },
        {
          "internalType": "uint256",
          "name": "_amount",
          "type": "uint256"
        }
      ],
      "name": "mint",
      "outputs": [],
      "stateMutability": "nonpayable",
      "type": "function"
    },
    {
      "inputs": [],
      "name": "moduleMap",
      "outputs": [
        {
          "internalType": "contract IModuleMap",
          "name": "",
          "type": "address"
        }
      ],
      "stateMutability": "view",
      "type": "function"
    },
    {
      "inputs": [],
      "name": "name",
      "outputs": [
        {
          "internalType": "string",
          "name": "",
          "type": "string"
        }
      ],
      "stateMutability": "view",
      "type": "function"
    },
    {
      "inputs": [
        {
          "internalType": "uint32",
          "name": "_newAMMPoolID",
          "type": "uint32"
        }
      ],
      "name": "setAMMPoolID",
      "outputs": [],
      "stateMutability": "nonpayable",
      "type": "function"
    },
    {
      "inputs": [
        {
          "components": [
            {
              "internalType": "uint128",
              "name": "numerator",
              "type": "uint128"
            },
            {
              "internalType": "uint128",
              "name": "denominator",
              "type": "uint128"
            }
          ],
          "internalType": "struct ISyntheticERC20.Float",
          "name": "_value",
          "type": "tuple"
        }
      ],
      "name": "setHedgePercent",
      "outputs": [],
      "stateMutability": "nonpayable",
      "type": "function"
    },
    {
      "inputs": [
        {
          "internalType": "address",
          "name": "_integration",
          "type": "address"
        }
      ],
      "name": "setIntegration",
      "outputs": [],
      "stateMutability": "nonpayable",
      "type": "function"
    },
    {
      "inputs": [
        {
          "components": [
            {
              "internalType": "uint32",
              "name": "underlying",
              "type": "uint32"
            },
            {
              "internalType": "uint32",
              "name": "synthetic",
              "type": "uint32"
            }
          ],
          "internalType": "struct ISyntheticERC20.PoolRatioLimit",
          "name": "_poolRatioLimit",
          "type": "tuple"
        }
      ],
      "name": "setPoolRatioLimit",
      "outputs": [],
      "stateMutability": "nonpayable",
      "type": "function"
    },
    {
      "inputs": [
        {
          "internalType": "address",
          "name": "_integration",
          "type": "address"
        },
        {
          "internalType": "uint32",
          "name": "_ammPoolID",
          "type": "uint32"
        },
        {
          "components": [
            {
              "internalType": "uint32",
              "name": "underlying",
              "type": "uint32"
            },
            {
              "internalType": "uint32",
              "name": "synthetic",
              "type": "uint32"
            }
          ],
          "internalType": "struct ISyntheticERC20.PoolRatioLimit",
          "name": "_poolRatioLimit",
          "type": "tuple"
        }
      ],
      "name": "setupCrvPool",
      "outputs": [],
      "stateMutability": "nonpayable",
      "type": "function"
    },
    {
      "inputs": [],
      "name": "symbol",
      "outputs": [
        {
          "internalType": "string",
          "name": "",
          "type": "string"
        }
      ],
      "stateMutability": "view",
      "type": "function"
    },
    {
      "inputs": [],
      "name": "totalSupply",
      "outputs": [
        {
          "internalType": "uint256",
          "name": "",
          "type": "uint256"
        }
      ],
      "stateMutability": "view",
      "type": "function"
    },
    {
      "inputs": [
        {
          "internalType": "address",
          "name": "to",
          "type": "address"
        },
        {
          "internalType": "uint256",
          "name": "amount",
          "type": "uint256"
        }
      ],
      "name": "transfer",
      "outputs": [
        {
          "internalType": "bool",
          "name": "",
          "type": "bool"
        }
      ],
      "stateMutability": "nonpayable",
      "type": "function"
    },
    {
      "inputs": [
        {
          "internalType": "address",
          "name": "from",
          "type": "address"
        },
        {
          "internalType": "address",
          "name": "to",
          "type": "address"
        },
        {
          "internalType": "uint256",
          "name": "amount",
          "type": "uint256"
        }
      ],
      "name": "transferFrom",
      "outputs": [
        {
          "internalType": "bool",
          "name": "",
          "type": "bool"
        }
      ],
      "stateMutability": "nonpayable",
      "type": "function"
    }
  ],
  "transactionHash": "0x947b4868c332db60c6c6c4a1aac9bf619e192ce535aec29b392335f9e9fd43a2",
  "args": [],
  "solcInputHash": "45afef2d0098b5b4751ca820c0864600",
  "bytecode": "0x608060405234801561001057600080fd5b50612986806100206000396000f3fe608060405234801561001057600080fd5b50600436106101a15760003560e01c806306fdde03146101a6578063095ea7b3146101c45780630f0a1c6f146101e757806318160ddd1461020d57806323b872dd146102235780632a45438714610236578063313ce5671461024b57806332eb76ed1461025a578063337993cb1461028d57806339509351146102a25780633f98a191146102b557806340c10f19146102c8578063439fab91146102db57806352291e1c146102ee5780635749fd5714610301578063610d7ea71461030957806370a0823114610331578063755be92d1461034457806395d89b41146103575780639dc29fac1461035f578063a457c2d714610372578063a7fc7a0714610385578063a9059cbb14610398578063ad68ebf7146103ab578063add63359146103be578063b429afeb146103d1578063c373a6c3146103fd578063c6be05a514610405578063c836ef2e14610418578063c866cd3f14610423578063dabd9a0a14610436578063dd62ed3e14610449578063e94b0dd21461045c578063f7a54c801461046f578063fabe384714610496575b600080fd5b6101ae6104c0565b6040516101bb9190612526565b60405180910390f35b6101d76101d2366004612218565b610552565b60405190151581526020016101bb565b600054610200906201000090046001600160a01b031681565b6040516101bb919061249d565b61021561056c565b6040519081526020016101bb565b6101d76102313660046121d8565b61057c565b610249610244366004612243565b6105a0565b005b604051601281526020016101bb565b606854604080516001600160a01b0383168152600160a01b90920463ffffffff16602083015230908201526060016101bb565b610295610751565b6040516101bb91906124b1565b6101d76102b0366004612218565b6107b2565b6102496102c336600461242f565b6107f1565b6102496102d6366004612218565b61091f565b6102496102e93660046122a8565b6109a3565b6102496102fc366004612168565b610ab2565b610215610bf0565b61031c61031736600461244a565b610c55565b604080519283526020830191909152016101bb565b61021561033f366004612168565b610d15565b61024961035236600461244a565b610d33565b6101ae610dd7565b61024961036d366004612218565b610de6565b6101d7610380366004612218565b610e5a565b610249610393366004612168565b610eec565b6101d76103a6366004612218565b611127565b6102496103b9366004612218565b611135565b6102496103cc366004612483565b61125b565b6101d76103df366004612168565b6001600160a01b031660009081526001602052604090205460ff1690565b61021561139d565b61024961041336600461242f565b6113da565b606a54606d5461031c565b61031c61043136600461244a565b611555565b610249610444366004612462565b611606565b6102156104573660046121a0565b61175c565b61020061046a36600461244a565b611787565b6069546040805163ffffffff8084168252600160201b9093049092166020830152016101bb565b606754604080516001600160801b038084168252600160801b9093049092166020830152016101bb565b6060603880546104cf9061282b565b80601f01602080910402602001604051908101604052809291908181526020018280546104fb9061282b565b80156105485780601f1061051d57610100808354040283529160200191610548565b820191906000526020600020905b81548152906001019060200180831161052b57829003601f168201915b5050505050905090565b6000336105608185856117b1565b60019150505b92915050565b600061057760375490565b905090565b60003361058a8582856118d5565b61059585858561194f565b506001949350505050565b600080546040516337c61fc560e11b8152620100009091046001600160a01b031691636f8c3f8a916105d591906004016124fe565b60206040518083038186803b1580156105ed57600080fd5b505afa158015610601573d6000803e3d6000fd5b505050506040513d601f19601f820116820180604052508101906106259190612184565b6001600160a01b031663f3ae2415336040518263ffffffff1660e01b8152600401610650919061249d565b60206040518083038186803b15801561066857600080fd5b505afa15801561067c573d6000803e3d6000fd5b505050506040513d601f19601f820116820180604052508101906106a09190612288565b6106c55760405162461bcd60e51b81526004016106bc9061259e565b60405180910390fd5b6068805463ffffffff8416600160a01b026001600160c01b03199091166001600160a01b038616171790556106fd6020820182612483565b6069805463ffffffff191663ffffffff929092169190911790556107276040820160208301612483565b6069805463ffffffff92909216600160201b0263ffffffff60201b19909216919091179055505050565b6060600280548060200260200160405190810160405280929190818152602001828054801561054857602002820191906000526020600020905b81546001600160a01b0316815260019091019060200180831161078b575050505050905090565b3360008181526036602090815260408083206001600160a01b038716845290915281205490919061056090829086906107ec908790612727565b6117b1565b600080546040516337c61fc560e11b8152620100009091046001600160a01b031691636f8c3f8a9161082691906004016124fe565b60206040518083038186803b15801561083e57600080fd5b505afa158015610852573d6000803e3d6000fd5b505050506040513d601f19601f820116820180604052508101906108769190612184565b6001600160a01b031663f3ae2415336040518263ffffffff1660e01b81526004016108a1919061249d565b60206040518083038186803b1580156108b957600080fd5b505afa1580156108cd573d6000803e3d6000fd5b505050506040513d601f19601f820116820180604052508101906108f19190612288565b61090d5760405162461bcd60e51b81526004016106bc9061259e565b80606761091a82826128c1565b505050565b3360009081526001602052604090205460ff1661094e5760405162461bcd60e51b81526004016106bc906125ec565b606d548015610999578082111561097c576109728361096d8385612814565b611b0b565b6000606d55505050565b81606d600082825461098e9190612814565b9091555061091a9050565b61091a8383611b0b565b600054610100900460ff166109be5760005460ff16156109c2565b303b155b610a255760405162461bcd60e51b815260206004820152602e60248201527f496e697469616c697a61626c653a20636f6e747261637420697320616c72656160448201526d191e481a5b9a5d1a585b1a5e995960921b60648201526084016106bc565b600054610100900460ff16158015610a47576000805461ffff19166101011790555b600080808080610a5987890189612314565b94509450945094509450610a6d8585611bd8565b610a778383611c09565b80516020909101516001600160801b03908116600160801b0291161760675550508215915061091a9050576000805461ff0019169055505050565b600080546040516337c61fc560e11b8152620100009091046001600160a01b031691636f8c3f8a91610ae791906004016124fe565b60206040518083038186803b158015610aff57600080fd5b505afa158015610b13573d6000803e3d6000fd5b505050506040513d601f19601f82011682018060405250810190610b379190612184565b6001600160a01b031663f3ae2415336040518263ffffffff1660e01b8152600401610b62919061249d565b60206040518083038186803b158015610b7a57600080fd5b505afa158015610b8e573d6000803e3d6000fd5b505050506040513d601f19601f82011682018060405250810190610bb29190612288565b610bce5760405162461bcd60e51b81526004016106bc9061259e565b606880546001600160a01b0319166001600160a01b0392909216919091179055565b3360009081526001602052604081205460ff16610c1f5760405162461bcd60e51b81526004016106bc906125ec565b606b54610c3d90600160801b90046001600160801b0316600261275f565b606b80546001600160801b0390811690915516919050565b33600090815260016020526040812054819060ff16610c865760405162461bcd60e51b81526004016106bc906125ec565b8291508290506000606a541315610cd357610cab83610ca6606a54611d5e565b611d7a565b9150610cb78284612814565b606a6000828254610cc891906127ad565b90915550610d109050565b6000606a541215610d1057610ced83610ca6606a54611d5e565b9050610cf98184612814565b606a6000828254610d0a91906126bb565b90915550505b915091565b6001600160a01b038116600090815260356020526040812054610566565b3360009081526001602052604090205460ff16610d625760405162461bcd60e51b81526004016106bc906125ec565b606b546001600160801b031681811015610d7a578091505b81606c6000828254610d8c9190612727565b9091555050606b8054839190600090610daf9084906001600160801b03166127ec565b92506101000a8154816001600160801b0302191690836001600160801b031602179055505050565b6060603980546104cf9061282b565b3360009081526001602052604090205460ff16610e155760405162461bcd60e51b81526004016106bc906125ec565b6000610e2083610d15565b905080821115610e5057610e348183612814565b606d6000828254610e459190612727565b925050819055508091505b61091a8383611d9d565b3360008181526036602090815260408083206001600160a01b038716845290915281205490919083811015610edf5760405162461bcd60e51b815260206004820152602560248201527f45524332303a2064656372656173656420616c6c6f77616e63652062656c6f77604482015264207a65726f60d81b60648201526084016106bc565b61059582868684036117b1565b600080546040516337c61fc560e11b8152620100009091046001600160a01b031691636f8c3f8a91610f2191906004016124fe565b60206040518083038186803b158015610f3957600080fd5b505afa158015610f4d573d6000803e3d6000fd5b505050506040513d601f19601f82011682018060405250810190610f719190612184565b6001600160a01b0316632f54bf6e336040518263ffffffff1660e01b8152600401610f9c919061249d565b60206040518083038186803b158015610fb457600080fd5b505afa158015610fc8573d6000803e3d6000fd5b505050506040513d601f19601f82011682018060405250810190610fec9190612288565b61104b5760405162461bcd60e51b815260206004820152602a60248201527f436f6e74726f6c6c65643a3a6f6e6c794f776e65723a2043616c6c6572206973604482015269103737ba1037bbb732b960b11b60648201526084016106bc565b6001600160a01b03811660009081526001602081905260408220805460ff19169091179055805b6002548110156110d1576002818154811061109d57634e487b7160e01b600052603260045260246000fd5b6000918252602090912001546001600160a01b03848116911614156110c157600191505b6110ca81612860565b9050611072565b508061112357600280546001810182556000919091527f405787fa12a823e0f2b7631cc41b3ba8828b3321ca811111fa75cd3aa3bb5ace0180546001600160a01b0319166001600160a01b0384161790555b5050565b60003361056081858561194f565b600080546040516337c61fc560e11b8152620100009091046001600160a01b031691636f8c3f8a9161116a91906004016124fe565b60206040518083038186803b15801561118257600080fd5b505afa158015611196573d6000803e3d6000fd5b505050506040513d601f19601f820116820180604052508101906111ba9190612184565b6001600160a01b031663f3ae2415336040518263ffffffff1660e01b81526004016111e5919061249d565b60206040518083038186803b1580156111fd57600080fd5b505afa158015611211573d6000803e3d6000fd5b505050506040513d601f19601f820116820180604052508101906112359190612288565b6112515760405162461bcd60e51b81526004016106bc9061259e565b6111238282611b0b565b600080546040516337c61fc560e11b8152620100009091046001600160a01b031691636f8c3f8a9161129091906004016124fe565b60206040518083038186803b1580156112a857600080fd5b505afa1580156112bc573d6000803e3d6000fd5b505050506040513d601f19601f820116820180604052508101906112e09190612184565b6001600160a01b031663f3ae2415336040518263ffffffff1660e01b815260040161130b919061249d565b60206040518083038186803b15801561132357600080fd5b505afa158015611337573d6000803e3d6000fd5b505050506040513d601f19601f8201168201806040525081019061135b9190612288565b6113775760405162461bcd60e51b81526004016106bc9061259e565b6068805463ffffffff909216600160a01b0263ffffffff60a01b19909216919091179055565b3360009081526001602052604081205460ff166113cc5760405162461bcd60e51b81526004016106bc906125ec565b606c549050606c6000905590565b600080546040516337c61fc560e11b8152620100009091046001600160a01b031691636f8c3f8a9161140f91906004016124fe565b60206040518083038186803b15801561142757600080fd5b505afa15801561143b573d6000803e3d6000fd5b505050506040513d601f19601f8201168201806040525081019061145f9190612184565b6001600160a01b031663f3ae2415336040518263ffffffff1660e01b815260040161148a919061249d565b60206040518083038186803b1580156114a257600080fd5b505afa1580156114b6573d6000803e3d6000fd5b505050506040513d601f19601f820116820180604052508101906114da9190612288565b6114f65760405162461bcd60e51b81526004016106bc9061259e565b6115036020820182612483565b6069805463ffffffff191663ffffffff9290921691909117905561152d6040820160208301612483565b6069805463ffffffff92909216600160201b0263ffffffff60201b1990921691909117905550565b33600090815260016020526040812054819060ff166115865760405162461bcd60e51b81526004016106bc906125ec565b606b548392506001600160801b031615610d1057606b546115b19084906001600160801b0316611d7a565b91506115bd8284612814565b606b805491925082916000906115dd9084906001600160801b03166127ec565b92506101000a8154816001600160801b0302191690836001600160801b03160217905550915091565b3360009081526001602052604090205460ff166116355760405162461bcd60e51b81526004016106bc906125ec565b80821115611663576116478183612814565b606a600082825461165891906126bb565b9091555061168c9050565b8082101561168c576116758282612814565b606a600082825461168691906127ad565b90915550505b6067546000906001600160801b03600160801b82048116916116af91168461278e565b6116b9919061273f565b905060006116c78284612814565b606b805491925082916000906116e79084906001600160801b03166126fc565b92506101000a8154816001600160801b0302191690836001600160801b0316021790555081606b60000160108282829054906101000a90046001600160801b031661173291906126fc565b92506101000a8154816001600160801b0302191690836001600160801b0316021790555050505050565b6001600160a01b03918216600090815260366020908152604080832093909416825291909152205490565b6002818154811061179757600080fd5b6000918252602090912001546001600160a01b0316905081565b6001600160a01b0383166118135760405162461bcd60e51b8152602060048201526024808201527f45524332303a20617070726f76652066726f6d20746865207a65726f206164646044820152637265737360e01b60648201526084016106bc565b6001600160a01b0382166118745760405162461bcd60e51b815260206004820152602260248201527f45524332303a20617070726f766520746f20746865207a65726f206164647265604482015261737360f01b60648201526084016106bc565b6001600160a01b0383811660008181526036602090815260408083209487168084529482529182902085905590518481527f8c5be1e5ebec7d5bd14f71427d1e84f3dd0314c0f7b2291e5b200ac8c7c3b925910160405180910390a3505050565b60006118e1848461175c565b90506000198114611949578181101561193c5760405162461bcd60e51b815260206004820152601d60248201527f45524332303a20696e73756666696369656e7420616c6c6f77616e636500000060448201526064016106bc565b61194984848484036117b1565b50505050565b6001600160a01b0383166119b35760405162461bcd60e51b815260206004820152602560248201527f45524332303a207472616e736665722066726f6d20746865207a65726f206164604482015264647265737360d81b60648201526084016106bc565b6001600160a01b038216611a155760405162461bcd60e51b815260206004820152602360248201527f45524332303a207472616e7366657220746f20746865207a65726f206164647260448201526265737360e81b60648201526084016106bc565b6001600160a01b03831660009081526035602052604090205481811015611a8d5760405162461bcd60e51b815260206004820152602660248201527f45524332303a207472616e7366657220616d6f756e7420657863656564732062604482015265616c616e636560d01b60648201526084016106bc565b6001600160a01b03808516600090815260356020526040808220858503905591851681529081208054849290611ac4908490612727565b92505081905550826001600160a01b0316846001600160a01b031660008051602061293183398151915284604051611afe91815260200190565b60405180910390a3611949565b6001600160a01b038216611b615760405162461bcd60e51b815260206004820152601f60248201527f45524332303a206d696e7420746f20746865207a65726f20616464726573730060448201526064016106bc565b8060376000828254611b739190612727565b90915550506001600160a01b03821660009081526035602052604081208054839290611ba0908490612727565b90915550506040518181526001600160a01b038316906000906000805160206129318339815191529060200160405180910390a35050565b600054610100900460ff16611bff5760405162461bcd60e51b81526004016106bc90612640565b6111238282611ed9565b600054610100900460ff16611c305760405162461bcd60e51b81526004016106bc90612640565b6001600160a01b038116611c565760405162461bcd60e51b81526004016106bc90612579565b60005b8251811015611ccc5760006001600160a01b0316838281518110611c8d57634e487b7160e01b600052603260045260246000fd5b60200260200101516001600160a01b03161415611cbc5760405162461bcd60e51b81526004016106bc90612579565b611cc581612860565b9050611c59565b5060005b8251811015611d40576001806000858481518110611cfe57634e487b7160e01b600052603260045260246000fd5b6020908102919091018101516001600160a01b03168252810191909152604001600020805460ff1916911515919091179055611d3981612860565b9050611cd0565b508151611d54906002906020850190611f78565b5061112381611f27565b600080821215611d7657611d718261287b565b610566565b5090565b600082821115611d8c57506000610566565b611d968284612814565b9392505050565b6001600160a01b038216611dfd5760405162461bcd60e51b815260206004820152602160248201527f45524332303a206275726e2066726f6d20746865207a65726f206164647265736044820152607360f81b60648201526084016106bc565b6001600160a01b03821660009081526035602052604090205481811015611e715760405162461bcd60e51b815260206004820152602260248201527f45524332303a206275726e20616d6f756e7420657863656564732062616c616e604482015261636560f01b60648201526084016106bc565b6001600160a01b0383166000908152603560205260408120838303905560378054849290611ea0908490612814565b90915550506040518281526000906001600160a01b038516906000805160206129318339815191529060200160405180910390a3505050565b600054610100900460ff16611f005760405162461bcd60e51b81526004016106bc90612640565b8151611f13906038906020850190611fd9565b50805161091a906039906020840190611fd9565b600054610100900460ff16611f4e5760405162461bcd60e51b81526004016106bc90612640565b600080546001600160a01b03909216620100000262010000600160b01b0319909216919091179055565b828054828255906000526020600020908101928215611fcd579160200282015b82811115611fcd57825182546001600160a01b0319166001600160a01b03909116178255602090920191600190910190611f98565b50611d7692915061204d565b828054611fe59061282b565b90600052602060002090601f0160209004810192826120075760008555611fcd565b82601f1061202057805160ff1916838001178555611fcd565b82800160010185558215611fcd579182015b82811115611fcd578251825591602001919060010190612032565b5b80821115611d76576000815560010161204e565b803561206d81612903565b919050565b600082601f830112612082578081fd5b81356001600160401b0381111561209b5761209b6128ab565b6120ae601f8201601f191660200161268b565b8181528460208386010111156120c2578283fd5b816020850160208301379081016020019190915292915050565b6000604082840312156120ed578081fd5b50919050565b600060408284031215612104578081fd5b604080519081016001600160401b0381118282101715612126576121266128ab565b60405290508082356121378161291b565b815260208301356121478161291b565b6020919091015292915050565b803563ffffffff8116811461206d57600080fd5b600060208284031215612179578081fd5b8135611d9681612903565b600060208284031215612195578081fd5b8151611d9681612903565b600080604083850312156121b2578081fd5b82356121bd81612903565b915060208301356121cd81612903565b809150509250929050565b6000806000606084860312156121ec578081fd5b83356121f781612903565b9250602084013561220781612903565b929592945050506040919091013590565b6000806040838503121561222a578182fd5b823561223581612903565b946020939093013593505050565b600080600060808486031215612257578283fd5b833561226281612903565b925061227060208501612154565b915061227f85604086016120dc565b90509250925092565b600060208284031215612299578081fd5b81518015158114611d96578182fd5b600080602083850312156122ba578182fd5b82356001600160401b03808211156122d0578384fd5b818501915085601f8301126122e3578384fd5b8135818111156122f1578485fd5b866020828501011115612302578485fd5b60209290920196919550909350505050565b600080600080600060c0868803121561232b578081fd5b85356001600160401b0380821115612341578283fd5b61234d89838a01612072565b9650602091508188013581811115612363578384fd5b61236f8a828b01612072565b965050604088013581811115612383578384fd5b8801601f81018a13612393578384fd5b8035828111156123a5576123a56128ab565b8060051b92506123b684840161268b565b8181528481019083860185850187018e10156123d0578788fd5b8795505b838610156123fe57803594506123e985612903565b848352600195909501949186019186016123d4565b5080985050505050505061241460608701612062565b915061242387608088016120f3565b90509295509295909350565b600060408284031215612440578081fd5b611d9683836120dc565b60006020828403121561245b578081fd5b5035919050565b60008060408385031215612474578182fd5b50508035926020909101359150565b600060208284031215612494578081fd5b611d9682612154565b6001600160a01b0391909116815260200190565b6020808252825182820181905260009190848201906040850190845b818110156124f25783516001600160a01b0316835292840192918401916001016124cd565b50909695505050505050565b60208101600e831061252057634e487b7160e01b600052602160045260246000fd5b91905290565b6000602080835283518082850152825b8181101561255257858101830151858201604001528201612536565b818111156125635783604083870101525b50601f01601f1916929092016040019392505050565b6020808252600b908201526a626164206164647265737360a81b604082015260600190565b6020808252602e908201527f436f6e74726f6c6c65643a3a6f6e6c794d616e616765723a2043616c6c65722060408201526d34b9903737ba1036b0b730b3b2b960911b606082015260800190565b60208082526034908201527f436f6e74726f6c6c65643a3a6f6e6c79436f6e74726f6c6c65723a2043616c6c60408201527332b91034b9903737ba1031b7b73a3937b63632b960611b606082015260800190565b6020808252602b908201527f496e697469616c697a61626c653a20636f6e7472616374206973206e6f74206960408201526a6e697469616c697a696e6760a81b606082015260800190565b604051601f8201601f191681016001600160401b03811182821017156126b3576126b36128ab565b604052919050565b600080821280156001600160ff1b03849003851316156126dd576126dd612895565b600160ff1b83900384128116156126f6576126f6612895565b50500190565b60006001600160801b0382811684821680830382111561271e5761271e612895565b01949350505050565b6000821982111561273a5761273a612895565b500190565b60008261275a57634e487b7160e01b81526012600452602481fd5b500490565b60006001600160801b038281168482168115158284048211161561278557612785612895565b02949350505050565b60008160001904831182151516156127a8576127a8612895565b500290565b60008083128015600160ff1b8501841216156127cb576127cb612895565b6001600160ff1b03840183138116156127e6576127e6612895565b50500390565b60006001600160801b038381169083168181101561280c5761280c612895565b039392505050565b60008282101561282657612826612895565b500390565b600181811c9082168061283f57607f821691505b602082108114156120ed57634e487b7160e01b600052602260045260246000fd5b600060001982141561287457612874612895565b5060010190565b6000600160ff1b82141561289157612891612895565b0390565b634e487b7160e01b600052601160045260246000fd5b634e487b7160e01b600052604160045260246000fd5b81356128cc8161291b565b81546001600160801b03199081166001600160801b0392909216918217835560208401356128f98161291b565b60801b1617905550565b6001600160a01b038116811461291857600080fd5b50565b6001600160801b038116811461291857600080fdfeddf252ad1be2c89b69c2b068fc378daa952ba7f163c4a11628f55a4df523b3efa2646970667358221220c650695193d1145b06bb7c0a1960a3c8bf2e3758224067e2116b862280f2725f64736f6c63430008040033",
  "devdoc": {
    "details": "This contract allows YieldManager and UserPositions to sustain synthetic and undelying flow presented below: Conventions: x - hedge percent, y = 1 - x, z = 1 + x, n/m  n [underlying]/ m [synthetic] n/m  account123 means that account123 has n undelying and m synthetic at it's balance  User calls enterStrategy: x/x goes to hedge pool, y/0 goes to actual strategy, 0/y goes to kernel, -1/0 goes to user     BALANCES: x/x  hedge pool, y/0  actual strategy, 0/y  kernel, -1/0  user ...  User calls withdraw, kernel has no drifting money: swap synthetic for underlying via hedge pool: -1/1 goes to hedge pool, 0/0 goes to actual strategy, 0/-1 goes to kernel, 1/0 goes to user     BALANCES: -y/z  hedge pool, y/0  actual strategy, 0/-x  kernel, 0/0  user  Admin calls YieldManager::deploy(), part 1: withdraw y/0 from the actual strategy and swap underlying for synthetic via hedge pool: y/-y goes to hedge pool, -y/0 goes to actual strategy, 0/y goes to kernel     BALANCES: 0/2  hedge pool*x, 0/0  actual strategy, 0/y-x  kernel  Admin calls YieldManager::deploy(), part 2: withdraw 0/2*x from the hedge pool, 0/2*x goes to kernel     BALANCES: 0/0  hedge pool, 0/1  kernel*",
    "kind": "dev",
    "methods": {
      "adjustLiquidityAccordingToUnderlyingDebt(uint256)": {
        "details": "When we execute UserPositions._findMoney -> SwapManager.gentleSwapExactIn for x synETH: 1) If received x ETH: do not change debt 2) Else if we received x + y ETH: debt -= y 3) Else if we received x - y ETH: debt += y In order to pay this debt before deploy to hedgeIntegration we should adjust deposit amount For example we want to provide z liquidity to hedge pool and we have y underlying debt (z > y): 1) If y == 0:          underlyingDeposit = z          syntheticDeposit = z 2) Else if y > 0:          underlyingDeposit = z - y          syntheticDeposit = z 3) Else if y < 0:          underlyingDeposit = z          syntheticDeposit = z - y*"
      },
      "allowance(address,address)": {
        "details": "See {IERC20-allowance}."
      },
      "approve(address,uint256)": {
        "details": "See {IERC20-approve}. NOTE: If `amount` is the maximum `uint256`, the allowance is not updated on `transferFrom`. This is semantically equivalent to an infinite approval. Requirements: - `spender` cannot be the zero address."
      },
      "changePoolDebt(uint256,uint256)": {
        "details": "After using hedge pool for deploy we will earn 2 debts: 1) Underlying: y = swap(synthetic, underlying, x), y != x 2) StrategiesDebt:     a) SD.swapBackSynthetic: underlying amount holded by actual strategy,         we have to withdraw that amount from integrations and swap it back for synthetic     b) SD.withdrawSynthetic: synthetic amount deposited earlier to the synthetic pool as \"hedge percent\",         we have to withdraw it from the pool*"
      },
      "decimals()": {
        "details": "Returns the number of decimals used to get its user representation. For example, if `decimals` equals `2`, a balance of `505` tokens should be displayed to a user as `5.05` (`505 / 10 ** 2`). Tokens usually opt for a value of 18, imitating the relationship between Ether and Wei. This is the value {ERC20} uses, unless this function is overridden; NOTE: This information is only used for _display_ purposes: it in no way affects any of the arithmetic of the contract, including {IERC20-balanceOf} and {IERC20-transfer}."
      },
      "decreaseAllowance(address,uint256)": {
        "details": "Atomically decreases the allowance granted to `spender` by the caller. This is an alternative to {approve} that can be used as a mitigation for problems described in {IERC20-approve}. Emits an {Approval} event indicating the updated allowance. Requirements: - `spender` cannot be the zero address. - `spender` must have allowance for the caller of at least `subtractedValue`."
      },
      "distributeAccordingToStrategiesDebt(uint256)": {
        "details": "When we perform negative deploy we have to pay our debts to synthetic pool if have any"
      },
      "getAndDeleteDelayedRedemptionOfSynthetic()": {
        "details": "After perfoming delayed swap in YieldManager::deploy() function (check this.increaseRedemptionOfSynthetic description)"
      },
      "getAndDeleteStrategiesPoolDebt()": {
        "details": "Conventions: x - hedge percent, y = 1 - x, z = 1 + x, n/m  (n [underlying]/ m [synthetic]) n/m  account123 means that account123 has n undelying and m synthetic at it's balance  User calls enterStrategy: x/x goes to hedge pool, y/0 goes to actual strategy, 0/y goes to kernel, -1/0 goes to user     BALANCES: x/x  hedge pool, y/0  actual strategy, 0/y  kernel, -1/0  user ...  User calls withdraw, kernel has no drifting money: swap synthetic for underlying via hedge pool: -1/1 goes to hedge pool, 0/0 goes to actual strategy, 0/-1 goes to kernel, 1/0 goes to user     BALANCES: -y/z  hedge pool, y/0  actual strategy, 0/-x  kernel, 0/0  user  Admin calls YieldManager::deploy(), part 1: withdraw y/0 from the actual strategy and swap underlying for synthetic via hedge pool: y/-y goes to hedge pool, -y/0 goes to actual strategy, 0/y goes to kernel     BALANCES: 0/2  hedge pool*x, 0/0  actual strategy, 0/y-x  kernel  Admin calls YieldManager::deploy(), part 2: withdraw 0/2*x from the hedge pool, 0/2*x goes to kernel     BALANCES: 0/0  hedge pool, 0/1  kernel 0/1 kernel will hold until next enterStrategy in order to don't do unnecessary burn(kernel, x), mint(kernel, x) We increase strategiesDebt.withdrawSynthetic by x, but at the last step pool will has 0/2*x, that is why we multiplystrategiesDebt.withdrawSynthetic by 2 below*"
      },
      "getHedgeDeployArgs()": {
        "details": "Get info about hedgeIntegration for deploy (check YieldManager.deploy)"
      },
      "getPoolLimit()": {
        "details": "Get info about limit ratio for synthetic pool (check UserPositions._findMoney) Ratio must take decimals into account, so if desired pool ratio is x:y and tokens decimals is x:18 and y:6 then poolRatioLimit should be x*1e18:y*1e6*"
      },
      "increaseAllowance(address,uint256)": {
        "details": "Atomically increases the allowance granted to `spender` by the caller. This is an alternative to {approve} that can be used as a mitigation for problems described in {IERC20-approve}. Emits an {Approval} event indicating the updated allowance. Requirements: - `spender` cannot be the zero address."
      },
      "increaseRedemptionOfSynthetic(uint256)": {
        "details": "When we use hedge pool when user withdraws his funds, we earn strategies debt and negative deployAmount This debt can be paid two ways: 1) YieldManager::deploy(): move debt from actual strategy to hedge pool 2) Another user enters any strategy and his deposit can be used to pay this debt Problem: in the 2 option we will increase strategy and therefore will rid of negative deployAmount, without paying debt (due to absence of negative deployAmount we can't relay on 1 option), so user have to pay this debt and swap undelying for synthetic, but in order to make enterStrategy function cheaper we will delay this swap until next deploy function*"
      },
      "name()": {
        "details": "Returns the name of the token."
      },
      "setPoolRatioLimit((uint32,uint32))": {
        "details": "Ratio must take decimals into account, so if desired pool ratio is x:y and tokens decimals is x:18 and y:6 then poolRatioLimit should be x/1e18:y/1e6*"
      },
      "symbol()": {
        "details": "Returns the symbol of the token, usually a shorter version of the name."
      },
      "transfer(address,uint256)": {
        "details": "See {IERC20-transfer}. Requirements: - `to` cannot be the zero address. - the caller must have a balance of at least `amount`."
      },
      "transferFrom(address,address,uint256)": {
        "details": "See {IERC20-transferFrom}. Emits an {Approval} event indicating the updated allowance. This is not required by the EIP. See the note at the beginning of {ERC20}. NOTE: Does not update the allowance if the current allowance is the maximum `uint256`. Requirements: - `from` and `to` cannot be the zero address. - `from` must have a balance of at least `amount`. - the caller must have allowance for ``from``'s tokens of at least `amount`."
      }
    },
    "title": "ERC20 + additional debt accounting for hedge pool",
    "version": 1
  },
  "userdoc": {
    "kind": "user",
    "methods": {
      "migrate(address,uint256)": {
        "notice": "Migration*"
      },
      "mint(address,uint256)": {
        "notice": "Default ERC20*"
      },
      "setupCrvPool(address,uint32,(uint32,uint32))": {
        "notice": "Admin functions*"
      }
    },
    "notice": "Synthetic pool used to get a credit for user withdrawal",
    "version": 1
  },
  "storageLayout": {
    "storage": [
      {
        "astId": 702,
        "contract": "contracts/clones/SyntheticERC20.sol:SyntheticERC20",
        "label": "_initialized",
        "offset": 0,
        "slot": "0",
        "type": "t_bool"
      },
      {
        "astId": 705,
        "contract": "contracts/clones/SyntheticERC20.sol:SyntheticERC20",
        "label": "_initializing",
        "offset": 1,
        "slot": "0",
        "type": "t_bool"
      },
      {
        "astId": 15684,
        "contract": "contracts/clones/SyntheticERC20.sol:SyntheticERC20",
        "label": "moduleMap",
        "offset": 2,
        "slot": "0",
        "type": "t_contract(IModuleMap)29669"
      },
      {
        "astId": 9016,
        "contract": "contracts/clones/SyntheticERC20.sol:SyntheticERC20",
        "label": "_controllers",
        "offset": 0,
        "slot": "1",
        "type": "t_mapping(t_address,t_bool)"
      },
      {
        "astId": 9019,
        "contract": "contracts/clones/SyntheticERC20.sol:SyntheticERC20",
        "label": "controllers",
        "offset": 0,
        "slot": "2",
        "type": "t_array(t_address)dyn_storage"
      },
      {
        "astId": 2052,
        "contract": "contracts/clones/SyntheticERC20.sol:SyntheticERC20",
        "label": "__gap",
        "offset": 0,
        "slot": "3",
        "type": "t_array(t_uint256)50_storage"
      },
      {
        "astId": 847,
        "contract": "contracts/clones/SyntheticERC20.sol:SyntheticERC20",
        "label": "_balances",
        "offset": 0,
        "slot": "53",
        "type": "t_mapping(t_address,t_uint256)"
      },
      {
        "astId": 853,
        "contract": "contracts/clones/SyntheticERC20.sol:SyntheticERC20",
        "label": "_allowances",
        "offset": 0,
        "slot": "54",
        "type": "t_mapping(t_address,t_mapping(t_address,t_uint256))"
      },
      {
        "astId": 855,
        "contract": "contracts/clones/SyntheticERC20.sol:SyntheticERC20",
        "label": "_totalSupply",
        "offset": 0,
        "slot": "55",
        "type": "t_uint256"
      },
      {
        "astId": 857,
        "contract": "contracts/clones/SyntheticERC20.sol:SyntheticERC20",
        "label": "_name",
        "offset": 0,
        "slot": "56",
        "type": "t_string_storage"
      },
      {
        "astId": 859,
        "contract": "contracts/clones/SyntheticERC20.sol:SyntheticERC20",
        "label": "_symbol",
        "offset": 0,
        "slot": "57",
        "type": "t_string_storage"
      },
      {
        "astId": 1440,
        "contract": "contracts/clones/SyntheticERC20.sol:SyntheticERC20",
        "label": "__gap",
        "offset": 0,
        "slot": "58",
        "type": "t_array(t_uint256)45_storage"
      },
      {
        "astId": 5886,
        "contract": "contracts/clones/SyntheticERC20.sol:SyntheticERC20",
        "label": "hedgePercent",
        "offset": 0,
        "slot": "103",
        "type": "t_struct(Float)32475_storage"
      },
      {
        "astId": 5888,
        "contract": "contracts/clones/SyntheticERC20.sol:SyntheticERC20",
        "label": "hedgeIntegration",
        "offset": 0,
        "slot": "104",
        "type": "t_address"
      },
      {
        "astId": 5890,
        "contract": "contracts/clones/SyntheticERC20.sol:SyntheticERC20",
        "label": "ammPoolID",
        "offset": 20,
        "slot": "104",
        "type": "t_uint32"
      },
      {
        "astId": 5893,
        "contract": "contracts/clones/SyntheticERC20.sol:SyntheticERC20",
        "label": "poolRatioLimit",
        "offset": 0,
        "slot": "105",
        "type": "t_struct(PoolRatioLimit)32470_storage"
      },
      {
        "astId": 5895,
        "contract": "contracts/clones/SyntheticERC20.sol:SyntheticERC20",
        "label": "underlyingDebt",
        "offset": 0,
        "slot": "106",
        "type": "t_int256"
      },
      {
        "astId": 5898,
        "contract": "contracts/clones/SyntheticERC20.sol:SyntheticERC20",
        "label": "strategiesDebt",
        "offset": 0,
        "slot": "107",
        "type": "t_struct(StrategiesDebt)32480_storage"
      },
      {
        "astId": 5900,
        "contract": "contracts/clones/SyntheticERC20.sol:SyntheticERC20",
        "label": "delayedRedemptionOfSynthetic",
        "offset": 0,
        "slot": "108",
        "type": "t_uint256"
      },
      {
        "astId": 5902,
        "contract": "contracts/clones/SyntheticERC20.sol:SyntheticERC20",
        "label": "kernelBurnDebt",
        "offset": 0,
        "slot": "109",
        "type": "t_uint256"
      }
    ],
    "types": {
      "t_address": {
        "encoding": "inplace",
        "label": "address",
        "numberOfBytes": "20"
      },
      "t_array(t_address)dyn_storage": {
        "base": "t_address",
        "encoding": "dynamic_array",
        "label": "address[]",
        "numberOfBytes": "32"
      },
      "t_array(t_uint256)45_storage": {
        "base": "t_uint256",
        "encoding": "inplace",
        "label": "uint256[45]",
        "numberOfBytes": "1440"
      },
      "t_array(t_uint256)50_storage": {
        "base": "t_uint256",
        "encoding": "inplace",
        "label": "uint256[50]",
        "numberOfBytes": "1600"
      },
      "t_bool": {
        "encoding": "inplace",
        "label": "bool",
        "numberOfBytes": "1"
      },
      "t_contract(IModuleMap)29669": {
        "encoding": "inplace",
        "label": "contract IModuleMap",
        "numberOfBytes": "20"
      },
      "t_int256": {
        "encoding": "inplace",
        "label": "int256",
        "numberOfBytes": "32"
      },
      "t_mapping(t_address,t_bool)": {
        "encoding": "mapping",
        "key": "t_address",
        "label": "mapping(address => bool)",
        "numberOfBytes": "32",
        "value": "t_bool"
      },
      "t_mapping(t_address,t_mapping(t_address,t_uint256))": {
        "encoding": "mapping",
        "key": "t_address",
        "label": "mapping(address => mapping(address => uint256))",
        "numberOfBytes": "32",
        "value": "t_mapping(t_address,t_uint256)"
      },
      "t_mapping(t_address,t_uint256)": {
        "encoding": "mapping",
        "key": "t_address",
        "label": "mapping(address => uint256)",
        "numberOfBytes": "32",
        "value": "t_uint256"
      },
      "t_string_storage": {
        "encoding": "bytes",
        "label": "string",
        "numberOfBytes": "32"
      },
      "t_struct(Float)32475_storage": {
        "encoding": "inplace",
        "label": "struct ISyntheticERC20.Float",
        "members": [
          {
            "astId": 32472,
            "contract": "contracts/clones/SyntheticERC20.sol:SyntheticERC20",
            "label": "numerator",
            "offset": 0,
            "slot": "0",
            "type": "t_uint128"
          },
          {
            "astId": 32474,
            "contract": "contracts/clones/SyntheticERC20.sol:SyntheticERC20",
            "label": "denominator",
            "offset": 16,
            "slot": "0",
            "type": "t_uint128"
          }
        ],
        "numberOfBytes": "32"
      },
      "t_struct(PoolRatioLimit)32470_storage": {
        "encoding": "inplace",
        "label": "struct ISyntheticERC20.PoolRatioLimit",
        "members": [
          {
            "astId": 32467,
            "contract": "contracts/clones/SyntheticERC20.sol:SyntheticERC20",
            "label": "underlying",
            "offset": 0,
            "slot": "0",
            "type": "t_uint32"
          },
          {
            "astId": 32469,
            "contract": "contracts/clones/SyntheticERC20.sol:SyntheticERC20",
            "label": "synthetic",
            "offset": 4,
            "slot": "0",
            "type": "t_uint32"
          }
        ],
        "numberOfBytes": "32"
      },
      "t_struct(StrategiesDebt)32480_storage": {
        "encoding": "inplace",
        "label": "struct ISyntheticERC20.StrategiesDebt",
        "members": [
          {
            "astId": 32477,
            "contract": "contracts/clones/SyntheticERC20.sol:SyntheticERC20",
            "label": "swapBackSynthetic",
            "offset": 0,
            "slot": "0",
            "type": "t_uint128"
          },
          {
            "astId": 32479,
            "contract": "contracts/clones/SyntheticERC20.sol:SyntheticERC20",
            "label": "withdrawSynthetic",
            "offset": 16,
            "slot": "0",
            "type": "t_uint128"
          }
        ],
        "numberOfBytes": "32"
      },
      "t_uint128": {
        "encoding": "inplace",
        "label": "uint128",
        "numberOfBytes": "16"
      },
      "t_uint256": {
        "encoding": "inplace",
        "label": "uint256",
        "numberOfBytes": "32"
      },
      "t_uint32": {
        "encoding": "inplace",
        "label": "uint32",
        "numberOfBytes": "4"
      }
    }
  }
}