{
  "address": "0xF2F9FcB299BD69Ef76f4B5AcFfF78Beb7449475c",
  "abi": [
    {
      "inputs": [
        {
          "internalType": "address",
          "name": "controller",
          "type": "address"
        }
      ],
      "name": "addController",
      "outputs": [],
      "stateMutability": "nonpayable",
      "type": "function"
    },
    {
      "inputs": [
        {
          "internalType": "uint256",
          "name": "",
          "type": "uint256"
        }
      ],
      "name": "controllers",
      "outputs": [
        {
          "internalType": "address",
          "name": "",
          "type": "address"
        }
      ],
      "stateMutability": "view",
      "type": "function"
    },
    {
      "inputs": [
        {
          "internalType": "address[]",
          "name": "_tokens",
          "type": "address[]"
        }
      ],
      "name": "createSyntheticsForUnderlyings",
      "outputs": [],
      "stateMutability": "nonpayable",
      "type": "function"
    },
    {
      "inputs": [
        {
          "internalType": "address",
          "name": "_underlying",
          "type": "address"
        }
      ],
      "name": "deploySyntheticTokenIfNotExist",
      "outputs": [
        {
          "internalType": "address",
          "name": "deployedSynthetic_",
          "type": "address"
        }
      ],
      "stateMutability": "nonpayable",
      "type": "function"
    },
    {
      "inputs": [],
      "name": "getAllControllers",
      "outputs": [
        {
          "internalType": "address[]",
          "name": "currentControllers",
          "type": "address[]"
        }
      ],
      "stateMutability": "view",
      "type": "function"
    },
    {
      "inputs": [
        {
          "internalType": "address[]",
          "name": "controllers_",
          "type": "address[]"
        },
        {
          "internalType": "address",
          "name": "_moduleMap",
          "type": "address"
        },
        {
          "internalType": "address",
          "name": "_ProxyCloneFactory",
          "type": "address"
        },
        {
          "components": [
            {
              "internalType": "uint128",
              "name": "numerator",
              "type": "uint128"
            },
            {
              "internalType": "uint128",
              "name": "denominator",
              "type": "uint128"
            }
          ],
          "internalType": "struct ISyntheticERC20.Float",
          "name": "_ratio",
          "type": "tuple"
        },
        {
          "internalType": "address",
          "name": "wnative",
          "type": "address"
        },
        {
          "internalType": "address",
          "name": "synWnative",
          "type": "address"
        }
      ],
      "name": "initialize",
      "outputs": [],
      "stateMutability": "nonpayable",
      "type": "function"
    },
    {
      "inputs": [
        {
          "internalType": "address",
          "name": "controller",
          "type": "address"
        }
      ],
      "name": "isController",
      "outputs": [
        {
          "internalType": "bool",
          "name": "status",
          "type": "bool"
        }
      ],
      "stateMutability": "view",
      "type": "function"
    },
    {
      "inputs": [],
      "name": "moduleMap",
      "outputs": [
        {
          "internalType": "contract IModuleMap",
          "name": "",
          "type": "address"
        }
      ],
      "stateMutability": "view",
      "type": "function"
    },
    {
      "inputs": [
        {
          "internalType": "address",
          "name": "",
          "type": "address"
        }
      ],
      "name": "syntheticToUnderlying",
      "outputs": [
        {
          "internalType": "address",
          "name": "",
          "type": "address"
        }
      ],
      "stateMutability": "view",
      "type": "function"
    },
    {
      "inputs": [
        {
          "internalType": "address",
          "name": "",
          "type": "address"
        }
      ],
      "name": "underlyingToSynthetic",
      "outputs": [
        {
          "internalType": "address",
          "name": "",
          "type": "address"
        }
      ],
      "stateMutability": "view",
      "type": "function"
    }
  ],
  "transactionHash": "0x6d7d136474c5e53021c063c1122d9173fd5abe020bacf03b6ff817420d5773e1",
  "args": [],
  "solcInputHash": "4290d5bdb7d07b535aef4dff2e9f9e7b",
  "bytecode": "0x608060405234801561001057600080fd5b50611430806100206000396000f3fe608060405234801561001057600080fd5b506004361061008e5760003560e01c80630f0a1c6f14610093578063337993cb146100c25780634ea87144146100d7578063830950c8146100ea5780638cf8bcd514610113578063a7fc7a0714610128578063b429afeb1461013b578063be8dfe5814610177578063e2e38ec8146101a0578063e94b0dd2146101b3575b600080fd5b6000546100ac906201000090046001600160a01b031681565b6040516100b991906111d1565b60405180910390f35b6100ca6101c6565b6040516100b991906111e5565b6100ac6100e5366004610eff565b610228565b6100ac6100f8366004610eff565b6006602052600090815260409020546001600160a01b031681565b610126610121366004610f7d565b6102b8565b005b610126610136366004610eff565b610423565b610167610149366004610eff565b6001600160a01b031660009081526001602052604090205460ff1690565b60405190151581526020016100b9565b6100ac610185366004610eff565b6005602052600090815260409020546001600160a01b031681565b6101266101ae366004610f3e565b61065e565b6100ac6101c13660046110ed565b610821565b6060600280548060200260200160405190810160405280929190818152602001828054801561021e57602002820191906000526020600020905b81546001600160a01b03168152600190910190602001808311610200575b5050505050905090565b3360009081526001602052604081205460ff166102a95760405162461bcd60e51b815260206004820152603460248201527f436f6e74726f6c6c65643a3a6f6e6c79436f6e74726f6c6c65723a2043616c6c60448201527332b91034b9903737ba1031b7b73a3937b63632b960611b60648201526084015b60405180910390fd5b6102b28261084b565b92915050565b600054610100900460ff166102d35760005460ff16156102d7565b303b155b61033a5760405162461bcd60e51b815260206004820152602e60248201527f496e697469616c697a61626c653a20636f6e747261637420697320616c72656160448201526d191e481a5b9a5d1a585b1a5e995960921b60648201526084016102a0565b600054610100900460ff1615801561035c576000805461ffff19166101011790555b61039a8888808060200260200160405190810160405280939291908181526020018383602002808284376000920191909152508a92506108c0915050565b600380546001600160a01b0319166001600160a01b0387161790558360046103c282826113a5565b50506001600160a01b03808416600081815260066020908152604080832080549588166001600160a01b0319968716811790915583526005909152902080549092161790558015610419576000805461ff00191690555b5050505050505050565b600080546040516337c61fc560e11b8152620100009091046001600160a01b031691636f8c3f8a9161045891906004016111f8565b60206040518083038186803b15801561047057600080fd5b505afa158015610484573d6000803e3d6000fd5b505050506040513d601f19601f820116820180604052508101906104a89190610f22565b6001600160a01b0316632f54bf6e336040518263ffffffff1660e01b81526004016104d391906111d1565b60206040518083038186803b1580156104eb57600080fd5b505afa1580156104ff573d6000803e3d6000fd5b505050506040513d601f19601f820116820180604052508101906105239190611025565b6105825760405162461bcd60e51b815260206004820152602a60248201527f436f6e74726f6c6c65643a3a6f6e6c794f776e65723a2043616c6c6572206973604482015269103737ba1037bbb732b960b11b60648201526084016102a0565b6001600160a01b03811660009081526001602081905260408220805460ff19169091179055805b60025481101561060857600281815481106105d457634e487b7160e01b600052603260045260246000fd5b6000918252602090912001546001600160a01b03848116911614156105f857600191505b61060181611350565b90506105a9565b508061065a57600280546001810182556000919091527f405787fa12a823e0f2b7631cc41b3ba8828b3321ca811111fa75cd3aa3bb5ace0180546001600160a01b0319166001600160a01b0384161790555b5050565b600080546040516337c61fc560e11b8152620100009091046001600160a01b031691636f8c3f8a9161069391906004016111f8565b60206040518083038186803b1580156106ab57600080fd5b505afa1580156106bf573d6000803e3d6000fd5b505050506040513d601f19601f820116820180604052508101906106e39190610f22565b6001600160a01b031663f3ae2415336040518263ffffffff1660e01b815260040161070e91906111d1565b60206040518083038186803b15801561072657600080fd5b505afa15801561073a573d6000803e3d6000fd5b505050506040513d601f19601f8201168201806040525081019061075e9190611025565b6107c15760405162461bcd60e51b815260206004820152602e60248201527f436f6e74726f6c6c65643a3a6f6e6c794d616e616765723a2043616c6c65722060448201526d34b9903737ba1036b0b730b3b2b960911b60648201526084016102a0565b60005b8181101561081c576108098383838181106107ef57634e487b7160e01b600052603260045260246000fd5b90506020020160208101906108049190610eff565b61084b565b508061081481611350565b9150506107c4565b505050565b6002818154811061083157600080fd5b6000918252602090912001546001600160a01b0316905081565b6001600160a01b038181166000908152600660205260408120549091166108bb5761087582610a15565b6001600160a01b03808416600081815260066020908152604080832080549587166001600160a01b03199687168117909155835260059091529020805490921617905590505b919050565b600054610100900460ff166108e75760405162461bcd60e51b81526004016102a0906112d5565b6001600160a01b03811661090d5760405162461bcd60e51b81526004016102a0906112b0565b60005b82518110156109835760006001600160a01b031683828151811061094457634e487b7160e01b600052603260045260246000fd5b60200260200101516001600160a01b031614156109735760405162461bcd60e51b81526004016102a0906112b0565b61097c81611350565b9050610910565b5060005b82518110156109f75760018060008584815181106109b557634e487b7160e01b600052603260045260246000fd5b6020908102919091018101516001600160a01b03168252810191909152604001600020805460ff19169115159190911790556109f081611350565b9050610987565b508151610a0b906002906020850190610e3c565b5061065a81610d42565b6000808290506000816001600160a01b03166395d89b416040518163ffffffff1660e01b815260040160006040518083038186803b158015610a5657600080fd5b505afa158015610a6a573d6000803e3d6000fd5b505050506040513d6000823e601f3d908101601f19168201604052610a929190810190611045565b604051602001610aa29190611174565b60405160208183030381529060405290506000826001600160a01b03166306fdde036040518163ffffffff1660e01b815260040160006040518083038186803b158015610aee57600080fd5b505afa158015610b02573d6000803e3d6000fd5b505050506040513d6000823e601f3d908101601f19168201604052610b2a9190810190611045565b604051602001610b3a919061119f565b60408051601f19818403018152908290526003546000546337c61fc560e11b84529193506001600160a01b03908116926356a918aa927fb5600855841ea3a7f3ccea1415cb04f021f04bdeea47fe1b5d5e7326707b04bb9286928892610c9392620100009091041690636f8c3f8a90610bb8906002906004016111f8565b60206040518083038186803b158015610bd057600080fd5b505afa158015610be4573d6000803e3d6000fd5b505050506040513d601f19601f82011682018060405250810190610c089190610f22565b6000546040516337c61fc560e11b8152620100009091046001600160a01b031690636f8c3f8a90610c3e906001906004016111f8565b60206040518083038186803b158015610c5657600080fd5b505afa158015610c6a573d6000803e3d6000fd5b505050506040513d601f19601f82011682018060405250810190610c8e9190610f22565b610d93565b600054604051610cbb949392916201000090046001600160a01b031690600490602001611241565b6040516020818303038152906040526040518363ffffffff1660e01b8152600401610ce7929190611220565b602060405180830381600087803b158015610d0157600080fd5b505af1158015610d15573d6000803e3d6000fd5b505050506040513d601f19601f82011682018060405250810190610d399190610f22565b95945050505050565b600054610100900460ff16610d695760405162461bcd60e51b81526004016102a0906112d5565b600080546001600160a01b03909216620100000262010000600160b01b0319909216919091179055565b604080516002808252606080830184529260009291906020830190803683370190505090508381600081518110610dda57634e487b7160e01b600052603260045260246000fd5b60200260200101906001600160a01b031690816001600160a01b0316815250508281600181518110610e1c57634e487b7160e01b600052603260045260246000fd5b6001600160a01b0390921660209283029190910190910152905092915050565b828054828255906000526020600020908101928215610e91579160200282015b82811115610e9157825182546001600160a01b0319166001600160a01b03909116178255602090920191600190910190610e5c565b50610e9d929150610ea1565b5090565b5b80821115610e9d5760008155600101610ea2565b60008083601f840112610ec7578081fd5b5081356001600160401b03811115610edd578182fd5b6020830191508360208260051b8501011115610ef857600080fd5b9250929050565b600060208284031215610f10578081fd5b8135610f1b816113e2565b9392505050565b600060208284031215610f33578081fd5b8151610f1b816113e2565b60008060208385031215610f50578081fd5b82356001600160401b03811115610f65578182fd5b610f7185828601610eb6565b90969095509350505050565b600080600080600080600087890360e0811215610f98578384fd5b88356001600160401b03811115610fad578485fd5b610fb98b828c01610eb6565b9099509750506020890135610fcd816113e2565b95506040890135610fdd816113e2565b94506040605f1982011215610ff0578384fd5b5060608801925060a0880135611005816113e2565b915060c0880135611015816113e2565b8091505092959891949750929550565b600060208284031215611036578081fd5b81518015158114610f1b578182fd5b600060208284031215611056578081fd5b81516001600160401b038082111561106c578283fd5b818401915084601f83011261107f578283fd5b81518181111561109157611091611377565b604051601f8201601f19908116603f011681019083821181831017156110b9576110b9611377565b816040528281528760208487010111156110d1578586fd5b6110e2836020830160208801611320565b979650505050505050565b6000602082840312156110fe578081fd5b5035919050565b6000815180845260208085019450808401835b8381101561113d5781516001600160a01b031687529582019590820190600101611118565b509495945050505050565b60008151808452611160816020860160208601611320565b601f01601f19169290920160200192915050565b6239bcb760e91b815260008251611192816003850160208701611320565b9190910160030192915050565b69029bcb73a3432ba34b1960b51b8152600082516111c481600a850160208701611320565b91909101600a0192915050565b6001600160a01b0391909116815260200190565b602081526000610f1b6020830184611105565b60208101600e831061121a57634e487b7160e01b600052602160045260246000fd5b91905290565b8281526040602082015260006112396040830184611148565b949350505050565b60c08152600061125460c0830188611148565b82810360208401526112668188611148565b9050828103604084015261127a8187611105565b6001600160a01b03959095166060840152505090546001600160801b0381166080808401919091521c60a0909101529392505050565b6020808252600b908201526a626164206164647265737360a81b604082015260600190565b6020808252602b908201527f496e697469616c697a61626c653a20636f6e7472616374206973206e6f74206960408201526a6e697469616c697a696e6760a81b606082015260800190565b60005b8381101561133b578181015183820152602001611323565b8381111561134a576000848401525b50505050565b600060001982141561137057634e487b7160e01b81526011600452602481fd5b5060010190565b634e487b7160e01b600052604160045260246000fd5b600081356001600160801b03811681146102b2578182fd5b6001600160801b036113b68361138d565b1660018060801b03198181845416178355806113d46020860161138d565b60801b168217835550505050565b6001600160a01b03811681146113f757600080fd5b5056fea2646970667358221220de658e573b02abf83c2cd0e9a3a7db8fa70aaed65469129c8dfbcd9ec3d7599964736f6c63430008040033",
  "devdoc": {
    "kind": "dev",
    "methods": {
      "deploySyntheticTokenIfNotExist(address)": {
        "details": "Deploys synthetic for an underlying if there is no synthetic for this underlying"
      }
    },
    "version": 1
  },
  "userdoc": {
    "kind": "user",
    "methods": {},
    "version": 1
  },
  "storageLayout": {
    "storage": [
      {
        "astId": 702,
        "contract": "contracts/clones/SyntheticMap.sol:SyntheticMap",
        "label": "_initialized",
        "offset": 0,
        "slot": "0",
        "type": "t_bool"
      },
      {
        "astId": 705,
        "contract": "contracts/clones/SyntheticMap.sol:SyntheticMap",
        "label": "_initializing",
        "offset": 1,
        "slot": "0",
        "type": "t_bool"
      },
      {
        "astId": 15187,
        "contract": "contracts/clones/SyntheticMap.sol:SyntheticMap",
        "label": "moduleMap",
        "offset": 2,
        "slot": "0",
        "type": "t_contract(IModuleMap)24885"
      },
      {
        "astId": 8512,
        "contract": "contracts/clones/SyntheticMap.sol:SyntheticMap",
        "label": "_controllers",
        "offset": 0,
        "slot": "1",
        "type": "t_mapping(t_address,t_bool)"
      },
      {
        "astId": 8515,
        "contract": "contracts/clones/SyntheticMap.sol:SyntheticMap",
        "label": "controllers",
        "offset": 0,
        "slot": "2",
        "type": "t_array(t_address)dyn_storage"
      },
      {
        "astId": 6087,
        "contract": "contracts/clones/SyntheticMap.sol:SyntheticMap",
        "label": "ProxyCloneFactory",
        "offset": 0,
        "slot": "3",
        "type": "t_contract(IProxyCloneFactory)25290"
      },
      {
        "astId": 6090,
        "contract": "contracts/clones/SyntheticMap.sol:SyntheticMap",
        "label": "ratio",
        "offset": 0,
        "slot": "4",
        "type": "t_struct(Float)27334_storage"
      },
      {
        "astId": 6095,
        "contract": "contracts/clones/SyntheticMap.sol:SyntheticMap",
        "label": "syntheticToUnderlying",
        "offset": 0,
        "slot": "5",
        "type": "t_mapping(t_address,t_address)"
      },
      {
        "astId": 6100,
        "contract": "contracts/clones/SyntheticMap.sol:SyntheticMap",
        "label": "underlyingToSynthetic",
        "offset": 0,
        "slot": "6",
        "type": "t_mapping(t_address,t_address)"
      }
    ],
    "types": {
      "t_address": {
        "encoding": "inplace",
        "label": "address",
        "numberOfBytes": "20"
      },
      "t_array(t_address)dyn_storage": {
        "base": "t_address",
        "encoding": "dynamic_array",
        "label": "address[]",
        "numberOfBytes": "32"
      },
      "t_bool": {
        "encoding": "inplace",
        "label": "bool",
        "numberOfBytes": "1"
      },
      "t_contract(IModuleMap)24885": {
        "encoding": "inplace",
        "label": "contract IModuleMap",
        "numberOfBytes": "20"
      },
      "t_contract(IProxyCloneFactory)25290": {
        "encoding": "inplace",
        "label": "contract IProxyCloneFactory",
        "numberOfBytes": "20"
      },
      "t_mapping(t_address,t_address)": {
        "encoding": "mapping",
        "key": "t_address",
        "label": "mapping(address => address)",
        "numberOfBytes": "32",
        "value": "t_address"
      },
      "t_mapping(t_address,t_bool)": {
        "encoding": "mapping",
        "key": "t_address",
        "label": "mapping(address => bool)",
        "numberOfBytes": "32",
        "value": "t_bool"
      },
      "t_struct(Float)27334_storage": {
        "encoding": "inplace",
        "label": "struct ISyntheticERC20.Float",
        "members": [
          {
            "astId": 27331,
            "contract": "contracts/clones/SyntheticMap.sol:SyntheticMap",
            "label": "numerator",
            "offset": 0,
            "slot": "0",
            "type": "t_uint128"
          },
          {
            "astId": 27333,
            "contract": "contracts/clones/SyntheticMap.sol:SyntheticMap",
            "label": "denominator",
            "offset": 16,
            "slot": "0",
            "type": "t_uint128"
          }
        ],
        "numberOfBytes": "32"
      },
      "t_uint128": {
        "encoding": "inplace",
        "label": "uint128",
        "numberOfBytes": "16"
      }
    }
  }
}