{
  "address": "0xFF5bD7c988f767a070038070262472361023E0a3",
  "abi": [
    {
      "anonymous": false,
      "inputs": [
        {
          "indexed": true,
          "internalType": "address",
          "name": "tokenA",
          "type": "address"
        },
        {
          "indexed": true,
          "internalType": "address",
          "name": "tokenB",
          "type": "address"
        },
        {
          "indexed": false,
          "internalType": "uint32",
          "name": "poolID",
          "type": "uint32"
        }
      ],
      "name": "CreatePool",
      "type": "event"
    },
    {
      "anonymous": false,
      "inputs": [
        {
          "indexed": false,
          "internalType": "address",
          "name": "token",
          "type": "address"
        },
        {
          "indexed": false,
          "internalType": "uint256",
          "name": "amount",
          "type": "uint256"
        },
        {
          "indexed": false,
          "internalType": "uint32",
          "name": "poolID",
          "type": "uint32"
        }
      ],
      "name": "Deposit",
      "type": "event"
    },
    {
      "anonymous": false,
      "inputs": [
        {
          "indexed": false,
          "internalType": "uint256",
          "name": "poolId",
          "type": "uint256"
        },
        {
          "indexed": false,
          "internalType": "uint256",
          "name": "amount",
          "type": "uint256"
        }
      ],
      "name": "DepositToPool",
      "type": "event"
    },
    {
      "anonymous": false,
      "inputs": [
        {
          "indexed": true,
          "internalType": "uint32",
          "name": "poolID",
          "type": "uint32"
        }
      ],
      "name": "HarvestYieldError",
      "type": "event"
    },
    {
      "anonymous": false,
      "inputs": [
        {
          "indexed": false,
          "internalType": "uint256",
          "name": "amount",
          "type": "uint256"
        }
      ],
      "name": "LPTokensAcquired",
      "type": "event"
    },
    {
      "anonymous": false,
      "inputs": [
        {
          "indexed": false,
          "internalType": "uint256",
          "name": "poolId",
          "type": "uint256"
        },
        {
          "indexed": false,
          "internalType": "address",
          "name": "tokenSold",
          "type": "address"
        },
        {
          "indexed": false,
          "internalType": "uint256",
          "name": "amountSold",
          "type": "uint256"
        },
        {
          "indexed": false,
          "internalType": "address",
          "name": "tokenBought",
          "type": "address"
        },
        {
          "indexed": false,
          "internalType": "uint256",
          "name": "amountBought",
          "type": "uint256"
        }
      ],
      "name": "PoolRebalanced",
      "type": "event"
    },
    {
      "anonymous": false,
      "inputs": [
        {
          "indexed": false,
          "internalType": "uint256",
          "name": "amount",
          "type": "uint256"
        }
      ],
      "name": "TokensReceived",
      "type": "event"
    },
    {
      "anonymous": false,
      "inputs": [
        {
          "indexed": false,
          "internalType": "uint32",
          "name": "source",
          "type": "uint32"
        },
        {
          "indexed": false,
          "internalType": "uint32",
          "name": "destination",
          "type": "uint32"
        },
        {
          "indexed": false,
          "internalType": "uint256[]",
          "name": "amounts",
          "type": "uint256[]"
        },
        {
          "indexed": false,
          "internalType": "address[]",
          "name": "tokens",
          "type": "address[]"
        }
      ],
      "name": "TransferBetweenPools",
      "type": "event"
    },
    {
      "anonymous": false,
      "inputs": [
        {
          "indexed": false,
          "internalType": "uint256",
          "name": "poolId",
          "type": "uint256"
        },
        {
          "indexed": false,
          "internalType": "uint256",
          "name": "amount",
          "type": "uint256"
        }
      ],
      "name": "WithdrawnFromPool",
      "type": "event"
    },
    {
      "anonymous": false,
      "inputs": [
        {
          "indexed": false,
          "internalType": "uint32",
          "name": "poolID",
          "type": "uint32"
        }
      ],
      "name": "YieldHarvested",
      "type": "event"
    },
    {
      "anonymous": false,
      "inputs": [
        {
          "indexed": false,
          "internalType": "uint256",
          "name": "amount",
          "type": "uint256"
        }
      ],
      "name": "YieldReceived",
      "type": "event"
    },
    {
      "inputs": [
        {
          "internalType": "address",
          "name": "controller",
          "type": "address"
        }
      ],
      "name": "addController",
      "outputs": [],
      "stateMutability": "nonpayable",
      "type": "function"
    },
    {
      "inputs": [
        {
          "internalType": "uint32",
          "name": "poolId",
          "type": "uint32"
        },
        {
          "internalType": "uint256",
          "name": "masterChefPoolId",
          "type": "uint256"
        }
      ],
      "name": "configureStaking",
      "outputs": [],
      "stateMutability": "nonpayable",
      "type": "function"
    },
    {
      "inputs": [
        {
          "internalType": "uint32",
          "name": "poolId",
          "type": "uint32"
        },
        {
          "internalType": "uint256",
          "name": "masterChefPoolId",
          "type": "uint256"
        }
      ],
      "name": "configureStakingOverwrite",
      "outputs": [],
      "stateMutability": "nonpayable",
      "type": "function"
    },
    {
      "inputs": [
        {
          "internalType": "uint256",
          "name": "",
          "type": "uint256"
        }
      ],
      "name": "controllers",
      "outputs": [
        {
          "internalType": "address",
          "name": "",
          "type": "address"
        }
      ],
      "stateMutability": "view",
      "type": "function"
    },
    {
      "inputs": [],
      "name": "countExtraSushi",
      "outputs": [
        {
          "internalType": "uint256",
          "name": "extraSushi",
          "type": "uint256"
        },
        {
          "internalType": "uint256",
          "name": "accountedSushi",
          "type": "uint256"
        }
      ],
      "stateMutability": "nonpayable",
      "type": "function"
    },
    {
      "inputs": [
        {
          "internalType": "address",
          "name": "tokenA",
          "type": "address"
        },
        {
          "internalType": "address",
          "name": "tokenB",
          "type": "address"
        },
        {
          "internalType": "uint256",
          "name": "",
          "type": "uint256"
        }
      ],
      "name": "createPool",
      "outputs": [],
      "stateMutability": "nonpayable",
      "type": "function"
    },
    {
      "inputs": [
        {
          "internalType": "uint32",
          "name": "poolId",
          "type": "uint32"
        },
        {
          "internalType": "address",
          "name": "token",
          "type": "address"
        },
        {
          "internalType": "uint256",
          "name": "amount",
          "type": "uint256"
        }
      ],
      "name": "decrementBalance",
      "outputs": [],
      "stateMutability": "nonpayable",
      "type": "function"
    },
    {
      "inputs": [
        {
          "internalType": "uint32",
          "name": "poolId",
          "type": "uint32"
        }
      ],
      "name": "deploy",
      "outputs": [],
      "stateMutability": "nonpayable",
      "type": "function"
    },
    {
      "inputs": [
        {
          "internalType": "address",
          "name": "tokenAddress",
          "type": "address"
        },
        {
          "internalType": "uint256",
          "name": "amount",
          "type": "uint256"
        },
        {
          "internalType": "uint32",
          "name": "poolId",
          "type": "uint32"
        }
      ],
      "name": "deposit",
      "outputs": [],
      "stateMutability": "nonpayable",
      "type": "function"
    },
    {
      "inputs": [],
      "name": "getAllControllers",
      "outputs": [
        {
          "internalType": "address[]",
          "name": "currentControllers",
          "type": "address[]"
        }
      ],
      "stateMutability": "view",
      "type": "function"
    },
    {
      "inputs": [
        {
          "internalType": "address",
          "name": "tokenIn",
          "type": "address"
        },
        {
          "internalType": "address",
          "name": "tokenOut",
          "type": "address"
        },
        {
          "internalType": "uint256",
          "name": "amountIn",
          "type": "uint256"
        }
      ],
      "name": "getAmountOut",
      "outputs": [
        {
          "internalType": "uint256",
          "name": "amountOut",
          "type": "uint256"
        }
      ],
      "stateMutability": "view",
      "type": "function"
    },
    {
      "inputs": [
        {
          "internalType": "address",
          "name": "tokenIn",
          "type": "address"
        },
        {
          "internalType": "address",
          "name": "tokenOut",
          "type": "address"
        },
        {
          "internalType": "uint256",
          "name": "amountIn",
          "type": "uint256"
        }
      ],
      "name": "getAmountOutMinimum",
      "outputs": [
        {
          "internalType": "uint256",
          "name": "amountOutMinimum",
          "type": "uint256"
        }
      ],
      "stateMutability": "view",
      "type": "function"
    },
    {
      "inputs": [
        {
          "internalType": "uint32",
          "name": "poolId",
          "type": "uint32"
        },
        {
          "internalType": "address",
          "name": "tokenAddress",
          "type": "address"
        }
      ],
      "name": "getBalance",
      "outputs": [
        {
          "internalType": "uint256",
          "name": "",
          "type": "uint256"
        }
      ],
      "stateMutability": "view",
      "type": "function"
    },
    {
      "inputs": [
        {
          "internalType": "uint32",
          "name": "poolId",
          "type": "uint32"
        }
      ],
      "name": "getHarvestedYield",
      "outputs": [
        {
          "internalType": "uint256",
          "name": "",
          "type": "uint256"
        }
      ],
      "stateMutability": "view",
      "type": "function"
    },
    {
      "inputs": [
        {
          "internalType": "uint32",
          "name": "poolId",
          "type": "uint32"
        }
      ],
      "name": "getPendingYield",
      "outputs": [
        {
          "internalType": "address[1]",
          "name": "tokens",
          "type": "address[1]"
        },
        {
          "internalType": "uint256[1]",
          "name": "amounts",
          "type": "uint256[1]"
        }
      ],
      "stateMutability": "view",
      "type": "function"
    },
    {
      "inputs": [
        {
          "internalType": "uint32",
          "name": "pid",
          "type": "uint32"
        }
      ],
      "name": "getPool",
      "outputs": [
        {
          "components": [
            {
              "internalType": "address",
              "name": "tokenA",
              "type": "address"
            },
            {
              "internalType": "address",
              "name": "tokenB",
              "type": "address"
            },
            {
              "internalType": "uint256",
              "name": "positionID",
              "type": "uint256"
            }
          ],
          "internalType": "struct IAMMIntegration.Pool",
          "name": "",
          "type": "tuple"
        }
      ],
      "stateMutability": "view",
      "type": "function"
    },
    {
      "inputs": [
        {
          "internalType": "uint32",
          "name": "poolId",
          "type": "uint32"
        }
      ],
      "name": "getPoolBalance",
      "outputs": [
        {
          "internalType": "uint256",
          "name": "tokenA",
          "type": "uint256"
        },
        {
          "internalType": "uint256",
          "name": "tokenB",
          "type": "uint256"
        }
      ],
      "stateMutability": "view",
      "type": "function"
    },
    {
      "inputs": [
        {
          "internalType": "uint32",
          "name": "poolId",
          "type": "uint32"
        }
      ],
      "name": "getStakingPoolId",
      "outputs": [
        {
          "internalType": "uint256",
          "name": "",
          "type": "uint256"
        }
      ],
      "stateMutability": "view",
      "type": "function"
    },
    {
      "inputs": [
        {
          "internalType": "uint32[]",
          "name": "pids",
          "type": "uint32[]"
        }
      ],
      "name": "getSushiBalances",
      "outputs": [
        {
          "internalType": "uint256[]",
          "name": "sushiAmounts",
          "type": "uint256[]"
        }
      ],
      "stateMutability": "view",
      "type": "function"
    },
    {
      "inputs": [],
      "name": "getTotalHarvestedYield",
      "outputs": [
        {
          "internalType": "uint256",
          "name": "amount",
          "type": "uint256"
        }
      ],
      "stateMutability": "view",
      "type": "function"
    },
    {
      "inputs": [
        {
          "internalType": "uint32[]",
          "name": "pids",
          "type": "uint32[]"
        }
      ],
      "name": "getYieldBalances",
      "outputs": [
        {
          "internalType": "uint256[]",
          "name": "amounts",
          "type": "uint256[]"
        }
      ],
      "stateMutability": "view",
      "type": "function"
    },
    {
      "inputs": [],
      "name": "harvestYield",
      "outputs": [],
      "stateMutability": "nonpayable",
      "type": "function"
    },
    {
      "inputs": [
        {
          "internalType": "uint32",
          "name": "poolId",
          "type": "uint32"
        },
        {
          "internalType": "uint256",
          "name": "sushiRatioX1000",
          "type": "uint256"
        },
        {
          "internalType": "uint256",
          "name": "",
          "type": "uint256"
        },
        {
          "internalType": "bool",
          "name": "",
          "type": "bool"
        }
      ],
      "name": "harvestYieldByPool",
      "outputs": [],
      "stateMutability": "nonpayable",
      "type": "function"
    },
    {
      "inputs": [
        {
          "internalType": "uint32",
          "name": "poolId",
          "type": "uint32"
        },
        {
          "internalType": "address",
          "name": "token",
          "type": "address"
        },
        {
          "internalType": "uint256",
          "name": "amount",
          "type": "uint256"
        }
      ],
      "name": "incrementBalance",
      "outputs": [],
      "stateMutability": "nonpayable",
      "type": "function"
    },
    {
      "inputs": [
        {
          "internalType": "address[]",
          "name": "controllers_",
          "type": "address[]"
        },
        {
          "internalType": "address",
          "name": "moduleMap_",
          "type": "address"
        },
        {
          "internalType": "address",
          "name": "factoryAddress_",
          "type": "address"
        },
        {
          "internalType": "address",
          "name": "swapRouterAddress_",
          "type": "address"
        },
        {
          "internalType": "address",
          "name": "masterChef_",
          "type": "address"
        },
        {
          "internalType": "address",
          "name": "sushi_",
          "type": "address"
        },
        {
          "internalType": "uint24",
          "name": "slippageNumerator_",
          "type": "uint24"
        }
      ],
      "name": "initialize",
      "outputs": [],
      "stateMutability": "nonpayable",
      "type": "function"
    },
    {
      "inputs": [
        {
          "internalType": "address",
          "name": "controller",
          "type": "address"
        }
      ],
      "name": "isController",
      "outputs": [
        {
          "internalType": "bool",
          "name": "status",
          "type": "bool"
        }
      ],
      "stateMutability": "view",
      "type": "function"
    },
    {
      "inputs": [
        {
          "internalType": "address",
          "name": "_tokenA",
          "type": "address"
        },
        {
          "internalType": "address",
          "name": "_tokenB",
          "type": "address"
        }
      ],
      "name": "isPoolExist",
      "outputs": [
        {
          "internalType": "bool",
          "name": "",
          "type": "bool"
        }
      ],
      "stateMutability": "view",
      "type": "function"
    },
    {
      "inputs": [
        {
          "internalType": "uint32",
          "name": "poolId",
          "type": "uint32"
        }
      ],
      "name": "manualDeploy",
      "outputs": [],
      "stateMutability": "nonpayable",
      "type": "function"
    },
    {
      "inputs": [
        {
          "internalType": "address",
          "name": "tokenAddress",
          "type": "address"
        },
        {
          "internalType": "uint256",
          "name": "amount",
          "type": "uint256"
        },
        {
          "internalType": "uint32",
          "name": "poolId",
          "type": "uint32"
        },
        {
          "internalType": "uint256",
          "name": "ratioX1000",
          "type": "uint256"
        }
      ],
      "name": "manualWithdraw",
      "outputs": [],
      "stateMutability": "nonpayable",
      "type": "function"
    },
    {
      "inputs": [],
      "name": "moduleMap",
      "outputs": [
        {
          "internalType": "contract IModuleMap",
          "name": "",
          "type": "address"
        }
      ],
      "stateMutability": "view",
      "type": "function"
    },
    {
      "inputs": [],
      "name": "poolCount",
      "outputs": [
        {
          "internalType": "uint32",
          "name": "",
          "type": "uint32"
        }
      ],
      "stateMutability": "view",
      "type": "function"
    },
    {
      "inputs": [
        {
          "internalType": "address",
          "name": "",
          "type": "address"
        }
      ],
      "name": "priceCeilings",
      "outputs": [
        {
          "internalType": "uint256",
          "name": "",
          "type": "uint256"
        }
      ],
      "stateMutability": "view",
      "type": "function"
    },
    {
      "inputs": [
        {
          "internalType": "uint32",
          "name": "poolId",
          "type": "uint32"
        },
        {
          "internalType": "uint256",
          "name": "ratioX1000",
          "type": "uint256"
        },
        {
          "internalType": "uint256",
          "name": "maxSellTokenA",
          "type": "uint256"
        },
        {
          "internalType": "uint256",
          "name": "maxSellTokenB",
          "type": "uint256"
        }
      ],
      "name": "rebalancePool",
      "outputs": [],
      "stateMutability": "nonpayable",
      "type": "function"
    },
    {
      "inputs": [
        {
          "internalType": "uint32",
          "name": "poolId",
          "type": "uint32"
        }
      ],
      "name": "stakeLPTokens",
      "outputs": [],
      "stateMutability": "nonpayable",
      "type": "function"
    },
    {
      "inputs": [
        {
          "internalType": "address",
          "name": "_tokenIn",
          "type": "address"
        },
        {
          "internalType": "address",
          "name": "_tokenOut",
          "type": "address"
        },
        {
          "internalType": "address",
          "name": "_recipient",
          "type": "address"
        },
        {
          "internalType": "uint256",
          "name": "_amountIn",
          "type": "uint256"
        },
        {
          "internalType": "uint256",
          "name": "_amountOutMin",
          "type": "uint256"
        }
      ],
      "name": "swapExactInput",
      "outputs": [
        {
          "internalType": "bool",
          "name": "",
          "type": "bool"
        }
      ],
      "stateMutability": "nonpayable",
      "type": "function"
    },
    {
      "inputs": [
        {
          "internalType": "address",
          "name": "tokenAddress",
          "type": "address"
        },
        {
          "internalType": "uint256",
          "name": "amount",
          "type": "uint256"
        },
        {
          "internalType": "uint32",
          "name": "poolId",
          "type": "uint32"
        }
      ],
      "name": "withdraw",
      "outputs": [],
      "stateMutability": "nonpayable",
      "type": "function"
    },
    {
      "inputs": [
        {
          "internalType": "address",
          "name": "tokenAddress",
          "type": "address"
        },
        {
          "internalType": "uint256",
          "name": "amount",
          "type": "uint256"
        },
        {
          "internalType": "uint32",
          "name": "poolId",
          "type": "uint32"
        },
        {
          "internalType": "uint256",
          "name": "ratioX1000",
          "type": "uint256"
        }
      ],
      "name": "withdraw",
      "outputs": [],
      "stateMutability": "nonpayable",
      "type": "function"
    },
    {
      "inputs": [
        {
          "internalType": "uint32",
          "name": "",
          "type": "uint32"
        }
      ],
      "name": "yieldBalances",
      "outputs": [
        {
          "internalType": "uint256",
          "name": "",
          "type": "uint256"
        }
      ],
      "stateMutability": "view",
      "type": "function"
    },
    {
      "stateMutability": "payable",
      "type": "receive"
    }
  ],
  "transactionHash": "0xf0bcf193695372794d7690406da31f172c53aaa9628e5b1475f7de75ebe103ca",
  "args": [],
  "solcInputHash": "2524e61dad4bc868e4ac327f322032e0",
  "bytecode": "0x608060405234801561001057600080fd5b5061597380620000216000396000f3fe6080604052600436106101b95760003560e01c80630c3fa05f146101c55780630f0a1c6f146101e7578063337993cb14610223578063364d0f5a14610245578063403df5441461026557806349470541146102935780634aa06652146102c357806351810fb5146102f15780635441c2b61461031157806355b961801461033157806358a0f0491461034657806359cf86da146103735780635ce564f4146103935780635f53bc43146103b3578063680c3052146103d35780637500ab2c146103f35780637534e06014610413578063754a0274146104335780637db2ddfe14610453578063841bdb9e1461047357806398cf119b146104935780639da46ee3146104c0578063a4515d3714610510578063a7fc7a0714610543578063a816800c14610563578063ac211b9514610583578063b1cccca2146105a3578063b429afeb146105c3578063ccbfc16c146105fc578063cf73715a1461061c578063d23c84b81461063c578063d46175911461066f578063e7daae2e14610692578063e809529e146106b2578063e8d991d1146106df578063e94b0dd2146106f4578063eb40c54514610714578063f525cb681461073457600080fd5b366101c057005b600080fd5b3480156101d157600080fd5b506101e56101e036600461525a565b610766565b005b3480156101f357600080fd5b5060005461020d906201000090046001600160a01b031681565b60405161021a91906153bf565b60405180910390f35b34801561022f57600080fd5b50610238610a0c565b60405161021a919061546b565b34801561025157600080fd5b506101e56102603660046152b2565b610a6e565b34801561027157600080fd5b5061028561028036600461525a565b610b9a565b60405161021a929190615406565b34801561029f57600080fd5b506102b36102ae366004614dad565b610c6a565b604051901515815260200161021a565b3480156102cf57600080fd5b506102e36102de366004614e07565b610cdc565b60405190815260200161021a565b3480156102fd57600080fd5b506101e561030c366004614e07565b610d23565b34801561031d57600080fd5b506102e361032c366004615276565b611093565b34801561033d57600080fd5b506102e36110c4565b34801561035257600080fd5b5061036661036136600461505a565b61110a565b60405161021a919061547e565b34801561037f57600080fd5b506101e561038e366004615293565b6111fb565b34801561039f57600080fd5b506101e56103ae36600461525a565b61135a565b3480156103bf57600080fd5b506101e56103ce366004615293565b611395565b3480156103df57600080fd5b506101e56103ee3660046152b2565b6114ea565b3480156103ff57600080fd5b5061036661040e36600461505a565b611612565b34801561041f57600080fd5b506101e561042e3660046152dd565b611700565b34801561043f57600080fd5b506101e561044e366004614e88565b6119a0565b34801561045f57600080fd5b506101e561046e366004614e47565b611ad0565b34801561047f57600080fd5b506102b361048e366004614d75565b611bfc565b34801561049f57600080fd5b506102e36104ae366004614d3d565b600d6020526000908152604090205481565b3480156104cc57600080fd5b506104e06104db36600461525a565b611c30565b6040805182516001600160a01b03908116825260208085015190911690820152918101519082015260600161021a565b34801561051c57600080fd5b506102e361052b36600461525a565b63ffffffff166000908152600f602052604090205490565b34801561054f57600080fd5b506101e561055e366004614d3d565b611c8f565b34801561056f57600080fd5b506101e561057e366004614e88565b611ecb565b34801561058f57600080fd5b506101e561059e366004615326565b611ff6565b3480156105af57600080fd5b506101e56105be366004614e47565b6122d3565b3480156105cf57600080fd5b506102b36105de366004614d3d565b6001600160a01b031660009081526001602052604090205460ff1690565b34801561060857600080fd5b506102e3610617366004614e07565b61233b565b34801561062857600080fd5b506101e561063736600461525a565b612381565b34801561064857600080fd5b506102e361065736600461525a565b63ffffffff166000908152600b602052604090205490565b34801561067b57600080fd5b5061068461249d565b60405161021a9291906156e4565b34801561069e57600080fd5b506101e56106ad366004614ecf565b6126eb565b3480156106be57600080fd5b506102e36106cd36600461525a565b600e6020526000908152604090205481565b3480156106eb57600080fd5b506101e5612974565b34801561070057600080fd5b5061020d61070f3660046151da565b612bfc565b34801561072057600080fd5b5061068461072f36600461525a565b612c26565b34801561074057600080fd5b506009546107519063ffffffff1681565b60405163ffffffff909116815260200161021a565b600080546040516337c61fc560e11b8152620100009091046001600160a01b031691636f8c3f8a9161079b91906004016154c2565b60206040518083038186803b1580156107b357600080fd5b505afa1580156107c7573d6000803e3d6000fd5b505050506040513d601f19601f820116820180604052508101906107eb9190614d59565b6001600160a01b031663f3ae2415336040518263ffffffff1660e01b815260040161081691906153bf565b60206040518083038186803b15801561082e57600080fd5b505afa158015610842573d6000803e3d6000fd5b505050506040513d601f19601f8201168201806040525081019061086691906150c9565b61088b5760405162461bcd60e51b8152600401610882906155e9565b60405180910390fd5b63ffffffff81166000908152600860209081526040808320815160608101835281546001600160a01b039081168083526001840154909116948201859052600290920154928101929092529092916108e39190612c3c565b6001600160a01b03166370a08231306040518263ffffffff1660e01b815260040161090e91906153bf565b60206040518083038186803b15801561092657600080fd5b505afa15801561093a573d6000803e3d6000fd5b505050506040513d601f19601f8201168201806040525081019061095e91906151f2565b90508015610a075760065460009061097e906001600160a01b0316612ccd565b60055463ffffffff86166000908152600b602052604090819020549051631c57762b60e31b81529293506001600160a01b039091169163e2bbb158916109c89186906004016156e4565b600060405180830381600087803b1580156109e257600080fd5b505af11580156109f6573d6000803e3d6000fd5b50505050610a048482612d4c565b50505b505050565b60606002805480602002602001604051908101604052809291908181526020018280548015610a6457602002820191906000526020600020905b81546001600160a01b03168152600190910190602001808311610a46575b5050505050905090565b600080546040516337c61fc560e11b8152620100009091046001600160a01b031691636f8c3f8a91610aa391906004016154c2565b60206040518083038186803b158015610abb57600080fd5b505afa158015610acf573d6000803e3d6000fd5b505050506040513d601f19601f82011682018060405250810190610af39190614d59565b6001600160a01b031663f3ae2415336040518263ffffffff1660e01b8152600401610b1e91906153bf565b60206040518083038186803b158015610b3657600080fd5b505afa158015610b4a573d6000803e3d6000fd5b505050506040513d601f19601f82011682018060405250810190610b6e91906150c9565b610b8a5760405162461bcd60e51b8152600401610882906155e9565b610b9682826001612da8565b5050565b610ba2614c74565b610baa614c74565b6006546001600160a01b03908116835263ffffffff8416600090815260106020908152604080832054600554600b9093529281902054905163065509bb60e21b81529293919091169163195426ec91610c079130906004016156cd565b60206040518083038186803b158015610c1f57600080fd5b505afa158015610c33573d6000803e3d6000fd5b505050506040513d601f19601f82011682018060405250810190610c5791906151f2565b610c619190615797565b81529092909150565b3360009081526001602052604081205460ff16610c995760405162461bcd60e51b815260040161088290615637565b6000610ca88787878787613033565b600181518110610cc857634e487b7160e01b600052603260045260246000fd5b602002602001015111905095945050505050565b6000808211610cfd5760405162461bcd60e51b81526004016108829061568b565b600080610d0a8686613224565b91509150610d198483836132fb565b9695505050505050565b600080546040516337c61fc560e11b8152620100009091046001600160a01b031691636f8c3f8a91610d5891906004016154c2565b60206040518083038186803b158015610d7057600080fd5b505afa158015610d84573d6000803e3d6000fd5b505050506040513d601f19601f82011682018060405250810190610da89190614d59565b6001600160a01b031663f3ae2415336040518263ffffffff1660e01b8152600401610dd391906153bf565b60206040518083038186803b158015610deb57600080fd5b505afa158015610dff573d6000803e3d6000fd5b505050506040513d601f19601f82011682018060405250810190610e2391906150c9565b610e3f5760405162461bcd60e51b8152600401610882906155e9565b6009805463ffffffff16906000610e5583615898565b825463ffffffff91821661010093840a9081029083021990911617909255600980548316600090815260086020819052604080832080546001600160a01b03808d166001600160a01b03199283168117909355865489168652838620600190810180548e84169416939093179092559554600a805492830181559095529283047fc65a7bb8d6351c1cf70c95a316cc6a92839c986682d98bc35f958f4883f9d2a801805460046007909516850290970a948816850294909702199095169290921790945583549051636eb1769f60e11b81526000199550929363dd62ed3e93610f429330931691016153d3565b60206040518083038186803b158015610f5a57600080fd5b505afa158015610f6e573d6000803e3d6000fd5b505050506040513d601f19601f82011682018060405250810190610f9291906151f2565b1015610fcf57600454610fb3906001600160a01b03858116911660006133c6565b600454610fcf906001600160a01b0385811691166000196133c6565b60048054604051636eb1769f60e11b8152600019926001600160a01b038681169363dd62ed3e9361100693309390921691016153d3565b60206040518083038186803b15801561101e57600080fd5b505afa158015611032573d6000803e3d6000fd5b505050506040513d601f19601f8201168201806040525081019061105691906151f2565b1015610a0757600454611077906001600160a01b03848116911660006133c6565b600454610a07906001600160a01b0384811691166000196133c6565b63ffffffff82166000908152600c602090815260408083206001600160a01b03851684529091529020545b92915050565b6000805b60095463ffffffff9081169082161015611106576110ea61052b8260016157af565b6110f49083615797565b91506110ff81615898565b90506110c8565b5090565b6060816001600160401b0381111561113257634e487b7160e01b600052604160045260246000fd5b60405190808252806020026020018201604052801561115b578160200160208202803683370190505b50905060005b828110156111f4576111b984848381811061118c57634e487b7160e01b600052603260045260246000fd5b90506020020160208101906111a1919061525a565b63ffffffff166000908152600e602052604090205490565b8282815181106111d957634e487b7160e01b600052603260045260246000fd5b60209081029190910101526111ed8161587d565b9050611161565b5092915050565b600080546040516337c61fc560e11b8152620100009091046001600160a01b031691636f8c3f8a9161123091906004016154c2565b60206040518083038186803b15801561124857600080fd5b505afa15801561125c573d6000803e3d6000fd5b505050506040513d601f19601f820116820180604052508101906112809190614d59565b6001600160a01b031663f3ae2415336040518263ffffffff1660e01b81526004016112ab91906153bf565b60206040518083038186803b1580156112c357600080fd5b505afa1580156112d7573d6000803e3d6000fd5b505050506040513d601f19601f820116820180604052508101906112fb91906150c9565b6113175760405162461bcd60e51b8152600401610882906155e9565b63ffffffff83166000908152600c602090815260408083206001600160a01b038616845290915281208054839290611350908490615797565b9091555050505050565b3360009081526001602052604090205460ff166113895760405162461bcd60e51b815260040161088290615637565b6113928161350f565b50565b600080546040516337c61fc560e11b8152620100009091046001600160a01b031691636f8c3f8a916113ca91906004016154c2565b60206040518083038186803b1580156113e257600080fd5b505afa1580156113f6573d6000803e3d6000fd5b505050506040513d601f19601f8201168201806040525081019061141a9190614d59565b6001600160a01b031663f3ae2415336040518263ffffffff1660e01b815260040161144591906153bf565b60206040518083038186803b15801561145d57600080fd5b505afa158015611471573d6000803e3d6000fd5b505050506040513d601f19601f8201168201806040525081019061149591906150c9565b6114b15760405162461bcd60e51b8152600401610882906155e9565b63ffffffff83166000908152600c602090815260408083206001600160a01b03861684529091528120805483929061135090849061583a565b600080546040516337c61fc560e11b8152620100009091046001600160a01b031691636f8c3f8a9161151f91906004016154c2565b60206040518083038186803b15801561153757600080fd5b505afa15801561154b573d6000803e3d6000fd5b505050506040513d601f19601f8201168201806040525081019061156f9190614d59565b6001600160a01b031663f3ae2415336040518263ffffffff1660e01b815260040161159a91906153bf565b60206040518083038186803b1580156115b257600080fd5b505afa1580156115c6573d6000803e3d6000fd5b505050506040513d601f19601f820116820180604052508101906115ea91906150c9565b6116065760405162461bcd60e51b8152600401610882906155e9565b610b9682826000612da8565b6060816001600160401b0381111561163a57634e487b7160e01b600052604160045260246000fd5b604051908082528060200260200182016040528015611663578160200160208202803683370190505b50905060005b828110156111f4576010600085858481811061169557634e487b7160e01b600052603260045260246000fd5b90506020020160208101906116aa919061525a565b63ffffffff1663ffffffff168152602001908152602001600020548282815181106116e557634e487b7160e01b600052603260045260246000fd5b60209081029190910101526116f98161587d565b9050611669565b600080546040516337c61fc560e11b8152620100009091046001600160a01b031691636f8c3f8a9161173591906004016154c2565b60206040518083038186803b15801561174d57600080fd5b505afa158015611761573d6000803e3d6000fd5b505050506040513d601f19601f820116820180604052508101906117859190614d59565b6001600160a01b031663f3ae2415336040518263ffffffff1660e01b81526004016117b091906153bf565b60206040518083038186803b1580156117c857600080fd5b505afa1580156117dc573d6000803e3d6000fd5b505050506040513d601f19601f8201168201806040525081019061180091906150c9565b61181c5760405162461bcd60e51b8152600401610882906155e9565b600654600090611834906001600160a01b0316612ccd565b60055463ffffffff87166000908152600b6020526040808220549051631c57762b60e31b81529394506001600160a01b039092169263e2bbb1589261187d9290916004016156e4565b600060405180830381600087803b15801561189757600080fd5b505af11580156118ab573d6000803e3d6000fd5b505050506118b98582612d4c565b5063ffffffff85166000908152601060205260409020548015611998576006546007546118f3916001600160a01b03908116911687613778565b60065460075460009161191f916001600160a01b039182169116308561191a84848361233b565b613033565b63ffffffff881660009081526010602052604081205580519091508190600190811061195b57634e487b7160e01b600052603260045260246000fd5b6020026020010151600e60008963ffffffff1663ffffffff16815260200190815260200160002060008282546119919190615797565b9091555050505b505050505050565b600080546040516337c61fc560e11b8152620100009091046001600160a01b031691636f8c3f8a916119d591906004016154c2565b60206040518083038186803b1580156119ed57600080fd5b505afa158015611a01573d6000803e3d6000fd5b505050506040513d601f19601f82011682018060405250810190611a259190614d59565b6001600160a01b031663f3ae2415336040518263ffffffff1660e01b8152600401611a5091906153bf565b60206040518083038186803b158015611a6857600080fd5b505afa158015611a7c573d6000803e3d6000fd5b505050506040513d601f19601f82011682018060405250810190611aa091906150c9565b611abc5760405162461bcd60e51b8152600401610882906155e9565b611aca8484848460006137a3565b50505050565b3360009081526001602052604090205460ff16611aff5760405162461bcd60e51b815260040161088290615637565b611b098184611093565b8211611bed57600080546040516337c61fc560e11b8152611ba992620100009092046001600160a01b031691636f8c3f8a91611b4891906004016154c2565b60206040518083038186803b158015611b6057600080fd5b505afa158015611b74573d6000803e3d6000fd5b505050506040513d601f19601f82011682018060405250810190611b989190614d59565b6001600160a01b0385169084613ade565b63ffffffff81166000908152600c602090815260408083206001600160a01b038716845290915281208054849290611be290849061583a565b90915550610a079050565b610a07838383600060016137a3565b6000806000611c0b8585613afd565b90925090506000611c1c8383612c3c565b6001600160a01b0316141595945050505050565b60408051606080820183526000808352602080840182905292840181905263ffffffff94909416845260088252928290208251938401835280546001600160a01b03908116855260018201541691840191909152600201549082015290565b600080546040516337c61fc560e11b8152620100009091046001600160a01b031691636f8c3f8a91611cc491906004016154c2565b60206040518083038186803b158015611cdc57600080fd5b505afa158015611cf0573d6000803e3d6000fd5b505050506040513d601f19601f82011682018060405250810190611d149190614d59565b6001600160a01b0316632f54bf6e336040518263ffffffff1660e01b8152600401611d3f91906153bf565b60206040518083038186803b158015611d5757600080fd5b505afa158015611d6b573d6000803e3d6000fd5b505050506040513d601f19601f82011682018060405250810190611d8f91906150c9565b611dee5760405162461bcd60e51b815260206004820152602a60248201527f436f6e74726f6c6c65643a3a6f6e6c794f776e65723a2043616c6c6572206973604482015269103737ba1037bbb732b960b11b6064820152608401610882565b6001600160a01b03811660009081526001602081905260408220805460ff19169091179055805b600254811015611e745760028181548110611e4057634e487b7160e01b600052603260045260246000fd5b6000918252602090912001546001600160a01b0384811691161415611e6457600191505b611e6d8161587d565b9050611e15565b5080610b9657600280546001810182556000919091527f405787fa12a823e0f2b7631cc41b3ba8828b3321ca811111fa75cd3aa3bb5ace0180546001600160a01b0384166001600160a01b03199091161790555050565b3360009081526001602052604090205460ff16611efa5760405162461bcd60e51b815260040161088290615637565b611f048285611093565b8311611fe857600080546040516337c61fc560e11b8152611fa492620100009092046001600160a01b031691636f8c3f8a91611f4391906004016154c2565b60206040518083038186803b158015611f5b57600080fd5b505afa158015611f6f573d6000803e3d6000fd5b505050506040513d601f19601f82011682018060405250810190611f939190614d59565b6001600160a01b0386169085613ade565b63ffffffff82166000908152600c602090815260408083206001600160a01b038816845290915281208054859290611fdd90849061583a565b90915550611aca9050565b611aca8484848460016137a3565b600080546040516337c61fc560e11b8152620100009091046001600160a01b031691636f8c3f8a9161202b91906004016154c2565b60206040518083038186803b15801561204357600080fd5b505afa158015612057573d6000803e3d6000fd5b505050506040513d601f19601f8201168201806040525081019061207b9190614d59565b6001600160a01b031663f3ae2415336040518263ffffffff1660e01b81526004016120a691906153bf565b60206040518083038186803b1580156120be57600080fd5b505afa1580156120d2573d6000803e3d6000fd5b505050506040513d601f19601f820116820180604052508101906120f691906150c9565b6121125760405162461bcd60e51b8152600401610882906155e9565b600061211d85611c30565b63ffffffff86166000908152600860205260409020549091506001600160a01b031661215b5760405162461bcd60e51b8152600401610882906155bd565b61216e8160000151826020015186613778565b60008061219683612183898660000151611093565b6121918a8760200151611093565b613bd2565b915091506000806121aa8486858a8a613c53565b9150915060006121b982612ccd565b90506121cd8583308661191a8a888a61233b565b506000816121da84612ccd565b6121e4919061583a565b905080156122c65763ffffffff8b166000908152600c602090815260408083206001600160a01b038a1684529091528120805486929061222590849061583a565b909155505063ffffffff8b166000908152600c602090815260408083206001600160a01b038716845290915281208054839290612263908490615797565b90915550506040805163ffffffff8d1681526001600160a01b038881166020830152818301879052851660608201526080810183905290517f3318ce2371d9cd19d64b4ca999bd8bdcfcf18e4ec416d7dc611b729b2e59c5009181900360a00190a15b5050505050505050505050565b3360009081526001602052604090205460ff166123025760405162461bcd60e51b815260040161088290615637565b63ffffffff81166000908152600c602090815260408083206001600160a01b038716845290915281208054849290611350908490615797565b600354600090620f4240906123559062ffffff1682615816565b62ffffff16612365868686610cdc565b61236f91906157f7565b61237991906157d7565b949350505050565b600080546040516337c61fc560e11b8152620100009091046001600160a01b031691636f8c3f8a916123b691906004016154c2565b60206040518083038186803b1580156123ce57600080fd5b505afa1580156123e2573d6000803e3d6000fd5b505050506040513d601f19601f820116820180604052508101906124069190614d59565b6001600160a01b031663f3ae2415336040518263ffffffff1660e01b815260040161243191906153bf565b60206040518083038186803b15801561244957600080fd5b505afa15801561245d573d6000803e3d6000fd5b505050506040513d601f19601f8201168201806040525081019061248191906150c9565b6113895760405162461bcd60e51b8152600401610882906155e9565b600080546040516337c61fc560e11b815282916201000090046001600160a01b031690636f8c3f8a906124d49084906004016154c2565b60206040518083038186803b1580156124ec57600080fd5b505afa158015612500573d6000803e3d6000fd5b505050506040513d601f19601f820116820180604052508101906125249190614d59565b6001600160a01b031663f3ae2415336040518263ffffffff1660e01b815260040161254f91906153bf565b60206040518083038186803b15801561256757600080fd5b505afa15801561257b573d6000803e3d6000fd5b505050506040513d601f19601f8201168201806040525081019061259f91906150c9565b6125bb5760405162461bcd60e51b8152600401610882906155e9565b60095463ffffffff16806126265760405162461bcd60e51b815260206004820152602c60248201527f43616e6e6f7420636f756e74206578747261207375736869207768656e206e6f60448201526b081c1bdbdb1cc8195e1a5cdd60a21b6064820152608401610882565b60005b818163ffffffff16101561267957601060006126468360016157af565b63ffffffff1681526020810191909152604001600020546126679084615797565b925061267281615898565b9050612629565b506006548290612691906001600160a01b0316612ccd565b61269b919061583a565b925082156126e6576001600090815260106020527f8c6065603763fec3f5742441d3833f3f43b982453612d76adb39a885e3006b5f80548592906126e0908490615797565b90915550505b509091565b600054610100900460ff166127065760005460ff161561270a565b303b155b6127265760405162461bcd60e51b81526004016108829061554a565b600054610100900460ff16158015612748576000805461ffff19166101011790555b6001600160a01b03861661276e5760405162461bcd60e51b815260040161088290615598565b6001600160a01b0385166127945760405162461bcd60e51b815260040161088290615598565b6001600160a01b0384166127ba5760405162461bcd60e51b815260040161088290615598565b6001600160a01b0383166127e05760405162461bcd60e51b815260040161088290615598565b6127ea8888613caf565b60038054600480546001600160a01b03199081166001600160a01b038a81169190911783556005805483168a83161790556001600160b81b031990931663010000008b85160262ffffff19161762ffffff8716178455600680549091168784161790556000546040516337c61fc560e11b81526201000090910490921692636f8c3f8a9261287892016154c2565b60206040518083038186803b15801561289057600080fd5b505afa1580156128a4573d6000803e3d6000fd5b505050506040513d601f19601f820116820180604052508101906128c89190614d59565b6001600160a01b0316638b9c94896040518163ffffffff1660e01b815260040160206040518083038186803b15801561290057600080fd5b505afa158015612914573d6000803e3d6000fd5b505050506040513d601f19601f820116820180604052508101906129389190614d59565b600780546001600160a01b0319166001600160a01b0392909216919091179055801561296a576000805461ff00191690555b5050505050505050565b3360009081526001602052604090205460ff166129a35760405162461bcd60e51b815260040161088290615637565b6000805b60095463ffffffff9081169082161015612b23576000600e6000600a8463ffffffff16815481106129e857634e487b7160e01b600052603260045260246000fd5b6000918252602080832060088304015460079092166004026101000a90910463ffffffff16835282019290925260400190205490508015612b1257612a2d8184615797565b925080600f6000600a8563ffffffff1681548110612a5b57634e487b7160e01b600052603260045260246000fd5b90600052602060002090600891828204019190066004029054906101000a900463ffffffff1663ffffffff1663ffffffff1681526020019081526020016000206000828254612aaa9190615797565b925050819055506000600e6000600a8563ffffffff1681548110612ade57634e487b7160e01b600052603260045260246000fd5b6000918252602080832060088304015460079092166004026101000a90910463ffffffff1683528201929092526040019020555b50612b1c81615898565b90506129a7565b508015611392576000546040516337c61fc560e11b8152612bc6916201000090046001600160a01b031690636f8c3f8a90612b63906002906004016154c2565b60206040518083038186803b158015612b7b57600080fd5b505afa158015612b8f573d6000803e3d6000fd5b505050506040513d601f19601f82011682018060405250810190612bb39190614d59565b6007546001600160a01b03169083613ade565b6040518181527fd0e841f234010ad7f57b7c09faffb2245cd240429c6e8fa3cd934a0a8bf58eb09060200160405180910390a150565b60028181548110612c0c57600080fd5b6000918252602090912001546001600160a01b0316905081565b600080612c3283613e50565b9094909350915050565b60035460405163e6a4390560e01b8152600091630100000090046001600160a01b03169063e6a4390590612c7690869086906004016153d3565b60206040518083038186803b158015612c8e57600080fd5b505afa158015612ca2573d6000803e3d6000fd5b505050506040513d601f19601f82011682018060405250810190612cc69190614d59565b9392505050565b6040516370a0823160e01b81526000906001600160a01b038316906370a0823190612cfc9030906004016153bf565b60206040518083038186803b158015612d1457600080fd5b505afa158015612d28573d6000803e3d6000fd5b505050506040513d601f19601f820116820180604052508101906110be91906151f2565b6006546000908290612d66906001600160a01b0316612ccd565b612d70919061583a565b905080156110be5763ffffffff831660009081526010602052604081208054839290612d9d908490615797565b909155505092915050565b6000612db384611c30565b80519091506001600160a01b0316612ddd5760405162461bcd60e51b8152600401610882906155bd565b600182151514612e475763ffffffff84166000908152600b602052604090205415612e475760405162461bcd60e51b815260206004820152601a60248201527914dd185ada5b99c8185b1c9958591e4818dbdb999a59dd5c995960321b6044820152606401610882565b600554604051631526fe2760e01b8152600481018590526000916001600160a01b031690631526fe2790602401608060405180830381600087803b158015612e8e57600080fd5b505af1158015612ea2573d6000803e3d6000fd5b505050506040513d601f19601f82011682018060405250810190612ec691906150e5565b90506000612edc83600001518460200151612c3c565b9050806001600160a01b031682600001516001600160a01b031614612f565760405162461bcd60e51b815260206004820152602a60248201527f496e636f7272656374204d617374657243686566277320706f6f6c49642077616044820152691cc81c1c9bdd9a59195960b21b6064820152608401610882565b63ffffffff86166000908152600b6020526040908190208690556005549051636eb1769f60e11b8152600019916001600160a01b038085169263dd62ed3e92612fa69230929116906004016153d3565b60206040518083038186803b158015612fbe57600080fd5b505afa158015612fd2573d6000803e3d6000fd5b505050506040513d601f19601f82011682018060405250810190612ff691906151f2565b101561199857600554613017906001600160a01b03838116911660006133c6565b600554611998906001600160a01b0383811691166000196133c6565b60408051600280825260608083018452926000929190602083019080368337019050509050868160008151811061307a57634e487b7160e01b600052603260045260246000fd5b60200260200101906001600160a01b031690816001600160a01b03168152505085816001815181106130bc57634e487b7160e01b600052603260045260246000fd5b6001600160a01b03928316602091820292909201015260048054604051636eb1769f60e11b8152429388938c82169363dd62ed3e93613100933093921691016153d3565b60206040518083038186803b15801561311857600080fd5b505afa15801561312c573d6000803e3d6000fd5b505050506040513d601f19601f8201168201806040525081019061315091906151f2565b101561318b57600454613171906001600160a01b038a8116911660006133c6565b60045461318b906001600160a01b038a81169116876133c6565b600480546040516338ed173960e01b81526001600160a01b03909116916338ed1739916131c2918991899188918d918991016156f2565b600060405180830381600087803b1580156131dc57600080fd5b505af11580156131f0573d6000803e3d6000fd5b505050506040513d6000823e601f3d908101601f191682016040526132189190810190614fd4565b98975050505050505050565b60008060006132338585613afd565b5090506000806132438787612c3c565b6001600160a01b0316630902f1ac6040518163ffffffff1660e01b815260040160606040518083038186803b15801561327b57600080fd5b505afa15801561328f573d6000803e3d6000fd5b505050506040513d601f19601f820116820180604052508101906132b3919061519f565b506001600160701b031691506001600160701b03169150826001600160a01b0316876001600160a01b0316146132ea5780826132ed565b81815b909890975095505050505050565b600080841161331c5760405162461bcd60e51b81526004016108829061568b565b60008311801561332c5750600082115b6133785760405162461bcd60e51b815260206004820152601d60248201527f4e6f206c697175696469747920696e20706f6f6c2072657365727665730000006044820152606401610882565b6000613386856103e56157f7565b9050600061339484836157f7565b90506000826133a5876103e86157f7565b6133af9190615797565b90506133bb81836157d7565b979650505050505050565b80158061344e5750604051636eb1769f60e11b81526001600160a01b0384169063dd62ed3e906133fc90309086906004016153d3565b60206040518083038186803b15801561341457600080fd5b505afa158015613428573d6000803e3d6000fd5b505050506040513d601f19601f8201168201806040525081019061344c91906151f2565b155b6134b95760405162461bcd60e51b815260206004820152603660248201527f5361666545524332303a20617070726f76652066726f6d206e6f6e2d7a65726f60448201527520746f206e6f6e2d7a65726f20616c6c6f77616e636560501b6064820152608401610882565b610a078363095ea7b360e01b84846040516024016134d89291906153ed565b60408051601f198184030181529190526020810180516001600160e01b03166001600160e01b031990931692909217909152614143565b600061351a82611c30565b63ffffffff83166000908152600860205260409020549091506001600160a01b03166135585760405162461bcd60e51b8152600401610882906155bd565b6000613568838360000151611093565b9050600061357a848460200151611093565b9050811580613587575080155b156135925750505050565b6000806135a785600001518660200151613224565b915091506000806135ba86868686614215565b600480548a5160208c015160405162e8e33760e81b81526001600160a01b039283169481019490945281166024840152604483018590526064830184905260006084840181905260a484018190523060c48501524260e4850152949650929450919091169063e8e337009061010401606060405180830381600087803b15801561364357600080fd5b505af1158015613657573d6000803e3d6000fd5b505050506040513d601f19601f8201168201806040525081019061367b919061522d565b63ffffffff8c166000908152600c602090815260408083208e516001600160a01b03168452909152812080549295508794509250906136bb90849061583a565b909155505063ffffffff89166000908152600c602090815260408083208b8301516001600160a01b03168452909152812080548492906136fc90849061583a565b90915550506040518181527f250600b7e1d8b908a0f07fa409e087c1b43ef3a5de3c0e23a41998c311f0ea909060200160405180910390a17fb28fd890673610fa2a3efb1cf64ae1b26dd83c3261fbd99f0d4a5821ccdaa993898260405161376592919061572e565b60405180910390a1505050505050505050565b60006137848484612c3c565b90506000806137938686613224565b9150915061199883838387614359565b60006137ae84611c30565b905082156137c9576137c98160000151826020015185613778565b6000806137de83600001518460200151613224565b60055463ffffffff89166000908152600b60205260408082205490516393f1a40b60e01b815294965092945092613911928c928c926001600160a01b03909116916393f1a40b91613834919030906004016156cd565b604080518083038186803b15801561384b57600080fd5b505afa15801561385f573d6000803e3d6000fd5b505050506040513d601f19601f820116820180604052508101906138839190615152565b60000151868661389b8a600001518b60200151612c3c565b6001600160a01b03166318160ddd6040518163ffffffff1660e01b815260040160206040518083038186803b1580156138d357600080fd5b505afa1580156138e7573d6000803e3d6000fd5b505050506040513d601f19601f8201168201806040525081019061390b91906151f2565b8a614483565b60065490915060009061392c906001600160a01b0316612ccd565b60055463ffffffff8a166000908152600b602052604090819020549051630441a3e760e41b81529293506001600160a01b039091169163441a3e70916139769186906004016156e4565b600060405180830381600087803b15801561399057600080fd5b505af11580156139a4573d6000803e3d6000fd5b505050506139b28882612d4c565b50600454855160208701516139e7926001600160a01b03169185916139d79190612c3c565b6001600160a01b031691906133c6565b6004548551602087015160009283926001600160a01b039091169163baa2abde919087858030613a1942610168615797565b60405160e089901b6001600160e01b03191681526001600160a01b039788166004820152958716602487015260448601949094526064850192909252608484015290921660a482015260c481019190915260e4016040805180830381600087803b158015613a8657600080fd5b505af1158015613a9a573d6000803e3d6000fd5b505050506040513d601f19601f82011682018060405250810190613abe919061520a565b91509150613ad0878b8e85858d614555565b505050505050505050505050565b610a078363a9059cbb60e01b84846040516024016134d89291906153ed565b600080826001600160a01b0316846001600160a01b03161415613b5e5760405162461bcd60e51b81526020600482015260196024820152784964656e746963616c20746f6b656e2061646472657373657360381b6044820152606401610882565b826001600160a01b0316846001600160a01b031610613b7e578284613b81565b83835b90925090506001600160a01b038216613bcb5760405162461bcd60e51b815260206004820152600c60248201526b5a65726f206164647265737360a01b6044820152606401610882565b9250929050565b60008080613be08486615797565b11613c2d5760405162461bcd60e51b815260206004820181905260248201527f537573686953776170496e746567726174696f6e3a206e6f2062616c616e63656044820152606401610882565b600080613c4287600001518860200151613224565b915091506132ed8787878585614921565b60008085600001516001600160a01b0316876001600160a01b03161415613c9057506020850151838510613c875783613c89565b845b9150613ca5565b508451828510613ca05782613ca2565b845b91505b9550959350505050565b600054610100900460ff16613cca5760005460ff1615613cce565b303b155b613cea5760405162461bcd60e51b81526004016108829061554a565b600054610100900460ff16158015613d0c576000805461ffff19166101011790555b6001600160a01b038216613d325760405162461bcd60e51b815260040161088290615598565b60005b8351811015613da85760006001600160a01b0316848281518110613d6957634e487b7160e01b600052603260045260246000fd5b60200260200101516001600160a01b03161415613d985760405162461bcd60e51b815260040161088290615598565b613da18161587d565b9050613d35565b5060005b8351811015613e1c576001806000868481518110613dda57634e487b7160e01b600052603260045260246000fd5b6020908102919091018101516001600160a01b03168252810191909152604001600020805460ff1916911515919091179055613e158161587d565b9050613dac565b508251613e30906002906020860190614c92565b50613e3a82614a83565b8015610a07576000805461ff0019169055505050565b6000806000613e5e84611c30565b60055463ffffffff86166000908152600b60205260408082205490516393f1a40b60e01b815293945090926001600160a01b03909216916393f1a40b91613ea99130906004016156cd565b604080518083038186803b158015613ec057600080fd5b505afa158015613ed4573d6000803e3d6000fd5b505050506040513d601f19601f82011682018060405250810190613ef89190615152565b5182516020840151613f0a9190612c3c565b6001600160a01b03166370a08231306040518263ffffffff1660e01b8152600401613f3591906153bf565b60206040518083038186803b158015613f4d57600080fd5b505afa158015613f61573d6000803e3d6000fd5b505050506040513d601f19601f82011682018060405250810190613f8591906151f2565b613f8f9190615797565b905061413781613fa784600001518560200151612c3c565b6001600160a01b03166318160ddd6040518163ffffffff1660e01b815260040160206040518083038186803b158015613fdf57600080fd5b505afa158015613ff3573d6000803e3d6000fd5b505050506040513d601f19601f8201168201806040525081019061401791906151f2565b845160208601516001600160a01b038216916370a08231916140399190612c3c565b6040518263ffffffff1660e01b815260040161405591906153bf565b60206040518083038186803b15801561406d57600080fd5b505afa158015614081573d6000803e3d6000fd5b505050506040513d601f19601f820116820180604052508101906140a591906151f2565b602086015186516001600160a01b038216916370a08231916140c691612c3c565b6040518263ffffffff1660e01b81526004016140e291906153bf565b60206040518083038186803b1580156140fa57600080fd5b505afa15801561410e573d6000803e3d6000fd5b505050506040513d601f19601f8201168201806040525081019061413291906151f2565b614b17565b90969095509350505050565b6000614198826040518060400160405280602081526020017f5361666545524332303a206c6f772d6c6576656c2063616c6c206661696c6564815250856001600160a01b0316614b799092919063ffffffff16565b805190915015610a0757808060200190518101906141b691906150c9565b610a075760405162461bcd60e51b815260206004820152602a60248201527f5361666545524332303a204552433230206f7065726174696f6e20646964206e6044820152691bdd081cdd58d8d9595960b21b6064820152608401610882565b600080828411156142b65760008361422f866103e86157f7565b61423991906157d7565b905060006103e861424a83896157f7565b61425491906157d7565b90508088101561427f578793508161426e856103e86157f7565b61427891906157d7565b92506142af565b878110156142a8576103e861429483896157f7565b61429e91906157d7565b93508692506142af565b8793508692505b5050614350565b82841015614350576000846142cd856103e86157f7565b6142d791906157d7565b905060006103e86142e8838a6157f7565b6142f291906157d7565b90508087101561431d5781614309886103e86157f7565b61431391906157d7565b935086925061434d565b86811015614346578793506103e861433583866157f7565b61433f91906157d7565b925061434d565b8793508692505b50505b94509492505050565b6001600160a01b0384166143ae5760405162461bcd60e51b815260206004820152601c60248201527b2a3930b232b92537b2a4b73a32b3b930ba34b7b71d2130b22830b4b960211b6044820152606401610882565b6000828410156143d657836143c5846103e86157f7565b6143cf91906157d7565b90506143f0565b838310156143eb57826143c5856103e86157f7565b506103e85b8181111561443c57600182614405818461583a565b6144109060646157f7565b61441a91906157d7565b106144375760405162461bcd60e51b81526004016108829061551d565b610a04565b80821115610a0457600182614451838261583a565b61445c9060646157f7565b61446691906157d7565b10610a045760405162461bcd60e51b81526004016108829061551d565b60008082600001516001600160a01b0316896001600160a01b031614156144d65783156144cc57836144bd87670de0b6b3a76400006157f7565b6144c791906157d7565b6144cf565b60005b9050614504565b83156144fe57836144ef86670de0b6b3a76400006157f7565b6144f991906157d7565b614501565b60005b90505b806145135760009150506133bb565b8061451f60028a6157d7565b61453190670de0b6b3a76400006157f7565b61453b91906157d7565b915086821115614549578691505b50979650505050505050565b85516001600160a01b03858116911614156147345760208601516000906145849086308661191a84848361233b565b9050811561466057600080546040516337c61fc560e11b815261465b92620100009092046001600160a01b031691636f8c3f8a916145c591906004016154c2565b60206040518083038186803b1580156145dd57600080fd5b505afa1580156145f1573d6000803e3d6000fd5b505050506040513d601f19601f820116820180604052508101906146159190614d59565b8260018151811061463657634e487b7160e01b600052603260045260246000fd5b6020026020010151866146499190615797565b89516001600160a01b03169190613ade565b6146d4565b8060018151811061468157634e487b7160e01b600052603260045260246000fd5b6020026020010151846146949190615797565b63ffffffff87166000908152600c602090815260408083208b516001600160a01b03168452909152812080549091906146ce908490615797565b90915550505b60008051602061591e83398151915286858360018151811061470657634e487b7160e01b600052603260045260246000fd5b60200260200101516147189190615797565b60405161472692919061572e565b60405180910390a150611998565b85602001516001600160a01b0316846001600160a01b031614156119985785516000906147699086308761191a84848361233b565b9050811561484857600080546040516337c61fc560e11b815261484392620100009092046001600160a01b031691636f8c3f8a916147aa91906004016154c2565b60206040518083038186803b1580156147c257600080fd5b505afa1580156147d6573d6000803e3d6000fd5b505050506040513d601f19601f820116820180604052508101906147fa9190614d59565b8260018151811061481b57634e487b7160e01b600052603260045260246000fd5b60200260200101518561482e9190615797565b60208a01516001600160a01b03169190613ade565b6148be565b8060018151811061486957634e487b7160e01b600052603260045260246000fd5b60200260200101518361487c9190615797565b63ffffffff87166000908152600c602090815260408083208b8301516001600160a01b03168452909152812080549091906148b8908490615797565b90915550505b60008051602061591e8339815191528684836001815181106148f057634e487b7160e01b600052603260045260246000fd5b60200260200101516149029190615797565b60405161491092919061572e565b60405180910390a150505050505050565b600080828411156149d15760008361493b866103e86157f7565b61494591906157d7565b905060006103e861495683896157f7565b61496091906157d7565b9050808810156149a5576002826149798a6103e86157f7565b61498391906157d7565b61498d908961583a565b61499791906157d7565b9250886020015193506149ca565b878110156149ca5760026149b9828a61583a565b6149c391906157d7565b8951945092505b5050613ca5565b82841015613ca5576000846149e8856103e86157f7565b6149f291906157d7565b905060006103e8614a03838a6157f7565b614a0d91906157d7565b905086811015614a3b576002614a23828961583a565b614a2d91906157d7565b925088602001519350614a77565b80871015614a7757600282614a52896103e86157f7565b614a5c91906157d7565b614a66908a61583a565b614a7091906157d7565b8951945092505b50509550959350505050565b600054610100900460ff16614a9e5760005460ff1615614aa2565b303b155b614abe5760405162461bcd60e51b81526004016108829061554a565b600054610100900460ff16158015614ae0576000805461ffff19166101011790555b6000805462010000600160b01b031916620100006001600160a01b038516021790558015610b96576000805461ff00191690555050565b6000808085614b2b886402540be4006157f7565b614b3591906157d7565b90506402540be400614b4782876157f7565b614b5191906157d7565b92506402540be400614b6382866157f7565b614b6d91906157d7565b91505094509492505050565b6060612379848460008585843b614bd25760405162461bcd60e51b815260206004820152601d60248201527f416464726573733a2063616c6c20746f206e6f6e2d636f6e74726163740000006044820152606401610882565b600080866001600160a01b03168587604051614bee91906153a3565b60006040518083038185875af1925050503d8060008114614c2b576040519150601f19603f3d011682016040523d82523d6000602084013e614c30565b606091505b50915091506133bb82828660608315614c4a575081612cc6565b825115614c5a5782518084602001fd5b8160405162461bcd60e51b815260040161088291906154ea565b60405180602001604052806001906020820280368337509192915050565b828054828255906000526020600020908101928215614ce7579160200282015b82811115614ce757825182546001600160a01b0319166001600160a01b03909116178255602090920191600190910190614cb2565b506111069291505b808211156111065760008155600101614cef565b8035614d0e816158e8565b919050565b80516001600160701b0381168114614d0e57600080fd5b803562ffffff81168114614d0e57600080fd5b600060208284031215614d4e578081fd5b8135612cc6816158e8565b600060208284031215614d6a578081fd5b8151612cc6816158e8565b60008060408385031215614d87578081fd5b8235614d92816158e8565b91506020830135614da2816158e8565b809150509250929050565b600080600080600060a08688031215614dc4578081fd5b8535614dcf816158e8565b94506020860135614ddf816158e8565b93506040860135614def816158e8565b94979396509394606081013594506080013592915050565b600080600060608486031215614e1b578283fd5b8335614e26816158e8565b92506020840135614e36816158e8565b929592945050506040919091013590565b600080600060608486031215614e5b578283fd5b8335614e66816158e8565b9250602084013591506040840135614e7d8161590b565b809150509250925092565b60008060008060808587031215614e9d578182fd5b8435614ea8816158e8565b9350602085013592506040850135614ebf8161590b565b9396929550929360600135925050565b600080600080600080600060e0888a031215614ee9578485fd5b87356001600160401b03811115614efe578586fd5b8801601f81018a13614f0e578586fd5b80356020614f23614f1e83615774565b615744565b8083825282820191508285018e848660051b8801011115614f42578a8bfd5b8a95505b84861015614f6d578035614f59816158e8565b835260019590950194918301918301614f46565b509a50614f7d90508b8201614d03565b9850505050614f8e60408901614d03565b9450614f9c60608901614d03565b9350614faa60808901614d03565b9250614fb860a08901614d03565b9150614fc660c08901614d2a565b905092959891949750929550565b60006020808385031215614fe6578182fd5b82516001600160401b03811115614ffb578283fd5b8301601f8101851361500b578283fd5b8051615019614f1e82615774565b80828252848201915084840188868560051b8701011115615038578687fd5b8694505b8385101561454957805183526001949094019391850191850161503c565b6000806020838503121561506c578182fd5b82356001600160401b0380821115615082578384fd5b818501915085601f830112615095578384fd5b8135818111156150a3578485fd5b8660208260051b85010111156150b7578485fd5b60209290920196919550909350505050565b6000602082840312156150da578081fd5b8151612cc6816158fd565b6000608082840312156150f6578081fd5b604051608081016001600160401b0381118282101715615118576151186158d2565b6040528251615126816158e8565b808252506020830151602082015260408301516040820152606083015160608201528091505092915050565b600060408284031215615163578081fd5b604080519081016001600160401b0381118282101715615185576151856158d2565b604052825181526020928301519281019290925250919050565b6000806000606084860312156151b3578081fd5b6151bc84614d13565b92506151ca60208501614d13565b91506040840151614e7d8161590b565b6000602082840312156151eb578081fd5b5035919050565b600060208284031215615203578081fd5b5051919050565b6000806040838503121561521c578182fd5b505080516020909101519092909150565b600080600060608486031215615241578081fd5b8351925060208401519150604084015190509250925092565b60006020828403121561526b578081fd5b8135612cc68161590b565b60008060408385031215615288578182fd5b8235614d928161590b565b6000806000606084860312156152a7578081fd5b8335614e268161590b565b600080604083850312156152c4578182fd5b82356152cf8161590b565b946020939093013593505050565b600080600080608085870312156152f2578182fd5b84356152fd8161590b565b93506020850135925060408501359150606085013561531b816158fd565b939692955090935050565b6000806000806080858703121561533b578182fd5b84356153468161590b565b966020860135965060408601359560600135945092505050565b6000815180845260208085019450808401835b838110156153985781516001600160a01b031687529582019590820190600101615373565b509495945050505050565b600082516153b5818460208701615851565b9190910192915050565b6001600160a01b0391909116815260200190565b6001600160a01b0392831681529116602082015260400190565b6001600160a01b03929092168252602082015260400190565b60408101818460005b60018110156154375781516001600160a01b031683526020928301929091019060010161540f565b50505060208083018460005b600181101561546057815183529183019190830190600101615443565b505050509392505050565b602081526000612cc66020830184615360565b6020808252825182820181905260009190848201906040850190845b818110156154b65783518352928401929184019160010161549a565b50909695505050505050565b60208101600d83106154e457634e487b7160e01b600052602160045260246000fd5b91905290565b6020815260008251806020840152615509816040850160208701615851565b601f01601f19169190910160400192915050565b60208082526013908201527210d95a5b1a5b99d31a5b5a5d14995858da1959606a1b604082015260600190565b6020808252602e908201527f496e697469616c697a61626c653a20636f6e747261637420697320616c72656160408201526d191e481a5b9a5d1a585b1a5e995960921b606082015260800190565b6020808252600b908201526a626164206164647265737360a81b604082015260600190565b602080825260129082015271141bdbdb08191bd95cdb89dd08195e1a5cdd60721b604082015260600190565b6020808252602e908201527f436f6e74726f6c6c65643a3a6f6e6c794d616e616765723a2043616c6c65722060408201526d34b9903737ba1036b0b730b3b2b960911b606082015260800190565b60208082526034908201527f436f6e74726f6c6c65643a3a6f6e6c79436f6e74726f6c6c65723a2043616c6c60408201527332b91034b9903737ba1031b7b73a3937b63632b960611b606082015260800190565b60208082526022908201527f616d6f756e74496e206d7573742062652067726561746572207468616e207a65604082015261726f60f01b606082015260800190565b9182526001600160a01b0316602082015260400190565b918252602082015260400190565b85815284602082015260a06040820152600061571160a0830186615360565b6001600160a01b0394909416606083015250608001529392505050565b63ffffffff929092168252602082015260400190565b604051601f8201601f191681016001600160401b038111828210171561576c5761576c6158d2565b604052919050565b60006001600160401b0382111561578d5761578d6158d2565b5060051b60200190565b600082198211156157aa576157aa6158bc565b500190565b600063ffffffff8083168185168083038211156157ce576157ce6158bc565b01949350505050565b6000826157f257634e487b7160e01b81526012600452602481fd5b500490565b6000816000190483118215151615615811576158116158bc565b500290565b600062ffffff83811690831681811015615832576158326158bc565b039392505050565b60008282101561584c5761584c6158bc565b500390565b60005b8381101561586c578181015183820152602001615854565b83811115611aca5750506000910152565b6000600019821415615891576158916158bc565b5060010190565b600063ffffffff808316818114156158b2576158b26158bc565b6001019392505050565b634e487b7160e01b600052601160045260246000fd5b634e487b7160e01b600052604160045260246000fd5b6001600160a01b038116811461139257600080fd5b801515811461139257600080fd5b63ffffffff8116811461139257600080fdfe6fb183d14e6407db4dfb55deb83841283e9e3015e3aabe210d446b16f1ce0937a26469706673582212203d3998a285656d192f67150bd79cd4f00e916a0aef55557d89f0d7db6ac7e26064736f6c63430008040033",
  "devdoc": {
    "kind": "dev",
    "methods": {
      "deposit(address,uint256,uint32)": {
        "params": {
          "amount": "The amount of the token being deposited",
          "tokenAddress": "The address of the deposited token"
        }
      },
      "getAmountOut(address,address,uint256)": {
        "params": {
          "amountIn": "The exact amount of the input to swap",
          "tokenIn": "The address of the input token",
          "tokenOut": "The address of the output token"
        },
        "returns": {
          "amountOut": "The estimated amount of tokenOut to receive"
        }
      },
      "getAmountOutMinimum(address,address,uint256)": {
        "params": {
          "amountIn": "The exact amount of the input to swap",
          "tokenIn": "The address of the input token",
          "tokenOut": "The address of the output token"
        },
        "returns": {
          "amountOutMinimum": "The minimum amount of tokenOut to receive, factoring in allowable slippage"
        }
      },
      "getBalance(uint32,address)": {
        "returns": {
          "_0": "tokenAddress The address of the token to get the balance of"
        }
      },
      "getPendingYield(uint32)": {
        "details": "Returns total amount of pending yield in SUSHI rewards",
        "params": {
          "poolId": "the masterchef pool to retrieve yield for"
        },
        "returns": {
          "amounts": "Amounts of pending yield",
          "tokens": "Token addresses of pending yield"
        }
      },
      "harvestYield()": {
        "details": "Harvests token yield from the integration"
      },
      "incrementBalance(uint32,address,uint256)": {
        "params": {
          "amount": "The amount of the token being deposited",
          "token": "The address of the deposited token"
        }
      },
      "initialize(address[],address,address,address,address,address,uint24)": {
        "params": {
          "controllers_": "The address of the controlling contract",
          "factoryAddress_": "The address of the SushiSwap factory contract",
          "swapRouterAddress_": "The address of the Sushi swap router contract"
        }
      },
      "isPoolExist(address,address)": {
        "params": {
          "_tokenA": "The address of the first  token from the token pair",
          "_tokenB": "The address of the second token from the token pair return true if pool exist else overwise"
        }
      },
      "rebalancePool(uint32,uint256,uint256,uint256)": {
        "params": {
          "maxSellTokenA": "max amount of tokenA to sell (to limit rebalancing)",
          "maxSellTokenB": "max amount of tokenB to sell (to limit rebalancing)",
          "poolId": "The ID of the pool to rebalance",
          "ratioX1000": "reserves ratio to control the price slippage"
        }
      },
      "swapExactInput(address,address,address,uint256,uint256)": {
        "params": {
          "_amountIn": "The exact amount of the input to swap",
          "_amountOutMin": "The minimum amount of tokenOut to receive from the swap",
          "_recipient": "The address of the token out recipient",
          "_tokenIn": "The address of the input token",
          "_tokenOut": "The address of the output token"
        },
        "returns": {
          "_0": "bool Indicates whether the swap succeeded"
        }
      },
      "withdraw(address,uint256,uint32)": {
        "params": {
          "amount": "The amoutn of the token to withdraw",
          "tokenAddress": "The address of the underlying token to withdraw"
        }
      }
    },
    "version": 1
  },
  "userdoc": {
    "events": {
      "CreatePool(address,address,uint32)": {
        "notice": "Events"
      }
    },
    "kind": "user",
    "methods": {
      "harvestYieldByPool(uint32,uint256,uint256,bool)": {
        "notice": "Harvest available yield for desired pool"
      },
      "rebalancePool(uint32,uint256,uint256,uint256)": {
        "notice": "Rebalances by attempting to swap up to max to get into position ratio"
      },
      "withdraw(address,uint256,uint32)": {
        "notice": "Withdraws token from the integration"
      }
    },
    "notice": "Integrates 0x Nodes to Tethys",
    "version": 1
  },
  "storageLayout": {
    "storage": [
      {
        "astId": 723,
        "contract": "contracts/yield-integrations/TethysIntegration.sol:TethysIntegration",
        "label": "_initialized",
        "offset": 0,
        "slot": "0",
        "type": "t_bool"
      },
      {
        "astId": 726,
        "contract": "contracts/yield-integrations/TethysIntegration.sol:TethysIntegration",
        "label": "_initializing",
        "offset": 1,
        "slot": "0",
        "type": "t_bool"
      },
      {
        "astId": 10147,
        "contract": "contracts/yield-integrations/TethysIntegration.sol:TethysIntegration",
        "label": "moduleMap",
        "offset": 2,
        "slot": "0",
        "type": "t_contract(IModuleMap)21221"
      },
      {
        "astId": 4666,
        "contract": "contracts/yield-integrations/TethysIntegration.sol:TethysIntegration",
        "label": "_controllers",
        "offset": 0,
        "slot": "1",
        "type": "t_mapping(t_address,t_bool)"
      },
      {
        "astId": 4669,
        "contract": "contracts/yield-integrations/TethysIntegration.sol:TethysIntegration",
        "label": "controllers",
        "offset": 0,
        "slot": "2",
        "type": "t_array(t_address)dyn_storage"
      },
      {
        "astId": 52122,
        "contract": "contracts/yield-integrations/TethysIntegration.sol:TethysIntegration",
        "label": "slippageNumerator",
        "offset": 0,
        "slot": "3",
        "type": "t_uint24"
      },
      {
        "astId": 52124,
        "contract": "contracts/yield-integrations/TethysIntegration.sol:TethysIntegration",
        "label": "factoryAddress",
        "offset": 3,
        "slot": "3",
        "type": "t_address"
      },
      {
        "astId": 52126,
        "contract": "contracts/yield-integrations/TethysIntegration.sol:TethysIntegration",
        "label": "swapRouterAddress",
        "offset": 0,
        "slot": "4",
        "type": "t_address"
      },
      {
        "astId": 52128,
        "contract": "contracts/yield-integrations/TethysIntegration.sol:TethysIntegration",
        "label": "masterChef",
        "offset": 0,
        "slot": "5",
        "type": "t_address"
      },
      {
        "astId": 52130,
        "contract": "contracts/yield-integrations/TethysIntegration.sol:TethysIntegration",
        "label": "sushi",
        "offset": 0,
        "slot": "6",
        "type": "t_address"
      },
      {
        "astId": 52132,
        "contract": "contracts/yield-integrations/TethysIntegration.sol:TethysIntegration",
        "label": "wethAddress",
        "offset": 0,
        "slot": "7",
        "type": "t_address"
      },
      {
        "astId": 52137,
        "contract": "contracts/yield-integrations/TethysIntegration.sol:TethysIntegration",
        "label": "pools",
        "offset": 0,
        "slot": "8",
        "type": "t_mapping(t_uint256,t_struct(Pool)19450_storage)"
      },
      {
        "astId": 52139,
        "contract": "contracts/yield-integrations/TethysIntegration.sol:TethysIntegration",
        "label": "poolCount",
        "offset": 0,
        "slot": "9",
        "type": "t_uint32"
      },
      {
        "astId": 52142,
        "contract": "contracts/yield-integrations/TethysIntegration.sol:TethysIntegration",
        "label": "poolIds",
        "offset": 0,
        "slot": "10",
        "type": "t_array(t_uint32)dyn_storage"
      },
      {
        "astId": 52146,
        "contract": "contracts/yield-integrations/TethysIntegration.sol:TethysIntegration",
        "label": "stakings",
        "offset": 0,
        "slot": "11",
        "type": "t_mapping(t_uint32,t_uint256)"
      },
      {
        "astId": 52152,
        "contract": "contracts/yield-integrations/TethysIntegration.sol:TethysIntegration",
        "label": "balances",
        "offset": 0,
        "slot": "12",
        "type": "t_mapping(t_uint256,t_mapping(t_address,t_uint256))"
      },
      {
        "astId": 52156,
        "contract": "contracts/yield-integrations/TethysIntegration.sol:TethysIntegration",
        "label": "priceCeilings",
        "offset": 0,
        "slot": "13",
        "type": "t_mapping(t_address,t_uint256)"
      },
      {
        "astId": 52160,
        "contract": "contracts/yield-integrations/TethysIntegration.sol:TethysIntegration",
        "label": "yieldBalances",
        "offset": 0,
        "slot": "14",
        "type": "t_mapping(t_uint32,t_uint256)"
      },
      {
        "astId": 52164,
        "contract": "contracts/yield-integrations/TethysIntegration.sol:TethysIntegration",
        "label": "harvestedYield",
        "offset": 0,
        "slot": "15",
        "type": "t_mapping(t_uint32,t_uint256)"
      },
      {
        "astId": 52168,
        "contract": "contracts/yield-integrations/TethysIntegration.sol:TethysIntegration",
        "label": "sushiBalances",
        "offset": 0,
        "slot": "16",
        "type": "t_mapping(t_uint32,t_uint256)"
      }
    ],
    "types": {
      "t_address": {
        "encoding": "inplace",
        "label": "address",
        "numberOfBytes": "20"
      },
      "t_array(t_address)dyn_storage": {
        "base": "t_address",
        "encoding": "dynamic_array",
        "label": "address[]",
        "numberOfBytes": "32"
      },
      "t_array(t_uint32)dyn_storage": {
        "base": "t_uint32",
        "encoding": "dynamic_array",
        "label": "uint32[]",
        "numberOfBytes": "32"
      },
      "t_bool": {
        "encoding": "inplace",
        "label": "bool",
        "numberOfBytes": "1"
      },
      "t_contract(IModuleMap)21221": {
        "encoding": "inplace",
        "label": "contract IModuleMap",
        "numberOfBytes": "20"
      },
      "t_mapping(t_address,t_bool)": {
        "encoding": "mapping",
        "key": "t_address",
        "label": "mapping(address => bool)",
        "numberOfBytes": "32",
        "value": "t_bool"
      },
      "t_mapping(t_address,t_uint256)": {
        "encoding": "mapping",
        "key": "t_address",
        "label": "mapping(address => uint256)",
        "numberOfBytes": "32",
        "value": "t_uint256"
      },
      "t_mapping(t_uint256,t_mapping(t_address,t_uint256))": {
        "encoding": "mapping",
        "key": "t_uint256",
        "label": "mapping(uint256 => mapping(address => uint256))",
        "numberOfBytes": "32",
        "value": "t_mapping(t_address,t_uint256)"
      },
      "t_mapping(t_uint256,t_struct(Pool)19450_storage)": {
        "encoding": "mapping",
        "key": "t_uint256",
        "label": "mapping(uint256 => struct IAMMIntegration.Pool)",
        "numberOfBytes": "32",
        "value": "t_struct(Pool)19450_storage"
      },
      "t_mapping(t_uint32,t_uint256)": {
        "encoding": "mapping",
        "key": "t_uint32",
        "label": "mapping(uint32 => uint256)",
        "numberOfBytes": "32",
        "value": "t_uint256"
      },
      "t_struct(Pool)19450_storage": {
        "encoding": "inplace",
        "label": "struct IAMMIntegration.Pool",
        "members": [
          {
            "astId": 19445,
            "contract": "contracts/yield-integrations/TethysIntegration.sol:TethysIntegration",
            "label": "tokenA",
            "offset": 0,
            "slot": "0",
            "type": "t_address"
          },
          {
            "astId": 19447,
            "contract": "contracts/yield-integrations/TethysIntegration.sol:TethysIntegration",
            "label": "tokenB",
            "offset": 0,
            "slot": "1",
            "type": "t_address"
          },
          {
            "astId": 19449,
            "contract": "contracts/yield-integrations/TethysIntegration.sol:TethysIntegration",
            "label": "positionID",
            "offset": 0,
            "slot": "2",
            "type": "t_uint256"
          }
        ],
        "numberOfBytes": "96"
      },
      "t_uint24": {
        "encoding": "inplace",
        "label": "uint24",
        "numberOfBytes": "3"
      },
      "t_uint256": {
        "encoding": "inplace",
        "label": "uint256",
        "numberOfBytes": "32"
      },
      "t_uint32": {
        "encoding": "inplace",
        "label": "uint32",
        "numberOfBytes": "4"
      }
    }
  }
}