{
  "address": "0x1202A7D07aEE092B55Cae5A2Abd30a2b15232b09",
  "abi": [
    {
      "anonymous": false,
      "inputs": [
        {
          "indexed": true,
          "internalType": "address",
          "name": "user",
          "type": "address"
        },
        {
          "indexed": false,
          "internalType": "address[]",
          "name": "tokens",
          "type": "address[]"
        },
        {
          "indexed": false,
          "internalType": "uint256[]",
          "name": "tokenAmounts",
          "type": "uint256[]"
        },
        {
          "indexed": false,
          "internalType": "uint256",
          "name": "ethAmount",
          "type": "uint256"
        }
      ],
      "name": "Deposit",
      "type": "event"
    },
    {
      "anonymous": false,
      "inputs": [
        {
          "indexed": true,
          "internalType": "uint256",
          "name": "strategyId",
          "type": "uint256"
        },
        {
          "indexed": true,
          "internalType": "address",
          "name": "user",
          "type": "address"
        },
        {
          "indexed": false,
          "internalType": "uint256",
          "name": "amount",
          "type": "uint256"
        }
      ],
      "name": "EnterStrategy",
      "type": "event"
    },
    {
      "anonymous": false,
      "inputs": [
        {
          "indexed": true,
          "internalType": "uint256",
          "name": "strategyId",
          "type": "uint256"
        },
        {
          "indexed": true,
          "internalType": "address",
          "name": "user",
          "type": "address"
        },
        {
          "indexed": false,
          "internalType": "uint256",
          "name": "tokenBurned",
          "type": "uint256"
        }
      ],
      "name": "ExitStrategy",
      "type": "event"
    },
    {
      "anonymous": false,
      "inputs": [
        {
          "indexed": false,
          "internalType": "bool",
          "name": "isPaused",
          "type": "bool"
        }
      ],
      "name": "Pause",
      "type": "event"
    },
    {
      "inputs": [
        {
          "internalType": "uint256",
          "name": "strategyID",
          "type": "uint256"
        },
        {
          "internalType": "address",
          "name": "user",
          "type": "address"
        },
        {
          "internalType": "address",
          "name": "token",
          "type": "address"
        },
        {
          "internalType": "uint256",
          "name": "amount",
          "type": "uint256"
        },
        {
          "internalType": "bool",
          "name": "enterStrat",
          "type": "bool"
        }
      ],
      "name": "_remoteStrategyExecution",
      "outputs": [],
      "stateMutability": "nonpayable",
      "type": "function"
    },
    {
      "inputs": [
        {
          "internalType": "address",
          "name": "controller",
          "type": "address"
        }
      ],
      "name": "addController",
      "outputs": [],
      "stateMutability": "nonpayable",
      "type": "function"
    },
    {
      "inputs": [
        {
          "internalType": "address",
          "name": "token",
          "type": "address"
        },
        {
          "internalType": "address[]",
          "name": "users",
          "type": "address[]"
        },
        {
          "internalType": "uint256[]",
          "name": "amounts",
          "type": "uint256[]"
        }
      ],
      "name": "airdrop",
      "outputs": [],
      "stateMutability": "nonpayable",
      "type": "function"
    },
    {
      "inputs": [
        {
          "internalType": "address",
          "name": "_recipient",
          "type": "address"
        },
        {
          "internalType": "uint256[]",
          "name": "_strategies",
          "type": "uint256[]"
        }
      ],
      "name": "claimEthRewards",
      "outputs": [
        {
          "internalType": "uint256",
          "name": "ethClaimed",
          "type": "uint256"
        }
      ],
      "stateMutability": "nonpayable",
      "type": "function"
    },
    {
      "inputs": [
        {
          "internalType": "uint256",
          "name": "",
          "type": "uint256"
        }
      ],
      "name": "controllers",
      "outputs": [
        {
          "internalType": "address",
          "name": "",
          "type": "address"
        }
      ],
      "stateMutability": "view",
      "type": "function"
    },
    {
      "inputs": [
        {
          "internalType": "address",
          "name": "depositor",
          "type": "address"
        },
        {
          "internalType": "address[]",
          "name": "tokens",
          "type": "address[]"
        },
        {
          "internalType": "uint256[]",
          "name": "amounts",
          "type": "uint256[]"
        },
        {
          "internalType": "uint256",
          "name": "ethAmount",
          "type": "uint256"
        },
        {
          "internalType": "bool",
          "name": "migration",
          "type": "bool"
        }
      ],
      "name": "deposit",
      "outputs": [],
      "stateMutability": "nonpayable",
      "type": "function"
    },
    {
      "inputs": [
        {
          "internalType": "uint256",
          "name": "strategyId",
          "type": "uint256"
        },
        {
          "internalType": "uint256",
          "name": "amount",
          "type": "uint256"
        }
      ],
      "name": "enterStrategy",
      "outputs": [],
      "stateMutability": "nonpayable",
      "type": "function"
    },
    {
      "inputs": [
        {
          "internalType": "uint256",
          "name": "strategyId",
          "type": "uint256"
        },
        {
          "internalType": "uint256",
          "name": "_amount",
          "type": "uint256"
        }
      ],
      "name": "exitStrategy",
      "outputs": [],
      "stateMutability": "nonpayable",
      "type": "function"
    },
    {
      "inputs": [],
      "name": "getAllControllers",
      "outputs": [
        {
          "internalType": "address[]",
          "name": "currentControllers",
          "type": "address[]"
        }
      ],
      "stateMutability": "view",
      "type": "function"
    },
    {
      "inputs": [
        {
          "internalType": "address[]",
          "name": "controllers_",
          "type": "address[]"
        },
        {
          "internalType": "address",
          "name": "moduleMap_",
          "type": "address"
        }
      ],
      "name": "initialize",
      "outputs": [],
      "stateMutability": "nonpayable",
      "type": "function"
    },
    {
      "inputs": [
        {
          "internalType": "address",
          "name": "controller",
          "type": "address"
        }
      ],
      "name": "isController",
      "outputs": [
        {
          "internalType": "bool",
          "name": "status",
          "type": "bool"
        }
      ],
      "stateMutability": "view",
      "type": "function"
    },
    {
      "inputs": [
        {
          "internalType": "address",
          "name": "asset",
          "type": "address"
        },
        {
          "internalType": "address[]",
          "name": "users",
          "type": "address[]"
        }
      ],
      "name": "migrate",
      "outputs": [],
      "stateMutability": "nonpayable",
      "type": "function"
    },
    {
      "inputs": [],
      "name": "moduleMap",
      "outputs": [
        {
          "internalType": "contract IModuleMap",
          "name": "",
          "type": "address"
        }
      ],
      "stateMutability": "view",
      "type": "function"
    },
    {
      "inputs": [],
      "name": "pause",
      "outputs": [],
      "stateMutability": "nonpayable",
      "type": "function"
    },
    {
      "inputs": [],
      "name": "paused",
      "outputs": [
        {
          "internalType": "bool",
          "name": "",
          "type": "bool"
        }
      ],
      "stateMutability": "view",
      "type": "function"
    },
    {
      "inputs": [
        {
          "internalType": "uint256",
          "name": "strategyId",
          "type": "uint256"
        }
      ],
      "name": "totalStrategyBalance",
      "outputs": [
        {
          "internalType": "uint256",
          "name": "",
          "type": "uint256"
        }
      ],
      "stateMutability": "view",
      "type": "function"
    },
    {
      "inputs": [
        {
          "internalType": "address",
          "name": "asset",
          "type": "address"
        }
      ],
      "name": "totalTokenBalance",
      "outputs": [
        {
          "internalType": "uint256",
          "name": "",
          "type": "uint256"
        }
      ],
      "stateMutability": "view",
      "type": "function"
    },
    {
      "inputs": [],
      "name": "unpause",
      "outputs": [],
      "stateMutability": "nonpayable",
      "type": "function"
    },
    {
      "inputs": [
        {
          "internalType": "address[]",
          "name": "assets",
          "type": "address[]"
        },
        {
          "internalType": "address",
          "name": "account",
          "type": "address"
        },
        {
          "internalType": "uint256[]",
          "name": "amounts",
          "type": "uint256[]"
        },
        {
          "internalType": "bool[]",
          "name": "add",
          "type": "bool[]"
        }
      ],
      "name": "updateUserInterconnectBalances",
      "outputs": [],
      "stateMutability": "nonpayable",
      "type": "function"
    },
    {
      "inputs": [
        {
          "internalType": "address[]",
          "name": "assets",
          "type": "address[]"
        },
        {
          "internalType": "address",
          "name": "account",
          "type": "address"
        },
        {
          "internalType": "uint256[]",
          "name": "amounts",
          "type": "uint256[]"
        },
        {
          "internalType": "bool[]",
          "name": "add",
          "type": "bool[]"
        }
      ],
      "name": "updateUserTokenBalances",
      "outputs": [],
      "stateMutability": "nonpayable",
      "type": "function"
    },
    {
      "inputs": [
        {
          "internalType": "address",
          "name": "asset",
          "type": "address"
        },
        {
          "internalType": "address",
          "name": "account",
          "type": "address"
        }
      ],
      "name": "userDeployableBalance",
      "outputs": [
        {
          "internalType": "uint256",
          "name": "",
          "type": "uint256"
        }
      ],
      "stateMutability": "view",
      "type": "function"
    },
    {
      "inputs": [
        {
          "internalType": "address",
          "name": "asset",
          "type": "address"
        },
        {
          "internalType": "address",
          "name": "account",
          "type": "address"
        }
      ],
      "name": "userInterconnectBalance",
      "outputs": [
        {
          "internalType": "uint256",
          "name": "",
          "type": "uint256"
        }
      ],
      "stateMutability": "view",
      "type": "function"
    },
    {
      "inputs": [
        {
          "internalType": "address",
          "name": "account",
          "type": "address"
        },
        {
          "internalType": "uint256",
          "name": "strategyId",
          "type": "uint256"
        }
      ],
      "name": "userStrategyBalance",
      "outputs": [
        {
          "internalType": "uint256",
          "name": "",
          "type": "uint256"
        }
      ],
      "stateMutability": "view",
      "type": "function"
    },
    {
      "inputs": [
        {
          "internalType": "address",
          "name": "asset",
          "type": "address"
        },
        {
          "internalType": "address",
          "name": "account",
          "type": "address"
        }
      ],
      "name": "userTokenBalance",
      "outputs": [
        {
          "internalType": "uint256",
          "name": "",
          "type": "uint256"
        }
      ],
      "stateMutability": "view",
      "type": "function"
    },
    {
      "inputs": [
        {
          "internalType": "address",
          "name": "recipient",
          "type": "address"
        },
        {
          "internalType": "address[]",
          "name": "tokens",
          "type": "address[]"
        },
        {
          "internalType": "uint256[]",
          "name": "amounts",
          "type": "uint256[]"
        },
        {
          "internalType": "bool",
          "name": "withdrawWethAsEth",
          "type": "bool"
        }
      ],
      "name": "withdraw",
      "outputs": [
        {
          "internalType": "uint256",
          "name": "ethWithdrawn",
          "type": "uint256"
        }
      ],
      "stateMutability": "nonpayable",
      "type": "function"
    },
    {
      "inputs": [
        {
          "internalType": "address",
          "name": "recipient",
          "type": "address"
        },
        {
          "internalType": "address[]",
          "name": "tokens",
          "type": "address[]"
        },
        {
          "internalType": "uint256[]",
          "name": "strategies",
          "type": "uint256[]"
        },
        {
          "internalType": "bool",
          "name": "withdrawWethAsEth",
          "type": "bool"
        }
      ],
      "name": "withdrawAllAndClaim",
      "outputs": [
        {
          "components": [
            {
              "internalType": "uint256[]",
              "name": "tokenAmounts",
              "type": "uint256[]"
            },
            {
              "internalType": "uint256",
              "name": "ethWithdrawn",
              "type": "uint256"
            },
            {
              "internalType": "uint256",
              "name": "ethClaimed",
              "type": "uint256"
            },
            {
              "internalType": "uint256",
              "name": "biosClaimed",
              "type": "uint256"
            }
          ],
          "internalType": "struct IUserPositions.WithdrawAllAndClaimResponse",
          "name": "_withdrawAllAndClaimResponse",
          "type": "tuple"
        }
      ],
      "stateMutability": "nonpayable",
      "type": "function"
    }
  ],
  "transactionHash": "0x977f10793628554d3aeafcf2b1185db803d0328170656e1c96b5c42554e50490",
  "args": [],
  "solcInputHash": "8691a89ebd8d69f8412923e433444233",
  "bytecode": "0x608060405234801561001057600080fd5b50615f5c80620000216000396000f3fe608060405234801561001057600080fd5b506004361061013e5760003560e01c8063025ff12f14610143578063047701e4146101585780630f0a1c6f1461016b57806327b8cc1b1461019a5780632dae18b3146101ad578063337993cb146101ce5780633f4ba83a146101e3578063462d0b2e146101eb578063558c811e146101fe5780635702ea2a146102115780635c975abb14610224578063671514eb14610241578063776f5a8d146102545780638456cb591461026757806395be05461461026f578063a7fc7a071461028f578063b429afeb146102a2578063b47064c8146102ce578063c3b2a7f4146102e1578063c4e50dd2146102f4578063df9b1af914610307578063e190fd2d14610340578063e88d4d0e14610353578063e94b0dd214610366578063f0f25dd514610379578063f54659921461038c575b600080fd5b6101566101513660046153f5565b61039f565b005b6101566101663660046153a3565b610763565b600054610184906201000090046001600160a01b031681565b604051610191919061596e565b60405180910390f35b6101566101a836600461583d565b610abc565b6101c06101bb36600461561b565b610d01565b604051908152602001610191565b6101d6610e0b565b6040516101919190615a75565b610156610e6d565b6101566101f93660046156e8565b610fb8565b6101c061020c366004615505565b611081565b61015661021f36600461572c565b611111565b6009546102319060ff1681565b6040519015158152602001610191565b6101c061024f36600461580d565b611511565b61015661026236600461558a565b61161b565b6101566116a0565b61028261027d366004615474565b6117ea565b6040516101919190615d07565b61015661029d366004615333565b611cf8565b6102316102b0366004615333565b6001600160a01b031660009081526001602052604090205460ff1690565b6101c06102dc36600461536b565b611ef0565b6101c06102ef3660046153a3565b611ffa565b61015661030236600461588d565b612085565b6101c061031536600461536b565b6001600160a01b03918216600090815260086020908152604080832093909416825291909152205490565b61015661034e36600461588d565b612384565b6101c061036136600461536b565b61251d565b61018461037436600461580d565b612658565b610156610387366004615646565b612682565b6101c061039a366004615333565b612a52565b600080546040516337c61fc560e11b8152620100009091046001600160a01b031691636f8c3f8a916103d49190600401615abe565b60206040518083038186803b1580156103ec57600080fd5b505afa158015610400573d6000803e3d6000fd5b505050506040513d601f19601f82011682018060405250810190610424919061534f565b6001600160a01b0316632f54bf6e336040518263ffffffff1660e01b815260040161044f919061596e565b60206040518083038186803b15801561046757600080fd5b505afa15801561047b573d6000803e3d6000fd5b505050506040513d601f19601f8201168201806040525081019061049f91906157c4565b6104c45760405162461bcd60e51b81526004016104bb90615b19565b60405180910390fd5b828181146105085760405162461bcd60e51b81526020600482015260116024820152700c2d2e4c8e4dee07440dad2e6dac2e8c6d607b1b60448201526064016104bb565b6000546040516337c61fc560e11b8152620100009091046001600160a01b031690636f8c3f8a9061053e90600390600401615abe565b60206040518083038186803b15801561055657600080fd5b505afa15801561056a573d6000803e3d6000fd5b505050506040513d601f19601f8201168201806040525081019061058e919061534f565b6001600160a01b03166358fcf37a876040518263ffffffff1660e01b81526004016105b9919061596e565b60206040518083038186803b1580156105d157600080fd5b505afa1580156105e5573d6000803e3d6000fd5b505050506040513d601f19601f8201168201806040525081019061060991906157c4565b6106255760405162461bcd60e51b81526004016104bb90615c0c565b60408051600180825281830190925260009160208083019080368337019050509050868160008151811061066957634e487b7160e01b600052603260045260246000fd5b6001600160a01b03929092166020928302919091019091015260408051600180825281830190925260009181602001602082028036833701905050905060005b83811015610758578585828181106106d157634e487b7160e01b600052603260045260246000fd5b90506020020135826000815181106106f957634e487b7160e01b600052603260045260246000fd5b60200260200101818152505061074888888381811061072857634e487b7160e01b600052603260045260246000fd5b905060200201602081019061073d9190615333565b848460006001612b93565b61075181615e59565b90506106a9565b505050505050505050565b600080546040516337c61fc560e11b8152620100009091046001600160a01b031691636f8c3f8a916107989190600401615abe565b60206040518083038186803b1580156107b057600080fd5b505afa1580156107c4573d6000803e3d6000fd5b505050506040513d601f19601f820116820180604052508101906107e8919061534f565b6001600160a01b0316632f54bf6e336040518263ffffffff1660e01b8152600401610813919061596e565b60206040518083038186803b15801561082b57600080fd5b505afa15801561083f573d6000803e3d6000fd5b505050506040513d601f19601f8201168201806040525081019061086391906157c4565b61087f5760405162461bcd60e51b81526004016104bb90615b19565b60005b81811015610ab657600660008484848181106108ae57634e487b7160e01b600052603260045260246000fd5b90506020020160208101906108c39190615333565b6001600160a01b0390811682526020808301939093526040918201600090812091881681529083528181205460059093529081209085858581811061091857634e487b7160e01b600052603260045260246000fd5b905060200201602081019061092d9190615333565b6001600160a01b03166001600160a01b03168152602001908152602001600020541115610a31576006600084848481811061097857634e487b7160e01b600052603260045260246000fd5b905060200201602081019061098d9190615333565b6001600160a01b039081168252602080830193909352604091820160009081209188168152908352818120546005909352908120908585858181106109e257634e487b7160e01b600052603260045260246000fd5b90506020020160208101906109f79190615333565b6001600160a01b03166001600160a01b031681526020019081526020016000206000828254610a269190615e16565b90915550610aa49050565b6001600160a01b038416600090815260056020526040812090848484818110610a6a57634e487b7160e01b600052603260045260246000fd5b9050602002016020810190610a7f9190615333565b6001600160a01b03166001600160a01b03168152602001908152602001600020600090555b80610aae81615e59565b915050610882565b50505050565b3360009081526001602052604090205460ff16610aeb5760405162461bcd60e51b81526004016104bb90615c68565b8015610c0957610afc858584613453565b6000546040516337c61fc560e11b8152620100009091046001600160a01b031690636f8c3f8a90610b3290600890600401615abe565b60206040518083038186803b158015610b4a57600080fd5b505afa158015610b5e573d6000803e3d6000fd5b505050506040513d601f19601f82011682018060405250810190610b82919061534f565b6001600160a01b031663cbb8b12c8685856040518463ffffffff1660e01b8152600401610bb193929190615d4d565b602060405180830381600087803b158015610bcb57600080fd5b505af1158015610bdf573d6000803e3d6000fd5b505050506040513d601f19601f82011682018060405250810190610c039190615825565b50610cfa565b610c148585846135fd565b6000546040516337c61fc560e11b8152620100009091046001600160a01b031690636f8c3f8a90610c4a90600890600401615abe565b60206040518083038186803b158015610c6257600080fd5b505afa158015610c76573d6000803e3d6000fd5b505050506040513d601f19601f82011682018060405250810190610c9a919061534f565b6040516301e6c7e360e31b815260048101879052602481018490526001600160a01b039190911690630f363f18906044015b600060405180830381600087803b158015610ce657600080fd5b505af1158015610758573d6000803e3d6000fd5b5050505050565b600080546040516337c61fc560e11b8152620100009091046001600160a01b031690636f8c3f8a90610d3890600690600401615abe565b60206040518083038186803b158015610d5057600080fd5b505afa158015610d64573d6000803e3d6000fd5b505050506040513d601f19601f82011682018060405250810190610d88919061534f565b6001600160a01b031662fdd58e84846040518363ffffffff1660e01b8152600401610db49291906159f1565b60206040518083038186803b158015610dcc57600080fd5b505afa158015610de0573d6000803e3d6000fd5b505050506040513d601f19601f82011682018060405250810190610e049190615825565b9392505050565b60606002805480602002602001604051908101604052809291908181526020018280548015610e6357602002820191906000526020600020905b81546001600160a01b03168152600190910190602001808311610e45575b5050505050905090565b600080546040516337c61fc560e11b8152620100009091046001600160a01b031691636f8c3f8a91610ea29190600401615abe565b60206040518083038186803b158015610eba57600080fd5b505afa158015610ece573d6000803e3d6000fd5b505050506040513d601f19601f82011682018060405250810190610ef2919061534f565b6001600160a01b0316632f54bf6e336040518263ffffffff1660e01b8152600401610f1d919061596e565b60206040518083038186803b158015610f3557600080fd5b505afa158015610f49573d6000803e3d6000fd5b505050506040513d601f19601f82011682018060405250810190610f6d91906157c4565b610f895760405162461bcd60e51b81526004016104bb90615b19565b6009805460ff1916905560405160008152600080516020615f07833981519152906020015b60405180910390a1565b600054610100900460ff16610fd35760005460ff1615610fdb565b610fdb61382a565b61103e5760405162461bcd60e51b815260206004820152602e60248201527f496e697469616c697a61626c653a20636f6e747261637420697320616c72656160448201526d191e481a5b9a5d1a585b1a5e995960921b60648201526084016104bb565b600054610100900460ff16158015611060576000805461ffff19166101011790555b61106a838361383b565b801561107c576000805461ff00191690555b505050565b60095460009060ff16156110a75760405162461bcd60e51b81526004016104bb90615b88565b3360009081526001602052604090205460ff166110d65760405162461bcd60e51b81526004016104bb90615c68565b6001600160a01b0385166110fc5760405162461bcd60e51b81526004016104bb90615b63565b61110885858585613990565b95945050505050565b3360009081526001602052604090205460ff166111405760405162461bcd60e51b81526004016104bb90615c68565b6001600160a01b0383166111665760405162461bcd60e51b81526004016104bb90615b63565b81518451146111de5760405162461bcd60e51b815260206004820152604a6024820152600080516020615ee783398151915260448201527f6e6e65637442616c616e6365733a20617272617973206d7573742062652065716064820152690eac2d840d8cadccee8d60b31b608482015260a4016104bb565b60005b8451811015610cfa5760006008600087848151811061121057634e487b7160e01b600052603260045260246000fd5b60200260200101516001600160a01b03166001600160a01b031681526020019081526020016000206000866001600160a01b03166001600160a01b0316815260200190815260200160002054905083828151811061127e57634e487b7160e01b600052603260045260246000fd5b6020026020010151600014156113255760405162461bcd60e51b815260206004820152606c6024820152600080516020615ee783398151915260448201527f6e6e65637442616c616e6365733a204d7573742068617665206120706f73697460648201527f697665206f72206e65676174697665206e756d62657220746f206368616e676560848201526b207468652062616c616e636560a01b60a482015260c4016104bb565b600083838151811061134757634e487b7160e01b600052603260045260246000fd5b60200260200101511561138e5784838151811061137457634e487b7160e01b600052603260045260246000fd5b6020026020010151826113879190615dbf565b905061148a565b818584815181106113af57634e487b7160e01b600052603260045260246000fd5b602002602001015111156114545760405162461bcd60e51b815260206004820152606c6024820152600080516020615ee783398151915260448201527f6e6e65637442616c616e6365733a20416d6f756e7420746f207265647563652060648201527f62616c616e6365206d757374206265206e6f206d6f7265207468616e2063757260848201526b72656e742062616c616e636560a01b60a482015260c4016104bb565b84838151811061147457634e487b7160e01b600052603260045260246000fd5b6020026020010151826114879190615e16565b90505b80600860008986815181106114af57634e487b7160e01b600052603260045260246000fd5b60200260200101516001600160a01b03166001600160a01b031681526020019081526020016000206000886001600160a01b03166001600160a01b031681526020019081526020016000208190555050508061150a90615e59565b90506111e1565b600080546040516337c61fc560e11b8152620100009091046001600160a01b031690636f8c3f8a9061154890600690600401615abe565b60206040518083038186803b15801561156057600080fd5b505afa158015611574573d6000803e3d6000fd5b505050506040513d601f19601f82011682018060405250810190611598919061534f565b6001600160a01b031663bd85b039836040518263ffffffff1660e01b81526004016115c591815260200190565b60206040518083038186803b1580156115dd57600080fd5b505afa1580156115f1573d6000803e3d6000fd5b505050506040513d601f19601f820116820180604052508101906116159190615825565b92915050565b3360009081526001602052604090205460ff1661164a5760405162461bcd60e51b81526004016104bb90615c68565b60095460ff161561166d5760405162461bcd60e51b81526004016104bb90615b88565b6001600160a01b0385166116935760405162461bcd60e51b81526004016104bb90615b63565b610cfa8585858585612b93565b600080546040516337c61fc560e11b8152620100009091046001600160a01b031691636f8c3f8a916116d59190600401615abe565b60206040518083038186803b1580156116ed57600080fd5b505afa158015611701573d6000803e3d6000fd5b505050506040513d601f19601f82011682018060405250810190611725919061534f565b6001600160a01b0316632f54bf6e336040518263ffffffff1660e01b8152600401611750919061596e565b60206040518083038186803b15801561176857600080fd5b505afa15801561177c573d6000803e3d6000fd5b505050506040513d601f19601f820116820180604052508101906117a091906157c4565b6117bc5760405162461bcd60e51b81526004016104bb90615b19565b6009805460ff19166001908117909155604051908152600080516020615f0783398151915290602001610fae565b6118156040518060800160405280606081526020016000815260200160008152602001600081525090565b3360009081526001602052604090205460ff166118445760405162461bcd60e51b81526004016104bb90615c68565b6001600160a01b03871661186a5760405162461bcd60e51b81526004016104bb90615b63565b600080546040516337c61fc560e11b8152620100009091046001600160a01b031690636f8c3f8a906118a190600390600401615abe565b60206040518083038186803b1580156118b957600080fd5b505afa1580156118cd573d6000803e3d6000fd5b505050506040513d601f19601f820116820180604052508101906118f1919061534f565b90506000816001600160a01b03166344fc9b566040518163ffffffff1660e01b815260040160206040518083038186803b15801561192e57600080fd5b505afa158015611942573d6000803e3d6000fd5b505050506040513d601f19601f82011682018060405250810190611966919061534f565b600080546040516337c61fc560e11b81529293509091620100009091046001600160a01b031690636f8c3f8a906119a290600d90600401615abe565b60206040518083038186803b1580156119ba57600080fd5b505afa1580156119ce573d6000803e3d6000fd5b505050506040513d601f19601f820116820180604052508101906119f2919061534f565b905060405180608001604052808a8a90506001600160401b03811115611a2857634e487b7160e01b600052604160045260246000fd5b604051908082528060200260200182016040528015611a51578160200160208202803683370190505b50815260200160008152602001600081526020016000815250935060005b88811015611af557611ab68a8a83818110611a9a57634e487b7160e01b600052603260045260246000fd5b9050602002016020810190611aaf9190615333565b8c85614500565b8551805183908110611ad857634e487b7160e01b600052603260045260246000fd5b602090810291909101015280611aed81615e59565b915050611a6f565b5060405163699bdca960e01b81526001600160a01b0382169063699bdca990611b22908d9060040161596e565b602060405180830381600087803b158015611b3c57600080fd5b505af1158015611b50573d6000803e3d6000fd5b505050506040513d601f19601f82011682018060405250810190611b749190615825565b84606001818151611b859190615dbf565b91508181525050611bcd8a8a8a808060200260200160405190810160405280939291908181526020018383602002808284376000920191909152505088519150899050613990565b6020850152600080546040516337c61fc560e11b8152620100009091046001600160a01b031690636f8c3f8a90611c0990600590600401615abe565b60206040518083038186803b158015611c2157600080fd5b505afa158015611c35573d6000803e3d6000fd5b505050506040513d601f19601f82011682018060405250810190611c59919061534f565b6001600160a01b03166354ed0e598c6040518263ffffffff1660e01b8152600401611c84919061596e565b60206040518083038186803b158015611c9c57600080fd5b505afa158015611cb0573d6000803e3d6000fd5b505050506040513d601f19601f82011682018060405250810190611cd49190615825565b1115611ceb57611ce58a888861455b565b60408501525b5050509695505050505050565b600080546040516337c61fc560e11b8152620100009091046001600160a01b031691636f8c3f8a91611d2d9190600401615abe565b60206040518083038186803b158015611d4557600080fd5b505afa158015611d59573d6000803e3d6000fd5b505050506040513d601f19601f82011682018060405250810190611d7d919061534f565b6001600160a01b0316632f54bf6e336040518263ffffffff1660e01b8152600401611da8919061596e565b60206040518083038186803b158015611dc057600080fd5b505afa158015611dd4573d6000803e3d6000fd5b505050506040513d601f19601f82011682018060405250810190611df891906157c4565b611e145760405162461bcd60e51b81526004016104bb90615b19565b6001600160a01b03811660009081526001602081905260408220805460ff19169091179055805b600254811015611e9a5760028181548110611e6657634e487b7160e01b600052603260045260246000fd5b6000918252602090912001546001600160a01b0384811691161415611e8a57600191505b611e9381615e59565b9050611e3b565b5080611eec57600280546001810182556000919091527f405787fa12a823e0f2b7631cc41b3ba8828b3321ca811111fa75cd3aa3bb5ace0180546001600160a01b0319166001600160a01b0384161790555b5050565b600080546040516337c61fc560e11b815282916201000090046001600160a01b031690636f8c3f8a90611f2890600390600401615abe565b60206040518083038186803b158015611f4057600080fd5b505afa158015611f54573d6000803e3d6000fd5b505050506040513d601f19601f82011682018060405250810190611f78919061534f565b90506000816001600160a01b03166344fc9b566040518163ffffffff1660e01b815260040160206040518083038186803b158015611fb557600080fd5b505afa158015611fc9573d6000803e3d6000fd5b505050506040513d601f19601f82011682018060405250810190611fed919061534f565b9050611108858583614500565b3360009081526001602052604081205460ff166120295760405162461bcd60e51b81526004016104bb90615c68565b60095460ff161561204c5760405162461bcd60e51b81526004016104bb90615b88565b6001600160a01b0384166120725760405162461bcd60e51b81526004016104bb90615b63565b61207d84848461455b565b949350505050565b60095460ff16156120a85760405162461bcd60e51b81526004016104bb90615b88565b600081116121075760405162461bcd60e51b815260206004820152602660248201527f656e74657220616d6f756e74206d7573742062652067726561746572207468616044820152656e207a65726f60d01b60648201526084016104bb565b600082116121275760405162461bcd60e51b81526004016104bb90615bb6565b612132823383613453565b600061213d83614663565b600080546040516337c61fc560e11b81529293509091620100009091046001600160a01b031690636f8c3f8a9061217990600890600401615abe565b60206040518083038186803b15801561219157600080fd5b505afa1580156121a5573d6000803e3d6000fd5b505050506040513d601f19601f820116820180604052508101906121c9919061534f565b6001600160a01b031663cbb8b12c8584866040518463ffffffff1660e01b81526004016121f893929190615d4d565b602060405180830381600087803b15801561221257600080fd5b505af1158015612226573d6000803e3d6000fd5b505050506040513d601f19601f8201168201806040525081019061224a9190615825565b90508015610ab657600080546040516337c61fc560e11b8152620100009091046001600160a01b031690636f8c3f8a9061228990600790600401615abe565b60206040518083038186803b1580156122a157600080fd5b505afa1580156122b5573d6000803e3d6000fd5b505050506040513d601f19601f820116820180604052508101906122d9919061534f565b6001600160a01b031663830950c8846040518263ffffffff1660e01b8152600401612304919061596e565b60206040518083038186803b15801561231c57600080fd5b505afa158015612330573d6000803e3d6000fd5b505050506040513d601f19601f82011682018060405250810190612354919061534f565b60405163755be92d60e01b8152600481018490529091506001600160a01b0382169063755be92d90602401610ccc565b60095460ff16156123a75760405162461bcd60e51b81526004016104bb90615b88565b600081116124055760405162461bcd60e51b815260206004820152602560248201527f6578697420616d6f756e74206d7573742062652067726561746572207468616e604482015264207a65726f60d81b60648201526084016104bb565b600082116124255760405162461bcd60e51b81526004016104bb90615bb6565b6124308233836135fd565b6000546040516337c61fc560e11b8152620100009091046001600160a01b031690636f8c3f8a9061246690600890600401615abe565b60206040518083038186803b15801561247e57600080fd5b505afa158015612492573d6000803e3d6000fd5b505050506040513d601f19601f820116820180604052508101906124b6919061534f565b6040516301e6c7e360e31b815260048101849052602481018390526001600160a01b039190911690630f363f1890604401600060405180830381600087803b15801561250157600080fd5b505af1158015612515573d6000803e3d6000fd5b505050505050565b600080546040516337c61fc560e11b815282916201000090046001600160a01b031690636f8c3f8a9061255590600390600401615abe565b60206040518083038186803b15801561256d57600080fd5b505afa158015612581573d6000803e3d6000fd5b505050506040513d601f19601f820116820180604052508101906125a5919061534f565b90506000816001600160a01b03166344fc9b566040518163ffffffff1660e01b815260040160206040518083038186803b1580156125e257600080fd5b505afa1580156125f6573d6000803e3d6000fd5b505050506040513d601f19601f8201168201806040525081019061261a919061534f565b6001600160a01b0380871660009081526008602090815260408083209389168352929052205490915061264e868684614500565b6111089190615dbf565b6002818154811061266857600080fd5b6000918252602090912001546001600160a01b0316905081565b3360009081526001602052604090205460ff166126b15760405162461bcd60e51b81526004016104bb90615c68565b6001600160a01b0384166126d75760405162461bcd60e51b81526004016104bb90615b63565b8482146127465760405162461bcd60e51b81526020600482015260436024820152600080516020615ec783398151915260448201527f6c616e6365733a20617272617973206d75737420626520657175616c206c656e6064820152620cee8d60eb1b608482015260a4016104bb565b60005b85811015612a495760006005600089898581811061277757634e487b7160e01b600052603260045260246000fd5b905060200201602081019061278c9190615333565b6001600160a01b03908116825260208083019390935260409182016000908120918a168152925290205490508484838181106127d857634e487b7160e01b600052603260045260246000fd5b90506020020135600014156128775760405162461bcd60e51b81526020600482015260656024820152600080516020615ec783398151915260448201527f6c616e6365733a204d7573742068617665206120706f736974697665206f722060648201527f6e65676174697665206e756d62657220746f206368616e6765207468652062616084820152646c616e636560d81b60a482015260c4016104bb565b600083838151811061289957634e487b7160e01b600052603260045260246000fd5b6020026020010151156128df578585848181106128c657634e487b7160e01b600052603260045260246000fd5b90506020020135826128d89190615dbf565b90506129d2565b8186868581811061290057634e487b7160e01b600052603260045260246000fd5b90506020020135111561299d5760405162461bcd60e51b81526020600482015260656024820152600080516020615ec783398151915260448201527f6c616e6365733a20416d6f756e7420746f207265647563652062616c616e636560648201527f206d757374206265206e6f206d6f7265207468616e2063757272656e742062616084820152646c616e636560d81b60a482015260c4016104bb565b8585848181106129bd57634e487b7160e01b600052603260045260246000fd5b90506020020135826129cf9190615e16565b90505b80600560008b8b878181106129f757634e487b7160e01b600052603260045260246000fd5b9050602002016020810190612a0c9190615333565b6001600160a01b03908116825260208083019390935260409182016000908120918c168152925290205550612a42905081615e59565b9050612749565b50505050505050565b600080546040516337c61fc560e11b815282916201000090046001600160a01b031690636f8c3f8a90612a8a90600390600401615abe565b60206040518083038186803b158015612aa257600080fd5b505afa158015612ab6573d6000803e3d6000fd5b505050506040513d601f19601f82011682018060405250810190612ada919061534f565b90506000816001600160a01b03166344fc9b566040518163ffffffff1660e01b815260040160206040518083038186803b158015612b1757600080fd5b505afa158015612b2b573d6000803e3d6000fd5b505050506040513d601f19601f82011682018060405250810190612b4f919061534f565b9050806001600160a01b0316846001600160a01b03161415612b755761207d6000611511565b5050506001600160a01b031660009081526004602052604090205490565b600080546040516337c61fc560e11b8152620100009091046001600160a01b031690636f8c3f8a90612bca90600390600401615abe565b60206040518083038186803b158015612be257600080fd5b505afa158015612bf6573d6000803e3d6000fd5b505050506040513d601f19601f82011682018060405250810190612c1a919061534f565b90506000816001600160a01b03166344fc9b566040518163ffffffff1660e01b815260040160206040518083038186803b158015612c5757600080fd5b505afa158015612c6b573d6000803e3d6000fd5b505050506040513d601f19601f82011682018060405250810190612c8f919061534f565b905060006001600160a01b038216612ca8576000612d2e565b6000546040516337c61fc560e11b8152620100009091046001600160a01b031690636f8c3f8a90612cde90600d90600401615abe565b60206040518083038186803b158015612cf657600080fd5b505afa158015612d0a573d6000803e3d6000fd5b505050506040513d601f19601f82011682018060405250810190612d2e919061534f565b9050600087516001600160401b03811115612d5957634e487b7160e01b600052604160045260246000fd5b604051908082528060200260200182016040528015612d82578160200160208202803683370190505b5090508515612e6e576000846001600160a01b0316638b9c94896040518163ffffffff1660e01b815260040160206040518083038186803b158015612dc657600080fd5b505afa158015612dda573d6000803e3d6000fd5b505050506040513d601f19601f82011682018060405250810190612dfe919061534f565b6001600160a01b038116600090815260046020526040812080549293508992909190612e2b908490615dbf565b90915550506001600160a01b038082166000908152600560209081526040808320938e1683529290529081208054899290612e67908490615dbf565b9091555050505b60005b8851811015613402576000888281518110612e9c57634e487b7160e01b600052603260045260246000fd5b602002602001015111612f19576040805162461bcd60e51b81526020600482015260248101919091527f55736572506f736974696f6e733a3a6465706f7369743a204465706f7369742060448201527f616d6f756e74206d7573742062652067726561746572207468616e207a65726f60648201526084016104bb565b60008615612f5057888281518110612f4157634e487b7160e01b600052603260045260246000fd5b6020026020010151905061306b565b856001600160a01b03166358fcf37a8b8481518110612f7f57634e487b7160e01b600052603260045260246000fd5b60200260200101516040518263ffffffff1660e01b8152600401612fa3919061596e565b60206040518083038186803b158015612fbb57600080fd5b505afa158015612fcf573d6000803e3d6000fd5b505050506040513d601f19601f82011682018060405250810190612ff391906157c4565b61300f5760405162461bcd60e51b81526004016104bb90615c0c565b6130688b8b848151811061303357634e487b7160e01b600052603260045260246000fd5b60200260200101518b858151811061305b57634e487b7160e01b600052603260045260246000fd5b6020026020010151614767565b90505b6001600160a01b038416156131ac57836001600160a01b0316633e4cd0568b84815181106130a957634e487b7160e01b600052603260045260246000fd5b60200260200101516040518263ffffffff1660e01b81526004016130cd919061596e565b60206040518083038186803b1580156130e557600080fd5b505afa1580156130f9573d6000803e3d6000fd5b505050506040513d601f19601f8201168201806040525081019061311d91906157c4565b156131ac57836001600160a01b031663f45346dc8b848151811061315157634e487b7160e01b600052603260045260246000fd5b6020026020010151838e6040518463ffffffff1660e01b815260040161317993929190615a0a565b600060405180830381600087803b15801561319357600080fd5b505af11580156131a7573d6000803e3d6000fd5b505050505b808383815181106131cd57634e487b7160e01b600052603260045260246000fd5b602002602001018181525050846001600160a01b03168a838151811061320357634e487b7160e01b600052603260045260246000fd5b60200260200101516001600160a01b03161415613307576000546040516337c61fc560e11b8152620100009091046001600160a01b031690636f8c3f8a9061325090600690600401615abe565b60206040518083038186803b15801561326857600080fd5b505afa15801561327c573d6000803e3d6000fd5b505050506040513d601f19601f820116820180604052508101906132a0919061534f565b6001600160a01b031663156e29f68c6000846040518463ffffffff1660e01b81526004016132d093929190615a4e565b600060405180830381600087803b1580156132ea57600080fd5b505af11580156132fe573d6000803e3d6000fd5b505050506133ef565b80600460008c858151811061332c57634e487b7160e01b600052603260045260246000fd5b60200260200101516001600160a01b03166001600160a01b0316815260200190815260200160002060008282546133639190615dbf565b9250508190555080600560008c858151811061338f57634e487b7160e01b600052603260045260246000fd5b60200260200101516001600160a01b03166001600160a01b0316815260200190815260200160002060008d6001600160a01b03166001600160a01b0316815260200190815260200160002060008282546133e99190615dbf565b90915550505b50806133fa81615e59565b915050612e71565b50886001600160a01b03167f8a0e0d2e597a2c18e7266d384fcd37c696485c4f2d04f8f90cebe3cf9453a15b89838960405161344093929190615a88565b60405180910390a2505050505050505050565b600080546040516337c61fc560e11b8152620100009091046001600160a01b031690636f8c3f8a9061348a90600690600401615abe565b60206040518083038186803b1580156134a257600080fd5b505afa1580156134b6573d6000803e3d6000fd5b505050506040513d601f19601f820116820180604052508101906134da919061534f565b905060006134e785614663565b9050826134f682866000614500565b10156135145760405162461bcd60e51b81526004016104bb90615be0565b6001600160a01b0380821660009081526005602090815260408083209388168352929052908120805485929061354b908490615e16565b9091555050604051630ab714fb60e11b81526001600160a01b0383169063156e29f69061358090879089908890600401615a2d565b600060405180830381600087803b15801561359a57600080fd5b505af11580156135ae573d6000803e3d6000fd5b50505050836001600160a01b0316857fe9ceb6923f66ce66f692cfd9bf46a170a01c38ebc349d2b97b51543f1053cb44856040516135ee91815260200190565b60405180910390a35050505050565b600080546040516337c61fc560e11b8152620100009091046001600160a01b031690636f8c3f8a9061363490600690600401615abe565b60206040518083038186803b15801561364c57600080fd5b505afa158015613660573d6000803e3d6000fd5b505050506040513d601f19601f82011682018060405250810190613684919061534f565b90506000816001600160a01b031662fdd58e85876040518363ffffffff1660e01b81526004016136b59291906159f1565b60206040518083038186803b1580156136cd57600080fd5b505afa1580156136e1573d6000803e3d6000fd5b505050506040513d601f19601f820116820180604052508101906137059190615825565b9050828110156137275760405162461bcd60e51b81526004016104bb90615be0565b826005600061373588614663565b6001600160a01b03166001600160a01b031681526020019081526020016000206000866001600160a01b03166001600160a01b0316815260200190815260200160002060008282546137879190615dbf565b9091555050604051637a94c56560e11b81526001600160a01b0383169063f5298aca906137bc90879089908890600401615a2d565b600060405180830381600087803b1580156137d657600080fd5b505af11580156137ea573d6000803e3d6000fd5b50505050836001600160a01b0316857f916be3abd388904389fdac371952ee3867ef9b5ff5ab9eb5b685ff504db60c30856040516135ee91815260200190565b60006138353061491c565b15905090565b600054610100900460ff166138625760405162461bcd60e51b81526004016104bb90615cbc565b6001600160a01b0381166138885760405162461bcd60e51b81526004016104bb90615b63565b60005b82518110156138fe5760006001600160a01b03168382815181106138bf57634e487b7160e01b600052603260045260246000fd5b60200260200101516001600160a01b031614156138ee5760405162461bcd60e51b81526004016104bb90615b63565b6138f781615e59565b905061388b565b5060005b825181101561397257600180600085848151811061393057634e487b7160e01b600052603260045260246000fd5b6020908102919091018101516001600160a01b03168252810191909152604001600020805460ff191691151591909117905561396b81615e59565b9050613902565b50815161398690600290602085019061511c565b50611eec8161492b565b600080546040516337c61fc560e11b815282916201000090046001600160a01b031690636f8c3f8a906139c890600390600401615abe565b60206040518083038186803b1580156139e057600080fd5b505afa1580156139f4573d6000803e3d6000fd5b505050506040513d601f19601f82011682018060405250810190613a18919061534f565b90506000816001600160a01b0316638b9c94896040518163ffffffff1660e01b815260040160206040518083038186803b158015613a5557600080fd5b505afa158015613a69573d6000803e3d6000fd5b505050506040513d601f19601f82011682018060405250810190613a8d919061534f565b90506000826001600160a01b03166344fc9b566040518163ffffffff1660e01b815260040160206040518083038186803b158015613aca57600080fd5b505afa158015613ade573d6000803e3d6000fd5b505050506040513d601f19601f82011682018060405250810190613b02919061534f565b600080546040516337c61fc560e11b81529293509091620100009091046001600160a01b031690636f8c3f8a90613b3e90600d90600401615abe565b60206040518083038186803b158015613b5657600080fd5b505afa158015613b6a573d6000803e3d6000fd5b505050506040513d601f19601f82011682018060405250810190613b8e919061534f565b90508651885114613c215760405162461bcd60e51b815260206004820152605160248201527f55736572506f736974696f6e733a3a5f77697468647261773a20546f6b656e7360448201527f206172726179206c656e67746820646f6573206e6f74206d6174636820616d6f6064820152700eadce8e640c2e4e4c2f240d8cadccee8d607b1b608482015260a4016104bb565b60005b88518110156144f357878181518110613c4d57634e487b7160e01b600052603260045260246000fd5b602002602001015160001415613c62576144e1565b846001600160a01b0316630b3972cb8a8381518110613c9157634e487b7160e01b600052603260045260246000fd5b60200260200101516040518263ffffffff1660e01b8152600401613cb5919061596e565b60206040518083038186803b158015613ccd57600080fd5b505afa158015613ce1573d6000803e3d6000fd5b505050506040513d601f19601f82011682018060405250810190613d0591906157c4565b613d815760405162461bcd60e51b815260206004820152604160248201527f55736572506f736974696f6e733a3a5f77697468647261773a2054686973207460448201527f6f6b656e206973206e6f7420616363657074696e67207769746864726177616c6064820152607360f81b608482015260a4016104bb565b613db3898281518110613da457634e487b7160e01b600052603260045260246000fd5b60200260200101518b85614500565b888281518110613dd357634e487b7160e01b600052603260045260246000fd5b60200260200101511115613e4f5760405162461bcd60e51b815260206004820152603e60248201527f55736572506f736974696f6e733a3a5f77697468647261773a2057697468647260448201527f617720616d6f756e74206578636565647320757365722062616c616e6365000060648201526084016104bb565b6000613fdd8a8381518110613e7457634e487b7160e01b600052603260045260246000fd5b6020026020010151600060029054906101000a90046001600160a01b03166001600160a01b0316636f8c3f8a60076040518263ffffffff1660e01b8152600401613ebe9190615abe565b60206040518083038186803b158015613ed657600080fd5b505afa158015613eea573d6000803e3d6000fd5b505050506040513d601f19601f82011682018060405250810190613f0e919061534f565b6001600160a01b031663830950c88d8681518110613f3c57634e487b7160e01b600052603260045260246000fd5b60200260200101516040518263ffffffff1660e01b8152600401613f60919061596e565b60206040518083038186803b158015613f7857600080fd5b505afa158015613f8c573d6000803e3d6000fd5b505050506040513d601f19601f82011682018060405250810190613fb0919061534f565b8b8581518110613fd057634e487b7160e01b600052603260045260246000fd5b602002602001015161497c565b9050600089838151811061400157634e487b7160e01b600052603260045260246000fd5b6020026020010151821015614017575080614042565b89838151811061403757634e487b7160e01b600052603260045260246000fd5b602002602001015190505b856001600160a01b03168b848151811061406c57634e487b7160e01b600052603260045260246000fd5b60200260200101516001600160a01b03161480156140875750885b156140bb578983815181106140ac57634e487b7160e01b600052603260045260246000fd5b60200260200101519750614187565b600080546040516337c61fc560e11b815261418792620100009092046001600160a01b031691636f8c3f8a916140f49190600401615abe565b60206040518083038186803b15801561410c57600080fd5b505afa158015614120573d6000803e3d6000fd5b505050506040513d601f19601f82011682018060405250810190614144919061534f565b8d838e878151811061416657634e487b7160e01b600052603260045260246000fd5b60200260200101516001600160a01b0316614ef5909392919063ffffffff16565b6001600160a01b038416156142c857836001600160a01b0316633e4cd0568c85815181106141c557634e487b7160e01b600052603260045260246000fd5b60200260200101516040518263ffffffff1660e01b81526004016141e9919061596e565b60206040518083038186803b15801561420157600080fd5b505afa158015614215573d6000803e3d6000fd5b505050506040513d601f19601f8201168201806040525081019061423991906157c4565b156142c857836001600160a01b03166369328dec8c858151811061426d57634e487b7160e01b600052603260045260246000fd5b6020026020010151838f6040518463ffffffff1660e01b815260040161429593929190615a0a565b600060405180830381600087803b1580156142af57600080fd5b505af11580156142c3573d6000803e3d6000fd5b505050505b846001600160a01b03168b84815181106142f257634e487b7160e01b600052603260045260246000fd5b60200260200101516001600160a01b031614156143f6576000546040516337c61fc560e11b8152620100009091046001600160a01b031690636f8c3f8a9061433f90600690600401615abe565b60206040518083038186803b15801561435757600080fd5b505afa15801561436b573d6000803e3d6000fd5b505050506040513d601f19601f8201168201806040525081019061438f919061534f565b6001600160a01b031663f5298aca8d6000846040518463ffffffff1660e01b81526004016143bf93929190615a4e565b600060405180830381600087803b1580156143d957600080fd5b505af11580156143ed573d6000803e3d6000fd5b505050506144de565b80600560008d868151811061441b57634e487b7160e01b600052603260045260246000fd5b60200260200101516001600160a01b03166001600160a01b0316815260200190815260200160002060008e6001600160a01b03166001600160a01b0316815260200190815260200160002060008282546144759190615e16565b9250508190555080600460008d86815181106144a157634e487b7160e01b600052603260045260246000fd5b60200260200101516001600160a01b03166001600160a01b0316815260200190815260200160002060008282546144d89190615e16565b90915550505b50505b806144eb81615e59565b915050613c24565b5050505050949350505050565b6000816001600160a01b0316846001600160a01b0316141561452e57614527836000610d01565b9050610e04565b50506001600160a01b03918216600090815260056020908152604080832093909416825291909152205490565b600080546040516337c61fc560e11b8152620100009091046001600160a01b031690636f8c3f8a9061459290600590600401615abe565b60206040518083038186803b1580156145aa57600080fd5b505afa1580156145be573d6000803e3d6000fd5b505050506040513d601f19601f820116820180604052508101906145e2919061534f565b6001600160a01b031663c3b2a7f48585856040518463ffffffff1660e01b8152600401614611939291906159a6565b602060405180830381600087803b15801561462b57600080fd5b505af115801561463f573d6000803e3d6000fd5b505050506040513d601f19601f8201168201806040525081019061207d9190615825565b600080546040516337c61fc560e11b8152620100009091046001600160a01b031690636f8c3f8a9061469a90600690600401615abe565b60206040518083038186803b1580156146b257600080fd5b505afa1580156146c6573d6000803e3d6000fd5b505050506040513d601f19601f820116820180604052508101906146ea919061534f565b6001600160a01b0316631ee78e7e836040518263ffffffff1660e01b815260040161471791815260200190565b60206040518083038186803b15801561472f57600080fd5b505afa158015614743573d6000803e3d6000fd5b505050506040513d601f19601f82011682018060405250810190611615919061534f565b600080546040516337c61fc560e11b815282916201000090046001600160a01b031690636f8c3f8a9061479e908490600401615abe565b60206040518083038186803b1580156147b657600080fd5b505afa1580156147ca573d6000803e3d6000fd5b505050506040513d601f19601f820116820180604052508101906147ee919061534f565b6040516370a0823160e01b815290915084906000906001600160a01b038316906370a082319061482290869060040161596e565b60206040518083038186803b15801561483a57600080fd5b505afa15801561484e573d6000803e3d6000fd5b505050506040513d601f19601f820116820180604052508101906148729190615825565b90506148896001600160a01b038316888588614ef5565b6040516370a0823160e01b815281906001600160a01b038416906370a08231906148b790879060040161596e565b60206040518083038186803b1580156148cf57600080fd5b505afa1580156148e3573d6000803e3d6000fd5b505050506040513d601f19601f820116820180604052508101906149079190615825565b6149119190615e16565b979650505050505050565b6001600160a01b03163b151590565b600054610100900460ff166149525760405162461bcd60e51b81526004016104bb90615cbc565b600080546001600160a01b03909216620100000262010000600160b01b0319909216919091179055565b600080546040516337c61fc560e11b815282916201000090046001600160a01b031690636f8c3f8a906149b3908490600401615abe565b60206040518083038186803b1580156149cb57600080fd5b505afa1580156149df573d6000803e3d6000fd5b505050506040513d601f19601f82011682018060405250810190614a03919061534f565b6040516370a0823160e01b81529091506001600160a01b038616906370a0823190614a3290849060040161596e565b60206040518083038186803b158015614a4a57600080fd5b505afa158015614a5e573d6000803e3d6000fd5b505050506040513d601f19601f82011682018060405250810190614a829190615825565b915082821015614eed57600080546040516337c61fc560e11b8152620100009091046001600160a01b031690636f8c3f8a90614ac390600b90600401615abe565b60206040518083038186803b158015614adb57600080fd5b505afa158015614aef573d6000803e3d6000fd5b505050506040513d601f19601f82011682018060405250810190614b13919061534f565b90506000614b218486615e16565b90506000806001600160a01b0384166319145798898b6002614b448c6003615df7565b614b4e9190615dd7565b6040518463ffffffff1660e01b8152600401614b6c93929190615982565b604080518083038186803b158015614b8357600080fd5b505afa158015614b97573d6000803e3d6000fd5b505050506040513d601f19601f82011682018060405250810190614bbb91906157e0565b9250905080614bce575050505050610e04565b506000816002614bdf896003615df7565b614be99190615dd7565b614bf39085615df7565b614bfd9190615dd7565b90506000886001600160a01b03166370a08231876040518263ffffffff1660e01b8152600401614c2d919061596e565b60206040518083038186803b158015614c4557600080fd5b505afa158015614c59573d6000803e3d6000fd5b505050506040513d601f19601f82011682018060405250810190614c7d9190615825565b9050808211614c8c5781614c8e565b805b915080821115614cb35790508080614ca68186615df7565b614cb09190615dd7565b93505b6000808a6001600160a01b031663f7a54c806040518163ffffffff1660e01b8152600401604080518083038186803b158015614cee57600080fd5b505afa158015614d02573d6000803e3d6000fd5b505050506040513d601f19601f82011682018060405250810190614d2691906158ae565b604051631175be7760e31b81526001600160a01b038e811660048301528f8116602483015263ffffffff8084166044840152841660648301528b8116608483015260a4820188905260c482018a9052929450909250600091891690638badf3b89060e401602060405180830381600087803b158015614da457600080fd5b505af1158015614db8573d6000803e3d6000fd5b505050506040513d601f19601f82011682018060405250810190614ddc9190615825565b905060008a8e6001600160a01b03166370a082318c6040518263ffffffff1660e01b8152600401614e0d919061596e565b60206040518083038186803b158015614e2557600080fd5b505afa158015614e39573d6000803e3d6000fd5b505050506040513d601f19601f82011682018060405250810190614e5d9190615825565b614e679190615e16565b9050614e738286615e16565b9450614e7f818c615dbf565b604051636d5ecd0560e11b81526004810184905260248101839052909b506001600160a01b038e169063dabd9a0a90604401600060405180830381600087803b158015614ecb57600080fd5b505af1158015614edf573d6000803e3d6000fd5b505050505050505050505050505b509392505050565b610ab6846323b872dd60e01b858585604051602401614f1693929190615982565b60408051601f198184030181529190526020810180516001600160e01b03166001600160e01b0319909316929092179091526000614f9d826040518060400160405280602081526020017f5361666545524332303a206c6f772d6c6576656c2063616c6c206661696c6564815250856001600160a01b031661501a9092919063ffffffff16565b80519091501561107c5780806020019051810190614fbb91906157c4565b61107c5760405162461bcd60e51b815260206004820152602a60248201527f5361666545524332303a204552433230206f7065726174696f6e20646964206e6044820152691bdd081cdd58d8d9595960b21b60648201526084016104bb565b606061207d84846000858561502e8561491c565b61507a5760405162461bcd60e51b815260206004820152601d60248201527f416464726573733a2063616c6c20746f206e6f6e2d636f6e747261637400000060448201526064016104bb565b600080866001600160a01b031685876040516150969190615952565b60006040518083038185875af1925050503d80600081146150d3576040519150601f19603f3d011682016040523d82523d6000602084013e6150d8565b606091505b5091509150614911828286606083156150f2575081610e04565b8251156151025782518084602001fd5b8160405162461bcd60e51b81526004016104bb9190615ae6565b828054828255906000526020600020908101928215615171579160200282015b8281111561517157825182546001600160a01b0319166001600160a01b0390911617825560209092019160019091019061513c565b5061517d929150615181565b5090565b5b8082111561517d5760008155600101615182565b60008083601f8401126151a7578182fd5b5081356001600160401b038111156151bd578182fd5b6020830191508360208260051b85010111156151d857600080fd5b9250929050565b600082601f8301126151ef578081fd5b813560206152046151ff83615d9c565b615d6c565b80838252828201915082860187848660051b8901011115615223578586fd5b855b8581101561524a57813561523881615ea0565b84529284019290840190600101615225565b5090979650505050505050565b600082601f830112615267578081fd5b813560206152776151ff83615d9c565b80838252828201915082860187848660051b8901011115615296578586fd5b855b8581101561524a5781356152ab81615eb8565b84529284019290840190600101615298565b600082601f8301126152cd578081fd5b813560206152dd6151ff83615d9c565b80838252828201915082860187848660051b89010111156152fc578586fd5b855b8581101561524a578135845292840192908401906001016152fe565b805163ffffffff8116811461532e57600080fd5b919050565b600060208284031215615344578081fd5b8135610e0481615ea0565b600060208284031215615360578081fd5b8151610e0481615ea0565b6000806040838503121561537d578081fd5b823561538881615ea0565b9150602083013561539881615ea0565b809150509250929050565b6000806000604084860312156153b7578081fd5b83356153c281615ea0565b925060208401356001600160401b038111156153dc578182fd5b6153e886828701615196565b9497909650939450505050565b60008060008060006060868803121561540c578081fd5b853561541781615ea0565b945060208601356001600160401b0380821115615432578283fd5b61543e89838a01615196565b90965094506040880135915080821115615456578283fd5b5061546388828901615196565b969995985093965092949392505050565b6000806000806000806080878903121561548c578081fd5b863561549781615ea0565b955060208701356001600160401b03808211156154b2578283fd5b6154be8a838b01615196565b909750955060408901359150808211156154d6578283fd5b506154e389828a01615196565b90945092505060608701356154f781615eb8565b809150509295509295509295565b6000806000806080858703121561551a578384fd5b843561552581615ea0565b935060208501356001600160401b0380821115615540578485fd5b61554c888389016151df565b94506040870135915080821115615561578384fd5b5061556e878288016152bd565b925050606085013561557f81615eb8565b939692955090935050565b600080600080600060a086880312156155a1578283fd5b85356155ac81615ea0565b945060208601356001600160401b03808211156155c7578485fd5b6155d389838a016151df565b955060408801359150808211156155e8578485fd5b506155f5888289016152bd565b93505060608601359150608086013561560d81615eb8565b809150509295509295909350565b6000806040838503121561562d578182fd5b823561563881615ea0565b946020939093013593505050565b6000806000806000806080878903121561565e578384fd5b86356001600160401b0380821115615674578586fd5b6156808a838b01615196565b90985096506020890135915061569582615ea0565b909450604088013590808211156156aa578384fd5b6156b68a838b01615196565b909550935060608901359150808211156156ce578283fd5b506156db89828a01615257565b9150509295509295509295565b600080604083850312156156fa578182fd5b82356001600160401b0381111561570f578283fd5b61571b858286016151df565b925050602083013561539881615ea0565b60008060008060808587031215615741578182fd5b84356001600160401b0380821115615757578384fd5b615763888389016151df565b95506020870135915061577582615ea0565b9093506040860135908082111561578a578384fd5b615796888389016152bd565b935060608701359150808211156157ab578283fd5b506157b887828801615257565b91505092959194509250565b6000602082840312156157d5578081fd5b8151610e0481615eb8565b600080604083850312156157f2578182fd5b82516157fd81615eb8565b6020939093015192949293505050565b60006020828403121561581e578081fd5b5035919050565b600060208284031215615836578081fd5b5051919050565b600080600080600060a08688031215615854578283fd5b85359450602086013561586681615ea0565b9350604086013561587681615ea0565b925060608601359150608086013561560d81615eb8565b6000806040838503121561589f578182fd5b50508035926020909101359150565b600080604083850312156158c0578182fd5b6158c98361531a565b91506158d76020840161531a565b90509250929050565b6000815180845260208085019450808401835b838110156159185781516001600160a01b0316875295820195908201906001016158f3565b509495945050505050565b6000815180845260208085019450808401835b8381101561591857815187529582019590820190600101615936565b60008251615964818460208701615e2d565b9190910192915050565b6001600160a01b0391909116815260200190565b6001600160a01b039384168152919092166020820152604081019190915260600190565b6001600160a01b0384168152604060208201819052810182905260006001600160fb1b038311156159d5578081fd5b8260051b80856060850137919091016060019081529392505050565b6001600160a01b03929092168252602082015260400190565b6001600160a01b0393841681526020810192909252909116604082015260600190565b6001600160a01b039390931683526020830191909152604082015260600190565b6001600160a01b0393909316835263ffffffff919091166020830152604082015260600190565b602081526000610e0460208301846158e0565b606081526000615a9b60608301866158e0565b8281036020840152615aad8186615923565b915050826040830152949350505050565b60208101600e8310615ae057634e487b7160e01b600052602160045260246000fd5b91905290565b6020815260008251806020840152615b05816040850160208701615e2d565b601f01601f19169190910160400192915050565b6020808252602a908201527f436f6e74726f6c6c65643a3a6f6e6c794f776e65723a2043616c6c6572206973604082015269103737ba1037bbb732b960b11b606082015260800190565b6020808252600b908201526a626164206164647265737360a81b604082015260600190565b60208082526014908201527318dbdb9d1c9858dd1cc8185c99481c185d5cd95960621b604082015260600190565b60208082526010908201526f696e76616c696420737472617465677960801b604082015260600190565b602080825260129082015271696e73756666696369656e742066756e647360701b604082015260600190565b6020808252603c908201527f55736572506f736974696f6e733a3a6465706f7369743a205468697320746f6b60408201527b656e206973206e6f7420616363657074696e67206465706f7369747360201b606082015260800190565b60208082526034908201527f436f6e74726f6c6c65643a3a6f6e6c79436f6e74726f6c6c65723a2043616c6c60408201527332b91034b9903737ba1031b7b73a3937b63632b960611b606082015260800190565b6020808252602b908201527f496e697469616c697a61626c653a20636f6e7472616374206973206e6f74206960408201526a6e697469616c697a696e6760a81b606082015260800190565b602081526000825160806020840152615d2360a0840182615923565b90506020840151604084015260408401516060840152606084015160808401528091505092915050565b9283526001600160a01b03919091166020830152604082015260600190565b604051601f8201601f191681016001600160401b0381118282101715615d9457615d94615e8a565b604052919050565b60006001600160401b03821115615db557615db5615e8a565b5060051b60200190565b60008219821115615dd257615dd2615e74565b500190565b600082615df257634e487b7160e01b81526012600452602481fd5b500490565b6000816000190483118215151615615e1157615e11615e74565b500290565b600082821015615e2857615e28615e74565b500390565b60005b83811015615e48578181015183820152602001615e30565b83811115610ab65750506000910152565b6000600019821415615e6d57615e6d615e74565b5060010190565b634e487b7160e01b600052601160045260246000fd5b634e487b7160e01b600052604160045260246000fd5b6001600160a01b0381168114615eb557600080fd5b50565b8015158114615eb557600080fdfe55736572506f736974696f6e733a3a75706461746555736572546f6b656e426155736572506f736974696f6e733a3a75706461746555736572496e746572636f9422424b175dda897495a07b091ef74a3ef715cf6d866fc972954c1c7f459304a26469706673582212202da0a74c3010273ba86b9a41c93fab9c3424f20e2244dbdae516eb7985c242d564736f6c63430008040033",
  "devdoc": {
    "kind": "dev",
    "methods": {
      "enterStrategy(uint256,uint256)": {
        "params": {
          "amount": "Amount of native coin*",
          "strategyId": "The strategy to enter"
        }
      },
      "initialize(address[],address)": {
        "params": {
          "controllers_": "The addresses of the controlling contracts",
          "moduleMap_": "Address of the Module Map"
        }
      },
      "totalStrategyBalance(uint256)": {
        "details": "A passthrough to Strategy1155.totalSupply(strategyId);*",
        "params": {
          "strategyId": "An id of the strategy"
        }
      },
      "updateUserInterconnectBalances(address[],address,uint256[],bool[])": {
        "params": {
          "account": "user",
          "amounts": "list of amounts to update*",
          "assets": "list of tokens to update"
        }
      },
      "updateUserTokenBalances(address[],address,uint256[],bool[])": {
        "params": {
          "account": "user",
          "amounts": "list of amounts to update*",
          "assets": "list of tokens to update"
        }
      },
      "userDeployableBalance(address,address)": {
        "params": {
          "account": "Address of the user account*",
          "asset": "Address of the ERC20 token contract"
        }
      },
      "userInterconnectBalance(address,address)": {
        "params": {
          "account": "Address of the user account*",
          "asset": "Address of the ERC20 token contract"
        }
      },
      "userStrategyBalance(address,uint256)": {
        "details": "A passthrough to Strategy1155.balanceOf(account, strategyId)*",
        "params": {
          "account": "An address of the user",
          "strategyId": "An id of the strategy"
        }
      },
      "userTokenBalance(address,address)": {
        "params": {
          "account": "Address of the user account",
          "asset": "Address of the ERC20 token contract"
        },
        "returns": {
          "_0": "The amount that a user has deposited locally, but that isn't in the strategy*"
        }
      },
      "withdraw(address,address[],uint256[],bool)": {
        "params": {
          "amounts": "Array of token amounts",
          "recipient": "The address of the user withdrawing",
          "tokens": "Array of token the token addresses",
          "withdrawWethAsEth": "Boolean indicating whether should receive WETH balance as ETH*"
        }
      },
      "withdrawAllAndClaim(address,address[],uint256[],bool)": {
        "params": {
          "recipient": "The address of the user withdrawing tokens",
          "strategies": "Array of strategy IDs that user is claiming rewards from",
          "tokens": "Array of token address that user is exiting positions from",
          "withdrawWethAsEth": "Boolean indicating whether should receive WETH balance as ETH"
        },
        "returns": {
          "_withdrawAllAndClaimResponse": "/// WithdrawAllAndClaimResponse.tokenAmounts The amounts of each token being withdrawn /// WithdrawAllAndClaimResponse.ethWithdrawn The amount of ETH being withdrawn /// WithdrawAllAndClaimResponse.ethClaimed The amount of ETH being claimed from rewards /// WithdrawAllAndClaimResponse.biosClaimed The amount of BIOS being claimed from rewards*"
        }
      }
    },
    "stateVariables": {
      "_biosRewardsDuration": {
        "details": "This is deprecated - now live in BiosRewards.sol"
      },
      "_deployedBalances": {
        "details": "|-***-| Deprecated after tokenization |-***-|Use IStrategy1155.balanceOfBatch(user, _strategies[]) instead"
      },
      "_userStrategyBalances": {
        "details": "|-***-| Deprecated after tokenization |-***-|Use IStrategy1155.balanceOfBatch(user, _strategies[]) instead"
      }
    },
    "title": "User Positions",
    "version": 1
  },
  "userdoc": {
    "kind": "user",
    "methods": {
      "_remoteStrategyExecution(uint256,address,address,uint256,bool)": {
        "notice": "interconnections*"
      },
      "deposit(address,address[],uint256[],uint256,bool)": {
        "notice": "user cycle*"
      },
      "enterStrategy(uint256,uint256)": {
        "notice": "Adds a user's funds to a strategy to be deployed"
      },
      "totalTokenBalance(address)": {
        "notice": "getters*"
      },
      "updateUserInterconnectBalances(address[],address,uint256[],bool[])": {
        "notice": "Updates a user's interconnected balance. Only called by controlled contracts or relayer"
      },
      "updateUserTokenBalances(address[],address,uint256[],bool[])": {
        "notice": "Updates a user's local balance. Only called by controlled contracts or relayer"
      },
      "userDeployableBalance(address,address)": {
        "notice": "Returns the amount that a user can use for strategies (local balance + interconnect balance - deployed)"
      },
      "userInterconnectBalance(address,address)": {
        "notice": "Returns the amount that a user has interconnected"
      },
      "userTokenBalance(address,address)": {
        "notice": "Returns the amount that a user has deposited locally, but that isn't in a strategy"
      },
      "withdraw(address,address[],uint256[],bool)": {
        "notice": "User is allowed to withdraw tokens"
      },
      "withdrawAllAndClaim(address,address[],uint256[],bool)": {
        "notice": "Allows a user to withdraw entire balances of the specified tokens and claim rewards"
      }
    },
    "notice": "Allows users to deposit/withdraw erc20 tokens",
    "version": 1
  },
  "storageLayout": {
    "storage": [
      {
        "astId": 702,
        "contract": "contracts/core/UserPositions.sol:UserPositions",
        "label": "_initialized",
        "offset": 0,
        "slot": "0",
        "type": "t_bool"
      },
      {
        "astId": 705,
        "contract": "contracts/core/UserPositions.sol:UserPositions",
        "label": "_initializing",
        "offset": 1,
        "slot": "0",
        "type": "t_bool"
      },
      {
        "astId": 15684,
        "contract": "contracts/core/UserPositions.sol:UserPositions",
        "label": "moduleMap",
        "offset": 2,
        "slot": "0",
        "type": "t_contract(IModuleMap)29669"
      },
      {
        "astId": 9016,
        "contract": "contracts/core/UserPositions.sol:UserPositions",
        "label": "_controllers",
        "offset": 0,
        "slot": "1",
        "type": "t_mapping(t_address,t_bool)"
      },
      {
        "astId": 9019,
        "contract": "contracts/core/UserPositions.sol:UserPositions",
        "label": "controllers",
        "offset": 0,
        "slot": "2",
        "type": "t_array(t_address)dyn_storage"
      },
      {
        "astId": 21081,
        "contract": "contracts/core/UserPositions.sol:UserPositions",
        "label": "_biosRewardsDuration",
        "offset": 0,
        "slot": "3",
        "type": "t_uint32"
      },
      {
        "astId": 21085,
        "contract": "contracts/core/UserPositions.sol:UserPositions",
        "label": "_totalSupply",
        "offset": 0,
        "slot": "4",
        "type": "t_mapping(t_address,t_uint256)"
      },
      {
        "astId": 21091,
        "contract": "contracts/core/UserPositions.sol:UserPositions",
        "label": "_balances",
        "offset": 0,
        "slot": "5",
        "type": "t_mapping(t_address,t_mapping(t_address,t_uint256))"
      },
      {
        "astId": 21098,
        "contract": "contracts/core/UserPositions.sol:UserPositions",
        "label": "_deployedBalances",
        "offset": 0,
        "slot": "6",
        "type": "t_mapping(t_address,t_mapping(t_address,t_uint256))"
      },
      {
        "astId": 21107,
        "contract": "contracts/core/UserPositions.sol:UserPositions",
        "label": "_userStrategyBalances",
        "offset": 0,
        "slot": "7",
        "type": "t_mapping(t_address,t_mapping(t_uint256,t_mapping(t_address,t_uint256)))"
      },
      {
        "astId": 21113,
        "contract": "contracts/core/UserPositions.sol:UserPositions",
        "label": "_interconnectBalances",
        "offset": 0,
        "slot": "8",
        "type": "t_mapping(t_address,t_mapping(t_address,t_uint256))"
      },
      {
        "astId": 21115,
        "contract": "contracts/core/UserPositions.sol:UserPositions",
        "label": "paused",
        "offset": 0,
        "slot": "9",
        "type": "t_bool"
      }
    ],
    "types": {
      "t_address": {
        "encoding": "inplace",
        "label": "address",
        "numberOfBytes": "20"
      },
      "t_array(t_address)dyn_storage": {
        "base": "t_address",
        "encoding": "dynamic_array",
        "label": "address[]",
        "numberOfBytes": "32"
      },
      "t_bool": {
        "encoding": "inplace",
        "label": "bool",
        "numberOfBytes": "1"
      },
      "t_contract(IModuleMap)29669": {
        "encoding": "inplace",
        "label": "contract IModuleMap",
        "numberOfBytes": "20"
      },
      "t_mapping(t_address,t_bool)": {
        "encoding": "mapping",
        "key": "t_address",
        "label": "mapping(address => bool)",
        "numberOfBytes": "32",
        "value": "t_bool"
      },
      "t_mapping(t_address,t_mapping(t_address,t_uint256))": {
        "encoding": "mapping",
        "key": "t_address",
        "label": "mapping(address => mapping(address => uint256))",
        "numberOfBytes": "32",
        "value": "t_mapping(t_address,t_uint256)"
      },
      "t_mapping(t_address,t_mapping(t_uint256,t_mapping(t_address,t_uint256)))": {
        "encoding": "mapping",
        "key": "t_address",
        "label": "mapping(address => mapping(uint256 => mapping(address => uint256)))",
        "numberOfBytes": "32",
        "value": "t_mapping(t_uint256,t_mapping(t_address,t_uint256))"
      },
      "t_mapping(t_address,t_uint256)": {
        "encoding": "mapping",
        "key": "t_address",
        "label": "mapping(address => uint256)",
        "numberOfBytes": "32",
        "value": "t_uint256"
      },
      "t_mapping(t_uint256,t_mapping(t_address,t_uint256))": {
        "encoding": "mapping",
        "key": "t_uint256",
        "label": "mapping(uint256 => mapping(address => uint256))",
        "numberOfBytes": "32",
        "value": "t_mapping(t_address,t_uint256)"
      },
      "t_uint256": {
        "encoding": "inplace",
        "label": "uint256",
        "numberOfBytes": "32"
      },
      "t_uint32": {
        "encoding": "inplace",
        "label": "uint32",
        "numberOfBytes": "4"
      }
    }
  }
}