{
  "address": "0xDe22283EA96244a96f1753768C911C795dDB6A9C",
  "abi": [
    {
      "anonymous": false,
      "inputs": [
        {
          "indexed": false,
          "internalType": "uint256",
          "name": "strategyId",
          "type": "uint256"
        },
        {
          "indexed": false,
          "internalType": "address[]",
          "name": "integration",
          "type": "address[]"
        },
        {
          "indexed": false,
          "internalType": "uint256",
          "name": "amount",
          "type": "uint256"
        }
      ],
      "name": "HarvestYield",
      "type": "event"
    },
    {
      "inputs": [
        {
          "internalType": "address",
          "name": "controller",
          "type": "address"
        }
      ],
      "name": "addController",
      "outputs": [],
      "stateMutability": "nonpayable",
      "type": "function"
    },
    {
      "inputs": [
        {
          "internalType": "uint256",
          "name": "ratioX1000",
          "type": "uint256"
        }
      ],
      "name": "biosBuyBack",
      "outputs": [],
      "stateMutability": "nonpayable",
      "type": "function"
    },
    {
      "inputs": [
        {
          "internalType": "string",
          "name": "a",
          "type": "string"
        },
        {
          "internalType": "string",
          "name": "b",
          "type": "string"
        }
      ],
      "name": "compareStrings",
      "outputs": [
        {
          "internalType": "bool",
          "name": "",
          "type": "bool"
        }
      ],
      "stateMutability": "pure",
      "type": "function"
    },
    {
      "inputs": [
        {
          "internalType": "uint256",
          "name": "",
          "type": "uint256"
        }
      ],
      "name": "controllers",
      "outputs": [
        {
          "internalType": "address",
          "name": "",
          "type": "address"
        }
      ],
      "stateMutability": "view",
      "type": "function"
    },
    {
      "inputs": [
        {
          "components": [
            {
              "internalType": "address",
              "name": "integration",
              "type": "address"
            },
            {
              "internalType": "address[]",
              "name": "tokens",
              "type": "address[]"
            },
            {
              "internalType": "uint32",
              "name": "ammPoolID",
              "type": "uint32"
            }
          ],
          "internalType": "struct IYieldManager.DeployRequest[]",
          "name": "deployments",
          "type": "tuple[]"
        }
      ],
      "name": "deploy",
      "outputs": [],
      "stateMutability": "nonpayable",
      "type": "function"
    },
    {
      "inputs": [
        {
          "internalType": "uint256[]",
          "name": "strategyId",
          "type": "uint256[]"
        },
        {
          "internalType": "uint256[]",
          "name": "positions",
          "type": "uint256[]"
        },
        {
          "internalType": "uint256",
          "name": "biosAmount",
          "type": "uint256"
        }
      ],
      "name": "distributeEth",
      "outputs": [],
      "stateMutability": "nonpayable",
      "type": "function"
    },
    {
      "inputs": [
        {
          "internalType": "address",
          "name": "_kernel",
          "type": "address"
        },
        {
          "internalType": "address",
          "name": "_syntheticToken",
          "type": "address"
        },
        {
          "internalType": "address",
          "name": "_underlyingToken",
          "type": "address"
        },
        {
          "internalType": "address",
          "name": "_integration",
          "type": "address"
        },
        {
          "internalType": "uint32",
          "name": "_ammPoolID",
          "type": "uint32"
        },
        {
          "internalType": "uint256",
          "name": "_amountSynthetic",
          "type": "uint256"
        },
        {
          "internalType": "uint256",
          "name": "_amountUnderlying",
          "type": "uint256"
        }
      ],
      "name": "donateToSyntheticPool",
      "outputs": [],
      "stateMutability": "nonpayable",
      "type": "function"
    },
    {
      "inputs": [
        {
          "internalType": "uint256",
          "name": "protocolFeeEthRewardsAmount",
          "type": "uint256"
        }
      ],
      "name": "ethToProtocolFeeAccrual",
      "outputs": [],
      "stateMutability": "nonpayable",
      "type": "function"
    },
    {
      "inputs": [],
      "name": "getAllControllers",
      "outputs": [
        {
          "internalType": "address[]",
          "name": "currentControllers",
          "type": "address[]"
        }
      ],
      "stateMutability": "view",
      "type": "function"
    },
    {
      "inputs": [
        {
          "internalType": "address",
          "name": "token",
          "type": "address"
        }
      ],
      "name": "getAllPendingYield",
      "outputs": [
        {
          "components": [
            {
              "internalType": "address",
              "name": "integration",
              "type": "address"
            },
            {
              "internalType": "address",
              "name": "token",
              "type": "address"
            },
            {
              "internalType": "uint256",
              "name": "amount",
              "type": "uint256"
            }
          ],
          "internalType": "struct IYieldManager.IntegrationYield[]",
          "name": "pendingYieldData",
          "type": "tuple[]"
        }
      ],
      "stateMutability": "view",
      "type": "function"
    },
    {
      "inputs": [],
      "name": "getEthDistributionWeights",
      "outputs": [
        {
          "internalType": "uint32",
          "name": "",
          "type": "uint32"
        },
        {
          "internalType": "uint32",
          "name": "",
          "type": "uint32"
        },
        {
          "internalType": "uint32",
          "name": "",
          "type": "uint32"
        },
        {
          "internalType": "uint32",
          "name": "",
          "type": "uint32"
        },
        {
          "internalType": "uint32",
          "name": "",
          "type": "uint32"
        }
      ],
      "stateMutability": "view",
      "type": "function"
    },
    {
      "inputs": [],
      "name": "getEthWeightSum",
      "outputs": [
        {
          "internalType": "uint32",
          "name": "ethWeightSum",
          "type": "uint32"
        }
      ],
      "stateMutability": "view",
      "type": "function"
    },
    {
      "inputs": [],
      "name": "getGasAccount",
      "outputs": [
        {
          "internalType": "address",
          "name": "",
          "type": "address"
        }
      ],
      "stateMutability": "view",
      "type": "function"
    },
    {
      "inputs": [],
      "name": "getGasAccountTargetEthBalance",
      "outputs": [
        {
          "internalType": "uint256",
          "name": "",
          "type": "uint256"
        }
      ],
      "stateMutability": "view",
      "type": "function"
    },
    {
      "inputs": [],
      "name": "getLastEthRewardsAmount",
      "outputs": [
        {
          "internalType": "uint256",
          "name": "",
          "type": "uint256"
        }
      ],
      "stateMutability": "view",
      "type": "function"
    },
    {
      "inputs": [
        {
          "internalType": "address",
          "name": "integrationAddress",
          "type": "address"
        }
      ],
      "name": "getLastHarvestYieldTimestamp",
      "outputs": [
        {
          "internalType": "uint256",
          "name": "",
          "type": "uint256"
        }
      ],
      "stateMutability": "view",
      "type": "function"
    },
    {
      "inputs": [
        {
          "internalType": "address",
          "name": "tokenAddress",
          "type": "address"
        }
      ],
      "name": "getReserveTokenBalance",
      "outputs": [
        {
          "internalType": "uint256",
          "name": "",
          "type": "uint256"
        }
      ],
      "stateMutability": "view",
      "type": "function"
    },
    {
      "inputs": [
        {
          "internalType": "uint256",
          "name": "strategyId",
          "type": "uint256"
        }
      ],
      "name": "getStrategyInfo",
      "outputs": [
        {
          "components": [
            {
              "internalType": "uint256",
              "name": "processedWeth",
              "type": "uint256"
            },
            {
              "internalType": "uint256",
              "name": "distributedWeth",
              "type": "uint256"
            },
            {
              "internalType": "uint256",
              "name": "lastHarvest",
              "type": "uint256"
            }
          ],
          "internalType": "struct IYieldManager.StrategyInfo",
          "name": "",
          "type": "tuple"
        }
      ],
      "stateMutability": "view",
      "type": "function"
    },
    {
      "inputs": [],
      "name": "getTreasuryAccount",
      "outputs": [
        {
          "internalType": "address",
          "name": "",
          "type": "address"
        }
      ],
      "stateMutability": "view",
      "type": "function"
    },
    {
      "inputs": [
        {
          "internalType": "uint256",
          "name": "strategyId",
          "type": "uint256"
        },
        {
          "internalType": "address[]",
          "name": "integrations",
          "type": "address[]"
        },
        {
          "internalType": "uint256",
          "name": "amount",
          "type": "uint256"
        },
        {
          "internalType": "bool",
          "name": "setAccounting",
          "type": "bool"
        }
      ],
      "name": "harvestYield",
      "outputs": [],
      "stateMutability": "nonpayable",
      "type": "function"
    },
    {
      "inputs": [
        {
          "internalType": "address[]",
          "name": "controllers_",
          "type": "address[]"
        },
        {
          "internalType": "address",
          "name": "moduleMap_",
          "type": "address"
        },
        {
          "internalType": "uint256",
          "name": "gasAccountTargetEthBalance_",
          "type": "uint256"
        },
        {
          "internalType": "uint32",
          "name": "biosBuyBackEthWeight_",
          "type": "uint32"
        },
        {
          "internalType": "uint32",
          "name": "treasuryEthWeight_",
          "type": "uint32"
        },
        {
          "internalType": "uint32",
          "name": "protocolFeeEthWeight_",
          "type": "uint32"
        },
        {
          "internalType": "uint32",
          "name": "rewardsEthWeight_",
          "type": "uint32"
        },
        {
          "internalType": "address payable",
          "name": "gasAccount_",
          "type": "address"
        },
        {
          "internalType": "address payable",
          "name": "treasuryAccount_",
          "type": "address"
        }
      ],
      "name": "initialize",
      "outputs": [],
      "stateMutability": "nonpayable",
      "type": "function"
    },
    {
      "inputs": [
        {
          "internalType": "address",
          "name": "controller",
          "type": "address"
        }
      ],
      "name": "isController",
      "outputs": [
        {
          "internalType": "bool",
          "name": "status",
          "type": "bool"
        }
      ],
      "stateMutability": "view",
      "type": "function"
    },
    {
      "inputs": [],
      "name": "moduleMap",
      "outputs": [
        {
          "internalType": "contract IModuleMap",
          "name": "",
          "type": "address"
        }
      ],
      "stateMutability": "view",
      "type": "function"
    },
    {
      "inputs": [
        {
          "internalType": "address",
          "name": "destination",
          "type": "address"
        },
        {
          "internalType": "address",
          "name": "token",
          "type": "address"
        },
        {
          "internalType": "uint256",
          "name": "amount",
          "type": "uint256"
        }
      ],
      "name": "transferClosedPositionsValue",
      "outputs": [],
      "stateMutability": "nonpayable",
      "type": "function"
    },
    {
      "inputs": [
        {
          "internalType": "uint32",
          "name": "biosBuyBackEthWeight_",
          "type": "uint32"
        },
        {
          "internalType": "uint32",
          "name": "treasuryEthWeight_",
          "type": "uint32"
        },
        {
          "internalType": "uint32",
          "name": "protocolFeeEthWeight_",
          "type": "uint32"
        },
        {
          "internalType": "uint32",
          "name": "rewardsEthWeight_",
          "type": "uint32"
        },
        {
          "internalType": "uint32",
          "name": "syntheticPoolSupplement_",
          "type": "uint32"
        }
      ],
      "name": "updateEthDistributionWeights",
      "outputs": [],
      "stateMutability": "nonpayable",
      "type": "function"
    },
    {
      "inputs": [
        {
          "internalType": "address payable",
          "name": "gasAccount_",
          "type": "address"
        }
      ],
      "name": "updateGasAccount",
      "outputs": [],
      "stateMutability": "nonpayable",
      "type": "function"
    },
    {
      "inputs": [
        {
          "internalType": "uint256",
          "name": "gasAccountTargetEthBalance_",
          "type": "uint256"
        }
      ],
      "name": "updateGasAccountTargetEthBalance",
      "outputs": [],
      "stateMutability": "nonpayable",
      "type": "function"
    },
    {
      "inputs": [
        {
          "internalType": "address payable",
          "name": "treasuryAccount_",
          "type": "address"
        }
      ],
      "name": "updateTreasuryAccount",
      "outputs": [],
      "stateMutability": "nonpayable",
      "type": "function"
    },
    {
      "stateMutability": "payable",
      "type": "receive"
    }
  ],
  "transactionHash": "0xe584e3ac2d888a95cacd8bbe79cd24d6c865ae3721b65fe0d4d78dace6d58466",
  "args": [],
  "solcInputHash": "45afef2d0098b5b4751ca820c0864600",
  "bytecode": "0x608060405234801561001057600080fd5b50615a1b80620000216000396000f3fe60806040526004361061014a5760003560e01c80629816f51461015657806307f68a65146101815780630b1ff20a146101e15780630f0a1c6f1461020357806311fd33ac146102365780631b42f1541461025657806330a5666f1461027657806330dd79dd14610296578063337993cb146102b65780633aab4e94146102d85780633f10724c1461031c57806343cda19d1461033c5780637a0468d21461035c578063845fe1d01461037c578063983b64e81461039c578063a1bc2908146103bc578063a1d06fbb146103dc578063a412e815146103f1578063a7fc7a0714610411578063b429afeb14610431578063b4f0abf01461047a578063bed34bba1461049a578063cde49a13146104ba578063db089e79146104cf578063e0a30f7314610511578063e94b0dd21461052f578063f60751551461054f578063f7866ee31461057c57600080fd5b3661015157005b600080fd5b34801561016257600080fd5b5061016b61059a565b6040516101789190615721565b60405180910390f35b34801561018d57600080fd5b506004546040805163ffffffff8084168252600160201b840481166020830152600160401b8404811692820192909252600160601b830482166060820152600160801b90920416608082015260a001610178565b3480156101ed57600080fd5b506102016101fc36600461533a565b6105fa565b005b34801561020f57600080fd5b50600054610229906201000090046001600160a01b031681565b6040516101789190615450565b34801561024257600080fd5b50610201610251366004614f19565b610637565b34801561026257600080fd5b506102016102713660046153d2565b6108fd565b34801561028257600080fd5b5061020161029136600461533a565b6109a5565b3480156102a257600080fd5b506102016102b136600461512f565b6109e0565b3480156102c257600080fd5b506102cb61120f565b60405161017891906154a4565b3480156102e457600080fd5b5061030e6102f3366004614ee1565b6001600160a01b031660009081526009602052604090205490565b604051908152602001610178565b34801561032857600080fd5b506102016103373660046150f0565b611271565b34801561034857600080fd5b5061030e610357366004614ee1565b61188a565b34801561036857600080fd5b50610201610377366004615027565b611af7565b34801561038857600080fd5b5061020161039736600461533a565b611ca0565b3480156103a857600080fd5b506102016103b7366004614f9b565b612151565b3480156103c857600080fd5b506102016103d7366004614ee1565b6121bf565b3480156103e857600080fd5b5060055461030e565b3480156103fd57600080fd5b5061020161040c36600461536a565b612236565b34801561041d57600080fd5b5061020161042c366004614ee1565b6126da565b34801561043d57600080fd5b5061046a61044c366004614ee1565b6001600160a01b031660009081526001602052604090205460ff1690565b6040519015158152602001610178565b34801561048657600080fd5b50610201610495366004614ee1565b6128d3565b3480156104a657600080fd5b5061046a6104b5366004615250565b61294a565b3480156104c657600080fd5b5060035461030e565b3480156104db57600080fd5b506104ef6104ea36600461533a565b6129a3565b6040805182518152602080840151908201529181015190820152606001610178565b34801561051d57600080fd5b506006546001600160a01b0316610229565b34801561053b57600080fd5b5061022961054a36600461533a565b612a00565b34801561055b57600080fd5b5061056f61056a366004614ee1565b612a2a565b60405161017891906154f1565b34801561058857600080fd5b506007546001600160a01b0316610229565b60045460009063ffffffff600160801b8204811691600160601b8104821691600160401b82048116916105d791600160201b820481169116615828565b6105e19190615828565b6105eb9190615828565b6105f59190615828565b905090565b3360009081526001602052604090205460ff166106325760405162461bcd60e51b815260040161062990615620565b60405180910390fd5b600355565b600080546040516337c61fc560e11b8152620100009091046001600160a01b031691636f8c3f8a9161066c9190600401615556565b60206040518083038186803b15801561068457600080fd5b505afa158015610698573d6000803e3d6000fd5b505050506040513d601f19601f820116820180604052508101906106bc9190614efd565b6001600160a01b0316632f54bf6e336040518263ffffffff1660e01b81526004016106e79190615450565b60206040518083038186803b1580156106ff57600080fd5b505afa158015610713573d6000803e3d6000fd5b505050506040513d601f19601f82011682018060405250810190610737919061519f565b6107535760405162461bcd60e51b8152600401610629906155b1565b600061075f8284615810565b116107a85760405162461bcd60e51b81526020600482015260196024820152780646f6e61746520616d6f756e74206d757374206265203e203603c1b6044820152606401610629565b6107bd6001600160a01b038716888685612d1c565b6107d26001600160a01b038616888684612d1c565b6040516358e6665160e11b81526001600160a01b0385169063b1cccca2906108029089908690889060040161547d565b600060405180830381600087803b15801561081c57600080fd5b505af1158015610830573d6000803e3d6000fd5b50506040516358e6665160e11b81526001600160a01b038716925063b1cccca291506108649088908590889060040161547d565b600060405180830381600087803b15801561087e57600080fd5b505af1158015610892573d6000803e3d6000fd5b5050604051631739593d60e21b81526001600160a01b0387169250635ce564f491506108c2908690600401615721565b600060405180830381600087803b1580156108dc57600080fd5b505af11580156108f0573d6000803e3d6000fd5b5050505050505050505050565b3360009081526001602052604090205460ff1661092c5760405162461bcd60e51b815260040161062990615620565b6004805463ffffffff928316600160801b0263ffffffff60801b19948416600160601b0263ffffffff60601b19968516600160401b0296909616600160401b600160801b0319978516600160201b026001600160401b031990931694909816939093171794909416949094179190911716919091179055565b3360009081526001602052604090205460ff166109d45760405162461bcd60e51b815260040161062990615620565b6109dd81612d87565b50565b3360009081526001602052604090205460ff16610a0f5760405162461bcd60e51b815260040161062990615620565b600080546040516337c61fc560e11b8152620100009091046001600160a01b031690636f8c3f8a90610a4690600390600401615556565b60206040518083038186803b158015610a5e57600080fd5b505afa158015610a72573d6000803e3d6000fd5b505050506040513d601f19601f82011682018060405250810190610a969190614efd565b6001600160a01b0316638b9c94896040518163ffffffff1660e01b815260040160206040518083038186803b158015610ace57600080fd5b505afa158015610ae2573d6000803e3d6000fd5b505050506040513d601f19601f82011682018060405250810190610b069190614efd565b90508115610c69576000546040516337c61fc560e11b815283916201000090046001600160a01b031690636f8c3f8a90610b4590600190600401615556565b60206040518083038186803b158015610b5d57600080fd5b505afa158015610b71573d6000803e3d6000fd5b505050506040513d601f19601f82011682018060405250810190610b959190614efd565b60405163671514eb60e01b8152600060048201526001600160a01b03919091169063671514eb9060240160206040518083038186803b158015610bd757600080fd5b505afa158015610beb573d6000803e3d6000fd5b505050506040513d601f19601f82011682018060405250810190610c0f9190615352565b1115610c695760405162461bcd60e51b8152602060048201526024808201527f5969656c644d616e616765723a3a65787065637465642042494f5320657863656044820152631959195960e21b6064820152608401610629565b6000805b86811015611203576000888883818110610c9757634e487b7160e01b600052603260045260246000fd5b90506020020135905060008111610cf05760405162461bcd60e51b815260206004820152601e60248201527f5969656c644d616e616765723a3a696e76616c696420737472617465677900006044820152606401610629565b868683818110610d1057634e487b7160e01b600052603260045260246000fd5b6000546040516337c61fc560e11b815260209092029390930135926001600160a01b0362010000909104169150636f8c3f8a90610d5290600890600401615556565b60206040518083038186803b158015610d6a57600080fd5b505afa158015610d7e573d6000803e3d6000fd5b505050506040513d601f19601f82011682018060405250810190610da29190614efd565b604051634eb7576160e11b8152600481018490526001600160a01b0387811660248301529190911690639d6eaec29060440160206040518083038186803b158015610dec57600080fd5b505afa158015610e00573d6000803e3d6000fd5b505050506040513d601f19601f82011682018060405250810190610e249190615352565b1115610e725760405162461bcd60e51b815260206004820152601f60248201527f5969656c644d616e616765723a3a706f736974696f6e206578636565646564006044820152606401610629565b6000818152600a6020526040812060018101549054610e919190615886565b905080156111f0576000806000806000610eaa8661327c565b945094509450945094506000851115610f57576000546040516337c61fc560e11b8152610f57916201000090046001600160a01b031690636f8c3f8a90610ef690600b90600401615556565b60206040518083038186803b158015610f0e57600080fd5b505afa158015610f22573d6000803e3d6000fd5b505050506040513d601f19601f82011682018060405250810190610f469190614efd565b6001600160a01b038c169087613365565b610f61848b613384565b50600754610f799085906001600160a01b0316613510565b8215610f8857610f8883612d87565b81156111a957600080546040516337c61fc560e11b8152620100009091046001600160a01b031690636f8c3f8a90610fc590600690600401615556565b60206040518083038186803b158015610fdd57600080fd5b505afa158015610ff1573d6000803e3d6000fd5b505050506040513d601f19601f820116820180604052508101906110159190614efd565b6001600160a01b0316631ee78e7e896040518263ffffffff1660e01b815260040161104291815260200190565b60206040518083038186803b15801561105a57600080fd5b505afa15801561106e573d6000803e3d6000fd5b505050506040513d601f19601f820116820180604052508101906110929190614efd565b600080546040516337c61fc560e11b81529293509091620100009091046001600160a01b031690636f8c3f8a906110ce90600790600401615556565b60206040518083038186803b1580156110e657600080fd5b505afa1580156110fa573d6000803e3d6000fd5b505050506040513d601f19601f8201168201806040525081019061111e9190614efd565b6001600160a01b031663830950c8836040518263ffffffff1660e01b81526004016111499190615450565b60206040518083038186803b15801561116157600080fd5b505afa158015611175573d6000803e3d6000fd5b505050506040513d601f19601f820116820180604052508101906111999190614efd565b90506111a68482846135ae565b50505b6111b38782613712565b6111bd818a615810565b985085600a600089815260200190815260200160002060010160008282546111e59190615810565b909155505050505050505b5050806111fc9061594f565b9050610c6d565b50600555505050505050565b6060600280548060200260200160405190810160405280929190818152602001828054801561126757602002820191906000526020600020905b81546001600160a01b03168152600190910190602001808311611249575b5050505050905090565b3360009081526001602052604090205460ff166112a05760405162461bcd60e51b815260040161062990615620565b600080546040516337c61fc560e11b8152620100009091046001600160a01b031690636f8c3f8a906112d790600890600401615556565b60206040518083038186803b1580156112ef57600080fd5b505afa158015611303573d6000803e3d6000fd5b505050506040513d601f19601f820116820180604052508101906113279190614efd565b600080546040516337c61fc560e11b81529293509091620100009091046001600160a01b031690636f8c3f8a90611362908490600401615556565b60206040518083038186803b15801561137a57600080fd5b505afa15801561138e573d6000803e3d6000fd5b505050506040513d601f19601f820116820180604052508101906113b29190614efd565b905060008060005b85811015611572576114058787838181106113e557634e487b7160e01b600052603260045260246000fd5b90506020028101906113f79190615779565b6114009061589d565b6138ff565b6114435760405162461bcd60e51b815260206004820152600f60248201526e746f6f206d616e7920746f6b656e7360881b6044820152606401610629565b60008060008061148e898c8c8881811061146d57634e487b7160e01b600052603260045260246000fd5b905060200281019061147f9190615779565b6114889061589d565b8a613a95565b935093509350935083876114a29190615810565b96506114ae8387615810565b6001600160a01b0383166000908152600c60205260408120805492985083929091906114e49084906001600160f81b03166157e5565b82546001600160f81b039182166101009390930a9283029190920219909116179055506001600160a01b0382166000908152600c602052604090205460ff600160f81b9091041661155b576001600160a01b0382166000908152600c6020526040902080546001600160f81b0316600160f81b1790555b50505050808061156a9061594f565b9150506113ba565b5060005b858110156118815760008787838181106115a057634e487b7160e01b600052603260045260246000fd5b90506020028101906115b29190615779565b6115c0906020810190615732565b60008181106115df57634e487b7160e01b600052603260045260246000fd5b90506020020160208101906115f49190614ee1565b6001600160a01b0381166000908152600c6020526040902054909150600160f81b900460ff166001141561186e57600080546040516337c61fc560e11b8152620100009091046001600160a01b031690636f8c3f8a9061165990600790600401615556565b60206040518083038186803b15801561167157600080fd5b505afa158015611685573d6000803e3d6000fd5b505050506040513d601f19601f820116820180604052508101906116a99190614efd565b6001600160a01b031663830950c8836040518263ffffffff1660e01b81526004016116d49190615450565b60206040518083038186803b1580156116ec57600080fd5b505afa158015611700573d6000803e3d6000fd5b505050506040513d601f19601f820116820180604052508101906117249190614efd565b90506000806000836001600160a01b03166332eb76ed6040518163ffffffff1660e01b815260040160606040518083038186803b15801561176457600080fd5b505afa158015611778573d6000803e3d6000fd5b505050506040513d601f19601f8201168201806040525081019061179c9190614fdb565b6001600160a01b0388166000908152600c60205260408120549396509194509250906117d1906001600160f81b031689615810565b905080156117e4576117e4828b83613dd3565b6117f28983888d8888613edb565b6001600160a01b0386166000908152600c60205260409020546001600160f81b031615611868576001600160a01b0386166000908152600c602052604090205461184e908b9084908990889088906001600160f81b03166142c7565b6001600160a01b0386166000908152600c60205260408120555b50505050505b50806118798161594f565b915050611576565b50505050505050565b600080546040516337c61fc560e11b8152620100009091046001600160a01b031690636f8c3f8a906118c190600390600401615556565b60206040518083038186803b1580156118d957600080fd5b505afa1580156118ed573d6000803e3d6000fd5b505050506040513d601f19601f820116820180604052508101906119119190614efd565b6001600160a01b0316637faa0597836040518263ffffffff1660e01b815260040161193c9190615450565b60206040518083038186803b15801561195457600080fd5b505afa158015611968573d6000803e3d6000fd5b505050506040513d601f19601f8201168201806040525081019061198c919061519f565b6119f65760405162461bcd60e51b815260206004820152603560248201527f5969656c644d616e616765723a3a67657452657365727665546f6b656e42616c604482015274185b98d94e88151bdad95b881b9bdd081859191959605a1b6064820152608401610629565b600080546040516337c61fc560e11b81526001600160a01b03808616936370a082319362010000900490911691636f8c3f8a91611a3591600401615556565b60206040518083038186803b158015611a4d57600080fd5b505afa158015611a61573d6000803e3d6000fd5b505050506040513d601f19601f82011682018060405250810190611a859190614efd565b6040518263ffffffff1660e01b8152600401611aa19190615450565b60206040518083038186803b158015611ab957600080fd5b505afa158015611acd573d6000803e3d6000fd5b505050506040513d601f19601f82011682018060405250810190611af19190615352565b92915050565b600054610100900460ff16611b125760005460ff1615611b1a565b611b1a6144dc565b611b7d5760405162461bcd60e51b815260206004820152602e60248201527f496e697469616c697a61626c653a20636f6e747261637420697320616c72656160448201526d191e481a5b9a5d1a585b1a5e995960921b6064820152608401610629565b600054610100900460ff16158015611b9f576000805461ffff19166101011790555b6001600160a01b038316611bc55760405162461bcd60e51b8152600401610629906155fb565b6001600160a01b038216611beb5760405162461bcd60e51b8152600401610629906155fb565b611bf58a8a6144ed565b60038890556004805463ffffffff8981166001600160401b031990921691909117600160201b8983160217600160401b600160801b031916600160401b8883160263ffffffff60601b191617600160601b91871691909102179055600680546001600160a01b03199081166001600160a01b0386811691909117909255600780549091169184169190911790558015611c94576000805461ff00191690555b50505050505050505050565b3360009081526001602052604090205460ff16611ccf5760405162461bcd60e51b815260040161062990615620565b600080546040516337c61fc560e11b8152620100009091046001600160a01b031690636f8c3f8a90611d0690600b90600401615556565b60206040518083038186803b158015611d1e57600080fd5b505afa158015611d32573d6000803e3d6000fd5b505050506040513d601f19601f82011682018060405250810190611d569190614efd565b600080546040516337c61fc560e11b81529293509091620100009091046001600160a01b031690636f8c3f8a90611d9290600390600401615556565b60206040518083038186803b158015611daa57600080fd5b505afa158015611dbe573d6000803e3d6000fd5b505050506040513d601f19601f82011682018060405250810190611de29190614efd565b6001600160a01b0316638b9c94896040518163ffffffff1660e01b815260040160206040518083038186803b158015611e1a57600080fd5b505afa158015611e2e573d6000803e3d6000fd5b505050506040513d601f19601f82011682018060405250810190611e529190614efd565b6001600160a01b03166370a08231836040518263ffffffff1660e01b8152600401611e7d9190615450565b60206040518083038186803b158015611e9557600080fd5b505afa158015611ea9573d6000803e3d6000fd5b505050506040513d601f19601f82011682018060405250810190611ecd9190615352565b111561214d57604051630845fe1d60e41b8152600481018390526001600160a01b0382169063845fe1d090602401602060405180830381600087803b158015611f1557600080fd5b505af1158015611f29573d6000803e3d6000fd5b505050506040513d601f19601f82011682018060405250810190611f4d919061519f565b50600080546040516337c61fc560e11b8152620100009091046001600160a01b031690636f8c3f8a90611f8590600390600401615556565b60206040518083038186803b158015611f9d57600080fd5b505afa158015611fb1573d6000803e3d6000fd5b505050506040513d601f19601f82011682018060405250810190611fd59190614efd565b6001600160a01b03166344fc9b566040518163ffffffff1660e01b815260040160206040518083038186803b15801561200d57600080fd5b505afa158015612021573d6000803e3d6000fd5b505050506040513d601f19601f820116820180604052508101906120459190614efd565b6000546040516337c61fc560e11b81529192506201000090046001600160a01b031690636f8c3f8a9061207d90600d90600401615556565b60206040518083038186803b15801561209557600080fd5b505afa1580156120a9573d6000803e3d6000fd5b505050506040513d601f19601f820116820180604052508101906120cd9190614efd565b6001600160a01b0316637b46c54f826040518263ffffffff1660e01b81526004016120f89190615450565b608060405180830381600087803b15801561211257600080fd5b505af1158015612126573d6000803e3d6000fd5b505050506040513d601f19601f8201168201806040525081019061214a91906152b0565b50505b5050565b3360009081526001602052604090205460ff166121805760405162461bcd60e51b815260040161062990615620565b6001600160a01b0383166121a65760405162461bcd60e51b8152600401610629906155fb565b6121ba6001600160a01b0383168483613365565b505050565b3360009081526001602052604090205460ff166121ee5760405162461bcd60e51b815260040161062990615620565b6001600160a01b0381166122145760405162461bcd60e51b8152600401610629906155fb565b600680546001600160a01b0319166001600160a01b0392909216919091179055565b600080546040516337c61fc560e11b8152620100009091046001600160a01b031691636f8c3f8a9161226b9190600401615556565b60206040518083038186803b15801561228357600080fd5b505afa158015612297573d6000803e3d6000fd5b505050506040513d601f19601f820116820180604052508101906122bb9190614efd565b6001600160a01b031663f3ae2415336040518263ffffffff1660e01b81526004016122e69190615450565b60206040518083038186803b1580156122fe57600080fd5b505afa158015612312573d6000803e3d6000fd5b505050506040513d601f19601f82011682018060405250810190612336919061519f565b6123995760405162461bcd60e51b815260206004820152602e60248201527f436f6e74726f6c6c65643a3a6f6e6c794d616e616765723a2043616c6c65722060448201526d34b9903737ba1036b0b730b3b2b960911b6064820152608401610629565b600080546040516337c61fc560e11b8152620100009091046001600160a01b031690636f8c3f8a906123d090600390600401615556565b60206040518083038186803b1580156123e857600080fd5b505afa1580156123fc573d6000803e3d6000fd5b505050506040513d601f19601f820116820180604052508101906124209190614efd565b90506000816001600160a01b0316638b9c94896040518163ffffffff1660e01b815260040160206040518083038186803b15801561245d57600080fd5b505afa158015612471573d6000803e3d6000fd5b505050506040513d601f19601f820116820180604052508101906124959190614efd565b6040516370a0823160e01b815290915081906000906001600160a01b038316906370a08231906124c9903090600401615450565b60206040518083038186803b1580156124e157600080fd5b505afa1580156124f5573d6000803e3d6000fd5b505050506040513d601f19601f820116820180604052508101906125199190615352565b905060005b878110156125be5788888281811061254657634e487b7160e01b600052603260045260246000fd5b905060200201602081019061255b9190614ee1565b6001600160a01b031663e8d991d16040518163ffffffff1660e01b8152600401600060405180830381600087803b15801561259557600080fd5b505af11580156125a9573d6000803e3d6000fd5b50505050806125b79061594f565b905061251e565b50600081836001600160a01b03166370a08231306040518263ffffffff1660e01b81526004016125ee9190615450565b60206040518083038186803b15801561260657600080fd5b505afa15801561261a573d6000803e3d6000fd5b505050506040513d601f19601f8201168201806040525081019061263e9190615352565b6126489190615886565b905085156126915760008a8152600a60205260408120908861266a578261266c565b885b426002840155825490915081908390600090612689908490615810565b909155505050505b7fa9a14fcdc28aab52a344552b438679255aeba8f4b5da515e4235df36939feec08a8a8a846040516126c694939291906156bf565b60405180910390a150505050505050505050565b600080546040516337c61fc560e11b8152620100009091046001600160a01b031691636f8c3f8a9161270f9190600401615556565b60206040518083038186803b15801561272757600080fd5b505afa15801561273b573d6000803e3d6000fd5b505050506040513d601f19601f8201168201806040525081019061275f9190614efd565b6001600160a01b0316632f54bf6e336040518263ffffffff1660e01b815260040161278a9190615450565b60206040518083038186803b1580156127a257600080fd5b505afa1580156127b6573d6000803e3d6000fd5b505050506040513d601f19601f820116820180604052508101906127da919061519f565b6127f65760405162461bcd60e51b8152600401610629906155b1565b6001600160a01b03811660009081526001602081905260408220805460ff19169091179055805b60025481101561287c576002818154811061284857634e487b7160e01b600052603260045260246000fd5b6000918252602090912001546001600160a01b038481169116141561286c57600191505b6128758161594f565b905061281d565b508061214d57600280546001810182556000919091527f405787fa12a823e0f2b7631cc41b3ba8828b3321ca811111fa75cd3aa3bb5ace0180546001600160a01b0384166001600160a01b03199091161790555050565b3360009081526001602052604090205460ff166129025760405162461bcd60e51b815260040161062990615620565b6001600160a01b0381166129285760405162461bcd60e51b8152600401610629906155fb565b600780546001600160a01b0319166001600160a01b0392909216919091179055565b60008160405160200161295d9190615434565b60405160208183030381529060405280519060200120836040516020016129849190615434565b6040516020818303038152906040528051906020012014905092915050565b6129c760405180606001604052806000815260200160008152602001600081525090565b506000908152600a6020908152604091829020825160608101845281548152600182015492810192909252600201549181019190915290565b60028181548110612a1057600080fd5b6000918252602090912001546001600160a01b0316905081565b600080546040516337c61fc560e11b8152606092916201000090046001600160a01b031690636f8c3f8a90612a6490600390600401615556565b60206040518083038186803b158015612a7c57600080fd5b505afa158015612a90573d6000803e3d6000fd5b505050506040513d601f19601f82011682018060405250810190612ab49190614efd565b90506000816001600160a01b0316637d6145d36040518163ffffffff1660e01b815260040160206040518083038186803b158015612af157600080fd5b505afa158015612b05573d6000803e3d6000fd5b505050506040513d601f19601f82011682018060405250810190612b299190615352565b9050806001600160401b03811115612b5157634e487b7160e01b600052604160045260246000fd5b604051908082528060200260200182016040528015612b9c57816020015b6040805160608101825260008082526020808301829052928201528252600019909201910181612b6f5790505b50925060005b81811015612d1457604051630dd0cf1f60e11b8152600481018290526000906001600160a01b03851690631ba19e3e9060240160206040518083038186803b158015612bed57600080fd5b505afa158015612c01573d6000803e3d6000fd5b505050506040513d601f19601f82011682018060405250810190612c259190614efd565b90506000816001600160a01b031663537bb137886040518263ffffffff1660e01b8152600401612c559190615450565b60206040518083038186803b158015612c6d57600080fd5b505afa158015612c81573d6000803e3d6000fd5b505050506040513d601f19601f82011682018060405250810190612ca59190615352565b90506040518060600160405280836001600160a01b03168152602001886001600160a01b0316815260200182815250868481518110612cf457634e487b7160e01b600052603260045260246000fd5b602002602001018190525050508080612d0c9061594f565b915050612ba2565b505050919050565b6040516001600160a01b038085166024830152831660448201526064810182905261214a9085906323b872dd60e01b906084015b60408051601f198184030181529190526020810180516001600160e01b03166001600160e01b031990931692909217909152614642565b600080546040516337c61fc560e11b8152620100009091046001600160a01b031690636f8c3f8a90612dbe90600390600401615556565b60206040518083038186803b158015612dd657600080fd5b505afa158015612dea573d6000803e3d6000fd5b505050506040513d601f19601f82011682018060405250810190612e0e9190614efd565b600080546040516337c61fc560e11b81529293509091620100009091046001600160a01b031690636f8c3f8a90612e4a90600190600401615556565b60206040518083038186803b158015612e6257600080fd5b505afa158015612e76573d6000803e3d6000fd5b505050506040513d601f19601f82011682018060405250810190612e9a9190614efd565b60405163671514eb60e01b8152600060048201526001600160a01b03919091169063671514eb9060240160206040518083038186803b158015612edc57600080fd5b505afa158015612ef0573d6000803e3d6000fd5b505050506040513d601f19601f82011682018060405250810190612f149190615352565b111561310c576000546040516337c61fc560e11b8152620100009091046001600160a01b031690636f8c3f8a90612f5090600590600401615556565b60206040518083038186803b158015612f6857600080fd5b505afa158015612f7c573d6000803e3d6000fd5b505050506040513d601f19601f82011682018060405250810190612fa09190614efd565b60405163f4f104b560e01b815260006004820152602481018490526001600160a01b03919091169063f4f104b590604401600060405180830381600087803b158015612feb57600080fd5b505af1158015612fff573d6000803e3d6000fd5b5050505061307d82826001600160a01b0316638b9c94896040518163ffffffff1660e01b815260040160206040518083038186803b15801561304057600080fd5b505afa158015613054573d6000803e3d6000fd5b505050506040513d601f19601f820116820180604052508101906130789190614efd565b613384565b50600080546040516337c61fc560e11b815261214d9285926201000090046001600160a01b031691636f8c3f8a916130b791600401615556565b60206040518083038186803b1580156130cf57600080fd5b505afa1580156130e3573d6000803e3d6000fd5b505050506040513d601f19601f820116820180604052508101906131079190614efd565b613510565b806001600160a01b0316638b9c94896040518163ffffffff1660e01b815260040160206040518083038186803b15801561314557600080fd5b505afa158015613159573d6000803e3d6000fd5b505050506040513d601f19601f8201168201806040525081019061317d9190614efd565b600080546040516337c61fc560e11b81526001600160a01b039384169363a9059cbb93620100009093041691636f8c3f8a916131bc9190600401615556565b60206040518083038186803b1580156131d457600080fd5b505afa1580156131e8573d6000803e3d6000fd5b505050506040513d601f19601f8201168201806040525081019061320c9190614efd565b846040518363ffffffff1660e01b815260040161322a929190615464565b602060405180830381600087803b15801561324457600080fd5b505af1158015613258573d6000803e3d6000fd5b505050506040513d601f19601f820116820180604052508101906121ba919061519f565b60008060008060008061328d61059a565b60045463ffffffff918216925082916132a7911689615867565b6132b19190615847565b60045490965081906132d090600160201b900463ffffffff1689615867565b6132da9190615847565b60045490955081906132f990600160401b900463ffffffff1689615867565b6133039190615847565b600454909450819061332290600160801b900463ffffffff1689615867565b61332c9190615847565b925082848661333b898b615886565b6133459190615886565b61334f9190615886565b6133599190615886565b91505091939590929450565b6121ba8363a9059cbb60e01b8484604051602401612d50929190615464565b600060fa4614806133955750603846145b1561349b57600080546040516337c61fc560e11b8152620100009091046001600160a01b031690636f8c3f8a906133d190600c90600401615556565b60206040518083038186803b1580156133e957600080fd5b505afa1580156133fd573d6000803e3d6000fd5b505050506040513d601f19601f820116820180604052508101906134219190614efd565b90506134376001600160a01b0384168286613365565b604051636f074d1f60e11b8152600481018590526001600160a01b0382169063de0e9a3e90602401600060405180830381600087803b15801561347957600080fd5b505af115801561348d573d6000803e3d6000fd5b505050506001915050611af1565b6104404614156134ad57506000611af1565b604051632e1a7d4d60e01b8152600481018490526001600160a01b03831690632e1a7d4d90602401600060405180830381600087803b1580156134ef57600080fd5b505af1158015613503573d6000803e3d6000fd5b5050505060019050611af1565b6000816001600160a01b03168360405160006040518083038185875af1925050503d806000811461355d576040519150601f19603f3d011682016040523d82523d6000602084013e613562565b606091505b50509050806121ba5760405162461bcd60e51b81526020600482015260186024820152774661696c656420746f207472616e736665722076616c756560401b6044820152606401610629565b600080836001600160a01b03166332eb76ed6040518163ffffffff1660e01b815260040160606040518083038186803b1580156135ea57600080fd5b505afa1580156135fe573d6000803e3d6000fd5b505050506040513d601f19601f820116820180604052508101906136229190614fdb565b5060405163a9059cbb60e01b815291935091506001600160a01b0384169063a9059cbb906136569085908990600401615464565b602060405180830381600087803b15801561367057600080fd5b505af1158015613684573d6000803e3d6000fd5b505050506040513d601f19601f820116820180604052508101906136a8919061519f565b506040516358e6665160e11b81526001600160a01b0383169063b1cccca2906136d99086908990869060040161547d565b600060405180830381600087803b1580156136f357600080fd5b505af1158015613707573d6000803e3d6000fd5b505050505050505050565b801561214d576000546040516337c61fc560e11b8152620100009091046001600160a01b031690636f8c3f8a9061374e90600590600401615556565b60206040518083038186803b15801561376657600080fd5b505afa15801561377a573d6000803e3d6000fd5b505050506040513d601f19601f8201168201806040525081019061379e9190614efd565b60405163f4f104b560e01b815260048101849052602481018390526001600160a01b03919091169063f4f104b590604401600060405180830381600087803b1580156137e957600080fd5b505af11580156137fd573d6000803e3d6000fd5b50506000546040516337c61fc560e11b81526138c59350849250620100009091046001600160a01b031690636f8c3f8a9061383d90600390600401615556565b60206040518083038186803b15801561385557600080fd5b505afa158015613869573d6000803e3d6000fd5b505050506040513d601f19601f8201168201806040525081019061388d9190614efd565b6001600160a01b0316638b9c94896040518163ffffffff1660e01b815260040160206040518083038186803b15801561304057600080fd5b50600080546040516337c61fc560e11b815261214d9284926201000090046001600160a01b031691636f8c3f8a916130b791600401615556565b600080826040015163ffffffff1611801561391f57506002826020015151115b15613a8d57600080546040516337c61fc560e11b8152620100009091046001600160a01b031690636f8c3f8a9061395b90600390600401615556565b60206040518083038186803b15801561397357600080fd5b505afa158015613987573d6000803e3d6000fd5b505050506040513d601f19601f820116820180604052508101906139ab9190614efd565b8351604051638e591f8760e01b81529192506000916001600160a01b03841691638e591f87916139de9190600401615450565b60006040518083038186803b1580156139f657600080fd5b505afa158015613a0a573d6000803e3d6000fd5b505050506040513d6000823e601f3d908101601f19168201604052613a3291908101906151de565b905060048460200151511180613a745750613a72816040518060400160405280600d81526020016c43757276652046696e616e636560981b81525061294a565b155b15613a83575060009392505050565b5060019392505050565b506001919050565b60008060008060005b866020015151811015613d9a57600080896001600160a01b031663f7e50fcf8a600001518b604001518c602001518781518110613aeb57634e487b7160e01b600052603260045260246000fd5b60200260200101516040518463ffffffff1660e01b8152600401613b35939291906001600160a01b03938416815263ffffffff929092166020830152909116604082015260600190565b604080518083038186803b158015613b4c57600080fd5b505afa158015613b60573d6000803e3d6000fd5b505050506040513d601f19601f82011682018060405250810190613b8491906151bb565b915091506000821315613c5557613b9b8185615810565b9350613ba682614714565b613bb09087615810565b9550613c09888a60000151613bc485614714565b8c602001518781518110613be857634e487b7160e01b600052603260045260246000fd5b60200260200101516001600160a01b0316612d1c909392919063ffffffff16565b613c5089600001518a602001518581518110613c3557634e487b7160e01b600052603260045260246000fd5b60200260200101518b60400151613c4b86614714565b614730565b613cb3565b6000821215613cb357613ca689600001518a602001518581518110613c8a57634e487b7160e01b600052603260045260246000fd5b60200260200101518b60400151613ca086614714565b8c6148a1565b613cb09088615810565b96505b8115613d8557896001600160a01b031663cc6a88428a600001518b604001518c602001518781518110613cf657634e487b7160e01b600052603260045260246000fd5b6020026020010151613d0787614714565b6040516001600160e01b031960e087901b1681526001600160a01b03948516600482015263ffffffff9390931660248401529216604482015260648101919091526084810184905260a401600060405180830381600087803b158015613d6c57600080fd5b505af1158015613d80573d6000803e3d6000fd5b505050505b50508080613d929061594f565b915050613a9e565b508560200151600081518110613dc057634e487b7160e01b600052603260045260246000fd5b6020026020010151915093509350935093565b600b5415613e7f5780600b5410613e015780600b6000828254613df69190615886565b909155506121ba9050565b6000600b5482613e119190615886565b6000600b556040516340c10f1960e01b81529091506001600160a01b038516906340c10f1990613e479086908590600401615464565b600060405180830381600087803b158015613e6157600080fd5b505af1158015613e75573d6000803e3d6000fd5b5050505050505050565b6040516340c10f1960e01b81526001600160a01b038416906340c10f1990613ead9085908590600401615464565b600060405180830381600087803b158015613ec757600080fd5b505af1158015611881573d6000803e3d6000fd5b6040516370a0823160e01b81526000906001600160a01b038716906370a0823190613f0a908790600401615450565b60206040518083038186803b158015613f2257600080fd5b505afa158015613f36573d6000803e3d6000fd5b505050506040513d601f19601f82011682018060405250810190613f5a9190615352565b60405163c866cd3f60e01b8152600481018990529091506000906001600160a01b0388169063c866cd3f906024016040805180830381600087803b158015613fa157600080fd5b505af1158015613fb5573d6000803e3d6000fd5b505050506040513d601f19601f82011682018060405250810190613fd991906151bb565b915050866001600160a01b031663c373a6c36040518163ffffffff1660e01b8152600401602060405180830381600087803b15801561401757600080fd5b505af115801561402b573d6000803e3d6000fd5b505050506040513d601f19601f8201168201806040525081019061404f9190615352565b6140599082615810565b90508015614192576000546040516337c61fc560e11b8152620100009091046001600160a01b031690636f8c3f8a9061409790600b90600401615556565b60206040518083038186803b1580156140af57600080fd5b505afa1580156140c3573d6000803e3d6000fd5b505050506040513d601f19601f820116820180604052508101906140e79190614efd565b604051631175be7760e31b81526001600160a01b03888116600483015289811660248301526002604483015260016064830152878116608483015260a48201849052600060c48301529190911690638badf3b89060e401602060405180830381600087803b15801561415857600080fd5b505af115801561416c573d6000803e3d6000fd5b505050506040513d601f19601f820116820180604052508101906141909190615352565b505b6000876001600160a01b0316635749fd576040518163ffffffff1660e01b8152600401602060405180830381600087803b1580156141cf57600080fd5b505af11580156141e3573d6000803e3d6000fd5b505050506040513d601f19601f820116820180604052508101906142079190615352565b9050801561421e5761421e88888787856000614a89565b6040516370a0823160e01b815283906001600160a01b038a16906370a082319061424c908a90600401615450565b60206040518083038186803b15801561426457600080fd5b505afa158015614278573d6000803e3d6000fd5b505050506040513d601f19601f8201168201806040525081019061429c9190615352565b6142a69190615886565b600b60008282546142b79190615810565b9091555050505050505050505050565b60405163610d7ea760e01b81526004810182905260009081906001600160a01b0388169063610d7ea7906024016040805180830381600087803b15801561430d57600080fd5b505af1158015614321573d6000803e3d6000fd5b505050506040513d601f19601f8201168201806040525081019061434591906151bb565b91509150808211156143725761435b8183615886565b600b600082825461436c9190615810565b90915550505b6143876001600160a01b038716898785612d1c565b61439c6001600160a01b038816898784612d1c565b6040516358e6665160e11b81526001600160a01b0386169063b1cccca2906143cc9089908690899060040161547d565b600060405180830381600087803b1580156143e657600080fd5b505af11580156143fa573d6000803e3d6000fd5b50506040516358e6665160e11b81526001600160a01b038816925063b1cccca2915061442e908a908590899060040161547d565b600060405180830381600087803b15801561444857600080fd5b505af115801561445c573d6000803e3d6000fd5b505050506000818361446e9190615810565b1115613e7557604051631739593d60e21b81526001600160a01b03861690635ce564f4906144a0908790600401615721565b600060405180830381600087803b1580156144ba57600080fd5b505af11580156144ce573d6000803e3d6000fd5b505050505050505050505050565b60006144e730614b5e565b15905090565b600054610100900460ff166145145760405162461bcd60e51b815260040161062990615674565b6001600160a01b03811661453a5760405162461bcd60e51b8152600401610629906155fb565b60005b82518110156145b05760006001600160a01b031683828151811061457157634e487b7160e01b600052603260045260246000fd5b60200260200101516001600160a01b031614156145a05760405162461bcd60e51b8152600401610629906155fb565b6145a98161594f565b905061453d565b5060005b82518110156146245760018060008584815181106145e257634e487b7160e01b600052603260045260246000fd5b6020908102919091018101516001600160a01b03168252810191909152604001600020805460ff191691151591909117905561461d8161594f565b90506145b4565b508151614638906002906020850190614d2f565b5061214d81614b6d565b6000614697826040518060400160405280602081526020017f5361666545524332303a206c6f772d6c6576656c2063616c6c206661696c6564815250856001600160a01b0316614bbe9092919063ffffffff16565b8051909150156121ba57808060200190518101906146b5919061519f565b6121ba5760405162461bcd60e51b815260206004820152602a60248201527f5361666545524332303a204552433230206f7065726174696f6e20646964206e6044820152691bdd081cdd58d8d9595960b21b6064820152608401610629565b60008082121561472c576147278261596a565b611af1565b5090565b63ffffffff821615614804576040516358e6665160e11b815284906001600160a01b0382169063b1cccca29061476e9087908690889060040161547d565b600060405180830381600087803b15801561478857600080fd5b505af115801561479c573d6000803e3d6000fd5b5050604051631739593d60e21b81526001600160a01b0384169250635ce564f491506147cc908690600401615721565b600060405180830381600087803b1580156147e657600080fd5b505af11580156147fa573d6000803e3d6000fd5b505050505061214a565b6040516311f9fbc960e21b815284906001600160a01b038216906347e7ef24906148349087908690600401615464565b600060405180830381600087803b15801561484e57600080fd5b505af1158015614862573d6000803e3d6000fd5b50505050806001600160a01b031663775c300c6040518163ffffffff1660e01b8152600401600060405180830381600087803b1580156136f357600080fd5b600080856001600160a01b03166370a08231846040518263ffffffff1660e01b81526004016148d09190615450565b60206040518083038186803b1580156148e857600080fd5b505afa1580156148fc573d6000803e3d6000fd5b505050506040513d601f19601f820116820180604052508101906149209190615352565b905063ffffffff85161561499557604051633ed96eff60e11b81526001600160a01b03881690637db2ddfe9061495e90899088908a9060040161547d565b600060405180830381600087803b15801561497857600080fd5b505af115801561498c573d6000803e3d6000fd5b505050506149f6565b60405163f3fef3a360e01b81526001600160a01b0388169063f3fef3a3906149c39089908890600401615464565b600060405180830381600087803b1580156149dd57600080fd5b505af11580156149f1573d6000803e3d6000fd5b505050505b6040516370a0823160e01b815281906001600160a01b038816906370a0823190614a24908790600401615450565b60206040518083038186803b158015614a3c57600080fd5b505afa158015614a50573d6000803e3d6000fd5b505050506040513d601f19601f82011682018060405250810190614a749190615352565b614a7e9190615886565b979650505050505050565b8115614af257604051633ed96eff60e11b81526001600160a01b03851690637db2ddfe90614abf9089908690889060040161547d565b600060405180830381600087803b158015614ad957600080fd5b505af1158015614aed573d6000803e3d6000fd5b505050505b8015614b5657604051633ed96eff60e11b81526001600160a01b03851690637db2ddfe90614b289088908590889060040161547d565b600060405180830381600087803b158015614b4257600080fd5b505af1158015611c94573d6000803e3d6000fd5b505050505050565b6001600160a01b03163b151590565b600054610100900460ff16614b945760405162461bcd60e51b815260040161062990615674565b600080546001600160a01b03909216620100000262010000600160b01b0319909216919091179055565b6060614bcd8484600085614bd7565b90505b9392505050565b606082471015614c385760405162461bcd60e51b815260206004820152602660248201527f416464726573733a20696e73756666696369656e742062616c616e636520666f6044820152651c8818d85b1b60d21b6064820152608401610629565b614c4185614b5e565b614c8d5760405162461bcd60e51b815260206004820152601d60248201527f416464726573733a2063616c6c20746f206e6f6e2d636f6e74726163740000006044820152606401610629565b600080866001600160a01b03168587604051614ca99190615434565b60006040518083038185875af1925050503d8060008114614ce6576040519150601f19603f3d011682016040523d82523d6000602084013e614ceb565b606091505b5091509150614a7e82828660608315614d05575081614bd0565b825115614d155782518084602001fd5b8160405162461bcd60e51b8152600401610629919061557e565b828054828255906000526020600020908101928215614d84579160200282015b82811115614d8457825182546001600160a01b0319166001600160a01b03909116178255602090920191600190910190614d4f565b5061472c9291505b8082111561472c5760008155600101614d8c565b60008083601f840112614db1578182fd5b5081356001600160401b03811115614dc7578182fd5b6020830191508360208260051b8501011115614de257600080fd5b9250929050565b600082601f830112614df9578081fd5b813560206001600160401b03821115614e1457614e1461599a565b8160051b614e2382820161578e565b838152828101908684018388018501891015614e3d578687fd5b8693505b85841015614e68578035614e54816159b0565b835260019390930192918401918401614e41565b50979650505050505050565b600082601f830112614e84578081fd5b8135614e97614e92826157be565b61578e565b818152846020838601011115614eab578283fd5b816020850160208301379081016020019190915292915050565b80516001600160401b0381168114614edc57600080fd5b919050565b600060208284031215614ef2578081fd5b8135614bd0816159b0565b600060208284031215614f0e578081fd5b8151614bd0816159b0565b600080600080600080600060e0888a031215614f33578283fd5b8735614f3e816159b0565b96506020880135614f4e816159b0565b95506040880135614f5e816159b0565b94506060880135614f6e816159b0565b93506080880135614f7e816159d3565b9699959850939692959460a0840135945060c09093013592915050565b600080600060608486031215614faf578081fd5b8335614fba816159b0565b92506020840135614fca816159b0565b929592945050506040919091013590565b600080600060608486031215614fef578081fd5b8351614ffa816159b0565b602085015190935061500b816159d3565b604085015190925061501c816159b0565b809150509250925092565b60008060008060008060008060006101208a8c031215615045578283fd5b89356001600160401b0381111561505a578384fd5b6150668c828d01614de9565b99505060208a0135615077816159b0565b975060408a0135965060608a013561508e816159d3565b955060808a013561509e816159d3565b945060a08a01356150ae816159d3565b935060c08a01356150be816159d3565b925060e08a01356150ce816159b0565b91506101008a01356150df816159b0565b809150509295985092959850929598565b60008060208385031215615102578182fd5b82356001600160401b03811115615117578283fd5b61512385828601614da0565b90969095509350505050565b600080600080600060608688031215615146578283fd5b85356001600160401b038082111561515c578485fd5b61516889838a01614da0565b90975095506020880135915080821115615180578485fd5b5061518d88828901614da0565b96999598509660400135949350505050565b6000602082840312156151b0578081fd5b8151614bd0816159c5565b600080604083850312156151cd578182fd5b505080516020909101519092909150565b6000602082840312156151ef578081fd5b81516001600160401b03811115615204578182fd5b8201601f81018413615214578182fd5b8051615222614e92826157be565b818152856020838501011115615236578384fd5b615247826020830160208601615923565b95945050505050565b60008060408385031215615262578182fd5b82356001600160401b0380821115615278578384fd5b61528486838701614e74565b93506020850135915080821115615299578283fd5b506152a685828601614e74565b9150509250929050565b6000608082840312156152c1578081fd5b604051608081016001600160401b03811182821017156152e3576152e361599a565b60405282516001600160801b03811681146152fc578283fd5b815261530a60208401614ec5565b602082015261531b60408401614ec5565b6040820152606083015161532e816159c5565b60608201529392505050565b60006020828403121561534b578081fd5b5035919050565b600060208284031215615363578081fd5b5051919050565b600080600080600060808688031215615381578283fd5b8535945060208601356001600160401b0381111561539d578384fd5b6153a988828901614da0565b9095509350506040860135915060608601356153c4816159c5565b809150509295509295909350565b600080600080600060a086880312156153e9578283fd5b85356153f4816159d3565b94506020860135615404816159d3565b93506040860135615414816159d3565b92506060860135615424816159d3565b915060808601356153c4816159d3565b60008251615446818460208701615923565b9190910192915050565b6001600160a01b0391909116815260200190565b6001600160a01b03929092168252602082015260400190565b6001600160a01b03939093168352602083019190915263ffffffff16604082015260600190565b6020808252825182820181905260009190848201906040850190845b818110156154e55783516001600160a01b0316835292840192918401916001016154c0565b50909695505050505050565b602080825282518282018190526000919060409081850190868401855b8281101561554957815180516001600160a01b039081168652878201511687860152850151858501526060909301929085019060010161550e565b5091979650505050505050565b60208101600e831061557857634e487b7160e01b600052602160045260246000fd5b91905290565b602081526000825180602084015261559d816040850160208701615923565b601f01601f19169190910160400192915050565b6020808252602a908201527f436f6e74726f6c6c65643a3a6f6e6c794f776e65723a2043616c6c6572206973604082015269103737ba1037bbb732b960b11b606082015260800190565b6020808252600b908201526a626164206164647265737360a81b604082015260600190565b60208082526034908201527f436f6e74726f6c6c65643a3a6f6e6c79436f6e74726f6c6c65723a2043616c6c60408201527332b91034b9903737ba1031b7b73a3937b63632b960611b606082015260800190565b6020808252602b908201527f496e697469616c697a61626c653a20636f6e7472616374206973206e6f74206960408201526a6e697469616c697a696e6760a81b606082015260800190565b84815260606020808301829052908201849052600090859060808401835b8781101561570b5783356156f0816159b0565b6001600160a01b0316825292820192908201906001016156dd565b5080935050505082604083015295945050505050565b63ffffffff91909116815260200190565b6000808335601e19843603018112615748578283fd5b8301803591506001600160401b03821115615761578283fd5b6020019150600581901b3603821315614de257600080fd5b60008235605e19833603018112615446578182fd5b604051601f8201601f191681016001600160401b03811182821017156157b6576157b661599a565b604052919050565b60006001600160401b038211156157d7576157d761599a565b50601f01601f191660200190565b60006001600160f81b0382811684821680830382111561580757615807615984565b01949350505050565b6000821982111561582357615823615984565b500190565b600063ffffffff80831681851680830382111561580757615807615984565b60008261586257634e487b7160e01b81526012600452602481fd5b500490565b600081600019048311821515161561588157615881615984565b500290565b60008282101561589857615898615984565b500390565b6000606082360312156158ae578081fd5b604051606081016001600160401b0380821183831017156158d1576158d161599a565b81604052843591506158e2826159b0565b908252602084013590808211156158f7578384fd5b5061590436828601614de9565b6020830152506040830135615918816159d3565b604082015292915050565b60005b8381101561593e578181015183820152602001615926565b8381111561214a5750506000910152565b600060001982141561596357615963615984565b5060010190565b6000600160ff1b82141561598057615980615984565b0390565b634e487b7160e01b600052601160045260246000fd5b634e487b7160e01b600052604160045260246000fd5b6001600160a01b03811681146109dd57600080fd5b80151581146109dd57600080fd5b63ffffffff811681146109dd57600080fdfea2646970667358221220ee9b3c31199ebe9c6551539473de8fe276f8631c281db576cfd328eaf66e8fc764736f6c63430008040033",
  "devdoc": {
    "kind": "dev",
    "methods": {
      "biosBuyBack(uint256)": {
        "params": {
          "ratioX1000": "BIOS/WETH ratio for front runner protection"
        }
      },
      "distributeEth(uint256[],uint256[],uint256)": {
        "params": {
          "biosAmount": "Amount of bios deposited to prevent flashing",
          "positions": "An array of the total position value for the strategy to prevent flashing",
          "strategyId": "An aray of strategy strategyId to distribute eth for"
        }
      },
      "ethToProtocolFeeAccrual(uint256)": {
        "params": {
          "protocolFeeEthRewardsAmount": "Amount of ETH to distribute to protocol fee accrual"
        }
      },
      "getEthDistributionWeights()": {
        "returns": {
          "_0": "The BIOS buyback ETH weight",
          "_1": "The Treasury ETH weight",
          "_2": "The Protocol fee ETH weight",
          "_3": "The rewards ETH weight",
          "_4": "The synthetic pool ETH supplement weight"
        }
      },
      "getEthWeightSum()": {
        "returns": {
          "ethWeightSum": "The sum of ETH distribution weights"
        }
      },
      "getGasAccount()": {
        "returns": {
          "_0": "The address of the gas account"
        }
      },
      "getGasAccountTargetEthBalance()": {
        "returns": {
          "_0": "The target ETH balance of the gas account"
        }
      },
      "getLastEthRewardsAmount()": {
        "returns": {
          "_0": "The last amount of ETH distributed to rewards"
        }
      },
      "getLastHarvestYieldTimestamp(address)": {
        "returns": {
          "_0": "The timestamp the harvestYield function was last called"
        }
      },
      "getReserveTokenBalance(address)": {
        "params": {
          "tokenAddress": "The address of the token ERC20 contract"
        },
        "returns": {
          "_0": "The amount of the token held in the Kernel as reserves"
        }
      },
      "getTreasuryAccount()": {
        "returns": {
          "_0": "The address of the treasury account"
        }
      },
      "harvestYield(uint256,address[],uint256,bool)": {
        "params": {
          "integrations": "The integrations to harvest yield from",
          "strategyId": "Strategy to credit the yield to"
        }
      },
      "initialize(address[],address,uint256,uint32,uint32,uint32,uint32,address,address)": {
        "params": {
          "biosBuyBackEthWeight_": "The relative weight of ETH to send to BIOS buy back",
          "controllers_": "The addresses of the controlling contracts",
          "gasAccountTargetEthBalance_": "The target ETH balance of the gas account",
          "gasAccount_": "The address of the account to send ETH to gas for executing bulk system functions",
          "moduleMap_": "Address of the Module Map",
          "protocolFeeEthWeight_": "The relative weight of ETH to send to protocol fee accrual",
          "rewardsEthWeight_": "The relative weight of ETH to send to user rewards",
          "treasuryAccount_": "The address of the system treasury account",
          "treasuryEthWeight_": "The relative weight of ETH to send to the treasury"
        }
      },
      "updateEthDistributionWeights(uint32,uint32,uint32,uint32,uint32)": {
        "params": {
          "biosBuyBackEthWeight_": "The relative weight of ETH to send to BIOS buy back",
          "protocolFeeEthWeight_": "The relative weight of ETH to send to protocol fee accrual",
          "rewardsEthWeight_": "The relative weight of ETH to send to user rewards",
          "syntheticPoolSupplement_": "The relative weight of ETH to send to synthetic pool on curve",
          "treasuryEthWeight_": "The relative weight of ETH to send to the treasury"
        }
      },
      "updateGasAccount(address)": {
        "params": {
          "gasAccount_": "The address of the account to send ETH to gas for executing bulk system functions"
        }
      },
      "updateGasAccountTargetEthBalance(uint256)": {
        "params": {
          "gasAccountTargetEthBalance_": "The target ETH balance of the gas account"
        }
      },
      "updateTreasuryAccount(address)": {
        "params": {
          "treasuryAccount_": "The address of the system treasury account"
        }
      }
    },
    "title": "Yield Manager",
    "version": 1
  },
  "userdoc": {
    "kind": "user",
    "methods": {
      "biosBuyBack(uint256)": {
        "notice": "Uses any WETH held in the SushiSwap trader to buy back BIOS which is sent to the Kernel"
      },
      "deploy((address,address[],uint32)[])": {
        "notice": "Deploys all tokens to all integrations according to configured weights and also sends hedge amount to specified pool"
      },
      "distributeEth(uint256[],uint256[],uint256)": {
        "notice": "Distributes ETH to the gas account, BIOS buy back, treasury, protocol fee accrual, and user rewards"
      },
      "ethToProtocolFeeAccrual(uint256)": {
        "notice": "Distributes ETH to protocol fee accrual (BIOS staker rewards)"
      },
      "harvestYield(uint256,address[],uint256,bool)": {
        "notice": "Harvests available yield from provided and integration, credited to strategy"
      },
      "transferClosedPositionsValue(address,address,uint256)": {
        "notice": "Help methods*"
      }
    },
    "notice": "Manages yield deployments, harvesting, processing, and distribution",
    "version": 1
  },
  "storageLayout": {
    "storage": [
      {
        "astId": 702,
        "contract": "contracts/core/YieldManager.sol:YieldManager",
        "label": "_initialized",
        "offset": 0,
        "slot": "0",
        "type": "t_bool"
      },
      {
        "astId": 705,
        "contract": "contracts/core/YieldManager.sol:YieldManager",
        "label": "_initializing",
        "offset": 1,
        "slot": "0",
        "type": "t_bool"
      },
      {
        "astId": 15684,
        "contract": "contracts/core/YieldManager.sol:YieldManager",
        "label": "moduleMap",
        "offset": 2,
        "slot": "0",
        "type": "t_contract(IModuleMap)29669"
      },
      {
        "astId": 9016,
        "contract": "contracts/core/YieldManager.sol:YieldManager",
        "label": "_controllers",
        "offset": 0,
        "slot": "1",
        "type": "t_mapping(t_address,t_bool)"
      },
      {
        "astId": 9019,
        "contract": "contracts/core/YieldManager.sol:YieldManager",
        "label": "controllers",
        "offset": 0,
        "slot": "2",
        "type": "t_array(t_address)dyn_storage"
      },
      {
        "astId": 25150,
        "contract": "contracts/core/YieldManager.sol:YieldManager",
        "label": "gasAccountTargetEthBalance",
        "offset": 0,
        "slot": "3",
        "type": "t_uint256"
      },
      {
        "astId": 25152,
        "contract": "contracts/core/YieldManager.sol:YieldManager",
        "label": "biosBuyBackEthWeight",
        "offset": 0,
        "slot": "4",
        "type": "t_uint32"
      },
      {
        "astId": 25154,
        "contract": "contracts/core/YieldManager.sol:YieldManager",
        "label": "treasuryEthWeight",
        "offset": 4,
        "slot": "4",
        "type": "t_uint32"
      },
      {
        "astId": 25156,
        "contract": "contracts/core/YieldManager.sol:YieldManager",
        "label": "protocolFeeEthWeight",
        "offset": 8,
        "slot": "4",
        "type": "t_uint32"
      },
      {
        "astId": 25158,
        "contract": "contracts/core/YieldManager.sol:YieldManager",
        "label": "rewardsEthWeight",
        "offset": 12,
        "slot": "4",
        "type": "t_uint32"
      },
      {
        "astId": 25160,
        "contract": "contracts/core/YieldManager.sol:YieldManager",
        "label": "syntheticPoolSupplementEthWeight",
        "offset": 16,
        "slot": "4",
        "type": "t_uint32"
      },
      {
        "astId": 25162,
        "contract": "contracts/core/YieldManager.sol:YieldManager",
        "label": "lastEthRewardsAmount",
        "offset": 0,
        "slot": "5",
        "type": "t_uint256"
      },
      {
        "astId": 25164,
        "contract": "contracts/core/YieldManager.sol:YieldManager",
        "label": "gasAccount",
        "offset": 0,
        "slot": "6",
        "type": "t_address_payable"
      },
      {
        "astId": 25166,
        "contract": "contracts/core/YieldManager.sol:YieldManager",
        "label": "treasuryAccount",
        "offset": 0,
        "slot": "7",
        "type": "t_address_payable"
      },
      {
        "astId": 25170,
        "contract": "contracts/core/YieldManager.sol:YieldManager",
        "label": "processedWethByToken",
        "offset": 0,
        "slot": "8",
        "type": "t_mapping(t_address,t_uint256)"
      },
      {
        "astId": 25174,
        "contract": "contracts/core/YieldManager.sol:YieldManager",
        "label": "lastHarvestTimestampByIntegration",
        "offset": 0,
        "slot": "9",
        "type": "t_mapping(t_address,t_uint256)"
      },
      {
        "astId": 25179,
        "contract": "contracts/core/YieldManager.sol:YieldManager",
        "label": "strategies",
        "offset": 0,
        "slot": "10",
        "type": "t_mapping(t_uint256,t_struct(StrategyInfo)33806_storage)"
      },
      {
        "astId": 25181,
        "contract": "contracts/core/YieldManager.sol:YieldManager",
        "label": "driftingSynthetic",
        "offset": 0,
        "slot": "11",
        "type": "t_uint256"
      },
      {
        "astId": 25186,
        "contract": "contracts/core/YieldManager.sol:YieldManager",
        "label": "hedged",
        "offset": 0,
        "slot": "12",
        "type": "t_mapping(t_address,t_struct(DeployRAM)25191_storage)"
      }
    ],
    "types": {
      "t_address": {
        "encoding": "inplace",
        "label": "address",
        "numberOfBytes": "20"
      },
      "t_address_payable": {
        "encoding": "inplace",
        "label": "address payable",
        "numberOfBytes": "20"
      },
      "t_array(t_address)dyn_storage": {
        "base": "t_address",
        "encoding": "dynamic_array",
        "label": "address[]",
        "numberOfBytes": "32"
      },
      "t_bool": {
        "encoding": "inplace",
        "label": "bool",
        "numberOfBytes": "1"
      },
      "t_contract(IModuleMap)29669": {
        "encoding": "inplace",
        "label": "contract IModuleMap",
        "numberOfBytes": "20"
      },
      "t_mapping(t_address,t_bool)": {
        "encoding": "mapping",
        "key": "t_address",
        "label": "mapping(address => bool)",
        "numberOfBytes": "32",
        "value": "t_bool"
      },
      "t_mapping(t_address,t_struct(DeployRAM)25191_storage)": {
        "encoding": "mapping",
        "key": "t_address",
        "label": "mapping(address => struct YieldManager.DeployRAM)",
        "numberOfBytes": "32",
        "value": "t_struct(DeployRAM)25191_storage"
      },
      "t_mapping(t_address,t_uint256)": {
        "encoding": "mapping",
        "key": "t_address",
        "label": "mapping(address => uint256)",
        "numberOfBytes": "32",
        "value": "t_uint256"
      },
      "t_mapping(t_uint256,t_struct(StrategyInfo)33806_storage)": {
        "encoding": "mapping",
        "key": "t_uint256",
        "label": "mapping(uint256 => struct IYieldManager.StrategyInfo)",
        "numberOfBytes": "32",
        "value": "t_struct(StrategyInfo)33806_storage"
      },
      "t_struct(DeployRAM)25191_storage": {
        "encoding": "inplace",
        "label": "struct YieldManager.DeployRAM",
        "members": [
          {
            "astId": 25188,
            "contract": "contracts/core/YieldManager.sol:YieldManager",
            "label": "hedgeAmount",
            "offset": 0,
            "slot": "0",
            "type": "t_uint248"
          },
          {
            "astId": 25190,
            "contract": "contracts/core/YieldManager.sol:YieldManager",
            "label": "tokenFlag",
            "offset": 31,
            "slot": "0",
            "type": "t_uint8"
          }
        ],
        "numberOfBytes": "32"
      },
      "t_struct(StrategyInfo)33806_storage": {
        "encoding": "inplace",
        "label": "struct IYieldManager.StrategyInfo",
        "members": [
          {
            "astId": 33801,
            "contract": "contracts/core/YieldManager.sol:YieldManager",
            "label": "processedWeth",
            "offset": 0,
            "slot": "0",
            "type": "t_uint256"
          },
          {
            "astId": 33803,
            "contract": "contracts/core/YieldManager.sol:YieldManager",
            "label": "distributedWeth",
            "offset": 0,
            "slot": "1",
            "type": "t_uint256"
          },
          {
            "astId": 33805,
            "contract": "contracts/core/YieldManager.sol:YieldManager",
            "label": "lastHarvest",
            "offset": 0,
            "slot": "2",
            "type": "t_uint256"
          }
        ],
        "numberOfBytes": "96"
      },
      "t_uint248": {
        "encoding": "inplace",
        "label": "uint248",
        "numberOfBytes": "31"
      },
      "t_uint256": {
        "encoding": "inplace",
        "label": "uint256",
        "numberOfBytes": "32"
      },
      "t_uint32": {
        "encoding": "inplace",
        "label": "uint32",
        "numberOfBytes": "4"
      },
      "t_uint8": {
        "encoding": "inplace",
        "label": "uint8",
        "numberOfBytes": "1"
      }
    }
  }
}