{
  "address": "0xb2949F8c8f1e648BBA6d9D9045280ABf63D461c9",
  "abi": [
    {
      "anonymous": false,
      "inputs": [
        {
          "indexed": true,
          "internalType": "address",
          "name": "token",
          "type": "address"
        },
        {
          "indexed": false,
          "internalType": "uint256",
          "name": "reward",
          "type": "uint256"
        },
        {
          "indexed": false,
          "internalType": "uint32",
          "name": "duration",
          "type": "uint32"
        }
      ],
      "name": "RewardAdded",
      "type": "event"
    },
    {
      "inputs": [
        {
          "internalType": "address[]",
          "name": "controllers_",
          "type": "address[]"
        },
        {
          "internalType": "address",
          "name": "moduleMap_",
          "type": "address"
        }
      ],
      "name": "__Controlled_init",
      "outputs": [],
      "stateMutability": "nonpayable",
      "type": "function"
    },
    {
      "inputs": [
        {
          "internalType": "address",
          "name": "controller",
          "type": "address"
        }
      ],
      "name": "addController",
      "outputs": [],
      "stateMutability": "nonpayable",
      "type": "function"
    },
    {
      "inputs": [
        {
          "internalType": "address",
          "name": "recipient",
          "type": "address"
        }
      ],
      "name": "claimBiosRewards",
      "outputs": [
        {
          "internalType": "uint256",
          "name": "biosClaimed",
          "type": "uint256"
        }
      ],
      "stateMutability": "nonpayable",
      "type": "function"
    },
    {
      "inputs": [
        {
          "internalType": "address",
          "name": "token",
          "type": "address"
        },
        {
          "internalType": "address",
          "name": "account",
          "type": "address"
        }
      ],
      "name": "claimReward",
      "outputs": [
        {
          "internalType": "uint256",
          "name": "reward",
          "type": "uint256"
        }
      ],
      "stateMutability": "nonpayable",
      "type": "function"
    },
    {
      "inputs": [
        {
          "internalType": "uint256",
          "name": "",
          "type": "uint256"
        }
      ],
      "name": "controllers",
      "outputs": [
        {
          "internalType": "address",
          "name": "",
          "type": "address"
        }
      ],
      "stateMutability": "view",
      "type": "function"
    },
    {
      "inputs": [
        {
          "internalType": "address",
          "name": "token",
          "type": "address"
        },
        {
          "internalType": "address",
          "name": "account",
          "type": "address"
        },
        {
          "internalType": "uint256",
          "name": "amount",
          "type": "uint256"
        }
      ],
      "name": "decreaseRewards",
      "outputs": [],
      "stateMutability": "nonpayable",
      "type": "function"
    },
    {
      "inputs": [
        {
          "internalType": "address",
          "name": "token",
          "type": "address"
        },
        {
          "internalType": "address",
          "name": "account",
          "type": "address"
        }
      ],
      "name": "earned",
      "outputs": [
        {
          "internalType": "uint256",
          "name": "",
          "type": "uint256"
        }
      ],
      "stateMutability": "view",
      "type": "function"
    },
    {
      "inputs": [],
      "name": "getBiosRewards",
      "outputs": [
        {
          "internalType": "uint256",
          "name": "",
          "type": "uint256"
        }
      ],
      "stateMutability": "view",
      "type": "function"
    },
    {
      "inputs": [],
      "name": "getBiosRewardsDuration",
      "outputs": [
        {
          "internalType": "uint32",
          "name": "",
          "type": "uint32"
        }
      ],
      "stateMutability": "view",
      "type": "function"
    },
    {
      "inputs": [],
      "name": "getTotalClaimedBiosRewards",
      "outputs": [
        {
          "internalType": "uint256",
          "name": "",
          "type": "uint256"
        }
      ],
      "stateMutability": "view",
      "type": "function"
    },
    {
      "inputs": [
        {
          "internalType": "address",
          "name": "account",
          "type": "address"
        }
      ],
      "name": "getTotalUserClaimedBiosRewards",
      "outputs": [
        {
          "internalType": "uint256",
          "name": "",
          "type": "uint256"
        }
      ],
      "stateMutability": "view",
      "type": "function"
    },
    {
      "inputs": [
        {
          "internalType": "address",
          "name": "account",
          "type": "address"
        }
      ],
      "name": "getUserBiosRewards",
      "outputs": [
        {
          "internalType": "uint256",
          "name": "userBiosRewards",
          "type": "uint256"
        }
      ],
      "stateMutability": "view",
      "type": "function"
    },
    {
      "inputs": [],
      "name": "increaseBiosRewards",
      "outputs": [],
      "stateMutability": "nonpayable",
      "type": "function"
    },
    {
      "inputs": [
        {
          "internalType": "address",
          "name": "token",
          "type": "address"
        },
        {
          "internalType": "address",
          "name": "account",
          "type": "address"
        },
        {
          "internalType": "uint256",
          "name": "amount",
          "type": "uint256"
        }
      ],
      "name": "increaseRewards",
      "outputs": [],
      "stateMutability": "nonpayable",
      "type": "function"
    },
    {
      "inputs": [
        {
          "internalType": "address[]",
          "name": "controllers_",
          "type": "address[]"
        },
        {
          "internalType": "address",
          "name": "moduleMap_",
          "type": "address"
        },
        {
          "internalType": "uint32",
          "name": "biosRewardsDuration",
          "type": "uint32"
        }
      ],
      "name": "initialize",
      "outputs": [],
      "stateMutability": "nonpayable",
      "type": "function"
    },
    {
      "inputs": [
        {
          "internalType": "address",
          "name": "token",
          "type": "address"
        }
      ],
      "name": "lastTimeRewardApplicable",
      "outputs": [
        {
          "internalType": "uint256",
          "name": "",
          "type": "uint256"
        }
      ],
      "stateMutability": "view",
      "type": "function"
    },
    {
      "inputs": [
        {
          "internalType": "address",
          "name": "",
          "type": "address"
        }
      ],
      "name": "lastUpdateTime",
      "outputs": [
        {
          "internalType": "uint256",
          "name": "",
          "type": "uint256"
        }
      ],
      "stateMutability": "view",
      "type": "function"
    },
    {
      "inputs": [],
      "name": "moduleMap",
      "outputs": [
        {
          "internalType": "contract IModuleMap",
          "name": "",
          "type": "address"
        }
      ],
      "stateMutability": "view",
      "type": "function"
    },
    {
      "inputs": [
        {
          "internalType": "address",
          "name": "token",
          "type": "address"
        },
        {
          "internalType": "uint256",
          "name": "reward",
          "type": "uint256"
        },
        {
          "internalType": "uint32",
          "name": "duration",
          "type": "uint32"
        }
      ],
      "name": "notifyRewardAmount",
      "outputs": [],
      "stateMutability": "nonpayable",
      "type": "function"
    },
    {
      "inputs": [
        {
          "internalType": "address",
          "name": "",
          "type": "address"
        }
      ],
      "name": "periodFinish",
      "outputs": [
        {
          "internalType": "uint256",
          "name": "",
          "type": "uint256"
        }
      ],
      "stateMutability": "view",
      "type": "function"
    },
    {
      "inputs": [
        {
          "internalType": "address",
          "name": "token",
          "type": "address"
        }
      ],
      "name": "rewardPerToken",
      "outputs": [
        {
          "internalType": "uint256",
          "name": "",
          "type": "uint256"
        }
      ],
      "stateMutability": "view",
      "type": "function"
    },
    {
      "inputs": [
        {
          "internalType": "address",
          "name": "",
          "type": "address"
        }
      ],
      "name": "rewardPerTokenStored",
      "outputs": [
        {
          "internalType": "uint256",
          "name": "",
          "type": "uint256"
        }
      ],
      "stateMutability": "view",
      "type": "function"
    },
    {
      "inputs": [
        {
          "internalType": "address",
          "name": "",
          "type": "address"
        }
      ],
      "name": "rewardRate",
      "outputs": [
        {
          "internalType": "uint256",
          "name": "",
          "type": "uint256"
        }
      ],
      "stateMutability": "view",
      "type": "function"
    },
    {
      "inputs": [
        {
          "internalType": "address",
          "name": "",
          "type": "address"
        },
        {
          "internalType": "address",
          "name": "",
          "type": "address"
        }
      ],
      "name": "rewards",
      "outputs": [
        {
          "internalType": "uint256",
          "name": "",
          "type": "uint256"
        }
      ],
      "stateMutability": "view",
      "type": "function"
    },
    {
      "inputs": [
        {
          "internalType": "address",
          "name": "sender",
          "type": "address"
        },
        {
          "internalType": "uint256",
          "name": "biosAmount",
          "type": "uint256"
        }
      ],
      "name": "seedBiosRewards",
      "outputs": [],
      "stateMutability": "nonpayable",
      "type": "function"
    },
    {
      "inputs": [
        {
          "internalType": "uint32",
          "name": "biosRewardsDuration_",
          "type": "uint32"
        }
      ],
      "name": "setBiosRewardsDuration",
      "outputs": [],
      "stateMutability": "nonpayable",
      "type": "function"
    },
    {
      "inputs": [
        {
          "internalType": "address",
          "name": "",
          "type": "address"
        },
        {
          "internalType": "address",
          "name": "",
          "type": "address"
        }
      ],
      "name": "userRewardPerTokenPaid",
      "outputs": [
        {
          "internalType": "uint256",
          "name": "",
          "type": "uint256"
        }
      ],
      "stateMutability": "view",
      "type": "function"
    }
  ],
  "transactionHash": "0x495eb046c8cef84b072a450cc0193678a2b7c558cd6ffd3f11c3d3478e77c449",
  "args": [],
  "solcInputHash": "b47431c749983b9cdc618a1346524170",
  "bytecode": "0x608060405234801561001057600080fd5b50612ef2806100206000396000f3fe608060405234801561001057600080fd5b50600436106101495760003560e01c806304abbb1c1461014e5780630f0a1c6f14610163578063182b69fd146101925780631f126bd0146101a4578063211dc32d146101b7578063221ca18c146101ca5780632ce9aead146101ea57806335f6978f1461020a57806341a275e4146102125780634953c78214610225578063638634ee14610238578063668e69611461024b57806367dc15bc146102745780637035ab9814610287578063705624cd146102b25780637af85b53146102c55780637b65fb1c146102dd57806384afeffd146102f05780638c3b32ee1461030357806398c671ce1461030b5780639ce43f901461031e578063a7fc7a071461033e578063da09d19d14610351578063e70b9e2714610371578063e94b0dd21461039c578063f1229777146103af578063f487f603146103c2575b600080fd5b61016161015c366004612c37565b6103d5565b005b60005461017c906201000090046001600160a01b031681565b6040516101899190612c6d565b60405180910390f35b6004545b604051908152602001610189565b6101616101b2366004612aa7565b610523565b6101966101c5366004612a6f565b610667565b6101966101d8366004612a37565b60076020526000908152604090205481565b6101966101f8366004612a37565b60086020526000908152604090205481565b600354610196565b610161610220366004612b12565b6107f5565b610196610233366004612a6f565b610805565b610196610246366004612a37565b61097c565b610196610259366004612a37565b6001600160a01b031660009081526005602052604090205490565b610196610282366004612a37565b6109a6565b610196610295366004612a6f565b600a60209081526000928352604080842090915290825290205481565b6101616102c0366004612b93565b610b52565b600c5460405163ffffffff9091168152602001610189565b6101616102eb366004612aa7565b610be6565b6101966102fe366004612a37565b610d23565b610161610d5b565b610161610319366004612b4f565b610d94565b61019661032c366004612a37565b60096020526000908152604090205481565b61016161034c366004612a37565b610f39565b61019661035f366004612a37565b60066020526000908152604090205481565b61019661037f366004612a6f565b600b60209081526000928352604080842090915290825290205481565b61017c6103aa366004612c07565b611176565b6101966103bd366004612a37565b6111a0565b6101616103d0366004612ae7565b611352565b3360009081526001602052604090205460ff1661040d5760405162461bcd60e51b815260040161040490612d4f565b60405180910390fd5b600c5463ffffffff8281169116141561048d5760405162461bcd60e51b81526020600482015260486024820152600080516020612e9d83398151915260448201527f696f6e3a204475726174696f6e206d7573742062652073657420746f2061206e60648201526765772076616c756560c01b608482015260a401610404565b60008163ffffffff16116105075760405162461bcd60e51b81526020600482015260476024820152600080516020612e9d83398151915260448201527f696f6e3a204475726174696f6e206d7573742062652067726561746572207468606482015266616e207a65726f60c81b608482015260a401610404565b600c805463ffffffff191663ffffffff92909216919091179055565b3360009081526001602052604090205460ff166105525760405162461bcd60e51b815260040161040490612d4f565b828261055d826111a0565b6001600160a01b03831660009081526009602052604090205561057f8261097c565b6001600160a01b038084166000908152600860205260409020919091558116156105f8576105ad8282610667565b6001600160a01b038084166000818152600b60209081526040808320948716808452948252808320959095559181526009825283812054600a83528482209382529290915291909120555b600083116106605760405162461bcd60e51b815260206004820152602f60248201527f42696f73526577617264733a3a6465637265617365526577617264733a20436160448201526e06e6e6f74206465637265617365203608c1b6064820152608401610404565b5050505050565b600080546040516337c61fc560e11b815282916201000090046001600160a01b031690636f8c3f8a9061069f90600190600401612c81565b60206040518083038186803b1580156106b757600080fd5b505afa1580156106cb573d6000803e3d6000fd5b505050506040513d601f19601f820116820180604052508101906106ef9190612a53565b6001600160a01b038086166000818152600b6020908152604080832094891680845294825280832054938352600a8252808320948352939052919091205491925090670de0b6b3a764000090610744876111a0565b61074e9190612dfa565b60405163168e0c9960e31b81526001600160a01b038881166004830152878116602483015285169063b47064c89060440160206040518083038186803b15801561079757600080fd5b505afa1580156107ab573d6000803e3d6000fd5b505050506040513d601f19601f820116820180604052508101906107cf9190612c1f565b6107d99190612ddb565b6107e39190612dbb565b6107ed9190612da3565b949350505050565b6108008383836115a2565b505050565b3360009081526001602052604081205460ff166108345760405162461bcd60e51b815260040161040490612d4f565b828261083f826111a0565b6001600160a01b0383166000908152600960205260409020556108618261097c565b6001600160a01b038084166000908152600860205260409020919091558116156108da5761088f8282610667565b6001600160a01b038084166000818152600b60209081526040808320948716808452948252808320959095559181526009825283812054600a83528482209382529290915291909120555b6108e48585610667565b92508215610974576001600160a01b038086166000908152600b60209081526040808320938816835292905290812081905560038054859290610928908490612dfa565b9250508190555082600460008282546109419190612da3565b90915550506001600160a01b0384166000908152600560205260408120805485929061096e908490612da3565b90915550505b505092915050565b6001600160a01b0381166000908152600660205260408120546109a09042906117cb565b92915050565b600080546040516337c61fc560e11b815282916201000090046001600160a01b031690636f8c3f8a906109de90600390600401612c81565b60206040518083038186803b1580156109f657600080fd5b505afa158015610a0a573d6000803e3d6000fd5b505050506040513d601f19601f82011682018060405250810190610a2e9190612a53565b905060005b816001600160a01b031663f35823736040518163ffffffff1660e01b815260040160206040518083038186803b158015610a6c57600080fd5b505afa158015610a80573d6000803e3d6000fd5b505050506040513d601f19601f82011682018060405250810190610aa49190612c1f565b811015610b4b57604051630cf99be760e31b815260048101829052610b2d906001600160a01b038416906367ccdf389060240160206040518083038186803b158015610aef57600080fd5b505afa158015610b03573d6000803e3d6000fd5b505050506040513d601f19601f82011682018060405250810190610b279190612a53565b85610667565b610b379084612da3565b925080610b4381612e3d565b915050610a33565b5050919050565b600054610100900460ff16610b6d5760005460ff1615610b71565b303b155b610b8d5760405162461bcd60e51b815260040161040490612cdc565b600054610100900460ff16158015610baf576000805461ffff19166101011790555b610bb98484610d94565b600c805463ffffffff191663ffffffff84161790558015610be0576000805461ff00191690555b50505050565b3360009081526001602052604090205460ff16610c155760405162461bcd60e51b815260040161040490612d4f565b8282610c20826111a0565b6001600160a01b038316600090815260096020526040902055610c428261097c565b6001600160a01b03808416600090815260086020526040902091909155811615610cbb57610c708282610667565b6001600160a01b038084166000818152600b60209081526040808320948716808452948252808320959095559181526009825283812054600a83528482209382529290915291909120555b600083116106605760405162461bcd60e51b815260206004820152602f60248201527f42696f73526577617264733a3a696e637265617365526577617264733a20436160448201526e06e6e6f7420696e637265617365203608c1b6064820152608401610404565b3360009081526001602052604081205460ff16610d525760405162461bcd60e51b815260040161040490612d4f565b6109a0826117e1565b3360009081526001602052604090205460ff16610d8a5760405162461bcd60e51b815260040161040490612d4f565b610d92611ab2565b565b600054610100900460ff16610daf5760005460ff1615610db3565b303b155b610dcf5760405162461bcd60e51b815260040161040490612cdc565b600054610100900460ff16158015610df1576000805461ffff19166101011790555b6001600160a01b038216610e175760405162461bcd60e51b815260040161040490612d2a565b60005b8351811015610e8f5760006001600160a01b0316848281518110610e4e57634e487b7160e01b600052603260045260246000fd5b60200260200101516001600160a01b03161415610e7d5760405162461bcd60e51b815260040161040490612d2a565b80610e8781612e3d565b915050610e1a565b5060005b8351811015610f05576001806000868481518110610ec157634e487b7160e01b600052603260045260246000fd5b6020908102919091018101516001600160a01b03168252810191909152604001600020805460ff191691151591909117905580610efd81612e3d565b915050610e93565b508251610f199060029060208601906128f5565b50610f238261228e565b8015610800576000805461ff0019169055505050565b600080546040516337c61fc560e11b8152620100009091046001600160a01b031691636f8c3f8a91610f6e9190600401612c81565b60206040518083038186803b158015610f8657600080fd5b505afa158015610f9a573d6000803e3d6000fd5b505050506040513d601f19601f82011682018060405250810190610fbe9190612a53565b6001600160a01b0316632f54bf6e336040518263ffffffff1660e01b8152600401610fe99190612c6d565b60206040518083038186803b15801561100157600080fd5b505afa158015611015573d6000803e3d6000fd5b505050506040513d601f19601f820116820180604052508101906110399190612be7565b6110985760405162461bcd60e51b815260206004820152602a60248201527f436f6e74726f6c6c65643a3a6f6e6c794f776e65723a2043616c6c6572206973604482015269103737ba1037bbb732b960b11b6064820152608401610404565b6001600160a01b03811660009081526001602081905260408220805460ff19169091179055805b60025481101561112057600281815481106110ea57634e487b7160e01b600052603260045260246000fd5b6000918252602090912001546001600160a01b038481169116141561110e57600191505b8061111881612e3d565b9150506110bf565b508061117257600280546001810182556000919091527f405787fa12a823e0f2b7631cc41b3ba8828b3321ca811111fa75cd3aa3bb5ace0180546001600160a01b0319166001600160a01b0384161790555b5050565b6002818154811061118657600080fd5b6000918252602090912001546001600160a01b0316905081565b600080546040516337c61fc560e11b815282916201000090046001600160a01b031690636f8c3f8a906111d890600190600401612c81565b60206040518083038186803b1580156111f057600080fd5b505afa158015611204573d6000803e3d6000fd5b505050506040513d601f19601f820116820180604052508101906112289190612a53565b6001600160a01b031663f5465992846040518263ffffffff1660e01b81526004016112539190612c6d565b60206040518083038186803b15801561126b57600080fd5b505afa15801561127f573d6000803e3d6000fd5b505050506040513d601f19601f820116820180604052508101906112a39190612c1f565b9050806112c75750506001600160a01b031660009081526009602052604090205490565b6001600160a01b0383166000908152600760209081526040808320546008909252909120548291906112f88661097c565b6113029190612dfa565b61130c9190612ddb565b61131e90670de0b6b3a7640000612ddb565b6113289190612dbb565b6001600160a01b03841660009081526009602052604090205461134b9190612da3565b9392505050565b3360009081526001602052604090205460ff166113815760405162461bcd60e51b815260040161040490612d4f565b600081116114035760405162461bcd60e51b815260206004820152604360248201527f42696f73526577617264733a3a7365656442696f73526577617264733a20424960448201527f4f5320616d6f756e74206d7573742062652067726561746572207468616e207a60648201526265726f60e81b608482015260a401610404565b600080546040516337c61fc560e11b8152620100009091046001600160a01b031690636f8c3f8a9061143a90600390600401612c81565b60206040518083038186803b15801561145257600080fd5b505afa158015611466573d6000803e3d6000fd5b505050506040513d601f19601f8201168201806040525081019061148a9190612a53565b6001600160a01b03166344fc9b566040518163ffffffff1660e01b815260040160206040518083038186803b1580156114c257600080fd5b505afa1580156114d6573d6000803e3d6000fd5b505050506040513d601f19601f820116820180604052508101906114fa9190612a53565b600080546040516337c61fc560e11b815292935061159a928692620100009092046001600160a01b031691636f8c3f8a916115389190600401612c81565b60206040518083038186803b15801561155057600080fd5b505afa158015611564573d6000803e3d6000fd5b505050506040513d601f19601f820116820180604052508101906115889190612a53565b6001600160a01b038416919085612322565b610800611ab2565b8260006115ae826111a0565b6001600160a01b0383166000908152600960205260409020556115d08261097c565b6001600160a01b03808416600090815260086020526040902091909155811615611649576115fe8282610667565b6001600160a01b038084166000818152600b60209081526040808320948716808452948252808320959095559181526009825283812054600a83528482209382529290915291909120555b6001600160a01b03851660009081526006602052604090205442106116965761167863ffffffff841685612dbb565b6001600160a01b03861660009081526007602052604090205561171a565b6001600160a01b0385166000908152600660205260408120546116ba904290612dfa565b6001600160a01b038716600090815260076020526040812054919250906116e19083612ddb565b905063ffffffff85166116f48288612da3565b6116fe9190612dbb565b6001600160a01b03881660009081526007602052604090205550505b6001600160a01b038516600090815260086020526040902042908190556117489063ffffffff851690612da3565b6001600160a01b03861660009081526006602052604081209190915560038054869290611776908490612da3565b90915550506040805185815263ffffffff851660208201526001600160a01b038716917f70c212f3b1a015d66b8a21bb7d6dec623050fc2fc878c5f72d30b90000414419910160405180910390a25050505050565b60008183106117da578161134b565b5090919050565b600080546040516337c61fc560e11b815282916201000090046001600160a01b031690636f8c3f8a9061181990600390600401612c81565b60206040518083038186803b15801561183157600080fd5b505afa158015611845573d6000803e3d6000fd5b505050506040513d601f19601f820116820180604052508101906118699190612a53565b90506000816001600160a01b031663f35823736040518163ffffffff1660e01b815260040160206040518083038186803b1580156118a657600080fd5b505afa1580156118ba573d6000803e3d6000fd5b505050506040513d601f19601f820116820180604052508101906118de9190612c1f565b905060005b818110156119a457604051630cf99be760e31b8152600481018290526000906001600160a01b038516906367ccdf389060240160206040518083038186803b15801561192e57600080fd5b505afa158015611942573d6000803e3d6000fd5b505050506040513d601f19601f820116820180604052508101906119669190612a53565b905060006119748288610667565b1115611991576119848187610805565b61198e9086612da3565b94505b508061199c81612e3d565b9150506118e3565b50600080546040516337c61fc560e11b8152610b4b92620100009092046001600160a01b031691636f8c3f8a916119de9190600401612c81565b60206040518083038186803b1580156119f657600080fd5b505afa158015611a0a573d6000803e3d6000fd5b505050506040513d601f19601f82011682018060405250810190611a2e9190612a53565b8585856001600160a01b03166344fc9b566040518163ffffffff1660e01b815260040160206040518083038186803b158015611a6957600080fd5b505afa158015611a7d573d6000803e3d6000fd5b505050506040513d601f19601f82011682018060405250810190611aa19190612a53565b6001600160a01b0316929190612322565b600080546040516337c61fc560e11b8152620100009091046001600160a01b031690636f8c3f8a90611ae8906004908101612c81565b60206040518083038186803b158015611b0057600080fd5b505afa158015611b14573d6000803e3d6000fd5b505050506040513d601f19601f82011682018060405250810190611b389190612a53565b600080546040516337c61fc560e11b81529293509091620100009091046001600160a01b031690636f8c3f8a90611b7490600390600401612c81565b60206040518083038186803b158015611b8c57600080fd5b505afa158015611ba0573d6000803e3d6000fd5b505050506040513d601f19601f82011682018060405250810190611bc49190612a53565b600080546040516337c61fc560e11b81529293509091620100009091046001600160a01b031690636f8c3f8a90611c0090600190600401612c81565b60206040518083038186803b158015611c1857600080fd5b505afa158015611c2c573d6000803e3d6000fd5b505050506040513d601f19601f82011682018060405250810190611c509190612a53565b90506000826001600160a01b03166344fc9b566040518163ffffffff1660e01b815260040160206040518083038186803b158015611c8d57600080fd5b505afa158015611ca1573d6000803e3d6000fd5b505050506040513d601f19601f82011682018060405250810190611cc59190612a53565b90506000816001600160a01b03166370a08231600060029054906101000a90046001600160a01b03166001600160a01b0316636f8c3f8a60006040518263ffffffff1660e01b8152600401611d1a9190612c81565b60206040518083038186803b158015611d3257600080fd5b505afa158015611d46573d6000803e3d6000fd5b505050506040513d601f19601f82011682018060405250810190611d6a9190612a53565b6040518263ffffffff1660e01b8152600401611d869190612c6d565b60206040518083038186803b158015611d9e57600080fd5b505afa158015611db2573d6000803e3d6000fd5b505050506040513d601f19601f82011682018060405250810190611dd69190612c1f565b604051637aa32cc960e11b81529091506001600160a01b0384169063f546599290611e05908590600401612c6d565b60206040518083038186803b158015611e1d57600080fd5b505afa158015611e31573d6000803e3d6000fd5b505050506040513d601f19601f82011682018060405250810190611e559190612c1f565b856001600160a01b03166335f6978f6040518163ffffffff1660e01b815260040160206040518083038186803b158015611e8e57600080fd5b505afa158015611ea2573d6000803e3d6000fd5b505050506040513d601f19601f82011682018060405250810190611ec69190612c1f565b611ed09190612da3565b8111611f525760405162461bcd60e51b815260206004820152604560248201527f42696f73526577617264733a3a696e63726561736542696f735265776172647360448201527f3a204e6f20617661696c61626c652042494f5320746f2061646420746f207265606482015264776172647360d81b608482015260a401610404565b604051637aa32cc960e11b81526000906001600160a01b0385169063f546599290611f81908690600401612c6d565b60206040518083038186803b158015611f9957600080fd5b505afa158015611fad573d6000803e3d6000fd5b505050506040513d601f19601f82011682018060405250810190611fd19190612c1f565b866001600160a01b03166335f6978f6040518163ffffffff1660e01b815260040160206040518083038186803b15801561200a57600080fd5b505afa15801561201e573d6000803e3d6000fd5b505050506040513d601f19601f820116820180604052508101906120429190612c1f565b61204c9084612dfa565b6120569190612dfa565b90506000856001600160a01b031663f35823736040518163ffffffff1660e01b815260040160206040518083038186803b15801561209357600080fd5b505afa1580156120a7573d6000803e3d6000fd5b505050506040513d601f19601f820116820180604052508101906120cb9190612c1f565b90506000866001600160a01b0316638e7a4b186040518163ffffffff1660e01b815260040160206040518083038186803b15801561210857600080fd5b505afa15801561211c573d6000803e3d6000fd5b505050506040513d601f19601f820116820180604052508101906121409190612c1f565b905060005b8281101561228357604051630cf99be760e31b8152600481018290526000906001600160a01b038a16906367ccdf389060240160206040518083038186803b15801561219057600080fd5b505afa1580156121a4573d6000803e3d6000fd5b505050506040513d601f19601f820116820180604052508101906121c89190612a53565b90506000896001600160a01b0316633c43134d836040518263ffffffff1660e01b81526004016121f89190612c6d565b60206040518083038186803b15801561221057600080fd5b505afa158015612224573d6000803e3d6000fd5b505050506040513d601f19601f820116820180604052508101906122489190612c1f565b90506000846122578389612ddb565b6122619190612dbb565b905061226d838261237c565b505050808061227b90612e3d565b915050612145565b505050505050505050565b600054610100900460ff166122a95760005460ff16156122ad565b303b155b6122c95760405162461bcd60e51b815260040161040490612cdc565b600054610100900460ff161580156122eb576000805461ffff19166101011790555b6000805462010000600160b01b031916620100006001600160a01b038516021790558015611172576000805461ff00191690555050565b604080516001600160a01b0385811660248301528416604482015260648082018490528251808303909101815260849091019091526020810180516001600160e01b03166323b872dd60e01b179052610be0908590612718565b600080546040516337c61fc560e11b8152620100009091046001600160a01b031690636f8c3f8a906123b2906004908101612c81565b60206040518083038186803b1580156123ca57600080fd5b505afa1580156123de573d6000803e3d6000fd5b505050506040513d601f19601f820116820180604052508101906124029190612a53565b9050806001600160a01b03166335f6978f6040518163ffffffff1660e01b815260040160206040518083038186803b15801561243d57600080fd5b505afa158015612451573d6000803e3d6000fd5b505050506040513d601f19601f820116820180604052508101906124759190612c1f565b61247f9083612da3565b6000546040516337c61fc560e11b8152620100009091046001600160a01b031690636f8c3f8a906124b590600390600401612c81565b60206040518083038186803b1580156124cd57600080fd5b505afa1580156124e1573d6000803e3d6000fd5b505050506040513d601f19601f820116820180604052508101906125059190612a53565b6001600160a01b03166344fc9b566040518163ffffffff1660e01b815260040160206040518083038186803b15801561253d57600080fd5b505afa158015612551573d6000803e3d6000fd5b505050506040513d601f19601f820116820180604052508101906125759190612a53565b600080546040516337c61fc560e11b81526001600160a01b03938416936370a0823193620100009093041691636f8c3f8a916125b49190600401612c81565b60206040518083038186803b1580156125cc57600080fd5b505afa1580156125e0573d6000803e3d6000fd5b505050506040513d601f19601f820116820180604052508101906126049190612a53565b6040518263ffffffff1660e01b81526004016126209190612c6d565b60206040518083038186803b15801561263857600080fd5b505afa15801561264c573d6000803e3d6000fd5b505050506040513d601f19601f820116820180604052508101906126709190612c1f565b10156127025760405162461bcd60e51b815260206004820152605560248201527f42696f73526577617264733a3a696e637265617365546f6b656e42696f73526560448201527f77617264733a204e6f7420656e6f75676820617661696c61626c652042494f5360648201527408199bdc881cdc1958da599a595908185b5bdd5b9d605a1b608482015260a401610404565b600c54610800908490849063ffffffff166115a2565b600061276d826040518060400160405280602081526020017f5361666545524332303a206c6f772d6c6576656c2063616c6c206661696c6564815250856001600160a01b03166127ea9092919063ffffffff16565b805190915015610800578080602001905181019061278b9190612be7565b6108005760405162461bcd60e51b815260206004820152602a60248201527f5361666545524332303a204552433230206f7065726174696f6e20646964206e6044820152691bdd081cdd58d8d9595960b21b6064820152608401610404565b60606107ed848460008585843b6128435760405162461bcd60e51b815260206004820152601d60248201527f416464726573733a2063616c6c20746f206e6f6e2d636f6e74726163740000006044820152606401610404565b600080866001600160a01b0316858760405161285f9190612c51565b60006040518083038185875af1925050503d806000811461289c576040519150601f19603f3d011682016040523d82523d6000602084013e6128a1565b606091505b50915091506128b18282866128bc565b979650505050505050565b606083156128cb57508161134b565b8251156128db5782518084602001fd5b8160405162461bcd60e51b81526004016104049190612ca9565b82805482825590600052602060002090810192821561294a579160200282015b8281111561294a57825182546001600160a01b0319166001600160a01b03909116178255602090920191600190910190612915565b5061295692915061295a565b5090565b5b80821115612956576000815560010161295b565b803561297a81612e84565b919050565b600082601f83011261298f578081fd5b813560206001600160401b03808311156129ab576129ab612e6e565b8260051b604051601f19603f830116810181811084821117156129d0576129d0612e6e565b604052848152838101925086840182880185018910156129ee578687fd5b8692505b85831015612a1757612a038161296f565b8452928401926001929092019184016129f2565b50979650505050505050565b803563ffffffff8116811461297a57600080fd5b600060208284031215612a48578081fd5b813561134b81612e84565b600060208284031215612a64578081fd5b815161134b81612e84565b60008060408385031215612a81578081fd5b8235612a8c81612e84565b91506020830135612a9c81612e84565b809150509250929050565b600080600060608486031215612abb578081fd5b8335612ac681612e84565b92506020840135612ad681612e84565b929592945050506040919091013590565b60008060408385031215612af9578182fd5b8235612b0481612e84565b946020939093013593505050565b600080600060608486031215612b26578283fd5b8335612b3181612e84565b925060208401359150612b4660408501612a23565b90509250925092565b60008060408385031215612b61578182fd5b82356001600160401b03811115612b76578283fd5b612b828582860161297f565b9250506020830135612a9c81612e84565b600080600060608486031215612ba7578283fd5b83356001600160401b03811115612bbc578384fd5b612bc88682870161297f565b9350506020840135612bd981612e84565b9150612b4660408501612a23565b600060208284031215612bf8578081fd5b8151801515811461134b578182fd5b600060208284031215612c18578081fd5b5035919050565b600060208284031215612c30578081fd5b5051919050565b600060208284031215612c48578081fd5b61134b82612a23565b60008251612c63818460208701612e11565b9190910192915050565b6001600160a01b0391909116815260200190565b60208101600c8310612ca357634e487b7160e01b600052602160045260246000fd5b91905290565b6020815260008251806020840152612cc8816040850160208701612e11565b601f01601f19169190910160400192915050565b6020808252602e908201527f496e697469616c697a61626c653a20636f6e747261637420697320616c72656160408201526d191e481a5b9a5d1a585b1a5e995960921b606082015260800190565b6020808252600b908201526a626164206164647265737360a81b604082015260600190565b60208082526034908201527f436f6e74726f6c6c65643a3a6f6e6c79436f6e74726f6c6c65723a2043616c6c60408201527332b91034b9903737ba1031b7b73a3937b63632b960611b606082015260800190565b60008219821115612db657612db6612e58565b500190565b600082612dd657634e487b7160e01b81526012600452602481fd5b500490565b6000816000190483118215151615612df557612df5612e58565b500290565b600082821015612e0c57612e0c612e58565b500390565b60005b83811015612e2c578181015183820152602001612e14565b83811115610be05750506000910152565b6000600019821415612e5157612e51612e58565b5060010190565b634e487b7160e01b600052601160045260246000fd5b634e487b7160e01b600052604160045260246000fd5b6001600160a01b0381168114612e9957600080fd5b5056fe42696f73526577617264733a3a73657442696f73526577617264734475726174a2646970667358221220fa1e07685350ad484b2738e2b68723e48c740c9ca664a7221571c02811d08ce464736f6c63430008040033",
  "devdoc": {
    "kind": "dev",
    "methods": {
      "claimBiosRewards(address)": {
        "params": {
          "recipient": "The address of the user claiming BIOS rewards"
        }
      },
      "getBiosRewardsDuration()": {
        "returns": {
          "_0": "The Bios Rewards Duration"
        }
      },
      "notifyRewardAmount(address,uint256,uint32)": {
        "params": {
          "duration": "The duration of the rewards period",
          "reward": "The updated reward amount",
          "token": "The address of the ERC20 token contract"
        }
      },
      "seedBiosRewards(address,uint256)": {
        "params": {
          "biosAmount": "The amount of BIOS to add to rewards",
          "sender": "The account seeding BIOS rewards"
        }
      },
      "setBiosRewardsDuration(uint32)": {
        "params": {
          "biosRewardsDuration_": "The duration in seconds for a BIOS rewards period to last"
        }
      }
    },
    "version": 1
  },
  "userdoc": {
    "kind": "user",
    "methods": {
      "claimBiosRewards(address)": {
        "notice": "Allows users to claim their BIOS rewards for each token"
      },
      "increaseBiosRewards()": {
        "notice": "Sends all BIOS available in the Kernel to each token BIOS rewards pool based up configured weights"
      }
    },
    "version": 1
  },
  "storageLayout": {
    "storage": [
      {
        "astId": 723,
        "contract": "contracts/core/BiosRewards.sol:BiosRewards",
        "label": "_initialized",
        "offset": 0,
        "slot": "0",
        "type": "t_bool"
      },
      {
        "astId": 726,
        "contract": "contracts/core/BiosRewards.sol:BiosRewards",
        "label": "_initializing",
        "offset": 1,
        "slot": "0",
        "type": "t_bool"
      },
      {
        "astId": 10143,
        "contract": "contracts/core/BiosRewards.sol:BiosRewards",
        "label": "moduleMap",
        "offset": 2,
        "slot": "0",
        "type": "t_contract(IModuleMap)20736"
      },
      {
        "astId": 4667,
        "contract": "contracts/core/BiosRewards.sol:BiosRewards",
        "label": "_controllers",
        "offset": 0,
        "slot": "1",
        "type": "t_mapping(t_address,t_bool)"
      },
      {
        "astId": 4670,
        "contract": "contracts/core/BiosRewards.sol:BiosRewards",
        "label": "controllers",
        "offset": 0,
        "slot": "2",
        "type": "t_array(t_address)dyn_storage"
      },
      {
        "astId": 3753,
        "contract": "contracts/core/BiosRewards.sol:BiosRewards",
        "label": "totalBiosRewards",
        "offset": 0,
        "slot": "3",
        "type": "t_uint256"
      },
      {
        "astId": 3755,
        "contract": "contracts/core/BiosRewards.sol:BiosRewards",
        "label": "totalClaimedBiosRewards",
        "offset": 0,
        "slot": "4",
        "type": "t_uint256"
      },
      {
        "astId": 3759,
        "contract": "contracts/core/BiosRewards.sol:BiosRewards",
        "label": "totalUserClaimedBiosRewards",
        "offset": 0,
        "slot": "5",
        "type": "t_mapping(t_address,t_uint256)"
      },
      {
        "astId": 3763,
        "contract": "contracts/core/BiosRewards.sol:BiosRewards",
        "label": "periodFinish",
        "offset": 0,
        "slot": "6",
        "type": "t_mapping(t_address,t_uint256)"
      },
      {
        "astId": 3767,
        "contract": "contracts/core/BiosRewards.sol:BiosRewards",
        "label": "rewardRate",
        "offset": 0,
        "slot": "7",
        "type": "t_mapping(t_address,t_uint256)"
      },
      {
        "astId": 3771,
        "contract": "contracts/core/BiosRewards.sol:BiosRewards",
        "label": "lastUpdateTime",
        "offset": 0,
        "slot": "8",
        "type": "t_mapping(t_address,t_uint256)"
      },
      {
        "astId": 3775,
        "contract": "contracts/core/BiosRewards.sol:BiosRewards",
        "label": "rewardPerTokenStored",
        "offset": 0,
        "slot": "9",
        "type": "t_mapping(t_address,t_uint256)"
      },
      {
        "astId": 3781,
        "contract": "contracts/core/BiosRewards.sol:BiosRewards",
        "label": "userRewardPerTokenPaid",
        "offset": 0,
        "slot": "10",
        "type": "t_mapping(t_address,t_mapping(t_address,t_uint256))"
      },
      {
        "astId": 3787,
        "contract": "contracts/core/BiosRewards.sol:BiosRewards",
        "label": "rewards",
        "offset": 0,
        "slot": "11",
        "type": "t_mapping(t_address,t_mapping(t_address,t_uint256))"
      },
      {
        "astId": 3789,
        "contract": "contracts/core/BiosRewards.sol:BiosRewards",
        "label": "_biosRewardsDuration",
        "offset": 0,
        "slot": "12",
        "type": "t_uint32"
      }
    ],
    "types": {
      "t_address": {
        "encoding": "inplace",
        "label": "address",
        "numberOfBytes": "20"
      },
      "t_array(t_address)dyn_storage": {
        "base": "t_address",
        "encoding": "dynamic_array",
        "label": "address[]",
        "numberOfBytes": "32"
      },
      "t_bool": {
        "encoding": "inplace",
        "label": "bool",
        "numberOfBytes": "1"
      },
      "t_contract(IModuleMap)20736": {
        "encoding": "inplace",
        "label": "contract IModuleMap",
        "numberOfBytes": "20"
      },
      "t_mapping(t_address,t_bool)": {
        "encoding": "mapping",
        "key": "t_address",
        "label": "mapping(address => bool)",
        "numberOfBytes": "32",
        "value": "t_bool"
      },
      "t_mapping(t_address,t_mapping(t_address,t_uint256))": {
        "encoding": "mapping",
        "key": "t_address",
        "label": "mapping(address => mapping(address => uint256))",
        "numberOfBytes": "32",
        "value": "t_mapping(t_address,t_uint256)"
      },
      "t_mapping(t_address,t_uint256)": {
        "encoding": "mapping",
        "key": "t_address",
        "label": "mapping(address => uint256)",
        "numberOfBytes": "32",
        "value": "t_uint256"
      },
      "t_uint256": {
        "encoding": "inplace",
        "label": "uint256",
        "numberOfBytes": "32"
      },
      "t_uint32": {
        "encoding": "inplace",
        "label": "uint32",
        "numberOfBytes": "4"
      }
    }
  }
}