{
  "address": "0x1B9B6E49408D9690AbdC2572cC8c891f649C6EC9",
  "abi": [
    {
      "anonymous": false,
      "inputs": [
        {
          "indexed": true,
          "internalType": "address",
          "name": "tokenA",
          "type": "address"
        },
        {
          "indexed": true,
          "internalType": "address",
          "name": "tokenB",
          "type": "address"
        },
        {
          "indexed": false,
          "internalType": "uint32",
          "name": "poolID",
          "type": "uint32"
        }
      ],
      "name": "CreatePool",
      "type": "event"
    },
    {
      "anonymous": false,
      "inputs": [
        {
          "indexed": false,
          "internalType": "address",
          "name": "token",
          "type": "address"
        },
        {
          "indexed": false,
          "internalType": "uint256",
          "name": "amount",
          "type": "uint256"
        },
        {
          "indexed": false,
          "internalType": "uint32",
          "name": "poolID",
          "type": "uint32"
        }
      ],
      "name": "Deposit",
      "type": "event"
    },
    {
      "anonymous": false,
      "inputs": [
        {
          "indexed": false,
          "internalType": "uint256",
          "name": "poolId",
          "type": "uint256"
        },
        {
          "indexed": false,
          "internalType": "uint256",
          "name": "amount",
          "type": "uint256"
        }
      ],
      "name": "DepositToPool",
      "type": "event"
    },
    {
      "anonymous": false,
      "inputs": [
        {
          "indexed": true,
          "internalType": "uint32",
          "name": "poolID",
          "type": "uint32"
        }
      ],
      "name": "HarvestYieldError",
      "type": "event"
    },
    {
      "anonymous": false,
      "inputs": [
        {
          "indexed": false,
          "internalType": "uint256",
          "name": "amount",
          "type": "uint256"
        }
      ],
      "name": "LPTokensAcquired",
      "type": "event"
    },
    {
      "anonymous": false,
      "inputs": [
        {
          "indexed": false,
          "internalType": "uint256",
          "name": "poolId",
          "type": "uint256"
        },
        {
          "indexed": false,
          "internalType": "address",
          "name": "tokenSold",
          "type": "address"
        },
        {
          "indexed": false,
          "internalType": "uint256",
          "name": "amountSold",
          "type": "uint256"
        },
        {
          "indexed": false,
          "internalType": "address",
          "name": "tokenBought",
          "type": "address"
        },
        {
          "indexed": false,
          "internalType": "uint256",
          "name": "amountBought",
          "type": "uint256"
        }
      ],
      "name": "PoolRebalanced",
      "type": "event"
    },
    {
      "anonymous": false,
      "inputs": [
        {
          "indexed": false,
          "internalType": "uint256",
          "name": "amount",
          "type": "uint256"
        }
      ],
      "name": "TokensReceived",
      "type": "event"
    },
    {
      "anonymous": false,
      "inputs": [
        {
          "indexed": false,
          "internalType": "uint256",
          "name": "poolId",
          "type": "uint256"
        },
        {
          "indexed": false,
          "internalType": "uint256",
          "name": "amount",
          "type": "uint256"
        }
      ],
      "name": "WithdrawnFromPool",
      "type": "event"
    },
    {
      "anonymous": false,
      "inputs": [
        {
          "indexed": false,
          "internalType": "uint32",
          "name": "poolID",
          "type": "uint32"
        }
      ],
      "name": "YieldHarvested",
      "type": "event"
    },
    {
      "anonymous": false,
      "inputs": [
        {
          "indexed": false,
          "internalType": "uint256",
          "name": "amount",
          "type": "uint256"
        }
      ],
      "name": "YieldReceived",
      "type": "event"
    },
    {
      "inputs": [
        {
          "internalType": "address",
          "name": "controller",
          "type": "address"
        }
      ],
      "name": "addController",
      "outputs": [],
      "stateMutability": "nonpayable",
      "type": "function"
    },
    {
      "inputs": [
        {
          "internalType": "uint32",
          "name": "poolId",
          "type": "uint32"
        },
        {
          "internalType": "uint256",
          "name": "masterChefPoolId",
          "type": "uint256"
        }
      ],
      "name": "configureStaking",
      "outputs": [],
      "stateMutability": "nonpayable",
      "type": "function"
    },
    {
      "inputs": [
        {
          "internalType": "uint32",
          "name": "poolId",
          "type": "uint32"
        },
        {
          "internalType": "uint256",
          "name": "masterChefPoolId",
          "type": "uint256"
        }
      ],
      "name": "configureStakingOverwrite",
      "outputs": [],
      "stateMutability": "nonpayable",
      "type": "function"
    },
    {
      "inputs": [
        {
          "internalType": "uint256",
          "name": "",
          "type": "uint256"
        }
      ],
      "name": "controllers",
      "outputs": [
        {
          "internalType": "address",
          "name": "",
          "type": "address"
        }
      ],
      "stateMutability": "view",
      "type": "function"
    },
    {
      "inputs": [],
      "name": "countExtraRewards",
      "outputs": [
        {
          "internalType": "uint256",
          "name": "extraReward",
          "type": "uint256"
        },
        {
          "internalType": "uint256",
          "name": "accountedReward",
          "type": "uint256"
        }
      ],
      "stateMutability": "nonpayable",
      "type": "function"
    },
    {
      "inputs": [
        {
          "internalType": "address",
          "name": "tokenA",
          "type": "address"
        },
        {
          "internalType": "address",
          "name": "tokenB",
          "type": "address"
        },
        {
          "internalType": "uint256",
          "name": "",
          "type": "uint256"
        }
      ],
      "name": "createPool",
      "outputs": [],
      "stateMutability": "nonpayable",
      "type": "function"
    },
    {
      "inputs": [
        {
          "internalType": "uint32",
          "name": "poolId",
          "type": "uint32"
        },
        {
          "internalType": "address",
          "name": "token",
          "type": "address"
        },
        {
          "internalType": "uint256",
          "name": "amount",
          "type": "uint256"
        }
      ],
      "name": "decrementBalance",
      "outputs": [],
      "stateMutability": "nonpayable",
      "type": "function"
    },
    {
      "inputs": [
        {
          "internalType": "uint32",
          "name": "poolId",
          "type": "uint32"
        }
      ],
      "name": "deploy",
      "outputs": [],
      "stateMutability": "nonpayable",
      "type": "function"
    },
    {
      "inputs": [
        {
          "internalType": "address",
          "name": "tokenAddress",
          "type": "address"
        },
        {
          "internalType": "uint256",
          "name": "amount",
          "type": "uint256"
        },
        {
          "internalType": "uint32",
          "name": "poolId",
          "type": "uint32"
        }
      ],
      "name": "deposit",
      "outputs": [],
      "stateMutability": "nonpayable",
      "type": "function"
    },
    {
      "inputs": [
        {
          "internalType": "uint32",
          "name": "poolId",
          "type": "uint32"
        },
        {
          "internalType": "uint256",
          "name": "amount",
          "type": "uint256"
        }
      ],
      "name": "donate",
      "outputs": [],
      "stateMutability": "nonpayable",
      "type": "function"
    },
    {
      "inputs": [],
      "name": "getAllControllers",
      "outputs": [
        {
          "internalType": "address[]",
          "name": "currentControllers",
          "type": "address[]"
        }
      ],
      "stateMutability": "view",
      "type": "function"
    },
    {
      "inputs": [
        {
          "internalType": "address",
          "name": "tokenIn",
          "type": "address"
        },
        {
          "internalType": "address",
          "name": "tokenOut",
          "type": "address"
        },
        {
          "internalType": "uint256",
          "name": "amountIn",
          "type": "uint256"
        }
      ],
      "name": "getAmountOut",
      "outputs": [
        {
          "internalType": "uint256",
          "name": "amountOut",
          "type": "uint256"
        }
      ],
      "stateMutability": "view",
      "type": "function"
    },
    {
      "inputs": [
        {
          "internalType": "address",
          "name": "tokenIn",
          "type": "address"
        },
        {
          "internalType": "address",
          "name": "tokenOut",
          "type": "address"
        },
        {
          "internalType": "uint256",
          "name": "amountIn",
          "type": "uint256"
        }
      ],
      "name": "getAmountOutMinimum",
      "outputs": [
        {
          "internalType": "uint256",
          "name": "amountOutMinimum",
          "type": "uint256"
        }
      ],
      "stateMutability": "view",
      "type": "function"
    },
    {
      "inputs": [
        {
          "internalType": "uint32",
          "name": "poolId",
          "type": "uint32"
        },
        {
          "internalType": "address",
          "name": "tokenAddress",
          "type": "address"
        }
      ],
      "name": "getBalance",
      "outputs": [
        {
          "internalType": "uint256",
          "name": "",
          "type": "uint256"
        }
      ],
      "stateMutability": "view",
      "type": "function"
    },
    {
      "inputs": [
        {
          "internalType": "uint32",
          "name": "poolId",
          "type": "uint32"
        }
      ],
      "name": "getHarvestedYield",
      "outputs": [
        {
          "internalType": "uint256",
          "name": "",
          "type": "uint256"
        }
      ],
      "stateMutability": "view",
      "type": "function"
    },
    {
      "inputs": [
        {
          "internalType": "uint32",
          "name": "poolId",
          "type": "uint32"
        }
      ],
      "name": "getPendingYield",
      "outputs": [
        {
          "internalType": "address[1]",
          "name": "tokens",
          "type": "address[1]"
        },
        {
          "internalType": "uint256[1]",
          "name": "amounts",
          "type": "uint256[1]"
        }
      ],
      "stateMutability": "view",
      "type": "function"
    },
    {
      "inputs": [
        {
          "internalType": "uint32",
          "name": "pid",
          "type": "uint32"
        }
      ],
      "name": "getPool",
      "outputs": [
        {
          "components": [
            {
              "internalType": "address",
              "name": "tokenA",
              "type": "address"
            },
            {
              "internalType": "address",
              "name": "tokenB",
              "type": "address"
            },
            {
              "internalType": "uint256",
              "name": "positionID",
              "type": "uint256"
            }
          ],
          "internalType": "struct IAMMIntegration.Pool",
          "name": "",
          "type": "tuple"
        }
      ],
      "stateMutability": "view",
      "type": "function"
    },
    {
      "inputs": [
        {
          "internalType": "uint32",
          "name": "poolId",
          "type": "uint32"
        }
      ],
      "name": "getPoolBalance",
      "outputs": [
        {
          "internalType": "uint256",
          "name": "tokenA",
          "type": "uint256"
        },
        {
          "internalType": "uint256",
          "name": "tokenB",
          "type": "uint256"
        }
      ],
      "stateMutability": "view",
      "type": "function"
    },
    {
      "inputs": [
        {
          "internalType": "uint32[]",
          "name": "pids",
          "type": "uint32[]"
        }
      ],
      "name": "getRewardBalances",
      "outputs": [
        {
          "internalType": "uint256[]",
          "name": "sushiAmounts",
          "type": "uint256[]"
        }
      ],
      "stateMutability": "view",
      "type": "function"
    },
    {
      "inputs": [
        {
          "internalType": "uint32",
          "name": "poolId",
          "type": "uint32"
        }
      ],
      "name": "getStakingPoolId",
      "outputs": [
        {
          "internalType": "uint256",
          "name": "",
          "type": "uint256"
        }
      ],
      "stateMutability": "view",
      "type": "function"
    },
    {
      "inputs": [
        {
          "internalType": "address",
          "name": "tokenA",
          "type": "address"
        },
        {
          "internalType": "address",
          "name": "tokenB",
          "type": "address"
        }
      ],
      "name": "getTokensOrdered",
      "outputs": [
        {
          "internalType": "address",
          "name": "token0",
          "type": "address"
        },
        {
          "internalType": "address",
          "name": "token1",
          "type": "address"
        }
      ],
      "stateMutability": "pure",
      "type": "function"
    },
    {
      "inputs": [],
      "name": "getTotalHarvestedYield",
      "outputs": [
        {
          "internalType": "uint256",
          "name": "amount",
          "type": "uint256"
        }
      ],
      "stateMutability": "view",
      "type": "function"
    },
    {
      "inputs": [
        {
          "internalType": "uint32[]",
          "name": "pids",
          "type": "uint32[]"
        }
      ],
      "name": "getYieldBalances",
      "outputs": [
        {
          "internalType": "uint256[]",
          "name": "amounts",
          "type": "uint256[]"
        }
      ],
      "stateMutability": "view",
      "type": "function"
    },
    {
      "inputs": [],
      "name": "harvestYield",
      "outputs": [],
      "stateMutability": "nonpayable",
      "type": "function"
    },
    {
      "inputs": [
        {
          "internalType": "uint32",
          "name": "poolId",
          "type": "uint32"
        },
        {
          "internalType": "uint256",
          "name": "rewardRatioX1000",
          "type": "uint256"
        },
        {
          "internalType": "uint256",
          "name": "",
          "type": "uint256"
        },
        {
          "internalType": "bool",
          "name": "",
          "type": "bool"
        }
      ],
      "name": "harvestYieldByPool",
      "outputs": [],
      "stateMutability": "nonpayable",
      "type": "function"
    },
    {
      "inputs": [
        {
          "internalType": "uint32",
          "name": "poolId",
          "type": "uint32"
        },
        {
          "internalType": "address",
          "name": "token",
          "type": "address"
        },
        {
          "internalType": "uint256",
          "name": "amount",
          "type": "uint256"
        }
      ],
      "name": "incrementBalance",
      "outputs": [],
      "stateMutability": "nonpayable",
      "type": "function"
    },
    {
      "inputs": [
        {
          "internalType": "address[]",
          "name": "controllers_",
          "type": "address[]"
        },
        {
          "internalType": "address",
          "name": "moduleMap_",
          "type": "address"
        },
        {
          "internalType": "address",
          "name": "factoryAddress_",
          "type": "address"
        },
        {
          "internalType": "address",
          "name": "swapRouterAddress_",
          "type": "address"
        },
        {
          "internalType": "address",
          "name": "masterChef_",
          "type": "address"
        },
        {
          "internalType": "address",
          "name": "rewardToken_",
          "type": "address"
        },
        {
          "internalType": "uint24",
          "name": "slippageNumerator_",
          "type": "uint24"
        }
      ],
      "name": "initialize",
      "outputs": [],
      "stateMutability": "nonpayable",
      "type": "function"
    },
    {
      "inputs": [
        {
          "internalType": "address",
          "name": "controller",
          "type": "address"
        }
      ],
      "name": "isController",
      "outputs": [
        {
          "internalType": "bool",
          "name": "status",
          "type": "bool"
        }
      ],
      "stateMutability": "view",
      "type": "function"
    },
    {
      "inputs": [
        {
          "internalType": "uint32",
          "name": "poolId",
          "type": "uint32"
        }
      ],
      "name": "manualDeploy",
      "outputs": [],
      "stateMutability": "nonpayable",
      "type": "function"
    },
    {
      "inputs": [
        {
          "internalType": "address",
          "name": "tokenAddress",
          "type": "address"
        },
        {
          "internalType": "uint256",
          "name": "amount",
          "type": "uint256"
        },
        {
          "internalType": "uint32",
          "name": "poolId",
          "type": "uint32"
        },
        {
          "internalType": "uint256",
          "name": "ratioX1000",
          "type": "uint256"
        }
      ],
      "name": "manualWithdraw",
      "outputs": [],
      "stateMutability": "nonpayable",
      "type": "function"
    },
    {
      "inputs": [],
      "name": "moduleMap",
      "outputs": [
        {
          "internalType": "contract IModuleMap",
          "name": "",
          "type": "address"
        }
      ],
      "stateMutability": "view",
      "type": "function"
    },
    {
      "inputs": [],
      "name": "poolCount",
      "outputs": [
        {
          "internalType": "uint32",
          "name": "",
          "type": "uint32"
        }
      ],
      "stateMutability": "view",
      "type": "function"
    },
    {
      "inputs": [
        {
          "internalType": "uint32",
          "name": "poolId",
          "type": "uint32"
        },
        {
          "internalType": "uint256",
          "name": "ratioX1000",
          "type": "uint256"
        },
        {
          "internalType": "uint256",
          "name": "maxSellTokenA",
          "type": "uint256"
        },
        {
          "internalType": "uint256",
          "name": "maxSellTokenB",
          "type": "uint256"
        }
      ],
      "name": "rebalancePool",
      "outputs": [],
      "stateMutability": "nonpayable",
      "type": "function"
    },
    {
      "inputs": [],
      "name": "recover",
      "outputs": [],
      "stateMutability": "nonpayable",
      "type": "function"
    },
    {
      "inputs": [
        {
          "internalType": "uint32",
          "name": "poolId",
          "type": "uint32"
        }
      ],
      "name": "stakeLPTokens",
      "outputs": [],
      "stateMutability": "nonpayable",
      "type": "function"
    },
    {
      "inputs": [
        {
          "internalType": "address",
          "name": "tokenAddress",
          "type": "address"
        },
        {
          "internalType": "uint256",
          "name": "amount",
          "type": "uint256"
        },
        {
          "internalType": "uint32",
          "name": "poolId",
          "type": "uint32"
        }
      ],
      "name": "withdraw",
      "outputs": [],
      "stateMutability": "nonpayable",
      "type": "function"
    },
    {
      "inputs": [
        {
          "internalType": "uint32",
          "name": "",
          "type": "uint32"
        }
      ],
      "name": "yieldBalances",
      "outputs": [
        {
          "internalType": "uint256",
          "name": "",
          "type": "uint256"
        }
      ],
      "stateMutability": "view",
      "type": "function"
    },
    {
      "stateMutability": "payable",
      "type": "receive"
    }
  ],
  "transactionHash": "0x66ce7bfe56d7722505fcd6987607a67b19d31ce8fb0c866d518016de3e5a6a70",
  "args": [],
  "solcInputHash": "bb763ca9c25f7df8e53ee01823b84cd3",
  "bytecode": "0x608060405234801561001057600080fd5b506158ec80620000216000396000f3fe6080604052600436106101ae5760003560e01c80630c3fa05f146101ba5780630f0a1c6f146101dc578063337993cb14610218578063364d0f5a1461023a578063403df5441461025a5780634aa06652146102885780634d24e9e4146102b657806351810fb5146102e35780635441c2b61461030357806355b961801461032357806358a0f0491461033857806359cf86da146103585780635ce564f4146103785780635f53bc4314610398578063680c3052146103b8578063705eca35146103d85780637334efac146104065780637534e06014610426578063754a0274146104465780637db2ddfe146104665780639da46ee314610486578063a4515d37146104d6578063a7fc7a0714610509578063ac211b9514610529578063b1cccca214610549578063b429afeb14610569578063ccbfc16c146105b2578063ce746024146105d2578063cf73715a146105e7578063d23c84b814610607578063e7daae2e1461063a578063e809529e1461065a578063e8d991d114610687578063e94b0dd21461069c578063eb40c545146106bc578063f525cb68146106ea578063f8b9018c1461071c57600080fd5b366101b557005b600080fd5b3480156101c657600080fd5b506101da6101d53660046151d6565b610731565b005b3480156101e857600080fd5b50600054610202906201000090046001600160a01b031681565b60405161020f919061533b565b60405180910390f35b34801561022457600080fd5b5061022d6109d7565b60405161020f91906153e7565b34801561024657600080fd5b506101da61025536600461522e565b610a39565b34801561026657600080fd5b5061027a6102753660046151d6565b610b65565b60405161020f929190615382565b34801561029457600080fd5b506102a86102a3366004614d83565b610c29565b60405190815260200161020f565b3480156102c257600080fd5b506102d66102d1366004614fd6565b610c70565b60405161020f91906153fa565b3480156102ef57600080fd5b506101da6102fe366004614d83565b610d65565b34801561030f57600080fd5b506102a861031e3660046151f2565b6110d5565b34801561032f57600080fd5b506102a8611106565b34801561034457600080fd5b506102d6610353366004614fd6565b61114c565b34801561036457600080fd5b506101da61037336600461520f565b611236565b34801561038457600080fd5b506101da6103933660046151d6565b611395565b3480156103a457600080fd5b506101da6103b336600461520f565b6113d0565b3480156103c457600080fd5b506101da6103d336600461522e565b611525565b3480156103e457600080fd5b506103f86103f3366004614d4b565b61164d565b60405161020f92919061534f565b34801561041257600080fd5b506101da61042136600461522e565b611681565b34801561043257600080fd5b506101da610441366004615259565b6116c9565b34801561045257600080fd5b506101da610461366004614e04565b611969565b34801561047257600080fd5b506101da610481366004614dc3565b611a99565b34801561049257600080fd5b506104a66104a13660046151d6565b611bc5565b6040805182516001600160a01b03908116825260208085015190911690820152918101519082015260600161020f565b3480156104e257600080fd5b506102a86104f13660046151d6565b63ffffffff166000908152600e602052604090205490565b34801561051557600080fd5b506101da610524366004614d13565b611c24565b34801561053557600080fd5b506101da6105443660046152a2565b611e60565b34801561055557600080fd5b506101da610564366004614dc3565b612223565b34801561057557600080fd5b506105a2610584366004614d13565b6001600160a01b031660009081526001602052604090205460ff1690565b604051901515815260200161020f565b3480156105be57600080fd5b506102a86105cd366004614d83565b61228b565b3480156105de57600080fd5b506101da6122d1565b3480156105f357600080fd5b506101da6106023660046151d6565b612477565b34801561061357600080fd5b506102a86106223660046151d6565b63ffffffff166000908152600b602052604090205490565b34801561064657600080fd5b506101da610655366004614e4b565b612593565b34801561066657600080fd5b506102a86106753660046151d6565b600d6020526000908152604090205481565b34801561069357600080fd5b506101da6127cf565b3480156106a857600080fd5b506102026106b7366004615156565b6129ad565b3480156106c857600080fd5b506106dc6106d73660046151d6565b6129d7565b60405161020f92919061565d565b3480156106f657600080fd5b506009546107079063ffffffff1681565b60405163ffffffff909116815260200161020f565b34801561072857600080fd5b506106dc6129ed565b600080546040516337c61fc560e11b8152620100009091046001600160a01b031691636f8c3f8a91610766919060040161543e565b60206040518083038186803b15801561077e57600080fd5b505afa158015610792573d6000803e3d6000fd5b505050506040513d601f19601f820116820180604052508101906107b69190614d2f565b6001600160a01b031663f3ae2415336040518263ffffffff1660e01b81526004016107e1919061533b565b60206040518083038186803b1580156107f957600080fd5b505afa15801561080d573d6000803e3d6000fd5b505050506040513d601f19601f820116820180604052508101906108319190615045565b6108565760405162461bcd60e51b815260040161084d90615517565b60405180910390fd5b63ffffffff81166000908152600860209081526040808320815160608101835281546001600160a01b039081168083526001840154909116948201859052600290920154928101929092529092916108ae9190612c3b565b6001600160a01b03166370a08231306040518263ffffffff1660e01b81526004016108d9919061533b565b60206040518083038186803b1580156108f157600080fd5b505afa158015610905573d6000803e3d6000fd5b505050506040513d601f19601f82011682018060405250810190610929919061516e565b905080156109d257600654600090610949906001600160a01b0316612ccc565b60055463ffffffff86166000908152600b602052604090819020549051631c57762b60e31b81529293506001600160a01b039091169163e2bbb1589161099391869060040161565d565b600060405180830381600087803b1580156109ad57600080fd5b505af11580156109c1573d6000803e3d6000fd5b505050506109cf8482612d4b565b50505b505050565b60606002805480602002602001604051908101604052809291908181526020018280548015610a2f57602002820191906000526020600020905b81546001600160a01b03168152600190910190602001808311610a11575b5050505050905090565b600080546040516337c61fc560e11b8152620100009091046001600160a01b031691636f8c3f8a91610a6e919060040161543e565b60206040518083038186803b158015610a8657600080fd5b505afa158015610a9a573d6000803e3d6000fd5b505050506040513d601f19601f82011682018060405250810190610abe9190614d2f565b6001600160a01b031663f3ae2415336040518263ffffffff1660e01b8152600401610ae9919061533b565b60206040518083038186803b158015610b0157600080fd5b505afa158015610b15573d6000803e3d6000fd5b505050506040513d601f19601f82011682018060405250810190610b399190615045565b610b555760405162461bcd60e51b815260040161084d90615517565b610b6182826001612da7565b5050565b610b6d614c4a565b610b75614c4a565b6006546001600160a01b03908116835263ffffffff84166000818152600f60205260409081902054600554915163065509bb60e21b8152600481019390935230602484015292169063195426ec9060440160206040518083038186803b158015610bde57600080fd5b505afa158015610bf2573d6000803e3d6000fd5b505050506040513d601f19601f82011682018060405250810190610c16919061516e565b610c209190615710565b81529092909150565b6000808211610c4a5760405162461bcd60e51b815260040161084d90615604565b600080610c578686613030565b91509150610c66848383613107565b9695505050505050565b6060816001600160401b03811115610c9857634e487b7160e01b600052604160045260246000fd5b604051908082528060200260200182016040528015610cc1578160200160208202803683370190505b50905060005b82811015610d5e57600f6000858584818110610cf357634e487b7160e01b600052603260045260246000fd5b9050602002016020810190610d0891906151d6565b63ffffffff1663ffffffff16815260200190815260200160002054828281518110610d4357634e487b7160e01b600052603260045260246000fd5b6020908102919091010152610d57816157f6565b9050610cc7565b5092915050565b600080546040516337c61fc560e11b8152620100009091046001600160a01b031691636f8c3f8a91610d9a919060040161543e565b60206040518083038186803b158015610db257600080fd5b505afa158015610dc6573d6000803e3d6000fd5b505050506040513d601f19601f82011682018060405250810190610dea9190614d2f565b6001600160a01b031663f3ae2415336040518263ffffffff1660e01b8152600401610e15919061533b565b60206040518083038186803b158015610e2d57600080fd5b505afa158015610e41573d6000803e3d6000fd5b505050506040513d601f19601f82011682018060405250810190610e659190615045565b610e815760405162461bcd60e51b815260040161084d90615517565b6009805463ffffffff16906000610e9783615811565b825463ffffffff91821661010093840a9081029083021990911617909255600980548316600090815260086020819052604080832080546001600160a01b03808d166001600160a01b03199283168117909355865489168652838620600190810180548e84169416939093179092559554600a805492830181559095529283047fc65a7bb8d6351c1cf70c95a316cc6a92839c986682d98bc35f958f4883f9d2a801805460046007909516850290970a948816850294909702199095169290921790945583549051636eb1769f60e11b81526000199550929363dd62ed3e93610f8493309316910161534f565b60206040518083038186803b158015610f9c57600080fd5b505afa158015610fb0573d6000803e3d6000fd5b505050506040513d601f19601f82011682018060405250810190610fd4919061516e565b101561101157600454610ff5906001600160a01b03858116911660006131d2565b600454611011906001600160a01b0385811691166000196131d2565b60048054604051636eb1769f60e11b8152600019926001600160a01b038681169363dd62ed3e93611048933093909216910161534f565b60206040518083038186803b15801561106057600080fd5b505afa158015611074573d6000803e3d6000fd5b505050506040513d601f19601f82011682018060405250810190611098919061516e565b10156109d2576004546110b9906001600160a01b03848116911660006131d2565b6004546109d2906001600160a01b0384811691166000196131d2565b63ffffffff82166000908152600c602090815260408083206001600160a01b03851684529091529020545b92915050565b6000805b60095463ffffffff90811690821610156111485761112c6104f1826001615728565b6111369083615710565b915061114181615811565b905061110a565b5090565b6060816001600160401b0381111561117457634e487b7160e01b600052604160045260246000fd5b60405190808252806020026020018201604052801561119d578160200160208202803683370190505b50905060005b82811015610d5e576111fb8484838181106111ce57634e487b7160e01b600052603260045260246000fd5b90506020020160208101906111e391906151d6565b63ffffffff166000908152600d602052604090205490565b82828151811061121b57634e487b7160e01b600052603260045260246000fd5b602090810291909101015261122f816157f6565b90506111a3565b600080546040516337c61fc560e11b8152620100009091046001600160a01b031691636f8c3f8a9161126b919060040161543e565b60206040518083038186803b15801561128357600080fd5b505afa158015611297573d6000803e3d6000fd5b505050506040513d601f19601f820116820180604052508101906112bb9190614d2f565b6001600160a01b031663f3ae2415336040518263ffffffff1660e01b81526004016112e6919061533b565b60206040518083038186803b1580156112fe57600080fd5b505afa158015611312573d6000803e3d6000fd5b505050506040513d601f19601f820116820180604052508101906113369190615045565b6113525760405162461bcd60e51b815260040161084d90615517565b63ffffffff83166000908152600c602090815260408083206001600160a01b03861684529091528120805483929061138b908490615710565b9091555050505050565b3360009081526001602052604090205460ff166113c45760405162461bcd60e51b815260040161084d90615565565b6113cd8161331b565b50565b600080546040516337c61fc560e11b8152620100009091046001600160a01b031691636f8c3f8a91611405919060040161543e565b60206040518083038186803b15801561141d57600080fd5b505afa158015611431573d6000803e3d6000fd5b505050506040513d601f19601f820116820180604052508101906114559190614d2f565b6001600160a01b031663f3ae2415336040518263ffffffff1660e01b8152600401611480919061533b565b60206040518083038186803b15801561149857600080fd5b505afa1580156114ac573d6000803e3d6000fd5b505050506040513d601f19601f820116820180604052508101906114d09190615045565b6114ec5760405162461bcd60e51b815260040161084d90615517565b63ffffffff83166000908152600c602090815260408083206001600160a01b03861684529091528120805483929061138b9084906157b3565b600080546040516337c61fc560e11b8152620100009091046001600160a01b031691636f8c3f8a9161155a919060040161543e565b60206040518083038186803b15801561157257600080fd5b505afa158015611586573d6000803e3d6000fd5b505050506040513d601f19601f820116820180604052508101906115aa9190614d2f565b6001600160a01b031663f3ae2415336040518263ffffffff1660e01b81526004016115d5919061533b565b60206040518083038186803b1580156115ed57600080fd5b505afa158015611601573d6000803e3d6000fd5b505050506040513d601f19601f820116820180604052508101906116259190615045565b6116415760405162461bcd60e51b815260040161084d90615517565b610b6182826000612da7565b600080826001600160a01b0316846001600160a01b0316101561167457508290508161167a565b50819050825b9250929050565b8015610b615763ffffffff82166000908152600d6020526040812080548392906116ac908490615710565b9091555050600754610b61906001600160a01b0316333084613584565b600080546040516337c61fc560e11b8152620100009091046001600160a01b031691636f8c3f8a916116fe919060040161543e565b60206040518083038186803b15801561171657600080fd5b505afa15801561172a573d6000803e3d6000fd5b505050506040513d601f19601f8201168201806040525081019061174e9190614d2f565b6001600160a01b031663f3ae2415336040518263ffffffff1660e01b8152600401611779919061533b565b60206040518083038186803b15801561179157600080fd5b505afa1580156117a5573d6000803e3d6000fd5b505050506040513d601f19601f820116820180604052508101906117c99190615045565b6117e55760405162461bcd60e51b815260040161084d90615517565b6006546000906117fd906001600160a01b0316612ccc565b60055463ffffffff87166000908152600b6020526040808220549051631c57762b60e31b81529394506001600160a01b039092169263e2bbb1589261184692909160040161565d565b600060405180830381600087803b15801561186057600080fd5b505af1158015611874573d6000803e3d6000fd5b505050506118828582612d4b565b5063ffffffff85166000908152600f60205260409020548015611961576006546007546118bc916001600160a01b039081169116876135bc565b6006546007546000916118e8916001600160a01b03918216911630856118e384848361228b565b6135e7565b63ffffffff88166000908152600f602052604081205580519091508190600190811061192457634e487b7160e01b600052603260045260246000fd5b6020026020010151600d60008963ffffffff1663ffffffff168152602001908152602001600020600082825461195a9190615710565b9091555050505b505050505050565b600080546040516337c61fc560e11b8152620100009091046001600160a01b031691636f8c3f8a9161199e919060040161543e565b60206040518083038186803b1580156119b657600080fd5b505afa1580156119ca573d6000803e3d6000fd5b505050506040513d601f19601f820116820180604052508101906119ee9190614d2f565b6001600160a01b031663f3ae2415336040518263ffffffff1660e01b8152600401611a19919061533b565b60206040518083038186803b158015611a3157600080fd5b505afa158015611a45573d6000803e3d6000fd5b505050506040513d601f19601f82011682018060405250810190611a699190615045565b611a855760405162461bcd60e51b815260040161084d90615517565b611a938484848460006137d8565b50505050565b3360009081526001602052604090205460ff16611ac85760405162461bcd60e51b815260040161084d90615565565b611ad281846110d5565b8211611bb657600080546040516337c61fc560e11b8152611b7292620100009092046001600160a01b031691636f8c3f8a91611b11919060040161543e565b60206040518083038186803b158015611b2957600080fd5b505afa158015611b3d573d6000803e3d6000fd5b505050506040513d601f19601f82011682018060405250810190611b619190614d2f565b6001600160a01b0385169084613b13565b63ffffffff81166000908152600c602090815260408083206001600160a01b038716845290915281208054849290611bab9084906157b3565b909155506109d29050565b6109d2838383600060016137d8565b60408051606080820183526000808352602080840182905292840181905263ffffffff94909416845260088252928290208251938401835280546001600160a01b03908116855260018201541691840191909152600201549082015290565b600080546040516337c61fc560e11b8152620100009091046001600160a01b031691636f8c3f8a91611c59919060040161543e565b60206040518083038186803b158015611c7157600080fd5b505afa158015611c85573d6000803e3d6000fd5b505050506040513d601f19601f82011682018060405250810190611ca99190614d2f565b6001600160a01b0316632f54bf6e336040518263ffffffff1660e01b8152600401611cd4919061533b565b60206040518083038186803b158015611cec57600080fd5b505afa158015611d00573d6000803e3d6000fd5b505050506040513d601f19601f82011682018060405250810190611d249190615045565b611d835760405162461bcd60e51b815260206004820152602a60248201527f436f6e74726f6c6c65643a3a6f6e6c794f776e65723a2043616c6c6572206973604482015269103737ba1037bbb732b960b11b606482015260840161084d565b6001600160a01b03811660009081526001602081905260408220805460ff19169091179055805b600254811015611e095760028181548110611dd557634e487b7160e01b600052603260045260246000fd5b6000918252602090912001546001600160a01b0384811691161415611df957600191505b611e02816157f6565b9050611daa565b5080610b6157600280546001810182556000919091527f405787fa12a823e0f2b7631cc41b3ba8828b3321ca811111fa75cd3aa3bb5ace0180546001600160a01b0384166001600160a01b03199091161790555050565b600080546040516337c61fc560e11b8152620100009091046001600160a01b031691636f8c3f8a91611e95919060040161543e565b60206040518083038186803b158015611ead57600080fd5b505afa158015611ec1573d6000803e3d6000fd5b505050506040513d601f19601f82011682018060405250810190611ee59190614d2f565b6001600160a01b031663f3ae2415336040518263ffffffff1660e01b8152600401611f10919061533b565b60206040518083038186803b158015611f2857600080fd5b505afa158015611f3c573d6000803e3d6000fd5b505050506040513d601f19601f82011682018060405250810190611f609190615045565b611f7c5760405162461bcd60e51b815260040161084d90615517565b6000611f8785611bc5565b63ffffffff86166000908152600860205260409020549091506001600160a01b0316611fc55760405162461bcd60e51b815260040161084d906154eb565b611fd881600001518260200151866135bc565b60008061200083611fed8986600001516110d5565b611ffb8a87602001516110d5565b613b32565b915091506000806120148486858a8a613bbe565b915091506000816001600160a01b03166370a08231306040518263ffffffff1660e01b8152600401612046919061533b565b60206040518083038186803b15801561205e57600080fd5b505afa158015612072573d6000803e3d6000fd5b505050506040513d601f19601f82011682018060405250810190612096919061516e565b90506120aa858330866118e38a888a61228b565b50600081836001600160a01b03166370a08231306040518263ffffffff1660e01b81526004016120da919061533b565b60206040518083038186803b1580156120f257600080fd5b505afa158015612106573d6000803e3d6000fd5b505050506040513d601f19601f8201168201806040525081019061212a919061516e565b61213491906157b3565b905080156122165763ffffffff8b166000908152600c602090815260408083206001600160a01b038a168452909152812080548792906121759084906157b3565b909155505063ffffffff8b166000908152600c602090815260408083206001600160a01b0387168452909152812080548392906121b3908490615710565b90915550506040805163ffffffff8d1681526001600160a01b038881166020830152818301889052851660608201526080810183905290517f3318ce2371d9cd19d64b4ca999bd8bdcfcf18e4ec416d7dc611b729b2e59c5009181900360a00190a15b5050505050505050505050565b3360009081526001602052604090205460ff166122525760405162461bcd60e51b815260040161084d90615565565b63ffffffff81166000908152600c602090815260408083206001600160a01b03871684529091528120805484929061138b908490615710565b600354600090620f4240906122a59062ffffff168261578f565b62ffffff166122b5868686610c29565b6122bf9190615770565b6122c99190615750565b949350505050565b600080546040516337c61fc560e11b8152620100009091046001600160a01b031691636f8c3f8a91612306919060040161543e565b60206040518083038186803b15801561231e57600080fd5b505afa158015612332573d6000803e3d6000fd5b505050506040513d601f19601f820116820180604052508101906123569190614d2f565b6001600160a01b031663f3ae2415336040518263ffffffff1660e01b8152600401612381919061533b565b60206040518083038186803b15801561239957600080fd5b505afa1580156123ad573d6000803e3d6000fd5b505050506040513d601f19601f820116820180604052508101906123d19190615045565b6123ed5760405162461bcd60e51b815260040161084d90615517565b4780156113cd57604051600090339083908381818185875af1925050503d8060008114612436576040519150601f19603f3d011682016040523d82523d6000602084013e61243b565b606091505b5050905080610b615760405162461bcd60e51b8152602060048201526008602482015267195d1a0819985a5b60c21b604482015260640161084d565b600080546040516337c61fc560e11b8152620100009091046001600160a01b031691636f8c3f8a916124ac919060040161543e565b60206040518083038186803b1580156124c457600080fd5b505afa1580156124d8573d6000803e3d6000fd5b505050506040513d601f19601f820116820180604052508101906124fc9190614d2f565b6001600160a01b031663f3ae2415336040518263ffffffff1660e01b8152600401612527919061533b565b60206040518083038186803b15801561253f57600080fd5b505afa158015612553573d6000803e3d6000fd5b505050506040513d601f19601f820116820180604052508101906125779190615045565b6113c45760405162461bcd60e51b815260040161084d90615517565b600054610100900460ff166125ae5760005460ff16156125b6565b6125b6613c1a565b6126195760405162461bcd60e51b815260206004820152602e60248201527f496e697469616c697a61626c653a20636f6e747261637420697320616c72656160448201526d191e481a5b9a5d1a585b1a5e995960921b606482015260840161084d565b600054610100900460ff1615801561263b576000805461ffff19166101011790555b6126458888613c2b565b60038054600480546001600160a01b03199081166001600160a01b038a81169190911783556005805483168a83161790556001600160b81b031990931663010000008b85160262ffffff19161762ffffff8716178455600680549091168784161790556000546040516337c61fc560e11b81526201000090910490921692636f8c3f8a926126d3920161543e565b60206040518083038186803b1580156126eb57600080fd5b505afa1580156126ff573d6000803e3d6000fd5b505050506040513d601f19601f820116820180604052508101906127239190614d2f565b6001600160a01b0316638b9c94896040518163ffffffff1660e01b815260040160206040518083038186803b15801561275b57600080fd5b505afa15801561276f573d6000803e3d6000fd5b505050506040513d601f19601f820116820180604052508101906127939190614d2f565b600780546001600160a01b0319166001600160a01b039290921691909117905580156127c5576000805461ff00191690555b5050505050505050565b3360009081526001602052604090205460ff166127fe5760405162461bcd60e51b815260040161084d90615565565b6000805b60095463ffffffff168110156128d4576000600a828154811061283557634e487b7160e01b600052603260045260246000fd5b6000918252602080832060088304015460079092166004026101000a90910463ffffffff16808352600d90915260409091205490915080156128c15761287b8185615710565b63ffffffff83166000908152600e60205260408120805492965083929091906128a5908490615710565b909155505063ffffffff82166000908152600d60205260408120555b5050806128cd906157f6565b9050612802565b5080156113cd576000546040516337c61fc560e11b8152612977916201000090046001600160a01b031690636f8c3f8a906129149060029060040161543e565b60206040518083038186803b15801561292c57600080fd5b505afa158015612940573d6000803e3d6000fd5b505050506040513d601f19601f820116820180604052508101906129649190614d2f565b6007546001600160a01b03169083613b13565b6040518181527fd0e841f234010ad7f57b7c09faffb2245cd240429c6e8fa3cd934a0a8bf58eb09060200160405180910390a150565b600281815481106129bd57600080fd5b6000918252602090912001546001600160a01b0316905081565b6000806129e383613d80565b9094909350915050565b600080546040516337c61fc560e11b815282916201000090046001600160a01b031690636f8c3f8a90612a2490849060040161543e565b60206040518083038186803b158015612a3c57600080fd5b505afa158015612a50573d6000803e3d6000fd5b505050506040513d601f19601f82011682018060405250810190612a749190614d2f565b6001600160a01b031663f3ae2415336040518263ffffffff1660e01b8152600401612a9f919061533b565b60206040518083038186803b158015612ab757600080fd5b505afa158015612acb573d6000803e3d6000fd5b505050506040513d601f19601f82011682018060405250810190612aef9190615045565b612b0b5760405162461bcd60e51b815260040161084d90615517565b60095463ffffffff1680612b765760405162461bcd60e51b815260206004820152602c60248201527f43616e6e6f7420636f756e74206578747261207375736869207768656e206e6f60448201526b081c1bdbdb1cc8195e1a5cdd60a21b606482015260840161084d565b60005b818163ffffffff161015612bc957600f6000612b96836001615728565b63ffffffff168152602081019190915260400160002054612bb79084615710565b9250612bc281615811565b9050612b79565b506006548290612be1906001600160a01b0316612ccc565b612beb91906157b3565b92508215612c365760016000908152600f6020527f169f97de0d9a84d840042b17d3c6b9638b3d6fd9024c9eb0c7a306a17b49f88f8054859290612c30908490615710565b90915550505b509091565b60035460405163e6a4390560e01b8152600091630100000090046001600160a01b03169063e6a4390590612c75908690869060040161534f565b60206040518083038186803b158015612c8d57600080fd5b505afa158015612ca1573d6000803e3d6000fd5b505050506040513d601f19601f82011682018060405250810190612cc59190614d2f565b9392505050565b6040516370a0823160e01b81526000906001600160a01b038316906370a0823190612cfb90309060040161533b565b60206040518083038186803b158015612d1357600080fd5b505afa158015612d27573d6000803e3d6000fd5b505050506040513d601f19601f82011682018060405250810190611100919061516e565b6006546000908290612d65906001600160a01b0316612ccc565b612d6f91906157b3565b905080156111005763ffffffff83166000908152600f602052604081208054839290612d9c908490615710565b909155505092915050565b6000612db284611bc5565b80519091506001600160a01b0316612ddc5760405162461bcd60e51b815260040161084d906154eb565b600182151514612e465763ffffffff84166000908152600b602052604090205415612e465760405162461bcd60e51b815260206004820152601a60248201527914dd185ada5b99c8185b1c9958591e4818dbdb999a59dd5c995960321b604482015260640161084d565b600554604051631526fe2760e01b8152600481018590526000916001600160a01b031690631526fe279060240160806040518083038186803b158015612e8b57600080fd5b505afa158015612e9f573d6000803e3d6000fd5b505050506040513d601f19601f82011682018060405250810190612ec39190615061565b90506000612ed983600001518460200151612c3b565b9050806001600160a01b031682600001516001600160a01b031614612f535760405162461bcd60e51b815260206004820152602a60248201527f496e636f7272656374204d617374657243686566277320706f6f6c49642077616044820152691cc81c1c9bdd9a59195960b21b606482015260840161084d565b63ffffffff86166000908152600b6020526040908190208690556005549051636eb1769f60e11b8152600019916001600160a01b038085169263dd62ed3e92612fa392309291169060040161534f565b60206040518083038186803b158015612fbb57600080fd5b505afa158015612fcf573d6000803e3d6000fd5b505050506040513d601f19601f82011682018060405250810190612ff3919061516e565b101561196157600554613014906001600160a01b03838116911660006131d2565b600554611961906001600160a01b0383811691166000196131d2565b600080600061303f8585614073565b50905060008061304f8787612c3b565b6001600160a01b0316630902f1ac6040518163ffffffff1660e01b815260040160606040518083038186803b15801561308757600080fd5b505afa15801561309b573d6000803e3d6000fd5b505050506040513d601f19601f820116820180604052508101906130bf919061511b565b506001600160701b031691506001600160701b03169150826001600160a01b0316876001600160a01b0316146130f65780826130f9565b81815b909890975095505050505050565b60008084116131285760405162461bcd60e51b815260040161084d90615604565b6000831180156131385750600082115b6131845760405162461bcd60e51b815260206004820152601d60248201527f4e6f206c697175696469747920696e20706f6f6c207265736572766573000000604482015260640161084d565b6000613192856103e5615770565b905060006131a08483615770565b90506000826131b1876103e8615770565b6131bb9190615710565b90506131c78183615750565b979650505050505050565b80158061325a5750604051636eb1769f60e11b81526001600160a01b0384169063dd62ed3e90613208903090869060040161534f565b60206040518083038186803b15801561322057600080fd5b505afa158015613234573d6000803e3d6000fd5b505050506040513d601f19601f82011682018060405250810190613258919061516e565b155b6132c55760405162461bcd60e51b815260206004820152603660248201527f5361666545524332303a20617070726f76652066726f6d206e6f6e2d7a65726f60448201527520746f206e6f6e2d7a65726f20616c6c6f77616e636560501b606482015260840161084d565b6109d28363095ea7b360e01b84846040516024016132e4929190615369565b60408051601f198184030181529190526020810180516001600160e01b03166001600160e01b031990931692909217909152614141565b600061332682611bc5565b63ffffffff83166000908152600860205260409020549091506001600160a01b03166133645760405162461bcd60e51b815260040161084d906154eb565b60006133748383600001516110d5565b905060006133868484602001516110d5565b9050811580613393575080155b1561339e5750505050565b6000806133b385600001518660200151613030565b915091506000806133c686868686614213565b600480548a5160208c015160405162e8e33760e81b81526001600160a01b039283169481019490945281166024840152604483018590526064830184905260006084840181905260a484018190523060c48501524260e4850152949650929450919091169063e8e337009061010401606060405180830381600087803b15801561344f57600080fd5b505af1158015613463573d6000803e3d6000fd5b505050506040513d601f19601f8201168201806040525081019061348791906151a9565b63ffffffff8c166000908152600c602090815260408083208e516001600160a01b03168452909152812080549295508794509250906134c79084906157b3565b909155505063ffffffff89166000908152600c602090815260408083208b8301516001600160a01b03168452909152812080548492906135089084906157b3565b90915550506040518181527f250600b7e1d8b908a0f07fa409e087c1b43ef3a5de3c0e23a41998c311f0ea909060200160405180910390a17fb28fd890673610fa2a3efb1cf64ae1b26dd83c3261fbd99f0d4a5821ccdaa99389826040516135719291906156a7565b60405180910390a1505050505050505050565b6040516001600160a01b0380851660248301528316604482015260648101829052611a939085906323b872dd60e01b906084016132e4565b60006135c88484612c3b565b90506000806135d78686613030565b9150915061196183838387614357565b60408051600280825260608083018452926000929190602083019080368337019050509050868160008151811061362e57634e487b7160e01b600052603260045260246000fd5b60200260200101906001600160a01b031690816001600160a01b031681525050858160018151811061367057634e487b7160e01b600052603260045260246000fd5b6001600160a01b03928316602091820292909201015260048054604051636eb1769f60e11b8152429388938c82169363dd62ed3e936136b49330939216910161534f565b60206040518083038186803b1580156136cc57600080fd5b505afa1580156136e0573d6000803e3d6000fd5b505050506040513d601f19601f82011682018060405250810190613704919061516e565b101561373f57600454613725906001600160a01b038a8116911660006131d2565b60045461373f906001600160a01b038a81169116876131d2565b600480546040516338ed173960e01b81526001600160a01b03909116916338ed173991613776918991899188918d9189910161566b565b600060405180830381600087803b15801561379057600080fd5b505af11580156137a4573d6000803e3d6000fd5b505050506040513d6000823e601f3d908101601f191682016040526137cc9190810190614f50565b98975050505050505050565b60006137e384611bc5565b905082156137fe576137fe81600001518260200151856135bc565b60008061381383600001518460200151613030565b60055463ffffffff89166000908152600b60205260408082205490516393f1a40b60e01b815294965092945092613946928c928c926001600160a01b03909116916393f1a40b9161386991903090600401615646565b604080518083038186803b15801561388057600080fd5b505afa158015613894573d6000803e3d6000fd5b505050506040513d601f19601f820116820180604052508101906138b891906150ce565b6000015186866138d08a600001518b60200151612c3b565b6001600160a01b03166318160ddd6040518163ffffffff1660e01b815260040160206040518083038186803b15801561390857600080fd5b505afa15801561391c573d6000803e3d6000fd5b505050506040513d601f19601f82011682018060405250810190613940919061516e565b8a614481565b600654909150600090613961906001600160a01b0316612ccc565b60055463ffffffff8a166000908152600b602052604090819020549051630441a3e760e41b81529293506001600160a01b039091169163441a3e70916139ab91869060040161565d565b600060405180830381600087803b1580156139c557600080fd5b505af11580156139d9573d6000803e3d6000fd5b505050506139e78882612d4b565b5060045485516020870151613a1c926001600160a01b0316918591613a0c9190612c3b565b6001600160a01b031691906131d2565b6004548551602087015160009283926001600160a01b039091169163baa2abde919087858030613a4e42610168615710565b60405160e089901b6001600160e01b03191681526001600160a01b039788166004820152958716602487015260448601949094526064850192909252608484015290921660a482015260c481019190915260e4016040805180830381600087803b158015613abb57600080fd5b505af1158015613acf573d6000803e3d6000fd5b505050506040513d601f19601f82011682018060405250810190613af39190615186565b91509150613b05878b8e85858d614553565b505050505050505050505050565b6109d28363a9059cbb60e01b84846040516024016132e4929190615369565b60008080613b408486615710565b11613b985760405162461bcd60e51b815260206004820152602260248201527f50616e63616b6553776170496e746567726174696f6e3a206e6f2062616c616e604482015261636560f01b606482015260840161084d565b600080613bad87600001518860200151613030565b915091506130f98787878585614924565b60008085600001516001600160a01b0316876001600160a01b03161415613bfb57506020850151838510613bf25783613bf4565b845b9150613c10565b508451828510613c0b5782613c0d565b845b91505b9550959350505050565b6000613c2530614a86565b15905090565b600054610100900460ff16613c525760405162461bcd60e51b815260040161084d906155b9565b6001600160a01b038116613c785760405162461bcd60e51b815260040161084d906154c6565b60005b8251811015613cee5760006001600160a01b0316838281518110613caf57634e487b7160e01b600052603260045260246000fd5b60200260200101516001600160a01b03161415613cde5760405162461bcd60e51b815260040161084d906154c6565b613ce7816157f6565b9050613c7b565b5060005b8251811015613d62576001806000858481518110613d2057634e487b7160e01b600052603260045260246000fd5b6020908102919091018101516001600160a01b03168252810191909152604001600020805460ff1916911515919091179055613d5b816157f6565b9050613cf2565b508151613d76906002906020850190614c68565b50610b6181614a95565b6000806000613d8e84611bc5565b60055463ffffffff86166000908152600b60205260408082205490516393f1a40b60e01b815293945090926001600160a01b03909216916393f1a40b91613dd9913090600401615646565b604080518083038186803b158015613df057600080fd5b505afa158015613e04573d6000803e3d6000fd5b505050506040513d601f19601f82011682018060405250810190613e2891906150ce565b5182516020840151613e3a9190612c3b565b6001600160a01b03166370a08231306040518263ffffffff1660e01b8152600401613e65919061533b565b60206040518083038186803b158015613e7d57600080fd5b505afa158015613e91573d6000803e3d6000fd5b505050506040513d601f19601f82011682018060405250810190613eb5919061516e565b613ebf9190615710565b905061406781613ed784600001518560200151612c3b565b6001600160a01b03166318160ddd6040518163ffffffff1660e01b815260040160206040518083038186803b158015613f0f57600080fd5b505afa158015613f23573d6000803e3d6000fd5b505050506040513d601f19601f82011682018060405250810190613f47919061516e565b845160208601516001600160a01b038216916370a0823191613f699190612c3b565b6040518263ffffffff1660e01b8152600401613f85919061533b565b60206040518083038186803b158015613f9d57600080fd5b505afa158015613fb1573d6000803e3d6000fd5b505050506040513d601f19601f82011682018060405250810190613fd5919061516e565b602086015186516001600160a01b038216916370a0823191613ff691612c3b565b6040518263ffffffff1660e01b8152600401614012919061533b565b60206040518083038186803b15801561402a57600080fd5b505afa15801561403e573d6000803e3d6000fd5b505050506040513d601f19601f82011682018060405250810190614062919061516e565b614ae6565b90969095509350505050565b600080826001600160a01b0316846001600160a01b031614156140d45760405162461bcd60e51b81526020600482015260196024820152784964656e746963616c20746f6b656e2061646472657373657360381b604482015260640161084d565b826001600160a01b0316846001600160a01b0316106140f45782846140f7565b83835b90925090506001600160a01b03821661167a5760405162461bcd60e51b815260206004820152600c60248201526b5a65726f206164647265737360a01b604482015260640161084d565b6000614196826040518060400160405280602081526020017f5361666545524332303a206c6f772d6c6576656c2063616c6c206661696c6564815250856001600160a01b0316614b489092919063ffffffff16565b8051909150156109d257808060200190518101906141b49190615045565b6109d25760405162461bcd60e51b815260206004820152602a60248201527f5361666545524332303a204552433230206f7065726174696f6e20646964206e6044820152691bdd081cdd58d8d9595960b21b606482015260840161084d565b600080828411156142b45760008361422d866103e8615770565b6142379190615750565b905060006103e86142488389615770565b6142529190615750565b90508088101561427d578793508161426c856103e8615770565b6142769190615750565b92506142ad565b878110156142a6576103e86142928389615770565b61429c9190615750565b93508692506142ad565b8793508692505b505061434e565b8284101561434e576000846142cb856103e8615770565b6142d59190615750565b905060006103e86142e6838a615770565b6142f09190615750565b90508087101561431b5781614307886103e8615770565b6143119190615750565b935086925061434b565b86811015614344578793506103e86143338386615770565b61433d9190615750565b925061434b565b8793508692505b50505b94509492505050565b6001600160a01b0384166143ac5760405162461bcd60e51b815260206004820152601c60248201527b2a3930b232b92537b2a4b73a32b3b930ba34b7b71d2130b22830b4b960211b604482015260640161084d565b6000828410156143d457836143c3846103e8615770565b6143cd9190615750565b90506143ee565b838310156143e957826143c3856103e8615770565b506103e85b8181111561443a5760018261440381846157b3565b61440e906064615770565b6144189190615750565b106144355760405162461bcd60e51b815260040161084d90615499565b6109cf565b808211156109cf5760018261444f83826157b3565b61445a906064615770565b6144649190615750565b106109cf5760405162461bcd60e51b815260040161084d90615499565b60008082600001516001600160a01b0316896001600160a01b031614156144d45783156144ca57836144bb87670de0b6b3a7640000615770565b6144c59190615750565b6144cd565b60005b9050614502565b83156144fc57836144ed86670de0b6b3a7640000615770565b6144f79190615750565b6144ff565b60005b90505b806145115760009150506131c7565b8061451d60028a615750565b61452f90670de0b6b3a7640000615770565b6145399190615750565b915086821115614547578691505b50979650505050505050565b606086600001516001600160a01b0316856001600160a01b0316141561473957602087015161458a908630866118e384848361228b565b9050811561466657600080546040516337c61fc560e11b815261466192620100009092046001600160a01b031691636f8c3f8a916145cb919060040161543e565b60206040518083038186803b1580156145e357600080fd5b505afa1580156145f7573d6000803e3d6000fd5b505050506040513d601f19601f8201168201806040525081019061461b9190614d2f565b8260018151811061463c57634e487b7160e01b600052603260045260246000fd5b60200260200101518661464f9190615710565b89516001600160a01b03169190613b13565b6146da565b8060018151811061468757634e487b7160e01b600052603260045260246000fd5b60200260200101518461469a9190615710565b63ffffffff87166000908152600c602090815260408083208b516001600160a01b03168452909152812080549091906146d4908490615710565b90915550505b60008051602061589783398151915286858360018151811061470c57634e487b7160e01b600052603260045260246000fd5b602002602001015161471e9190615710565b60405161472c9291906156a7565b60405180910390a161491b565b86602001516001600160a01b0316856001600160a01b0316141561491b57865161476b908630876118e384848361228b565b9050811561484a57600080546040516337c61fc560e11b815261484592620100009092046001600160a01b031691636f8c3f8a916147ac919060040161543e565b60206040518083038186803b1580156147c457600080fd5b505afa1580156147d8573d6000803e3d6000fd5b505050506040513d601f19601f820116820180604052508101906147fc9190614d2f565b8260018151811061481d57634e487b7160e01b600052603260045260246000fd5b6020026020010151856148309190615710565b60208a01516001600160a01b03169190613b13565b6148c0565b8060018151811061486b57634e487b7160e01b600052603260045260246000fd5b60200260200101518361487e9190615710565b63ffffffff87166000908152600c602090815260408083208b8301516001600160a01b03168452909152812080549091906148ba908490615710565b90915550505b6000805160206158978339815191528684836001815181106148f257634e487b7160e01b600052603260045260246000fd5b60200260200101516149049190615710565b6040516149129291906156a7565b60405180910390a15b50505050505050565b600080828411156149d45760008361493e866103e8615770565b6149489190615750565b905060006103e86149598389615770565b6149639190615750565b9050808810156149a85760028261497c8a6103e8615770565b6149869190615750565b61499090896157b3565b61499a9190615750565b9250886020015193506149cd565b878110156149cd5760026149bc828a6157b3565b6149c69190615750565b8951945092505b5050613c10565b82841015613c10576000846149eb856103e8615770565b6149f59190615750565b905060006103e8614a06838a615770565b614a109190615750565b905086811015614a3e576002614a2682896157b3565b614a309190615750565b925088602001519350614a7a565b80871015614a7a57600282614a55896103e8615770565b614a5f9190615750565b614a69908a6157b3565b614a739190615750565b8951945092505b50509550959350505050565b6001600160a01b03163b151590565b600054610100900460ff16614abc5760405162461bcd60e51b815260040161084d906155b9565b600080546001600160a01b03909216620100000262010000600160b01b0319909216919091179055565b6000808085614afa886402540be400615770565b614b049190615750565b90506402540be400614b168287615770565b614b209190615750565b92506402540be400614b328286615770565b614b3c9190615750565b91505094509492505050565b60606122c9848460008585614b5c85614a86565b614ba85760405162461bcd60e51b815260206004820152601d60248201527f416464726573733a2063616c6c20746f206e6f6e2d636f6e7472616374000000604482015260640161084d565b600080866001600160a01b03168587604051614bc4919061531f565b60006040518083038185875af1925050503d8060008114614c01576040519150601f19603f3d011682016040523d82523d6000602084013e614c06565b606091505b50915091506131c782828660608315614c20575081612cc5565b825115614c305782518084602001fd5b8160405162461bcd60e51b815260040161084d9190615466565b60405180602001604052806001906020820280368337509192915050565b828054828255906000526020600020908101928215614cbd579160200282015b82811115614cbd57825182546001600160a01b0319166001600160a01b03909116178255602090920191600190910190614c88565b506111489291505b808211156111485760008155600101614cc5565b8035614ce481615861565b919050565b80516001600160701b0381168114614ce457600080fd5b803562ffffff81168114614ce457600080fd5b600060208284031215614d24578081fd5b8135612cc581615861565b600060208284031215614d40578081fd5b8151612cc581615861565b60008060408385031215614d5d578081fd5b8235614d6881615861565b91506020830135614d7881615861565b809150509250929050565b600080600060608486031215614d97578081fd5b8335614da281615861565b92506020840135614db281615861565b929592945050506040919091013590565b600080600060608486031215614dd7578283fd5b8335614de281615861565b9250602084013591506040840135614df981615884565b809150509250925092565b60008060008060808587031215614e19578081fd5b8435614e2481615861565b9350602085013592506040850135614e3b81615884565b9396929550929360600135925050565b600080600080600080600060e0888a031215614e65578485fd5b87356001600160401b03811115614e7a578586fd5b8801601f81018a13614e8a578586fd5b80356020614e9f614e9a836156ed565b6156bd565b8083825282820191508285018e848660051b8801011115614ebe578a8bfd5b8a95505b84861015614ee9578035614ed581615861565b835260019590950194918301918301614ec2565b509a50614ef990508b8201614cd9565b9850505050614f0a60408901614cd9565b9450614f1860608901614cd9565b9350614f2660808901614cd9565b9250614f3460a08901614cd9565b9150614f4260c08901614d00565b905092959891949750929550565b60006020808385031215614f62578182fd5b82516001600160401b03811115614f77578283fd5b8301601f81018513614f87578283fd5b8051614f95614e9a826156ed565b80828252848201915084840188868560051b8701011115614fb4578687fd5b8694505b83851015614547578051835260019490940193918501918501614fb8565b60008060208385031215614fe8578182fd5b82356001600160401b0380821115614ffe578384fd5b818501915085601f830112615011578384fd5b81358181111561501f578485fd5b8660208260051b8501011115615033578485fd5b60209290920196919550909350505050565b600060208284031215615056578081fd5b8151612cc581615876565b600060808284031215615072578081fd5b604051608081016001600160401b03811182821017156150945761509461584b565b60405282516150a281615861565b808252506020830151602082015260408301516040820152606083015160608201528091505092915050565b6000604082840312156150df578081fd5b604080519081016001600160401b03811182821017156151015761510161584b565b604052825181526020928301519281019290925250919050565b60008060006060848603121561512f578081fd5b61513884614ce9565b925061514660208501614ce9565b91506040840151614df981615884565b600060208284031215615167578081fd5b5035919050565b60006020828403121561517f578081fd5b5051919050565b60008060408385031215615198578182fd5b505080516020909101519092909150565b6000806000606084860312156151bd578081fd5b8351925060208401519150604084015190509250925092565b6000602082840312156151e7578081fd5b8135612cc581615884565b60008060408385031215615204578182fd5b8235614d6881615884565b600080600060608486031215615223578081fd5b8335614da281615884565b60008060408385031215615240578182fd5b823561524b81615884565b946020939093013593505050565b6000806000806080858703121561526e578182fd5b843561527981615884565b93506020850135925060408501359150606085013561529781615876565b939692955090935050565b600080600080608085870312156152b7578182fd5b84356152c281615884565b966020860135965060408601359560600135945092505050565b6000815180845260208085019450808401835b838110156153145781516001600160a01b0316875295820195908201906001016152ef565b509495945050505050565b600082516153318184602087016157ca565b9190910192915050565b6001600160a01b0391909116815260200190565b6001600160a01b0392831681529116602082015260400190565b6001600160a01b03929092168252602082015260400190565b60408101818460005b60018110156153b35781516001600160a01b031683526020928301929091019060010161538b565b50505060208083018460005b60018110156153dc578151835291830191908301906001016153bf565b505050509392505050565b602081526000612cc560208301846152dc565b6020808252825182820181905260009190848201906040850190845b8181101561543257835183529284019291840191600101615416565b50909695505050505050565b60208101600e831061546057634e487b7160e01b600052602160045260246000fd5b91905290565b60208152600082518060208401526154858160408501602087016157ca565b601f01601f19169190910160400192915050565b60208082526013908201527210d95a5b1a5b99d31a5b5a5d14995858da1959606a1b604082015260600190565b6020808252600b908201526a626164206164647265737360a81b604082015260600190565b602080825260129082015271141bdbdb08191bd95cdb89dd08195e1a5cdd60721b604082015260600190565b6020808252602e908201527f436f6e74726f6c6c65643a3a6f6e6c794d616e616765723a2043616c6c65722060408201526d34b9903737ba1036b0b730b3b2b960911b606082015260800190565b60208082526034908201527f436f6e74726f6c6c65643a3a6f6e6c79436f6e74726f6c6c65723a2043616c6c60408201527332b91034b9903737ba1031b7b73a3937b63632b960611b606082015260800190565b6020808252602b908201527f496e697469616c697a61626c653a20636f6e7472616374206973206e6f74206960408201526a6e697469616c697a696e6760a81b606082015260800190565b60208082526022908201527f616d6f756e74496e206d7573742062652067726561746572207468616e207a65604082015261726f60f01b606082015260800190565b9182526001600160a01b0316602082015260400190565b918252602082015260400190565b85815284602082015260a06040820152600061568a60a08301866152dc565b6001600160a01b0394909416606083015250608001529392505050565b63ffffffff929092168252602082015260400190565b604051601f8201601f191681016001600160401b03811182821017156156e5576156e561584b565b604052919050565b60006001600160401b038211156157065761570661584b565b5060051b60200190565b6000821982111561572357615723615835565b500190565b600063ffffffff80831681851680830382111561574757615747615835565b01949350505050565b60008261576b57634e487b7160e01b81526012600452602481fd5b500490565b600081600019048311821515161561578a5761578a615835565b500290565b600062ffffff838116908316818110156157ab576157ab615835565b039392505050565b6000828210156157c5576157c5615835565b500390565b60005b838110156157e55781810151838201526020016157cd565b83811115611a935750506000910152565b600060001982141561580a5761580a615835565b5060010190565b600063ffffffff8083168181141561582b5761582b615835565b6001019392505050565b634e487b7160e01b600052601160045260246000fd5b634e487b7160e01b600052604160045260246000fd5b6001600160a01b03811681146113cd57600080fd5b80151581146113cd57600080fd5b63ffffffff811681146113cd57600080fdfe6fb183d14e6407db4dfb55deb83841283e9e3015e3aabe210d446b16f1ce0937a2646970667358221220148350cede7364d4f77809f29629863f4578d16ffa8ef8115ea1bea6479a337c64736f6c63430008040033",
  "devdoc": {
    "kind": "dev",
    "methods": {
      "deposit(address,uint256,uint32)": {
        "params": {
          "amount": "The amount of the token being deposited",
          "tokenAddress": "The address of the deposited token"
        }
      },
      "getAmountOut(address,address,uint256)": {
        "params": {
          "amountIn": "The exact amount of the input to swap",
          "tokenIn": "The address of the input token",
          "tokenOut": "The address of the output token"
        },
        "returns": {
          "amountOut": "The estimated amount of tokenOut to receive"
        }
      },
      "getAmountOutMinimum(address,address,uint256)": {
        "params": {
          "amountIn": "The exact amount of the input to swap",
          "tokenIn": "The address of the input token",
          "tokenOut": "The address of the output token"
        },
        "returns": {
          "amountOutMinimum": "The minimum amount of tokenOut to receive, factoring in allowable slippage"
        }
      },
      "getBalance(uint32,address)": {
        "returns": {
          "_0": "tokenAddress The address of the token to get the balance of"
        }
      },
      "getPendingYield(uint32)": {
        "details": "Returns total amount of pending yield in CAKE rewards",
        "params": {
          "poolId": "The pool id to check for pending rewards"
        },
        "returns": {
          "amounts": "Array of yield amounts",
          "tokens": "Array of yield tokens"
        }
      },
      "getTokensOrdered(address,address)": {
        "params": {
          "tokenA": "The address of tokenA",
          "tokenB": "The address of tokenB"
        },
        "returns": {
          "token0": "The address of the ordered token0",
          "token1": "The address of the ordered token1"
        }
      },
      "harvestYield()": {
        "details": "Harvests token yield from the integration"
      },
      "incrementBalance(uint32,address,uint256)": {
        "params": {
          "amount": "The amount of the token being deposited",
          "token": "The address of the deposited token"
        }
      },
      "initialize(address[],address,address,address,address,address,uint24)": {
        "params": {
          "controllers_": "The address of the controlling contract",
          "factoryAddress_": "The address of the PancakeSwap factory contract",
          "swapRouterAddress_": "The address of the PancakeSwap router contract"
        }
      },
      "rebalancePool(uint32,uint256,uint256,uint256)": {
        "params": {
          "maxSellTokenA": "max amount of tokenA to sell (to limit rebalancing)",
          "maxSellTokenB": "max amount of tokenB to sell (to limit rebalancing)",
          "poolId": "The ID of the pool to rebalance",
          "ratioX1000": "reserves ratio to control the price slippage"
        }
      },
      "withdraw(address,uint256,uint32)": {
        "params": {
          "amount": "The amoutn of the token to withdraw",
          "tokenAddress": "The address of the underlying token to withdraw"
        }
      }
    },
    "version": 1
  },
  "userdoc": {
    "events": {
      "CreatePool(address,address,uint32)": {
        "notice": "Events"
      }
    },
    "kind": "user",
    "methods": {
      "harvestYieldByPool(uint32,uint256,uint256,bool)": {
        "notice": "Harvest available yield for desired pool"
      },
      "rebalancePool(uint32,uint256,uint256,uint256)": {
        "notice": "Rebalances by attempting to swap up to max to get into position ratio"
      },
      "withdraw(address,uint256,uint32)": {
        "notice": "Withdraws token from the integration"
      }
    },
    "notice": "Integrates 0x Nodes to PancakeSwap",
    "version": 1
  },
  "storageLayout": {
    "storage": [
      {
        "astId": 702,
        "contract": "contracts/yield-integrations/BSCPancakeSwapIntegration.sol:BSCPancakeSwapIntegration",
        "label": "_initialized",
        "offset": 0,
        "slot": "0",
        "type": "t_bool"
      },
      {
        "astId": 705,
        "contract": "contracts/yield-integrations/BSCPancakeSwapIntegration.sol:BSCPancakeSwapIntegration",
        "label": "_initializing",
        "offset": 1,
        "slot": "0",
        "type": "t_bool"
      },
      {
        "astId": 15684,
        "contract": "contracts/yield-integrations/BSCPancakeSwapIntegration.sol:BSCPancakeSwapIntegration",
        "label": "moduleMap",
        "offset": 2,
        "slot": "0",
        "type": "t_contract(IModuleMap)29669"
      },
      {
        "astId": 9016,
        "contract": "contracts/yield-integrations/BSCPancakeSwapIntegration.sol:BSCPancakeSwapIntegration",
        "label": "_controllers",
        "offset": 0,
        "slot": "1",
        "type": "t_mapping(t_address,t_bool)"
      },
      {
        "astId": 9019,
        "contract": "contracts/yield-integrations/BSCPancakeSwapIntegration.sol:BSCPancakeSwapIntegration",
        "label": "controllers",
        "offset": 0,
        "slot": "2",
        "type": "t_array(t_address)dyn_storage"
      },
      {
        "astId": 43946,
        "contract": "contracts/yield-integrations/BSCPancakeSwapIntegration.sol:BSCPancakeSwapIntegration",
        "label": "slippageNumerator",
        "offset": 0,
        "slot": "3",
        "type": "t_uint24"
      },
      {
        "astId": 43948,
        "contract": "contracts/yield-integrations/BSCPancakeSwapIntegration.sol:BSCPancakeSwapIntegration",
        "label": "factoryAddress",
        "offset": 3,
        "slot": "3",
        "type": "t_address"
      },
      {
        "astId": 43950,
        "contract": "contracts/yield-integrations/BSCPancakeSwapIntegration.sol:BSCPancakeSwapIntegration",
        "label": "swapRouterAddress",
        "offset": 0,
        "slot": "4",
        "type": "t_address"
      },
      {
        "astId": 43952,
        "contract": "contracts/yield-integrations/BSCPancakeSwapIntegration.sol:BSCPancakeSwapIntegration",
        "label": "masterChef",
        "offset": 0,
        "slot": "5",
        "type": "t_address"
      },
      {
        "astId": 43954,
        "contract": "contracts/yield-integrations/BSCPancakeSwapIntegration.sol:BSCPancakeSwapIntegration",
        "label": "rewardToken",
        "offset": 0,
        "slot": "6",
        "type": "t_address"
      },
      {
        "astId": 43956,
        "contract": "contracts/yield-integrations/BSCPancakeSwapIntegration.sol:BSCPancakeSwapIntegration",
        "label": "wnativeAddress",
        "offset": 0,
        "slot": "7",
        "type": "t_address"
      },
      {
        "astId": 43961,
        "contract": "contracts/yield-integrations/BSCPancakeSwapIntegration.sol:BSCPancakeSwapIntegration",
        "label": "pools",
        "offset": 0,
        "slot": "8",
        "type": "t_mapping(t_uint256,t_struct(Pool)27393_storage)"
      },
      {
        "astId": 43963,
        "contract": "contracts/yield-integrations/BSCPancakeSwapIntegration.sol:BSCPancakeSwapIntegration",
        "label": "poolCount",
        "offset": 0,
        "slot": "9",
        "type": "t_uint32"
      },
      {
        "astId": 43966,
        "contract": "contracts/yield-integrations/BSCPancakeSwapIntegration.sol:BSCPancakeSwapIntegration",
        "label": "poolIds",
        "offset": 0,
        "slot": "10",
        "type": "t_array(t_uint32)dyn_storage"
      },
      {
        "astId": 43970,
        "contract": "contracts/yield-integrations/BSCPancakeSwapIntegration.sol:BSCPancakeSwapIntegration",
        "label": "stakings",
        "offset": 0,
        "slot": "11",
        "type": "t_mapping(t_uint32,t_uint256)"
      },
      {
        "astId": 43976,
        "contract": "contracts/yield-integrations/BSCPancakeSwapIntegration.sol:BSCPancakeSwapIntegration",
        "label": "balances",
        "offset": 0,
        "slot": "12",
        "type": "t_mapping(t_uint256,t_mapping(t_address,t_uint256))"
      },
      {
        "astId": 43980,
        "contract": "contracts/yield-integrations/BSCPancakeSwapIntegration.sol:BSCPancakeSwapIntegration",
        "label": "yieldBalances",
        "offset": 0,
        "slot": "13",
        "type": "t_mapping(t_uint32,t_uint256)"
      },
      {
        "astId": 43984,
        "contract": "contracts/yield-integrations/BSCPancakeSwapIntegration.sol:BSCPancakeSwapIntegration",
        "label": "harvestedYield",
        "offset": 0,
        "slot": "14",
        "type": "t_mapping(t_uint32,t_uint256)"
      },
      {
        "astId": 43988,
        "contract": "contracts/yield-integrations/BSCPancakeSwapIntegration.sol:BSCPancakeSwapIntegration",
        "label": "rewardBalances",
        "offset": 0,
        "slot": "15",
        "type": "t_mapping(t_uint32,t_uint256)"
      }
    ],
    "types": {
      "t_address": {
        "encoding": "inplace",
        "label": "address",
        "numberOfBytes": "20"
      },
      "t_array(t_address)dyn_storage": {
        "base": "t_address",
        "encoding": "dynamic_array",
        "label": "address[]",
        "numberOfBytes": "32"
      },
      "t_array(t_uint32)dyn_storage": {
        "base": "t_uint32",
        "encoding": "dynamic_array",
        "label": "uint32[]",
        "numberOfBytes": "32"
      },
      "t_bool": {
        "encoding": "inplace",
        "label": "bool",
        "numberOfBytes": "1"
      },
      "t_contract(IModuleMap)29669": {
        "encoding": "inplace",
        "label": "contract IModuleMap",
        "numberOfBytes": "20"
      },
      "t_mapping(t_address,t_bool)": {
        "encoding": "mapping",
        "key": "t_address",
        "label": "mapping(address => bool)",
        "numberOfBytes": "32",
        "value": "t_bool"
      },
      "t_mapping(t_address,t_uint256)": {
        "encoding": "mapping",
        "key": "t_address",
        "label": "mapping(address => uint256)",
        "numberOfBytes": "32",
        "value": "t_uint256"
      },
      "t_mapping(t_uint256,t_mapping(t_address,t_uint256))": {
        "encoding": "mapping",
        "key": "t_uint256",
        "label": "mapping(uint256 => mapping(address => uint256))",
        "numberOfBytes": "32",
        "value": "t_mapping(t_address,t_uint256)"
      },
      "t_mapping(t_uint256,t_struct(Pool)27393_storage)": {
        "encoding": "mapping",
        "key": "t_uint256",
        "label": "mapping(uint256 => struct IAMMIntegration.Pool)",
        "numberOfBytes": "32",
        "value": "t_struct(Pool)27393_storage"
      },
      "t_mapping(t_uint32,t_uint256)": {
        "encoding": "mapping",
        "key": "t_uint32",
        "label": "mapping(uint32 => uint256)",
        "numberOfBytes": "32",
        "value": "t_uint256"
      },
      "t_struct(Pool)27393_storage": {
        "encoding": "inplace",
        "label": "struct IAMMIntegration.Pool",
        "members": [
          {
            "astId": 27388,
            "contract": "contracts/yield-integrations/BSCPancakeSwapIntegration.sol:BSCPancakeSwapIntegration",
            "label": "tokenA",
            "offset": 0,
            "slot": "0",
            "type": "t_address"
          },
          {
            "astId": 27390,
            "contract": "contracts/yield-integrations/BSCPancakeSwapIntegration.sol:BSCPancakeSwapIntegration",
            "label": "tokenB",
            "offset": 0,
            "slot": "1",
            "type": "t_address"
          },
          {
            "astId": 27392,
            "contract": "contracts/yield-integrations/BSCPancakeSwapIntegration.sol:BSCPancakeSwapIntegration",
            "label": "positionID",
            "offset": 0,
            "slot": "2",
            "type": "t_uint256"
          }
        ],
        "numberOfBytes": "96"
      },
      "t_uint24": {
        "encoding": "inplace",
        "label": "uint24",
        "numberOfBytes": "3"
      },
      "t_uint256": {
        "encoding": "inplace",
        "label": "uint256",
        "numberOfBytes": "32"
      },
      "t_uint32": {
        "encoding": "inplace",
        "label": "uint32",
        "numberOfBytes": "4"
      }
    }
  }
}