{
  "address": "0xE029665d8CD60d2CEF9D51D1A3150a9eF1c8098f",
  "abi": [
    {
      "inputs": [
        {
          "internalType": "address[]",
          "name": "controllers_",
          "type": "address[]"
        },
        {
          "internalType": "address",
          "name": "moduleMap_",
          "type": "address"
        }
      ],
      "name": "__Controlled_init",
      "outputs": [],
      "stateMutability": "nonpayable",
      "type": "function"
    },
    {
      "inputs": [
        {
          "internalType": "address",
          "name": "controller",
          "type": "address"
        }
      ],
      "name": "addController",
      "outputs": [],
      "stateMutability": "nonpayable",
      "type": "function"
    },
    {
      "inputs": [
        {
          "internalType": "address",
          "name": "user",
          "type": "address"
        },
        {
          "internalType": "uint256[]",
          "name": "ids",
          "type": "uint256[]"
        }
      ],
      "name": "claimEthRewards",
      "outputs": [
        {
          "internalType": "uint256",
          "name": "ethRewards",
          "type": "uint256"
        }
      ],
      "stateMutability": "nonpayable",
      "type": "function"
    },
    {
      "inputs": [
        {
          "internalType": "uint256",
          "name": "",
          "type": "uint256"
        }
      ],
      "name": "controllers",
      "outputs": [
        {
          "internalType": "address",
          "name": "",
          "type": "address"
        }
      ],
      "stateMutability": "view",
      "type": "function"
    },
    {
      "inputs": [
        {
          "internalType": "uint256",
          "name": "strategyId",
          "type": "uint256"
        },
        {
          "internalType": "uint256",
          "name": "amount",
          "type": "uint256"
        },
        {
          "internalType": "address",
          "name": "user",
          "type": "address"
        }
      ],
      "name": "decreaseUserRewards",
      "outputs": [],
      "stateMutability": "nonpayable",
      "type": "function"
    },
    {
      "inputs": [],
      "name": "getEthRewards",
      "outputs": [
        {
          "internalType": "uint256",
          "name": "",
          "type": "uint256"
        }
      ],
      "stateMutability": "view",
      "type": "function"
    },
    {
      "inputs": [
        {
          "internalType": "uint256",
          "name": "strategyId",
          "type": "uint256"
        }
      ],
      "name": "getStrategyInfo",
      "outputs": [
        {
          "components": [
            {
              "internalType": "uint256",
              "name": "rewardPerShare",
              "type": "uint256"
            },
            {
              "internalType": "uint256",
              "name": "totalRewards",
              "type": "uint256"
            }
          ],
          "internalType": "struct IEtherRewards.StrategyInfo",
          "name": "",
          "type": "tuple"
        }
      ],
      "stateMutability": "view",
      "type": "function"
    },
    {
      "inputs": [],
      "name": "getTotalClaimedEthRewards",
      "outputs": [
        {
          "internalType": "uint256",
          "name": "",
          "type": "uint256"
        }
      ],
      "stateMutability": "view",
      "type": "function"
    },
    {
      "inputs": [
        {
          "internalType": "address",
          "name": "user",
          "type": "address"
        },
        {
          "internalType": "uint256[]",
          "name": "ids",
          "type": "uint256[]"
        }
      ],
      "name": "getTotalUserClaimedEthByStrategy",
      "outputs": [
        {
          "internalType": "uint256[]",
          "name": "",
          "type": "uint256[]"
        }
      ],
      "stateMutability": "view",
      "type": "function"
    },
    {
      "inputs": [
        {
          "internalType": "address",
          "name": "account",
          "type": "address"
        }
      ],
      "name": "getTotalUserClaimedEthRewards",
      "outputs": [
        {
          "internalType": "uint256",
          "name": "",
          "type": "uint256"
        }
      ],
      "stateMutability": "view",
      "type": "function"
    },
    {
      "inputs": [
        {
          "internalType": "address",
          "name": "user",
          "type": "address"
        }
      ],
      "name": "getUserEthRewards",
      "outputs": [
        {
          "internalType": "uint256",
          "name": "",
          "type": "uint256"
        }
      ],
      "stateMutability": "view",
      "type": "function"
    },
    {
      "inputs": [
        {
          "internalType": "uint256",
          "name": "strategyId",
          "type": "uint256"
        },
        {
          "internalType": "address",
          "name": "user",
          "type": "address"
        }
      ],
      "name": "getUserInfo",
      "outputs": [
        {
          "components": [
            {
              "internalType": "int256",
              "name": "rewardDebt",
              "type": "int256"
            },
            {
              "internalType": "uint256",
              "name": "claimedRewards",
              "type": "uint256"
            }
          ],
          "internalType": "struct IEtherRewards.UserInfo",
          "name": "",
          "type": "tuple"
        }
      ],
      "stateMutability": "view",
      "type": "function"
    },
    {
      "inputs": [
        {
          "internalType": "uint256",
          "name": "strategyId",
          "type": "uint256"
        },
        {
          "internalType": "address",
          "name": "user",
          "type": "address"
        }
      ],
      "name": "getUserStrategyRewards",
      "outputs": [
        {
          "internalType": "uint256",
          "name": "ethRewards",
          "type": "uint256"
        }
      ],
      "stateMutability": "view",
      "type": "function"
    },
    {
      "inputs": [
        {
          "internalType": "uint256",
          "name": "strategyId",
          "type": "uint256"
        },
        {
          "internalType": "uint256",
          "name": "ethRewardsAmount",
          "type": "uint256"
        }
      ],
      "name": "increaseEthRewards",
      "outputs": [],
      "stateMutability": "nonpayable",
      "type": "function"
    },
    {
      "inputs": [
        {
          "internalType": "uint256",
          "name": "strategyId",
          "type": "uint256"
        },
        {
          "internalType": "uint256",
          "name": "amount",
          "type": "uint256"
        },
        {
          "internalType": "address",
          "name": "user",
          "type": "address"
        }
      ],
      "name": "increaseUserRewards",
      "outputs": [],
      "stateMutability": "nonpayable",
      "type": "function"
    },
    {
      "inputs": [
        {
          "internalType": "address[]",
          "name": "controllers_",
          "type": "address[]"
        },
        {
          "internalType": "address",
          "name": "moduleMap_",
          "type": "address"
        }
      ],
      "name": "initialize",
      "outputs": [],
      "stateMutability": "nonpayable",
      "type": "function"
    },
    {
      "inputs": [],
      "name": "moduleMap",
      "outputs": [
        {
          "internalType": "contract IModuleMap",
          "name": "",
          "type": "address"
        }
      ],
      "stateMutability": "view",
      "type": "function"
    }
  ],
  "transactionHash": "0x71fe06ba5f6abee2a3ec616a892dc0b84067844b53c3a8cc5a9e4482ec091d07",
  "args": [],
  "solcInputHash": "b359af8479a2326fcf7abd496853641e",
  "bytecode": "0x608060405234801561001057600080fd5b50611b44806100206000396000f3fe608060405234801561001057600080fd5b50600436106100db5760003560e01c80630c52b797146100e05780630f0a1c6f146100f75780631069f3b51461011d57806313cf6b001461014b578063462d0b2e1461016057806354ed0e59146101735780636500d90f1461018657806398c671ce146101af578063a22aecd1146101c2578063a7fc7a07146101d5578063c3b2a7f4146101e8578063d390c73a146101fb578063db089e791461021b578063e87e88dc14610267578063e94b0dd21461026f578063ebfd2da414610282578063f4f104b514610295575b600080fd5b6004545b6040519081526020015b60405180910390f35b600054610110906201000090046001600160a01b031681565b6040516100ee91906117f7565b61013061012b36600461176f565b6102a8565b604080518251815260209283015192810192909252016100ee565b61015e6101593660046117bf565b6102f4565b005b61015e61016e366004611647565b610393565b6100e4610181366004611586565b610411565b6100e4610194366004611586565b6001600160a01b031660009081526005602052604090205490565b61015e6101bd366004611647565b61054b565b61015e6101d03660046117bf565b6106da565b61015e6101e3366004611586565b610766565b6100e46101f63660046115c5565b6109a3565b61020e6102093660046115c5565b610a29565b6040516100ee919061180b565b61013061022936600461173f565b604080518082019091526000808252602082015250600090815260076020908152604091829020825180840190935280548352600101549082015290565b6003546100e4565b61011061027d36600461173f565b610b20565b6100e461029036600461176f565b610b4a565b61015e6102a336600461179e565b610b56565b604080518082018252600080825260209182018190526001600160a01b038416815260068252828120858252825282902082518084019093528054835260010154908201525b92915050565b3360009081526001602052604090205460ff1661032c5760405162461bcd60e51b8152600401610323906118ea565b60405180910390fd5b60008381526007602052604090205464e8d4a510009061034c9084611a3a565b6103569190611997565b6001600160a01b03821660009081526006602090815260408083208784529091528120805490919061038990849061193e565b9091555050505050565b600054610100900460ff166103ae5760005460ff16156103b2565b303b155b6103ce5760405162461bcd60e51b815260040161032390611877565b600054610100900460ff161580156103f0576000805461ffff19166101011790555b6103fa838361054b565b801561040c576000805461ff00191690555b505050565b600080546040516337c61fc560e11b815282916201000090046001600160a01b031690636f8c3f8a906104499060089060040161184f565b60206040518083038186803b15801561046157600080fd5b505afa158015610475573d6000803e3d6000fd5b505050506040513d601f19601f8201168201806040525081019061049991906115a9565b90506000805b826001600160a01b031663eb08ab286040518163ffffffff1660e01b815260040160206040518083038186803b1580156104d857600080fd5b505afa1580156104ec573d6000803e3d6000fd5b505050506040513d601f19601f820116820180604052508101906105109190611757565b81116105435760006105228287610fdc565b50905061052f818461197f565b9250508061053c90611aaf565b905061049f565b509392505050565b600054610100900460ff166105665760005460ff161561056a565b303b155b6105865760405162461bcd60e51b815260040161032390611877565b600054610100900460ff161580156105a8576000805461ffff19166101011790555b6001600160a01b0382166105ce5760405162461bcd60e51b8152600401610323906118c5565b60005b83518110156106465760006001600160a01b031684828151811061060557634e487b7160e01b600052603260045260246000fd5b60200260200101516001600160a01b031614156106345760405162461bcd60e51b8152600401610323906118c5565b8061063e81611aaf565b9150506105d1565b5060005b83518110156106bc57600180600086848151811061067857634e487b7160e01b600052603260045260246000fd5b6020908102919091018101516001600160a01b03168252810191909152604001600020805460ff1916911515919091179055806106b481611aaf565b91505061064a565b5082516106d09060029060208601906114fc565b506103fa8261137f565b3360009081526001602052604090205460ff166107095760405162461bcd60e51b8152600401610323906118ea565b60008381526007602052604090205464e8d4a51000906107299084611a3a565b6107339190611997565b6001600160a01b038216600090815260066020908152604080832087845290915281208054909190610389908490611a59565b600080546040516337c61fc560e11b8152620100009091046001600160a01b031691636f8c3f8a9161079b919060040161184f565b60206040518083038186803b1580156107b357600080fd5b505afa1580156107c7573d6000803e3d6000fd5b505050506040513d601f19601f820116820180604052508101906107eb91906115a9565b6001600160a01b0316632f54bf6e336040518263ffffffff1660e01b815260040161081691906117f7565b60206040518083038186803b15801561082e57600080fd5b505afa158015610842573d6000803e3d6000fd5b505050506040513d601f19601f82011682018060405250810190610866919061171f565b6108c55760405162461bcd60e51b815260206004820152602a60248201527f436f6e74726f6c6c65643a3a6f6e6c794f776e65723a2043616c6c6572206973604482015269103737ba1037bbb732b960b11b6064820152608401610323565b6001600160a01b03811660009081526001602081905260408220805460ff19169091179055805b60025481101561094d576002818154811061091757634e487b7160e01b600052603260045260246000fd5b6000918252602090912001546001600160a01b038481169116141561093b57600191505b8061094581611aaf565b9150506108ec565b508061099f57600280546001810182556000919091527f405787fa12a823e0f2b7631cc41b3ba8828b3321ca811111fa75cd3aa3bb5ace0180546001600160a01b0319166001600160a01b0384161790555b5050565b3360009081526001602052604081205460ff166109d25760405162461bcd60e51b8152600401610323906118ea565b60005b8281101561054357610a0d848483818110610a0057634e487b7160e01b600052603260045260246000fd5b9050602002013586611413565b610a17908361197f565b9150610a2281611aaf565b90506109d5565b60606000826001600160401b03811115610a5357634e487b7160e01b600052604160045260246000fd5b604051908082528060200260200182016040528015610a7c578160200160208202803683370190505b50905060005b83811015610b17576001600160a01b038616600090815260066020526040812090868684818110610ac357634e487b7160e01b600052603260045260246000fd5b90506020020135815260200190815260200160002060010154828281518110610afc57634e487b7160e01b600052603260045260246000fd5b6020908102919091010152610b1081611aaf565b9050610a82565b50949350505050565b60028181548110610b3057600080fd5b6000918252602090912001546001600160a01b0316905081565b60006105438383610fdc565b3360009081526001602052604090205460ff16610b855760405162461bcd60e51b8152600401610323906118ea565b600082815260076020526040808220825491516337c61fc560e11b81529092916201000090046001600160a01b031690636f8c3f8a90610bca9060039060040161184f565b60206040518083038186803b158015610be257600080fd5b505afa158015610bf6573d6000803e3d6000fd5b505050506040513d601f19601f82011682018060405250810190610c1a91906115a9565b905060008415610dac576000546040516337c61fc560e11b8152620100009091046001600160a01b031690636f8c3f8a90610c5a9060089060040161184f565b60206040518083038186803b158015610c7257600080fd5b505afa158015610c86573d6000803e3d6000fd5b505050506040513d601f19601f82011682018060405250810190610caa91906115a9565b6001600160a01b0316639d6eaec286846001600160a01b0316638b9c94896040518163ffffffff1660e01b815260040160206040518083038186803b158015610cf257600080fd5b505afa158015610d06573d6000803e3d6000fd5b505050506040513d601f19601f82011682018060405250810190610d2a91906115a9565b6040516001600160e01b031960e085901b16815260048101929092526001600160a01b0316602482015260440160206040518083038186803b158015610d6f57600080fd5b505afa158015610d83573d6000803e3d6000fd5b505050506040513d601f19601f82011682018060405250810190610da79190611757565b610f1d565b6000546040516337c61fc560e11b8152620100009091046001600160a01b031690636f8c3f8a90610de29060019060040161184f565b60206040518083038186803b158015610dfa57600080fd5b505afa158015610e0e573d6000803e3d6000fd5b505050506040513d601f19601f82011682018060405250810190610e3291906115a9565b6001600160a01b031663f5465992836001600160a01b03166344fc9b566040518163ffffffff1660e01b815260040160206040518083038186803b158015610e7957600080fd5b505afa158015610e8d573d6000803e3d6000fd5b505050506040513d601f19601f82011682018060405250810190610eb191906115a9565b6040518263ffffffff1660e01b8152600401610ecd91906117f7565b60206040518083038186803b158015610ee557600080fd5b505afa158015610ef9573d6000803e3d6000fd5b505050506040513d601f19601f82011682018060405250810190610f1d9190611757565b905060008111610f6f5760405162461bcd60e51b815260206004820152601f60248201527f4574686572526577617264733a3a746f6b656e4e6f744465706f7369746564006044820152606401610323565b80610f7f64e8d4a5100086611a3a565b610f899190611997565b836000016000828254610f9c919061197f565b9250508190555083836001016000828254610fb7919061197f565b925050819055508360036000828254610fd0919061197f565b90915550505050505050565b6001600160a01b0380821660009081526006602090815260408083208684528252808320815180830183528154815260019091015492810192909252825490516337c61fc560e11b815292938493849262010000900490911690636f8c3f8a9061104b9060039060040161184f565b60206040518083038186803b15801561106357600080fd5b505afa158015611077573d6000803e3d6000fd5b505050506040513d601f19601f8201168201806040525081019061109b91906115a9565b600080546040516337c61fc560e11b81529293509091620100009091046001600160a01b031690636f8c3f8a906110d79060019060040161184f565b60206040518083038186803b1580156110ef57600080fd5b505afa158015611103573d6000803e3d6000fd5b505050506040513d601f19601f8201168201806040525081019061112791906115a9565b9050861561123b57806001600160a01b03166341127a6788846001600160a01b0316638b9c94896040518163ffffffff1660e01b815260040160206040518083038186803b15801561117857600080fd5b505afa15801561118c573d6000803e3d6000fd5b505050506040513d601f19601f820116820180604052508101906111b091906115a9565b6040516001600160e01b031960e085901b16815260048101929092526001600160a01b0390811660248301528916604482015260640160206040518083038186803b1580156111fe57600080fd5b505afa158015611212573d6000803e3d6000fd5b505050506040513d601f19601f820116820180604052508101906112369190611757565b61133a565b806001600160a01b031663b47064c8836001600160a01b03166344fc9b566040518163ffffffff1660e01b815260040160206040518083038186803b15801561128357600080fd5b505afa158015611297573d6000803e3d6000fd5b505050506040513d601f19601f820116820180604052508101906112bb91906115a9565b6040516001600160e01b031960e084901b1681526001600160a01b039182166004820152908916602482015260440160206040518083038186803b15801561130257600080fd5b505afa158015611316573d6000803e3d6000fd5b505050506040513d601f19601f8201168201806040525081019061133a9190611757565b6000888152600760205260409020549094506113739064e8d4a5100090611362908790611a3a565b61136c9190611997565b84516114cb565b94505050509250929050565b600054610100900460ff1661139a5760005460ff161561139e565b303b155b6113ba5760405162461bcd60e51b815260040161032390611877565b600054610100900460ff161580156113dc576000805461ffff19166101011790555b6000805462010000600160b01b031916620100006001600160a01b03851602179055801561099f576000805461ff00191690555050565b60008060006114228585610fdc565b909250905081156105435760008581526007602052604090205464e8d4a510009061144e908390611a3a565b6114589190611997565b6001600160a01b03851660009081526006602090815260408083208984529091528120919091556004805484929061149190849061197f565b90915550506001600160a01b038416600090815260056020526040812080548492906114be90849061197f565b9091555050509392505050565b6000808212156114f2576114e1826000196119b7565b6114eb908461197f565b90506102ee565b6114eb8284611a98565b828054828255906000526020600020908101928215611551579160200282015b8281111561155157825182546001600160a01b0319166001600160a01b0390911617825560209092019160019091019061151c565b5061155d929150611561565b5090565b5b8082111561155d5760008155600101611562565b803561158181611af6565b919050565b600060208284031215611597578081fd5b81356115a281611af6565b9392505050565b6000602082840312156115ba578081fd5b81516115a281611af6565b6000806000604084860312156115d9578182fd5b83356115e481611af6565b925060208401356001600160401b03808211156115ff578384fd5b818601915086601f830112611612578384fd5b813581811115611620578485fd5b8760208260051b8501011115611634578485fd5b6020830194508093505050509250925092565b60008060408385031215611659578182fd5b82356001600160401b038082111561166f578384fd5b818501915085601f830112611682578384fd5b813560208282111561169657611696611ae0565b8160051b604051601f19603f830116810181811086821117156116bb576116bb611ae0565b604052838152828101945085830182870184018b10156116d9578889fd5b8896505b84871015611702576116ee81611576565b8652600196909601959483019483016116dd565b5096506117129050878201611576565b9450505050509250929050565b600060208284031215611730578081fd5b815180151581146115a2578182fd5b600060208284031215611750578081fd5b5035919050565b600060208284031215611768578081fd5b5051919050565b60008060408385031215611781578182fd5b82359150602083013561179381611af6565b809150509250929050565b600080604083850312156117b0578182fd5b50508035926020909101359150565b6000806000606084860312156117d3578283fd5b833592506020840135915060408401356117ec81611af6565b809150509250925092565b6001600160a01b0391909116815260200190565b6020808252825182820181905260009190848201906040850190845b8181101561184357835183529284019291840191600101611827565b50909695505050505050565b60208101600c831061187157634e487b7160e01b600052602160045260246000fd5b91905290565b6020808252602e908201527f496e697469616c697a61626c653a20636f6e747261637420697320616c72656160408201526d191e481a5b9a5d1a585b1a5e995960921b606082015260800190565b6020808252600b908201526a626164206164647265737360a81b604082015260600190565b60208082526034908201527f436f6e74726f6c6c65643a3a6f6e6c79436f6e74726f6c6c65723a2043616c6c60408201527332b91034b9903737ba1031b7b73a3937b63632b960611b606082015260800190565b600080821280156001600160ff1b038490038513161561196057611960611aca565b600160ff1b839003841281161561197957611979611aca565b50500190565b6000821982111561199257611992611aca565b500190565b6000826119b257634e487b7160e01b81526012600452602481fd5b500490565b60006001600160ff1b03818413828413808216868404861116156119dd576119dd611aca565b600160ff1b848712828116878305891216156119fb576119fb611aca565b858712925087820587128484161615611a1657611a16611aca565b87850587128184161615611a2c57611a2c611aca565b505050929093029392505050565b6000816000190483118215151615611a5457611a54611aca565b500290565b60008083128015600160ff1b850184121615611a7757611a77611aca565b6001600160ff1b0384018313811615611a9257611a92611aca565b50500390565b600082821015611aaa57611aaa611aca565b500390565b6000600019821415611ac357611ac3611aca565b5060010190565b634e487b7160e01b600052601160045260246000fd5b634e487b7160e01b600052604160045260246000fd5b6001600160a01b0381168114611b0b57600080fd5b5056fea2646970667358221220afa18798dd8f17c2cbe0941a307f4efaf40faaf23ada0ce0ca37a1902225915164736f6c63430008040033",
  "devdoc": {
    "kind": "dev",
    "methods": {
      "claimEthRewards(address,uint256[])": {
        "params": {
          "ids": "An array of strategyIds to claim rewards for",
          "user": "The address of the user"
        },
        "returns": {
          "ethRewards": "The amount of Ether claimed"
        }
      },
      "decreaseUserRewards(uint256,uint256,address)": {
        "params": {
          "amount": "Amount of token entered into strategy",
          "strategyId": "Strategy the user entered into",
          "user": "The address of the user"
        }
      },
      "getEthRewards()": {
        "returns": {
          "_0": "The total amount of Ether rewards"
        }
      },
      "getTotalClaimedEthRewards()": {
        "returns": {
          "_0": "The total value of ETH claimed by users"
        }
      },
      "getTotalUserClaimedEthRewards(address)": {
        "returns": {
          "_0": "The total value of ETH claimed by a user"
        }
      },
      "getUserEthRewards(address)": {
        "params": {
          "user": "The address of the user"
        },
        "returns": {
          "_0": "ethRewards The amount of Ether claimed"
        }
      },
      "getUserStrategyRewards(uint256,address)": {
        "params": {
          "strategyId": "The ID of the strategy",
          "user": "The address of the user"
        },
        "returns": {
          "ethRewards": "The amount of Ether claimed"
        }
      },
      "increaseEthRewards(uint256,uint256)": {
        "details": "strategyId = 0 for BIOS PFA!",
        "params": {
          "ethRewardsAmount": "The amount of Ether rewards to add",
          "strategyId": "The strategyId of the strategy to increase rewards for"
        }
      },
      "increaseUserRewards(uint256,uint256,address)": {
        "params": {
          "amount": "Amount of token entered into strategy",
          "strategyId": "Strategy the user entered into",
          "user": "The address of the user"
        }
      },
      "initialize(address[],address)": {
        "params": {
          "controllers_": "The array of controllers for this contract",
          "moduleMap_": "The address of the ModuleMap contract"
        }
      }
    },
    "version": 1
  },
  "userdoc": {
    "kind": "user",
    "methods": {},
    "version": 1
  },
  "storageLayout": {
    "storage": [
      {
        "astId": 723,
        "contract": "contracts/core/EtherRewards.sol:EtherRewards",
        "label": "_initialized",
        "offset": 0,
        "slot": "0",
        "type": "t_bool"
      },
      {
        "astId": 726,
        "contract": "contracts/core/EtherRewards.sol:EtherRewards",
        "label": "_initializing",
        "offset": 1,
        "slot": "0",
        "type": "t_bool"
      },
      {
        "astId": 9850,
        "contract": "contracts/core/EtherRewards.sol:EtherRewards",
        "label": "moduleMap",
        "offset": 2,
        "slot": "0",
        "type": "t_contract(IModuleMap)20356"
      },
      {
        "astId": 4667,
        "contract": "contracts/core/EtherRewards.sol:EtherRewards",
        "label": "_controllers",
        "offset": 0,
        "slot": "1",
        "type": "t_mapping(t_address,t_bool)"
      },
      {
        "astId": 4670,
        "contract": "contracts/core/EtherRewards.sol:EtherRewards",
        "label": "controllers",
        "offset": 0,
        "slot": "2",
        "type": "t_array(t_address)dyn_storage"
      },
      {
        "astId": 4863,
        "contract": "contracts/core/EtherRewards.sol:EtherRewards",
        "label": "totalEthRewards",
        "offset": 0,
        "slot": "3",
        "type": "t_uint256"
      },
      {
        "astId": 4865,
        "contract": "contracts/core/EtherRewards.sol:EtherRewards",
        "label": "totalClaimedEthRewards",
        "offset": 0,
        "slot": "4",
        "type": "t_uint256"
      },
      {
        "astId": 4869,
        "contract": "contracts/core/EtherRewards.sol:EtherRewards",
        "label": "totalUserClaimedEthRewards",
        "offset": 0,
        "slot": "5",
        "type": "t_mapping(t_address,t_uint256)"
      },
      {
        "astId": 4876,
        "contract": "contracts/core/EtherRewards.sol:EtherRewards",
        "label": "users",
        "offset": 0,
        "slot": "6",
        "type": "t_mapping(t_address,t_mapping(t_uint256,t_struct(UserInfo)19227_storage))"
      },
      {
        "astId": 4881,
        "contract": "contracts/core/EtherRewards.sol:EtherRewards",
        "label": "strategies",
        "offset": 0,
        "slot": "7",
        "type": "t_mapping(t_uint256,t_struct(StrategyInfo)19232_storage)"
      }
    ],
    "types": {
      "t_address": {
        "encoding": "inplace",
        "label": "address",
        "numberOfBytes": "20"
      },
      "t_array(t_address)dyn_storage": {
        "base": "t_address",
        "encoding": "dynamic_array",
        "label": "address[]",
        "numberOfBytes": "32"
      },
      "t_bool": {
        "encoding": "inplace",
        "label": "bool",
        "numberOfBytes": "1"
      },
      "t_contract(IModuleMap)20356": {
        "encoding": "inplace",
        "label": "contract IModuleMap",
        "numberOfBytes": "20"
      },
      "t_int256": {
        "encoding": "inplace",
        "label": "int256",
        "numberOfBytes": "32"
      },
      "t_mapping(t_address,t_bool)": {
        "encoding": "mapping",
        "key": "t_address",
        "label": "mapping(address => bool)",
        "numberOfBytes": "32",
        "value": "t_bool"
      },
      "t_mapping(t_address,t_mapping(t_uint256,t_struct(UserInfo)19227_storage))": {
        "encoding": "mapping",
        "key": "t_address",
        "label": "mapping(address => mapping(uint256 => struct IEtherRewards.UserInfo))",
        "numberOfBytes": "32",
        "value": "t_mapping(t_uint256,t_struct(UserInfo)19227_storage)"
      },
      "t_mapping(t_address,t_uint256)": {
        "encoding": "mapping",
        "key": "t_address",
        "label": "mapping(address => uint256)",
        "numberOfBytes": "32",
        "value": "t_uint256"
      },
      "t_mapping(t_uint256,t_struct(StrategyInfo)19232_storage)": {
        "encoding": "mapping",
        "key": "t_uint256",
        "label": "mapping(uint256 => struct IEtherRewards.StrategyInfo)",
        "numberOfBytes": "32",
        "value": "t_struct(StrategyInfo)19232_storage"
      },
      "t_mapping(t_uint256,t_struct(UserInfo)19227_storage)": {
        "encoding": "mapping",
        "key": "t_uint256",
        "label": "mapping(uint256 => struct IEtherRewards.UserInfo)",
        "numberOfBytes": "32",
        "value": "t_struct(UserInfo)19227_storage"
      },
      "t_struct(StrategyInfo)19232_storage": {
        "encoding": "inplace",
        "label": "struct IEtherRewards.StrategyInfo",
        "members": [
          {
            "astId": 19229,
            "contract": "contracts/core/EtherRewards.sol:EtherRewards",
            "label": "rewardPerShare",
            "offset": 0,
            "slot": "0",
            "type": "t_uint256"
          },
          {
            "astId": 19231,
            "contract": "contracts/core/EtherRewards.sol:EtherRewards",
            "label": "totalRewards",
            "offset": 0,
            "slot": "1",
            "type": "t_uint256"
          }
        ],
        "numberOfBytes": "64"
      },
      "t_struct(UserInfo)19227_storage": {
        "encoding": "inplace",
        "label": "struct IEtherRewards.UserInfo",
        "members": [
          {
            "astId": 19224,
            "contract": "contracts/core/EtherRewards.sol:EtherRewards",
            "label": "rewardDebt",
            "offset": 0,
            "slot": "0",
            "type": "t_int256"
          },
          {
            "astId": 19226,
            "contract": "contracts/core/EtherRewards.sol:EtherRewards",
            "label": "claimedRewards",
            "offset": 0,
            "slot": "1",
            "type": "t_uint256"
          }
        ],
        "numberOfBytes": "64"
      },
      "t_uint256": {
        "encoding": "inplace",
        "label": "uint256",
        "numberOfBytes": "32"
      }
    }
  }
}