{
  "address": "0xDd93c9d168A11355D3c975997fAFBc3264b69dbE",
  "abi": [
    {
      "anonymous": false,
      "inputs": [
        {
          "indexed": true,
          "internalType": "address",
          "name": "user",
          "type": "address"
        },
        {
          "indexed": false,
          "internalType": "address[]",
          "name": "tokens",
          "type": "address[]"
        },
        {
          "indexed": false,
          "internalType": "uint256[]",
          "name": "amounts",
          "type": "uint256[]"
        }
      ],
      "name": "BridgeFrom",
      "type": "event"
    },
    {
      "anonymous": false,
      "inputs": [
        {
          "indexed": true,
          "internalType": "address",
          "name": "user",
          "type": "address"
        },
        {
          "indexed": false,
          "internalType": "address[]",
          "name": "tokens",
          "type": "address[]"
        },
        {
          "indexed": false,
          "internalType": "uint256[]",
          "name": "amounts",
          "type": "uint256[]"
        }
      ],
      "name": "BridgeTo",
      "type": "event"
    },
    {
      "anonymous": false,
      "inputs": [
        {
          "indexed": true,
          "internalType": "address",
          "name": "user",
          "type": "address"
        },
        {
          "indexed": false,
          "internalType": "address[]",
          "name": "tokens",
          "type": "address[]"
        }
      ],
      "name": "ClaimLpFeeRewards",
      "type": "event"
    },
    {
      "anonymous": false,
      "inputs": [
        {
          "indexed": true,
          "internalType": "address",
          "name": "user",
          "type": "address"
        },
        {
          "indexed": false,
          "internalType": "address[]",
          "name": "tokens",
          "type": "address[]"
        },
        {
          "indexed": false,
          "internalType": "uint256[]",
          "name": "tokenAmounts",
          "type": "uint256[]"
        }
      ],
      "name": "ProvideLiquidity",
      "type": "event"
    },
    {
      "anonymous": false,
      "inputs": [
        {
          "indexed": true,
          "internalType": "address",
          "name": "user",
          "type": "address"
        },
        {
          "indexed": false,
          "internalType": "address[]",
          "name": "tokens",
          "type": "address[]"
        },
        {
          "indexed": false,
          "internalType": "uint256[]",
          "name": "tokenAmounts",
          "type": "uint256[]"
        }
      ],
      "name": "TakeLiquidity",
      "type": "event"
    },
    {
      "anonymous": false,
      "inputs": [
        {
          "indexed": true,
          "internalType": "address",
          "name": "user",
          "type": "address"
        },
        {
          "indexed": false,
          "internalType": "address[]",
          "name": "tokens",
          "type": "address[]"
        },
        {
          "indexed": false,
          "internalType": "uint256[]",
          "name": "amounts",
          "type": "uint256[]"
        }
      ],
      "name": "UndoBridgeFrom",
      "type": "event"
    },
    {
      "anonymous": false,
      "inputs": [
        {
          "indexed": false,
          "internalType": "address[]",
          "name": "tokens",
          "type": "address[]"
        },
        {
          "indexed": false,
          "internalType": "uint256[]",
          "name": "tokenAmounts",
          "type": "uint256[]"
        },
        {
          "indexed": false,
          "internalType": "bool[]",
          "name": "add",
          "type": "bool[]"
        }
      ],
      "name": "UpdateTokenPoolLpBalances",
      "type": "event"
    },
    {
      "inputs": [
        {
          "internalType": "address[]",
          "name": "controllers_",
          "type": "address[]"
        },
        {
          "internalType": "address",
          "name": "moduleMap_",
          "type": "address"
        }
      ],
      "name": "__Controlled_init",
      "outputs": [],
      "stateMutability": "nonpayable",
      "type": "function"
    },
    {
      "inputs": [
        {
          "internalType": "address",
          "name": "controller",
          "type": "address"
        }
      ],
      "name": "addController",
      "outputs": [],
      "stateMutability": "nonpayable",
      "type": "function"
    },
    {
      "inputs": [
        {
          "internalType": "address",
          "name": "user",
          "type": "address"
        },
        {
          "internalType": "address[]",
          "name": "tokens",
          "type": "address[]"
        },
        {
          "internalType": "uint256[]",
          "name": "amounts",
          "type": "uint256[]"
        }
      ],
      "name": "bridgeFrom",
      "outputs": [],
      "stateMutability": "nonpayable",
      "type": "function"
    },
    {
      "inputs": [
        {
          "internalType": "address",
          "name": "user",
          "type": "address"
        },
        {
          "internalType": "address[]",
          "name": "tokens",
          "type": "address[]"
        },
        {
          "internalType": "uint256[]",
          "name": "amounts",
          "type": "uint256[]"
        }
      ],
      "name": "bridgeTo",
      "outputs": [],
      "stateMutability": "nonpayable",
      "type": "function"
    },
    {
      "inputs": [
        {
          "internalType": "address",
          "name": "user",
          "type": "address"
        },
        {
          "internalType": "address[]",
          "name": "tokens",
          "type": "address[]"
        }
      ],
      "name": "claimLpFeeRewards",
      "outputs": [],
      "stateMutability": "nonpayable",
      "type": "function"
    },
    {
      "inputs": [
        {
          "internalType": "uint256",
          "name": "",
          "type": "uint256"
        }
      ],
      "name": "controllers",
      "outputs": [
        {
          "internalType": "address",
          "name": "",
          "type": "address"
        }
      ],
      "stateMutability": "view",
      "type": "function"
    },
    {
      "inputs": [],
      "name": "getRelayAccount",
      "outputs": [
        {
          "internalType": "address",
          "name": "",
          "type": "address"
        }
      ],
      "stateMutability": "view",
      "type": "function"
    },
    {
      "inputs": [
        {
          "internalType": "address",
          "name": "asset",
          "type": "address"
        }
      ],
      "name": "getTokenLpUsers",
      "outputs": [
        {
          "internalType": "address[]",
          "name": "",
          "type": "address[]"
        }
      ],
      "stateMutability": "view",
      "type": "function"
    },
    {
      "inputs": [
        {
          "internalType": "address",
          "name": "asset",
          "type": "address"
        }
      ],
      "name": "getTokenPoolLpActivePositions",
      "outputs": [
        {
          "internalType": "uint256",
          "name": "",
          "type": "uint256"
        }
      ],
      "stateMutability": "view",
      "type": "function"
    },
    {
      "inputs": [
        {
          "internalType": "address",
          "name": "asset",
          "type": "address"
        }
      ],
      "name": "getTokenPoolLpBalance",
      "outputs": [
        {
          "internalType": "uint256",
          "name": "",
          "type": "uint256"
        }
      ],
      "stateMutability": "view",
      "type": "function"
    },
    {
      "inputs": [
        {
          "internalType": "address",
          "name": "asset",
          "type": "address"
        }
      ],
      "name": "getTokenProtocolFeeRewards",
      "outputs": [
        {
          "internalType": "uint256",
          "name": "",
          "type": "uint256"
        }
      ],
      "stateMutability": "view",
      "type": "function"
    },
    {
      "inputs": [
        {
          "internalType": "address",
          "name": "asset",
          "type": "address"
        },
        {
          "internalType": "address",
          "name": "user",
          "type": "address"
        }
      ],
      "name": "getTokenUserLpBalance",
      "outputs": [
        {
          "internalType": "uint256",
          "name": "",
          "type": "uint256"
        }
      ],
      "stateMutability": "view",
      "type": "function"
    },
    {
      "inputs": [
        {
          "internalType": "address",
          "name": "asset",
          "type": "address"
        },
        {
          "internalType": "address",
          "name": "user",
          "type": "address"
        }
      ],
      "name": "getTokenUserLpFeeRewardBalance",
      "outputs": [
        {
          "internalType": "uint256",
          "name": "",
          "type": "uint256"
        }
      ],
      "stateMutability": "view",
      "type": "function"
    },
    {
      "inputs": [
        {
          "internalType": "address[]",
          "name": "controllers_",
          "type": "address[]"
        },
        {
          "internalType": "address",
          "name": "moduleMap_",
          "type": "address"
        },
        {
          "internalType": "address payable",
          "name": "relayAccount_",
          "type": "address"
        }
      ],
      "name": "initialize",
      "outputs": [],
      "stateMutability": "nonpayable",
      "type": "function"
    },
    {
      "inputs": [],
      "name": "moduleMap",
      "outputs": [
        {
          "internalType": "contract IModuleMap",
          "name": "",
          "type": "address"
        }
      ],
      "stateMutability": "view",
      "type": "function"
    },
    {
      "inputs": [
        {
          "internalType": "address",
          "name": "user",
          "type": "address"
        },
        {
          "internalType": "address[]",
          "name": "tokens",
          "type": "address[]"
        },
        {
          "internalType": "uint256[]",
          "name": "amounts",
          "type": "uint256[]"
        }
      ],
      "name": "provideLiquidity",
      "outputs": [],
      "stateMutability": "nonpayable",
      "type": "function"
    },
    {
      "inputs": [
        {
          "internalType": "address",
          "name": "user",
          "type": "address"
        },
        {
          "internalType": "address[]",
          "name": "tokens",
          "type": "address[]"
        },
        {
          "internalType": "uint256[]",
          "name": "amounts",
          "type": "uint256[]"
        }
      ],
      "name": "takeLiquidity",
      "outputs": [],
      "stateMutability": "nonpayable",
      "type": "function"
    },
    {
      "inputs": [
        {
          "internalType": "address",
          "name": "user",
          "type": "address"
        },
        {
          "internalType": "address[]",
          "name": "tokens",
          "type": "address[]"
        },
        {
          "internalType": "uint256[]",
          "name": "amounts",
          "type": "uint256[]"
        }
      ],
      "name": "undoBridgeFrom",
      "outputs": [],
      "stateMutability": "nonpayable",
      "type": "function"
    },
    {
      "inputs": [
        {
          "internalType": "address payable",
          "name": "relayAccount_",
          "type": "address"
        }
      ],
      "name": "updateRelayAccount",
      "outputs": [],
      "stateMutability": "nonpayable",
      "type": "function"
    }
  ],
  "transactionHash": "0xee9af3b026aa9f2538c24df5a79375fe5396f95c9b3c26d1363f6268d5d549f4",
  "args": [],
  "solcInputHash": "b359af8479a2326fcf7abd496853641e",
  "bytecode": "0x608060405234801561001057600080fd5b50613ff3806100206000396000f3fe608060405234801561001057600080fd5b50600436106100f15760003560e01c80630f0a1c6f146100f657806316c0f76b146101255780633dbcbbae14610136578063402c68cc1461016d57806343f0a5bb146101825780638ba2f3cf1461019557806390482d72146101d157806390d81be9146101e457806392092de7146101f757806398c671ce1461020a578063a07f12a31461021d578063a7fc7a0714610246578063aaba1ca214610259578063b59b464b14610279578063c52170461461028c578063c5efb53a1461029f578063d84ac98c146102d8578063e94b0dd2146102eb578063fd2b5134146102fe575b600080fd5b60005461010f906201000090046001600160a01b031681565b60405161011c9190613af7565b60405180910390f35b6035546001600160a01b031661010f565b61015f6101443660046137ab565b6001600160a01b031660009081526038602052604090205490565b60405190815260200161011c565b61018061017b36600461386f565b610311565b005b61018061019036600461386f565b61069b565b61015f6101a33660046137ea565b6001600160a01b03918216600090815260366020908152604080832093909416825291909152206001015490565b6101806101df36600461397f565b610f28565b6101806101f236600461386f565b610fe8565b61018061020536600461386f565b6113a0565b61018061021836600461393b565b6118c7565b61015f61022b3660046137ab565b6001600160a01b031660009081526037602052604090205490565b6101806102543660046137ab565b611a6d565b61026c6102673660046137ab565b611caa565b60405161011c9190613b0b565b6101806102873660046137ab565b611d20565b61015f61029a3660046137ab565b611d71565b61015f6102ad3660046137ea565b6001600160a01b03918216600090815260366020908152604080832093909416825291909152205490565b6101806102e6366004613822565b611e70565b61010f6102f9366004613a00565b61223b565b61018061030c36600461386f565b612265565b6035546001600160a01b031633146103445760405162461bcd60e51b815260040161033b90613c0a565b60405180910390fd5b818160008060029054906101000a90046001600160a01b03166001600160a01b0316636f8c3f8a60036040518263ffffffff1660e01b81526004016103899190613be2565b60206040518083038186803b1580156103a157600080fd5b505afa1580156103b5573d6000803e3d6000fd5b505050506040513d601f19601f820116820180604052508101906103d991906137ce565b905081518351146103fc5760405162461bcd60e51b815260040161033b90613d25565b60005b83518110156104d957816001600160a01b031663ea0db29685838151811061043757634e487b7160e01b600052603260045260246000fd5b60200260200101516040518263ffffffff1660e01b815260040161045b9190613af7565b60206040518083038186803b15801561047357600080fd5b505afa158015610487573d6000803e3d6000fd5b505050506040513d601f19601f820116820180604052508101906104ab91906139e0565b6104c75760405162461bcd60e51b815260040161033b90613c66565b806104d181613ebe565b9150506103ff565b50600260035414156104fd5760405162461bcd60e51b815260040161033b90613dc6565b600260035584516000906001600160401b0381111561052c57634e487b7160e01b600052604160045260246000fd5b604051908082528060200260200182016040528015610555578160200160208202803683370190505b50600080546040516337c61fc560e11b81529293509091620100009091046001600160a01b031690636f8c3f8a9061059290600190600401613be2565b60206040518083038186803b1580156105aa57600080fd5b505afa1580156105be573d6000803e3d6000fd5b505050506040513d601f19601f820116820180604052508101906105e291906137ce565b60405163f0f25dd560e01b81529091506001600160a01b0382169063f0f25dd590610617908a908c908b908890600401613b1e565b600060405180830381600087803b15801561063157600080fd5b505af1158015610645573d6000803e3d6000fd5b50505050876001600160a01b03167fc0d927b1a552ab2c106f99c6abfa28a20e4ad4feea024b7997adff3d1885bd0b8888604051610684929190613b71565b60405180910390a250506001600355505050505050565b3360009081526001602052604090205460ff166106ca5760405162461bcd60e51b815260040161033b90613d72565b80518251146107525760405162461bcd60e51b815260206004820152604860248201527f496e746572636f6e6e656374733a3a74616b654c69717569646974793a204c6560448201527f6e677468206f6620746f6b656e7320616e6420616d6f756e7473206d75737420606482015267189948195c5d585b60c21b608482015260a40161033b565b600080546040516337c61fc560e11b8152620100009091046001600160a01b031690636f8c3f8a9061078990600190600401613be2565b60206040518083038186803b1580156107a157600080fd5b505afa1580156107b5573d6000803e3d6000fd5b505050506040513d601f19601f820116820180604052508101906107d991906137ce565b9050600083516001600160401b0381111561080457634e487b7160e01b600052604160045260246000fd5b60405190808252806020026020018201604052801561082d578160200160208202803683370190505b509050600083516001600160401b0381111561085957634e487b7160e01b600052604160045260246000fd5b604051908082528060200260200182016040528015610882578160200160208202803683370190505b509050600085516001600160401b038111156108ae57634e487b7160e01b600052604160045260246000fd5b6040519080825280602002602001820160405280156108d7578160200160208202803683370190505b50905060005b8651811015610e7757600087828151811061090857634e487b7160e01b600052603260045260246000fd5b60200260200101519050600087838151811061093457634e487b7160e01b600052603260045260246000fd5b602002602001015111801561099757506001600160a01b038082166000908152603660209081526040808320938d1683529290522054875188908490811061098c57634e487b7160e01b600052603260045260246000fd5b602002602001015111155b610a395760405162461bcd60e51b81526020600482015260736024820152600080516020613f7e83398151915260448201527f20616d6f756e74206d7573742062652067726561746572207468616e207a657260648201527f6f20616e64206e6f206d6f7265207468616e20746865207573657227732062616084820152723630b731b2903337b9103a3432903a37b5b2b760691b60a482015260c40161033b565b6001600160a01b0381166000908152603760205260409020548751889084908110610a7457634e487b7160e01b600052603260045260246000fd5b60200260200101511115610b105760405162461bcd60e51b81526020600482015260636024820152600080516020613f7e83398151915260448201527f20616d6f756e74206d757374206265206e6f206d6f7265207468616e2074686560648201527f20617661696c61626c6520616d6f756e7420696e2074686520746f6b656e20706084820152621bdbdb60ea1b60a482015260c40161033b565b80858381518110610b3157634e487b7160e01b600052603260045260246000fd5b60200260200101906001600160a01b031690816001600160a01b031681525050868281518110610b7157634e487b7160e01b600052603260045260246000fd5b6020026020010151848381518110610b9957634e487b7160e01b600052603260045260246000fd5b6020026020010181815250506001838381518110610bc757634e487b7160e01b600052603260045260246000fd5b602002602001019015159081151581525050868281518110610bf957634e487b7160e01b600052603260045260246000fd5b6020908102919091018101516001600160a01b038084166000908152603684526040808220928e168252919093528220805491929091610c3a908490613ea7565b92505081905550868281518110610c6157634e487b7160e01b600052603260045260246000fd5b602002602001015160376000836001600160a01b03166001600160a01b031681526020019081526020016000206000828254610c9d9190613ea7565b90915550506001600160a01b038082166000908152603660209081526040808320938d1683529290522054610e645760005b6001600160a01b038216600090815260396020526040902054811015610e62576001600160a01b0382811660009081526039602052604090208054918c169183908110610d2c57634e487b7160e01b600052603260045260246000fd5b6000918252602090912001546001600160a01b03161415610e50576001600160a01b03821660009081526039602052604090208054610d6d90600190613ea7565b81548110610d8b57634e487b7160e01b600052603260045260246000fd5b60009182526020808320909101546001600160a01b03858116845260399092526040909220805491909216919083908110610dd657634e487b7160e01b600052603260045260246000fd5b600091825260208083209190910180546001600160a01b0319166001600160a01b039485161790559184168152603990915260409020805480610e2957634e487b7160e01b600052603160045260246000fd5b600082815260209020810160001990810180546001600160a01b0319169055019055610e62565b80610e5a81613ebe565b915050610ccf565b505b5080610e6f81613ebe565b9150506108dd565b5060405163f0f25dd560e01b81526001600160a01b0385169063f0f25dd590610eaa9086908b9087908790600401613b1e565b600060405180830381600087803b158015610ec457600080fd5b505af1158015610ed8573d6000803e3d6000fd5b50505050866001600160a01b03167fa1f0a36e60af87632f11db638faac61619cceacdc0aa92c9d55c6145fc0c89578787604051610f17929190613b71565b60405180910390a250505050505050565b600054610100900460ff16610f435760005460ff1615610f47565b303b155b610f635760405162461bcd60e51b815260040161033b90613cb2565b600054610100900460ff16158015610f85576000805461ffff19166101011790555b6001600160a01b038216610fab5760405162461bcd60e51b815260040161033b90613d00565b610fb584846118c7565b603580546001600160a01b0319166001600160a01b0384161790558015610fe2576000805461ff00191690555b50505050565b6035546001600160a01b031633146110125760405162461bcd60e51b815260040161033b90613c0a565b818160008060029054906101000a90046001600160a01b03166001600160a01b0316636f8c3f8a60036040518263ffffffff1660e01b81526004016110579190613be2565b60206040518083038186803b15801561106f57600080fd5b505afa158015611083573d6000803e3d6000fd5b505050506040513d601f19601f820116820180604052508101906110a791906137ce565b905081518351146110ca5760405162461bcd60e51b815260040161033b90613d25565b60005b83518110156111a757816001600160a01b031663ea0db29685838151811061110557634e487b7160e01b600052603260045260246000fd5b60200260200101516040518263ffffffff1660e01b81526004016111299190613af7565b60206040518083038186803b15801561114157600080fd5b505afa158015611155573d6000803e3d6000fd5b505050506040513d601f19601f8201168201806040525081019061117991906139e0565b6111955760405162461bcd60e51b815260040161033b90613c66565b8061119f81613ebe565b9150506110cd565b50600260035414156111cb5760405162461bcd60e51b815260040161033b90613dc6565b600260035584516000906001600160401b038111156111fa57634e487b7160e01b600052604160045260246000fd5b604051908082528060200260200182016040528015611223578160200160208202803683370190505b50905060005b865181101561127657600182828151811061125457634e487b7160e01b600052603260045260246000fd5b911515602092830291909101909101528061126e81613ebe565b915050611229565b50600080546040516337c61fc560e11b8152620100009091046001600160a01b031690636f8c3f8a906112ae90600190600401613be2565b60206040518083038186803b1580156112c657600080fd5b505afa1580156112da573d6000803e3d6000fd5b505050506040513d601f19601f820116820180604052508101906112fe91906137ce565b60405163f0f25dd560e01b81529091506001600160a01b0382169063f0f25dd590611333908a908c908b908890600401613b1e565b600060405180830381600087803b15801561134d57600080fd5b505af1158015611361573d6000803e3d6000fd5b50505050876001600160a01b03167fe74c23878a8558dd68d0e6448fc8c06e1c5b0652bc2d0181d9e95797d9cb7c418888604051610684929190613b71565b6035546001600160a01b031633146113ca5760405162461bcd60e51b815260040161033b90613c0a565b818160008060029054906101000a90046001600160a01b03166001600160a01b0316636f8c3f8a60036040518263ffffffff1660e01b815260040161140f9190613be2565b60206040518083038186803b15801561142757600080fd5b505afa15801561143b573d6000803e3d6000fd5b505050506040513d601f19601f8201168201806040525081019061145f91906137ce565b905081518351146114825760405162461bcd60e51b815260040161033b90613d25565b60005b835181101561155f57816001600160a01b031663ea0db2968583815181106114bd57634e487b7160e01b600052603260045260246000fd5b60200260200101516040518263ffffffff1660e01b81526004016114e19190613af7565b60206040518083038186803b1580156114f957600080fd5b505afa15801561150d573d6000803e3d6000fd5b505050506040513d601f19601f8201168201806040525081019061153191906139e0565b61154d5760405162461bcd60e51b815260040161033b90613c66565b8061155781613ebe565b915050611485565b50600260035414156115835760405162461bcd60e51b815260040161033b90613dc6565b600260035584516000906001600160401b038111156115b257634e487b7160e01b600052604160045260246000fd5b6040519080825280602002602001820160405280156115db578160200160208202803683370190505b509050600086516001600160401b0381111561160757634e487b7160e01b600052604160045260246000fd5b604051908082528060200260200182016040528015611630578160200160208202803683370190505b50905060005b875181101561168357600183828151811061166157634e487b7160e01b600052603260045260246000fd5b911515602092830291909101909101528061167b81613ebe565b915050611636565b5060008060006116938a8a612a8f565b9250925092506116a48a8a866130ea565b600080546040516337c61fc560e11b8152620100009091046001600160a01b031690636f8c3f8a906116db90600190600401613be2565b60206040518083038186803b1580156116f357600080fd5b505afa158015611707573d6000803e3d6000fd5b505050506040513d601f19601f8201168201806040525081019061172b91906137ce565b9050806001600160a01b0316635702ea2a8c8e858a6040518563ffffffff1660e01b815260040161175f9493929190613b1e565b600060405180830381600087803b15801561177957600080fd5b505af115801561178d573d6000803e3d6000fd5b5050505060005b8b518110156118705760008c82815181106117bf57634e487b7160e01b600052603260045260246000fd5b6020026020010151905060008583815181106117eb57634e487b7160e01b600052603260045260246000fd5b60200260200101519050600087848151811061181757634e487b7160e01b600052603260045260246000fd5b6020026020010151905061182b838361351f565b6001600160a01b03831660009081526038602052604081208054839290611853908490613e50565b92505081905550505050808061186890613ebe565b915050611794565b508b6001600160a01b03167f3e5de4d4037a75074ae26c1254648d020c004bfbee680cd606953c27223c126e8c8c6040516118ac929190613b71565b60405180910390a25050600160035550505050505050505050565b600054610100900460ff166118e25760005460ff16156118e6565b303b155b6119025760405162461bcd60e51b815260040161033b90613cb2565b600054610100900460ff16158015611924576000805461ffff19166101011790555b6001600160a01b03821661194a5760405162461bcd60e51b815260040161033b90613d00565b60005b83518110156119c25760006001600160a01b031684828151811061198157634e487b7160e01b600052603260045260246000fd5b60200260200101516001600160a01b031614156119b05760405162461bcd60e51b815260040161033b90613d00565b806119ba81613ebe565b91505061194d565b5060005b8351811015611a385760018060008684815181106119f457634e487b7160e01b600052603260045260246000fd5b6020908102919091018101516001600160a01b03168252810191909152604001600020805460ff191691151591909117905580611a3081613ebe565b9150506119c6565b508251611a4c9060029060208601906136b9565b50611a5682613625565b8015611a68576000805461ff00191690555b505050565b600080546040516337c61fc560e11b8152620100009091046001600160a01b031691636f8c3f8a91611aa29190600401613be2565b60206040518083038186803b158015611aba57600080fd5b505afa158015611ace573d6000803e3d6000fd5b505050506040513d601f19601f82011682018060405250810190611af291906137ce565b6001600160a01b0316632f54bf6e336040518263ffffffff1660e01b8152600401611b1d9190613af7565b60206040518083038186803b158015611b3557600080fd5b505afa158015611b49573d6000803e3d6000fd5b505050506040513d601f19601f82011682018060405250810190611b6d91906139e0565b611bcc5760405162461bcd60e51b815260206004820152602a60248201527f436f6e74726f6c6c65643a3a6f6e6c794f776e65723a2043616c6c6572206973604482015269103737ba1037bbb732b960b11b606482015260840161033b565b6001600160a01b03811660009081526001602081905260408220805460ff19169091179055805b600254811015611c545760028181548110611c1e57634e487b7160e01b600052603260045260246000fd5b6000918252602090912001546001600160a01b0384811691161415611c4257600191505b80611c4c81613ebe565b915050611bf3565b5080611ca657600280546001810182556000919091527f405787fa12a823e0f2b7631cc41b3ba8828b3321ca811111fa75cd3aa3bb5ace0180546001600160a01b0319166001600160a01b0384161790555b5050565b6001600160a01b038116600090815260396020908152604091829020805483518184028101840190945280845260609392830182828015611d1457602002820191906000526020600020905b81546001600160a01b03168152600190910190602001808311611cf6575b50505050509050919050565b3360009081526001602052604090205460ff16611d4f5760405162461bcd60e51b815260040161033b90613d72565b603580546001600160a01b0319166001600160a01b0392909216919091179055565b6001600160a01b0381166000908152603960209081526040808320805482518185028101850190935280835284938493929190830182828015611ddd57602002820191906000526020600020905b81546001600160a01b03168152600190910190602001808311611dbf575b5050505050905060005b8151811015611e67576000828281518110611e1257634e487b7160e01b600052603260045260246000fd5b6020908102919091018101516001600160a01b03808916600090815260368452604080822092841682529190935290912054909150611e519085613e50565b9350508080611e5f90613ebe565b915050611de7565b50909392505050565b3360009081526001602052604090205460ff16611e9f5760405162461bcd60e51b815260040161033b90613d72565b60026003541415611ec25760405162461bcd60e51b815260040161033b90613dc6565b6002600355600080546040516337c61fc560e11b8152620100009091046001600160a01b031690636f8c3f8a90611efe90600190600401613be2565b60206040518083038186803b158015611f1657600080fd5b505afa158015611f2a573d6000803e3d6000fd5b505050506040513d601f19601f82011682018060405250810190611f4e91906137ce565b9050600082516001600160401b03811115611f7957634e487b7160e01b600052604160045260246000fd5b604051908082528060200260200182016040528015611fa2578160200160208202803683370190505b509050600083516001600160401b03811115611fce57634e487b7160e01b600052604160045260246000fd5b604051908082528060200260200182016040528015611ff7578160200160208202803683370190505b50905060005b845181101561218957600085828151811061202857634e487b7160e01b600052603260045260246000fd5b6020908102919091018101516001600160a01b038082166000908152603684526040808220928c1682529190935290912060010154909150806120e75760405162461bcd60e51b815260206004820152604b60248201527f496e746572636f6e6e656374733a3a636c61696d4c70466565733a204c50206660448201527f6565207265776172642062616c616e6365206d7573742062652067726561746560648201526a72207468616e207a65726f60a81b608482015260a40161033b565b6001600160a01b038083166000908152603660209081526040808320938c168352929052908120600101558451819086908590811061213657634e487b7160e01b600052603260045260246000fd5b602002602001018181525050600184848151811061216457634e487b7160e01b600052603260045260246000fd5b911515602092830291909101909101525081905061218181613ebe565b915050611ffd565b5060405163f0f25dd560e01b81526001600160a01b0384169063f0f25dd5906121bc908790899087908790600401613b1e565b600060405180830381600087803b1580156121d657600080fd5b505af11580156121ea573d6000803e3d6000fd5b50505050846001600160a01b03167f85de76e33a0549b6782937a91bc55eb27cc8f5554c303a9e263cac55e52c9293856040516122279190613b0b565b60405180910390a250506001600355505050565b6002818154811061224b57600080fd5b6000918252602090912001546001600160a01b0316905081565b3360009081526001602052604090205460ff166122945760405162461bcd60e51b815260040161033b90613d72565b80518251146122fb5760405162461bcd60e51b815260206004820152604b6024820152600080516020613f5e8339815191526044820152600080516020613f1e83398151915260648201526a1cdd08189948195c5d585b60aa1b608482015260a40161033b565b600080546040516337c61fc560e11b8152620100009091046001600160a01b031690636f8c3f8a9061233290600390600401613be2565b60206040518083038186803b15801561234a57600080fd5b505afa15801561235e573d6000803e3d6000fd5b505050506040513d601f19601f8201168201806040525081019061238291906137ce565b600080546040516337c61fc560e11b81529293509091620100009091046001600160a01b031690636f8c3f8a906123be90600190600401613be2565b60206040518083038186803b1580156123d657600080fd5b505afa1580156123ea573d6000803e3d6000fd5b505050506040513d601f19601f8201168201806040525081019061240e91906137ce565b9050600084516001600160401b0381111561243957634e487b7160e01b600052604160045260246000fd5b604051908082528060200260200182016040528015612462578160200160208202803683370190505b509050600084516001600160401b0381111561248e57634e487b7160e01b600052604160045260246000fd5b6040519080825280602002602001820160405280156124b7578160200160208202803683370190505b509050600086516001600160401b038111156124e357634e487b7160e01b600052604160045260246000fd5b60405190808252806020026020018201604052801561250c578160200160208202803683370190505b50905060005b87518110156129dd57856001600160a01b031663b17f0b6389838151811061254a57634e487b7160e01b600052603260045260246000fd5b60200260200101516040518263ffffffff1660e01b815260040161256e9190613af7565b60206040518083038186803b15801561258657600080fd5b505afa15801561259a573d6000803e3d6000fd5b505050506040513d601f19601f820116820180604052508101906125be91906139e0565b6126305760405162461bcd60e51b81526020600482015260496024820152600080516020613f5e83398151915260448201527f205468697320746f6b656e206973206e6f7420616363657074696e67204c5020606482015268706f736974696f6e7360b81b608482015260a40161033b565b600088828151811061265257634e487b7160e01b600052603260045260246000fd5b60200260200101519050600088838151811061267e57634e487b7160e01b600052603260045260246000fd5b602002602001015111801561273a575060405163168e0c9960e31b81526001600160a01b0382811660048301528b8116602483015287169063b47064c89060440160206040518083038186803b1580156126d757600080fd5b505afa1580156126eb573d6000803e3d6000fd5b505050506040513d601f19601f8201168201806040525081019061270f9190613a18565b88838151811061272f57634e487b7160e01b600052603260045260246000fd5b602002602001015111155b6127d15760405162461bcd60e51b81526020600482015260686024820152600080516020613f5e83398151915260448201527f204c5020616d6f756e74206d7573742062652067726561746572207468616e2060648201527f7a65726f20616e64206e6f206d6f7265207468616e20746865207573657227736084820152672062616c616e636560c01b60a482015260c40161033b565b808583815181106127f257634e487b7160e01b600052603260045260246000fd5b60200260200101906001600160a01b031690816001600160a01b03168152505087828151811061283257634e487b7160e01b600052603260045260246000fd5b602002602001015184838151811061285a57634e487b7160e01b600052603260045260246000fd5b602002602001018181525050600083838151811061288857634e487b7160e01b600052603260045260246000fd5b9115156020928302919091018201526001600160a01b038083166000908152603683526040808220928e168252919092529020546128ff576001600160a01b0381811660009081526039602090815260408220805460018101825590835291200180546001600160a01b031916918c169190911790555b87828151811061291f57634e487b7160e01b600052603260045260246000fd5b6020908102919091018101516001600160a01b038084166000908152603684526040808220928f168252919093528220805491929091612960908490613e50565b9250508190555087828151811061298757634e487b7160e01b600052603260045260246000fd5b602002602001015160376000836001600160a01b03166001600160a01b0316815260200190815260200160002060008282546129c39190613e50565b909155508291506129d5905081613ebe565b915050612512565b5060405163f0f25dd560e01b81526001600160a01b0385169063f0f25dd590612a109086908c9087908790600401613b1e565b600060405180830381600087803b158015612a2a57600080fd5b505af1158015612a3e573d6000803e3d6000fd5b50505050876001600160a01b03167f22e6ae20e2e0df5f416bcd6e7f6d19e21922b83a293acce479b03994e40120718888604051612a7d929190613b71565b60405180910390a25050505050505050565b600080546040516337c61fc560e11b815260609283928392620100009091046001600160a01b031690636f8c3f8a90612acd90600390600401613be2565b60206040518083038186803b158015612ae557600080fd5b505afa158015612af9573d6000803e3d6000fd5b505050506040513d601f19601f82011682018060405250810190612b1d91906137ce565b90506000816001600160a01b03166350e7fc376040518163ffffffff1660e01b815260040160206040518083038186803b158015612b5a57600080fd5b505afa158015612b6e573d6000803e3d6000fd5b505050506040513d601f19601f82011682018060405250810190612b929190613a30565b90506000826001600160a01b031663804773c86040518163ffffffff1660e01b815260040160206040518083038186803b158015612bcf57600080fd5b505afa158015612be3573d6000803e3d6000fd5b505050506040513d601f19601f82011682018060405250810190612c079190613a30565b90506000836001600160a01b031663967cb96e6040518163ffffffff1660e01b815260040160206040518083038186803b158015612c4457600080fd5b505afa158015612c58573d6000803e3d6000fd5b505050506040513d601f19601f82011682018060405250810190612c7c9190613a30565b905088516001600160401b03811115612ca557634e487b7160e01b600052604160045260246000fd5b604051908082528060200260200182016040528015612cce578160200160208202803683370190505b50965088516001600160401b03811115612cf857634e487b7160e01b600052604160045260246000fd5b604051908082528060200260200182016040528015612d21578160200160208202803683370190505b50955088516001600160401b03811115612d4b57634e487b7160e01b600052604160045260246000fd5b604051908082528060200260200182016040528015612d74578160200160208202803683370190505b50945060005b89518110156130de5760008a8281518110612da557634e487b7160e01b600052603260045260246000fd5b602002602001015190506000866001600160a01b031663eab12c95836040518263ffffffff1660e01b8152600401612ddd9190613af7565b60206040518083038186803b158015612df557600080fd5b505afa158015612e09573d6000803e3d6000fd5b505050506040513d601f19601f82011682018060405250810190612e2d9190613a18565b90506000612e3a83611d71565b604051637d471f9760e01b81526001600160a01b038a1690637d471f9790612e66908790600401613af7565b60206040518083038186803b158015612e7e57600080fd5b505afa158015612e92573d6000803e3d6000fd5b505050506040513d601f19601f82011682018060405250810190612eb69190613a18565b612ec09190613e88565b6001600160a01b038416600090815260376020526040902054612eea9063ffffffff8a1690613e88565b612ef49190613e68565b90506000612f088263ffffffff8916613e88565b8d8681518110612f2857634e487b7160e01b600052603260045260246000fd5b60200260200101518a6001600160a01b03166372836bcf876040518263ffffffff1660e01b8152600401612f5c9190613af7565b60206040518083038186803b158015612f7457600080fd5b505afa158015612f88573d6000803e3d6000fd5b505050506040513d601f19601f82011682018060405250810190612fac9190613a18565b612fb69190613e88565b612fc09190613e68565b905063ffffffff8616612fd38483613e88565b612fdd9190613e68565b8c8681518110612ffd57634e487b7160e01b600052603260045260246000fd5b6020026020010181815250508b858151811061302957634e487b7160e01b600052603260045260246000fd5b60200260200101518161303c9190613ea7565b8b868151811061305c57634e487b7160e01b600052603260045260246000fd5b602002602001018181525050808d868151811061308957634e487b7160e01b600052603260045260246000fd5b602002602001015161309b9190613ea7565b8a86815181106130bb57634e487b7160e01b600052603260045260246000fd5b6020026020010181815250505050505080806130d690613ebe565b915050612d7a565b50505050509250925092565b815183511480156130fc575080518351145b61318e5760405162461bcd60e51b81526020600482015260636024820152600080516020613f3e83398151915260448201527f42616c616e6365733a204c656e677468206f6620746f6b656e732c20616d6f7560648201527f6e74732c20616e64206164642f7375627472616374206d7573742062652065716084820152621d585b60ea1b60a482015260c40161033b565b600080546040516337c61fc560e11b8152620100009091046001600160a01b031690636f8c3f8a906131c590600390600401613be2565b60206040518083038186803b1580156131dd57600080fd5b505afa1580156131f1573d6000803e3d6000fd5b505050506040513d601f19601f8201168201806040525081019061321591906137ce565b905060005b84518110156134dd57816001600160a01b031663b17f0b6386838151811061325257634e487b7160e01b600052603260045260246000fd5b60200260200101516040518263ffffffff1660e01b81526004016132769190613af7565b60206040518083038186803b15801561328e57600080fd5b505afa1580156132a2573d6000803e3d6000fd5b505050506040513d601f19601f820116820180604052508101906132c691906139e0565b6133415760405162461bcd60e51b81526020600482015260526024820152600080516020613f3e83398151915260448201527f42616c616e6365733a205468697320746f6b656e206973206e6f7420616363656064820152717074696e67204c5020706f736974696f6e7360701b608482015260a40161033b565b600083828151811061336357634e487b7160e01b600052603260045260246000fd5b6020026020010151156133f65784828151811061339057634e487b7160e01b600052603260045260246000fd5b6020026020010151603760008885815181106133bc57634e487b7160e01b600052603260045260246000fd5b60200260200101516001600160a01b03166001600160a01b03168152602001908152602001600020546133ef9190613e50565b9050613478565b84828151811061341657634e487b7160e01b600052603260045260246000fd5b60200260200101516037600088858151811061344257634e487b7160e01b600052603260045260246000fd5b60200260200101516001600160a01b03166001600160a01b03168152602001908152602001600020546134759190613ea7565b90505b806037600088858151811061349d57634e487b7160e01b600052603260045260246000fd5b60200260200101516001600160a01b03166001600160a01b03168152602001908152602001600020819055505080806134d590613ebe565b91505061321a565b507f092d5ff091ec017019ed95dfec6b3f8524e73fc3a80d5fee8f763e1829aed54b84848460405161351193929190613b9f565b60405180910390a150505050565b600061352a83611d71565b905060005b6001600160a01b038416600090815260396020526040902054811015610fe2576001600160a01b038416600090815260396020526040812080548390811061358757634e487b7160e01b600052603260045260246000fd5b60009182526020808320909101546001600160a01b0388811684526036835260408085209190921680855292529091205490915083906135c79086613e88565b6135d19190613e68565b6001600160a01b0380871660009081526036602090815260408083209386168352929052908120600101805490919061360b908490613e50565b9091555082915061361d905081613ebe565b91505061352f565b600054610100900460ff166136405760005460ff1615613644565b303b155b6136605760405162461bcd60e51b815260040161033b90613cb2565b600054610100900460ff16158015613682576000805461ffff19166101011790555b6000805462010000600160b01b031916620100006001600160a01b038516021790558015611ca6576000805461ff00191690555050565b82805482825590600052602060002090810192821561370e579160200282015b8281111561370e57825182546001600160a01b0319166001600160a01b039091161782556020909201916001909101906136d9565b5061371a92915061371e565b5090565b5b8082111561371a576000815560010161371f565b600082601f830112613743578081fd5b8135602061375861375383613e2d565b613dfd565b80838252828201915082860187848660051b8901011115613777578586fd5b855b8581101561379e57813561378c81613f05565b84529284019290840190600101613779565b5090979650505050505050565b6000602082840312156137bc578081fd5b81356137c781613f05565b9392505050565b6000602082840312156137df578081fd5b81516137c781613f05565b600080604083850312156137fc578081fd5b823561380781613f05565b9150602083013561381781613f05565b809150509250929050565b60008060408385031215613834578182fd5b823561383f81613f05565b915060208301356001600160401b03811115613859578182fd5b61386585828601613733565b9150509250929050565b600080600060608486031215613883578081fd5b833561388e81613f05565b92506020848101356001600160401b03808211156138aa578384fd5b6138b688838901613733565b945060408701359150808211156138cb578384fd5b508501601f810187136138dc578283fd5b80356138ea61375382613e2d565b8082825284820191508484018a868560051b8701011115613909578687fd5b8694505b8385101561392b57803583526001949094019391850191850161390d565b5080955050505050509250925092565b6000806040838503121561394d578182fd5b82356001600160401b03811115613962578283fd5b61396e85828601613733565b925050602083013561381781613f05565b600080600060608486031215613993578283fd5b83356001600160401b038111156139a8578384fd5b6139b486828701613733565b93505060208401356139c581613f05565b915060408401356139d581613f05565b809150509250925092565b6000602082840312156139f1578081fd5b815180151581146137c7578182fd5b600060208284031215613a11578081fd5b5035919050565b600060208284031215613a29578081fd5b5051919050565b600060208284031215613a41578081fd5b815163ffffffff811681146137c7578182fd5b6000815180845260208085019450808401835b83811015613a8c5781516001600160a01b031687529582019590820190600101613a67565b509495945050505050565b6000815180845260208085019450808401835b83811015613a8c578151151587529582019590820190600101613aaa565b6000815180845260208085019450808401835b83811015613a8c57815187529582019590820190600101613adb565b6001600160a01b0391909116815260200190565b6020815260006137c76020830184613a54565b608081526000613b316080830187613a54565b6001600160a01b03861660208401528281036040840152613b528186613ac8565b90508281036060840152613b668185613a97565b979650505050505050565b604081526000613b846040830185613a54565b8281036020840152613b968185613ac8565b95945050505050565b606081526000613bb26060830186613a54565b8281036020840152613bc48186613ac8565b90508281036040840152613bd88185613a97565b9695505050505050565b60208101600c8310613c0457634e487b7160e01b600052602160045260246000fd5b91905290565b6020808252603c908201527f496e746572636f6e6e656374733a3a6f6e6c7952656c61794163636f756e743a60408201527b0810d85b1b195c881a5cc81b9bdd081c995b185e481858d8dbdd5b9d60221b606082015260800190565b60208082526040908201819052600080516020613f9e833981519152908201527f20546f6b656e206973206e6f7420616363657074696e67206272696467696e67606082015260800190565b6020808252602e908201527f496e697469616c697a61626c653a20636f6e747261637420697320616c72656160408201526d191e481a5b9a5d1a585b1a5e995960921b606082015260800190565b6020808252600b908201526a626164206164647265737360a81b604082015260600190565b6020808252604b90820152600080516020613f9e8339815191526040820152600080516020613f1e83398151915260608201526a1cdd08189948195c5d585b60aa1b608082015260a00190565b60208082526034908201527f436f6e74726f6c6c65643a3a6f6e6c79436f6e74726f6c6c65723a2043616c6c60408201527332b91034b9903737ba1031b7b73a3937b63632b960611b606082015260800190565b6020808252601f908201527f5265656e7472616e637947756172643a207265656e7472616e742063616c6c00604082015260600190565b604051601f8201601f191681016001600160401b0381118282101715613e2557613e25613eef565b604052919050565b60006001600160401b03821115613e4657613e46613eef565b5060051b60200190565b60008219821115613e6357613e63613ed9565b500190565b600082613e8357634e487b7160e01b81526012600452602481fd5b500490565b6000816000190483118215151615613ea257613ea2613ed9565b500290565b600082821015613eb957613eb9613ed9565b500390565b6000600019821415613ed257613ed2613ed9565b5060010190565b634e487b7160e01b600052601160045260246000fd5b634e487b7160e01b600052604160045260246000fd5b6001600160a01b0381168114613f1a57600080fd5b5056fe204c656e677468206f6620746f6b656e7320616e6420616d6f756e7473206d75496e746572636f6e6e656374733a3a757064617465546f6b656e506f6f6c4c70496e746572636f6e6e656374733a3a70726f766964654c69717569646974793a496e746572636f6e6e656374733a3a74616b654c69717569646974793a204c50496e746572636f6e6e656374733a3a76616c69646174654272696467696e673aa2646970667358221220db05b0c0ea8c9789a551a34f3b42a5aefb439d26bc8ea7eab3c9bb7076039fbb64736f6c63430008040033",
  "devdoc": {
    "kind": "dev",
    "methods": {
      "bridgeFrom(address,address[],uint256[])": {
        "details": "Wrapper around userPositions func to decrease user's token balance",
        "params": {
          "amounts": "Array of the token amounts",
          "tokens": "Array of the token addresses",
          "user": "user bridging"
        }
      },
      "bridgeTo(address,address[],uint256[])": {
        "details": "Wrapper around userPositions func, updateTokenPoolLpBalances, and feeHandler",
        "params": {
          "amounts": "Array of the token amounts",
          "tokens": "Array of the token addresses",
          "user": "user bridging"
        }
      },
      "claimLpFeeRewards(address,address[])": {
        "params": {
          "tokens": "Array of the token addresses",
          "user": "Address of the account LP-ing"
        }
      },
      "getRelayAccount()": {
        "returns": {
          "_0": "The address of the gas account"
        }
      },
      "getTokenLpUsers(address)": {
        "params": {
          "asset": "Address of the ERC20 token contract"
        }
      },
      "getTokenPoolLpActivePositions(address)": {
        "details": "this returns the sum of all active LP positions for a given token. This is different than the LP balance, as the LP balance is the available amount of this sum. This number is gte the LP balance, usually greater than.",
        "params": {
          "asset": "Address of the ERC20 token contract"
        }
      },
      "getTokenPoolLpBalance(address)": {
        "params": {
          "asset": "Address of the ERC20 token contract"
        }
      },
      "getTokenProtocolFeeRewards(address)": {
        "params": {
          "asset": "Address of the ERC20 token contract"
        }
      },
      "getTokenUserLpBalance(address,address)": {
        "params": {
          "asset": "Address of the ERC20 token contract",
          "user": "Address of the user account"
        }
      },
      "getTokenUserLpFeeRewardBalance(address,address)": {
        "params": {
          "asset": "Address of the ERC20 token contract",
          "user": "Address of the user account"
        }
      },
      "initialize(address[],address,address)": {
        "params": {
          "controllers_": "The addresses of the controlling contracts",
          "moduleMap_": "Address of the Module Map",
          "relayAccount_": "The address of the relay account that will control this account"
        }
      },
      "provideLiquidity(address,address[],uint256[])": {
        "params": {
          "amounts": "Array of the token amounts",
          "tokens": "Array of the token addresses",
          "user": "Address of the account LP-ing"
        }
      },
      "takeLiquidity(address,address[],uint256[])": {
        "params": {
          "amounts": "Array of the token amounts",
          "tokens": "Array of the token addresses",
          "user": "Address of the account LP-ing"
        }
      },
      "undoBridgeFrom(address,address[],uint256[])": {
        "details": "Wrapper around userPositions func to increase user's token balance",
        "params": {
          "amounts": "Array of the token amounts",
          "tokens": "Array of the token addresses",
          "user": "user bridging"
        }
      },
      "updateRelayAccount(address)": {
        "params": {
          "relayAccount_": "The address of the relay account"
        }
      }
    },
    "version": 1
  },
  "userdoc": {
    "kind": "user",
    "methods": {
      "claimLpFeeRewards(address,address[])": {
        "notice": "User is allowed to claim fees"
      },
      "provideLiquidity(address,address[],uint256[])": {
        "notice": "User is allowed to LP whitelisted tokens"
      }
    },
    "version": 1
  },
  "storageLayout": {
    "storage": [
      {
        "astId": 723,
        "contract": "contracts/core/Interconnects.sol:Interconnects",
        "label": "_initialized",
        "offset": 0,
        "slot": "0",
        "type": "t_bool"
      },
      {
        "astId": 726,
        "contract": "contracts/core/Interconnects.sol:Interconnects",
        "label": "_initializing",
        "offset": 1,
        "slot": "0",
        "type": "t_bool"
      },
      {
        "astId": 9850,
        "contract": "contracts/core/Interconnects.sol:Interconnects",
        "label": "moduleMap",
        "offset": 2,
        "slot": "0",
        "type": "t_contract(IModuleMap)20356"
      },
      {
        "astId": 4667,
        "contract": "contracts/core/Interconnects.sol:Interconnects",
        "label": "_controllers",
        "offset": 0,
        "slot": "1",
        "type": "t_mapping(t_address,t_bool)"
      },
      {
        "astId": 4670,
        "contract": "contracts/core/Interconnects.sol:Interconnects",
        "label": "controllers",
        "offset": 0,
        "slot": "2",
        "type": "t_array(t_address)dyn_storage"
      },
      {
        "astId": 804,
        "contract": "contracts/core/Interconnects.sol:Interconnects",
        "label": "_status",
        "offset": 0,
        "slot": "3",
        "type": "t_uint256"
      },
      {
        "astId": 847,
        "contract": "contracts/core/Interconnects.sol:Interconnects",
        "label": "__gap",
        "offset": 0,
        "slot": "4",
        "type": "t_array(t_uint256)49_storage"
      },
      {
        "astId": 6796,
        "contract": "contracts/core/Interconnects.sol:Interconnects",
        "label": "_relayAccount",
        "offset": 0,
        "slot": "53",
        "type": "t_address_payable"
      },
      {
        "astId": 6803,
        "contract": "contracts/core/Interconnects.sol:Interconnects",
        "label": "_tokenUserLpBalances",
        "offset": 0,
        "slot": "54",
        "type": "t_mapping(t_address,t_mapping(t_address,t_struct(lpData)19699_storage))"
      },
      {
        "astId": 6807,
        "contract": "contracts/core/Interconnects.sol:Interconnects",
        "label": "_tokenPoolLpBalances",
        "offset": 0,
        "slot": "55",
        "type": "t_mapping(t_address,t_uint256)"
      },
      {
        "astId": 6811,
        "contract": "contracts/core/Interconnects.sol:Interconnects",
        "label": "_tokenProtocolFeeRewards",
        "offset": 0,
        "slot": "56",
        "type": "t_mapping(t_address,t_uint256)"
      },
      {
        "astId": 6816,
        "contract": "contracts/core/Interconnects.sol:Interconnects",
        "label": "_tokenLpUsers",
        "offset": 0,
        "slot": "57",
        "type": "t_mapping(t_address,t_array(t_address)dyn_storage)"
      }
    ],
    "types": {
      "t_address": {
        "encoding": "inplace",
        "label": "address",
        "numberOfBytes": "20"
      },
      "t_address_payable": {
        "encoding": "inplace",
        "label": "address payable",
        "numberOfBytes": "20"
      },
      "t_array(t_address)dyn_storage": {
        "base": "t_address",
        "encoding": "dynamic_array",
        "label": "address[]",
        "numberOfBytes": "32"
      },
      "t_array(t_uint256)49_storage": {
        "base": "t_uint256",
        "encoding": "inplace",
        "label": "uint256[49]",
        "numberOfBytes": "1568"
      },
      "t_bool": {
        "encoding": "inplace",
        "label": "bool",
        "numberOfBytes": "1"
      },
      "t_contract(IModuleMap)20356": {
        "encoding": "inplace",
        "label": "contract IModuleMap",
        "numberOfBytes": "20"
      },
      "t_mapping(t_address,t_array(t_address)dyn_storage)": {
        "encoding": "mapping",
        "key": "t_address",
        "label": "mapping(address => address[])",
        "numberOfBytes": "32",
        "value": "t_array(t_address)dyn_storage"
      },
      "t_mapping(t_address,t_bool)": {
        "encoding": "mapping",
        "key": "t_address",
        "label": "mapping(address => bool)",
        "numberOfBytes": "32",
        "value": "t_bool"
      },
      "t_mapping(t_address,t_mapping(t_address,t_struct(lpData)19699_storage))": {
        "encoding": "mapping",
        "key": "t_address",
        "label": "mapping(address => mapping(address => struct IInterconnects.lpData))",
        "numberOfBytes": "32",
        "value": "t_mapping(t_address,t_struct(lpData)19699_storage)"
      },
      "t_mapping(t_address,t_struct(lpData)19699_storage)": {
        "encoding": "mapping",
        "key": "t_address",
        "label": "mapping(address => struct IInterconnects.lpData)",
        "numberOfBytes": "32",
        "value": "t_struct(lpData)19699_storage"
      },
      "t_mapping(t_address,t_uint256)": {
        "encoding": "mapping",
        "key": "t_address",
        "label": "mapping(address => uint256)",
        "numberOfBytes": "32",
        "value": "t_uint256"
      },
      "t_struct(lpData)19699_storage": {
        "encoding": "inplace",
        "label": "struct IInterconnects.lpData",
        "members": [
          {
            "astId": 19696,
            "contract": "contracts/core/Interconnects.sol:Interconnects",
            "label": "position",
            "offset": 0,
            "slot": "0",
            "type": "t_uint256"
          },
          {
            "astId": 19698,
            "contract": "contracts/core/Interconnects.sol:Interconnects",
            "label": "rewards",
            "offset": 0,
            "slot": "1",
            "type": "t_uint256"
          }
        ],
        "numberOfBytes": "64"
      },
      "t_uint256": {
        "encoding": "inplace",
        "label": "uint256",
        "numberOfBytes": "32"
      }
    }
  }
}