{
  "address": "0x88F662172129A2aF3EEacB7741141cd945F833bb",
  "abi": [
    {
      "inputs": [
        {
          "internalType": "address[]",
          "name": "controllers_",
          "type": "address[]"
        },
        {
          "internalType": "address",
          "name": "moduleMap_",
          "type": "address"
        }
      ],
      "name": "__Controlled_init",
      "outputs": [],
      "stateMutability": "nonpayable",
      "type": "function"
    },
    {
      "inputs": [
        {
          "internalType": "address",
          "name": "controller",
          "type": "address"
        }
      ],
      "name": "addController",
      "outputs": [],
      "stateMutability": "nonpayable",
      "type": "function"
    },
    {
      "inputs": [
        {
          "internalType": "string",
          "name": "name",
          "type": "string"
        },
        {
          "components": [
            {
              "internalType": "address",
              "name": "integration",
              "type": "address"
            },
            {
              "internalType": "uint32",
              "name": "ammPoolID",
              "type": "uint32"
            }
          ],
          "internalType": "struct IStrategyMap.Integration[]",
          "name": "integrations",
          "type": "tuple[]"
        },
        {
          "components": [
            {
              "internalType": "uint256",
              "name": "integrationPairIdx",
              "type": "uint256"
            },
            {
              "internalType": "address",
              "name": "token",
              "type": "address"
            },
            {
              "internalType": "uint32",
              "name": "weight",
              "type": "uint32"
            }
          ],
          "internalType": "struct IStrategyMap.Token[]",
          "name": "tokens",
          "type": "tuple[]"
        },
        {
          "internalType": "uint256[]",
          "name": "maxCap",
          "type": "uint256[]"
        }
      ],
      "name": "addStrategy",
      "outputs": [],
      "stateMutability": "nonpayable",
      "type": "function"
    },
    {
      "inputs": [
        {
          "internalType": "uint256",
          "name": "",
          "type": "uint256"
        }
      ],
      "name": "controllers",
      "outputs": [
        {
          "internalType": "address",
          "name": "",
          "type": "address"
        }
      ],
      "stateMutability": "view",
      "type": "function"
    },
    {
      "inputs": [
        {
          "internalType": "uint256",
          "name": "id",
          "type": "uint256"
        }
      ],
      "name": "deleteStrategy",
      "outputs": [],
      "stateMutability": "nonpayable",
      "type": "function"
    },
    {
      "inputs": [
        {
          "internalType": "address[]",
          "name": "controllers_",
          "type": "address[]"
        },
        {
          "internalType": "address",
          "name": "moduleMap_",
          "type": "address"
        }
      ],
      "name": "initialize",
      "outputs": [],
      "stateMutability": "nonpayable",
      "type": "function"
    },
    {
      "inputs": [],
      "name": "moduleMap",
      "outputs": [
        {
          "internalType": "contract IModuleMap",
          "name": "",
          "type": "address"
        }
      ],
      "stateMutability": "view",
      "type": "function"
    },
    {
      "inputs": [
        {
          "internalType": "uint256",
          "name": "id",
          "type": "uint256"
        },
        {
          "components": [
            {
              "internalType": "address",
              "name": "integration",
              "type": "address"
            },
            {
              "internalType": "uint32",
              "name": "ammPoolID",
              "type": "uint32"
            }
          ],
          "internalType": "struct IStrategyMap.Integration[]",
          "name": "integrations",
          "type": "tuple[]"
        },
        {
          "components": [
            {
              "internalType": "uint256",
              "name": "integrationPairIdx",
              "type": "uint256"
            },
            {
              "internalType": "address",
              "name": "token",
              "type": "address"
            },
            {
              "internalType": "uint32",
              "name": "weight",
              "type": "uint32"
            }
          ],
          "internalType": "struct IStrategyMap.Token[]",
          "name": "tokens",
          "type": "tuple[]"
        },
        {
          "internalType": "uint256[]",
          "name": "maxCap",
          "type": "uint256[]"
        }
      ],
      "name": "updateStrategy",
      "outputs": [],
      "stateMutability": "nonpayable",
      "type": "function"
    },
    {
      "inputs": [
        {
          "internalType": "uint256",
          "name": "id",
          "type": "uint256"
        },
        {
          "internalType": "string",
          "name": "name",
          "type": "string"
        }
      ],
      "name": "updateStrategyName",
      "outputs": [],
      "stateMutability": "nonpayable",
      "type": "function"
    }
  ],
  "transactionHash": "0x5dc93b90e1dea73ce1148c69156a1e062b16bd0fd7a67d4fc508ae2a3cc7d071",
  "args": [],
  "solcInputHash": "b359af8479a2326fcf7abd496853641e",
  "bytecode": "0x608060405234801561001057600080fd5b5061196e806100206000396000f3fe608060405234801561001057600080fd5b50600436106100835760003560e01c80630f0a1c6f1461008857806319fed71e146100b7578063462d0b2e146100cc57806387302037146100df57806398c671ce146100f2578063a7fc7a0714610105578063c68d907614610118578063e94b0dd21461012b578063fbcaaf961461013e575b600080fd5b6000546100a1906201000090046001600160a01b031681565b6040516100ae9190611713565b60405180910390f35b6100ca6100c536600461142a565b610151565b005b6100ca6100da366004611332565b6104d3565b6100ca6100ed3660046114e8565b610551565b6100ca610100366004611332565b610755565b6100ca6101133660046112f3565b6108e4565b6100ca610126366004611500565b610b21565b6100a16101393660046114e8565b610e97565b6100ca61014c36600461159f565b610ec1565b600080546040516337c61fc560e11b8152620100009091046001600160a01b031691636f8c3f8a916101869190600401611727565b60206040518083038186803b15801561019e57600080fd5b505afa1580156101b2573d6000803e3d6000fd5b505050506040513d601f19601f820116820180604052508101906101d69190611316565b6001600160a01b031663f3ae2415336040518263ffffffff1660e01b81526004016102019190611713565b60206040518083038186803b15801561021957600080fd5b505afa15801561022d573d6000803e3d6000fd5b505050506040513d601f19601f82011682018060405250810190610251919061140a565b6102765760405162461bcd60e51b815260040161026d90611822565b60405180910390fd5b600080546040516337c61fc560e11b8152620100009091046001600160a01b031690636f8c3f8a906102ad90600390600401611727565b60206040518083038186803b1580156102c557600080fd5b505afa1580156102d9573d6000803e3d6000fd5b505050506040513d601f19601f820116820180604052508101906102fd9190611316565b905060005b868110156103d657816001600160a01b0316631de4fe1389898481811061033957634e487b7160e01b600052603260045260246000fd5b61034f92602060409092020190810191506112f3565b6040518263ffffffff1660e01b815260040161036b9190611713565b60206040518083038186803b15801561038357600080fd5b505afa158015610397573d6000803e3d6000fd5b505050506040513d601f19601f820116820180604052508101906103bb919061140a565b6103c457600080fd5b806103ce816118e3565b915050610302565b506000546040516337c61fc560e11b8152620100009091046001600160a01b031690636f8c3f8a9061040d90600890600401611727565b60206040518083038186803b15801561042557600080fd5b505afa158015610439573d6000803e3d6000fd5b505050506040513d601f19601f8201168201806040525081019061045d9190611316565b6001600160a01b03166319fed71e8a8a8a8a8a8a8a8a6040518963ffffffff1660e01b815260040161049698979695949392919061174f565b600060405180830381600087803b1580156104b057600080fd5b505af11580156104c4573d6000803e3d6000fd5b50505050505050505050505050565b600054610100900460ff166104ee5760005460ff16156104f2565b303b155b61050e5760405162461bcd60e51b815260040161026d906117af565b600054610100900460ff16158015610530576000805461ffff19166101011790555b61053a8383610755565b801561054c576000805461ff00191690555b505050565b600080546040516337c61fc560e11b8152620100009091046001600160a01b031691636f8c3f8a916105869190600401611727565b60206040518083038186803b15801561059e57600080fd5b505afa1580156105b2573d6000803e3d6000fd5b505050506040513d601f19601f820116820180604052508101906105d69190611316565b6001600160a01b031663f3ae2415336040518263ffffffff1660e01b81526004016106019190611713565b60206040518083038186803b15801561061957600080fd5b505afa15801561062d573d6000803e3d6000fd5b505050506040513d601f19601f82011682018060405250810190610651919061140a565b61066d5760405162461bcd60e51b815260040161026d90611822565b6000546040516337c61fc560e11b8152620100009091046001600160a01b031690636f8c3f8a906106a390600890600401611727565b60206040518083038186803b1580156106bb57600080fd5b505afa1580156106cf573d6000803e3d6000fd5b505050506040513d601f19601f820116820180604052508101906106f39190611316565b6001600160a01b03166387302037826040518263ffffffff1660e01b815260040161072091815260200190565b600060405180830381600087803b15801561073a57600080fd5b505af115801561074e573d6000803e3d6000fd5b5050505050565b600054610100900460ff166107705760005460ff1615610774565b303b155b6107905760405162461bcd60e51b815260040161026d906117af565b600054610100900460ff161580156107b2576000805461ffff19166101011790555b6001600160a01b0382166107d85760405162461bcd60e51b815260040161026d906117fd565b60005b83518110156108505760006001600160a01b031684828151811061080f57634e487b7160e01b600052603260045260246000fd5b60200260200101516001600160a01b0316141561083e5760405162461bcd60e51b815260040161026d906117fd565b80610848816118e3565b9150506107db565b5060005b83518110156108c657600180600086848151811061088257634e487b7160e01b600052603260045260246000fd5b6020908102919091018101516001600160a01b03168252810191909152604001600020805460ff1916911515919091179055806108be816118e3565b915050610854565b5082516108da90600290602086019061115d565b5061053a826110c9565b600080546040516337c61fc560e11b8152620100009091046001600160a01b031691636f8c3f8a916109199190600401611727565b60206040518083038186803b15801561093157600080fd5b505afa158015610945573d6000803e3d6000fd5b505050506040513d601f19601f820116820180604052508101906109699190611316565b6001600160a01b0316632f54bf6e336040518263ffffffff1660e01b81526004016109949190611713565b60206040518083038186803b1580156109ac57600080fd5b505afa1580156109c0573d6000803e3d6000fd5b505050506040513d601f19601f820116820180604052508101906109e4919061140a565b610a435760405162461bcd60e51b815260206004820152602a60248201527f436f6e74726f6c6c65643a3a6f6e6c794f776e65723a2043616c6c6572206973604482015269103737ba1037bbb732b960b11b606482015260840161026d565b6001600160a01b03811660009081526001602081905260408220805460ff19169091179055805b600254811015610acb5760028181548110610a9557634e487b7160e01b600052603260045260246000fd5b6000918252602090912001546001600160a01b0384811691161415610ab957600191505b80610ac3816118e3565b915050610a6a565b5080610b1d57600280546001810182556000919091527f405787fa12a823e0f2b7631cc41b3ba8828b3321ca811111fa75cd3aa3bb5ace0180546001600160a01b0319166001600160a01b0384161790555b5050565b600080546040516337c61fc560e11b8152620100009091046001600160a01b031691636f8c3f8a91610b569190600401611727565b60206040518083038186803b158015610b6e57600080fd5b505afa158015610b82573d6000803e3d6000fd5b505050506040513d601f19601f82011682018060405250810190610ba69190611316565b6001600160a01b031663f3ae2415336040518263ffffffff1660e01b8152600401610bd19190611713565b60206040518083038186803b158015610be957600080fd5b505afa158015610bfd573d6000803e3d6000fd5b505050506040513d601f19601f82011682018060405250810190610c21919061140a565b610c3d5760405162461bcd60e51b815260040161026d90611822565b600080546040516337c61fc560e11b8152620100009091046001600160a01b031690636f8c3f8a90610c7490600390600401611727565b60206040518083038186803b158015610c8c57600080fd5b505afa158015610ca0573d6000803e3d6000fd5b505050506040513d601f19601f82011682018060405250810190610cc49190611316565b905060005b86811015610d9d57816001600160a01b0316631de4fe13898984818110610d0057634e487b7160e01b600052603260045260246000fd5b610d1692602060409092020190810191506112f3565b6040518263ffffffff1660e01b8152600401610d329190611713565b60206040518083038186803b158015610d4a57600080fd5b505afa158015610d5e573d6000803e3d6000fd5b505050506040513d601f19601f82011682018060405250810190610d82919061140a565b610d8b57600080fd5b80610d95816118e3565b915050610cc9565b506000546040516337c61fc560e11b8152620100009091046001600160a01b031690636f8c3f8a90610dd490600890600401611727565b60206040518083038186803b158015610dec57600080fd5b505afa158015610e00573d6000803e3d6000fd5b505050506040513d601f19601f82011682018060405250810190610e249190611316565b6001600160a01b031663c68d9076898989898989896040518863ffffffff1660e01b8152600401610e5b9796959493929190611870565b600060405180830381600087803b158015610e7557600080fd5b505af1158015610e89573d6000803e3d6000fd5b505050505050505050505050565b60028181548110610ea757600080fd5b6000918252602090912001546001600160a01b0316905081565b600080546040516337c61fc560e11b8152620100009091046001600160a01b031691636f8c3f8a91610ef69190600401611727565b60206040518083038186803b158015610f0e57600080fd5b505afa158015610f22573d6000803e3d6000fd5b505050506040513d601f19601f82011682018060405250810190610f469190611316565b6001600160a01b031663f3ae2415336040518263ffffffff1660e01b8152600401610f719190611713565b60206040518083038186803b158015610f8957600080fd5b505afa158015610f9d573d6000803e3d6000fd5b505050506040513d601f19601f82011682018060405250810190610fc1919061140a565b610fdd5760405162461bcd60e51b815260040161026d90611822565b6000546040516337c61fc560e11b8152620100009091046001600160a01b031690636f8c3f8a9061101390600890600401611727565b60206040518083038186803b15801561102b57600080fd5b505afa15801561103f573d6000803e3d6000fd5b505050506040513d601f19601f820116820180604052508101906110639190611316565b6001600160a01b03166353e76f2c8484846040518463ffffffff1660e01b8152600401611092939291906118c0565b600060405180830381600087803b1580156110ac57600080fd5b505af11580156110c0573d6000803e3d6000fd5b50505050505050565b600054610100900460ff166110e45760005460ff16156110e8565b303b155b6111045760405162461bcd60e51b815260040161026d906117af565b600054610100900460ff16158015611126576000805461ffff19166101011790555b6000805462010000600160b01b031916620100006001600160a01b038516021790558015610b1d576000805461ff00191690555050565b8280548282559060005260206000209081019282156111b2579160200282015b828111156111b257825182546001600160a01b0319166001600160a01b0390911617825560209092019160019091019061117d565b506111be9291506111c2565b5090565b5b808211156111be57600081556001016111c3565b80356111e281611920565b919050565b60008083601f8401126111f8578182fd5b5081356001600160401b0381111561120e578182fd5b6020830191508360208260061b850101111561122957600080fd5b9250929050565b60008083601f840112611241578182fd5b5081356001600160401b03811115611257578182fd5b60208301915083602060608302850101111561122957600080fd5b60008083601f840112611283578182fd5b5081356001600160401b03811115611299578182fd5b6020830191508360208260051b850101111561122957600080fd5b60008083601f8401126112c5578182fd5b5081356001600160401b038111156112db578182fd5b60208301915083602082850101111561122957600080fd5b600060208284031215611304578081fd5b813561130f81611920565b9392505050565b600060208284031215611327578081fd5b815161130f81611920565b60008060408385031215611344578081fd5b82356001600160401b038082111561135a578283fd5b818501915085601f83011261136d578283fd5b81356020828211156113815761138161190a565b8160051b604051601f19603f830116810181811086821117156113a6576113a661190a565b604052838152828101945085830182870184018b10156113c4578788fd5b8796505b848710156113ed576113d9816111d7565b8652600196909601959483019483016113c8565b5096506113fd90508782016111d7565b9450505050509250929050565b60006020828403121561141b578081fd5b8151801515811461130f578182fd5b6000806000806000806000806080898b031215611445578384fd5b88356001600160401b038082111561145b578586fd5b6114678c838d016112b4565b909a50985060208b013591508082111561147f578586fd5b61148b8c838d016111e7565b909850965060408b01359150808211156114a3578586fd5b6114af8c838d01611230565b909650945060608b01359150808211156114c7578384fd5b506114d48b828c01611272565b999c989b5096995094979396929594505050565b6000602082840312156114f9578081fd5b5035919050565b60008060008060008060006080888a03121561151a578283fd5b8735965060208801356001600160401b0380821115611537578485fd5b6115438b838c016111e7565b909850965060408a013591508082111561155b578485fd5b6115678b838c01611230565b909650945060608a013591508082111561157f578384fd5b5061158c8a828b01611272565b989b979a50959850939692959293505050565b6000806000604084860312156115b3578283fd5b8335925060208401356001600160401b038111156115cf578283fd5b6115db868287016112b4565b9497909650939450505050565b81835260006020808501945082825b8581101561164357813561160a81611920565b6001600160a01b031687528183013563ffffffff811680821461162b578586fd5b888501525060409687019691909101906001016115f7565b509495945050505050565b81835260006020808501945082825b8581101561164357813587528282013561167681611920565b6001600160a01b03168784015260408281013563ffffffff811680821461169b578687fd5b9189019190915250606096870196919091019060010161165d565b81835260006001600160fb1b038311156116ce578081fd5b8260051b80836020870137939093016020019283525090919050565b81835281816020850137506000828201602090810191909152601f909101601f19169091010190565b6001600160a01b0391909116815260200190565b60208101600c831061174957634e487b7160e01b600052602160045260246000fd5b91905290565b608081526000611763608083018a8c6116ea565b828103602084015261177681898b6115e8565b9050828103604084015261178b81878961164e565b905082810360608401526117a08185876116b6565b9b9a5050505050505050505050565b6020808252602e908201527f496e697469616c697a61626c653a20636f6e747261637420697320616c72656160408201526d191e481a5b9a5d1a585b1a5e995960921b606082015260800190565b6020808252600b908201526a626164206164647265737360a81b604082015260600190565b6020808252602e908201527f436f6e74726f6c6c65643a3a6f6e6c794d616e616765723a2043616c6c65722060408201526d34b9903737ba1036b0b730b3b2b960911b606082015260800190565b87815260806020820152600061188a60808301888a6115e8565b828103604084015261189d81878961164e565b905082810360608401526118b28185876116b6565b9a9950505050505050505050565b8381526040602082015260006118da6040830184866116ea565b95945050505050565b600060001982141561190357634e487b7160e01b81526011600452602481fd5b5060010190565b634e487b7160e01b600052604160045260246000fd5b6001600160a01b038116811461193557600080fd5b5056fea26469706673582212200d6307585c5ed2ac8fb6ae9693c1fd92087d1c9e84a2052bb2fd739249d247ea64736f6c63430008040033",
  "devdoc": {
    "kind": "dev",
    "methods": {
      "addStrategy(string,(address,uint32)[],(uint256,address,uint32)[],uint256[])": {
        "details": "This is a passthrough to StrategyMap.addStrategy"
      },
      "deleteStrategy(uint256)": {
        "details": "This is a pass through to StrategyMap.deleteStrategy"
      },
      "updateStrategy(uint256,(address,uint32)[],(uint256,address,uint32)[],uint256[])": {
        "details": "This is a passthrough to StrategyMap.updateStrategyTokens"
      },
      "updateStrategyName(uint256,string)": {
        "details": "This is a pass through function to StrategyMap.updateName"
      }
    },
    "version": 1
  },
  "userdoc": {
    "kind": "user",
    "methods": {
      "addStrategy(string,(address,uint32)[],(uint256,address,uint32)[],uint256[])": {
        "notice": "Adds a new strategy to the strategy map."
      },
      "deleteStrategy(uint256)": {
        "notice": "Deletes a strategy"
      },
      "updateStrategy(uint256,(address,uint32)[],(uint256,address,uint32)[],uint256[])": {
        "notice": "Updates the whitelisted tokens a strategy accepts for new deposits"
      },
      "updateStrategyName(uint256,string)": {
        "notice": "Updates a strategy's name"
      }
    },
    "version": 1
  },
  "storageLayout": {
    "storage": [
      {
        "astId": 723,
        "contract": "contracts/core/StrategyManager.sol:StrategyManager",
        "label": "_initialized",
        "offset": 0,
        "slot": "0",
        "type": "t_bool"
      },
      {
        "astId": 726,
        "contract": "contracts/core/StrategyManager.sol:StrategyManager",
        "label": "_initializing",
        "offset": 1,
        "slot": "0",
        "type": "t_bool"
      },
      {
        "astId": 9850,
        "contract": "contracts/core/StrategyManager.sol:StrategyManager",
        "label": "moduleMap",
        "offset": 2,
        "slot": "0",
        "type": "t_contract(IModuleMap)20356"
      },
      {
        "astId": 4667,
        "contract": "contracts/core/StrategyManager.sol:StrategyManager",
        "label": "_controllers",
        "offset": 0,
        "slot": "1",
        "type": "t_mapping(t_address,t_bool)"
      },
      {
        "astId": 4670,
        "contract": "contracts/core/StrategyManager.sol:StrategyManager",
        "label": "controllers",
        "offset": 0,
        "slot": "2",
        "type": "t_array(t_address)dyn_storage"
      }
    ],
    "types": {
      "t_address": {
        "encoding": "inplace",
        "label": "address",
        "numberOfBytes": "20"
      },
      "t_array(t_address)dyn_storage": {
        "base": "t_address",
        "encoding": "dynamic_array",
        "label": "address[]",
        "numberOfBytes": "32"
      },
      "t_bool": {
        "encoding": "inplace",
        "label": "bool",
        "numberOfBytes": "1"
      },
      "t_contract(IModuleMap)20356": {
        "encoding": "inplace",
        "label": "contract IModuleMap",
        "numberOfBytes": "20"
      },
      "t_mapping(t_address,t_bool)": {
        "encoding": "mapping",
        "key": "t_address",
        "label": "mapping(address => bool)",
        "numberOfBytes": "32",
        "value": "t_bool"
      }
    }
  }
}