{
  "address": "0xD53536727BeaAA16EC241BF697cF5F33Cc28C0E3",
  "abi": [
    {
      "inputs": [
        {
          "internalType": "address[]",
          "name": "controllers_",
          "type": "address[]"
        },
        {
          "internalType": "address",
          "name": "moduleMap_",
          "type": "address"
        }
      ],
      "name": "__Controlled_init",
      "outputs": [],
      "stateMutability": "nonpayable",
      "type": "function"
    },
    {
      "inputs": [
        {
          "internalType": "address",
          "name": "controller",
          "type": "address"
        }
      ],
      "name": "addController",
      "outputs": [],
      "stateMutability": "nonpayable",
      "type": "function"
    },
    {
      "inputs": [
        {
          "internalType": "address",
          "name": "user",
          "type": "address"
        },
        {
          "internalType": "uint256[]",
          "name": "ids",
          "type": "uint256[]"
        }
      ],
      "name": "claimEthRewards",
      "outputs": [
        {
          "internalType": "uint256",
          "name": "ethRewards",
          "type": "uint256"
        }
      ],
      "stateMutability": "nonpayable",
      "type": "function"
    },
    {
      "inputs": [
        {
          "internalType": "uint256",
          "name": "",
          "type": "uint256"
        }
      ],
      "name": "controllers",
      "outputs": [
        {
          "internalType": "address",
          "name": "",
          "type": "address"
        }
      ],
      "stateMutability": "view",
      "type": "function"
    },
    {
      "inputs": [
        {
          "internalType": "uint256",
          "name": "strategyId",
          "type": "uint256"
        },
        {
          "internalType": "uint256",
          "name": "amount",
          "type": "uint256"
        },
        {
          "internalType": "address",
          "name": "user",
          "type": "address"
        }
      ],
      "name": "decreaseUserRewards",
      "outputs": [],
      "stateMutability": "nonpayable",
      "type": "function"
    },
    {
      "inputs": [],
      "name": "getEthRewards",
      "outputs": [
        {
          "internalType": "uint256",
          "name": "",
          "type": "uint256"
        }
      ],
      "stateMutability": "view",
      "type": "function"
    },
    {
      "inputs": [
        {
          "internalType": "uint256",
          "name": "strategyId",
          "type": "uint256"
        }
      ],
      "name": "getStrategyInfo",
      "outputs": [
        {
          "components": [
            {
              "internalType": "uint256",
              "name": "rewardPerShare",
              "type": "uint256"
            },
            {
              "internalType": "uint256",
              "name": "totalRewards",
              "type": "uint256"
            }
          ],
          "internalType": "struct IEtherRewards.StrategyInfo",
          "name": "",
          "type": "tuple"
        }
      ],
      "stateMutability": "view",
      "type": "function"
    },
    {
      "inputs": [],
      "name": "getTotalClaimedEthRewards",
      "outputs": [
        {
          "internalType": "uint256",
          "name": "",
          "type": "uint256"
        }
      ],
      "stateMutability": "view",
      "type": "function"
    },
    {
      "inputs": [
        {
          "internalType": "address",
          "name": "user",
          "type": "address"
        },
        {
          "internalType": "uint256[]",
          "name": "ids",
          "type": "uint256[]"
        }
      ],
      "name": "getTotalUserClaimedEthByStrategy",
      "outputs": [
        {
          "internalType": "uint256[]",
          "name": "",
          "type": "uint256[]"
        }
      ],
      "stateMutability": "view",
      "type": "function"
    },
    {
      "inputs": [
        {
          "internalType": "address",
          "name": "account",
          "type": "address"
        }
      ],
      "name": "getTotalUserClaimedEthRewards",
      "outputs": [
        {
          "internalType": "uint256",
          "name": "",
          "type": "uint256"
        }
      ],
      "stateMutability": "view",
      "type": "function"
    },
    {
      "inputs": [
        {
          "internalType": "address",
          "name": "user",
          "type": "address"
        }
      ],
      "name": "getUserEthRewards",
      "outputs": [
        {
          "internalType": "uint256",
          "name": "",
          "type": "uint256"
        }
      ],
      "stateMutability": "view",
      "type": "function"
    },
    {
      "inputs": [
        {
          "internalType": "uint256",
          "name": "strategyId",
          "type": "uint256"
        },
        {
          "internalType": "address",
          "name": "user",
          "type": "address"
        }
      ],
      "name": "getUserInfo",
      "outputs": [
        {
          "components": [
            {
              "internalType": "int256",
              "name": "rewardDebt",
              "type": "int256"
            },
            {
              "internalType": "uint256",
              "name": "claimedRewards",
              "type": "uint256"
            }
          ],
          "internalType": "struct IEtherRewards.UserInfo",
          "name": "",
          "type": "tuple"
        }
      ],
      "stateMutability": "view",
      "type": "function"
    },
    {
      "inputs": [
        {
          "internalType": "uint256",
          "name": "strategyId",
          "type": "uint256"
        },
        {
          "internalType": "address",
          "name": "user",
          "type": "address"
        }
      ],
      "name": "getUserStrategyRewards",
      "outputs": [
        {
          "internalType": "uint256",
          "name": "ethRewards",
          "type": "uint256"
        }
      ],
      "stateMutability": "view",
      "type": "function"
    },
    {
      "inputs": [
        {
          "internalType": "uint256",
          "name": "strategyId",
          "type": "uint256"
        },
        {
          "internalType": "uint256",
          "name": "ethRewardsAmount",
          "type": "uint256"
        }
      ],
      "name": "increaseEthRewards",
      "outputs": [],
      "stateMutability": "nonpayable",
      "type": "function"
    },
    {
      "inputs": [
        {
          "internalType": "uint256",
          "name": "strategyId",
          "type": "uint256"
        },
        {
          "internalType": "uint256",
          "name": "amount",
          "type": "uint256"
        },
        {
          "internalType": "address",
          "name": "user",
          "type": "address"
        }
      ],
      "name": "increaseUserRewards",
      "outputs": [],
      "stateMutability": "nonpayable",
      "type": "function"
    },
    {
      "inputs": [
        {
          "internalType": "address[]",
          "name": "controllers_",
          "type": "address[]"
        },
        {
          "internalType": "address",
          "name": "moduleMap_",
          "type": "address"
        }
      ],
      "name": "initialize",
      "outputs": [],
      "stateMutability": "nonpayable",
      "type": "function"
    },
    {
      "inputs": [],
      "name": "moduleMap",
      "outputs": [
        {
          "internalType": "contract IModuleMap",
          "name": "",
          "type": "address"
        }
      ],
      "stateMutability": "view",
      "type": "function"
    }
  ],
  "transactionHash": "0xa1886ed333d62ea77894d025c2762e75822f595ccb5c8d0d59db072e950f9d08",
  "args": [],
  "solcInputHash": "95f752398cd2db7b9438ee5be3183efd",
  "bytecode": "0x608060405234801561001057600080fd5b50611a80806100206000396000f3fe608060405234801561001057600080fd5b50600436106100db5760003560e01c80630c52b797146100e05780630f0a1c6f146100f75780631069f3b51461011d57806313cf6b001461014b578063462d0b2e1461016057806354ed0e59146101735780636500d90f1461018657806398c671ce146101af578063a22aecd1146101c2578063a7fc7a07146101d5578063c3b2a7f4146101e8578063d390c73a146101fb578063db089e791461021b578063e87e88dc14610267578063e94b0dd21461026f578063ebfd2da414610282578063f4f104b514610295575b600080fd5b6004545b6040519081526020015b60405180910390f35b600054610110906201000090046001600160a01b031681565b6040516100ee9190611758565b61013061012b3660046116d0565b6102a8565b604080518251815260209283015192810192909252016100ee565b61015e610159366004611720565b6102f4565b005b61015e61016e3660046115a8565b610393565b6100e46101813660046114e7565b610411565b6100e46101943660046114e7565b6001600160a01b031660009081526005602052604090205490565b61015e6101bd3660046115a8565b61054b565b61015e6101d0366004611720565b61063b565b61015e6101e33660046114e7565b6106c7565b6100e46101f6366004611526565b610904565b61020e610209366004611526565b61098a565b6040516100ee919061176c565b6101306102293660046116a0565b604080518082019091526000808252602082015250600090815260076020908152604091829020825180840190935280548352600101549082015290565b6003546100e4565b61011061027d3660046116a0565b610a81565b6100e46102903660046116d0565b610aab565b61015e6102a33660046116ff565b610ab7565b604080518082018252600080825260209182018190526001600160a01b038416815260068252828120858252825282902082518084019093528054835260010154908201525b92915050565b3360009081526001602052604090205460ff1661032c5760405162461bcd60e51b815260040161032390611826565b60405180910390fd5b60008381526007602052604090205464e8d4a510009061034c9084611976565b61035691906118d3565b6001600160a01b03821660009081526006602090815260408083208784529091528120805490919061038990849061187a565b9091555050505050565b600054610100900460ff166103ae5760005460ff16156103b2565b303b155b6103ce5760405162461bcd60e51b8152600401610323906117d8565b600054610100900460ff161580156103f0576000805461ffff19166101011790555b6103fa838361054b565b801561040c576000805461ff00191690555b505050565b600080546040516337c61fc560e11b815282916201000090046001600160a01b031690636f8c3f8a90610449906008906004016117b0565b60206040518083038186803b15801561046157600080fd5b505afa158015610475573d6000803e3d6000fd5b505050506040513d601f19601f82011682018060405250810190610499919061150a565b90506000805b826001600160a01b031663eb08ab286040518163ffffffff1660e01b815260040160206040518083038186803b1580156104d857600080fd5b505afa1580156104ec573d6000803e3d6000fd5b505050506040513d601f19601f8201168201806040525081019061051091906116b8565b81116105435760006105228287610f3d565b50905061052f81846118bb565b9250508061053c906119eb565b905061049f565b509392505050565b600054610100900460ff166105665760005460ff161561056a565b303b155b6105865760405162461bcd60e51b8152600401610323906117d8565b600054610100900460ff161580156105a8576000805461ffff19166101011790555b60005b835181101561061d5760018060008684815181106105d957634e487b7160e01b600052603260045260246000fd5b6020908102919091018101516001600160a01b03168252810191909152604001600020805460ff191691151591909117905580610615816119eb565b9150506105ab565b50825161063190600290602086019061145d565b506103fa826112e0565b3360009081526001602052604090205460ff1661066a5760405162461bcd60e51b815260040161032390611826565b60008381526007602052604090205464e8d4a510009061068a9084611976565b61069491906118d3565b6001600160a01b038216600090815260066020908152604080832087845290915281208054909190610389908490611995565b600080546040516337c61fc560e11b8152620100009091046001600160a01b031691636f8c3f8a916106fc91906004016117b0565b60206040518083038186803b15801561071457600080fd5b505afa158015610728573d6000803e3d6000fd5b505050506040513d601f19601f8201168201806040525081019061074c919061150a565b6001600160a01b0316632f54bf6e336040518263ffffffff1660e01b81526004016107779190611758565b60206040518083038186803b15801561078f57600080fd5b505afa1580156107a3573d6000803e3d6000fd5b505050506040513d601f19601f820116820180604052508101906107c79190611680565b6108265760405162461bcd60e51b815260206004820152602a60248201527f436f6e74726f6c6c65643a3a6f6e6c794f776e65723a2043616c6c6572206973604482015269103737ba1037bbb732b960b11b6064820152608401610323565b6001600160a01b03811660009081526001602081905260408220805460ff19169091179055805b6002548110156108ae576002818154811061087857634e487b7160e01b600052603260045260246000fd5b6000918252602090912001546001600160a01b038481169116141561089c57600191505b806108a6816119eb565b91505061084d565b508061090057600280546001810182556000919091527f405787fa12a823e0f2b7631cc41b3ba8828b3321ca811111fa75cd3aa3bb5ace0180546001600160a01b0319166001600160a01b0384161790555b5050565b3360009081526001602052604081205460ff166109335760405162461bcd60e51b815260040161032390611826565b60005b828110156105435761096e84848381811061096157634e487b7160e01b600052603260045260246000fd5b9050602002013586611374565b61097890836118bb565b9150610983816119eb565b9050610936565b60606000826001600160401b038111156109b457634e487b7160e01b600052604160045260246000fd5b6040519080825280602002602001820160405280156109dd578160200160208202803683370190505b50905060005b83811015610a78576001600160a01b038616600090815260066020526040812090868684818110610a2457634e487b7160e01b600052603260045260246000fd5b90506020020135815260200190815260200160002060010154828281518110610a5d57634e487b7160e01b600052603260045260246000fd5b6020908102919091010152610a71816119eb565b90506109e3565b50949350505050565b60028181548110610a9157600080fd5b6000918252602090912001546001600160a01b0316905081565b60006105438383610f3d565b3360009081526001602052604090205460ff16610ae65760405162461bcd60e51b815260040161032390611826565b600082815260076020526040808220825491516337c61fc560e11b81529092916201000090046001600160a01b031690636f8c3f8a90610b2b906003906004016117b0565b60206040518083038186803b158015610b4357600080fd5b505afa158015610b57573d6000803e3d6000fd5b505050506040513d601f19601f82011682018060405250810190610b7b919061150a565b905060008415610d0d576000546040516337c61fc560e11b8152620100009091046001600160a01b031690636f8c3f8a90610bbb906008906004016117b0565b60206040518083038186803b158015610bd357600080fd5b505afa158015610be7573d6000803e3d6000fd5b505050506040513d601f19601f82011682018060405250810190610c0b919061150a565b6001600160a01b0316639d6eaec286846001600160a01b0316638b9c94896040518163ffffffff1660e01b815260040160206040518083038186803b158015610c5357600080fd5b505afa158015610c67573d6000803e3d6000fd5b505050506040513d601f19601f82011682018060405250810190610c8b919061150a565b6040516001600160e01b031960e085901b16815260048101929092526001600160a01b0316602482015260440160206040518083038186803b158015610cd057600080fd5b505afa158015610ce4573d6000803e3d6000fd5b505050506040513d601f19601f82011682018060405250810190610d0891906116b8565b610e7e565b6000546040516337c61fc560e11b8152620100009091046001600160a01b031690636f8c3f8a90610d43906001906004016117b0565b60206040518083038186803b158015610d5b57600080fd5b505afa158015610d6f573d6000803e3d6000fd5b505050506040513d601f19601f82011682018060405250810190610d93919061150a565b6001600160a01b031663f5465992836001600160a01b03166344fc9b566040518163ffffffff1660e01b815260040160206040518083038186803b158015610dda57600080fd5b505afa158015610dee573d6000803e3d6000fd5b505050506040513d601f19601f82011682018060405250810190610e12919061150a565b6040518263ffffffff1660e01b8152600401610e2e9190611758565b60206040518083038186803b158015610e4657600080fd5b505afa158015610e5a573d6000803e3d6000fd5b505050506040513d601f19601f82011682018060405250810190610e7e91906116b8565b905060008111610ed05760405162461bcd60e51b815260206004820152601f60248201527f4574686572526577617264733a3a746f6b656e4e6f744465706f7369746564006044820152606401610323565b80610ee064e8d4a5100086611976565b610eea91906118d3565b836000016000828254610efd91906118bb565b9250508190555083836001016000828254610f1891906118bb565b925050819055508360036000828254610f3191906118bb565b90915550505050505050565b6001600160a01b0380821660009081526006602090815260408083208684528252808320815180830183528154815260019091015492810192909252825490516337c61fc560e11b815292938493849262010000900490911690636f8c3f8a90610fac906003906004016117b0565b60206040518083038186803b158015610fc457600080fd5b505afa158015610fd8573d6000803e3d6000fd5b505050506040513d601f19601f82011682018060405250810190610ffc919061150a565b600080546040516337c61fc560e11b81529293509091620100009091046001600160a01b031690636f8c3f8a90611038906001906004016117b0565b60206040518083038186803b15801561105057600080fd5b505afa158015611064573d6000803e3d6000fd5b505050506040513d601f19601f82011682018060405250810190611088919061150a565b9050861561119c57806001600160a01b03166341127a6788846001600160a01b0316638b9c94896040518163ffffffff1660e01b815260040160206040518083038186803b1580156110d957600080fd5b505afa1580156110ed573d6000803e3d6000fd5b505050506040513d601f19601f82011682018060405250810190611111919061150a565b6040516001600160e01b031960e085901b16815260048101929092526001600160a01b0390811660248301528916604482015260640160206040518083038186803b15801561115f57600080fd5b505afa158015611173573d6000803e3d6000fd5b505050506040513d601f19601f8201168201806040525081019061119791906116b8565b61129b565b806001600160a01b031663b47064c8836001600160a01b03166344fc9b566040518163ffffffff1660e01b815260040160206040518083038186803b1580156111e457600080fd5b505afa1580156111f8573d6000803e3d6000fd5b505050506040513d601f19601f8201168201806040525081019061121c919061150a565b6040516001600160e01b031960e084901b1681526001600160a01b039182166004820152908916602482015260440160206040518083038186803b15801561126357600080fd5b505afa158015611277573d6000803e3d6000fd5b505050506040513d601f19601f8201168201806040525081019061129b91906116b8565b6000888152600760205260409020549094506112d49064e8d4a51000906112c3908790611976565b6112cd91906118d3565b845161142c565b94505050509250929050565b600054610100900460ff166112fb5760005460ff16156112ff565b303b155b61131b5760405162461bcd60e51b8152600401610323906117d8565b600054610100900460ff1615801561133d576000805461ffff19166101011790555b6000805462010000600160b01b031916620100006001600160a01b038516021790558015610900576000805461ff00191690555050565b60008060006113838585610f3d565b909250905081156105435760008581526007602052604090205464e8d4a51000906113af908390611976565b6113b991906118d3565b6001600160a01b0385166000908152600660209081526040808320898452909152812091909155600480548492906113f29084906118bb565b90915550506001600160a01b0384166000908152600560205260408120805484929061141f9084906118bb565b9091555050509392505050565b60008082121561145357611442826000196118f3565b61144c90846118bb565b90506102ee565b61144c82846119d4565b8280548282559060005260206000209081019282156114b2579160200282015b828111156114b257825182546001600160a01b0319166001600160a01b0390911617825560209092019160019091019061147d565b506114be9291506114c2565b5090565b5b808211156114be57600081556001016114c3565b80356114e281611a32565b919050565b6000602082840312156114f8578081fd5b813561150381611a32565b9392505050565b60006020828403121561151b578081fd5b815161150381611a32565b60008060006040848603121561153a578182fd5b833561154581611a32565b925060208401356001600160401b0380821115611560578384fd5b818601915086601f830112611573578384fd5b813581811115611581578485fd5b8760208260051b8501011115611595578485fd5b6020830194508093505050509250925092565b600080604083850312156115ba578182fd5b82356001600160401b03808211156115d0578384fd5b818501915085601f8301126115e3578384fd5b81356020828211156115f7576115f7611a1c565b8160051b604051601f19603f8301168101818110868211171561161c5761161c611a1c565b604052838152828101945085830182870184018b101561163a578889fd5b8896505b848710156116635761164f816114d7565b86526001969096019594830194830161163e565b50965061167390508782016114d7565b9450505050509250929050565b600060208284031215611691578081fd5b81518015158114611503578182fd5b6000602082840312156116b1578081fd5b5035919050565b6000602082840312156116c9578081fd5b5051919050565b600080604083850312156116e2578182fd5b8235915060208301356116f481611a32565b809150509250929050565b60008060408385031215611711578182fd5b50508035926020909101359150565b600080600060608486031215611734578283fd5b8335925060208401359150604084013561174d81611a32565b809150509250925092565b6001600160a01b0391909116815260200190565b6020808252825182820181905260009190848201906040850190845b818110156117a457835183529284019291840191600101611788565b50909695505050505050565b60208101600c83106117d257634e487b7160e01b600052602160045260246000fd5b91905290565b6020808252602e908201527f496e697469616c697a61626c653a20636f6e747261637420697320616c72656160408201526d191e481a5b9a5d1a585b1a5e995960921b606082015260800190565b60208082526034908201527f436f6e74726f6c6c65643a3a6f6e6c79436f6e74726f6c6c65723a2043616c6c60408201527332b91034b9903737ba1031b7b73a3937b63632b960611b606082015260800190565b600080821280156001600160ff1b038490038513161561189c5761189c611a06565b600160ff1b83900384128116156118b5576118b5611a06565b50500190565b600082198211156118ce576118ce611a06565b500190565b6000826118ee57634e487b7160e01b81526012600452602481fd5b500490565b60006001600160ff1b038184138284138082168684048611161561191957611919611a06565b600160ff1b8487128281168783058912161561193757611937611a06565b85871292508782058712848416161561195257611952611a06565b8785058712818416161561196857611968611a06565b505050929093029392505050565b600081600019048311821515161561199057611990611a06565b500290565b60008083128015600160ff1b8501841216156119b3576119b3611a06565b6001600160ff1b03840183138116156119ce576119ce611a06565b50500390565b6000828210156119e6576119e6611a06565b500390565b60006000198214156119ff576119ff611a06565b5060010190565b634e487b7160e01b600052601160045260246000fd5b634e487b7160e01b600052604160045260246000fd5b6001600160a01b0381168114611a4757600080fd5b5056fea26469706673582212207414871503d0e18b3295059bbed12d2d271cc406a684877773d4ebbf6639b64564736f6c63430008040033",
  "devdoc": {
    "kind": "dev",
    "methods": {
      "claimEthRewards(address,uint256[])": {
        "params": {
          "ids": "An array of strategyIds to claim rewards for",
          "user": "The address of the user"
        },
        "returns": {
          "ethRewards": "The amount of Ether claimed"
        }
      },
      "decreaseUserRewards(uint256,uint256,address)": {
        "params": {
          "amount": "Amount of token entered into strategy",
          "strategyId": "Strategy the user entered into",
          "user": "The address of the user"
        }
      },
      "getEthRewards()": {
        "returns": {
          "_0": "The total amount of Ether rewards"
        }
      },
      "getTotalClaimedEthRewards()": {
        "returns": {
          "_0": "The total value of ETH claimed by users"
        }
      },
      "getTotalUserClaimedEthRewards(address)": {
        "returns": {
          "_0": "The total value of ETH claimed by a user"
        }
      },
      "getUserEthRewards(address)": {
        "params": {
          "user": "The address of the user"
        },
        "returns": {
          "_0": "ethRewards The amount of Ether claimed"
        }
      },
      "getUserStrategyRewards(uint256,address)": {
        "params": {
          "strategyId": "The ID of the strategy",
          "user": "The address of the user"
        },
        "returns": {
          "ethRewards": "The amount of Ether claimed"
        }
      },
      "increaseEthRewards(uint256,uint256)": {
        "details": "strategyId = 0 for BIOS PFA!",
        "params": {
          "ethRewardsAmount": "The amount of Ether rewards to add",
          "strategyId": "The strategyId of the strategy to increase rewards for"
        }
      },
      "increaseUserRewards(uint256,uint256,address)": {
        "params": {
          "amount": "Amount of token entered into strategy",
          "strategyId": "Strategy the user entered into",
          "user": "The address of the user"
        }
      },
      "initialize(address[],address)": {
        "params": {
          "controllers_": "The array of controllers for this contract",
          "moduleMap_": "The address of the ModuleMap contract"
        }
      }
    },
    "version": 1
  },
  "userdoc": {
    "kind": "user",
    "methods": {},
    "version": 1
  },
  "storageLayout": {
    "storage": [
      {
        "astId": 723,
        "contract": "contracts/core/EtherRewards.sol:EtherRewards",
        "label": "_initialized",
        "offset": 0,
        "slot": "0",
        "type": "t_bool"
      },
      {
        "astId": 726,
        "contract": "contracts/core/EtherRewards.sol:EtherRewards",
        "label": "_initializing",
        "offset": 1,
        "slot": "0",
        "type": "t_bool"
      },
      {
        "astId": 9727,
        "contract": "contracts/core/EtherRewards.sol:EtherRewards",
        "label": "moduleMap",
        "offset": 2,
        "slot": "0",
        "type": "t_contract(IModuleMap)19935"
      },
      {
        "astId": 4667,
        "contract": "contracts/core/EtherRewards.sol:EtherRewards",
        "label": "_controllers",
        "offset": 0,
        "slot": "1",
        "type": "t_mapping(t_address,t_bool)"
      },
      {
        "astId": 4670,
        "contract": "contracts/core/EtherRewards.sol:EtherRewards",
        "label": "controllers",
        "offset": 0,
        "slot": "2",
        "type": "t_array(t_address)dyn_storage"
      },
      {
        "astId": 4828,
        "contract": "contracts/core/EtherRewards.sol:EtherRewards",
        "label": "totalEthRewards",
        "offset": 0,
        "slot": "3",
        "type": "t_uint256"
      },
      {
        "astId": 4830,
        "contract": "contracts/core/EtherRewards.sol:EtherRewards",
        "label": "totalClaimedEthRewards",
        "offset": 0,
        "slot": "4",
        "type": "t_uint256"
      },
      {
        "astId": 4834,
        "contract": "contracts/core/EtherRewards.sol:EtherRewards",
        "label": "totalUserClaimedEthRewards",
        "offset": 0,
        "slot": "5",
        "type": "t_mapping(t_address,t_uint256)"
      },
      {
        "astId": 4841,
        "contract": "contracts/core/EtherRewards.sol:EtherRewards",
        "label": "users",
        "offset": 0,
        "slot": "6",
        "type": "t_mapping(t_address,t_mapping(t_uint256,t_struct(UserInfo)18812_storage))"
      },
      {
        "astId": 4846,
        "contract": "contracts/core/EtherRewards.sol:EtherRewards",
        "label": "strategies",
        "offset": 0,
        "slot": "7",
        "type": "t_mapping(t_uint256,t_struct(StrategyInfo)18817_storage)"
      }
    ],
    "types": {
      "t_address": {
        "encoding": "inplace",
        "label": "address",
        "numberOfBytes": "20"
      },
      "t_array(t_address)dyn_storage": {
        "base": "t_address",
        "encoding": "dynamic_array",
        "label": "address[]",
        "numberOfBytes": "32"
      },
      "t_bool": {
        "encoding": "inplace",
        "label": "bool",
        "numberOfBytes": "1"
      },
      "t_contract(IModuleMap)19935": {
        "encoding": "inplace",
        "label": "contract IModuleMap",
        "numberOfBytes": "20"
      },
      "t_int256": {
        "encoding": "inplace",
        "label": "int256",
        "numberOfBytes": "32"
      },
      "t_mapping(t_address,t_bool)": {
        "encoding": "mapping",
        "key": "t_address",
        "label": "mapping(address => bool)",
        "numberOfBytes": "32",
        "value": "t_bool"
      },
      "t_mapping(t_address,t_mapping(t_uint256,t_struct(UserInfo)18812_storage))": {
        "encoding": "mapping",
        "key": "t_address",
        "label": "mapping(address => mapping(uint256 => struct IEtherRewards.UserInfo))",
        "numberOfBytes": "32",
        "value": "t_mapping(t_uint256,t_struct(UserInfo)18812_storage)"
      },
      "t_mapping(t_address,t_uint256)": {
        "encoding": "mapping",
        "key": "t_address",
        "label": "mapping(address => uint256)",
        "numberOfBytes": "32",
        "value": "t_uint256"
      },
      "t_mapping(t_uint256,t_struct(StrategyInfo)18817_storage)": {
        "encoding": "mapping",
        "key": "t_uint256",
        "label": "mapping(uint256 => struct IEtherRewards.StrategyInfo)",
        "numberOfBytes": "32",
        "value": "t_struct(StrategyInfo)18817_storage"
      },
      "t_mapping(t_uint256,t_struct(UserInfo)18812_storage)": {
        "encoding": "mapping",
        "key": "t_uint256",
        "label": "mapping(uint256 => struct IEtherRewards.UserInfo)",
        "numberOfBytes": "32",
        "value": "t_struct(UserInfo)18812_storage"
      },
      "t_struct(StrategyInfo)18817_storage": {
        "encoding": "inplace",
        "label": "struct IEtherRewards.StrategyInfo",
        "members": [
          {
            "astId": 18814,
            "contract": "contracts/core/EtherRewards.sol:EtherRewards",
            "label": "rewardPerShare",
            "offset": 0,
            "slot": "0",
            "type": "t_uint256"
          },
          {
            "astId": 18816,
            "contract": "contracts/core/EtherRewards.sol:EtherRewards",
            "label": "totalRewards",
            "offset": 0,
            "slot": "1",
            "type": "t_uint256"
          }
        ],
        "numberOfBytes": "64"
      },
      "t_struct(UserInfo)18812_storage": {
        "encoding": "inplace",
        "label": "struct IEtherRewards.UserInfo",
        "members": [
          {
            "astId": 18809,
            "contract": "contracts/core/EtherRewards.sol:EtherRewards",
            "label": "rewardDebt",
            "offset": 0,
            "slot": "0",
            "type": "t_int256"
          },
          {
            "astId": 18811,
            "contract": "contracts/core/EtherRewards.sol:EtherRewards",
            "label": "claimedRewards",
            "offset": 0,
            "slot": "1",
            "type": "t_uint256"
          }
        ],
        "numberOfBytes": "64"
      },
      "t_uint256": {
        "encoding": "inplace",
        "label": "uint256",
        "numberOfBytes": "32"
      }
    }
  }
}