{
  "address": "0x599244fd2173EFa672952AC6B24F67FD255B1af8",
  "abi": [
    {
      "anonymous": false,
      "inputs": [
        {
          "indexed": true,
          "internalType": "address",
          "name": "tokenA",
          "type": "address"
        },
        {
          "indexed": true,
          "internalType": "address",
          "name": "tokenB",
          "type": "address"
        },
        {
          "indexed": false,
          "internalType": "uint32",
          "name": "poolID",
          "type": "uint32"
        }
      ],
      "name": "CreatePool",
      "type": "event"
    },
    {
      "anonymous": false,
      "inputs": [
        {
          "indexed": false,
          "internalType": "uint256",
          "name": "poolId",
          "type": "uint256"
        },
        {
          "indexed": false,
          "internalType": "uint256",
          "name": "amount",
          "type": "uint256"
        }
      ],
      "name": "DepositToPool",
      "type": "event"
    },
    {
      "anonymous": false,
      "inputs": [
        {
          "indexed": true,
          "internalType": "uint32",
          "name": "poolID",
          "type": "uint32"
        }
      ],
      "name": "HarvestYieldError",
      "type": "event"
    },
    {
      "anonymous": false,
      "inputs": [
        {
          "indexed": false,
          "internalType": "uint256",
          "name": "amount",
          "type": "uint256"
        }
      ],
      "name": "LPTokensAcquired",
      "type": "event"
    },
    {
      "anonymous": false,
      "inputs": [
        {
          "indexed": false,
          "internalType": "uint256",
          "name": "poolId",
          "type": "uint256"
        },
        {
          "indexed": false,
          "internalType": "address",
          "name": "tokenSold",
          "type": "address"
        },
        {
          "indexed": false,
          "internalType": "uint256",
          "name": "amountSold",
          "type": "uint256"
        },
        {
          "indexed": false,
          "internalType": "address",
          "name": "tokenBought",
          "type": "address"
        },
        {
          "indexed": false,
          "internalType": "uint256",
          "name": "amountBought",
          "type": "uint256"
        }
      ],
      "name": "PoolRebalanced",
      "type": "event"
    },
    {
      "anonymous": false,
      "inputs": [
        {
          "indexed": false,
          "internalType": "uint256",
          "name": "amount",
          "type": "uint256"
        }
      ],
      "name": "TokensReceived",
      "type": "event"
    },
    {
      "anonymous": false,
      "inputs": [
        {
          "indexed": false,
          "internalType": "uint256",
          "name": "poolId",
          "type": "uint256"
        },
        {
          "indexed": false,
          "internalType": "uint256",
          "name": "amount",
          "type": "uint256"
        }
      ],
      "name": "WithdrawnFromPool",
      "type": "event"
    },
    {
      "anonymous": false,
      "inputs": [
        {
          "indexed": false,
          "internalType": "uint256",
          "name": "amount",
          "type": "uint256"
        }
      ],
      "name": "YieldReceived",
      "type": "event"
    },
    {
      "inputs": [
        {
          "internalType": "address[]",
          "name": "controllers_",
          "type": "address[]"
        },
        {
          "internalType": "address",
          "name": "moduleMap_",
          "type": "address"
        }
      ],
      "name": "__Controlled_init",
      "outputs": [],
      "stateMutability": "nonpayable",
      "type": "function"
    },
    {
      "inputs": [
        {
          "internalType": "address",
          "name": "controller",
          "type": "address"
        }
      ],
      "name": "addController",
      "outputs": [],
      "stateMutability": "nonpayable",
      "type": "function"
    },
    {
      "inputs": [
        {
          "internalType": "uint32",
          "name": "poolId",
          "type": "uint32"
        },
        {
          "internalType": "uint256",
          "name": "masterChefPoolId",
          "type": "uint256"
        }
      ],
      "name": "configureStaking",
      "outputs": [],
      "stateMutability": "nonpayable",
      "type": "function"
    },
    {
      "inputs": [
        {
          "internalType": "uint32",
          "name": "poolId",
          "type": "uint32"
        },
        {
          "internalType": "uint256",
          "name": "masterChefPoolId",
          "type": "uint256"
        }
      ],
      "name": "configureStakingOverwrite",
      "outputs": [],
      "stateMutability": "nonpayable",
      "type": "function"
    },
    {
      "inputs": [
        {
          "internalType": "uint256",
          "name": "",
          "type": "uint256"
        }
      ],
      "name": "controllers",
      "outputs": [
        {
          "internalType": "address",
          "name": "",
          "type": "address"
        }
      ],
      "stateMutability": "view",
      "type": "function"
    },
    {
      "inputs": [
        {
          "internalType": "uint32",
          "name": "poolId",
          "type": "uint32"
        },
        {
          "internalType": "uint256",
          "name": "max",
          "type": "uint256"
        }
      ],
      "name": "countExtraReward",
      "outputs": [
        {
          "internalType": "uint256",
          "name": "addedReward",
          "type": "uint256"
        },
        {
          "internalType": "uint256",
          "name": "accountedReward",
          "type": "uint256"
        },
        {
          "internalType": "uint256",
          "name": "extraReward",
          "type": "uint256"
        }
      ],
      "stateMutability": "nonpayable",
      "type": "function"
    },
    {
      "inputs": [
        {
          "internalType": "address",
          "name": "tokenA",
          "type": "address"
        },
        {
          "internalType": "address",
          "name": "tokenB",
          "type": "address"
        },
        {
          "internalType": "uint256",
          "name": "",
          "type": "uint256"
        }
      ],
      "name": "createPool",
      "outputs": [],
      "stateMutability": "nonpayable",
      "type": "function"
    },
    {
      "inputs": [
        {
          "internalType": "uint32",
          "name": "poolId",
          "type": "uint32"
        },
        {
          "internalType": "address",
          "name": "token",
          "type": "address"
        },
        {
          "internalType": "uint256",
          "name": "amount",
          "type": "uint256"
        }
      ],
      "name": "decrementBalance",
      "outputs": [],
      "stateMutability": "nonpayable",
      "type": "function"
    },
    {
      "inputs": [
        {
          "internalType": "uint32",
          "name": "poolId",
          "type": "uint32"
        }
      ],
      "name": "deploy",
      "outputs": [],
      "stateMutability": "nonpayable",
      "type": "function"
    },
    {
      "inputs": [
        {
          "internalType": "address",
          "name": "tokenAddress",
          "type": "address"
        },
        {
          "internalType": "uint256",
          "name": "amount",
          "type": "uint256"
        },
        {
          "internalType": "uint32",
          "name": "poolId",
          "type": "uint32"
        }
      ],
      "name": "deposit",
      "outputs": [],
      "stateMutability": "nonpayable",
      "type": "function"
    },
    {
      "inputs": [
        {
          "internalType": "address",
          "name": "tokenIn",
          "type": "address"
        },
        {
          "internalType": "address",
          "name": "tokenOut",
          "type": "address"
        },
        {
          "internalType": "uint256",
          "name": "amountIn",
          "type": "uint256"
        }
      ],
      "name": "getAmountOut",
      "outputs": [
        {
          "internalType": "uint256",
          "name": "amountOut",
          "type": "uint256"
        }
      ],
      "stateMutability": "view",
      "type": "function"
    },
    {
      "inputs": [
        {
          "internalType": "address",
          "name": "tokenIn",
          "type": "address"
        },
        {
          "internalType": "address",
          "name": "tokenOut",
          "type": "address"
        },
        {
          "internalType": "uint256",
          "name": "amountIn",
          "type": "uint256"
        }
      ],
      "name": "getAmountOutMinimum",
      "outputs": [
        {
          "internalType": "uint256",
          "name": "amountOutMinimum",
          "type": "uint256"
        }
      ],
      "stateMutability": "view",
      "type": "function"
    },
    {
      "inputs": [
        {
          "internalType": "uint32",
          "name": "poolId",
          "type": "uint32"
        },
        {
          "internalType": "address",
          "name": "tokenAddress",
          "type": "address"
        }
      ],
      "name": "getBalance",
      "outputs": [
        {
          "internalType": "uint256",
          "name": "",
          "type": "uint256"
        }
      ],
      "stateMutability": "view",
      "type": "function"
    },
    {
      "inputs": [
        {
          "internalType": "uint32",
          "name": "poolId",
          "type": "uint32"
        }
      ],
      "name": "getHarvestedYield",
      "outputs": [
        {
          "internalType": "uint256",
          "name": "",
          "type": "uint256"
        }
      ],
      "stateMutability": "view",
      "type": "function"
    },
    {
      "inputs": [
        {
          "internalType": "uint32",
          "name": "poolId",
          "type": "uint32"
        }
      ],
      "name": "getPendingYield",
      "outputs": [
        {
          "internalType": "address[1]",
          "name": "tokens",
          "type": "address[1]"
        },
        {
          "internalType": "uint256[1]",
          "name": "amounts",
          "type": "uint256[1]"
        }
      ],
      "stateMutability": "view",
      "type": "function"
    },
    {
      "inputs": [
        {
          "internalType": "uint32",
          "name": "pid",
          "type": "uint32"
        }
      ],
      "name": "getPool",
      "outputs": [
        {
          "components": [
            {
              "internalType": "address",
              "name": "tokenA",
              "type": "address"
            },
            {
              "internalType": "address",
              "name": "tokenB",
              "type": "address"
            },
            {
              "internalType": "uint256",
              "name": "positionID",
              "type": "uint256"
            }
          ],
          "internalType": "struct IAMMIntegration.Pool",
          "name": "",
          "type": "tuple"
        }
      ],
      "stateMutability": "view",
      "type": "function"
    },
    {
      "inputs": [
        {
          "internalType": "uint32",
          "name": "poolId",
          "type": "uint32"
        }
      ],
      "name": "getPoolBalance",
      "outputs": [
        {
          "internalType": "uint256",
          "name": "tokenA",
          "type": "uint256"
        },
        {
          "internalType": "uint256",
          "name": "tokenB",
          "type": "uint256"
        }
      ],
      "stateMutability": "view",
      "type": "function"
    },
    {
      "inputs": [
        {
          "internalType": "uint32[]",
          "name": "pids",
          "type": "uint32[]"
        }
      ],
      "name": "getRewardBalances",
      "outputs": [
        {
          "internalType": "uint256[]",
          "name": "rewardAmounts",
          "type": "uint256[]"
        }
      ],
      "stateMutability": "view",
      "type": "function"
    },
    {
      "inputs": [
        {
          "internalType": "uint32",
          "name": "poolId",
          "type": "uint32"
        }
      ],
      "name": "getStakingPoolId",
      "outputs": [
        {
          "internalType": "uint256",
          "name": "",
          "type": "uint256"
        }
      ],
      "stateMutability": "view",
      "type": "function"
    },
    {
      "inputs": [],
      "name": "getTotalHarvestedYield",
      "outputs": [
        {
          "internalType": "uint256",
          "name": "amount",
          "type": "uint256"
        }
      ],
      "stateMutability": "view",
      "type": "function"
    },
    {
      "inputs": [
        {
          "internalType": "uint32[]",
          "name": "pids",
          "type": "uint32[]"
        }
      ],
      "name": "getYieldBalances",
      "outputs": [
        {
          "internalType": "uint256[]",
          "name": "amounts",
          "type": "uint256[]"
        }
      ],
      "stateMutability": "view",
      "type": "function"
    },
    {
      "inputs": [],
      "name": "harvestYield",
      "outputs": [],
      "stateMutability": "nonpayable",
      "type": "function"
    },
    {
      "inputs": [
        {
          "internalType": "uint32",
          "name": "poolId",
          "type": "uint32"
        },
        {
          "internalType": "uint256",
          "name": "rewardRatioX1000",
          "type": "uint256"
        },
        {
          "internalType": "uint256",
          "name": "",
          "type": "uint256"
        },
        {
          "internalType": "bool",
          "name": "",
          "type": "bool"
        }
      ],
      "name": "harvestYieldByPool",
      "outputs": [],
      "stateMutability": "nonpayable",
      "type": "function"
    },
    {
      "inputs": [
        {
          "internalType": "uint32",
          "name": "poolId",
          "type": "uint32"
        },
        {
          "internalType": "address",
          "name": "token",
          "type": "address"
        },
        {
          "internalType": "uint256",
          "name": "amount",
          "type": "uint256"
        }
      ],
      "name": "incrementBalance",
      "outputs": [],
      "stateMutability": "nonpayable",
      "type": "function"
    },
    {
      "inputs": [
        {
          "internalType": "address[]",
          "name": "controllers_",
          "type": "address[]"
        },
        {
          "internalType": "address",
          "name": "moduleMap_",
          "type": "address"
        },
        {
          "internalType": "address",
          "name": "factoryAddress_",
          "type": "address"
        },
        {
          "internalType": "address",
          "name": "swapRouterAddress_",
          "type": "address"
        },
        {
          "internalType": "address",
          "name": "masterChef_",
          "type": "address"
        },
        {
          "internalType": "address",
          "name": "rewardToken_",
          "type": "address"
        },
        {
          "internalType": "uint24",
          "name": "slippageNumerator_",
          "type": "uint24"
        }
      ],
      "name": "initialize",
      "outputs": [],
      "stateMutability": "nonpayable",
      "type": "function"
    },
    {
      "inputs": [
        {
          "internalType": "uint32",
          "name": "poolId",
          "type": "uint32"
        }
      ],
      "name": "manualDeploy",
      "outputs": [],
      "stateMutability": "nonpayable",
      "type": "function"
    },
    {
      "inputs": [
        {
          "internalType": "address",
          "name": "tokenAddress",
          "type": "address"
        },
        {
          "internalType": "uint256",
          "name": "amount",
          "type": "uint256"
        },
        {
          "internalType": "uint32",
          "name": "poolId",
          "type": "uint32"
        },
        {
          "internalType": "uint256",
          "name": "ratioX1000",
          "type": "uint256"
        }
      ],
      "name": "manualWithdraw",
      "outputs": [],
      "stateMutability": "nonpayable",
      "type": "function"
    },
    {
      "inputs": [
        {
          "internalType": "uint32",
          "name": "poolId",
          "type": "uint32"
        },
        {
          "internalType": "address",
          "name": "destination",
          "type": "address"
        },
        {
          "internalType": "uint256",
          "name": "amount",
          "type": "uint256"
        }
      ],
      "name": "migrateLPTokens",
      "outputs": [],
      "stateMutability": "nonpayable",
      "type": "function"
    },
    {
      "inputs": [
        {
          "internalType": "uint32",
          "name": "sourcePool",
          "type": "uint32"
        },
        {
          "internalType": "address",
          "name": "destination",
          "type": "address"
        },
        {
          "internalType": "uint256",
          "name": "amount",
          "type": "uint256"
        }
      ],
      "name": "migrateRewards",
      "outputs": [],
      "stateMutability": "nonpayable",
      "type": "function"
    },
    {
      "inputs": [],
      "name": "moduleMap",
      "outputs": [
        {
          "internalType": "contract IModuleMap",
          "name": "",
          "type": "address"
        }
      ],
      "stateMutability": "view",
      "type": "function"
    },
    {
      "inputs": [],
      "name": "poolCount",
      "outputs": [
        {
          "internalType": "uint32",
          "name": "",
          "type": "uint32"
        }
      ],
      "stateMutability": "view",
      "type": "function"
    },
    {
      "inputs": [
        {
          "internalType": "uint32",
          "name": "poolId",
          "type": "uint32"
        },
        {
          "internalType": "uint256",
          "name": "ratioX1000",
          "type": "uint256"
        },
        {
          "internalType": "uint256",
          "name": "maxSellTokenA",
          "type": "uint256"
        },
        {
          "internalType": "uint256",
          "name": "maxSellTokenB",
          "type": "uint256"
        }
      ],
      "name": "rebalancePool",
      "outputs": [],
      "stateMutability": "nonpayable",
      "type": "function"
    },
    {
      "inputs": [
        {
          "internalType": "uint32",
          "name": "poolId",
          "type": "uint32"
        }
      ],
      "name": "receiveMigration",
      "outputs": [],
      "stateMutability": "nonpayable",
      "type": "function"
    },
    {
      "inputs": [
        {
          "internalType": "uint32",
          "name": "poolId",
          "type": "uint32"
        }
      ],
      "name": "stakeLPTokens",
      "outputs": [],
      "stateMutability": "nonpayable",
      "type": "function"
    },
    {
      "inputs": [
        {
          "internalType": "address",
          "name": "tokenIn",
          "type": "address"
        },
        {
          "internalType": "address",
          "name": "tokenOut",
          "type": "address"
        },
        {
          "internalType": "address",
          "name": "recipient",
          "type": "address"
        },
        {
          "internalType": "uint256",
          "name": "amountIn",
          "type": "uint256"
        },
        {
          "internalType": "uint256",
          "name": "amountOutMin",
          "type": "uint256"
        }
      ],
      "name": "swapExactInput",
      "outputs": [
        {
          "internalType": "uint256[]",
          "name": "",
          "type": "uint256[]"
        }
      ],
      "stateMutability": "nonpayable",
      "type": "function"
    },
    {
      "inputs": [
        {
          "internalType": "address",
          "name": "tokenAddress",
          "type": "address"
        },
        {
          "internalType": "uint256",
          "name": "amount",
          "type": "uint256"
        },
        {
          "internalType": "uint32",
          "name": "poolId",
          "type": "uint32"
        }
      ],
      "name": "withdraw",
      "outputs": [],
      "stateMutability": "nonpayable",
      "type": "function"
    },
    {
      "inputs": [
        {
          "internalType": "address",
          "name": "tokenAddress",
          "type": "address"
        },
        {
          "internalType": "uint256",
          "name": "amount",
          "type": "uint256"
        },
        {
          "internalType": "uint32",
          "name": "poolId",
          "type": "uint32"
        },
        {
          "internalType": "uint256",
          "name": "ratioX1000",
          "type": "uint256"
        }
      ],
      "name": "withdraw",
      "outputs": [],
      "stateMutability": "nonpayable",
      "type": "function"
    },
    {
      "inputs": [
        {
          "internalType": "uint32",
          "name": "",
          "type": "uint32"
        }
      ],
      "name": "yieldBalances",
      "outputs": [
        {
          "internalType": "uint256",
          "name": "",
          "type": "uint256"
        }
      ],
      "stateMutability": "view",
      "type": "function"
    },
    {
      "stateMutability": "payable",
      "type": "receive"
    }
  ],
  "transactionHash": "0xfa86cef04a0dbf15a7a81e963ac451d9a1da8d61771922738499c89de919610e",
  "args": [],
  "solcInputHash": "55436e7b3ac3741e690ab5356b74d3b9",
  "bytecode": "0x608060405234801561001057600080fd5b50615ea080620000216000396000f3fe6080604052600436106101b95760003560e01c806307054aab146101c55780630c3fa05f146101e75780630f0a1c6f14610207578063364d0f5a146102435780633963f16714610263578063403df5441461028357806349470541146102b15780634aa06652146102de5780634d24e9e41461030c57806351810fb51461032c5780635441c2b61461034c57806355b961801461036c57806358a0f0491461038157806359cf86da146103a15780635ce564f4146103c15780635f53bc43146103e1578063680c3052146104015780636adbcf3c146104215780637534e06014610441578063754a0274146104615780637db2ddfe14610481578063983673d4146104a157806398c671ce146104dc5780639da46ee3146104fc578063a4515d371461054c578063a7fc7a071461057f578063a816800c1461059f578063ac211b95146105bf578063b1cccca2146105df578063ccbfc16c146105ff578063cf73715a1461061f578063d23c84b81461063f578063e7daae2e14610672578063e809529e14610692578063e8d991d1146106bf578063e94b0dd2146106d4578063eb40c545146106f4578063f525cb681461072257600080fd5b366101c057005b600080fd5b3480156101d157600080fd5b506101e56101e03660046157e4565b610754565b005b3480156101f357600080fd5b506101e561020236600461579b565b610998565b34801561021357600080fd5b5060005461022d906201000090046001600160a01b031681565b60405161023a91906158cd565b60405180910390f35b34801561024f57600080fd5b506101e561025e366004615803565b610bbf565b34801561026f57600080fd5b506101e561027e3660046157e4565b610ceb565b34801561028f57600080fd5b506102a361029e36600461579b565b610eaa565b60405161023a929190615914565b3480156102bd57600080fd5b506102d16102cc3660046152e5565b610f6e565b60405161023a9190615979565b3480156102ea57600080fd5b506102fe6102f936600461533f565b610fb7565b60405190815260200161023a565b34801561031857600080fd5b506102d161032736600461559b565b610fd5565b34801561033857600080fd5b506101e561034736600461533f565b6110ca565b34801561035857600080fd5b506102fe6103673660046157b7565b611438565b34801561037857600080fd5b506102fe611469565b34801561038d57600080fd5b506102d161039c36600461559b565b6114af565b3480156103ad57600080fd5b506101e56103bc3660046157e4565b611599565b3480156103cd57600080fd5b506101e56103dc36600461579b565b6116f8565b3480156103ed57600080fd5b506101e56103fc3660046157e4565b611733565b34801561040d57600080fd5b506101e561041c366004615803565b611888565b34801561042d57600080fd5b506101e561043c36600461579b565b6119b0565b34801561044d57600080fd5b506101e561045c36600461582e565b611c9d565b34801561046d57600080fd5b506101e561047c3660046153c0565b611f3d565b34801561048d57600080fd5b506101e561049c36600461537f565b61206d565b3480156104ad57600080fd5b506104c16104bc366004615803565b612199565b6040805193845260208401929092529082015260600161023a565b3480156104e857600080fd5b506101e56104f7366004615407565b6123f6565b34801561050857600080fd5b5061051c61051736600461579b565b61259b565b6040805182516001600160a01b03908116825260208085015190911690820152918101519082015260600161023a565b34801561055857600080fd5b506102fe61056736600461579b565b63ffffffff166000908152600e602052604090205490565b34801561058b57600080fd5b506101e561059a3660046152ad565b6125fa565b3480156105ab57600080fd5b506101e56105ba3660046153c0565b612838565b3480156105cb57600080fd5b506101e56105da366004615877565b612963565b3480156105eb57600080fd5b506101e56105fa36600461537f565b612c40565b34801561060b57600080fd5b506102fe61061a36600461533f565b612ca8565b34801561062b57600080fd5b506101e561063a36600461579b565b612cee565b34801561064b57600080fd5b506102fe61065a36600461579b565b63ffffffff166000908152600b602052604090205490565b34801561067e57600080fd5b506101e561068d366004615456565b612e0a565b34801561069e57600080fd5b506102fe6106ad36600461579b565b600d6020526000908152604090205481565b3480156106cb57600080fd5b506101e5613093565b3480156106e057600080fd5b5061022d6106ef36600461571b565b613287565b34801561070057600080fd5b5061071461070f36600461579b565b6132b1565b60405161023a929190615b9d565b34801561072e57600080fd5b5060095461073f9063ffffffff1681565b60405163ffffffff909116815260200161023a565b600080546040516337c61fc560e11b8152620100009091046001600160a01b031691636f8c3f8a9161078991906004016159bd565b60206040518083038186803b1580156107a157600080fd5b505afa1580156107b5573d6000803e3d6000fd5b505050506040513d601f19601f820116820180604052508101906107d991906152c9565b6001600160a01b031663f3ae2415336040518263ffffffff1660e01b815260040161080491906158cd565b60206040518083038186803b15801561081c57600080fd5b505afa158015610830573d6000803e3d6000fd5b505050506040513d601f19601f82011682018060405250810190610854919061560a565b6108795760405162461bcd60e51b815260040161087090615ae4565b60405180910390fd5b60006108848461259b565b60065490915060009061089f906001600160a01b03166132c7565b60055463ffffffff87166000908152600b602052604090819020549051630441a3e760e41b81529293506001600160a01b039091169163441a3e70916108e9918790600401615b9d565b600060405180830381600087803b15801561090357600080fd5b505af1158015610917573d6000803e3d6000fd5b505050506109258582613346565b5063ffffffff85166000818152600c6020818152604080842087516001600160a01b03908116865281845282862086905595855292825286820180519095168452919052812055825190516109919186918691610981916133a2565b6001600160a01b03169190613433565b5050505050565b600080546040516337c61fc560e11b8152620100009091046001600160a01b031691636f8c3f8a916109cd91906004016159bd565b60206040518083038186803b1580156109e557600080fd5b505afa1580156109f9573d6000803e3d6000fd5b505050506040513d601f19601f82011682018060405250810190610a1d91906152c9565b6001600160a01b031663f3ae2415336040518263ffffffff1660e01b8152600401610a4891906158cd565b60206040518083038186803b158015610a6057600080fd5b505afa158015610a74573d6000803e3d6000fd5b505050506040513d601f19601f82011682018060405250810190610a98919061560a565b610ab45760405162461bcd60e51b815260040161087090615ae4565b63ffffffff81166000908152600860209081526040808320815160608101835281546001600160a01b03908116808352600184015490911694820185905260029092015492810192909252909291610b1491610b0f916133a2565b6132c7565b90508015610bba57600654600090610b34906001600160a01b03166132c7565b60055463ffffffff86166000908152600b602052604090819020549051631c57762b60e31b81529293506001600160a01b039091169163e2bbb15891610b7e918690600401615b9d565b600060405180830381600087803b158015610b9857600080fd5b505af1158015610bac573d6000803e3d6000fd5b505050506109918482613346565b505050565b600080546040516337c61fc560e11b8152620100009091046001600160a01b031691636f8c3f8a91610bf491906004016159bd565b60206040518083038186803b158015610c0c57600080fd5b505afa158015610c20573d6000803e3d6000fd5b505050506040513d601f19601f82011682018060405250810190610c4491906152c9565b6001600160a01b031663f3ae2415336040518263ffffffff1660e01b8152600401610c6f91906158cd565b60206040518083038186803b158015610c8757600080fd5b505afa158015610c9b573d6000803e3d6000fd5b505050506040513d601f19601f82011682018060405250810190610cbf919061560a565b610cdb5760405162461bcd60e51b815260040161087090615ae4565b610ce782826001613489565b5050565b600080546040516337c61fc560e11b8152620100009091046001600160a01b031691636f8c3f8a91610d2091906004016159bd565b60206040518083038186803b158015610d3857600080fd5b505afa158015610d4c573d6000803e3d6000fd5b505050506040513d601f19601f82011682018060405250810190610d7091906152c9565b6001600160a01b031663f3ae2415336040518263ffffffff1660e01b8152600401610d9b91906158cd565b60206040518083038186803b158015610db357600080fd5b505afa158015610dc7573d6000803e3d6000fd5b505050506040513d601f19601f82011682018060405250810190610deb919061560a565b610e075760405162461bcd60e51b815260040161087090615ae4565b63ffffffff83166000908152600f6020526040902054811115610e695760405162461bcd60e51b815260206004820152601a6024820152796e6f7420656e6f75676820726577617264732062616c616e636560301b6044820152606401610870565b63ffffffff83166000908152600f602052604081208054839290610e8e908490615d27565b9091555050600654610bba906001600160a01b03168383613433565b610eb261518a565b610eba61518a565b6006546001600160a01b03908116835263ffffffff84166000818152600f602052604090819020546005549151631778809f60e01b81526004810193909352306024840152921690631778809f9060440160206040518083038186803b158015610f2357600080fd5b505afa158015610f37573d6000803e3d6000fd5b505050506040513d601f19601f82011682018060405250810190610f5b9190615733565b610f659190615c84565b81529092909150565b3360009081526001602052604090205460609060ff16610fa05760405162461bcd60e51b815260040161087090615b32565b610fad8686868686613711565b9695505050505050565b6000806000610fc68686613902565b91509150610fad8483836139d9565b6060816001600160401b03811115610ffd57634e487b7160e01b600052604160045260246000fd5b604051908082528060200260200182016040528015611026578160200160208202803683370190505b50905060005b828110156110c357600f600085858481811061105857634e487b7160e01b600052603260045260246000fd5b905060200201602081019061106d919061579b565b63ffffffff1663ffffffff168152602001908152602001600020548282815181106110a857634e487b7160e01b600052603260045260246000fd5b60209081029190910101526110bc81615d6a565b905061102c565b5092915050565b600080546040516337c61fc560e11b8152620100009091046001600160a01b031691636f8c3f8a916110ff91906004016159bd565b60206040518083038186803b15801561111757600080fd5b505afa15801561112b573d6000803e3d6000fd5b505050506040513d601f19601f8201168201806040525081019061114f91906152c9565b6001600160a01b031663f3ae2415336040518263ffffffff1660e01b815260040161117a91906158cd565b60206040518083038186803b15801561119257600080fd5b505afa1580156111a6573d6000803e3d6000fd5b505050506040513d601f19601f820116820180604052508101906111ca919061560a565b6111e65760405162461bcd60e51b815260040161087090615ae4565b6009805463ffffffff169060006111fc83615d85565b825463ffffffff91821661010093840a9081029083021990911617909255600980548316600090815260086020819052604080832080546001600160a01b03808d166001600160a01b03199283168117909355865489168652838620600190810180548e84169416939093179092559554600a805492830181559095529283047fc65a7bb8d6351c1cf70c95a316cc6a92839c986682d98bc35f958f4883f9d2a801805460046007909516850290970a948816850294909702199095169290921790945583549051636eb1769f60e11b81526000199550929363dd62ed3e936112e99330931691016158e1565b60206040518083038186803b15801561130157600080fd5b505afa158015611315573d6000803e3d6000fd5b505050506040513d601f19601f820116820180604052508101906113399190615733565b1161137557600454611359906001600160a01b0385811691166000613adf565b600454611375906001600160a01b038581169116600019613adf565b60048054604051636eb1769f60e11b8152600019926001600160a01b038681169363dd62ed3e936113ac93309390921691016158e1565b60206040518083038186803b1580156113c457600080fd5b505afa1580156113d8573d6000803e3d6000fd5b505050506040513d601f19601f820116820180604052508101906113fc9190615733565b11610bba5760045461141c906001600160a01b0384811691166000613adf565b600454610bba906001600160a01b038481169116600019613adf565b63ffffffff82166000908152600c602090815260408083206001600160a01b03851684529091529020545b92915050565b6000805b60095463ffffffff90811690821610156114ab5761148f610567826001615c9c565b6114999083615c84565b91506114a481615d85565b905061146d565b5090565b6060816001600160401b038111156114d757634e487b7160e01b600052604160045260246000fd5b604051908082528060200260200182016040528015611500578160200160208202803683370190505b50905060005b828110156110c35761155e84848381811061153157634e487b7160e01b600052603260045260246000fd5b9050602002016020810190611546919061579b565b63ffffffff166000908152600d602052604090205490565b82828151811061157e57634e487b7160e01b600052603260045260246000fd5b602090810291909101015261159281615d6a565b9050611506565b600080546040516337c61fc560e11b8152620100009091046001600160a01b031691636f8c3f8a916115ce91906004016159bd565b60206040518083038186803b1580156115e657600080fd5b505afa1580156115fa573d6000803e3d6000fd5b505050506040513d601f19601f8201168201806040525081019061161e91906152c9565b6001600160a01b031663f3ae2415336040518263ffffffff1660e01b815260040161164991906158cd565b60206040518083038186803b15801561166157600080fd5b505afa158015611675573d6000803e3d6000fd5b505050506040513d601f19601f82011682018060405250810190611699919061560a565b6116b55760405162461bcd60e51b815260040161087090615ae4565b63ffffffff83166000908152600c602090815260408083206001600160a01b0386168452909152812080548392906116ee908490615c84565b9091555050505050565b3360009081526001602052604090205460ff166117275760405162461bcd60e51b815260040161087090615b32565b61173081613bf1565b50565b600080546040516337c61fc560e11b8152620100009091046001600160a01b031691636f8c3f8a9161176891906004016159bd565b60206040518083038186803b15801561178057600080fd5b505afa158015611794573d6000803e3d6000fd5b505050506040513d601f19601f820116820180604052508101906117b891906152c9565b6001600160a01b031663f3ae2415336040518263ffffffff1660e01b81526004016117e391906158cd565b60206040518083038186803b1580156117fb57600080fd5b505afa15801561180f573d6000803e3d6000fd5b505050506040513d601f19601f82011682018060405250810190611833919061560a565b61184f5760405162461bcd60e51b815260040161087090615ae4565b63ffffffff83166000908152600c602090815260408083206001600160a01b0386168452909152812080548392906116ee908490615d27565b600080546040516337c61fc560e11b8152620100009091046001600160a01b031691636f8c3f8a916118bd91906004016159bd565b60206040518083038186803b1580156118d557600080fd5b505afa1580156118e9573d6000803e3d6000fd5b505050506040513d601f19601f8201168201806040525081019061190d91906152c9565b6001600160a01b031663f3ae2415336040518263ffffffff1660e01b815260040161193891906158cd565b60206040518083038186803b15801561195057600080fd5b505afa158015611964573d6000803e3d6000fd5b505050506040513d601f19601f82011682018060405250810190611988919061560a565b6119a45760405162461bcd60e51b815260040161087090615ae4565b610ce782826000613489565b600080546040516337c61fc560e11b8152620100009091046001600160a01b031691636f8c3f8a916119e591906004016159bd565b60206040518083038186803b1580156119fd57600080fd5b505afa158015611a11573d6000803e3d6000fd5b505050506040513d601f19601f82011682018060405250810190611a3591906152c9565b6001600160a01b031663f3ae2415336040518263ffffffff1660e01b8152600401611a6091906158cd565b60206040518083038186803b158015611a7857600080fd5b505afa158015611a8c573d6000803e3d6000fd5b505050506040513d601f19601f82011682018060405250810190611ab0919061560a565b611acc5760405162461bcd60e51b815260040161087090615ae4565b6000611ad78261259b565b80519091506001600160a01b0316611b215760405162461bcd60e51b815260206004820152600d60248201526c1b5d5cdd08185919081c1bdbdb609a1b6044820152606401610870565b6006546040516370a0823160e01b81526001600160a01b03909116906370a0823190611b519030906004016158cd565b60206040518083038186803b158015611b6957600080fd5b505afa158015611b7d573d6000803e3d6000fd5b505050506040513d601f19601f82011682018060405250810190611ba19190615733565b63ffffffff83166000908152600f602090815260408220929092558251918301519091611bcd916133a2565b6001600160a01b03166370a08231306040518263ffffffff1660e01b8152600401611bf891906158cd565b60206040518083038186803b158015611c1057600080fd5b505afa158015611c24573d6000803e3d6000fd5b505050506040513d601f19601f82011682018060405250810190611c489190615733565b9050600080516020615e4b83398151915281604051611c6991815260200190565b60405180910390a1600080516020615e0b8339815191528382604051611c90929190615c1b565b60405180910390a1505050565b600080546040516337c61fc560e11b8152620100009091046001600160a01b031691636f8c3f8a91611cd291906004016159bd565b60206040518083038186803b158015611cea57600080fd5b505afa158015611cfe573d6000803e3d6000fd5b505050506040513d601f19601f82011682018060405250810190611d2291906152c9565b6001600160a01b031663f3ae2415336040518263ffffffff1660e01b8152600401611d4d91906158cd565b60206040518083038186803b158015611d6557600080fd5b505afa158015611d79573d6000803e3d6000fd5b505050506040513d601f19601f82011682018060405250810190611d9d919061560a565b611db95760405162461bcd60e51b815260040161087090615ae4565b600654600090611dd1906001600160a01b03166132c7565b60055463ffffffff87166000908152600b6020526040808220549051631c57762b60e31b81529394506001600160a01b039092169263e2bbb15892611e1a929091600401615b9d565b600060405180830381600087803b158015611e3457600080fd5b505af1158015611e48573d6000803e3d6000fd5b50505050611e568582613346565b5063ffffffff85166000908152600f60205260409020548015611f3557600654600754611e90916001600160a01b03908116911687613e36565b600654600754600091611ebc916001600160a01b0391821691163085611eb7848483612ca8565b613711565b63ffffffff88166000908152600f6020526040812055805190915081906001908110611ef857634e487b7160e01b600052603260045260246000fd5b6020026020010151600d60008963ffffffff1663ffffffff1681526020019081526020016000206000828254611f2e9190615c84565b9091555050505b505050505050565b600080546040516337c61fc560e11b8152620100009091046001600160a01b031691636f8c3f8a91611f7291906004016159bd565b60206040518083038186803b158015611f8a57600080fd5b505afa158015611f9e573d6000803e3d6000fd5b505050506040513d601f19601f82011682018060405250810190611fc291906152c9565b6001600160a01b031663f3ae2415336040518263ffffffff1660e01b8152600401611fed91906158cd565b60206040518083038186803b15801561200557600080fd5b505afa158015612019573d6000803e3d6000fd5b505050506040513d601f19601f8201168201806040525081019061203d919061560a565b6120595760405162461bcd60e51b815260040161087090615ae4565b612067848484846000613e61565b50505050565b3360009081526001602052604090205460ff1661209c5760405162461bcd60e51b815260040161087090615b32565b6120a68184611438565b821161218a57600080546040516337c61fc560e11b815261214692620100009092046001600160a01b031691636f8c3f8a916120e591906004016159bd565b60206040518083038186803b1580156120fd57600080fd5b505afa158015612111573d6000803e3d6000fd5b505050506040513d601f19601f8201168201806040525081019061213591906152c9565b6001600160a01b0385169084613433565b63ffffffff81166000908152600c602090815260408083206001600160a01b03871684529091528120805484929061217f908490615d27565b90915550610bba9050565b610bba83838360006001613e61565b600080546040516337c61fc560e11b815282918291620100009091046001600160a01b031690636f8c3f8a906121d39084906004016159bd565b60206040518083038186803b1580156121eb57600080fd5b505afa1580156121ff573d6000803e3d6000fd5b505050506040513d601f19601f8201168201806040525081019061222391906152c9565b6001600160a01b031663f3ae2415336040518263ffffffff1660e01b815260040161224e91906158cd565b60206040518083038186803b15801561226657600080fd5b505afa15801561227a573d6000803e3d6000fd5b505050506040513d601f19601f8201168201806040525081019061229e919061560a565b6122ba5760405162461bcd60e51b815260040161087090615ae4565b60095463ffffffff16806123265760405162461bcd60e51b815260206004820152602d60248201527f43616e6e6f7420636f756e7420657874726120726577617264207768656e206e60448201526c1bc81c1bdbdb1cc8195e1a5cdd609a1b6064820152608401610870565b60005b818163ffffffff16101561237957600f6000612346836001615c9c565b63ffffffff1681526020810191909152604001600020546123679085615c84565b935061237281615d85565b9050612329565b506006548390612391906001600160a01b03166132c7565b61239b9190615d27565b915081156123ee576000851180156123b257508185105b6123bc57816123be565b845b63ffffffff87166000908152600f60205260408120805492965086929091906123e8908490615c84565b90915550505b509250925092565b600054610100900460ff166124115760005460ff1615612415565b303b155b6124315760405162461bcd60e51b815260040161087090615a45565b600054610100900460ff16158015612453576000805461ffff19166101011790555b6001600160a01b0382166124795760405162461bcd60e51b815260040161087090615a93565b60005b83518110156124f15760006001600160a01b03168482815181106124b057634e487b7160e01b600052603260045260246000fd5b60200260200101516001600160a01b031614156124df5760405162461bcd60e51b815260040161087090615a93565b806124e981615d6a565b91505061247c565b5060005b835181101561256757600180600086848151811061252357634e487b7160e01b600052603260045260246000fd5b6020908102919091018101516001600160a01b03168252810191909152604001600020805460ff19169115159190911790558061255f81615d6a565b9150506124f5565b50825161257b9060029060208601906151a8565b506125858261405f565b8015610bba576000805461ff0019169055505050565b60408051606080820183526000808352602080840182905292840181905263ffffffff94909416845260088252928290208251938401835280546001600160a01b03908116855260018201541691840191909152600201549082015290565b600080546040516337c61fc560e11b8152620100009091046001600160a01b031691636f8c3f8a9161262f91906004016159bd565b60206040518083038186803b15801561264757600080fd5b505afa15801561265b573d6000803e3d6000fd5b505050506040513d601f19601f8201168201806040525081019061267f91906152c9565b6001600160a01b0316632f54bf6e336040518263ffffffff1660e01b81526004016126aa91906158cd565b60206040518083038186803b1580156126c257600080fd5b505afa1580156126d6573d6000803e3d6000fd5b505050506040513d601f19601f820116820180604052508101906126fa919061560a565b6127595760405162461bcd60e51b815260206004820152602a60248201527f436f6e74726f6c6c65643a3a6f6e6c794f776e65723a2043616c6c6572206973604482015269103737ba1037bbb732b960b11b6064820152608401610870565b6001600160a01b03811660009081526001602081905260408220805460ff19169091179055805b6002548110156127e157600281815481106127ab57634e487b7160e01b600052603260045260246000fd5b6000918252602090912001546001600160a01b03848116911614156127cf57600191505b806127d981615d6a565b915050612780565b5080610ce757600280546001810182556000919091527f405787fa12a823e0f2b7631cc41b3ba8828b3321ca811111fa75cd3aa3bb5ace0180546001600160a01b0384166001600160a01b03199091161790555050565b3360009081526001602052604090205460ff166128675760405162461bcd60e51b815260040161087090615b32565b6128718285611438565b831161295557600080546040516337c61fc560e11b815261291192620100009092046001600160a01b031691636f8c3f8a916128b091906004016159bd565b60206040518083038186803b1580156128c857600080fd5b505afa1580156128dc573d6000803e3d6000fd5b505050506040513d601f19601f8201168201806040525081019061290091906152c9565b6001600160a01b0386169085613433565b63ffffffff82166000908152600c602090815260408083206001600160a01b03881684529091528120805485929061294a908490615d27565b909155506120679050565b612067848484846001613e61565b600080546040516337c61fc560e11b8152620100009091046001600160a01b031691636f8c3f8a9161299891906004016159bd565b60206040518083038186803b1580156129b057600080fd5b505afa1580156129c4573d6000803e3d6000fd5b505050506040513d601f19601f820116820180604052508101906129e891906152c9565b6001600160a01b031663f3ae2415336040518263ffffffff1660e01b8152600401612a1391906158cd565b60206040518083038186803b158015612a2b57600080fd5b505afa158015612a3f573d6000803e3d6000fd5b505050506040513d601f19601f82011682018060405250810190612a63919061560a565b612a7f5760405162461bcd60e51b815260040161087090615ae4565b6000612a8a8561259b565b63ffffffff86166000908152600860205260409020549091506001600160a01b0316612ac85760405162461bcd60e51b815260040161087090615ab8565b612adb8160000151826020015186613e36565b600080612b0383612af0898660000151611438565b612afe8a8760200151611438565b6140f3565b91509150600080612b178486858a8a61417e565b915091506000612b26826132c7565b9050612b3a85833086611eb78a888a612ca8565b50600081612b47846132c7565b612b519190615d27565b90508015612c335763ffffffff8b166000908152600c602090815260408083206001600160a01b038a16845290915281208054869290612b92908490615d27565b909155505063ffffffff8b166000908152600c602090815260408083206001600160a01b038716845290915281208054839290612bd0908490615c84565b90915550506040805163ffffffff8d1681526001600160a01b038881166020830152818301879052851660608201526080810183905290517f3318ce2371d9cd19d64b4ca999bd8bdcfcf18e4ec416d7dc611b729b2e59c5009181900360a00190a15b5050505050505050505050565b3360009081526001602052604090205460ff16612c6f5760405162461bcd60e51b815260040161087090615b32565b63ffffffff81166000908152600c602090815260408083206001600160a01b0387168452909152812080548492906116ee908490615c84565b600354600090620f424090612cc29062ffffff1682615d03565b62ffffff16612cd2868686610fb7565b612cdc9190615ce4565b612ce69190615cc4565b949350505050565b600080546040516337c61fc560e11b8152620100009091046001600160a01b031691636f8c3f8a91612d2391906004016159bd565b60206040518083038186803b158015612d3b57600080fd5b505afa158015612d4f573d6000803e3d6000fd5b505050506040513d601f19601f82011682018060405250810190612d7391906152c9565b6001600160a01b031663f3ae2415336040518263ffffffff1660e01b8152600401612d9e91906158cd565b60206040518083038186803b158015612db657600080fd5b505afa158015612dca573d6000803e3d6000fd5b505050506040513d601f19601f82011682018060405250810190612dee919061560a565b6117275760405162461bcd60e51b815260040161087090615ae4565b600054610100900460ff16612e255760005460ff1615612e29565b303b155b612e455760405162461bcd60e51b815260040161087090615a45565b600054610100900460ff16158015612e67576000805461ffff19166101011790555b6001600160a01b038616612e8d5760405162461bcd60e51b815260040161087090615a93565b6001600160a01b038516612eb35760405162461bcd60e51b815260040161087090615a93565b6001600160a01b038416612ed95760405162461bcd60e51b815260040161087090615a93565b6001600160a01b038316612eff5760405162461bcd60e51b815260040161087090615a93565b612f0988886123f6565b60038054600480546001600160a01b03199081166001600160a01b038a81169190911783556005805483168a83161790556001600160b81b031990931663010000008b85160262ffffff19161762ffffff8716178455600680549091168784161790556000546040516337c61fc560e11b81526201000090910490921692636f8c3f8a92612f9792016159bd565b60206040518083038186803b158015612faf57600080fd5b505afa158015612fc3573d6000803e3d6000fd5b505050506040513d601f19601f82011682018060405250810190612fe791906152c9565b6001600160a01b0316638b9c94896040518163ffffffff1660e01b815260040160206040518083038186803b15801561301f57600080fd5b505afa158015613033573d6000803e3d6000fd5b505050506040513d601f19601f8201168201806040525081019061305791906152c9565b600780546001600160a01b0319166001600160a01b03929092169190911790558015613089576000805461ff00191690555b5050505050505050565b3360009081526001602052604090205460ff166130c25760405162461bcd60e51b815260040161087090615b32565b6000805b60095463ffffffff168110156131ae576000600a82815481106130f957634e487b7160e01b600052603260045260246000fd5b6000918252602080832060088304015460079092166004026101000a90910463ffffffff16808352600d909152604090912054909150801561319b5763ffffffff82166000908152600d60205260409020546131559085615c84565b63ffffffff83166000908152600e602052604081208054929650839290919061317f908490615c84565b909155505063ffffffff82166000908152600d60205260408120555b5050806131a790615d6a565b90506130c6565b508015611730576000546040516337c61fc560e11b8152613251916201000090046001600160a01b031690636f8c3f8a906131ee906002906004016159bd565b60206040518083038186803b15801561320657600080fd5b505afa15801561321a573d6000803e3d6000fd5b505050506040513d601f19601f8201168201806040525081019061323e91906152c9565b6007546001600160a01b03169083613433565b6040518181527fd0e841f234010ad7f57b7c09faffb2245cd240429c6e8fa3cd934a0a8bf58eb09060200160405180910390a150565b6002818154811061329757600080fd5b6000918252602090912001546001600160a01b0316905081565b6000806132bd836141da565b9094909350915050565b6040516370a0823160e01b81526000906001600160a01b038316906370a08231906132f69030906004016158cd565b60206040518083038186803b15801561330e57600080fd5b505afa158015613322573d6000803e3d6000fd5b505050506040513d601f19601f820116820180604052508101906114639190615733565b6006546000908290613360906001600160a01b03166132c7565b61336a9190615d27565b905080156114635763ffffffff83166000908152600f602052604081208054839290613397908490615c84565b909155505092915050565b60035460405163e6a4390560e01b8152600091630100000090046001600160a01b03169063e6a43905906133dc90869086906004016158e1565b60206040518083038186803b1580156133f457600080fd5b505afa158015613408573d6000803e3d6000fd5b505050506040513d601f19601f8201168201806040525081019061342c91906152c9565b9392505050565b610bba8363a9059cbb60e01b84846040516024016134529291906158fb565b60408051601f198184030181529190526020810180516001600160e01b03166001600160e01b0319909316929092179091526144cd565b60006134948461259b565b80519091506001600160a01b03166134be5760405162461bcd60e51b815260040161087090615ab8565b6001821515146135285763ffffffff84166000908152600b6020526040902054156135285760405162461bcd60e51b815260206004820152601a60248201527914dd185ada5b99c8185b1c9958591e4818dbdb999a59dd5c995960321b6044820152606401610870565b600554604051631526fe2760e01b8152600481018590526000916001600160a01b031690631526fe279060240160806040518083038186803b15801561356d57600080fd5b505afa158015613581573d6000803e3d6000fd5b505050506040513d601f19601f820116820180604052508101906135a59190615626565b905060006135bb836000015184602001516133a2565b9050806001600160a01b031682600001516001600160a01b0316146136355760405162461bcd60e51b815260206004820152602a60248201527f496e636f7272656374204d617374657243686566277320706f6f6c49642077616044820152691cc81c1c9bdd9a59195960b21b6064820152608401610870565b63ffffffff86166000908152600b6020526040908190208690556005549051636eb1769f60e11b8152600019916001600160a01b038085169263dd62ed3e926136859230929116906004016158e1565b60206040518083038186803b15801561369d57600080fd5b505afa1580156136b1573d6000803e3d6000fd5b505050506040513d601f19601f820116820180604052508101906136d59190615733565b11611f35576005546136f5906001600160a01b0383811691166000613adf565b600554611f35906001600160a01b038381169116600019613adf565b60408051600280825260608083018452926000929190602083019080368337019050509050868160008151811061375857634e487b7160e01b600052603260045260246000fd5b60200260200101906001600160a01b031690816001600160a01b031681525050858160018151811061379a57634e487b7160e01b600052603260045260246000fd5b6001600160a01b03928316602091820292909201015260048054604051636eb1769f60e11b8152429388938c82169363dd62ed3e936137de933093921691016158e1565b60206040518083038186803b1580156137f657600080fd5b505afa15801561380a573d6000803e3d6000fd5b505050506040513d601f19601f8201168201806040525081019061382e9190615733565b10156138695760045461384f906001600160a01b038a811691166000613adf565b600454613869906001600160a01b038a8116911687613adf565b600480546040516338ed173960e01b81526001600160a01b03909116916338ed1739916138a0918991899188918d91899101615bab565b600060405180830381600087803b1580156138ba57600080fd5b505af11580156138ce573d6000803e3d6000fd5b505050506040513d6000823e601f3d908101601f191682016040526138f69190810190615509565b98975050505050505050565b6000806000613911858561459f565b50905060008061392187876133a2565b6001600160a01b0316630902f1ac6040518163ffffffff1660e01b815260040160606040518083038186803b15801561395957600080fd5b505afa15801561396d573d6000803e3d6000fd5b505050506040513d601f19601f8201168201806040525081019061399191906156e0565b506001600160701b031691506001600160701b03169150826001600160a01b0316876001600160a01b0316146139c85780826139cb565b81815b909890975095505050505050565b6000808411613a355760405162461bcd60e51b815260206004820152602260248201527f616d6f756e74496e206d7573742062652067726561746572207468616e207a65604482015261726f60f01b6064820152608401610870565b600083118015613a455750600082115b613a915760405162461bcd60e51b815260206004820152601d60248201527f4e6f206c697175696469747920696e20706f6f6c2072657365727665730000006044820152606401610870565b6000613a9f856103e5615ce4565b90506000613aad8483615ce4565b9050600082613abe876103e8615ce4565b613ac89190615c84565b9050613ad48183615cc4565b979650505050505050565b801580613b675750604051636eb1769f60e11b81526001600160a01b0384169063dd62ed3e90613b1590309086906004016158e1565b60206040518083038186803b158015613b2d57600080fd5b505afa158015613b41573d6000803e3d6000fd5b505050506040513d601f19601f82011682018060405250810190613b659190615733565b155b613bd25760405162461bcd60e51b815260206004820152603660248201527f5361666545524332303a20617070726f76652066726f6d206e6f6e2d7a65726f60448201527520746f206e6f6e2d7a65726f20616c6c6f77616e636560501b6064820152608401610870565b610bba8363095ea7b360e01b84846040516024016134529291906158fb565b6000613bfc8261259b565b63ffffffff83166000908152600860205260409020549091506001600160a01b0316613c3a5760405162461bcd60e51b815260040161087090615ab8565b6000613c4a838360000151611438565b90506000613c5c848460200151611438565b9050811580613c69575080155b15613c745750505050565b600080613c8985600001518660200151613902565b91509150600080613c9c86868686614674565b600480548a5160208c015160405162e8e33760e81b81526001600160a01b039283169481019490945281166024840152604483018590526064830184905260006084840181905260a484018190523060c48501524260e4850152949650929450919091169063e8e337009061010401606060405180830381600087803b158015613d2557600080fd5b505af1158015613d39573d6000803e3d6000fd5b505050506040513d601f19601f82011682018060405250810190613d5d919061576e565b63ffffffff8c166000908152600c602090815260408083208e516001600160a01b0316845290915281208054929550879450925090613d9d908490615d27565b909155505063ffffffff89166000908152600c602090815260408083208b8301516001600160a01b0316845290915281208054849290613dde908490615d27565b9091555050604051818152600080516020615e4b8339815191529060200160405180910390a1600080516020615e0b8339815191528982604051613e23929190615c1b565b60405180910390a1505050505050505050565b6000613e4284846133a2565b9050600080613e518686613902565b91509150611f35838383876147b8565b6000613e6c8461259b565b90508215613e8757613e878160000151826020015185613e36565b6000613e948588886148e2565b600654909150600090613eaf906001600160a01b03166132c7565b60055463ffffffff88166000908152600b602052604090819020549051630441a3e760e41b81529293506001600160a01b039091169163441a3e7091613ef9918690600401615b9d565b600060405180830381600087803b158015613f1357600080fd5b505af1158015613f27573d6000803e3d6000fd5b50505050613f358682613346565b5060045483516020850151613f6a926001600160a01b0316918591613f5a91906133a2565b6001600160a01b03169190613adf565b6004548351602085015160009283926001600160a01b039091169163baa2abde919087858030613f9c42610168615c84565b60405160e089901b6001600160e01b03191681526001600160a01b039788166004820152958716602487015260448601949094526064850192909252608484015290921660a482015260c481019190915260e4016040805180830381600087803b15801561400957600080fd5b505af115801561401d573d6000803e3d6000fd5b505050506040513d601f19601f82011682018060405250810190614041919061574b565b9150915061405385898c85858b614afa565b50505050505050505050565b600054610100900460ff1661407a5760005460ff161561407e565b303b155b61409a5760405162461bcd60e51b815260040161087090615a45565b600054610100900460ff161580156140bc576000805461ffff19166101011790555b6000805462010000600160b01b031916620100006001600160a01b038516021790558015610ce7576000805461ff00191690555050565b600080806141018486615c84565b116141585760405162461bcd60e51b815260206004820152602160248201527f53706972697453776170496e746567726174696f6e3a206e6f2062616c616e636044820152606560f81b6064820152608401610870565b60008061416d87600001518860200151613902565b915091506139cb8787878585614ecb565b60008085600001516001600160a01b0316876001600160a01b031614156141bb575060208501518385106141b257836141b4565b845b91506141d0565b5084518285106141cb57826141cd565b845b91505b9550959350505050565b60008060006141e88461259b565b60055463ffffffff86166000908152600b60205260408082205490516393f1a40b60e01b815293945090926001600160a01b03909216916393f1a40b91614233913090600401615b86565b604080518083038186803b15801561424a57600080fd5b505afa15801561425e573d6000803e3d6000fd5b505050506040513d601f19601f820116820180604052508101906142829190615693565b518251602084015161429491906133a2565b6001600160a01b03166370a08231306040518263ffffffff1660e01b81526004016142bf91906158cd565b60206040518083038186803b1580156142d757600080fd5b505afa1580156142eb573d6000803e3d6000fd5b505050506040513d601f19601f8201168201806040525081019061430f9190615733565b6143199190615c84565b90506144c181614331846000015185602001516133a2565b6001600160a01b03166318160ddd6040518163ffffffff1660e01b815260040160206040518083038186803b15801561436957600080fd5b505afa15801561437d573d6000803e3d6000fd5b505050506040513d601f19601f820116820180604052508101906143a19190615733565b845160208601516001600160a01b038216916370a08231916143c391906133a2565b6040518263ffffffff1660e01b81526004016143df91906158cd565b60206040518083038186803b1580156143f757600080fd5b505afa15801561440b573d6000803e3d6000fd5b505050506040513d601f19601f8201168201806040525081019061442f9190615733565b602086015186516001600160a01b038216916370a0823191614450916133a2565b6040518263ffffffff1660e01b815260040161446c91906158cd565b60206040518083038186803b15801561448457600080fd5b505afa158015614498573d6000803e3d6000fd5b505050506040513d601f19601f820116820180604052508101906144bc9190615733565b61502d565b90969095509350505050565b6000614522826040518060400160405280602081526020017f5361666545524332303a206c6f772d6c6576656c2063616c6c206661696c6564815250856001600160a01b031661508f9092919063ffffffff16565b805190915015610bba5780806020019051810190614540919061560a565b610bba5760405162461bcd60e51b815260206004820152602a60248201527f5361666545524332303a204552433230206f7065726174696f6e20646964206e6044820152691bdd081cdd58d8d9595960b21b6064820152608401610870565b600080826001600160a01b0316846001600160a01b031614156146005760405162461bcd60e51b81526020600482015260196024820152784964656e746963616c20746f6b656e2061646472657373657360381b6044820152606401610870565b826001600160a01b0316846001600160a01b031610614620578284614623565b83835b90925090506001600160a01b03821661466d5760405162461bcd60e51b815260206004820152600c60248201526b5a65726f206164647265737360a01b6044820152606401610870565b9250929050565b600080828411156147155760008361468e866103e8615ce4565b6146989190615cc4565b905060006103e86146a98389615ce4565b6146b39190615cc4565b9050808810156146de57879350816146cd856103e8615ce4565b6146d79190615cc4565b925061470e565b87811015614707576103e86146f38389615ce4565b6146fd9190615cc4565b935086925061470e565b8793508692505b50506147af565b828410156147af5760008461472c856103e8615ce4565b6147369190615cc4565b905060006103e8614747838a615ce4565b6147519190615cc4565b90508087101561477c5781614768886103e8615ce4565b6147729190615cc4565b93508692506147ac565b868110156147a5578793506103e86147948386615ce4565b61479e9190615cc4565b92506147ac565b8793508692505b50505b94509492505050565b6001600160a01b03841661480d5760405162461bcd60e51b815260206004820152601c60248201527b2a3930b232b92537b2a4b73a32b3b930ba34b7b71d2130b22830b4b960211b6044820152606401610870565b6000828410156148355783614824846103e8615ce4565b61482e9190615cc4565b905061484f565b8383101561484a5782614824856103e8615ce4565b506103e85b8181111561489b576001826148648184615d27565b61486f906064615ce4565b6148799190615cc4565b106148965760405162461bcd60e51b815260040161087090615a18565b610991565b80821115610991576001826148b08382615d27565b6148bb906064615ce4565b6148c59190615cc4565b106109915760405162461bcd60e51b815260040161087090615a18565b6000806148ee8561259b565b905060008061490583600001518460200151613902565b91509150600061491d846000015185602001516133a2565b6001600160a01b03166318160ddd6040518163ffffffff1660e01b815260040160206040518083038186803b15801561495557600080fd5b505afa158015614969573d6000803e3d6000fd5b505050506040513d601f19601f8201168201806040525081019061498d9190615733565b60055463ffffffff8a166000908152600b60205260408082205490516393f1a40b60e01b815293945090926001600160a01b03909216916393f1a40b916149d8913090600401615b86565b604080518083038186803b1580156149ef57600080fd5b505afa158015614a03573d6000803e3d6000fd5b505050506040513d601f19601f82011682018060405250810190614a279190615693565b5185519091506000906001600160a01b038a811691161415614a75578215614a6b5782614a5c86670de0b6b3a7640000615ce4565b614a669190615cc4565b614a6e565b60005b9050614aa3565b8215614a9d5782614a8e85670de0b6b3a7640000615ce4565b614a989190615cc4565b614aa0565b60005b90505b80614ab7576000965050505050505061342c565b80614ac360028a615cc4565b614ad590670de0b6b3a7640000615ce4565b614adf9190615cc4565b965081871115614aed578196505b5050505050509392505050565b606086600001516001600160a01b0316856001600160a01b03161415614ce0576020870151614b3190863086611eb7848483612ca8565b90508115614c0d57600080546040516337c61fc560e11b8152614c0892620100009092046001600160a01b031691636f8c3f8a91614b7291906004016159bd565b60206040518083038186803b158015614b8a57600080fd5b505afa158015614b9e573d6000803e3d6000fd5b505050506040513d601f19601f82011682018060405250810190614bc291906152c9565b82600181518110614be357634e487b7160e01b600052603260045260246000fd5b602002602001015186614bf69190615c84565b89516001600160a01b03169190613433565b614c81565b80600181518110614c2e57634e487b7160e01b600052603260045260246000fd5b602002602001015184614c419190615c84565b63ffffffff87166000908152600c602090815260408083208b516001600160a01b0316845290915281208054909190614c7b908490615c84565b90915550505b600080516020615e2b833981519152868583600181518110614cb357634e487b7160e01b600052603260045260246000fd5b6020026020010151614cc59190615c84565b604051614cd3929190615c1b565b60405180910390a1614ec2565b86602001516001600160a01b0316856001600160a01b03161415614ec2578651614d1290863087611eb7848483612ca8565b90508115614df157600080546040516337c61fc560e11b8152614dec92620100009092046001600160a01b031691636f8c3f8a91614d5391906004016159bd565b60206040518083038186803b158015614d6b57600080fd5b505afa158015614d7f573d6000803e3d6000fd5b505050506040513d601f19601f82011682018060405250810190614da391906152c9565b82600181518110614dc457634e487b7160e01b600052603260045260246000fd5b602002602001015185614dd79190615c84565b60208a01516001600160a01b03169190613433565b614e67565b80600181518110614e1257634e487b7160e01b600052603260045260246000fd5b602002602001015183614e259190615c84565b63ffffffff87166000908152600c602090815260408083208b8301516001600160a01b0316845290915281208054909190614e61908490615c84565b90915550505b600080516020615e2b833981519152868483600181518110614e9957634e487b7160e01b600052603260045260246000fd5b6020026020010151614eab9190615c84565b604051614eb9929190615c1b565b60405180910390a15b50505050505050565b60008082841115614f7b57600083614ee5866103e8615ce4565b614eef9190615cc4565b905060006103e8614f008389615ce4565b614f0a9190615cc4565b905080881015614f4f57600282614f238a6103e8615ce4565b614f2d9190615cc4565b614f379089615d27565b614f419190615cc4565b925088602001519350614f74565b87811015614f74576002614f63828a615d27565b614f6d9190615cc4565b8951945092505b50506141d0565b828410156141d057600084614f92856103e8615ce4565b614f9c9190615cc4565b905060006103e8614fad838a615ce4565b614fb79190615cc4565b905086811015614fe5576002614fcd8289615d27565b614fd79190615cc4565b925088602001519350615021565b8087101561502157600282614ffc896103e8615ce4565b6150069190615cc4565b615010908a615d27565b61501a9190615cc4565b8951945092505b50509550959350505050565b6000808085615041886402540be400615ce4565b61504b9190615cc4565b90506402540be40061505d8287615ce4565b6150679190615cc4565b92506402540be4006150798286615ce4565b6150839190615cc4565b91505094509492505050565b6060612ce6848460008585843b6150e85760405162461bcd60e51b815260206004820152601d60248201527f416464726573733a2063616c6c20746f206e6f6e2d636f6e74726163740000006044820152606401610870565b600080866001600160a01b0316858760405161510491906158b1565b60006040518083038185875af1925050503d8060008114615141576040519150601f19603f3d011682016040523d82523d6000602084013e615146565b606091505b5091509150613ad48282866060831561516057508161342c565b8251156151705782518084602001fd5b8160405162461bcd60e51b815260040161087091906159e5565b60405180602001604052806001906020820280368337509192915050565b8280548282559060005260206000209081019282156151fd579160200282015b828111156151fd57825182546001600160a01b0319166001600160a01b039091161782556020909201916001909101906151c8565b506114ab9291505b808211156114ab5760008155600101615205565b600082601f830112615229578081fd5b8135602061523e61523983615c61565b615c31565b80838252828201915082860187848660051b890101111561525d578586fd5b855b8581101561528457813561527281615dd5565b8452928401929084019060010161525f565b5090979650505050505050565b80516001600160701b03811681146152a857600080fd5b919050565b6000602082840312156152be578081fd5b813561342c81615dd5565b6000602082840312156152da578081fd5b815161342c81615dd5565b600080600080600060a086880312156152fc578081fd5b853561530781615dd5565b9450602086013561531781615dd5565b9350604086013561532781615dd5565b94979396509394606081013594506080013592915050565b600080600060608486031215615353578283fd5b833561535e81615dd5565b9250602084013561536e81615dd5565b929592945050506040919091013590565b600080600060608486031215615393578283fd5b833561539e81615dd5565b92506020840135915060408401356153b581615df8565b809150509250925092565b600080600080608085870312156153d5578384fd5b84356153e081615dd5565b93506020850135925060408501356153f781615df8565b9396929550929360600135925050565b60008060408385031215615419578182fd5b82356001600160401b0381111561542e578283fd5b61543a85828601615219565b925050602083013561544b81615dd5565b809150509250929050565b600080600080600080600060e0888a031215615470578485fd5b87356001600160401b03811115615485578586fd5b6154918a828b01615219565b97505060208801356154a281615dd5565b955060408801356154b281615dd5565b945060608801356154c281615dd5565b935060808801356154d281615dd5565b925060a08801356154e281615dd5565b915060c088013562ffffff811681146154f9578182fd5b8091505092959891949750929550565b6000602080838503121561551b578182fd5b82516001600160401b03811115615530578283fd5b8301601f81018513615540578283fd5b805161554e61523982615c61565b80828252848201915084840188868560051b870101111561556d578687fd5b8694505b8385101561558f578051835260019490940193918501918501615571565b50979650505050505050565b600080602083850312156155ad578182fd5b82356001600160401b03808211156155c3578384fd5b818501915085601f8301126155d6578384fd5b8135818111156155e4578485fd5b8660208260051b85010111156155f8578485fd5b60209290920196919550909350505050565b60006020828403121561561b578081fd5b815161342c81615dea565b600060808284031215615637578081fd5b604051608081016001600160401b038111828210171561565957615659615dbf565b604052825161566781615dd5565b808252506020830151602082015260408301516040820152606083015160608201528091505092915050565b6000604082840312156156a4578081fd5b604080519081016001600160401b03811182821017156156c6576156c6615dbf565b604052825181526020928301519281019290925250919050565b6000806000606084860312156156f4578081fd5b6156fd84615291565b925061570b60208501615291565b915060408401516153b581615df8565b60006020828403121561572c578081fd5b5035919050565b600060208284031215615744578081fd5b5051919050565b6000806040838503121561575d578182fd5b505080516020909101519092909150565b600080600060608486031215615782578081fd5b8351925060208401519150604084015190509250925092565b6000602082840312156157ac578081fd5b813561342c81615df8565b600080604083850312156157c9578182fd5b82356157d481615df8565b9150602083013561544b81615dd5565b6000806000606084860312156157f8578081fd5b833561535e81615df8565b60008060408385031215615815578182fd5b823561582081615df8565b946020939093013593505050565b60008060008060808587031215615843578182fd5b843561584e81615df8565b93506020850135925060408501359150606085013561586c81615dea565b939692955090935050565b6000806000806080858703121561588c578182fd5b843561589781615df8565b966020860135965060408601359560600135945092505050565b600082516158c3818460208701615d3e565b9190910192915050565b6001600160a01b0391909116815260200190565b6001600160a01b0392831681529116602082015260400190565b6001600160a01b03929092168252602082015260400190565b60408101818460005b60018110156159455781516001600160a01b031683526020928301929091019060010161591d565b50505060208083018460005b600181101561596e57815183529183019190830190600101615951565b505050509392505050565b6020808252825182820181905260009190848201906040850190845b818110156159b157835183529284019291840191600101615995565b50909695505050505050565b60208101600d83106159df57634e487b7160e01b600052602160045260246000fd5b91905290565b6020815260008251806020840152615a04816040850160208701615d3e565b601f01601f19169190910160400192915050565b60208082526013908201527210d95a5b1a5b99d31a5b5a5d14995858da1959606a1b604082015260600190565b6020808252602e908201527f496e697469616c697a61626c653a20636f6e747261637420697320616c72656160408201526d191e481a5b9a5d1a585b1a5e995960921b606082015260800190565b6020808252600b908201526a626164206164647265737360a81b604082015260600190565b602080825260129082015271141bdbdb08191bd95cdb89dd08195e1a5cdd60721b604082015260600190565b6020808252602e908201527f436f6e74726f6c6c65643a3a6f6e6c794d616e616765723a2043616c6c65722060408201526d34b9903737ba1036b0b730b3b2b960911b606082015260800190565b60208082526034908201527f436f6e74726f6c6c65643a3a6f6e6c79436f6e74726f6c6c65723a2043616c6c60408201527332b91034b9903737ba1031b7b73a3937b63632b960611b606082015260800190565b9182526001600160a01b0316602082015260400190565b918252602082015260400190565b600060a082018783526020878185015260a0604085015281875180845260c0860191508289019350845b81811015615bfa5784516001600160a01b031683529383019391830191600101615bd5565b50506001600160a01b03969096166060850152505050608001529392505050565b63ffffffff929092168252602082015260400190565b604051601f8201601f191681016001600160401b0381118282101715615c5957615c59615dbf565b604052919050565b60006001600160401b03821115615c7a57615c7a615dbf565b5060051b60200190565b60008219821115615c9757615c97615da9565b500190565b600063ffffffff808316818516808303821115615cbb57615cbb615da9565b01949350505050565b600082615cdf57634e487b7160e01b81526012600452602481fd5b500490565b6000816000190483118215151615615cfe57615cfe615da9565b500290565b600062ffffff83811690831681811015615d1f57615d1f615da9565b039392505050565b600082821015615d3957615d39615da9565b500390565b60005b83811015615d59578181015183820152602001615d41565b838111156120675750506000910152565b6000600019821415615d7e57615d7e615da9565b5060010190565b600063ffffffff80831681811415615d9f57615d9f615da9565b6001019392505050565b634e487b7160e01b600052601160045260246000fd5b634e487b7160e01b600052604160045260246000fd5b6001600160a01b038116811461173057600080fd5b801515811461173057600080fd5b63ffffffff8116811461173057600080fdfeb28fd890673610fa2a3efb1cf64ae1b26dd83c3261fbd99f0d4a5821ccdaa9936fb183d14e6407db4dfb55deb83841283e9e3015e3aabe210d446b16f1ce0937250600b7e1d8b908a0f07fa409e087c1b43ef3a5de3c0e23a41998c311f0ea90a2646970667358221220017d3c793f96692223b5d20402bcf2c429fbac6c09a17d1cb38e86bcf709bb0164736f6c63430008040033",
  "devdoc": {
    "kind": "dev",
    "methods": {
      "deposit(address,uint256,uint32)": {
        "params": {
          "amount": "The amount of the token being deposited",
          "tokenAddress": "The address of the deposited token"
        }
      },
      "getAmountOut(address,address,uint256)": {
        "params": {
          "amountIn": "The exact amount of the input to swap",
          "tokenIn": "The address of the input token",
          "tokenOut": "The address of the output token"
        },
        "returns": {
          "amountOut": "The estimated amount of tokenOut to receive"
        }
      },
      "getAmountOutMinimum(address,address,uint256)": {
        "params": {
          "amountIn": "The exact amount of the input to swap",
          "tokenIn": "The address of the input token",
          "tokenOut": "The address of the output token"
        },
        "returns": {
          "amountOutMinimum": "The minimum amount of tokenOut to receive, factoring in allowable slippage"
        }
      },
      "getBalance(uint32,address)": {
        "returns": {
          "_0": "tokenAddress The address of the token to get the balance of"
        }
      },
      "getPendingYield(uint32)": {
        "details": "Returns total amount of pending yield in SPIRIT rewards",
        "params": {
          "poolId": "the integration pool to retrieve yield for"
        },
        "returns": {
          "amounts": "Amounts of pending yield",
          "tokens": "Token addresses of pending yield"
        }
      },
      "harvestYield()": {
        "details": "Harvests token yield from the integration"
      },
      "incrementBalance(uint32,address,uint256)": {
        "params": {
          "amount": "The amount of the token being deposited",
          "token": "The address of the deposited token"
        }
      },
      "initialize(address[],address,address,address,address,address,uint24)": {
        "params": {
          "controllers_": "The address of the controlling contract",
          "factoryAddress_": "The address of the SushiSwap factory contract",
          "swapRouterAddress_": "The address of the router contract"
        }
      },
      "rebalancePool(uint32,uint256,uint256,uint256)": {
        "params": {
          "maxSellTokenA": "max amount of tokenA to sell (to limit rebalancing)",
          "maxSellTokenB": "max amount of tokenB to sell (to limit rebalancing)",
          "poolId": "The ID of the pool to rebalance",
          "ratioX1000": "reserves ratio to control the price slippage"
        }
      },
      "withdraw(address,uint256,uint32)": {
        "params": {
          "amount": "The amoutn of the token to withdraw",
          "tokenAddress": "The address of the underlying token to withdraw"
        }
      }
    },
    "version": 1
  },
  "userdoc": {
    "events": {
      "CreatePool(address,address,uint32)": {
        "notice": "Events"
      }
    },
    "kind": "user",
    "methods": {
      "harvestYieldByPool(uint32,uint256,uint256,bool)": {
        "notice": "Harvest available yield for desired pool"
      },
      "rebalancePool(uint32,uint256,uint256,uint256)": {
        "notice": "Rebalances by attempting to swap up to max to get into position ratio"
      },
      "withdraw(address,uint256,uint32)": {
        "notice": "Withdraws token from the integration"
      }
    },
    "notice": "Integrates 0x Nodes to SpiritSwap",
    "version": 1
  },
  "storageLayout": {
    "storage": [
      {
        "astId": 723,
        "contract": "contracts/yield-integrations/FantomSpiritSwapIntegration.sol:FantomSpiritSwapIntegration",
        "label": "_initialized",
        "offset": 0,
        "slot": "0",
        "type": "t_bool"
      },
      {
        "astId": 726,
        "contract": "contracts/yield-integrations/FantomSpiritSwapIntegration.sol:FantomSpiritSwapIntegration",
        "label": "_initializing",
        "offset": 1,
        "slot": "0",
        "type": "t_bool"
      },
      {
        "astId": 10099,
        "contract": "contracts/yield-integrations/FantomSpiritSwapIntegration.sol:FantomSpiritSwapIntegration",
        "label": "moduleMap",
        "offset": 2,
        "slot": "0",
        "type": "t_contract(IModuleMap)20911"
      },
      {
        "astId": 4667,
        "contract": "contracts/yield-integrations/FantomSpiritSwapIntegration.sol:FantomSpiritSwapIntegration",
        "label": "_controllers",
        "offset": 0,
        "slot": "1",
        "type": "t_mapping(t_address,t_bool)"
      },
      {
        "astId": 4670,
        "contract": "contracts/yield-integrations/FantomSpiritSwapIntegration.sol:FantomSpiritSwapIntegration",
        "label": "controllers",
        "offset": 0,
        "slot": "2",
        "type": "t_array(t_address)dyn_storage"
      },
      {
        "astId": 31349,
        "contract": "contracts/yield-integrations/FantomSpiritSwapIntegration.sol:FantomSpiritSwapIntegration",
        "label": "slippageNumerator",
        "offset": 0,
        "slot": "3",
        "type": "t_uint24"
      },
      {
        "astId": 31351,
        "contract": "contracts/yield-integrations/FantomSpiritSwapIntegration.sol:FantomSpiritSwapIntegration",
        "label": "factoryAddress",
        "offset": 3,
        "slot": "3",
        "type": "t_address"
      },
      {
        "astId": 31353,
        "contract": "contracts/yield-integrations/FantomSpiritSwapIntegration.sol:FantomSpiritSwapIntegration",
        "label": "swapRouterAddress",
        "offset": 0,
        "slot": "4",
        "type": "t_address"
      },
      {
        "astId": 31355,
        "contract": "contracts/yield-integrations/FantomSpiritSwapIntegration.sol:FantomSpiritSwapIntegration",
        "label": "masterChef",
        "offset": 0,
        "slot": "5",
        "type": "t_address"
      },
      {
        "astId": 31357,
        "contract": "contracts/yield-integrations/FantomSpiritSwapIntegration.sol:FantomSpiritSwapIntegration",
        "label": "rewardToken",
        "offset": 0,
        "slot": "6",
        "type": "t_address"
      },
      {
        "astId": 31359,
        "contract": "contracts/yield-integrations/FantomSpiritSwapIntegration.sol:FantomSpiritSwapIntegration",
        "label": "wnativeAddress",
        "offset": 0,
        "slot": "7",
        "type": "t_address"
      },
      {
        "astId": 31364,
        "contract": "contracts/yield-integrations/FantomSpiritSwapIntegration.sol:FantomSpiritSwapIntegration",
        "label": "pools",
        "offset": 0,
        "slot": "8",
        "type": "t_mapping(t_uint256,t_struct(Pool)19296_storage)"
      },
      {
        "astId": 31366,
        "contract": "contracts/yield-integrations/FantomSpiritSwapIntegration.sol:FantomSpiritSwapIntegration",
        "label": "poolCount",
        "offset": 0,
        "slot": "9",
        "type": "t_uint32"
      },
      {
        "astId": 31369,
        "contract": "contracts/yield-integrations/FantomSpiritSwapIntegration.sol:FantomSpiritSwapIntegration",
        "label": "poolIds",
        "offset": 0,
        "slot": "10",
        "type": "t_array(t_uint32)dyn_storage"
      },
      {
        "astId": 31373,
        "contract": "contracts/yield-integrations/FantomSpiritSwapIntegration.sol:FantomSpiritSwapIntegration",
        "label": "stakings",
        "offset": 0,
        "slot": "11",
        "type": "t_mapping(t_uint32,t_uint256)"
      },
      {
        "astId": 31379,
        "contract": "contracts/yield-integrations/FantomSpiritSwapIntegration.sol:FantomSpiritSwapIntegration",
        "label": "balances",
        "offset": 0,
        "slot": "12",
        "type": "t_mapping(t_uint256,t_mapping(t_address,t_uint256))"
      },
      {
        "astId": 31383,
        "contract": "contracts/yield-integrations/FantomSpiritSwapIntegration.sol:FantomSpiritSwapIntegration",
        "label": "yieldBalances",
        "offset": 0,
        "slot": "13",
        "type": "t_mapping(t_uint32,t_uint256)"
      },
      {
        "astId": 31387,
        "contract": "contracts/yield-integrations/FantomSpiritSwapIntegration.sol:FantomSpiritSwapIntegration",
        "label": "harvestedYield",
        "offset": 0,
        "slot": "14",
        "type": "t_mapping(t_uint32,t_uint256)"
      },
      {
        "astId": 31391,
        "contract": "contracts/yield-integrations/FantomSpiritSwapIntegration.sol:FantomSpiritSwapIntegration",
        "label": "rewardBalances",
        "offset": 0,
        "slot": "15",
        "type": "t_mapping(t_uint32,t_uint256)"
      }
    ],
    "types": {
      "t_address": {
        "encoding": "inplace",
        "label": "address",
        "numberOfBytes": "20"
      },
      "t_array(t_address)dyn_storage": {
        "base": "t_address",
        "encoding": "dynamic_array",
        "label": "address[]",
        "numberOfBytes": "32"
      },
      "t_array(t_uint32)dyn_storage": {
        "base": "t_uint32",
        "encoding": "dynamic_array",
        "label": "uint32[]",
        "numberOfBytes": "32"
      },
      "t_bool": {
        "encoding": "inplace",
        "label": "bool",
        "numberOfBytes": "1"
      },
      "t_contract(IModuleMap)20911": {
        "encoding": "inplace",
        "label": "contract IModuleMap",
        "numberOfBytes": "20"
      },
      "t_mapping(t_address,t_bool)": {
        "encoding": "mapping",
        "key": "t_address",
        "label": "mapping(address => bool)",
        "numberOfBytes": "32",
        "value": "t_bool"
      },
      "t_mapping(t_address,t_uint256)": {
        "encoding": "mapping",
        "key": "t_address",
        "label": "mapping(address => uint256)",
        "numberOfBytes": "32",
        "value": "t_uint256"
      },
      "t_mapping(t_uint256,t_mapping(t_address,t_uint256))": {
        "encoding": "mapping",
        "key": "t_uint256",
        "label": "mapping(uint256 => mapping(address => uint256))",
        "numberOfBytes": "32",
        "value": "t_mapping(t_address,t_uint256)"
      },
      "t_mapping(t_uint256,t_struct(Pool)19296_storage)": {
        "encoding": "mapping",
        "key": "t_uint256",
        "label": "mapping(uint256 => struct IAMMIntegration.Pool)",
        "numberOfBytes": "32",
        "value": "t_struct(Pool)19296_storage"
      },
      "t_mapping(t_uint32,t_uint256)": {
        "encoding": "mapping",
        "key": "t_uint32",
        "label": "mapping(uint32 => uint256)",
        "numberOfBytes": "32",
        "value": "t_uint256"
      },
      "t_struct(Pool)19296_storage": {
        "encoding": "inplace",
        "label": "struct IAMMIntegration.Pool",
        "members": [
          {
            "astId": 19291,
            "contract": "contracts/yield-integrations/FantomSpiritSwapIntegration.sol:FantomSpiritSwapIntegration",
            "label": "tokenA",
            "offset": 0,
            "slot": "0",
            "type": "t_address"
          },
          {
            "astId": 19293,
            "contract": "contracts/yield-integrations/FantomSpiritSwapIntegration.sol:FantomSpiritSwapIntegration",
            "label": "tokenB",
            "offset": 0,
            "slot": "1",
            "type": "t_address"
          },
          {
            "astId": 19295,
            "contract": "contracts/yield-integrations/FantomSpiritSwapIntegration.sol:FantomSpiritSwapIntegration",
            "label": "positionID",
            "offset": 0,
            "slot": "2",
            "type": "t_uint256"
          }
        ],
        "numberOfBytes": "96"
      },
      "t_uint24": {
        "encoding": "inplace",
        "label": "uint24",
        "numberOfBytes": "3"
      },
      "t_uint256": {
        "encoding": "inplace",
        "label": "uint256",
        "numberOfBytes": "32"
      },
      "t_uint32": {
        "encoding": "inplace",
        "label": "uint32",
        "numberOfBytes": "4"
      }
    }
  }
}