{
  "address": "0x1ab1b7f506da694305f96bB426d78c68ABF8307e",
  "abi": [
    {
      "anonymous": false,
      "inputs": [
        {
          "indexed": true,
          "internalType": "address",
          "name": "tokenA",
          "type": "address"
        },
        {
          "indexed": true,
          "internalType": "address",
          "name": "tokenB",
          "type": "address"
        },
        {
          "indexed": false,
          "internalType": "uint32",
          "name": "poolID",
          "type": "uint32"
        }
      ],
      "name": "CreatePool",
      "type": "event"
    },
    {
      "anonymous": false,
      "inputs": [
        {
          "indexed": false,
          "internalType": "uint256",
          "name": "poolId",
          "type": "uint256"
        },
        {
          "indexed": false,
          "internalType": "uint256",
          "name": "amount",
          "type": "uint256"
        }
      ],
      "name": "DepositToPool",
      "type": "event"
    },
    {
      "anonymous": false,
      "inputs": [
        {
          "indexed": true,
          "internalType": "uint32",
          "name": "poolID",
          "type": "uint32"
        }
      ],
      "name": "HarvestYieldError",
      "type": "event"
    },
    {
      "anonymous": false,
      "inputs": [
        {
          "indexed": false,
          "internalType": "uint256",
          "name": "amount",
          "type": "uint256"
        }
      ],
      "name": "LPTokensAcquired",
      "type": "event"
    },
    {
      "anonymous": false,
      "inputs": [
        {
          "indexed": false,
          "internalType": "uint256",
          "name": "poolId",
          "type": "uint256"
        },
        {
          "indexed": false,
          "internalType": "address",
          "name": "tokenSold",
          "type": "address"
        },
        {
          "indexed": false,
          "internalType": "uint256",
          "name": "amountSold",
          "type": "uint256"
        },
        {
          "indexed": false,
          "internalType": "address",
          "name": "tokenBought",
          "type": "address"
        },
        {
          "indexed": false,
          "internalType": "uint256",
          "name": "amountBought",
          "type": "uint256"
        }
      ],
      "name": "PoolRebalanced",
      "type": "event"
    },
    {
      "anonymous": false,
      "inputs": [
        {
          "indexed": false,
          "internalType": "uint256",
          "name": "amount",
          "type": "uint256"
        }
      ],
      "name": "TokensReceived",
      "type": "event"
    },
    {
      "anonymous": false,
      "inputs": [
        {
          "indexed": false,
          "internalType": "uint32",
          "name": "source",
          "type": "uint32"
        },
        {
          "indexed": false,
          "internalType": "uint32",
          "name": "destination",
          "type": "uint32"
        },
        {
          "indexed": false,
          "internalType": "uint256[]",
          "name": "amounts",
          "type": "uint256[]"
        },
        {
          "indexed": false,
          "internalType": "address[]",
          "name": "tokens",
          "type": "address[]"
        }
      ],
      "name": "TransferBetweenPools",
      "type": "event"
    },
    {
      "anonymous": false,
      "inputs": [
        {
          "indexed": false,
          "internalType": "uint256",
          "name": "poolId",
          "type": "uint256"
        },
        {
          "indexed": false,
          "internalType": "uint256",
          "name": "amount",
          "type": "uint256"
        }
      ],
      "name": "WithdrawnFromPool",
      "type": "event"
    },
    {
      "anonymous": false,
      "inputs": [
        {
          "indexed": false,
          "internalType": "uint256",
          "name": "amount",
          "type": "uint256"
        }
      ],
      "name": "YieldReceived",
      "type": "event"
    },
    {
      "inputs": [
        {
          "internalType": "address[]",
          "name": "controllers_",
          "type": "address[]"
        },
        {
          "internalType": "address",
          "name": "moduleMap_",
          "type": "address"
        }
      ],
      "name": "__Controlled_init",
      "outputs": [],
      "stateMutability": "nonpayable",
      "type": "function"
    },
    {
      "inputs": [
        {
          "internalType": "address",
          "name": "controller",
          "type": "address"
        }
      ],
      "name": "addController",
      "outputs": [],
      "stateMutability": "nonpayable",
      "type": "function"
    },
    {
      "inputs": [
        {
          "internalType": "uint32",
          "name": "poolId",
          "type": "uint32"
        },
        {
          "internalType": "uint256",
          "name": "masterChefPoolId",
          "type": "uint256"
        }
      ],
      "name": "configureStaking",
      "outputs": [],
      "stateMutability": "nonpayable",
      "type": "function"
    },
    {
      "inputs": [
        {
          "internalType": "uint32",
          "name": "poolId",
          "type": "uint32"
        },
        {
          "internalType": "uint256",
          "name": "masterChefPoolId",
          "type": "uint256"
        }
      ],
      "name": "configureStakingOverwrite",
      "outputs": [],
      "stateMutability": "nonpayable",
      "type": "function"
    },
    {
      "inputs": [
        {
          "internalType": "uint256",
          "name": "",
          "type": "uint256"
        }
      ],
      "name": "controllers",
      "outputs": [
        {
          "internalType": "address",
          "name": "",
          "type": "address"
        }
      ],
      "stateMutability": "view",
      "type": "function"
    },
    {
      "inputs": [
        {
          "internalType": "uint32",
          "name": "poolId",
          "type": "uint32"
        },
        {
          "internalType": "uint256",
          "name": "max",
          "type": "uint256"
        }
      ],
      "name": "countExtraReward",
      "outputs": [
        {
          "internalType": "uint256",
          "name": "addedReward",
          "type": "uint256"
        },
        {
          "internalType": "uint256",
          "name": "accountedReward",
          "type": "uint256"
        },
        {
          "internalType": "uint256",
          "name": "extraReward",
          "type": "uint256"
        }
      ],
      "stateMutability": "nonpayable",
      "type": "function"
    },
    {
      "inputs": [
        {
          "internalType": "address",
          "name": "tokenA",
          "type": "address"
        },
        {
          "internalType": "address",
          "name": "tokenB",
          "type": "address"
        },
        {
          "internalType": "uint256",
          "name": "",
          "type": "uint256"
        }
      ],
      "name": "createPool",
      "outputs": [],
      "stateMutability": "nonpayable",
      "type": "function"
    },
    {
      "inputs": [
        {
          "internalType": "uint32",
          "name": "poolId",
          "type": "uint32"
        },
        {
          "internalType": "address",
          "name": "token",
          "type": "address"
        },
        {
          "internalType": "uint256",
          "name": "amount",
          "type": "uint256"
        }
      ],
      "name": "decrementBalance",
      "outputs": [],
      "stateMutability": "nonpayable",
      "type": "function"
    },
    {
      "inputs": [
        {
          "internalType": "uint32",
          "name": "poolId",
          "type": "uint32"
        }
      ],
      "name": "deploy",
      "outputs": [],
      "stateMutability": "nonpayable",
      "type": "function"
    },
    {
      "inputs": [
        {
          "internalType": "address",
          "name": "tokenAddress",
          "type": "address"
        },
        {
          "internalType": "uint256",
          "name": "amount",
          "type": "uint256"
        },
        {
          "internalType": "uint32",
          "name": "poolId",
          "type": "uint32"
        }
      ],
      "name": "deposit",
      "outputs": [],
      "stateMutability": "nonpayable",
      "type": "function"
    },
    {
      "inputs": [
        {
          "internalType": "address",
          "name": "tokenIn",
          "type": "address"
        },
        {
          "internalType": "address",
          "name": "tokenOut",
          "type": "address"
        },
        {
          "internalType": "uint256",
          "name": "amountIn",
          "type": "uint256"
        }
      ],
      "name": "getAmountOut",
      "outputs": [
        {
          "internalType": "uint256",
          "name": "amountOut",
          "type": "uint256"
        }
      ],
      "stateMutability": "view",
      "type": "function"
    },
    {
      "inputs": [
        {
          "internalType": "address",
          "name": "tokenIn",
          "type": "address"
        },
        {
          "internalType": "address",
          "name": "tokenOut",
          "type": "address"
        },
        {
          "internalType": "uint256",
          "name": "amountIn",
          "type": "uint256"
        }
      ],
      "name": "getAmountOutMinimum",
      "outputs": [
        {
          "internalType": "uint256",
          "name": "amountOutMinimum",
          "type": "uint256"
        }
      ],
      "stateMutability": "view",
      "type": "function"
    },
    {
      "inputs": [
        {
          "internalType": "uint32",
          "name": "poolId",
          "type": "uint32"
        },
        {
          "internalType": "address",
          "name": "tokenAddress",
          "type": "address"
        }
      ],
      "name": "getBalance",
      "outputs": [
        {
          "internalType": "uint256",
          "name": "",
          "type": "uint256"
        }
      ],
      "stateMutability": "view",
      "type": "function"
    },
    {
      "inputs": [
        {
          "internalType": "uint32",
          "name": "poolId",
          "type": "uint32"
        }
      ],
      "name": "getHarvestedYield",
      "outputs": [
        {
          "internalType": "uint256",
          "name": "",
          "type": "uint256"
        }
      ],
      "stateMutability": "view",
      "type": "function"
    },
    {
      "inputs": [
        {
          "internalType": "uint32",
          "name": "poolId",
          "type": "uint32"
        }
      ],
      "name": "getPendingYield",
      "outputs": [
        {
          "internalType": "address[1]",
          "name": "tokens",
          "type": "address[1]"
        },
        {
          "internalType": "uint256[1]",
          "name": "amounts",
          "type": "uint256[1]"
        }
      ],
      "stateMutability": "view",
      "type": "function"
    },
    {
      "inputs": [
        {
          "internalType": "uint32",
          "name": "pid",
          "type": "uint32"
        }
      ],
      "name": "getPool",
      "outputs": [
        {
          "components": [
            {
              "internalType": "address",
              "name": "tokenA",
              "type": "address"
            },
            {
              "internalType": "address",
              "name": "tokenB",
              "type": "address"
            },
            {
              "internalType": "uint256",
              "name": "positionID",
              "type": "uint256"
            }
          ],
          "internalType": "struct IAMMIntegration.Pool",
          "name": "",
          "type": "tuple"
        }
      ],
      "stateMutability": "view",
      "type": "function"
    },
    {
      "inputs": [
        {
          "internalType": "uint32",
          "name": "poolId",
          "type": "uint32"
        }
      ],
      "name": "getPoolBalance",
      "outputs": [
        {
          "internalType": "uint256",
          "name": "tokenA",
          "type": "uint256"
        },
        {
          "internalType": "uint256",
          "name": "tokenB",
          "type": "uint256"
        }
      ],
      "stateMutability": "view",
      "type": "function"
    },
    {
      "inputs": [
        {
          "internalType": "uint32[]",
          "name": "pids",
          "type": "uint32[]"
        }
      ],
      "name": "getRewardBalances",
      "outputs": [
        {
          "internalType": "uint256[]",
          "name": "rewardAmounts",
          "type": "uint256[]"
        }
      ],
      "stateMutability": "view",
      "type": "function"
    },
    {
      "inputs": [
        {
          "internalType": "uint32",
          "name": "poolId",
          "type": "uint32"
        }
      ],
      "name": "getStakingPoolId",
      "outputs": [
        {
          "internalType": "uint256",
          "name": "",
          "type": "uint256"
        }
      ],
      "stateMutability": "view",
      "type": "function"
    },
    {
      "inputs": [],
      "name": "getTotalHarvestedYield",
      "outputs": [
        {
          "internalType": "uint256",
          "name": "amount",
          "type": "uint256"
        }
      ],
      "stateMutability": "view",
      "type": "function"
    },
    {
      "inputs": [
        {
          "internalType": "uint32[]",
          "name": "pids",
          "type": "uint32[]"
        }
      ],
      "name": "getYieldBalances",
      "outputs": [
        {
          "internalType": "uint256[]",
          "name": "amounts",
          "type": "uint256[]"
        }
      ],
      "stateMutability": "view",
      "type": "function"
    },
    {
      "inputs": [],
      "name": "harvestYield",
      "outputs": [],
      "stateMutability": "nonpayable",
      "type": "function"
    },
    {
      "inputs": [
        {
          "internalType": "uint32",
          "name": "poolId",
          "type": "uint32"
        },
        {
          "internalType": "uint256",
          "name": "rewardRatioX1000",
          "type": "uint256"
        },
        {
          "internalType": "uint256",
          "name": "",
          "type": "uint256"
        },
        {
          "internalType": "bool",
          "name": "",
          "type": "bool"
        }
      ],
      "name": "harvestYieldByPool",
      "outputs": [],
      "stateMutability": "nonpayable",
      "type": "function"
    },
    {
      "inputs": [
        {
          "internalType": "uint32",
          "name": "poolId",
          "type": "uint32"
        },
        {
          "internalType": "address",
          "name": "token",
          "type": "address"
        },
        {
          "internalType": "uint256",
          "name": "amount",
          "type": "uint256"
        }
      ],
      "name": "incrementBalance",
      "outputs": [],
      "stateMutability": "nonpayable",
      "type": "function"
    },
    {
      "inputs": [
        {
          "internalType": "address[]",
          "name": "controllers_",
          "type": "address[]"
        },
        {
          "internalType": "address",
          "name": "moduleMap_",
          "type": "address"
        },
        {
          "internalType": "address",
          "name": "factoryAddress_",
          "type": "address"
        },
        {
          "internalType": "address",
          "name": "swapRouterAddress_",
          "type": "address"
        },
        {
          "internalType": "address",
          "name": "masterChef_",
          "type": "address"
        },
        {
          "internalType": "address",
          "name": "rewardToken_",
          "type": "address"
        },
        {
          "internalType": "uint24",
          "name": "slippageNumerator_",
          "type": "uint24"
        }
      ],
      "name": "initialize",
      "outputs": [],
      "stateMutability": "nonpayable",
      "type": "function"
    },
    {
      "inputs": [
        {
          "internalType": "uint32",
          "name": "poolId",
          "type": "uint32"
        }
      ],
      "name": "manualDeploy",
      "outputs": [],
      "stateMutability": "nonpayable",
      "type": "function"
    },
    {
      "inputs": [
        {
          "internalType": "address",
          "name": "tokenAddress",
          "type": "address"
        },
        {
          "internalType": "uint256",
          "name": "amount",
          "type": "uint256"
        },
        {
          "internalType": "uint32",
          "name": "poolId",
          "type": "uint32"
        },
        {
          "internalType": "uint256",
          "name": "ratioX1000",
          "type": "uint256"
        }
      ],
      "name": "manualWithdraw",
      "outputs": [],
      "stateMutability": "nonpayable",
      "type": "function"
    },
    {
      "inputs": [
        {
          "internalType": "uint32",
          "name": "poolId",
          "type": "uint32"
        },
        {
          "internalType": "address",
          "name": "destination",
          "type": "address"
        }
      ],
      "name": "migrateLPTokens",
      "outputs": [],
      "stateMutability": "nonpayable",
      "type": "function"
    },
    {
      "inputs": [
        {
          "internalType": "uint32",
          "name": "sourcePool",
          "type": "uint32"
        },
        {
          "internalType": "address",
          "name": "destination",
          "type": "address"
        },
        {
          "internalType": "uint256",
          "name": "amount_",
          "type": "uint256"
        }
      ],
      "name": "migrateRewards",
      "outputs": [],
      "stateMutability": "nonpayable",
      "type": "function"
    },
    {
      "inputs": [],
      "name": "moduleMap",
      "outputs": [
        {
          "internalType": "contract IModuleMap",
          "name": "",
          "type": "address"
        }
      ],
      "stateMutability": "view",
      "type": "function"
    },
    {
      "inputs": [],
      "name": "poolCount",
      "outputs": [
        {
          "internalType": "uint32",
          "name": "",
          "type": "uint32"
        }
      ],
      "stateMutability": "view",
      "type": "function"
    },
    {
      "inputs": [
        {
          "internalType": "uint32",
          "name": "poolId",
          "type": "uint32"
        },
        {
          "internalType": "uint256",
          "name": "ratioX1000",
          "type": "uint256"
        },
        {
          "internalType": "uint256",
          "name": "maxSellTokenA",
          "type": "uint256"
        },
        {
          "internalType": "uint256",
          "name": "maxSellTokenB",
          "type": "uint256"
        }
      ],
      "name": "rebalancePool",
      "outputs": [],
      "stateMutability": "nonpayable",
      "type": "function"
    },
    {
      "inputs": [
        {
          "internalType": "uint32",
          "name": "poolId",
          "type": "uint32"
        }
      ],
      "name": "receiveMigration",
      "outputs": [],
      "stateMutability": "nonpayable",
      "type": "function"
    },
    {
      "inputs": [
        {
          "internalType": "uint32",
          "name": "poolId",
          "type": "uint32"
        }
      ],
      "name": "stakeLPTokens",
      "outputs": [],
      "stateMutability": "nonpayable",
      "type": "function"
    },
    {
      "inputs": [
        {
          "internalType": "address",
          "name": "tokenIn",
          "type": "address"
        },
        {
          "internalType": "address",
          "name": "tokenOut",
          "type": "address"
        },
        {
          "internalType": "address",
          "name": "recipient",
          "type": "address"
        },
        {
          "internalType": "uint256",
          "name": "amountIn",
          "type": "uint256"
        },
        {
          "internalType": "uint256",
          "name": "amountOutMin",
          "type": "uint256"
        }
      ],
      "name": "swapExactInput",
      "outputs": [
        {
          "internalType": "uint256[]",
          "name": "",
          "type": "uint256[]"
        }
      ],
      "stateMutability": "nonpayable",
      "type": "function"
    },
    {
      "inputs": [
        {
          "internalType": "address",
          "name": "tokenAddress",
          "type": "address"
        },
        {
          "internalType": "uint256",
          "name": "amount",
          "type": "uint256"
        },
        {
          "internalType": "uint32",
          "name": "poolId",
          "type": "uint32"
        }
      ],
      "name": "withdraw",
      "outputs": [],
      "stateMutability": "nonpayable",
      "type": "function"
    },
    {
      "inputs": [
        {
          "internalType": "address",
          "name": "tokenAddress",
          "type": "address"
        },
        {
          "internalType": "uint256",
          "name": "amount",
          "type": "uint256"
        },
        {
          "internalType": "uint32",
          "name": "poolId",
          "type": "uint32"
        },
        {
          "internalType": "uint256",
          "name": "ratioX1000",
          "type": "uint256"
        }
      ],
      "name": "withdraw",
      "outputs": [],
      "stateMutability": "nonpayable",
      "type": "function"
    },
    {
      "inputs": [
        {
          "internalType": "uint32",
          "name": "",
          "type": "uint32"
        }
      ],
      "name": "yieldBalances",
      "outputs": [
        {
          "internalType": "uint256",
          "name": "",
          "type": "uint256"
        }
      ],
      "stateMutability": "view",
      "type": "function"
    },
    {
      "stateMutability": "payable",
      "type": "receive"
    }
  ],
  "transactionHash": "0x2519203334ef5bbab964f2c6d140abc2894194323ae590ae32c1bce7e74230a2",
  "args": [],
  "solcInputHash": "a159fb1319a3dc6c393b3157fe077196",
  "bytecode": "0x608060405234801561001057600080fd5b50615fa780620000216000396000f3fe6080604052600436106101b95760003560e01c80630c3fa05f146101c55780630f0a1c6f146101e7578063364d0f5a146102235780633963f16714610243578063403df5441461026357806349470541146102915780634aa06652146102be5780634d24e9e4146102ec57806351810fb51461030c5780635441c2b61461032c57806355b961801461034c57806358a0f0491461036157806359cf86da146103815780635ce564f4146103a15780635f53bc43146103c1578063680c3052146103e15780636adbcf3c146104015780637534e06014610421578063754a0274146104415780637db2ddfe14610461578063983673d41461048157806398c671ce146104bc5780639da46ee3146104dc578063a4515d371461052c578063a7fc7a071461055f578063a816800c1461057f578063ac211b951461059f578063b1424b60146105bf578063b1cccca2146105df578063ccbfc16c146105ff578063cf73715a1461061f578063d23c84b81461063f578063e7daae2e14610672578063e809529e14610692578063e8d991d1146106bf578063e94b0dd2146106d4578063eb40c545146106f4578063f525cb681461072257600080fd5b366101c057005b600080fd5b3480156101d157600080fd5b506101e56101e03660046158a2565b610754565b005b3480156101f357600080fd5b5060005461020d906201000090046001600160a01b031681565b60405161021a91906159d4565b60405180910390f35b34801561022f57600080fd5b506101e561023e36600461590a565b610987565b34801561024f57600080fd5b506101e561025e3660046158eb565b610ab3565b34801561026f57600080fd5b5061028361027e3660046158a2565b610ca5565b60405161021a929190615a1b565b34801561029d57600080fd5b506102b16102ac3660046153f8565b610d69565b60405161021a9190615a80565b3480156102ca57600080fd5b506102de6102d9366004615452565b610db2565b60405190815260200161021a565b3480156102f857600080fd5b506102b16103073660046156a2565b610dd0565b34801561031857600080fd5b506101e5610327366004615452565b610ec5565b34801561033857600080fd5b506102de6103473660046158be565b611233565b34801561035857600080fd5b506102de611264565b34801561036d57600080fd5b506102b161037c3660046156a2565b6112aa565b34801561038d57600080fd5b506101e561039c3660046158eb565b611394565b3480156103ad57600080fd5b506101e56103bc3660046158a2565b6114f3565b3480156103cd57600080fd5b506101e56103dc3660046158eb565b61152e565b3480156103ed57600080fd5b506101e56103fc36600461590a565b611683565b34801561040d57600080fd5b506101e561041c3660046158a2565b6117ab565b34801561042d57600080fd5b506101e561043c366004615935565b611a0e565b34801561044d57600080fd5b506101e561045c3660046154d3565b611cae565b34801561046d57600080fd5b506101e561047c366004615492565b611dd8565b34801561048d57600080fd5b506104a161049c36600461590a565b611f04565b6040805193845260208401929092529082015260600161021a565b3480156104c857600080fd5b506101e56104d736600461551a565b61203c565b3480156104e857600080fd5b506104fc6104f73660046158a2565b6121e1565b6040805182516001600160a01b03908116825260208085015190911690820152918101519082015260600161021a565b34801561053857600080fd5b506102de6105473660046158a2565b63ffffffff166000908152600e602052604090205490565b34801561056b57600080fd5b506101e561057a3660046153c0565b612240565b34801561058b57600080fd5b506101e561059a3660046154d3565b61247e565b3480156105ab57600080fd5b506101e56105ba36600461597e565b6125a9565b3480156105cb57600080fd5b506101e56105da3660046158be565b612886565b3480156105eb57600080fd5b506101e56105fa366004615492565b612baf565b34801561060b57600080fd5b506102de61061a366004615452565b612c17565b34801561062b57600080fd5b506101e561063a3660046158a2565b612c5d565b34801561064b57600080fd5b506102de61065a3660046158a2565b63ffffffff166000908152600b602052604090205490565b34801561067e57600080fd5b506101e561068d366004615569565b612d79565b34801561069e57600080fd5b506102de6106ad3660046158a2565b600d6020526000908152604090205481565b3480156106cb57600080fd5b506101e5613002565b3480156106e057600080fd5b5061020d6106ef366004615822565b6131f6565b34801561070057600080fd5b5061071461070f3660046158a2565b613220565b60405161021a929190615ca4565b34801561072e57600080fd5b5060095461073f9063ffffffff1681565b60405163ffffffff909116815260200161021a565b600080546040516337c61fc560e11b8152620100009091046001600160a01b031691636f8c3f8a916107899190600401615ac4565b60206040518083038186803b1580156107a157600080fd5b505afa1580156107b5573d6000803e3d6000fd5b505050506040513d601f19601f820116820180604052508101906107d991906153dc565b6001600160a01b031663f3ae2415336040518263ffffffff1660e01b815260040161080491906159d4565b60206040518083038186803b15801561081c57600080fd5b505afa158015610830573d6000803e3d6000fd5b505050506040513d601f19601f820116820180604052508101906108549190615711565b6108795760405162461bcd60e51b815260040161087090615beb565b60405180910390fd5b63ffffffff81166000908152600860209081526040808320815160608101835281546001600160a01b039081168083526001840154909116948201859052600290920154928101929092529092916108d9916108d491613236565b6132c7565b90508015610982576006546000906108f9906001600160a01b03166132c7565b60055463ffffffff86166000908152600b602052604090819020549051631c57762b60e31b81529293506001600160a01b039091169163e2bbb15891610943918690600401615ca4565b600060405180830381600087803b15801561095d57600080fd5b505af1158015610971573d6000803e3d6000fd5b5050505061097f8482613346565b50505b505050565b600080546040516337c61fc560e11b8152620100009091046001600160a01b031691636f8c3f8a916109bc9190600401615ac4565b60206040518083038186803b1580156109d457600080fd5b505afa1580156109e8573d6000803e3d6000fd5b505050506040513d601f19601f82011682018060405250810190610a0c91906153dc565b6001600160a01b031663f3ae2415336040518263ffffffff1660e01b8152600401610a3791906159d4565b60206040518083038186803b158015610a4f57600080fd5b505afa158015610a63573d6000803e3d6000fd5b505050506040513d601f19601f82011682018060405250810190610a879190615711565b610aa35760405162461bcd60e51b815260040161087090615beb565b610aaf828260016133a2565b5050565b600080546040516337c61fc560e11b8152620100009091046001600160a01b031691636f8c3f8a91610ae89190600401615ac4565b60206040518083038186803b158015610b0057600080fd5b505afa158015610b14573d6000803e3d6000fd5b505050506040513d601f19601f82011682018060405250810190610b3891906153dc565b6001600160a01b031663f3ae2415336040518263ffffffff1660e01b8152600401610b6391906159d4565b60206040518083038186803b158015610b7b57600080fd5b505afa158015610b8f573d6000803e3d6000fd5b505050506040513d601f19601f82011682018060405250810190610bb39190615711565b610bcf5760405162461bcd60e51b815260040161087090615beb565b60008115610c405763ffffffff84166000908152600f6020526040902054811115610c395760405162461bcd60e51b815260206004820152601a6024820152796e6f7420656e6f75676820726577617264732062616c616e636560301b6044820152606401610870565b5080610c58565b5063ffffffff83166000908152600f60205260409020545b8015610c9f5763ffffffff84166000908152600f602052604081208054839290610c83908490615e2e565b9091555050600654610c9f906001600160a01b0316848361362a565b50505050565b610cad61529d565b610cb561529d565b6006546001600160a01b03908116835263ffffffff84166000818152600f602052604090819020546005549151631778809f60e01b81526004810193909352306024840152921690631778809f9060440160206040518083038186803b158015610d1e57600080fd5b505afa158015610d32573d6000803e3d6000fd5b505050506040513d601f19601f82011682018060405250810190610d56919061583a565b610d609190615d8b565b81529092909150565b3360009081526001602052604090205460609060ff16610d9b5760405162461bcd60e51b815260040161087090615c39565b610da88686868686613680565b9695505050505050565b6000806000610dc18686613871565b91509150610da8848383613948565b6060816001600160401b03811115610df857634e487b7160e01b600052604160045260246000fd5b604051908082528060200260200182016040528015610e21578160200160208202803683370190505b50905060005b82811015610ebe57600f6000858584818110610e5357634e487b7160e01b600052603260045260246000fd5b9050602002016020810190610e6891906158a2565b63ffffffff1663ffffffff16815260200190815260200160002054828281518110610ea357634e487b7160e01b600052603260045260246000fd5b6020908102919091010152610eb781615e71565b9050610e27565b5092915050565b600080546040516337c61fc560e11b8152620100009091046001600160a01b031691636f8c3f8a91610efa9190600401615ac4565b60206040518083038186803b158015610f1257600080fd5b505afa158015610f26573d6000803e3d6000fd5b505050506040513d601f19601f82011682018060405250810190610f4a91906153dc565b6001600160a01b031663f3ae2415336040518263ffffffff1660e01b8152600401610f7591906159d4565b60206040518083038186803b158015610f8d57600080fd5b505afa158015610fa1573d6000803e3d6000fd5b505050506040513d601f19601f82011682018060405250810190610fc59190615711565b610fe15760405162461bcd60e51b815260040161087090615beb565b6009805463ffffffff16906000610ff783615e8c565b825463ffffffff91821661010093840a9081029083021990911617909255600980548316600090815260086020819052604080832080546001600160a01b03808d166001600160a01b03199283168117909355865489168652838620600190810180548e84169416939093179092559554600a805492830181559095529283047fc65a7bb8d6351c1cf70c95a316cc6a92839c986682d98bc35f958f4883f9d2a801805460046007909516850290970a948816850294909702199095169290921790945583549051636eb1769f60e11b81526000199550929363dd62ed3e936110e49330931691016159e8565b60206040518083038186803b1580156110fc57600080fd5b505afa158015611110573d6000803e3d6000fd5b505050506040513d601f19601f82011682018060405250810190611134919061583a565b1161117057600454611154906001600160a01b0385811691166000613a4e565b600454611170906001600160a01b038581169116600019613a4e565b60048054604051636eb1769f60e11b8152600019926001600160a01b038681169363dd62ed3e936111a793309390921691016159e8565b60206040518083038186803b1580156111bf57600080fd5b505afa1580156111d3573d6000803e3d6000fd5b505050506040513d601f19601f820116820180604052508101906111f7919061583a565b1161098257600454611217906001600160a01b0384811691166000613a4e565b600454610982906001600160a01b038481169116600019613a4e565b63ffffffff82166000908152600c602090815260408083206001600160a01b03851684529091529020545b92915050565b6000805b60095463ffffffff90811690821610156112a65761128a610547826001615da3565b6112949083615d8b565b915061129f81615e8c565b9050611268565b5090565b6060816001600160401b038111156112d257634e487b7160e01b600052604160045260246000fd5b6040519080825280602002602001820160405280156112fb578160200160208202803683370190505b50905060005b82811015610ebe5761135984848381811061132c57634e487b7160e01b600052603260045260246000fd5b905060200201602081019061134191906158a2565b63ffffffff166000908152600d602052604090205490565b82828151811061137957634e487b7160e01b600052603260045260246000fd5b602090810291909101015261138d81615e71565b9050611301565b600080546040516337c61fc560e11b8152620100009091046001600160a01b031691636f8c3f8a916113c99190600401615ac4565b60206040518083038186803b1580156113e157600080fd5b505afa1580156113f5573d6000803e3d6000fd5b505050506040513d601f19601f8201168201806040525081019061141991906153dc565b6001600160a01b031663f3ae2415336040518263ffffffff1660e01b815260040161144491906159d4565b60206040518083038186803b15801561145c57600080fd5b505afa158015611470573d6000803e3d6000fd5b505050506040513d601f19601f820116820180604052508101906114949190615711565b6114b05760405162461bcd60e51b815260040161087090615beb565b63ffffffff83166000908152600c602090815260408083206001600160a01b0386168452909152812080548392906114e9908490615d8b565b9091555050505050565b3360009081526001602052604090205460ff166115225760405162461bcd60e51b815260040161087090615c39565b61152b81613b60565b50565b600080546040516337c61fc560e11b8152620100009091046001600160a01b031691636f8c3f8a916115639190600401615ac4565b60206040518083038186803b15801561157b57600080fd5b505afa15801561158f573d6000803e3d6000fd5b505050506040513d601f19601f820116820180604052508101906115b391906153dc565b6001600160a01b031663f3ae2415336040518263ffffffff1660e01b81526004016115de91906159d4565b60206040518083038186803b1580156115f657600080fd5b505afa15801561160a573d6000803e3d6000fd5b505050506040513d601f19601f8201168201806040525081019061162e9190615711565b61164a5760405162461bcd60e51b815260040161087090615beb565b63ffffffff83166000908152600c602090815260408083206001600160a01b0386168452909152812080548392906114e9908490615e2e565b600080546040516337c61fc560e11b8152620100009091046001600160a01b031691636f8c3f8a916116b89190600401615ac4565b60206040518083038186803b1580156116d057600080fd5b505afa1580156116e4573d6000803e3d6000fd5b505050506040513d601f19601f8201168201806040525081019061170891906153dc565b6001600160a01b031663f3ae2415336040518263ffffffff1660e01b815260040161173391906159d4565b60206040518083038186803b15801561174b57600080fd5b505afa15801561175f573d6000803e3d6000fd5b505050506040513d601f19601f820116820180604052508101906117839190615711565b61179f5760405162461bcd60e51b815260040161087090615beb565b610aaf828260006133a2565b600080546040516337c61fc560e11b8152620100009091046001600160a01b031691636f8c3f8a916117e09190600401615ac4565b60206040518083038186803b1580156117f857600080fd5b505afa15801561180c573d6000803e3d6000fd5b505050506040513d601f19601f8201168201806040525081019061183091906153dc565b6001600160a01b031663f3ae2415336040518263ffffffff1660e01b815260040161185b91906159d4565b60206040518083038186803b15801561187357600080fd5b505afa158015611887573d6000803e3d6000fd5b505050506040513d601f19601f820116820180604052508101906118ab9190615711565b6118c75760405162461bcd60e51b815260040161087090615beb565b60006118d2826121e1565b80519091506001600160a01b031661191c5760405162461bcd60e51b815260206004820152600d60248201526c1b5d5cdd08185919081c1bdbdb609a1b6044820152606401610870565b611927826000613da5565b505050600061193e82600001518360200151613236565b6001600160a01b03166370a08231306040518263ffffffff1660e01b815260040161196991906159d4565b60206040518083038186803b15801561198157600080fd5b505afa158015611995573d6000803e3d6000fd5b505050506040513d601f19601f820116820180604052508101906119b9919061583a565b9050600080516020615f52833981519152816040516119da91815260200190565b60405180910390a1600080516020615f128339815191528382604051611a01929190615d22565b60405180910390a1505050565b600080546040516337c61fc560e11b8152620100009091046001600160a01b031691636f8c3f8a91611a439190600401615ac4565b60206040518083038186803b158015611a5b57600080fd5b505afa158015611a6f573d6000803e3d6000fd5b505050506040513d601f19601f82011682018060405250810190611a9391906153dc565b6001600160a01b031663f3ae2415336040518263ffffffff1660e01b8152600401611abe91906159d4565b60206040518083038186803b158015611ad657600080fd5b505afa158015611aea573d6000803e3d6000fd5b505050506040513d601f19601f82011682018060405250810190611b0e9190615711565b611b2a5760405162461bcd60e51b815260040161087090615beb565b600654600090611b42906001600160a01b03166132c7565b60055463ffffffff87166000908152600b6020526040808220549051631c57762b60e31b81529394506001600160a01b039092169263e2bbb15892611b8b929091600401615ca4565b600060405180830381600087803b158015611ba557600080fd5b505af1158015611bb9573d6000803e3d6000fd5b50505050611bc78582613346565b5063ffffffff85166000908152600f60205260409020548015611ca657600654600754611c01916001600160a01b03908116911687613ee8565b600654600754600091611c2d916001600160a01b0391821691163085611c28848483612c17565b613680565b63ffffffff88166000908152600f6020526040812055805190915081906001908110611c6957634e487b7160e01b600052603260045260246000fd5b6020026020010151600d60008963ffffffff1663ffffffff1681526020019081526020016000206000828254611c9f9190615d8b565b9091555050505b505050505050565b600080546040516337c61fc560e11b8152620100009091046001600160a01b031691636f8c3f8a91611ce39190600401615ac4565b60206040518083038186803b158015611cfb57600080fd5b505afa158015611d0f573d6000803e3d6000fd5b505050506040513d601f19601f82011682018060405250810190611d3391906153dc565b6001600160a01b031663f3ae2415336040518263ffffffff1660e01b8152600401611d5e91906159d4565b60206040518083038186803b158015611d7657600080fd5b505afa158015611d8a573d6000803e3d6000fd5b505050506040513d601f19601f82011682018060405250810190611dae9190615711565b611dca5760405162461bcd60e51b815260040161087090615beb565b610c9f848484846000613f13565b3360009081526001602052604090205460ff16611e075760405162461bcd60e51b815260040161087090615c39565b611e118184611233565b8211611ef557600080546040516337c61fc560e11b8152611eb192620100009092046001600160a01b031691636f8c3f8a91611e509190600401615ac4565b60206040518083038186803b158015611e6857600080fd5b505afa158015611e7c573d6000803e3d6000fd5b505050506040513d601f19601f82011682018060405250810190611ea091906153dc565b6001600160a01b038516908461362a565b63ffffffff81166000908152600c602090815260408083206001600160a01b038716845290915281208054849290611eea908490615e2e565b909155506109829050565b61098283838360006001613f13565b600080546040516337c61fc560e11b815282918291620100009091046001600160a01b031690636f8c3f8a90611f3e908490600401615ac4565b60206040518083038186803b158015611f5657600080fd5b505afa158015611f6a573d6000803e3d6000fd5b505050506040513d601f19601f82011682018060405250810190611f8e91906153dc565b6001600160a01b031663f3ae2415336040518263ffffffff1660e01b8152600401611fb991906159d4565b60206040518083038186803b158015611fd157600080fd5b505afa158015611fe5573d6000803e3d6000fd5b505050506040513d601f19601f820116820180604052508101906120099190615711565b6120255760405162461bcd60e51b815260040161087090615beb565b61202f8585613da5565b9250925092509250925092565b600054610100900460ff166120575760005460ff161561205b565b303b155b6120775760405162461bcd60e51b815260040161087090615b4c565b600054610100900460ff16158015612099576000805461ffff19166101011790555b6001600160a01b0382166120bf5760405162461bcd60e51b815260040161087090615b9a565b60005b83518110156121375760006001600160a01b03168482815181106120f657634e487b7160e01b600052603260045260246000fd5b60200260200101516001600160a01b031614156121255760405162461bcd60e51b815260040161087090615b9a565b8061212f81615e71565b9150506120c2565b5060005b83518110156121ad57600180600086848151811061216957634e487b7160e01b600052603260045260246000fd5b6020908102919091018101516001600160a01b03168252810191909152604001600020805460ff1916911515919091179055806121a581615e71565b91505061213b565b5082516121c19060029060208601906152bb565b506121cb8261424e565b8015610982576000805461ff0019169055505050565b60408051606080820183526000808352602080840182905292840181905263ffffffff94909416845260088252928290208251938401835280546001600160a01b03908116855260018201541691840191909152600201549082015290565b600080546040516337c61fc560e11b8152620100009091046001600160a01b031691636f8c3f8a916122759190600401615ac4565b60206040518083038186803b15801561228d57600080fd5b505afa1580156122a1573d6000803e3d6000fd5b505050506040513d601f19601f820116820180604052508101906122c591906153dc565b6001600160a01b0316632f54bf6e336040518263ffffffff1660e01b81526004016122f091906159d4565b60206040518083038186803b15801561230857600080fd5b505afa15801561231c573d6000803e3d6000fd5b505050506040513d601f19601f820116820180604052508101906123409190615711565b61239f5760405162461bcd60e51b815260206004820152602a60248201527f436f6e74726f6c6c65643a3a6f6e6c794f776e65723a2043616c6c6572206973604482015269103737ba1037bbb732b960b11b6064820152608401610870565b6001600160a01b03811660009081526001602081905260408220805460ff19169091179055805b60025481101561242757600281815481106123f157634e487b7160e01b600052603260045260246000fd5b6000918252602090912001546001600160a01b038481169116141561241557600191505b8061241f81615e71565b9150506123c6565b5080610aaf57600280546001810182556000919091527f405787fa12a823e0f2b7631cc41b3ba8828b3321ca811111fa75cd3aa3bb5ace0180546001600160a01b0384166001600160a01b03199091161790555050565b3360009081526001602052604090205460ff166124ad5760405162461bcd60e51b815260040161087090615c39565b6124b78285611233565b831161259b57600080546040516337c61fc560e11b815261255792620100009092046001600160a01b031691636f8c3f8a916124f69190600401615ac4565b60206040518083038186803b15801561250e57600080fd5b505afa158015612522573d6000803e3d6000fd5b505050506040513d601f19601f8201168201806040525081019061254691906153dc565b6001600160a01b038616908561362a565b63ffffffff82166000908152600c602090815260408083206001600160a01b038816845290915281208054859290612590908490615e2e565b90915550610c9f9050565b610c9f848484846001613f13565b600080546040516337c61fc560e11b8152620100009091046001600160a01b031691636f8c3f8a916125de9190600401615ac4565b60206040518083038186803b1580156125f657600080fd5b505afa15801561260a573d6000803e3d6000fd5b505050506040513d601f19601f8201168201806040525081019061262e91906153dc565b6001600160a01b031663f3ae2415336040518263ffffffff1660e01b815260040161265991906159d4565b60206040518083038186803b15801561267157600080fd5b505afa158015612685573d6000803e3d6000fd5b505050506040513d601f19601f820116820180604052508101906126a99190615711565b6126c55760405162461bcd60e51b815260040161087090615beb565b60006126d0856121e1565b63ffffffff86166000908152600860205260409020549091506001600160a01b031661270e5760405162461bcd60e51b815260040161087090615bbf565b6127218160000151826020015186613ee8565b60008061274983612736898660000151611233565b6127448a8760200151611233565b6142e2565b9150915060008061275d8486858a8a61436d565b91509150600061276c826132c7565b905061278085833086611c288a888a612c17565b5060008161278d846132c7565b6127979190615e2e565b905080156128795763ffffffff8b166000908152600c602090815260408083206001600160a01b038a168452909152812080548692906127d8908490615e2e565b909155505063ffffffff8b166000908152600c602090815260408083206001600160a01b038716845290915281208054839290612816908490615d8b565b90915550506040805163ffffffff8d1681526001600160a01b038881166020830152818301879052851660608201526080810183905290517f3318ce2371d9cd19d64b4ca999bd8bdcfcf18e4ec416d7dc611b729b2e59c5009181900360a00190a15b5050505050505050505050565b600080546040516337c61fc560e11b8152620100009091046001600160a01b031691636f8c3f8a916128bb9190600401615ac4565b60206040518083038186803b1580156128d357600080fd5b505afa1580156128e7573d6000803e3d6000fd5b505050506040513d601f19601f8201168201806040525081019061290b91906153dc565b6001600160a01b031663f3ae2415336040518263ffffffff1660e01b815260040161293691906159d4565b60206040518083038186803b15801561294e57600080fd5b505afa158015612962573d6000803e3d6000fd5b505050506040513d601f19601f820116820180604052508101906129869190615711565b6129a25760405162461bcd60e51b815260040161087090615beb565b60006129ad836121e1565b60055463ffffffff85166000908152600b60205260408082205490516393f1a40b60e01b815293945090926001600160a01b03909216916393f1a40b916129f8913090600401615c8d565b604080518083038186803b158015612a0f57600080fd5b505afa158015612a23573d6000803e3d6000fd5b505050506040513d601f19601f82011682018060405250810190612a47919061579a565b51600654909150600090612a63906001600160a01b03166132c7565b60055463ffffffff87166000908152600b602052604090819020549051630441a3e760e41b81529293506001600160a01b039091169163441a3e7091612aad918690600401615ca4565b600060405180830381600087803b158015612ac757600080fd5b505af1158015612adb573d6000803e3d6000fd5b50505050612ae98582613346565b50612af9858460000151866143c9565b612b08858460200151866143c9565b6000612b1c84600001518560200151613236565b9050611ca685826001600160a01b03166370a08231306040518263ffffffff1660e01b8152600401612b4e91906159d4565b60206040518083038186803b158015612b6657600080fd5b505afa158015612b7a573d6000803e3d6000fd5b505050506040513d601f19601f82011682018060405250810190612b9e919061583a565b6001600160a01b038416919061362a565b3360009081526001602052604090205460ff16612bde5760405162461bcd60e51b815260040161087090615c39565b63ffffffff81166000908152600c602090815260408083206001600160a01b0387168452909152812080548492906114e9908490615d8b565b600354600090620f424090612c319062ffffff1682615e0a565b62ffffff16612c41868686610db2565b612c4b9190615deb565b612c559190615dcb565b949350505050565b600080546040516337c61fc560e11b8152620100009091046001600160a01b031691636f8c3f8a91612c929190600401615ac4565b60206040518083038186803b158015612caa57600080fd5b505afa158015612cbe573d6000803e3d6000fd5b505050506040513d601f19601f82011682018060405250810190612ce291906153dc565b6001600160a01b031663f3ae2415336040518263ffffffff1660e01b8152600401612d0d91906159d4565b60206040518083038186803b158015612d2557600080fd5b505afa158015612d39573d6000803e3d6000fd5b505050506040513d601f19601f82011682018060405250810190612d5d9190615711565b6115225760405162461bcd60e51b815260040161087090615beb565b600054610100900460ff16612d945760005460ff1615612d98565b303b155b612db45760405162461bcd60e51b815260040161087090615b4c565b600054610100900460ff16158015612dd6576000805461ffff19166101011790555b6001600160a01b038616612dfc5760405162461bcd60e51b815260040161087090615b9a565b6001600160a01b038516612e225760405162461bcd60e51b815260040161087090615b9a565b6001600160a01b038416612e485760405162461bcd60e51b815260040161087090615b9a565b6001600160a01b038316612e6e5760405162461bcd60e51b815260040161087090615b9a565b612e78888861203c565b60038054600480546001600160a01b03199081166001600160a01b038a81169190911783556005805483168a83161790556001600160b81b031990931663010000008b85160262ffffff19161762ffffff8716178455600680549091168784161790556000546040516337c61fc560e11b81526201000090910490921692636f8c3f8a92612f069201615ac4565b60206040518083038186803b158015612f1e57600080fd5b505afa158015612f32573d6000803e3d6000fd5b505050506040513d601f19601f82011682018060405250810190612f5691906153dc565b6001600160a01b0316638b9c94896040518163ffffffff1660e01b815260040160206040518083038186803b158015612f8e57600080fd5b505afa158015612fa2573d6000803e3d6000fd5b505050506040513d601f19601f82011682018060405250810190612fc691906153dc565b600780546001600160a01b0319166001600160a01b03929092169190911790558015612ff8576000805461ff00191690555b5050505050505050565b3360009081526001602052604090205460ff166130315760405162461bcd60e51b815260040161087090615c39565b6000805b60095463ffffffff1681101561311d576000600a828154811061306857634e487b7160e01b600052603260045260246000fd5b6000918252602080832060088304015460079092166004026101000a90910463ffffffff16808352600d909152604090912054909150801561310a5763ffffffff82166000908152600d60205260409020546130c49085615d8b565b63ffffffff83166000908152600e60205260408120805492965083929091906130ee908490615d8b565b909155505063ffffffff82166000908152600d60205260408120555b50508061311690615e71565b9050613035565b50801561152b576000546040516337c61fc560e11b81526131c0916201000090046001600160a01b031690636f8c3f8a9061315d90600290600401615ac4565b60206040518083038186803b15801561317557600080fd5b505afa158015613189573d6000803e3d6000fd5b505050506040513d601f19601f820116820180604052508101906131ad91906153dc565b6007546001600160a01b0316908361362a565b6040518181527fd0e841f234010ad7f57b7c09faffb2245cd240429c6e8fa3cd934a0a8bf58eb09060200160405180910390a150565b6002818154811061320657600080fd5b6000918252602090912001546001600160a01b0316905081565b60008061322c83614433565b9094909350915050565b60035460405163e6a4390560e01b8152600091630100000090046001600160a01b03169063e6a439059061327090869086906004016159e8565b60206040518083038186803b15801561328857600080fd5b505afa15801561329c573d6000803e3d6000fd5b505050506040513d601f19601f820116820180604052508101906132c091906153dc565b9392505050565b6040516370a0823160e01b81526000906001600160a01b038316906370a08231906132f69030906004016159d4565b60206040518083038186803b15801561330e57600080fd5b505afa158015613322573d6000803e3d6000fd5b505050506040513d601f19601f8201168201806040525081019061125e919061583a565b6006546000908290613360906001600160a01b03166132c7565b61336a9190615e2e565b9050801561125e5763ffffffff83166000908152600f602052604081208054839290613397908490615d8b565b909155505092915050565b60006133ad846121e1565b80519091506001600160a01b03166133d75760405162461bcd60e51b815260040161087090615bbf565b6001821515146134415763ffffffff84166000908152600b6020526040902054156134415760405162461bcd60e51b815260206004820152601a60248201527914dd185ada5b99c8185b1c9958591e4818dbdb999a59dd5c995960321b6044820152606401610870565b600554604051631526fe2760e01b8152600481018590526000916001600160a01b031690631526fe279060240160806040518083038186803b15801561348657600080fd5b505afa15801561349a573d6000803e3d6000fd5b505050506040513d601f19601f820116820180604052508101906134be919061572d565b905060006134d483600001518460200151613236565b9050806001600160a01b031682600001516001600160a01b03161461354e5760405162461bcd60e51b815260206004820152602a60248201527f496e636f7272656374204d617374657243686566277320706f6f6c49642077616044820152691cc81c1c9bdd9a59195960b21b6064820152608401610870565b63ffffffff86166000908152600b6020526040908190208690556005549051636eb1769f60e11b8152600019916001600160a01b038085169263dd62ed3e9261359e9230929116906004016159e8565b60206040518083038186803b1580156135b657600080fd5b505afa1580156135ca573d6000803e3d6000fd5b505050506040513d601f19601f820116820180604052508101906135ee919061583a565b11611ca65760055461360e906001600160a01b0383811691166000613a4e565b600554611ca6906001600160a01b038381169116600019613a4e565b6109828363a9059cbb60e01b8484604051602401613649929190615a02565b60408051601f198184030181529190526020810180516001600160e01b03166001600160e01b031990931692909217909152614726565b6040805160028082526060808301845292600092919060208301908036833701905050905086816000815181106136c757634e487b7160e01b600052603260045260246000fd5b60200260200101906001600160a01b031690816001600160a01b031681525050858160018151811061370957634e487b7160e01b600052603260045260246000fd5b6001600160a01b03928316602091820292909201015260048054604051636eb1769f60e11b8152429388938c82169363dd62ed3e9361374d933093921691016159e8565b60206040518083038186803b15801561376557600080fd5b505afa158015613779573d6000803e3d6000fd5b505050506040513d601f19601f8201168201806040525081019061379d919061583a565b10156137d8576004546137be906001600160a01b038a811691166000613a4e565b6004546137d8906001600160a01b038a8116911687613a4e565b600480546040516338ed173960e01b81526001600160a01b03909116916338ed17399161380f918991899188918d91899101615cb2565b600060405180830381600087803b15801561382957600080fd5b505af115801561383d573d6000803e3d6000fd5b505050506040513d6000823e601f3d908101601f19168201604052613865919081019061561c565b98975050505050505050565b600080600061388085856147f8565b5090506000806138908787613236565b6001600160a01b0316630902f1ac6040518163ffffffff1660e01b815260040160606040518083038186803b1580156138c857600080fd5b505afa1580156138dc573d6000803e3d6000fd5b505050506040513d601f19601f8201168201806040525081019061390091906157e7565b506001600160701b031691506001600160701b03169150826001600160a01b0316876001600160a01b03161461393757808261393a565b81815b909890975095505050505050565b60008084116139a45760405162461bcd60e51b815260206004820152602260248201527f616d6f756e74496e206d7573742062652067726561746572207468616e207a65604482015261726f60f01b6064820152608401610870565b6000831180156139b45750600082115b613a005760405162461bcd60e51b815260206004820152601d60248201527f4e6f206c697175696469747920696e20706f6f6c2072657365727665730000006044820152606401610870565b6000613a0e856103e5615deb565b90506000613a1c8483615deb565b9050600082613a2d876103e8615deb565b613a379190615d8b565b9050613a438183615dcb565b979650505050505050565b801580613ad65750604051636eb1769f60e11b81526001600160a01b0384169063dd62ed3e90613a8490309086906004016159e8565b60206040518083038186803b158015613a9c57600080fd5b505afa158015613ab0573d6000803e3d6000fd5b505050506040513d601f19601f82011682018060405250810190613ad4919061583a565b155b613b415760405162461bcd60e51b815260206004820152603660248201527f5361666545524332303a20617070726f76652066726f6d206e6f6e2d7a65726f60448201527520746f206e6f6e2d7a65726f20616c6c6f77616e636560501b6064820152608401610870565b6109828363095ea7b360e01b8484604051602401613649929190615a02565b6000613b6b826121e1565b63ffffffff83166000908152600860205260409020549091506001600160a01b0316613ba95760405162461bcd60e51b815260040161087090615bbf565b6000613bb9838360000151611233565b90506000613bcb848460200151611233565b9050811580613bd8575080155b15613be35750505050565b600080613bf885600001518660200151613871565b91509150600080613c0b868686866148cd565b600480548a5160208c015160405162e8e33760e81b81526001600160a01b039283169481019490945281166024840152604483018590526064830184905260006084840181905260a484018190523060c48501524260e4850152949650929450919091169063e8e337009061010401606060405180830381600087803b158015613c9457600080fd5b505af1158015613ca8573d6000803e3d6000fd5b505050506040513d601f19601f82011682018060405250810190613ccc9190615875565b63ffffffff8c166000908152600c602090815260408083208e516001600160a01b0316845290915281208054929550879450925090613d0c908490615e2e565b909155505063ffffffff89166000908152600c602090815260408083208b8301516001600160a01b0316845290915281208054849290613d4d908490615e2e565b9091555050604051818152600080516020615f528339815191529060200160405180910390a1600080516020615f128339815191528982604051613d92929190615d22565b60405180910390a1505050505050505050565b6009546000908190819063ffffffff1680613e185760405162461bcd60e51b815260206004820152602d60248201527f43616e6e6f7420636f756e7420657874726120726577617264207768656e206e60448201526c1bc81c1bdbdb1cc8195e1a5cdd609a1b6064820152608401610870565b60005b818163ffffffff161015613e6b57600f6000613e38836001615da3565b63ffffffff168152602081019190915260400160002054613e599085615d8b565b9350613e6481615e8c565b9050613e1b565b506006548390613e83906001600160a01b03166132c7565b613e8d9190615e2e565b91508115613ee057600085118015613ea457508185105b613eae5781613eb0565b845b63ffffffff87166000908152600f6020526040812080549296508692909190613eda908490615d8b565b90915550505b509250925092565b6000613ef48484613236565b9050600080613f038686613871565b91509150611ca683838387614a11565b6000613f1e846121e1565b90508215613f3957613f398160000151826020015185613ee8565b600080613f4e83600001518460200151613871565b60055463ffffffff89166000908152600b60205260408082205490516393f1a40b60e01b815294965092945092614081928c928c926001600160a01b03909116916393f1a40b91613fa491903090600401615c8d565b604080518083038186803b158015613fbb57600080fd5b505afa158015613fcf573d6000803e3d6000fd5b505050506040513d601f19601f82011682018060405250810190613ff3919061579a565b60000151868661400b8a600001518b60200151613236565b6001600160a01b03166318160ddd6040518163ffffffff1660e01b815260040160206040518083038186803b15801561404357600080fd5b505afa158015614057573d6000803e3d6000fd5b505050506040513d601f19601f8201168201806040525081019061407b919061583a565b8a614b3b565b60065490915060009061409c906001600160a01b03166132c7565b60055463ffffffff8a166000908152600b602052604090819020549051630441a3e760e41b81529293506001600160a01b039091169163441a3e70916140e6918690600401615ca4565b600060405180830381600087803b15801561410057600080fd5b505af1158015614114573d6000803e3d6000fd5b505050506141228882613346565b5060045485516020870151614157926001600160a01b03169185916141479190613236565b6001600160a01b03169190613a4e565b6004548551602087015160009283926001600160a01b039091169163baa2abde91908785803061418942610168615d8b565b60405160e089901b6001600160e01b03191681526001600160a01b039788166004820152958716602487015260448601949094526064850192909252608484015290921660a482015260c481019190915260e4016040805180830381600087803b1580156141f657600080fd5b505af115801561420a573d6000803e3d6000fd5b505050506040513d601f19601f8201168201806040525081019061422e9190615852565b91509150614240878b8e85858d614c0d565b505050505050505050505050565b600054610100900460ff166142695760005460ff161561426d565b303b155b6142895760405162461bcd60e51b815260040161087090615b4c565b600054610100900460ff161580156142ab576000805461ffff19166101011790555b6000805462010000600160b01b031916620100006001600160a01b038516021790558015610aaf576000805461ff00191690555050565b600080806142f08486615d8b565b116143475760405162461bcd60e51b815260206004820152602160248201527f53706972697453776170496e746567726174696f6e3a206e6f2062616c616e636044820152606560f81b6064820152608401610870565b60008061435c87600001518860200151613871565b9150915061393a8787878585614fde565b60008085600001516001600160a01b0316876001600160a01b031614156143aa575060208501518385106143a157836143a3565b845b91506143bf565b5084518285106143ba57826143bc565b845b91505b9550959350505050565b63ffffffff83166000908152600c602090815260408083206001600160a01b0386168452909152902054156109825763ffffffff8381166000908152600c602090815260408083206001600160a01b03871680855292528220829055610982929091849161362a16565b6000806000614441846121e1565b60055463ffffffff86166000908152600b60205260408082205490516393f1a40b60e01b815293945090926001600160a01b03909216916393f1a40b9161448c913090600401615c8d565b604080518083038186803b1580156144a357600080fd5b505afa1580156144b7573d6000803e3d6000fd5b505050506040513d601f19601f820116820180604052508101906144db919061579a565b51825160208401516144ed9190613236565b6001600160a01b03166370a08231306040518263ffffffff1660e01b815260040161451891906159d4565b60206040518083038186803b15801561453057600080fd5b505afa158015614544573d6000803e3d6000fd5b505050506040513d601f19601f82011682018060405250810190614568919061583a565b6145729190615d8b565b905061471a8161458a84600001518560200151613236565b6001600160a01b03166318160ddd6040518163ffffffff1660e01b815260040160206040518083038186803b1580156145c257600080fd5b505afa1580156145d6573d6000803e3d6000fd5b505050506040513d601f19601f820116820180604052508101906145fa919061583a565b845160208601516001600160a01b038216916370a082319161461c9190613236565b6040518263ffffffff1660e01b815260040161463891906159d4565b60206040518083038186803b15801561465057600080fd5b505afa158015614664573d6000803e3d6000fd5b505050506040513d601f19601f82011682018060405250810190614688919061583a565b602086015186516001600160a01b038216916370a08231916146a991613236565b6040518263ffffffff1660e01b81526004016146c591906159d4565b60206040518083038186803b1580156146dd57600080fd5b505afa1580156146f1573d6000803e3d6000fd5b505050506040513d601f19601f82011682018060405250810190614715919061583a565b615140565b90969095509350505050565b600061477b826040518060400160405280602081526020017f5361666545524332303a206c6f772d6c6576656c2063616c6c206661696c6564815250856001600160a01b03166151a29092919063ffffffff16565b80519091501561098257808060200190518101906147999190615711565b6109825760405162461bcd60e51b815260206004820152602a60248201527f5361666545524332303a204552433230206f7065726174696f6e20646964206e6044820152691bdd081cdd58d8d9595960b21b6064820152608401610870565b600080826001600160a01b0316846001600160a01b031614156148595760405162461bcd60e51b81526020600482015260196024820152784964656e746963616c20746f6b656e2061646472657373657360381b6044820152606401610870565b826001600160a01b0316846001600160a01b03161061487957828461487c565b83835b90925090506001600160a01b0382166148c65760405162461bcd60e51b815260206004820152600c60248201526b5a65726f206164647265737360a01b6044820152606401610870565b9250929050565b6000808284111561496e576000836148e7866103e8615deb565b6148f19190615dcb565b905060006103e86149028389615deb565b61490c9190615dcb565b9050808810156149375787935081614926856103e8615deb565b6149309190615dcb565b9250614967565b87811015614960576103e861494c8389615deb565b6149569190615dcb565b9350869250614967565b8793508692505b5050614a08565b82841015614a0857600084614985856103e8615deb565b61498f9190615dcb565b905060006103e86149a0838a615deb565b6149aa9190615dcb565b9050808710156149d557816149c1886103e8615deb565b6149cb9190615dcb565b9350869250614a05565b868110156149fe578793506103e86149ed8386615deb565b6149f79190615dcb565b9250614a05565b8793508692505b50505b94509492505050565b6001600160a01b038416614a665760405162461bcd60e51b815260206004820152601c60248201527b2a3930b232b92537b2a4b73a32b3b930ba34b7b71d2130b22830b4b960211b6044820152606401610870565b600082841015614a8e5783614a7d846103e8615deb565b614a879190615dcb565b9050614aa8565b83831015614aa35782614a7d856103e8615deb565b506103e85b81811115614af457600182614abd8184615e2e565b614ac8906064615deb565b614ad29190615dcb565b10614aef5760405162461bcd60e51b815260040161087090615b1f565b61097f565b8082111561097f57600182614b098382615e2e565b614b14906064615deb565b614b1e9190615dcb565b1061097f5760405162461bcd60e51b815260040161087090615b1f565b60008082600001516001600160a01b0316896001600160a01b03161415614b8e578315614b845783614b7587670de0b6b3a7640000615deb565b614b7f9190615dcb565b614b87565b60005b9050614bbc565b8315614bb65783614ba786670de0b6b3a7640000615deb565b614bb19190615dcb565b614bb9565b60005b90505b80614bcb576000915050613a43565b80614bd760028a615dcb565b614be990670de0b6b3a7640000615deb565b614bf39190615dcb565b915086821115614c01578691505b50979650505050505050565b606086600001516001600160a01b0316856001600160a01b03161415614df3576020870151614c4490863086611c28848483612c17565b90508115614d2057600080546040516337c61fc560e11b8152614d1b92620100009092046001600160a01b031691636f8c3f8a91614c859190600401615ac4565b60206040518083038186803b158015614c9d57600080fd5b505afa158015614cb1573d6000803e3d6000fd5b505050506040513d601f19601f82011682018060405250810190614cd591906153dc565b82600181518110614cf657634e487b7160e01b600052603260045260246000fd5b602002602001015186614d099190615d8b565b89516001600160a01b0316919061362a565b614d94565b80600181518110614d4157634e487b7160e01b600052603260045260246000fd5b602002602001015184614d549190615d8b565b63ffffffff87166000908152600c602090815260408083208b516001600160a01b0316845290915281208054909190614d8e908490615d8b565b90915550505b600080516020615f32833981519152868583600181518110614dc657634e487b7160e01b600052603260045260246000fd5b6020026020010151614dd89190615d8b565b604051614de6929190615d22565b60405180910390a1614fd5565b86602001516001600160a01b0316856001600160a01b03161415614fd5578651614e2590863087611c28848483612c17565b90508115614f0457600080546040516337c61fc560e11b8152614eff92620100009092046001600160a01b031691636f8c3f8a91614e669190600401615ac4565b60206040518083038186803b158015614e7e57600080fd5b505afa158015614e92573d6000803e3d6000fd5b505050506040513d601f19601f82011682018060405250810190614eb691906153dc565b82600181518110614ed757634e487b7160e01b600052603260045260246000fd5b602002602001015185614eea9190615d8b565b60208a01516001600160a01b0316919061362a565b614f7a565b80600181518110614f2557634e487b7160e01b600052603260045260246000fd5b602002602001015183614f389190615d8b565b63ffffffff87166000908152600c602090815260408083208b8301516001600160a01b0316845290915281208054909190614f74908490615d8b565b90915550505b600080516020615f32833981519152868483600181518110614fac57634e487b7160e01b600052603260045260246000fd5b6020026020010151614fbe9190615d8b565b604051614fcc929190615d22565b60405180910390a15b50505050505050565b6000808284111561508e57600083614ff8866103e8615deb565b6150029190615dcb565b905060006103e86150138389615deb565b61501d9190615dcb565b905080881015615062576002826150368a6103e8615deb565b6150409190615dcb565b61504a9089615e2e565b6150549190615dcb565b925088602001519350615087565b87811015615087576002615076828a615e2e565b6150809190615dcb565b8951945092505b50506143bf565b828410156143bf576000846150a5856103e8615deb565b6150af9190615dcb565b905060006103e86150c0838a615deb565b6150ca9190615dcb565b9050868110156150f85760026150e08289615e2e565b6150ea9190615dcb565b925088602001519350615134565b808710156151345760028261510f896103e8615deb565b6151199190615dcb565b615123908a615e2e565b61512d9190615dcb565b8951945092505b50509550959350505050565b6000808085615154886402540be400615deb565b61515e9190615dcb565b90506402540be4006151708287615deb565b61517a9190615dcb565b92506402540be40061518c8286615deb565b6151969190615dcb565b91505094509492505050565b6060612c55848460008585843b6151fb5760405162461bcd60e51b815260206004820152601d60248201527f416464726573733a2063616c6c20746f206e6f6e2d636f6e74726163740000006044820152606401610870565b600080866001600160a01b0316858760405161521791906159b8565b60006040518083038185875af1925050503d8060008114615254576040519150601f19603f3d011682016040523d82523d6000602084013e615259565b606091505b5091509150613a43828286606083156152735750816132c0565b8251156152835782518084602001fd5b8160405162461bcd60e51b81526004016108709190615aec565b60405180602001604052806001906020820280368337509192915050565b828054828255906000526020600020908101928215615310579160200282015b8281111561531057825182546001600160a01b0319166001600160a01b039091161782556020909201916001909101906152db565b506112a69291505b808211156112a65760008155600101615318565b600082601f83011261533c578081fd5b8135602061535161534c83615d68565b615d38565b80838252828201915082860187848660051b8901011115615370578586fd5b855b8581101561539757813561538581615edc565b84529284019290840190600101615372565b5090979650505050505050565b80516001600160701b03811681146153bb57600080fd5b919050565b6000602082840312156153d1578081fd5b81356132c081615edc565b6000602082840312156153ed578081fd5b81516132c081615edc565b600080600080600060a0868803121561540f578081fd5b853561541a81615edc565b9450602086013561542a81615edc565b9350604086013561543a81615edc565b94979396509394606081013594506080013592915050565b600080600060608486031215615466578283fd5b833561547181615edc565b9250602084013561548181615edc565b929592945050506040919091013590565b6000806000606084860312156154a6578283fd5b83356154b181615edc565b92506020840135915060408401356154c881615eff565b809150509250925092565b600080600080608085870312156154e8578384fd5b84356154f381615edc565b935060208501359250604085013561550a81615eff565b9396929550929360600135925050565b6000806040838503121561552c578182fd5b82356001600160401b03811115615541578283fd5b61554d8582860161532c565b925050602083013561555e81615edc565b809150509250929050565b600080600080600080600060e0888a031215615583578485fd5b87356001600160401b03811115615598578586fd5b6155a48a828b0161532c565b97505060208801356155b581615edc565b955060408801356155c581615edc565b945060608801356155d581615edc565b935060808801356155e581615edc565b925060a08801356155f581615edc565b915060c088013562ffffff8116811461560c578182fd5b8091505092959891949750929550565b6000602080838503121561562e578182fd5b82516001600160401b03811115615643578283fd5b8301601f81018513615653578283fd5b805161566161534c82615d68565b80828252848201915084840188868560051b8701011115615680578687fd5b8694505b83851015614c01578051835260019490940193918501918501615684565b600080602083850312156156b4578182fd5b82356001600160401b03808211156156ca578384fd5b818501915085601f8301126156dd578384fd5b8135818111156156eb578485fd5b8660208260051b85010111156156ff578485fd5b60209290920196919550909350505050565b600060208284031215615722578081fd5b81516132c081615ef1565b60006080828403121561573e578081fd5b604051608081016001600160401b038111828210171561576057615760615ec6565b604052825161576e81615edc565b808252506020830151602082015260408301516040820152606083015160608201528091505092915050565b6000604082840312156157ab578081fd5b604080519081016001600160401b03811182821017156157cd576157cd615ec6565b604052825181526020928301519281019290925250919050565b6000806000606084860312156157fb578081fd5b615804846153a4565b9250615812602085016153a4565b915060408401516154c881615eff565b600060208284031215615833578081fd5b5035919050565b60006020828403121561584b578081fd5b5051919050565b60008060408385031215615864578182fd5b505080516020909101519092909150565b600080600060608486031215615889578081fd5b8351925060208401519150604084015190509250925092565b6000602082840312156158b3578081fd5b81356132c081615eff565b600080604083850312156158d0578182fd5b82356158db81615eff565b9150602083013561555e81615edc565b6000806000606084860312156158ff578081fd5b833561547181615eff565b6000806040838503121561591c578182fd5b823561592781615eff565b946020939093013593505050565b6000806000806080858703121561594a578182fd5b843561595581615eff565b93506020850135925060408501359150606085013561597381615ef1565b939692955090935050565b60008060008060808587031215615993578182fd5b843561599e81615eff565b966020860135965060408601359560600135945092505050565b600082516159ca818460208701615e45565b9190910192915050565b6001600160a01b0391909116815260200190565b6001600160a01b0392831681529116602082015260400190565b6001600160a01b03929092168252602082015260400190565b60408101818460005b6001811015615a4c5781516001600160a01b0316835260209283019290910190600101615a24565b50505060208083018460005b6001811015615a7557815183529183019190830190600101615a58565b505050509392505050565b6020808252825182820181905260009190848201906040850190845b81811015615ab857835183529284019291840191600101615a9c565b50909695505050505050565b60208101600d8310615ae657634e487b7160e01b600052602160045260246000fd5b91905290565b6020815260008251806020840152615b0b816040850160208701615e45565b601f01601f19169190910160400192915050565b60208082526013908201527210d95a5b1a5b99d31a5b5a5d14995858da1959606a1b604082015260600190565b6020808252602e908201527f496e697469616c697a61626c653a20636f6e747261637420697320616c72656160408201526d191e481a5b9a5d1a585b1a5e995960921b606082015260800190565b6020808252600b908201526a626164206164647265737360a81b604082015260600190565b602080825260129082015271141bdbdb08191bd95cdb89dd08195e1a5cdd60721b604082015260600190565b6020808252602e908201527f436f6e74726f6c6c65643a3a6f6e6c794d616e616765723a2043616c6c65722060408201526d34b9903737ba1036b0b730b3b2b960911b606082015260800190565b60208082526034908201527f436f6e74726f6c6c65643a3a6f6e6c79436f6e74726f6c6c65723a2043616c6c60408201527332b91034b9903737ba1031b7b73a3937b63632b960611b606082015260800190565b9182526001600160a01b0316602082015260400190565b918252602082015260400190565b600060a082018783526020878185015260a0604085015281875180845260c0860191508289019350845b81811015615d015784516001600160a01b031683529383019391830191600101615cdc565b50506001600160a01b03969096166060850152505050608001529392505050565b63ffffffff929092168252602082015260400190565b604051601f8201601f191681016001600160401b0381118282101715615d6057615d60615ec6565b604052919050565b60006001600160401b03821115615d8157615d81615ec6565b5060051b60200190565b60008219821115615d9e57615d9e615eb0565b500190565b600063ffffffff808316818516808303821115615dc257615dc2615eb0565b01949350505050565b600082615de657634e487b7160e01b81526012600452602481fd5b500490565b6000816000190483118215151615615e0557615e05615eb0565b500290565b600062ffffff83811690831681811015615e2657615e26615eb0565b039392505050565b600082821015615e4057615e40615eb0565b500390565b60005b83811015615e60578181015183820152602001615e48565b83811115610c9f5750506000910152565b6000600019821415615e8557615e85615eb0565b5060010190565b600063ffffffff80831681811415615ea657615ea6615eb0565b6001019392505050565b634e487b7160e01b600052601160045260246000fd5b634e487b7160e01b600052604160045260246000fd5b6001600160a01b038116811461152b57600080fd5b801515811461152b57600080fd5b63ffffffff8116811461152b57600080fdfeb28fd890673610fa2a3efb1cf64ae1b26dd83c3261fbd99f0d4a5821ccdaa9936fb183d14e6407db4dfb55deb83841283e9e3015e3aabe210d446b16f1ce0937250600b7e1d8b908a0f07fa409e087c1b43ef3a5de3c0e23a41998c311f0ea90a2646970667358221220aa3ac03882a0a5c74c8a6cec7c6c2f2439a4b79fa93cb7b908a15da1c14b568b64736f6c63430008040033",
  "devdoc": {
    "kind": "dev",
    "methods": {
      "deposit(address,uint256,uint32)": {
        "params": {
          "amount": "The amount of the token being deposited",
          "tokenAddress": "The address of the deposited token"
        }
      },
      "getAmountOut(address,address,uint256)": {
        "params": {
          "amountIn": "The exact amount of the input to swap",
          "tokenIn": "The address of the input token",
          "tokenOut": "The address of the output token"
        },
        "returns": {
          "amountOut": "The estimated amount of tokenOut to receive"
        }
      },
      "getAmountOutMinimum(address,address,uint256)": {
        "params": {
          "amountIn": "The exact amount of the input to swap",
          "tokenIn": "The address of the input token",
          "tokenOut": "The address of the output token"
        },
        "returns": {
          "amountOutMinimum": "The minimum amount of tokenOut to receive, factoring in allowable slippage"
        }
      },
      "getBalance(uint32,address)": {
        "returns": {
          "_0": "tokenAddress The address of the token to get the balance of"
        }
      },
      "getPendingYield(uint32)": {
        "details": "Returns total amount of pending yield in SPIRIT rewards",
        "params": {
          "poolId": "the integration pool to retrieve yield for"
        },
        "returns": {
          "amounts": "Amounts of pending yield",
          "tokens": "Token addresses of pending yield"
        }
      },
      "harvestYield()": {
        "details": "Harvests token yield from the integration"
      },
      "incrementBalance(uint32,address,uint256)": {
        "params": {
          "amount": "The amount of the token being deposited",
          "token": "The address of the deposited token"
        }
      },
      "initialize(address[],address,address,address,address,address,uint24)": {
        "params": {
          "controllers_": "The address of the controlling contract",
          "factoryAddress_": "The address of the SushiSwap factory contract",
          "swapRouterAddress_": "The address of the router contract"
        }
      },
      "rebalancePool(uint32,uint256,uint256,uint256)": {
        "params": {
          "maxSellTokenA": "max amount of tokenA to sell (to limit rebalancing)",
          "maxSellTokenB": "max amount of tokenB to sell (to limit rebalancing)",
          "poolId": "The ID of the pool to rebalance",
          "ratioX1000": "reserves ratio to control the price slippage"
        }
      },
      "withdraw(address,uint256,uint32)": {
        "params": {
          "amount": "The amoutn of the token to withdraw",
          "tokenAddress": "The address of the underlying token to withdraw"
        }
      }
    },
    "version": 1
  },
  "userdoc": {
    "events": {
      "CreatePool(address,address,uint32)": {
        "notice": "Events"
      }
    },
    "kind": "user",
    "methods": {
      "harvestYieldByPool(uint32,uint256,uint256,bool)": {
        "notice": "Harvest available yield for desired pool"
      },
      "rebalancePool(uint32,uint256,uint256,uint256)": {
        "notice": "Rebalances by attempting to swap up to max to get into position ratio"
      },
      "withdraw(address,uint256,uint32)": {
        "notice": "Withdraws token from the integration"
      }
    },
    "notice": "Integrates 0x Nodes to SpiritSwap",
    "version": 1
  },
  "storageLayout": {
    "storage": [
      {
        "astId": 723,
        "contract": "contracts/yield-integrations/FantomSpiritSwapIntegration.sol:FantomSpiritSwapIntegration",
        "label": "_initialized",
        "offset": 0,
        "slot": "0",
        "type": "t_bool"
      },
      {
        "astId": 726,
        "contract": "contracts/yield-integrations/FantomSpiritSwapIntegration.sol:FantomSpiritSwapIntegration",
        "label": "_initializing",
        "offset": 1,
        "slot": "0",
        "type": "t_bool"
      },
      {
        "astId": 10099,
        "contract": "contracts/yield-integrations/FantomSpiritSwapIntegration.sol:FantomSpiritSwapIntegration",
        "label": "moduleMap",
        "offset": 2,
        "slot": "0",
        "type": "t_contract(IModuleMap)21079"
      },
      {
        "astId": 4667,
        "contract": "contracts/yield-integrations/FantomSpiritSwapIntegration.sol:FantomSpiritSwapIntegration",
        "label": "_controllers",
        "offset": 0,
        "slot": "1",
        "type": "t_mapping(t_address,t_bool)"
      },
      {
        "astId": 4670,
        "contract": "contracts/yield-integrations/FantomSpiritSwapIntegration.sol:FantomSpiritSwapIntegration",
        "label": "controllers",
        "offset": 0,
        "slot": "2",
        "type": "t_array(t_address)dyn_storage"
      },
      {
        "astId": 35911,
        "contract": "contracts/yield-integrations/FantomSpiritSwapIntegration.sol:FantomSpiritSwapIntegration",
        "label": "slippageNumerator",
        "offset": 0,
        "slot": "3",
        "type": "t_uint24"
      },
      {
        "astId": 35913,
        "contract": "contracts/yield-integrations/FantomSpiritSwapIntegration.sol:FantomSpiritSwapIntegration",
        "label": "factoryAddress",
        "offset": 3,
        "slot": "3",
        "type": "t_address"
      },
      {
        "astId": 35915,
        "contract": "contracts/yield-integrations/FantomSpiritSwapIntegration.sol:FantomSpiritSwapIntegration",
        "label": "swapRouterAddress",
        "offset": 0,
        "slot": "4",
        "type": "t_address"
      },
      {
        "astId": 35917,
        "contract": "contracts/yield-integrations/FantomSpiritSwapIntegration.sol:FantomSpiritSwapIntegration",
        "label": "masterChef",
        "offset": 0,
        "slot": "5",
        "type": "t_address"
      },
      {
        "astId": 35919,
        "contract": "contracts/yield-integrations/FantomSpiritSwapIntegration.sol:FantomSpiritSwapIntegration",
        "label": "rewardToken",
        "offset": 0,
        "slot": "6",
        "type": "t_address"
      },
      {
        "astId": 35921,
        "contract": "contracts/yield-integrations/FantomSpiritSwapIntegration.sol:FantomSpiritSwapIntegration",
        "label": "wnativeAddress",
        "offset": 0,
        "slot": "7",
        "type": "t_address"
      },
      {
        "astId": 35926,
        "contract": "contracts/yield-integrations/FantomSpiritSwapIntegration.sol:FantomSpiritSwapIntegration",
        "label": "pools",
        "offset": 0,
        "slot": "8",
        "type": "t_mapping(t_uint256,t_struct(Pool)19344_storage)"
      },
      {
        "astId": 35928,
        "contract": "contracts/yield-integrations/FantomSpiritSwapIntegration.sol:FantomSpiritSwapIntegration",
        "label": "poolCount",
        "offset": 0,
        "slot": "9",
        "type": "t_uint32"
      },
      {
        "astId": 35931,
        "contract": "contracts/yield-integrations/FantomSpiritSwapIntegration.sol:FantomSpiritSwapIntegration",
        "label": "poolIds",
        "offset": 0,
        "slot": "10",
        "type": "t_array(t_uint32)dyn_storage"
      },
      {
        "astId": 35935,
        "contract": "contracts/yield-integrations/FantomSpiritSwapIntegration.sol:FantomSpiritSwapIntegration",
        "label": "stakings",
        "offset": 0,
        "slot": "11",
        "type": "t_mapping(t_uint32,t_uint256)"
      },
      {
        "astId": 35941,
        "contract": "contracts/yield-integrations/FantomSpiritSwapIntegration.sol:FantomSpiritSwapIntegration",
        "label": "balances",
        "offset": 0,
        "slot": "12",
        "type": "t_mapping(t_uint256,t_mapping(t_address,t_uint256))"
      },
      {
        "astId": 35945,
        "contract": "contracts/yield-integrations/FantomSpiritSwapIntegration.sol:FantomSpiritSwapIntegration",
        "label": "yieldBalances",
        "offset": 0,
        "slot": "13",
        "type": "t_mapping(t_uint32,t_uint256)"
      },
      {
        "astId": 35949,
        "contract": "contracts/yield-integrations/FantomSpiritSwapIntegration.sol:FantomSpiritSwapIntegration",
        "label": "harvestedYield",
        "offset": 0,
        "slot": "14",
        "type": "t_mapping(t_uint32,t_uint256)"
      },
      {
        "astId": 35953,
        "contract": "contracts/yield-integrations/FantomSpiritSwapIntegration.sol:FantomSpiritSwapIntegration",
        "label": "rewardBalances",
        "offset": 0,
        "slot": "15",
        "type": "t_mapping(t_uint32,t_uint256)"
      }
    ],
    "types": {
      "t_address": {
        "encoding": "inplace",
        "label": "address",
        "numberOfBytes": "20"
      },
      "t_array(t_address)dyn_storage": {
        "base": "t_address",
        "encoding": "dynamic_array",
        "label": "address[]",
        "numberOfBytes": "32"
      },
      "t_array(t_uint32)dyn_storage": {
        "base": "t_uint32",
        "encoding": "dynamic_array",
        "label": "uint32[]",
        "numberOfBytes": "32"
      },
      "t_bool": {
        "encoding": "inplace",
        "label": "bool",
        "numberOfBytes": "1"
      },
      "t_contract(IModuleMap)21079": {
        "encoding": "inplace",
        "label": "contract IModuleMap",
        "numberOfBytes": "20"
      },
      "t_mapping(t_address,t_bool)": {
        "encoding": "mapping",
        "key": "t_address",
        "label": "mapping(address => bool)",
        "numberOfBytes": "32",
        "value": "t_bool"
      },
      "t_mapping(t_address,t_uint256)": {
        "encoding": "mapping",
        "key": "t_address",
        "label": "mapping(address => uint256)",
        "numberOfBytes": "32",
        "value": "t_uint256"
      },
      "t_mapping(t_uint256,t_mapping(t_address,t_uint256))": {
        "encoding": "mapping",
        "key": "t_uint256",
        "label": "mapping(uint256 => mapping(address => uint256))",
        "numberOfBytes": "32",
        "value": "t_mapping(t_address,t_uint256)"
      },
      "t_mapping(t_uint256,t_struct(Pool)19344_storage)": {
        "encoding": "mapping",
        "key": "t_uint256",
        "label": "mapping(uint256 => struct IAMMIntegration.Pool)",
        "numberOfBytes": "32",
        "value": "t_struct(Pool)19344_storage"
      },
      "t_mapping(t_uint32,t_uint256)": {
        "encoding": "mapping",
        "key": "t_uint32",
        "label": "mapping(uint32 => uint256)",
        "numberOfBytes": "32",
        "value": "t_uint256"
      },
      "t_struct(Pool)19344_storage": {
        "encoding": "inplace",
        "label": "struct IAMMIntegration.Pool",
        "members": [
          {
            "astId": 19339,
            "contract": "contracts/yield-integrations/FantomSpiritSwapIntegration.sol:FantomSpiritSwapIntegration",
            "label": "tokenA",
            "offset": 0,
            "slot": "0",
            "type": "t_address"
          },
          {
            "astId": 19341,
            "contract": "contracts/yield-integrations/FantomSpiritSwapIntegration.sol:FantomSpiritSwapIntegration",
            "label": "tokenB",
            "offset": 0,
            "slot": "1",
            "type": "t_address"
          },
          {
            "astId": 19343,
            "contract": "contracts/yield-integrations/FantomSpiritSwapIntegration.sol:FantomSpiritSwapIntegration",
            "label": "positionID",
            "offset": 0,
            "slot": "2",
            "type": "t_uint256"
          }
        ],
        "numberOfBytes": "96"
      },
      "t_uint24": {
        "encoding": "inplace",
        "label": "uint24",
        "numberOfBytes": "3"
      },
      "t_uint256": {
        "encoding": "inplace",
        "label": "uint256",
        "numberOfBytes": "32"
      },
      "t_uint32": {
        "encoding": "inplace",
        "label": "uint32",
        "numberOfBytes": "4"
      }
    }
  }
}