{
  "address": "0xe0a5EDE22506f9342A0012D099dF8db4829c46E4",
  "abi": [
    {
      "anonymous": false,
      "inputs": [
        {
          "indexed": true,
          "internalType": "address",
          "name": "tokenA",
          "type": "address"
        },
        {
          "indexed": true,
          "internalType": "address",
          "name": "tokenB",
          "type": "address"
        },
        {
          "indexed": false,
          "internalType": "uint32",
          "name": "poolID",
          "type": "uint32"
        }
      ],
      "name": "CreatePool",
      "type": "event"
    },
    {
      "anonymous": false,
      "inputs": [
        {
          "indexed": false,
          "internalType": "uint256",
          "name": "poolId",
          "type": "uint256"
        },
        {
          "indexed": false,
          "internalType": "uint256",
          "name": "amount",
          "type": "uint256"
        }
      ],
      "name": "DepositToPool",
      "type": "event"
    },
    {
      "anonymous": false,
      "inputs": [
        {
          "indexed": true,
          "internalType": "uint32",
          "name": "poolID",
          "type": "uint32"
        }
      ],
      "name": "HarvestYieldError",
      "type": "event"
    },
    {
      "anonymous": false,
      "inputs": [
        {
          "indexed": false,
          "internalType": "uint256",
          "name": "amount",
          "type": "uint256"
        }
      ],
      "name": "LPTokensAcquired",
      "type": "event"
    },
    {
      "anonymous": false,
      "inputs": [
        {
          "indexed": false,
          "internalType": "uint256",
          "name": "poolId",
          "type": "uint256"
        },
        {
          "indexed": false,
          "internalType": "address",
          "name": "tokenSold",
          "type": "address"
        },
        {
          "indexed": false,
          "internalType": "uint256",
          "name": "amountSold",
          "type": "uint256"
        },
        {
          "indexed": false,
          "internalType": "address",
          "name": "tokenBought",
          "type": "address"
        },
        {
          "indexed": false,
          "internalType": "uint256",
          "name": "amountBought",
          "type": "uint256"
        }
      ],
      "name": "PoolRebalanced",
      "type": "event"
    },
    {
      "anonymous": false,
      "inputs": [
        {
          "indexed": false,
          "internalType": "uint256",
          "name": "amount",
          "type": "uint256"
        }
      ],
      "name": "TokensReceived",
      "type": "event"
    },
    {
      "anonymous": false,
      "inputs": [
        {
          "indexed": false,
          "internalType": "uint32",
          "name": "source",
          "type": "uint32"
        },
        {
          "indexed": false,
          "internalType": "uint32",
          "name": "destination",
          "type": "uint32"
        },
        {
          "indexed": false,
          "internalType": "uint256[]",
          "name": "amounts",
          "type": "uint256[]"
        },
        {
          "indexed": false,
          "internalType": "address[]",
          "name": "tokens",
          "type": "address[]"
        }
      ],
      "name": "TransferBetweenPools",
      "type": "event"
    },
    {
      "anonymous": false,
      "inputs": [
        {
          "indexed": false,
          "internalType": "uint256",
          "name": "poolId",
          "type": "uint256"
        },
        {
          "indexed": false,
          "internalType": "uint256",
          "name": "amount",
          "type": "uint256"
        }
      ],
      "name": "WithdrawnFromPool",
      "type": "event"
    },
    {
      "anonymous": false,
      "inputs": [
        {
          "indexed": false,
          "internalType": "uint256",
          "name": "amount",
          "type": "uint256"
        }
      ],
      "name": "YieldReceived",
      "type": "event"
    },
    {
      "inputs": [
        {
          "internalType": "address[]",
          "name": "controllers_",
          "type": "address[]"
        },
        {
          "internalType": "address",
          "name": "moduleMap_",
          "type": "address"
        }
      ],
      "name": "__Controlled_init",
      "outputs": [],
      "stateMutability": "nonpayable",
      "type": "function"
    },
    {
      "inputs": [
        {
          "internalType": "address",
          "name": "controller",
          "type": "address"
        }
      ],
      "name": "addController",
      "outputs": [],
      "stateMutability": "nonpayable",
      "type": "function"
    },
    {
      "inputs": [
        {
          "internalType": "uint32",
          "name": "poolId",
          "type": "uint32"
        },
        {
          "internalType": "address",
          "name": "gaugeAddress",
          "type": "address"
        }
      ],
      "name": "configureStaking",
      "outputs": [],
      "stateMutability": "nonpayable",
      "type": "function"
    },
    {
      "inputs": [
        {
          "internalType": "uint32",
          "name": "poolId",
          "type": "uint32"
        },
        {
          "internalType": "address",
          "name": "gaugeAddress",
          "type": "address"
        }
      ],
      "name": "configureStakingOverwrite",
      "outputs": [],
      "stateMutability": "nonpayable",
      "type": "function"
    },
    {
      "inputs": [
        {
          "internalType": "uint256",
          "name": "",
          "type": "uint256"
        }
      ],
      "name": "controllers",
      "outputs": [
        {
          "internalType": "address",
          "name": "",
          "type": "address"
        }
      ],
      "stateMutability": "view",
      "type": "function"
    },
    {
      "inputs": [
        {
          "internalType": "uint32",
          "name": "poolId",
          "type": "uint32"
        },
        {
          "internalType": "uint256",
          "name": "max",
          "type": "uint256"
        }
      ],
      "name": "countExtraReward",
      "outputs": [
        {
          "internalType": "uint256",
          "name": "addedReward",
          "type": "uint256"
        },
        {
          "internalType": "uint256",
          "name": "accountedReward",
          "type": "uint256"
        },
        {
          "internalType": "uint256",
          "name": "extraReward",
          "type": "uint256"
        }
      ],
      "stateMutability": "nonpayable",
      "type": "function"
    },
    {
      "inputs": [
        {
          "internalType": "address",
          "name": "tokenA",
          "type": "address"
        },
        {
          "internalType": "address",
          "name": "tokenB",
          "type": "address"
        },
        {
          "internalType": "uint256",
          "name": "",
          "type": "uint256"
        }
      ],
      "name": "createPool",
      "outputs": [],
      "stateMutability": "nonpayable",
      "type": "function"
    },
    {
      "inputs": [
        {
          "internalType": "uint32",
          "name": "poolId",
          "type": "uint32"
        },
        {
          "internalType": "address",
          "name": "token",
          "type": "address"
        },
        {
          "internalType": "uint256",
          "name": "amount",
          "type": "uint256"
        }
      ],
      "name": "decrementBalance",
      "outputs": [],
      "stateMutability": "nonpayable",
      "type": "function"
    },
    {
      "inputs": [
        {
          "internalType": "uint32",
          "name": "poolId",
          "type": "uint32"
        }
      ],
      "name": "deploy",
      "outputs": [],
      "stateMutability": "nonpayable",
      "type": "function"
    },
    {
      "inputs": [
        {
          "internalType": "address",
          "name": "tokenAddress",
          "type": "address"
        },
        {
          "internalType": "uint256",
          "name": "amount",
          "type": "uint256"
        },
        {
          "internalType": "uint32",
          "name": "poolId",
          "type": "uint32"
        }
      ],
      "name": "deposit",
      "outputs": [],
      "stateMutability": "nonpayable",
      "type": "function"
    },
    {
      "inputs": [
        {
          "internalType": "address",
          "name": "tokenIn",
          "type": "address"
        },
        {
          "internalType": "address",
          "name": "tokenOut",
          "type": "address"
        },
        {
          "internalType": "uint256",
          "name": "amountIn",
          "type": "uint256"
        }
      ],
      "name": "getAmountOut",
      "outputs": [
        {
          "internalType": "uint256",
          "name": "amountOut",
          "type": "uint256"
        }
      ],
      "stateMutability": "view",
      "type": "function"
    },
    {
      "inputs": [
        {
          "internalType": "address",
          "name": "tokenIn",
          "type": "address"
        },
        {
          "internalType": "address",
          "name": "tokenOut",
          "type": "address"
        },
        {
          "internalType": "uint256",
          "name": "amountIn",
          "type": "uint256"
        }
      ],
      "name": "getAmountOutMinimum",
      "outputs": [
        {
          "internalType": "uint256",
          "name": "amountOutMinimum",
          "type": "uint256"
        }
      ],
      "stateMutability": "view",
      "type": "function"
    },
    {
      "inputs": [
        {
          "internalType": "uint32",
          "name": "poolId",
          "type": "uint32"
        },
        {
          "internalType": "address",
          "name": "tokenAddress",
          "type": "address"
        }
      ],
      "name": "getBalance",
      "outputs": [
        {
          "internalType": "uint256",
          "name": "",
          "type": "uint256"
        }
      ],
      "stateMutability": "view",
      "type": "function"
    },
    {
      "inputs": [
        {
          "internalType": "uint32",
          "name": "poolId",
          "type": "uint32"
        }
      ],
      "name": "getHarvestedYield",
      "outputs": [
        {
          "internalType": "uint256",
          "name": "",
          "type": "uint256"
        }
      ],
      "stateMutability": "view",
      "type": "function"
    },
    {
      "inputs": [
        {
          "internalType": "uint32",
          "name": "poolId",
          "type": "uint32"
        }
      ],
      "name": "getPendingYield",
      "outputs": [
        {
          "internalType": "address[1]",
          "name": "tokens",
          "type": "address[1]"
        },
        {
          "internalType": "uint256[1]",
          "name": "amounts",
          "type": "uint256[1]"
        }
      ],
      "stateMutability": "view",
      "type": "function"
    },
    {
      "inputs": [
        {
          "internalType": "uint32",
          "name": "pid",
          "type": "uint32"
        }
      ],
      "name": "getPool",
      "outputs": [
        {
          "components": [
            {
              "internalType": "address",
              "name": "tokenA",
              "type": "address"
            },
            {
              "internalType": "address",
              "name": "tokenB",
              "type": "address"
            },
            {
              "internalType": "uint256",
              "name": "positionID",
              "type": "uint256"
            }
          ],
          "internalType": "struct IAMMIntegration.Pool",
          "name": "",
          "type": "tuple"
        }
      ],
      "stateMutability": "view",
      "type": "function"
    },
    {
      "inputs": [
        {
          "internalType": "uint32",
          "name": "poolId",
          "type": "uint32"
        }
      ],
      "name": "getPoolBalance",
      "outputs": [
        {
          "internalType": "uint256",
          "name": "tokenA",
          "type": "uint256"
        },
        {
          "internalType": "uint256",
          "name": "tokenB",
          "type": "uint256"
        }
      ],
      "stateMutability": "view",
      "type": "function"
    },
    {
      "inputs": [
        {
          "internalType": "uint32[]",
          "name": "pids",
          "type": "uint32[]"
        }
      ],
      "name": "getRewardBalances",
      "outputs": [
        {
          "internalType": "uint256[]",
          "name": "rewardAmounts",
          "type": "uint256[]"
        }
      ],
      "stateMutability": "view",
      "type": "function"
    },
    {
      "inputs": [
        {
          "internalType": "uint32",
          "name": "poolId",
          "type": "uint32"
        }
      ],
      "name": "getStakingAddress",
      "outputs": [
        {
          "internalType": "address",
          "name": "",
          "type": "address"
        }
      ],
      "stateMutability": "view",
      "type": "function"
    },
    {
      "inputs": [],
      "name": "getTotalHarvestedYield",
      "outputs": [
        {
          "internalType": "uint256",
          "name": "amount",
          "type": "uint256"
        }
      ],
      "stateMutability": "view",
      "type": "function"
    },
    {
      "inputs": [
        {
          "internalType": "uint32[]",
          "name": "pids",
          "type": "uint32[]"
        }
      ],
      "name": "getYieldBalances",
      "outputs": [
        {
          "internalType": "uint256[]",
          "name": "amounts",
          "type": "uint256[]"
        }
      ],
      "stateMutability": "view",
      "type": "function"
    },
    {
      "inputs": [],
      "name": "harvestYield",
      "outputs": [],
      "stateMutability": "nonpayable",
      "type": "function"
    },
    {
      "inputs": [
        {
          "internalType": "uint32",
          "name": "poolId",
          "type": "uint32"
        },
        {
          "internalType": "uint256",
          "name": "rewardRatioX1000",
          "type": "uint256"
        },
        {
          "internalType": "uint256",
          "name": "",
          "type": "uint256"
        },
        {
          "internalType": "bool",
          "name": "",
          "type": "bool"
        }
      ],
      "name": "harvestYieldByPool",
      "outputs": [],
      "stateMutability": "nonpayable",
      "type": "function"
    },
    {
      "inputs": [
        {
          "internalType": "uint32",
          "name": "poolId",
          "type": "uint32"
        },
        {
          "internalType": "address",
          "name": "token",
          "type": "address"
        },
        {
          "internalType": "uint256",
          "name": "amount",
          "type": "uint256"
        }
      ],
      "name": "incrementBalance",
      "outputs": [],
      "stateMutability": "nonpayable",
      "type": "function"
    },
    {
      "inputs": [
        {
          "internalType": "address[]",
          "name": "controllers_",
          "type": "address[]"
        },
        {
          "internalType": "address",
          "name": "moduleMap_",
          "type": "address"
        },
        {
          "internalType": "address",
          "name": "factoryAddress_",
          "type": "address"
        },
        {
          "internalType": "address",
          "name": "swapRouterAddress_",
          "type": "address"
        },
        {
          "internalType": "address",
          "name": "rewardToken_",
          "type": "address"
        },
        {
          "internalType": "uint24",
          "name": "slippageNumerator_",
          "type": "uint24"
        }
      ],
      "name": "initialize",
      "outputs": [],
      "stateMutability": "nonpayable",
      "type": "function"
    },
    {
      "inputs": [
        {
          "internalType": "uint32",
          "name": "poolId",
          "type": "uint32"
        }
      ],
      "name": "manualDeploy",
      "outputs": [],
      "stateMutability": "nonpayable",
      "type": "function"
    },
    {
      "inputs": [
        {
          "internalType": "address",
          "name": "tokenAddress",
          "type": "address"
        },
        {
          "internalType": "uint256",
          "name": "amount",
          "type": "uint256"
        },
        {
          "internalType": "uint32",
          "name": "poolId",
          "type": "uint32"
        },
        {
          "internalType": "uint256",
          "name": "ratioX1000",
          "type": "uint256"
        }
      ],
      "name": "manualWithdraw",
      "outputs": [],
      "stateMutability": "nonpayable",
      "type": "function"
    },
    {
      "inputs": [
        {
          "internalType": "uint32",
          "name": "poolId",
          "type": "uint32"
        },
        {
          "internalType": "address",
          "name": "destination",
          "type": "address"
        },
        {
          "internalType": "uint256",
          "name": "amount",
          "type": "uint256"
        }
      ],
      "name": "migrateLPTokens",
      "outputs": [],
      "stateMutability": "nonpayable",
      "type": "function"
    },
    {
      "inputs": [
        {
          "internalType": "uint32",
          "name": "sourcePool",
          "type": "uint32"
        },
        {
          "internalType": "address",
          "name": "destination",
          "type": "address"
        },
        {
          "internalType": "uint256",
          "name": "amount",
          "type": "uint256"
        }
      ],
      "name": "migrateRewards",
      "outputs": [],
      "stateMutability": "nonpayable",
      "type": "function"
    },
    {
      "inputs": [],
      "name": "moduleMap",
      "outputs": [
        {
          "internalType": "contract IModuleMap",
          "name": "",
          "type": "address"
        }
      ],
      "stateMutability": "view",
      "type": "function"
    },
    {
      "inputs": [],
      "name": "poolCount",
      "outputs": [
        {
          "internalType": "uint32",
          "name": "",
          "type": "uint32"
        }
      ],
      "stateMutability": "view",
      "type": "function"
    },
    {
      "inputs": [
        {
          "internalType": "uint32",
          "name": "poolId",
          "type": "uint32"
        },
        {
          "internalType": "uint256",
          "name": "ratioX1000",
          "type": "uint256"
        },
        {
          "internalType": "uint256",
          "name": "maxSellTokenA",
          "type": "uint256"
        },
        {
          "internalType": "uint256",
          "name": "maxSellTokenB",
          "type": "uint256"
        }
      ],
      "name": "rebalancePool",
      "outputs": [],
      "stateMutability": "nonpayable",
      "type": "function"
    },
    {
      "inputs": [
        {
          "internalType": "uint32",
          "name": "poolId",
          "type": "uint32"
        }
      ],
      "name": "receiveMigration",
      "outputs": [],
      "stateMutability": "nonpayable",
      "type": "function"
    },
    {
      "inputs": [
        {
          "internalType": "uint32",
          "name": "poolId",
          "type": "uint32"
        }
      ],
      "name": "stakeLPTokens",
      "outputs": [],
      "stateMutability": "nonpayable",
      "type": "function"
    },
    {
      "inputs": [
        {
          "internalType": "address",
          "name": "tokenIn",
          "type": "address"
        },
        {
          "internalType": "address",
          "name": "tokenOut",
          "type": "address"
        },
        {
          "internalType": "address",
          "name": "recipient",
          "type": "address"
        },
        {
          "internalType": "uint256",
          "name": "amountIn",
          "type": "uint256"
        },
        {
          "internalType": "uint256",
          "name": "amountOutMin",
          "type": "uint256"
        }
      ],
      "name": "swapExactInput",
      "outputs": [
        {
          "internalType": "uint256[]",
          "name": "",
          "type": "uint256[]"
        }
      ],
      "stateMutability": "nonpayable",
      "type": "function"
    },
    {
      "inputs": [
        {
          "internalType": "address",
          "name": "tokenAddress",
          "type": "address"
        },
        {
          "internalType": "uint256",
          "name": "amount",
          "type": "uint256"
        },
        {
          "internalType": "uint32",
          "name": "poolId",
          "type": "uint32"
        }
      ],
      "name": "withdraw",
      "outputs": [],
      "stateMutability": "nonpayable",
      "type": "function"
    },
    {
      "inputs": [
        {
          "internalType": "address",
          "name": "tokenAddress",
          "type": "address"
        },
        {
          "internalType": "uint256",
          "name": "amount",
          "type": "uint256"
        },
        {
          "internalType": "uint32",
          "name": "poolId",
          "type": "uint32"
        },
        {
          "internalType": "uint256",
          "name": "ratioX1000",
          "type": "uint256"
        }
      ],
      "name": "withdraw",
      "outputs": [],
      "stateMutability": "nonpayable",
      "type": "function"
    },
    {
      "inputs": [
        {
          "internalType": "uint32",
          "name": "",
          "type": "uint32"
        }
      ],
      "name": "yieldBalances",
      "outputs": [
        {
          "internalType": "uint256",
          "name": "",
          "type": "uint256"
        }
      ],
      "stateMutability": "view",
      "type": "function"
    },
    {
      "stateMutability": "payable",
      "type": "receive"
    }
  ],
  "transactionHash": "0xf0453d703d60e3d7669bf862c77da1ad145a0c41c01248f986c87a30e516eef3",
  "args": [],
  "solcInputHash": "da2d68eb9d8b69b822ca93de340c44a8",
  "bytecode": "0x608060405234801561001057600080fd5b50615c4f80620000216000396000f3fe6080604052600436106101b95760003560e01c806307054aab146101c55780630c3fa05f146101e75780630f0a1c6f146102075780633963f16714610243578063403df5441461026357806348342f801461029157806349470541146102cd5780634aa06652146102fa5780634d24e9e41461032857806351810fb5146103485780635441c2b61461036857806355b961801461038857806358a0f0491461039d57806359cf86da146103bd5780635a1fcc3a146103dd5780635ce564f4146103fd5780635f53bc431461041d5780636adbcf3c1461043d5780637534e0601461045d578063754a02741461047d57806378730d991461049d5780637db2ddfe146104bd57806390428160146104dd578063983673d4146104fd57806398c671ce146105385780639da46ee314610558578063a4515d37146105a8578063a7fc7a07146105db578063a816800c146105fb578063ac211b951461061b578063b1cccca21461063b578063ccbfc16c1461065b578063cf73715a1461067b578063e809529e1461069b578063e8d991d1146106c8578063e94b0dd2146106dd578063eb40c545146106fd578063f525cb681461073257600080fd5b366101c057005b600080fd5b3480156101d157600080fd5b506101e56101e03660046155b8565b610764565b005b3480156101f357600080fd5b506101e561020236600461556f565b610952565b34801561021357600080fd5b5060005461022d906201000090046001600160a01b031681565b60405161023a91906156a1565b60405180910390f35b34801561024f57600080fd5b506101e561025e3660046155b8565b610b4e565b34801561026f57600080fd5b5061028361027e36600461556f565b610d0d565b60405161023a9291906156e8565b34801561029d57600080fd5b5061022d6102ac36600461556f565b63ffffffff166000908152600a60205260409020546001600160a01b031690565b3480156102d957600080fd5b506102ed6102e8366004615193565b610dd8565b60405161023a919061574d565b34801561030657600080fd5b5061031a6103153660046151ed565b610e21565b60405190815260200161023a565b34801561033457600080fd5b506102ed610343366004615429565b610e3f565b34801561035457600080fd5b506101e56103633660046151ed565b610f34565b34801561037457600080fd5b5061031a61038336600461558b565b6112a1565b34801561039457600080fd5b5061031a6112d2565b3480156103a957600080fd5b506102ed6103b8366004615429565b611318565b3480156103c957600080fd5b506101e56103d83660046155b8565b611402565b3480156103e957600080fd5b506101e56103f836600461558b565b611561565b34801561040957600080fd5b506101e561041836600461556f565b61168d565b34801561042957600080fd5b506101e56104383660046155b8565b6116c8565b34801561044957600080fd5b506101e561045836600461556f565b61181d565b34801561046957600080fd5b506101e5610478366004615602565b611a80565b34801561048957600080fd5b506101e561049836600461526e565b611d13565b3480156104a957600080fd5b506101e56104b8366004615304565b611e3d565b3480156104c957600080fd5b506101e56104d836600461522d565b612092565b3480156104e957600080fd5b506101e56104f836600461558b565b6121be565b34801561050957600080fd5b5061051d6105183660046155d7565b6122e6565b6040805193845260208401929092529082015260600161023a565b34801561054457600080fd5b506101e56105533660046152b5565b61241e565b34801561056457600080fd5b5061057861057336600461556f565b6125c3565b6040805182516001600160a01b03908116825260208085015190911690820152918101519082015260600161023a565b3480156105b457600080fd5b5061031a6105c336600461556f565b63ffffffff166000908152600d602052604090205490565b3480156105e757600080fd5b506101e56105f636600461515b565b612622565b34801561060757600080fd5b506101e561061636600461526e565b612860565b34801561062757600080fd5b506101e561063636600461564b565b61298b565b34801561064757600080fd5b506101e561065636600461522d565b612c68565b34801561066757600080fd5b5061031a6106763660046151ed565b612cd0565b34801561068757600080fd5b506101e561069636600461556f565b612d16565b3480156106a757600080fd5b5061031a6106b636600461556f565b600c6020526000908152604090205481565b3480156106d457600080fd5b506101e5612e32565b3480156106e957600080fd5b5061022d6106f83660046154ef565b613026565b34801561070957600080fd5b5061071d61071836600461556f565b613050565b6040805192835260208301919091520161023a565b34801561073e57600080fd5b5060085461074f9063ffffffff1681565b60405163ffffffff909116815260200161023a565b600080546040516337c61fc560e11b8152620100009091046001600160a01b031691636f8c3f8a916107999190600401615791565b60206040518083038186803b1580156107b157600080fd5b505afa1580156107c5573d6000803e3d6000fd5b505050506040513d601f19601f820116820180604052508101906107e99190615177565b6001600160a01b031663f3ae2415336040518263ffffffff1660e01b815260040161081491906156a1565b60206040518083038186803b15801561082c57600080fd5b505afa158015610840573d6000803e3d6000fd5b505050506040513d601f19601f820116820180604052508101906108649190615498565b6108895760405162461bcd60e51b8152600401610880906158b8565b60405180910390fd5b6000610894846125c3565b63ffffffff85166000908152600a602052604090819020549051632e1a7d4d60e01b8152600481018590529192506001600160a01b031690632e1a7d4d90602401600060405180830381600087803b1580156108ef57600080fd5b505af1158015610903573d6000803e3d6000fd5b5050505061091684826000015185613066565b61092584826020015185613066565b61094c838361093c846000015185602001516130d0565b6001600160a01b03169190613161565b50505050565b600080546040516337c61fc560e11b8152620100009091046001600160a01b031691636f8c3f8a916109879190600401615791565b60206040518083038186803b15801561099f57600080fd5b505afa1580156109b3573d6000803e3d6000fd5b505050506040513d601f19601f820116820180604052508101906109d79190615177565b6001600160a01b031663f3ae2415336040518263ffffffff1660e01b8152600401610a0291906156a1565b60206040518083038186803b158015610a1a57600080fd5b505afa158015610a2e573d6000803e3d6000fd5b505050506040513d601f19601f82011682018060405250810190610a529190615498565b610a6e5760405162461bcd60e51b8152600401610880906158b8565b63ffffffff81166000908152600760209081526040808320815160608101835281546001600160a01b03908116808352600184015490911694820185905260029092015492810192909252909291610ace91610ac9916130d0565b6131b7565b90508015610b495763ffffffff83166000908152600a60205260409081902054905163b6b55f2560e01b8152600481018390526001600160a01b039091169063b6b55f2590602401600060405180830381600087803b158015610b3057600080fd5b505af1158015610b44573d6000803e3d6000fd5b505050505b505050565b600080546040516337c61fc560e11b8152620100009091046001600160a01b031691636f8c3f8a91610b839190600401615791565b60206040518083038186803b158015610b9b57600080fd5b505afa158015610baf573d6000803e3d6000fd5b505050506040513d601f19601f82011682018060405250810190610bd39190615177565b6001600160a01b031663f3ae2415336040518263ffffffff1660e01b8152600401610bfe91906156a1565b60206040518083038186803b158015610c1657600080fd5b505afa158015610c2a573d6000803e3d6000fd5b505050506040513d601f19601f82011682018060405250810190610c4e9190615498565b610c6a5760405162461bcd60e51b8152600401610880906158b8565b63ffffffff83166000908152600e6020526040902054811115610ccc5760405162461bcd60e51b815260206004820152601a6024820152796e6f7420656e6f75676820726577617264732062616c616e636560301b6044820152606401610880565b63ffffffff83166000908152600e602052604081208054839290610cf1908490615ad6565b9091555050600554610b49906001600160a01b03168383613161565b610d15615038565b610d1d615038565b6005546001600160a01b03908116835263ffffffff84166000908152600e6020908152604080832054600a909252918290205491516246613160e11b815290929190911690628cc26290610d759030906004016156a1565b60206040518083038186803b158015610d8d57600080fd5b505afa158015610da1573d6000803e3d6000fd5b505050506040513d601f19601f82011682018060405250810190610dc59190615507565b610dcf9190615a33565b81529092909150565b3360009081526001602052604090205460609060ff16610e0a5760405162461bcd60e51b815260040161088090615906565b610e178686868686613236565b9695505050505050565b6000806000610e308686613427565b91509150610e178483836134fe565b6060816001600160401b03811115610e6757634e487b7160e01b600052604160045260246000fd5b604051908082528060200260200182016040528015610e90578160200160208202803683370190505b50905060005b82811015610f2d57600e6000858584818110610ec257634e487b7160e01b600052603260045260246000fd5b9050602002016020810190610ed7919061556f565b63ffffffff1663ffffffff16815260200190815260200160002054828281518110610f1257634e487b7160e01b600052603260045260246000fd5b6020908102919091010152610f2681615b19565b9050610e96565b5092915050565b600080546040516337c61fc560e11b8152620100009091046001600160a01b031691636f8c3f8a91610f699190600401615791565b60206040518083038186803b158015610f8157600080fd5b505afa158015610f95573d6000803e3d6000fd5b505050506040513d601f19601f82011682018060405250810190610fb99190615177565b6001600160a01b031663f3ae2415336040518263ffffffff1660e01b8152600401610fe491906156a1565b60206040518083038186803b158015610ffc57600080fd5b505afa158015611010573d6000803e3d6000fd5b505050506040513d601f19601f820116820180604052508101906110349190615498565b6110505760405162461bcd60e51b8152600401610880906158b8565b6008805463ffffffff1690600061106683615b34565b825463ffffffff91821661010093840a9081029083021990911617909255600880548316600090815260076020819052604080832080546001600160a01b03808d166001600160a01b03199283168117909355865489168652838620600190810180548e841694169390931790925586546009805493840181559096529581047f6e1540171b6c0c960b71a7020d9f60077f6af931a8bbf590da0223dacf75c7af018054600492909516820290970a948816850294909702199092169290921790935583549051636eb1769f60e11b81526000199550929363dd62ed3e936111529330931691016156b5565b60206040518083038186803b15801561116a57600080fd5b505afa15801561117e573d6000803e3d6000fd5b505050506040513d601f19601f820116820180604052508101906111a29190615507565b116111de576004546111c2906001600160a01b0385811691166000613604565b6004546111de906001600160a01b038581169116600019613604565b60048054604051636eb1769f60e11b8152600019926001600160a01b038681169363dd62ed3e9361121593309390921691016156b5565b60206040518083038186803b15801561122d57600080fd5b505afa158015611241573d6000803e3d6000fd5b505050506040513d601f19601f820116820180604052508101906112659190615507565b11610b4957600454611285906001600160a01b0384811691166000613604565b600454610b49906001600160a01b038481169116600019613604565b63ffffffff82166000908152600b602090815260408083206001600160a01b03851684529091529020545b92915050565b6000805b60085463ffffffff9081169082161015611314576112f86105c3826001615a4b565b6113029083615a33565b915061130d81615b34565b90506112d6565b5090565b6060816001600160401b0381111561134057634e487b7160e01b600052604160045260246000fd5b604051908082528060200260200182016040528015611369578160200160208202803683370190505b50905060005b82811015610f2d576113c784848381811061139a57634e487b7160e01b600052603260045260246000fd5b90506020020160208101906113af919061556f565b63ffffffff166000908152600c602052604090205490565b8282815181106113e757634e487b7160e01b600052603260045260246000fd5b60209081029190910101526113fb81615b19565b905061136f565b600080546040516337c61fc560e11b8152620100009091046001600160a01b031691636f8c3f8a916114379190600401615791565b60206040518083038186803b15801561144f57600080fd5b505afa158015611463573d6000803e3d6000fd5b505050506040513d601f19601f820116820180604052508101906114879190615177565b6001600160a01b031663f3ae2415336040518263ffffffff1660e01b81526004016114b291906156a1565b60206040518083038186803b1580156114ca57600080fd5b505afa1580156114de573d6000803e3d6000fd5b505050506040513d601f19601f820116820180604052508101906115029190615498565b61151e5760405162461bcd60e51b8152600401610880906158b8565b63ffffffff83166000908152600b602090815260408083206001600160a01b038616845290915281208054839290611557908490615a33565b9091555050505050565b600080546040516337c61fc560e11b8152620100009091046001600160a01b031691636f8c3f8a916115969190600401615791565b60206040518083038186803b1580156115ae57600080fd5b505afa1580156115c2573d6000803e3d6000fd5b505050506040513d601f19601f820116820180604052508101906115e69190615177565b6001600160a01b031663f3ae2415336040518263ffffffff1660e01b815260040161161191906156a1565b60206040518083038186803b15801561162957600080fd5b505afa15801561163d573d6000803e3d6000fd5b505050506040513d601f19601f820116820180604052508101906116619190615498565b61167d5760405162461bcd60e51b8152600401610880906158b8565b61168982826000613716565b5050565b3360009081526001602052604090205460ff166116bc5760405162461bcd60e51b815260040161088090615906565b6116c581613984565b50565b600080546040516337c61fc560e11b8152620100009091046001600160a01b031691636f8c3f8a916116fd9190600401615791565b60206040518083038186803b15801561171557600080fd5b505afa158015611729573d6000803e3d6000fd5b505050506040513d601f19601f8201168201806040525081019061174d9190615177565b6001600160a01b031663f3ae2415336040518263ffffffff1660e01b815260040161177891906156a1565b60206040518083038186803b15801561179057600080fd5b505afa1580156117a4573d6000803e3d6000fd5b505050506040513d601f19601f820116820180604052508101906117c89190615498565b6117e45760405162461bcd60e51b8152600401610880906158b8565b63ffffffff83166000908152600b602090815260408083206001600160a01b038616845290915281208054839290611557908490615ad6565b600080546040516337c61fc560e11b8152620100009091046001600160a01b031691636f8c3f8a916118529190600401615791565b60206040518083038186803b15801561186a57600080fd5b505afa15801561187e573d6000803e3d6000fd5b505050506040513d601f19601f820116820180604052508101906118a29190615177565b6001600160a01b031663f3ae2415336040518263ffffffff1660e01b81526004016118cd91906156a1565b60206040518083038186803b1580156118e557600080fd5b505afa1580156118f9573d6000803e3d6000fd5b505050506040513d601f19601f8201168201806040525081019061191d9190615498565b6119395760405162461bcd60e51b8152600401610880906158b8565b6000611944826125c3565b80519091506001600160a01b031661198e5760405162461bcd60e51b815260206004820152600d60248201526c1b5d5cdd08185919081c1bdbdb609a1b6044820152606401610880565b611999826000613bc9565b50505060006119b0826000015183602001516130d0565b6001600160a01b03166370a08231306040518263ffffffff1660e01b81526004016119db91906156a1565b60206040518083038186803b1580156119f357600080fd5b505afa158015611a07573d6000803e3d6000fd5b505050506040513d601f19601f82011682018060405250810190611a2b9190615507565b9050600080516020615bfa83398151915281604051611a4c91815260200190565b60405180910390a1600080516020615bba8339815191528382604051611a739291906159ca565b60405180910390a1505050565b600080546040516337c61fc560e11b8152620100009091046001600160a01b031691636f8c3f8a91611ab59190600401615791565b60206040518083038186803b158015611acd57600080fd5b505afa158015611ae1573d6000803e3d6000fd5b505050506040513d601f19601f82011682018060405250810190611b059190615177565b6001600160a01b031663f3ae2415336040518263ffffffff1660e01b8152600401611b3091906156a1565b60206040518083038186803b158015611b4857600080fd5b505afa158015611b5c573d6000803e3d6000fd5b505050506040513d601f19601f82011682018060405250810190611b809190615498565b611b9c5760405162461bcd60e51b8152600401610880906158b8565b600554600090611bb4906001600160a01b03166131b7565b63ffffffff86166000908152600a6020526040808220548151631e8c5c8960e11b815291519394506001600160a01b031692633d18b9129260048084019391929182900301818387803b158015611c0a57600080fd5b505af1158015611c1e573d6000803e3d6000fd5b50505050611c2c8582613d0c565b5063ffffffff85166000908152600e60205260409020548015611d0b57600554600654611c66916001600160a01b03908116911687613d68565b600554600654600091611c92916001600160a01b0391821691163085611c8d848483612cd0565b613236565b63ffffffff88166000908152600e6020526040812055805190915081906001908110611cce57634e487b7160e01b600052603260045260246000fd5b6020026020010151600c60008963ffffffff1663ffffffff1681526020019081526020016000206000828254611d049190615a33565b9091555050505b505050505050565b600080546040516337c61fc560e11b8152620100009091046001600160a01b031691636f8c3f8a91611d489190600401615791565b60206040518083038186803b158015611d6057600080fd5b505afa158015611d74573d6000803e3d6000fd5b505050506040513d601f19601f82011682018060405250810190611d989190615177565b6001600160a01b031663f3ae2415336040518263ffffffff1660e01b8152600401611dc391906156a1565b60206040518083038186803b158015611ddb57600080fd5b505afa158015611def573d6000803e3d6000fd5b505050506040513d601f19601f82011682018060405250810190611e139190615498565b611e2f5760405162461bcd60e51b8152600401610880906158b8565b61094c848484846000613d93565b600054610100900460ff16611e585760005460ff1615611e5c565b303b155b611e785760405162461bcd60e51b815260040161088090615819565b600054610100900460ff16158015611e9a576000805461ffff19166101011790555b6001600160a01b038516611ec05760405162461bcd60e51b815260040161088090615867565b6001600160a01b038416611ee65760405162461bcd60e51b815260040161088090615867565b6001600160a01b038316611f0c5760405162461bcd60e51b815260040161088090615867565b611f16878761241e565b60038054600480546001600160a01b03199081166001600160a01b038981169190911783556001600160b81b031990931663010000008a85160262ffffff19161762ffffff8716178455600580549091168784161790556000546040516337c61fc560e11b81526201000090910490921692636f8c3f8a92611f989201615791565b60206040518083038186803b158015611fb057600080fd5b505afa158015611fc4573d6000803e3d6000fd5b505050506040513d601f19601f82011682018060405250810190611fe89190615177565b6001600160a01b0316638b9c94896040518163ffffffff1660e01b815260040160206040518083038186803b15801561202057600080fd5b505afa158015612034573d6000803e3d6000fd5b505050506040513d601f19601f820116820180604052508101906120589190615177565b600680546001600160a01b0319166001600160a01b03929092169190911790558015610b44576000805461ff001916905550505050505050565b3360009081526001602052604090205460ff166120c15760405162461bcd60e51b815260040161088090615906565b6120cb81846112a1565b82116121af57600080546040516337c61fc560e11b815261216b92620100009092046001600160a01b031691636f8c3f8a9161210a9190600401615791565b60206040518083038186803b15801561212257600080fd5b505afa158015612136573d6000803e3d6000fd5b505050506040513d601f19601f8201168201806040525081019061215a9190615177565b6001600160a01b0385169084613161565b63ffffffff81166000908152600b602090815260408083206001600160a01b0387168452909152812080548492906121a4908490615ad6565b90915550610b499050565b610b4983838360006001613d93565b600080546040516337c61fc560e11b8152620100009091046001600160a01b031691636f8c3f8a916121f39190600401615791565b60206040518083038186803b15801561220b57600080fd5b505afa15801561221f573d6000803e3d6000fd5b505050506040513d601f19601f820116820180604052508101906122439190615177565b6001600160a01b031663f3ae2415336040518263ffffffff1660e01b815260040161226e91906156a1565b60206040518083038186803b15801561228657600080fd5b505afa15801561229a573d6000803e3d6000fd5b505050506040513d601f19601f820116820180604052508101906122be9190615498565b6122da5760405162461bcd60e51b8152600401610880906158b8565b61168982826001613716565b600080546040516337c61fc560e11b815282918291620100009091046001600160a01b031690636f8c3f8a90612320908490600401615791565b60206040518083038186803b15801561233857600080fd5b505afa15801561234c573d6000803e3d6000fd5b505050506040513d601f19601f820116820180604052508101906123709190615177565b6001600160a01b031663f3ae2415336040518263ffffffff1660e01b815260040161239b91906156a1565b60206040518083038186803b1580156123b357600080fd5b505afa1580156123c7573d6000803e3d6000fd5b505050506040513d601f19601f820116820180604052508101906123eb9190615498565b6124075760405162461bcd60e51b8152600401610880906158b8565b6124118585613bc9565b9250925092509250925092565b600054610100900460ff166124395760005460ff161561243d565b303b155b6124595760405162461bcd60e51b815260040161088090615819565b600054610100900460ff1615801561247b576000805461ffff19166101011790555b6001600160a01b0382166124a15760405162461bcd60e51b815260040161088090615867565b60005b83518110156125195760006001600160a01b03168482815181106124d857634e487b7160e01b600052603260045260246000fd5b60200260200101516001600160a01b031614156125075760405162461bcd60e51b815260040161088090615867565b8061251181615b19565b9150506124a4565b5060005b835181101561258f57600180600086848151811061254b57634e487b7160e01b600052603260045260246000fd5b6020908102919091018101516001600160a01b03168252810191909152604001600020805460ff19169115159190911790558061258781615b19565b91505061251d565b5082516125a3906002906020860190615056565b506125ad8261408a565b8015610b49576000805461ff0019169055505050565b60408051606080820183526000808352602080840182905292840181905263ffffffff94909416845260078252928290208251938401835280546001600160a01b03908116855260018201541691840191909152600201549082015290565b600080546040516337c61fc560e11b8152620100009091046001600160a01b031691636f8c3f8a916126579190600401615791565b60206040518083038186803b15801561266f57600080fd5b505afa158015612683573d6000803e3d6000fd5b505050506040513d601f19601f820116820180604052508101906126a79190615177565b6001600160a01b0316632f54bf6e336040518263ffffffff1660e01b81526004016126d291906156a1565b60206040518083038186803b1580156126ea57600080fd5b505afa1580156126fe573d6000803e3d6000fd5b505050506040513d601f19601f820116820180604052508101906127229190615498565b6127815760405162461bcd60e51b815260206004820152602a60248201527f436f6e74726f6c6c65643a3a6f6e6c794f776e65723a2043616c6c6572206973604482015269103737ba1037bbb732b960b11b6064820152608401610880565b6001600160a01b03811660009081526001602081905260408220805460ff19169091179055805b60025481101561280957600281815481106127d357634e487b7160e01b600052603260045260246000fd5b6000918252602090912001546001600160a01b03848116911614156127f757600191505b8061280181615b19565b9150506127a8565b508061168957600280546001810182556000919091527f405787fa12a823e0f2b7631cc41b3ba8828b3321ca811111fa75cd3aa3bb5ace0180546001600160a01b0384166001600160a01b03199091161790555050565b3360009081526001602052604090205460ff1661288f5760405162461bcd60e51b815260040161088090615906565b61289982856112a1565b831161297d57600080546040516337c61fc560e11b815261293992620100009092046001600160a01b031691636f8c3f8a916128d89190600401615791565b60206040518083038186803b1580156128f057600080fd5b505afa158015612904573d6000803e3d6000fd5b505050506040513d601f19601f820116820180604052508101906129289190615177565b6001600160a01b0386169085613161565b63ffffffff82166000908152600b602090815260408083206001600160a01b038816845290915281208054859290612972908490615ad6565b9091555061094c9050565b61094c848484846001613d93565b600080546040516337c61fc560e11b8152620100009091046001600160a01b031691636f8c3f8a916129c09190600401615791565b60206040518083038186803b1580156129d857600080fd5b505afa1580156129ec573d6000803e3d6000fd5b505050506040513d601f19601f82011682018060405250810190612a109190615177565b6001600160a01b031663f3ae2415336040518263ffffffff1660e01b8152600401612a3b91906156a1565b60206040518083038186803b158015612a5357600080fd5b505afa158015612a67573d6000803e3d6000fd5b505050506040513d601f19601f82011682018060405250810190612a8b9190615498565b612aa75760405162461bcd60e51b8152600401610880906158b8565b6000612ab2856125c3565b63ffffffff86166000908152600760205260409020549091506001600160a01b0316612af05760405162461bcd60e51b81526004016108809061588c565b612b038160000151826020015186613d68565b600080612b2b83612b188986600001516112a1565b612b268a87602001516112a1565b61411e565b91509150600080612b3f8486858a8a6141a9565b915091506000612b4e826131b7565b9050612b6285833086611c8d8a888a612cd0565b50600081612b6f846131b7565b612b799190615ad6565b90508015612c5b5763ffffffff8b166000908152600b602090815260408083206001600160a01b038a16845290915281208054869290612bba908490615ad6565b909155505063ffffffff8b166000908152600b602090815260408083206001600160a01b038716845290915281208054839290612bf8908490615a33565b90915550506040805163ffffffff8d1681526001600160a01b038881166020830152818301879052851660608201526080810183905290517f3318ce2371d9cd19d64b4ca999bd8bdcfcf18e4ec416d7dc611b729b2e59c5009181900360a00190a15b5050505050505050505050565b3360009081526001602052604090205460ff16612c975760405162461bcd60e51b815260040161088090615906565b63ffffffff81166000908152600b602090815260408083206001600160a01b038716845290915281208054849290611557908490615a33565b600354600090620f424090612cea9062ffffff1682615ab2565b62ffffff16612cfa868686610e21565b612d049190615a93565b612d0e9190615a73565b949350505050565b600080546040516337c61fc560e11b8152620100009091046001600160a01b031691636f8c3f8a91612d4b9190600401615791565b60206040518083038186803b158015612d6357600080fd5b505afa158015612d77573d6000803e3d6000fd5b505050506040513d601f19601f82011682018060405250810190612d9b9190615177565b6001600160a01b031663f3ae2415336040518263ffffffff1660e01b8152600401612dc691906156a1565b60206040518083038186803b158015612dde57600080fd5b505afa158015612df2573d6000803e3d6000fd5b505050506040513d601f19601f82011682018060405250810190612e169190615498565b6116bc5760405162461bcd60e51b8152600401610880906158b8565b3360009081526001602052604090205460ff16612e615760405162461bcd60e51b815260040161088090615906565b6000805b60085463ffffffff16811015612f4d57600060098281548110612e9857634e487b7160e01b600052603260045260246000fd5b6000918252602080832060088304015460079092166004026101000a90910463ffffffff16808352600c9091526040909120549091508015612f3a5763ffffffff82166000908152600c6020526040902054612ef49085615a33565b63ffffffff83166000908152600d6020526040812080549296508392909190612f1e908490615a33565b909155505063ffffffff82166000908152600c60205260408120555b505080612f4690615b19565b9050612e65565b5080156116c5576000546040516337c61fc560e11b8152612ff0916201000090046001600160a01b031690636f8c3f8a90612f8d90600290600401615791565b60206040518083038186803b158015612fa557600080fd5b505afa158015612fb9573d6000803e3d6000fd5b505050506040513d601f19601f82011682018060405250810190612fdd9190615177565b6006546001600160a01b03169083613161565b6040518181527fd0e841f234010ad7f57b7c09faffb2245cd240429c6e8fa3cd934a0a8bf58eb09060200160405180910390a150565b6002818154811061303657600080fd5b6000918252602090912001546001600160a01b0316905081565b60008061305c83614205565b9094909350915050565b63ffffffff83166000908152600b602090815260408083206001600160a01b038616845290915290205415610b495763ffffffff8381166000908152600b602090815260408083206001600160a01b03871680855292528220829055610b49929091849161316116565b60035460405163e6a4390560e01b8152600091630100000090046001600160a01b03169063e6a439059061310a90869086906004016156b5565b60206040518083038186803b15801561312257600080fd5b505afa158015613136573d6000803e3d6000fd5b505050506040513d601f19601f8201168201806040525081019061315a9190615177565b9392505050565b610b498363a9059cbb60e01b84846040516024016131809291906156cf565b60408051601f198184030181529190526020810180516001600160e01b03166001600160e01b0319909316929092179091526144c2565b6040516370a0823160e01b81526000906001600160a01b038316906370a08231906131e69030906004016156a1565b60206040518083038186803b1580156131fe57600080fd5b505afa158015613212573d6000803e3d6000fd5b505050506040513d601f19601f820116820180604052508101906112cc9190615507565b60408051600280825260608083018452926000929190602083019080368337019050509050868160008151811061327d57634e487b7160e01b600052603260045260246000fd5b60200260200101906001600160a01b031690816001600160a01b03168152505085816001815181106132bf57634e487b7160e01b600052603260045260246000fd5b6001600160a01b03928316602091820292909201015260048054604051636eb1769f60e11b8152429388938c82169363dd62ed3e93613303933093921691016156b5565b60206040518083038186803b15801561331b57600080fd5b505afa15801561332f573d6000803e3d6000fd5b505050506040513d601f19601f820116820180604052508101906133539190615507565b101561338e57600454613374906001600160a01b038a811691166000613604565b60045461338e906001600160a01b038a8116911687613604565b600480546040516338ed173960e01b81526001600160a01b03909116916338ed1739916133c5918991899188918d9189910161595a565b600060405180830381600087803b1580156133df57600080fd5b505af11580156133f3573d6000803e3d6000fd5b505050506040513d6000823e601f3d908101601f1916820160405261341b91908101906153a3565b98975050505050505050565b60008060006134368585614594565b50905060008061344687876130d0565b6001600160a01b0316630902f1ac6040518163ffffffff1660e01b815260040160606040518083038186803b15801561347e57600080fd5b505afa158015613492573d6000803e3d6000fd5b505050506040513d601f19601f820116820180604052508101906134b691906154b4565b506001600160701b031691506001600160701b03169150826001600160a01b0316876001600160a01b0316146134ed5780826134f0565b81815b909890975095505050505050565b600080841161355a5760405162461bcd60e51b815260206004820152602260248201527f616d6f756e74496e206d7573742062652067726561746572207468616e207a65604482015261726f60f01b6064820152608401610880565b60008311801561356a5750600082115b6135b65760405162461bcd60e51b815260206004820152601d60248201527f4e6f206c697175696469747920696e20706f6f6c2072657365727665730000006044820152606401610880565b60006135c4856103e5615a93565b905060006135d28483615a93565b90506000826135e3876103e8615a93565b6135ed9190615a33565b90506135f98183615a73565b979650505050505050565b80158061368c5750604051636eb1769f60e11b81526001600160a01b0384169063dd62ed3e9061363a90309086906004016156b5565b60206040518083038186803b15801561365257600080fd5b505afa158015613666573d6000803e3d6000fd5b505050506040513d601f19601f8201168201806040525081019061368a9190615507565b155b6136f75760405162461bcd60e51b815260206004820152603660248201527f5361666545524332303a20617070726f76652066726f6d206e6f6e2d7a65726f60448201527520746f206e6f6e2d7a65726f20616c6c6f77616e636560501b6064820152608401610880565b610b498363095ea7b360e01b84846040516024016131809291906156cf565b6000613721846125c3565b80519091506001600160a01b031661374b5760405162461bcd60e51b81526004016108809061588c565b6001821515146137be5763ffffffff84166000908152600a60205260409020546001600160a01b0316156137be5760405162461bcd60e51b815260206004820152601a60248201527914dd185ada5b99c8185b1c9958591e4818dbdb999a59dd5c995960321b6044820152606401610880565b60006137d2826000015183602001516130d0565b9050806001600160a01b0316846001600160a01b03166382bfefc86040518163ffffffff1660e01b815260040160206040518083038186803b15801561381757600080fd5b505afa15801561382b573d6000803e3d6000fd5b505050506040513d601f19601f8201168201806040525081019061384f9190615177565b6001600160a01b03161461389f5760405162461bcd60e51b8152602060048201526017602482015276496e636f7272656374206761756765206164647265737360481b6044820152606401610880565b63ffffffff85166000908152600a60205260409081902080546001600160a01b0319166001600160a01b03878116919091179091559051636eb1769f60e11b81526000199183169063dd62ed3e906138fd90309089906004016156b5565b60206040518083038186803b15801561391557600080fd5b505afa158015613929573d6000803e3d6000fd5b505050506040513d601f19601f8201168201806040525081019061394d9190615507565b1161397d576139676001600160a01b038216856000613604565b61397d6001600160a01b03821685600019613604565b5050505050565b600061398f826125c3565b63ffffffff83166000908152600760205260409020549091506001600160a01b03166139cd5760405162461bcd60e51b81526004016108809061588c565b60006139dd8383600001516112a1565b905060006139ef8484602001516112a1565b90508115806139fc575080155b15613a075750505050565b600080613a1c85600001518660200151613427565b91509150600080613a2f86868686614669565b600480548a5160208c015160405162e8e33760e81b81526001600160a01b039283169481019490945281166024840152604483018590526064830184905260006084840181905260a484018190523060c48501524260e4850152949650929450919091169063e8e337009061010401606060405180830381600087803b158015613ab857600080fd5b505af1158015613acc573d6000803e3d6000fd5b505050506040513d601f19601f82011682018060405250810190613af09190615542565b63ffffffff8c166000908152600b602090815260408083208e516001600160a01b0316845290915281208054929550879450925090613b30908490615ad6565b909155505063ffffffff89166000908152600b602090815260408083208b8301516001600160a01b0316845290915281208054849290613b71908490615ad6565b9091555050604051818152600080516020615bfa8339815191529060200160405180910390a1600080516020615bba8339815191528982604051613bb69291906159ca565b60405180910390a1505050505050505050565b6008546000908190819063ffffffff1680613c3c5760405162461bcd60e51b815260206004820152602d60248201527f43616e6e6f7420636f756e7420657874726120726577617264207768656e206e60448201526c1bc81c1bdbdb1cc8195e1a5cdd609a1b6064820152608401610880565b60005b818163ffffffff161015613c8f57600e6000613c5c836001615a4b565b63ffffffff168152602081019190915260400160002054613c7d9085615a33565b9350613c8881615b34565b9050613c3f565b506005548390613ca7906001600160a01b03166131b7565b613cb19190615ad6565b91508115613d0457600085118015613cc857508185105b613cd25781613cd4565b845b63ffffffff87166000908152600e6020526040812080549296508692909190613cfe908490615a33565b90915550505b509250925092565b6005546000908290613d26906001600160a01b03166131b7565b613d309190615ad6565b905080156112cc5763ffffffff83166000908152600e602052604081208054839290613d5d908490615a33565b909155505092915050565b6000613d7484846130d0565b9050600080613d838686613427565b91509150611d0b838383876147ad565b6000613d9e846125c3565b90508215613db957613db98160000151826020015185613d68565b600080613dce83600001518460200151613427565b63ffffffff88166000908152600a60205260408082205490516370a0823160e01b815293955091935091613ef8918b918b916001600160a01b0316906370a0823190613e1e9030906004016156a1565b60206040518083038186803b158015613e3657600080fd5b505afa158015613e4a573d6000803e3d6000fd5b505050506040513d601f19601f82011682018060405250810190613e6e9190615507565b8686613e828a600001518b602001516130d0565b6001600160a01b03166318160ddd6040518163ffffffff1660e01b815260040160206040518083038186803b158015613eba57600080fd5b505afa158015613ece573d6000803e3d6000fd5b505050506040513d601f19601f82011682018060405250810190613ef29190615507565b8a6148d7565b63ffffffff88166000908152600a602052604090819020549051632e1a7d4d60e01b8152600481018390529192506001600160a01b031690632e1a7d4d90602401600060405180830381600087803b158015613f5357600080fd5b505af1158015613f67573d6000803e3d6000fd5b505060045486516020880151613fa194506001600160a01b0390921692508491613f9191906130d0565b6001600160a01b03169190613604565b6004548451602086015160009283926001600160a01b039091169163baa2abde919086858030613fd342610168615a33565b60405160e089901b6001600160e01b03191681526001600160a01b039788166004820152958716602487015260448601949094526064850192909252608484015290921660a482015260c481019190915260e4016040805180830381600087803b15801561404057600080fd5b505af1158015614054573d6000803e3d6000fd5b505050506040513d601f19601f82011682018060405250810190614078919061551f565b91509150612c5b868a8d85858c6149a9565b600054610100900460ff166140a55760005460ff16156140a9565b303b155b6140c55760405162461bcd60e51b815260040161088090615819565b600054610100900460ff161580156140e7576000805461ffff19166101011790555b6000805462010000600160b01b031916620100006001600160a01b038516021790558015611689576000805461ff00191690555050565b6000808061412c8486615a33565b116141835760405162461bcd60e51b815260206004820152602160248201527f53706972697453776170496e746567726174696f6e3a206e6f2062616c616e636044820152606560f81b6064820152608401610880565b60008061419887600001518860200151613427565b915091506134f08787878585614d79565b60008085600001516001600160a01b0316876001600160a01b031614156141e6575060208501518385106141dd57836141df565b845b91506141fb565b5084518285106141f657826141f8565b845b91505b9550959350505050565b6000806000614213846125c3565b90506000614229826000015183602001516130d0565b63ffffffff86166000908152600a60205260408082205490516370a0823160e01b815292935083926001600160a01b03909116906370a08231906142719030906004016156a1565b60206040518083038186803b15801561428957600080fd5b505afa15801561429d573d6000803e3d6000fd5b505050506040513d601f19601f820116820180604052508101906142c19190615507565b6040516370a0823160e01b81526001600160a01b038416906370a08231906142ed9030906004016156a1565b60206040518083038186803b15801561430557600080fd5b505afa158015614319573d6000803e3d6000fd5b505050506040513d601f19601f8201168201806040525081019061433d9190615507565b6143479190615a33565b90506134f081836001600160a01b03166318160ddd6040518163ffffffff1660e01b815260040160206040518083038186803b15801561438657600080fd5b505afa15801561439a573d6000803e3d6000fd5b505050506040513d601f19601f820116820180604052508101906143be9190615507565b86516040516370a0823160e01b81526001600160a01b03909116906370a08231906143ed9089906004016156a1565b60206040518083038186803b15801561440557600080fd5b505afa158015614419573d6000803e3d6000fd5b505050506040513d601f19601f8201168201806040525081019061443d9190615507565b87602001516001600160a01b03166370a08231886040518263ffffffff1660e01b815260040161446d91906156a1565b60206040518083038186803b15801561448557600080fd5b505afa158015614499573d6000803e3d6000fd5b505050506040513d601f19601f820116820180604052508101906144bd9190615507565b614edb565b6000614517826040518060400160405280602081526020017f5361666545524332303a206c6f772d6c6576656c2063616c6c206661696c6564815250856001600160a01b0316614f3d9092919063ffffffff16565b805190915015610b4957808060200190518101906145359190615498565b610b495760405162461bcd60e51b815260206004820152602a60248201527f5361666545524332303a204552433230206f7065726174696f6e20646964206e6044820152691bdd081cdd58d8d9595960b21b6064820152608401610880565b600080826001600160a01b0316846001600160a01b031614156145f55760405162461bcd60e51b81526020600482015260196024820152784964656e746963616c20746f6b656e2061646472657373657360381b6044820152606401610880565b826001600160a01b0316846001600160a01b031610614615578284614618565b83835b90925090506001600160a01b0382166146625760405162461bcd60e51b815260206004820152600c60248201526b5a65726f206164647265737360a01b6044820152606401610880565b9250929050565b6000808284111561470a57600083614683866103e8615a93565b61468d9190615a73565b905060006103e861469e8389615a93565b6146a89190615a73565b9050808810156146d357879350816146c2856103e8615a93565b6146cc9190615a73565b9250614703565b878110156146fc576103e86146e88389615a93565b6146f29190615a73565b9350869250614703565b8793508692505b50506147a4565b828410156147a457600084614721856103e8615a93565b61472b9190615a73565b905060006103e861473c838a615a93565b6147469190615a73565b905080871015614771578161475d886103e8615a93565b6147679190615a73565b93508692506147a1565b8681101561479a578793506103e86147898386615a93565b6147939190615a73565b92506147a1565b8793508692505b50505b94509492505050565b6001600160a01b0384166148025760405162461bcd60e51b815260206004820152601c60248201527b2a3930b232b92537b2a4b73a32b3b930ba34b7b71d2130b22830b4b960211b6044820152606401610880565b60008284101561482a5783614819846103e8615a93565b6148239190615a73565b9050614844565b8383101561483f5782614819856103e8615a93565b506103e85b81811115614890576001826148598184615ad6565b614864906064615a93565b61486e9190615a73565b1061488b5760405162461bcd60e51b8152600401610880906157ec565b61397d565b8082111561397d576001826148a58382615ad6565b6148b0906064615a93565b6148ba9190615a73565b1061397d5760405162461bcd60e51b8152600401610880906157ec565b60008082600001516001600160a01b0316896001600160a01b0316141561492a578315614920578361491187670de0b6b3a7640000615a93565b61491b9190615a73565b614923565b60005b9050614958565b8315614952578361494386670de0b6b3a7640000615a93565b61494d9190615a73565b614955565b60005b90505b806149675760009150506135f9565b8061497360028a615a73565b61498590670de0b6b3a7640000615a93565b61498f9190615a73565b91508682111561499d578691505b50979650505050505050565b606086600001516001600160a01b0316856001600160a01b03161415614b8f5760208701516149e090863086611c8d848483612cd0565b90508115614abc57600080546040516337c61fc560e11b8152614ab792620100009092046001600160a01b031691636f8c3f8a91614a219190600401615791565b60206040518083038186803b158015614a3957600080fd5b505afa158015614a4d573d6000803e3d6000fd5b505050506040513d601f19601f82011682018060405250810190614a719190615177565b82600181518110614a9257634e487b7160e01b600052603260045260246000fd5b602002602001015186614aa59190615a33565b89516001600160a01b03169190613161565b614b30565b80600181518110614add57634e487b7160e01b600052603260045260246000fd5b602002602001015184614af09190615a33565b63ffffffff87166000908152600b602090815260408083208b516001600160a01b0316845290915281208054909190614b2a908490615a33565b90915550505b600080516020615bda833981519152868583600181518110614b6257634e487b7160e01b600052603260045260246000fd5b6020026020010151614b749190615a33565b604051614b829291906159ca565b60405180910390a1610b44565b86602001516001600160a01b0316856001600160a01b03161415610b44578651614bc190863087611c8d848483612cd0565b90508115614ca057600080546040516337c61fc560e11b8152614c9b92620100009092046001600160a01b031691636f8c3f8a91614c029190600401615791565b60206040518083038186803b158015614c1a57600080fd5b505afa158015614c2e573d6000803e3d6000fd5b505050506040513d601f19601f82011682018060405250810190614c529190615177565b82600181518110614c7357634e487b7160e01b600052603260045260246000fd5b602002602001015185614c869190615a33565b60208a01516001600160a01b03169190613161565b614d16565b80600181518110614cc157634e487b7160e01b600052603260045260246000fd5b602002602001015183614cd49190615a33565b63ffffffff87166000908152600b602090815260408083208b8301516001600160a01b0316845290915281208054909190614d10908490615a33565b90915550505b600080516020615bda833981519152868483600181518110614d4857634e487b7160e01b600052603260045260246000fd5b6020026020010151614d5a9190615a33565b604051614d689291906159ca565b60405180910390a150505050505050565b60008082841115614e2957600083614d93866103e8615a93565b614d9d9190615a73565b905060006103e8614dae8389615a93565b614db89190615a73565b905080881015614dfd57600282614dd18a6103e8615a93565b614ddb9190615a73565b614de59089615ad6565b614def9190615a73565b925088602001519350614e22565b87811015614e22576002614e11828a615ad6565b614e1b9190615a73565b8951945092505b50506141fb565b828410156141fb57600084614e40856103e8615a93565b614e4a9190615a73565b905060006103e8614e5b838a615a93565b614e659190615a73565b905086811015614e93576002614e7b8289615ad6565b614e859190615a73565b925088602001519350614ecf565b80871015614ecf57600282614eaa896103e8615a93565b614eb49190615a73565b614ebe908a615ad6565b614ec89190615a73565b8951945092505b50509550959350505050565b6000808085614eef886402540be400615a93565b614ef99190615a73565b90506402540be400614f0b8287615a93565b614f159190615a73565b92506402540be400614f278286615a93565b614f319190615a73565b91505094509492505050565b6060612d0e848460008585843b614f965760405162461bcd60e51b815260206004820152601d60248201527f416464726573733a2063616c6c20746f206e6f6e2d636f6e74726163740000006044820152606401610880565b600080866001600160a01b03168587604051614fb29190615685565b60006040518083038185875af1925050503d8060008114614fef576040519150601f19603f3d011682016040523d82523d6000602084013e614ff4565b606091505b50915091506135f98282866060831561500e57508161315a565b82511561501e5782518084602001fd5b8160405162461bcd60e51b815260040161088091906157b9565b60405180602001604052806001906020820280368337509192915050565b8280548282559060005260206000209081019282156150ab579160200282015b828111156150ab57825182546001600160a01b0319166001600160a01b03909116178255602090920191600190910190615076565b506113149291505b8082111561131457600081556001016150b3565b600082601f8301126150d7578081fd5b813560206150ec6150e783615a10565b6159e0565b80838252828201915082860187848660051b890101111561510b578586fd5b855b8581101561513257813561512081615b84565b8452928401929084019060010161510d565b5090979650505050505050565b80516001600160701b038116811461515657600080fd5b919050565b60006020828403121561516c578081fd5b813561315a81615b84565b600060208284031215615188578081fd5b815161315a81615b84565b600080600080600060a086880312156151aa578081fd5b85356151b581615b84565b945060208601356151c581615b84565b935060408601356151d581615b84565b94979396509394606081013594506080013592915050565b600080600060608486031215615201578283fd5b833561520c81615b84565b9250602084013561521c81615b84565b929592945050506040919091013590565b600080600060608486031215615241578283fd5b833561524c81615b84565b925060208401359150604084013561526381615ba7565b809150509250925092565b60008060008060808587031215615283578384fd5b843561528e81615b84565b93506020850135925060408501356152a581615ba7565b9396929550929360600135925050565b600080604083850312156152c7578182fd5b82356001600160401b038111156152dc578283fd5b6152e8858286016150c7565b92505060208301356152f981615b84565b809150509250929050565b60008060008060008060c0878903121561531c578081fd5b86356001600160401b03811115615331578182fd5b61533d89828a016150c7565b965050602087013561534e81615b84565b9450604087013561535e81615b84565b9350606087013561536e81615b84565b9250608087013561537e81615b84565b915060a087013562ffffff81168114615395578182fd5b809150509295509295509295565b600060208083850312156153b5578182fd5b82516001600160401b038111156153ca578283fd5b8301601f810185136153da578283fd5b80516153e86150e782615a10565b80828252848201915084840188868560051b8701011115615407578687fd5b8694505b8385101561499d57805183526001949094019391850191850161540b565b6000806020838503121561543b578182fd5b82356001600160401b0380821115615451578384fd5b818501915085601f830112615464578384fd5b813581811115615472578485fd5b8660208260051b8501011115615486578485fd5b60209290920196919550909350505050565b6000602082840312156154a9578081fd5b815161315a81615b99565b6000806000606084860312156154c8578081fd5b6154d18461513f565b92506154df6020850161513f565b9150604084015161526381615ba7565b600060208284031215615500578081fd5b5035919050565b600060208284031215615518578081fd5b5051919050565b60008060408385031215615531578182fd5b505080516020909101519092909150565b600080600060608486031215615556578081fd5b8351925060208401519150604084015190509250925092565b600060208284031215615580578081fd5b813561315a81615ba7565b6000806040838503121561559d578182fd5b82356155a881615ba7565b915060208301356152f981615b84565b6000806000606084860312156155cc578081fd5b833561520c81615ba7565b600080604083850312156155e9578182fd5b82356155f481615ba7565b946020939093013593505050565b60008060008060808587031215615617578182fd5b843561562281615ba7565b93506020850135925060408501359150606085013561564081615b99565b939692955090935050565b60008060008060808587031215615660578182fd5b843561566b81615ba7565b966020860135965060408601359560600135945092505050565b60008251615697818460208701615aed565b9190910192915050565b6001600160a01b0391909116815260200190565b6001600160a01b0392831681529116602082015260400190565b6001600160a01b03929092168252602082015260400190565b60408101818460005b60018110156157195781516001600160a01b03168352602092830192909101906001016156f1565b50505060208083018460005b600181101561574257815183529183019190830190600101615725565b505050509392505050565b6020808252825182820181905260009190848201906040850190845b8181101561578557835183529284019291840191600101615769565b50909695505050505050565b60208101600d83106157b357634e487b7160e01b600052602160045260246000fd5b91905290565b60208152600082518060208401526157d8816040850160208701615aed565b601f01601f19169190910160400192915050565b60208082526013908201527210d95a5b1a5b99d31a5b5a5d14995858da1959606a1b604082015260600190565b6020808252602e908201527f496e697469616c697a61626c653a20636f6e747261637420697320616c72656160408201526d191e481a5b9a5d1a585b1a5e995960921b606082015260800190565b6020808252600b908201526a626164206164647265737360a81b604082015260600190565b602080825260129082015271141bdbdb08191bd95cdb89dd08195e1a5cdd60721b604082015260600190565b6020808252602e908201527f436f6e74726f6c6c65643a3a6f6e6c794d616e616765723a2043616c6c65722060408201526d34b9903737ba1036b0b730b3b2b960911b606082015260800190565b60208082526034908201527f436f6e74726f6c6c65643a3a6f6e6c79436f6e74726f6c6c65723a2043616c6c60408201527332b91034b9903737ba1031b7b73a3937b63632b960611b606082015260800190565b600060a082018783526020878185015260a0604085015281875180845260c0860191508289019350845b818110156159a95784516001600160a01b031683529383019391830191600101615984565b50506001600160a01b03969096166060850152505050608001529392505050565b63ffffffff929092168252602082015260400190565b604051601f8201601f191681016001600160401b0381118282101715615a0857615a08615b6e565b604052919050565b60006001600160401b03821115615a2957615a29615b6e565b5060051b60200190565b60008219821115615a4657615a46615b58565b500190565b600063ffffffff808316818516808303821115615a6a57615a6a615b58565b01949350505050565b600082615a8e57634e487b7160e01b81526012600452602481fd5b500490565b6000816000190483118215151615615aad57615aad615b58565b500290565b600062ffffff83811690831681811015615ace57615ace615b58565b039392505050565b600082821015615ae857615ae8615b58565b500390565b60005b83811015615b08578181015183820152602001615af0565b8381111561094c5750506000910152565b6000600019821415615b2d57615b2d615b58565b5060010190565b600063ffffffff80831681811415615b4e57615b4e615b58565b6001019392505050565b634e487b7160e01b600052601160045260246000fd5b634e487b7160e01b600052604160045260246000fd5b6001600160a01b03811681146116c557600080fd5b80151581146116c557600080fd5b63ffffffff811681146116c557600080fdfeb28fd890673610fa2a3efb1cf64ae1b26dd83c3261fbd99f0d4a5821ccdaa9936fb183d14e6407db4dfb55deb83841283e9e3015e3aabe210d446b16f1ce0937250600b7e1d8b908a0f07fa409e087c1b43ef3a5de3c0e23a41998c311f0ea90a2646970667358221220cc0abb0b18baf8d5ebceddf811c9d1e82e8dbcb7561128013ebddbbf5c52c5e064736f6c63430008040033",
  "devdoc": {
    "kind": "dev",
    "methods": {
      "deposit(address,uint256,uint32)": {
        "params": {
          "amount": "The amount of the token being deposited",
          "tokenAddress": "The address of the deposited token"
        }
      },
      "getAmountOut(address,address,uint256)": {
        "params": {
          "amountIn": "The exact amount of the input to swap",
          "tokenIn": "The address of the input token",
          "tokenOut": "The address of the output token"
        },
        "returns": {
          "amountOut": "The estimated amount of tokenOut to receive"
        }
      },
      "getAmountOutMinimum(address,address,uint256)": {
        "params": {
          "amountIn": "The exact amount of the input to swap",
          "tokenIn": "The address of the input token",
          "tokenOut": "The address of the output token"
        },
        "returns": {
          "amountOutMinimum": "The minimum amount of tokenOut to receive, factoring in allowable slippage"
        }
      },
      "getBalance(uint32,address)": {
        "returns": {
          "_0": "tokenAddress The address of the token to get the balance of"
        }
      },
      "getPendingYield(uint32)": {
        "details": "Returns total amount of pending yield in SPIRIT rewards",
        "params": {
          "poolId": "the integration pool to retrieve yield for"
        },
        "returns": {
          "amounts": "Amounts of pending yield",
          "tokens": "Token addresses of pending yield"
        }
      },
      "harvestYield()": {
        "details": "Harvests token yield from the integration"
      },
      "incrementBalance(uint32,address,uint256)": {
        "params": {
          "amount": "The amount of the token being deposited",
          "token": "The address of the deposited token"
        }
      },
      "initialize(address[],address,address,address,address,uint24)": {
        "params": {
          "controllers_": "The address of the controlling contract",
          "factoryAddress_": "The address of the SushiSwap factory contract",
          "swapRouterAddress_": "The address of the router contract"
        }
      },
      "rebalancePool(uint32,uint256,uint256,uint256)": {
        "params": {
          "maxSellTokenA": "max amount of tokenA to sell (to limit rebalancing)",
          "maxSellTokenB": "max amount of tokenB to sell (to limit rebalancing)",
          "poolId": "The ID of the pool to rebalance",
          "ratioX1000": "reserves ratio to control the price slippage"
        }
      },
      "withdraw(address,uint256,uint32)": {
        "params": {
          "amount": "The amoutn of the token to withdraw",
          "tokenAddress": "The address of the underlying token to withdraw"
        }
      }
    },
    "version": 1
  },
  "userdoc": {
    "events": {
      "CreatePool(address,address,uint32)": {
        "notice": "Events"
      }
    },
    "kind": "user",
    "methods": {
      "harvestYieldByPool(uint32,uint256,uint256,bool)": {
        "notice": "Harvest available yield for desired pool"
      },
      "rebalancePool(uint32,uint256,uint256,uint256)": {
        "notice": "Rebalances by attempting to swap up to max to get into position ratio"
      },
      "withdraw(address,uint256,uint32)": {
        "notice": "Withdraws token from the integration"
      }
    },
    "notice": "Integrates 0x Nodes to SpiritSwap",
    "version": 1
  },
  "storageLayout": {
    "storage": [
      {
        "astId": 723,
        "contract": "contracts/yield-integrations/FantomSpiritSwapBoostedIntegration.sol:FantomSpiritSwapBoostedIntegration",
        "label": "_initialized",
        "offset": 0,
        "slot": "0",
        "type": "t_bool"
      },
      {
        "astId": 726,
        "contract": "contracts/yield-integrations/FantomSpiritSwapBoostedIntegration.sol:FantomSpiritSwapBoostedIntegration",
        "label": "_initializing",
        "offset": 1,
        "slot": "0",
        "type": "t_bool"
      },
      {
        "astId": 10099,
        "contract": "contracts/yield-integrations/FantomSpiritSwapBoostedIntegration.sol:FantomSpiritSwapBoostedIntegration",
        "label": "moduleMap",
        "offset": 2,
        "slot": "0",
        "type": "t_contract(IModuleMap)21079"
      },
      {
        "astId": 4667,
        "contract": "contracts/yield-integrations/FantomSpiritSwapBoostedIntegration.sol:FantomSpiritSwapBoostedIntegration",
        "label": "_controllers",
        "offset": 0,
        "slot": "1",
        "type": "t_mapping(t_address,t_bool)"
      },
      {
        "astId": 4670,
        "contract": "contracts/yield-integrations/FantomSpiritSwapBoostedIntegration.sol:FantomSpiritSwapBoostedIntegration",
        "label": "controllers",
        "offset": 0,
        "slot": "2",
        "type": "t_array(t_address)dyn_storage"
      },
      {
        "astId": 33524,
        "contract": "contracts/yield-integrations/FantomSpiritSwapBoostedIntegration.sol:FantomSpiritSwapBoostedIntegration",
        "label": "slippageNumerator",
        "offset": 0,
        "slot": "3",
        "type": "t_uint24"
      },
      {
        "astId": 33526,
        "contract": "contracts/yield-integrations/FantomSpiritSwapBoostedIntegration.sol:FantomSpiritSwapBoostedIntegration",
        "label": "factoryAddress",
        "offset": 3,
        "slot": "3",
        "type": "t_address"
      },
      {
        "astId": 33528,
        "contract": "contracts/yield-integrations/FantomSpiritSwapBoostedIntegration.sol:FantomSpiritSwapBoostedIntegration",
        "label": "swapRouterAddress",
        "offset": 0,
        "slot": "4",
        "type": "t_address"
      },
      {
        "astId": 33530,
        "contract": "contracts/yield-integrations/FantomSpiritSwapBoostedIntegration.sol:FantomSpiritSwapBoostedIntegration",
        "label": "rewardToken",
        "offset": 0,
        "slot": "5",
        "type": "t_address"
      },
      {
        "astId": 33532,
        "contract": "contracts/yield-integrations/FantomSpiritSwapBoostedIntegration.sol:FantomSpiritSwapBoostedIntegration",
        "label": "wnativeAddress",
        "offset": 0,
        "slot": "6",
        "type": "t_address"
      },
      {
        "astId": 33537,
        "contract": "contracts/yield-integrations/FantomSpiritSwapBoostedIntegration.sol:FantomSpiritSwapBoostedIntegration",
        "label": "pools",
        "offset": 0,
        "slot": "7",
        "type": "t_mapping(t_uint256,t_struct(Pool)19344_storage)"
      },
      {
        "astId": 33539,
        "contract": "contracts/yield-integrations/FantomSpiritSwapBoostedIntegration.sol:FantomSpiritSwapBoostedIntegration",
        "label": "poolCount",
        "offset": 0,
        "slot": "8",
        "type": "t_uint32"
      },
      {
        "astId": 33542,
        "contract": "contracts/yield-integrations/FantomSpiritSwapBoostedIntegration.sol:FantomSpiritSwapBoostedIntegration",
        "label": "poolIds",
        "offset": 0,
        "slot": "9",
        "type": "t_array(t_uint32)dyn_storage"
      },
      {
        "astId": 33546,
        "contract": "contracts/yield-integrations/FantomSpiritSwapBoostedIntegration.sol:FantomSpiritSwapBoostedIntegration",
        "label": "stakings",
        "offset": 0,
        "slot": "10",
        "type": "t_mapping(t_uint32,t_address)"
      },
      {
        "astId": 33552,
        "contract": "contracts/yield-integrations/FantomSpiritSwapBoostedIntegration.sol:FantomSpiritSwapBoostedIntegration",
        "label": "balances",
        "offset": 0,
        "slot": "11",
        "type": "t_mapping(t_uint256,t_mapping(t_address,t_uint256))"
      },
      {
        "astId": 33556,
        "contract": "contracts/yield-integrations/FantomSpiritSwapBoostedIntegration.sol:FantomSpiritSwapBoostedIntegration",
        "label": "yieldBalances",
        "offset": 0,
        "slot": "12",
        "type": "t_mapping(t_uint32,t_uint256)"
      },
      {
        "astId": 33560,
        "contract": "contracts/yield-integrations/FantomSpiritSwapBoostedIntegration.sol:FantomSpiritSwapBoostedIntegration",
        "label": "harvestedYield",
        "offset": 0,
        "slot": "13",
        "type": "t_mapping(t_uint32,t_uint256)"
      },
      {
        "astId": 33564,
        "contract": "contracts/yield-integrations/FantomSpiritSwapBoostedIntegration.sol:FantomSpiritSwapBoostedIntegration",
        "label": "rewardBalances",
        "offset": 0,
        "slot": "14",
        "type": "t_mapping(t_uint32,t_uint256)"
      }
    ],
    "types": {
      "t_address": {
        "encoding": "inplace",
        "label": "address",
        "numberOfBytes": "20"
      },
      "t_array(t_address)dyn_storage": {
        "base": "t_address",
        "encoding": "dynamic_array",
        "label": "address[]",
        "numberOfBytes": "32"
      },
      "t_array(t_uint32)dyn_storage": {
        "base": "t_uint32",
        "encoding": "dynamic_array",
        "label": "uint32[]",
        "numberOfBytes": "32"
      },
      "t_bool": {
        "encoding": "inplace",
        "label": "bool",
        "numberOfBytes": "1"
      },
      "t_contract(IModuleMap)21079": {
        "encoding": "inplace",
        "label": "contract IModuleMap",
        "numberOfBytes": "20"
      },
      "t_mapping(t_address,t_bool)": {
        "encoding": "mapping",
        "key": "t_address",
        "label": "mapping(address => bool)",
        "numberOfBytes": "32",
        "value": "t_bool"
      },
      "t_mapping(t_address,t_uint256)": {
        "encoding": "mapping",
        "key": "t_address",
        "label": "mapping(address => uint256)",
        "numberOfBytes": "32",
        "value": "t_uint256"
      },
      "t_mapping(t_uint256,t_mapping(t_address,t_uint256))": {
        "encoding": "mapping",
        "key": "t_uint256",
        "label": "mapping(uint256 => mapping(address => uint256))",
        "numberOfBytes": "32",
        "value": "t_mapping(t_address,t_uint256)"
      },
      "t_mapping(t_uint256,t_struct(Pool)19344_storage)": {
        "encoding": "mapping",
        "key": "t_uint256",
        "label": "mapping(uint256 => struct IAMMIntegration.Pool)",
        "numberOfBytes": "32",
        "value": "t_struct(Pool)19344_storage"
      },
      "t_mapping(t_uint32,t_address)": {
        "encoding": "mapping",
        "key": "t_uint32",
        "label": "mapping(uint32 => address)",
        "numberOfBytes": "32",
        "value": "t_address"
      },
      "t_mapping(t_uint32,t_uint256)": {
        "encoding": "mapping",
        "key": "t_uint32",
        "label": "mapping(uint32 => uint256)",
        "numberOfBytes": "32",
        "value": "t_uint256"
      },
      "t_struct(Pool)19344_storage": {
        "encoding": "inplace",
        "label": "struct IAMMIntegration.Pool",
        "members": [
          {
            "astId": 19339,
            "contract": "contracts/yield-integrations/FantomSpiritSwapBoostedIntegration.sol:FantomSpiritSwapBoostedIntegration",
            "label": "tokenA",
            "offset": 0,
            "slot": "0",
            "type": "t_address"
          },
          {
            "astId": 19341,
            "contract": "contracts/yield-integrations/FantomSpiritSwapBoostedIntegration.sol:FantomSpiritSwapBoostedIntegration",
            "label": "tokenB",
            "offset": 0,
            "slot": "1",
            "type": "t_address"
          },
          {
            "astId": 19343,
            "contract": "contracts/yield-integrations/FantomSpiritSwapBoostedIntegration.sol:FantomSpiritSwapBoostedIntegration",
            "label": "positionID",
            "offset": 0,
            "slot": "2",
            "type": "t_uint256"
          }
        ],
        "numberOfBytes": "96"
      },
      "t_uint24": {
        "encoding": "inplace",
        "label": "uint24",
        "numberOfBytes": "3"
      },
      "t_uint256": {
        "encoding": "inplace",
        "label": "uint256",
        "numberOfBytes": "32"
      },
      "t_uint32": {
        "encoding": "inplace",
        "label": "uint32",
        "numberOfBytes": "4"
      }
    }
  }
}