{
  "address": "0x703A389528F09c873bC0a45c2e40c6D4a4B7B25F",
  "abi": [
    {
      "anonymous": false,
      "inputs": [],
      "name": "BiosBuyBack",
      "type": "event"
    },
    {
      "anonymous": false,
      "inputs": [
        {
          "indexed": true,
          "internalType": "address",
          "name": "user",
          "type": "address"
        },
        {
          "indexed": false,
          "internalType": "uint256",
          "name": "biosRewards",
          "type": "uint256"
        }
      ],
      "name": "ClaimBiosRewards",
      "type": "event"
    },
    {
      "anonymous": false,
      "inputs": [
        {
          "indexed": true,
          "internalType": "address",
          "name": "user",
          "type": "address"
        },
        {
          "indexed": false,
          "internalType": "uint256[]",
          "name": "strategies",
          "type": "uint256[]"
        },
        {
          "indexed": false,
          "internalType": "uint256",
          "name": "ethRewards",
          "type": "uint256"
        }
      ],
      "name": "ClaimEthRewards",
      "type": "event"
    },
    {
      "anonymous": false,
      "inputs": [],
      "name": "Deploy",
      "type": "event"
    },
    {
      "anonymous": false,
      "inputs": [],
      "name": "DistributeEth",
      "type": "event"
    },
    {
      "anonymous": false,
      "inputs": [
        {
          "indexed": false,
          "internalType": "uint32",
          "name": "biosBuyBackEthWeight",
          "type": "uint32"
        },
        {
          "indexed": false,
          "internalType": "uint32",
          "name": "treasuryEthWeight",
          "type": "uint32"
        },
        {
          "indexed": false,
          "internalType": "uint32",
          "name": "protocolFeeEthWeight",
          "type": "uint32"
        },
        {
          "indexed": false,
          "internalType": "uint32",
          "name": "rewardsEthWeight",
          "type": "uint32"
        }
      ],
      "name": "EthDistributionWeightsUpdated",
      "type": "event"
    },
    {
      "anonymous": false,
      "inputs": [
        {
          "indexed": false,
          "internalType": "uint256",
          "name": "gasAccountTargetEthBalance",
          "type": "uint256"
        }
      ],
      "name": "GasAccountTargetEthBalanceUpdated",
      "type": "event"
    },
    {
      "anonymous": false,
      "inputs": [
        {
          "indexed": false,
          "internalType": "address",
          "name": "gasAccount",
          "type": "address"
        }
      ],
      "name": "GasAccountUpdated",
      "type": "event"
    },
    {
      "anonymous": false,
      "inputs": [],
      "name": "HarvestYield",
      "type": "event"
    },
    {
      "anonymous": false,
      "inputs": [
        {
          "indexed": true,
          "internalType": "address",
          "name": "contractAddress",
          "type": "address"
        },
        {
          "indexed": false,
          "internalType": "string",
          "name": "name",
          "type": "string"
        }
      ],
      "name": "IntegrationAdded",
      "type": "event"
    },
    {
      "anonymous": false,
      "inputs": [
        {
          "indexed": true,
          "internalType": "bytes32",
          "name": "role",
          "type": "bytes32"
        },
        {
          "indexed": true,
          "internalType": "bytes32",
          "name": "previousAdminRole",
          "type": "bytes32"
        },
        {
          "indexed": true,
          "internalType": "bytes32",
          "name": "newAdminRole",
          "type": "bytes32"
        }
      ],
      "name": "RoleAdminChanged",
      "type": "event"
    },
    {
      "anonymous": false,
      "inputs": [
        {
          "indexed": true,
          "internalType": "bytes32",
          "name": "role",
          "type": "bytes32"
        },
        {
          "indexed": true,
          "internalType": "address",
          "name": "account",
          "type": "address"
        },
        {
          "indexed": true,
          "internalType": "address",
          "name": "sender",
          "type": "address"
        }
      ],
      "name": "RoleGranted",
      "type": "event"
    },
    {
      "anonymous": false,
      "inputs": [
        {
          "indexed": true,
          "internalType": "bytes32",
          "name": "role",
          "type": "bytes32"
        },
        {
          "indexed": true,
          "internalType": "address",
          "name": "account",
          "type": "address"
        },
        {
          "indexed": true,
          "internalType": "address",
          "name": "sender",
          "type": "address"
        }
      ],
      "name": "RoleRevoked",
      "type": "event"
    },
    {
      "anonymous": false,
      "inputs": [
        {
          "indexed": false,
          "internalType": "uint256",
          "name": "biosAmount",
          "type": "uint256"
        }
      ],
      "name": "SeedBiosRewards",
      "type": "event"
    },
    {
      "anonymous": false,
      "inputs": [
        {
          "indexed": false,
          "internalType": "uint32",
          "name": "biosRewardsDuration",
          "type": "uint32"
        }
      ],
      "name": "SetBiosRewardsDuration",
      "type": "event"
    },
    {
      "anonymous": false,
      "inputs": [
        {
          "indexed": true,
          "internalType": "address",
          "name": "tokenAddress",
          "type": "address"
        },
        {
          "indexed": false,
          "internalType": "bool",
          "name": "acceptingDeposits",
          "type": "bool"
        },
        {
          "indexed": false,
          "internalType": "bool",
          "name": "acceptingWithdrawals",
          "type": "bool"
        },
        {
          "indexed": false,
          "internalType": "bool",
          "name": "acceptingLping",
          "type": "bool"
        },
        {
          "indexed": false,
          "internalType": "bool",
          "name": "acceptingBridging",
          "type": "bool"
        },
        {
          "indexed": false,
          "internalType": "uint256",
          "name": "biosRewardWeight",
          "type": "uint256"
        },
        {
          "indexed": false,
          "internalType": "uint256",
          "name": "reserveRatioNumerator",
          "type": "uint256"
        },
        {
          "indexed": false,
          "internalType": "uint256",
          "name": "targetLiquidityRatioNumerator",
          "type": "uint256"
        },
        {
          "indexed": false,
          "internalType": "uint256",
          "name": "transferFeeKValueNumerator",
          "type": "uint256"
        },
        {
          "indexed": false,
          "internalType": "uint256",
          "name": "transferFeePlatformRatioNumerator",
          "type": "uint256"
        }
      ],
      "name": "TokenAdded",
      "type": "event"
    },
    {
      "anonymous": false,
      "inputs": [
        {
          "indexed": false,
          "internalType": "address",
          "name": "treasuryAccount",
          "type": "address"
        }
      ],
      "name": "TreasuryAccountUpdated",
      "type": "event"
    },
    {
      "anonymous": false,
      "inputs": [
        {
          "indexed": true,
          "internalType": "address",
          "name": "user",
          "type": "address"
        },
        {
          "indexed": false,
          "internalType": "address[]",
          "name": "tokens",
          "type": "address[]"
        },
        {
          "indexed": false,
          "internalType": "uint256[]",
          "name": "tokenAmounts",
          "type": "uint256[]"
        },
        {
          "indexed": false,
          "internalType": "uint256",
          "name": "ethAmount",
          "type": "uint256"
        }
      ],
      "name": "Withdraw",
      "type": "event"
    },
    {
      "anonymous": false,
      "inputs": [
        {
          "indexed": true,
          "internalType": "address",
          "name": "user",
          "type": "address"
        },
        {
          "indexed": false,
          "internalType": "address[]",
          "name": "tokens",
          "type": "address[]"
        },
        {
          "indexed": false,
          "internalType": "uint256[]",
          "name": "strategies",
          "type": "uint256[]"
        },
        {
          "indexed": false,
          "internalType": "bool",
          "name": "withdrawWethAsEth",
          "type": "bool"
        },
        {
          "indexed": false,
          "internalType": "uint256[]",
          "name": "tokenAmounts",
          "type": "uint256[]"
        },
        {
          "indexed": false,
          "internalType": "uint256",
          "name": "ethWithdrawn",
          "type": "uint256"
        },
        {
          "indexed": false,
          "internalType": "uint256",
          "name": "ethRewards",
          "type": "uint256"
        },
        {
          "indexed": false,
          "internalType": "uint256",
          "name": "biosRewards",
          "type": "uint256"
        }
      ],
      "name": "WithdrawAllAndClaim",
      "type": "event"
    },
    {
      "inputs": [],
      "name": "DEFAULT_ADMIN_ROLE",
      "outputs": [
        {
          "internalType": "bytes32",
          "name": "",
          "type": "bytes32"
        }
      ],
      "stateMutability": "view",
      "type": "function"
    },
    {
      "inputs": [],
      "name": "LIQUIDITY_PROVIDER_ROLE",
      "outputs": [
        {
          "internalType": "bytes32",
          "name": "",
          "type": "bytes32"
        }
      ],
      "stateMutability": "view",
      "type": "function"
    },
    {
      "inputs": [],
      "name": "MANAGER_ROLE",
      "outputs": [
        {
          "internalType": "bytes32",
          "name": "",
          "type": "bytes32"
        }
      ],
      "stateMutability": "view",
      "type": "function"
    },
    {
      "inputs": [],
      "name": "OWNER_ROLE",
      "outputs": [
        {
          "internalType": "bytes32",
          "name": "",
          "type": "bytes32"
        }
      ],
      "stateMutability": "view",
      "type": "function"
    },
    {
      "inputs": [
        {
          "internalType": "address",
          "name": "contractAddress",
          "type": "address"
        },
        {
          "internalType": "string",
          "name": "name",
          "type": "string"
        }
      ],
      "name": "addIntegration",
      "outputs": [],
      "stateMutability": "nonpayable",
      "type": "function"
    },
    {
      "inputs": [
        {
          "internalType": "address",
          "name": "tokenAddress",
          "type": "address"
        },
        {
          "internalType": "bool",
          "name": "acceptingDeposits",
          "type": "bool"
        },
        {
          "internalType": "bool",
          "name": "acceptingWithdrawals",
          "type": "bool"
        },
        {
          "internalType": "bool",
          "name": "acceptingLping",
          "type": "bool"
        },
        {
          "internalType": "bool",
          "name": "acceptingBridging",
          "type": "bool"
        },
        {
          "internalType": "uint256",
          "name": "biosRewardWeight",
          "type": "uint256"
        },
        {
          "internalType": "uint256",
          "name": "reserveRatioNumerator",
          "type": "uint256"
        },
        {
          "internalType": "uint256",
          "name": "targetLiquidityRatioNumerator",
          "type": "uint256"
        },
        {
          "internalType": "uint256",
          "name": "transferFeeKValueNumerator",
          "type": "uint256"
        },
        {
          "internalType": "uint256",
          "name": "transferFeePlatformRatioNumerator",
          "type": "uint256"
        }
      ],
      "name": "addToken",
      "outputs": [],
      "stateMutability": "nonpayable",
      "type": "function"
    },
    {
      "inputs": [
        {
          "internalType": "uint256",
          "name": "ratioX1000",
          "type": "uint256"
        }
      ],
      "name": "biosBuyBack",
      "outputs": [],
      "stateMutability": "nonpayable",
      "type": "function"
    },
    {
      "inputs": [
        {
          "internalType": "uint256[]",
          "name": "strategies",
          "type": "uint256[]"
        }
      ],
      "name": "claimAllRewards",
      "outputs": [
        {
          "internalType": "uint256",
          "name": "ethClaimed",
          "type": "uint256"
        },
        {
          "internalType": "uint256",
          "name": "biosClaimed",
          "type": "uint256"
        }
      ],
      "stateMutability": "nonpayable",
      "type": "function"
    },
    {
      "inputs": [],
      "name": "claimBiosRewards",
      "outputs": [
        {
          "internalType": "uint256",
          "name": "biosClaimed",
          "type": "uint256"
        }
      ],
      "stateMutability": "nonpayable",
      "type": "function"
    },
    {
      "inputs": [
        {
          "internalType": "uint256[]",
          "name": "strategies",
          "type": "uint256[]"
        }
      ],
      "name": "claimEthRewards",
      "outputs": [
        {
          "internalType": "uint256",
          "name": "ethClaimed",
          "type": "uint256"
        }
      ],
      "stateMutability": "nonpayable",
      "type": "function"
    },
    {
      "inputs": [
        {
          "internalType": "address[]",
          "name": "tokens",
          "type": "address[]"
        }
      ],
      "name": "claimLpFees",
      "outputs": [],
      "stateMutability": "nonpayable",
      "type": "function"
    },
    {
      "inputs": [
        {
          "components": [
            {
              "internalType": "address",
              "name": "integration",
              "type": "address"
            },
            {
              "internalType": "address[]",
              "name": "tokens",
              "type": "address[]"
            },
            {
              "internalType": "uint32",
              "name": "ammPoolID",
              "type": "uint32"
            }
          ],
          "internalType": "struct IYieldManager.DeployRequest[]",
          "name": "deployments",
          "type": "tuple[]"
        }
      ],
      "name": "deploy",
      "outputs": [],
      "stateMutability": "nonpayable",
      "type": "function"
    },
    {
      "inputs": [
        {
          "internalType": "address[]",
          "name": "tokens",
          "type": "address[]"
        },
        {
          "internalType": "uint256[]",
          "name": "amounts",
          "type": "uint256[]"
        }
      ],
      "name": "deposit",
      "outputs": [],
      "stateMutability": "payable",
      "type": "function"
    },
    {
      "inputs": [],
      "name": "disableLpWhitelist",
      "outputs": [],
      "stateMutability": "nonpayable",
      "type": "function"
    },
    {
      "inputs": [
        {
          "internalType": "uint256[]",
          "name": "strategies",
          "type": "uint256[]"
        },
        {
          "internalType": "uint256[]",
          "name": "positions",
          "type": "uint256[]"
        },
        {
          "internalType": "uint256",
          "name": "biosAmount",
          "type": "uint256"
        }
      ],
      "name": "distributeEth",
      "outputs": [],
      "stateMutability": "nonpayable",
      "type": "function"
    },
    {
      "inputs": [],
      "name": "enableLpWhitelist",
      "outputs": [],
      "stateMutability": "nonpayable",
      "type": "function"
    },
    {
      "inputs": [],
      "name": "getEthRewardsTimePeriod",
      "outputs": [
        {
          "internalType": "uint256",
          "name": "ethRewardsTimePeriod",
          "type": "uint256"
        }
      ],
      "stateMutability": "view",
      "type": "function"
    },
    {
      "inputs": [],
      "name": "getLastBiosBuyBackTimestamp",
      "outputs": [
        {
          "internalType": "uint256",
          "name": "",
          "type": "uint256"
        }
      ],
      "stateMutability": "view",
      "type": "function"
    },
    {
      "inputs": [],
      "name": "getLastDeployTimestamp",
      "outputs": [
        {
          "internalType": "uint256",
          "name": "",
          "type": "uint256"
        }
      ],
      "stateMutability": "view",
      "type": "function"
    },
    {
      "inputs": [],
      "name": "getLastDistributeEthTimestamp",
      "outputs": [
        {
          "internalType": "uint256",
          "name": "",
          "type": "uint256"
        }
      ],
      "stateMutability": "view",
      "type": "function"
    },
    {
      "inputs": [],
      "name": "getLpWhitelistEnabled",
      "outputs": [
        {
          "internalType": "bool",
          "name": "",
          "type": "bool"
        }
      ],
      "stateMutability": "view",
      "type": "function"
    },
    {
      "inputs": [
        {
          "internalType": "bytes32",
          "name": "role",
          "type": "bytes32"
        }
      ],
      "name": "getRoleAdmin",
      "outputs": [
        {
          "internalType": "bytes32",
          "name": "",
          "type": "bytes32"
        }
      ],
      "stateMutability": "view",
      "type": "function"
    },
    {
      "inputs": [
        {
          "internalType": "bytes32",
          "name": "role",
          "type": "bytes32"
        },
        {
          "internalType": "uint256",
          "name": "index",
          "type": "uint256"
        }
      ],
      "name": "getRoleMember",
      "outputs": [
        {
          "internalType": "address",
          "name": "",
          "type": "address"
        }
      ],
      "stateMutability": "view",
      "type": "function"
    },
    {
      "inputs": [
        {
          "internalType": "bytes32",
          "name": "role",
          "type": "bytes32"
        }
      ],
      "name": "getRoleMemberCount",
      "outputs": [
        {
          "internalType": "uint256",
          "name": "",
          "type": "uint256"
        }
      ],
      "stateMutability": "view",
      "type": "function"
    },
    {
      "inputs": [
        {
          "internalType": "bytes32",
          "name": "role",
          "type": "bytes32"
        },
        {
          "internalType": "address",
          "name": "account",
          "type": "address"
        }
      ],
      "name": "grantRole",
      "outputs": [],
      "stateMutability": "nonpayable",
      "type": "function"
    },
    {
      "inputs": [
        {
          "internalType": "bytes32",
          "name": "role",
          "type": "bytes32"
        },
        {
          "internalType": "address",
          "name": "account",
          "type": "address"
        }
      ],
      "name": "hasRole",
      "outputs": [
        {
          "internalType": "bool",
          "name": "",
          "type": "bool"
        }
      ],
      "stateMutability": "view",
      "type": "function"
    },
    {
      "inputs": [
        {
          "internalType": "address",
          "name": "admin_",
          "type": "address"
        },
        {
          "internalType": "address",
          "name": "owner_",
          "type": "address"
        },
        {
          "internalType": "address",
          "name": "moduleMap_",
          "type": "address"
        }
      ],
      "name": "initialize",
      "outputs": [],
      "stateMutability": "nonpayable",
      "type": "function"
    },
    {
      "inputs": [
        {
          "internalType": "address",
          "name": "account",
          "type": "address"
        }
      ],
      "name": "isLiquidityProvider",
      "outputs": [
        {
          "internalType": "bool",
          "name": "",
          "type": "bool"
        }
      ],
      "stateMutability": "view",
      "type": "function"
    },
    {
      "inputs": [
        {
          "internalType": "address",
          "name": "account",
          "type": "address"
        }
      ],
      "name": "isManager",
      "outputs": [
        {
          "internalType": "bool",
          "name": "",
          "type": "bool"
        }
      ],
      "stateMutability": "view",
      "type": "function"
    },
    {
      "inputs": [
        {
          "internalType": "address",
          "name": "account",
          "type": "address"
        }
      ],
      "name": "isOwner",
      "outputs": [
        {
          "internalType": "bool",
          "name": "",
          "type": "bool"
        }
      ],
      "stateMutability": "view",
      "type": "function"
    },
    {
      "inputs": [],
      "name": "moduleMap",
      "outputs": [
        {
          "internalType": "contract IModuleMap",
          "name": "",
          "type": "address"
        }
      ],
      "stateMutability": "view",
      "type": "function"
    },
    {
      "inputs": [
        {
          "internalType": "address[]",
          "name": "tokens",
          "type": "address[]"
        },
        {
          "internalType": "uint256[]",
          "name": "amounts",
          "type": "uint256[]"
        }
      ],
      "name": "provideLiquidity",
      "outputs": [],
      "stateMutability": "nonpayable",
      "type": "function"
    },
    {
      "inputs": [
        {
          "internalType": "bytes32",
          "name": "role",
          "type": "bytes32"
        },
        {
          "internalType": "address",
          "name": "account",
          "type": "address"
        }
      ],
      "name": "renounceRole",
      "outputs": [],
      "stateMutability": "nonpayable",
      "type": "function"
    },
    {
      "inputs": [
        {
          "internalType": "bytes32",
          "name": "role",
          "type": "bytes32"
        },
        {
          "internalType": "address",
          "name": "account",
          "type": "address"
        }
      ],
      "name": "revokeRole",
      "outputs": [],
      "stateMutability": "nonpayable",
      "type": "function"
    },
    {
      "inputs": [
        {
          "internalType": "uint256",
          "name": "biosAmount",
          "type": "uint256"
        }
      ],
      "name": "seedBiosRewards",
      "outputs": [],
      "stateMutability": "nonpayable",
      "type": "function"
    },
    {
      "inputs": [
        {
          "internalType": "uint32",
          "name": "biosRewardsDuration",
          "type": "uint32"
        }
      ],
      "name": "setBiosRewardsDuration",
      "outputs": [],
      "stateMutability": "nonpayable",
      "type": "function"
    },
    {
      "inputs": [
        {
          "internalType": "bytes4",
          "name": "interfaceId",
          "type": "bytes4"
        }
      ],
      "name": "supportsInterface",
      "outputs": [
        {
          "internalType": "bool",
          "name": "",
          "type": "bool"
        }
      ],
      "stateMutability": "view",
      "type": "function"
    },
    {
      "inputs": [
        {
          "internalType": "address[]",
          "name": "tokens",
          "type": "address[]"
        },
        {
          "internalType": "uint256[]",
          "name": "amounts",
          "type": "uint256[]"
        }
      ],
      "name": "takeLiquidity",
      "outputs": [],
      "stateMutability": "nonpayable",
      "type": "function"
    },
    {
      "inputs": [],
      "name": "tokenApprovals",
      "outputs": [],
      "stateMutability": "nonpayable",
      "type": "function"
    },
    {
      "inputs": [
        {
          "internalType": "uint32",
          "name": "biosBuyBackEthWeight",
          "type": "uint32"
        },
        {
          "internalType": "uint32",
          "name": "treasuryEthWeight",
          "type": "uint32"
        },
        {
          "internalType": "uint32",
          "name": "protocolFeeEthWeight",
          "type": "uint32"
        },
        {
          "internalType": "uint32",
          "name": "rewardsEthWeight",
          "type": "uint32"
        }
      ],
      "name": "updateEthDistributionWeights",
      "outputs": [],
      "stateMutability": "nonpayable",
      "type": "function"
    },
    {
      "inputs": [
        {
          "internalType": "address payable",
          "name": "gasAccount",
          "type": "address"
        }
      ],
      "name": "updateGasAccount",
      "outputs": [],
      "stateMutability": "nonpayable",
      "type": "function"
    },
    {
      "inputs": [
        {
          "internalType": "uint256",
          "name": "gasAccountTargetEthBalance",
          "type": "uint256"
        }
      ],
      "name": "updateGasAccountTargetEthBalance",
      "outputs": [],
      "stateMutability": "nonpayable",
      "type": "function"
    },
    {
      "inputs": [
        {
          "internalType": "address payable",
          "name": "treasuryAccount",
          "type": "address"
        }
      ],
      "name": "updateTreasuryAccount",
      "outputs": [],
      "stateMutability": "nonpayable",
      "type": "function"
    },
    {
      "inputs": [
        {
          "internalType": "address[]",
          "name": "tokens",
          "type": "address[]"
        },
        {
          "internalType": "uint256[]",
          "name": "amounts",
          "type": "uint256[]"
        },
        {
          "internalType": "bool",
          "name": "withdrawWethAsEth",
          "type": "bool"
        }
      ],
      "name": "withdraw",
      "outputs": [],
      "stateMutability": "nonpayable",
      "type": "function"
    },
    {
      "inputs": [
        {
          "internalType": "address[]",
          "name": "tokens",
          "type": "address[]"
        },
        {
          "internalType": "uint256[]",
          "name": "strategies",
          "type": "uint256[]"
        },
        {
          "internalType": "bool",
          "name": "withdrawWethAsEth",
          "type": "bool"
        }
      ],
      "name": "withdrawAllAndClaim",
      "outputs": [
        {
          "internalType": "uint256[]",
          "name": "tokenAmounts",
          "type": "uint256[]"
        },
        {
          "internalType": "uint256",
          "name": "ethWithdrawn",
          "type": "uint256"
        },
        {
          "internalType": "uint256",
          "name": "ethClaimed",
          "type": "uint256"
        },
        {
          "internalType": "uint256",
          "name": "biosClaimed",
          "type": "uint256"
        }
      ],
      "stateMutability": "nonpayable",
      "type": "function"
    },
    {
      "stateMutability": "payable",
      "type": "receive"
    }
  ],
  "transactionHash": "0x9108b54c1a95f471773c49d81febfea396d42c0ee8cc5cd65091c9cc4511fa54",
  "args": [],
  "solcInputHash": "5cd06c5789d9f192a0f867b46043d179",
  "bytecode": "0x608060405234801561001057600080fd5b506153cb806100206000396000f3fe6080604052600436106102065760003560e01c806301eb7a191461021257806301ffc9a71461023c57806304abbb1c1461025c5780630b1ff20a1461027e5780630f0a1c6f1461029e57806312804d23146102cb5780631542d6dd146102e05780631a8821db146102ff57806320037cdd1461031f5780632369fde514610341578063248a9ca3146103565780632f2ff15d146103765780632f54bf6e1461039657806330dd79dd146103b657806336568abe146103d65780633f10724c146103f65780634bc3f872146104165780634dee99b41461042c5780635b21a5561461044157806369c32f6014610461578063845fe1d0146104815780638811d21b146104a157806388656055146104d15780638a34be28146104f15780639010d07c1461051157806391d148541461053157806399f7854a14610551578063a1bc290814610571578063a217fddf14610591578063a2beb510146105a6578063a703b729146105db578063b1cb1d80146105fb578063b4f0abf01461061b578063c0c53b8b1461063b578063ca15c8731461065b578063cb3c58221461067b578063d547741f14610690578063d690d13e146106b0578063da6b2207146106c5578063de13acfb146106da578063de726b71146106fa578063e58378bb1461071a578063ec87621c1461073c578063efc908a11461075e578063f3ae24151461077157600080fd5b3661020d57005b600080fd5b34801561021e57600080fd5b506101025460ff165b60405190151581526020015b60405180910390f35b34801561024857600080fd5b506102276102573660046149e4565b610791565b34801561026857600080fd5b5061027c610277366004614a24565b6107bc565b005b34801561028a57600080fd5b5061027c61029936600461497c565b6108f5565b3480156102aa57600080fd5b5060c9546102be906001600160a01b031681565b6040516102339190614c2b565b3480156102d757600080fd5b5061027c610a1f565b3480156102ec57600080fd5b5060fe545b604051908152602001610233565b34801561030b57600080fd5b5061027c61031a36600461479b565b610a46565b34801561032b57600080fd5b506102f160008051602061533683398151915281565b34801561034d57600080fd5b5061027c610cda565b34801561036257600080fd5b506102f161037136600461497c565b6113ee565b34801561038257600080fd5b5061027c610391366004614994565b611403565b3480156103a257600080fd5b506102276103b13660046144ca565b611425565b3480156103c257600080fd5b5061027c6103d1366004614843565b61143f565b3480156103e257600080fd5b5061027c6103f1366004614994565b611680565b34801561040257600080fd5b5061027c610411366004614804565b6116fe565b34801561042257600080fd5b50610100546102f1565b34801561043857600080fd5b5061027c611930565b34801561044d57600080fd5b5061027c61045c366004614709565b61195a565b34801561046d57600080fd5b5061027c61047c36600461473b565b611aac565b34801561048d57600080fd5b5061027c61049c36600461497c565b611c01565b3480156104ad57600080fd5b506104c16104bc366004614689565b611e33565b6040516102339493929190614ff4565b3480156104dd57600080fd5b5061027c6104ec3660046145e8565b612012565b3480156104fd57600080fd5b5061027c61050c36600461473b565b612151565b34801561051d57600080fd5b506102be61052c3660046149c3565b61226b565b34801561053d57600080fd5b5061022761054c366004614994565b61228a565b34801561055d57600080fd5b5061022761056c3660046144ca565b6122b5565b34801561057d57600080fd5b5061027c61058c3660046144ca565b6122cf565b34801561059d57600080fd5b506102f1600081565b3480156105b257600080fd5b506105c66105c1366004614804565b6123f5565b60408051928352602083019190915201610233565b3480156105e757600080fd5b5061027c6105f636600461454c565b612444565b34801561060757600080fd5b5061027c61061636600461497c565b612b92565b34801561062757600080fd5b5061027c6106363660046144ca565b612cbb565b34801561064757600080fd5b5061027c610656366004614502565b612de1565b34801561066757600080fd5b506102f161067636600461497c565b612f92565b34801561068757600080fd5b506102f1612fa9565b34801561069c57600080fd5b5061027c6106ab366004614994565b612fe8565b3480156106bc57600080fd5b506102f1613005565b3480156106d157600080fd5b5060fc546102f1565b3480156106e657600080fd5b5061027c6106f5366004614a3e565b613041565b34801561070657600080fd5b506102f1610715366004614804565b613182565b34801561072657600080fd5b506102f160008051602061537683398151915281565b34801561074857600080fd5b506102f160008051602061535683398151915281565b61027c61076c36600461473b565b6131c2565b34801561077d57600080fd5b5061022761078c3660046144ca565b6133ef565b60006001600160e01b03198216635a05180f60e01b14806107b657506107b682613409565b92915050565b6000805160206153568339815191526107d5813361343e565b60c9546040516337c61fc560e11b81526001600160a01b0390911690636f8c3f8a90610805906004908101615023565b60206040518083038186803b15801561081d57600080fd5b505afa158015610831573d6000803e3d6000fd5b505050506040513d601f19601f8201168201806040525081019061085591906144e6565b60405163012aeec760e21b815263ffffffff841660048201526001600160a01b0391909116906304abbb1c90602401600060405180830381600087803b15801561089e57600080fd5b505af11580156108b2573d6000803e3d6000fd5b505060405163ffffffff851681527fd0feedf758dbe53f0afc15b3592dc422176e73dab86458bd5d65aaf80b8d2d29925060200190505b60405180910390a15050565b60008051602061535683398151915261090e813361343e565b60c9546040516337c61fc560e11b81526001600160a01b0390911690636f8c3f8a9061093f90600290600401615023565b60206040518083038186803b15801561095757600080fd5b505afa15801561096b573d6000803e3d6000fd5b505050506040513d601f19601f8201168201806040525081019061098f91906144e6565b6001600160a01b0316630b1ff20a836040518263ffffffff1660e01b81526004016109bc91815260200190565b600060405180830381600087803b1580156109d657600080fd5b505af11580156109ea573d6000803e3d6000fd5b505050507f70002914330d9c830892c922ec3403d9d8a2cc3719a69cede0b9069f3f82b2bb826040516108e991815260200190565b600080516020615356833981519152610a38813361343e565b50610102805460ff19169055565b600260ca541415610a725760405162461bcd60e51b8152600401610a69906151a0565b60405180910390fd5b600260ca5560c9546040516337c61fc560e11b81526000916001600160a01b031690636f8c3f8a90610aa990600190600401615023565b60206040518083038186803b158015610ac157600080fd5b505afa158015610ad5573d6000803e3d6000fd5b505050506040513d601f19601f82011682018060405250810190610af991906144e6565b6001600160a01b031663558c811e338686866040518563ffffffff1660e01b8152600401610b2a9493929190614d0b565b602060405180830381600087803b158015610b4457600080fd5b505af1158015610b58573d6000803e3d6000fd5b505050506040513d601f19601f82011682018060405250810190610b7c9190614a0c565b90508015610c8a5760c9546040516337c61fc560e11b8152610c809183916001600160a01b0390911690636f8c3f8a90610bbb90600390600401615023565b60206040518083038186803b158015610bd357600080fd5b505afa158015610be7573d6000803e3d6000fd5b505050506040513d601f19601f82011682018060405250810190610c0b91906144e6565b6001600160a01b0316638b9c94896040518163ffffffff1660e01b815260040160206040518083038186803b158015610c4357600080fd5b505afa158015610c57573d6000803e3d6000fd5b505050506040513d601f19601f82011682018060405250810190610c7b91906144e6565b6134a2565b610c8a813361360b565b336001600160a01b03167f91e54360cfab588303c49bbbb2869608cb9a9fd5ff9b4431f86988f91290421d858584604051610cc793929190614e75565b60405180910390a25050600160ca555050565b600080516020615356833981519152610cf3813361343e565b60c9546040516337c61fc560e11b81526000916001600160a01b031690636f8c3f8a90610d2590600390600401615023565b60206040518083038186803b158015610d3d57600080fd5b505afa158015610d51573d6000803e3d6000fd5b505050506040513d601f19601f82011682018060405250810190610d7591906144e6565b90506000816001600160a01b03166344fc9b566040518163ffffffff1660e01b815260040160206040518083038186803b158015610db257600080fd5b505afa158015610dc6573d6000803e3d6000fd5b505050506040513d601f19601f82011682018060405250810190610dea91906144e6565b90506000826001600160a01b0316638b9c94896040518163ffffffff1660e01b815260040160206040518083038186803b158015610e2757600080fd5b505afa158015610e3b573d6000803e3d6000fd5b505050506040513d601f19601f82011682018060405250810190610e5f91906144e6565b60c9546040516337c61fc560e11b81529192506001600160a01b038085169263dd62ed3e9230921690636f8c3f8a90610e9c906004908101615023565b60206040518083038186803b158015610eb457600080fd5b505afa158015610ec8573d6000803e3d6000fd5b505050506040513d601f19601f82011682018060405250810190610eec91906144e6565b6040518363ffffffff1660e01b8152600401610f09929190614c3f565b60206040518083038186803b158015610f2157600080fd5b505afa158015610f35573d6000803e3d6000fd5b505050506040513d601f19601f82011682018060405250810190610f599190614a0c565b610ff25760c9546040516337c61fc560e11b8152610ff2916001600160a01b031690636f8c3f8a90610f8f906004908101615023565b60206040518083038186803b158015610fa757600080fd5b505afa158015610fbb573d6000803e3d6000fd5b505050506040513d601f19601f82011682018060405250810190610fdf91906144e6565b6001600160a01b038416906000196136a9565b60c9546040516337c61fc560e11b81526001600160a01b038481169263dd62ed3e92309290911690636f8c3f8a9061102f90600290600401615023565b60206040518083038186803b15801561104757600080fd5b505afa15801561105b573d6000803e3d6000fd5b505050506040513d601f19601f8201168201806040525081019061107f91906144e6565b6040518363ffffffff1660e01b815260040161109c929190614c3f565b60206040518083038186803b1580156110b457600080fd5b505afa1580156110c8573d6000803e3d6000fd5b505050506040513d601f19601f820116820180604052508101906110ec9190614a0c565b6111235760c9546040516337c61fc560e11b8152611123916001600160a01b031690636f8c3f8a90610f8f90600290600401615023565b60c9546040516337c61fc560e11b81526001600160a01b038381169263dd62ed3e92309290911690636f8c3f8a9061116090600190600401615023565b60206040518083038186803b15801561117857600080fd5b505afa15801561118c573d6000803e3d6000fd5b505050506040513d601f19601f820116820180604052508101906111b091906144e6565b6040518363ffffffff1660e01b81526004016111cd929190614c3f565b60206040518083038186803b1580156111e557600080fd5b505afa1580156111f9573d6000803e3d6000fd5b505050506040513d601f19601f8201168201806040525081019061121d9190614a0c565b6112b75760c9546040516337c61fc560e11b81526112b7916001600160a01b031690636f8c3f8a9061125490600190600401615023565b60206040518083038186803b15801561126c57600080fd5b505afa158015611280573d6000803e3d6000fd5b505050506040513d601f19601f820116820180604052508101906112a491906144e6565b6001600160a01b038316906000196136a9565b60c9546040516337c61fc560e11b81526001600160a01b038381169263dd62ed3e92309290911690636f8c3f8a906112f490600290600401615023565b60206040518083038186803b15801561130c57600080fd5b505afa158015611320573d6000803e3d6000fd5b505050506040513d601f19601f8201168201806040525081019061134491906144e6565b6040518363ffffffff1660e01b8152600401611361929190614c3f565b60206040518083038186803b15801561137957600080fd5b505afa15801561138d573d6000803e3d6000fd5b505050506040513d601f19601f820116820180604052508101906113b19190614a0c565b6113e85760c9546040516337c61fc560e11b81526113e8916001600160a01b031690636f8c3f8a9061125490600290600401615023565b50505050565b60009081526065602052604090206001015490565b61140c826113ee565b611416813361343e565b61142083836137f2565b505050565b60006107b66000805160206153768339815191528361228a565b60c9546040516337c61fc560e11b81526001600160a01b0390911690636f8c3f8a9061147090600290600401615023565b60206040518083038186803b15801561148857600080fd5b505afa15801561149c573d6000803e3d6000fd5b505050506040513d601f19601f820116820180604052508101906114c091906144e6565b6001600160a01b031663e0a30f736040518163ffffffff1660e01b815260040160206040518083038186803b1580156114f857600080fd5b505afa15801561150c573d6000803e3d6000fd5b505050506040513d601f19601f8201168201806040525081019061153091906144e6565b6001600160a01b0316336001600160a01b0316146115605760405162461bcd60e51b8152600401610a699061516d565b60c9546040516337c61fc560e11b81526001600160a01b0390911690636f8c3f8a9061159190600290600401615023565b60206040518083038186803b1580156115a957600080fd5b505afa1580156115bd573d6000803e3d6000fd5b505050506040513d601f19601f820116820180604052508101906115e191906144e6565b6001600160a01b03166330dd79dd86868686866040518663ffffffff1660e01b8152600401611614959493929190614f96565b600060405180830381600087803b15801561162e57600080fd5b505af1158015611642573d6000803e3d6000fd5b505060fe805460ff5542905550506040517f975dc81fc1f814abf091a0d0126f3d75cde1a0b0aa2dee81138793762eea42fc90600090a15050505050565b6001600160a01b03811633146116f05760405162461bcd60e51b815260206004820152602f60248201527f416363657373436f6e74726f6c3a2063616e206f6e6c792072656e6f756e636560448201526e103937b632b9903337b91039b2b63360891b6064820152608401610a69565b6116fa8282613814565b5050565b60c9546040516337c61fc560e11b81526001600160a01b0390911690636f8c3f8a9061172f90600290600401615023565b60206040518083038186803b15801561174757600080fd5b505afa15801561175b573d6000803e3d6000fd5b505050506040513d601f19601f8201168201806040525081019061177f91906144e6565b6001600160a01b031663e0a30f736040518163ffffffff1660e01b815260040160206040518083038186803b1580156117b757600080fd5b505afa1580156117cb573d6000803e3d6000fd5b505050506040513d601f19601f820116820180604052508101906117ef91906144e6565b6001600160a01b0316336001600160a01b03161461181f5760405162461bcd60e51b8152600401610a699061516d565b60c9546040516337c61fc560e11b81526001600160a01b0390911690636f8c3f8a9061185090600290600401615023565b60206040518083038186803b15801561186857600080fd5b505afa15801561187c573d6000803e3d6000fd5b505050506040513d601f19601f820116820180604052508101906118a091906144e6565b6001600160a01b0316633f10724c83836040518363ffffffff1660e01b81526004016118cd929190614eab565b600060405180830381600087803b1580156118e757600080fd5b505af11580156118fb573d6000803e3d6000fd5b50504260fc5550506040517fd9659eff71087e0e5ae7a01868fb393704aec3a891860a55e69a47b9ad2f2dab90600090a15050565b600080516020615356833981519152611949813361343e565b50610102805460ff19166001179055565b6101025460ff16158061198057506119806000805160206153368339815191523361228a565b61199c5760405162461bcd60e51b8152600401610a699061505e565b600260ca5414156119bf5760405162461bcd60e51b8152600401610a69906151a0565b600260ca5560c9546040516337c61fc560e11b81526001600160a01b0390911690636f8c3f8a906119f590600a90600401615023565b60206040518083038186803b158015611a0d57600080fd5b505afa158015611a21573d6000803e3d6000fd5b505050506040513d601f19601f82011682018060405250810190611a4591906144e6565b6001600160a01b031663d84ac98c33836040518363ffffffff1660e01b8152600401611a72929190614ca7565b600060405180830381600087803b158015611a8c57600080fd5b505af1158015611aa0573d6000803e3d6000fd5b5050600160ca55505050565b6101025460ff161580611ad25750611ad26000805160206153368339815191523361228a565b611aee5760405162461bcd60e51b8152600401610a699061505e565b600260ca541415611b115760405162461bcd60e51b8152600401610a69906151a0565b600260ca5560c9546040516337c61fc560e11b81526001600160a01b0390911690636f8c3f8a90611b4790600a90600401615023565b60206040518083038186803b158015611b5f57600080fd5b505afa158015611b73573d6000803e3d6000fd5b505050506040513d601f19601f82011682018060405250810190611b9791906144e6565b6001600160a01b03166343f0a5bb3384846040518463ffffffff1660e01b8152600401611bc693929190614ccb565b600060405180830381600087803b158015611be057600080fd5b505af1158015611bf4573d6000803e3d6000fd5b5050600160ca5550505050565b60c9546040516337c61fc560e11b81526001600160a01b0390911690636f8c3f8a90611c3290600290600401615023565b60206040518083038186803b158015611c4a57600080fd5b505afa158015611c5e573d6000803e3d6000fd5b505050506040513d601f19601f82011682018060405250810190611c8291906144e6565b6001600160a01b031663e0a30f736040518163ffffffff1660e01b815260040160206040518083038186803b158015611cba57600080fd5b505afa158015611cce573d6000803e3d6000fd5b505050506040513d601f19601f82011682018060405250810190611cf291906144e6565b6001600160a01b0316336001600160a01b031614611d225760405162461bcd60e51b8152600401610a699061516d565b60c9546040516337c61fc560e11b81526001600160a01b0390911690636f8c3f8a90611d5390600290600401615023565b60206040518083038186803b158015611d6b57600080fd5b505afa158015611d7f573d6000803e3d6000fd5b505050506040513d601f19601f82011682018060405250810190611da391906144e6565b6001600160a01b031663845fe1d0826040518263ffffffff1660e01b8152600401611dd091815260200190565b600060405180830381600087803b158015611dea57600080fd5b505af1158015611dfe573d6000803e3d6000fd5b5050426101005550506040517f0de1d02cebd74da6199efdd09bf1124d52c591382b792cfcce400d8c8396672a90600090a150565b60c9546040516337c61fc560e11b8152606091600091829182916001600160a01b0390911690636f8c3f8a90611e6e90600190600401615023565b60206040518083038186803b158015611e8657600080fd5b505afa158015611e9a573d6000803e3d6000fd5b505050506040513d601f19601f82011682018060405250810190611ebe91906144e6565b6001600160a01b03166395be0546338b8b8b8b8b6040518763ffffffff1660e01b8152600401611ef396959493929190614c59565b600060405180830381600087803b158015611f0d57600080fd5b505af1158015611f21573d6000803e3d6000fd5b505050506040513d6000823e601f3d908101601f19168201604052611f4991908101906148b3565b929650909450925090508215611f905760c9546040516337c61fc560e11b8152611f909185916001600160a01b0390911690636f8c3f8a90610bbb90600390600401615023565b6000611f9c8385615252565b1115611fb557611fb5611faf8385615252565b3361360b565b336001600160a01b03167fc5b4b8ab390a1b4492016dad7a8c2c74bb8044f074a79c621297e84f465d2e688a8a8a8a8a8a8a8a8a604051611ffe99989796959493929190614e10565b60405180910390a295509550955095915050565b60008051602061535683398151915261202b813361343e565b60c9546040516337c61fc560e11b81526001600160a01b0390911690636f8c3f8a9061205c90600390600401615023565b60206040518083038186803b15801561207457600080fd5b505afa158015612088573d6000803e3d6000fd5b505050506040513d601f19601f820116820180604052508101906120ac91906144e6565b6001600160a01b0316638865605584846040518363ffffffff1660e01b81526004016120d9929190614dd3565b600060405180830381600087803b1580156120f357600080fd5b505af1158015612107573d6000803e3d6000fd5b50505050826001600160a01b03167ff15c2370ab3e2550092505583d19a745408c68d87d83f56843652d6f01df378d83604051612144919061504b565b60405180910390a2505050565b6101025460ff16158061217757506121776000805160206153368339815191523361228a565b6121935760405162461bcd60e51b8152600401610a699061505e565b600260ca5414156121b65760405162461bcd60e51b8152600401610a69906151a0565b600260ca5560c9546040516337c61fc560e11b81526001600160a01b0390911690636f8c3f8a906121ec90600a90600401615023565b60206040518083038186803b15801561220457600080fd5b505afa158015612218573d6000803e3d6000fd5b505050506040513d601f19601f8201168201806040525081019061223c91906144e6565b6001600160a01b031663fd2b51343384846040518463ffffffff1660e01b8152600401611bc693929190614ccb565b60008281526097602052604081206122839083613836565b9392505050565b60009182526065602090815260408084206001600160a01b0393909316845291905290205460ff1690565b60006107b66000805160206153368339815191528361228a565b6000805160206153568339815191526122e8813361343e565b60c9546040516337c61fc560e11b81526001600160a01b0390911690636f8c3f8a9061231990600290600401615023565b60206040518083038186803b15801561233157600080fd5b505afa158015612345573d6000803e3d6000fd5b505050506040513d601f19601f8201168201806040525081019061236991906144e6565b6001600160a01b031663a1bc2908836040518263ffffffff1660e01b81526004016123949190614c2b565b600060405180830381600087803b1580156123ae57600080fd5b505af11580156123c2573d6000803e3d6000fd5b505050507f56b5bc41858c1c8ea6c49bbaa714990fccbcefd31efe9d22cfbebf5d311dfdfc826040516108e99190614c2b565b600080600260ca54141561241b5760405162461bcd60e51b8152600401610a69906151a0565b600260ca5561242a8484613842565b915061243461399c565b600160ca55919491935090915050565b60008051602061535683398151915261245d813361343e565b60c9546040516337c61fc560e11b81526001600160a01b0390911690636f8c3f8a9061248e90600390600401615023565b60206040518083038186803b1580156124a657600080fd5b505afa1580156124ba573d6000803e3d6000fd5b505050506040513d601f19601f820116820180604052508101906124de91906144e6565b60405163a703b72960e01b81526001600160a01b038d811660048301528c151560248301528b151560448301528a15156064830152891515608483015260a4820189905260c4820188905260e4820187905261010482018690526101248201859052919091169063a703b7299061014401600060405180830381600087803b15801561256957600080fd5b505af115801561257d573d6000803e3d6000fd5b505050508a6001600160a01b031663dd62ed3e60c960009054906101000a90046001600160a01b03166001600160a01b0316636f8c3f8a60006040518263ffffffff1660e01b81526004016125d29190615023565b60206040518083038186803b1580156125ea57600080fd5b505afa1580156125fe573d6000803e3d6000fd5b505050506040513d601f19601f8201168201806040525081019061262291906144e6565b60c9546040516337c61fc560e11b81526001600160a01b0390911690636f8c3f8a9061265390600290600401615023565b60206040518083038186803b15801561266b57600080fd5b505afa15801561267f573d6000803e3d6000fd5b505050506040513d601f19601f820116820180604052508101906126a391906144e6565b6040518363ffffffff1660e01b81526004016126c0929190614c3f565b60206040518083038186803b1580156126d857600080fd5b505afa1580156126ec573d6000803e3d6000fd5b505050506040513d601f19601f820116820180604052508101906127109190614a0c565b6127aa5760c9546040516337c61fc560e11b81526127aa916001600160a01b031690636f8c3f8a9061274790600290600401615023565b60206040518083038186803b15801561275f57600080fd5b505afa158015612773573d6000803e3d6000fd5b505050506040513d601f19601f8201168201806040525081019061279791906144e6565b6001600160a01b038d16906000196136a9565b60c9546040516337c61fc560e11b81526001600160a01b03808e169263dd62ed3e92911690636f8c3f8a906127e490600090600401615023565b60206040518083038186803b1580156127fc57600080fd5b505afa158015612810573d6000803e3d6000fd5b505050506040513d601f19601f8201168201806040525081019061283491906144e6565b60c9546040516337c61fc560e11b81526001600160a01b0390911690636f8c3f8a9061286590600190600401615023565b60206040518083038186803b15801561287d57600080fd5b505afa158015612891573d6000803e3d6000fd5b505050506040513d601f19601f820116820180604052508101906128b591906144e6565b6040518363ffffffff1660e01b81526004016128d2929190614c3f565b60206040518083038186803b1580156128ea57600080fd5b505afa1580156128fe573d6000803e3d6000fd5b505050506040513d601f19601f820116820180604052508101906129229190614a0c565b6129595760c9546040516337c61fc560e11b8152612959916001600160a01b031690636f8c3f8a9061274790600190600401615023565b60c9546040516337c61fc560e11b81526001600160a01b03808e169263dd62ed3e92911690636f8c3f8a9061299390600090600401615023565b60206040518083038186803b1580156129ab57600080fd5b505afa1580156129bf573d6000803e3d6000fd5b505050506040513d601f19601f820116820180604052508101906129e391906144e6565b60c9546040516337c61fc560e11b81526001600160a01b0390911690636f8c3f8a90612a1490600b90600401615023565b60206040518083038186803b158015612a2c57600080fd5b505afa158015612a40573d6000803e3d6000fd5b505050506040513d601f19601f82011682018060405250810190612a6491906144e6565b6040518363ffffffff1660e01b8152600401612a81929190614c3f565b60206040518083038186803b158015612a9957600080fd5b505afa158015612aad573d6000803e3d6000fd5b505050506040513d601f19601f82011682018060405250810190612ad19190614a0c565b612b085760c9546040516337c61fc560e11b8152612b08916001600160a01b031690636f8c3f8a9061274790600b90600401615023565b604080518b151581528a151560208201528915158183015288151560608201526080810188905260a0810187905260c0810186905260e08101859052610100810184905290516001600160a01b038d16917f7bc8b8972b091625aaef49aac424a93abb527b8507448b2935e656c5a4ffcbf691908190036101200190a25050505050505050505050565b600080516020615356833981519152612bab813361343e565b60c9546040516337c61fc560e11b81526001600160a01b0390911690636f8c3f8a90612bdb906004908101615023565b60206040518083038186803b158015612bf357600080fd5b505afa158015612c07573d6000803e3d6000fd5b505050506040513d601f19601f82011682018060405250810190612c2b91906144e6565b6001600160a01b031663f487f60333846040518363ffffffff1660e01b8152600401612c58929190614df7565b600060405180830381600087803b158015612c7257600080fd5b505af1158015612c86573d6000803e3d6000fd5b505050507f8d270fd3d1e6fc4a4951325d6032d0b8fd681d74fa76039998b2aeec501fee61826040516108e991815260200190565b600080516020615356833981519152612cd4813361343e565b60c9546040516337c61fc560e11b81526001600160a01b0390911690636f8c3f8a90612d0590600290600401615023565b60206040518083038186803b158015612d1d57600080fd5b505afa158015612d31573d6000803e3d6000fd5b505050506040513d601f19601f82011682018060405250810190612d5591906144e6565b6001600160a01b031663b4f0abf0836040518263ffffffff1660e01b8152600401612d809190614c2b565b600060405180830381600087803b158015612d9a57600080fd5b505af1158015612dae573d6000803e3d6000fd5b505050507f29136396b324aa7f7a8d1b8f00da39b8d88642bc714a9747c151b20e3d2af233826040516108e99190614c2b565b600054610100900460ff16612dfc5760005460ff1615612e00565b303b155b612e1c5760405162461bcd60e51b8152600401610a69906150af565b600054610100900460ff16158015612e3e576000805461ffff19166101011790555b6001600160a01b038416612e645760405162461bcd60e51b8152600401610a69906150fd565b6001600160a01b038316612e8a5760405162461bcd60e51b8152600401610a69906150fd565b6001600160a01b038216612eb05760405162461bcd60e51b8152600401610a69906150fd565b612eb982613ad5565b612ec1613b62565b612ec9613b93565b612ed4600085613bd2565b612eec60008051602061537683398151915284613bd2565b612f0460008051602061535683398151915284613bd2565b612f1c60008051602061533683398151915284613bd2565b612f42600080516020615356833981519152600080516020615376833981519152613bdc565b612f68600080516020615336833981519152600080516020615356833981519152613bdc565b4261010155610102805460ff1916600117905580156113e8576000805461ff001916905550505050565b60008181526097602052604081206107b690613c2f565b60fe5460009015612fe25760ff5415612fd15760ff5460fe54612fcc9190615289565b905090565b6101015460fe54612fcc9190615289565b50600090565b612ff1826113ee565b612ffb813361343e565b6114208383613814565b6000600260ca54141561302a5760405162461bcd60e51b8152600401610a69906151a0565b600260ca5561303761399c565b9050600160ca5590565b60008051602061535683398151915261305a813361343e565b60c9546040516337c61fc560e11b81526001600160a01b0390911690636f8c3f8a9061308b90600290600401615023565b60206040518083038186803b1580156130a357600080fd5b505afa1580156130b7573d6000803e3d6000fd5b505050506040513d601f19601f820116820180604052508101906130db91906144e6565b6001600160a01b031663de13acfb868686866040518563ffffffff1660e01b815260040161310c94939291906151d7565b600060405180830381600087803b15801561312657600080fd5b505af115801561313a573d6000803e3d6000fd5b505050507fe7404d70edeef1a8fd327fdf11833c2321aa82626773fb135a22680f82ba87518585858560405161317394939291906151d7565b60405180910390a15050505050565b6000600260ca5414156131a75760405162461bcd60e51b8152600401610a69906151a0565b600260ca556131b68383613842565b600160ca559392505050565b600260ca5414156131e55760405162461bcd60e51b8152600401610a69906151a0565b600260ca55341561333a5760c9546040516337c61fc560e11b81526000916001600160a01b031690636f8c3f8a9061322290600390600401615023565b60206040518083038186803b15801561323a57600080fd5b505afa15801561324e573d6000803e3d6000fd5b505050506040513d601f19601f8201168201806040525081019061327291906144e6565b6001600160a01b0316638b9c94896040518163ffffffff1660e01b815260040160206040518083038186803b1580156132aa57600080fd5b505afa1580156132be573d6000803e3d6000fd5b505050506040513d601f19601f820116820180604052508101906132e291906144e6565b9050806001600160a01b031663d0e30db0346040518263ffffffff1660e01b81526004016000604051808303818588803b15801561331f57600080fd5b505af1158015613333573d6000803e3d6000fd5b5050505050505b60c9546040516337c61fc560e11b81526001600160a01b0390911690636f8c3f8a9061336b90600190600401615023565b60206040518083038186803b15801561338357600080fd5b505afa158015613397573d6000803e3d6000fd5b505050506040513d601f19601f820116820180604052508101906133bb91906144e6565b6001600160a01b031663776f5a8d3384843460006040518663ffffffff1660e01b8152600401611bc6959493929190614d55565b60006107b66000805160206153568339815191528361228a565b60006001600160e01b03198216637965db0b60e01b14806107b657506301ffc9a760e01b6001600160e01b03198316146107b6565b613448828261228a565b6116fa57613460816001600160a01b03166014613c39565b61346b836020613c39565b60405160200161347c929190614bbc565b60408051601f198184030181529082905262461bcd60e51b8252610a699160040161504b565b60fa4614806134b15750603846145b156135ad5760c9546040516337c61fc560e11b81526000916001600160a01b031690636f8c3f8a906134e890600c90600401615023565b60206040518083038186803b15801561350057600080fd5b505afa158015613514573d6000803e3d6000fd5b505050506040513d601f19601f8201168201806040525081019061353891906144e6565b905061354e6001600160a01b0383168285613e1a565b604051636f074d1f60e11b8152600481018490526001600160a01b0382169063de0e9a3e90602401600060405180830381600087803b15801561359057600080fd5b505af11580156135a4573d6000803e3d6000fd5b50505050505050565b604051632e1a7d4d60e01b8152600481018390526001600160a01b03821690632e1a7d4d90602401600060405180830381600087803b1580156135ef57600080fd5b505af1158015613603573d6000803e3d6000fd5b505050505050565b6000816001600160a01b03168360405160006040518083038185875af1925050503d8060008114613658576040519150601f19603f3d011682016040523d82523d6000602084013e61365d565b606091505b50509050806114205760405162461bcd60e51b81526020600482015260186024820152774661696c656420746f207472616e736665722076616c756560401b6044820152606401610a69565b8015806137315750604051636eb1769f60e11b81526001600160a01b0384169063dd62ed3e906136df9030908690600401614c3f565b60206040518083038186803b1580156136f757600080fd5b505afa15801561370b573d6000803e3d6000fd5b505050506040513d601f19601f8201168201806040525081019061372f9190614a0c565b155b61379c5760405162461bcd60e51b815260206004820152603660248201527f5361666545524332303a20617070726f76652066726f6d206e6f6e2d7a65726f60448201527520746f206e6f6e2d7a65726f20616c6c6f77616e636560501b6064820152608401610a69565b6114208363095ea7b360e01b84846040516024016137bb929190614df7565b60408051601f198184030181529190526020810180516001600160e01b03166001600160e01b031990931692909217909152613e39565b6137fc8282613f0b565b60008281526097602052604090206114209082613f91565b61381e8282613fa6565b6000828152609760205260409020611420908261400d565b60006122838383614022565b60c9546040516337c61fc560e11b81526000916001600160a01b031690636f8c3f8a9061387490600190600401615023565b60206040518083038186803b15801561388c57600080fd5b505afa1580156138a0573d6000803e3d6000fd5b505050506040513d601f19601f820116820180604052508101906138c491906144e6565b6001600160a01b031663c3b2a7f43385856040518463ffffffff1660e01b81526004016138f393929190614da5565b602060405180830381600087803b15801561390d57600080fd5b505af1158015613921573d6000803e3d6000fd5b505050506040513d601f19601f820116820180604052508101906139459190614a0c565b9050613951813361360b565b336001600160a01b03167f52641a01fee1d4b51c574b806315d8012d15a005587807a7f0a84e42393b092284848460405161398e93929190614fd0565b60405180910390a292915050565b60c9546040516337c61fc560e11b81526000916001600160a01b031690636f8c3f8a906139cd906004908101615023565b60206040518083038186803b1580156139e557600080fd5b505afa1580156139f9573d6000803e3d6000fd5b505050506040513d601f19601f82011682018060405250810190613a1d91906144e6565b6001600160a01b03166384afeffd336040518263ffffffff1660e01b8152600401613a489190614c2b565b602060405180830381600087803b158015613a6257600080fd5b505af1158015613a76573d6000803e3d6000fd5b505050506040513d601f19601f82011682018060405250810190613a9a9190614a0c565b60405181815290915033907fbb219a4ef7ab353b9ff2f337e191975fba0952436ef67efea1aecca5f6f766d69060200160405180910390a290565b600054610100900460ff16613af05760005460ff1615613af4565b303b155b613b105760405162461bcd60e51b8152600401610a69906150af565b600054610100900460ff16158015613b32576000805461ffff19166101011790555b60c980546001600160a01b0319166001600160a01b03841617905580156116fa576000805461ff00191690555050565b600054610100900460ff16613b895760405162461bcd60e51b8152600401610a6990615122565b613b9161405a565b565b600054610100900460ff16613bba5760405162461bcd60e51b8152600401610a6990615122565b613bc2614088565b613bca614088565b613b91614088565b6116fa82826137f2565b6000613be7836113ee565b600084815260656020526040808220600101859055519192508391839186917fbd79b86ffe0ab8e8776151514217cd7cacd52c909f66475c3af44e129f0b00ff9190a4505050565b60006107b6825490565b60606000613c4883600261526a565b613c53906002615252565b6001600160401b03811115613c7857634e487b7160e01b600052604160045260246000fd5b6040519080825280601f01601f191660200182016040528015613ca2576020820181803683370190505b509050600360fc1b81600081518110613ccb57634e487b7160e01b600052603260045260246000fd5b60200101906001600160f81b031916908160001a905350600f60fb1b81600181518110613d0857634e487b7160e01b600052603260045260246000fd5b60200101906001600160f81b031916908160001a9053506000613d2c84600261526a565b613d37906001615252565b90505b6001811115613dcb576f181899199a1a9b1b9c1cb0b131b232b360811b85600f1660108110613d7957634e487b7160e01b600052603260045260246000fd5b1a60f81b828281518110613d9d57634e487b7160e01b600052603260045260246000fd5b60200101906001600160f81b031916908160001a90535060049490941c93613dc4816152cc565b9050613d3a565b5083156122835760405162461bcd60e51b815260206004820181905260248201527f537472696e67733a20686578206c656e67746820696e73756666696369656e746044820152606401610a69565b6114208363a9059cbb60e01b84846040516024016137bb929190614df7565b6000613e8e826040518060400160405280602081526020017f5361666545524332303a206c6f772d6c6576656c2063616c6c206661696c6564815250856001600160a01b03166140af9092919063ffffffff16565b8051909150156114205780806020019051810190613eac9190614960565b6114205760405162461bcd60e51b815260206004820152602a60248201527f5361666545524332303a204552433230206f7065726174696f6e20646964206e6044820152691bdd081cdd58d8d9595960b21b6064820152608401610a69565b613f15828261228a565b6116fa5760008281526065602090815260408083206001600160a01b03851684529091529020805460ff19166001179055613f4d3390565b6001600160a01b0316816001600160a01b0316837f2f8788117e7eff1d82e926ec794901d17c78024a50270940304540a733656f0d60405160405180910390a45050565b6000612283836001600160a01b0384166140c6565b613fb0828261228a565b156116fa5760008281526065602090815260408083206001600160a01b0385168085529252808320805460ff1916905551339285917ff6391f5c32d9c69d2a47ea670b442974b53935d1edc7fd64eb21e047a839171b9190a45050565b6000612283836001600160a01b038416614115565b600082600001828154811061404757634e487b7160e01b600052603260045260246000fd5b9060005260206000200154905092915050565b600054610100900460ff166140815760405162461bcd60e51b8152600401610a6990615122565b600160ca55565b600054610100900460ff16613b915760405162461bcd60e51b8152600401610a6990615122565b60606140be8484600085614232565b949350505050565b600081815260018301602052604081205461410d575081546001818101845560008481526020808220909301849055845484825282860190935260409020919091556107b6565b5060006107b6565b60008181526001830160205260408120548015614228576000614139600183615289565b855490915060009061414d90600190615289565b90508181146141ce57600086600001828154811061417b57634e487b7160e01b600052603260045260246000fd5b90600052602060002001549050808760000184815481106141ac57634e487b7160e01b600052603260045260246000fd5b6000918252602080832090910192909255918252600188019052604090208390555b85548690806141ed57634e487b7160e01b600052603160045260246000fd5b6001900381819060005260206000200160009055905585600101600086815260200190815260200160002060009055600193505050506107b6565b60009150506107b6565b6060824710156142935760405162461bcd60e51b815260206004820152602660248201527f416464726573733a20696e73756666696369656e742062616c616e636520666f6044820152651c8818d85b1b60d21b6064820152608401610a69565b843b6142e15760405162461bcd60e51b815260206004820152601d60248201527f416464726573733a2063616c6c20746f206e6f6e2d636f6e74726163740000006044820152606401610a69565b600080866001600160a01b031685876040516142fd9190614ba0565b60006040518083038185875af1925050503d806000811461433a576040519150601f19603f3d011682016040523d82523d6000602084013e61433f565b606091505b509150915061434f82828661435a565b979650505050505050565b60608315614369575081612283565b8251156143795782518084602001fd5b8160405162461bcd60e51b8152600401610a69919061504b565b60008083601f8401126143a4578182fd5b5081356001600160401b038111156143ba578182fd5b6020830191508360208260051b85010111156143d557600080fd5b9250929050565b600082601f8301126143ec578081fd5b813560206144016143fc8361522f565b6151ff565b80838252828201915082860187848660051b8901011115614420578586fd5b855b858110156144475781356144358161530f565b84529284019290840190600101614422565b5090979650505050505050565b600082601f830112614464578081fd5b813560206144746143fc8361522f565b80838252828201915082860187848660051b8901011115614493578586fd5b855b8581101561444757813584529284019290840190600101614495565b803563ffffffff811681146144c557600080fd5b919050565b6000602082840312156144db578081fd5b81356122838161530f565b6000602082840312156144f7578081fd5b81516122838161530f565b600080600060608486031215614516578182fd5b83356145218161530f565b925060208401356145318161530f565b915060408401356145418161530f565b809150509250925092565b6000806000806000806000806000806101408b8d03121561456b578586fd5b8a356145768161530f565b995060208b013561458681615327565b985060408b013561459681615327565b975060608b01356145a681615327565b965060808b01356145b681615327565b999c989b50969995989760a0870135975060c08701359660e08101359650610100810135955061012001359350915050565b600080604083850312156145fa578182fd5b82356146058161530f565b91506020838101356001600160401b0380821115614621578384fd5b818601915086601f830112614634578384fd5b813581811115614646576146466152f9565b614658601f8201601f191685016151ff565b9150808252878482850101111561466d578485fd5b8084840185840137810190920192909252919491935090915050565b6000806000806000606086880312156146a0578283fd5b85356001600160401b03808211156146b6578485fd5b6146c289838a01614393565b909750955060208801359150808211156146da578485fd5b506146e788828901614393565b90945092505060408601356146fb81615327565b809150509295509295909350565b60006020828403121561471a578081fd5b81356001600160401b0381111561472f578182fd5b6140be848285016143dc565b6000806040838503121561474d578182fd5b82356001600160401b0380821115614763578384fd5b61476f868387016143dc565b93506020850135915080821115614784578283fd5b5061479185828601614454565b9150509250929050565b6000806000606084860312156147af578081fd5b83356001600160401b03808211156147c5578283fd5b6147d1878388016143dc565b945060208601359150808211156147e6578283fd5b506147f386828701614454565b925050604084013561454181615327565b60008060208385031215614816578182fd5b82356001600160401b0381111561482b578283fd5b61483785828601614393565b90969095509350505050565b60008060008060006060868803121561485a578283fd5b85356001600160401b0380821115614870578485fd5b61487c89838a01614393565b90975095506020880135915080821115614894578485fd5b506148a188828901614393565b96999598509660400135949350505050565b600080600080608085870312156148c8578182fd5b84516001600160401b038111156148dd578283fd5b8501601f810187136148ed578283fd5b805160206148fd6143fc8361522f565b8083825282820191508285018b848660051b880101111561491c578788fd5b8795505b8486101561493e578051835260019590950194918301918301614920565b509189015160408a01516060909a0151929b909a509197509095505050505050565b600060208284031215614971578081fd5b815161228381615327565b60006020828403121561498d578081fd5b5035919050565b600080604083850312156149a6578182fd5b8235915060208301356149b88161530f565b809150509250929050565b600080604083850312156149d5578182fd5b50508035926020909101359150565b6000602082840312156149f5578081fd5b81356001600160e01b031981168114612283578182fd5b600060208284031215614a1d578081fd5b5051919050565b600060208284031215614a35578081fd5b612283826144b1565b60008060008060808587031215614a53578182fd5b614a5c856144b1565b9350614a6a602086016144b1565b9250614a78604086016144b1565b9150614a86606086016144b1565b905092959194509250565b81835260006020808501945082825b85811015614ace578135614ab38161530f565b6001600160a01b031687529582019590820190600101614aa0565b509495945050505050565b6000815180845260208085019450808401835b83811015614ace5781516001600160a01b031687529582019590820190600101614aec565b81835260006001600160fb1b03831115614b29578081fd5b8260051b80836020870137939093016020019283525090919050565b6000815180845260208085019450808401835b83811015614ace57815187529582019590820190600101614b58565b60008151808452614b8c8160208601602086016152a0565b601f01601f19169290920160200192915050565b60008251614bb28184602087016152a0565b9190910192915050565b76020b1b1b2b9b9a1b7b73a3937b61d1030b1b1b7bab73a1604d1b815260008351614bee8160178501602088016152a0565b7001034b99036b4b9b9b4b733903937b6329607d1b6017918401918201528351614c1f8160288401602088016152a0565b01602801949350505050565b6001600160a01b0391909116815260200190565b6001600160a01b0392831681529116602082015260400190565b6001600160a01b0387168152608060208201819052600090614c7e9083018789614a91565b8281036040840152614c91818688614b11565b9150508215156060830152979650505050505050565b6001600160a01b03831681526040602082018190526000906140be90830184614ad9565b6001600160a01b0384168152606060208201819052600090614cef90830185614ad9565b8281036040840152614d018185614b45565b9695505050505050565b6001600160a01b0385168152608060208201819052600090614d2f90830186614ad9565b8281036040840152614d418186614b45565b915050821515606083015295945050505050565b6001600160a01b038616815260a060208201819052600090614d7990830187614ad9565b8281036040840152614d8b8187614b45565b606084019590955250509015156080909101529392505050565b6001600160a01b0384168152604060208201819052600090614dca9083018486614b11565b95945050505050565b6001600160a01b03831681526040602082018190526000906140be90830184614b74565b6001600160a01b03929092168252602082015260400190565b60e081526000614e2460e083018b8d614a91565b8281036020840152614e37818a8c614b11565b905087151560408401528281036060840152614e538188614b45565b6080840196909652505060a081019290925260c0909101529695505050505050565b606081526000614e886060830186614ad9565b8281036020840152614e9a8186614b45565b915050826040830152949350505050565b60208082528181018390526000906040808401600586811b8601830188865b89811015614f8757888303603f190185528135368c9003605e19018112614eef578889fd5b8b0160608135614efe8161530f565b6001600160a01b031685528189013536839003601e19018112614f1f578a8bfd5b820180356001600160401b03811115614f36578b8cfd5b80881b3603841315614f46578b8cfd5b828b880152614f5a838801828d8501614a91565b92505050614f698883016144b1565b63ffffffff1694880194909452509386019390860190600101614eca565b50909998505050505050505050565b606081526000614faa606083018789614b11565b8281036020840152614fbd818688614b11565b9150508260408301529695505050505050565b604081526000614fe4604083018587614b11565b9050826020830152949350505050565b6080815260006150076080830187614b45565b6020830195909552506040810192909252606090910152919050565b60208101600d831061504557634e487b7160e01b600052602160045260246000fd5b91905290565b6020815260006122836020830184614b74565b60208082526031908201527f43616c6c6572206973206e6f742077686974656c69737465642061732061206c60408201527034b8bab4b234ba3c90383937bb34b232b960791b606082015260800190565b6020808252602e908201527f496e697469616c697a61626c653a20636f6e747261637420697320616c72656160408201526d191e481a5b9a5d1a585b1a5e995960921b606082015260800190565b6020808252600b908201526a626164206164647265737360a81b604082015260600190565b6020808252602b908201527f496e697469616c697a61626c653a20636f6e7472616374206973206e6f74206960408201526a6e697469616c697a696e6760a81b606082015260800190565b60208082526019908201527810d85b1b195c881a5cc81b9bdd0819d85cc81858d8dbdd5b9d603a1b604082015260600190565b6020808252601f908201527f5265656e7472616e637947756172643a207265656e7472616e742063616c6c00604082015260600190565b63ffffffff948516815292841660208401529083166040830152909116606082015260800190565b604051601f8201601f191681016001600160401b0381118282101715615227576152276152f9565b604052919050565b60006001600160401b03821115615248576152486152f9565b5060051b60200190565b60008219821115615265576152656152e3565b500190565b6000816000190483118215151615615284576152846152e3565b500290565b60008282101561529b5761529b6152e3565b500390565b60005b838110156152bb5781810151838201526020016152a3565b838111156113e85750506000910152565b6000816152db576152db6152e3565b506000190190565b634e487b7160e01b600052601160045260246000fd5b634e487b7160e01b600052604160045260246000fd5b6001600160a01b038116811461532457600080fd5b50565b801515811461532457600080fdfe6d53deaa1363a9a09a38da6f41ec59fc13a00b08c43141d19c181ddb970e9d2a45a03fb503c1bf173e1a78fdc6b62e74bfc9c0cac4b0db3c4a667287a0fb7b9d72fed0a30cb639f27f755e6f7c6edf975db0859d96eb67b27d2695c6486b1be0a26469706673582212208f9d9781f6dc5afd88c97c79db208144fafab43bc68a9c6952bbb83cfd3e34eb64736f6c63430008040033",
  "devdoc": {
    "kind": "dev",
    "methods": {
      "addIntegration(address,string)": {
        "params": {
          "contractAddress": "The address of the integration contract",
          "name": "The name of the protocol being integrated to"
        }
      },
      "addToken(address,bool,bool,bool,bool,uint256,uint256,uint256,uint256,uint256)": {
        "params": {
          "acceptingDeposits": "Whether token deposits are enabled",
          "acceptingWithdrawals": "Whether token withdrawals are enabled",
          "biosRewardWeight": "Token weight for BIOS rewards",
          "reserveRatioNumerator": "Number that gets divided by reserve ratio denominator to get reserve ratio",
          "tokenAddress": "The address of the ERC20 token contract"
        }
      },
      "biosBuyBack(uint256)": {
        "params": {
          "ratioX1000": "BIOS/WETH ratio for front runner protection"
        }
      },
      "claimAllRewards(uint256[])": {
        "params": {
          "strategies": "Array of strategy IDs to claim eth rewards from"
        },
        "returns": {
          "biosClaimed": "The amount of BIOS claimed by the user",
          "ethClaimed": "The amount of ETH claimed by the user"
        }
      },
      "claimBiosRewards()": {
        "returns": {
          "biosClaimed": "The amount of BIOS claimed by the user"
        }
      },
      "claimEthRewards(uint256[])": {
        "params": {
          "strategies": "Array of strategy IDs to claim rewards from. 0 for BIOS PFA!"
        },
        "returns": {
          "ethClaimed": "The amount of ETH claimed by the user"
        }
      },
      "claimLpFees(address[])": {
        "params": {
          "tokens": "Array of token the token addresses"
        }
      },
      "deposit(address[],uint256[])": {
        "params": {
          "amounts": "Array of token amounts",
          "tokens": "Array of token the token addresses"
        }
      },
      "getEthRewardsTimePeriod()": {
        "returns": {
          "ethRewardsTimePeriod": "The number of seconds between the last two ETH payouts"
        }
      },
      "getLastBiosBuyBackTimestamp()": {
        "returns": {
          "_0": "The timestamp the biosBuyBack function was last called"
        }
      },
      "getLastDeployTimestamp()": {
        "returns": {
          "_0": "The timestamp the deploy function was last called"
        }
      },
      "getLastDistributeEthTimestamp()": {
        "returns": {
          "_0": "The timestamp the distributeEth function was last called"
        }
      },
      "getRoleAdmin(bytes32)": {
        "details": "Returns the admin role that controls `role`. See {grantRole} and {revokeRole}. To change a role's admin, use {_setRoleAdmin}."
      },
      "getRoleMember(bytes32,uint256)": {
        "details": "Returns one of the accounts that have `role`. `index` must be a value between 0 and {getRoleMemberCount}, non-inclusive. Role bearers are not sorted in any particular way, and their ordering may change at any point. WARNING: When using {getRoleMember} and {getRoleMemberCount}, make sure you perform all queries on the same block. See the following https://forum.openzeppelin.com/t/iterating-over-elements-on-enumerableset-in-openzeppelin-contracts/2296[forum post] for more information."
      },
      "getRoleMemberCount(bytes32)": {
        "details": "Returns the number of accounts that have `role`. Can be used together with {getRoleMember} to enumerate all bearers of a role."
      },
      "grantRole(bytes32,address)": {
        "details": "Grants `role` to `account`. If `account` had not been already granted `role`, emits a {RoleGranted} event. Requirements: - the caller must have ``role``'s admin role."
      },
      "hasRole(bytes32,address)": {
        "details": "Returns `true` if `account` has been granted `role`."
      },
      "initialize(address,address,address)": {
        "params": {
          "admin_": "default administrator, a cold storage address",
          "moduleMap_": "Module Map address",
          "owner_": "single owner account, used to manage the managers"
        }
      },
      "isLiquidityProvider(address)": {
        "params": {
          "account": "The address of the account to check if they are a liquidity provider"
        },
        "returns": {
          "_0": "Bool indicating whether the account is a liquidity provider"
        }
      },
      "isManager(address)": {
        "params": {
          "account": "The address of the account to check if they are a manager"
        },
        "returns": {
          "_0": "Bool indicating whether the account is a manger"
        }
      },
      "isOwner(address)": {
        "params": {
          "account": "The address of the account to check if they are an owner"
        },
        "returns": {
          "_0": "Bool indicating whether the account is an owner"
        }
      },
      "provideLiquidity(address[],uint256[])": {
        "params": {
          "amounts": "Array of token amounts",
          "tokens": "Array of token the token addresses"
        }
      },
      "renounceRole(bytes32,address)": {
        "details": "Revokes `role` from the calling account. Roles are often managed via {grantRole} and {revokeRole}: this function's purpose is to provide a mechanism for accounts to lose their privileges if they are compromised (such as when a trusted device is misplaced). If the calling account had been revoked `role`, emits a {RoleRevoked} event. Requirements: - the caller must be `account`."
      },
      "revokeRole(bytes32,address)": {
        "details": "Revokes `role` from `account`. If `account` had been granted `role`, emits a {RoleRevoked} event. Requirements: - the caller must have ``role``'s admin role."
      },
      "seedBiosRewards(uint256)": {
        "params": {
          "biosAmount": "The amount of BIOS to add to the rewards"
        }
      },
      "setBiosRewardsDuration(uint32)": {
        "params": {
          "biosRewardsDuration": "The duration in seconds for a BIOS rewards period to last"
        }
      },
      "supportsInterface(bytes4)": {
        "details": "See {IERC165-supportsInterface}."
      },
      "takeLiquidity(address[],uint256[])": {
        "params": {
          "amounts": "Array of token amounts",
          "tokens": "Array of token the token addresses"
        }
      },
      "updateEthDistributionWeights(uint32,uint32,uint32,uint32)": {
        "params": {
          "biosBuyBackEthWeight": "The relative weight of ETH to send to BIOS buy back",
          "protocolFeeEthWeight": "The relative weight of ETH to send to protocol fee accrual",
          "rewardsEthWeight": "The relative weight of ETH to send to user rewards",
          "treasuryEthWeight": "The relative weight of ETH to send to the treasury"
        }
      },
      "updateGasAccount(address)": {
        "params": {
          "gasAccount": "The address of the account to send ETH to gas for executing bulk system functions"
        }
      },
      "updateGasAccountTargetEthBalance(uint256)": {
        "params": {
          "gasAccountTargetEthBalance": "The target ETH balance of the gas account"
        }
      },
      "updateTreasuryAccount(address)": {
        "params": {
          "treasuryAccount": "The address of the system treasury account"
        }
      },
      "withdraw(address[],uint256[],bool)": {
        "params": {
          "amounts": "Array of token amounts",
          "tokens": "Array of token the token addresses",
          "withdrawWethAsEth": "Boolean indicating whether should receive WETH balance as ETH"
        }
      },
      "withdrawAllAndClaim(address[],uint256[],bool)": {
        "params": {
          "strategies": "Array of strategyIDs that user is claiming rewards from",
          "tokens": "Array of token address that user is exiting positions from",
          "withdrawWethAsEth": "Boolean indicating whether should receive WETH balance as ETH"
        },
        "returns": {
          "biosClaimed": "The amount of BIOS being claimed from rewards",
          "ethClaimed": "The amount of ETH being claimed from rewards",
          "ethWithdrawn": "The amount of WETH balance being withdrawn as ETH",
          "tokenAmounts": "The amounts of each token being withdrawn"
        }
      }
    },
    "title": "Kernel",
    "version": 1
  },
  "userdoc": {
    "kind": "user",
    "methods": {
      "addIntegration(address,string)": {
        "notice": "This function is used after tokens have been added, and a weight array should be included"
      },
      "biosBuyBack(uint256)": {
        "notice": "Uses any WETH held in the SushiSwap integration to buy back BIOS which is sent to the Kernel"
      },
      "claimAllRewards(uint256[])": {
        "notice": "Allows user to claim their ETH and BIOS rewards"
      },
      "claimBiosRewards()": {
        "notice": "Allows user to claim their BIOS rewards"
      },
      "claimEthRewards(uint256[])": {
        "notice": "Allows user to claim their ETH rewards"
      },
      "deploy((address,address[],uint32)[])": {
        "notice": "Deploys all tokens to all integrations according to configured weights"
      },
      "deposit(address[],uint256[])": {
        "notice": "User is allowed to deposit whitelisted tokens"
      },
      "distributeEth(uint256[],uint256[],uint256)": {
        "notice": "Distributes WETH to the gas account, BIOS buy back, treasury, protocol fee accrual, and user rewards"
      },
      "initialize(address,address,address)": {
        "notice": "Initializes contract - used as a replacement for a constructor"
      },
      "provideLiquidity(address[],uint256[])": {
        "notice": "User is allowed to LP whitelisted tokens"
      },
      "tokenApprovals()": {
        "notice": "Gives the UserPositions contract approval to transfer BIOS from Kernel"
      },
      "withdraw(address[],uint256[],bool)": {
        "notice": "User is allowed to withdraw tokens"
      },
      "withdrawAllAndClaim(address[],uint256[],bool)": {
        "notice": "Allows a user to withdraw entire undeployed balances of the specified tokens and claim rewards"
      }
    },
    "notice": "Allows users to deposit/withdraw erc20 tokensAllows a system admin to control which tokens are depositable",
    "version": 1
  },
  "storageLayout": {
    "storage": [
      {
        "astId": 723,
        "contract": "contracts/core/Kernel.sol:Kernel",
        "label": "_initialized",
        "offset": 0,
        "slot": "0",
        "type": "t_bool"
      },
      {
        "astId": 726,
        "contract": "contracts/core/Kernel.sol:Kernel",
        "label": "_initializing",
        "offset": 1,
        "slot": "0",
        "type": "t_bool"
      },
      {
        "astId": 2036,
        "contract": "contracts/core/Kernel.sol:Kernel",
        "label": "__gap",
        "offset": 0,
        "slot": "1",
        "type": "t_array(t_uint256)50_storage"
      },
      {
        "astId": 2285,
        "contract": "contracts/core/Kernel.sol:Kernel",
        "label": "__gap",
        "offset": 0,
        "slot": "51",
        "type": "t_array(t_uint256)50_storage"
      },
      {
        "astId": 204,
        "contract": "contracts/core/Kernel.sol:Kernel",
        "label": "_roles",
        "offset": 0,
        "slot": "101",
        "type": "t_mapping(t_bytes32,t_struct(RoleData)199_storage)"
      },
      {
        "astId": 491,
        "contract": "contracts/core/Kernel.sol:Kernel",
        "label": "__gap",
        "offset": 0,
        "slot": "102",
        "type": "t_array(t_uint256)49_storage"
      },
      {
        "astId": 45,
        "contract": "contracts/core/Kernel.sol:Kernel",
        "label": "_roleMembers",
        "offset": 0,
        "slot": "151",
        "type": "t_mapping(t_bytes32,t_struct(AddressSet)2698_storage)"
      },
      {
        "astId": 154,
        "contract": "contracts/core/Kernel.sol:Kernel",
        "label": "__gap",
        "offset": 0,
        "slot": "152",
        "type": "t_array(t_uint256)49_storage"
      },
      {
        "astId": 10099,
        "contract": "contracts/core/Kernel.sol:Kernel",
        "label": "moduleMap",
        "offset": 0,
        "slot": "201",
        "type": "t_contract(IModuleMap)20911"
      },
      {
        "astId": 804,
        "contract": "contracts/core/Kernel.sol:Kernel",
        "label": "_status",
        "offset": 0,
        "slot": "202",
        "type": "t_uint256"
      },
      {
        "astId": 847,
        "contract": "contracts/core/Kernel.sol:Kernel",
        "label": "__gap",
        "offset": 0,
        "slot": "203",
        "type": "t_array(t_uint256)49_storage"
      },
      {
        "astId": 8645,
        "contract": "contracts/core/Kernel.sol:Kernel",
        "label": "lastDeployTimestamp",
        "offset": 0,
        "slot": "252",
        "type": "t_uint256"
      },
      {
        "astId": 8647,
        "contract": "contracts/core/Kernel.sol:Kernel",
        "label": "lastHarvestYieldTimestamp",
        "offset": 0,
        "slot": "253",
        "type": "t_uint256"
      },
      {
        "astId": 8649,
        "contract": "contracts/core/Kernel.sol:Kernel",
        "label": "lastDistributeEthTimestamp",
        "offset": 0,
        "slot": "254",
        "type": "t_uint256"
      },
      {
        "astId": 8651,
        "contract": "contracts/core/Kernel.sol:Kernel",
        "label": "lastLastDistributeEthTimestamp",
        "offset": 0,
        "slot": "255",
        "type": "t_uint256"
      },
      {
        "astId": 8653,
        "contract": "contracts/core/Kernel.sol:Kernel",
        "label": "lastBiosBuyBackTimestamp",
        "offset": 0,
        "slot": "256",
        "type": "t_uint256"
      },
      {
        "astId": 8655,
        "contract": "contracts/core/Kernel.sol:Kernel",
        "label": "initializationTimestamp",
        "offset": 0,
        "slot": "257",
        "type": "t_uint256"
      },
      {
        "astId": 8657,
        "contract": "contracts/core/Kernel.sol:Kernel",
        "label": "lpWhitelistEnabled",
        "offset": 0,
        "slot": "258",
        "type": "t_bool"
      }
    ],
    "types": {
      "t_address": {
        "encoding": "inplace",
        "label": "address",
        "numberOfBytes": "20"
      },
      "t_array(t_bytes32)dyn_storage": {
        "base": "t_bytes32",
        "encoding": "dynamic_array",
        "label": "bytes32[]",
        "numberOfBytes": "32"
      },
      "t_array(t_uint256)49_storage": {
        "base": "t_uint256",
        "encoding": "inplace",
        "label": "uint256[49]",
        "numberOfBytes": "1568"
      },
      "t_array(t_uint256)50_storage": {
        "base": "t_uint256",
        "encoding": "inplace",
        "label": "uint256[50]",
        "numberOfBytes": "1600"
      },
      "t_bool": {
        "encoding": "inplace",
        "label": "bool",
        "numberOfBytes": "1"
      },
      "t_bytes32": {
        "encoding": "inplace",
        "label": "bytes32",
        "numberOfBytes": "32"
      },
      "t_contract(IModuleMap)20911": {
        "encoding": "inplace",
        "label": "contract IModuleMap",
        "numberOfBytes": "20"
      },
      "t_mapping(t_address,t_bool)": {
        "encoding": "mapping",
        "key": "t_address",
        "label": "mapping(address => bool)",
        "numberOfBytes": "32",
        "value": "t_bool"
      },
      "t_mapping(t_bytes32,t_struct(AddressSet)2698_storage)": {
        "encoding": "mapping",
        "key": "t_bytes32",
        "label": "mapping(bytes32 => struct EnumerableSetUpgradeable.AddressSet)",
        "numberOfBytes": "32",
        "value": "t_struct(AddressSet)2698_storage"
      },
      "t_mapping(t_bytes32,t_struct(RoleData)199_storage)": {
        "encoding": "mapping",
        "key": "t_bytes32",
        "label": "mapping(bytes32 => struct AccessControlUpgradeable.RoleData)",
        "numberOfBytes": "32",
        "value": "t_struct(RoleData)199_storage"
      },
      "t_mapping(t_bytes32,t_uint256)": {
        "encoding": "mapping",
        "key": "t_bytes32",
        "label": "mapping(bytes32 => uint256)",
        "numberOfBytes": "32",
        "value": "t_uint256"
      },
      "t_struct(AddressSet)2698_storage": {
        "encoding": "inplace",
        "label": "struct EnumerableSetUpgradeable.AddressSet",
        "members": [
          {
            "astId": 2697,
            "contract": "contracts/core/Kernel.sol:Kernel",
            "label": "_inner",
            "offset": 0,
            "slot": "0",
            "type": "t_struct(Set)2397_storage"
          }
        ],
        "numberOfBytes": "64"
      },
      "t_struct(RoleData)199_storage": {
        "encoding": "inplace",
        "label": "struct AccessControlUpgradeable.RoleData",
        "members": [
          {
            "astId": 196,
            "contract": "contracts/core/Kernel.sol:Kernel",
            "label": "members",
            "offset": 0,
            "slot": "0",
            "type": "t_mapping(t_address,t_bool)"
          },
          {
            "astId": 198,
            "contract": "contracts/core/Kernel.sol:Kernel",
            "label": "adminRole",
            "offset": 0,
            "slot": "1",
            "type": "t_bytes32"
          }
        ],
        "numberOfBytes": "64"
      },
      "t_struct(Set)2397_storage": {
        "encoding": "inplace",
        "label": "struct EnumerableSetUpgradeable.Set",
        "members": [
          {
            "astId": 2392,
            "contract": "contracts/core/Kernel.sol:Kernel",
            "label": "_values",
            "offset": 0,
            "slot": "0",
            "type": "t_array(t_bytes32)dyn_storage"
          },
          {
            "astId": 2396,
            "contract": "contracts/core/Kernel.sol:Kernel",
            "label": "_indexes",
            "offset": 0,
            "slot": "1",
            "type": "t_mapping(t_bytes32,t_uint256)"
          }
        ],
        "numberOfBytes": "64"
      },
      "t_uint256": {
        "encoding": "inplace",
        "label": "uint256",
        "numberOfBytes": "32"
      }
    }
  }
}