{
  "address": "0x53dF05245CbC1b31faAE3Dc7ba6893Ba33198AAf",
  "abi": [
    {
      "anonymous": false,
      "inputs": [
        {
          "indexed": false,
          "internalType": "uint256",
          "name": "strategyId",
          "type": "uint256"
        },
        {
          "components": [
            {
              "internalType": "address",
              "name": "integration",
              "type": "address"
            },
            {
              "internalType": "uint32",
              "name": "ammPoolID",
              "type": "uint32"
            }
          ],
          "indexed": false,
          "internalType": "struct IStrategyMap.Integration",
          "name": "integration",
          "type": "tuple"
        },
        {
          "indexed": false,
          "internalType": "address",
          "name": "token",
          "type": "address"
        }
      ],
      "name": "AddIntegration",
      "type": "event"
    },
    {
      "anonymous": false,
      "inputs": [
        {
          "indexed": true,
          "internalType": "uint256",
          "name": "id",
          "type": "uint256"
        }
      ],
      "name": "DeleteStrategy",
      "type": "event"
    },
    {
      "anonymous": false,
      "inputs": [
        {
          "indexed": false,
          "internalType": "uint256",
          "name": "strategyId",
          "type": "uint256"
        },
        {
          "indexed": false,
          "internalType": "uint256",
          "name": "sourceIndex",
          "type": "uint256"
        },
        {
          "indexed": false,
          "internalType": "uint256",
          "name": "destinationIndex",
          "type": "uint256"
        },
        {
          "indexed": false,
          "internalType": "uint32",
          "name": "amount",
          "type": "uint32"
        },
        {
          "indexed": false,
          "internalType": "bool",
          "name": "rebalance",
          "type": "bool"
        }
      ],
      "name": "IntegrationWeightAdjustment",
      "type": "event"
    },
    {
      "anonymous": false,
      "inputs": [
        {
          "indexed": true,
          "internalType": "uint256",
          "name": "id",
          "type": "uint256"
        },
        {
          "components": [
            {
              "internalType": "address",
              "name": "integration",
              "type": "address"
            },
            {
              "internalType": "uint32",
              "name": "ammPoolID",
              "type": "uint32"
            }
          ],
          "indexed": false,
          "internalType": "struct IStrategyMap.Integration[]",
          "name": "integrations",
          "type": "tuple[]"
        },
        {
          "components": [
            {
              "internalType": "uint256",
              "name": "integrationPairIdx",
              "type": "uint256"
            },
            {
              "internalType": "address",
              "name": "token",
              "type": "address"
            },
            {
              "internalType": "uint32",
              "name": "weight",
              "type": "uint32"
            }
          ],
          "indexed": false,
          "internalType": "struct IStrategyMap.Token[]",
          "name": "tokens",
          "type": "tuple[]"
        },
        {
          "indexed": false,
          "internalType": "string",
          "name": "name",
          "type": "string"
        }
      ],
      "name": "NewStrategy",
      "type": "event"
    },
    {
      "anonymous": false,
      "inputs": [
        {
          "indexed": false,
          "internalType": "uint256",
          "name": "strategyId",
          "type": "uint256"
        },
        {
          "indexed": false,
          "internalType": "uint256",
          "name": "integrationIndex",
          "type": "uint256"
        },
        {
          "indexed": false,
          "internalType": "address",
          "name": "token",
          "type": "address"
        }
      ],
      "name": "RemoveIntegration",
      "type": "event"
    },
    {
      "anonymous": false,
      "inputs": [
        {
          "indexed": true,
          "internalType": "uint256",
          "name": "id",
          "type": "uint256"
        },
        {
          "indexed": false,
          "internalType": "string",
          "name": "name",
          "type": "string"
        }
      ],
      "name": "UpdateName",
      "type": "event"
    },
    {
      "inputs": [],
      "name": "TOKEN_WEIGHT",
      "outputs": [
        {
          "internalType": "uint32",
          "name": "",
          "type": "uint32"
        }
      ],
      "stateMutability": "view",
      "type": "function"
    },
    {
      "inputs": [
        {
          "internalType": "address[]",
          "name": "controllers_",
          "type": "address[]"
        },
        {
          "internalType": "address",
          "name": "moduleMap_",
          "type": "address"
        }
      ],
      "name": "__Controlled_init",
      "outputs": [],
      "stateMutability": "nonpayable",
      "type": "function"
    },
    {
      "inputs": [
        {
          "internalType": "address",
          "name": "controller",
          "type": "address"
        }
      ],
      "name": "addController",
      "outputs": [],
      "stateMutability": "nonpayable",
      "type": "function"
    },
    {
      "inputs": [
        {
          "internalType": "uint256",
          "name": "strategyId",
          "type": "uint256"
        },
        {
          "components": [
            {
              "internalType": "address",
              "name": "integration",
              "type": "address"
            },
            {
              "internalType": "uint32",
              "name": "ammPoolID",
              "type": "uint32"
            }
          ],
          "internalType": "struct IStrategyMap.Integration",
          "name": "integration",
          "type": "tuple"
        },
        {
          "internalType": "address",
          "name": "token",
          "type": "address"
        }
      ],
      "name": "addPairToStrategy",
      "outputs": [],
      "stateMutability": "nonpayable",
      "type": "function"
    },
    {
      "inputs": [
        {
          "internalType": "string",
          "name": "name",
          "type": "string"
        },
        {
          "components": [
            {
              "internalType": "address",
              "name": "integration",
              "type": "address"
            },
            {
              "internalType": "uint32",
              "name": "ammPoolID",
              "type": "uint32"
            }
          ],
          "internalType": "struct IStrategyMap.Integration[]",
          "name": "integrations",
          "type": "tuple[]"
        },
        {
          "components": [
            {
              "internalType": "uint256",
              "name": "integrationPairIdx",
              "type": "uint256"
            },
            {
              "internalType": "address",
              "name": "token",
              "type": "address"
            },
            {
              "internalType": "uint32",
              "name": "weight",
              "type": "uint32"
            }
          ],
          "internalType": "struct IStrategyMap.Token[]",
          "name": "tokens",
          "type": "tuple[]"
        },
        {
          "internalType": "uint256[]",
          "name": "maxCap",
          "type": "uint256[]"
        }
      ],
      "name": "addStrategy",
      "outputs": [],
      "stateMutability": "nonpayable",
      "type": "function"
    },
    {
      "inputs": [
        {
          "internalType": "address[]",
          "name": "tokens",
          "type": "address[]"
        }
      ],
      "name": "clearClosablePositions",
      "outputs": [],
      "stateMutability": "nonpayable",
      "type": "function"
    },
    {
      "inputs": [
        {
          "internalType": "address",
          "name": "token",
          "type": "address"
        },
        {
          "internalType": "uint256",
          "name": "amount",
          "type": "uint256"
        }
      ],
      "name": "closePositionsForWithdrawal",
      "outputs": [],
      "stateMutability": "nonpayable",
      "type": "function"
    },
    {
      "inputs": [
        {
          "internalType": "uint256",
          "name": "",
          "type": "uint256"
        }
      ],
      "name": "controllers",
      "outputs": [
        {
          "internalType": "address",
          "name": "",
          "type": "address"
        }
      ],
      "stateMutability": "view",
      "type": "function"
    },
    {
      "inputs": [
        {
          "internalType": "address",
          "name": "integration",
          "type": "address"
        },
        {
          "internalType": "uint32",
          "name": "poolID",
          "type": "uint32"
        },
        {
          "internalType": "address",
          "name": "token",
          "type": "address"
        },
        {
          "internalType": "uint256",
          "name": "amount",
          "type": "uint256"
        }
      ],
      "name": "decreaseDeployAmountChange",
      "outputs": [],
      "stateMutability": "nonpayable",
      "type": "function"
    },
    {
      "inputs": [
        {
          "internalType": "uint256",
          "name": "id",
          "type": "uint256"
        },
        {
          "components": [
            {
              "internalType": "address",
              "name": "token",
              "type": "address"
            },
            {
              "internalType": "uint256",
              "name": "amount",
              "type": "uint256"
            }
          ],
          "internalType": "struct IUserPositions.TokenMovement[]",
          "name": "tokens",
          "type": "tuple[]"
        }
      ],
      "name": "decreaseStrategy",
      "outputs": [],
      "stateMutability": "nonpayable",
      "type": "function"
    },
    {
      "inputs": [
        {
          "internalType": "uint256",
          "name": "id",
          "type": "uint256"
        }
      ],
      "name": "deleteStrategy",
      "outputs": [],
      "stateMutability": "nonpayable",
      "type": "function"
    },
    {
      "inputs": [
        {
          "internalType": "address",
          "name": "token",
          "type": "address"
        },
        {
          "internalType": "uint256",
          "name": "index",
          "type": "uint256"
        }
      ],
      "name": "getClosablePositions",
      "outputs": [
        {
          "components": [
            {
              "internalType": "address",
              "name": "integration",
              "type": "address"
            },
            {
              "internalType": "uint32",
              "name": "ammPoolID",
              "type": "uint32"
            },
            {
              "internalType": "uint256",
              "name": "amount",
              "type": "uint256"
            }
          ],
          "internalType": "struct IStrategyMap.ClosablePosition",
          "name": "",
          "type": "tuple"
        }
      ],
      "stateMutability": "view",
      "type": "function"
    },
    {
      "inputs": [
        {
          "internalType": "address",
          "name": "integration",
          "type": "address"
        },
        {
          "internalType": "uint32",
          "name": "poolID",
          "type": "uint32"
        },
        {
          "internalType": "address",
          "name": "token",
          "type": "address"
        }
      ],
      "name": "getDeployAmount",
      "outputs": [
        {
          "internalType": "int256",
          "name": "",
          "type": "int256"
        }
      ],
      "stateMutability": "view",
      "type": "function"
    },
    {
      "inputs": [
        {
          "internalType": "uint256",
          "name": "id",
          "type": "uint256"
        },
        {
          "internalType": "address",
          "name": "token",
          "type": "address"
        }
      ],
      "name": "getMaximumCap",
      "outputs": [
        {
          "internalType": "uint256",
          "name": "cap",
          "type": "uint256"
        }
      ],
      "stateMutability": "view",
      "type": "function"
    },
    {
      "inputs": [
        {
          "internalType": "uint256[]",
          "name": "ids",
          "type": "uint256[]"
        }
      ],
      "name": "getMultipleStrategies",
      "outputs": [
        {
          "components": [
            {
              "internalType": "string",
              "name": "name",
              "type": "string"
            },
            {
              "components": [
                {
                  "internalType": "address",
                  "name": "integration",
                  "type": "address"
                },
                {
                  "internalType": "uint32",
                  "name": "ammPoolID",
                  "type": "uint32"
                }
              ],
              "internalType": "struct IStrategyMap.Integration[]",
              "name": "integrations",
              "type": "tuple[]"
            },
            {
              "components": [
                {
                  "internalType": "uint256",
                  "name": "integrationPairIdx",
                  "type": "uint256"
                },
                {
                  "internalType": "address",
                  "name": "token",
                  "type": "address"
                },
                {
                  "internalType": "uint32",
                  "name": "weight",
                  "type": "uint32"
                }
              ],
              "internalType": "struct IStrategyMap.Token[]",
              "name": "tokens",
              "type": "tuple[]"
            }
          ],
          "internalType": "struct IStrategyMap.StrategySummary[]",
          "name": "",
          "type": "tuple[]"
        }
      ],
      "stateMutability": "view",
      "type": "function"
    },
    {
      "inputs": [
        {
          "internalType": "uint256",
          "name": "id",
          "type": "uint256"
        }
      ],
      "name": "getStrategy",
      "outputs": [
        {
          "components": [
            {
              "internalType": "string",
              "name": "name",
              "type": "string"
            },
            {
              "components": [
                {
                  "internalType": "address",
                  "name": "integration",
                  "type": "address"
                },
                {
                  "internalType": "uint32",
                  "name": "ammPoolID",
                  "type": "uint32"
                }
              ],
              "internalType": "struct IStrategyMap.Integration[]",
              "name": "integrations",
              "type": "tuple[]"
            },
            {
              "components": [
                {
                  "internalType": "uint256",
                  "name": "integrationPairIdx",
                  "type": "uint256"
                },
                {
                  "internalType": "address",
                  "name": "token",
                  "type": "address"
                },
                {
                  "internalType": "uint32",
                  "name": "weight",
                  "type": "uint32"
                }
              ],
              "internalType": "struct IStrategyMap.Token[]",
              "name": "tokens",
              "type": "tuple[]"
            }
          ],
          "internalType": "struct IStrategyMap.StrategySummary",
          "name": "",
          "type": "tuple"
        }
      ],
      "stateMutability": "view",
      "type": "function"
    },
    {
      "inputs": [
        {
          "internalType": "uint256[]",
          "name": "_strategies",
          "type": "uint256[]"
        },
        {
          "internalType": "address[]",
          "name": "_tokens",
          "type": "address[]"
        }
      ],
      "name": "getStrategyBalances",
      "outputs": [
        {
          "components": [
            {
              "internalType": "uint256",
              "name": "strategyID",
              "type": "uint256"
            },
            {
              "components": [
                {
                  "internalType": "address",
                  "name": "token",
                  "type": "address"
                },
                {
                  "internalType": "uint256",
                  "name": "balance",
                  "type": "uint256"
                }
              ],
              "internalType": "struct IStrategyMap.GeneralBalance[]",
              "name": "tokens",
              "type": "tuple[]"
            }
          ],
          "internalType": "struct IStrategyMap.StrategyBalance[]",
          "name": "strategyBalances",
          "type": "tuple[]"
        },
        {
          "components": [
            {
              "internalType": "address",
              "name": "token",
              "type": "address"
            },
            {
              "internalType": "uint256",
              "name": "balance",
              "type": "uint256"
            }
          ],
          "internalType": "struct IStrategyMap.GeneralBalance[]",
          "name": "generalBalances",
          "type": "tuple[]"
        }
      ],
      "stateMutability": "view",
      "type": "function"
    },
    {
      "inputs": [
        {
          "internalType": "uint256",
          "name": "id",
          "type": "uint256"
        },
        {
          "internalType": "address",
          "name": "token",
          "type": "address"
        }
      ],
      "name": "getStrategyTokenBalance",
      "outputs": [
        {
          "internalType": "uint256",
          "name": "amount",
          "type": "uint256"
        }
      ],
      "stateMutability": "view",
      "type": "function"
    },
    {
      "inputs": [
        {
          "internalType": "uint256",
          "name": "strategy",
          "type": "uint256"
        }
      ],
      "name": "getStrategyTokenLength",
      "outputs": [
        {
          "internalType": "uint256",
          "name": "",
          "type": "uint256"
        }
      ],
      "stateMutability": "view",
      "type": "function"
    },
    {
      "inputs": [
        {
          "internalType": "address",
          "name": "token",
          "type": "address"
        }
      ],
      "name": "getTokenTotalBalance",
      "outputs": [
        {
          "internalType": "uint256",
          "name": "amount",
          "type": "uint256"
        }
      ],
      "stateMutability": "view",
      "type": "function"
    },
    {
      "inputs": [],
      "name": "idCounter",
      "outputs": [
        {
          "internalType": "uint256",
          "name": "",
          "type": "uint256"
        }
      ],
      "stateMutability": "view",
      "type": "function"
    },
    {
      "inputs": [
        {
          "internalType": "uint256",
          "name": "id",
          "type": "uint256"
        },
        {
          "components": [
            {
              "internalType": "address",
              "name": "token",
              "type": "address"
            },
            {
              "internalType": "uint256",
              "name": "amount",
              "type": "uint256"
            }
          ],
          "internalType": "struct IUserPositions.TokenMovement[]",
          "name": "tokens",
          "type": "tuple[]"
        }
      ],
      "name": "increaseStrategy",
      "outputs": [],
      "stateMutability": "nonpayable",
      "type": "function"
    },
    {
      "inputs": [
        {
          "internalType": "address[]",
          "name": "controllers_",
          "type": "address[]"
        },
        {
          "internalType": "address",
          "name": "moduleMap_",
          "type": "address"
        }
      ],
      "name": "initialize",
      "outputs": [],
      "stateMutability": "nonpayable",
      "type": "function"
    },
    {
      "inputs": [],
      "name": "moduleMap",
      "outputs": [
        {
          "internalType": "contract IModuleMap",
          "name": "",
          "type": "address"
        }
      ],
      "stateMutability": "view",
      "type": "function"
    },
    {
      "inputs": [
        {
          "internalType": "uint256",
          "name": "strategyId",
          "type": "uint256"
        },
        {
          "internalType": "uint256",
          "name": "sourceIndex",
          "type": "uint256"
        },
        {
          "internalType": "uint256",
          "name": "destinationIndex",
          "type": "uint256"
        },
        {
          "internalType": "int256",
          "name": "vectorAmount",
          "type": "int256"
        },
        {
          "internalType": "uint32",
          "name": "amount",
          "type": "uint32"
        },
        {
          "internalType": "bool",
          "name": "rebalance",
          "type": "bool"
        }
      ],
      "name": "movePairWeight",
      "outputs": [],
      "stateMutability": "nonpayable",
      "type": "function"
    },
    {
      "inputs": [
        {
          "internalType": "uint256",
          "name": "strategyId",
          "type": "uint256"
        },
        {
          "internalType": "uint256",
          "name": "integrationIndex",
          "type": "uint256"
        },
        {
          "internalType": "address",
          "name": "token",
          "type": "address"
        }
      ],
      "name": "removePairFromStrategy",
      "outputs": [],
      "stateMutability": "nonpayable",
      "type": "function"
    },
    {
      "inputs": [
        {
          "internalType": "uint256",
          "name": "strategyId",
          "type": "uint256"
        },
        {
          "internalType": "address",
          "name": "token",
          "type": "address"
        },
        {
          "internalType": "bool",
          "name": "available",
          "type": "bool"
        }
      ],
      "name": "setAvailableTokens",
      "outputs": [],
      "stateMutability": "nonpayable",
      "type": "function"
    },
    {
      "inputs": [
        {
          "internalType": "uint256",
          "name": "id",
          "type": "uint256"
        },
        {
          "internalType": "address",
          "name": "token",
          "type": "address"
        },
        {
          "internalType": "uint256",
          "name": "maxCap",
          "type": "uint256"
        }
      ],
      "name": "setMaximumCap",
      "outputs": [],
      "stateMutability": "nonpayable",
      "type": "function"
    },
    {
      "inputs": [
        {
          "internalType": "uint256",
          "name": "id",
          "type": "uint256"
        },
        {
          "internalType": "string",
          "name": "name",
          "type": "string"
        }
      ],
      "name": "updateName",
      "outputs": [],
      "stateMutability": "nonpayable",
      "type": "function"
    }
  ],
  "transactionHash": "0x3c24c045a8fc6c7ea8cb6748914f03622ada8af543af9de6bc2cf81b77ccca80",
  "args": [],
  "solcInputHash": "a159fb1319a3dc6c393b3157fe077196",
  "bytecode": "0x608060405234801561001057600080fd5b506155b180620000216000396000f3fe608060405234801561001057600080fd5b506004361061015f5760003560e01c80630f0a1c6f146101645780631416110b146101935780631975762f146101a857806319fed71e146101c857806327ddb971146101db5780632cf854ed1461020c5780633771dafe1461021f57806343b17d6314610232578063462d0b2e1461024557806353e76f2c146102585780635560066a1461026b57806377205dce1461027e57806387302037146102b7578063922e9fe3146102ca57806398c671ce146102dd5780639d6eaec2146102f0578063a441f6ec14610325578063a742d0b614610369578063a7fc7a0714610392578063ad14c3a8146103a5578063b2da6000146103b8578063ce19bda1146103cb578063cfc0cc34146103ea578063d4a4a0431461040a578063e94b0dd21461041d578063eb08ab2814610430578063ee73ccae14610439578063f7e50fcf1461044c578063ffeeb23414610495575b600080fd5b60005461017d906201000090046001600160a01b031681565b60405161018a9190614ef2565b60405180910390f35b6101a66101a1366004614bcd565b6104b6565b005b6101bb6101b63660046147c9565b610a57565b60405161018a9190615052565b6101a66101d6366004614951565b610b3d565b6101fe6101e9366004614b01565b60009081526003602052604090206002015490565b60405190815260200161018a565b6101a661021a366004614c52565b610e01565b6101a661022d366004614cbe565b611234565b6101a66102403660046147c9565b61188c565b6101a6610253366004614808565b611942565b6101a6610266366004614c16565b6119bf565b6101a6610279366004614704565b611ae1565b6101fe61028c366004614b31565b60009182526003602090815260408084206001600160a01b0390931684526004909201905290205490565b6101a66102c5366004614b01565b612098565b6101a66102d8366004614b60565b61226e565b6101a66102eb366004614808565b6123c2565b6101fe6102fe366004614b31565b60009182526005602090815260408084206001600160a01b03909316845291905290205490565b610338610333366004614704565b612551565b6040805182516001600160a01b0316815260208084015163ffffffff1690820152918101519082015260600161018a565b6101fe6103773660046146c5565b6001600160a01b031660009081526004602052604090205490565b6101a66103a03660046146c5565b6125f6565b6101a66103b3366004614c91565b612833565b6101a66103c6366004614b96565b612c5a565b6103d5620186a081565b60405163ffffffff909116815260200161018a565b6103fd6103f8366004614b01565b612de8565b60405161018a91906152a6565b6101a6610418366004614bcd565b612fad565b61017d61042b366004614b01565b61357a565b6101fe60085481565b6101a6610447366004614779565b6135a4565b6101fe61045a36600461472f565b6001600160a01b03808416600090815260066020908152604080832063ffffffff871684528252808320938516835292905220549392505050565b6104a86104a33660046148cd565b613682565b60405161018a929190614fcb565b3360009081526001602052604090205460ff166104ee5760405162461bcd60e51b81526004016104e590615252565b60405180910390fd5b60006104f984612de8565b905060005b82811015610a505760008581526003602081905260408220019085858481811061053857634e487b7160e01b600052603260045260246000fd5b61054e92602060409092020190810191506146c5565b6001600160a01b0316815260208101919091526040016000205460ff166105a75760405162461bcd60e51b815260206004820152600d60248201526c34b73b30b634b2103a37b5b2b760991b60448201526064016104e5565b6000858152600360205260408120600401818686858181106105d957634e487b7160e01b600052603260045260246000fd5b6105ef92602060409092020190810191506146c5565b6001600160a01b03168152602081019190915260400160002054905080156106ed5784848381811061063157634e487b7160e01b600052603260045260246000fd5b9050604002016020013560056000888152602001908152602001600020600087878681811061067057634e487b7160e01b600052603260045260246000fd5b61068692602060409092020190810191506146c5565b6001600160a01b03166001600160a01b03168152602001908152602001600020546106b19190615357565b81116106ed5760405162461bcd60e51b815260206004820152600b60248201526a617420636170616369747960a81b60448201526064016104e5565b84848381811061070d57634e487b7160e01b600052603260045260246000fd5b9050604002016020013560056000888152602001908152602001600020600087878681811061074c57634e487b7160e01b600052603260045260246000fd5b61076292602060409092020190810191506146c5565b6001600160a01b03166001600160a01b0316815260200190815260200160002060008282546107919190615357565b9091555085905084838181106107b757634e487b7160e01b600052603260045260246000fd5b90506040020160200135600460008787868181106107e557634e487b7160e01b600052603260045260246000fd5b6107fb92602060409092020190810191506146c5565b6001600160a01b03166001600160a01b03168152602001908152602001600020600082825461082a9190615357565b90915550600090505b836040015151811015610a3b578360400151818151811061086457634e487b7160e01b600052603260045260246000fd5b6020026020010151602001516001600160a01b031686868581811061089957634e487b7160e01b600052603260045260246000fd5b6108af92602060409092020190810191506146c5565b6001600160a01b03161415610a295760008460200151856040015183815181106108e957634e487b7160e01b600052603260045260246000fd5b6020026020010151600001518151811061091357634e487b7160e01b600052603260045260246000fd5b6020026020010151905061098f87878681811061094057634e487b7160e01b600052603260045260246000fd5b905060400201602001358660400151848151811061096e57634e487b7160e01b600052603260045260246000fd5b60200260200101516040015163ffffffff16620186a063ffffffff16613bc5565b81516001600160a01b031660009081526006602090815260408083208286015163ffffffff1684529091528120908989888181106109dd57634e487b7160e01b600052603260045260246000fd5b6109f392602060409092020190810191506146c5565b6001600160a01b03166001600160a01b031681526020019081526020016000206000828254610a229190615316565b9091555050505b80610a33816154a3565b915050610833565b50508080610a48906154a3565b9150506104fe565b5050505050565b60606000826001600160401b03811115610a8157634e487b7160e01b600052604160045260246000fd5b604051908082528060200260200182016040528015610aba57816020015b610aa7614348565b815260200190600190039081610a9f5790505b50905060005b83811015610b3557610af7858583818110610aeb57634e487b7160e01b600052603260045260246000fd5b90506020020135612de8565b828281518110610b1757634e487b7160e01b600052603260045260246000fd5b60200260200101819052508080610b2d906154a3565b915050610ac0565b509392505050565b3360009081526001602052604090205460ff16610b6c5760405162461bcd60e51b81526004016104e590615252565b84610bb05760405162461bcd60e51b8152602060048201526014602482015273696e746567726174696f6e73206d697373696e6760601b60448201526064016104e5565b82610bee5760405162461bcd60e51b815260206004820152600e60248201526d746f6b656e73206d697373696e6760901b60448201526064016104e5565b86610c2e5760405162461bcd60e51b815260206004820152601060248201526f6d75737420686176652061206e616d6560801b60448201526064016104e5565b828114610c705760405162461bcd60e51b815260206004820152601060248201526f6361707320617265206d697373696e6760801b60448201526064016104e5565b60088054906000610c80836154a3565b919050555060006008549050610db4818a8a8080601f016020809104026020016040519081016040528093929190818152602001838380828437600081840152601f19601f820116905080830192505050505050508989808060200260200160405190810160405280939291908181526020016000905b82821015610d2357610d1460408302860136819003810190614a3d565b81526020019060010190610cf7565b50505050508888808060200260200160405190810160405280939291908181526020016000905b82821015610d7657610d6760608302860136819003810190614a9a565b81526020019060010190610d4a565b5050505050878780806020026020016040519081016040528093929190818152602001838360200280828437600092019190915250613be492505050565b807f4e61f7bf6a133a1b5c26fdae178f0d6316fa1214e5d7f1153e67c688dc64eef0888888888e8e604051610dee96959493929190614f06565b60405180910390a2505050505050505050565b600080546040516337c61fc560e11b8152620100009091046001600160a01b031691636f8c3f8a91610e3691906004016150b3565b60206040518083038186803b158015610e4e57600080fd5b505afa158015610e62573d6000803e3d6000fd5b505050506040513d601f19601f82011682018060405250810190610e8691906146e8565b6001600160a01b031663f3ae2415336040518263ffffffff1660e01b8152600401610eb19190614ef2565b60206040518083038186803b158015610ec957600080fd5b505afa158015610edd573d6000803e3d6000fd5b505050506040513d601f19601f82011682018060405250810190610f019190614935565b610f1d5760405162461bcd60e51b81526004016104e5906151af565b6000610f2884612de8565b905060001960005b826020015151811015610f9f5760006001600160a01b031683602001518281518110610f6c57634e487b7160e01b600052603260045260246000fd5b6020026020010151600001516001600160a01b03161415610f8f57809150610f9f565b610f98816154a3565b9050610f30565b50600019811315610ffc576000858152600360205260409020600101805485919083908110610fde57634e487b7160e01b600052603260045260246000fd5b906000526020600020018181610ff491906154ea565b905050611033565b600085815260036020908152604082206001908101805491820181558352912085910161102982826154ea565b5050506020810151515b60001960005b8360400151518110156110a85760006001600160a01b03168460400151828151811061107557634e487b7160e01b600052603260045260246000fd5b6020026020010151602001516001600160a01b03161415611098578091506110a8565b6110a1816154a3565b9050611039565b5060001981131561116c576040518060600160405280838152602001856001600160a01b03168152602001600063ffffffff1681525060036000888152602001908152602001600020600201828154811061111357634e487b7160e01b600052603260045260246000fd5b60009182526020918290208351600290920201908155908201516001909101805460409093015163ffffffff16600160a01b026001600160c01b03199093166001600160a01b03909216919091179190911790556111f1565b600086815260036020908152604080832081516060810183528681526001600160a01b03808a168286019081529382018681526002938401805460018181018355918952969097209251959093029091019384559151929093018054935163ffffffff16600160a01b026001600160c01b031990941692909116919091179190911790555b7ff8fbc92087a4e86059181dcf1b783a6082cc38532cd41b8b5fcae727a4d2f70e868686604051611224939291906152b9565b60405180910390a1505050505050565b600080546040516337c61fc560e11b8152620100009091046001600160a01b031691636f8c3f8a9161126991906004016150b3565b60206040518083038186803b15801561128157600080fd5b505afa158015611295573d6000803e3d6000fd5b505050506040513d601f19601f820116820180604052508101906112b991906146e8565b6001600160a01b031663f3ae2415336040518263ffffffff1660e01b81526004016112e49190614ef2565b60206040518083038186803b1580156112fc57600080fd5b505afa158015611310573d6000803e3d6000fd5b505050506040513d601f19601f820116820180604052508101906113349190614935565b6113505760405162461bcd60e51b81526004016104e5906151af565b6000868152600360205260409020600201805463ffffffff841691908790811061138a57634e487b7160e01b600052603260045260246000fd5b6000918252602090912060029091020160010154600160a01b900463ffffffff1610156113ea5760405162461bcd60e51b815260206004820152600e60248201526d1a5b9d985b1a5908185b5bdd5b9d60921b60448201526064016104e5565b600086815260036020526040902060020180548391908790811061141e57634e487b7160e01b600052603260045260246000fd5b906000526020600020906002020160010160148282829054906101000a900463ffffffff1661144d919061542c565b92506101000a81548163ffffffff021916908363ffffffff160217905550816003600088815260200190815260200160002060020185815481106114a157634e487b7160e01b600052603260045260246000fd5b906000526020600020906002020160010160148282829054906101000a900463ffffffff166114d0919061536f565b92506101000a81548163ffffffff021916908363ffffffff160217905550801561183a5760006114ff87612de8565b905060006005600089815260200190815260200160002060008360400151898151811061153c57634e487b7160e01b600052603260045260246000fd5b6020026020010151602001516001600160a01b03166001600160a01b031681526020019081526020016000205490508460066000846020015185604001518b8151811061159957634e487b7160e01b600052603260045260246000fd5b602002602001015160000151815181106115c357634e487b7160e01b600052603260045260246000fd5b6020026020010151600001516001600160a01b03166001600160a01b031681526020019081526020016000206000846020015185604001518b8151811061161a57634e487b7160e01b600052603260045260246000fd5b6020026020010151600001518151811061164457634e487b7160e01b600052603260045260246000fd5b60200260200101516020015163ffffffff1663ffffffff168152602001908152602001600020600084604001518a8151811061169057634e487b7160e01b600052603260045260246000fd5b6020026020010151602001516001600160a01b03166001600160a01b0316815260200190815260200160002060008282546116cb91906153d6565b925050819055508460066000846020015185604001518a8151811061170057634e487b7160e01b600052603260045260246000fd5b6020026020010151600001518151811061172a57634e487b7160e01b600052603260045260246000fd5b6020026020010151600001516001600160a01b03166001600160a01b031681526020019081526020016000206000846020015185604001518a8151811061178157634e487b7160e01b600052603260045260246000fd5b602002602001015160000151815181106117ab57634e487b7160e01b600052603260045260246000fd5b60200260200101516020015163ffffffff1663ffffffff1681526020019081526020016000206000846040015189815181106117f757634e487b7160e01b600052603260045260246000fd5b6020026020010151602001516001600160a01b03166001600160a01b0316815260200190815260200160002060008282546118329190615316565b909155505050505b604080518781526020810187905290810185905263ffffffff8316606082015281151560808201527f267e393d3a83262400cccd2af547b7d115a8c7b6f0ace9331f15e308d552c7be9060a001611224565b3360009081526001602052604090205460ff166118bb5760405162461bcd60e51b81526004016104e590615252565b60005b8181101561193d57600760008484848181106118ea57634e487b7160e01b600052603260045260246000fd5b90506020020160208101906118ff91906146c5565b6001600160a01b03166001600160a01b03168152602001908152602001600020600061192b9190614369565b80611935816154a3565b9150506118be565b505050565b600054610100900460ff1661195d5760005460ff1615611961565b303b155b61197d5760405162461bcd60e51b81526004016104e590615112565b600054610100900460ff1615801561199f576000805461ffff19166101011790555b6119a983836123c2565b801561193d576000805461ff0019169055505050565b3360009081526001602052604090205460ff166119ee5760405162461bcd60e51b81526004016104e590615252565b60008381526003602052604081208054611a0790615468565b905011611a4c5760405162461bcd60e51b81526020600482015260136024820152721cdd1c985d1959de481b5d5cdd08195e1a5cdd606a1b60448201526064016104e5565b80611a885760405162461bcd60e51b815260206004820152600c60248201526b696e76616c6964206e616d6560a01b60448201526064016104e5565b6000838152600360205260409020611aa190838361438d565b50827fac2072268d18e10aecad35c0c04acd66330b2571a8ff403e3c702d77d3bab1348383604051611ad49291906150db565b60405180910390a2505050565b3360009081526001602052604090205460ff16611b105760405162461bcd60e51b81526004016104e590615252565b6001600160a01b038216600090815260076020908152604080832080548251818502810185019093528083529192909190849084015b82821015611ba3576000848152602090819020604080516060810182526002860290920180546001600160a01b0381168452600160a01b900463ffffffff1683850152600190810154918301919091529083529092019101611b46565b5050505090506000808060029054906101000a90046001600160a01b03166001600160a01b0316636f8c3f8a60006040518263ffffffff1660e01b8152600401611bed91906150b3565b60206040518083038186803b158015611c0557600080fd5b505afa158015611c19573d6000803e3d6000fd5b505050506040513d601f19601f82011682018060405250810190611c3d91906146e8565b835190915015610a5057600060018451611c579190615415565b90505b6040516370a0823160e01b81526000906001600160a01b038816906370a0823190611c89908690600401614ef2565b60206040518083038186803b158015611ca157600080fd5b505afa158015611cb5573d6000803e3d6000fd5b505050506040513d601f19601f82011682018060405250810190611cd99190614b19565b9050848281518110611cfb57634e487b7160e01b600052603260045260246000fd5b60200260200101516020015163ffffffff1660001415611de457848281518110611d3557634e487b7160e01b600052603260045260246000fd5b6020026020010151600001516001600160a01b031663f3fef3a388878581518110611d7057634e487b7160e01b600052603260045260246000fd5b6020026020010151604001516040518363ffffffff1660e01b8152600401611dad9291906001600160a01b03929092168252602082015260400190565b600060405180830381600087803b158015611dc757600080fd5b505af1158015611ddb573d6000803e3d6000fd5b50505050611ee6565b848281518110611e0457634e487b7160e01b600052603260045260246000fd5b6020026020010151600001516001600160a01b0316637db2ddfe88878581518110611e3f57634e487b7160e01b600052603260045260246000fd5b602002602001015160400151888681518110611e6b57634e487b7160e01b600052603260045260246000fd5b60209081029190910181015101516040516001600160e01b031960e086901b1681526001600160a01b039093166004840152602483019190915263ffffffff166044820152606401600060405180830381600087803b158015611ecd57600080fd5b505af1158015611ee1573d6000803e3d6000fd5b505050505b600081886001600160a01b03166370a08231866040518263ffffffff1660e01b8152600401611f159190614ef2565b60206040518083038186803b158015611f2d57600080fd5b505afa158015611f41573d6000803e3d6000fd5b505050506040513d601f19601f82011682018060405250810190611f659190614b19565b611f6f9190615415565b6001600160a01b038916600090815260076020526040902080549192509080611fa857634e487b7160e01b600052603160045260246000fd5b60008281526020812060026000199093019283020180546001600160c01b0319168155600101559055855161206190879085908110611ff757634e487b7160e01b600052603260045260246000fd5b60200260200101516000015187858151811061202357634e487b7160e01b600052603260045260246000fd5b6020026020010151602001518a89878151811061205057634e487b7160e01b600052603260045260246000fd5b6020026020010151604001516135a4565b61206b8186615357565b945086851061207b575050612090565b5050808061208890615451565b915050611c5a565b505050505050565b3360009081526001602052604090205460ff166120c75760405162461bcd60e51b81526004016104e590615252565b60006120d282612de8565b905060005b816040015151811015612207576005600084815260200190815260200160002060008360400151838151811061211d57634e487b7160e01b600052603260045260246000fd5b6020026020010151602001516001600160a01b03166001600160a01b031681526020019081526020016000205460001461218b5760405162461bcd60e51b815260206004820152600f60248201526e737472617465677920696e2075736560881b60448201526064016104e5565b600360008481526020019081526020016000206003016000836040015183815181106121c757634e487b7160e01b600052603260045260246000fd5b6020908102919091018101518101516001600160a01b03168252810191909152604001600020805460ff19169055806121ff816154a3565b9150506120d7565b506000828152600360205260408120906122218282614411565b61222f60018301600061444b565b61223d600283016000614469565b505060405182907f79097c9b1a7ba453a3ecc60124deebb47c637495f9912752840842a8ae28905690600090a25050565b600080546040516337c61fc560e11b8152620100009091046001600160a01b031691636f8c3f8a916122a391906004016150b3565b60206040518083038186803b1580156122bb57600080fd5b505afa1580156122cf573d6000803e3d6000fd5b505050506040513d601f19601f820116820180604052508101906122f391906146e8565b6001600160a01b031663f3ae2415336040518263ffffffff1660e01b815260040161231e9190614ef2565b60206040518083038186803b15801561233657600080fd5b505afa15801561234a573d6000803e3d6000fd5b505050506040513d601f19601f8201168201806040525081019061236e9190614935565b61238a5760405162461bcd60e51b81526004016104e5906151af565b60009283526003602081815260408086206001600160a01b039590951686529390910190529120805460ff1916911515919091179055565b600054610100900460ff166123dd5760005460ff16156123e1565b303b155b6123fd5760405162461bcd60e51b81526004016104e590615112565b600054610100900460ff1615801561241f576000805461ffff19166101011790555b6001600160a01b0382166124455760405162461bcd60e51b81526004016104e590615160565b60005b83518110156124bd5760006001600160a01b031684828151811061247c57634e487b7160e01b600052603260045260246000fd5b60200260200101516001600160a01b031614156124ab5760405162461bcd60e51b81526004016104e590615160565b806124b5816154a3565b915050612448565b5060005b83518110156125335760018060008684815181106124ef57634e487b7160e01b600052603260045260246000fd5b6020908102919091018101516001600160a01b03168252810191909152604001600020805460ff19169115159190911790558061252b816154a3565b9150506124c1565b50825161254790600290602086019061448a565b506119a9826142b4565b60408051606081018252600080825260208083018290528284018290526001600160a01b038616825260079052919091208054839081106125a257634e487b7160e01b600052603260045260246000fd5b60009182526020918290206040805160608101825260029390930290910180546001600160a01b0381168452600160a01b900463ffffffff1693830193909352600190920154918101919091529392505050565b600080546040516337c61fc560e11b8152620100009091046001600160a01b031691636f8c3f8a9161262b91906004016150b3565b60206040518083038186803b15801561264357600080fd5b505afa158015612657573d6000803e3d6000fd5b505050506040513d601f19601f8201168201806040525081019061267b91906146e8565b6001600160a01b0316632f54bf6e336040518263ffffffff1660e01b81526004016126a69190614ef2565b60206040518083038186803b1580156126be57600080fd5b505afa1580156126d2573d6000803e3d6000fd5b505050506040513d601f19601f820116820180604052508101906126f69190614935565b6127555760405162461bcd60e51b815260206004820152602a60248201527f436f6e74726f6c6c65643a3a6f6e6c794f776e65723a2043616c6c6572206973604482015269103737ba1037bbb732b960b11b60648201526084016104e5565b6001600160a01b03811660009081526001602081905260408220805460ff19169091179055805b6002548110156127dd57600281815481106127a757634e487b7160e01b600052603260045260246000fd5b6000918252602090912001546001600160a01b03848116911614156127cb57600191505b806127d5816154a3565b91505061277c565b508061282f57600280546001810182556000919091527f405787fa12a823e0f2b7631cc41b3ba8828b3321ca811111fa75cd3aa3bb5ace0180546001600160a01b0319166001600160a01b0384161790555b5050565b600080546040516337c61fc560e11b8152620100009091046001600160a01b031691636f8c3f8a9161286891906004016150b3565b60206040518083038186803b15801561288057600080fd5b505afa158015612894573d6000803e3d6000fd5b505050506040513d601f19601f820116820180604052508101906128b891906146e8565b6001600160a01b031663f3ae2415336040518263ffffffff1660e01b81526004016128e39190614ef2565b60206040518083038186803b1580156128fb57600080fd5b505afa15801561290f573d6000803e3d6000fd5b505050506040513d601f19601f820116820180604052508101906129339190614935565b61294f5760405162461bcd60e51b81526004016104e5906151af565b6008548311156129905760405162461bcd60e51b815260206004820152600c60248201526b42616420737472617465677960a01b60448201526064016104e5565b600061299b84612de8565b90508060200151518311156129c25760405162461bcd60e51b81526004016104e5906151fd565b600160005b826040015151811015612b7f5784836040015182815181106129f957634e487b7160e01b600052603260045260246000fd5b6020026020010151600001511415612b6f57836001600160a01b031683604001518281518110612a3957634e487b7160e01b600052603260045260246000fd5b6020026020010151602001516001600160a01b03161415612b6a5782604001518181518110612a7857634e487b7160e01b600052603260045260246000fd5b60200260200101516040015163ffffffff16600014612ac65760405162461bcd60e51b815260206004820152600a6024820152690776569676874203e20360b41b60448201526064016104e5565b60408051606081018252600080825260208083018290528284018290528982526003905291909120600201805483908110612b1157634e487b7160e01b600052603260045260246000fd5b60009182526020918290208351600290920201908155908201516001909101805460409093015163ffffffff16600160a01b026001600160c01b03199093166001600160a01b0390921691909117919091179055612b6f565b600091505b612b78816154a3565b90506129c7565b508015612c0b57604080518082018252600080825260208083018290528882526003905291909120600101805486908110612bca57634e487b7160e01b600052603260045260246000fd5b6000918252602091829020835191018054939092015163ffffffff16600160a01b026001600160c01b03199093166001600160a01b03909116179190911790555b60408051868152602081018690526001600160a01b0385168183015290517f0b0f8b860fd87e193c7e0c4262d6dd2e9279461c3a992ff9b4a435cd6c53bf919181900360600190a15050505050565b600080546040516337c61fc560e11b8152620100009091046001600160a01b031691636f8c3f8a91612c8f91906004016150b3565b60206040518083038186803b158015612ca757600080fd5b505afa158015612cbb573d6000803e3d6000fd5b505050506040513d601f19601f82011682018060405250810190612cdf91906146e8565b6001600160a01b031663f3ae2415336040518263ffffffff1660e01b8152600401612d0a9190614ef2565b60206040518083038186803b158015612d2257600080fd5b505afa158015612d36573d6000803e3d6000fd5b505050506040513d601f19601f82011682018060405250810190612d5a9190614935565b612d765760405162461bcd60e51b81526004016104e5906151af565b6001600160a01b038216612d9c5760405162461bcd60e51b81526004016104e5906150ef565b600854831115612dbe5760405162461bcd60e51b81526004016104e590615185565b60009283526003602090815260408085206001600160a01b03909416855260049093019052912055565b612df0614348565b612df8614348565b60008381526003602052604090208054612e1190615468565b80601f0160208091040260200160405190810160405280929190818152602001828054612e3d90615468565b8015612e8a5780601f10612e5f57610100808354040283529160200191612e8a565b820191906000526020600020905b815481529060010190602001808311612e6d57829003601f168201915b5050509183525050600083815260036020908152604080832060010180548251818502810185019093528083529193909284015b82821015612f0a57600084815260209081902060408051808201909152908401546001600160a01b0381168252600160a01b900463ffffffff1681830152825260019092019101612ebe565b5050505060208083019190915260008481526003825260408082206002018054825181860281018601909352808352919390929084015b82821015612f9e5760008481526020908190206040805160608101825260028602909201805483526001908101546001600160a01b03811684860152600160a01b900463ffffffff16918301919091529083529092019101612f41565b50505050604082015292915050565b3360009081526001602052604090205460ff16612fdc5760405162461bcd60e51b81526004016104e590615252565b6000612fe784612de8565b905060008160400151511161300e5760405162461bcd60e51b81526004016104e590615185565b60005b82811015610a505783838281811061303957634e487b7160e01b600052603260045260246000fd5b9050604002016020013560056000878152602001908152602001600020600086868581811061307857634e487b7160e01b600052603260045260246000fd5b61308e92602060409092020190810191506146c5565b6001600160a01b03166001600160a01b031681526020019081526020016000205410156130cd5760405162461bcd60e51b81526004016104e590615226565b8383828181106130ed57634e487b7160e01b600052603260045260246000fd5b905060400201602001356004600086868581811061311b57634e487b7160e01b600052603260045260246000fd5b61313192602060409092020190810191506146c5565b6001600160a01b03166001600160a01b031681526020019081526020016000205410156131705760405162461bcd60e51b81526004016104e590615226565b83838281811061319057634e487b7160e01b600052603260045260246000fd5b905060400201602001356005600087815260200190815260200160002060008686858181106131cf57634e487b7160e01b600052603260045260246000fd5b6131e592602060409092020190810191506146c5565b6001600160a01b03166001600160a01b0316815260200190815260200160002060008282546132149190615415565b90915550849050838281811061323a57634e487b7160e01b600052603260045260246000fd5b905060400201602001356004600086868581811061326857634e487b7160e01b600052603260045260246000fd5b61327e92602060409092020190810191506146c5565b6001600160a01b03166001600160a01b0316815260200190815260200160002060008282546132ad9190615415565b90915550600090505b82604001515181101561356757826040015181815181106132e757634e487b7160e01b600052603260045260246000fd5b6020026020010151602001516001600160a01b031685858481811061331c57634e487b7160e01b600052603260045260246000fd5b61333292602060409092020190810191506146c5565b6001600160a01b0316141561355557600083602001518460400151838151811061336c57634e487b7160e01b600052603260045260246000fd5b6020026020010151600001518151811061339657634e487b7160e01b600052603260045260246000fd5b6020026020010151905060006133f38787868181106133c557634e487b7160e01b600052603260045260246000fd5b905060400201602001358660400151858151811061096e57634e487b7160e01b600052603260045260246000fd5b82516001600160a01b031660009081526006602090815260408083208287015163ffffffff168452909152812091925082919089898881811061344657634e487b7160e01b600052603260045260246000fd5b61345c92602060409092020190810191506146c5565b6001600160a01b03166001600160a01b03168152602001908152602001600020600082825461348b91906153d6565b909155506007905060008888878181106134b557634e487b7160e01b600052603260045260246000fd5b6134cb92602060409092020190810191506146c5565b6001600160a01b0390811682526020808301939093526040918201600090812083516060810185528751841681529685015163ffffffff908116888701908152948801968752815460018181018455928452959092209651600290950290960180549351909116600160a01b026001600160c01b0319909316939091169290921717815590519101555b8061355f816154a3565b9150506132b6565b5080613572816154a3565b915050613011565b6002818154811061358a57600080fd5b6000918252602090912001546001600160a01b0316905081565b6001600160a01b03808516600090815260066020908152604080832063ffffffff881684528252808320938616835292905290812054908112613631576001600160a01b03808616600090815260066020908152604080832063ffffffff891684528252808320938716835292905290812080548492906136269084906153d6565b90915550610a509050565b6001600160a01b03808616600090815260066020908152604080832063ffffffff89168452825280832093871683529290529081208054849290613676908490615316565b90915550505050505050565b606080846001600160401b038111156136ab57634e487b7160e01b600052604160045260246000fd5b6040519080825280602002602001820160405280156136f157816020015b6040805180820190915260008152606060208201528152602001906001900390816136c95790505b509150826001600160401b0381111561371a57634e487b7160e01b600052604160045260246000fd5b60405190808252806020026020018201604052801561375357816020015b6137406144df565b8152602001906001900390816137385790505b50905060005b838110156138685784848281811061378157634e487b7160e01b600052603260045260246000fd5b905060200201602081019061379691906146c5565b8282815181106137b657634e487b7160e01b600052603260045260246000fd5b60209081029190910101516001600160a01b039091169052600460008686848181106137f257634e487b7160e01b600052603260045260246000fd5b905060200201602081019061380791906146c5565b6001600160a01b03166001600160a01b031681526020019081526020016000205482828151811061384857634e487b7160e01b600052603260045260246000fd5b602090810291909101810151015280613860816154a3565b915050613759565b5060005b85811015613bbb5760006003600089898581811061389a57634e487b7160e01b600052603260045260246000fd5b905060200201358152602001908152602001600020600201805480602002602001604051908101604052809291908181526020016000905b8282101561392f5760008481526020908190206040805160608101825260028602909201805483526001908101546001600160a01b03811684860152600160a01b900463ffffffff169183019190915290835290920191016138d2565b50505050905080516001600160401b0381111561395c57634e487b7160e01b600052604160045260246000fd5b60405190808252806020026020018201604052801561399557816020015b6139826144df565b81526020019060019003908161397a5790505b508483815181106139b657634e487b7160e01b600052603260045260246000fd5b6020026020010151602001819052508787838181106139e557634e487b7160e01b600052603260045260246000fd5b90506020020135848381518110613a0c57634e487b7160e01b600052603260045260246000fd5b60209081029190910101515260005b8151811015613ba657818181518110613a4457634e487b7160e01b600052603260045260246000fd5b602002602001015160200151858481518110613a7057634e487b7160e01b600052603260045260246000fd5b6020026020010151602001518281518110613a9b57634e487b7160e01b600052603260045260246000fd5b60209081029190910101516001600160a01b039091169052600560008a8a86818110613ad757634e487b7160e01b600052603260045260246000fd5b9050602002013581526020019081526020016000206000838381518110613b0e57634e487b7160e01b600052603260045260246000fd5b6020026020010151602001516001600160a01b03166001600160a01b0316815260200190815260200160002054858481518110613b5b57634e487b7160e01b600052603260045260246000fd5b6020026020010151602001518281518110613b8657634e487b7160e01b600052603260045260246000fd5b602090810291909101810151015280613b9e816154a3565b915050613a1b565b50508080613bb3906154a3565b91505061386c565b5094509492505050565b600081613bd284866153b7565b613bdc9190615397565b949350505050565b60005b8351811015613c605760006001600160a01b0316848281518110613c1b57634e487b7160e01b600052603260045260246000fd5b6020026020010151600001516001600160a01b03161415613c4e5760405162461bcd60e51b81526004016104e5906151fd565b80613c58816154a3565b915050613be7565b50600082516001600160401b03811115613c8a57634e487b7160e01b600052604160045260246000fd5b604051908082528060200260200182016040528015613cb3578160200160208202803683370190505b5090506000805b8451811015613fa2578551858281518110613ce557634e487b7160e01b600052603260045260246000fd5b60200260200101516000015110613d3e5760405162461bcd60e51b815260206004820152601d60248201527f696e746567726174696f6e20696478206f7574206f6620626f756e647300000060448201526064016104e5565b60006001600160a01b0316858281518110613d6957634e487b7160e01b600052603260045260246000fd5b6020026020010151602001516001600160a01b03161415613d9c5760405162461bcd60e51b81526004016104e5906150ef565b60096000868381518110613dc057634e487b7160e01b600052603260045260246000fd5b6020026020010151602001516001600160a01b03166001600160a01b031681526020019081526020016000205460001415613e6757848181518110613e1557634e487b7160e01b600052603260045260246000fd5b602002602001015160200151838381518110613e4157634e487b7160e01b600052603260045260246000fd5b6001600160a01b039092166020928302919091019091015281613e63816154a3565b9250505b848181518110613e8757634e487b7160e01b600052603260045260246000fd5b60200260200101516040015163ffffffff1660096000878481518110613ebd57634e487b7160e01b600052603260045260246000fd5b6020026020010151602001516001600160a01b03166001600160a01b031681526020019081526020016000206000828254613ef89190615357565b92505081905550838181518110613f1f57634e487b7160e01b600052603260045260246000fd5b6020026020010151600360008a81526020019081526020016000206004016000878481518110613f5f57634e487b7160e01b600052603260045260246000fd5b6020026020010151602001516001600160a01b03166001600160a01b03168152602001908152602001600020819055508080613f9a906154a3565b915050613cba565b5060005b8181101561412557620186a063ffffffff1660096000858481518110613fdc57634e487b7160e01b600052603260045260246000fd5b60200260200101516001600160a01b03166001600160a01b0316815260200190815260200160002054146140495760405162461bcd60e51b81526020600482015260146024820152731a5b9d985b1a59081d1bdad95b881dd95a59da1d60621b60448201526064016104e5565b6001600360008a8152602001908152602001600020600301600085848151811061408357634e487b7160e01b600052603260045260246000fd5b60200260200101516001600160a01b03166001600160a01b0316815260200190815260200160002060006101000a81548160ff021916908315150217905550600960008483815181106140e657634e487b7160e01b600052603260045260246000fd5b60200260200101516001600160a01b03166001600160a01b0316815260200190815260200160002060009055808061411d906154a3565b915050613fa6565b5060008781526003602090815260409091208751614145928901906144f6565b5060005b85518110156141ef576003600089815260200190815260200160002060010186828151811061418857634e487b7160e01b600052603260045260246000fd5b6020908102919091018101518254600181018455600093845292829020815193018054919092015163ffffffff16600160a01b026001600160c01b03199091166001600160a01b0390931692909217919091179055806141e7816154a3565b915050614149565b5060005b84518110156142aa576003600089815260200190815260200160002060020185828151811061423257634e487b7160e01b600052603260045260246000fd5b60209081029190910181015182546001818101855560009485529383902082516002909202019081559181015191909201805460409093015163ffffffff16600160a01b026001600160c01b03199093166001600160a01b0390921691909117919091179055806142a2816154a3565b9150506141f3565b5050505050505050565b600054610100900460ff166142cf5760005460ff16156142d3565b303b155b6142ef5760405162461bcd60e51b81526004016104e590615112565b600054610100900460ff16158015614311576000805461ffff19166101011790555b6000805462010000600160b01b031916620100006001600160a01b03851602179055801561282f576000805461ff00191690555050565b60405180606001604052806060815260200160608152602001606081525090565b508054600082556002029060005260206000209081019061438a919061456a565b50565b82805461439990615468565b90600052602060002090601f0160209004810192826143bb5760008555614401565b82601f106143d45782800160ff19823516178555614401565b82800160010185558215614401579182015b828111156144015782358255916020019190600101906143e6565b5061440d929150614590565b5090565b50805461441d90615468565b6000825580601f1061442d575050565b601f01602090049060005260206000209081019061438a9190614590565b508054600082559060005260206000209081019061438a91906145a5565b508054600082556002029060005260206000209081019061438a91906145c4565b828054828255906000526020600020908101928215614401579160200282015b8281111561440157825182546001600160a01b0319166001600160a01b039091161782556020909201916001909101906144aa565b604080518082019091526000808252602082015290565b82805461450290615468565b90600052602060002090601f0160209004810192826145245760008555614401565b82601f1061453d57805160ff1916838001178555614401565b82800160010185558215614401579182015b8281111561440157825182559160200191906001019061454f565b5b8082111561440d5780546001600160c01b03191681556000600182015560020161456b565b5b8082111561440d5760008155600101614591565b5b8082111561440d5780546001600160c01b03191681556001016145a6565b5b8082111561440d57600081556001810180546001600160c01b03191690556002016145c5565b80356145f681615546565b919050565b60008083601f84011261460c578081fd5b5081356001600160401b03811115614622578182fd5b6020830191508360208260051b850101111561463d57600080fd5b9250929050565b60008083601f840112614655578182fd5b5081356001600160401b0381111561466b578182fd5b6020830191508360208260061b850101111561463d57600080fd5b60008083601f840112614697578182fd5b5081356001600160401b038111156146ad578182fd5b60208301915083602082850101111561463d57600080fd5b6000602082840312156146d6578081fd5b81356146e181615546565b9392505050565b6000602082840312156146f9578081fd5b81516146e181615546565b60008060408385031215614716578081fd5b823561472181615546565b946020939093013593505050565b600080600060608486031215614743578081fd5b833561474e81615546565b9250602084013561475e81615569565b9150604084013561476e81615546565b809150509250925092565b6000806000806080858703121561478e578081fd5b843561479981615546565b935060208501356147a981615569565b925060408501356147b981615546565b9396929550929360600135925050565b600080602083850312156147db578182fd5b82356001600160401b038111156147f0578283fd5b6147fc858286016145fb565b90969095509350505050565b6000806040838503121561481a578182fd5b82356001600160401b0380821115614830578384fd5b818501915085601f830112614843578384fd5b8135602082821115614857576148576154d4565b8160051b92506148688184016152e6565b8281528181019085830185870184018b1015614882578889fd5b8896505b848710156148b0578035955061489b86615546565b85835260019690960195918301918301614886565b5096506148c090508782016145eb565b9450505050509250929050565b600080600080604085870312156148e2578182fd5b84356001600160401b03808211156148f8578384fd5b614904888389016145fb565b9096509450602087013591508082111561491c578384fd5b50614929878288016145fb565b95989497509550505050565b600060208284031215614946578081fd5b81516146e18161555b565b6000806000806000806000806080898b03121561496c578586fd5b88356001600160401b0380821115614982578788fd5b61498e8c838d01614686565b909a50985060208b01359150808211156149a6578788fd5b6149b28c838d01614644565b909850965060408b01359150808211156149ca578586fd5b818b0191508b601f8301126149dd578586fd5b8135818111156149eb578687fd5b8c60206060830285010111156149ff578687fd5b6020830196508095505060608b0135915080821115614a1c578384fd5b50614a298b828c016145fb565b999c989b5096995094979396929594505050565b600060408284031215614a4e578081fd5b604080519081016001600160401b0381118282101715614a7057614a706154d4565b6040528235614a7e81615546565b81526020830135614a8e81615569565b60208201529392505050565b600060608284031215614aab578081fd5b604051606081016001600160401b0381118282101715614acd57614acd6154d4565b604052823581526020830135614ae281615546565b60208201526040830135614af581615569565b60408201529392505050565b600060208284031215614b12578081fd5b5035919050565b600060208284031215614b2a578081fd5b5051919050565b60008060408385031215614b43578182fd5b823591506020830135614b5581615546565b809150509250929050565b600080600060608486031215614b74578081fd5b833592506020840135614b8681615546565b9150604084013561476e8161555b565b600080600060608486031215614baa578081fd5b833592506020840135614bbc81615546565b929592945050506040919091013590565b600080600060408486031215614be1578081fd5b8335925060208401356001600160401b03811115614bfd578182fd5b614c0986828701614644565b9497909650939450505050565b600080600060408486031215614c2a578081fd5b8335925060208401356001600160401b03811115614c46578182fd5b614c0986828701614686565b60008060008385036080811215614c67578182fd5b843593506040601f1982011215614c7c578182fd5b50602084019150606084013561476e81615546565b600080600060608486031215614ca5578081fd5b8335925060208401359150604084013561476e81615546565b60008060008060008060c08789031215614cd6578384fd5b863595506020870135945060408701359350606087013592506080870135614cfd81615569565b915060a0870135614d0d8161555b565b809150509295509295509295565b6000815180845260208085019450808401835b83811015614d5e57815180516001600160a01b031688528301518388015260409096019590820190600101614d2e565b509495945050505050565b6000815180845260208085019450808401835b83811015614d5e57815180516001600160a01b0316885283015163ffffffff168388015260409096019590820190600101614d7c565b6000815180845260208085019450808401835b83811015614d5e57815180518852838101516001600160a01b03168489015260409081015163ffffffff169088015260609096019590820190600101614dc5565b81835281816020850137506000828201602090810191909152601f909101601f19169091010190565b8035614e3a81615546565b6001600160a01b031682526020810135614e5381615569565b63ffffffff81166020840152505050565b60008151606084528051806060860152825b81811015614e935760208184018101516080888401015201614e76565b81811115614ea45783608083880101525b50601f19601f820116850191505060208301516080858303016020860152614ecf6080830182614d69565b91505060408301518482036040860152614ee98282614db2565b95945050505050565b6001600160a01b0391909116815260200190565b60608082528181018790526000908860808401835b8a811015614f4057614f2d8284614e2f565b6040928301929190910190600101614f1b565b50848103602086810191909152888252915088908201845b89811015614fa7578235825283830135614f7181615546565b6001600160a01b031682850152604083810135614f8d81615569565b63ffffffff16908301529184019190840190600101614f58565b508581036040870152614fbb81888a614e06565b9c9b505050505050505050505050565b6000604080830181845280865180835260608601915060608160051b87010192506020808901865b8381101561503257888603605f1901855281518051875283015183870188905261501f88880182614d1b565b9650509382019390820190600101614ff3565b5050868403818801525050506150488186614d1b565b9695505050505050565b6000602080830181845280855180835260408601915060408160051b8701019250838701855b828110156150a657603f19888603018452615094858351614e64565b94509285019290850190600101615078565b5092979650505050505050565b60208101600d83106150d557634e487b7160e01b600052602160045260246000fd5b91905290565b602081526000613bdc602083018486614e06565b6020808252600990820152683130b2103a37b5b2b760b91b604082015260600190565b6020808252602e908201527f496e697469616c697a61626c653a20636f6e747261637420697320616c72656160408201526d191e481a5b9a5d1a585b1a5e995960921b606082015260800190565b6020808252600b908201526a626164206164647265737360a81b604082015260600190565b60208082526010908201526f696e76616c696420737472617465677960801b604082015260600190565b6020808252602e908201527f436f6e74726f6c6c65643a3a6f6e6c794d616e616765723a2043616c6c65722060408201526d34b9903737ba1036b0b730b3b2b960911b606082015260800190565b6020808252600f908201526e3130b21034b73a32b3b930ba34b7b760891b604082015260600190565b602080825260129082015271696e73756666696369656e742066756e647360701b604082015260600190565b60208082526034908201527f436f6e74726f6c6c65643a3a6f6e6c79436f6e74726f6c6c65723a2043616c6c60408201527332b91034b9903737ba1031b7b73a3937b63632b960611b606082015260800190565b6020815260006146e16020830184614e64565b838152608081016152cd6020830185614e2f565b6001600160a01b03929092166060919091015292915050565b604051601f8201601f191681016001600160401b038111828210171561530e5761530e6154d4565b604052919050565b600080821280156001600160ff1b0384900385131615615338576153386154be565b600160ff1b8390038412811615615351576153516154be565b50500190565b6000821982111561536a5761536a6154be565b500190565b600063ffffffff80831681851680830382111561538e5761538e6154be565b01949350505050565b6000826153b257634e487b7160e01b81526012600452602481fd5b500490565b60008160001904831182151516156153d1576153d16154be565b500290565b60008083128015600160ff1b8501841216156153f4576153f46154be565b6001600160ff1b038401831381161561540f5761540f6154be565b50500390565b600082821015615427576154276154be565b500390565b600063ffffffff83811690831681811015615449576154496154be565b039392505050565b600081615460576154606154be565b506000190190565b600181811c9082168061547c57607f821691505b6020821081141561549d57634e487b7160e01b600052602260045260246000fd5b50919050565b60006000198214156154b7576154b76154be565b5060010190565b634e487b7160e01b600052601160045260246000fd5b634e487b7160e01b600052604160045260246000fd5b81356154f581615546565b81546001600160a01b031981166001600160a01b03929092169182178355602084013561552181615569565b6001600160c01b03199190911690911760a09190911b63ffffffff60a01b1617905550565b6001600160a01b038116811461438a57600080fd5b801515811461438a57600080fd5b63ffffffff8116811461438a57600080fdfea264697066735822122033de5a7385115916a4b5158a14dda9a96474149df49180c831ac9dddb0741e8264736f6c63430008040033",
  "devdoc": {
    "kind": "dev",
    "methods": {
      "addStrategy(string,(address,uint32)[],(uint256,address,uint32)[],uint256[])": {
        "params": {
          "integrations": "the integrations and weights that form the strategy",
          "maxCap": "The maximum amount investable in a strategy",
          "name": "the name of the new strategy"
        }
      },
      "clearClosablePositions(address[])": {
        "params": {
          "tokens": "The list of tokens to clear"
        }
      },
      "closePositionsForWithdrawal(address,uint256)": {
        "params": {
          "amount": "the amount to source",
          "token": "the token to source"
        }
      },
      "decreaseDeployAmountChange(address,uint32,address,uint256)": {
        "params": {
          "amount": "the amount to reduce the vector by",
          "integration": "the integration that was changed",
          "poolID": "the pool within the integration that handled the tokens",
          "token": "the token to decrease for"
        }
      },
      "decreaseStrategy(uint256,(address,uint256)[])": {
        "params": {
          "id": "the strategy to withdraw assets from",
          "tokens": "details of the tokens being deposited"
        }
      },
      "deleteStrategy(uint256)": {
        "details": "This can only be called successfully if the strategy being deleted doesn't have any assets invested in it.To delete a strategy with funds deployed in it, first update the strategy so that the existing tokens are no longer available in the strategy, then delete the strategy. This will unwind the users positions, and they will be able to withdraw their funds.",
        "params": {
          "id": "the strategy to delete"
        }
      },
      "getDeployAmount(address,uint32,address)": {
        "params": {
          "integration": "the integration to deploy to",
          "poolID": "the pool within the integration that should receive the tokens",
          "token": "the token to be deployed"
        },
        "returns": {
          "_0": "the pending deploy amount"
        }
      },
      "getMaximumCap(uint256,address)": {
        "params": {
          "id": "the strategy id",
          "token": "the token address"
        },
        "returns": {
          "cap": " the maximum cap for the strategy/token pair"
        }
      },
      "getMultipleStrategies(uint256[])": {
        "params": {
          "ids": "The ids of the strategies to return."
        }
      },
      "getStrategy(uint256)": {
        "params": {
          "id": "the strategy to return"
        }
      },
      "getStrategyBalances(uint256[],address[])": {
        "params": {
          "_strategies": "The strategies to retrieve balances for",
          "_tokens": "The tokens to retrieve"
        }
      },
      "getStrategyTokenBalance(uint256,address)": {
        "params": {
          "id": "the strategy id to check",
          "token": "The token to retrieve the balance for"
        },
        "returns": {
          "amount": " the amount of token that is invested in the strategy"
        }
      },
      "getStrategyTokenLength(uint256)": {
        "params": {
          "strategy": "the strategy to look up"
        },
        "returns": {
          "_0": "the length"
        }
      },
      "getTokenTotalBalance(address)": {
        "params": {
          "token": "the token to fetch the balance for"
        },
        "returns": {
          "amount": " the amount of the token currently invested"
        }
      },
      "increaseStrategy(uint256,(address,uint256)[])": {
        "params": {
          "id": "the strategy to deposit into",
          "tokens": "the tokens to deposit"
        }
      },
      "movePairWeight(uint256,uint256,uint256,int256,uint32,bool)": {
        "details": "Changes weights of integrations, optionally rebalancing the integrations so that current fund allocation reflects new weights"
      },
      "setMaximumCap(uint256,address,uint256)": {
        "params": {
          "id": "The strategy id",
          "maxCap": "The maximum amount of funds that can be invested",
          "token": "the token address"
        }
      },
      "updateName(uint256,string)": {
        "params": {
          "name": "the new name"
        }
      }
    },
    "version": 1
  },
  "userdoc": {
    "kind": "user",
    "methods": {
      "addStrategy(string,(address,uint32)[],(uint256,address,uint32)[],uint256[])": {
        "notice": "Adds a new strategy to the list of available strategies"
      },
      "clearClosablePositions(address[])": {
        "notice": "Clears the list of positions that can be closed to supply a token"
      },
      "closePositionsForWithdrawal(address,uint256)": {
        "notice": "Closes enough positions to provide a requested amount of a token"
      },
      "decreaseDeployAmountChange(address,uint32,address,uint256)": {
        "notice": "Decreases the deployable amount after a deployment/withdrawal"
      },
      "decreaseStrategy(uint256,(address,uint256)[])": {
        "notice": "Decreases the amount of a set of tokens invested in a strategy"
      },
      "deleteStrategy(uint256)": {
        "notice": "Deletes a strategy"
      },
      "getDeployAmount(address,uint32,address)": {
        "notice": "Returns the current amount awaiting deployment"
      },
      "getMaximumCap(uint256,address)": {
        "notice": "Retrieves the maximum cap for a strategy/token pair"
      },
      "getMultipleStrategies(uint256[])": {
        "notice": "Returns 1 or more strategies in a single call."
      },
      "getStrategy(uint256)": {
        "notice": "Getter function to return the nested arrays as well as the name"
      },
      "getStrategyBalances(uint256[],address[])": {
        "notice": "Returns balances per strategy, and total invested balances"
      },
      "getStrategyTokenBalance(uint256,address)": {
        "notice": "Returns the amount of a given token currently invested in a strategy"
      },
      "getStrategyTokenLength(uint256)": {
        "notice": "returns the length of the tokens array in a strategy"
      },
      "getTokenTotalBalance(address)": {
        "notice": "Returns the total amount of a token invested across all strategies"
      },
      "idCounter()": {
        "notice": "autogenerated getter definition"
      },
      "increaseStrategy(uint256,(address,uint256)[])": {
        "notice": "Increases the amount of a set of tokens in a strategy"
      },
      "setMaximumCap(uint256,address,uint256)": {
        "notice": "Sets the maximum investment cap for a strategy and token pair"
      },
      "updateName(uint256,string)": {
        "notice": "Updates the strategy name"
      }
    },
    "version": 1
  },
  "storageLayout": {
    "storage": [
      {
        "astId": 723,
        "contract": "contracts/core/StrategyMap.sol:StrategyMap",
        "label": "_initialized",
        "offset": 0,
        "slot": "0",
        "type": "t_bool"
      },
      {
        "astId": 726,
        "contract": "contracts/core/StrategyMap.sol:StrategyMap",
        "label": "_initializing",
        "offset": 1,
        "slot": "0",
        "type": "t_bool"
      },
      {
        "astId": 10099,
        "contract": "contracts/core/StrategyMap.sol:StrategyMap",
        "label": "moduleMap",
        "offset": 2,
        "slot": "0",
        "type": "t_contract(IModuleMap)21079"
      },
      {
        "astId": 4667,
        "contract": "contracts/core/StrategyMap.sol:StrategyMap",
        "label": "_controllers",
        "offset": 0,
        "slot": "1",
        "type": "t_mapping(t_address,t_bool)"
      },
      {
        "astId": 4670,
        "contract": "contracts/core/StrategyMap.sol:StrategyMap",
        "label": "controllers",
        "offset": 0,
        "slot": "2",
        "type": "t_array(t_address)dyn_storage"
      },
      {
        "astId": 10290,
        "contract": "contracts/core/StrategyMap.sol:StrategyMap",
        "label": "strategies",
        "offset": 0,
        "slot": "3",
        "type": "t_mapping(t_uint256,t_struct(Strategy)21456_storage)"
      },
      {
        "astId": 10294,
        "contract": "contracts/core/StrategyMap.sol:StrategyMap",
        "label": "tokenBalances",
        "offset": 0,
        "slot": "4",
        "type": "t_mapping(t_address,t_uint256)"
      },
      {
        "astId": 10300,
        "contract": "contracts/core/StrategyMap.sol:StrategyMap",
        "label": "strategyTokenBalances",
        "offset": 0,
        "slot": "5",
        "type": "t_mapping(t_uint256,t_mapping(t_address,t_uint256))"
      },
      {
        "astId": 10308,
        "contract": "contracts/core/StrategyMap.sol:StrategyMap",
        "label": "deployAmount",
        "offset": 0,
        "slot": "6",
        "type": "t_mapping(t_address,t_mapping(t_uint32,t_mapping(t_address,t_int256)))"
      },
      {
        "astId": 10314,
        "contract": "contracts/core/StrategyMap.sol:StrategyMap",
        "label": "_closablePositions",
        "offset": 0,
        "slot": "7",
        "type": "t_mapping(t_address,t_array(t_struct(ClosablePosition)21486_storage)dyn_storage)"
      },
      {
        "astId": 10317,
        "contract": "contracts/core/StrategyMap.sol:StrategyMap",
        "label": "idCounter",
        "offset": 0,
        "slot": "8",
        "type": "t_uint256"
      },
      {
        "astId": 10321,
        "contract": "contracts/core/StrategyMap.sol:StrategyMap",
        "label": "tokenWeights",
        "offset": 0,
        "slot": "9",
        "type": "t_mapping(t_address,t_uint256)"
      }
    ],
    "types": {
      "t_address": {
        "encoding": "inplace",
        "label": "address",
        "numberOfBytes": "20"
      },
      "t_array(t_address)dyn_storage": {
        "base": "t_address",
        "encoding": "dynamic_array",
        "label": "address[]",
        "numberOfBytes": "32"
      },
      "t_array(t_struct(ClosablePosition)21486_storage)dyn_storage": {
        "base": "t_struct(ClosablePosition)21486_storage",
        "encoding": "dynamic_array",
        "label": "struct IStrategyMap.ClosablePosition[]",
        "numberOfBytes": "32"
      },
      "t_array(t_struct(Integration)21421_storage)dyn_storage": {
        "base": "t_struct(Integration)21421_storage",
        "encoding": "dynamic_array",
        "label": "struct IStrategyMap.Integration[]",
        "numberOfBytes": "32"
      },
      "t_array(t_struct(Token)21428_storage)dyn_storage": {
        "base": "t_struct(Token)21428_storage",
        "encoding": "dynamic_array",
        "label": "struct IStrategyMap.Token[]",
        "numberOfBytes": "32"
      },
      "t_bool": {
        "encoding": "inplace",
        "label": "bool",
        "numberOfBytes": "1"
      },
      "t_contract(IModuleMap)21079": {
        "encoding": "inplace",
        "label": "contract IModuleMap",
        "numberOfBytes": "20"
      },
      "t_int256": {
        "encoding": "inplace",
        "label": "int256",
        "numberOfBytes": "32"
      },
      "t_mapping(t_address,t_array(t_struct(ClosablePosition)21486_storage)dyn_storage)": {
        "encoding": "mapping",
        "key": "t_address",
        "label": "mapping(address => struct IStrategyMap.ClosablePosition[])",
        "numberOfBytes": "32",
        "value": "t_array(t_struct(ClosablePosition)21486_storage)dyn_storage"
      },
      "t_mapping(t_address,t_bool)": {
        "encoding": "mapping",
        "key": "t_address",
        "label": "mapping(address => bool)",
        "numberOfBytes": "32",
        "value": "t_bool"
      },
      "t_mapping(t_address,t_int256)": {
        "encoding": "mapping",
        "key": "t_address",
        "label": "mapping(address => int256)",
        "numberOfBytes": "32",
        "value": "t_int256"
      },
      "t_mapping(t_address,t_mapping(t_uint32,t_mapping(t_address,t_int256)))": {
        "encoding": "mapping",
        "key": "t_address",
        "label": "mapping(address => mapping(uint32 => mapping(address => int256)))",
        "numberOfBytes": "32",
        "value": "t_mapping(t_uint32,t_mapping(t_address,t_int256))"
      },
      "t_mapping(t_address,t_uint256)": {
        "encoding": "mapping",
        "key": "t_address",
        "label": "mapping(address => uint256)",
        "numberOfBytes": "32",
        "value": "t_uint256"
      },
      "t_mapping(t_uint256,t_mapping(t_address,t_uint256))": {
        "encoding": "mapping",
        "key": "t_uint256",
        "label": "mapping(uint256 => mapping(address => uint256))",
        "numberOfBytes": "32",
        "value": "t_mapping(t_address,t_uint256)"
      },
      "t_mapping(t_uint256,t_struct(Strategy)21456_storage)": {
        "encoding": "mapping",
        "key": "t_uint256",
        "label": "mapping(uint256 => struct IStrategyMap.Strategy)",
        "numberOfBytes": "32",
        "value": "t_struct(Strategy)21456_storage"
      },
      "t_mapping(t_uint32,t_mapping(t_address,t_int256))": {
        "encoding": "mapping",
        "key": "t_uint32",
        "label": "mapping(uint32 => mapping(address => int256))",
        "numberOfBytes": "32",
        "value": "t_mapping(t_address,t_int256)"
      },
      "t_string_storage": {
        "encoding": "bytes",
        "label": "string",
        "numberOfBytes": "32"
      },
      "t_struct(ClosablePosition)21486_storage": {
        "encoding": "inplace",
        "label": "struct IStrategyMap.ClosablePosition",
        "members": [
          {
            "astId": 21481,
            "contract": "contracts/core/StrategyMap.sol:StrategyMap",
            "label": "integration",
            "offset": 0,
            "slot": "0",
            "type": "t_address"
          },
          {
            "astId": 21483,
            "contract": "contracts/core/StrategyMap.sol:StrategyMap",
            "label": "ammPoolID",
            "offset": 20,
            "slot": "0",
            "type": "t_uint32"
          },
          {
            "astId": 21485,
            "contract": "contracts/core/StrategyMap.sol:StrategyMap",
            "label": "amount",
            "offset": 0,
            "slot": "1",
            "type": "t_uint256"
          }
        ],
        "numberOfBytes": "64"
      },
      "t_struct(Integration)21421_storage": {
        "encoding": "inplace",
        "label": "struct IStrategyMap.Integration",
        "members": [
          {
            "astId": 21418,
            "contract": "contracts/core/StrategyMap.sol:StrategyMap",
            "label": "integration",
            "offset": 0,
            "slot": "0",
            "type": "t_address"
          },
          {
            "astId": 21420,
            "contract": "contracts/core/StrategyMap.sol:StrategyMap",
            "label": "ammPoolID",
            "offset": 20,
            "slot": "0",
            "type": "t_uint32"
          }
        ],
        "numberOfBytes": "32"
      },
      "t_struct(Strategy)21456_storage": {
        "encoding": "inplace",
        "label": "struct IStrategyMap.Strategy",
        "members": [
          {
            "astId": 21439,
            "contract": "contracts/core/StrategyMap.sol:StrategyMap",
            "label": "name",
            "offset": 0,
            "slot": "0",
            "type": "t_string_storage"
          },
          {
            "astId": 21443,
            "contract": "contracts/core/StrategyMap.sol:StrategyMap",
            "label": "integrations",
            "offset": 0,
            "slot": "1",
            "type": "t_array(t_struct(Integration)21421_storage)dyn_storage"
          },
          {
            "astId": 21447,
            "contract": "contracts/core/StrategyMap.sol:StrategyMap",
            "label": "tokens",
            "offset": 0,
            "slot": "2",
            "type": "t_array(t_struct(Token)21428_storage)dyn_storage"
          },
          {
            "astId": 21451,
            "contract": "contracts/core/StrategyMap.sol:StrategyMap",
            "label": "availableTokens",
            "offset": 0,
            "slot": "3",
            "type": "t_mapping(t_address,t_bool)"
          },
          {
            "astId": 21455,
            "contract": "contracts/core/StrategyMap.sol:StrategyMap",
            "label": "maximumCap",
            "offset": 0,
            "slot": "4",
            "type": "t_mapping(t_address,t_uint256)"
          }
        ],
        "numberOfBytes": "160"
      },
      "t_struct(Token)21428_storage": {
        "encoding": "inplace",
        "label": "struct IStrategyMap.Token",
        "members": [
          {
            "astId": 21423,
            "contract": "contracts/core/StrategyMap.sol:StrategyMap",
            "label": "integrationPairIdx",
            "offset": 0,
            "slot": "0",
            "type": "t_uint256"
          },
          {
            "astId": 21425,
            "contract": "contracts/core/StrategyMap.sol:StrategyMap",
            "label": "token",
            "offset": 0,
            "slot": "1",
            "type": "t_address"
          },
          {
            "astId": 21427,
            "contract": "contracts/core/StrategyMap.sol:StrategyMap",
            "label": "weight",
            "offset": 20,
            "slot": "1",
            "type": "t_uint32"
          }
        ],
        "numberOfBytes": "64"
      },
      "t_uint256": {
        "encoding": "inplace",
        "label": "uint256",
        "numberOfBytes": "32"
      },
      "t_uint32": {
        "encoding": "inplace",
        "label": "uint32",
        "numberOfBytes": "4"
      }
    }
  }
}