{
  "address": "0x3ccD8322A62A3ADDf1bd2e6AE5f875484592d5cc",
  "abi": [
    {
      "anonymous": false,
      "inputs": [
        {
          "indexed": false,
          "internalType": "uint256",
          "name": "strategyId",
          "type": "uint256"
        },
        {
          "indexed": false,
          "internalType": "address[]",
          "name": "integration",
          "type": "address[]"
        },
        {
          "indexed": false,
          "internalType": "uint256",
          "name": "amount",
          "type": "uint256"
        }
      ],
      "name": "HarvestYield",
      "type": "event"
    },
    {
      "inputs": [
        {
          "internalType": "address[]",
          "name": "controllers_",
          "type": "address[]"
        },
        {
          "internalType": "address",
          "name": "moduleMap_",
          "type": "address"
        }
      ],
      "name": "__Controlled_init",
      "outputs": [],
      "stateMutability": "nonpayable",
      "type": "function"
    },
    {
      "inputs": [
        {
          "internalType": "address",
          "name": "controller",
          "type": "address"
        }
      ],
      "name": "addController",
      "outputs": [],
      "stateMutability": "nonpayable",
      "type": "function"
    },
    {
      "inputs": [
        {
          "internalType": "uint256",
          "name": "ratioX1000",
          "type": "uint256"
        }
      ],
      "name": "biosBuyBack",
      "outputs": [],
      "stateMutability": "nonpayable",
      "type": "function"
    },
    {
      "inputs": [
        {
          "internalType": "uint256",
          "name": "",
          "type": "uint256"
        }
      ],
      "name": "controllers",
      "outputs": [
        {
          "internalType": "address",
          "name": "",
          "type": "address"
        }
      ],
      "stateMutability": "view",
      "type": "function"
    },
    {
      "inputs": [
        {
          "components": [
            {
              "internalType": "address",
              "name": "integration",
              "type": "address"
            },
            {
              "internalType": "address[]",
              "name": "tokens",
              "type": "address[]"
            },
            {
              "internalType": "uint32",
              "name": "ammPoolID",
              "type": "uint32"
            }
          ],
          "internalType": "struct IYieldManager.DeployRequest[]",
          "name": "deployments",
          "type": "tuple[]"
        }
      ],
      "name": "deploy",
      "outputs": [],
      "stateMutability": "nonpayable",
      "type": "function"
    },
    {
      "inputs": [
        {
          "internalType": "uint256[]",
          "name": "ids",
          "type": "uint256[]"
        },
        {
          "internalType": "uint256[]",
          "name": "positions",
          "type": "uint256[]"
        },
        {
          "internalType": "uint256",
          "name": "biosAmount",
          "type": "uint256"
        }
      ],
      "name": "distributeEth",
      "outputs": [],
      "stateMutability": "nonpayable",
      "type": "function"
    },
    {
      "inputs": [
        {
          "internalType": "address",
          "name": "token",
          "type": "address"
        }
      ],
      "name": "getAllPendingYield",
      "outputs": [
        {
          "components": [
            {
              "internalType": "address",
              "name": "integration",
              "type": "address"
            },
            {
              "internalType": "address",
              "name": "token",
              "type": "address"
            },
            {
              "internalType": "uint256",
              "name": "amount",
              "type": "uint256"
            }
          ],
          "internalType": "struct IYieldManager.IntegrationYield[]",
          "name": "pendingYieldData",
          "type": "tuple[]"
        }
      ],
      "stateMutability": "view",
      "type": "function"
    },
    {
      "inputs": [
        {
          "internalType": "address",
          "name": "tokenAddress",
          "type": "address"
        }
      ],
      "name": "getDesiredReserveTokenBalance",
      "outputs": [
        {
          "internalType": "uint256",
          "name": "",
          "type": "uint256"
        }
      ],
      "stateMutability": "view",
      "type": "function"
    },
    {
      "inputs": [],
      "name": "getEthDistributionWeights",
      "outputs": [
        {
          "internalType": "uint32",
          "name": "",
          "type": "uint32"
        },
        {
          "internalType": "uint32",
          "name": "",
          "type": "uint32"
        },
        {
          "internalType": "uint32",
          "name": "",
          "type": "uint32"
        },
        {
          "internalType": "uint32",
          "name": "",
          "type": "uint32"
        }
      ],
      "stateMutability": "view",
      "type": "function"
    },
    {
      "inputs": [],
      "name": "getEthWeightSum",
      "outputs": [
        {
          "internalType": "uint32",
          "name": "ethWeightSum",
          "type": "uint32"
        }
      ],
      "stateMutability": "view",
      "type": "function"
    },
    {
      "inputs": [],
      "name": "getGasAccount",
      "outputs": [
        {
          "internalType": "address",
          "name": "",
          "type": "address"
        }
      ],
      "stateMutability": "view",
      "type": "function"
    },
    {
      "inputs": [],
      "name": "getGasAccountTargetEthBalance",
      "outputs": [
        {
          "internalType": "uint256",
          "name": "",
          "type": "uint256"
        }
      ],
      "stateMutability": "view",
      "type": "function"
    },
    {
      "inputs": [],
      "name": "getLastEthRewardsAmount",
      "outputs": [
        {
          "internalType": "uint256",
          "name": "",
          "type": "uint256"
        }
      ],
      "stateMutability": "view",
      "type": "function"
    },
    {
      "inputs": [
        {
          "internalType": "address",
          "name": "integrationAddress",
          "type": "address"
        }
      ],
      "name": "getLastHarvestYieldTimestamp",
      "outputs": [
        {
          "internalType": "uint256",
          "name": "",
          "type": "uint256"
        }
      ],
      "stateMutability": "view",
      "type": "function"
    },
    {
      "inputs": [
        {
          "internalType": "address",
          "name": "tokenAddress",
          "type": "address"
        }
      ],
      "name": "getReserveTokenBalance",
      "outputs": [
        {
          "internalType": "uint256",
          "name": "",
          "type": "uint256"
        }
      ],
      "stateMutability": "view",
      "type": "function"
    },
    {
      "inputs": [
        {
          "internalType": "uint256",
          "name": "strategyId",
          "type": "uint256"
        }
      ],
      "name": "getStrategyInfo",
      "outputs": [
        {
          "components": [
            {
              "internalType": "uint256",
              "name": "processedWeth",
              "type": "uint256"
            },
            {
              "internalType": "uint256",
              "name": "distributedWeth",
              "type": "uint256"
            },
            {
              "internalType": "uint256",
              "name": "lastHarvest",
              "type": "uint256"
            }
          ],
          "internalType": "struct IYieldManager.StrategyInfo",
          "name": "",
          "type": "tuple"
        }
      ],
      "stateMutability": "view",
      "type": "function"
    },
    {
      "inputs": [
        {
          "internalType": "address",
          "name": "tokenAddress",
          "type": "address"
        }
      ],
      "name": "getTokenTotalIntegrationBalance",
      "outputs": [
        {
          "internalType": "uint256",
          "name": "tokenTotalIntegrationBalance",
          "type": "uint256"
        }
      ],
      "stateMutability": "view",
      "type": "function"
    },
    {
      "inputs": [],
      "name": "getTreasuryAccount",
      "outputs": [
        {
          "internalType": "address",
          "name": "",
          "type": "address"
        }
      ],
      "stateMutability": "view",
      "type": "function"
    },
    {
      "inputs": [
        {
          "internalType": "uint256",
          "name": "strategyId",
          "type": "uint256"
        },
        {
          "internalType": "address[]",
          "name": "integrations",
          "type": "address[]"
        },
        {
          "internalType": "uint256",
          "name": "amount",
          "type": "uint256"
        },
        {
          "internalType": "bool",
          "name": "setAccounting",
          "type": "bool"
        }
      ],
      "name": "harvestYield",
      "outputs": [],
      "stateMutability": "nonpayable",
      "type": "function"
    },
    {
      "inputs": [
        {
          "internalType": "address[]",
          "name": "controllers_",
          "type": "address[]"
        },
        {
          "internalType": "address",
          "name": "moduleMap_",
          "type": "address"
        },
        {
          "internalType": "uint256",
          "name": "gasAccountTargetEthBalance_",
          "type": "uint256"
        },
        {
          "internalType": "uint32",
          "name": "biosBuyBackEthWeight_",
          "type": "uint32"
        },
        {
          "internalType": "uint32",
          "name": "treasuryEthWeight_",
          "type": "uint32"
        },
        {
          "internalType": "uint32",
          "name": "protocolFeeEthWeight_",
          "type": "uint32"
        },
        {
          "internalType": "uint32",
          "name": "rewardsEthWeight_",
          "type": "uint32"
        },
        {
          "internalType": "address payable",
          "name": "gasAccount_",
          "type": "address"
        },
        {
          "internalType": "address payable",
          "name": "treasuryAccount_",
          "type": "address"
        }
      ],
      "name": "initialize",
      "outputs": [],
      "stateMutability": "nonpayable",
      "type": "function"
    },
    {
      "inputs": [],
      "name": "moduleMap",
      "outputs": [
        {
          "internalType": "contract IModuleMap",
          "name": "",
          "type": "address"
        }
      ],
      "stateMutability": "view",
      "type": "function"
    },
    {
      "inputs": [
        {
          "internalType": "uint256",
          "name": "strategyId",
          "type": "uint256"
        },
        {
          "internalType": "uint256",
          "name": "amount",
          "type": "uint256"
        },
        {
          "internalType": "bool",
          "name": "add",
          "type": "bool"
        }
      ],
      "name": "strategyAccounting",
      "outputs": [],
      "stateMutability": "nonpayable",
      "type": "function"
    },
    {
      "inputs": [
        {
          "internalType": "address",
          "name": "destination",
          "type": "address"
        },
        {
          "internalType": "address",
          "name": "token",
          "type": "address"
        },
        {
          "internalType": "uint256",
          "name": "amount",
          "type": "uint256"
        }
      ],
      "name": "transferClosedPositionsValue",
      "outputs": [],
      "stateMutability": "nonpayable",
      "type": "function"
    },
    {
      "inputs": [
        {
          "internalType": "uint32",
          "name": "biosBuyBackEthWeight_",
          "type": "uint32"
        },
        {
          "internalType": "uint32",
          "name": "treasuryEthWeight_",
          "type": "uint32"
        },
        {
          "internalType": "uint32",
          "name": "protocolFeeEthWeight_",
          "type": "uint32"
        },
        {
          "internalType": "uint32",
          "name": "rewardsEthWeight_",
          "type": "uint32"
        }
      ],
      "name": "updateEthDistributionWeights",
      "outputs": [],
      "stateMutability": "nonpayable",
      "type": "function"
    },
    {
      "inputs": [
        {
          "internalType": "address payable",
          "name": "gasAccount_",
          "type": "address"
        }
      ],
      "name": "updateGasAccount",
      "outputs": [],
      "stateMutability": "nonpayable",
      "type": "function"
    },
    {
      "inputs": [
        {
          "internalType": "uint256",
          "name": "gasAccountTargetEthBalance_",
          "type": "uint256"
        }
      ],
      "name": "updateGasAccountTargetEthBalance",
      "outputs": [],
      "stateMutability": "nonpayable",
      "type": "function"
    },
    {
      "inputs": [
        {
          "internalType": "address payable",
          "name": "treasuryAccount_",
          "type": "address"
        }
      ],
      "name": "updateTreasuryAccount",
      "outputs": [],
      "stateMutability": "nonpayable",
      "type": "function"
    },
    {
      "stateMutability": "payable",
      "type": "receive"
    }
  ],
  "transactionHash": "0x13da97416e1faab7f3758386d964774b6556e4645f87cc8a3724b800f125b17e",
  "args": [],
  "solcInputHash": "7930657a6ed459984389e83cc60bde12",
  "bytecode": "0x608060405234801561001057600080fd5b506157f780620000216000396000f3fe60806040526004361061013f5760003560e01c80629816f51461014b57806307f68a651461017a5780630b1ff20a146101cc5780630f0a1c6f146101ee57806330dd79dd146102215780633aab4e94146102415780633f10724c1461028557806343cda19d146102a55780636f26ab6c146102c55780637a0468d2146102e5578063845fe1d014610305578063983b64e81461032557806398c671ce14610345578063a1bc290814610365578063a1d06fbb14610385578063a412e8151461039a578063a7fc7a07146103ba578063b4f0abf0146103da578063cdd92c7b146103fa578063cde49a131461041a578063db089e791461042f578063de13acfb14610471578063e0a30f7314610491578063e94b0dd2146104af578063ec5e2f17146104cf578063f6075155146104ef578063f7866ee31461051c57600080fd5b3661014657005b600080fd5b34801561015757600080fd5b5061016061053a565b60405163ffffffff90911681526020015b60405180910390f35b34801561018657600080fd5b506004546040805163ffffffff8084168252600160201b840481166020830152600160401b8404811692820192909252600160601b909204166060820152608001610171565b3480156101d857600080fd5b506101ec6101e73660046151cd565b610586565b005b3480156101fa57600080fd5b50600054610214906201000090046001600160a01b031681565b604051610171919061537c565b34801561022d57600080fd5b506101ec61023c366004615129565b6105c3565b34801561024d57600080fd5b5061027761025c366004614f5a565b6001600160a01b031660009081526009602052604090205490565b604051908152602001610171565b34801561029157600080fd5b506101ec6102a03660046150ea565b610cb8565b3480156102b157600080fd5b506102776102c0366004614f5a565b612294565b3480156102d157600080fd5b506101ec6102e036600461524d565b612501565b3480156102f157600080fd5b506101ec610300366004615021565b612675565b34801561031157600080fd5b506101ec6103203660046151cd565b6127d3565b34801561033157600080fd5b506101ec610340366004614f92565b612bdb565b34801561035157600080fd5b506101ec610360366004614fd2565b612c49565b34801561037157600080fd5b506101ec610380366004614f5a565b612dee565b34801561039157600080fd5b50600554610277565b3480156103a657600080fd5b506101ec6103b53660046151e5565b612e65565b3480156103c657600080fd5b506101ec6103d5366004614f5a565b6132c2565b3480156103e657600080fd5b506101ec6103f5366004614f5a565b6134ff565b34801561040657600080fd5b50610277610415366004614f5a565b613576565b34801561042657600080fd5b50600354610277565b34801561043b57600080fd5b5061044f61044a3660046151cd565b613a0c565b6040805182518152602080840151908201529181015190820152606001610171565b34801561047d57600080fd5b506101ec61048c3660046152bd565b613a69565b34801561049d57600080fd5b506006546001600160a01b0316610214565b3480156104bb57600080fd5b506102146104ca3660046151cd565b613afa565b3480156104db57600080fd5b506102776104ea366004614f5a565b613b24565b3480156104fb57600080fd5b5061050f61050a366004614f5a565b613d47565b604051610171919061540d565b34801561052857600080fd5b506007546001600160a01b0316610214565b60045460009063ffffffff600160601b8204811691600160401b810482169161056d91600160201b810482169116615681565b6105779190615681565b6105819190615681565b905090565b3360009081526001602052604090205460ff166105be5760405162461bcd60e51b81526004016105b59061558e565b60405180910390fd5b600355565b3360009081526001602052604090205460ff166105f25760405162461bcd60e51b81526004016105b59061558e565b600080546040516337c61fc560e11b8152620100009091046001600160a01b031690636f8c3f8a9061062990600390600401615472565b60206040518083038186803b15801561064157600080fd5b505afa158015610655573d6000803e3d6000fd5b505050506040513d601f19601f820116820180604052508101906106799190614f76565b90506000816001600160a01b0316638b9c94896040518163ffffffff1660e01b815260040160206040518083038186803b1580156106b657600080fd5b505afa1580156106ca573d6000803e3d6000fd5b505050506040513d601f19601f820116820180604052508101906106ee9190614f76565b905082156108c2576000546040516337c61fc560e11b815284916201000090046001600160a01b031690636f8c3f8a9061072d90600190600401615472565b60206040518083038186803b15801561074557600080fd5b505afa158015610759573d6000803e3d6000fd5b505050506040513d601f19601f8201168201806040525081019061077d9190614f76565b6001600160a01b031663f5465992846001600160a01b03166344fc9b566040518163ffffffff1660e01b815260040160206040518083038186803b1580156107c457600080fd5b505afa1580156107d8573d6000803e3d6000fd5b505050506040513d601f19601f820116820180604052508101906107fc9190614f76565b6040518263ffffffff1660e01b8152600401610818919061537c565b60206040518083038186803b15801561083057600080fd5b505afa158015610844573d6000803e3d6000fd5b505050506040513d601f19601f8201168201806040525081019061086891906151b5565b11156108c25760405162461bcd60e51b8152602060048201526024808201527f5969656c644d616e616765723a3a65787065637465642042494f5320657863656044820152631959195960e21b60648201526084016105b5565b6000805b87811015610cab5760008989838181106108f057634e487b7160e01b600052603260045260246000fd5b90506020020135116109445760405162461bcd60e51b815260206004820152601e60248201527f5969656c644d616e616765723a3a696e76616c6964207374726174656779000060448201526064016105b5565b86868281811061096457634e487b7160e01b600052603260045260246000fd5b6000546040516337c61fc560e11b815260209092029390930135926001600160a01b0362010000909104169150636f8c3f8a906109a690600890600401615472565b60206040518083038186803b1580156109be57600080fd5b505afa1580156109d2573d6000803e3d6000fd5b505050506040513d601f19601f820116820180604052508101906109f69190614f76565b6001600160a01b0316639d6eaec28b8b85818110610a2457634e487b7160e01b600052603260045260246000fd5b90506020020135866040518363ffffffff1660e01b8152600401610a5b9291909182526001600160a01b0316602082015260400190565b60206040518083038186803b158015610a7357600080fd5b505afa158015610a87573d6000803e3d6000fd5b505050506040513d601f19601f82011682018060405250810190610aab91906151b5565b1115610af95760405162461bcd60e51b815260206004820152601f60248201527f5969656c644d616e616765723a3a706f736974696f6e2065786365656465640060448201526064016105b5565b6000600a60008b8b85818110610b1f57634e487b7160e01b600052603260045260246000fd5b9050602002013581526020019081526020016000209050600081600101548260000154610b4c91906156e8565b90508015610c9857600080600080610b6385614031565b93509350935093506000841115610c0e576000546040516337c61fc560e11b8152610c0e916201000090046001600160a01b031690636f8c3f8a90610bad90600690600401615472565b60206040518083038186803b158015610bc557600080fd5b505afa158015610bd9573d6000803e3d6000fd5b505050506040513d601f19601f82011682018060405250810190610bfd9190614f76565b6001600160a01b038b1690866140e3565b610c18838a614139565b600754610c2f9084906001600160a01b03166142c9565b8115610c3e57610c3e82614367565b610c6e8f8f89818110610c6157634e487b7160e01b600052603260045260246000fd5b90506020020135826148cc565b610c788189615669565b975084866001016000828254610c8e9190615669565b9091555050505050505b505080610ca49061572b565b90506108c6565b5060055550505050505050565b3360009081526001602052604090205460ff16610ce75760405162461bcd60e51b81526004016105b59061558e565b600080546040516337c61fc560e11b8152620100009091046001600160a01b031690636f8c3f8a90610d1e90600890600401615472565b60206040518083038186803b158015610d3657600080fd5b505afa158015610d4a573d6000803e3d6000fd5b505050506040513d601f19601f82011682018060405250810190610d6e9190614f76565b905060005b8281101561228e576000848483818110610d9d57634e487b7160e01b600052603260045260246000fd5b9050602002810190610daf9190615654565b610dc0906060810190604001615285565b63ffffffff161115610e50576002848483818110610dee57634e487b7160e01b600052603260045260246000fd5b9050602002810190610e009190615654565b610e0e90602081019061560d565b90501115610e505760405162461bcd60e51b815260206004820152600f60248201526e746f6f206d616e7920746f6b656e7360881b60448201526064016105b5565b60005b848483818110610e7357634e487b7160e01b600052603260045260246000fd5b9050602002810190610e859190615654565b610e9390602081019061560d565b90508110156121dc576000836001600160a01b031663f7e50fcf878786818110610ecd57634e487b7160e01b600052603260045260246000fd5b9050602002810190610edf9190615654565b610eed906020810190614f5a565b888887818110610f0d57634e487b7160e01b600052603260045260246000fd5b9050602002810190610f1f9190615654565b610f30906060810190604001615285565b898988818110610f5057634e487b7160e01b600052603260045260246000fd5b9050602002810190610f629190615654565b610f7090602081019061560d565b87818110610f8e57634e487b7160e01b600052603260045260246000fd5b9050602002016020810190610fa39190614f5a565b6040518463ffffffff1660e01b8152600401610fc1939291906153d0565b60206040518083038186803b158015610fd957600080fd5b505afa158015610fed573d6000803e3d6000fd5b505050506040513d601f19601f8201168201806040525081019061101191906151b5565b9050600086868581811061103557634e487b7160e01b600052603260045260246000fd5b90506020028101906110479190615654565b61105590602081019061560d565b8481811061107357634e487b7160e01b600052603260045260246000fd5b90506020020160208101906110889190614f5a565b600080546040516337c61fc560e11b81526001600160a01b03938416936370a0823193620100009093041691636f8c3f8a916110c79190600401615472565b60206040518083038186803b1580156110df57600080fd5b505afa1580156110f3573d6000803e3d6000fd5b505050506040513d601f19601f820116820180604052508101906111179190614f76565b6040518263ffffffff1660e01b8152600401611133919061537c565b60206040518083038186803b15801561114b57600080fd5b505afa15801561115f573d6000803e3d6000fd5b505050506040513d601f19601f8201168201806040525081019061118391906151b5565b905060008213801561119c575061119982614ab8565b81105b156113eb57846001600160a01b0316635560066a8888878181106111d057634e487b7160e01b600052603260045260246000fd5b90506020028101906111e29190615654565b6111f090602081019061560d565b8681811061120e57634e487b7160e01b600052603260045260246000fd5b90506020020160208101906112239190614f5a565b6000196040518363ffffffff1660e01b8152600401611243929190615390565b600060405180830381600087803b15801561125d57600080fd5b505af1158015611271573d6000803e3d6000fd5b50505050846001600160a01b031663f7e50fcf8888878181106112a457634e487b7160e01b600052603260045260246000fd5b90506020028101906112b69190615654565b6112c4906020810190614f5a565b8989888181106112e457634e487b7160e01b600052603260045260246000fd5b90506020028101906112f69190615654565b611307906060810190604001615285565b8a8a8981811061132757634e487b7160e01b600052603260045260246000fd5b90506020028101906113399190615654565b61134790602081019061560d565b8881811061136557634e487b7160e01b600052603260045260246000fd5b905060200201602081019061137a9190614f5a565b6040518463ffffffff1660e01b8152600401611398939291906153d0565b60206040518083038186803b1580156113b057600080fd5b505afa1580156113c4573d6000803e3d6000fd5b505050506040513d601f19601f820116820180604052508101906113e891906151b5565b91505b600087878681811061140d57634e487b7160e01b600052603260045260246000fd5b905060200281019061141f9190615654565b611430906060810190604001615285565b63ffffffff161115611b3f57600087878681811061145e57634e487b7160e01b600052603260045260246000fd5b90506020028101906114709190615654565b61147e906020810190614f5a565b90506000831315611a115760008888878181106114ab57634e487b7160e01b600052603260045260246000fd5b90506020028101906114bd9190615654565b6114cb90602081019061560d565b868181106114e957634e487b7160e01b600052603260045260246000fd5b90506020020160208101906114fe9190614f5a565b6001600160a01b03166370a082318a8a8981811061152c57634e487b7160e01b600052603260045260246000fd5b905060200281019061153e9190615654565b61154c906020810190614f5a565b6040518263ffffffff1660e01b8152600401611568919061537c565b60206040518083038186803b15801561158057600080fd5b505afa158015611594573d6000803e3d6000fd5b505050506040513d601f19601f820116820180604052508101906115b891906151b5565b600080546040516337c61fc560e11b815292935061171192620100009091046001600160a01b031691636f8c3f8a916115f49190600401615472565b60206040518083038186803b15801561160c57600080fd5b505afa158015611620573d6000803e3d6000fd5b505050506040513d601f19601f820116820180604052508101906116449190614f76565b8a8a8981811061166457634e487b7160e01b600052603260045260246000fd5b90506020028101906116769190615654565b611684906020810190614f5a565b61168d87614ab8565b8c8c8b8181106116ad57634e487b7160e01b600052603260045260246000fd5b90506020028101906116bf9190615654565b6116cd90602081019061560d565b8a8181106116eb57634e487b7160e01b600052603260045260246000fd5b90506020020160208101906117009190614f5a565b6001600160a01b0316929190614ad4565b600089898881811061173357634e487b7160e01b600052603260045260246000fd5b90506020028101906117459190615654565b61175390602081019061560d565b8781811061177157634e487b7160e01b600052603260045260246000fd5b90506020020160208101906117869190614f5a565b6001600160a01b03166370a082318b8b8a8181106117b457634e487b7160e01b600052603260045260246000fd5b90506020028101906117c69190615654565b6117d4906020810190614f5a565b6040518263ffffffff1660e01b81526004016117f0919061537c565b60206040518083038186803b15801561180857600080fd5b505afa15801561181c573d6000803e3d6000fd5b505050506040513d601f19601f8201168201806040525081019061184091906151b5565b9050826001600160a01b031663b1cccca28b8b8a81811061187157634e487b7160e01b600052603260045260246000fd5b90506020028101906118839190615654565b61189190602081019061560d565b898181106118af57634e487b7160e01b600052603260045260246000fd5b90506020020160208101906118c49190614f5a565b6118ce85856156e8565b8d8d8c8181106118ee57634e487b7160e01b600052603260045260246000fd5b90506020028101906119009190615654565b611911906060810190604001615285565b6040518463ffffffff1660e01b815260040161192f939291906153a9565b600060405180830381600087803b15801561194957600080fd5b505af115801561195d573d6000803e3d6000fd5b50505050826001600160a01b0316635ce564f48b8b8a81811061199057634e487b7160e01b600052603260045260246000fd5b90506020028101906119a29190615654565b6119b3906060810190604001615285565b6040516001600160e01b031960e084901b16815263ffffffff919091166004820152602401600060405180830381600087803b1580156119f257600080fd5b505af1158015611a06573d6000803e3d6000fd5b505050505050611b39565b6000831215611b3957806001600160a01b0316637db2ddfe898988818110611a4957634e487b7160e01b600052603260045260246000fd5b9050602002810190611a5b9190615654565b611a6990602081019061560d565b87818110611a8757634e487b7160e01b600052603260045260246000fd5b9050602002016020810190611a9c9190614f5a565b611aa586614ab8565b8b8b8a818110611ac557634e487b7160e01b600052603260045260246000fd5b9050602002810190611ad79190615654565b611ae8906060810190604001615285565b6040518463ffffffff1660e01b8152600401611b06939291906153a9565b600060405180830381600087803b158015611b2057600080fd5b505af1158015611b34573d6000803e3d6000fd5b505050505b50612043565b6000878786818110611b6157634e487b7160e01b600052603260045260246000fd5b9050602002810190611b739190615654565b611b81906020810190614f5a565b90506000831315611f5d576000888887818110611bae57634e487b7160e01b600052603260045260246000fd5b9050602002810190611bc09190615654565b611bce90602081019061560d565b86818110611bec57634e487b7160e01b600052603260045260246000fd5b9050602002016020810190611c019190614f5a565b6001600160a01b03166370a082318a8a89818110611c2f57634e487b7160e01b600052603260045260246000fd5b9050602002810190611c419190615654565b611c4f906020810190614f5a565b6040518263ffffffff1660e01b8152600401611c6b919061537c565b60206040518083038186803b158015611c8357600080fd5b505afa158015611c97573d6000803e3d6000fd5b505050506040513d601f19601f82011682018060405250810190611cbb91906151b5565b600080546040516337c61fc560e11b8152929350611cf792620100009091046001600160a01b031691636f8c3f8a916115f49190600401615472565b6000898988818110611d1957634e487b7160e01b600052603260045260246000fd5b9050602002810190611d2b9190615654565b611d3990602081019061560d565b87818110611d5757634e487b7160e01b600052603260045260246000fd5b9050602002016020810190611d6c9190614f5a565b6001600160a01b03166370a082318b8b8a818110611d9a57634e487b7160e01b600052603260045260246000fd5b9050602002810190611dac9190615654565b611dba906020810190614f5a565b6040518263ffffffff1660e01b8152600401611dd6919061537c565b60206040518083038186803b158015611dee57600080fd5b505afa158015611e02573d6000803e3d6000fd5b505050506040513d601f19601f82011682018060405250810190611e2691906151b5565b9050826001600160a01b03166347e7ef248b8b8a818110611e5757634e487b7160e01b600052603260045260246000fd5b9050602002810190611e699190615654565b611e7790602081019061560d565b89818110611e9557634e487b7160e01b600052603260045260246000fd5b9050602002016020810190611eaa9190614f5a565b611eb485856156e8565b6040518363ffffffff1660e01b8152600401611ed1929190615390565b600060405180830381600087803b158015611eeb57600080fd5b505af1158015611eff573d6000803e3d6000fd5b50505050826001600160a01b031663775c300c6040518163ffffffff1660e01b8152600401600060405180830381600087803b158015611f3e57600080fd5b505af1158015611f52573d6000803e3d6000fd5b505050505050612041565b600083121561204157806001600160a01b031663f3fef3a3898988818110611f9557634e487b7160e01b600052603260045260246000fd5b9050602002810190611fa79190615654565b611fb590602081019061560d565b87818110611fd357634e487b7160e01b600052603260045260246000fd5b9050602002016020810190611fe89190614f5a565b611ff186614ab8565b6040518363ffffffff1660e01b815260040161200e929190615390565b600060405180830381600087803b15801561202857600080fd5b505af115801561203c573d6000803e3d6000fd5b505050505b505b846001600160a01b031663ee73ccae88888781811061207257634e487b7160e01b600052603260045260246000fd5b90506020028101906120849190615654565b612092906020810190614f5a565b8989888181106120b257634e487b7160e01b600052603260045260246000fd5b90506020028101906120c49190615654565b6120d5906060810190604001615285565b8a8a898181106120f557634e487b7160e01b600052603260045260246000fd5b90506020028101906121079190615654565b61211590602081019061560d565b8881811061213357634e487b7160e01b600052603260045260246000fd5b90506020020160208101906121489190614f5a565b61215187614ab8565b6040516001600160e01b031960e087901b1681526001600160a01b03948516600482015263ffffffff939093166024840152921660448201526064810191909152608401600060405180830381600087803b1580156121af57600080fd5b505af11580156121c3573d6000803e3d6000fd5b50505050505080806121d49061572b565b915050610e53565b50816001600160a01b03166343b17d6385858481811061220c57634e487b7160e01b600052603260045260246000fd5b905060200281019061221e9190615654565b61222c90602081019061560d565b6040518363ffffffff1660e01b81526004016122499291906153f9565b600060405180830381600087803b15801561226357600080fd5b505af1158015612277573d6000803e3d6000fd5b5050505080806122869061572b565b915050610d73565b50505050565b600080546040516337c61fc560e11b8152620100009091046001600160a01b031690636f8c3f8a906122cb90600390600401615472565b60206040518083038186803b1580156122e357600080fd5b505afa1580156122f7573d6000803e3d6000fd5b505050506040513d601f19601f8201168201806040525081019061231b9190614f76565b6001600160a01b0316637faa0597836040518263ffffffff1660e01b8152600401612346919061537c565b60206040518083038186803b15801561235e57600080fd5b505afa158015612372573d6000803e3d6000fd5b505050506040513d601f19601f820116820180604052508101906123969190615199565b6124005760405162461bcd60e51b815260206004820152603560248201527f5969656c644d616e616765723a3a67657452657365727665546f6b656e42616c604482015274185b98d94e88151bdad95b881b9bdd081859191959605a1b60648201526084016105b5565b600080546040516337c61fc560e11b81526001600160a01b03808616936370a082319362010000900490911691636f8c3f8a9161243f91600401615472565b60206040518083038186803b15801561245757600080fd5b505afa15801561246b573d6000803e3d6000fd5b505050506040513d601f19601f8201168201806040525081019061248f9190614f76565b6040518263ffffffff1660e01b81526004016124ab919061537c565b60206040518083038186803b1580156124c357600080fd5b505afa1580156124d7573d6000803e3d6000fd5b505050506040513d601f19601f820116820180604052508101906124fb91906151b5565b92915050565b600080546040516337c61fc560e11b8152620100009091046001600160a01b031691636f8c3f8a916125369190600401615472565b60206040518083038186803b15801561254e57600080fd5b505afa158015612562573d6000803e3d6000fd5b505050506040513d601f19601f820116820180604052508101906125869190614f76565b6001600160a01b031663f3ae2415336040518263ffffffff1660e01b81526004016125b1919061537c565b60206040518083038186803b1580156125c957600080fd5b505afa1580156125dd573d6000803e3d6000fd5b505050506040513d601f19601f820116820180604052508101906126019190615199565b61261d5760405162461bcd60e51b81526004016105b590615540565b6000838152600a602052604090204260028201558115612656578281600001600082825461264b9190615669565b9091555061228e9050565b8281600001600082825461266a91906156e8565b909155505050505050565b600054610100900460ff166126905760005460ff1615612694565b303b155b6126b05760405162461bcd60e51b81526004016105b5906154cd565b600054610100900460ff161580156126d2576000805461ffff19166101011790555b6001600160a01b0383166126f85760405162461bcd60e51b81526004016105b59061551b565b6001600160a01b03821661271e5760405162461bcd60e51b81526004016105b59061551b565b6127288a8a612c49565b60038890556004805463ffffffff8981166001600160401b031990921691909117600160201b8983160217600160401b600160801b031916600160401b8883160263ffffffff60601b191617600160601b91871691909102179055600680546001600160a01b03199081166001600160a01b03868116919091179092556007805490911691841691909117905580156127c7576000805461ff00191690555b50505050505050505050565b3360009081526001602052604090205460ff166128025760405162461bcd60e51b81526004016105b59061558e565b600080546040516337c61fc560e11b8152620100009091046001600160a01b031690636f8c3f8a9061283990600390600401615472565b60206040518083038186803b15801561285157600080fd5b505afa158015612865573d6000803e3d6000fd5b505050506040513d601f19601f820116820180604052508101906128899190614f76565b6001600160a01b0316638b9c94896040518163ffffffff1660e01b815260040160206040518083038186803b1580156128c157600080fd5b505afa1580156128d5573d6000803e3d6000fd5b505050506040513d601f19601f820116820180604052508101906128f99190614f76565b6000546040516337c61fc560e11b81526001600160a01b03928316926370a08231926201000090041690636f8c3f8a9061293890600690600401615472565b60206040518083038186803b15801561295057600080fd5b505afa158015612964573d6000803e3d6000fd5b505050506040513d601f19601f820116820180604052508101906129889190614f76565b6040518263ffffffff1660e01b81526004016129a4919061537c565b60206040518083038186803b1580156129bc57600080fd5b505afa1580156129d0573d6000803e3d6000fd5b505050506040513d601f19601f820116820180604052508101906129f491906151b5565b1115612bd8576000546040516337c61fc560e11b8152620100009091046001600160a01b031690636f8c3f8a90612a3090600690600401615472565b60206040518083038186803b158015612a4857600080fd5b505afa158015612a5c573d6000803e3d6000fd5b505050506040513d601f19601f82011682018060405250810190612a809190614f76565b6001600160a01b031663845fe1d0826040518263ffffffff1660e01b8152600401612aad91815260200190565b602060405180830381600087803b158015612ac757600080fd5b505af1158015612adb573d6000803e3d6000fd5b505050506040513d601f19601f82011682018060405250810190612aff9190615199565b506000546040516337c61fc560e11b8152620100009091046001600160a01b031690636f8c3f8a90612b35906004908101615472565b60206040518083038186803b158015612b4d57600080fd5b505afa158015612b61573d6000803e3d6000fd5b505050506040513d601f19601f82011682018060405250810190612b859190614f76565b6001600160a01b0316638c3b32ee6040518163ffffffff1660e01b8152600401600060405180830381600087803b158015612bbf57600080fd5b505af1158015612bd3573d6000803e3d6000fd5b505050505b50565b3360009081526001602052604090205460ff16612c0a5760405162461bcd60e51b81526004016105b59061558e565b6001600160a01b038316612c305760405162461bcd60e51b81526004016105b59061551b565b612c446001600160a01b03831684836140e3565b505050565b600054610100900460ff16612c645760005460ff1615612c68565b303b155b612c845760405162461bcd60e51b81526004016105b5906154cd565b600054610100900460ff16158015612ca6576000805461ffff19166101011790555b6001600160a01b038216612ccc5760405162461bcd60e51b81526004016105b59061551b565b60005b8351811015612d445760006001600160a01b0316848281518110612d0357634e487b7160e01b600052603260045260246000fd5b60200260200101516001600160a01b03161415612d325760405162461bcd60e51b81526004016105b59061551b565b80612d3c8161572b565b915050612ccf565b5060005b8351811015612dba576001806000868481518110612d7657634e487b7160e01b600052603260045260246000fd5b6020908102919091018101516001600160a01b03168252810191909152604001600020805460ff191691151591909117905580612db28161572b565b915050612d48565b508251612dce906002906020860190614dec565b50612dd882614b0c565b8015612c44576000805461ff0019169055505050565b3360009081526001602052604090205460ff16612e1d5760405162461bcd60e51b81526004016105b59061558e565b6001600160a01b038116612e435760405162461bcd60e51b81526004016105b59061551b565b600680546001600160a01b0319166001600160a01b0392909216919091179055565b600080546040516337c61fc560e11b8152620100009091046001600160a01b031691636f8c3f8a91612e9a9190600401615472565b60206040518083038186803b158015612eb257600080fd5b505afa158015612ec6573d6000803e3d6000fd5b505050506040513d601f19601f82011682018060405250810190612eea9190614f76565b6001600160a01b031663f3ae2415336040518263ffffffff1660e01b8152600401612f15919061537c565b60206040518083038186803b158015612f2d57600080fd5b505afa158015612f41573d6000803e3d6000fd5b505050506040513d601f19601f82011682018060405250810190612f659190615199565b612f815760405162461bcd60e51b81526004016105b590615540565b600080546040516337c61fc560e11b8152620100009091046001600160a01b031690636f8c3f8a90612fb890600390600401615472565b60206040518083038186803b158015612fd057600080fd5b505afa158015612fe4573d6000803e3d6000fd5b505050506040513d601f19601f820116820180604052508101906130089190614f76565b90506000816001600160a01b0316638b9c94896040518163ffffffff1660e01b815260040160206040518083038186803b15801561304557600080fd5b505afa158015613059573d6000803e3d6000fd5b505050506040513d601f19601f8201168201806040525081019061307d9190614f76565b6040516370a0823160e01b815290915081906000906001600160a01b038316906370a08231906130b190309060040161537c565b60206040518083038186803b1580156130c957600080fd5b505afa1580156130dd573d6000803e3d6000fd5b505050506040513d601f19601f8201168201806040525081019061310191906151b5565b905060005b878110156131a65788888281811061312e57634e487b7160e01b600052603260045260246000fd5b90506020020160208101906131439190614f5a565b6001600160a01b031663e8d991d16040518163ffffffff1660e01b8152600401600060405180830381600087803b15801561317d57600080fd5b505af1158015613191573d6000803e3d6000fd5b505050508061319f9061572b565b9050613106565b50600081836001600160a01b03166370a08231306040518263ffffffff1660e01b81526004016131d6919061537c565b60206040518083038186803b1580156131ee57600080fd5b505afa158015613202573d6000803e3d6000fd5b505050506040513d601f19601f8201168201806040525081019061322691906151b5565b61323091906156e8565b905085156132795760008a8152600a6020526040812090886132525782613254565b885b426002840155825490915081908390600090613271908490615669565b909155505050505b7fa9a14fcdc28aab52a344552b438679255aeba8f4b5da515e4235df36939feec08a8a8a846040516132ae94939291906155e2565b60405180910390a150505050505050505050565b600080546040516337c61fc560e11b8152620100009091046001600160a01b031691636f8c3f8a916132f79190600401615472565b60206040518083038186803b15801561330f57600080fd5b505afa158015613323573d6000803e3d6000fd5b505050506040513d601f19601f820116820180604052508101906133479190614f76565b6001600160a01b0316632f54bf6e336040518263ffffffff1660e01b8152600401613372919061537c565b60206040518083038186803b15801561338a57600080fd5b505afa15801561339e573d6000803e3d6000fd5b505050506040513d601f19601f820116820180604052508101906133c29190615199565b6134215760405162461bcd60e51b815260206004820152602a60248201527f436f6e74726f6c6c65643a3a6f6e6c794f776e65723a2043616c6c6572206973604482015269103737ba1037bbb732b960b11b60648201526084016105b5565b6001600160a01b03811660009081526001602081905260408220805460ff19169091179055805b6002548110156134a9576002818154811061347357634e487b7160e01b600052603260045260246000fd5b6000918252602090912001546001600160a01b038481169116141561349757600191505b806134a18161572b565b915050613448565b50806134fb57600280546001810182556000919091527f405787fa12a823e0f2b7631cc41b3ba8828b3321ca811111fa75cd3aa3bb5ace0180546001600160a01b0319166001600160a01b0384161790555b5050565b3360009081526001602052604090205460ff1661352e5760405162461bcd60e51b81526004016105b59061558e565b6001600160a01b0381166135545760405162461bcd60e51b81526004016105b59061551b565b600780546001600160a01b0319166001600160a01b0392909216919091179055565b600080546040516337c61fc560e11b8152620100009091046001600160a01b031690636f8c3f8a906135ad90600390600401615472565b60206040518083038186803b1580156135c557600080fd5b505afa1580156135d9573d6000803e3d6000fd5b505050506040513d601f19601f820116820180604052508101906135fd9190614f76565b6001600160a01b0316637faa0597836040518263ffffffff1660e01b8152600401613628919061537c565b60206040518083038186803b15801561364057600080fd5b505afa158015613654573d6000803e3d6000fd5b505050506040513d601f19601f820116820180604052508101906136789190615199565b6136e95760405162461bcd60e51b815260206004820152603c60248201527f5969656c644d616e616765723a3a67657444657369726564526573657276655460448201527b1bdad95b90985b185b98d94e88151bdad95b881b9bdd08185919195960221b60648201526084016105b5565b600080546040516337c61fc560e11b8152620100009091046001600160a01b031690636f8c3f8a9061372090600390600401615472565b60206040518083038186803b15801561373857600080fd5b505afa15801561374c573d6000803e3d6000fd5b505050506040513d601f19601f820116820180604052508101906137709190614f76565b6001600160a01b03166385cce6ca846040518263ffffffff1660e01b815260040161379b919061537c565b60206040518083038186803b1580156137b357600080fd5b505afa1580156137c7573d6000803e3d6000fd5b505050506040513d601f19601f820116820180604052508101906137eb91906151b5565b600080546040516337c61fc560e11b81529293509091620100009091046001600160a01b031690636f8c3f8a9061382790600890600401615472565b60206040518083038186803b15801561383f57600080fd5b505afa158015613853573d6000803e3d6000fd5b505050506040513d601f19601f820116820180604052508101906138779190614f76565b6001600160a01b031663a742d0b6856040518263ffffffff1660e01b81526004016138a2919061537c565b60206040518083038186803b1580156138ba57600080fd5b505afa1580156138ce573d6000803e3d6000fd5b505050506040513d601f19601f820116820180604052508101906138f291906151b5565b6000546040516337c61fc560e11b81529192506201000090046001600160a01b031690636f8c3f8a9061392a90600390600401615472565b60206040518083038186803b15801561394257600080fd5b505afa158015613956573d6000803e3d6000fd5b505050506040513d601f19601f8201168201806040525081019061397a9190614f76565b6001600160a01b031663e87e53aa6040518163ffffffff1660e01b815260040160206040518083038186803b1580156139b257600080fd5b505afa1580156139c6573d6000803e3d6000fd5b505050506040513d601f19601f820116820180604052508101906139ea91906152a1565b63ffffffff166139fa83836156c9565b613a0491906156a9565b949350505050565b613a3060405180606001604052806000815260200160008152602001600081525090565b506000908152600a6020908152604091829020825160608101845281548152600182015492810192909252600201549181019190915290565b3360009081526001602052604090205460ff16613a985760405162461bcd60e51b81526004016105b59061558e565b6004805463ffffffff9586166001600160401b031990911617600160201b9486169490940293909317600160401b600160801b031916600160401b9285169290920263ffffffff60601b191691909117600160601b9190931602919091179055565b60028181548110613b0a57600080fd5b6000918252602090912001546001600160a01b0316905081565b600080546040516337c61fc560e11b815282916201000090046001600160a01b031690636f8c3f8a90613b5c90600390600401615472565b60206040518083038186803b158015613b7457600080fd5b505afa158015613b88573d6000803e3d6000fd5b505050506040513d601f19601f82011682018060405250810190613bac9190614f76565b90506000816001600160a01b0316637d6145d36040518163ffffffff1660e01b815260040160206040518083038186803b158015613be957600080fd5b505afa158015613bfd573d6000803e3d6000fd5b505050506040513d601f19601f82011682018060405250810190613c2191906151b5565b905060005b81811015613d3f57604051630dd0cf1f60e11b8152600481018290526001600160a01b03841690631ba19e3e9060240160206040518083038186803b158015613c6e57600080fd5b505afa158015613c82573d6000803e3d6000fd5b505050506040513d601f19601f82011682018060405250810190613ca69190614f76565b6001600160a01b031663f8b2cb4f866040518263ffffffff1660e01b8152600401613cd1919061537c565b60206040518083038186803b158015613ce957600080fd5b505afa158015613cfd573d6000803e3d6000fd5b505050506040513d601f19601f82011682018060405250810190613d2191906151b5565b613d2b9085615669565b935080613d378161572b565b915050613c26565b505050919050565b600080546040516337c61fc560e11b8152606092916201000090046001600160a01b031690636f8c3f8a90613d8190600390600401615472565b60206040518083038186803b158015613d9957600080fd5b505afa158015613dad573d6000803e3d6000fd5b505050506040513d601f19601f82011682018060405250810190613dd19190614f76565b90506000816001600160a01b0316637d6145d36040518163ffffffff1660e01b815260040160206040518083038186803b158015613e0e57600080fd5b505afa158015613e22573d6000803e3d6000fd5b505050506040513d601f19601f82011682018060405250810190613e4691906151b5565b9050806001600160401b03811115613e6e57634e487b7160e01b600052604160045260246000fd5b604051908082528060200260200182016040528015613eb957816020015b6040805160608101825260008082526020808301829052928201528252600019909201910181613e8c5790505b50925060005b81811015613d3f57604051630dd0cf1f60e11b8152600481018290526000906001600160a01b03851690631ba19e3e9060240160206040518083038186803b158015613f0a57600080fd5b505afa158015613f1e573d6000803e3d6000fd5b505050506040513d601f19601f82011682018060405250810190613f429190614f76565b90506000816001600160a01b031663537bb137886040518263ffffffff1660e01b8152600401613f72919061537c565b60206040518083038186803b158015613f8a57600080fd5b505afa158015613f9e573d6000803e3d6000fd5b505050506040513d601f19601f82011682018060405250810190613fc291906151b5565b90506040518060600160405280836001600160a01b03168152602001886001600160a01b031681526020018281525086848151811061401157634e487b7160e01b600052603260045260246000fd5b6020026020010181905250505080806140299061572b565b915050613ebf565b600080600080600061404161053a565b60045463ffffffff9182169250829161405b9116886156c9565b61406591906156a9565b600454909550819061408490600160201b900463ffffffff16886156c9565b61408e91906156a9565b60045490945081906140ad90600160401b900463ffffffff16886156c9565b6140b791906156a9565b925082846140c587896156e8565b6140cf91906156e8565b6140d991906156e8565b9150509193509193565b612c448363a9059cbb60e01b8484604051602401614102929190615390565b60408051601f198184030181529190526020810180516001600160e01b03166001600160e01b031990931692909217909152614ba0565b6000546040516337c61fc560e11b8152620100009091046001600160a01b031690636f8c3f8a9061416f90600c90600401615472565b60206040518083038186803b15801561418757600080fd5b505afa9250505080156141b7575060408051601f3d908101601f191682019092526141b491810190614f76565b60015b61421957604051632e1a7d4d60e01b8152600481018390526001600160a01b03821690632e1a7d4d90602401600060405180830381600087803b1580156141fd57600080fd5b505af1158015614211573d6000803e3d6000fd5b505050505050565b6001600160a01b0381161561429c5761423c6001600160a01b03831682856140e3565b604051636f074d1f60e11b8152600481018490526001600160a01b0382169063de0e9a3e906024015b600060405180830381600087803b15801561427f57600080fd5b505af1158015614293573d6000803e3d6000fd5b50505050505050565b604051632e1a7d4d60e01b8152600481018490526001600160a01b03831690632e1a7d4d90602401614265565b6000816001600160a01b03168360405160006040518083038185875af1925050503d8060008114614316576040519150601f19603f3d011682016040523d82523d6000602084013e61431b565b606091505b5050905080612c445760405162461bcd60e51b81526020600482015260186024820152774661696c656420746f207472616e736665722076616c756560401b60448201526064016105b5565b600080546040516337c61fc560e11b8152620100009091046001600160a01b031690636f8c3f8a9061439e90600390600401615472565b60206040518083038186803b1580156143b657600080fd5b505afa1580156143ca573d6000803e3d6000fd5b505050506040513d601f19601f820116820180604052508101906143ee9190614f76565b600080546040516337c61fc560e11b81529293509091620100009091046001600160a01b031690636f8c3f8a9061442a90600190600401615472565b60206040518083038186803b15801561444257600080fd5b505afa158015614456573d6000803e3d6000fd5b505050506040513d601f19601f8201168201806040525081019061447a9190614f76565b6001600160a01b031663f5465992836001600160a01b03166344fc9b566040518163ffffffff1660e01b815260040160206040518083038186803b1580156144c157600080fd5b505afa1580156144d5573d6000803e3d6000fd5b505050506040513d601f19601f820116820180604052508101906144f99190614f76565b6040518263ffffffff1660e01b8152600401614515919061537c565b60206040518083038186803b15801561452d57600080fd5b505afa158015614541573d6000803e3d6000fd5b505050506040513d601f19601f8201168201806040525081019061456591906151b5565b111561475c576000546040516337c61fc560e11b8152620100009091046001600160a01b031690636f8c3f8a906145a190600590600401615472565b60206040518083038186803b1580156145b957600080fd5b505afa1580156145cd573d6000803e3d6000fd5b505050506040513d601f19601f820116820180604052508101906145f19190614f76565b60405163f4f104b560e01b815260006004820152602481018490526001600160a01b03919091169063f4f104b590604401600060405180830381600087803b15801561463c57600080fd5b505af1158015614650573d6000803e3d6000fd5b505050506146ce82826001600160a01b0316638b9c94896040518163ffffffff1660e01b815260040160206040518083038186803b15801561469157600080fd5b505afa1580156146a5573d6000803e3d6000fd5b505050506040513d601f19601f820116820180604052508101906146c99190614f76565b614139565b600080546040516337c61fc560e11b81526134fb9285926201000090046001600160a01b031691636f8c3f8a9161470791600401615472565b60206040518083038186803b15801561471f57600080fd5b505afa158015614733573d6000803e3d6000fd5b505050506040513d601f19601f820116820180604052508101906147579190614f76565b6142c9565b806001600160a01b0316638b9c94896040518163ffffffff1660e01b815260040160206040518083038186803b15801561479557600080fd5b505afa1580156147a9573d6000803e3d6000fd5b505050506040513d601f19601f820116820180604052508101906147cd9190614f76565b600080546040516337c61fc560e11b81526001600160a01b039384169363a9059cbb93620100009093041691636f8c3f8a9161480c9190600401615472565b60206040518083038186803b15801561482457600080fd5b505afa158015614838573d6000803e3d6000fd5b505050506040513d601f19601f8201168201806040525081019061485c9190614f76565b846040518363ffffffff1660e01b815260040161487a929190615390565b602060405180830381600087803b15801561489457600080fd5b505af11580156148a8573d6000803e3d6000fd5b505050506040513d601f19601f82011682018060405250810190612c449190615199565b80156134fb576000546040516337c61fc560e11b8152620100009091046001600160a01b031690636f8c3f8a9061490890600590600401615472565b60206040518083038186803b15801561492057600080fd5b505afa158015614934573d6000803e3d6000fd5b505050506040513d601f19601f820116820180604052508101906149589190614f76565b60405163f4f104b560e01b815260048101849052602481018390526001600160a01b03919091169063f4f104b590604401600060405180830381600087803b1580156149a357600080fd5b505af11580156149b7573d6000803e3d6000fd5b50506000546040516337c61fc560e11b8152614a7f9350849250620100009091046001600160a01b031690636f8c3f8a906149f790600390600401615472565b60206040518083038186803b158015614a0f57600080fd5b505afa158015614a23573d6000803e3d6000fd5b505050506040513d601f19601f82011682018060405250810190614a479190614f76565b6001600160a01b0316638b9c94896040518163ffffffff1660e01b815260040160206040518083038186803b15801561469157600080fd5b600080546040516337c61fc560e11b81526134fb9284926201000090046001600160a01b031691636f8c3f8a9161470791600401615472565b600080821215614ad057614acb82615746565b6124fb565b5090565b6040516001600160a01b038085166024830152831660448201526064810182905261228e9085906323b872dd60e01b90608401614102565b600054610100900460ff16614b275760005460ff1615614b2b565b303b155b614b475760405162461bcd60e51b81526004016105b5906154cd565b600054610100900460ff16158015614b69576000805461ffff19166101011790555b6000805462010000600160b01b031916620100006001600160a01b0385160217905580156134fb576000805461ff00191690555050565b6000614bf5826040518060400160405280602081526020017f5361666545524332303a206c6f772d6c6576656c2063616c6c206661696c6564815250856001600160a01b0316614c729092919063ffffffff16565b805190915015612c445780806020019051810190614c139190615199565b612c445760405162461bcd60e51b815260206004820152602a60248201527f5361666545524332303a204552433230206f7065726174696f6e20646964206e6044820152691bdd081cdd58d8d9595960b21b60648201526084016105b5565b6060614c818484600085614c8b565b90505b9392505050565b606082471015614cec5760405162461bcd60e51b815260206004820152602660248201527f416464726573733a20696e73756666696369656e742062616c616e636520666f6044820152651c8818d85b1b60d21b60648201526084016105b5565b843b614d3a5760405162461bcd60e51b815260206004820152601d60248201527f416464726573733a2063616c6c20746f206e6f6e2d636f6e747261637400000060448201526064016105b5565b600080866001600160a01b03168587604051614d569190615360565b60006040518083038185875af1925050503d8060008114614d93576040519150601f19603f3d011682016040523d82523d6000602084013e614d98565b606091505b5091509150614da8828286614db3565b979650505050505050565b60608315614dc2575081614c84565b825115614dd25782518084602001fd5b8160405162461bcd60e51b81526004016105b5919061549a565b828054828255906000526020600020908101928215614e41579160200282015b82811115614e4157825182546001600160a01b0319166001600160a01b03909116178255602090920191600190910190614e0c565b50614ad09291505b80821115614ad05760008155600101614e49565b8035614e688161578c565b919050565b60008083601f840112614e7e578182fd5b5081356001600160401b03811115614e94578182fd5b6020830191508360208260051b8501011115614eaf57600080fd5b9250929050565b600082601f830112614ec6578081fd5b813560206001600160401b0380831115614ee257614ee2615776565b8260051b604051601f19603f83011681018181108482111715614f0757614f07615776565b60405284815283810192508684018288018501891015614f25578687fd5b8692505b85831015614f4e57614f3a81614e5d565b845292840192600192909201918401614f29565b50979650505050505050565b600060208284031215614f6b578081fd5b8135614c848161578c565b600060208284031215614f87578081fd5b8151614c848161578c565b600080600060608486031215614fa6578182fd5b8335614fb18161578c565b92506020840135614fc18161578c565b929592945050506040919091013590565b60008060408385031215614fe4578182fd5b82356001600160401b03811115614ff9578283fd5b61500585828601614eb6565b92505060208301356150168161578c565b809150509250929050565b60008060008060008060008060006101208a8c03121561503f578485fd5b89356001600160401b03811115615054578586fd5b6150608c828d01614eb6565b99505060208a01356150718161578c565b975060408a0135965060608a0135615088816157af565b955060808a0135615098816157af565b945060a08a01356150a8816157af565b935060c08a01356150b8816157af565b925060e08a01356150c88161578c565b91506101008a01356150d98161578c565b809150509295985092959850929598565b600080602083850312156150fc578182fd5b82356001600160401b03811115615111578283fd5b61511d85828601614e6d565b90969095509350505050565b600080600080600060608688031215615140578081fd5b85356001600160401b0380821115615156578283fd5b61516289838a01614e6d565b9097509550602088013591508082111561517a578283fd5b5061518788828901614e6d565b96999598509660400135949350505050565b6000602082840312156151aa578081fd5b8151614c84816157a1565b6000602082840312156151c6578081fd5b5051919050565b6000602082840312156151de578081fd5b5035919050565b6000806000806000608086880312156151fc578283fd5b8535945060208601356001600160401b03811115615218578384fd5b61522488828901614e6d565b90955093505060408601359150606086013561523f816157a1565b809150509295509295909350565b600080600060608486031215615261578081fd5b8335925060208401359150604084013561527a816157a1565b809150509250925092565b600060208284031215615296578081fd5b8135614c84816157af565b6000602082840312156152b2578081fd5b8151614c84816157af565b600080600080608085870312156152d2578182fd5b84356152dd816157af565b935060208501356152ed816157af565b925060408501356152fd816157af565b9150606085013561530d816157af565b939692955090935050565b81835260006020808501945082825b8581101561535557813561533a8161578c565b6001600160a01b031687529582019590820190600101615327565b509495945050505050565b600082516153728184602087016156ff565b9190910192915050565b6001600160a01b0391909116815260200190565b6001600160a01b03929092168252602082015260400190565b6001600160a01b03939093168352602083019190915263ffffffff16604082015260600190565b6001600160a01b03938416815263ffffffff929092166020830152909116604082015260600190565b602081526000614c81602083018486615318565b602080825282518282018190526000919060409081850190868401855b8281101561546557815180516001600160a01b039081168652878201511687860152850151858501526060909301929085019060010161542a565b5091979650505050505050565b60208101600d831061549457634e487b7160e01b600052602160045260246000fd5b91905290565b60208152600082518060208401526154b98160408501602087016156ff565b601f01601f19169190910160400192915050565b6020808252602e908201527f496e697469616c697a61626c653a20636f6e747261637420697320616c72656160408201526d191e481a5b9a5d1a585b1a5e995960921b606082015260800190565b6020808252600b908201526a626164206164647265737360a81b604082015260600190565b6020808252602e908201527f436f6e74726f6c6c65643a3a6f6e6c794d616e616765723a2043616c6c65722060408201526d34b9903737ba1036b0b730b3b2b960911b606082015260800190565b60208082526034908201527f436f6e74726f6c6c65643a3a6f6e6c79436f6e74726f6c6c65723a2043616c6c60408201527332b91034b9903737ba1031b7b73a3937b63632b960611b606082015260800190565b8481526060602082015260006155fc606083018587615318565b905082604083015295945050505050565b6000808335601e19843603018112615623578283fd5b8301803591506001600160401b0382111561563c578283fd5b6020019150600581901b3603821315614eaf57600080fd5b60008235605e19833603018112615372578182fd5b6000821982111561567c5761567c615760565b500190565b600063ffffffff8083168185168083038211156156a0576156a0615760565b01949350505050565b6000826156c457634e487b7160e01b81526012600452602481fd5b500490565b60008160001904831182151516156156e3576156e3615760565b500290565b6000828210156156fa576156fa615760565b500390565b60005b8381101561571a578181015183820152602001615702565b8381111561228e5750506000910152565b600060001982141561573f5761573f615760565b5060010190565b6000600160ff1b82141561575c5761575c615760565b0390565b634e487b7160e01b600052601160045260246000fd5b634e487b7160e01b600052604160045260246000fd5b6001600160a01b0381168114612bd857600080fd5b8015158114612bd857600080fd5b63ffffffff81168114612bd857600080fdfea26469706673582212206d929b4b4d59b07b221c0f5ea47a8faf281542157792bde06ebd1eb286e6dd9f64736f6c63430008040033",
  "devdoc": {
    "kind": "dev",
    "methods": {
      "biosBuyBack(uint256)": {
        "params": {
          "ratioX1000": "BIOS/WETH ratio for front runner protection"
        }
      },
      "distributeEth(uint256[],uint256[],uint256)": {
        "params": {
          "biosAmount": "Amount of bios deposited to prevent flashing",
          "ids": "An aray of strategy IDs to distribute eth for",
          "positions": "An array of the total position value for the strategy to prevent flashing"
        }
      },
      "getDesiredReserveTokenBalance(address)": {
        "params": {
          "tokenAddress": "The address of the token ERC20 contract"
        },
        "returns": {
          "_0": "The desired amount of the token to hold in the Kernel as reserves"
        }
      },
      "getEthDistributionWeights()": {
        "returns": {
          "_0": "The BIOS buyback ETH weight",
          "_1": "The Treasury ETH weight",
          "_2": "The Protocol fee ETH weight",
          "_3": "The rewards ETH weight"
        }
      },
      "getEthWeightSum()": {
        "returns": {
          "ethWeightSum": "The sum of ETH distribution weights"
        }
      },
      "getGasAccount()": {
        "returns": {
          "_0": "The address of the gas account"
        }
      },
      "getGasAccountTargetEthBalance()": {
        "returns": {
          "_0": "The target ETH balance of the gas account"
        }
      },
      "getLastEthRewardsAmount()": {
        "returns": {
          "_0": "The last amount of ETH distributed to rewards"
        }
      },
      "getLastHarvestYieldTimestamp(address)": {
        "returns": {
          "_0": "The timestamp the harvestYield function was last called"
        }
      },
      "getReserveTokenBalance(address)": {
        "params": {
          "tokenAddress": "The address of the token ERC20 contract"
        },
        "returns": {
          "_0": "The amount of the token held in the Kernel as reserves"
        }
      },
      "getTokenTotalIntegrationBalance(address)": {
        "params": {
          "tokenAddress": "The address of the token ERC20 contract"
        },
        "returns": {
          "tokenTotalIntegrationBalance": "The total amount of the token that can be withdrawn from integrations"
        }
      },
      "getTreasuryAccount()": {
        "returns": {
          "_0": "The address of the treasury account"
        }
      },
      "harvestYield(uint256,address[],uint256,bool)": {
        "params": {
          "integrations": "The integrations to harvest yield from",
          "strategyId": "Strategy to credit the yield to"
        }
      },
      "initialize(address[],address,uint256,uint32,uint32,uint32,uint32,address,address)": {
        "params": {
          "biosBuyBackEthWeight_": "The relative weight of ETH to send to BIOS buy back",
          "controllers_": "The addresses of the controlling contracts",
          "gasAccountTargetEthBalance_": "The target ETH balance of the gas account",
          "gasAccount_": "The address of the account to send ETH to gas for executing bulk system functions",
          "moduleMap_": "Address of the Module Map",
          "protocolFeeEthWeight_": "The relative weight of ETH to send to protocol fee accrual",
          "rewardsEthWeight_": "The relative weight of ETH to send to user rewards",
          "treasuryAccount_": "The address of the system treasury account",
          "treasuryEthWeight_": "The relative weight of ETH to send to the treasury"
        }
      },
      "updateEthDistributionWeights(uint32,uint32,uint32,uint32)": {
        "params": {
          "biosBuyBackEthWeight_": "The relative weight of ETH to send to BIOS buy back",
          "protocolFeeEthWeight_": "The relative weight of ETH to send to protocol fee accrual",
          "rewardsEthWeight_": "The relative weight of ETH to send to user rewards",
          "treasuryEthWeight_": "The relative weight of ETH to send to the treasury"
        }
      },
      "updateGasAccount(address)": {
        "params": {
          "gasAccount_": "The address of the account to send ETH to gas for executing bulk system functions"
        }
      },
      "updateGasAccountTargetEthBalance(uint256)": {
        "params": {
          "gasAccountTargetEthBalance_": "The target ETH balance of the gas account"
        }
      },
      "updateTreasuryAccount(address)": {
        "params": {
          "treasuryAccount_": "The address of the system treasury account"
        }
      }
    },
    "title": "Yield Manager",
    "version": 1
  },
  "userdoc": {
    "kind": "user",
    "methods": {
      "biosBuyBack(uint256)": {
        "notice": "Uses any WETH held in the SushiSwap trader to buy back BIOS which is sent to the Kernel"
      },
      "deploy((address,address[],uint32)[])": {
        "notice": "Deploys all tokens to all integrations according to configured weights"
      },
      "distributeEth(uint256[],uint256[],uint256)": {
        "notice": "Distributes ETH to the gas account, BIOS buy back, treasury, protocol fee accrual, and user rewards"
      },
      "harvestYield(uint256,address[],uint256,bool)": {
        "notice": "Harvests available yield from provided and integration, credited to strategy"
      }
    },
    "notice": "Manages yield deployments, harvesting, processing, and distribution",
    "version": 1
  },
  "storageLayout": {
    "storage": [
      {
        "astId": 723,
        "contract": "contracts/core/YieldManager.sol:YieldManager",
        "label": "_initialized",
        "offset": 0,
        "slot": "0",
        "type": "t_bool"
      },
      {
        "astId": 726,
        "contract": "contracts/core/YieldManager.sol:YieldManager",
        "label": "_initializing",
        "offset": 1,
        "slot": "0",
        "type": "t_bool"
      },
      {
        "astId": 9850,
        "contract": "contracts/core/YieldManager.sol:YieldManager",
        "label": "moduleMap",
        "offset": 2,
        "slot": "0",
        "type": "t_contract(IModuleMap)20496"
      },
      {
        "astId": 4667,
        "contract": "contracts/core/YieldManager.sol:YieldManager",
        "label": "_controllers",
        "offset": 0,
        "slot": "1",
        "type": "t_mapping(t_address,t_bool)"
      },
      {
        "astId": 4670,
        "contract": "contracts/core/YieldManager.sol:YieldManager",
        "label": "controllers",
        "offset": 0,
        "slot": "2",
        "type": "t_array(t_address)dyn_storage"
      },
      {
        "astId": 17122,
        "contract": "contracts/core/YieldManager.sol:YieldManager",
        "label": "gasAccountTargetEthBalance",
        "offset": 0,
        "slot": "3",
        "type": "t_uint256"
      },
      {
        "astId": 17124,
        "contract": "contracts/core/YieldManager.sol:YieldManager",
        "label": "biosBuyBackEthWeight",
        "offset": 0,
        "slot": "4",
        "type": "t_uint32"
      },
      {
        "astId": 17126,
        "contract": "contracts/core/YieldManager.sol:YieldManager",
        "label": "treasuryEthWeight",
        "offset": 4,
        "slot": "4",
        "type": "t_uint32"
      },
      {
        "astId": 17128,
        "contract": "contracts/core/YieldManager.sol:YieldManager",
        "label": "protocolFeeEthWeight",
        "offset": 8,
        "slot": "4",
        "type": "t_uint32"
      },
      {
        "astId": 17130,
        "contract": "contracts/core/YieldManager.sol:YieldManager",
        "label": "rewardsEthWeight",
        "offset": 12,
        "slot": "4",
        "type": "t_uint32"
      },
      {
        "astId": 17132,
        "contract": "contracts/core/YieldManager.sol:YieldManager",
        "label": "lastEthRewardsAmount",
        "offset": 0,
        "slot": "5",
        "type": "t_uint256"
      },
      {
        "astId": 17134,
        "contract": "contracts/core/YieldManager.sol:YieldManager",
        "label": "gasAccount",
        "offset": 0,
        "slot": "6",
        "type": "t_address_payable"
      },
      {
        "astId": 17136,
        "contract": "contracts/core/YieldManager.sol:YieldManager",
        "label": "treasuryAccount",
        "offset": 0,
        "slot": "7",
        "type": "t_address_payable"
      },
      {
        "astId": 17140,
        "contract": "contracts/core/YieldManager.sol:YieldManager",
        "label": "processedWethByToken",
        "offset": 0,
        "slot": "8",
        "type": "t_mapping(t_address,t_uint256)"
      },
      {
        "astId": 17144,
        "contract": "contracts/core/YieldManager.sol:YieldManager",
        "label": "lastHarvestTimestampByIntegration",
        "offset": 0,
        "slot": "9",
        "type": "t_mapping(t_address,t_uint256)"
      },
      {
        "astId": 17149,
        "contract": "contracts/core/YieldManager.sol:YieldManager",
        "label": "strategies",
        "offset": 0,
        "slot": "10",
        "type": "t_mapping(t_uint256,t_struct(StrategyInfo)22649_storage)"
      }
    ],
    "types": {
      "t_address": {
        "encoding": "inplace",
        "label": "address",
        "numberOfBytes": "20"
      },
      "t_address_payable": {
        "encoding": "inplace",
        "label": "address payable",
        "numberOfBytes": "20"
      },
      "t_array(t_address)dyn_storage": {
        "base": "t_address",
        "encoding": "dynamic_array",
        "label": "address[]",
        "numberOfBytes": "32"
      },
      "t_bool": {
        "encoding": "inplace",
        "label": "bool",
        "numberOfBytes": "1"
      },
      "t_contract(IModuleMap)20496": {
        "encoding": "inplace",
        "label": "contract IModuleMap",
        "numberOfBytes": "20"
      },
      "t_mapping(t_address,t_bool)": {
        "encoding": "mapping",
        "key": "t_address",
        "label": "mapping(address => bool)",
        "numberOfBytes": "32",
        "value": "t_bool"
      },
      "t_mapping(t_address,t_uint256)": {
        "encoding": "mapping",
        "key": "t_address",
        "label": "mapping(address => uint256)",
        "numberOfBytes": "32",
        "value": "t_uint256"
      },
      "t_mapping(t_uint256,t_struct(StrategyInfo)22649_storage)": {
        "encoding": "mapping",
        "key": "t_uint256",
        "label": "mapping(uint256 => struct IYieldManager.StrategyInfo)",
        "numberOfBytes": "32",
        "value": "t_struct(StrategyInfo)22649_storage"
      },
      "t_struct(StrategyInfo)22649_storage": {
        "encoding": "inplace",
        "label": "struct IYieldManager.StrategyInfo",
        "members": [
          {
            "astId": 22644,
            "contract": "contracts/core/YieldManager.sol:YieldManager",
            "label": "processedWeth",
            "offset": 0,
            "slot": "0",
            "type": "t_uint256"
          },
          {
            "astId": 22646,
            "contract": "contracts/core/YieldManager.sol:YieldManager",
            "label": "distributedWeth",
            "offset": 0,
            "slot": "1",
            "type": "t_uint256"
          },
          {
            "astId": 22648,
            "contract": "contracts/core/YieldManager.sol:YieldManager",
            "label": "lastHarvest",
            "offset": 0,
            "slot": "2",
            "type": "t_uint256"
          }
        ],
        "numberOfBytes": "96"
      },
      "t_uint256": {
        "encoding": "inplace",
        "label": "uint256",
        "numberOfBytes": "32"
      },
      "t_uint32": {
        "encoding": "inplace",
        "label": "uint32",
        "numberOfBytes": "4"
      }
    }
  }
}