{
  "address": "0xb04A96A3BCbdDF5331aF33E36C415Cb9e6B4672d",
  "abi": [
    {
      "anonymous": false,
      "inputs": [
        {
          "indexed": true,
          "internalType": "address",
          "name": "tokenA",
          "type": "address"
        },
        {
          "indexed": true,
          "internalType": "address",
          "name": "tokenB",
          "type": "address"
        },
        {
          "indexed": false,
          "internalType": "uint32",
          "name": "poolID",
          "type": "uint32"
        }
      ],
      "name": "CreatePool",
      "type": "event"
    },
    {
      "anonymous": false,
      "inputs": [
        {
          "indexed": false,
          "internalType": "uint256",
          "name": "poolId",
          "type": "uint256"
        },
        {
          "indexed": false,
          "internalType": "uint256",
          "name": "amount",
          "type": "uint256"
        }
      ],
      "name": "DepositToPool",
      "type": "event"
    },
    {
      "anonymous": false,
      "inputs": [
        {
          "indexed": true,
          "internalType": "uint32",
          "name": "poolID",
          "type": "uint32"
        }
      ],
      "name": "HarvestYieldError",
      "type": "event"
    },
    {
      "anonymous": false,
      "inputs": [
        {
          "indexed": false,
          "internalType": "uint256",
          "name": "amount",
          "type": "uint256"
        }
      ],
      "name": "LPTokensAcquired",
      "type": "event"
    },
    {
      "anonymous": false,
      "inputs": [
        {
          "indexed": false,
          "internalType": "uint256",
          "name": "poolId",
          "type": "uint256"
        },
        {
          "indexed": false,
          "internalType": "address",
          "name": "tokenSold",
          "type": "address"
        },
        {
          "indexed": false,
          "internalType": "uint256",
          "name": "amountSold",
          "type": "uint256"
        },
        {
          "indexed": false,
          "internalType": "address",
          "name": "tokenBought",
          "type": "address"
        },
        {
          "indexed": false,
          "internalType": "uint256",
          "name": "amountBought",
          "type": "uint256"
        }
      ],
      "name": "PoolRebalanced",
      "type": "event"
    },
    {
      "anonymous": false,
      "inputs": [
        {
          "indexed": false,
          "internalType": "uint256",
          "name": "amount",
          "type": "uint256"
        }
      ],
      "name": "TokensReceived",
      "type": "event"
    },
    {
      "anonymous": false,
      "inputs": [
        {
          "indexed": false,
          "internalType": "uint256",
          "name": "poolId",
          "type": "uint256"
        },
        {
          "indexed": false,
          "internalType": "uint256",
          "name": "amount",
          "type": "uint256"
        }
      ],
      "name": "WithdrawnFromPool",
      "type": "event"
    },
    {
      "anonymous": false,
      "inputs": [
        {
          "indexed": false,
          "internalType": "uint256",
          "name": "amount",
          "type": "uint256"
        }
      ],
      "name": "YieldReceived",
      "type": "event"
    },
    {
      "inputs": [
        {
          "internalType": "address[]",
          "name": "controllers_",
          "type": "address[]"
        },
        {
          "internalType": "address",
          "name": "moduleMap_",
          "type": "address"
        }
      ],
      "name": "__Controlled_init",
      "outputs": [],
      "stateMutability": "nonpayable",
      "type": "function"
    },
    {
      "inputs": [
        {
          "internalType": "address",
          "name": "controller",
          "type": "address"
        }
      ],
      "name": "addController",
      "outputs": [],
      "stateMutability": "nonpayable",
      "type": "function"
    },
    {
      "inputs": [
        {
          "internalType": "uint32",
          "name": "poolId",
          "type": "uint32"
        },
        {
          "internalType": "uint256",
          "name": "masterChefPoolId",
          "type": "uint256"
        }
      ],
      "name": "configureStaking",
      "outputs": [],
      "stateMutability": "nonpayable",
      "type": "function"
    },
    {
      "inputs": [
        {
          "internalType": "uint32",
          "name": "poolId",
          "type": "uint32"
        },
        {
          "internalType": "uint256",
          "name": "masterChefPoolId",
          "type": "uint256"
        }
      ],
      "name": "configureStakingOverwrite",
      "outputs": [],
      "stateMutability": "nonpayable",
      "type": "function"
    },
    {
      "inputs": [
        {
          "internalType": "uint256",
          "name": "",
          "type": "uint256"
        }
      ],
      "name": "controllers",
      "outputs": [
        {
          "internalType": "address",
          "name": "",
          "type": "address"
        }
      ],
      "stateMutability": "view",
      "type": "function"
    },
    {
      "inputs": [
        {
          "internalType": "uint32",
          "name": "poolId",
          "type": "uint32"
        },
        {
          "internalType": "uint256",
          "name": "max",
          "type": "uint256"
        }
      ],
      "name": "countExtraReward",
      "outputs": [
        {
          "internalType": "uint256",
          "name": "addedReward",
          "type": "uint256"
        },
        {
          "internalType": "uint256",
          "name": "accountedReward",
          "type": "uint256"
        },
        {
          "internalType": "uint256",
          "name": "extraReward",
          "type": "uint256"
        }
      ],
      "stateMutability": "nonpayable",
      "type": "function"
    },
    {
      "inputs": [
        {
          "internalType": "address",
          "name": "tokenA",
          "type": "address"
        },
        {
          "internalType": "address",
          "name": "tokenB",
          "type": "address"
        },
        {
          "internalType": "uint256",
          "name": "",
          "type": "uint256"
        }
      ],
      "name": "createPool",
      "outputs": [],
      "stateMutability": "nonpayable",
      "type": "function"
    },
    {
      "inputs": [
        {
          "internalType": "uint32",
          "name": "poolId",
          "type": "uint32"
        },
        {
          "internalType": "address",
          "name": "token",
          "type": "address"
        },
        {
          "internalType": "uint256",
          "name": "amount",
          "type": "uint256"
        }
      ],
      "name": "decrementBalance",
      "outputs": [],
      "stateMutability": "nonpayable",
      "type": "function"
    },
    {
      "inputs": [
        {
          "internalType": "uint32",
          "name": "poolId",
          "type": "uint32"
        }
      ],
      "name": "deploy",
      "outputs": [],
      "stateMutability": "nonpayable",
      "type": "function"
    },
    {
      "inputs": [
        {
          "internalType": "address",
          "name": "tokenAddress",
          "type": "address"
        },
        {
          "internalType": "uint256",
          "name": "amount",
          "type": "uint256"
        },
        {
          "internalType": "uint32",
          "name": "poolId",
          "type": "uint32"
        }
      ],
      "name": "deposit",
      "outputs": [],
      "stateMutability": "nonpayable",
      "type": "function"
    },
    {
      "inputs": [
        {
          "internalType": "address",
          "name": "tokenIn",
          "type": "address"
        },
        {
          "internalType": "address",
          "name": "tokenOut",
          "type": "address"
        },
        {
          "internalType": "uint256",
          "name": "amountIn",
          "type": "uint256"
        }
      ],
      "name": "getAmountOut",
      "outputs": [
        {
          "internalType": "uint256",
          "name": "amountOut",
          "type": "uint256"
        }
      ],
      "stateMutability": "view",
      "type": "function"
    },
    {
      "inputs": [
        {
          "internalType": "address",
          "name": "tokenIn",
          "type": "address"
        },
        {
          "internalType": "address",
          "name": "tokenOut",
          "type": "address"
        },
        {
          "internalType": "uint256",
          "name": "amountIn",
          "type": "uint256"
        }
      ],
      "name": "getAmountOutMinimum",
      "outputs": [
        {
          "internalType": "uint256",
          "name": "amountOutMinimum",
          "type": "uint256"
        }
      ],
      "stateMutability": "view",
      "type": "function"
    },
    {
      "inputs": [
        {
          "internalType": "uint32",
          "name": "poolId",
          "type": "uint32"
        },
        {
          "internalType": "address",
          "name": "tokenAddress",
          "type": "address"
        }
      ],
      "name": "getBalance",
      "outputs": [
        {
          "internalType": "uint256",
          "name": "",
          "type": "uint256"
        }
      ],
      "stateMutability": "view",
      "type": "function"
    },
    {
      "inputs": [
        {
          "internalType": "uint32",
          "name": "poolId",
          "type": "uint32"
        }
      ],
      "name": "getHarvestedYield",
      "outputs": [
        {
          "internalType": "uint256",
          "name": "",
          "type": "uint256"
        }
      ],
      "stateMutability": "view",
      "type": "function"
    },
    {
      "inputs": [
        {
          "internalType": "uint32",
          "name": "poolId",
          "type": "uint32"
        }
      ],
      "name": "getPendingYield",
      "outputs": [
        {
          "internalType": "address[1]",
          "name": "tokens",
          "type": "address[1]"
        },
        {
          "internalType": "uint256[1]",
          "name": "amounts",
          "type": "uint256[1]"
        }
      ],
      "stateMutability": "view",
      "type": "function"
    },
    {
      "inputs": [
        {
          "internalType": "uint32",
          "name": "pid",
          "type": "uint32"
        }
      ],
      "name": "getPool",
      "outputs": [
        {
          "components": [
            {
              "internalType": "address",
              "name": "tokenA",
              "type": "address"
            },
            {
              "internalType": "address",
              "name": "tokenB",
              "type": "address"
            },
            {
              "internalType": "uint256",
              "name": "positionID",
              "type": "uint256"
            }
          ],
          "internalType": "struct IAMMIntegration.Pool",
          "name": "",
          "type": "tuple"
        }
      ],
      "stateMutability": "view",
      "type": "function"
    },
    {
      "inputs": [
        {
          "internalType": "uint32",
          "name": "poolId",
          "type": "uint32"
        }
      ],
      "name": "getPoolBalance",
      "outputs": [
        {
          "internalType": "uint256",
          "name": "tokenA",
          "type": "uint256"
        },
        {
          "internalType": "uint256",
          "name": "tokenB",
          "type": "uint256"
        }
      ],
      "stateMutability": "view",
      "type": "function"
    },
    {
      "inputs": [
        {
          "internalType": "uint32[]",
          "name": "pids",
          "type": "uint32[]"
        }
      ],
      "name": "getRewardBalances",
      "outputs": [
        {
          "internalType": "uint256[]",
          "name": "rewardAmounts",
          "type": "uint256[]"
        }
      ],
      "stateMutability": "view",
      "type": "function"
    },
    {
      "inputs": [
        {
          "internalType": "uint32",
          "name": "poolId",
          "type": "uint32"
        }
      ],
      "name": "getStakingPoolId",
      "outputs": [
        {
          "internalType": "uint256",
          "name": "",
          "type": "uint256"
        }
      ],
      "stateMutability": "view",
      "type": "function"
    },
    {
      "inputs": [],
      "name": "getTotalHarvestedYield",
      "outputs": [
        {
          "internalType": "uint256",
          "name": "amount",
          "type": "uint256"
        }
      ],
      "stateMutability": "view",
      "type": "function"
    },
    {
      "inputs": [
        {
          "internalType": "uint32[]",
          "name": "pids",
          "type": "uint32[]"
        }
      ],
      "name": "getYieldBalances",
      "outputs": [
        {
          "internalType": "uint256[]",
          "name": "amounts",
          "type": "uint256[]"
        }
      ],
      "stateMutability": "view",
      "type": "function"
    },
    {
      "inputs": [],
      "name": "harvestYield",
      "outputs": [],
      "stateMutability": "nonpayable",
      "type": "function"
    },
    {
      "inputs": [
        {
          "internalType": "uint32",
          "name": "poolId",
          "type": "uint32"
        },
        {
          "internalType": "uint256",
          "name": "rewardRatioX1000",
          "type": "uint256"
        },
        {
          "internalType": "uint256",
          "name": "",
          "type": "uint256"
        },
        {
          "internalType": "bool",
          "name": "",
          "type": "bool"
        }
      ],
      "name": "harvestYieldByPool",
      "outputs": [],
      "stateMutability": "nonpayable",
      "type": "function"
    },
    {
      "inputs": [
        {
          "internalType": "uint32",
          "name": "poolId",
          "type": "uint32"
        },
        {
          "internalType": "address",
          "name": "token",
          "type": "address"
        },
        {
          "internalType": "uint256",
          "name": "amount",
          "type": "uint256"
        }
      ],
      "name": "incrementBalance",
      "outputs": [],
      "stateMutability": "nonpayable",
      "type": "function"
    },
    {
      "inputs": [
        {
          "internalType": "address[]",
          "name": "controllers_",
          "type": "address[]"
        },
        {
          "internalType": "address",
          "name": "moduleMap_",
          "type": "address"
        },
        {
          "internalType": "address",
          "name": "factoryAddress_",
          "type": "address"
        },
        {
          "internalType": "address",
          "name": "swapRouterAddress_",
          "type": "address"
        },
        {
          "internalType": "address",
          "name": "masterChef_",
          "type": "address"
        },
        {
          "internalType": "address",
          "name": "rewardToken_",
          "type": "address"
        },
        {
          "internalType": "uint24",
          "name": "slippageNumerator_",
          "type": "uint24"
        }
      ],
      "name": "initialize",
      "outputs": [],
      "stateMutability": "nonpayable",
      "type": "function"
    },
    {
      "inputs": [
        {
          "internalType": "uint32",
          "name": "poolId",
          "type": "uint32"
        }
      ],
      "name": "manualDeploy",
      "outputs": [],
      "stateMutability": "nonpayable",
      "type": "function"
    },
    {
      "inputs": [
        {
          "internalType": "address",
          "name": "tokenAddress",
          "type": "address"
        },
        {
          "internalType": "uint256",
          "name": "amount",
          "type": "uint256"
        },
        {
          "internalType": "uint32",
          "name": "poolId",
          "type": "uint32"
        },
        {
          "internalType": "uint256",
          "name": "ratioX1000",
          "type": "uint256"
        }
      ],
      "name": "manualWithdraw",
      "outputs": [],
      "stateMutability": "nonpayable",
      "type": "function"
    },
    {
      "inputs": [],
      "name": "moduleMap",
      "outputs": [
        {
          "internalType": "contract IModuleMap",
          "name": "",
          "type": "address"
        }
      ],
      "stateMutability": "view",
      "type": "function"
    },
    {
      "inputs": [],
      "name": "poolCount",
      "outputs": [
        {
          "internalType": "uint32",
          "name": "",
          "type": "uint32"
        }
      ],
      "stateMutability": "view",
      "type": "function"
    },
    {
      "inputs": [
        {
          "internalType": "uint32",
          "name": "poolId",
          "type": "uint32"
        },
        {
          "internalType": "uint256",
          "name": "ratioX1000",
          "type": "uint256"
        },
        {
          "internalType": "uint256",
          "name": "maxSellTokenA",
          "type": "uint256"
        },
        {
          "internalType": "uint256",
          "name": "maxSellTokenB",
          "type": "uint256"
        }
      ],
      "name": "rebalancePool",
      "outputs": [],
      "stateMutability": "nonpayable",
      "type": "function"
    },
    {
      "inputs": [
        {
          "internalType": "uint32",
          "name": "poolId",
          "type": "uint32"
        }
      ],
      "name": "stakeLPTokens",
      "outputs": [],
      "stateMutability": "nonpayable",
      "type": "function"
    },
    {
      "inputs": [
        {
          "internalType": "address",
          "name": "tokenIn",
          "type": "address"
        },
        {
          "internalType": "address",
          "name": "tokenOut",
          "type": "address"
        },
        {
          "internalType": "address",
          "name": "recipient",
          "type": "address"
        },
        {
          "internalType": "uint256",
          "name": "amountIn",
          "type": "uint256"
        },
        {
          "internalType": "uint256",
          "name": "amountOutMin",
          "type": "uint256"
        }
      ],
      "name": "swapExactInput",
      "outputs": [
        {
          "internalType": "uint256[]",
          "name": "",
          "type": "uint256[]"
        }
      ],
      "stateMutability": "nonpayable",
      "type": "function"
    },
    {
      "inputs": [
        {
          "internalType": "address",
          "name": "tokenAddress",
          "type": "address"
        },
        {
          "internalType": "uint256",
          "name": "amount",
          "type": "uint256"
        },
        {
          "internalType": "uint32",
          "name": "poolId",
          "type": "uint32"
        }
      ],
      "name": "withdraw",
      "outputs": [],
      "stateMutability": "nonpayable",
      "type": "function"
    },
    {
      "inputs": [
        {
          "internalType": "address",
          "name": "tokenAddress",
          "type": "address"
        },
        {
          "internalType": "uint256",
          "name": "amount",
          "type": "uint256"
        },
        {
          "internalType": "uint32",
          "name": "poolId",
          "type": "uint32"
        },
        {
          "internalType": "uint256",
          "name": "ratioX1000",
          "type": "uint256"
        }
      ],
      "name": "withdraw",
      "outputs": [],
      "stateMutability": "nonpayable",
      "type": "function"
    },
    {
      "inputs": [
        {
          "internalType": "uint32",
          "name": "",
          "type": "uint32"
        }
      ],
      "name": "yieldBalances",
      "outputs": [
        {
          "internalType": "uint256",
          "name": "",
          "type": "uint256"
        }
      ],
      "stateMutability": "view",
      "type": "function"
    },
    {
      "stateMutability": "payable",
      "type": "receive"
    }
  ],
  "transactionHash": "0xbb298476291971888f133b0b34ffb3a3e6aec231a57e8fe5a0ce3d58134dca3b",
  "args": [],
  "solcInputHash": "5cd06c5789d9f192a0f867b46043d179",
  "bytecode": "0x608060405234801561001057600080fd5b506158b180620000216000396000f3fe6080604052600436106101985760003560e01c80630c3fa05f146101a45780630f0a1c6f146101c6578063364d0f5a14610202578063403df5441461022257806349470541146102505780634aa066521461027d5780634d24e9e4146102ab57806351810fb5146102cb5780635441c2b6146102eb57806355b961801461030b57806358a0f0491461032057806359cf86da146103405780635ce564f4146103605780635f53bc4314610380578063680c3052146103a05780637534e060146103c0578063754a0274146103e05780637db2ddfe14610400578063983673d41461042057806398c671ce1461045b5780639da46ee31461047b578063a4515d37146104cb578063a7fc7a07146104fe578063a816800c1461051e578063ac211b951461053e578063b1cccca21461055e578063ccbfc16c1461057e578063cf73715a1461059e578063d23c84b8146105be578063e7daae2e146105f1578063e809529e14610611578063e8d991d11461063e578063e94b0dd214610653578063eb40c54514610673578063f525cb68146106a157600080fd5b3661019f57005b600080fd5b3480156101b057600080fd5b506101c46101bf3660046151ec565b6106d3565b005b3480156101d257600080fd5b506000546101ec906201000090046001600160a01b031681565b6040516101f9919061531e565b60405180910390f35b34801561020e57600080fd5b506101c461021d366004615254565b610979565b34801561022e57600080fd5b5061024261023d3660046151ec565b610aa5565b6040516101f9929190615365565b34801561025c57600080fd5b5061027061026b366004614d36565b610b78565b6040516101f991906153ca565b34801561028957600080fd5b5061029d610298366004614d90565b610bc1565b6040519081526020016101f9565b3480156102b757600080fd5b506102706102c6366004614fec565b610bdf565b3480156102d757600080fd5b506101c46102e6366004614d90565b610cd4565b3480156102f757600080fd5b5061029d610306366004615208565b611042565b34801561031757600080fd5b5061029d611073565b34801561032c57600080fd5b5061027061033b366004614fec565b6110b9565b34801561034c57600080fd5b506101c461035b366004615235565b6111a3565b34801561036c57600080fd5b506101c461037b3660046151ec565b611302565b34801561038c57600080fd5b506101c461039b366004615235565b61133d565b3480156103ac57600080fd5b506101c46103bb366004615254565b611492565b3480156103cc57600080fd5b506101c46103db36600461527f565b6115ba565b3480156103ec57600080fd5b506101c46103fb366004614e11565b61185a565b34801561040c57600080fd5b506101c461041b366004614dd0565b61198a565b34801561042c57600080fd5b5061044061043b366004615254565b611aea565b604080519384526020840192909252908201526060016101f9565b34801561046757600080fd5b506101c4610476366004614e58565b611d47565b34801561048757600080fd5b5061049b6104963660046151ec565b611eec565b6040805182516001600160a01b0390811682526020808501519091169082015291810151908201526060016101f9565b3480156104d757600080fd5b5061029d6104e63660046151ec565b63ffffffff166000908152600e602052604090205490565b34801561050a57600080fd5b506101c4610519366004614cfe565b611f4b565b34801561052a57600080fd5b506101c4610539366004614e11565b612189565b34801561054a57600080fd5b506101c46105593660046152c8565b6122b4565b34801561056a57600080fd5b506101c4610579366004614dd0565b612677565b34801561058a57600080fd5b5061029d610599366004614d90565b6126df565b3480156105aa57600080fd5b506101c46105b93660046151ec565b612725565b3480156105ca57600080fd5b5061029d6105d93660046151ec565b63ffffffff166000908152600b602052604090205490565b3480156105fd57600080fd5b506101c461060c366004614ea7565b612841565b34801561061d57600080fd5b5061029d61062c3660046151ec565b600d6020526000908152604090205481565b34801561064a57600080fd5b506101c4612aca565b34801561065f57600080fd5b506101ec61066e36600461516c565b612cbe565b34801561067f57600080fd5b5061069361068e3660046151ec565b612ce8565b6040516101f99291906155ee565b3480156106ad57600080fd5b506009546106be9063ffffffff1681565b60405163ffffffff90911681526020016101f9565b600080546040516337c61fc560e11b8152620100009091046001600160a01b031691636f8c3f8a91610708919060040161540e565b60206040518083038186803b15801561072057600080fd5b505afa158015610734573d6000803e3d6000fd5b505050506040513d601f19601f820116820180604052508101906107589190614d1a565b6001600160a01b031663f3ae2415336040518263ffffffff1660e01b8152600401610783919061531e565b60206040518083038186803b15801561079b57600080fd5b505afa1580156107af573d6000803e3d6000fd5b505050506040513d601f19601f820116820180604052508101906107d3919061505b565b6107f85760405162461bcd60e51b81526004016107ef90615535565b60405180910390fd5b63ffffffff81166000908152600860209081526040808320815160608101835281546001600160a01b039081168083526001840154909116948201859052600290920154928101929092529092916108509190612cfe565b6001600160a01b03166370a08231306040518263ffffffff1660e01b815260040161087b919061531e565b60206040518083038186803b15801561089357600080fd5b505afa1580156108a7573d6000803e3d6000fd5b505050506040513d601f19601f820116820180604052508101906108cb9190615184565b90508015610974576006546000906108eb906001600160a01b0316612d8f565b60055463ffffffff86166000908152600b602052604090819020549051631c57762b60e31b81529293506001600160a01b039091169163e2bbb158916109359186906004016155ee565b600060405180830381600087803b15801561094f57600080fd5b505af1158015610963573d6000803e3d6000fd5b505050506109718482612e0e565b50505b505050565b600080546040516337c61fc560e11b8152620100009091046001600160a01b031691636f8c3f8a916109ae919060040161540e565b60206040518083038186803b1580156109c657600080fd5b505afa1580156109da573d6000803e3d6000fd5b505050506040513d601f19601f820116820180604052508101906109fe9190614d1a565b6001600160a01b031663f3ae2415336040518263ffffffff1660e01b8152600401610a29919061531e565b60206040518083038186803b158015610a4157600080fd5b505afa158015610a55573d6000803e3d6000fd5b505050506040513d601f19601f82011682018060405250810190610a79919061505b565b610a955760405162461bcd60e51b81526004016107ef90615535565b610aa182826001612e6a565b5050565b610aad614bdb565b610ab5614bdb565b6006546001600160a01b03908116835263ffffffff84166000908152600f6020908152604080832054600554600b9093529281902054905160016232bd9d60e01b031981529293919091169163ffcd426391610b159130906004016155d7565b60206040518083038186803b158015610b2d57600080fd5b505afa158015610b41573d6000803e3d6000fd5b505050506040513d601f19601f82011682018060405250810190610b659190615184565b610b6f91906156d5565b81529092909150565b3360009081526001602052604090205460609060ff16610baa5760405162461bcd60e51b81526004016107ef90615583565b610bb786868686866130f2565b9695505050505050565b6000806000610bd086866132e3565b91509150610bb78483836133ba565b6060816001600160401b03811115610c0757634e487b7160e01b600052604160045260246000fd5b604051908082528060200260200182016040528015610c30578160200160208202803683370190505b50905060005b82811015610ccd57600f6000858584818110610c6257634e487b7160e01b600052603260045260246000fd5b9050602002016020810190610c7791906151ec565b63ffffffff1663ffffffff16815260200190815260200160002054828281518110610cb257634e487b7160e01b600052603260045260246000fd5b6020908102919091010152610cc6816157bb565b9050610c36565b5092915050565b600080546040516337c61fc560e11b8152620100009091046001600160a01b031691636f8c3f8a91610d09919060040161540e565b60206040518083038186803b158015610d2157600080fd5b505afa158015610d35573d6000803e3d6000fd5b505050506040513d601f19601f82011682018060405250810190610d599190614d1a565b6001600160a01b031663f3ae2415336040518263ffffffff1660e01b8152600401610d84919061531e565b60206040518083038186803b158015610d9c57600080fd5b505afa158015610db0573d6000803e3d6000fd5b505050506040513d601f19601f82011682018060405250810190610dd4919061505b565b610df05760405162461bcd60e51b81526004016107ef90615535565b6009805463ffffffff16906000610e06836157d6565b825463ffffffff91821661010093840a9081029083021990911617909255600980548316600090815260086020819052604080832080546001600160a01b03808d166001600160a01b03199283168117909355865489168652838620600190810180548e84169416939093179092559554600a805492830181559095529283047fc65a7bb8d6351c1cf70c95a316cc6a92839c986682d98bc35f958f4883f9d2a801805460046007909516850290970a948816850294909702199095169290921790945583549051636eb1769f60e11b81526000199550929363dd62ed3e93610ef3933093169101615332565b60206040518083038186803b158015610f0b57600080fd5b505afa158015610f1f573d6000803e3d6000fd5b505050506040513d601f19601f82011682018060405250810190610f439190615184565b14610f7f57600454610f63906001600160a01b03858116911660006134c0565b600454610f7f906001600160a01b0385811691166000196134c0565b60048054604051636eb1769f60e11b8152600019926001600160a01b038681169363dd62ed3e93610fb69330939092169101615332565b60206040518083038186803b158015610fce57600080fd5b505afa158015610fe2573d6000803e3d6000fd5b505050506040513d601f19601f820116820180604052508101906110069190615184565b1461097457600454611026906001600160a01b03848116911660006134c0565b600454610974906001600160a01b0384811691166000196134c0565b63ffffffff82166000908152600c602090815260408083206001600160a01b03851684529091529020545b92915050565b6000805b60095463ffffffff90811690821610156110b5576110996104e68260016156ed565b6110a390836156d5565b91506110ae816157d6565b9050611077565b5090565b6060816001600160401b038111156110e157634e487b7160e01b600052604160045260246000fd5b60405190808252806020026020018201604052801561110a578160200160208202803683370190505b50905060005b82811015610ccd5761116884848381811061113b57634e487b7160e01b600052603260045260246000fd5b905060200201602081019061115091906151ec565b63ffffffff166000908152600d602052604090205490565b82828151811061118857634e487b7160e01b600052603260045260246000fd5b602090810291909101015261119c816157bb565b9050611110565b600080546040516337c61fc560e11b8152620100009091046001600160a01b031691636f8c3f8a916111d8919060040161540e565b60206040518083038186803b1580156111f057600080fd5b505afa158015611204573d6000803e3d6000fd5b505050506040513d601f19601f820116820180604052508101906112289190614d1a565b6001600160a01b031663f3ae2415336040518263ffffffff1660e01b8152600401611253919061531e565b60206040518083038186803b15801561126b57600080fd5b505afa15801561127f573d6000803e3d6000fd5b505050506040513d601f19601f820116820180604052508101906112a3919061505b565b6112bf5760405162461bcd60e51b81526004016107ef90615535565b63ffffffff83166000908152600c602090815260408083206001600160a01b0386168452909152812080548392906112f89084906156d5565b9091555050505050565b3360009081526001602052604090205460ff166113315760405162461bcd60e51b81526004016107ef90615583565b61133a81613609565b50565b600080546040516337c61fc560e11b8152620100009091046001600160a01b031691636f8c3f8a91611372919060040161540e565b60206040518083038186803b15801561138a57600080fd5b505afa15801561139e573d6000803e3d6000fd5b505050506040513d601f19601f820116820180604052508101906113c29190614d1a565b6001600160a01b031663f3ae2415336040518263ffffffff1660e01b81526004016113ed919061531e565b60206040518083038186803b15801561140557600080fd5b505afa158015611419573d6000803e3d6000fd5b505050506040513d601f19601f8201168201806040525081019061143d919061505b565b6114595760405162461bcd60e51b81526004016107ef90615535565b63ffffffff83166000908152600c602090815260408083206001600160a01b0386168452909152812080548392906112f8908490615778565b600080546040516337c61fc560e11b8152620100009091046001600160a01b031691636f8c3f8a916114c7919060040161540e565b60206040518083038186803b1580156114df57600080fd5b505afa1580156114f3573d6000803e3d6000fd5b505050506040513d601f19601f820116820180604052508101906115179190614d1a565b6001600160a01b031663f3ae2415336040518263ffffffff1660e01b8152600401611542919061531e565b60206040518083038186803b15801561155a57600080fd5b505afa15801561156e573d6000803e3d6000fd5b505050506040513d601f19601f82011682018060405250810190611592919061505b565b6115ae5760405162461bcd60e51b81526004016107ef90615535565b610aa182826000612e6a565b600080546040516337c61fc560e11b8152620100009091046001600160a01b031691636f8c3f8a916115ef919060040161540e565b60206040518083038186803b15801561160757600080fd5b505afa15801561161b573d6000803e3d6000fd5b505050506040513d601f19601f8201168201806040525081019061163f9190614d1a565b6001600160a01b031663f3ae2415336040518263ffffffff1660e01b815260040161166a919061531e565b60206040518083038186803b15801561168257600080fd5b505afa158015611696573d6000803e3d6000fd5b505050506040513d601f19601f820116820180604052508101906116ba919061505b565b6116d65760405162461bcd60e51b81526004016107ef90615535565b6006546000906116ee906001600160a01b0316612d8f565b60055463ffffffff87166000908152600b6020526040808220549051631c57762b60e31b81529394506001600160a01b039092169263e2bbb158926117379290916004016155ee565b600060405180830381600087803b15801561175157600080fd5b505af1158015611765573d6000803e3d6000fd5b505050506117738582612e0e565b5063ffffffff85166000908152600f60205260409020548015611852576006546007546117ad916001600160a01b03908116911687613872565b6006546007546000916117d9916001600160a01b03918216911630856117d48484836126df565b6130f2565b63ffffffff88166000908152600f602052604081205580519091508190600190811061181557634e487b7160e01b600052603260045260246000fd5b6020026020010151600d60008963ffffffff1663ffffffff168152602001908152602001600020600082825461184b91906156d5565b9091555050505b505050505050565b600080546040516337c61fc560e11b8152620100009091046001600160a01b031691636f8c3f8a9161188f919060040161540e565b60206040518083038186803b1580156118a757600080fd5b505afa1580156118bb573d6000803e3d6000fd5b505050506040513d601f19601f820116820180604052508101906118df9190614d1a565b6001600160a01b031663f3ae2415336040518263ffffffff1660e01b815260040161190a919061531e565b60206040518083038186803b15801561192257600080fd5b505afa158015611936573d6000803e3d6000fd5b505050506040513d601f19601f8201168201806040525081019061195a919061505b565b6119765760405162461bcd60e51b81526004016107ef90615535565b61198484848484600061389d565b50505050565b3360009081526001602052604090205460ff166119b95760405162461bcd60e51b81526004016107ef90615583565b6119c38184611042565b821115611a125760405162461bcd60e51b815260206004820152601d60248201527f696e746567726174696f6e3a2062616c616e636520657863656564656400000060448201526064016107ef565b63ffffffff81166000908152600c602090815260408083206001600160a01b038716845290915281208054849290611a4b908490615778565b9091555050600080546040516337c61fc560e11b815261097492620100009092046001600160a01b031691636f8c3f8a91611a89919060040161540e565b60206040518083038186803b158015611aa157600080fd5b505afa158015611ab5573d6000803e3d6000fd5b505050506040513d601f19601f82011682018060405250810190611ad99190614d1a565b6001600160a01b0385169084613a9b565b600080546040516337c61fc560e11b815282918291620100009091046001600160a01b031690636f8c3f8a90611b2490849060040161540e565b60206040518083038186803b158015611b3c57600080fd5b505afa158015611b50573d6000803e3d6000fd5b505050506040513d601f19601f82011682018060405250810190611b749190614d1a565b6001600160a01b031663f3ae2415336040518263ffffffff1660e01b8152600401611b9f919061531e565b60206040518083038186803b158015611bb757600080fd5b505afa158015611bcb573d6000803e3d6000fd5b505050506040513d601f19601f82011682018060405250810190611bef919061505b565b611c0b5760405162461bcd60e51b81526004016107ef90615535565b60095463ffffffff1680611c775760405162461bcd60e51b815260206004820152602d60248201527f43616e6e6f7420636f756e7420657874726120726577617264207768656e206e60448201526c1bc81c1bdbdb1cc8195e1a5cdd609a1b60648201526084016107ef565b60005b818163ffffffff161015611cca57600f6000611c978360016156ed565b63ffffffff168152602081019190915260400160002054611cb890856156d5565b9350611cc3816157d6565b9050611c7a565b506006548390611ce2906001600160a01b0316612d8f565b611cec9190615778565b91508115611d3f57600085118015611d0357508185105b611d0d5781611d0f565b845b63ffffffff87166000908152600f6020526040812080549296508692909190611d399084906156d5565b90915550505b509250925092565b600054610100900460ff16611d625760005460ff1615611d66565b303b155b611d825760405162461bcd60e51b81526004016107ef90615496565b600054610100900460ff16158015611da4576000805461ffff19166101011790555b6001600160a01b038216611dca5760405162461bcd60e51b81526004016107ef906154e4565b60005b8351811015611e425760006001600160a01b0316848281518110611e0157634e487b7160e01b600052603260045260246000fd5b60200260200101516001600160a01b03161415611e305760405162461bcd60e51b81526004016107ef906154e4565b80611e3a816157bb565b915050611dcd565b5060005b8351811015611eb8576001806000868481518110611e7457634e487b7160e01b600052603260045260246000fd5b6020908102919091018101516001600160a01b03168252810191909152604001600020805460ff191691151591909117905580611eb0816157bb565b915050611e46565b508251611ecc906002906020860190614bf9565b50611ed682613aba565b8015610974576000805461ff0019169055505050565b60408051606080820183526000808352602080840182905292840181905263ffffffff94909416845260088252928290208251938401835280546001600160a01b03908116855260018201541691840191909152600201549082015290565b600080546040516337c61fc560e11b8152620100009091046001600160a01b031691636f8c3f8a91611f80919060040161540e565b60206040518083038186803b158015611f9857600080fd5b505afa158015611fac573d6000803e3d6000fd5b505050506040513d601f19601f82011682018060405250810190611fd09190614d1a565b6001600160a01b0316632f54bf6e336040518263ffffffff1660e01b8152600401611ffb919061531e565b60206040518083038186803b15801561201357600080fd5b505afa158015612027573d6000803e3d6000fd5b505050506040513d601f19601f8201168201806040525081019061204b919061505b565b6120aa5760405162461bcd60e51b815260206004820152602a60248201527f436f6e74726f6c6c65643a3a6f6e6c794f776e65723a2043616c6c6572206973604482015269103737ba1037bbb732b960b11b60648201526084016107ef565b6001600160a01b03811660009081526001602081905260408220805460ff19169091179055805b60025481101561213257600281815481106120fc57634e487b7160e01b600052603260045260246000fd5b6000918252602090912001546001600160a01b038481169116141561212057600191505b8061212a816157bb565b9150506120d1565b5080610aa157600280546001810182556000919091527f405787fa12a823e0f2b7631cc41b3ba8828b3321ca811111fa75cd3aa3bb5ace0180546001600160a01b0384166001600160a01b03199091161790555050565b3360009081526001602052604090205460ff166121b85760405162461bcd60e51b81526004016107ef90615583565b6121c28285611042565b83116122a657600080546040516337c61fc560e11b815261226292620100009092046001600160a01b031691636f8c3f8a91612201919060040161540e565b60206040518083038186803b15801561221957600080fd5b505afa15801561222d573d6000803e3d6000fd5b505050506040513d601f19601f820116820180604052508101906122519190614d1a565b6001600160a01b0386169085613a9b565b63ffffffff82166000908152600c602090815260408083206001600160a01b03881684529091528120805485929061229b908490615778565b909155506119849050565b61198484848484600161389d565b600080546040516337c61fc560e11b8152620100009091046001600160a01b031691636f8c3f8a916122e9919060040161540e565b60206040518083038186803b15801561230157600080fd5b505afa158015612315573d6000803e3d6000fd5b505050506040513d601f19601f820116820180604052508101906123399190614d1a565b6001600160a01b031663f3ae2415336040518263ffffffff1660e01b8152600401612364919061531e565b60206040518083038186803b15801561237c57600080fd5b505afa158015612390573d6000803e3d6000fd5b505050506040513d601f19601f820116820180604052508101906123b4919061505b565b6123d05760405162461bcd60e51b81526004016107ef90615535565b60006123db85611eec565b63ffffffff86166000908152600860205260409020549091506001600160a01b03166124195760405162461bcd60e51b81526004016107ef90615509565b61242c8160000151826020015186613872565b60008061245483612441898660000151611042565b61244f8a8760200151611042565b613b4e565b915091506000806124688486858a8a613bcf565b915091506000816001600160a01b03166370a08231306040518263ffffffff1660e01b815260040161249a919061531e565b60206040518083038186803b1580156124b257600080fd5b505afa1580156124c6573d6000803e3d6000fd5b505050506040513d601f19601f820116820180604052508101906124ea9190615184565b90506124fe858330866117d48a888a6126df565b50600081836001600160a01b03166370a08231306040518263ffffffff1660e01b815260040161252e919061531e565b60206040518083038186803b15801561254657600080fd5b505afa15801561255a573d6000803e3d6000fd5b505050506040513d601f19601f8201168201806040525081019061257e9190615184565b6125889190615778565b9050801561266a5763ffffffff8b166000908152600c602090815260408083206001600160a01b038a168452909152812080548692906125c9908490615778565b909155505063ffffffff8b166000908152600c602090815260408083206001600160a01b0387168452909152812080548392906126079084906156d5565b90915550506040805163ffffffff8d1681526001600160a01b038881166020830152818301879052851660608201526080810183905290517f3318ce2371d9cd19d64b4ca999bd8bdcfcf18e4ec416d7dc611b729b2e59c5009181900360a00190a15b5050505050505050505050565b3360009081526001602052604090205460ff166126a65760405162461bcd60e51b81526004016107ef90615583565b63ffffffff81166000908152600c602090815260408083206001600160a01b0387168452909152812080548492906112f89084906156d5565b600354600090620f4240906126f99062ffffff1682615754565b62ffffff16612709868686610bc1565b6127139190615735565b61271d9190615715565b949350505050565b600080546040516337c61fc560e11b8152620100009091046001600160a01b031691636f8c3f8a9161275a919060040161540e565b60206040518083038186803b15801561277257600080fd5b505afa158015612786573d6000803e3d6000fd5b505050506040513d601f19601f820116820180604052508101906127aa9190614d1a565b6001600160a01b031663f3ae2415336040518263ffffffff1660e01b81526004016127d5919061531e565b60206040518083038186803b1580156127ed57600080fd5b505afa158015612801573d6000803e3d6000fd5b505050506040513d601f19601f82011682018060405250810190612825919061505b565b6113315760405162461bcd60e51b81526004016107ef90615535565b600054610100900460ff1661285c5760005460ff1615612860565b303b155b61287c5760405162461bcd60e51b81526004016107ef90615496565b600054610100900460ff1615801561289e576000805461ffff19166101011790555b6001600160a01b0386166128c45760405162461bcd60e51b81526004016107ef906154e4565b6001600160a01b0385166128ea5760405162461bcd60e51b81526004016107ef906154e4565b6001600160a01b0384166129105760405162461bcd60e51b81526004016107ef906154e4565b6001600160a01b0383166129365760405162461bcd60e51b81526004016107ef906154e4565b6129408888611d47565b60038054600480546001600160a01b03199081166001600160a01b038a81169190911783556005805483168a83161790556001600160b81b031990931663010000008b85160262ffffff19161762ffffff8716178455600680549091168784161790556000546040516337c61fc560e11b81526201000090910490921692636f8c3f8a926129ce920161540e565b60206040518083038186803b1580156129e657600080fd5b505afa1580156129fa573d6000803e3d6000fd5b505050506040513d601f19601f82011682018060405250810190612a1e9190614d1a565b6001600160a01b0316638b9c94896040518163ffffffff1660e01b815260040160206040518083038186803b158015612a5657600080fd5b505afa158015612a6a573d6000803e3d6000fd5b505050506040513d601f19601f82011682018060405250810190612a8e9190614d1a565b600780546001600160a01b0319166001600160a01b03929092169190911790558015612ac0576000805461ff00191690555b5050505050505050565b3360009081526001602052604090205460ff16612af95760405162461bcd60e51b81526004016107ef90615583565b6000805b60095463ffffffff16811015612be5576000600a8281548110612b3057634e487b7160e01b600052603260045260246000fd5b6000918252602080832060088304015460079092166004026101000a90910463ffffffff16808352600d9091526040909120549091508015612bd25763ffffffff82166000908152600d6020526040902054612b8c90856156d5565b63ffffffff83166000908152600e6020526040812080549296508392909190612bb69084906156d5565b909155505063ffffffff82166000908152600d60205260408120555b505080612bde906157bb565b9050612afd565b50801561133a576000546040516337c61fc560e11b8152612c88916201000090046001600160a01b031690636f8c3f8a90612c259060029060040161540e565b60206040518083038186803b158015612c3d57600080fd5b505afa158015612c51573d6000803e3d6000fd5b505050506040513d601f19601f82011682018060405250810190612c759190614d1a565b6007546001600160a01b03169083613a9b565b6040518181527fd0e841f234010ad7f57b7c09faffb2245cd240429c6e8fa3cd934a0a8bf58eb09060200160405180910390a150565b60028181548110612cce57600080fd5b6000918252602090912001546001600160a01b0316905081565b600080612cf483613c2b565b9094909350915050565b60035460405163e6a4390560e01b8152600091630100000090046001600160a01b03169063e6a4390590612d389086908690600401615332565b60206040518083038186803b158015612d5057600080fd5b505afa158015612d64573d6000803e3d6000fd5b505050506040513d601f19601f82011682018060405250810190612d889190614d1a565b9392505050565b6040516370a0823160e01b81526000906001600160a01b038316906370a0823190612dbe90309060040161531e565b60206040518083038186803b158015612dd657600080fd5b505afa158015612dea573d6000803e3d6000fd5b505050506040513d601f19601f8201168201806040525081019061106d9190615184565b6006546000908290612e28906001600160a01b0316612d8f565b612e329190615778565b9050801561106d5763ffffffff83166000908152600f602052604081208054839290612e5f9084906156d5565b909155505092915050565b6000612e7584611eec565b80519091506001600160a01b0316612e9f5760405162461bcd60e51b81526004016107ef90615509565b600182151514612f095763ffffffff84166000908152600b602052604090205415612f095760405162461bcd60e51b815260206004820152601a60248201527914dd185ada5b99c8185b1c9958591e4818dbdb999a59dd5c995960321b60448201526064016107ef565b600554604051631526fe2760e01b8152600481018590526000916001600160a01b031690631526fe279060240160806040518083038186803b158015612f4e57600080fd5b505afa158015612f62573d6000803e3d6000fd5b505050506040513d601f19601f82011682018060405250810190612f869190615077565b90506000612f9c83600001518460200151612cfe565b9050806001600160a01b031682600001516001600160a01b0316146130165760405162461bcd60e51b815260206004820152602a60248201527f496e636f7272656374204d617374657243686566277320706f6f6c49642077616044820152691cc81c1c9bdd9a59195960b21b60648201526084016107ef565b63ffffffff86166000908152600b6020526040908190208690556005549051636eb1769f60e11b8152600019916001600160a01b038085169263dd62ed3e92613066923092911690600401615332565b60206040518083038186803b15801561307e57600080fd5b505afa158015613092573d6000803e3d6000fd5b505050506040513d601f19601f820116820180604052508101906130b69190615184565b14611852576005546130d6906001600160a01b03838116911660006134c0565b600554611852906001600160a01b0383811691166000196134c0565b60408051600280825260608083018452926000929190602083019080368337019050509050868160008151811061313957634e487b7160e01b600052603260045260246000fd5b60200260200101906001600160a01b031690816001600160a01b031681525050858160018151811061317b57634e487b7160e01b600052603260045260246000fd5b6001600160a01b03928316602091820292909201015260048054604051636eb1769f60e11b8152429388938c82169363dd62ed3e936131bf93309392169101615332565b60206040518083038186803b1580156131d757600080fd5b505afa1580156131eb573d6000803e3d6000fd5b505050506040513d601f19601f8201168201806040525081019061320f9190615184565b101561324a57600454613230906001600160a01b038a8116911660006134c0565b60045461324a906001600160a01b038a81169116876134c0565b600480546040516338ed173960e01b81526001600160a01b03909116916338ed173991613281918991899188918d918991016155fc565b600060405180830381600087803b15801561329b57600080fd5b505af11580156132af573d6000803e3d6000fd5b505050506040513d6000823e601f3d908101601f191682016040526132d79190810190614f5a565b98975050505050505050565b60008060006132f28585613f1e565b5090506000806133028787612cfe565b6001600160a01b0316630902f1ac6040518163ffffffff1660e01b815260040160606040518083038186803b15801561333a57600080fd5b505afa15801561334e573d6000803e3d6000fd5b505050506040513d601f19601f820116820180604052508101906133729190615131565b506001600160701b031691506001600160701b03169150826001600160a01b0316876001600160a01b0316146133a95780826133ac565b81815b909890975095505050505050565b60008084116134165760405162461bcd60e51b815260206004820152602260248201527f616d6f756e74496e206d7573742062652067726561746572207468616e207a65604482015261726f60f01b60648201526084016107ef565b6000831180156134265750600082115b6134725760405162461bcd60e51b815260206004820152601d60248201527f4e6f206c697175696469747920696e20706f6f6c20726573657276657300000060448201526064016107ef565b6000613480856103e5615735565b9050600061348e8483615735565b905060008261349f876103e8615735565b6134a991906156d5565b90506134b58183615715565b979650505050505050565b8015806135485750604051636eb1769f60e11b81526001600160a01b0384169063dd62ed3e906134f69030908690600401615332565b60206040518083038186803b15801561350e57600080fd5b505afa158015613522573d6000803e3d6000fd5b505050506040513d601f19601f820116820180604052508101906135469190615184565b155b6135b35760405162461bcd60e51b815260206004820152603660248201527f5361666545524332303a20617070726f76652066726f6d206e6f6e2d7a65726f60448201527520746f206e6f6e2d7a65726f20616c6c6f77616e636560501b60648201526084016107ef565b6109748363095ea7b360e01b84846040516024016135d292919061534c565b60408051601f198184030181529190526020810180516001600160e01b03166001600160e01b031990931692909217909152613ff3565b600061361482611eec565b63ffffffff83166000908152600860205260409020549091506001600160a01b03166136525760405162461bcd60e51b81526004016107ef90615509565b6000613662838360000151611042565b90506000613674848460200151611042565b9050811580613681575080155b1561368c5750505050565b6000806136a1856000015186602001516132e3565b915091506000806136b4868686866140c5565b600480548a5160208c015160405162e8e33760e81b81526001600160a01b039283169481019490945281166024840152604483018590526064830184905260006084840181905260a484018190523060c48501524260e4850152949650929450919091169063e8e337009061010401606060405180830381600087803b15801561373d57600080fd5b505af1158015613751573d6000803e3d6000fd5b505050506040513d601f19601f8201168201806040525081019061377591906151bf565b63ffffffff8c166000908152600c602090815260408083208e516001600160a01b03168452909152812080549295508794509250906137b5908490615778565b909155505063ffffffff89166000908152600c602090815260408083208b8301516001600160a01b03168452909152812080548492906137f6908490615778565b90915550506040518181527f250600b7e1d8b908a0f07fa409e087c1b43ef3a5de3c0e23a41998c311f0ea909060200160405180910390a17fb28fd890673610fa2a3efb1cf64ae1b26dd83c3261fbd99f0d4a5821ccdaa993898260405161385f92919061566c565b60405180910390a1505050505050505050565b600061387e8484612cfe565b905060008061388d86866132e3565b9150915061185283838387614209565b60006138a884611eec565b905082156138c3576138c38160000151826020015185613872565b60006138d0858888614333565b6006549091506000906138eb906001600160a01b0316612d8f565b60055463ffffffff88166000908152600b602052604090819020549051630441a3e760e41b81529293506001600160a01b039091169163441a3e70916139359186906004016155ee565b600060405180830381600087803b15801561394f57600080fd5b505af1158015613963573d6000803e3d6000fd5b505050506139718682612e0e565b50600454835160208501516139a6926001600160a01b03169185916139969190612cfe565b6001600160a01b031691906134c0565b6004548351602085015160009283926001600160a01b039091169163baa2abde9190878580306139d8426101686156d5565b60405160e089901b6001600160e01b03191681526001600160a01b039788166004820152958716602487015260448601949094526064850192909252608484015290921660a482015260c481019190915260e4016040805180830381600087803b158015613a4557600080fd5b505af1158015613a59573d6000803e3d6000fd5b505050506040513d601f19601f82011682018060405250810190613a7d919061519c565b91509150613a8f85898c85858b61454b565b50505050505050505050565b6109748363a9059cbb60e01b84846040516024016135d292919061534c565b600054610100900460ff16613ad55760005460ff1615613ad9565b303b155b613af55760405162461bcd60e51b81526004016107ef90615496565b600054610100900460ff16158015613b17576000805461ffff19166101011790555b6000805462010000600160b01b031916620100006001600160a01b038516021790558015610aa1576000805461ff00191690555050565b60008080613b5c84866156d5565b11613ba95760405162461bcd60e51b815260206004820181905260248201527f5472616465724a6f65496e746567726174696f6e3a206e6f2062616c616e636560448201526064016107ef565b600080613bbe876000015188602001516132e3565b915091506133ac878787858561491c565b60008085600001516001600160a01b0316876001600160a01b03161415613c0c57506020850151838510613c035783613c05565b845b9150613c21565b508451828510613c1c5782613c1e565b845b91505b9550959350505050565b6000806000613c3984611eec565b60055463ffffffff86166000908152600b60205260408082205490516393f1a40b60e01b815293945090926001600160a01b03909216916393f1a40b91613c849130906004016155d7565b604080518083038186803b158015613c9b57600080fd5b505afa158015613caf573d6000803e3d6000fd5b505050506040513d601f19601f82011682018060405250810190613cd391906150e4565b5182516020840151613ce59190612cfe565b6001600160a01b03166370a08231306040518263ffffffff1660e01b8152600401613d10919061531e565b60206040518083038186803b158015613d2857600080fd5b505afa158015613d3c573d6000803e3d6000fd5b505050506040513d601f19601f82011682018060405250810190613d609190615184565b613d6a91906156d5565b9050613f1281613d8284600001518560200151612cfe565b6001600160a01b03166318160ddd6040518163ffffffff1660e01b815260040160206040518083038186803b158015613dba57600080fd5b505afa158015613dce573d6000803e3d6000fd5b505050506040513d601f19601f82011682018060405250810190613df29190615184565b845160208601516001600160a01b038216916370a0823191613e149190612cfe565b6040518263ffffffff1660e01b8152600401613e30919061531e565b60206040518083038186803b158015613e4857600080fd5b505afa158015613e5c573d6000803e3d6000fd5b505050506040513d601f19601f82011682018060405250810190613e809190615184565b602086015186516001600160a01b038216916370a0823191613ea191612cfe565b6040518263ffffffff1660e01b8152600401613ebd919061531e565b60206040518083038186803b158015613ed557600080fd5b505afa158015613ee9573d6000803e3d6000fd5b505050506040513d601f19601f82011682018060405250810190613f0d9190615184565b614a7e565b90969095509350505050565b600080826001600160a01b0316846001600160a01b03161415613f7f5760405162461bcd60e51b81526020600482015260196024820152784964656e746963616c20746f6b656e2061646472657373657360381b60448201526064016107ef565b826001600160a01b0316846001600160a01b031610613f9f578284613fa2565b83835b90925090506001600160a01b038216613fec5760405162461bcd60e51b815260206004820152600c60248201526b5a65726f206164647265737360a01b60448201526064016107ef565b9250929050565b6000614048826040518060400160405280602081526020017f5361666545524332303a206c6f772d6c6576656c2063616c6c206661696c6564815250856001600160a01b0316614ae09092919063ffffffff16565b8051909150156109745780806020019051810190614066919061505b565b6109745760405162461bcd60e51b815260206004820152602a60248201527f5361666545524332303a204552433230206f7065726174696f6e20646964206e6044820152691bdd081cdd58d8d9595960b21b60648201526084016107ef565b60008082841115614166576000836140df866103e8615735565b6140e99190615715565b905060006103e86140fa8389615735565b6141049190615715565b90508088101561412f578793508161411e856103e8615735565b6141289190615715565b925061415f565b87811015614158576103e86141448389615735565b61414e9190615715565b935086925061415f565b8793508692505b5050614200565b828410156142005760008461417d856103e8615735565b6141879190615715565b905060006103e8614198838a615735565b6141a29190615715565b9050808710156141cd57816141b9886103e8615735565b6141c39190615715565b93508692506141fd565b868110156141f6578793506103e86141e58386615735565b6141ef9190615715565b92506141fd565b8793508692505b50505b94509492505050565b6001600160a01b03841661425e5760405162461bcd60e51b815260206004820152601c60248201527b2a3930b232b92537b2a4b73a32b3b930ba34b7b71d2130b22830b4b960211b60448201526064016107ef565b6000828410156142865783614275846103e8615735565b61427f9190615715565b90506142a0565b8383101561429b5782614275856103e8615735565b506103e85b818111156142ec576001826142b58184615778565b6142c0906064615735565b6142ca9190615715565b106142e75760405162461bcd60e51b81526004016107ef90615469565b610971565b80821115610971576001826143018382615778565b61430c906064615735565b6143169190615715565b106109715760405162461bcd60e51b81526004016107ef90615469565b60008061433f85611eec565b9050600080614356836000015184602001516132e3565b91509150600061436e84600001518560200151612cfe565b6001600160a01b03166318160ddd6040518163ffffffff1660e01b815260040160206040518083038186803b1580156143a657600080fd5b505afa1580156143ba573d6000803e3d6000fd5b505050506040513d601f19601f820116820180604052508101906143de9190615184565b60055463ffffffff8a166000908152600b60205260408082205490516393f1a40b60e01b815293945090926001600160a01b03909216916393f1a40b916144299130906004016155d7565b604080518083038186803b15801561444057600080fd5b505afa158015614454573d6000803e3d6000fd5b505050506040513d601f19601f8201168201806040525081019061447891906150e4565b5185519091506000906001600160a01b038a8116911614156144c65782156144bc57826144ad86670de0b6b3a7640000615735565b6144b79190615715565b6144bf565b60005b90506144f4565b82156144ee57826144df85670de0b6b3a7640000615735565b6144e99190615715565b6144f1565b60005b90505b806145085760009650505050505050612d88565b8061451460028a615715565b61452690670de0b6b3a7640000615735565b6145309190615715565b96508187111561453e578196505b5050505050509392505050565b606086600001516001600160a01b0316856001600160a01b03161415614731576020870151614582908630866117d48484836126df565b9050811561465e57600080546040516337c61fc560e11b815261465992620100009092046001600160a01b031691636f8c3f8a916145c3919060040161540e565b60206040518083038186803b1580156145db57600080fd5b505afa1580156145ef573d6000803e3d6000fd5b505050506040513d601f19601f820116820180604052508101906146139190614d1a565b8260018151811061463457634e487b7160e01b600052603260045260246000fd5b60200260200101518661464791906156d5565b89516001600160a01b03169190613a9b565b6146d2565b8060018151811061467f57634e487b7160e01b600052603260045260246000fd5b60200260200101518461469291906156d5565b63ffffffff87166000908152600c602090815260408083208b516001600160a01b03168452909152812080549091906146cc9084906156d5565b90915550505b60008051602061585c83398151915286858360018151811061470457634e487b7160e01b600052603260045260246000fd5b602002602001015161471691906156d5565b60405161472492919061566c565b60405180910390a1614913565b86602001516001600160a01b0316856001600160a01b03161415614913578651614763908630876117d48484836126df565b9050811561484257600080546040516337c61fc560e11b815261483d92620100009092046001600160a01b031691636f8c3f8a916147a4919060040161540e565b60206040518083038186803b1580156147bc57600080fd5b505afa1580156147d0573d6000803e3d6000fd5b505050506040513d601f19601f820116820180604052508101906147f49190614d1a565b8260018151811061481557634e487b7160e01b600052603260045260246000fd5b60200260200101518561482891906156d5565b60208a01516001600160a01b03169190613a9b565b6148b8565b8060018151811061486357634e487b7160e01b600052603260045260246000fd5b60200260200101518361487691906156d5565b63ffffffff87166000908152600c602090815260408083208b8301516001600160a01b03168452909152812080549091906148b29084906156d5565b90915550505b60008051602061585c8339815191528684836001815181106148ea57634e487b7160e01b600052603260045260246000fd5b60200260200101516148fc91906156d5565b60405161490a92919061566c565b60405180910390a15b50505050505050565b600080828411156149cc57600083614936866103e8615735565b6149409190615715565b905060006103e86149518389615735565b61495b9190615715565b9050808810156149a0576002826149748a6103e8615735565b61497e9190615715565b6149889089615778565b6149929190615715565b9250886020015193506149c5565b878110156149c55760026149b4828a615778565b6149be9190615715565b8951945092505b5050613c21565b82841015613c21576000846149e3856103e8615735565b6149ed9190615715565b905060006103e86149fe838a615735565b614a089190615715565b905086811015614a36576002614a1e8289615778565b614a289190615715565b925088602001519350614a72565b80871015614a7257600282614a4d896103e8615735565b614a579190615715565b614a61908a615778565b614a6b9190615715565b8951945092505b50509550959350505050565b6000808085614a92886402540be400615735565b614a9c9190615715565b90506402540be400614aae8287615735565b614ab89190615715565b92506402540be400614aca8286615735565b614ad49190615715565b91505094509492505050565b606061271d848460008585843b614b395760405162461bcd60e51b815260206004820152601d60248201527f416464726573733a2063616c6c20746f206e6f6e2d636f6e747261637400000060448201526064016107ef565b600080866001600160a01b03168587604051614b559190615302565b60006040518083038185875af1925050503d8060008114614b92576040519150601f19603f3d011682016040523d82523d6000602084013e614b97565b606091505b50915091506134b582828660608315614bb1575081612d88565b825115614bc15782518084602001fd5b8160405162461bcd60e51b81526004016107ef9190615436565b60405180602001604052806001906020820280368337509192915050565b828054828255906000526020600020908101928215614c4e579160200282015b82811115614c4e57825182546001600160a01b0319166001600160a01b03909116178255602090920191600190910190614c19565b506110b59291505b808211156110b55760008155600101614c56565b600082601f830112614c7a578081fd5b81356020614c8f614c8a836156b2565b615682565b80838252828201915082860187848660051b8901011115614cae578586fd5b855b85811015614cd5578135614cc381615826565b84529284019290840190600101614cb0565b5090979650505050505050565b80516001600160701b0381168114614cf957600080fd5b919050565b600060208284031215614d0f578081fd5b8135612d8881615826565b600060208284031215614d2b578081fd5b8151612d8881615826565b600080600080600060a08688031215614d4d578081fd5b8535614d5881615826565b94506020860135614d6881615826565b93506040860135614d7881615826565b94979396509394606081013594506080013592915050565b600080600060608486031215614da4578283fd5b8335614daf81615826565b92506020840135614dbf81615826565b929592945050506040919091013590565b600080600060608486031215614de4578283fd5b8335614def81615826565b9250602084013591506040840135614e0681615849565b809150509250925092565b60008060008060808587031215614e26578384fd5b8435614e3181615826565b9350602085013592506040850135614e4881615849565b9396929550929360600135925050565b60008060408385031215614e6a578182fd5b82356001600160401b03811115614e7f578283fd5b614e8b85828601614c6a565b9250506020830135614e9c81615826565b809150509250929050565b600080600080600080600060e0888a031215614ec1578485fd5b87356001600160401b03811115614ed6578586fd5b614ee28a828b01614c6a565b9750506020880135614ef381615826565b95506040880135614f0381615826565b94506060880135614f1381615826565b93506080880135614f2381615826565b925060a0880135614f3381615826565b915060c088013562ffffff81168114614f4a578182fd5b8091505092959891949750929550565b60006020808385031215614f6c578182fd5b82516001600160401b03811115614f81578283fd5b8301601f81018513614f91578283fd5b8051614f9f614c8a826156b2565b80828252848201915084840188868560051b8701011115614fbe578687fd5b8694505b83851015614fe0578051835260019490940193918501918501614fc2565b50979650505050505050565b60008060208385031215614ffe578182fd5b82356001600160401b0380821115615014578384fd5b818501915085601f830112615027578384fd5b813581811115615035578485fd5b8660208260051b8501011115615049578485fd5b60209290920196919550909350505050565b60006020828403121561506c578081fd5b8151612d888161583b565b600060808284031215615088578081fd5b604051608081016001600160401b03811182821017156150aa576150aa615810565b60405282516150b881615826565b808252506020830151602082015260408301516040820152606083015160608201528091505092915050565b6000604082840312156150f5578081fd5b604080519081016001600160401b038111828210171561511757615117615810565b604052825181526020928301519281019290925250919050565b600080600060608486031215615145578081fd5b61514e84614ce2565b925061515c60208501614ce2565b91506040840151614e0681615849565b60006020828403121561517d578081fd5b5035919050565b600060208284031215615195578081fd5b5051919050565b600080604083850312156151ae578182fd5b505080516020909101519092909150565b6000806000606084860312156151d3578081fd5b8351925060208401519150604084015190509250925092565b6000602082840312156151fd578081fd5b8135612d8881615849565b6000806040838503121561521a578182fd5b823561522581615849565b91506020830135614e9c81615826565b600080600060608486031215615249578081fd5b8335614daf81615849565b60008060408385031215615266578182fd5b823561527181615849565b946020939093013593505050565b60008060008060808587031215615294578182fd5b843561529f81615849565b9350602085013592506040850135915060608501356152bd8161583b565b939692955090935050565b600080600080608085870312156152dd578182fd5b84356152e881615849565b966020860135965060408601359560600135945092505050565b6000825161531481846020870161578f565b9190910192915050565b6001600160a01b0391909116815260200190565b6001600160a01b0392831681529116602082015260400190565b6001600160a01b03929092168252602082015260400190565b60408101818460005b60018110156153965781516001600160a01b031683526020928301929091019060010161536e565b50505060208083018460005b60018110156153bf578151835291830191908301906001016153a2565b505050509392505050565b6020808252825182820181905260009190848201906040850190845b81811015615402578351835292840192918401916001016153e6565b50909695505050505050565b60208101600d831061543057634e487b7160e01b600052602160045260246000fd5b91905290565b602081526000825180602084015261545581604085016020870161578f565b601f01601f19169190910160400192915050565b60208082526013908201527210d95a5b1a5b99d31a5b5a5d14995858da1959606a1b604082015260600190565b6020808252602e908201527f496e697469616c697a61626c653a20636f6e747261637420697320616c72656160408201526d191e481a5b9a5d1a585b1a5e995960921b606082015260800190565b6020808252600b908201526a626164206164647265737360a81b604082015260600190565b602080825260129082015271141bdbdb08191bd95cdb89dd08195e1a5cdd60721b604082015260600190565b6020808252602e908201527f436f6e74726f6c6c65643a3a6f6e6c794d616e616765723a2043616c6c65722060408201526d34b9903737ba1036b0b730b3b2b960911b606082015260800190565b60208082526034908201527f436f6e74726f6c6c65643a3a6f6e6c79436f6e74726f6c6c65723a2043616c6c60408201527332b91034b9903737ba1031b7b73a3937b63632b960611b606082015260800190565b9182526001600160a01b0316602082015260400190565b918252602082015260400190565b600060a082018783526020878185015260a0604085015281875180845260c0860191508289019350845b8181101561564b5784516001600160a01b031683529383019391830191600101615626565b50506001600160a01b03969096166060850152505050608001529392505050565b63ffffffff929092168252602082015260400190565b604051601f8201601f191681016001600160401b03811182821017156156aa576156aa615810565b604052919050565b60006001600160401b038211156156cb576156cb615810565b5060051b60200190565b600082198211156156e8576156e86157fa565b500190565b600063ffffffff80831681851680830382111561570c5761570c6157fa565b01949350505050565b60008261573057634e487b7160e01b81526012600452602481fd5b500490565b600081600019048311821515161561574f5761574f6157fa565b500290565b600062ffffff83811690831681811015615770576157706157fa565b039392505050565b60008282101561578a5761578a6157fa565b500390565b60005b838110156157aa578181015183820152602001615792565b838111156119845750506000910152565b60006000198214156157cf576157cf6157fa565b5060010190565b600063ffffffff808316818114156157f0576157f06157fa565b6001019392505050565b634e487b7160e01b600052601160045260246000fd5b634e487b7160e01b600052604160045260246000fd5b6001600160a01b038116811461133a57600080fd5b801515811461133a57600080fd5b63ffffffff8116811461133a57600080fdfe6fb183d14e6407db4dfb55deb83841283e9e3015e3aabe210d446b16f1ce0937a264697066735822122018748f7bf1197e31125b40c14cbe01978325489e054cb98699af20c81482844f64736f6c63430008040033",
  "devdoc": {
    "kind": "dev",
    "methods": {
      "deposit(address,uint256,uint32)": {
        "params": {
          "amount": "The amount of the token being deposited",
          "tokenAddress": "The address of the deposited token"
        }
      },
      "getAmountOut(address,address,uint256)": {
        "params": {
          "amountIn": "The exact amount of the input to swap",
          "tokenIn": "The address of the input token",
          "tokenOut": "The address of the output token"
        },
        "returns": {
          "amountOut": "The estimated amount of tokenOut to receive"
        }
      },
      "getAmountOutMinimum(address,address,uint256)": {
        "params": {
          "amountIn": "The exact amount of the input to swap",
          "tokenIn": "The address of the input token",
          "tokenOut": "The address of the output token"
        },
        "returns": {
          "amountOutMinimum": "The minimum amount of tokenOut to receive, factoring in allowable slippage"
        }
      },
      "getBalance(uint32,address)": {
        "returns": {
          "_0": "tokenAddress The address of the token to get the balance of"
        }
      },
      "getPendingYield(uint32)": {
        "details": "Returns total amount of pending yield in SPIRIT rewards",
        "params": {
          "poolId": "the integration pool to retrieve yield for"
        },
        "returns": {
          "amounts": "Amounts of pending yield",
          "tokens": "Token addresses of pending yield"
        }
      },
      "harvestYield()": {
        "details": "Harvests token yield from the integration"
      },
      "incrementBalance(uint32,address,uint256)": {
        "params": {
          "amount": "The amount of the token being deposited",
          "token": "The address of the deposited token"
        }
      },
      "initialize(address[],address,address,address,address,address,uint24)": {
        "params": {
          "controllers_": "The address of the controlling contract",
          "factoryAddress_": "The address of the TraderJoe factory contract",
          "swapRouterAddress_": "The address of the TraderJoe  router contract"
        }
      },
      "rebalancePool(uint32,uint256,uint256,uint256)": {
        "params": {
          "maxSellTokenA": "max amount of tokenA to sell (to limit rebalancing)",
          "maxSellTokenB": "max amount of tokenB to sell (to limit rebalancing)",
          "poolId": "The ID of the pool to rebalance",
          "ratioX1000": "reserves ratio to control the price slippage"
        }
      },
      "withdraw(address,uint256,uint32)": {
        "params": {
          "amount": "The amoutn of the token to withdraw",
          "tokenAddress": "The address of the underlying token to withdraw"
        }
      }
    },
    "version": 1
  },
  "userdoc": {
    "events": {
      "CreatePool(address,address,uint32)": {
        "notice": "Events"
      }
    },
    "kind": "user",
    "methods": {
      "harvestYieldByPool(uint32,uint256,uint256,bool)": {
        "notice": "Harvest available yield for desired pool"
      },
      "rebalancePool(uint32,uint256,uint256,uint256)": {
        "notice": "Rebalances by attempting to swap up to max to get into position ratio"
      },
      "withdraw(address,uint256,uint32)": {
        "notice": "Withdraws token from the integration"
      }
    },
    "notice": "Integrates 0x Nodes to TraderJoe in Avalanche",
    "version": 1
  },
  "storageLayout": {
    "storage": [
      {
        "astId": 723,
        "contract": "contracts/yield-integrations/AvalancheTraderJoeIntegration.sol:AvalancheTraderJoeIntegration",
        "label": "_initialized",
        "offset": 0,
        "slot": "0",
        "type": "t_bool"
      },
      {
        "astId": 726,
        "contract": "contracts/yield-integrations/AvalancheTraderJoeIntegration.sol:AvalancheTraderJoeIntegration",
        "label": "_initializing",
        "offset": 1,
        "slot": "0",
        "type": "t_bool"
      },
      {
        "astId": 10099,
        "contract": "contracts/yield-integrations/AvalancheTraderJoeIntegration.sol:AvalancheTraderJoeIntegration",
        "label": "moduleMap",
        "offset": 2,
        "slot": "0",
        "type": "t_contract(IModuleMap)20911"
      },
      {
        "astId": 4667,
        "contract": "contracts/yield-integrations/AvalancheTraderJoeIntegration.sol:AvalancheTraderJoeIntegration",
        "label": "_controllers",
        "offset": 0,
        "slot": "1",
        "type": "t_mapping(t_address,t_bool)"
      },
      {
        "astId": 4670,
        "contract": "contracts/yield-integrations/AvalancheTraderJoeIntegration.sol:AvalancheTraderJoeIntegration",
        "label": "controllers",
        "offset": 0,
        "slot": "2",
        "type": "t_array(t_address)dyn_storage"
      },
      {
        "astId": 26794,
        "contract": "contracts/yield-integrations/AvalancheTraderJoeIntegration.sol:AvalancheTraderJoeIntegration",
        "label": "slippageNumerator",
        "offset": 0,
        "slot": "3",
        "type": "t_uint24"
      },
      {
        "astId": 26796,
        "contract": "contracts/yield-integrations/AvalancheTraderJoeIntegration.sol:AvalancheTraderJoeIntegration",
        "label": "factoryAddress",
        "offset": 3,
        "slot": "3",
        "type": "t_address"
      },
      {
        "astId": 26798,
        "contract": "contracts/yield-integrations/AvalancheTraderJoeIntegration.sol:AvalancheTraderJoeIntegration",
        "label": "swapRouterAddress",
        "offset": 0,
        "slot": "4",
        "type": "t_address"
      },
      {
        "astId": 26800,
        "contract": "contracts/yield-integrations/AvalancheTraderJoeIntegration.sol:AvalancheTraderJoeIntegration",
        "label": "masterChef",
        "offset": 0,
        "slot": "5",
        "type": "t_address"
      },
      {
        "astId": 26802,
        "contract": "contracts/yield-integrations/AvalancheTraderJoeIntegration.sol:AvalancheTraderJoeIntegration",
        "label": "rewardToken",
        "offset": 0,
        "slot": "6",
        "type": "t_address"
      },
      {
        "astId": 26804,
        "contract": "contracts/yield-integrations/AvalancheTraderJoeIntegration.sol:AvalancheTraderJoeIntegration",
        "label": "wnativeAddress",
        "offset": 0,
        "slot": "7",
        "type": "t_address"
      },
      {
        "astId": 26809,
        "contract": "contracts/yield-integrations/AvalancheTraderJoeIntegration.sol:AvalancheTraderJoeIntegration",
        "label": "pools",
        "offset": 0,
        "slot": "8",
        "type": "t_mapping(t_uint256,t_struct(Pool)19296_storage)"
      },
      {
        "astId": 26811,
        "contract": "contracts/yield-integrations/AvalancheTraderJoeIntegration.sol:AvalancheTraderJoeIntegration",
        "label": "poolCount",
        "offset": 0,
        "slot": "9",
        "type": "t_uint32"
      },
      {
        "astId": 26814,
        "contract": "contracts/yield-integrations/AvalancheTraderJoeIntegration.sol:AvalancheTraderJoeIntegration",
        "label": "poolIds",
        "offset": 0,
        "slot": "10",
        "type": "t_array(t_uint32)dyn_storage"
      },
      {
        "astId": 26818,
        "contract": "contracts/yield-integrations/AvalancheTraderJoeIntegration.sol:AvalancheTraderJoeIntegration",
        "label": "stakings",
        "offset": 0,
        "slot": "11",
        "type": "t_mapping(t_uint32,t_uint256)"
      },
      {
        "astId": 26824,
        "contract": "contracts/yield-integrations/AvalancheTraderJoeIntegration.sol:AvalancheTraderJoeIntegration",
        "label": "balances",
        "offset": 0,
        "slot": "12",
        "type": "t_mapping(t_uint256,t_mapping(t_address,t_uint256))"
      },
      {
        "astId": 26828,
        "contract": "contracts/yield-integrations/AvalancheTraderJoeIntegration.sol:AvalancheTraderJoeIntegration",
        "label": "yieldBalances",
        "offset": 0,
        "slot": "13",
        "type": "t_mapping(t_uint32,t_uint256)"
      },
      {
        "astId": 26832,
        "contract": "contracts/yield-integrations/AvalancheTraderJoeIntegration.sol:AvalancheTraderJoeIntegration",
        "label": "harvestedYield",
        "offset": 0,
        "slot": "14",
        "type": "t_mapping(t_uint32,t_uint256)"
      },
      {
        "astId": 26836,
        "contract": "contracts/yield-integrations/AvalancheTraderJoeIntegration.sol:AvalancheTraderJoeIntegration",
        "label": "rewardBalances",
        "offset": 0,
        "slot": "15",
        "type": "t_mapping(t_uint32,t_uint256)"
      }
    ],
    "types": {
      "t_address": {
        "encoding": "inplace",
        "label": "address",
        "numberOfBytes": "20"
      },
      "t_array(t_address)dyn_storage": {
        "base": "t_address",
        "encoding": "dynamic_array",
        "label": "address[]",
        "numberOfBytes": "32"
      },
      "t_array(t_uint32)dyn_storage": {
        "base": "t_uint32",
        "encoding": "dynamic_array",
        "label": "uint32[]",
        "numberOfBytes": "32"
      },
      "t_bool": {
        "encoding": "inplace",
        "label": "bool",
        "numberOfBytes": "1"
      },
      "t_contract(IModuleMap)20911": {
        "encoding": "inplace",
        "label": "contract IModuleMap",
        "numberOfBytes": "20"
      },
      "t_mapping(t_address,t_bool)": {
        "encoding": "mapping",
        "key": "t_address",
        "label": "mapping(address => bool)",
        "numberOfBytes": "32",
        "value": "t_bool"
      },
      "t_mapping(t_address,t_uint256)": {
        "encoding": "mapping",
        "key": "t_address",
        "label": "mapping(address => uint256)",
        "numberOfBytes": "32",
        "value": "t_uint256"
      },
      "t_mapping(t_uint256,t_mapping(t_address,t_uint256))": {
        "encoding": "mapping",
        "key": "t_uint256",
        "label": "mapping(uint256 => mapping(address => uint256))",
        "numberOfBytes": "32",
        "value": "t_mapping(t_address,t_uint256)"
      },
      "t_mapping(t_uint256,t_struct(Pool)19296_storage)": {
        "encoding": "mapping",
        "key": "t_uint256",
        "label": "mapping(uint256 => struct IAMMIntegration.Pool)",
        "numberOfBytes": "32",
        "value": "t_struct(Pool)19296_storage"
      },
      "t_mapping(t_uint32,t_uint256)": {
        "encoding": "mapping",
        "key": "t_uint32",
        "label": "mapping(uint32 => uint256)",
        "numberOfBytes": "32",
        "value": "t_uint256"
      },
      "t_struct(Pool)19296_storage": {
        "encoding": "inplace",
        "label": "struct IAMMIntegration.Pool",
        "members": [
          {
            "astId": 19291,
            "contract": "contracts/yield-integrations/AvalancheTraderJoeIntegration.sol:AvalancheTraderJoeIntegration",
            "label": "tokenA",
            "offset": 0,
            "slot": "0",
            "type": "t_address"
          },
          {
            "astId": 19293,
            "contract": "contracts/yield-integrations/AvalancheTraderJoeIntegration.sol:AvalancheTraderJoeIntegration",
            "label": "tokenB",
            "offset": 0,
            "slot": "1",
            "type": "t_address"
          },
          {
            "astId": 19295,
            "contract": "contracts/yield-integrations/AvalancheTraderJoeIntegration.sol:AvalancheTraderJoeIntegration",
            "label": "positionID",
            "offset": 0,
            "slot": "2",
            "type": "t_uint256"
          }
        ],
        "numberOfBytes": "96"
      },
      "t_uint24": {
        "encoding": "inplace",
        "label": "uint24",
        "numberOfBytes": "3"
      },
      "t_uint256": {
        "encoding": "inplace",
        "label": "uint256",
        "numberOfBytes": "32"
      },
      "t_uint32": {
        "encoding": "inplace",
        "label": "uint32",
        "numberOfBytes": "4"
      }
    }
  }
}