{
  "address": "0x2cB3bD39913f72DD3DFd1dE14f07f207703A968e",
  "abi": [
    {
      "anonymous": false,
      "inputs": [
        {
          "indexed": true,
          "internalType": "address",
          "name": "user",
          "type": "address"
        },
        {
          "indexed": false,
          "internalType": "address[]",
          "name": "tokens",
          "type": "address[]"
        },
        {
          "indexed": false,
          "internalType": "uint256[]",
          "name": "amounts",
          "type": "uint256[]"
        }
      ],
      "name": "BridgeFrom",
      "type": "event"
    },
    {
      "anonymous": false,
      "inputs": [
        {
          "indexed": true,
          "internalType": "address",
          "name": "user",
          "type": "address"
        },
        {
          "indexed": false,
          "internalType": "address[]",
          "name": "tokens",
          "type": "address[]"
        },
        {
          "indexed": false,
          "internalType": "uint256[]",
          "name": "amounts",
          "type": "uint256[]"
        }
      ],
      "name": "BridgeTo",
      "type": "event"
    },
    {
      "anonymous": false,
      "inputs": [
        {
          "indexed": true,
          "internalType": "address",
          "name": "user",
          "type": "address"
        },
        {
          "indexed": false,
          "internalType": "address[]",
          "name": "tokens",
          "type": "address[]"
        }
      ],
      "name": "ClaimLpFeeRewards",
      "type": "event"
    },
    {
      "anonymous": false,
      "inputs": [
        {
          "indexed": true,
          "internalType": "address",
          "name": "user",
          "type": "address"
        },
        {
          "indexed": false,
          "internalType": "address[]",
          "name": "tokens",
          "type": "address[]"
        },
        {
          "indexed": false,
          "internalType": "uint256[]",
          "name": "tokenAmounts",
          "type": "uint256[]"
        }
      ],
      "name": "ProvideLiquidity",
      "type": "event"
    },
    {
      "anonymous": false,
      "inputs": [
        {
          "indexed": true,
          "internalType": "address",
          "name": "user",
          "type": "address"
        },
        {
          "indexed": false,
          "internalType": "address[]",
          "name": "tokens",
          "type": "address[]"
        },
        {
          "indexed": false,
          "internalType": "uint256[]",
          "name": "tokenAmounts",
          "type": "uint256[]"
        }
      ],
      "name": "TakeLiquidity",
      "type": "event"
    },
    {
      "anonymous": false,
      "inputs": [
        {
          "indexed": true,
          "internalType": "address",
          "name": "user",
          "type": "address"
        },
        {
          "indexed": false,
          "internalType": "address[]",
          "name": "tokens",
          "type": "address[]"
        },
        {
          "indexed": false,
          "internalType": "uint256[]",
          "name": "amounts",
          "type": "uint256[]"
        }
      ],
      "name": "UndoBridgeFrom",
      "type": "event"
    },
    {
      "anonymous": false,
      "inputs": [
        {
          "indexed": false,
          "internalType": "address[]",
          "name": "tokens",
          "type": "address[]"
        },
        {
          "indexed": false,
          "internalType": "uint256[]",
          "name": "tokenAmounts",
          "type": "uint256[]"
        },
        {
          "indexed": false,
          "internalType": "bool[]",
          "name": "add",
          "type": "bool[]"
        }
      ],
      "name": "UpdateTokenPoolLpBalances",
      "type": "event"
    },
    {
      "inputs": [
        {
          "internalType": "address[]",
          "name": "controllers_",
          "type": "address[]"
        },
        {
          "internalType": "address",
          "name": "moduleMap_",
          "type": "address"
        }
      ],
      "name": "__Controlled_init",
      "outputs": [],
      "stateMutability": "nonpayable",
      "type": "function"
    },
    {
      "inputs": [
        {
          "internalType": "address",
          "name": "controller",
          "type": "address"
        }
      ],
      "name": "addController",
      "outputs": [],
      "stateMutability": "nonpayable",
      "type": "function"
    },
    {
      "inputs": [
        {
          "internalType": "address",
          "name": "user",
          "type": "address"
        },
        {
          "internalType": "address[]",
          "name": "tokens",
          "type": "address[]"
        },
        {
          "internalType": "uint256[]",
          "name": "amounts",
          "type": "uint256[]"
        }
      ],
      "name": "bridgeFrom",
      "outputs": [],
      "stateMutability": "nonpayable",
      "type": "function"
    },
    {
      "inputs": [
        {
          "internalType": "address",
          "name": "user",
          "type": "address"
        },
        {
          "internalType": "address[]",
          "name": "tokens",
          "type": "address[]"
        },
        {
          "internalType": "uint256[]",
          "name": "amounts",
          "type": "uint256[]"
        }
      ],
      "name": "bridgeTo",
      "outputs": [],
      "stateMutability": "nonpayable",
      "type": "function"
    },
    {
      "inputs": [
        {
          "internalType": "address",
          "name": "user",
          "type": "address"
        },
        {
          "internalType": "address[]",
          "name": "tokens",
          "type": "address[]"
        }
      ],
      "name": "claimLpFeeRewards",
      "outputs": [],
      "stateMutability": "nonpayable",
      "type": "function"
    },
    {
      "inputs": [
        {
          "internalType": "uint256",
          "name": "",
          "type": "uint256"
        }
      ],
      "name": "controllers",
      "outputs": [
        {
          "internalType": "address",
          "name": "",
          "type": "address"
        }
      ],
      "stateMutability": "view",
      "type": "function"
    },
    {
      "inputs": [],
      "name": "getRelayAccount",
      "outputs": [
        {
          "internalType": "address",
          "name": "",
          "type": "address"
        }
      ],
      "stateMutability": "view",
      "type": "function"
    },
    {
      "inputs": [
        {
          "internalType": "address",
          "name": "asset",
          "type": "address"
        }
      ],
      "name": "getTokenLpUsers",
      "outputs": [
        {
          "internalType": "address[]",
          "name": "",
          "type": "address[]"
        }
      ],
      "stateMutability": "view",
      "type": "function"
    },
    {
      "inputs": [
        {
          "internalType": "address",
          "name": "asset",
          "type": "address"
        }
      ],
      "name": "getTokenPoolLpActivePositions",
      "outputs": [
        {
          "internalType": "uint256",
          "name": "",
          "type": "uint256"
        }
      ],
      "stateMutability": "view",
      "type": "function"
    },
    {
      "inputs": [
        {
          "internalType": "address",
          "name": "asset",
          "type": "address"
        }
      ],
      "name": "getTokenPoolLpBalance",
      "outputs": [
        {
          "internalType": "uint256",
          "name": "",
          "type": "uint256"
        }
      ],
      "stateMutability": "view",
      "type": "function"
    },
    {
      "inputs": [
        {
          "internalType": "address",
          "name": "asset",
          "type": "address"
        }
      ],
      "name": "getTokenProtocolFeeRewards",
      "outputs": [
        {
          "internalType": "uint256",
          "name": "",
          "type": "uint256"
        }
      ],
      "stateMutability": "view",
      "type": "function"
    },
    {
      "inputs": [
        {
          "internalType": "address",
          "name": "asset",
          "type": "address"
        },
        {
          "internalType": "address",
          "name": "user",
          "type": "address"
        }
      ],
      "name": "getTokenUserLpBalance",
      "outputs": [
        {
          "internalType": "uint256",
          "name": "",
          "type": "uint256"
        }
      ],
      "stateMutability": "view",
      "type": "function"
    },
    {
      "inputs": [
        {
          "internalType": "address",
          "name": "asset",
          "type": "address"
        },
        {
          "internalType": "address",
          "name": "user",
          "type": "address"
        }
      ],
      "name": "getTokenUserLpFeeRewardBalance",
      "outputs": [
        {
          "internalType": "uint256",
          "name": "",
          "type": "uint256"
        }
      ],
      "stateMutability": "view",
      "type": "function"
    },
    {
      "inputs": [
        {
          "internalType": "address[]",
          "name": "controllers_",
          "type": "address[]"
        },
        {
          "internalType": "address",
          "name": "moduleMap_",
          "type": "address"
        },
        {
          "internalType": "address payable",
          "name": "relayAccount_",
          "type": "address"
        }
      ],
      "name": "initialize",
      "outputs": [],
      "stateMutability": "nonpayable",
      "type": "function"
    },
    {
      "inputs": [],
      "name": "moduleMap",
      "outputs": [
        {
          "internalType": "contract IModuleMap",
          "name": "",
          "type": "address"
        }
      ],
      "stateMutability": "view",
      "type": "function"
    },
    {
      "inputs": [
        {
          "internalType": "address",
          "name": "user",
          "type": "address"
        },
        {
          "internalType": "address[]",
          "name": "tokens",
          "type": "address[]"
        },
        {
          "internalType": "uint256[]",
          "name": "amounts",
          "type": "uint256[]"
        }
      ],
      "name": "provideLiquidity",
      "outputs": [],
      "stateMutability": "nonpayable",
      "type": "function"
    },
    {
      "inputs": [
        {
          "internalType": "address",
          "name": "user",
          "type": "address"
        },
        {
          "internalType": "address[]",
          "name": "tokens",
          "type": "address[]"
        },
        {
          "internalType": "uint256[]",
          "name": "amounts",
          "type": "uint256[]"
        }
      ],
      "name": "takeLiquidity",
      "outputs": [],
      "stateMutability": "nonpayable",
      "type": "function"
    },
    {
      "inputs": [
        {
          "internalType": "address",
          "name": "user",
          "type": "address"
        },
        {
          "internalType": "address[]",
          "name": "tokens",
          "type": "address[]"
        },
        {
          "internalType": "uint256[]",
          "name": "amounts",
          "type": "uint256[]"
        }
      ],
      "name": "undoBridgeFrom",
      "outputs": [],
      "stateMutability": "nonpayable",
      "type": "function"
    },
    {
      "inputs": [
        {
          "internalType": "address payable",
          "name": "relayAccount_",
          "type": "address"
        }
      ],
      "name": "updateRelayAccount",
      "outputs": [],
      "stateMutability": "nonpayable",
      "type": "function"
    }
  ],
  "transactionHash": "0x98b8a111efc27dde9d3873d61efd9c08c007152f478390bb1d3f0011659c6801",
  "args": [],
  "solcInputHash": "3c329c0643231770f636e8187b4b428d",
  "bytecode": "0x608060405234801561001057600080fd5b50613f09806100206000396000f3fe608060405234801561001057600080fd5b50600436106100f15760003560e01c80630f0a1c6f146100f657806316c0f76b146101255780633dbcbbae14610136578063402c68cc1461016d57806343f0a5bb146101825780638ba2f3cf1461019557806390482d72146101d157806390d81be9146101e457806392092de7146101f757806398c671ce1461020a578063a07f12a31461021d578063a7fc7a0714610246578063aaba1ca214610259578063b59b464b14610279578063c52170461461028c578063c5efb53a1461029f578063d84ac98c146102d8578063e94b0dd2146102eb578063fd2b5134146102fe575b600080fd5b60005461010f906201000090046001600160a01b031681565b60405161011c9190613a32565b60405180910390f35b6035546001600160a01b031661010f565b61015f6101443660046136e6565b6001600160a01b031660009081526038602052604090205490565b60405190815260200161011c565b61018061017b3660046137aa565b610311565b005b6101806101903660046137aa565b61069b565b61015f6101a3366004613725565b6001600160a01b03918216600090815260366020908152604080832093909416825291909152206001015490565b6101806101df3660046138ba565b610f28565b6101806101f23660046137aa565b610fc2565b6101806102053660046137aa565b61137a565b610180610218366004613876565b6118a1565b61015f61022b3660046136e6565b6001600160a01b031660009081526037602052604090205490565b6101806102543660046136e6565b6119a8565b61026c6102673660046136e6565b611be5565b60405161011c9190613a46565b6101806102873660046136e6565b611c5b565b61015f61029a3660046136e6565b611cac565b61015f6102ad366004613725565b6001600160a01b03918216600090815260366020908152604080832093909416825291909152205490565b6101806102e636600461375d565b611dab565b61010f6102f936600461393b565b612176565b61018061030c3660046137aa565b6121a0565b6035546001600160a01b031633146103445760405162461bcd60e51b815260040161033b90613b45565b60405180910390fd5b818160008060029054906101000a90046001600160a01b03166001600160a01b0316636f8c3f8a60036040518263ffffffff1660e01b81526004016103899190613b1d565b60206040518083038186803b1580156103a157600080fd5b505afa1580156103b5573d6000803e3d6000fd5b505050506040513d601f19601f820116820180604052508101906103d99190613709565b905081518351146103fc5760405162461bcd60e51b815260040161033b90613c3b565b60005b83518110156104d957816001600160a01b031663ea0db29685838151811061043757634e487b7160e01b600052603260045260246000fd5b60200260200101516040518263ffffffff1660e01b815260040161045b9190613a32565b60206040518083038186803b15801561047357600080fd5b505afa158015610487573d6000803e3d6000fd5b505050506040513d601f19601f820116820180604052508101906104ab919061391b565b6104c75760405162461bcd60e51b815260040161033b90613ba1565b806104d181613dd4565b9150506103ff565b50600260035414156104fd5760405162461bcd60e51b815260040161033b90613cdc565b600260035584516000906001600160401b0381111561052c57634e487b7160e01b600052604160045260246000fd5b604051908082528060200260200182016040528015610555578160200160208202803683370190505b50600080546040516337c61fc560e11b81529293509091620100009091046001600160a01b031690636f8c3f8a9061059290600190600401613b1d565b60206040518083038186803b1580156105aa57600080fd5b505afa1580156105be573d6000803e3d6000fd5b505050506040513d601f19601f820116820180604052508101906105e29190613709565b60405163f0f25dd560e01b81529091506001600160a01b0382169063f0f25dd590610617908a908c908b908890600401613a59565b600060405180830381600087803b15801561063157600080fd5b505af1158015610645573d6000803e3d6000fd5b50505050876001600160a01b03167fc0d927b1a552ab2c106f99c6abfa28a20e4ad4feea024b7997adff3d1885bd0b8888604051610684929190613aac565b60405180910390a250506001600355505050505050565b3360009081526001602052604090205460ff166106ca5760405162461bcd60e51b815260040161033b90613c88565b80518251146107525760405162461bcd60e51b815260206004820152604860248201527f496e746572636f6e6e656374733a3a74616b654c69717569646974793a204c6560448201527f6e677468206f6620746f6b656e7320616e6420616d6f756e7473206d75737420606482015267189948195c5d585b60c21b608482015260a40161033b565b600080546040516337c61fc560e11b8152620100009091046001600160a01b031690636f8c3f8a9061078990600190600401613b1d565b60206040518083038186803b1580156107a157600080fd5b505afa1580156107b5573d6000803e3d6000fd5b505050506040513d601f19601f820116820180604052508101906107d99190613709565b9050600083516001600160401b0381111561080457634e487b7160e01b600052604160045260246000fd5b60405190808252806020026020018201604052801561082d578160200160208202803683370190505b509050600083516001600160401b0381111561085957634e487b7160e01b600052604160045260246000fd5b604051908082528060200260200182016040528015610882578160200160208202803683370190505b509050600085516001600160401b038111156108ae57634e487b7160e01b600052604160045260246000fd5b6040519080825280602002602001820160405280156108d7578160200160208202803683370190505b50905060005b8651811015610e7757600087828151811061090857634e487b7160e01b600052603260045260246000fd5b60200260200101519050600087838151811061093457634e487b7160e01b600052603260045260246000fd5b602002602001015111801561099757506001600160a01b038082166000908152603660209081526040808320938d1683529290522054875188908490811061098c57634e487b7160e01b600052603260045260246000fd5b602002602001015111155b610a395760405162461bcd60e51b81526020600482015260736024820152600080516020613e9483398151915260448201527f20616d6f756e74206d7573742062652067726561746572207468616e207a657260648201527f6f20616e64206e6f206d6f7265207468616e20746865207573657227732062616084820152723630b731b2903337b9103a3432903a37b5b2b760691b60a482015260c40161033b565b6001600160a01b0381166000908152603760205260409020548751889084908110610a7457634e487b7160e01b600052603260045260246000fd5b60200260200101511115610b105760405162461bcd60e51b81526020600482015260636024820152600080516020613e9483398151915260448201527f20616d6f756e74206d757374206265206e6f206d6f7265207468616e2074686560648201527f20617661696c61626c6520616d6f756e7420696e2074686520746f6b656e20706084820152621bdbdb60ea1b60a482015260c40161033b565b80858381518110610b3157634e487b7160e01b600052603260045260246000fd5b60200260200101906001600160a01b031690816001600160a01b031681525050868281518110610b7157634e487b7160e01b600052603260045260246000fd5b6020026020010151848381518110610b9957634e487b7160e01b600052603260045260246000fd5b6020026020010181815250506001838381518110610bc757634e487b7160e01b600052603260045260246000fd5b602002602001019015159081151581525050868281518110610bf957634e487b7160e01b600052603260045260246000fd5b6020908102919091018101516001600160a01b038084166000908152603684526040808220928e168252919093528220805491929091610c3a908490613dbd565b92505081905550868281518110610c6157634e487b7160e01b600052603260045260246000fd5b602002602001015160376000836001600160a01b03166001600160a01b031681526020019081526020016000206000828254610c9d9190613dbd565b90915550506001600160a01b038082166000908152603660209081526040808320938d1683529290522054610e645760005b6001600160a01b038216600090815260396020526040902054811015610e62576001600160a01b0382811660009081526039602052604090208054918c169183908110610d2c57634e487b7160e01b600052603260045260246000fd5b6000918252602090912001546001600160a01b03161415610e50576001600160a01b03821660009081526039602052604090208054610d6d90600190613dbd565b81548110610d8b57634e487b7160e01b600052603260045260246000fd5b60009182526020808320909101546001600160a01b03858116845260399092526040909220805491909216919083908110610dd657634e487b7160e01b600052603260045260246000fd5b600091825260208083209190910180546001600160a01b0319166001600160a01b039485161790559184168152603990915260409020805480610e2957634e487b7160e01b600052603160045260246000fd5b600082815260209020810160001990810180546001600160a01b0319169055019055610e62565b80610e5a81613dd4565b915050610ccf565b505b5080610e6f81613dd4565b9150506108dd565b5060405163f0f25dd560e01b81526001600160a01b0385169063f0f25dd590610eaa9086908b9087908790600401613a59565b600060405180830381600087803b158015610ec457600080fd5b505af1158015610ed8573d6000803e3d6000fd5b50505050866001600160a01b03167fa1f0a36e60af87632f11db638faac61619cceacdc0aa92c9d55c6145fc0c89578787604051610f17929190613aac565b60405180910390a250505050505050565b600054610100900460ff16610f435760005460ff1615610f47565b303b155b610f635760405162461bcd60e51b815260040161033b90613bed565b600054610100900460ff16158015610f85576000805461ffff19166101011790555b610f8f84846118a1565b603580546001600160a01b0319166001600160a01b0384161790558015610fbc576000805461ff00191690555b50505050565b6035546001600160a01b03163314610fec5760405162461bcd60e51b815260040161033b90613b45565b818160008060029054906101000a90046001600160a01b03166001600160a01b0316636f8c3f8a60036040518263ffffffff1660e01b81526004016110319190613b1d565b60206040518083038186803b15801561104957600080fd5b505afa15801561105d573d6000803e3d6000fd5b505050506040513d601f19601f820116820180604052508101906110819190613709565b905081518351146110a45760405162461bcd60e51b815260040161033b90613c3b565b60005b835181101561118157816001600160a01b031663ea0db2968583815181106110df57634e487b7160e01b600052603260045260246000fd5b60200260200101516040518263ffffffff1660e01b81526004016111039190613a32565b60206040518083038186803b15801561111b57600080fd5b505afa15801561112f573d6000803e3d6000fd5b505050506040513d601f19601f82011682018060405250810190611153919061391b565b61116f5760405162461bcd60e51b815260040161033b90613ba1565b8061117981613dd4565b9150506110a7565b50600260035414156111a55760405162461bcd60e51b815260040161033b90613cdc565b600260035584516000906001600160401b038111156111d457634e487b7160e01b600052604160045260246000fd5b6040519080825280602002602001820160405280156111fd578160200160208202803683370190505b50905060005b865181101561125057600182828151811061122e57634e487b7160e01b600052603260045260246000fd5b911515602092830291909101909101528061124881613dd4565b915050611203565b50600080546040516337c61fc560e11b8152620100009091046001600160a01b031690636f8c3f8a9061128890600190600401613b1d565b60206040518083038186803b1580156112a057600080fd5b505afa1580156112b4573d6000803e3d6000fd5b505050506040513d601f19601f820116820180604052508101906112d89190613709565b60405163f0f25dd560e01b81529091506001600160a01b0382169063f0f25dd59061130d908a908c908b908890600401613a59565b600060405180830381600087803b15801561132757600080fd5b505af115801561133b573d6000803e3d6000fd5b50505050876001600160a01b03167fe74c23878a8558dd68d0e6448fc8c06e1c5b0652bc2d0181d9e95797d9cb7c418888604051610684929190613aac565b6035546001600160a01b031633146113a45760405162461bcd60e51b815260040161033b90613b45565b818160008060029054906101000a90046001600160a01b03166001600160a01b0316636f8c3f8a60036040518263ffffffff1660e01b81526004016113e99190613b1d565b60206040518083038186803b15801561140157600080fd5b505afa158015611415573d6000803e3d6000fd5b505050506040513d601f19601f820116820180604052508101906114399190613709565b9050815183511461145c5760405162461bcd60e51b815260040161033b90613c3b565b60005b835181101561153957816001600160a01b031663ea0db29685838151811061149757634e487b7160e01b600052603260045260246000fd5b60200260200101516040518263ffffffff1660e01b81526004016114bb9190613a32565b60206040518083038186803b1580156114d357600080fd5b505afa1580156114e7573d6000803e3d6000fd5b505050506040513d601f19601f8201168201806040525081019061150b919061391b565b6115275760405162461bcd60e51b815260040161033b90613ba1565b8061153181613dd4565b91505061145f565b506002600354141561155d5760405162461bcd60e51b815260040161033b90613cdc565b600260035584516000906001600160401b0381111561158c57634e487b7160e01b600052604160045260246000fd5b6040519080825280602002602001820160405280156115b5578160200160208202803683370190505b509050600086516001600160401b038111156115e157634e487b7160e01b600052604160045260246000fd5b60405190808252806020026020018201604052801561160a578160200160208202803683370190505b50905060005b875181101561165d57600183828151811061163b57634e487b7160e01b600052603260045260246000fd5b911515602092830291909101909101528061165581613dd4565b915050611610565b50600080600061166d8a8a6129ca565b92509250925061167e8a8a86613025565b600080546040516337c61fc560e11b8152620100009091046001600160a01b031690636f8c3f8a906116b590600190600401613b1d565b60206040518083038186803b1580156116cd57600080fd5b505afa1580156116e1573d6000803e3d6000fd5b505050506040513d601f19601f820116820180604052508101906117059190613709565b9050806001600160a01b0316635702ea2a8c8e858a6040518563ffffffff1660e01b81526004016117399493929190613a59565b600060405180830381600087803b15801561175357600080fd5b505af1158015611767573d6000803e3d6000fd5b5050505060005b8b5181101561184a5760008c828151811061179957634e487b7160e01b600052603260045260246000fd5b6020026020010151905060008583815181106117c557634e487b7160e01b600052603260045260246000fd5b6020026020010151905060008784815181106117f157634e487b7160e01b600052603260045260246000fd5b60200260200101519050611805838361345a565b6001600160a01b0383166000908152603860205260408120805483929061182d908490613d66565b92505081905550505050808061184290613dd4565b91505061176e565b508b6001600160a01b03167f3e5de4d4037a75074ae26c1254648d020c004bfbee680cd606953c27223c126e8c8c604051611886929190613aac565b60405180910390a25050600160035550505050505050505050565b600054610100900460ff166118bc5760005460ff16156118c0565b303b155b6118dc5760405162461bcd60e51b815260040161033b90613bed565b600054610100900460ff161580156118fe576000805461ffff19166101011790555b60005b835181101561197357600180600086848151811061192f57634e487b7160e01b600052603260045260246000fd5b6020908102919091018101516001600160a01b03168252810191909152604001600020805460ff19169115159190911790558061196b81613dd4565b915050611901565b5082516119879060029060208601906135f4565b5061199182613560565b80156119a3576000805461ff00191690555b505050565b600080546040516337c61fc560e11b8152620100009091046001600160a01b031691636f8c3f8a916119dd9190600401613b1d565b60206040518083038186803b1580156119f557600080fd5b505afa158015611a09573d6000803e3d6000fd5b505050506040513d601f19601f82011682018060405250810190611a2d9190613709565b6001600160a01b0316632f54bf6e336040518263ffffffff1660e01b8152600401611a589190613a32565b60206040518083038186803b158015611a7057600080fd5b505afa158015611a84573d6000803e3d6000fd5b505050506040513d601f19601f82011682018060405250810190611aa8919061391b565b611b075760405162461bcd60e51b815260206004820152602a60248201527f436f6e74726f6c6c65643a3a6f6e6c794f776e65723a2043616c6c6572206973604482015269103737ba1037bbb732b960b11b606482015260840161033b565b6001600160a01b03811660009081526001602081905260408220805460ff19169091179055805b600254811015611b8f5760028181548110611b5957634e487b7160e01b600052603260045260246000fd5b6000918252602090912001546001600160a01b0384811691161415611b7d57600191505b80611b8781613dd4565b915050611b2e565b5080611be157600280546001810182556000919091527f405787fa12a823e0f2b7631cc41b3ba8828b3321ca811111fa75cd3aa3bb5ace0180546001600160a01b0319166001600160a01b0384161790555b5050565b6001600160a01b038116600090815260396020908152604091829020805483518184028101840190945280845260609392830182828015611c4f57602002820191906000526020600020905b81546001600160a01b03168152600190910190602001808311611c31575b50505050509050919050565b3360009081526001602052604090205460ff16611c8a5760405162461bcd60e51b815260040161033b90613c88565b603580546001600160a01b0319166001600160a01b0392909216919091179055565b6001600160a01b0381166000908152603960209081526040808320805482518185028101850190935280835284938493929190830182828015611d1857602002820191906000526020600020905b81546001600160a01b03168152600190910190602001808311611cfa575b5050505050905060005b8151811015611da2576000828281518110611d4d57634e487b7160e01b600052603260045260246000fd5b6020908102919091018101516001600160a01b03808916600090815260368452604080822092841682529190935290912054909150611d8c9085613d66565b9350508080611d9a90613dd4565b915050611d22565b50909392505050565b3360009081526001602052604090205460ff16611dda5760405162461bcd60e51b815260040161033b90613c88565b60026003541415611dfd5760405162461bcd60e51b815260040161033b90613cdc565b6002600355600080546040516337c61fc560e11b8152620100009091046001600160a01b031690636f8c3f8a90611e3990600190600401613b1d565b60206040518083038186803b158015611e5157600080fd5b505afa158015611e65573d6000803e3d6000fd5b505050506040513d601f19601f82011682018060405250810190611e899190613709565b9050600082516001600160401b03811115611eb457634e487b7160e01b600052604160045260246000fd5b604051908082528060200260200182016040528015611edd578160200160208202803683370190505b509050600083516001600160401b03811115611f0957634e487b7160e01b600052604160045260246000fd5b604051908082528060200260200182016040528015611f32578160200160208202803683370190505b50905060005b84518110156120c4576000858281518110611f6357634e487b7160e01b600052603260045260246000fd5b6020908102919091018101516001600160a01b038082166000908152603684526040808220928c1682529190935290912060010154909150806120225760405162461bcd60e51b815260206004820152604b60248201527f496e746572636f6e6e656374733a3a636c61696d4c70466565733a204c50206660448201527f6565207265776172642062616c616e6365206d7573742062652067726561746560648201526a72207468616e207a65726f60a81b608482015260a40161033b565b6001600160a01b038083166000908152603660209081526040808320938c168352929052908120600101558451819086908590811061207157634e487b7160e01b600052603260045260246000fd5b602002602001018181525050600184848151811061209f57634e487b7160e01b600052603260045260246000fd5b91151560209283029190910190910152508190506120bc81613dd4565b915050611f38565b5060405163f0f25dd560e01b81526001600160a01b0384169063f0f25dd5906120f7908790899087908790600401613a59565b600060405180830381600087803b15801561211157600080fd5b505af1158015612125573d6000803e3d6000fd5b50505050846001600160a01b03167f85de76e33a0549b6782937a91bc55eb27cc8f5554c303a9e263cac55e52c9293856040516121629190613a46565b60405180910390a250506001600355505050565b6002818154811061218657600080fd5b6000918252602090912001546001600160a01b0316905081565b3360009081526001602052604090205460ff166121cf5760405162461bcd60e51b815260040161033b90613c88565b80518251146122365760405162461bcd60e51b815260206004820152604b6024820152600080516020613e748339815191526044820152600080516020613e3483398151915260648201526a1cdd08189948195c5d585b60aa1b608482015260a40161033b565b600080546040516337c61fc560e11b8152620100009091046001600160a01b031690636f8c3f8a9061226d90600390600401613b1d565b60206040518083038186803b15801561228557600080fd5b505afa158015612299573d6000803e3d6000fd5b505050506040513d601f19601f820116820180604052508101906122bd9190613709565b600080546040516337c61fc560e11b81529293509091620100009091046001600160a01b031690636f8c3f8a906122f990600190600401613b1d565b60206040518083038186803b15801561231157600080fd5b505afa158015612325573d6000803e3d6000fd5b505050506040513d601f19601f820116820180604052508101906123499190613709565b9050600084516001600160401b0381111561237457634e487b7160e01b600052604160045260246000fd5b60405190808252806020026020018201604052801561239d578160200160208202803683370190505b509050600084516001600160401b038111156123c957634e487b7160e01b600052604160045260246000fd5b6040519080825280602002602001820160405280156123f2578160200160208202803683370190505b509050600086516001600160401b0381111561241e57634e487b7160e01b600052604160045260246000fd5b604051908082528060200260200182016040528015612447578160200160208202803683370190505b50905060005b875181101561291857856001600160a01b031663b17f0b6389838151811061248557634e487b7160e01b600052603260045260246000fd5b60200260200101516040518263ffffffff1660e01b81526004016124a99190613a32565b60206040518083038186803b1580156124c157600080fd5b505afa1580156124d5573d6000803e3d6000fd5b505050506040513d601f19601f820116820180604052508101906124f9919061391b565b61256b5760405162461bcd60e51b81526020600482015260496024820152600080516020613e7483398151915260448201527f205468697320746f6b656e206973206e6f7420616363657074696e67204c5020606482015268706f736974696f6e7360b81b608482015260a40161033b565b600088828151811061258d57634e487b7160e01b600052603260045260246000fd5b6020026020010151905060008883815181106125b957634e487b7160e01b600052603260045260246000fd5b6020026020010151118015612675575060405163168e0c9960e31b81526001600160a01b0382811660048301528b8116602483015287169063b47064c89060440160206040518083038186803b15801561261257600080fd5b505afa158015612626573d6000803e3d6000fd5b505050506040513d601f19601f8201168201806040525081019061264a9190613953565b88838151811061266a57634e487b7160e01b600052603260045260246000fd5b602002602001015111155b61270c5760405162461bcd60e51b81526020600482015260686024820152600080516020613e7483398151915260448201527f204c5020616d6f756e74206d7573742062652067726561746572207468616e2060648201527f7a65726f20616e64206e6f206d6f7265207468616e20746865207573657227736084820152672062616c616e636560c01b60a482015260c40161033b565b8085838151811061272d57634e487b7160e01b600052603260045260246000fd5b60200260200101906001600160a01b031690816001600160a01b03168152505087828151811061276d57634e487b7160e01b600052603260045260246000fd5b602002602001015184838151811061279557634e487b7160e01b600052603260045260246000fd5b60200260200101818152505060008383815181106127c357634e487b7160e01b600052603260045260246000fd5b9115156020928302919091018201526001600160a01b038083166000908152603683526040808220928e1682529190925290205461283a576001600160a01b0381811660009081526039602090815260408220805460018101825590835291200180546001600160a01b031916918c169190911790555b87828151811061285a57634e487b7160e01b600052603260045260246000fd5b6020908102919091018101516001600160a01b038084166000908152603684526040808220928f16825291909352822080549192909161289b908490613d66565b925050819055508782815181106128c257634e487b7160e01b600052603260045260246000fd5b602002602001015160376000836001600160a01b03166001600160a01b0316815260200190815260200160002060008282546128fe9190613d66565b90915550829150612910905081613dd4565b91505061244d565b5060405163f0f25dd560e01b81526001600160a01b0385169063f0f25dd59061294b9086908c9087908790600401613a59565b600060405180830381600087803b15801561296557600080fd5b505af1158015612979573d6000803e3d6000fd5b50505050876001600160a01b03167f22e6ae20e2e0df5f416bcd6e7f6d19e21922b83a293acce479b03994e401207188886040516129b8929190613aac565b60405180910390a25050505050505050565b600080546040516337c61fc560e11b815260609283928392620100009091046001600160a01b031690636f8c3f8a90612a0890600390600401613b1d565b60206040518083038186803b158015612a2057600080fd5b505afa158015612a34573d6000803e3d6000fd5b505050506040513d601f19601f82011682018060405250810190612a589190613709565b90506000816001600160a01b03166350e7fc376040518163ffffffff1660e01b815260040160206040518083038186803b158015612a9557600080fd5b505afa158015612aa9573d6000803e3d6000fd5b505050506040513d601f19601f82011682018060405250810190612acd919061396b565b90506000826001600160a01b031663804773c86040518163ffffffff1660e01b815260040160206040518083038186803b158015612b0a57600080fd5b505afa158015612b1e573d6000803e3d6000fd5b505050506040513d601f19601f82011682018060405250810190612b42919061396b565b90506000836001600160a01b031663967cb96e6040518163ffffffff1660e01b815260040160206040518083038186803b158015612b7f57600080fd5b505afa158015612b93573d6000803e3d6000fd5b505050506040513d601f19601f82011682018060405250810190612bb7919061396b565b905088516001600160401b03811115612be057634e487b7160e01b600052604160045260246000fd5b604051908082528060200260200182016040528015612c09578160200160208202803683370190505b50965088516001600160401b03811115612c3357634e487b7160e01b600052604160045260246000fd5b604051908082528060200260200182016040528015612c5c578160200160208202803683370190505b50955088516001600160401b03811115612c8657634e487b7160e01b600052604160045260246000fd5b604051908082528060200260200182016040528015612caf578160200160208202803683370190505b50945060005b89518110156130195760008a8281518110612ce057634e487b7160e01b600052603260045260246000fd5b602002602001015190506000866001600160a01b031663eab12c95836040518263ffffffff1660e01b8152600401612d189190613a32565b60206040518083038186803b158015612d3057600080fd5b505afa158015612d44573d6000803e3d6000fd5b505050506040513d601f19601f82011682018060405250810190612d689190613953565b90506000612d7583611cac565b604051637d471f9760e01b81526001600160a01b038a1690637d471f9790612da1908790600401613a32565b60206040518083038186803b158015612db957600080fd5b505afa158015612dcd573d6000803e3d6000fd5b505050506040513d601f19601f82011682018060405250810190612df19190613953565b612dfb9190613d9e565b6001600160a01b038416600090815260376020526040902054612e259063ffffffff8a1690613d9e565b612e2f9190613d7e565b90506000612e438263ffffffff8916613d9e565b8d8681518110612e6357634e487b7160e01b600052603260045260246000fd5b60200260200101518a6001600160a01b03166372836bcf876040518263ffffffff1660e01b8152600401612e979190613a32565b60206040518083038186803b158015612eaf57600080fd5b505afa158015612ec3573d6000803e3d6000fd5b505050506040513d601f19601f82011682018060405250810190612ee79190613953565b612ef19190613d9e565b612efb9190613d7e565b905063ffffffff8616612f0e8483613d9e565b612f189190613d7e565b8c8681518110612f3857634e487b7160e01b600052603260045260246000fd5b6020026020010181815250508b8581518110612f6457634e487b7160e01b600052603260045260246000fd5b602002602001015181612f779190613dbd565b8b8681518110612f9757634e487b7160e01b600052603260045260246000fd5b602002602001018181525050808d8681518110612fc457634e487b7160e01b600052603260045260246000fd5b6020026020010151612fd69190613dbd565b8a8681518110612ff657634e487b7160e01b600052603260045260246000fd5b60200260200101818152505050505050808061301190613dd4565b915050612cb5565b50505050509250925092565b81518351148015613037575080518351145b6130c95760405162461bcd60e51b81526020600482015260636024820152600080516020613e5483398151915260448201527f42616c616e6365733a204c656e677468206f6620746f6b656e732c20616d6f7560648201527f6e74732c20616e64206164642f7375627472616374206d7573742062652065716084820152621d585b60ea1b60a482015260c40161033b565b600080546040516337c61fc560e11b8152620100009091046001600160a01b031690636f8c3f8a9061310090600390600401613b1d565b60206040518083038186803b15801561311857600080fd5b505afa15801561312c573d6000803e3d6000fd5b505050506040513d601f19601f820116820180604052508101906131509190613709565b905060005b845181101561341857816001600160a01b031663b17f0b6386838151811061318d57634e487b7160e01b600052603260045260246000fd5b60200260200101516040518263ffffffff1660e01b81526004016131b19190613a32565b60206040518083038186803b1580156131c957600080fd5b505afa1580156131dd573d6000803e3d6000fd5b505050506040513d601f19601f82011682018060405250810190613201919061391b565b61327c5760405162461bcd60e51b81526020600482015260526024820152600080516020613e5483398151915260448201527f42616c616e6365733a205468697320746f6b656e206973206e6f7420616363656064820152717074696e67204c5020706f736974696f6e7360701b608482015260a40161033b565b600083828151811061329e57634e487b7160e01b600052603260045260246000fd5b602002602001015115613331578482815181106132cb57634e487b7160e01b600052603260045260246000fd5b6020026020010151603760008885815181106132f757634e487b7160e01b600052603260045260246000fd5b60200260200101516001600160a01b03166001600160a01b031681526020019081526020016000205461332a9190613d66565b90506133b3565b84828151811061335157634e487b7160e01b600052603260045260246000fd5b60200260200101516037600088858151811061337d57634e487b7160e01b600052603260045260246000fd5b60200260200101516001600160a01b03166001600160a01b03168152602001908152602001600020546133b09190613dbd565b90505b80603760008885815181106133d857634e487b7160e01b600052603260045260246000fd5b60200260200101516001600160a01b03166001600160a01b031681526020019081526020016000208190555050808061341090613dd4565b915050613155565b507f092d5ff091ec017019ed95dfec6b3f8524e73fc3a80d5fee8f763e1829aed54b84848460405161344c93929190613ada565b60405180910390a150505050565b600061346583611cac565b905060005b6001600160a01b038416600090815260396020526040902054811015610fbc576001600160a01b03841660009081526039602052604081208054839081106134c257634e487b7160e01b600052603260045260246000fd5b60009182526020808320909101546001600160a01b0388811684526036835260408085209190921680855292529091205490915083906135029086613d9e565b61350c9190613d7e565b6001600160a01b03808716600090815260366020908152604080832093861683529290529081206001018054909190613546908490613d66565b90915550829150613558905081613dd4565b91505061346a565b600054610100900460ff1661357b5760005460ff161561357f565b303b155b61359b5760405162461bcd60e51b815260040161033b90613bed565b600054610100900460ff161580156135bd576000805461ffff19166101011790555b6000805462010000600160b01b031916620100006001600160a01b038516021790558015611be1576000805461ff00191690555050565b828054828255906000526020600020908101928215613649579160200282015b8281111561364957825182546001600160a01b0319166001600160a01b03909116178255602090920191600190910190613614565b50613655929150613659565b5090565b5b80821115613655576000815560010161365a565b600082601f83011261367e578081fd5b8135602061369361368e83613d43565b613d13565b80838252828201915082860187848660051b89010111156136b2578586fd5b855b858110156136d95781356136c781613e1b565b845292840192908401906001016136b4565b5090979650505050505050565b6000602082840312156136f7578081fd5b813561370281613e1b565b9392505050565b60006020828403121561371a578081fd5b815161370281613e1b565b60008060408385031215613737578081fd5b823561374281613e1b565b9150602083013561375281613e1b565b809150509250929050565b6000806040838503121561376f578182fd5b823561377a81613e1b565b915060208301356001600160401b03811115613794578182fd5b6137a08582860161366e565b9150509250929050565b6000806000606084860312156137be578081fd5b83356137c981613e1b565b92506020848101356001600160401b03808211156137e5578384fd5b6137f18883890161366e565b94506040870135915080821115613806578384fd5b508501601f81018713613817578283fd5b803561382561368e82613d43565b8082825284820191508484018a868560051b8701011115613844578687fd5b8694505b83851015613866578035835260019490940193918501918501613848565b5080955050505050509250925092565b60008060408385031215613888578182fd5b82356001600160401b0381111561389d578283fd5b6138a98582860161366e565b925050602083013561375281613e1b565b6000806000606084860312156138ce578283fd5b83356001600160401b038111156138e3578384fd5b6138ef8682870161366e565b935050602084013561390081613e1b565b9150604084013561391081613e1b565b809150509250925092565b60006020828403121561392c578081fd5b81518015158114613702578182fd5b60006020828403121561394c578081fd5b5035919050565b600060208284031215613964578081fd5b5051919050565b60006020828403121561397c578081fd5b815163ffffffff81168114613702578182fd5b6000815180845260208085019450808401835b838110156139c75781516001600160a01b0316875295820195908201906001016139a2565b509495945050505050565b6000815180845260208085019450808401835b838110156139c75781511515875295820195908201906001016139e5565b6000815180845260208085019450808401835b838110156139c757815187529582019590820190600101613a16565b6001600160a01b0391909116815260200190565b602081526000613702602083018461398f565b608081526000613a6c608083018761398f565b6001600160a01b03861660208401528281036040840152613a8d8186613a03565b90508281036060840152613aa181856139d2565b979650505050505050565b604081526000613abf604083018561398f565b8281036020840152613ad18185613a03565b95945050505050565b606081526000613aed606083018661398f565b8281036020840152613aff8186613a03565b90508281036040840152613b1381856139d2565b9695505050505050565b60208101600c8310613b3f57634e487b7160e01b600052602160045260246000fd5b91905290565b6020808252603c908201527f496e746572636f6e6e656374733a3a6f6e6c7952656c61794163636f756e743a60408201527b0810d85b1b195c881a5cc81b9bdd081c995b185e481858d8dbdd5b9d60221b606082015260800190565b60208082526040908201819052600080516020613eb4833981519152908201527f20546f6b656e206973206e6f7420616363657074696e67206272696467696e67606082015260800190565b6020808252602e908201527f496e697469616c697a61626c653a20636f6e747261637420697320616c72656160408201526d191e481a5b9a5d1a585b1a5e995960921b606082015260800190565b6020808252604b90820152600080516020613eb48339815191526040820152600080516020613e3483398151915260608201526a1cdd08189948195c5d585b60aa1b608082015260a00190565b60208082526034908201527f436f6e74726f6c6c65643a3a6f6e6c79436f6e74726f6c6c65723a2043616c6c60408201527332b91034b9903737ba1031b7b73a3937b63632b960611b606082015260800190565b6020808252601f908201527f5265656e7472616e637947756172643a207265656e7472616e742063616c6c00604082015260600190565b604051601f8201601f191681016001600160401b0381118282101715613d3b57613d3b613e05565b604052919050565b60006001600160401b03821115613d5c57613d5c613e05565b5060051b60200190565b60008219821115613d7957613d79613def565b500190565b600082613d9957634e487b7160e01b81526012600452602481fd5b500490565b6000816000190483118215151615613db857613db8613def565b500290565b600082821015613dcf57613dcf613def565b500390565b6000600019821415613de857613de8613def565b5060010190565b634e487b7160e01b600052601160045260246000fd5b634e487b7160e01b600052604160045260246000fd5b6001600160a01b0381168114613e3057600080fd5b5056fe204c656e677468206f6620746f6b656e7320616e6420616d6f756e7473206d75496e746572636f6e6e656374733a3a757064617465546f6b656e506f6f6c4c70496e746572636f6e6e656374733a3a70726f766964654c69717569646974793a496e746572636f6e6e656374733a3a74616b654c69717569646974793a204c50496e746572636f6e6e656374733a3a76616c69646174654272696467696e673aa2646970667358221220c2b7f1f842bcf227032b642ef6ad689d266829e40f068336a441a89633168b7f64736f6c63430008040033",
  "devdoc": {
    "kind": "dev",
    "methods": {
      "bridgeFrom(address,address[],uint256[])": {
        "details": "Wrapper around userPositions func to decrease user's token balance",
        "params": {
          "amounts": "Array of the token amounts",
          "tokens": "Array of the token addresses",
          "user": "user bridging"
        }
      },
      "bridgeTo(address,address[],uint256[])": {
        "details": "Wrapper around userPositions func, updateTokenPoolLpBalances, and feeHandler",
        "params": {
          "amounts": "Array of the token amounts",
          "tokens": "Array of the token addresses",
          "user": "user bridging"
        }
      },
      "claimLpFeeRewards(address,address[])": {
        "params": {
          "tokens": "Array of the token addresses",
          "user": "Address of the account LP-ing"
        }
      },
      "getRelayAccount()": {
        "returns": {
          "_0": "The address of the gas account"
        }
      },
      "getTokenLpUsers(address)": {
        "params": {
          "asset": "Address of the ERC20 token contract"
        }
      },
      "getTokenPoolLpActivePositions(address)": {
        "details": "this returns the sum of all active LP positions for a given token. This is different than the LP balance, as the LP balance is the available amount of this sum. This number is gte the LP balance, usually greater than.",
        "params": {
          "asset": "Address of the ERC20 token contract"
        }
      },
      "getTokenPoolLpBalance(address)": {
        "params": {
          "asset": "Address of the ERC20 token contract"
        }
      },
      "getTokenProtocolFeeRewards(address)": {
        "params": {
          "asset": "Address of the ERC20 token contract"
        }
      },
      "getTokenUserLpBalance(address,address)": {
        "params": {
          "asset": "Address of the ERC20 token contract",
          "user": "Address of the user account"
        }
      },
      "getTokenUserLpFeeRewardBalance(address,address)": {
        "params": {
          "asset": "Address of the ERC20 token contract",
          "user": "Address of the user account"
        }
      },
      "initialize(address[],address,address)": {
        "params": {
          "controllers_": "The addresses of the controlling contracts",
          "moduleMap_": "Address of the Module Map",
          "relayAccount_": "The address of the relay account that will control this account"
        }
      },
      "provideLiquidity(address,address[],uint256[])": {
        "params": {
          "amounts": "Array of the token amounts",
          "tokens": "Array of the token addresses",
          "user": "Address of the account LP-ing"
        }
      },
      "takeLiquidity(address,address[],uint256[])": {
        "params": {
          "amounts": "Array of the token amounts",
          "tokens": "Array of the token addresses",
          "user": "Address of the account LP-ing"
        }
      },
      "undoBridgeFrom(address,address[],uint256[])": {
        "details": "Wrapper around userPositions func to increase user's token balance",
        "params": {
          "amounts": "Array of the token amounts",
          "tokens": "Array of the token addresses",
          "user": "user bridging"
        }
      },
      "updateRelayAccount(address)": {
        "params": {
          "relayAccount_": "The address of the relay account"
        }
      }
    },
    "version": 1
  },
  "userdoc": {
    "kind": "user",
    "methods": {
      "claimLpFeeRewards(address,address[])": {
        "notice": "User is allowed to claim fees"
      },
      "provideLiquidity(address,address[],uint256[])": {
        "notice": "User is allowed to LP whitelisted tokens"
      }
    },
    "version": 1
  },
  "storageLayout": {
    "storage": [
      {
        "astId": 723,
        "contract": "contracts/core/Interconnects.sol:Interconnects",
        "label": "_initialized",
        "offset": 0,
        "slot": "0",
        "type": "t_bool"
      },
      {
        "astId": 726,
        "contract": "contracts/core/Interconnects.sol:Interconnects",
        "label": "_initializing",
        "offset": 1,
        "slot": "0",
        "type": "t_bool"
      },
      {
        "astId": 9534,
        "contract": "contracts/core/Interconnects.sol:Interconnects",
        "label": "moduleMap",
        "offset": 2,
        "slot": "0",
        "type": "t_contract(IModuleMap)19218"
      },
      {
        "astId": 4667,
        "contract": "contracts/core/Interconnects.sol:Interconnects",
        "label": "_controllers",
        "offset": 0,
        "slot": "1",
        "type": "t_mapping(t_address,t_bool)"
      },
      {
        "astId": 4670,
        "contract": "contracts/core/Interconnects.sol:Interconnects",
        "label": "controllers",
        "offset": 0,
        "slot": "2",
        "type": "t_array(t_address)dyn_storage"
      },
      {
        "astId": 804,
        "contract": "contracts/core/Interconnects.sol:Interconnects",
        "label": "_status",
        "offset": 0,
        "slot": "3",
        "type": "t_uint256"
      },
      {
        "astId": 847,
        "contract": "contracts/core/Interconnects.sol:Interconnects",
        "label": "__gap",
        "offset": 0,
        "slot": "4",
        "type": "t_array(t_uint256)49_storage"
      },
      {
        "astId": 6529,
        "contract": "contracts/core/Interconnects.sol:Interconnects",
        "label": "_relayAccount",
        "offset": 0,
        "slot": "53",
        "type": "t_address_payable"
      },
      {
        "astId": 6536,
        "contract": "contracts/core/Interconnects.sol:Interconnects",
        "label": "_tokenUserLpBalances",
        "offset": 0,
        "slot": "54",
        "type": "t_mapping(t_address,t_mapping(t_address,t_struct(lpData)18846_storage))"
      },
      {
        "astId": 6540,
        "contract": "contracts/core/Interconnects.sol:Interconnects",
        "label": "_tokenPoolLpBalances",
        "offset": 0,
        "slot": "55",
        "type": "t_mapping(t_address,t_uint256)"
      },
      {
        "astId": 6544,
        "contract": "contracts/core/Interconnects.sol:Interconnects",
        "label": "_tokenProtocolFeeRewards",
        "offset": 0,
        "slot": "56",
        "type": "t_mapping(t_address,t_uint256)"
      },
      {
        "astId": 6549,
        "contract": "contracts/core/Interconnects.sol:Interconnects",
        "label": "_tokenLpUsers",
        "offset": 0,
        "slot": "57",
        "type": "t_mapping(t_address,t_array(t_address)dyn_storage)"
      }
    ],
    "types": {
      "t_address": {
        "encoding": "inplace",
        "label": "address",
        "numberOfBytes": "20"
      },
      "t_address_payable": {
        "encoding": "inplace",
        "label": "address payable",
        "numberOfBytes": "20"
      },
      "t_array(t_address)dyn_storage": {
        "base": "t_address",
        "encoding": "dynamic_array",
        "label": "address[]",
        "numberOfBytes": "32"
      },
      "t_array(t_uint256)49_storage": {
        "base": "t_uint256",
        "encoding": "inplace",
        "label": "uint256[49]",
        "numberOfBytes": "1568"
      },
      "t_bool": {
        "encoding": "inplace",
        "label": "bool",
        "numberOfBytes": "1"
      },
      "t_contract(IModuleMap)19218": {
        "encoding": "inplace",
        "label": "contract IModuleMap",
        "numberOfBytes": "20"
      },
      "t_mapping(t_address,t_array(t_address)dyn_storage)": {
        "encoding": "mapping",
        "key": "t_address",
        "label": "mapping(address => address[])",
        "numberOfBytes": "32",
        "value": "t_array(t_address)dyn_storage"
      },
      "t_mapping(t_address,t_bool)": {
        "encoding": "mapping",
        "key": "t_address",
        "label": "mapping(address => bool)",
        "numberOfBytes": "32",
        "value": "t_bool"
      },
      "t_mapping(t_address,t_mapping(t_address,t_struct(lpData)18846_storage))": {
        "encoding": "mapping",
        "key": "t_address",
        "label": "mapping(address => mapping(address => struct IInterconnects.lpData))",
        "numberOfBytes": "32",
        "value": "t_mapping(t_address,t_struct(lpData)18846_storage)"
      },
      "t_mapping(t_address,t_struct(lpData)18846_storage)": {
        "encoding": "mapping",
        "key": "t_address",
        "label": "mapping(address => struct IInterconnects.lpData)",
        "numberOfBytes": "32",
        "value": "t_struct(lpData)18846_storage"
      },
      "t_mapping(t_address,t_uint256)": {
        "encoding": "mapping",
        "key": "t_address",
        "label": "mapping(address => uint256)",
        "numberOfBytes": "32",
        "value": "t_uint256"
      },
      "t_struct(lpData)18846_storage": {
        "encoding": "inplace",
        "label": "struct IInterconnects.lpData",
        "members": [
          {
            "astId": 18843,
            "contract": "contracts/core/Interconnects.sol:Interconnects",
            "label": "position",
            "offset": 0,
            "slot": "0",
            "type": "t_uint256"
          },
          {
            "astId": 18845,
            "contract": "contracts/core/Interconnects.sol:Interconnects",
            "label": "rewards",
            "offset": 0,
            "slot": "1",
            "type": "t_uint256"
          }
        ],
        "numberOfBytes": "64"
      },
      "t_uint256": {
        "encoding": "inplace",
        "label": "uint256",
        "numberOfBytes": "32"
      }
    }
  }
}