{
  "address": "0x9B99c958CF716aF7c8d961833E9FdE2350596994",
  "abi": [
    {
      "anonymous": false,
      "inputs": [
        {
          "indexed": true,
          "internalType": "address",
          "name": "previousOwner",
          "type": "address"
        },
        {
          "indexed": true,
          "internalType": "address",
          "name": "newOwner",
          "type": "address"
        }
      ],
      "name": "OwnershipTransferred",
      "type": "event"
    },
    {
      "inputs": [
        {
          "internalType": "enum Modules",
          "name": "key",
          "type": "uint8"
        }
      ],
      "name": "getModuleAddress",
      "outputs": [
        {
          "internalType": "address",
          "name": "",
          "type": "address"
        }
      ],
      "stateMutability": "view",
      "type": "function"
    },
    {
      "inputs": [],
      "name": "initialize",
      "outputs": [],
      "stateMutability": "nonpayable",
      "type": "function"
    },
    {
      "inputs": [],
      "name": "owner",
      "outputs": [
        {
          "internalType": "address",
          "name": "",
          "type": "address"
        }
      ],
      "stateMutability": "view",
      "type": "function"
    },
    {
      "inputs": [],
      "name": "renounceOwnership",
      "outputs": [],
      "stateMutability": "nonpayable",
      "type": "function"
    },
    {
      "inputs": [
        {
          "internalType": "enum Modules",
          "name": "key",
          "type": "uint8"
        },
        {
          "internalType": "address",
          "name": "value",
          "type": "address"
        }
      ],
      "name": "setModuleAddress",
      "outputs": [],
      "stateMutability": "nonpayable",
      "type": "function"
    },
    {
      "inputs": [
        {
          "internalType": "address",
          "name": "newOwner",
          "type": "address"
        }
      ],
      "name": "transferOwnership",
      "outputs": [],
      "stateMutability": "nonpayable",
      "type": "function"
    }
  ],
  "transactionHash": "0xbbc99d21f7efb3606ccfe253b0d87610dd8402efa121e19f3bba910b3dbdc40d",
  "args": [],
  "solcInputHash": "3c329c0643231770f636e8187b4b428d",
  "bytecode": "0x608060405234801561001057600080fd5b5061055a806100206000396000f3fe608060405234801561001057600080fd5b50600436106100625760003560e01c80636f8c3f8a14610067578063715018a61461009657806371a100e7146100a05780638129fc1c146100b35780638da5cb5b146100bb578063f2fde38b146100c3575b600080fd5b61007a6100753660046104a3565b6100d6565b6040516001600160a01b03909116815260200160405180910390f35b61009e61013b565b005b61009e6100ae3660046104bd565b61017f565b61009e610228565b61007a6102e9565b61009e6100d1366004610482565b6102f8565b60006065600083600b8111156100fc57634e487b7160e01b600052602160045260246000fd5b600b81111561011b57634e487b7160e01b600052602160045260246000fd5b81526020810191909152604001600020546001600160a01b031692915050565b336101446102e9565b6001600160a01b0316146101735760405162461bcd60e51b815260040161016a906104ef565b60405180910390fd5b61017d6000610391565b565b336101886102e9565b6001600160a01b0316146101ae5760405162461bcd60e51b815260040161016a906104ef565b806065600084600b8111156101d357634e487b7160e01b600052602160045260246000fd5b600b8111156101f257634e487b7160e01b600052602160045260246000fd5b815260200190815260200160002060006101000a8154816001600160a01b0302191690836001600160a01b031602179055505050565b600054610100900460ff166102435760005460ff1615610247565b303b155b6102aa5760405162461bcd60e51b815260206004820152602e60248201527f496e697469616c697a61626c653a20636f6e747261637420697320616c72656160448201526d191e481a5b9a5d1a585b1a5e995960921b606482015260840161016a565b600054610100900460ff161580156102cc576000805461ffff19166101011790555b6102d46103e3565b80156102e6576000805461ff00191690555b50565b6033546001600160a01b031690565b336103016102e9565b6001600160a01b0316146103275760405162461bcd60e51b815260040161016a906104ef565b6001600160a01b03811661038c5760405162461bcd60e51b815260206004820152602660248201527f4f776e61626c653a206e6577206f776e657220697320746865207a65726f206160448201526564647265737360d01b606482015260840161016a565b6102e6815b603380546001600160a01b038381166001600160a01b0319831681179093556040519116919082907f8be0079c531659141344cd1fd0a4f28419497f9722a3daafe3b4186f6b6457e090600090a35050565b600054610100900460ff1661044e5760405162461bcd60e51b815260206004820152602b60248201527f496e697469616c697a61626c653a20636f6e7472616374206973206e6f74206960448201526a6e697469616c697a696e6760a81b606482015260840161016a565b61017d33610391565b80356001600160a01b038116811461046e57600080fd5b919050565b8035600c811061046e57600080fd5b600060208284031215610493578081fd5b61049c82610457565b9392505050565b6000602082840312156104b4578081fd5b61049c82610473565b600080604083850312156104cf578081fd5b6104d883610473565b91506104e660208401610457565b90509250929050565b6020808252818101527f4f776e61626c653a2063616c6c6572206973206e6f7420746865206f776e657260408201526060019056fea264697066735822122094aeecacc630d66d2b0c0acb8329e0d7d6d7ddad06ebec23a918380c0701c44764736f6c63430008040033",
  "devdoc": {
    "kind": "dev",
    "methods": {
      "owner()": {
        "details": "Returns the address of the current owner."
      },
      "renounceOwnership()": {
        "details": "Leaves the contract without owner. It will not be possible to call `onlyOwner` functions anymore. Can only be called by the current owner. NOTE: Renouncing ownership will leave the contract without an owner, thereby removing any functionality that is only available to the owner."
      },
      "transferOwnership(address)": {
        "details": "Transfers ownership of the contract to a new account (`newOwner`). Can only be called by the current owner."
      }
    },
    "version": 1
  },
  "userdoc": {
    "kind": "user",
    "methods": {},
    "version": 1
  },
  "storageLayout": {
    "storage": [
      {
        "astId": 723,
        "contract": "contracts/core/ModuleMap.sol:ModuleMap",
        "label": "_initialized",
        "offset": 0,
        "slot": "0",
        "type": "t_bool"
      },
      {
        "astId": 726,
        "contract": "contracts/core/ModuleMap.sol:ModuleMap",
        "label": "_initializing",
        "offset": 1,
        "slot": "0",
        "type": "t_bool"
      },
      {
        "astId": 2036,
        "contract": "contracts/core/ModuleMap.sol:ModuleMap",
        "label": "__gap",
        "offset": 0,
        "slot": "1",
        "type": "t_array(t_uint256)50_storage"
      },
      {
        "astId": 601,
        "contract": "contracts/core/ModuleMap.sol:ModuleMap",
        "label": "_owner",
        "offset": 0,
        "slot": "51",
        "type": "t_address"
      },
      {
        "astId": 715,
        "contract": "contracts/core/ModuleMap.sol:ModuleMap",
        "label": "__gap",
        "offset": 0,
        "slot": "52",
        "type": "t_array(t_uint256)49_storage"
      },
      {
        "astId": 9484,
        "contract": "contracts/core/ModuleMap.sol:ModuleMap",
        "label": "_moduleMap",
        "offset": 0,
        "slot": "101",
        "type": "t_mapping(t_enum(Modules)19209,t_address)"
      }
    ],
    "types": {
      "t_address": {
        "encoding": "inplace",
        "label": "address",
        "numberOfBytes": "20"
      },
      "t_array(t_uint256)49_storage": {
        "base": "t_uint256",
        "encoding": "inplace",
        "label": "uint256[49]",
        "numberOfBytes": "1568"
      },
      "t_array(t_uint256)50_storage": {
        "base": "t_uint256",
        "encoding": "inplace",
        "label": "uint256[50]",
        "numberOfBytes": "1600"
      },
      "t_bool": {
        "encoding": "inplace",
        "label": "bool",
        "numberOfBytes": "1"
      },
      "t_enum(Modules)19209": {
        "encoding": "inplace",
        "label": "enum Modules",
        "numberOfBytes": "1"
      },
      "t_mapping(t_enum(Modules)19209,t_address)": {
        "encoding": "mapping",
        "key": "t_enum(Modules)19209",
        "label": "mapping(enum Modules => address)",
        "numberOfBytes": "32",
        "value": "t_address"
      },
      "t_uint256": {
        "encoding": "inplace",
        "label": "uint256",
        "numberOfBytes": "32"
      }
    }
  }
}