{
  "address": "0xe309791764b575678437169a7F85DbA580e8C335",
  "abi": [
    {
      "inputs": [
        {
          "internalType": "address[]",
          "name": "controllers_",
          "type": "address[]"
        },
        {
          "internalType": "address",
          "name": "moduleMap_",
          "type": "address"
        }
      ],
      "name": "__Controlled_init",
      "outputs": [],
      "stateMutability": "nonpayable",
      "type": "function"
    },
    {
      "inputs": [
        {
          "internalType": "address",
          "name": "controller",
          "type": "address"
        }
      ],
      "name": "addController",
      "outputs": [],
      "stateMutability": "nonpayable",
      "type": "function"
    },
    {
      "inputs": [
        {
          "internalType": "string",
          "name": "name",
          "type": "string"
        },
        {
          "components": [
            {
              "internalType": "address",
              "name": "integration",
              "type": "address"
            },
            {
              "internalType": "uint32",
              "name": "ammPoolID",
              "type": "uint32"
            }
          ],
          "internalType": "struct IStrategyMap.Integration[]",
          "name": "integrations",
          "type": "tuple[]"
        },
        {
          "components": [
            {
              "internalType": "uint256",
              "name": "integrationPairIdx",
              "type": "uint256"
            },
            {
              "internalType": "address",
              "name": "token",
              "type": "address"
            },
            {
              "internalType": "uint32",
              "name": "weight",
              "type": "uint32"
            }
          ],
          "internalType": "struct IStrategyMap.Token[]",
          "name": "tokens",
          "type": "tuple[]"
        }
      ],
      "name": "addStrategy",
      "outputs": [],
      "stateMutability": "nonpayable",
      "type": "function"
    },
    {
      "inputs": [
        {
          "internalType": "uint256",
          "name": "",
          "type": "uint256"
        }
      ],
      "name": "controllers",
      "outputs": [
        {
          "internalType": "address",
          "name": "",
          "type": "address"
        }
      ],
      "stateMutability": "view",
      "type": "function"
    },
    {
      "inputs": [
        {
          "internalType": "uint256",
          "name": "id",
          "type": "uint256"
        }
      ],
      "name": "deleteStrategy",
      "outputs": [],
      "stateMutability": "nonpayable",
      "type": "function"
    },
    {
      "inputs": [
        {
          "internalType": "address[]",
          "name": "controllers_",
          "type": "address[]"
        },
        {
          "internalType": "address",
          "name": "moduleMap_",
          "type": "address"
        }
      ],
      "name": "initialize",
      "outputs": [],
      "stateMutability": "nonpayable",
      "type": "function"
    },
    {
      "inputs": [],
      "name": "moduleMap",
      "outputs": [
        {
          "internalType": "contract IModuleMap",
          "name": "",
          "type": "address"
        }
      ],
      "stateMutability": "view",
      "type": "function"
    },
    {
      "inputs": [
        {
          "internalType": "uint256",
          "name": "id",
          "type": "uint256"
        },
        {
          "components": [
            {
              "internalType": "address",
              "name": "integration",
              "type": "address"
            },
            {
              "internalType": "uint32",
              "name": "ammPoolID",
              "type": "uint32"
            }
          ],
          "internalType": "struct IStrategyMap.Integration[]",
          "name": "integrations",
          "type": "tuple[]"
        },
        {
          "components": [
            {
              "internalType": "uint256",
              "name": "integrationPairIdx",
              "type": "uint256"
            },
            {
              "internalType": "address",
              "name": "token",
              "type": "address"
            },
            {
              "internalType": "uint32",
              "name": "weight",
              "type": "uint32"
            }
          ],
          "internalType": "struct IStrategyMap.Token[]",
          "name": "tokens",
          "type": "tuple[]"
        }
      ],
      "name": "updateStrategy",
      "outputs": [],
      "stateMutability": "nonpayable",
      "type": "function"
    },
    {
      "inputs": [
        {
          "internalType": "uint256",
          "name": "id",
          "type": "uint256"
        },
        {
          "internalType": "string",
          "name": "name",
          "type": "string"
        }
      ],
      "name": "updateStrategyName",
      "outputs": [],
      "stateMutability": "nonpayable",
      "type": "function"
    }
  ],
  "transactionHash": "0xcab06f659dedd37b4ef37adb9544f7f851a6914cb2272a55b40e2b9e13748e4b",
  "args": [],
  "solcInputHash": "3c329c0643231770f636e8187b4b428d",
  "bytecode": "0x608060405234801561001057600080fd5b506117a8806100206000396000f3fe608060405234801561001057600080fd5b50600436106100835760003560e01c80630f0a1c6f14610088578063462d0b2e146100b757806370051bf2146100cc57806387302037146100df57806398c671ce146100f2578063a7fc7a0714610105578063e94b0dd214610118578063edeaa0d21461012b578063fbcaaf961461013e575b600080fd5b6000546100a1906201000090046001600160a01b031681565b6040516100ae91906115a0565b60405180910390f35b6100ca6100c5366004611245565b610151565b005b6100ca6100da36600461133d565b6101d8565b6100ca6100ed3660046113d2565b61054b565b6100ca610100366004611245565b61074f565b6100ca610113366004611206565b61083f565b6100a16101263660046113d2565b610a7c565b6100ca6101393660046113ea565b610aa6565b6100ca61014c366004611460565b610e16565b600054610100900460ff1661016c5760005460ff1615610170565b303b155b6101955760405162461bcd60e51b815260040161018c90611625565b60405180910390fd5b600054610100900460ff161580156101b7576000805461ffff19166101011790555b6101c1838361074f565b80156101d3576000805461ff00191690555b505050565b600080546040516337c61fc560e11b8152620100009091046001600160a01b031691636f8c3f8a9161020d91906004016115b4565b60206040518083038186803b15801561022557600080fd5b505afa158015610239573d6000803e3d6000fd5b505050506040513d601f19601f8201168201806040525081019061025d9190611229565b6001600160a01b031663f3ae2415336040518263ffffffff1660e01b815260040161028891906115a0565b60206040518083038186803b1580156102a057600080fd5b505afa1580156102b4573d6000803e3d6000fd5b505050506040513d601f19601f820116820180604052508101906102d8919061131d565b6102f45760405162461bcd60e51b815260040161018c90611673565b600080546040516337c61fc560e11b8152620100009091046001600160a01b031690636f8c3f8a9061032b906003906004016115b4565b60206040518083038186803b15801561034357600080fd5b505afa158015610357573d6000803e3d6000fd5b505050506040513d601f19601f8201168201806040525081019061037b9190611229565b905060005b8481101561045457816001600160a01b0316631de4fe138787848181106103b757634e487b7160e01b600052603260045260246000fd5b6103cd9260206040909202019081019150611206565b6040518263ffffffff1660e01b81526004016103e991906115a0565b60206040518083038186803b15801561040157600080fd5b505afa158015610415573d6000803e3d6000fd5b505050506040513d601f19601f82011682018060405250810190610439919061131d565b61044257600080fd5b8061044c8161171d565b915050610380565b506000546040516337c61fc560e11b8152620100009091046001600160a01b031690636f8c3f8a9061048b906008906004016115b4565b60206040518083038186803b1580156104a357600080fd5b505afa1580156104b7573d6000803e3d6000fd5b505050506040513d601f19601f820116820180604052508101906104db9190611229565b6001600160a01b03166370051bf28888888888886040518763ffffffff1660e01b8152600401610510969594939291906115dc565b600060405180830381600087803b15801561052a57600080fd5b505af115801561053e573d6000803e3d6000fd5b5050505050505050505050565b600080546040516337c61fc560e11b8152620100009091046001600160a01b031691636f8c3f8a9161058091906004016115b4565b60206040518083038186803b15801561059857600080fd5b505afa1580156105ac573d6000803e3d6000fd5b505050506040513d601f19601f820116820180604052508101906105d09190611229565b6001600160a01b031663f3ae2415336040518263ffffffff1660e01b81526004016105fb91906115a0565b60206040518083038186803b15801561061357600080fd5b505afa158015610627573d6000803e3d6000fd5b505050506040513d601f19601f8201168201806040525081019061064b919061131d565b6106675760405162461bcd60e51b815260040161018c90611673565b6000546040516337c61fc560e11b8152620100009091046001600160a01b031690636f8c3f8a9061069d906008906004016115b4565b60206040518083038186803b1580156106b557600080fd5b505afa1580156106c9573d6000803e3d6000fd5b505050506040513d601f19601f820116820180604052508101906106ed9190611229565b6001600160a01b03166387302037826040518263ffffffff1660e01b815260040161071a91815260200190565b600060405180830381600087803b15801561073457600080fd5b505af1158015610748573d6000803e3d6000fd5b5050505050565b600054610100900460ff1661076a5760005460ff161561076e565b303b155b61078a5760405162461bcd60e51b815260040161018c90611625565b600054610100900460ff161580156107ac576000805461ffff19166101011790555b60005b83518110156108215760018060008684815181106107dd57634e487b7160e01b600052603260045260246000fd5b6020908102919091018101516001600160a01b03168252810191909152604001600020805460ff1916911515919091179055806108198161171d565b9150506107af565b5082516108359060029060208601906110b2565b506101c18261101e565b600080546040516337c61fc560e11b8152620100009091046001600160a01b031691636f8c3f8a9161087491906004016115b4565b60206040518083038186803b15801561088c57600080fd5b505afa1580156108a0573d6000803e3d6000fd5b505050506040513d601f19601f820116820180604052508101906108c49190611229565b6001600160a01b0316632f54bf6e336040518263ffffffff1660e01b81526004016108ef91906115a0565b60206040518083038186803b15801561090757600080fd5b505afa15801561091b573d6000803e3d6000fd5b505050506040513d601f19601f8201168201806040525081019061093f919061131d565b61099e5760405162461bcd60e51b815260206004820152602a60248201527f436f6e74726f6c6c65643a3a6f6e6c794f776e65723a2043616c6c6572206973604482015269103737ba1037bbb732b960b11b606482015260840161018c565b6001600160a01b03811660009081526001602081905260408220805460ff19169091179055805b600254811015610a2657600281815481106109f057634e487b7160e01b600052603260045260246000fd5b6000918252602090912001546001600160a01b0384811691161415610a1457600191505b80610a1e8161171d565b9150506109c5565b5080610a7857600280546001810182556000919091527f405787fa12a823e0f2b7631cc41b3ba8828b3321ca811111fa75cd3aa3bb5ace0180546001600160a01b0319166001600160a01b0384161790555b5050565b60028181548110610a8c57600080fd5b6000918252602090912001546001600160a01b0316905081565b600080546040516337c61fc560e11b8152620100009091046001600160a01b031691636f8c3f8a91610adb91906004016115b4565b60206040518083038186803b158015610af357600080fd5b505afa158015610b07573d6000803e3d6000fd5b505050506040513d601f19601f82011682018060405250810190610b2b9190611229565b6001600160a01b031663f3ae2415336040518263ffffffff1660e01b8152600401610b5691906115a0565b60206040518083038186803b158015610b6e57600080fd5b505afa158015610b82573d6000803e3d6000fd5b505050506040513d601f19601f82011682018060405250810190610ba6919061131d565b610bc25760405162461bcd60e51b815260040161018c90611673565b600080546040516337c61fc560e11b8152620100009091046001600160a01b031690636f8c3f8a90610bf9906003906004016115b4565b60206040518083038186803b158015610c1157600080fd5b505afa158015610c25573d6000803e3d6000fd5b505050506040513d601f19601f82011682018060405250810190610c499190611229565b905060005b84811015610d2257816001600160a01b0316631de4fe13878784818110610c8557634e487b7160e01b600052603260045260246000fd5b610c9b9260206040909202019081019150611206565b6040518263ffffffff1660e01b8152600401610cb791906115a0565b60206040518083038186803b158015610ccf57600080fd5b505afa158015610ce3573d6000803e3d6000fd5b505050506040513d601f19601f82011682018060405250810190610d07919061131d565b610d1057600080fd5b80610d1a8161171d565b915050610c4e565b506000546040516337c61fc560e11b8152620100009091046001600160a01b031690636f8c3f8a90610d59906008906004016115b4565b60206040518083038186803b158015610d7157600080fd5b505afa158015610d85573d6000803e3d6000fd5b505050506040513d601f19601f82011682018060405250810190610da99190611229565b6001600160a01b031663edeaa0d287878787876040518663ffffffff1660e01b8152600401610ddc9594939291906116c1565b600060405180830381600087803b158015610df657600080fd5b505af1158015610e0a573d6000803e3d6000fd5b50505050505050505050565b600080546040516337c61fc560e11b8152620100009091046001600160a01b031691636f8c3f8a91610e4b91906004016115b4565b60206040518083038186803b158015610e6357600080fd5b505afa158015610e77573d6000803e3d6000fd5b505050506040513d601f19601f82011682018060405250810190610e9b9190611229565b6001600160a01b031663f3ae2415336040518263ffffffff1660e01b8152600401610ec691906115a0565b60206040518083038186803b158015610ede57600080fd5b505afa158015610ef2573d6000803e3d6000fd5b505050506040513d601f19601f82011682018060405250810190610f16919061131d565b610f325760405162461bcd60e51b815260040161018c90611673565b6000546040516337c61fc560e11b8152620100009091046001600160a01b031690636f8c3f8a90610f68906008906004016115b4565b60206040518083038186803b158015610f8057600080fd5b505afa158015610f94573d6000803e3d6000fd5b505050506040513d601f19601f82011682018060405250810190610fb89190611229565b6001600160a01b03166353e76f2c8484846040518463ffffffff1660e01b8152600401610fe7939291906116fa565b600060405180830381600087803b15801561100157600080fd5b505af1158015611015573d6000803e3d6000fd5b50505050505050565b600054610100900460ff166110395760005460ff161561103d565b303b155b6110595760405162461bcd60e51b815260040161018c90611625565b600054610100900460ff1615801561107b576000805461ffff19166101011790555b6000805462010000600160b01b031916620100006001600160a01b038516021790558015610a78576000805461ff00191690555050565b828054828255906000526020600020908101928215611107579160200282015b8281111561110757825182546001600160a01b0319166001600160a01b039091161782556020909201916001909101906110d2565b50611113929150611117565b5090565b5b808211156111135760008155600101611118565b80356111378161175a565b919050565b60008083601f84011261114d578182fd5b5081356001600160401b03811115611163578182fd5b6020830191508360208260061b850101111561117e57600080fd5b9250929050565b60008083601f840112611196578182fd5b5081356001600160401b038111156111ac578182fd5b60208301915083602060608302850101111561117e57600080fd5b60008083601f8401126111d8578182fd5b5081356001600160401b038111156111ee578182fd5b60208301915083602082850101111561117e57600080fd5b600060208284031215611217578081fd5b81356112228161175a565b9392505050565b60006020828403121561123a578081fd5b81516112228161175a565b60008060408385031215611257578081fd5b82356001600160401b038082111561126d578283fd5b818501915085601f830112611280578283fd5b813560208282111561129457611294611744565b8160051b604051601f19603f830116810181811086821117156112b9576112b9611744565b604052838152828101945085830182870184018b10156112d7578788fd5b8796505b84871015611300576112ec8161112c565b8652600196909601959483019483016112db565b509650611310905087820161112c565b9450505050509250929050565b60006020828403121561132e578081fd5b81518015158114611222578182fd5b60008060008060008060608789031215611355578182fd5b86356001600160401b038082111561136b578384fd5b6113778a838b016111c7565b9098509650602089013591508082111561138f578384fd5b61139b8a838b0161113c565b909650945060408901359150808211156113b3578384fd5b506113c089828a01611185565b979a9699509497509295939492505050565b6000602082840312156113e3578081fd5b5035919050565b600080600080600060608688031215611401578081fd5b8535945060208601356001600160401b038082111561141e578283fd5b61142a89838a0161113c565b90965094506040880135915080821115611442578283fd5b5061144f88828901611185565b969995985093965092949392505050565b600080600060408486031215611474578283fd5b8335925060208401356001600160401b03811115611490578283fd5b61149c868287016111c7565b9497909650939450505050565b81835260006020808501945082825b858110156115045781356114cb8161175a565b6001600160a01b031687528183013563ffffffff81168082146114ec578586fd5b888501525060409687019691909101906001016114b8565b509495945050505050565b81835260006020808501945082825b858110156115045781358752828201356115378161175a565b6001600160a01b03168784015260408281013563ffffffff811680821461155c578687fd5b9189019190915250606096870196919091019060010161151e565b81835281816020850137506000828201602090810191909152601f909101601f19169091010190565b6001600160a01b0391909116815260200190565b60208101600c83106115d657634e487b7160e01b600052602160045260246000fd5b91905290565b6060815260006115f060608301888a611577565b82810360208401526116038187896114a9565b9050828103604084015261161881858761150f565b9998505050505050505050565b6020808252602e908201527f496e697469616c697a61626c653a20636f6e747261637420697320616c72656160408201526d191e481a5b9a5d1a585b1a5e995960921b606082015260800190565b6020808252602e908201527f436f6e74726f6c6c65643a3a6f6e6c794d616e616765723a2043616c6c65722060408201526d34b9903737ba1036b0b730b3b2b960911b606082015260800190565b8581526060602082015260006116db6060830186886114a9565b82810360408401526116ee81858761150f565b98975050505050505050565b838152604060208201526000611714604083018486611577565b95945050505050565b600060001982141561173d57634e487b7160e01b81526011600452602481fd5b5060010190565b634e487b7160e01b600052604160045260246000fd5b6001600160a01b038116811461176f57600080fd5b5056fea2646970667358221220e4b215a680a7c0e1a18b27a1e27fca463802ebc45e02f43d33e8c9f5ce5aa15e64736f6c63430008040033",
  "devdoc": {
    "kind": "dev",
    "methods": {
      "addStrategy(string,(address,uint32)[],(uint256,address,uint32)[])": {
        "details": "This is a passthrough to StrategyMap.addStrategy"
      },
      "deleteStrategy(uint256)": {
        "details": "This is a pass through to StrategyMap.deleteStrategy"
      },
      "updateStrategy(uint256,(address,uint32)[],(uint256,address,uint32)[])": {
        "details": "This is a passthrough to StrategyMap.updateStrategyTokens"
      },
      "updateStrategyName(uint256,string)": {
        "details": "This is a pass through function to StrategyMap.updateName"
      }
    },
    "version": 1
  },
  "userdoc": {
    "kind": "user",
    "methods": {
      "addStrategy(string,(address,uint32)[],(uint256,address,uint32)[])": {
        "notice": "Adds a new strategy to the strategy map."
      },
      "deleteStrategy(uint256)": {
        "notice": "Deletes a strategy"
      },
      "updateStrategy(uint256,(address,uint32)[],(uint256,address,uint32)[])": {
        "notice": "Updates the whitelisted tokens a strategy accepts for new deposits"
      },
      "updateStrategyName(uint256,string)": {
        "notice": "Updates a strategy's name"
      }
    },
    "version": 1
  },
  "storageLayout": {
    "storage": [
      {
        "astId": 723,
        "contract": "contracts/core/StrategyManager.sol:StrategyManager",
        "label": "_initialized",
        "offset": 0,
        "slot": "0",
        "type": "t_bool"
      },
      {
        "astId": 726,
        "contract": "contracts/core/StrategyManager.sol:StrategyManager",
        "label": "_initializing",
        "offset": 1,
        "slot": "0",
        "type": "t_bool"
      },
      {
        "astId": 9534,
        "contract": "contracts/core/StrategyManager.sol:StrategyManager",
        "label": "moduleMap",
        "offset": 2,
        "slot": "0",
        "type": "t_contract(IModuleMap)19218"
      },
      {
        "astId": 4667,
        "contract": "contracts/core/StrategyManager.sol:StrategyManager",
        "label": "_controllers",
        "offset": 0,
        "slot": "1",
        "type": "t_mapping(t_address,t_bool)"
      },
      {
        "astId": 4670,
        "contract": "contracts/core/StrategyManager.sol:StrategyManager",
        "label": "controllers",
        "offset": 0,
        "slot": "2",
        "type": "t_array(t_address)dyn_storage"
      }
    ],
    "types": {
      "t_address": {
        "encoding": "inplace",
        "label": "address",
        "numberOfBytes": "20"
      },
      "t_array(t_address)dyn_storage": {
        "base": "t_address",
        "encoding": "dynamic_array",
        "label": "address[]",
        "numberOfBytes": "32"
      },
      "t_bool": {
        "encoding": "inplace",
        "label": "bool",
        "numberOfBytes": "1"
      },
      "t_contract(IModuleMap)19218": {
        "encoding": "inplace",
        "label": "contract IModuleMap",
        "numberOfBytes": "20"
      },
      "t_mapping(t_address,t_bool)": {
        "encoding": "mapping",
        "key": "t_address",
        "label": "mapping(address => bool)",
        "numberOfBytes": "32",
        "value": "t_bool"
      }
    }
  }
}