{
  "address": "0x4A2B4c0fBf56b161225a66C32801E9E3137F2B8a",
  "abi": [
    {
      "anonymous": false,
      "inputs": [
        {
          "indexed": true,
          "internalType": "uint256",
          "name": "id",
          "type": "uint256"
        }
      ],
      "name": "DeleteStrategy",
      "type": "event"
    },
    {
      "anonymous": false,
      "inputs": [
        {
          "indexed": true,
          "internalType": "uint256",
          "name": "id",
          "type": "uint256"
        },
        {
          "components": [
            {
              "internalType": "address",
              "name": "integration",
              "type": "address"
            },
            {
              "internalType": "uint32",
              "name": "ammPoolID",
              "type": "uint32"
            }
          ],
          "indexed": false,
          "internalType": "struct IStrategyMap.Integration[]",
          "name": "integrations",
          "type": "tuple[]"
        },
        {
          "components": [
            {
              "internalType": "uint256",
              "name": "integrationPairIdx",
              "type": "uint256"
            },
            {
              "internalType": "address",
              "name": "token",
              "type": "address"
            },
            {
              "internalType": "uint32",
              "name": "weight",
              "type": "uint32"
            }
          ],
          "indexed": false,
          "internalType": "struct IStrategyMap.Token[]",
          "name": "tokens",
          "type": "tuple[]"
        },
        {
          "indexed": false,
          "internalType": "string",
          "name": "name",
          "type": "string"
        }
      ],
      "name": "NewStrategy",
      "type": "event"
    },
    {
      "anonymous": false,
      "inputs": [
        {
          "indexed": true,
          "internalType": "uint256",
          "name": "id",
          "type": "uint256"
        },
        {
          "indexed": false,
          "internalType": "string",
          "name": "name",
          "type": "string"
        }
      ],
      "name": "UpdateName",
      "type": "event"
    },
    {
      "anonymous": false,
      "inputs": [
        {
          "indexed": true,
          "internalType": "uint256",
          "name": "id",
          "type": "uint256"
        },
        {
          "components": [
            {
              "internalType": "address",
              "name": "integration",
              "type": "address"
            },
            {
              "internalType": "uint32",
              "name": "ammPoolID",
              "type": "uint32"
            }
          ],
          "indexed": false,
          "internalType": "struct IStrategyMap.Integration[]",
          "name": "integrations",
          "type": "tuple[]"
        },
        {
          "components": [
            {
              "internalType": "uint256",
              "name": "integrationPairIdx",
              "type": "uint256"
            },
            {
              "internalType": "address",
              "name": "token",
              "type": "address"
            },
            {
              "internalType": "uint32",
              "name": "weight",
              "type": "uint32"
            }
          ],
          "indexed": false,
          "internalType": "struct IStrategyMap.Token[]",
          "name": "tokens",
          "type": "tuple[]"
        }
      ],
      "name": "UpdateStrategy",
      "type": "event"
    },
    {
      "inputs": [],
      "name": "TOKEN_WEIGHT",
      "outputs": [
        {
          "internalType": "uint32",
          "name": "",
          "type": "uint32"
        }
      ],
      "stateMutability": "view",
      "type": "function"
    },
    {
      "inputs": [
        {
          "internalType": "address[]",
          "name": "controllers_",
          "type": "address[]"
        },
        {
          "internalType": "address",
          "name": "moduleMap_",
          "type": "address"
        }
      ],
      "name": "__Controlled_init",
      "outputs": [],
      "stateMutability": "nonpayable",
      "type": "function"
    },
    {
      "inputs": [
        {
          "internalType": "address",
          "name": "controller",
          "type": "address"
        }
      ],
      "name": "addController",
      "outputs": [],
      "stateMutability": "nonpayable",
      "type": "function"
    },
    {
      "inputs": [
        {
          "internalType": "string",
          "name": "name",
          "type": "string"
        },
        {
          "components": [
            {
              "internalType": "address",
              "name": "integration",
              "type": "address"
            },
            {
              "internalType": "uint32",
              "name": "ammPoolID",
              "type": "uint32"
            }
          ],
          "internalType": "struct IStrategyMap.Integration[]",
          "name": "integrations",
          "type": "tuple[]"
        },
        {
          "components": [
            {
              "internalType": "uint256",
              "name": "integrationPairIdx",
              "type": "uint256"
            },
            {
              "internalType": "address",
              "name": "token",
              "type": "address"
            },
            {
              "internalType": "uint32",
              "name": "weight",
              "type": "uint32"
            }
          ],
          "internalType": "struct IStrategyMap.Token[]",
          "name": "tokens",
          "type": "tuple[]"
        }
      ],
      "name": "addStrategy",
      "outputs": [],
      "stateMutability": "nonpayable",
      "type": "function"
    },
    {
      "inputs": [
        {
          "internalType": "address[]",
          "name": "tokens",
          "type": "address[]"
        }
      ],
      "name": "clearClosablePositions",
      "outputs": [],
      "stateMutability": "nonpayable",
      "type": "function"
    },
    {
      "inputs": [
        {
          "internalType": "address",
          "name": "token",
          "type": "address"
        },
        {
          "internalType": "uint256",
          "name": "amount",
          "type": "uint256"
        }
      ],
      "name": "closePositionsForWithdrawal",
      "outputs": [],
      "stateMutability": "nonpayable",
      "type": "function"
    },
    {
      "inputs": [
        {
          "internalType": "uint256",
          "name": "",
          "type": "uint256"
        }
      ],
      "name": "controllers",
      "outputs": [
        {
          "internalType": "address",
          "name": "",
          "type": "address"
        }
      ],
      "stateMutability": "view",
      "type": "function"
    },
    {
      "inputs": [
        {
          "internalType": "address",
          "name": "integration",
          "type": "address"
        },
        {
          "internalType": "uint32",
          "name": "poolID",
          "type": "uint32"
        },
        {
          "internalType": "address",
          "name": "token",
          "type": "address"
        },
        {
          "internalType": "uint256",
          "name": "amount",
          "type": "uint256"
        }
      ],
      "name": "decreaseDeployAmountChange",
      "outputs": [],
      "stateMutability": "nonpayable",
      "type": "function"
    },
    {
      "inputs": [
        {
          "internalType": "uint256",
          "name": "id",
          "type": "uint256"
        },
        {
          "components": [
            {
              "internalType": "address",
              "name": "token",
              "type": "address"
            },
            {
              "internalType": "uint256",
              "name": "amount",
              "type": "uint256"
            }
          ],
          "internalType": "struct IUserPositions.TokenMovement[]",
          "name": "tokens",
          "type": "tuple[]"
        }
      ],
      "name": "decreaseStrategy",
      "outputs": [],
      "stateMutability": "nonpayable",
      "type": "function"
    },
    {
      "inputs": [
        {
          "internalType": "uint256",
          "name": "id",
          "type": "uint256"
        }
      ],
      "name": "deleteStrategy",
      "outputs": [],
      "stateMutability": "nonpayable",
      "type": "function"
    },
    {
      "inputs": [
        {
          "internalType": "address",
          "name": "token",
          "type": "address"
        },
        {
          "internalType": "uint256",
          "name": "index",
          "type": "uint256"
        }
      ],
      "name": "getClosablePositions",
      "outputs": [
        {
          "components": [
            {
              "internalType": "address",
              "name": "integration",
              "type": "address"
            },
            {
              "internalType": "uint32",
              "name": "ammPoolID",
              "type": "uint32"
            },
            {
              "internalType": "uint256",
              "name": "amount",
              "type": "uint256"
            }
          ],
          "internalType": "struct IStrategyMap.ClosablePosition",
          "name": "",
          "type": "tuple"
        }
      ],
      "stateMutability": "view",
      "type": "function"
    },
    {
      "inputs": [
        {
          "internalType": "address",
          "name": "integration",
          "type": "address"
        },
        {
          "internalType": "uint32",
          "name": "poolID",
          "type": "uint32"
        },
        {
          "internalType": "address",
          "name": "token",
          "type": "address"
        }
      ],
      "name": "getDeployAmount",
      "outputs": [
        {
          "internalType": "int256",
          "name": "",
          "type": "int256"
        }
      ],
      "stateMutability": "view",
      "type": "function"
    },
    {
      "inputs": [
        {
          "internalType": "uint256[]",
          "name": "ids",
          "type": "uint256[]"
        }
      ],
      "name": "getMultipleStrategies",
      "outputs": [
        {
          "components": [
            {
              "internalType": "string",
              "name": "name",
              "type": "string"
            },
            {
              "components": [
                {
                  "internalType": "address",
                  "name": "integration",
                  "type": "address"
                },
                {
                  "internalType": "uint32",
                  "name": "ammPoolID",
                  "type": "uint32"
                }
              ],
              "internalType": "struct IStrategyMap.Integration[]",
              "name": "integrations",
              "type": "tuple[]"
            },
            {
              "components": [
                {
                  "internalType": "uint256",
                  "name": "integrationPairIdx",
                  "type": "uint256"
                },
                {
                  "internalType": "address",
                  "name": "token",
                  "type": "address"
                },
                {
                  "internalType": "uint32",
                  "name": "weight",
                  "type": "uint32"
                }
              ],
              "internalType": "struct IStrategyMap.Token[]",
              "name": "tokens",
              "type": "tuple[]"
            }
          ],
          "internalType": "struct IStrategyMap.StrategySummary[]",
          "name": "",
          "type": "tuple[]"
        }
      ],
      "stateMutability": "view",
      "type": "function"
    },
    {
      "inputs": [
        {
          "internalType": "uint256",
          "name": "id",
          "type": "uint256"
        }
      ],
      "name": "getStrategy",
      "outputs": [
        {
          "components": [
            {
              "internalType": "string",
              "name": "name",
              "type": "string"
            },
            {
              "components": [
                {
                  "internalType": "address",
                  "name": "integration",
                  "type": "address"
                },
                {
                  "internalType": "uint32",
                  "name": "ammPoolID",
                  "type": "uint32"
                }
              ],
              "internalType": "struct IStrategyMap.Integration[]",
              "name": "integrations",
              "type": "tuple[]"
            },
            {
              "components": [
                {
                  "internalType": "uint256",
                  "name": "integrationPairIdx",
                  "type": "uint256"
                },
                {
                  "internalType": "address",
                  "name": "token",
                  "type": "address"
                },
                {
                  "internalType": "uint32",
                  "name": "weight",
                  "type": "uint32"
                }
              ],
              "internalType": "struct IStrategyMap.Token[]",
              "name": "tokens",
              "type": "tuple[]"
            }
          ],
          "internalType": "struct IStrategyMap.StrategySummary",
          "name": "",
          "type": "tuple"
        }
      ],
      "stateMutability": "view",
      "type": "function"
    },
    {
      "inputs": [
        {
          "internalType": "uint256[]",
          "name": "_strategies",
          "type": "uint256[]"
        },
        {
          "internalType": "address[]",
          "name": "_tokens",
          "type": "address[]"
        }
      ],
      "name": "getStrategyBalances",
      "outputs": [
        {
          "components": [
            {
              "internalType": "uint256",
              "name": "strategyID",
              "type": "uint256"
            },
            {
              "components": [
                {
                  "internalType": "address",
                  "name": "token",
                  "type": "address"
                },
                {
                  "internalType": "uint256",
                  "name": "balance",
                  "type": "uint256"
                }
              ],
              "internalType": "struct IStrategyMap.GeneralBalance[]",
              "name": "tokens",
              "type": "tuple[]"
            }
          ],
          "internalType": "struct IStrategyMap.StrategyBalance[]",
          "name": "strategyBalances",
          "type": "tuple[]"
        },
        {
          "components": [
            {
              "internalType": "address",
              "name": "token",
              "type": "address"
            },
            {
              "internalType": "uint256",
              "name": "balance",
              "type": "uint256"
            }
          ],
          "internalType": "struct IStrategyMap.GeneralBalance[]",
          "name": "generalBalances",
          "type": "tuple[]"
        }
      ],
      "stateMutability": "view",
      "type": "function"
    },
    {
      "inputs": [
        {
          "internalType": "uint256",
          "name": "id",
          "type": "uint256"
        },
        {
          "internalType": "address",
          "name": "token",
          "type": "address"
        }
      ],
      "name": "getStrategyTokenBalance",
      "outputs": [
        {
          "internalType": "uint256",
          "name": "amount",
          "type": "uint256"
        }
      ],
      "stateMutability": "view",
      "type": "function"
    },
    {
      "inputs": [
        {
          "internalType": "uint256",
          "name": "strategy",
          "type": "uint256"
        }
      ],
      "name": "getStrategyTokenLength",
      "outputs": [
        {
          "internalType": "uint256",
          "name": "",
          "type": "uint256"
        }
      ],
      "stateMutability": "view",
      "type": "function"
    },
    {
      "inputs": [
        {
          "internalType": "address",
          "name": "token",
          "type": "address"
        }
      ],
      "name": "getTokenTotalBalance",
      "outputs": [
        {
          "internalType": "uint256",
          "name": "amount",
          "type": "uint256"
        }
      ],
      "stateMutability": "view",
      "type": "function"
    },
    {
      "inputs": [],
      "name": "idCounter",
      "outputs": [
        {
          "internalType": "uint256",
          "name": "",
          "type": "uint256"
        }
      ],
      "stateMutability": "view",
      "type": "function"
    },
    {
      "inputs": [
        {
          "internalType": "uint256",
          "name": "id",
          "type": "uint256"
        },
        {
          "components": [
            {
              "internalType": "address",
              "name": "token",
              "type": "address"
            },
            {
              "internalType": "uint256",
              "name": "amount",
              "type": "uint256"
            }
          ],
          "internalType": "struct IUserPositions.TokenMovement[]",
          "name": "tokens",
          "type": "tuple[]"
        }
      ],
      "name": "increaseStrategy",
      "outputs": [],
      "stateMutability": "nonpayable",
      "type": "function"
    },
    {
      "inputs": [
        {
          "internalType": "uint256",
          "name": "id",
          "type": "uint256"
        },
        {
          "components": [
            {
              "internalType": "address",
              "name": "token",
              "type": "address"
            },
            {
              "internalType": "uint256",
              "name": "amount",
              "type": "uint256"
            }
          ],
          "internalType": "struct IUserPositions.TokenMovement[]",
          "name": "tokens",
          "type": "tuple[]"
        }
      ],
      "name": "increaseTokenBalance",
      "outputs": [],
      "stateMutability": "nonpayable",
      "type": "function"
    },
    {
      "inputs": [
        {
          "internalType": "address[]",
          "name": "controllers_",
          "type": "address[]"
        },
        {
          "internalType": "address",
          "name": "moduleMap_",
          "type": "address"
        }
      ],
      "name": "initialize",
      "outputs": [],
      "stateMutability": "nonpayable",
      "type": "function"
    },
    {
      "inputs": [],
      "name": "moduleMap",
      "outputs": [
        {
          "internalType": "contract IModuleMap",
          "name": "",
          "type": "address"
        }
      ],
      "stateMutability": "view",
      "type": "function"
    },
    {
      "inputs": [
        {
          "internalType": "uint256",
          "name": "id",
          "type": "uint256"
        },
        {
          "internalType": "string",
          "name": "name",
          "type": "string"
        }
      ],
      "name": "updateName",
      "outputs": [],
      "stateMutability": "nonpayable",
      "type": "function"
    },
    {
      "inputs": [
        {
          "internalType": "uint256",
          "name": "id",
          "type": "uint256"
        },
        {
          "components": [
            {
              "internalType": "address",
              "name": "integration",
              "type": "address"
            },
            {
              "internalType": "uint32",
              "name": "ammPoolID",
              "type": "uint32"
            }
          ],
          "internalType": "struct IStrategyMap.Integration[]",
          "name": "integrations",
          "type": "tuple[]"
        },
        {
          "components": [
            {
              "internalType": "uint256",
              "name": "integrationPairIdx",
              "type": "uint256"
            },
            {
              "internalType": "address",
              "name": "token",
              "type": "address"
            },
            {
              "internalType": "uint32",
              "name": "weight",
              "type": "uint32"
            }
          ],
          "internalType": "struct IStrategyMap.Token[]",
          "name": "tokens",
          "type": "tuple[]"
        }
      ],
      "name": "updateStrategy",
      "outputs": [],
      "stateMutability": "nonpayable",
      "type": "function"
    }
  ],
  "transactionHash": "0xb21b2500011cc4fd218452d3d8d8e70441a0d57fba004a22dcf77e1ced1d2211",
  "args": [],
  "solcInputHash": "3c329c0643231770f636e8187b4b428d",
  "bytecode": "0x608060405234801561001057600080fd5b506147fa806100206000396000f3fe608060405234801561001057600080fd5b50600436106101335760003560e01c80630f0a1c6f146101385780631416110b146101675780631975762f1461017c57806327ddb9711461019c57806343b17d63146101cd578063462d0b2e146101e057806353e76f2c146101f35780635560066a1461020657806370051bf21461021957806385039aa61461022c578063873020371461023f57806398c671ce146102525780639d6eaec214610265578063a441f6ec1461029a578063a742d0b6146102de578063a7fc7a0714610307578063ce19bda11461031a578063cfc0cc3414610339578063d4a4a04314610359578063e94b0dd21461036c578063eb08ab281461037f578063edeaa0d214610388578063ee73ccae1461039b578063f7e50fcf146103ae578063ffeeb234146103f7575b600080fd5b600054610151906201000090046001600160a01b031681565b60405161015e91906142ba565b60405180910390f35b61017a610175366004613fc5565b610418565b005b61018f61018a366004613c0f565b610851565b60405161015e91906143d0565b6101bf6101aa366004613ef0565b60009081526003602052604090206002015490565b60405190815260200161015e565b61017a6101db366004613c0f565b610937565b61017a6101ee366004613c4e565b6109ed565b61017a61020136600461400e565b610a6a565b61017a610214366004613b4e565b610b66565b61017a610227366004613d9b565b61111d565b61017a61023a366004613fc5565b61130d565b61017a61024d366004613ef0565b611523565b61017a610260366004613c4e565b6116f9565b6101bf610273366004613f20565b60009182526005602090815260408084206001600160a01b03909316845291905290205490565b6102ad6102a8366004613b4e565b6117e9565b6040805182516001600160a01b0316815260208084015163ffffffff1690820152918101519082015260600161015e565b6101bf6102ec366004613b0f565b6001600160a01b031660009081526004602052604090205490565b61017a610315366004613b0f565b61188e565b610324620186a081565b60405163ffffffff909116815260200161015e565b61034c610347366004613ef0565b611acb565b60405161015e91906145e5565b61017a610367366004613fc5565b611c90565b61015161037a366004613ef0565b612280565b6101bf60085481565b61017a610396366004613f4f565b6122aa565b61017a6103a9366004613bc1565b6129ed565b6101bf6103bc366004613b79565b6001600160a01b03808416600090815260066020908152604080832063ffffffff871684528252808320938516835292905220549392505050565b61040a610405366004613d13565b612acb565b60405161015e929190614349565b3360009081526001602052604090205460ff166104505760405162461bcd60e51b815260040161044790614591565b60405180910390fd5b600061045b84611acb565b905060005b8281101561084a5760008581526003602081905260408220019085858481811061049a57634e487b7160e01b600052603260045260246000fd5b6104b09260206040909202019081019150613b0f565b6001600160a01b0316815260208101919091526040016000205460ff166104e95760405162461bcd60e51b81526004016104479061453e565b83838281811061050957634e487b7160e01b600052603260045260246000fd5b9050604002016020013560056000878152602001908152602001600020600086868581811061054857634e487b7160e01b600052603260045260246000fd5b61055e9260206040909202019081019150613b0f565b6001600160a01b03166001600160a01b03168152602001908152602001600020600082825461058d9190614669565b9091555084905083828181106105b357634e487b7160e01b600052603260045260246000fd5b90506040020160200135600460008686858181106105e157634e487b7160e01b600052603260045260246000fd5b6105f79260206040909202019081019150613b0f565b6001600160a01b03166001600160a01b0316815260200190815260200160002060008282546106269190614669565b90915550600090505b826040015151811015610837578260400151818151811061066057634e487b7160e01b600052603260045260246000fd5b6020026020010151602001516001600160a01b031685858481811061069557634e487b7160e01b600052603260045260246000fd5b6106ab9260206040909202019081019150613b0f565b6001600160a01b031614156108255760008360200151846040015183815181106106e557634e487b7160e01b600052603260045260246000fd5b6020026020010151600001518151811061070f57634e487b7160e01b600052603260045260246000fd5b6020026020010151905061078b86868581811061073c57634e487b7160e01b600052603260045260246000fd5b905060400201602001358560400151848151811061076a57634e487b7160e01b600052603260045260246000fd5b60200260200101516040015163ffffffff16620186a063ffffffff1661300e565b81516001600160a01b031660009081526006602090815260408083208286015163ffffffff1684529091528120908888878181106107d957634e487b7160e01b600052603260045260246000fd5b6107ef9260206040909202019081019150613b0f565b6001600160a01b03166001600160a01b03168152602001908152602001600020600082825461081e9190614628565b9091555050505b8061082f81614768565b91505061062f565b508061084281614768565b915050610460565b5050505050565b60606000826001600160401b0381111561087b57634e487b7160e01b600052604160045260246000fd5b6040519080825280602002602001820160405280156108b457816020015b6108a161373c565b8152602001906001900390816108995790505b50905060005b8381101561092f576108f18585838181106108e557634e487b7160e01b600052603260045260246000fd5b90506020020135611acb565b82828151811061091157634e487b7160e01b600052603260045260246000fd5b6020026020010181905250808061092790614768565b9150506108ba565b509392505050565b3360009081526001602052604090205460ff166109665760405162461bcd60e51b815260040161044790614591565b60005b818110156109e8576007600084848481811061099557634e487b7160e01b600052603260045260246000fd5b90506020020160208101906109aa9190613b0f565b6001600160a01b03166001600160a01b0316815260200190815260200160002060006109d6919061375d565b806109e081614768565b915050610969565b505050565b600054610100900460ff16610a085760005460ff1615610a0c565b303b155b610a285760405162461bcd60e51b8152600401610447906144c8565b600054610100900460ff16158015610a4a576000805461ffff19166101011790555b610a5483836116f9565b80156109e8576000805461ff0019169055505050565b3360009081526001602052604090205460ff16610a995760405162461bcd60e51b815260040161044790614591565b60008381526003602052604081208054610ab29061472d565b905011610ad15760405162461bcd60e51b81526004016104479061446d565b80610b0d5760405162461bcd60e51b815260206004820152600c60248201526b696e76616c6964206e616d6560a01b6044820152606401610447565b6000838152600360205260409020610b26908383613781565b50827fac2072268d18e10aecad35c0c04acd66330b2571a8ff403e3c702d77d3bab1348383604051610b59929190614459565b60405180910390a2505050565b3360009081526001602052604090205460ff16610b955760405162461bcd60e51b815260040161044790614591565b6001600160a01b038216600090815260076020908152604080832080548251818502810185019093528083529192909190849084015b82821015610c28576000848152602090819020604080516060810182526002860290920180546001600160a01b0381168452600160a01b900463ffffffff1683850152600190810154918301919091529083529092019101610bcb565b5050505090506000808060029054906101000a90046001600160a01b03166001600160a01b0316636f8c3f8a60006040518263ffffffff1660e01b8152600401610c729190614431565b60206040518083038186803b158015610c8a57600080fd5b505afa158015610c9e573d6000803e3d6000fd5b505050506040513d601f19601f82011682018060405250810190610cc29190613b32565b83519091501561084a57600060018451610cdc91906146ff565b90505b6040516370a0823160e01b81526000906001600160a01b038816906370a0823190610d0e9086906004016142ba565b60206040518083038186803b158015610d2657600080fd5b505afa158015610d3a573d6000803e3d6000fd5b505050506040513d601f19601f82011682018060405250810190610d5e9190613f08565b9050848281518110610d8057634e487b7160e01b600052603260045260246000fd5b60200260200101516020015163ffffffff1660001415610e6957848281518110610dba57634e487b7160e01b600052603260045260246000fd5b6020026020010151600001516001600160a01b031663f3fef3a388878581518110610df557634e487b7160e01b600052603260045260246000fd5b6020026020010151604001516040518363ffffffff1660e01b8152600401610e329291906001600160a01b03929092168252602082015260400190565b600060405180830381600087803b158015610e4c57600080fd5b505af1158015610e60573d6000803e3d6000fd5b50505050610f6b565b848281518110610e8957634e487b7160e01b600052603260045260246000fd5b6020026020010151600001516001600160a01b0316637db2ddfe88878581518110610ec457634e487b7160e01b600052603260045260246000fd5b602002602001015160400151888681518110610ef057634e487b7160e01b600052603260045260246000fd5b60209081029190910181015101516040516001600160e01b031960e086901b1681526001600160a01b039093166004840152602483019190915263ffffffff166044820152606401600060405180830381600087803b158015610f5257600080fd5b505af1158015610f66573d6000803e3d6000fd5b505050505b600081886001600160a01b03166370a08231866040518263ffffffff1660e01b8152600401610f9a91906142ba565b60206040518083038186803b158015610fb257600080fd5b505afa158015610fc6573d6000803e3d6000fd5b505050506040513d601f19601f82011682018060405250810190610fea9190613f08565b610ff491906146ff565b6001600160a01b03891660009081526007602052604090208054919250908061102d57634e487b7160e01b600052603160045260246000fd5b60008281526020812060026000199093019283020180546001600160c01b031916815560010155905585516110e69087908590811061107c57634e487b7160e01b600052603260045260246000fd5b6020026020010151600001518785815181106110a857634e487b7160e01b600052603260045260246000fd5b6020026020010151602001518a8987815181106110d557634e487b7160e01b600052603260045260246000fd5b6020026020010151604001516129ed565b6110f08186614669565b9450868510611100575050611115565b5050808061110d90614716565b915050610cdf565b505050505050565b3360009081526001602052604090205460ff1661114c5760405162461bcd60e51b815260040161044790614591565b826111695760405162461bcd60e51b81526004016104479061449a565b806111865760405162461bcd60e51b815260040161044790614516565b846111c65760405162461bcd60e51b815260206004820152601060248201526f6d75737420686176652061206e616d6560801b6044820152606401610447565b600880549060006111d683614768565b9190505550600060085490506112c28188888080601f0160208091040260200160405190810160405280939291908181526020018383808284376000920182905250604080516020808e02820181019092528c815294508c93508b925082919085015b828210156112655761125660408302860136819003810190613e30565b81526020019060010190611239565b50505050508686808060200260200160405190810160405280939291908181526020016000905b828210156112b8576112a960608302860136819003810190613e8b565b8152602001906001019061128c565b505050505061302d565b807f4e61f7bf6a133a1b5c26fdae178f0d6316fa1214e5d7f1153e67c688dc64eef0868686868c8c6040516112fc96959493929190614300565b60405180910390a250505050505050565b3360009081526001602052604090205460ff1661133c5760405162461bcd60e51b815260040161044790614591565b60005b8181101561151d5760008481526003602081905260408220019084848481811061137957634e487b7160e01b600052603260045260246000fd5b61138f9260206040909202019081019150613b0f565b6001600160a01b0316815260208101919091526040016000205460ff166113c85760405162461bcd60e51b81526004016104479061453e565b8282828181106113e857634e487b7160e01b600052603260045260246000fd5b9050604002016020013560056000868152602001908152602001600020600085858581811061142757634e487b7160e01b600052603260045260246000fd5b61143d9260206040909202019081019150613b0f565b6001600160a01b03166001600160a01b03168152602001908152602001600020600082825461146c9190614669565b90915550839050828281811061149257634e487b7160e01b600052603260045260246000fd5b90506040020160200135600460008585858181106114c057634e487b7160e01b600052603260045260246000fd5b6114d69260206040909202019081019150613b0f565b6001600160a01b03166001600160a01b0316815260200190815260200160002060008282546115059190614669565b9091555081905061151581614768565b91505061133f565b50505050565b3360009081526001602052604090205460ff166115525760405162461bcd60e51b815260040161044790614591565b600061155d82611acb565b905060005b81604001515181101561169257600560008481526020019081526020016000206000836040015183815181106115a857634e487b7160e01b600052603260045260246000fd5b6020026020010151602001516001600160a01b03166001600160a01b03168152602001908152602001600020546000146116165760405162461bcd60e51b815260206004820152600f60248201526e737472617465677920696e2075736560881b6044820152606401610447565b6003600084815260200190815260200160002060030160008360400151838151811061165257634e487b7160e01b600052603260045260246000fd5b6020908102919091018101518101516001600160a01b03168252810191909152604001600020805460ff191690558061168a81614768565b915050611562565b506000828152600360205260408120906116ac8282613805565b6116ba60018301600061383f565b6116c860028301600061385d565b505060405182907f79097c9b1a7ba453a3ecc60124deebb47c637495f9912752840842a8ae28905690600090a25050565b600054610100900460ff166117145760005460ff1615611718565b303b155b6117345760405162461bcd60e51b8152600401610447906144c8565b600054610100900460ff16158015611756576000805461ffff19166101011790555b60005b83518110156117cb57600180600086848151811061178757634e487b7160e01b600052603260045260246000fd5b6020908102919091018101516001600160a01b03168252810191909152604001600020805460ff1916911515919091179055806117c381614768565b915050611759565b5082516117df90600290602086019061387e565b50610a54826136a8565b60408051606081018252600080825260208083018290528284018290526001600160a01b0386168252600790529190912080548390811061183a57634e487b7160e01b600052603260045260246000fd5b60009182526020918290206040805160608101825260029390930290910180546001600160a01b0381168452600160a01b900463ffffffff1693830193909352600190920154918101919091529392505050565b600080546040516337c61fc560e11b8152620100009091046001600160a01b031691636f8c3f8a916118c39190600401614431565b60206040518083038186803b1580156118db57600080fd5b505afa1580156118ef573d6000803e3d6000fd5b505050506040513d601f19601f820116820180604052508101906119139190613b32565b6001600160a01b0316632f54bf6e336040518263ffffffff1660e01b815260040161193e91906142ba565b60206040518083038186803b15801561195657600080fd5b505afa15801561196a573d6000803e3d6000fd5b505050506040513d601f19601f8201168201806040525081019061198e9190613d7b565b6119ed5760405162461bcd60e51b815260206004820152602a60248201527f436f6e74726f6c6c65643a3a6f6e6c794f776e65723a2043616c6c6572206973604482015269103737ba1037bbb732b960b11b6064820152608401610447565b6001600160a01b03811660009081526001602081905260408220805460ff19169091179055805b600254811015611a755760028181548110611a3f57634e487b7160e01b600052603260045260246000fd5b6000918252602090912001546001600160a01b0384811691161415611a6357600191505b80611a6d81614768565b915050611a14565b5080611ac757600280546001810182556000919091527f405787fa12a823e0f2b7631cc41b3ba8828b3321ca811111fa75cd3aa3bb5ace0180546001600160a01b0319166001600160a01b0384161790555b5050565b611ad361373c565b611adb61373c565b60008381526003602052604090208054611af49061472d565b80601f0160208091040260200160405190810160405280929190818152602001828054611b209061472d565b8015611b6d5780601f10611b4257610100808354040283529160200191611b6d565b820191906000526020600020905b815481529060010190602001808311611b5057829003601f168201915b5050509183525050600083815260036020908152604080832060010180548251818502810185019093528083529193909284015b82821015611bed57600084815260209081902060408051808201909152908401546001600160a01b0381168252600160a01b900463ffffffff1681830152825260019092019101611ba1565b5050505060208083019190915260008481526003825260408082206002018054825181860281018601909352808352919390929084015b82821015611c815760008481526020908190206040805160608101825260028602909201805483526001908101546001600160a01b03811684860152600160a01b900463ffffffff16918301919091529083529092019101611c24565b50505050604082015292915050565b3360009081526001602052604090205460ff16611cbf5760405162461bcd60e51b815260040161044790614591565b6000611cca84611acb565b9050600081604001515111611d145760405162461bcd60e51b815260206004820152601060248201526f696e76616c696420737472617465677960801b6044820152606401610447565b60005b8281101561084a57838382818110611d3f57634e487b7160e01b600052603260045260246000fd5b90506040020160200135600560008781526020019081526020016000206000868685818110611d7e57634e487b7160e01b600052603260045260246000fd5b611d949260206040909202019081019150613b0f565b6001600160a01b03166001600160a01b03168152602001908152602001600020541015611dd35760405162461bcd60e51b815260040161044790614565565b838382818110611df357634e487b7160e01b600052603260045260246000fd5b9050604002016020013560046000868685818110611e2157634e487b7160e01b600052603260045260246000fd5b611e379260206040909202019081019150613b0f565b6001600160a01b03166001600160a01b03168152602001908152602001600020541015611e765760405162461bcd60e51b815260040161044790614565565b838382818110611e9657634e487b7160e01b600052603260045260246000fd5b90506040020160200135600560008781526020019081526020016000206000868685818110611ed557634e487b7160e01b600052603260045260246000fd5b611eeb9260206040909202019081019150613b0f565b6001600160a01b03166001600160a01b031681526020019081526020016000206000828254611f1a91906146ff565b909155508490508382818110611f4057634e487b7160e01b600052603260045260246000fd5b9050604002016020013560046000868685818110611f6e57634e487b7160e01b600052603260045260246000fd5b611f849260206040909202019081019150613b0f565b6001600160a01b03166001600160a01b031681526020019081526020016000206000828254611fb391906146ff565b90915550600090505b82604001515181101561226d5782604001518181518110611fed57634e487b7160e01b600052603260045260246000fd5b6020026020010151602001516001600160a01b031685858481811061202257634e487b7160e01b600052603260045260246000fd5b6120389260206040909202019081019150613b0f565b6001600160a01b0316141561225b57600083602001518460400151838151811061207257634e487b7160e01b600052603260045260246000fd5b6020026020010151600001518151811061209c57634e487b7160e01b600052603260045260246000fd5b6020026020010151905060006120f98787868181106120cb57634e487b7160e01b600052603260045260246000fd5b905060400201602001358660400151858151811061076a57634e487b7160e01b600052603260045260246000fd5b82516001600160a01b031660009081526006602090815260408083208287015163ffffffff168452909152812091925082919089898881811061214c57634e487b7160e01b600052603260045260246000fd5b6121629260206040909202019081019150613b0f565b6001600160a01b03166001600160a01b03168152602001908152602001600020600082825461219191906146c0565b909155506007905060008888878181106121bb57634e487b7160e01b600052603260045260246000fd5b6121d19260206040909202019081019150613b0f565b6001600160a01b0390811682526020808301939093526040918201600090812083516060810185528751841681529685015163ffffffff908116888701908152948801968752815460018181018455928452959092209651600290950290960180549351909116600160a01b026001600160c01b0319909316939091169290921717815590519101555b8061226581614768565b915050611fbc565b508061227881614768565b915050611d17565b6002818154811061229057600080fd5b6000918252602090912001546001600160a01b0316905081565b3360009081526001602052604090205460ff166122d95760405162461bcd60e51b815260040161044790614591565b826122f65760405162461bcd60e51b81526004016104479061449a565b806123135760405162461bcd60e51b815260040161044790614516565b6000858152600360205260408120805461232c9061472d565b90501161234b5760405162461bcd60e51b81526004016104479061446d565b600061235686611acb565b6000878152600360205260408120919250612374916002019061385d565b60008681526003602052604081206123919160019091019061383f565b60005b81604001515181101561263d57620186a063ffffffff16826040015182815181106123cf57634e487b7160e01b600052603260045260246000fd5b60200260200101516040015163ffffffff16600560008a815260200190815260200160002060008560400151858151811061241a57634e487b7160e01b600052603260045260246000fd5b6020026020010151602001516001600160a01b03166001600160a01b031681526020019081526020016000205461245191906146a1565b61245b9190614681565b6006600084602001518560400151858151811061248857634e487b7160e01b600052603260045260246000fd5b602002602001015160000151815181106124b257634e487b7160e01b600052603260045260246000fd5b6020026020010151600001516001600160a01b03166001600160a01b03168152602001908152602001600020600084602001518560400151858151811061250957634e487b7160e01b600052603260045260246000fd5b6020026020010151600001518151811061253357634e487b7160e01b600052603260045260246000fd5b60200260200101516020015163ffffffff1663ffffffff16815260200190815260200160002060008460400151848151811061257f57634e487b7160e01b600052603260045260246000fd5b6020026020010151602001516001600160a01b03166001600160a01b0316815260200190815260200160002060008282546125ba91906146c0565b92505081905550600360008881526020019081526020016000206003016000836040015183815181106125fd57634e487b7160e01b600052603260045260246000fd5b6020908102919091018101518101516001600160a01b03168252810191909152604001600020805460ff191690558061263581614768565b915050612394565b5060005b828110156128fc5760008781526005602052604081208186868581811061267857634e487b7160e01b600052603260045260246000fd5b90506060020160200160208101906126909190613b0f565b6001600160a01b03166001600160a01b031681526020019081526020016000205411156128ea57620186a08484838181106126db57634e487b7160e01b600052603260045260246000fd5b90506060020160400160208101906126f3919061404a565b63ffffffff16600560008a8152602001908152602001600020600087878681811061272e57634e487b7160e01b600052603260045260246000fd5b90506060020160200160208101906127469190613b0f565b6001600160a01b03166001600160a01b031681526020019081526020016000205461277191906146a1565b61277b9190614681565b6006600088888888878181106127a157634e487b7160e01b600052603260045260246000fd5b905060600201600001358181106127c857634e487b7160e01b600052603260045260246000fd5b6127de9260206040909202019081019150613b0f565b6001600160a01b03166001600160a01b031681526020019081526020016000206000888888888781811061282257634e487b7160e01b600052603260045260246000fd5b9050606002016000013581811061284957634e487b7160e01b600052603260045260246000fd5b9050604002016020016020810190612861919061404a565b63ffffffff1663ffffffff168152602001908152602001600020600086868581811061289d57634e487b7160e01b600052603260045260246000fd5b90506060020160200160208101906128b59190613b0f565b6001600160a01b03166001600160a01b0316815260200190815260200160002060008282546128e49190614628565b90915550505b806128f481614768565b915050612641565b506129a78682600001518787808060200260200160405190810160405280939291908181526020016000905b828210156129545761294560408302860136819003810190613e30565b81526020019060010190612928565b50505050508686808060200260200160405190810160405280939291908181526020016000905b828210156112b85761299860608302860136819003810190613e8b565b8152602001906001019061297b565b857fff42d8810dd20b2ca67dcd42122a89f3901dfc9f4a6b77e745f38ca8566c9585868686866040516129dd94939291906142ce565b60405180910390a2505050505050565b6001600160a01b03808516600090815260066020908152604080832063ffffffff881684528252808320938616835292905290812054908112612a7a576001600160a01b03808616600090815260066020908152604080832063ffffffff89168452825280832093871683529290529081208054849290612a6f9084906146c0565b9091555061084a9050565b6001600160a01b03808616600090815260066020908152604080832063ffffffff89168452825280832093871683529290529081208054849290612abf908490614628565b90915550505050505050565b606080846001600160401b03811115612af457634e487b7160e01b600052604160045260246000fd5b604051908082528060200260200182016040528015612b3a57816020015b604080518082019091526000815260606020820152815260200190600190039081612b125790505b509150826001600160401b03811115612b6357634e487b7160e01b600052604160045260246000fd5b604051908082528060200260200182016040528015612b9c57816020015b612b896138d3565b815260200190600190039081612b815790505b50905060005b83811015612cb157848482818110612bca57634e487b7160e01b600052603260045260246000fd5b9050602002016020810190612bdf9190613b0f565b828281518110612bff57634e487b7160e01b600052603260045260246000fd5b60209081029190910101516001600160a01b03909116905260046000868684818110612c3b57634e487b7160e01b600052603260045260246000fd5b9050602002016020810190612c509190613b0f565b6001600160a01b03166001600160a01b0316815260200190815260200160002054828281518110612c9157634e487b7160e01b600052603260045260246000fd5b602090810291909101810151015280612ca981614768565b915050612ba2565b5060005b8581101561300457600060036000898985818110612ce357634e487b7160e01b600052603260045260246000fd5b905060200201358152602001908152602001600020600201805480602002602001604051908101604052809291908181526020016000905b82821015612d785760008481526020908190206040805160608101825260028602909201805483526001908101546001600160a01b03811684860152600160a01b900463ffffffff16918301919091529083529092019101612d1b565b50505050905080516001600160401b03811115612da557634e487b7160e01b600052604160045260246000fd5b604051908082528060200260200182016040528015612dde57816020015b612dcb6138d3565b815260200190600190039081612dc35790505b50848381518110612dff57634e487b7160e01b600052603260045260246000fd5b602002602001015160200181905250878783818110612e2e57634e487b7160e01b600052603260045260246000fd5b90506020020135848381518110612e5557634e487b7160e01b600052603260045260246000fd5b60209081029190910101515260005b8151811015612fef57818181518110612e8d57634e487b7160e01b600052603260045260246000fd5b602002602001015160200151858481518110612eb957634e487b7160e01b600052603260045260246000fd5b6020026020010151602001518281518110612ee457634e487b7160e01b600052603260045260246000fd5b60209081029190910101516001600160a01b039091169052600560008a8a86818110612f2057634e487b7160e01b600052603260045260246000fd5b9050602002013581526020019081526020016000206000838381518110612f5757634e487b7160e01b600052603260045260246000fd5b6020026020010151602001516001600160a01b03166001600160a01b0316815260200190815260200160002054858481518110612fa457634e487b7160e01b600052603260045260246000fd5b6020026020010151602001518281518110612fcf57634e487b7160e01b600052603260045260246000fd5b602090810291909101810151015280612fe781614768565b915050612e64565b50508080612ffc90614768565b915050612cb5565b5094509492505050565b60008161301b84866146a1565b6130259190614681565b949350505050565b60005b82518110156130cb5760006001600160a01b031683828151811061306457634e487b7160e01b600052603260045260246000fd5b6020026020010151600001516001600160a01b031614156130b95760405162461bcd60e51b815260206004820152600f60248201526e3130b21034b73a32b3b930ba34b7b760891b6044820152606401610447565b806130c381614768565b915050613030565b50600081516001600160401b038111156130f557634e487b7160e01b600052604160045260246000fd5b60405190808252806020026020018201604052801561311e578160200160208202803683370190505b5090506000805b835181101561339757845184828151811061315057634e487b7160e01b600052603260045260246000fd5b602002602001015160000151106131a95760405162461bcd60e51b815260206004820152601d60248201527f696e746567726174696f6e20696478206f7574206f6620626f756e64730000006044820152606401610447565b60006001600160a01b03168482815181106131d457634e487b7160e01b600052603260045260246000fd5b6020026020010151602001516001600160a01b031614156132235760405162461bcd60e51b81526020600482015260096024820152683130b2103a37b5b2b760b91b6044820152606401610447565b6009600085838151811061324757634e487b7160e01b600052603260045260246000fd5b6020026020010151602001516001600160a01b03166001600160a01b0316815260200190815260200160002054600014156132ee5783818151811061329c57634e487b7160e01b600052603260045260246000fd5b6020026020010151602001518383815181106132c857634e487b7160e01b600052603260045260246000fd5b6001600160a01b0390921660209283029190910190910152816132ea81614768565b9250505b83818151811061330e57634e487b7160e01b600052603260045260246000fd5b60200260200101516040015163ffffffff166009600086848151811061334457634e487b7160e01b600052603260045260246000fd5b6020026020010151602001516001600160a01b03166001600160a01b03168152602001908152602001600020600082825461337f9190614669565b9091555081905061338f81614768565b915050613125565b5060005b8181101561351a57620186a063ffffffff16600960008584815181106133d157634e487b7160e01b600052603260045260246000fd5b60200260200101516001600160a01b03166001600160a01b03168152602001908152602001600020541461343e5760405162461bcd60e51b81526020600482015260146024820152731a5b9d985b1a59081d1bdad95b881dd95a59da1d60621b6044820152606401610447565b600160036000898152602001908152602001600020600301600085848151811061347857634e487b7160e01b600052603260045260246000fd5b60200260200101516001600160a01b03166001600160a01b0316815260200190815260200160002060006101000a81548160ff021916908315150217905550600960008483815181106134db57634e487b7160e01b600052603260045260246000fd5b60200260200101516001600160a01b03166001600160a01b0316815260200190815260200160002060009055808061351290614768565b91505061339b565b506000868152600360209081526040909120865161353a928801906138ea565b5060005b84518110156135e4576003600088815260200190815260200160002060010185828151811061357d57634e487b7160e01b600052603260045260246000fd5b6020908102919091018101518254600181018455600093845292829020815193018054919092015163ffffffff16600160a01b026001600160c01b03199091166001600160a01b0390931692909217919091179055806135dc81614768565b91505061353e565b5060005b835181101561369f576003600088815260200190815260200160002060020184828151811061362757634e487b7160e01b600052603260045260246000fd5b60209081029190910181015182546001818101855560009485529383902082516002909202019081559181015191909201805460409093015163ffffffff16600160a01b026001600160c01b03199093166001600160a01b03909216919091179190911790558061369781614768565b9150506135e8565b50505050505050565b600054610100900460ff166136c35760005460ff16156136c7565b303b155b6136e35760405162461bcd60e51b8152600401610447906144c8565b600054610100900460ff16158015613705576000805461ffff19166101011790555b6000805462010000600160b01b031916620100006001600160a01b038516021790558015611ac7576000805461ff00191690555050565b60405180606001604052806060815260200160608152602001606081525090565b508054600082556002029060005260206000209081019061377e919061395e565b50565b82805461378d9061472d565b90600052602060002090601f0160209004810192826137af57600085556137f5565b82601f106137c85782800160ff198235161785556137f5565b828001600101855582156137f5579182015b828111156137f55782358255916020019190600101906137da565b50613801929150613984565b5090565b5080546138119061472d565b6000825580601f10613821575050565b601f01602090049060005260206000209081019061377e9190613984565b508054600082559060005260206000209081019061377e9190613999565b508054600082556002029060005260206000209081019061377e91906139b8565b8280548282559060005260206000209081019282156137f5579160200282015b828111156137f557825182546001600160a01b0319166001600160a01b0390911617825560209092019160019091019061389e565b604080518082019091526000808252602082015290565b8280546138f69061472d565b90600052602060002090601f01602090048101928261391857600085556137f5565b82601f1061393157805160ff19168380011785556137f5565b828001600101855582156137f5579182015b828111156137f5578251825591602001919060010190613943565b5b808211156138015780546001600160c01b03191681556000600182015560020161395f565b5b808211156138015760008155600101613985565b5b808211156138015780546001600160c01b031916815560010161399a565b5b8082111561380157600081556001810180546001600160c01b03191690556002016139b9565b80356139ea816147af565b919050565b60008083601f840112613a00578081fd5b5081356001600160401b03811115613a16578182fd5b6020830191508360208260051b8501011115613a3157600080fd5b9250929050565b60008083601f840112613a49578182fd5b5081356001600160401b03811115613a5f578182fd5b6020830191508360208260061b8501011115613a3157600080fd5b60008083601f840112613a8b578182fd5b5081356001600160401b03811115613aa1578182fd5b602083019150836020606083028501011115613a3157600080fd5b60008083601f840112613acd578182fd5b5081356001600160401b03811115613ae3578182fd5b602083019150836020828501011115613a3157600080fd5b803563ffffffff811681146139ea57600080fd5b600060208284031215613b20578081fd5b8135613b2b816147af565b9392505050565b600060208284031215613b43578081fd5b8151613b2b816147af565b60008060408385031215613b60578081fd5b8235613b6b816147af565b946020939093013593505050565b600080600060608486031215613b8d578081fd5b8335613b98816147af565b9250613ba660208501613afb565b91506040840135613bb6816147af565b809150509250925092565b60008060008060808587031215613bd6578081fd5b8435613be1816147af565b9350613bef60208601613afb565b92506040850135613bff816147af565b9396929550929360600135925050565b60008060208385031215613c21578182fd5b82356001600160401b03811115613c36578283fd5b613c42858286016139ef565b90969095509350505050565b60008060408385031215613c60578182fd5b82356001600160401b0380821115613c76578384fd5b818501915085601f830112613c89578384fd5b8135602082821115613c9d57613c9d614799565b8160051b9250613cae8184016145f8565b8281528181019085830185870184018b1015613cc8578889fd5b8896505b84871015613cf65780359550613ce1866147af565b85835260019690960195918301918301613ccc565b509650613d0690508782016139df565b9450505050509250929050565b60008060008060408587031215613d28578182fd5b84356001600160401b0380821115613d3e578384fd5b613d4a888389016139ef565b90965094506020870135915080821115613d62578384fd5b50613d6f878288016139ef565b95989497509550505050565b600060208284031215613d8c578081fd5b81518015158114613b2b578182fd5b60008060008060008060608789031215613db3578384fd5b86356001600160401b0380821115613dc9578586fd5b613dd58a838b01613abc565b90985096506020890135915080821115613ded578586fd5b613df98a838b01613a38565b90965094506040890135915080821115613e11578384fd5b50613e1e89828a01613a7a565b979a9699509497509295939492505050565b600060408284031215613e41578081fd5b604080519081016001600160401b0381118282101715613e6357613e63614799565b6040528235613e71816147af565b8152613e7f60208401613afb565b60208201529392505050565b600060608284031215613e9c578081fd5b604051606081016001600160401b0381118282101715613ebe57613ebe614799565b604052823581526020830135613ed3816147af565b6020820152613ee460408401613afb565b60408201529392505050565b600060208284031215613f01578081fd5b5035919050565b600060208284031215613f19578081fd5b5051919050565b60008060408385031215613f32578182fd5b823591506020830135613f44816147af565b809150509250929050565b600080600080600060608688031215613f66578283fd5b8535945060208601356001600160401b0380821115613f83578485fd5b613f8f89838a01613a38565b90965094506040880135915080821115613fa7578283fd5b50613fb488828901613a7a565b969995985093965092949392505050565b600080600060408486031215613fd9578081fd5b8335925060208401356001600160401b03811115613ff5578182fd5b61400186828701613a38565b9497909650939450505050565b600080600060408486031215614022578081fd5b8335925060208401356001600160401b0381111561403e578182fd5b61400186828701613abc565b60006020828403121561405b578081fd5b613b2b82613afb565b6000815180845260208085019450808401835b838110156140a757815180516001600160a01b031688528301518388015260409096019590820190600101614077565b509495945050505050565b81835260006020808501945082825b858110156140a75781356140d4816147af565b6001600160a01b0316875263ffffffff6140ef838501613afb565b168784015260409687019691909101906001016140c1565b6000815180845260208085019450808401835b838110156140a757815180516001600160a01b0316885283015163ffffffff16838801526040909601959082019060010161411a565b81835260006020808501945082825b858110156140a7578135875282820135614178816147af565b6001600160a01b031687840152604063ffffffff614197848301613afb565b1690880152606096870196919091019060010161415f565b6000815180845260208085019450808401835b838110156140a757815180518852838101516001600160a01b03168489015260409081015163ffffffff1690880152606090960195908201906001016141c2565b81835281816020850137506000828201602090810191909152601f909101601f19169091010190565b60008151606084528051806060860152825b8181101561425b576020818401810151608088840101520161423e565b8181111561426c5783608083880101525b50601f19601f8201168501915050602083015160808583030160208601526142976080830182614107565b915050604083015184820360408601526142b182826141af565b95945050505050565b6001600160a01b0391909116815260200190565b6040815260006142e26040830186886140b2565b82810360208401526142f5818587614150565b979650505050505050565b60608152600061431460608301888a6140b2565b8281036020840152614327818789614150565b9050828103604084015261433c818587614203565b9998505050505050505050565b6000604080830181845280865180835260608601915060608160051b87010192506020808901865b838110156143b057888603605f1901855281518051875283015183870188905261439d88880182614064565b9650509382019390820190600101614371565b5050868403818801525050506143c68186614064565b9695505050505050565b6000602080830181845280855180835260408601915060408160051b8701019250838701855b8281101561442457603f1988860301845261441285835161422c565b945092850192908501906001016143f6565b5092979650505050505050565b60208101600c831061445357634e487b7160e01b600052602160045260246000fd5b91905290565b602081526000613025602083018486614203565b6020808252601390820152721cdd1c985d1959de481b5d5cdd08195e1a5cdd606a1b604082015260600190565b602080825260149082015273696e746567726174696f6e73206d697373696e6760601b604082015260600190565b6020808252602e908201527f496e697469616c697a61626c653a20636f6e747261637420697320616c72656160408201526d191e481a5b9a5d1a585b1a5e995960921b606082015260800190565b6020808252600e908201526d746f6b656e73206d697373696e6760901b604082015260600190565b6020808252600d908201526c34b73b30b634b2103a37b5b2b760991b604082015260600190565b602080825260129082015271696e73756666696369656e742066756e647360701b604082015260600190565b60208082526034908201527f436f6e74726f6c6c65643a3a6f6e6c79436f6e74726f6c6c65723a2043616c6c60408201527332b91034b9903737ba1031b7b73a3937b63632b960611b606082015260800190565b602081526000613b2b602083018461422c565b604051601f8201601f191681016001600160401b038111828210171561462057614620614799565b604052919050565b600080821280156001600160ff1b038490038513161561464a5761464a614783565b600160ff1b839003841281161561466357614663614783565b50500190565b6000821982111561467c5761467c614783565b500190565b60008261469c57634e487b7160e01b81526012600452602481fd5b500490565b60008160001904831182151516156146bb576146bb614783565b500290565b60008083128015600160ff1b8501841216156146de576146de614783565b6001600160ff1b03840183138116156146f9576146f9614783565b50500390565b60008282101561471157614711614783565b500390565b60008161472557614725614783565b506000190190565b600181811c9082168061474157607f821691505b6020821081141561476257634e487b7160e01b600052602260045260246000fd5b50919050565b600060001982141561477c5761477c614783565b5060010190565b634e487b7160e01b600052601160045260246000fd5b634e487b7160e01b600052604160045260246000fd5b6001600160a01b038116811461377e57600080fdfea2646970667358221220de09c40ccddf3687f635923cd1ad5e5030ce2bfb4c50ecfb106f08b97d71b22664736f6c63430008040033",
  "devdoc": {
    "kind": "dev",
    "methods": {
      "addStrategy(string,(address,uint32)[],(uint256,address,uint32)[])": {
        "params": {
          "integrations": "the integrations and weights that form the strategy",
          "name": "the name of the new strategy"
        }
      },
      "clearClosablePositions(address[])": {
        "params": {
          "tokens": "The list of tokens to clear"
        }
      },
      "closePositionsForWithdrawal(address,uint256)": {
        "params": {
          "amount": "the amount to source",
          "token": "the token to source"
        }
      },
      "decreaseDeployAmountChange(address,uint32,address,uint256)": {
        "params": {
          "amount": "the amount to reduce the vector by",
          "integration": "the integration that was changed",
          "poolID": "the pool within the integration that handled the tokens",
          "token": "the token to decrease for"
        }
      },
      "decreaseStrategy(uint256,(address,uint256)[])": {
        "params": {
          "id": "the strategy to withdraw assets from",
          "tokens": "details of the tokens being deposited"
        }
      },
      "deleteStrategy(uint256)": {
        "details": "This can only be called successfully if the strategy being deleted doesn't have any assets invested in it.To delete a strategy with funds deployed in it, first update the strategy so that the existing tokens are no longer available in the strategy, then delete the strategy. This will unwind the users positions, and they will be able to withdraw their funds.",
        "params": {
          "id": "the strategy to delete"
        }
      },
      "getDeployAmount(address,uint32,address)": {
        "params": {
          "integration": "the integration to deploy to",
          "poolID": "the pool within the integration that should receive the tokens",
          "token": "the token to be deployed"
        },
        "returns": {
          "_0": "the pending deploy amount"
        }
      },
      "getMultipleStrategies(uint256[])": {
        "params": {
          "ids": "The ids of the strategies to return."
        }
      },
      "getStrategy(uint256)": {
        "params": {
          "id": "the strategy to return"
        }
      },
      "getStrategyBalances(uint256[],address[])": {
        "params": {
          "_strategies": "The strategies to retrieve balances for",
          "_tokens": "The tokens to retrieve"
        }
      },
      "getStrategyTokenBalance(uint256,address)": {
        "params": {
          "id": "the strategy id to check",
          "token": "The token to retrieve the balance for"
        },
        "returns": {
          "amount": " the amount of token that is invested in the strategy"
        }
      },
      "getStrategyTokenLength(uint256)": {
        "params": {
          "strategy": "the strategy to look up"
        },
        "returns": {
          "_0": "the length"
        }
      },
      "getTokenTotalBalance(address)": {
        "params": {
          "token": "the token to fetch the balance for"
        },
        "returns": {
          "amount": " the amount of the token currently invested"
        }
      },
      "increaseStrategy(uint256,(address,uint256)[])": {
        "params": {
          "id": "the strategy to deposit into",
          "tokens": "the tokens to deposit"
        }
      },
      "increaseTokenBalance(uint256,(address,uint256)[])": {
        "params": {
          "id": "The strategy id",
          "tokens": "the tokens and amounts "
        }
      },
      "updateName(uint256,string)": {
        "params": {
          "name": "the new name"
        }
      },
      "updateStrategy(uint256,(address,uint32)[],(uint256,address,uint32)[])": {
        "params": {
          "id": "the strategy to update",
          "integrations": "the new integrations that will be used",
          "tokens": "the tokens accepted for new entries"
        }
      }
    },
    "version": 1
  },
  "userdoc": {
    "kind": "user",
    "methods": {
      "addStrategy(string,(address,uint32)[],(uint256,address,uint32)[])": {
        "notice": "Adds a new strategy to the list of available strategies"
      },
      "clearClosablePositions(address[])": {
        "notice": "Clears the list of positions that can be closed to supply a token"
      },
      "closePositionsForWithdrawal(address,uint256)": {
        "notice": "Closes enough positions to provide a requested amount of a token"
      },
      "decreaseDeployAmountChange(address,uint32,address,uint256)": {
        "notice": "Decreases the deployable amount after a deployment/withdrawal"
      },
      "decreaseStrategy(uint256,(address,uint256)[])": {
        "notice": "Decreases the amount of a set of tokens invested in a strategy"
      },
      "deleteStrategy(uint256)": {
        "notice": "Deletes a strategy"
      },
      "getDeployAmount(address,uint32,address)": {
        "notice": "Returns the current amount awaiting deployment"
      },
      "getMultipleStrategies(uint256[])": {
        "notice": "Returns 1 or more strategies in a single call."
      },
      "getStrategy(uint256)": {
        "notice": "Getter function to return the nested arrays as well as the name"
      },
      "getStrategyBalances(uint256[],address[])": {
        "notice": "Returns balances per strategy, and total invested balances"
      },
      "getStrategyTokenBalance(uint256,address)": {
        "notice": "Returns the amount of a given token currently invested in a strategy"
      },
      "getStrategyTokenLength(uint256)": {
        "notice": "returns the length of the tokens array in a strategy"
      },
      "getTokenTotalBalance(address)": {
        "notice": "Returns the total amount of a token invested across all strategies"
      },
      "idCounter()": {
        "notice": "autogenerated getter definition"
      },
      "increaseStrategy(uint256,(address,uint256)[])": {
        "notice": "Increases the amount of a set of tokens in a strategy"
      },
      "increaseTokenBalance(uint256,(address,uint256)[])": {
        "notice": "Increases strategy balances without increasing the deploy amount"
      },
      "updateName(uint256,string)": {
        "notice": "Updates the strategy name"
      },
      "updateStrategy(uint256,(address,uint32)[],(uint256,address,uint32)[])": {
        "notice": "Updates a strategy's integrations and tokens"
      }
    },
    "version": 1
  },
  "storageLayout": {
    "storage": [
      {
        "astId": 723,
        "contract": "contracts/core/StrategyMap.sol:StrategyMap",
        "label": "_initialized",
        "offset": 0,
        "slot": "0",
        "type": "t_bool"
      },
      {
        "astId": 726,
        "contract": "contracts/core/StrategyMap.sol:StrategyMap",
        "label": "_initializing",
        "offset": 1,
        "slot": "0",
        "type": "t_bool"
      },
      {
        "astId": 9534,
        "contract": "contracts/core/StrategyMap.sol:StrategyMap",
        "label": "moduleMap",
        "offset": 2,
        "slot": "0",
        "type": "t_contract(IModuleMap)19218"
      },
      {
        "astId": 4667,
        "contract": "contracts/core/StrategyMap.sol:StrategyMap",
        "label": "_controllers",
        "offset": 0,
        "slot": "1",
        "type": "t_mapping(t_address,t_bool)"
      },
      {
        "astId": 4670,
        "contract": "contracts/core/StrategyMap.sol:StrategyMap",
        "label": "controllers",
        "offset": 0,
        "slot": "2",
        "type": "t_array(t_address)dyn_storage"
      },
      {
        "astId": 9786,
        "contract": "contracts/core/StrategyMap.sol:StrategyMap",
        "label": "strategies",
        "offset": 0,
        "slot": "3",
        "type": "t_mapping(t_uint256,t_struct(Strategy)19430_storage)"
      },
      {
        "astId": 9790,
        "contract": "contracts/core/StrategyMap.sol:StrategyMap",
        "label": "tokenBalances",
        "offset": 0,
        "slot": "4",
        "type": "t_mapping(t_address,t_uint256)"
      },
      {
        "astId": 9796,
        "contract": "contracts/core/StrategyMap.sol:StrategyMap",
        "label": "strategyTokenBalances",
        "offset": 0,
        "slot": "5",
        "type": "t_mapping(t_uint256,t_mapping(t_address,t_uint256))"
      },
      {
        "astId": 9804,
        "contract": "contracts/core/StrategyMap.sol:StrategyMap",
        "label": "deployAmount",
        "offset": 0,
        "slot": "6",
        "type": "t_mapping(t_address,t_mapping(t_uint32,t_mapping(t_address,t_int256)))"
      },
      {
        "astId": 9810,
        "contract": "contracts/core/StrategyMap.sol:StrategyMap",
        "label": "_closablePositions",
        "offset": 0,
        "slot": "7",
        "type": "t_mapping(t_address,t_array(t_struct(ClosablePosition)19460_storage)dyn_storage)"
      },
      {
        "astId": 9813,
        "contract": "contracts/core/StrategyMap.sol:StrategyMap",
        "label": "idCounter",
        "offset": 0,
        "slot": "8",
        "type": "t_uint256"
      },
      {
        "astId": 9817,
        "contract": "contracts/core/StrategyMap.sol:StrategyMap",
        "label": "tokenWeights",
        "offset": 0,
        "slot": "9",
        "type": "t_mapping(t_address,t_uint256)"
      }
    ],
    "types": {
      "t_address": {
        "encoding": "inplace",
        "label": "address",
        "numberOfBytes": "20"
      },
      "t_array(t_address)dyn_storage": {
        "base": "t_address",
        "encoding": "dynamic_array",
        "label": "address[]",
        "numberOfBytes": "32"
      },
      "t_array(t_struct(ClosablePosition)19460_storage)dyn_storage": {
        "base": "t_struct(ClosablePosition)19460_storage",
        "encoding": "dynamic_array",
        "label": "struct IStrategyMap.ClosablePosition[]",
        "numberOfBytes": "32"
      },
      "t_array(t_struct(Integration)19399_storage)dyn_storage": {
        "base": "t_struct(Integration)19399_storage",
        "encoding": "dynamic_array",
        "label": "struct IStrategyMap.Integration[]",
        "numberOfBytes": "32"
      },
      "t_array(t_struct(Token)19406_storage)dyn_storage": {
        "base": "t_struct(Token)19406_storage",
        "encoding": "dynamic_array",
        "label": "struct IStrategyMap.Token[]",
        "numberOfBytes": "32"
      },
      "t_bool": {
        "encoding": "inplace",
        "label": "bool",
        "numberOfBytes": "1"
      },
      "t_contract(IModuleMap)19218": {
        "encoding": "inplace",
        "label": "contract IModuleMap",
        "numberOfBytes": "20"
      },
      "t_int256": {
        "encoding": "inplace",
        "label": "int256",
        "numberOfBytes": "32"
      },
      "t_mapping(t_address,t_array(t_struct(ClosablePosition)19460_storage)dyn_storage)": {
        "encoding": "mapping",
        "key": "t_address",
        "label": "mapping(address => struct IStrategyMap.ClosablePosition[])",
        "numberOfBytes": "32",
        "value": "t_array(t_struct(ClosablePosition)19460_storage)dyn_storage"
      },
      "t_mapping(t_address,t_bool)": {
        "encoding": "mapping",
        "key": "t_address",
        "label": "mapping(address => bool)",
        "numberOfBytes": "32",
        "value": "t_bool"
      },
      "t_mapping(t_address,t_int256)": {
        "encoding": "mapping",
        "key": "t_address",
        "label": "mapping(address => int256)",
        "numberOfBytes": "32",
        "value": "t_int256"
      },
      "t_mapping(t_address,t_mapping(t_uint32,t_mapping(t_address,t_int256)))": {
        "encoding": "mapping",
        "key": "t_address",
        "label": "mapping(address => mapping(uint32 => mapping(address => int256)))",
        "numberOfBytes": "32",
        "value": "t_mapping(t_uint32,t_mapping(t_address,t_int256))"
      },
      "t_mapping(t_address,t_uint256)": {
        "encoding": "mapping",
        "key": "t_address",
        "label": "mapping(address => uint256)",
        "numberOfBytes": "32",
        "value": "t_uint256"
      },
      "t_mapping(t_uint256,t_mapping(t_address,t_uint256))": {
        "encoding": "mapping",
        "key": "t_uint256",
        "label": "mapping(uint256 => mapping(address => uint256))",
        "numberOfBytes": "32",
        "value": "t_mapping(t_address,t_uint256)"
      },
      "t_mapping(t_uint256,t_struct(Strategy)19430_storage)": {
        "encoding": "mapping",
        "key": "t_uint256",
        "label": "mapping(uint256 => struct IStrategyMap.Strategy)",
        "numberOfBytes": "32",
        "value": "t_struct(Strategy)19430_storage"
      },
      "t_mapping(t_uint32,t_mapping(t_address,t_int256))": {
        "encoding": "mapping",
        "key": "t_uint32",
        "label": "mapping(uint32 => mapping(address => int256))",
        "numberOfBytes": "32",
        "value": "t_mapping(t_address,t_int256)"
      },
      "t_string_storage": {
        "encoding": "bytes",
        "label": "string",
        "numberOfBytes": "32"
      },
      "t_struct(ClosablePosition)19460_storage": {
        "encoding": "inplace",
        "label": "struct IStrategyMap.ClosablePosition",
        "members": [
          {
            "astId": 19455,
            "contract": "contracts/core/StrategyMap.sol:StrategyMap",
            "label": "integration",
            "offset": 0,
            "slot": "0",
            "type": "t_address"
          },
          {
            "astId": 19457,
            "contract": "contracts/core/StrategyMap.sol:StrategyMap",
            "label": "ammPoolID",
            "offset": 20,
            "slot": "0",
            "type": "t_uint32"
          },
          {
            "astId": 19459,
            "contract": "contracts/core/StrategyMap.sol:StrategyMap",
            "label": "amount",
            "offset": 0,
            "slot": "1",
            "type": "t_uint256"
          }
        ],
        "numberOfBytes": "64"
      },
      "t_struct(Integration)19399_storage": {
        "encoding": "inplace",
        "label": "struct IStrategyMap.Integration",
        "members": [
          {
            "astId": 19396,
            "contract": "contracts/core/StrategyMap.sol:StrategyMap",
            "label": "integration",
            "offset": 0,
            "slot": "0",
            "type": "t_address"
          },
          {
            "astId": 19398,
            "contract": "contracts/core/StrategyMap.sol:StrategyMap",
            "label": "ammPoolID",
            "offset": 20,
            "slot": "0",
            "type": "t_uint32"
          }
        ],
        "numberOfBytes": "32"
      },
      "t_struct(Strategy)19430_storage": {
        "encoding": "inplace",
        "label": "struct IStrategyMap.Strategy",
        "members": [
          {
            "astId": 19417,
            "contract": "contracts/core/StrategyMap.sol:StrategyMap",
            "label": "name",
            "offset": 0,
            "slot": "0",
            "type": "t_string_storage"
          },
          {
            "astId": 19421,
            "contract": "contracts/core/StrategyMap.sol:StrategyMap",
            "label": "integrations",
            "offset": 0,
            "slot": "1",
            "type": "t_array(t_struct(Integration)19399_storage)dyn_storage"
          },
          {
            "astId": 19425,
            "contract": "contracts/core/StrategyMap.sol:StrategyMap",
            "label": "tokens",
            "offset": 0,
            "slot": "2",
            "type": "t_array(t_struct(Token)19406_storage)dyn_storage"
          },
          {
            "astId": 19429,
            "contract": "contracts/core/StrategyMap.sol:StrategyMap",
            "label": "availableTokens",
            "offset": 0,
            "slot": "3",
            "type": "t_mapping(t_address,t_bool)"
          }
        ],
        "numberOfBytes": "128"
      },
      "t_struct(Token)19406_storage": {
        "encoding": "inplace",
        "label": "struct IStrategyMap.Token",
        "members": [
          {
            "astId": 19401,
            "contract": "contracts/core/StrategyMap.sol:StrategyMap",
            "label": "integrationPairIdx",
            "offset": 0,
            "slot": "0",
            "type": "t_uint256"
          },
          {
            "astId": 19403,
            "contract": "contracts/core/StrategyMap.sol:StrategyMap",
            "label": "token",
            "offset": 0,
            "slot": "1",
            "type": "t_address"
          },
          {
            "astId": 19405,
            "contract": "contracts/core/StrategyMap.sol:StrategyMap",
            "label": "weight",
            "offset": 20,
            "slot": "1",
            "type": "t_uint32"
          }
        ],
        "numberOfBytes": "64"
      },
      "t_uint256": {
        "encoding": "inplace",
        "label": "uint256",
        "numberOfBytes": "32"
      },
      "t_uint32": {
        "encoding": "inplace",
        "label": "uint32",
        "numberOfBytes": "4"
      }
    }
  }
}