{
  "address": "0x09B24Bb7d7b49F7B32BDaa5E7e193e604B7A65fd",
  "abi": [
    {
      "anonymous": false,
      "inputs": [
        {
          "indexed": false,
          "internalType": "address",
          "name": "tokenIn",
          "type": "address"
        },
        {
          "indexed": false,
          "internalType": "address",
          "name": "tokenOut",
          "type": "address"
        },
        {
          "indexed": false,
          "internalType": "uint256",
          "name": "amountIn",
          "type": "uint256"
        },
        {
          "indexed": false,
          "internalType": "uint256",
          "name": "amountOutMin",
          "type": "uint256"
        },
        {
          "indexed": false,
          "internalType": "uint256",
          "name": "amountOut",
          "type": "uint256"
        }
      ],
      "name": "ExecutedSwapExactInput",
      "type": "event"
    },
    {
      "anonymous": false,
      "inputs": [
        {
          "indexed": false,
          "internalType": "address",
          "name": "tokenIn",
          "type": "address"
        },
        {
          "indexed": false,
          "internalType": "address",
          "name": "tokenOut",
          "type": "address"
        },
        {
          "indexed": false,
          "internalType": "uint256",
          "name": "amountIn",
          "type": "uint256"
        },
        {
          "indexed": false,
          "internalType": "uint256",
          "name": "amountOutMin",
          "type": "uint256"
        }
      ],
      "name": "FailedSwapExactInput",
      "type": "event"
    },
    {
      "anonymous": false,
      "inputs": [
        {
          "indexed": false,
          "internalType": "uint24",
          "name": "slippageNumerator",
          "type": "uint24"
        }
      ],
      "name": "SushiSwapSlippageNumeratorUpdated",
      "type": "event"
    },
    {
      "inputs": [
        {
          "internalType": "address[]",
          "name": "controllers_",
          "type": "address[]"
        },
        {
          "internalType": "address",
          "name": "moduleMap_",
          "type": "address"
        }
      ],
      "name": "__Controlled_init",
      "outputs": [],
      "stateMutability": "nonpayable",
      "type": "function"
    },
    {
      "inputs": [
        {
          "internalType": "address",
          "name": "controller",
          "type": "address"
        }
      ],
      "name": "addController",
      "outputs": [],
      "stateMutability": "nonpayable",
      "type": "function"
    },
    {
      "inputs": [],
      "name": "biosBuyBack",
      "outputs": [
        {
          "internalType": "bool",
          "name": "",
          "type": "bool"
        }
      ],
      "stateMutability": "nonpayable",
      "type": "function"
    },
    {
      "inputs": [
        {
          "internalType": "uint256",
          "name": "",
          "type": "uint256"
        }
      ],
      "name": "controllers",
      "outputs": [
        {
          "internalType": "address",
          "name": "",
          "type": "address"
        }
      ],
      "stateMutability": "view",
      "type": "function"
    },
    {
      "inputs": [
        {
          "internalType": "address",
          "name": "tokenIn",
          "type": "address"
        },
        {
          "internalType": "address",
          "name": "tokenOut",
          "type": "address"
        },
        {
          "internalType": "uint256",
          "name": "amountIn",
          "type": "uint256"
        }
      ],
      "name": "getAmountOut",
      "outputs": [
        {
          "internalType": "uint256",
          "name": "amountOut",
          "type": "uint256"
        }
      ],
      "stateMutability": "view",
      "type": "function"
    },
    {
      "inputs": [
        {
          "internalType": "address",
          "name": "tokenIn",
          "type": "address"
        },
        {
          "internalType": "address",
          "name": "tokenOut",
          "type": "address"
        },
        {
          "internalType": "uint256",
          "name": "amountIn",
          "type": "uint256"
        }
      ],
      "name": "getAmountOutMinimum",
      "outputs": [
        {
          "internalType": "uint256",
          "name": "amountOutMinimum",
          "type": "uint256"
        }
      ],
      "stateMutability": "view",
      "type": "function"
    },
    {
      "inputs": [],
      "name": "getFactoryAddress",
      "outputs": [
        {
          "internalType": "address",
          "name": "",
          "type": "address"
        }
      ],
      "stateMutability": "view",
      "type": "function"
    },
    {
      "inputs": [],
      "name": "getSlippageDenominator",
      "outputs": [
        {
          "internalType": "uint24",
          "name": "",
          "type": "uint24"
        }
      ],
      "stateMutability": "pure",
      "type": "function"
    },
    {
      "inputs": [],
      "name": "getSlippageNumerator",
      "outputs": [
        {
          "internalType": "uint24",
          "name": "",
          "type": "uint24"
        }
      ],
      "stateMutability": "view",
      "type": "function"
    },
    {
      "inputs": [
        {
          "internalType": "address[]",
          "name": "controllers_",
          "type": "address[]"
        },
        {
          "internalType": "address",
          "name": "moduleMap_",
          "type": "address"
        },
        {
          "internalType": "address",
          "name": "factoryAddress_",
          "type": "address"
        },
        {
          "internalType": "address",
          "name": "swapRouterAddress_",
          "type": "address"
        },
        {
          "internalType": "uint24",
          "name": "slippageNumerator_",
          "type": "uint24"
        }
      ],
      "name": "initialize",
      "outputs": [],
      "stateMutability": "nonpayable",
      "type": "function"
    },
    {
      "inputs": [
        {
          "internalType": "address",
          "name": "_tokenA",
          "type": "address"
        },
        {
          "internalType": "address",
          "name": "_tokenB",
          "type": "address"
        }
      ],
      "name": "isPoolExist",
      "outputs": [
        {
          "internalType": "bool",
          "name": "",
          "type": "bool"
        }
      ],
      "stateMutability": "view",
      "type": "function"
    },
    {
      "inputs": [],
      "name": "moduleMap",
      "outputs": [
        {
          "internalType": "contract IModuleMap",
          "name": "",
          "type": "address"
        }
      ],
      "stateMutability": "view",
      "type": "function"
    },
    {
      "inputs": [
        {
          "internalType": "address",
          "name": "tokenIn",
          "type": "address"
        },
        {
          "internalType": "address",
          "name": "tokenOut",
          "type": "address"
        },
        {
          "internalType": "address",
          "name": "recipient",
          "type": "address"
        },
        {
          "internalType": "uint256",
          "name": "amountIn",
          "type": "uint256"
        },
        {
          "internalType": "uint256",
          "name": "amountOutMin",
          "type": "uint256"
        }
      ],
      "name": "swapExactInput",
      "outputs": [
        {
          "internalType": "bool",
          "name": "",
          "type": "bool"
        }
      ],
      "stateMutability": "nonpayable",
      "type": "function"
    },
    {
      "inputs": [
        {
          "internalType": "uint24",
          "name": "slippageNumerator_",
          "type": "uint24"
        }
      ],
      "name": "updateSlippageNumerator",
      "outputs": [],
      "stateMutability": "nonpayable",
      "type": "function"
    }
  ],
  "transactionHash": "0x51cca81d545e23a5da12ce0866206e09c1a049effd14611c51f2751621969a49",
  "args": [],
  "solcInputHash": "3c329c0643231770f636e8187b4b428d",
  "bytecode": "0x608060405234801561001057600080fd5b506121a9806100206000396000f3fe608060405234801561001057600080fd5b50600436106100ba5760003560e01c80630f0a1c6f146100bf578063257b3185146100ee5780632ef318c11461010357806349470541146101165780634aa0665214610139578063841bdb9e1461015a5780638f769ec91461016d57806398c671ce14610175578063a0cae8f614610188578063a7fc7a07146101a5578063a9c2e36c146101b8578063bbb37017146101d0578063ccbfc16c146101d9578063e94b0dd2146101ec575b600080fd5b6000546100d8906201000090046001600160a01b031681565b6040516100e59190611e44565b60405180910390f35b6101016100fc366004611c5b565b6101ff565b005b610101610111366004611dde565b610388565b610129610124366004611b7d565b61066d565b60405190151581526020016100e5565b61014c610147366004611bd7565b610b2e565b6040519081526020016100e5565b610129610168366004611b45565b610c91565b610129610cc5565b610101610183366004611c17565b611001565b60035462ffffff165b60405162ffffff90911681526020016100e5565b6101016101b3366004611b0d565b611108565b600354630100000090046001600160a01b03166100d8565b620f4240610191565b61014c6101e7366004611bd7565b611345565b6100d86101fa366004611df8565b61138b565b600054610100900460ff1661021a5760005460ff161561021e565b303b155b6102435760405162461bcd60e51b815260040161023a90611ecd565b60405180910390fd5b600054610100900460ff16158015610265576000805461ffff19166101011790555b600354620f424062ffffff90911611156103185760405162461bcd60e51b815260206004820152606260248201527f5375736869537761705472616465723a3a696e697469616c697a653a20536c6960448201527f7070616765204e756d657261746f72206d757374206265206c6573732074686160648201527f6e206f7220657175616c20746f20736c6970706167652064656e6f6d696e617460848201526137b960f11b60a482015260c40161023a565b6103228686611001565b60038054600480546001600160a01b0319166001600160a01b03878116919091179091556001600160b81b031990911663010000009187169190910262ffffff19161762ffffff84161790558015610380576000805461ff00191690555b505050505050565b600080546040516337c61fc560e11b8152620100009091046001600160a01b031691636f8c3f8a916103bd9190600401611e72565b60206040518083038186803b1580156103d557600080fd5b505afa1580156103e9573d6000803e3d6000fd5b505050506040513d601f19601f8201168201806040525081019061040d9190611b29565b6001600160a01b031663f3ae2415336040518263ffffffff1660e01b81526004016104389190611e44565b60206040518083038186803b15801561045057600080fd5b505afa158015610464573d6000803e3d6000fd5b505050506040513d601f19601f820116820180604052508101906104889190611d70565b6104eb5760405162461bcd60e51b815260206004820152602e60248201527f436f6e74726f6c6c65643a3a6f6e6c794d616e616765723a2043616c6c65722060448201526d34b9903737ba1036b0b730b3b2b960911b606482015260840161023a565b60035462ffffff828116911614156105765760405162461bcd60e51b8152602060048201526054602482015260008051602061215483398151915260448201527f7261746f723a20536c697070616765206e756d657261746f72206d7573742062606482015273652073657420746f2061206e65772076616c756560601b608482015260a40161023a565b600354620f424062ffffff90911611156106215760405162461bcd60e51b815260206004820152606c602482015260008051602061215483398151915260448201527f7261746f723a20536c697070616765204e756d657261746f72206d757374206260648201527f65206c657373207468616e206f7220657175616c20746f20736c69707061676560848201526b103232b737b6b4b730ba37b960a11b60a482015260c40161023a565b6003805462ffffff191662ffffff83169081179091556040519081527f2946b3a1ef03d9a59c864dc0f1780b8ce4a27cdf227a341877e28742649efb909060200160405180910390a150565b3360009081526001602052604081205460ff1661069c5760405162461bcd60e51b815260040161023a90611f1b565b6040516370a0823160e01b815283906001600160a01b038816906370a08231906106ca903090600401611e44565b60206040518083038186803b1580156106e257600080fd5b505afa1580156106f6573d6000803e3d6000fd5b505050506040513d601f19601f8201168201806040525081019061071a9190611e10565b10156107995760405162461bcd60e51b815260206004820152604260248201527f5375736869537761705472616465723a3a737761704578616374496e7075743a60448201527f2042616c616e6365206973206c657373207468616e20747261646520616d6f756064820152611b9d60f21b608482015260a40161023a565b60408051600280825260608201835260009260208301908036833701905050905086816000815181106107dc57634e487b7160e01b600052603260045260246000fd5b60200260200101906001600160a01b031690816001600160a01b031681525050858160018151811061081e57634e487b7160e01b600052603260045260246000fd5b6001600160a01b03928316602091820292909201015260048054604051636eb1769f60e11b815242938b81169363dd62ed3e93610862933093919091169101611e58565b60206040518083038186803b15801561087a57600080fd5b505afa15801561088e573d6000803e3d6000fd5b505050506040513d601f19601f820116820180604052508101906108b29190611e10565b6108d2576004546108d2906001600160a01b038a811691166000196113b5565b6040516370a0823160e01b81526000906001600160a01b038916906370a0823190610901908a90600401611e44565b60206040518083038186803b15801561091957600080fd5b505afa15801561092d573d6000803e3d6000fd5b505050506040513d601f19601f820116820180604052508101906109519190611e10565b600480546040516338ed173960e01b81529293506001600160a01b0316916338ed173991610989918a918a9189918e918a9101611f6f565b600060405180830381600087803b1580156109a357600080fd5b505af19250505080156109d857506040513d6000823e601f3d908101601f191682016040526109d59190810190611cde565b60015b610a3a57604080516001600160a01b03808c1682528a166020820152908101879052606081018690527fc6025cc9171961a5e71ebf48ad90ba0ec8fe882c4f0c422b084f1b82bbe767e29060800160405180910390a160009350505050610b25565b507fbaaf81d8ac8c3accbbfd1f5837a8785ccae1884dcd7f2d30ca408cc7b926af9989898888858d6001600160a01b03166370a082318e6040518263ffffffff1660e01b8152600401610a8d9190611e44565b60206040518083038186803b158015610aa557600080fd5b505afa158015610ab9573d6000803e3d6000fd5b505050506040513d601f19601f82011682018060405250810190610add9190611e10565b610ae791906120ad565b604080516001600160a01b039687168152959094166020860152928401919091526060830152608082015260a00160405180910390a1600193505050505b95945050505050565b6000808211610baf5760405162461bcd60e51b815260206004820152604160248201527f5375736869537761705472616465723a3a676574416d6f756e744f75743a206160448201527f6d6f756e74496e206d7573742062652067726561746572207468616e207a65726064820152606f60f81b608482015260a40161023a565b600080610bbc86866114fa565b91509150600082118015610bd05750600081115b610c415760405162461bcd60e51b815260206004820152603c60248201527f5375736869537761705472616465723a3a676574416d6f756e744f75743a204e60448201527b6f206c697175696469747920696e20706f6f6c20726573657276657360201b606482015260840161023a565b6000610c4f856103e561206a565b90506000610c5d838361206a565b9050600082610c6e866103e861206a565b610c789190612032565b9050610c84818361204a565b9998505050505050505050565b6000806000610ca085856115d1565b90925090506000610cb183836116ea565b6001600160a01b0316141595945050505050565b3360009081526001602052604081205460ff16610cf45760405162461bcd60e51b815260040161023a90611f1b565b600080546040516337c61fc560e11b8152620100009091046001600160a01b031690636f8c3f8a90610d2b90600390600401611e72565b60206040518083038186803b158015610d4357600080fd5b505afa158015610d57573d6000803e3d6000fd5b505050506040513d601f19601f82011682018060405250810190610d7b9190611b29565b90506000816001600160a01b0316638b9c94896040518163ffffffff1660e01b815260040160206040518083038186803b158015610db857600080fd5b505afa158015610dcc573d6000803e3d6000fd5b505050506040513d601f19601f82011682018060405250810190610df09190611b29565b90506000826001600160a01b03166344fc9b566040518163ffffffff1660e01b815260040160206040518083038186803b158015610e2d57600080fd5b505afa158015610e41573d6000803e3d6000fd5b505050506040513d601f19601f82011682018060405250810190610e659190611b29565b90506000826001600160a01b03166370a08231306040518263ffffffff1660e01b8152600401610e959190611e44565b60206040518083038186803b158015610ead57600080fd5b505afa158015610ec1573d6000803e3d6000fd5b505050506040513d601f19601f82011682018060405250810190610ee59190611e10565b90506000610ef4848484611345565b9050610ff784866001600160a01b03166344fc9b566040518163ffffffff1660e01b815260040160206040518083038186803b158015610f3357600080fd5b505afa158015610f47573d6000803e3d6000fd5b505050506040513d601f19601f82011682018060405250810190610f6b9190611b29565b600080546040516337c61fc560e11b8152620100009091046001600160a01b031691636f8c3f8a91610fa09190600401611e72565b60206040518083038186803b158015610fb857600080fd5b505afa158015610fcc573d6000803e3d6000fd5b505050506040513d601f19601f82011682018060405250810190610ff09190611b29565b858561066d565b9550505050505090565b600054610100900460ff1661101c5760005460ff1615611020565b303b155b61103c5760405162461bcd60e51b815260040161023a90611ecd565b600054610100900460ff1615801561105e576000805461ffff19166101011790555b60005b83518110156110d357600180600086848151811061108f57634e487b7160e01b600052603260045260246000fd5b6020908102919091018101516001600160a01b03168252810191909152604001600020805460ff1916911515919091179055806110cb816120f4565b915050611061565b5082516110e79060029060208601906119ec565b506110f18261177b565b8015611103576000805461ff00191690555b505050565b600080546040516337c61fc560e11b8152620100009091046001600160a01b031691636f8c3f8a9161113d9190600401611e72565b60206040518083038186803b15801561115557600080fd5b505afa158015611169573d6000803e3d6000fd5b505050506040513d601f19601f8201168201806040525081019061118d9190611b29565b6001600160a01b0316632f54bf6e336040518263ffffffff1660e01b81526004016111b89190611e44565b60206040518083038186803b1580156111d057600080fd5b505afa1580156111e4573d6000803e3d6000fd5b505050506040513d601f19601f820116820180604052508101906112089190611d70565b6112675760405162461bcd60e51b815260206004820152602a60248201527f436f6e74726f6c6c65643a3a6f6e6c794f776e65723a2043616c6c6572206973604482015269103737ba1037bbb732b960b11b606482015260840161023a565b6001600160a01b03811660009081526001602081905260408220805460ff19169091179055805b6002548110156112ef57600281815481106112b957634e487b7160e01b600052603260045260246000fd5b6000918252602090912001546001600160a01b03848116911614156112dd57600191505b806112e7816120f4565b91505061128e565b508061134157600280546001810182556000919091527f405787fa12a823e0f2b7631cc41b3ba8828b3321ca811111fa75cd3aa3bb5ace0180546001600160a01b0319166001600160a01b0384161790555b5050565b600354600090620f42409061135f9062ffffff1682612089565b62ffffff1661136f868686610b2e565b611379919061206a565b611383919061204a565b949350505050565b6002818154811061139b57600080fd5b6000918252602090912001546001600160a01b0316905081565b80158061143d5750604051636eb1769f60e11b81526001600160a01b0384169063dd62ed3e906113eb9030908690600401611e58565b60206040518083038186803b15801561140357600080fd5b505afa158015611417573d6000803e3d6000fd5b505050506040513d601f19601f8201168201806040525081019061143b9190611e10565b155b6114a85760405162461bcd60e51b815260206004820152603660248201527f5361666545524332303a20617070726f76652066726f6d206e6f6e2d7a65726f60448201527520746f206e6f6e2d7a65726f20616c6c6f77616e636560501b606482015260840161023a565b604080516001600160a01b038416602482015260448082018490528251808303909101815260649091019091526020810180516001600160e01b031663095ea7b360e01b17905261110390849061180f565b600080600061150985856115d1565b50905060008061151987876116ea565b6001600160a01b0316630902f1ac6040518163ffffffff1660e01b815260040160606040518083038186803b15801561155157600080fd5b505afa158015611565573d6000803e3d6000fd5b505050506040513d601f19601f820116820180604052508101906115899190611d90565b506001600160701b031691506001600160701b03169150826001600160a01b0316876001600160a01b0316146115c05780826115c3565b81815b909890975095505050505050565b600080826001600160a01b0316846001600160a01b031614156116545760405162461bcd60e51b815260206004820152603560248201527f5375736869537761705472616465723a3a736f7274546f6b656e3a204964656e604482015274746963616c20746f6b656e2061646472657373657360581b606482015260840161023a565b826001600160a01b0316846001600160a01b031610611674578284611677565b83835b90925090506001600160a01b0382166116e35760405162461bcd60e51b815260206004820152602860248201527f5375736869537761705472616465723a3a736f7274546f6b656e3a205a65726f604482015267206164647265737360c01b606482015260840161023a565b9250929050565b60035460405163e6a4390560e01b8152600091630100000090046001600160a01b03169063e6a43905906117249086908690600401611e58565b60206040518083038186803b15801561173c57600080fd5b505afa158015611750573d6000803e3d6000fd5b505050506040513d601f19601f820116820180604052508101906117749190611b29565b9392505050565b600054610100900460ff166117965760005460ff161561179a565b303b155b6117b65760405162461bcd60e51b815260040161023a90611ecd565b600054610100900460ff161580156117d8576000805461ffff19166101011790555b6000805462010000600160b01b031916620100006001600160a01b038516021790558015611341576000805461ff00191690555050565b6000611864826040518060400160405280602081526020017f5361666545524332303a206c6f772d6c6576656c2063616c6c206661696c6564815250856001600160a01b03166118e19092919063ffffffff16565b80519091501561110357808060200190518101906118829190611d70565b6111035760405162461bcd60e51b815260206004820152602a60248201527f5361666545524332303a204552433230206f7065726174696f6e20646964206e6044820152691bdd081cdd58d8d9595960b21b606482015260840161023a565b6060611383848460008585843b61193a5760405162461bcd60e51b815260206004820152601d60248201527f416464726573733a2063616c6c20746f206e6f6e2d636f6e7472616374000000604482015260640161023a565b600080866001600160a01b031685876040516119569190611e28565b60006040518083038185875af1925050503d8060008114611993576040519150601f19603f3d011682016040523d82523d6000602084013e611998565b606091505b50915091506119a88282866119b3565b979650505050505050565b606083156119c2575081611774565b8251156119d25782518084602001fd5b8160405162461bcd60e51b815260040161023a9190611e9a565b828054828255906000526020600020908101928215611a41579160200282015b82811115611a4157825182546001600160a01b0319166001600160a01b03909116178255602090920191600190910190611a0c565b50611a4d929150611a51565b5090565b5b80821115611a4d5760008155600101611a52565b600082601f830112611a76578081fd5b81356020611a8b611a868361200f565b611fdf565b80838252828201915082860187848660051b8901011115611aaa578586fd5b855b85811015611ad1578135611abf8161213b565b84529284019290840190600101611aac565b5090979650505050505050565b80516001600160701b0381168114611af557600080fd5b919050565b803562ffffff81168114611af557600080fd5b600060208284031215611b1e578081fd5b81356117748161213b565b600060208284031215611b3a578081fd5b81516117748161213b565b60008060408385031215611b57578081fd5b8235611b628161213b565b91506020830135611b728161213b565b809150509250929050565b600080600080600060a08688031215611b94578081fd5b8535611b9f8161213b565b94506020860135611baf8161213b565b93506040860135611bbf8161213b565b94979396509394606081013594506080013592915050565b600080600060608486031215611beb578283fd5b8335611bf68161213b565b92506020840135611c068161213b565b929592945050506040919091013590565b60008060408385031215611c29578182fd5b82356001600160401b03811115611c3e578283fd5b611c4a85828601611a66565b9250506020830135611b728161213b565b600080600080600060a08688031215611c72578081fd5b85356001600160401b03811115611c87578182fd5b611c9388828901611a66565b9550506020860135611ca48161213b565b93506040860135611cb48161213b565b92506060860135611cc48161213b565b9150611cd260808701611afa565b90509295509295909350565b60006020808385031215611cf0578182fd5b82516001600160401b03811115611d05578283fd5b8301601f81018513611d15578283fd5b8051611d23611a868261200f565b80828252848201915084840188868560051b8701011115611d42578687fd5b8694505b83851015611d64578051835260019490940193918501918501611d46565b50979650505050505050565b600060208284031215611d81578081fd5b81518015158114611774578182fd5b600080600060608486031215611da4578283fd5b611dad84611ade565b9250611dbb60208501611ade565b9150604084015163ffffffff81168114611dd3578182fd5b809150509250925092565b600060208284031215611def578081fd5b61177482611afa565b600060208284031215611e09578081fd5b5035919050565b600060208284031215611e21578081fd5b5051919050565b60008251611e3a8184602087016120c4565b9190910192915050565b6001600160a01b0391909116815260200190565b6001600160a01b0392831681529116602082015260400190565b60208101600c8310611e9457634e487b7160e01b600052602160045260246000fd5b91905290565b6020815260008251806020840152611eb98160408501602087016120c4565b601f01601f19169190910160400192915050565b6020808252602e908201527f496e697469616c697a61626c653a20636f6e747261637420697320616c72656160408201526d191e481a5b9a5d1a585b1a5e995960921b606082015260800190565b60208082526034908201527f436f6e74726f6c6c65643a3a6f6e6c79436f6e74726f6c6c65723a2043616c6c60408201527332b91034b9903737ba1031b7b73a3937b63632b960611b606082015260800190565b600060a082018783526020878185015260a0604085015281875180845260c0860191508289019350845b81811015611fbe5784516001600160a01b031683529383019391830191600101611f99565b50506001600160a01b03969096166060850152505050608001529392505050565b604051601f8201601f191681016001600160401b038111828210171561200757612007612125565b604052919050565b60006001600160401b0382111561202857612028612125565b5060051b60200190565b600082198211156120455761204561210f565b500190565b60008261206557634e487b7160e01b81526012600452602481fd5b500490565b60008160001904831182151516156120845761208461210f565b500290565b600062ffffff838116908316818110156120a5576120a561210f565b039392505050565b6000828210156120bf576120bf61210f565b500390565b60005b838110156120df5781810151838201526020016120c7565b838111156120ee576000848401525b50505050565b60006000198214156121085761210861210f565b5060010190565b634e487b7160e01b600052601160045260246000fd5b634e487b7160e01b600052604160045260246000fd5b6001600160a01b038116811461215057600080fd5b5056fe5375736869537761705472616465723a3a736574536c6970706167654e756d65a2646970667358221220b1d37ecf95526485f3310e34e6d293a07454dcb7ddacf91c2b505439a97ae5b764736f6c63430008040033",
  "devdoc": {
    "kind": "dev",
    "methods": {
      "biosBuyBack()": {
        "returns": {
          "_0": "Bool indicating whether the trade succeeded"
        }
      },
      "getAmountOut(address,address,uint256)": {
        "params": {
          "amountIn": "The exact amount of the input to swap",
          "tokenIn": "The address of the input token",
          "tokenOut": "The address of the output token"
        },
        "returns": {
          "amountOut": "The estimated amount of tokenOut to receive"
        }
      },
      "getAmountOutMinimum(address,address,uint256)": {
        "params": {
          "amountIn": "The exact amount of the input to swap",
          "tokenIn": "The address of the input token",
          "tokenOut": "The address of the output token"
        },
        "returns": {
          "amountOutMinimum": "The minimum amount of tokenOut to receive, factoring in allowable slippage"
        }
      },
      "getFactoryAddress()": {
        "returns": {
          "_0": "SushiSwap Factory address"
        }
      },
      "getSlippageDenominator()": {
        "returns": {
          "_0": "The slippage denominator"
        }
      },
      "getSlippageNumerator()": {
        "returns": {
          "_0": "The slippage numerator"
        }
      },
      "initialize(address[],address,address,address,uint24)": {
        "params": {
          "controllers_": "The addresses of the controlling contracts",
          "factoryAddress_": "The address of the SushiSwap factory contract",
          "moduleMap_": "The address of the module map contract",
          "slippageNumerator_": "The number divided by the slippage denominator to get the slippage percentage",
          "swapRouterAddress_": "The address of the SushiSwap swap router contract"
        }
      },
      "isPoolExist(address,address)": {
        "params": {
          "_tokenA": "The address of the first  token from the token pair",
          "_tokenB": "The address of the second token from the token pair return true if pool exist else overwise"
        }
      },
      "swapExactInput(address,address,address,uint256,uint256)": {
        "params": {
          "amountIn": "The exact amount of the input to swap",
          "amountOutMin": "The minimum amount of tokenOut to receive from the swap",
          "recipient": "The address of the token out recipient",
          "tokenIn": "The address of the input token",
          "tokenOut": "The address of the output token"
        },
        "returns": {
          "_0": "bool Indicates whether the swap succeeded"
        }
      },
      "updateSlippageNumerator(uint24)": {
        "params": {
          "slippageNumerator_": "The number divided by the slippage denominator to get the slippage percentage"
        }
      }
    },
    "version": 1
  },
  "userdoc": {
    "kind": "user",
    "methods": {
      "biosBuyBack()": {
        "notice": "Swaps all WETH held in this contract for BIOS and sends to the kernel"
      }
    },
    "notice": "Integrates 0x Nodes to SushiSwap",
    "version": 1
  },
  "storageLayout": {
    "storage": [
      {
        "astId": 723,
        "contract": "contracts/core/SushiSwapTrader.sol:SushiSwapTrader",
        "label": "_initialized",
        "offset": 0,
        "slot": "0",
        "type": "t_bool"
      },
      {
        "astId": 726,
        "contract": "contracts/core/SushiSwapTrader.sol:SushiSwapTrader",
        "label": "_initializing",
        "offset": 1,
        "slot": "0",
        "type": "t_bool"
      },
      {
        "astId": 9534,
        "contract": "contracts/core/SushiSwapTrader.sol:SushiSwapTrader",
        "label": "moduleMap",
        "offset": 2,
        "slot": "0",
        "type": "t_contract(IModuleMap)19218"
      },
      {
        "astId": 4667,
        "contract": "contracts/core/SushiSwapTrader.sol:SushiSwapTrader",
        "label": "_controllers",
        "offset": 0,
        "slot": "1",
        "type": "t_mapping(t_address,t_bool)"
      },
      {
        "astId": 4670,
        "contract": "contracts/core/SushiSwapTrader.sol:SushiSwapTrader",
        "label": "controllers",
        "offset": 0,
        "slot": "2",
        "type": "t_array(t_address)dyn_storage"
      },
      {
        "astId": 11478,
        "contract": "contracts/core/SushiSwapTrader.sol:SushiSwapTrader",
        "label": "slippageNumerator",
        "offset": 0,
        "slot": "3",
        "type": "t_uint24"
      },
      {
        "astId": 11480,
        "contract": "contracts/core/SushiSwapTrader.sol:SushiSwapTrader",
        "label": "factoryAddress",
        "offset": 3,
        "slot": "3",
        "type": "t_address"
      },
      {
        "astId": 11482,
        "contract": "contracts/core/SushiSwapTrader.sol:SushiSwapTrader",
        "label": "swapRouterAddress",
        "offset": 0,
        "slot": "4",
        "type": "t_address"
      }
    ],
    "types": {
      "t_address": {
        "encoding": "inplace",
        "label": "address",
        "numberOfBytes": "20"
      },
      "t_array(t_address)dyn_storage": {
        "base": "t_address",
        "encoding": "dynamic_array",
        "label": "address[]",
        "numberOfBytes": "32"
      },
      "t_bool": {
        "encoding": "inplace",
        "label": "bool",
        "numberOfBytes": "1"
      },
      "t_contract(IModuleMap)19218": {
        "encoding": "inplace",
        "label": "contract IModuleMap",
        "numberOfBytes": "20"
      },
      "t_mapping(t_address,t_bool)": {
        "encoding": "mapping",
        "key": "t_address",
        "label": "mapping(address => bool)",
        "numberOfBytes": "32",
        "value": "t_bool"
      },
      "t_uint24": {
        "encoding": "inplace",
        "label": "uint24",
        "numberOfBytes": "3"
      }
    }
  }
}