{
  "address": "0xDE5b1d7D2E9b24dAe3fA397853b2FE240F2848cA",
  "abi": [
    {
      "inputs": [
        {
          "internalType": "address[]",
          "name": "controllers_",
          "type": "address[]"
        },
        {
          "internalType": "address",
          "name": "moduleMap_",
          "type": "address"
        }
      ],
      "name": "__Controlled_init",
      "outputs": [],
      "stateMutability": "nonpayable",
      "type": "function"
    },
    {
      "inputs": [
        {
          "internalType": "address",
          "name": "controller",
          "type": "address"
        }
      ],
      "name": "addController",
      "outputs": [],
      "stateMutability": "nonpayable",
      "type": "function"
    },
    {
      "inputs": [
        {
          "internalType": "address",
          "name": "_traderAddress",
          "type": "address"
        }
      ],
      "name": "addTrader",
      "outputs": [],
      "stateMutability": "nonpayable",
      "type": "function"
    },
    {
      "inputs": [
        {
          "internalType": "uint256",
          "name": "",
          "type": "uint256"
        }
      ],
      "name": "controllers",
      "outputs": [
        {
          "internalType": "address",
          "name": "",
          "type": "address"
        }
      ],
      "stateMutability": "view",
      "type": "function"
    },
    {
      "inputs": [
        {
          "internalType": "address[]",
          "name": "_controllers",
          "type": "address[]"
        },
        {
          "internalType": "address",
          "name": "_moduleMap",
          "type": "address"
        }
      ],
      "name": "initialize",
      "outputs": [],
      "stateMutability": "nonpayable",
      "type": "function"
    },
    {
      "inputs": [],
      "name": "moduleMap",
      "outputs": [
        {
          "internalType": "contract IModuleMap",
          "name": "",
          "type": "address"
        }
      ],
      "stateMutability": "view",
      "type": "function"
    },
    {
      "inputs": [
        {
          "internalType": "address",
          "name": "_traderAddress",
          "type": "address"
        }
      ],
      "name": "removeTrader",
      "outputs": [],
      "stateMutability": "nonpayable",
      "type": "function"
    },
    {
      "inputs": [
        {
          "internalType": "address",
          "name": "_walletAddress",
          "type": "address"
        }
      ],
      "name": "setInternalWallet",
      "outputs": [],
      "stateMutability": "nonpayable",
      "type": "function"
    },
    {
      "inputs": [
        {
          "internalType": "address",
          "name": "_tokenIn",
          "type": "address"
        },
        {
          "internalType": "address",
          "name": "_tokenOut",
          "type": "address"
        },
        {
          "internalType": "address",
          "name": "_recipient",
          "type": "address"
        },
        {
          "internalType": "uint256",
          "name": "_amountIn",
          "type": "uint256"
        },
        {
          "internalType": "uint256",
          "name": "_minAmountOut",
          "type": "uint256"
        }
      ],
      "name": "swapExactIn",
      "outputs": [
        {
          "internalType": "bool",
          "name": "tradeSuccess_",
          "type": "bool"
        }
      ],
      "stateMutability": "nonpayable",
      "type": "function"
    },
    {
      "inputs": [
        {
          "internalType": "address",
          "name": "_tokenIn",
          "type": "address"
        },
        {
          "internalType": "address",
          "name": "_tokenOut",
          "type": "address"
        },
        {
          "internalType": "address",
          "name": "_recipient",
          "type": "address"
        },
        {
          "internalType": "uint256",
          "name": "_amountIn",
          "type": "uint256"
        }
      ],
      "name": "swapExactIn",
      "outputs": [
        {
          "internalType": "bool",
          "name": "tradeSuccess_",
          "type": "bool"
        }
      ],
      "stateMutability": "nonpayable",
      "type": "function"
    }
  ],
  "transactionHash": "0xa303aaa0261e5df7767c847e15e0f5667b275e2121129338f91c2f1ca46e10d2",
  "args": [],
  "solcInputHash": "3c329c0643231770f636e8187b4b428d",
  "bytecode": "0x608060405234801561001057600080fd5b50611a4d806100206000396000f3fe608060405234801561001057600080fd5b506004361061008e5760003560e01c80630a1f194f146100935780630f0a1c6f146100a8578063462d0b2e146100d75780635d428e08146100ea57806398c671ce146100fd578063a7fc7a0714610110578063c0e7e87014610123578063c343129f14610146578063c4ef281914610159578063e94b0dd21461016c575b600080fd5b6100a66100a1366004611592565b61017f565b005b6000546100c1906201000090046001600160a01b031681565b6040516100ce91906117b8565b60405180910390f35b6100a66100e5366004611674565b610322565b6100a66100f8366004611592565b610445565b6100a661010b366004611674565b6105d9565b6100a661011e366004611592565b6106df565b61013661013136600461161a565b61091d565b60405190151581526020016100ce565b6100a6610154366004611592565b610a4d565b6101366101673660046115ca565b610b8b565b6100c161017a36600461176c565b610bd1565b600080546040516337c61fc560e11b8152620100009091046001600160a01b031691636f8c3f8a916101b4919060040161180a565b60206040518083038186803b1580156101cc57600080fd5b505afa1580156101e0573d6000803e3d6000fd5b505050506040513d601f19601f8201168201806040525081019061020491906115ae565b6001600160a01b031663f3ae2415336040518263ffffffff1660e01b815260040161022f91906117b8565b60206040518083038186803b15801561024757600080fd5b505afa15801561025b573d6000803e3d6000fd5b505050506040513d601f19601f8201168201806040525081019061027f919061174c565b6102a45760405162461bcd60e51b815260040161029b906118b3565b60405180910390fd5b6102af600382610bfb565b6103135760405162461bcd60e51b815260206004820152602f60248201527f537761704d616e616765723a3a72656d6f76655472616465723a20547261646560448201526e1c881dd85cc81b9bdd081859191959608a1b606482015260840161029b565b61031e600382610c19565b5050565b600054610100900460ff1661033d5760005460ff1615610341565b303b155b61035d5760405162461bcd60e51b815260040161029b90611865565b600054610100900460ff1615801561037f576000805461ffff19166101011790555b61038983836105d9565b600080546040516337c61fc560e11b8152620100009091046001600160a01b031691636f8c3f8a916103be919060040161180a565b60206040518083038186803b1580156103d657600080fd5b505afa1580156103ea573d6000803e3d6000fd5b505050506040513d601f19601f8201168201806040525081019061040e91906115ae565b600580546001600160a01b0319166001600160a01b03929092169190911790558015610440576000805461ff00191690555b505050565b600080546040516337c61fc560e11b8152620100009091046001600160a01b031691636f8c3f8a9161047a919060040161180a565b60206040518083038186803b15801561049257600080fd5b505afa1580156104a6573d6000803e3d6000fd5b505050506040513d601f19601f820116820180604052508101906104ca91906115ae565b6001600160a01b031663f3ae2415336040518263ffffffff1660e01b81526004016104f591906117b8565b60206040518083038186803b15801561050d57600080fd5b505afa158015610521573d6000803e3d6000fd5b505050506040513d601f19601f82011682018060405250810190610545919061174c565b6105615760405162461bcd60e51b815260040161029b906118b3565b61056c600382610bfb565b156105ce5760405162461bcd60e51b815260206004820152602c60248201527f537761704d616e616765723a3a6164645472616465723a20547261646572206160448201526b1b1c9958591e48185919195960a21b606482015260840161029b565b61031e600382610c2e565b600054610100900460ff166105f45760005460ff16156105f8565b303b155b6106145760405162461bcd60e51b815260040161029b90611865565b600054610100900460ff16158015610636576000805461ffff19166101011790555b60005b83518110156106ab57600180600086848151811061066757634e487b7160e01b600052603260045260246000fd5b6020908102919091018101516001600160a01b03168252810191909152604001600020805460ff1916911515919091179055806106a381611998565b915050610639565b5082516106bf906002906020860190611508565b506106c982610c43565b8015610440576000805461ff0019169055505050565b600080546040516337c61fc560e11b8152620100009091046001600160a01b031691636f8c3f8a91610714919060040161180a565b60206040518083038186803b15801561072c57600080fd5b505afa158015610740573d6000803e3d6000fd5b505050506040513d601f19601f8201168201806040525081019061076491906115ae565b6001600160a01b0316632f54bf6e336040518263ffffffff1660e01b815260040161078f91906117b8565b60206040518083038186803b1580156107a757600080fd5b505afa1580156107bb573d6000803e3d6000fd5b505050506040513d601f19601f820116820180604052508101906107df919061174c565b61083e5760405162461bcd60e51b815260206004820152602a60248201527f436f6e74726f6c6c65643a3a6f6e6c794f776e65723a2043616c6c6572206973604482015269103737ba1037bbb732b960b11b606482015260840161029b565b6001600160a01b03811660009081526001602081905260408220805460ff19169091179055805b6002548110156108c6576002818154811061089057634e487b7160e01b600052603260045260246000fd5b6000918252602090912001546001600160a01b03848116911614156108b457600191505b806108be81611998565b915050610865565b508061031e57600280546001810182556000919091527f405787fa12a823e0f2b7631cc41b3ba8828b3321ca811111fa75cd3aa3bb5ace0180546001600160a01b0384166001600160a01b03199091161790555050565b3360009081526001602052604081205460ff1661094c5760405162461bcd60e51b815260040161029b90611901565b60008061095a888887610cd7565b9150915060008482101561096e5784610970565b815b905061097f8989898985610ed2565b9350831561098f57505050610a44565b826109a46001600160a01b038b168289611065565b604051634947054160e01b81526001600160a01b038b811660048301528a811660248301528981166044830152606482018990526084820184905282169063494705419060a401602060405180830381600087803b158015610a0557600080fd5b505af1158015610a19573d6000803e3d6000fd5b505050506040513d601f19601f82011682018060405250810190610a3d919061174c565b9450505050505b95945050505050565b600080546040516337c61fc560e11b8152620100009091046001600160a01b031691636f8c3f8a91610a82919060040161180a565b60206040518083038186803b158015610a9a57600080fd5b505afa158015610aae573d6000803e3d6000fd5b505050506040513d601f19601f82011682018060405250810190610ad291906115ae565b6001600160a01b031663f3ae2415336040518263ffffffff1660e01b8152600401610afd91906117b8565b60206040518083038186803b158015610b1557600080fd5b505afa158015610b29573d6000803e3d6000fd5b505050506040513d601f19601f82011682018060405250810190610b4d919061174c565b610b695760405162461bcd60e51b815260040161029b906118b3565b600580546001600160a01b0319166001600160a01b0392909216919091179055565b3360009081526001602052604081205460ff16610bba5760405162461bcd60e51b815260040161029b90611901565b610bc885858585600061091d565b50949350505050565b60028181548110610be157600080fd5b6000918252602090912001546001600160a01b0316905081565b6000610c10836001600160a01b0384166110c8565b90505b92915050565b6000610c10836001600160a01b0384166110e0565b6000610c10836001600160a01b0384166111fd565b600054610100900460ff16610c5e5760005460ff1615610c62565b303b155b610c7e5760405162461bcd60e51b815260040161029b90611865565b600054610100900460ff16158015610ca0576000805461ffff19166101011790555b6000805462010000600160b01b031916620100006001600160a01b03851602179055801561031e576000805461ff00191690555050565b60008080805b610ce76003611247565b8160ff161015610ec8576000610d01600360ff8416611251565b9050600080826001600160a01b031663841bdb9e8b8b6040518363ffffffff1660e01b8152600401610d349291906117cc565b60206040518083038186803b158015610d4c57600080fd5b505afa158015610d60573d6000803e3d6000fd5b505050506040513d601f19601f82011682018060405250810190610d84919061174c565b15610e9357604051632550332960e11b81526001600160a01b03841690634aa0665290610db9908d908d908d906004016117e6565b602060405180830381600087803b158015610dd357600080fd5b505af1158015610de7573d6000803e3d6000fd5b505050506040513d601f19601f82011682018060405250810190610e0b9190611784565b60405163332ff05b60e21b81529092506001600160a01b0384169063ccbfc16c90610e3e908d908d908d906004016117e6565b602060405180830381600087803b158015610e5857600080fd5b505af1158015610e6c573d6000803e3d6000fd5b505050506040513d601f19601f82011682018060405250810190610e909190611784565b90505b84821115610eb257610ea9600360ff8616611251565b96508095508194505b5050508080610ec0906119b3565b915050610cdd565b5050935093915050565b6005546040516370a0823160e01b81526000918791879184916001600160a01b03808516926370a0823192610f0d92909116906004016117b8565b60206040518083038186803b158015610f2557600080fd5b505afa158015610f39573d6000803e3d6000fd5b505050506040513d601f19601f82011682018060405250810190610f5d9190611784565b600554604051636eb1769f60e11b81529192506000916001600160a01b038581169263dd62ed3e92610f97929091169030906004016117cc565b60206040518083038186803b158015610faf57600080fd5b505afa158015610fc3573d6000803e3d6000fd5b505050506040513d601f19601f82011682018060405250810190610fe79190611784565b9050858210158015610ff95750858110155b80156110055750600086115b1561105857600554611025906001600160a01b038581169116308961125d565b6110396001600160a01b0384168988611065565b600554611053906001600160a01b03868116911689611065565b600194505b5050505095945050505050565b6040516001600160a01b03831660248201526044810182905261044090849063a9059cbb60e01b906064015b60408051601f198184030181529190526020810180516001600160e01b03166001600160e01b031990931692909217909152611284565b60009081526001919091016020526040902054151590565b600081815260018301602052604081205480156111f3576000611104600183611955565b855490915060009061111890600190611955565b905081811461119957600086600001828154811061114657634e487b7160e01b600052603260045260246000fd5b906000526020600020015490508087600001848154811061117757634e487b7160e01b600052603260045260246000fd5b6000918252602080832090910192909255918252600188019052604090208390555b85548690806111b857634e487b7160e01b600052603160045260246000fd5b600190038181906000526020600020016000905590558560010160008681526020019081526020016000206000905560019350505050610c13565b6000915050610c13565b600061120983836110c8565b61123f57508154600181810184556000848152602080822090930184905584548482528286019093526040902091909155610c13565b506000610c13565b6000610c13825490565b6000610c108383611356565b61127e846323b872dd60e01b858585604051602401611091939291906117e6565b50505050565b60006112d9826040518060400160405280602081526020017f5361666545524332303a206c6f772d6c6576656c2063616c6c206661696c6564815250856001600160a01b031661138e9092919063ffffffff16565b80519091501561044057808060200190518101906112f7919061174c565b6104405760405162461bcd60e51b815260206004820152602a60248201527f5361666545524332303a204552433230206f7065726174696f6e20646964206e6044820152691bdd081cdd58d8d9595960b21b606482015260840161029b565b600082600001828154811061137b57634e487b7160e01b600052603260045260246000fd5b9060005260206000200154905092915050565b606061139d84846000856113a7565b90505b9392505050565b6060824710156114085760405162461bcd60e51b815260206004820152602660248201527f416464726573733a20696e73756666696369656e742062616c616e636520666f6044820152651c8818d85b1b60d21b606482015260840161029b565b843b6114565760405162461bcd60e51b815260206004820152601d60248201527f416464726573733a2063616c6c20746f206e6f6e2d636f6e7472616374000000604482015260640161029b565b600080866001600160a01b03168587604051611472919061179c565b60006040518083038185875af1925050503d80600081146114af576040519150601f19603f3d011682016040523d82523d6000602084013e6114b4565b606091505b50915091506114c48282866114cf565b979650505050505050565b606083156114de5750816113a0565b8251156114ee5782518084602001fd5b8160405162461bcd60e51b815260040161029b9190611832565b82805482825590600052602060002090810192821561155d579160200282015b8281111561155d57825182546001600160a01b0319166001600160a01b03909116178255602090920191600190910190611528565b5061156992915061156d565b5090565b5b80821115611569576000815560010161156e565b803561158d816119ff565b919050565b6000602082840312156115a3578081fd5b81356113a0816119ff565b6000602082840312156115bf578081fd5b81516113a0816119ff565b600080600080608085870312156115df578283fd5b84356115ea816119ff565b935060208501356115fa816119ff565b9250604085013561160a816119ff565b9396929550929360600135925050565b600080600080600060a08688031215611631578081fd5b853561163c816119ff565b9450602086013561164c816119ff565b9350604086013561165c816119ff565b94979396509394606081013594506080013592915050565b60008060408385031215611686578182fd5b82356001600160401b038082111561169c578384fd5b818501915085601f8301126116af578384fd5b81356020828211156116c3576116c36119e9565b8160051b604051601f19603f830116810181811086821117156116e8576116e86119e9565b604052838152828101945085830182870184018b1015611706578889fd5b8896505b8487101561172f5761171b81611582565b86526001969096019594830194830161170a565b50965061173f9050878201611582565b9450505050509250929050565b60006020828403121561175d578081fd5b815180151581146113a0578182fd5b60006020828403121561177d578081fd5b5035919050565b600060208284031215611795578081fd5b5051919050565b600082516117ae81846020870161196c565b9190910192915050565b6001600160a01b0391909116815260200190565b6001600160a01b0392831681529116602082015260400190565b6001600160a01b039384168152919092166020820152604081019190915260600190565b60208101600c831061182c57634e487b7160e01b600052602160045260246000fd5b91905290565b602081526000825180602084015261185181604085016020870161196c565b601f01601f19169190910160400192915050565b6020808252602e908201527f496e697469616c697a61626c653a20636f6e747261637420697320616c72656160408201526d191e481a5b9a5d1a585b1a5e995960921b606082015260800190565b6020808252602e908201527f436f6e74726f6c6c65643a3a6f6e6c794d616e616765723a2043616c6c65722060408201526d34b9903737ba1036b0b730b3b2b960911b606082015260800190565b60208082526034908201527f436f6e74726f6c6c65643a3a6f6e6c79436f6e74726f6c6c65723a2043616c6c60408201527332b91034b9903737ba1031b7b73a3937b63632b960611b606082015260800190565b600082821015611967576119676119d3565b500390565b60005b8381101561198757818101518382015260200161196f565b8381111561127e5750506000910152565b60006000198214156119ac576119ac6119d3565b5060010190565b600060ff821660ff8114156119ca576119ca6119d3565b60010192915050565b634e487b7160e01b600052601160045260246000fd5b634e487b7160e01b600052604160045260246000fd5b6001600160a01b0381168114611a1457600080fd5b5056fea2646970667358221220287a35019bec201e28d5f7d1399846b027349eab98b647a92805d8d60cc6216064736f6c63430008040033",
  "devdoc": {
    "kind": "dev",
    "methods": {
      "addTrader(address)": {
        "params": {
          "_traderAddress": "Address of the contract implementing IDexTrader interface"
        }
      },
      "removeTrader(address)": {
        "params": {
          "_traderAddress": "Address of the contract implementing IDexTrader interface"
        }
      },
      "setInternalWallet(address)": {
        "params": {
          "_walletAddress": "The address of the contract (user) which will be used for internal swaps"
        }
      },
      "swapExactIn(address,address,address,uint256)": {
        "params": {
          "_amountIn": "The exact amount of the input to swap",
          "_recipient": "The address of the token out recipient",
          "_tokenIn": "The address of the input token",
          "_tokenOut": "The address of the output token"
        },
        "returns": {
          "tradeSuccess_": "Indicates whether the swap succeeded"
        }
      },
      "swapExactIn(address,address,address,uint256,uint256)": {
        "params": {
          "_amountIn": "The exact amount of the input to swap",
          "_minAmountOut": "The minimum amount of _tokenOut to receive",
          "_recipient": "The address of the token out recipient",
          "_tokenIn": "The address of the input token",
          "_tokenOut": "The address of the output token"
        },
        "returns": {
          "tradeSuccess_": "Indicates whether the swap succeeded"
        }
      }
    },
    "version": 1
  },
  "userdoc": {
    "kind": "user",
    "methods": {},
    "version": 1
  },
  "storageLayout": {
    "storage": [
      {
        "astId": 723,
        "contract": "contracts/core/SwapManager.sol:SwapManager",
        "label": "_initialized",
        "offset": 0,
        "slot": "0",
        "type": "t_bool"
      },
      {
        "astId": 726,
        "contract": "contracts/core/SwapManager.sol:SwapManager",
        "label": "_initializing",
        "offset": 1,
        "slot": "0",
        "type": "t_bool"
      },
      {
        "astId": 9534,
        "contract": "contracts/core/SwapManager.sol:SwapManager",
        "label": "moduleMap",
        "offset": 2,
        "slot": "0",
        "type": "t_contract(IModuleMap)19218"
      },
      {
        "astId": 4667,
        "contract": "contracts/core/SwapManager.sol:SwapManager",
        "label": "_controllers",
        "offset": 0,
        "slot": "1",
        "type": "t_mapping(t_address,t_bool)"
      },
      {
        "astId": 4670,
        "contract": "contracts/core/SwapManager.sol:SwapManager",
        "label": "controllers",
        "offset": 0,
        "slot": "2",
        "type": "t_array(t_address)dyn_storage"
      },
      {
        "astId": 12090,
        "contract": "contracts/core/SwapManager.sol:SwapManager",
        "label": "traders",
        "offset": 0,
        "slot": "3",
        "type": "t_struct(AddressSet)3315_storage"
      },
      {
        "astId": 12092,
        "contract": "contracts/core/SwapManager.sol:SwapManager",
        "label": "internalWallet",
        "offset": 0,
        "slot": "5",
        "type": "t_address"
      }
    ],
    "types": {
      "t_address": {
        "encoding": "inplace",
        "label": "address",
        "numberOfBytes": "20"
      },
      "t_array(t_address)dyn_storage": {
        "base": "t_address",
        "encoding": "dynamic_array",
        "label": "address[]",
        "numberOfBytes": "32"
      },
      "t_array(t_bytes32)dyn_storage": {
        "base": "t_bytes32",
        "encoding": "dynamic_array",
        "label": "bytes32[]",
        "numberOfBytes": "32"
      },
      "t_bool": {
        "encoding": "inplace",
        "label": "bool",
        "numberOfBytes": "1"
      },
      "t_bytes32": {
        "encoding": "inplace",
        "label": "bytes32",
        "numberOfBytes": "32"
      },
      "t_contract(IModuleMap)19218": {
        "encoding": "inplace",
        "label": "contract IModuleMap",
        "numberOfBytes": "20"
      },
      "t_mapping(t_address,t_bool)": {
        "encoding": "mapping",
        "key": "t_address",
        "label": "mapping(address => bool)",
        "numberOfBytes": "32",
        "value": "t_bool"
      },
      "t_mapping(t_bytes32,t_uint256)": {
        "encoding": "mapping",
        "key": "t_bytes32",
        "label": "mapping(bytes32 => uint256)",
        "numberOfBytes": "32",
        "value": "t_uint256"
      },
      "t_struct(AddressSet)3315_storage": {
        "encoding": "inplace",
        "label": "struct EnumerableSet.AddressSet",
        "members": [
          {
            "astId": 3314,
            "contract": "contracts/core/SwapManager.sol:SwapManager",
            "label": "_inner",
            "offset": 0,
            "slot": "0",
            "type": "t_struct(Set)3014_storage"
          }
        ],
        "numberOfBytes": "64"
      },
      "t_struct(Set)3014_storage": {
        "encoding": "inplace",
        "label": "struct EnumerableSet.Set",
        "members": [
          {
            "astId": 3009,
            "contract": "contracts/core/SwapManager.sol:SwapManager",
            "label": "_values",
            "offset": 0,
            "slot": "0",
            "type": "t_array(t_bytes32)dyn_storage"
          },
          {
            "astId": 3013,
            "contract": "contracts/core/SwapManager.sol:SwapManager",
            "label": "_indexes",
            "offset": 0,
            "slot": "1",
            "type": "t_mapping(t_bytes32,t_uint256)"
          }
        ],
        "numberOfBytes": "64"
      },
      "t_uint256": {
        "encoding": "inplace",
        "label": "uint256",
        "numberOfBytes": "32"
      }
    }
  }
}