{
  "address": "0x948f49Af6e96340A61c6D85C618c14421Bc075B9",
  "abi": [
    {
      "anonymous": false,
      "inputs": [
        {
          "indexed": false,
          "internalType": "uint256",
          "name": "strategyId",
          "type": "uint256"
        },
        {
          "indexed": false,
          "internalType": "address[]",
          "name": "integration",
          "type": "address[]"
        },
        {
          "indexed": false,
          "internalType": "uint256",
          "name": "amount",
          "type": "uint256"
        }
      ],
      "name": "HarvestYield",
      "type": "event"
    },
    {
      "inputs": [
        {
          "internalType": "address[]",
          "name": "controllers_",
          "type": "address[]"
        },
        {
          "internalType": "address",
          "name": "moduleMap_",
          "type": "address"
        }
      ],
      "name": "__Controlled_init",
      "outputs": [],
      "stateMutability": "nonpayable",
      "type": "function"
    },
    {
      "inputs": [
        {
          "internalType": "address",
          "name": "controller",
          "type": "address"
        }
      ],
      "name": "addController",
      "outputs": [],
      "stateMutability": "nonpayable",
      "type": "function"
    },
    {
      "inputs": [
        {
          "internalType": "uint256",
          "name": "ratioX1000",
          "type": "uint256"
        }
      ],
      "name": "biosBuyBack",
      "outputs": [],
      "stateMutability": "nonpayable",
      "type": "function"
    },
    {
      "inputs": [
        {
          "internalType": "uint256",
          "name": "",
          "type": "uint256"
        }
      ],
      "name": "controllers",
      "outputs": [
        {
          "internalType": "address",
          "name": "",
          "type": "address"
        }
      ],
      "stateMutability": "view",
      "type": "function"
    },
    {
      "inputs": [
        {
          "components": [
            {
              "internalType": "address",
              "name": "integration",
              "type": "address"
            },
            {
              "internalType": "address[]",
              "name": "tokens",
              "type": "address[]"
            },
            {
              "internalType": "uint32",
              "name": "ammPoolID",
              "type": "uint32"
            }
          ],
          "internalType": "struct IYieldManager.DeployRequest[]",
          "name": "deployments",
          "type": "tuple[]"
        }
      ],
      "name": "deploy",
      "outputs": [],
      "stateMutability": "nonpayable",
      "type": "function"
    },
    {
      "inputs": [
        {
          "internalType": "uint256[]",
          "name": "ids",
          "type": "uint256[]"
        },
        {
          "internalType": "uint256[]",
          "name": "positions",
          "type": "uint256[]"
        },
        {
          "internalType": "uint256",
          "name": "biosAmount",
          "type": "uint256"
        }
      ],
      "name": "distributeEth",
      "outputs": [],
      "stateMutability": "nonpayable",
      "type": "function"
    },
    {
      "inputs": [
        {
          "internalType": "address",
          "name": "token",
          "type": "address"
        }
      ],
      "name": "getAllPendingYield",
      "outputs": [
        {
          "components": [
            {
              "internalType": "address",
              "name": "integration",
              "type": "address"
            },
            {
              "internalType": "address",
              "name": "token",
              "type": "address"
            },
            {
              "internalType": "uint256",
              "name": "amount",
              "type": "uint256"
            }
          ],
          "internalType": "struct IYieldManager.IntegrationYield[]",
          "name": "pendingYieldData",
          "type": "tuple[]"
        }
      ],
      "stateMutability": "view",
      "type": "function"
    },
    {
      "inputs": [
        {
          "internalType": "address",
          "name": "tokenAddress",
          "type": "address"
        }
      ],
      "name": "getDesiredReserveTokenBalance",
      "outputs": [
        {
          "internalType": "uint256",
          "name": "",
          "type": "uint256"
        }
      ],
      "stateMutability": "view",
      "type": "function"
    },
    {
      "inputs": [],
      "name": "getEthDistributionWeights",
      "outputs": [
        {
          "internalType": "uint32",
          "name": "",
          "type": "uint32"
        },
        {
          "internalType": "uint32",
          "name": "",
          "type": "uint32"
        },
        {
          "internalType": "uint32",
          "name": "",
          "type": "uint32"
        },
        {
          "internalType": "uint32",
          "name": "",
          "type": "uint32"
        }
      ],
      "stateMutability": "view",
      "type": "function"
    },
    {
      "inputs": [],
      "name": "getEthWeightSum",
      "outputs": [
        {
          "internalType": "uint32",
          "name": "ethWeightSum",
          "type": "uint32"
        }
      ],
      "stateMutability": "view",
      "type": "function"
    },
    {
      "inputs": [],
      "name": "getGasAccount",
      "outputs": [
        {
          "internalType": "address",
          "name": "",
          "type": "address"
        }
      ],
      "stateMutability": "view",
      "type": "function"
    },
    {
      "inputs": [],
      "name": "getGasAccountTargetEthBalance",
      "outputs": [
        {
          "internalType": "uint256",
          "name": "",
          "type": "uint256"
        }
      ],
      "stateMutability": "view",
      "type": "function"
    },
    {
      "inputs": [],
      "name": "getLastEthRewardsAmount",
      "outputs": [
        {
          "internalType": "uint256",
          "name": "",
          "type": "uint256"
        }
      ],
      "stateMutability": "view",
      "type": "function"
    },
    {
      "inputs": [
        {
          "internalType": "address",
          "name": "integrationAddress",
          "type": "address"
        }
      ],
      "name": "getLastHarvestYieldTimestamp",
      "outputs": [
        {
          "internalType": "uint256",
          "name": "",
          "type": "uint256"
        }
      ],
      "stateMutability": "view",
      "type": "function"
    },
    {
      "inputs": [
        {
          "internalType": "address",
          "name": "tokenAddress",
          "type": "address"
        }
      ],
      "name": "getReserveTokenBalance",
      "outputs": [
        {
          "internalType": "uint256",
          "name": "",
          "type": "uint256"
        }
      ],
      "stateMutability": "view",
      "type": "function"
    },
    {
      "inputs": [
        {
          "internalType": "uint256",
          "name": "strategyId",
          "type": "uint256"
        }
      ],
      "name": "getStrategyInfo",
      "outputs": [
        {
          "components": [
            {
              "internalType": "uint256",
              "name": "processedWeth",
              "type": "uint256"
            },
            {
              "internalType": "uint256",
              "name": "distributedWeth",
              "type": "uint256"
            },
            {
              "internalType": "uint256",
              "name": "lastHarvest",
              "type": "uint256"
            }
          ],
          "internalType": "struct IYieldManager.StrategyInfo",
          "name": "",
          "type": "tuple"
        }
      ],
      "stateMutability": "view",
      "type": "function"
    },
    {
      "inputs": [
        {
          "internalType": "address",
          "name": "tokenAddress",
          "type": "address"
        }
      ],
      "name": "getTokenTotalIntegrationBalance",
      "outputs": [
        {
          "internalType": "uint256",
          "name": "tokenTotalIntegrationBalance",
          "type": "uint256"
        }
      ],
      "stateMutability": "view",
      "type": "function"
    },
    {
      "inputs": [],
      "name": "getTreasuryAccount",
      "outputs": [
        {
          "internalType": "address",
          "name": "",
          "type": "address"
        }
      ],
      "stateMutability": "view",
      "type": "function"
    },
    {
      "inputs": [
        {
          "internalType": "uint256",
          "name": "strategyId",
          "type": "uint256"
        },
        {
          "internalType": "address[]",
          "name": "integrations",
          "type": "address[]"
        },
        {
          "internalType": "uint256",
          "name": "amount",
          "type": "uint256"
        },
        {
          "internalType": "bool",
          "name": "setAccounting",
          "type": "bool"
        }
      ],
      "name": "harvestYield",
      "outputs": [],
      "stateMutability": "nonpayable",
      "type": "function"
    },
    {
      "inputs": [
        {
          "internalType": "address[]",
          "name": "controllers_",
          "type": "address[]"
        },
        {
          "internalType": "address",
          "name": "moduleMap_",
          "type": "address"
        },
        {
          "internalType": "uint256",
          "name": "gasAccountTargetEthBalance_",
          "type": "uint256"
        },
        {
          "internalType": "uint32",
          "name": "biosBuyBackEthWeight_",
          "type": "uint32"
        },
        {
          "internalType": "uint32",
          "name": "treasuryEthWeight_",
          "type": "uint32"
        },
        {
          "internalType": "uint32",
          "name": "protocolFeeEthWeight_",
          "type": "uint32"
        },
        {
          "internalType": "uint32",
          "name": "rewardsEthWeight_",
          "type": "uint32"
        },
        {
          "internalType": "address payable",
          "name": "gasAccount_",
          "type": "address"
        },
        {
          "internalType": "address payable",
          "name": "treasuryAccount_",
          "type": "address"
        }
      ],
      "name": "initialize",
      "outputs": [],
      "stateMutability": "nonpayable",
      "type": "function"
    },
    {
      "inputs": [],
      "name": "moduleMap",
      "outputs": [
        {
          "internalType": "contract IModuleMap",
          "name": "",
          "type": "address"
        }
      ],
      "stateMutability": "view",
      "type": "function"
    },
    {
      "inputs": [
        {
          "internalType": "uint256",
          "name": "strategyId",
          "type": "uint256"
        },
        {
          "internalType": "uint256",
          "name": "amount",
          "type": "uint256"
        },
        {
          "internalType": "bool",
          "name": "add",
          "type": "bool"
        }
      ],
      "name": "strategyAccounting",
      "outputs": [],
      "stateMutability": "nonpayable",
      "type": "function"
    },
    {
      "inputs": [
        {
          "internalType": "address",
          "name": "destination",
          "type": "address"
        },
        {
          "internalType": "address",
          "name": "token",
          "type": "address"
        },
        {
          "internalType": "uint256",
          "name": "amount",
          "type": "uint256"
        }
      ],
      "name": "transferClosedPositionsValue",
      "outputs": [],
      "stateMutability": "nonpayable",
      "type": "function"
    },
    {
      "inputs": [
        {
          "internalType": "uint32",
          "name": "biosBuyBackEthWeight_",
          "type": "uint32"
        },
        {
          "internalType": "uint32",
          "name": "treasuryEthWeight_",
          "type": "uint32"
        },
        {
          "internalType": "uint32",
          "name": "protocolFeeEthWeight_",
          "type": "uint32"
        },
        {
          "internalType": "uint32",
          "name": "rewardsEthWeight_",
          "type": "uint32"
        }
      ],
      "name": "updateEthDistributionWeights",
      "outputs": [],
      "stateMutability": "nonpayable",
      "type": "function"
    },
    {
      "inputs": [
        {
          "internalType": "address payable",
          "name": "gasAccount_",
          "type": "address"
        }
      ],
      "name": "updateGasAccount",
      "outputs": [],
      "stateMutability": "nonpayable",
      "type": "function"
    },
    {
      "inputs": [
        {
          "internalType": "uint256",
          "name": "gasAccountTargetEthBalance_",
          "type": "uint256"
        }
      ],
      "name": "updateGasAccountTargetEthBalance",
      "outputs": [],
      "stateMutability": "nonpayable",
      "type": "function"
    },
    {
      "inputs": [
        {
          "internalType": "address payable",
          "name": "treasuryAccount_",
          "type": "address"
        }
      ],
      "name": "updateTreasuryAccount",
      "outputs": [],
      "stateMutability": "nonpayable",
      "type": "function"
    },
    {
      "stateMutability": "payable",
      "type": "receive"
    }
  ],
  "transactionHash": "0x5241dd0d082fcc7b467c3e7ea71ec63a2c425b0b351ae8ac6071137f11afcc12",
  "args": [],
  "solcInputHash": "95f752398cd2db7b9438ee5be3183efd",
  "bytecode": "0x608060405234801561001057600080fd5b506155da80620000216000396000f3fe60806040526004361061013f5760003560e01c80629816f51461014b57806307f68a651461017a5780630b1ff20a146101cc5780630f0a1c6f146101ee57806330dd79dd146102215780633aab4e94146102415780633f10724c1461028557806343cda19d146102a55780636f26ab6c146102c55780637a0468d2146102e5578063845fe1d014610305578063983b64e81461032557806398c671ce14610345578063a1bc290814610365578063a1d06fbb14610385578063a412e8151461039a578063a7fc7a07146103ba578063b4f0abf0146103da578063cdd92c7b146103fa578063cde49a131461041a578063db089e791461042f578063de13acfb14610471578063e0a30f7314610491578063e94b0dd2146104af578063ec5e2f17146104cf578063f6075155146104ef578063f7866ee31461051c57600080fd5b3661014657005b600080fd5b34801561015757600080fd5b5061016061053a565b60405163ffffffff90911681526020015b60405180910390f35b34801561018657600080fd5b506004546040805163ffffffff8084168252600160201b840481166020830152600160401b8404811692820192909252600160601b909204166060820152608001610171565b3480156101d857600080fd5b506101ec6101e7366004614fd5565b610586565b005b3480156101fa57600080fd5b50600054610214906201000090046001600160a01b031681565b6040516101719190615184565b34801561022d57600080fd5b506101ec61023c366004614f31565b6105c3565b34801561024d57600080fd5b5061027761025c366004614d62565b6001600160a01b031660009081526009602052604090205490565b604051908152602001610171565b34801561029157600080fd5b506101ec6102a0366004614ef2565b610dc7565b3480156102b157600080fd5b506102776102c0366004614d62565b6123a3565b3480156102d157600080fd5b506101ec6102e0366004615055565b612610565b3480156102f157600080fd5b506101ec610300366004614e29565b612784565b34801561031157600080fd5b506101ec610320366004614fd5565b612896565b34801561033157600080fd5b506101ec610340366004614d9a565b612c9e565b34801561035157600080fd5b506101ec610360366004614dda565b612ce6565b34801561037157600080fd5b506101ec610380366004614d62565b612dec565b34801561039157600080fd5b50600554610277565b3480156103a657600080fd5b506101ec6103b5366004614fed565b612e3d565b3480156103c657600080fd5b506101ec6103d5366004614d62565b61329a565b3480156103e657600080fd5b506101ec6103f5366004614d62565b6134d7565b34801561040657600080fd5b50610277610415366004614d62565b613528565b34801561042657600080fd5b50600354610277565b34801561043b57600080fd5b5061044f61044a366004614fd5565b6139be565b6040805182518152602080840151908201529181015190820152606001610171565b34801561047d57600080fd5b506101ec61048c3660046150c5565b613a1b565b34801561049d57600080fd5b506006546001600160a01b0316610214565b3480156104bb57600080fd5b506102146104ca366004614fd5565b613aac565b3480156104db57600080fd5b506102776104ea366004614d62565b613ad6565b3480156104fb57600080fd5b5061050f61050a366004614d62565b613cf9565b6040516101719190615215565b34801561052857600080fd5b506007546001600160a01b0316610214565b60045460009063ffffffff600160601b8204811691600160401b810482169161056d91600160201b810482169116615464565b6105779190615464565b6105819190615464565b905090565b3360009081526001602052604090205460ff166105be5760405162461bcd60e51b81526004016105b590615371565b60405180910390fd5b600355565b3360009081526001602052604090205460ff166105f25760405162461bcd60e51b81526004016105b590615371565b600080546040516337c61fc560e11b8152620100009091046001600160a01b031690636f8c3f8a906106299060039060040161527a565b60206040518083038186803b15801561064157600080fd5b505afa158015610655573d6000803e3d6000fd5b505050506040513d601f19601f820116820180604052508101906106799190614d7e565b90506000816001600160a01b0316638b9c94896040518163ffffffff1660e01b815260040160206040518083038186803b1580156106b657600080fd5b505afa1580156106ca573d6000803e3d6000fd5b505050506040513d601f19601f820116820180604052508101906106ee9190614d7e565b905082156108c2576000546040516337c61fc560e11b815284916201000090046001600160a01b031690636f8c3f8a9061072d9060019060040161527a565b60206040518083038186803b15801561074557600080fd5b505afa158015610759573d6000803e3d6000fd5b505050506040513d601f19601f8201168201806040525081019061077d9190614d7e565b6001600160a01b031663f5465992846001600160a01b03166344fc9b566040518163ffffffff1660e01b815260040160206040518083038186803b1580156107c457600080fd5b505afa1580156107d8573d6000803e3d6000fd5b505050506040513d601f19601f820116820180604052508101906107fc9190614d7e565b6040518263ffffffff1660e01b81526004016108189190615184565b60206040518083038186803b15801561083057600080fd5b505afa158015610844573d6000803e3d6000fd5b505050506040513d601f19601f820116820180604052508101906108689190614fbd565b11156108c25760405162461bcd60e51b8152602060048201526024808201527f5969656c644d616e616765723a3a65787065637465642042494f5320657863656044820152631959195960e21b60648201526084016105b5565b6000805b87811015610dba5760008989838181106108f057634e487b7160e01b600052603260045260246000fd5b90506020020135116109445760405162461bcd60e51b815260206004820152601e60248201527f5969656c644d616e616765723a3a696e76616c6964207374726174656779000060448201526064016105b5565b86868281811061096457634e487b7160e01b600052603260045260246000fd5b6000546040516337c61fc560e11b815260209092029390930135926001600160a01b0362010000909104169150636f8c3f8a906109a69060089060040161527a565b60206040518083038186803b1580156109be57600080fd5b505afa1580156109d2573d6000803e3d6000fd5b505050506040513d601f19601f820116820180604052508101906109f69190614d7e565b6001600160a01b0316639d6eaec28b8b85818110610a2457634e487b7160e01b600052603260045260246000fd5b90506020020135866040518363ffffffff1660e01b8152600401610a5b9291909182526001600160a01b0316602082015260400190565b60206040518083038186803b158015610a7357600080fd5b505afa158015610a87573d6000803e3d6000fd5b505050506040513d601f19601f82011682018060405250810190610aab9190614fbd565b1115610af95760405162461bcd60e51b815260206004820152601f60248201527f5969656c644d616e616765723a3a706f736974696f6e2065786365656465640060448201526064016105b5565b6000600a60008b8b85818110610b1f57634e487b7160e01b600052603260045260246000fd5b9050602002013581526020019081526020016000209050600081600101548260000154610b4c91906154cb565b90508015610da7576000610b5e61053a565b60045463ffffffff91821691610b759116846154ac565b610b7f919061548c565b90506000610b8b61053a565b60045463ffffffff91821691610ba991600160201b900416856154ac565b610bb3919061548c565b90506000610bbf61053a565b60045463ffffffff91821691610bdd91600160401b900416866154ac565b610be7919061548c565b905060008183610bf786886154cb565b610c0191906154cb565b610c0b91906154cb565b6000546040516337c61fc560e11b8152919250610ca991620100009091046001600160a01b031690636f8c3f8a90610c489060069060040161527a565b60206040518083038186803b158015610c6057600080fd5b505afa158015610c74573d6000803e3d6000fd5b505050506040513d601f19601f82011682018060405250810190610c989190614d7e565b6001600160a01b038b169086613fe3565b604051632e1a7d4d60e01b8152600481018490526001600160a01b038a1690632e1a7d4d90602401600060405180830381600087803b158015610ceb57600080fd5b505af1158015610cff573d6000803e3d6000fd5b50506007546040516001600160a01b03909116925085156108fc02915085906000818181858888f19350505050158015610d3d573d6000803e3d6000fd5b508115610d4d57610d4d82614039565b610d7d8f8f89818110610d7057634e487b7160e01b600052603260045260246000fd5b90506020020135826145bc565b610d87818961544c565b975084866001016000828254610d9d919061544c565b9091555050505050505b505080610db39061550e565b90506108c6565b5060055550505050505050565b3360009081526001602052604090205460ff16610df65760405162461bcd60e51b81526004016105b590615371565b600080546040516337c61fc560e11b8152620100009091046001600160a01b031690636f8c3f8a90610e2d9060089060040161527a565b60206040518083038186803b158015610e4557600080fd5b505afa158015610e59573d6000803e3d6000fd5b505050506040513d601f19601f82011682018060405250810190610e7d9190614d7e565b905060005b8281101561239d576000848483818110610eac57634e487b7160e01b600052603260045260246000fd5b9050602002810190610ebe9190615437565b610ecf90606081019060400161508d565b63ffffffff161115610f5f576002848483818110610efd57634e487b7160e01b600052603260045260246000fd5b9050602002810190610f0f9190615437565b610f1d9060208101906153f0565b90501115610f5f5760405162461bcd60e51b815260206004820152600f60248201526e746f6f206d616e7920746f6b656e7360881b60448201526064016105b5565b60005b848483818110610f8257634e487b7160e01b600052603260045260246000fd5b9050602002810190610f949190615437565b610fa29060208101906153f0565b90508110156122eb576000836001600160a01b031663f7e50fcf878786818110610fdc57634e487b7160e01b600052603260045260246000fd5b9050602002810190610fee9190615437565b610ffc906020810190614d62565b88888781811061101c57634e487b7160e01b600052603260045260246000fd5b905060200281019061102e9190615437565b61103f90606081019060400161508d565b89898881811061105f57634e487b7160e01b600052603260045260246000fd5b90506020028101906110719190615437565b61107f9060208101906153f0565b8781811061109d57634e487b7160e01b600052603260045260246000fd5b90506020020160208101906110b29190614d62565b6040518463ffffffff1660e01b81526004016110d0939291906151d8565b60206040518083038186803b1580156110e857600080fd5b505afa1580156110fc573d6000803e3d6000fd5b505050506040513d601f19601f820116820180604052508101906111209190614fbd565b9050600086868581811061114457634e487b7160e01b600052603260045260246000fd5b90506020028101906111569190615437565b6111649060208101906153f0565b8481811061118257634e487b7160e01b600052603260045260246000fd5b90506020020160208101906111979190614d62565b600080546040516337c61fc560e11b81526001600160a01b03938416936370a0823193620100009093041691636f8c3f8a916111d6919060040161527a565b60206040518083038186803b1580156111ee57600080fd5b505afa158015611202573d6000803e3d6000fd5b505050506040513d601f19601f820116820180604052508101906112269190614d7e565b6040518263ffffffff1660e01b81526004016112429190615184565b60206040518083038186803b15801561125a57600080fd5b505afa15801561126e573d6000803e3d6000fd5b505050506040513d601f19601f820116820180604052508101906112929190614fbd565b90506000821380156112ab57506112a8826148c0565b81105b156114fa57846001600160a01b0316635560066a8888878181106112df57634e487b7160e01b600052603260045260246000fd5b90506020028101906112f19190615437565b6112ff9060208101906153f0565b8681811061131d57634e487b7160e01b600052603260045260246000fd5b90506020020160208101906113329190614d62565b6000196040518363ffffffff1660e01b8152600401611352929190615198565b600060405180830381600087803b15801561136c57600080fd5b505af1158015611380573d6000803e3d6000fd5b50505050846001600160a01b031663f7e50fcf8888878181106113b357634e487b7160e01b600052603260045260246000fd5b90506020028101906113c59190615437565b6113d3906020810190614d62565b8989888181106113f357634e487b7160e01b600052603260045260246000fd5b90506020028101906114059190615437565b61141690606081019060400161508d565b8a8a8981811061143657634e487b7160e01b600052603260045260246000fd5b90506020028101906114489190615437565b6114569060208101906153f0565b8881811061147457634e487b7160e01b600052603260045260246000fd5b90506020020160208101906114899190614d62565b6040518463ffffffff1660e01b81526004016114a7939291906151d8565b60206040518083038186803b1580156114bf57600080fd5b505afa1580156114d3573d6000803e3d6000fd5b505050506040513d601f19601f820116820180604052508101906114f79190614fbd565b91505b600087878681811061151c57634e487b7160e01b600052603260045260246000fd5b905060200281019061152e9190615437565b61153f90606081019060400161508d565b63ffffffff161115611c4e57600087878681811061156d57634e487b7160e01b600052603260045260246000fd5b905060200281019061157f9190615437565b61158d906020810190614d62565b90506000831315611b205760008888878181106115ba57634e487b7160e01b600052603260045260246000fd5b90506020028101906115cc9190615437565b6115da9060208101906153f0565b868181106115f857634e487b7160e01b600052603260045260246000fd5b905060200201602081019061160d9190614d62565b6001600160a01b03166370a082318a8a8981811061163b57634e487b7160e01b600052603260045260246000fd5b905060200281019061164d9190615437565b61165b906020810190614d62565b6040518263ffffffff1660e01b81526004016116779190615184565b60206040518083038186803b15801561168f57600080fd5b505afa1580156116a3573d6000803e3d6000fd5b505050506040513d601f19601f820116820180604052508101906116c79190614fbd565b600080546040516337c61fc560e11b815292935061182092620100009091046001600160a01b031691636f8c3f8a91611703919060040161527a565b60206040518083038186803b15801561171b57600080fd5b505afa15801561172f573d6000803e3d6000fd5b505050506040513d601f19601f820116820180604052508101906117539190614d7e565b8a8a8981811061177357634e487b7160e01b600052603260045260246000fd5b90506020028101906117859190615437565b611793906020810190614d62565b61179c876148c0565b8c8c8b8181106117bc57634e487b7160e01b600052603260045260246000fd5b90506020028101906117ce9190615437565b6117dc9060208101906153f0565b8a8181106117fa57634e487b7160e01b600052603260045260246000fd5b905060200201602081019061180f9190614d62565b6001600160a01b03169291906148dc565b600089898881811061184257634e487b7160e01b600052603260045260246000fd5b90506020028101906118549190615437565b6118629060208101906153f0565b8781811061188057634e487b7160e01b600052603260045260246000fd5b90506020020160208101906118959190614d62565b6001600160a01b03166370a082318b8b8a8181106118c357634e487b7160e01b600052603260045260246000fd5b90506020028101906118d59190615437565b6118e3906020810190614d62565b6040518263ffffffff1660e01b81526004016118ff9190615184565b60206040518083038186803b15801561191757600080fd5b505afa15801561192b573d6000803e3d6000fd5b505050506040513d601f19601f8201168201806040525081019061194f9190614fbd565b9050826001600160a01b031663b1cccca28b8b8a81811061198057634e487b7160e01b600052603260045260246000fd5b90506020028101906119929190615437565b6119a09060208101906153f0565b898181106119be57634e487b7160e01b600052603260045260246000fd5b90506020020160208101906119d39190614d62565b6119dd85856154cb565b8d8d8c8181106119fd57634e487b7160e01b600052603260045260246000fd5b9050602002810190611a0f9190615437565b611a2090606081019060400161508d565b6040518463ffffffff1660e01b8152600401611a3e939291906151b1565b600060405180830381600087803b158015611a5857600080fd5b505af1158015611a6c573d6000803e3d6000fd5b50505050826001600160a01b0316635ce564f48b8b8a818110611a9f57634e487b7160e01b600052603260045260246000fd5b9050602002810190611ab19190615437565b611ac290606081019060400161508d565b6040516001600160e01b031960e084901b16815263ffffffff919091166004820152602401600060405180830381600087803b158015611b0157600080fd5b505af1158015611b15573d6000803e3d6000fd5b505050505050611c48565b6000831215611c4857806001600160a01b0316637db2ddfe898988818110611b5857634e487b7160e01b600052603260045260246000fd5b9050602002810190611b6a9190615437565b611b789060208101906153f0565b87818110611b9657634e487b7160e01b600052603260045260246000fd5b9050602002016020810190611bab9190614d62565b611bb4866148c0565b8b8b8a818110611bd457634e487b7160e01b600052603260045260246000fd5b9050602002810190611be69190615437565b611bf790606081019060400161508d565b6040518463ffffffff1660e01b8152600401611c15939291906151b1565b600060405180830381600087803b158015611c2f57600080fd5b505af1158015611c43573d6000803e3d6000fd5b505050505b50612152565b6000878786818110611c7057634e487b7160e01b600052603260045260246000fd5b9050602002810190611c829190615437565b611c90906020810190614d62565b9050600083131561206c576000888887818110611cbd57634e487b7160e01b600052603260045260246000fd5b9050602002810190611ccf9190615437565b611cdd9060208101906153f0565b86818110611cfb57634e487b7160e01b600052603260045260246000fd5b9050602002016020810190611d109190614d62565b6001600160a01b03166370a082318a8a89818110611d3e57634e487b7160e01b600052603260045260246000fd5b9050602002810190611d509190615437565b611d5e906020810190614d62565b6040518263ffffffff1660e01b8152600401611d7a9190615184565b60206040518083038186803b158015611d9257600080fd5b505afa158015611da6573d6000803e3d6000fd5b505050506040513d601f19601f82011682018060405250810190611dca9190614fbd565b600080546040516337c61fc560e11b8152929350611e0692620100009091046001600160a01b031691636f8c3f8a91611703919060040161527a565b6000898988818110611e2857634e487b7160e01b600052603260045260246000fd5b9050602002810190611e3a9190615437565b611e489060208101906153f0565b87818110611e6657634e487b7160e01b600052603260045260246000fd5b9050602002016020810190611e7b9190614d62565b6001600160a01b03166370a082318b8b8a818110611ea957634e487b7160e01b600052603260045260246000fd5b9050602002810190611ebb9190615437565b611ec9906020810190614d62565b6040518263ffffffff1660e01b8152600401611ee59190615184565b60206040518083038186803b158015611efd57600080fd5b505afa158015611f11573d6000803e3d6000fd5b505050506040513d601f19601f82011682018060405250810190611f359190614fbd565b9050826001600160a01b03166347e7ef248b8b8a818110611f6657634e487b7160e01b600052603260045260246000fd5b9050602002810190611f789190615437565b611f869060208101906153f0565b89818110611fa457634e487b7160e01b600052603260045260246000fd5b9050602002016020810190611fb99190614d62565b611fc385856154cb565b6040518363ffffffff1660e01b8152600401611fe0929190615198565b600060405180830381600087803b158015611ffa57600080fd5b505af115801561200e573d6000803e3d6000fd5b50505050826001600160a01b031663775c300c6040518163ffffffff1660e01b8152600401600060405180830381600087803b15801561204d57600080fd5b505af1158015612061573d6000803e3d6000fd5b505050505050612150565b600083121561215057806001600160a01b031663f3fef3a38989888181106120a457634e487b7160e01b600052603260045260246000fd5b90506020028101906120b69190615437565b6120c49060208101906153f0565b878181106120e257634e487b7160e01b600052603260045260246000fd5b90506020020160208101906120f79190614d62565b612100866148c0565b6040518363ffffffff1660e01b815260040161211d929190615198565b600060405180830381600087803b15801561213757600080fd5b505af115801561214b573d6000803e3d6000fd5b505050505b505b846001600160a01b031663ee73ccae88888781811061218157634e487b7160e01b600052603260045260246000fd5b90506020028101906121939190615437565b6121a1906020810190614d62565b8989888181106121c157634e487b7160e01b600052603260045260246000fd5b90506020028101906121d39190615437565b6121e490606081019060400161508d565b8a8a8981811061220457634e487b7160e01b600052603260045260246000fd5b90506020028101906122169190615437565b6122249060208101906153f0565b8881811061224257634e487b7160e01b600052603260045260246000fd5b90506020020160208101906122579190614d62565b612260876148c0565b6040516001600160e01b031960e087901b1681526001600160a01b03948516600482015263ffffffff939093166024840152921660448201526064810191909152608401600060405180830381600087803b1580156122be57600080fd5b505af11580156122d2573d6000803e3d6000fd5b50505050505080806122e39061550e565b915050610f62565b50816001600160a01b03166343b17d6385858481811061231b57634e487b7160e01b600052603260045260246000fd5b905060200281019061232d9190615437565b61233b9060208101906153f0565b6040518363ffffffff1660e01b8152600401612358929190615201565b600060405180830381600087803b15801561237257600080fd5b505af1158015612386573d6000803e3d6000fd5b5050505080806123959061550e565b915050610e82565b50505050565b600080546040516337c61fc560e11b8152620100009091046001600160a01b031690636f8c3f8a906123da9060039060040161527a565b60206040518083038186803b1580156123f257600080fd5b505afa158015612406573d6000803e3d6000fd5b505050506040513d601f19601f8201168201806040525081019061242a9190614d7e565b6001600160a01b0316637faa0597836040518263ffffffff1660e01b81526004016124559190615184565b60206040518083038186803b15801561246d57600080fd5b505afa158015612481573d6000803e3d6000fd5b505050506040513d601f19601f820116820180604052508101906124a59190614fa1565b61250f5760405162461bcd60e51b815260206004820152603560248201527f5969656c644d616e616765723a3a67657452657365727665546f6b656e42616c604482015274185b98d94e88151bdad95b881b9bdd081859191959605a1b60648201526084016105b5565b600080546040516337c61fc560e11b81526001600160a01b03808616936370a082319362010000900490911691636f8c3f8a9161254e9160040161527a565b60206040518083038186803b15801561256657600080fd5b505afa15801561257a573d6000803e3d6000fd5b505050506040513d601f19601f8201168201806040525081019061259e9190614d7e565b6040518263ffffffff1660e01b81526004016125ba9190615184565b60206040518083038186803b1580156125d257600080fd5b505afa1580156125e6573d6000803e3d6000fd5b505050506040513d601f19601f8201168201806040525081019061260a9190614fbd565b92915050565b600080546040516337c61fc560e11b8152620100009091046001600160a01b031691636f8c3f8a91612645919060040161527a565b60206040518083038186803b15801561265d57600080fd5b505afa158015612671573d6000803e3d6000fd5b505050506040513d601f19601f820116820180604052508101906126959190614d7e565b6001600160a01b031663f3ae2415336040518263ffffffff1660e01b81526004016126c09190615184565b60206040518083038186803b1580156126d857600080fd5b505afa1580156126ec573d6000803e3d6000fd5b505050506040513d601f19601f820116820180604052508101906127109190614fa1565b61272c5760405162461bcd60e51b81526004016105b590615323565b6000838152600a602052604090204260028201558115612765578281600001600082825461275a919061544c565b9091555061239d9050565b8281600001600082825461277991906154cb565b909155505050505050565b600054610100900460ff1661279f5760005460ff16156127a3565b303b155b6127bf5760405162461bcd60e51b81526004016105b5906152d5565b600054610100900460ff161580156127e1576000805461ffff19166101011790555b6127eb8a8a612ce6565b60038890556004805463ffffffff8981166001600160401b031990921691909117600160201b8983160217600160401b600160801b031916600160401b8883160263ffffffff60601b191617600160601b91871691909102179055600680546001600160a01b03199081166001600160a01b038681169190911790925560078054909116918416919091179055801561288a576000805461ff00191690555b50505050505050505050565b3360009081526001602052604090205460ff166128c55760405162461bcd60e51b81526004016105b590615371565b600080546040516337c61fc560e11b8152620100009091046001600160a01b031690636f8c3f8a906128fc9060039060040161527a565b60206040518083038186803b15801561291457600080fd5b505afa158015612928573d6000803e3d6000fd5b505050506040513d601f19601f8201168201806040525081019061294c9190614d7e565b6001600160a01b0316638b9c94896040518163ffffffff1660e01b815260040160206040518083038186803b15801561298457600080fd5b505afa158015612998573d6000803e3d6000fd5b505050506040513d601f19601f820116820180604052508101906129bc9190614d7e565b6000546040516337c61fc560e11b81526001600160a01b03928316926370a08231926201000090041690636f8c3f8a906129fb9060069060040161527a565b60206040518083038186803b158015612a1357600080fd5b505afa158015612a27573d6000803e3d6000fd5b505050506040513d601f19601f82011682018060405250810190612a4b9190614d7e565b6040518263ffffffff1660e01b8152600401612a679190615184565b60206040518083038186803b158015612a7f57600080fd5b505afa158015612a93573d6000803e3d6000fd5b505050506040513d601f19601f82011682018060405250810190612ab79190614fbd565b1115612c9b576000546040516337c61fc560e11b8152620100009091046001600160a01b031690636f8c3f8a90612af39060069060040161527a565b60206040518083038186803b158015612b0b57600080fd5b505afa158015612b1f573d6000803e3d6000fd5b505050506040513d601f19601f82011682018060405250810190612b439190614d7e565b6001600160a01b031663845fe1d0826040518263ffffffff1660e01b8152600401612b7091815260200190565b602060405180830381600087803b158015612b8a57600080fd5b505af1158015612b9e573d6000803e3d6000fd5b505050506040513d601f19601f82011682018060405250810190612bc29190614fa1565b506000546040516337c61fc560e11b8152620100009091046001600160a01b031690636f8c3f8a90612bf890600490810161527a565b60206040518083038186803b158015612c1057600080fd5b505afa158015612c24573d6000803e3d6000fd5b505050506040513d601f19601f82011682018060405250810190612c489190614d7e565b6001600160a01b0316638c3b32ee6040518163ffffffff1660e01b8152600401600060405180830381600087803b158015612c8257600080fd5b505af1158015612c96573d6000803e3d6000fd5b505050505b50565b3360009081526001602052604090205460ff16612ccd5760405162461bcd60e51b81526004016105b590615371565b612ce16001600160a01b0383168483613fe3565b505050565b600054610100900460ff16612d015760005460ff1615612d05565b303b155b612d215760405162461bcd60e51b81526004016105b5906152d5565b600054610100900460ff16158015612d43576000805461ffff19166101011790555b60005b8351811015612db8576001806000868481518110612d7457634e487b7160e01b600052603260045260246000fd5b6020908102919091018101516001600160a01b03168252810191909152604001600020805460ff191691151591909117905580612db08161550e565b915050612d46565b508251612dcc906002906020860190614bf4565b50612dd682614914565b8015612ce1576000805461ff0019169055505050565b3360009081526001602052604090205460ff16612e1b5760405162461bcd60e51b81526004016105b590615371565b600680546001600160a01b0319166001600160a01b0392909216919091179055565b600080546040516337c61fc560e11b8152620100009091046001600160a01b031691636f8c3f8a91612e72919060040161527a565b60206040518083038186803b158015612e8a57600080fd5b505afa158015612e9e573d6000803e3d6000fd5b505050506040513d601f19601f82011682018060405250810190612ec29190614d7e565b6001600160a01b031663f3ae2415336040518263ffffffff1660e01b8152600401612eed9190615184565b60206040518083038186803b158015612f0557600080fd5b505afa158015612f19573d6000803e3d6000fd5b505050506040513d601f19601f82011682018060405250810190612f3d9190614fa1565b612f595760405162461bcd60e51b81526004016105b590615323565b600080546040516337c61fc560e11b8152620100009091046001600160a01b031690636f8c3f8a90612f909060039060040161527a565b60206040518083038186803b158015612fa857600080fd5b505afa158015612fbc573d6000803e3d6000fd5b505050506040513d601f19601f82011682018060405250810190612fe09190614d7e565b90506000816001600160a01b0316638b9c94896040518163ffffffff1660e01b815260040160206040518083038186803b15801561301d57600080fd5b505afa158015613031573d6000803e3d6000fd5b505050506040513d601f19601f820116820180604052508101906130559190614d7e565b6040516370a0823160e01b815290915081906000906001600160a01b038316906370a0823190613089903090600401615184565b60206040518083038186803b1580156130a157600080fd5b505afa1580156130b5573d6000803e3d6000fd5b505050506040513d601f19601f820116820180604052508101906130d99190614fbd565b905060005b8781101561317e5788888281811061310657634e487b7160e01b600052603260045260246000fd5b905060200201602081019061311b9190614d62565b6001600160a01b031663e8d991d16040518163ffffffff1660e01b8152600401600060405180830381600087803b15801561315557600080fd5b505af1158015613169573d6000803e3d6000fd5b50505050806131779061550e565b90506130de565b50600081836001600160a01b03166370a08231306040518263ffffffff1660e01b81526004016131ae9190615184565b60206040518083038186803b1580156131c657600080fd5b505afa1580156131da573d6000803e3d6000fd5b505050506040513d601f19601f820116820180604052508101906131fe9190614fbd565b61320891906154cb565b905085156132515760008a8152600a60205260408120908861322a578261322c565b885b42600284015582549091508190839060009061324990849061544c565b909155505050505b7fa9a14fcdc28aab52a344552b438679255aeba8f4b5da515e4235df36939feec08a8a8a8460405161328694939291906153c5565b60405180910390a150505050505050505050565b600080546040516337c61fc560e11b8152620100009091046001600160a01b031691636f8c3f8a916132cf919060040161527a565b60206040518083038186803b1580156132e757600080fd5b505afa1580156132fb573d6000803e3d6000fd5b505050506040513d601f19601f8201168201806040525081019061331f9190614d7e565b6001600160a01b0316632f54bf6e336040518263ffffffff1660e01b815260040161334a9190615184565b60206040518083038186803b15801561336257600080fd5b505afa158015613376573d6000803e3d6000fd5b505050506040513d601f19601f8201168201806040525081019061339a9190614fa1565b6133f95760405162461bcd60e51b815260206004820152602a60248201527f436f6e74726f6c6c65643a3a6f6e6c794f776e65723a2043616c6c6572206973604482015269103737ba1037bbb732b960b11b60648201526084016105b5565b6001600160a01b03811660009081526001602081905260408220805460ff19169091179055805b600254811015613481576002818154811061344b57634e487b7160e01b600052603260045260246000fd5b6000918252602090912001546001600160a01b038481169116141561346f57600191505b806134798161550e565b915050613420565b50806134d357600280546001810182556000919091527f405787fa12a823e0f2b7631cc41b3ba8828b3321ca811111fa75cd3aa3bb5ace0180546001600160a01b0319166001600160a01b0384161790555b5050565b3360009081526001602052604090205460ff166135065760405162461bcd60e51b81526004016105b590615371565b600780546001600160a01b0319166001600160a01b0392909216919091179055565b600080546040516337c61fc560e11b8152620100009091046001600160a01b031690636f8c3f8a9061355f9060039060040161527a565b60206040518083038186803b15801561357757600080fd5b505afa15801561358b573d6000803e3d6000fd5b505050506040513d601f19601f820116820180604052508101906135af9190614d7e565b6001600160a01b0316637faa0597836040518263ffffffff1660e01b81526004016135da9190615184565b60206040518083038186803b1580156135f257600080fd5b505afa158015613606573d6000803e3d6000fd5b505050506040513d601f19601f8201168201806040525081019061362a9190614fa1565b61369b5760405162461bcd60e51b815260206004820152603c60248201527f5969656c644d616e616765723a3a67657444657369726564526573657276655460448201527b1bdad95b90985b185b98d94e88151bdad95b881b9bdd08185919195960221b60648201526084016105b5565b600080546040516337c61fc560e11b8152620100009091046001600160a01b031690636f8c3f8a906136d29060039060040161527a565b60206040518083038186803b1580156136ea57600080fd5b505afa1580156136fe573d6000803e3d6000fd5b505050506040513d601f19601f820116820180604052508101906137229190614d7e565b6001600160a01b03166385cce6ca846040518263ffffffff1660e01b815260040161374d9190615184565b60206040518083038186803b15801561376557600080fd5b505afa158015613779573d6000803e3d6000fd5b505050506040513d601f19601f8201168201806040525081019061379d9190614fbd565b600080546040516337c61fc560e11b81529293509091620100009091046001600160a01b031690636f8c3f8a906137d99060089060040161527a565b60206040518083038186803b1580156137f157600080fd5b505afa158015613805573d6000803e3d6000fd5b505050506040513d601f19601f820116820180604052508101906138299190614d7e565b6001600160a01b031663a742d0b6856040518263ffffffff1660e01b81526004016138549190615184565b60206040518083038186803b15801561386c57600080fd5b505afa158015613880573d6000803e3d6000fd5b505050506040513d601f19601f820116820180604052508101906138a49190614fbd565b6000546040516337c61fc560e11b81529192506201000090046001600160a01b031690636f8c3f8a906138dc9060039060040161527a565b60206040518083038186803b1580156138f457600080fd5b505afa158015613908573d6000803e3d6000fd5b505050506040513d601f19601f8201168201806040525081019061392c9190614d7e565b6001600160a01b031663e87e53aa6040518163ffffffff1660e01b815260040160206040518083038186803b15801561396457600080fd5b505afa158015613978573d6000803e3d6000fd5b505050506040513d601f19601f8201168201806040525081019061399c91906150a9565b63ffffffff166139ac83836154ac565b6139b6919061548c565b949350505050565b6139e260405180606001604052806000815260200160008152602001600081525090565b506000908152600a6020908152604091829020825160608101845281548152600182015492810192909252600201549181019190915290565b3360009081526001602052604090205460ff16613a4a5760405162461bcd60e51b81526004016105b590615371565b6004805463ffffffff9586166001600160401b031990911617600160201b9486169490940293909317600160401b600160801b031916600160401b9285169290920263ffffffff60601b191691909117600160601b9190931602919091179055565b60028181548110613abc57600080fd5b6000918252602090912001546001600160a01b0316905081565b600080546040516337c61fc560e11b815282916201000090046001600160a01b031690636f8c3f8a90613b0e9060039060040161527a565b60206040518083038186803b158015613b2657600080fd5b505afa158015613b3a573d6000803e3d6000fd5b505050506040513d601f19601f82011682018060405250810190613b5e9190614d7e565b90506000816001600160a01b0316637d6145d36040518163ffffffff1660e01b815260040160206040518083038186803b158015613b9b57600080fd5b505afa158015613baf573d6000803e3d6000fd5b505050506040513d601f19601f82011682018060405250810190613bd39190614fbd565b905060005b81811015613cf157604051630dd0cf1f60e11b8152600481018290526001600160a01b03841690631ba19e3e9060240160206040518083038186803b158015613c2057600080fd5b505afa158015613c34573d6000803e3d6000fd5b505050506040513d601f19601f82011682018060405250810190613c589190614d7e565b6001600160a01b031663f8b2cb4f866040518263ffffffff1660e01b8152600401613c839190615184565b60206040518083038186803b158015613c9b57600080fd5b505afa158015613caf573d6000803e3d6000fd5b505050506040513d601f19601f82011682018060405250810190613cd39190614fbd565b613cdd908561544c565b935080613ce98161550e565b915050613bd8565b505050919050565b600080546040516337c61fc560e11b8152606092916201000090046001600160a01b031690636f8c3f8a90613d339060039060040161527a565b60206040518083038186803b158015613d4b57600080fd5b505afa158015613d5f573d6000803e3d6000fd5b505050506040513d601f19601f82011682018060405250810190613d839190614d7e565b90506000816001600160a01b0316637d6145d36040518163ffffffff1660e01b815260040160206040518083038186803b158015613dc057600080fd5b505afa158015613dd4573d6000803e3d6000fd5b505050506040513d601f19601f82011682018060405250810190613df89190614fbd565b9050806001600160401b03811115613e2057634e487b7160e01b600052604160045260246000fd5b604051908082528060200260200182016040528015613e6b57816020015b6040805160608101825260008082526020808301829052928201528252600019909201910181613e3e5790505b50925060005b81811015613cf157604051630dd0cf1f60e11b8152600481018290526000906001600160a01b03851690631ba19e3e9060240160206040518083038186803b158015613ebc57600080fd5b505afa158015613ed0573d6000803e3d6000fd5b505050506040513d601f19601f82011682018060405250810190613ef49190614d7e565b90506000816001600160a01b031663537bb137886040518263ffffffff1660e01b8152600401613f249190615184565b60206040518083038186803b158015613f3c57600080fd5b505afa158015613f50573d6000803e3d6000fd5b505050506040513d601f19601f82011682018060405250810190613f749190614fbd565b90506040518060600160405280836001600160a01b03168152602001886001600160a01b0316815260200182815250868481518110613fc357634e487b7160e01b600052603260045260246000fd5b602002602001018190525050508080613fdb9061550e565b915050613e71565b612ce18363a9059cbb60e01b8484604051602401614002929190615198565b60408051601f198184030181529190526020810180516001600160e01b03166001600160e01b0319909316929092179091526149a8565b600080546040516337c61fc560e11b8152620100009091046001600160a01b031690636f8c3f8a906140709060039060040161527a565b60206040518083038186803b15801561408857600080fd5b505afa15801561409c573d6000803e3d6000fd5b505050506040513d601f19601f820116820180604052508101906140c09190614d7e565b90506000816001600160a01b03166344fc9b566040518163ffffffff1660e01b815260040160206040518083038186803b1580156140fd57600080fd5b505afa158015614111573d6000803e3d6000fd5b505050506040513d601f19601f820116820180604052508101906141359190614d7e565b90506000826001600160a01b0316638b9c94896040518163ffffffff1660e01b815260040160206040518083038186803b15801561417257600080fd5b505afa158015614186573d6000803e3d6000fd5b505050506040513d601f19601f820116820180604052508101906141aa9190614d7e565b600080546040516337c61fc560e11b81529293509091620100009091046001600160a01b031690636f8c3f8a906141e69060019060040161527a565b60206040518083038186803b1580156141fe57600080fd5b505afa158015614212573d6000803e3d6000fd5b505050506040513d601f19601f820116820180604052508101906142369190614d7e565b6001600160a01b031663f5465992846040518263ffffffff1660e01b81526004016142619190615184565b60206040518083038186803b15801561427957600080fd5b505afa15801561428d573d6000803e3d6000fd5b505050506040513d601f19601f820116820180604052508101906142b19190614fbd565b11156144bd576000546040516337c61fc560e11b8152620100009091046001600160a01b031690636f8c3f8a906142ed9060059060040161527a565b60206040518083038186803b15801561430557600080fd5b505afa158015614319573d6000803e3d6000fd5b505050506040513d601f19601f8201168201806040525081019061433d9190614d7e565b60405163f4f104b560e01b815260006004820152602481018690526001600160a01b03919091169063f4f104b590604401600060405180830381600087803b15801561438857600080fd5b505af115801561439c573d6000803e3d6000fd5b5050604051632e1a7d4d60e01b8152600481018790526001600160a01b0384169250632e1a7d4d9150602401600060405180830381600087803b1580156143e257600080fd5b505af11580156143f6573d6000803e3d6000fd5b5050600080546040516337c61fc560e11b8152620100009091046001600160a01b03169350636f8c3f8a925061442f919060040161527a565b60206040518083038186803b15801561444757600080fd5b505afa15801561445b573d6000803e3d6000fd5b505050506040513d601f19601f8201168201806040525081019061447f9190614d7e565b6001600160a01b03166108fc859081150290604051600060405180830381858888f193505050501580156144b7573d6000803e3d6000fd5b5061239d565b600080546040516337c61fc560e11b81526001600160a01b038085169363a9059cbb9362010000900490911691636f8c3f8a916144fc9160040161527a565b60206040518083038186803b15801561451457600080fd5b505afa158015614528573d6000803e3d6000fd5b505050506040513d601f19601f8201168201806040525081019061454c9190614d7e565b866040518363ffffffff1660e01b815260040161456a929190615198565b602060405180830381600087803b15801561458457600080fd5b505af1158015614598573d6000803e3d6000fd5b505050506040513d601f19601f82011682018060405250810190612c969190614fa1565b80156134d357600080546040516337c61fc560e11b8152620100009091046001600160a01b031690636f8c3f8a906145f99060039060040161527a565b60206040518083038186803b15801561461157600080fd5b505afa158015614625573d6000803e3d6000fd5b505050506040513d601f19601f820116820180604052508101906146499190614d7e565b90506000816001600160a01b0316638b9c94896040518163ffffffff1660e01b815260040160206040518083038186803b15801561468657600080fd5b505afa15801561469a573d6000803e3d6000fd5b505050506040513d601f19601f820116820180604052508101906146be9190614d7e565b6000546040516337c61fc560e11b81529192506201000090046001600160a01b031690636f8c3f8a906146f69060059060040161527a565b60206040518083038186803b15801561470e57600080fd5b505afa158015614722573d6000803e3d6000fd5b505050506040513d601f19601f820116820180604052508101906147469190614d7e565b60405163f4f104b560e01b815260048101869052602481018590526001600160a01b03919091169063f4f104b590604401600060405180830381600087803b15801561479157600080fd5b505af11580156147a5573d6000803e3d6000fd5b5050604051632e1a7d4d60e01b8152600481018690526001600160a01b0384169250632e1a7d4d9150602401600060405180830381600087803b1580156147eb57600080fd5b505af11580156147ff573d6000803e3d6000fd5b5050600080546040516337c61fc560e11b8152620100009091046001600160a01b03169350636f8c3f8a9250614838919060040161527a565b60206040518083038186803b15801561485057600080fd5b505afa158015614864573d6000803e3d6000fd5b505050506040513d601f19601f820116820180604052508101906148889190614d7e565b6001600160a01b03166108fc849081150290604051600060405180830381858888f19350505050158015612c96573d6000803e3d6000fd5b6000808212156148d8576148d382615529565b61260a565b5090565b6040516001600160a01b038085166024830152831660448201526064810182905261239d9085906323b872dd60e01b90608401614002565b600054610100900460ff1661492f5760005460ff1615614933565b303b155b61494f5760405162461bcd60e51b81526004016105b5906152d5565b600054610100900460ff16158015614971576000805461ffff19166101011790555b6000805462010000600160b01b031916620100006001600160a01b0385160217905580156134d3576000805461ff00191690555050565b60006149fd826040518060400160405280602081526020017f5361666545524332303a206c6f772d6c6576656c2063616c6c206661696c6564815250856001600160a01b0316614a7a9092919063ffffffff16565b805190915015612ce15780806020019051810190614a1b9190614fa1565b612ce15760405162461bcd60e51b815260206004820152602a60248201527f5361666545524332303a204552433230206f7065726174696f6e20646964206e6044820152691bdd081cdd58d8d9595960b21b60648201526084016105b5565b6060614a898484600085614a93565b90505b9392505050565b606082471015614af45760405162461bcd60e51b815260206004820152602660248201527f416464726573733a20696e73756666696369656e742062616c616e636520666f6044820152651c8818d85b1b60d21b60648201526084016105b5565b843b614b425760405162461bcd60e51b815260206004820152601d60248201527f416464726573733a2063616c6c20746f206e6f6e2d636f6e747261637400000060448201526064016105b5565b600080866001600160a01b03168587604051614b5e9190615168565b60006040518083038185875af1925050503d8060008114614b9b576040519150601f19603f3d011682016040523d82523d6000602084013e614ba0565b606091505b5091509150614bb0828286614bbb565b979650505050505050565b60608315614bca575081614a8c565b825115614bda5782518084602001fd5b8160405162461bcd60e51b81526004016105b591906152a2565b828054828255906000526020600020908101928215614c49579160200282015b82811115614c4957825182546001600160a01b0319166001600160a01b03909116178255602090920191600190910190614c14565b506148d89291505b808211156148d85760008155600101614c51565b8035614c708161556f565b919050565b60008083601f840112614c86578182fd5b5081356001600160401b03811115614c9c578182fd5b6020830191508360208260051b8501011115614cb757600080fd5b9250929050565b600082601f830112614cce578081fd5b813560206001600160401b0380831115614cea57614cea615559565b8260051b604051601f19603f83011681018181108482111715614d0f57614d0f615559565b60405284815283810192508684018288018501891015614d2d578687fd5b8692505b85831015614d5657614d4281614c65565b845292840192600192909201918401614d31565b50979650505050505050565b600060208284031215614d73578081fd5b8135614a8c8161556f565b600060208284031215614d8f578081fd5b8151614a8c8161556f565b600080600060608486031215614dae578182fd5b8335614db98161556f565b92506020840135614dc98161556f565b929592945050506040919091013590565b60008060408385031215614dec578182fd5b82356001600160401b03811115614e01578283fd5b614e0d85828601614cbe565b9250506020830135614e1e8161556f565b809150509250929050565b60008060008060008060008060006101208a8c031215614e47578485fd5b89356001600160401b03811115614e5c578586fd5b614e688c828d01614cbe565b99505060208a0135614e798161556f565b975060408a0135965060608a0135614e9081615592565b955060808a0135614ea081615592565b945060a08a0135614eb081615592565b935060c08a0135614ec081615592565b925060e08a0135614ed08161556f565b91506101008a0135614ee18161556f565b809150509295985092959850929598565b60008060208385031215614f04578182fd5b82356001600160401b03811115614f19578283fd5b614f2585828601614c75565b90969095509350505050565b600080600080600060608688031215614f48578081fd5b85356001600160401b0380821115614f5e578283fd5b614f6a89838a01614c75565b90975095506020880135915080821115614f82578283fd5b50614f8f88828901614c75565b96999598509660400135949350505050565b600060208284031215614fb2578081fd5b8151614a8c81615584565b600060208284031215614fce578081fd5b5051919050565b600060208284031215614fe6578081fd5b5035919050565b600080600080600060808688031215615004578283fd5b8535945060208601356001600160401b03811115615020578384fd5b61502c88828901614c75565b90955093505060408601359150606086013561504781615584565b809150509295509295909350565b600080600060608486031215615069578081fd5b8335925060208401359150604084013561508281615584565b809150509250925092565b60006020828403121561509e578081fd5b8135614a8c81615592565b6000602082840312156150ba578081fd5b8151614a8c81615592565b600080600080608085870312156150da578182fd5b84356150e581615592565b935060208501356150f581615592565b9250604085013561510581615592565b9150606085013561511581615592565b939692955090935050565b81835260006020808501945082825b8581101561515d5781356151428161556f565b6001600160a01b03168752958201959082019060010161512f565b509495945050505050565b6000825161517a8184602087016154e2565b9190910192915050565b6001600160a01b0391909116815260200190565b6001600160a01b03929092168252602082015260400190565b6001600160a01b03939093168352602083019190915263ffffffff16604082015260600190565b6001600160a01b03938416815263ffffffff929092166020830152909116604082015260600190565b602081526000614a89602083018486615120565b602080825282518282018190526000919060409081850190868401855b8281101561526d57815180516001600160a01b0390811686528782015116878601528501518585015260609093019290850190600101615232565b5091979650505050505050565b60208101600c831061529c57634e487b7160e01b600052602160045260246000fd5b91905290565b60208152600082518060208401526152c18160408501602087016154e2565b601f01601f19169190910160400192915050565b6020808252602e908201527f496e697469616c697a61626c653a20636f6e747261637420697320616c72656160408201526d191e481a5b9a5d1a585b1a5e995960921b606082015260800190565b6020808252602e908201527f436f6e74726f6c6c65643a3a6f6e6c794d616e616765723a2043616c6c65722060408201526d34b9903737ba1036b0b730b3b2b960911b606082015260800190565b60208082526034908201527f436f6e74726f6c6c65643a3a6f6e6c79436f6e74726f6c6c65723a2043616c6c60408201527332b91034b9903737ba1031b7b73a3937b63632b960611b606082015260800190565b8481526060602082015260006153df606083018587615120565b905082604083015295945050505050565b6000808335601e19843603018112615406578283fd5b8301803591506001600160401b0382111561541f578283fd5b6020019150600581901b3603821315614cb757600080fd5b60008235605e1983360301811261517a578182fd5b6000821982111561545f5761545f615543565b500190565b600063ffffffff80831681851680830382111561548357615483615543565b01949350505050565b6000826154a757634e487b7160e01b81526012600452602481fd5b500490565b60008160001904831182151516156154c6576154c6615543565b500290565b6000828210156154dd576154dd615543565b500390565b60005b838110156154fd5781810151838201526020016154e5565b8381111561239d5750506000910152565b600060001982141561552257615522615543565b5060010190565b6000600160ff1b82141561553f5761553f615543565b0390565b634e487b7160e01b600052601160045260246000fd5b634e487b7160e01b600052604160045260246000fd5b6001600160a01b0381168114612c9b57600080fd5b8015158114612c9b57600080fd5b63ffffffff81168114612c9b57600080fdfea26469706673582212203e1e56685b206482ff927ff7464ac13b3547915cfcd2a9997f4d5eb7ab73003864736f6c63430008040033",
  "devdoc": {
    "kind": "dev",
    "methods": {
      "biosBuyBack(uint256)": {
        "params": {
          "ratioX1000": "BIOS/WETH ratio for front runner protection"
        }
      },
      "distributeEth(uint256[],uint256[],uint256)": {
        "params": {
          "biosAmount": "Amount of bios deposited to prevent flashing",
          "ids": "An aray of strategy IDs to distribute eth for",
          "positions": "An array of the total position value for the strategy to prevent flashing"
        }
      },
      "getDesiredReserveTokenBalance(address)": {
        "params": {
          "tokenAddress": "The address of the token ERC20 contract"
        },
        "returns": {
          "_0": "The desired amount of the token to hold in the Kernel as reserves"
        }
      },
      "getEthDistributionWeights()": {
        "returns": {
          "_0": "The BIOS buyback ETH weight",
          "_1": "The Treasury ETH weight",
          "_2": "The Protocol fee ETH weight",
          "_3": "The rewards ETH weight"
        }
      },
      "getEthWeightSum()": {
        "returns": {
          "ethWeightSum": "The sum of ETH distribution weights"
        }
      },
      "getGasAccount()": {
        "returns": {
          "_0": "The address of the gas account"
        }
      },
      "getGasAccountTargetEthBalance()": {
        "returns": {
          "_0": "The target ETH balance of the gas account"
        }
      },
      "getLastEthRewardsAmount()": {
        "returns": {
          "_0": "The last amount of ETH distributed to rewards"
        }
      },
      "getLastHarvestYieldTimestamp(address)": {
        "returns": {
          "_0": "The timestamp the harvestYield function was last called"
        }
      },
      "getReserveTokenBalance(address)": {
        "params": {
          "tokenAddress": "The address of the token ERC20 contract"
        },
        "returns": {
          "_0": "The amount of the token held in the Kernel as reserves"
        }
      },
      "getTokenTotalIntegrationBalance(address)": {
        "params": {
          "tokenAddress": "The address of the token ERC20 contract"
        },
        "returns": {
          "tokenTotalIntegrationBalance": "The total amount of the token that can be withdrawn from integrations"
        }
      },
      "getTreasuryAccount()": {
        "returns": {
          "_0": "The address of the treasury account"
        }
      },
      "harvestYield(uint256,address[],uint256,bool)": {
        "params": {
          "integrations": "The integrations to harvest yield from",
          "strategyId": "Strategy to credit the yield to"
        }
      },
      "initialize(address[],address,uint256,uint32,uint32,uint32,uint32,address,address)": {
        "params": {
          "biosBuyBackEthWeight_": "The relative weight of ETH to send to BIOS buy back",
          "controllers_": "The addresses of the controlling contracts",
          "gasAccountTargetEthBalance_": "The target ETH balance of the gas account",
          "gasAccount_": "The address of the account to send ETH to gas for executing bulk system functions",
          "moduleMap_": "Address of the Module Map",
          "protocolFeeEthWeight_": "The relative weight of ETH to send to protocol fee accrual",
          "rewardsEthWeight_": "The relative weight of ETH to send to user rewards",
          "treasuryAccount_": "The address of the system treasury account",
          "treasuryEthWeight_": "The relative weight of ETH to send to the treasury"
        }
      },
      "updateEthDistributionWeights(uint32,uint32,uint32,uint32)": {
        "params": {
          "biosBuyBackEthWeight_": "The relative weight of ETH to send to BIOS buy back",
          "protocolFeeEthWeight_": "The relative weight of ETH to send to protocol fee accrual",
          "rewardsEthWeight_": "The relative weight of ETH to send to user rewards",
          "treasuryEthWeight_": "The relative weight of ETH to send to the treasury"
        }
      },
      "updateGasAccount(address)": {
        "params": {
          "gasAccount_": "The address of the account to send ETH to gas for executing bulk system functions"
        }
      },
      "updateGasAccountTargetEthBalance(uint256)": {
        "params": {
          "gasAccountTargetEthBalance_": "The target ETH balance of the gas account"
        }
      },
      "updateTreasuryAccount(address)": {
        "params": {
          "treasuryAccount_": "The address of the system treasury account"
        }
      }
    },
    "title": "Yield Manager",
    "version": 1
  },
  "userdoc": {
    "kind": "user",
    "methods": {
      "biosBuyBack(uint256)": {
        "notice": "Uses any WETH held in the SushiSwap trader to buy back BIOS which is sent to the Kernel"
      },
      "deploy((address,address[],uint32)[])": {
        "notice": "Deploys all tokens to all integrations according to configured weights"
      },
      "distributeEth(uint256[],uint256[],uint256)": {
        "notice": "Distributes ETH to the gas account, BIOS buy back, treasury, protocol fee accrual, and user rewards"
      },
      "harvestYield(uint256,address[],uint256,bool)": {
        "notice": "Harvests available yield from provided and integration, credited to strategy"
      }
    },
    "notice": "Manages yield deployments, harvesting, processing, and distribution",
    "version": 1
  },
  "storageLayout": {
    "storage": [
      {
        "astId": 723,
        "contract": "contracts/core/YieldManager.sol:YieldManager",
        "label": "_initialized",
        "offset": 0,
        "slot": "0",
        "type": "t_bool"
      },
      {
        "astId": 726,
        "contract": "contracts/core/YieldManager.sol:YieldManager",
        "label": "_initializing",
        "offset": 1,
        "slot": "0",
        "type": "t_bool"
      },
      {
        "astId": 9727,
        "contract": "contracts/core/YieldManager.sol:YieldManager",
        "label": "moduleMap",
        "offset": 2,
        "slot": "0",
        "type": "t_contract(IModuleMap)19935"
      },
      {
        "astId": 4667,
        "contract": "contracts/core/YieldManager.sol:YieldManager",
        "label": "_controllers",
        "offset": 0,
        "slot": "1",
        "type": "t_mapping(t_address,t_bool)"
      },
      {
        "astId": 4670,
        "contract": "contracts/core/YieldManager.sol:YieldManager",
        "label": "controllers",
        "offset": 0,
        "slot": "2",
        "type": "t_array(t_address)dyn_storage"
      },
      {
        "astId": 16690,
        "contract": "contracts/core/YieldManager.sol:YieldManager",
        "label": "gasAccountTargetEthBalance",
        "offset": 0,
        "slot": "3",
        "type": "t_uint256"
      },
      {
        "astId": 16692,
        "contract": "contracts/core/YieldManager.sol:YieldManager",
        "label": "biosBuyBackEthWeight",
        "offset": 0,
        "slot": "4",
        "type": "t_uint32"
      },
      {
        "astId": 16694,
        "contract": "contracts/core/YieldManager.sol:YieldManager",
        "label": "treasuryEthWeight",
        "offset": 4,
        "slot": "4",
        "type": "t_uint32"
      },
      {
        "astId": 16696,
        "contract": "contracts/core/YieldManager.sol:YieldManager",
        "label": "protocolFeeEthWeight",
        "offset": 8,
        "slot": "4",
        "type": "t_uint32"
      },
      {
        "astId": 16698,
        "contract": "contracts/core/YieldManager.sol:YieldManager",
        "label": "rewardsEthWeight",
        "offset": 12,
        "slot": "4",
        "type": "t_uint32"
      },
      {
        "astId": 16700,
        "contract": "contracts/core/YieldManager.sol:YieldManager",
        "label": "lastEthRewardsAmount",
        "offset": 0,
        "slot": "5",
        "type": "t_uint256"
      },
      {
        "astId": 16702,
        "contract": "contracts/core/YieldManager.sol:YieldManager",
        "label": "gasAccount",
        "offset": 0,
        "slot": "6",
        "type": "t_address_payable"
      },
      {
        "astId": 16704,
        "contract": "contracts/core/YieldManager.sol:YieldManager",
        "label": "treasuryAccount",
        "offset": 0,
        "slot": "7",
        "type": "t_address_payable"
      },
      {
        "astId": 16708,
        "contract": "contracts/core/YieldManager.sol:YieldManager",
        "label": "processedWethByToken",
        "offset": 0,
        "slot": "8",
        "type": "t_mapping(t_address,t_uint256)"
      },
      {
        "astId": 16712,
        "contract": "contracts/core/YieldManager.sol:YieldManager",
        "label": "lastHarvestTimestampByIntegration",
        "offset": 0,
        "slot": "9",
        "type": "t_mapping(t_address,t_uint256)"
      },
      {
        "astId": 16717,
        "contract": "contracts/core/YieldManager.sol:YieldManager",
        "label": "strategies",
        "offset": 0,
        "slot": "10",
        "type": "t_mapping(t_uint256,t_struct(StrategyInfo)21842_storage)"
      }
    ],
    "types": {
      "t_address": {
        "encoding": "inplace",
        "label": "address",
        "numberOfBytes": "20"
      },
      "t_address_payable": {
        "encoding": "inplace",
        "label": "address payable",
        "numberOfBytes": "20"
      },
      "t_array(t_address)dyn_storage": {
        "base": "t_address",
        "encoding": "dynamic_array",
        "label": "address[]",
        "numberOfBytes": "32"
      },
      "t_bool": {
        "encoding": "inplace",
        "label": "bool",
        "numberOfBytes": "1"
      },
      "t_contract(IModuleMap)19935": {
        "encoding": "inplace",
        "label": "contract IModuleMap",
        "numberOfBytes": "20"
      },
      "t_mapping(t_address,t_bool)": {
        "encoding": "mapping",
        "key": "t_address",
        "label": "mapping(address => bool)",
        "numberOfBytes": "32",
        "value": "t_bool"
      },
      "t_mapping(t_address,t_uint256)": {
        "encoding": "mapping",
        "key": "t_address",
        "label": "mapping(address => uint256)",
        "numberOfBytes": "32",
        "value": "t_uint256"
      },
      "t_mapping(t_uint256,t_struct(StrategyInfo)21842_storage)": {
        "encoding": "mapping",
        "key": "t_uint256",
        "label": "mapping(uint256 => struct IYieldManager.StrategyInfo)",
        "numberOfBytes": "32",
        "value": "t_struct(StrategyInfo)21842_storage"
      },
      "t_struct(StrategyInfo)21842_storage": {
        "encoding": "inplace",
        "label": "struct IYieldManager.StrategyInfo",
        "members": [
          {
            "astId": 21837,
            "contract": "contracts/core/YieldManager.sol:YieldManager",
            "label": "processedWeth",
            "offset": 0,
            "slot": "0",
            "type": "t_uint256"
          },
          {
            "astId": 21839,
            "contract": "contracts/core/YieldManager.sol:YieldManager",
            "label": "distributedWeth",
            "offset": 0,
            "slot": "1",
            "type": "t_uint256"
          },
          {
            "astId": 21841,
            "contract": "contracts/core/YieldManager.sol:YieldManager",
            "label": "lastHarvest",
            "offset": 0,
            "slot": "2",
            "type": "t_uint256"
          }
        ],
        "numberOfBytes": "96"
      },
      "t_uint256": {
        "encoding": "inplace",
        "label": "uint256",
        "numberOfBytes": "32"
      },
      "t_uint32": {
        "encoding": "inplace",
        "label": "uint32",
        "numberOfBytes": "4"
      }
    }
  }
}