{
  "address": "0x19E4a72890C4e56232Fa77eeC0bB3BAB120b84Bb",
  "abi": [
    {
      "anonymous": false,
      "inputs": [],
      "name": "BiosBuyBack",
      "type": "event"
    },
    {
      "anonymous": false,
      "inputs": [
        {
          "indexed": true,
          "internalType": "address",
          "name": "user",
          "type": "address"
        },
        {
          "indexed": false,
          "internalType": "uint256",
          "name": "biosRewards",
          "type": "uint256"
        }
      ],
      "name": "ClaimBiosRewards",
      "type": "event"
    },
    {
      "anonymous": false,
      "inputs": [
        {
          "indexed": true,
          "internalType": "address",
          "name": "user",
          "type": "address"
        },
        {
          "indexed": false,
          "internalType": "uint256[]",
          "name": "strategies",
          "type": "uint256[]"
        },
        {
          "indexed": false,
          "internalType": "uint256",
          "name": "ethRewards",
          "type": "uint256"
        }
      ],
      "name": "ClaimEthRewards",
      "type": "event"
    },
    {
      "anonymous": false,
      "inputs": [],
      "name": "Deploy",
      "type": "event"
    },
    {
      "anonymous": false,
      "inputs": [],
      "name": "DistributeEth",
      "type": "event"
    },
    {
      "anonymous": false,
      "inputs": [
        {
          "indexed": false,
          "internalType": "uint32",
          "name": "biosBuyBackEthWeight",
          "type": "uint32"
        },
        {
          "indexed": false,
          "internalType": "uint32",
          "name": "treasuryEthWeight",
          "type": "uint32"
        },
        {
          "indexed": false,
          "internalType": "uint32",
          "name": "protocolFeeEthWeight",
          "type": "uint32"
        },
        {
          "indexed": false,
          "internalType": "uint32",
          "name": "rewardsEthWeight",
          "type": "uint32"
        }
      ],
      "name": "EthDistributionWeightsUpdated",
      "type": "event"
    },
    {
      "anonymous": false,
      "inputs": [
        {
          "indexed": false,
          "internalType": "uint256",
          "name": "gasAccountTargetEthBalance",
          "type": "uint256"
        }
      ],
      "name": "GasAccountTargetEthBalanceUpdated",
      "type": "event"
    },
    {
      "anonymous": false,
      "inputs": [
        {
          "indexed": false,
          "internalType": "address",
          "name": "gasAccount",
          "type": "address"
        }
      ],
      "name": "GasAccountUpdated",
      "type": "event"
    },
    {
      "anonymous": false,
      "inputs": [],
      "name": "HarvestYield",
      "type": "event"
    },
    {
      "anonymous": false,
      "inputs": [
        {
          "indexed": true,
          "internalType": "address",
          "name": "contractAddress",
          "type": "address"
        },
        {
          "indexed": false,
          "internalType": "string",
          "name": "name",
          "type": "string"
        }
      ],
      "name": "IntegrationAdded",
      "type": "event"
    },
    {
      "anonymous": false,
      "inputs": [
        {
          "indexed": true,
          "internalType": "bytes32",
          "name": "role",
          "type": "bytes32"
        },
        {
          "indexed": true,
          "internalType": "bytes32",
          "name": "previousAdminRole",
          "type": "bytes32"
        },
        {
          "indexed": true,
          "internalType": "bytes32",
          "name": "newAdminRole",
          "type": "bytes32"
        }
      ],
      "name": "RoleAdminChanged",
      "type": "event"
    },
    {
      "anonymous": false,
      "inputs": [
        {
          "indexed": true,
          "internalType": "bytes32",
          "name": "role",
          "type": "bytes32"
        },
        {
          "indexed": true,
          "internalType": "address",
          "name": "account",
          "type": "address"
        },
        {
          "indexed": true,
          "internalType": "address",
          "name": "sender",
          "type": "address"
        }
      ],
      "name": "RoleGranted",
      "type": "event"
    },
    {
      "anonymous": false,
      "inputs": [
        {
          "indexed": true,
          "internalType": "bytes32",
          "name": "role",
          "type": "bytes32"
        },
        {
          "indexed": true,
          "internalType": "address",
          "name": "account",
          "type": "address"
        },
        {
          "indexed": true,
          "internalType": "address",
          "name": "sender",
          "type": "address"
        }
      ],
      "name": "RoleRevoked",
      "type": "event"
    },
    {
      "anonymous": false,
      "inputs": [
        {
          "indexed": false,
          "internalType": "uint256",
          "name": "biosAmount",
          "type": "uint256"
        }
      ],
      "name": "SeedBiosRewards",
      "type": "event"
    },
    {
      "anonymous": false,
      "inputs": [
        {
          "indexed": false,
          "internalType": "uint32",
          "name": "biosRewardsDuration",
          "type": "uint32"
        }
      ],
      "name": "SetBiosRewardsDuration",
      "type": "event"
    },
    {
      "anonymous": false,
      "inputs": [
        {
          "indexed": true,
          "internalType": "address",
          "name": "tokenAddress",
          "type": "address"
        },
        {
          "indexed": false,
          "internalType": "bool",
          "name": "acceptingDeposits",
          "type": "bool"
        },
        {
          "indexed": false,
          "internalType": "bool",
          "name": "acceptingWithdrawals",
          "type": "bool"
        },
        {
          "indexed": false,
          "internalType": "bool",
          "name": "acceptingLping",
          "type": "bool"
        },
        {
          "indexed": false,
          "internalType": "bool",
          "name": "acceptingBridging",
          "type": "bool"
        },
        {
          "indexed": false,
          "internalType": "uint256",
          "name": "biosRewardWeight",
          "type": "uint256"
        },
        {
          "indexed": false,
          "internalType": "uint256",
          "name": "reserveRatioNumerator",
          "type": "uint256"
        },
        {
          "indexed": false,
          "internalType": "uint256",
          "name": "targetLiquidityRatioNumerator",
          "type": "uint256"
        },
        {
          "indexed": false,
          "internalType": "uint256",
          "name": "transferFeeKValueNumerator",
          "type": "uint256"
        },
        {
          "indexed": false,
          "internalType": "uint256",
          "name": "transferFeePlatformRatioNumerator",
          "type": "uint256"
        }
      ],
      "name": "TokenAdded",
      "type": "event"
    },
    {
      "anonymous": false,
      "inputs": [
        {
          "indexed": true,
          "internalType": "address",
          "name": "token",
          "type": "address"
        },
        {
          "indexed": true,
          "internalType": "enum TokenConfigs.TokenSettingName",
          "name": "settingName",
          "type": "uint8"
        },
        {
          "indexed": true,
          "internalType": "uint256",
          "name": "newValue",
          "type": "uint256"
        }
      ],
      "name": "TokenSettingUpdated",
      "type": "event"
    },
    {
      "anonymous": false,
      "inputs": [
        {
          "indexed": false,
          "internalType": "address",
          "name": "treasuryAccount",
          "type": "address"
        }
      ],
      "name": "TreasuryAccountUpdated",
      "type": "event"
    },
    {
      "anonymous": false,
      "inputs": [
        {
          "indexed": true,
          "internalType": "address",
          "name": "user",
          "type": "address"
        },
        {
          "indexed": false,
          "internalType": "address[]",
          "name": "tokens",
          "type": "address[]"
        },
        {
          "indexed": false,
          "internalType": "uint256[]",
          "name": "tokenAmounts",
          "type": "uint256[]"
        },
        {
          "indexed": false,
          "internalType": "uint256",
          "name": "ethAmount",
          "type": "uint256"
        }
      ],
      "name": "Withdraw",
      "type": "event"
    },
    {
      "anonymous": false,
      "inputs": [
        {
          "indexed": true,
          "internalType": "address",
          "name": "user",
          "type": "address"
        },
        {
          "indexed": false,
          "internalType": "address[]",
          "name": "tokens",
          "type": "address[]"
        },
        {
          "indexed": false,
          "internalType": "uint256[]",
          "name": "strategies",
          "type": "uint256[]"
        },
        {
          "indexed": false,
          "internalType": "bool",
          "name": "withdrawWethAsEth",
          "type": "bool"
        },
        {
          "indexed": false,
          "internalType": "uint256[]",
          "name": "tokenAmounts",
          "type": "uint256[]"
        },
        {
          "indexed": false,
          "internalType": "uint256",
          "name": "ethWithdrawn",
          "type": "uint256"
        },
        {
          "indexed": false,
          "internalType": "uint256",
          "name": "ethRewards",
          "type": "uint256"
        },
        {
          "indexed": false,
          "internalType": "uint256",
          "name": "biosRewards",
          "type": "uint256"
        }
      ],
      "name": "WithdrawAllAndClaim",
      "type": "event"
    },
    {
      "inputs": [],
      "name": "DEFAULT_ADMIN_ROLE",
      "outputs": [
        {
          "internalType": "bytes32",
          "name": "",
          "type": "bytes32"
        }
      ],
      "stateMutability": "view",
      "type": "function"
    },
    {
      "inputs": [],
      "name": "LIQUIDITY_PROVIDER_ROLE",
      "outputs": [
        {
          "internalType": "bytes32",
          "name": "",
          "type": "bytes32"
        }
      ],
      "stateMutability": "view",
      "type": "function"
    },
    {
      "inputs": [],
      "name": "MANAGER_ROLE",
      "outputs": [
        {
          "internalType": "bytes32",
          "name": "",
          "type": "bytes32"
        }
      ],
      "stateMutability": "view",
      "type": "function"
    },
    {
      "inputs": [],
      "name": "OWNER_ROLE",
      "outputs": [
        {
          "internalType": "bytes32",
          "name": "",
          "type": "bytes32"
        }
      ],
      "stateMutability": "view",
      "type": "function"
    },
    {
      "inputs": [
        {
          "internalType": "address",
          "name": "contractAddress",
          "type": "address"
        },
        {
          "internalType": "string",
          "name": "name",
          "type": "string"
        }
      ],
      "name": "addIntegration",
      "outputs": [],
      "stateMutability": "nonpayable",
      "type": "function"
    },
    {
      "inputs": [
        {
          "internalType": "address",
          "name": "tokenAddress",
          "type": "address"
        },
        {
          "internalType": "bool",
          "name": "acceptingDeposits",
          "type": "bool"
        },
        {
          "internalType": "bool",
          "name": "acceptingWithdrawals",
          "type": "bool"
        },
        {
          "internalType": "bool",
          "name": "acceptingLping",
          "type": "bool"
        },
        {
          "internalType": "bool",
          "name": "acceptingBridging",
          "type": "bool"
        },
        {
          "internalType": "uint256",
          "name": "biosRewardWeight",
          "type": "uint256"
        },
        {
          "internalType": "uint256",
          "name": "reserveRatioNumerator",
          "type": "uint256"
        },
        {
          "internalType": "uint256",
          "name": "targetLiquidityRatioNumerator",
          "type": "uint256"
        },
        {
          "internalType": "uint256",
          "name": "transferFeeKValueNumerator",
          "type": "uint256"
        },
        {
          "internalType": "uint256",
          "name": "transferFeePlatformRatioNumerator",
          "type": "uint256"
        }
      ],
      "name": "addToken",
      "outputs": [],
      "stateMutability": "nonpayable",
      "type": "function"
    },
    {
      "inputs": [
        {
          "internalType": "uint256",
          "name": "ratioX1000",
          "type": "uint256"
        }
      ],
      "name": "biosBuyBack",
      "outputs": [],
      "stateMutability": "nonpayable",
      "type": "function"
    },
    {
      "inputs": [
        {
          "internalType": "uint256[]",
          "name": "strategies",
          "type": "uint256[]"
        }
      ],
      "name": "claimAllRewards",
      "outputs": [
        {
          "internalType": "uint256",
          "name": "ethClaimed",
          "type": "uint256"
        },
        {
          "internalType": "uint256",
          "name": "biosClaimed",
          "type": "uint256"
        }
      ],
      "stateMutability": "nonpayable",
      "type": "function"
    },
    {
      "inputs": [],
      "name": "claimBiosRewards",
      "outputs": [
        {
          "internalType": "uint256",
          "name": "biosClaimed",
          "type": "uint256"
        }
      ],
      "stateMutability": "nonpayable",
      "type": "function"
    },
    {
      "inputs": [
        {
          "internalType": "uint256[]",
          "name": "strategies",
          "type": "uint256[]"
        }
      ],
      "name": "claimEthRewards",
      "outputs": [
        {
          "internalType": "uint256",
          "name": "ethClaimed",
          "type": "uint256"
        }
      ],
      "stateMutability": "nonpayable",
      "type": "function"
    },
    {
      "inputs": [
        {
          "internalType": "address[]",
          "name": "tokens",
          "type": "address[]"
        }
      ],
      "name": "claimLpFees",
      "outputs": [],
      "stateMutability": "nonpayable",
      "type": "function"
    },
    {
      "inputs": [
        {
          "components": [
            {
              "internalType": "address",
              "name": "integration",
              "type": "address"
            },
            {
              "internalType": "address[]",
              "name": "tokens",
              "type": "address[]"
            },
            {
              "internalType": "uint32",
              "name": "ammPoolID",
              "type": "uint32"
            }
          ],
          "internalType": "struct IYieldManager.DeployRequest[]",
          "name": "deployments",
          "type": "tuple[]"
        }
      ],
      "name": "deploy",
      "outputs": [],
      "stateMutability": "nonpayable",
      "type": "function"
    },
    {
      "inputs": [
        {
          "internalType": "address[]",
          "name": "tokens",
          "type": "address[]"
        },
        {
          "internalType": "uint256[]",
          "name": "amounts",
          "type": "uint256[]"
        }
      ],
      "name": "deposit",
      "outputs": [],
      "stateMutability": "payable",
      "type": "function"
    },
    {
      "inputs": [],
      "name": "disableLpWhitelist",
      "outputs": [],
      "stateMutability": "nonpayable",
      "type": "function"
    },
    {
      "inputs": [
        {
          "internalType": "uint256[]",
          "name": "strategies",
          "type": "uint256[]"
        },
        {
          "internalType": "uint256[]",
          "name": "positions",
          "type": "uint256[]"
        },
        {
          "internalType": "uint256",
          "name": "biosAmount",
          "type": "uint256"
        }
      ],
      "name": "distributeEth",
      "outputs": [],
      "stateMutability": "nonpayable",
      "type": "function"
    },
    {
      "inputs": [],
      "name": "enableLpWhitelist",
      "outputs": [],
      "stateMutability": "nonpayable",
      "type": "function"
    },
    {
      "inputs": [],
      "name": "getEthRewardsTimePeriod",
      "outputs": [
        {
          "internalType": "uint256",
          "name": "ethRewardsTimePeriod",
          "type": "uint256"
        }
      ],
      "stateMutability": "view",
      "type": "function"
    },
    {
      "inputs": [],
      "name": "getLastBiosBuyBackTimestamp",
      "outputs": [
        {
          "internalType": "uint256",
          "name": "",
          "type": "uint256"
        }
      ],
      "stateMutability": "view",
      "type": "function"
    },
    {
      "inputs": [],
      "name": "getLastDeployTimestamp",
      "outputs": [
        {
          "internalType": "uint256",
          "name": "",
          "type": "uint256"
        }
      ],
      "stateMutability": "view",
      "type": "function"
    },
    {
      "inputs": [],
      "name": "getLastDistributeEthTimestamp",
      "outputs": [
        {
          "internalType": "uint256",
          "name": "",
          "type": "uint256"
        }
      ],
      "stateMutability": "view",
      "type": "function"
    },
    {
      "inputs": [],
      "name": "getLpWhitelistEnabled",
      "outputs": [
        {
          "internalType": "bool",
          "name": "",
          "type": "bool"
        }
      ],
      "stateMutability": "view",
      "type": "function"
    },
    {
      "inputs": [
        {
          "internalType": "bytes32",
          "name": "role",
          "type": "bytes32"
        }
      ],
      "name": "getRoleAdmin",
      "outputs": [
        {
          "internalType": "bytes32",
          "name": "",
          "type": "bytes32"
        }
      ],
      "stateMutability": "view",
      "type": "function"
    },
    {
      "inputs": [
        {
          "internalType": "bytes32",
          "name": "role",
          "type": "bytes32"
        },
        {
          "internalType": "uint256",
          "name": "index",
          "type": "uint256"
        }
      ],
      "name": "getRoleMember",
      "outputs": [
        {
          "internalType": "address",
          "name": "",
          "type": "address"
        }
      ],
      "stateMutability": "view",
      "type": "function"
    },
    {
      "inputs": [
        {
          "internalType": "bytes32",
          "name": "role",
          "type": "bytes32"
        }
      ],
      "name": "getRoleMemberCount",
      "outputs": [
        {
          "internalType": "uint256",
          "name": "",
          "type": "uint256"
        }
      ],
      "stateMutability": "view",
      "type": "function"
    },
    {
      "inputs": [
        {
          "internalType": "bytes32",
          "name": "role",
          "type": "bytes32"
        },
        {
          "internalType": "address",
          "name": "account",
          "type": "address"
        }
      ],
      "name": "grantRole",
      "outputs": [],
      "stateMutability": "nonpayable",
      "type": "function"
    },
    {
      "inputs": [
        {
          "internalType": "bytes32",
          "name": "role",
          "type": "bytes32"
        },
        {
          "internalType": "address",
          "name": "account",
          "type": "address"
        }
      ],
      "name": "hasRole",
      "outputs": [
        {
          "internalType": "bool",
          "name": "",
          "type": "bool"
        }
      ],
      "stateMutability": "view",
      "type": "function"
    },
    {
      "inputs": [
        {
          "internalType": "address",
          "name": "admin_",
          "type": "address"
        },
        {
          "internalType": "address",
          "name": "owner_",
          "type": "address"
        },
        {
          "internalType": "address",
          "name": "moduleMap_",
          "type": "address"
        }
      ],
      "name": "initialize",
      "outputs": [],
      "stateMutability": "nonpayable",
      "type": "function"
    },
    {
      "inputs": [
        {
          "internalType": "address",
          "name": "account",
          "type": "address"
        }
      ],
      "name": "isLiquidityProvider",
      "outputs": [
        {
          "internalType": "bool",
          "name": "",
          "type": "bool"
        }
      ],
      "stateMutability": "view",
      "type": "function"
    },
    {
      "inputs": [
        {
          "internalType": "address",
          "name": "account",
          "type": "address"
        }
      ],
      "name": "isManager",
      "outputs": [
        {
          "internalType": "bool",
          "name": "",
          "type": "bool"
        }
      ],
      "stateMutability": "view",
      "type": "function"
    },
    {
      "inputs": [
        {
          "internalType": "address",
          "name": "account",
          "type": "address"
        }
      ],
      "name": "isOwner",
      "outputs": [
        {
          "internalType": "bool",
          "name": "",
          "type": "bool"
        }
      ],
      "stateMutability": "view",
      "type": "function"
    },
    {
      "inputs": [],
      "name": "moduleMap",
      "outputs": [
        {
          "internalType": "contract IModuleMap",
          "name": "",
          "type": "address"
        }
      ],
      "stateMutability": "view",
      "type": "function"
    },
    {
      "inputs": [
        {
          "internalType": "address[]",
          "name": "tokens",
          "type": "address[]"
        },
        {
          "internalType": "uint256[]",
          "name": "amounts",
          "type": "uint256[]"
        }
      ],
      "name": "provideLiquidity",
      "outputs": [],
      "stateMutability": "nonpayable",
      "type": "function"
    },
    {
      "inputs": [
        {
          "internalType": "bytes32",
          "name": "role",
          "type": "bytes32"
        },
        {
          "internalType": "address",
          "name": "account",
          "type": "address"
        }
      ],
      "name": "renounceRole",
      "outputs": [],
      "stateMutability": "nonpayable",
      "type": "function"
    },
    {
      "inputs": [
        {
          "internalType": "bytes32",
          "name": "role",
          "type": "bytes32"
        },
        {
          "internalType": "address",
          "name": "account",
          "type": "address"
        }
      ],
      "name": "revokeRole",
      "outputs": [],
      "stateMutability": "nonpayable",
      "type": "function"
    },
    {
      "inputs": [
        {
          "internalType": "uint256",
          "name": "biosAmount",
          "type": "uint256"
        }
      ],
      "name": "seedBiosRewards",
      "outputs": [],
      "stateMutability": "nonpayable",
      "type": "function"
    },
    {
      "inputs": [
        {
          "internalType": "uint32",
          "name": "biosRewardsDuration",
          "type": "uint32"
        }
      ],
      "name": "setBiosRewardsDuration",
      "outputs": [],
      "stateMutability": "nonpayable",
      "type": "function"
    },
    {
      "inputs": [
        {
          "internalType": "bytes4",
          "name": "interfaceId",
          "type": "bytes4"
        }
      ],
      "name": "supportsInterface",
      "outputs": [
        {
          "internalType": "bool",
          "name": "",
          "type": "bool"
        }
      ],
      "stateMutability": "view",
      "type": "function"
    },
    {
      "inputs": [
        {
          "internalType": "address[]",
          "name": "tokens",
          "type": "address[]"
        },
        {
          "internalType": "uint256[]",
          "name": "amounts",
          "type": "uint256[]"
        }
      ],
      "name": "takeLiquidity",
      "outputs": [],
      "stateMutability": "nonpayable",
      "type": "function"
    },
    {
      "inputs": [],
      "name": "tokenApprovals",
      "outputs": [],
      "stateMutability": "nonpayable",
      "type": "function"
    },
    {
      "inputs": [
        {
          "internalType": "uint32",
          "name": "biosBuyBackEthWeight",
          "type": "uint32"
        },
        {
          "internalType": "uint32",
          "name": "treasuryEthWeight",
          "type": "uint32"
        },
        {
          "internalType": "uint32",
          "name": "protocolFeeEthWeight",
          "type": "uint32"
        },
        {
          "internalType": "uint32",
          "name": "rewardsEthWeight",
          "type": "uint32"
        }
      ],
      "name": "updateEthDistributionWeights",
      "outputs": [],
      "stateMutability": "nonpayable",
      "type": "function"
    },
    {
      "inputs": [
        {
          "internalType": "address payable",
          "name": "gasAccount",
          "type": "address"
        }
      ],
      "name": "updateGasAccount",
      "outputs": [],
      "stateMutability": "nonpayable",
      "type": "function"
    },
    {
      "inputs": [
        {
          "internalType": "uint256",
          "name": "gasAccountTargetEthBalance",
          "type": "uint256"
        }
      ],
      "name": "updateGasAccountTargetEthBalance",
      "outputs": [],
      "stateMutability": "nonpayable",
      "type": "function"
    },
    {
      "inputs": [
        {
          "internalType": "address",
          "name": "tokenAddress",
          "type": "address"
        },
        {
          "internalType": "uint256",
          "name": "reserveRatioNumerator",
          "type": "uint256"
        }
      ],
      "name": "updateTokenReserveRatioNumerator",
      "outputs": [],
      "stateMutability": "nonpayable",
      "type": "function"
    },
    {
      "inputs": [
        {
          "internalType": "address",
          "name": "tokenAddress",
          "type": "address"
        },
        {
          "internalType": "uint256",
          "name": "updatedWeight",
          "type": "uint256"
        }
      ],
      "name": "updateTokenRewardWeight",
      "outputs": [],
      "stateMutability": "nonpayable",
      "type": "function"
    },
    {
      "inputs": [
        {
          "internalType": "address",
          "name": "tokenAddress",
          "type": "address"
        },
        {
          "internalType": "uint256",
          "name": "targetLiquidityRatioNumerator",
          "type": "uint256"
        }
      ],
      "name": "updateTokenTargetLiquidityRatioNumerator",
      "outputs": [],
      "stateMutability": "nonpayable",
      "type": "function"
    },
    {
      "inputs": [
        {
          "internalType": "address",
          "name": "tokenAddress",
          "type": "address"
        },
        {
          "internalType": "uint256",
          "name": "transferFeeKValueNumerator",
          "type": "uint256"
        }
      ],
      "name": "updateTokenTransferFeeKValueNumerator",
      "outputs": [],
      "stateMutability": "nonpayable",
      "type": "function"
    },
    {
      "inputs": [
        {
          "internalType": "address",
          "name": "tokenAddress",
          "type": "address"
        },
        {
          "internalType": "uint256",
          "name": "transferFeePlatformRatioNumerator",
          "type": "uint256"
        }
      ],
      "name": "updateTokenTransferFeePlatformRatioNumerator",
      "outputs": [],
      "stateMutability": "nonpayable",
      "type": "function"
    },
    {
      "inputs": [
        {
          "internalType": "address payable",
          "name": "treasuryAccount",
          "type": "address"
        }
      ],
      "name": "updateTreasuryAccount",
      "outputs": [],
      "stateMutability": "nonpayable",
      "type": "function"
    },
    {
      "inputs": [
        {
          "internalType": "address[]",
          "name": "tokens",
          "type": "address[]"
        },
        {
          "internalType": "uint256[]",
          "name": "amounts",
          "type": "uint256[]"
        },
        {
          "internalType": "bool",
          "name": "withdrawWethAsEth",
          "type": "bool"
        }
      ],
      "name": "withdraw",
      "outputs": [],
      "stateMutability": "nonpayable",
      "type": "function"
    },
    {
      "inputs": [
        {
          "internalType": "address[]",
          "name": "tokens",
          "type": "address[]"
        },
        {
          "internalType": "uint256[]",
          "name": "strategies",
          "type": "uint256[]"
        },
        {
          "internalType": "bool",
          "name": "withdrawWethAsEth",
          "type": "bool"
        }
      ],
      "name": "withdrawAllAndClaim",
      "outputs": [
        {
          "internalType": "uint256[]",
          "name": "tokenAmounts",
          "type": "uint256[]"
        },
        {
          "internalType": "uint256",
          "name": "ethWithdrawn",
          "type": "uint256"
        },
        {
          "internalType": "uint256",
          "name": "ethClaimed",
          "type": "uint256"
        },
        {
          "internalType": "uint256",
          "name": "biosClaimed",
          "type": "uint256"
        }
      ],
      "stateMutability": "nonpayable",
      "type": "function"
    },
    {
      "stateMutability": "payable",
      "type": "receive"
    }
  ],
  "transactionHash": "0xba90dc4cfe8842895a6a365e2d68fa9afb02ebbb85c770192ed8c02bd768d355",
  "args": [],
  "solcInputHash": "3431e4381f2519326a70e3e5c8d5090e",
  "bytecode": "0x608060405234801561001057600080fd5b506159d180620000216000396000f3fe60806040526004361061023d5760003560e01c806301eb7a191461024957806301ffc9a71461027357806304abbb1c146102935780630b03cc6d146102b55780630b1ff20a146102d55780630f0a1c6f146102f557806312804d23146103225780631542d6dd146103375780631a8821db1461035657806320037cdd146103765780632369fde514610398578063248a9ca3146103ad5780632866547a146103cd5780632f2ff15d146103ed5780632f54bf6e1461040d57806330dd79dd1461042d57806336568abe1461044d5780633f10724c1461046d5780634153db4e1461048d57806348f11536146104ad5780634bc3f872146104cd5780634dee99b4146104e35780635b21a556146104f857806369c32f6014610518578063845fe1d0146105385780638811d21b1461055857806388656055146105885780638a34be28146105a85780639010d07c146105c857806391d14854146105e857806399f7854a14610608578063a1bc290814610628578063a217fddf14610648578063a2beb5101461065d578063a703b72914610692578063b1cb1d80146106b2578063b4f0abf0146106d2578063bca5048f146106f2578063c0c53b8b14610712578063ca15c87314610732578063cb3c582214610752578063d547741f14610767578063d690d13e14610787578063da6b22071461079c578063de13acfb146107b1578063de726b71146107d1578063e58378bb146107f1578063ec87621c14610813578063efc908a114610835578063f3ae24151461084857600080fd5b3661024457005b600080fd5b34801561025557600080fd5b506101025460ff165b60405190151581526020015b60405180910390f35b34801561027f57600080fd5b5061025e61028e366004614fea565b610868565b34801561029f57600080fd5b506102b36102ae36600461502a565b610893565b005b3480156102c157600080fd5b506102b36102d0366004614c64565b6109cc565b3480156102e157600080fd5b506102b36102f0366004614f82565b610b09565b34801561030157600080fd5b5060c954610315906001600160a01b031681565b60405161026a9190615231565b34801561032e57600080fd5b506102b3610c33565b34801561034357600080fd5b5060fe545b60405190815260200161026a565b34801561036257600080fd5b506102b3610371366004614da1565b610c5a565b34801561038257600080fd5b5061034860008051602061593c83398151915281565b3480156103a457600080fd5b506102b3610f67565b3480156103b957600080fd5b506103486103c8366004614f82565b61167b565b3480156103d957600080fd5b506102b36103e8366004614c64565b611690565b3480156103f957600080fd5b506102b3610408366004614f9a565b611794565b34801561041957600080fd5b5061025e610428366004614aa5565b6117b6565b34801561043957600080fd5b506102b3610448366004614e49565b6117d0565b34801561045957600080fd5b506102b3610468366004614f9a565b611a11565b34801561047957600080fd5b506102b3610488366004614e0a565b611a8f565b34801561049957600080fd5b506102b36104a8366004614c64565b611cc1565b3480156104b957600080fd5b506102b36104c8366004614c64565b611dc5565b3480156104d957600080fd5b5061010054610348565b3480156104ef57600080fd5b506102b3611ec9565b34801561050457600080fd5b506102b3610513366004614d0f565b611ef3565b34801561052457600080fd5b506102b3610533366004614d41565b612045565b34801561054457600080fd5b506102b3610553366004614f82565b61219a565b34801561056457600080fd5b50610578610573366004614c8f565b6123cc565b60405161026a94939291906155fa565b34801561059457600080fd5b506102b36105a3366004614bc3565b6126ea565b3480156105b457600080fd5b506102b36105c3366004614d41565b612829565b3480156105d457600080fd5b506103156105e3366004614fc9565b612943565b3480156105f457600080fd5b5061025e610603366004614f9a565b612962565b34801561061457600080fd5b5061025e610623366004614aa5565b61298d565b34801561063457600080fd5b506102b3610643366004614aa5565b6129a7565b34801561065457600080fd5b50610348600081565b34801561066957600080fd5b5061067d610678366004614e0a565b612acd565b6040805192835260208301919091520161026a565b34801561069e57600080fd5b506102b36106ad366004614b27565b612b1c565b3480156106be57600080fd5b506102b36106cd366004614f82565b61326a565b3480156106de57600080fd5b506102b36106ed366004614aa5565b613393565b3480156106fe57600080fd5b506102b361070d366004614c64565b6134b9565b34801561071e57600080fd5b506102b361072d366004614add565b6135bd565b34801561073e57600080fd5b5061034861074d366004614f82565b61376e565b34801561075e57600080fd5b50610348613785565b34801561077357600080fd5b506102b3610782366004614f9a565b6137c4565b34801561079357600080fd5b506103486137e1565b3480156107a857600080fd5b5060fc54610348565b3480156107bd57600080fd5b506102b36107cc366004615044565b61381d565b3480156107dd57600080fd5b506103486107ec366004614e0a565b61395e565b3480156107fd57600080fd5b5061034860008051602061597c83398151915281565b34801561081f57600080fd5b5061034860008051602061595c83398151915281565b6102b3610843366004614d41565b61399e565b34801561085457600080fd5b5061025e610863366004614aa5565b613bcb565b60006001600160e01b03198216635a05180f60e01b148061088d575061088d82613be5565b92915050565b60008051602061595c8339815191526108ac8133613c1a565b60c9546040516337c61fc560e11b81526001600160a01b0390911690636f8c3f8a906108dc906004908101615629565b60206040518083038186803b1580156108f457600080fd5b505afa158015610908573d6000803e3d6000fd5b505050506040513d601f19601f8201168201806040525081019061092c9190614ac1565b60405163012aeec760e21b815263ffffffff841660048201526001600160a01b0391909116906304abbb1c90602401600060405180830381600087803b15801561097557600080fd5b505af1158015610989573d6000803e3d6000fd5b505060405163ffffffff851681527fd0feedf758dbe53f0afc15b3592dc422176e73dab86458bd5d65aaf80b8d2d29925060200190505b60405180910390a15050565b60008051602061595c8339815191526109e58133613c1a565b60c9546040516337c61fc560e11b81526001600160a01b0390911690636f8c3f8a90610a1690600390600401615629565b60206040518083038186803b158015610a2e57600080fd5b505afa158015610a42573d6000803e3d6000fd5b505050506040513d601f19601f82011682018060405250810190610a669190614ac1565b6001600160a01b0316630b03cc6d84846040518363ffffffff1660e01b8152600401610a939291906153fd565b600060405180830381600087803b158015610aad57600080fd5b505af1158015610ac1573d6000803e3d6000fd5b5084925060039150610ad09050565b6040516001600160a01b038616907f94a9ad1d62531353f56ce5906e87954e2c34a7330db39361c4b392ba0519336890600090a4505050565b60008051602061595c833981519152610b228133613c1a565b60c9546040516337c61fc560e11b81526001600160a01b0390911690636f8c3f8a90610b5390600290600401615629565b60206040518083038186803b158015610b6b57600080fd5b505afa158015610b7f573d6000803e3d6000fd5b505050506040513d601f19601f82011682018060405250810190610ba39190614ac1565b6001600160a01b0316630b1ff20a836040518263ffffffff1660e01b8152600401610bd091815260200190565b600060405180830381600087803b158015610bea57600080fd5b505af1158015610bfe573d6000803e3d6000fd5b505050507f70002914330d9c830892c922ec3403d9d8a2cc3719a69cede0b9069f3f82b2bb826040516109c091815260200190565b60008051602061595c833981519152610c4c8133613c1a565b50610102805460ff19169055565b600260ca541415610c865760405162461bcd60e51b8152600401610c7d906157a6565b60405180910390fd5b600260ca5560c9546040516337c61fc560e11b81526000916001600160a01b031690636f8c3f8a90610cbd90600190600401615629565b60206040518083038186803b158015610cd557600080fd5b505afa158015610ce9573d6000803e3d6000fd5b505050506040513d601f19601f82011682018060405250810190610d0d9190614ac1565b6001600160a01b031663558c811e338686866040518563ffffffff1660e01b8152600401610d3e9493929190615311565b602060405180830381600087803b158015610d5857600080fd5b505af1158015610d6c573d6000803e3d6000fd5b505050506040513d601f19601f82011682018060405250810190610d909190615012565b90508015610f175760c9546040516337c61fc560e11b81526001600160a01b0390911690636f8c3f8a90610dc990600390600401615629565b60206040518083038186803b158015610de157600080fd5b505afa158015610df5573d6000803e3d6000fd5b505050506040513d601f19601f82011682018060405250810190610e199190614ac1565b6001600160a01b0316638b9c94896040518163ffffffff1660e01b815260040160206040518083038186803b158015610e5157600080fd5b505afa158015610e65573d6000803e3d6000fd5b505050506040513d601f19601f82011682018060405250810190610e899190614ac1565b6001600160a01b0316632e1a7d4d826040518263ffffffff1660e01b8152600401610eb691815260200190565b600060405180830381600087803b158015610ed057600080fd5b505af1158015610ee4573d6000803e3d6000fd5b505060405133925083156108fc02915083906000818181858888f19350505050158015610f15573d6000803e3d6000fd5b505b336001600160a01b03167f91e54360cfab588303c49bbbb2869608cb9a9fd5ff9b4431f86988f91290421d858584604051610f549392919061547b565b60405180910390a25050600160ca555050565b60008051602061595c833981519152610f808133613c1a565b60c9546040516337c61fc560e11b81526000916001600160a01b031690636f8c3f8a90610fb290600390600401615629565b60206040518083038186803b158015610fca57600080fd5b505afa158015610fde573d6000803e3d6000fd5b505050506040513d601f19601f820116820180604052508101906110029190614ac1565b90506000816001600160a01b03166344fc9b566040518163ffffffff1660e01b815260040160206040518083038186803b15801561103f57600080fd5b505afa158015611053573d6000803e3d6000fd5b505050506040513d601f19601f820116820180604052508101906110779190614ac1565b90506000826001600160a01b0316638b9c94896040518163ffffffff1660e01b815260040160206040518083038186803b1580156110b457600080fd5b505afa1580156110c8573d6000803e3d6000fd5b505050506040513d601f19601f820116820180604052508101906110ec9190614ac1565b60c9546040516337c61fc560e11b81529192506001600160a01b038085169263dd62ed3e9230921690636f8c3f8a90611129906004908101615629565b60206040518083038186803b15801561114157600080fd5b505afa158015611155573d6000803e3d6000fd5b505050506040513d601f19601f820116820180604052508101906111799190614ac1565b6040518363ffffffff1660e01b8152600401611196929190615245565b60206040518083038186803b1580156111ae57600080fd5b505afa1580156111c2573d6000803e3d6000fd5b505050506040513d601f19601f820116820180604052508101906111e69190615012565b61127f5760c9546040516337c61fc560e11b815261127f916001600160a01b031690636f8c3f8a9061121c906004908101615629565b60206040518083038186803b15801561123457600080fd5b505afa158015611248573d6000803e3d6000fd5b505050506040513d601f19601f8201168201806040525081019061126c9190614ac1565b6001600160a01b03841690600019613c7e565b60c9546040516337c61fc560e11b81526001600160a01b038481169263dd62ed3e92309290911690636f8c3f8a906112bc90600290600401615629565b60206040518083038186803b1580156112d457600080fd5b505afa1580156112e8573d6000803e3d6000fd5b505050506040513d601f19601f8201168201806040525081019061130c9190614ac1565b6040518363ffffffff1660e01b8152600401611329929190615245565b60206040518083038186803b15801561134157600080fd5b505afa158015611355573d6000803e3d6000fd5b505050506040513d601f19601f820116820180604052508101906113799190615012565b6113b05760c9546040516337c61fc560e11b81526113b0916001600160a01b031690636f8c3f8a9061121c90600290600401615629565b60c9546040516337c61fc560e11b81526001600160a01b038381169263dd62ed3e92309290911690636f8c3f8a906113ed90600190600401615629565b60206040518083038186803b15801561140557600080fd5b505afa158015611419573d6000803e3d6000fd5b505050506040513d601f19601f8201168201806040525081019061143d9190614ac1565b6040518363ffffffff1660e01b815260040161145a929190615245565b60206040518083038186803b15801561147257600080fd5b505afa158015611486573d6000803e3d6000fd5b505050506040513d601f19601f820116820180604052508101906114aa9190615012565b6115445760c9546040516337c61fc560e11b8152611544916001600160a01b031690636f8c3f8a906114e190600190600401615629565b60206040518083038186803b1580156114f957600080fd5b505afa15801561150d573d6000803e3d6000fd5b505050506040513d601f19601f820116820180604052508101906115319190614ac1565b6001600160a01b03831690600019613c7e565b60c9546040516337c61fc560e11b81526001600160a01b038381169263dd62ed3e92309290911690636f8c3f8a9061158190600290600401615629565b60206040518083038186803b15801561159957600080fd5b505afa1580156115ad573d6000803e3d6000fd5b505050506040513d601f19601f820116820180604052508101906115d19190614ac1565b6040518363ffffffff1660e01b81526004016115ee929190615245565b60206040518083038186803b15801561160657600080fd5b505afa15801561161a573d6000803e3d6000fd5b505050506040513d601f19601f8201168201806040525081019061163e9190615012565b6116755760c9546040516337c61fc560e11b8152611675916001600160a01b031690636f8c3f8a906114e190600290600401615629565b50505050565b60009081526065602052604090206001015490565b60008051602061595c8339815191526116a98133613c1a565b60c9546040516337c61fc560e11b81526001600160a01b0390911690636f8c3f8a906116da90600390600401615629565b60206040518083038186803b1580156116f257600080fd5b505afa158015611706573d6000803e3d6000fd5b505050506040513d601f19601f8201168201806040525081019061172a9190614ac1565b6001600160a01b0316632866547a84846040518363ffffffff1660e01b81526004016117579291906153fd565b600060405180830381600087803b15801561177157600080fd5b505af1158015611785573d6000803e3d6000fd5b5084925060029150610ad09050565b61179d8261167b565b6117a78133613c1a565b6117b18383613dc7565b505050565b600061088d60008051602061597c83398151915283612962565b60c9546040516337c61fc560e11b81526001600160a01b0390911690636f8c3f8a9061180190600290600401615629565b60206040518083038186803b15801561181957600080fd5b505afa15801561182d573d6000803e3d6000fd5b505050506040513d601f19601f820116820180604052508101906118519190614ac1565b6001600160a01b031663e0a30f736040518163ffffffff1660e01b815260040160206040518083038186803b15801561188957600080fd5b505afa15801561189d573d6000803e3d6000fd5b505050506040513d601f19601f820116820180604052508101906118c19190614ac1565b6001600160a01b0316336001600160a01b0316146118f15760405162461bcd60e51b8152600401610c7d90615773565b60c9546040516337c61fc560e11b81526001600160a01b0390911690636f8c3f8a9061192290600290600401615629565b60206040518083038186803b15801561193a57600080fd5b505afa15801561194e573d6000803e3d6000fd5b505050506040513d601f19601f820116820180604052508101906119729190614ac1565b6001600160a01b03166330dd79dd86868686866040518663ffffffff1660e01b81526004016119a595949392919061559c565b600060405180830381600087803b1580156119bf57600080fd5b505af11580156119d3573d6000803e3d6000fd5b505060fe805460ff5542905550506040517f975dc81fc1f814abf091a0d0126f3d75cde1a0b0aa2dee81138793762eea42fc90600090a15050505050565b6001600160a01b0381163314611a815760405162461bcd60e51b815260206004820152602f60248201527f416363657373436f6e74726f6c3a2063616e206f6e6c792072656e6f756e636560448201526e103937b632b9903337b91039b2b63360891b6064820152608401610c7d565b611a8b8282613de9565b5050565b60c9546040516337c61fc560e11b81526001600160a01b0390911690636f8c3f8a90611ac090600290600401615629565b60206040518083038186803b158015611ad857600080fd5b505afa158015611aec573d6000803e3d6000fd5b505050506040513d601f19601f82011682018060405250810190611b109190614ac1565b6001600160a01b031663e0a30f736040518163ffffffff1660e01b815260040160206040518083038186803b158015611b4857600080fd5b505afa158015611b5c573d6000803e3d6000fd5b505050506040513d601f19601f82011682018060405250810190611b809190614ac1565b6001600160a01b0316336001600160a01b031614611bb05760405162461bcd60e51b8152600401610c7d90615773565b60c9546040516337c61fc560e11b81526001600160a01b0390911690636f8c3f8a90611be190600290600401615629565b60206040518083038186803b158015611bf957600080fd5b505afa158015611c0d573d6000803e3d6000fd5b505050506040513d601f19601f82011682018060405250810190611c319190614ac1565b6001600160a01b0316633f10724c83836040518363ffffffff1660e01b8152600401611c5e9291906154b1565b600060405180830381600087803b158015611c7857600080fd5b505af1158015611c8c573d6000803e3d6000fd5b50504260fc5550506040517fd9659eff71087e0e5ae7a01868fb393704aec3a891860a55e69a47b9ad2f2dab90600090a15050565b60008051602061595c833981519152611cda8133613c1a565b60c9546040516337c61fc560e11b81526001600160a01b0390911690636f8c3f8a90611d0b90600390600401615629565b60206040518083038186803b158015611d2357600080fd5b505afa158015611d37573d6000803e3d6000fd5b505050506040513d601f19601f82011682018060405250810190611d5b9190614ac1565b6001600160a01b0316634153db4e84846040518363ffffffff1660e01b8152600401611d889291906153fd565b600060405180830381600087803b158015611da257600080fd5b505af1158015611db6573d6000803e3d6000fd5b5084925060049150610ad09050565b60008051602061595c833981519152611dde8133613c1a565b60c9546040516337c61fc560e11b81526001600160a01b0390911690636f8c3f8a90611e0f90600390600401615629565b60206040518083038186803b158015611e2757600080fd5b505afa158015611e3b573d6000803e3d6000fd5b505050506040513d601f19601f82011682018060405250810190611e5f9190614ac1565b6001600160a01b03166348f1153684846040518363ffffffff1660e01b8152600401611e8c9291906153fd565b600060405180830381600087803b158015611ea657600080fd5b505af1158015611eba573d6000803e3d6000fd5b5084925060009150610ad09050565b60008051602061595c833981519152611ee28133613c1a565b50610102805460ff19166001179055565b6101025460ff161580611f195750611f1960008051602061593c83398151915233612962565b611f355760405162461bcd60e51b8152600401610c7d90615664565b600260ca541415611f585760405162461bcd60e51b8152600401610c7d906157a6565b600260ca5560c9546040516337c61fc560e11b81526001600160a01b0390911690636f8c3f8a90611f8e90600a90600401615629565b60206040518083038186803b158015611fa657600080fd5b505afa158015611fba573d6000803e3d6000fd5b505050506040513d601f19601f82011682018060405250810190611fde9190614ac1565b6001600160a01b031663d84ac98c33836040518363ffffffff1660e01b815260040161200b9291906152ad565b600060405180830381600087803b15801561202557600080fd5b505af1158015612039573d6000803e3d6000fd5b5050600160ca55505050565b6101025460ff16158061206b575061206b60008051602061593c83398151915233612962565b6120875760405162461bcd60e51b8152600401610c7d90615664565b600260ca5414156120aa5760405162461bcd60e51b8152600401610c7d906157a6565b600260ca5560c9546040516337c61fc560e11b81526001600160a01b0390911690636f8c3f8a906120e090600a90600401615629565b60206040518083038186803b1580156120f857600080fd5b505afa15801561210c573d6000803e3d6000fd5b505050506040513d601f19601f820116820180604052508101906121309190614ac1565b6001600160a01b03166343f0a5bb3384846040518463ffffffff1660e01b815260040161215f939291906152d1565b600060405180830381600087803b15801561217957600080fd5b505af115801561218d573d6000803e3d6000fd5b5050600160ca5550505050565b60c9546040516337c61fc560e11b81526001600160a01b0390911690636f8c3f8a906121cb90600290600401615629565b60206040518083038186803b1580156121e357600080fd5b505afa1580156121f7573d6000803e3d6000fd5b505050506040513d601f19601f8201168201806040525081019061221b9190614ac1565b6001600160a01b031663e0a30f736040518163ffffffff1660e01b815260040160206040518083038186803b15801561225357600080fd5b505afa158015612267573d6000803e3d6000fd5b505050506040513d601f19601f8201168201806040525081019061228b9190614ac1565b6001600160a01b0316336001600160a01b0316146122bb5760405162461bcd60e51b8152600401610c7d90615773565b60c9546040516337c61fc560e11b81526001600160a01b0390911690636f8c3f8a906122ec90600290600401615629565b60206040518083038186803b15801561230457600080fd5b505afa158015612318573d6000803e3d6000fd5b505050506040513d601f19601f8201168201806040525081019061233c9190614ac1565b6001600160a01b031663845fe1d0826040518263ffffffff1660e01b815260040161236991815260200190565b600060405180830381600087803b15801561238357600080fd5b505af1158015612397573d6000803e3d6000fd5b5050426101005550506040517f0de1d02cebd74da6199efdd09bf1124d52c591382b792cfcce400d8c8396672a90600090a150565b60c9546040516337c61fc560e11b8152606091600091829182916001600160a01b0390911690636f8c3f8a9061240790600190600401615629565b60206040518083038186803b15801561241f57600080fd5b505afa158015612433573d6000803e3d6000fd5b505050506040513d601f19601f820116820180604052508101906124579190614ac1565b6001600160a01b03166395be0546338b8b8b8b8b6040518763ffffffff1660e01b815260040161248c9695949392919061525f565b600060405180830381600087803b1580156124a657600080fd5b505af11580156124ba573d6000803e3d6000fd5b505050506040513d6000823e601f3d908101601f191682016040526124e29190810190614eb9565b9296509094509250905082156126435760c9546040516337c61fc560e11b81526001600160a01b0390911690636f8c3f8a9061252390600390600401615629565b60206040518083038186803b15801561253b57600080fd5b505afa15801561254f573d6000803e3d6000fd5b505050506040513d601f19601f820116820180604052508101906125739190614ac1565b6001600160a01b0316638b9c94896040518163ffffffff1660e01b815260040160206040518083038186803b1580156125ab57600080fd5b505afa1580156125bf573d6000803e3d6000fd5b505050506040513d601f19601f820116820180604052508101906125e39190614ac1565b6001600160a01b0316632e1a7d4d846040518263ffffffff1660e01b815260040161261091815260200190565b600060405180830381600087803b15801561262a57600080fd5b505af115801561263e573d6000803e3d6000fd5b505050505b600061264f8385615858565b111561268d57336108fc6126638486615858565b6040518115909202916000818181858888f1935050505015801561268b573d6000803e3d6000fd5b505b336001600160a01b03167fc5b4b8ab390a1b4492016dad7a8c2c74bb8044f074a79c621297e84f465d2e688a8a8a8a8a8a8a8a8a6040516126d699989796959493929190615416565b60405180910390a295509550955095915050565b60008051602061595c8339815191526127038133613c1a565b60c9546040516337c61fc560e11b81526001600160a01b0390911690636f8c3f8a9061273490600390600401615629565b60206040518083038186803b15801561274c57600080fd5b505afa158015612760573d6000803e3d6000fd5b505050506040513d601f19601f820116820180604052508101906127849190614ac1565b6001600160a01b0316638865605584846040518363ffffffff1660e01b81526004016127b19291906153d9565b600060405180830381600087803b1580156127cb57600080fd5b505af11580156127df573d6000803e3d6000fd5b50505050826001600160a01b03167ff15c2370ab3e2550092505583d19a745408c68d87d83f56843652d6f01df378d8360405161281c9190615651565b60405180910390a2505050565b6101025460ff16158061284f575061284f60008051602061593c83398151915233612962565b61286b5760405162461bcd60e51b8152600401610c7d90615664565b600260ca54141561288e5760405162461bcd60e51b8152600401610c7d906157a6565b600260ca5560c9546040516337c61fc560e11b81526001600160a01b0390911690636f8c3f8a906128c490600a90600401615629565b60206040518083038186803b1580156128dc57600080fd5b505afa1580156128f0573d6000803e3d6000fd5b505050506040513d601f19601f820116820180604052508101906129149190614ac1565b6001600160a01b031663fd2b51343384846040518463ffffffff1660e01b815260040161215f939291906152d1565b600082815260976020526040812061295b9083613e0b565b9392505050565b60009182526065602090815260408084206001600160a01b0393909316845291905290205460ff1690565b600061088d60008051602061593c83398151915283612962565b60008051602061595c8339815191526129c08133613c1a565b60c9546040516337c61fc560e11b81526001600160a01b0390911690636f8c3f8a906129f190600290600401615629565b60206040518083038186803b158015612a0957600080fd5b505afa158015612a1d573d6000803e3d6000fd5b505050506040513d601f19601f82011682018060405250810190612a419190614ac1565b6001600160a01b031663a1bc2908836040518263ffffffff1660e01b8152600401612a6c9190615231565b600060405180830381600087803b158015612a8657600080fd5b505af1158015612a9a573d6000803e3d6000fd5b505050507f56b5bc41858c1c8ea6c49bbaa714990fccbcefd31efe9d22cfbebf5d311dfdfc826040516109c09190615231565b600080600260ca541415612af35760405162461bcd60e51b8152600401610c7d906157a6565b600260ca55612b028484613e17565b9150612b0c613f96565b600160ca55919491935090915050565b60008051602061595c833981519152612b358133613c1a565b60c9546040516337c61fc560e11b81526001600160a01b0390911690636f8c3f8a90612b6690600390600401615629565b60206040518083038186803b158015612b7e57600080fd5b505afa158015612b92573d6000803e3d6000fd5b505050506040513d601f19601f82011682018060405250810190612bb69190614ac1565b60405163a703b72960e01b81526001600160a01b038d811660048301528c151560248301528b151560448301528a15156064830152891515608483015260a4820189905260c4820188905260e4820187905261010482018690526101248201859052919091169063a703b7299061014401600060405180830381600087803b158015612c4157600080fd5b505af1158015612c55573d6000803e3d6000fd5b505050508a6001600160a01b031663dd62ed3e60c960009054906101000a90046001600160a01b03166001600160a01b0316636f8c3f8a60006040518263ffffffff1660e01b8152600401612caa9190615629565b60206040518083038186803b158015612cc257600080fd5b505afa158015612cd6573d6000803e3d6000fd5b505050506040513d601f19601f82011682018060405250810190612cfa9190614ac1565b60c9546040516337c61fc560e11b81526001600160a01b0390911690636f8c3f8a90612d2b90600290600401615629565b60206040518083038186803b158015612d4357600080fd5b505afa158015612d57573d6000803e3d6000fd5b505050506040513d601f19601f82011682018060405250810190612d7b9190614ac1565b6040518363ffffffff1660e01b8152600401612d98929190615245565b60206040518083038186803b158015612db057600080fd5b505afa158015612dc4573d6000803e3d6000fd5b505050506040513d601f19601f82011682018060405250810190612de89190615012565b612e825760c9546040516337c61fc560e11b8152612e82916001600160a01b031690636f8c3f8a90612e1f90600290600401615629565b60206040518083038186803b158015612e3757600080fd5b505afa158015612e4b573d6000803e3d6000fd5b505050506040513d601f19601f82011682018060405250810190612e6f9190614ac1565b6001600160a01b038d1690600019613c7e565b60c9546040516337c61fc560e11b81526001600160a01b03808e169263dd62ed3e92911690636f8c3f8a90612ebc90600090600401615629565b60206040518083038186803b158015612ed457600080fd5b505afa158015612ee8573d6000803e3d6000fd5b505050506040513d601f19601f82011682018060405250810190612f0c9190614ac1565b60c9546040516337c61fc560e11b81526001600160a01b0390911690636f8c3f8a90612f3d90600190600401615629565b60206040518083038186803b158015612f5557600080fd5b505afa158015612f69573d6000803e3d6000fd5b505050506040513d601f19601f82011682018060405250810190612f8d9190614ac1565b6040518363ffffffff1660e01b8152600401612faa929190615245565b60206040518083038186803b158015612fc257600080fd5b505afa158015612fd6573d6000803e3d6000fd5b505050506040513d601f19601f82011682018060405250810190612ffa9190615012565b6130315760c9546040516337c61fc560e11b8152613031916001600160a01b031690636f8c3f8a90612e1f90600190600401615629565b60c9546040516337c61fc560e11b81526001600160a01b03808e169263dd62ed3e92911690636f8c3f8a9061306b90600090600401615629565b60206040518083038186803b15801561308357600080fd5b505afa158015613097573d6000803e3d6000fd5b505050506040513d601f19601f820116820180604052508101906130bb9190614ac1565b60c9546040516337c61fc560e11b81526001600160a01b0390911690636f8c3f8a906130ec90600b90600401615629565b60206040518083038186803b15801561310457600080fd5b505afa158015613118573d6000803e3d6000fd5b505050506040513d601f19601f8201168201806040525081019061313c9190614ac1565b6040518363ffffffff1660e01b8152600401613159929190615245565b60206040518083038186803b15801561317157600080fd5b505afa158015613185573d6000803e3d6000fd5b505050506040513d601f19601f820116820180604052508101906131a99190615012565b6131e05760c9546040516337c61fc560e11b81526131e0916001600160a01b031690636f8c3f8a90612e1f90600b90600401615629565b604080518b151581528a151560208201528915158183015288151560608201526080810188905260a0810187905260c0810186905260e08101859052610100810184905290516001600160a01b038d16917f7bc8b8972b091625aaef49aac424a93abb527b8507448b2935e656c5a4ffcbf691908190036101200190a25050505050505050505050565b60008051602061595c8339815191526132838133613c1a565b60c9546040516337c61fc560e11b81526001600160a01b0390911690636f8c3f8a906132b3906004908101615629565b60206040518083038186803b1580156132cb57600080fd5b505afa1580156132df573d6000803e3d6000fd5b505050506040513d601f19601f820116820180604052508101906133039190614ac1565b6001600160a01b031663f487f60333846040518363ffffffff1660e01b81526004016133309291906153fd565b600060405180830381600087803b15801561334a57600080fd5b505af115801561335e573d6000803e3d6000fd5b505050507f8d270fd3d1e6fc4a4951325d6032d0b8fd681d74fa76039998b2aeec501fee61826040516109c091815260200190565b60008051602061595c8339815191526133ac8133613c1a565b60c9546040516337c61fc560e11b81526001600160a01b0390911690636f8c3f8a906133dd90600290600401615629565b60206040518083038186803b1580156133f557600080fd5b505afa158015613409573d6000803e3d6000fd5b505050506040513d601f19601f8201168201806040525081019061342d9190614ac1565b6001600160a01b031663b4f0abf0836040518263ffffffff1660e01b81526004016134589190615231565b600060405180830381600087803b15801561347257600080fd5b505af1158015613486573d6000803e3d6000fd5b505050507f29136396b324aa7f7a8d1b8f00da39b8d88642bc714a9747c151b20e3d2af233826040516109c09190615231565b60008051602061595c8339815191526134d28133613c1a565b60c9546040516337c61fc560e11b81526001600160a01b0390911690636f8c3f8a9061350390600390600401615629565b60206040518083038186803b15801561351b57600080fd5b505afa15801561352f573d6000803e3d6000fd5b505050506040513d601f19601f820116820180604052508101906135539190614ac1565b6001600160a01b031663bca5048f84846040518363ffffffff1660e01b81526004016135809291906153fd565b600060405180830381600087803b15801561359a57600080fd5b505af11580156135ae573d6000803e3d6000fd5b5084925060019150610ad09050565b600054610100900460ff166135d85760005460ff16156135dc565b303b155b6135f85760405162461bcd60e51b8152600401610c7d906156b5565b600054610100900460ff1615801561361a576000805461ffff19166101011790555b6001600160a01b0384166136405760405162461bcd60e51b8152600401610c7d90615703565b6001600160a01b0383166136665760405162461bcd60e51b8152600401610c7d90615703565b6001600160a01b03821661368c5760405162461bcd60e51b8152600401610c7d90615703565b613695826140cf565b61369d61415c565b6136a561418d565b6136b06000856141cc565b6136c860008051602061597c833981519152846141cc565b6136e060008051602061595c833981519152846141cc565b6136f860008051602061593c833981519152846141cc565b61371e60008051602061595c83398151915260008051602061597c8339815191526141d6565b61374460008051602061593c83398151915260008051602061595c8339815191526141d6565b4261010155610102805460ff191660011790558015611675576000805461ff001916905550505050565b600081815260976020526040812061088d90614229565b60fe54600090156137be5760ff54156137ad5760ff5460fe546137a8919061588f565b905090565b6101015460fe546137a8919061588f565b50600090565b6137cd8261167b565b6137d78133613c1a565b6117b18383613de9565b6000600260ca5414156138065760405162461bcd60e51b8152600401610c7d906157a6565b600260ca55613813613f96565b9050600160ca5590565b60008051602061595c8339815191526138368133613c1a565b60c9546040516337c61fc560e11b81526001600160a01b0390911690636f8c3f8a9061386790600290600401615629565b60206040518083038186803b15801561387f57600080fd5b505afa158015613893573d6000803e3d6000fd5b505050506040513d601f19601f820116820180604052508101906138b79190614ac1565b6001600160a01b031663de13acfb868686866040518563ffffffff1660e01b81526004016138e894939291906157dd565b600060405180830381600087803b15801561390257600080fd5b505af1158015613916573d6000803e3d6000fd5b505050507fe7404d70edeef1a8fd327fdf11833c2321aa82626773fb135a22680f82ba87518585858560405161394f94939291906157dd565b60405180910390a15050505050565b6000600260ca5414156139835760405162461bcd60e51b8152600401610c7d906157a6565b600260ca556139928383613e17565b600160ca559392505050565b600260ca5414156139c15760405162461bcd60e51b8152600401610c7d906157a6565b600260ca553415613b165760c9546040516337c61fc560e11b81526000916001600160a01b031690636f8c3f8a906139fe90600390600401615629565b60206040518083038186803b158015613a1657600080fd5b505afa158015613a2a573d6000803e3d6000fd5b505050506040513d601f19601f82011682018060405250810190613a4e9190614ac1565b6001600160a01b0316638b9c94896040518163ffffffff1660e01b815260040160206040518083038186803b158015613a8657600080fd5b505afa158015613a9a573d6000803e3d6000fd5b505050506040513d601f19601f82011682018060405250810190613abe9190614ac1565b9050806001600160a01b031663d0e30db0346040518263ffffffff1660e01b81526004016000604051808303818588803b158015613afb57600080fd5b505af1158015613b0f573d6000803e3d6000fd5b5050505050505b60c9546040516337c61fc560e11b81526001600160a01b0390911690636f8c3f8a90613b4790600190600401615629565b60206040518083038186803b158015613b5f57600080fd5b505afa158015613b73573d6000803e3d6000fd5b505050506040513d601f19601f82011682018060405250810190613b979190614ac1565b6001600160a01b031663776f5a8d3384843460006040518663ffffffff1660e01b815260040161215f95949392919061535b565b600061088d60008051602061595c83398151915283612962565b60006001600160e01b03198216637965db0b60e01b148061088d57506301ffc9a760e01b6001600160e01b031983161461088d565b613c248282612962565b611a8b57613c3c816001600160a01b03166014614233565b613c47836020614233565b604051602001613c589291906151c2565b60408051601f198184030181529082905262461bcd60e51b8252610c7d91600401615651565b801580613d065750604051636eb1769f60e11b81526001600160a01b0384169063dd62ed3e90613cb49030908690600401615245565b60206040518083038186803b158015613ccc57600080fd5b505afa158015613ce0573d6000803e3d6000fd5b505050506040513d601f19601f82011682018060405250810190613d049190615012565b155b613d715760405162461bcd60e51b815260206004820152603660248201527f5361666545524332303a20617070726f76652066726f6d206e6f6e2d7a65726f60448201527520746f206e6f6e2d7a65726f20616c6c6f77616e636560501b6064820152608401610c7d565b6117b18363095ea7b360e01b8484604051602401613d909291906153fd565b60408051601f198184030181529190526020810180516001600160e01b03166001600160e01b031990931692909217909152614414565b613dd182826144e6565b60008281526097602052604090206117b1908261456c565b613df38282614581565b60008281526097602052604090206117b190826145e8565b600061295b83836145fd565b60c9546040516337c61fc560e11b81526000916001600160a01b031690636f8c3f8a90613e4990600190600401615629565b60206040518083038186803b158015613e6157600080fd5b505afa158015613e75573d6000803e3d6000fd5b505050506040513d601f19601f82011682018060405250810190613e999190614ac1565b6001600160a01b031663c3b2a7f43385856040518463ffffffff1660e01b8152600401613ec8939291906153ab565b602060405180830381600087803b158015613ee257600080fd5b505af1158015613ef6573d6000803e3d6000fd5b505050506040513d601f19601f82011682018060405250810190613f1a9190615012565b604051909150339082156108fc029083906000818181858888f19350505050158015613f4a573d6000803e3d6000fd5b50336001600160a01b03167f52641a01fee1d4b51c574b806315d8012d15a005587807a7f0a84e42393b0922848484604051613f88939291906155d6565b60405180910390a292915050565b60c9546040516337c61fc560e11b81526000916001600160a01b031690636f8c3f8a90613fc7906004908101615629565b60206040518083038186803b158015613fdf57600080fd5b505afa158015613ff3573d6000803e3d6000fd5b505050506040513d601f19601f820116820180604052508101906140179190614ac1565b6001600160a01b03166384afeffd336040518263ffffffff1660e01b81526004016140429190615231565b602060405180830381600087803b15801561405c57600080fd5b505af1158015614070573d6000803e3d6000fd5b505050506040513d601f19601f820116820180604052508101906140949190615012565b60405181815290915033907fbb219a4ef7ab353b9ff2f337e191975fba0952436ef67efea1aecca5f6f766d69060200160405180910390a290565b600054610100900460ff166140ea5760005460ff16156140ee565b303b155b61410a5760405162461bcd60e51b8152600401610c7d906156b5565b600054610100900460ff1615801561412c576000805461ffff19166101011790555b60c980546001600160a01b0319166001600160a01b0384161790558015611a8b576000805461ff00191690555050565b600054610100900460ff166141835760405162461bcd60e51b8152600401610c7d90615728565b61418b614635565b565b600054610100900460ff166141b45760405162461bcd60e51b8152600401610c7d90615728565b6141bc614663565b6141c4614663565b61418b614663565b611a8b8282613dc7565b60006141e18361167b565b600084815260656020526040808220600101859055519192508391839186917fbd79b86ffe0ab8e8776151514217cd7cacd52c909f66475c3af44e129f0b00ff9190a4505050565b600061088d825490565b60606000614242836002615870565b61424d906002615858565b6001600160401b0381111561427257634e487b7160e01b600052604160045260246000fd5b6040519080825280601f01601f19166020018201604052801561429c576020820181803683370190505b509050600360fc1b816000815181106142c557634e487b7160e01b600052603260045260246000fd5b60200101906001600160f81b031916908160001a905350600f60fb1b8160018151811061430257634e487b7160e01b600052603260045260246000fd5b60200101906001600160f81b031916908160001a9053506000614326846002615870565b614331906001615858565b90505b60018111156143c5576f181899199a1a9b1b9c1cb0b131b232b360811b85600f166010811061437357634e487b7160e01b600052603260045260246000fd5b1a60f81b82828151811061439757634e487b7160e01b600052603260045260246000fd5b60200101906001600160f81b031916908160001a90535060049490941c936143be816158d2565b9050614334565b50831561295b5760405162461bcd60e51b815260206004820181905260248201527f537472696e67733a20686578206c656e67746820696e73756666696369656e746044820152606401610c7d565b6000614469826040518060400160405280602081526020017f5361666545524332303a206c6f772d6c6576656c2063616c6c206661696c6564815250856001600160a01b031661468a9092919063ffffffff16565b8051909150156117b157808060200190518101906144879190614f66565b6117b15760405162461bcd60e51b815260206004820152602a60248201527f5361666545524332303a204552433230206f7065726174696f6e20646964206e6044820152691bdd081cdd58d8d9595960b21b6064820152608401610c7d565b6144f08282612962565b611a8b5760008281526065602090815260408083206001600160a01b03851684529091529020805460ff191660011790556145283390565b6001600160a01b0316816001600160a01b0316837f2f8788117e7eff1d82e926ec794901d17c78024a50270940304540a733656f0d60405160405180910390a45050565b600061295b836001600160a01b0384166146a1565b61458b8282612962565b15611a8b5760008281526065602090815260408083206001600160a01b0385168085529252808320805460ff1916905551339285917ff6391f5c32d9c69d2a47ea670b442974b53935d1edc7fd64eb21e047a839171b9190a45050565b600061295b836001600160a01b0384166146f0565b600082600001828154811061462257634e487b7160e01b600052603260045260246000fd5b9060005260206000200154905092915050565b600054610100900460ff1661465c5760405162461bcd60e51b8152600401610c7d90615728565b600160ca55565b600054610100900460ff1661418b5760405162461bcd60e51b8152600401610c7d90615728565b6060614699848460008561480d565b949350505050565b60008181526001830160205260408120546146e85750815460018181018455600084815260208082209093018490558454848252828601909352604090209190915561088d565b50600061088d565b6000818152600183016020526040812054801561480357600061471460018361588f565b85549091506000906147289060019061588f565b90508181146147a957600086600001828154811061475657634e487b7160e01b600052603260045260246000fd5b906000526020600020015490508087600001848154811061478757634e487b7160e01b600052603260045260246000fd5b6000918252602080832090910192909255918252600188019052604090208390555b85548690806147c857634e487b7160e01b600052603160045260246000fd5b60019003818190600052602060002001600090559055856001016000868152602001908152602001600020600090556001935050505061088d565b600091505061088d565b60608247101561486e5760405162461bcd60e51b815260206004820152602660248201527f416464726573733a20696e73756666696369656e742062616c616e636520666f6044820152651c8818d85b1b60d21b6064820152608401610c7d565b843b6148bc5760405162461bcd60e51b815260206004820152601d60248201527f416464726573733a2063616c6c20746f206e6f6e2d636f6e74726163740000006044820152606401610c7d565b600080866001600160a01b031685876040516148d891906151a6565b60006040518083038185875af1925050503d8060008114614915576040519150601f19603f3d011682016040523d82523d6000602084013e61491a565b606091505b509150915061492a828286614935565b979650505050505050565b6060831561494457508161295b565b8251156149545782518084602001fd5b8160405162461bcd60e51b8152600401610c7d9190615651565b60008083601f84011261497f578182fd5b5081356001600160401b03811115614995578182fd5b6020830191508360208260051b85010111156149b057600080fd5b9250929050565b600082601f8301126149c7578081fd5b813560206149dc6149d783615835565b615805565b80838252828201915082860187848660051b89010111156149fb578586fd5b855b85811015614a22578135614a1081615915565b845292840192908401906001016149fd565b5090979650505050505050565b600082601f830112614a3f578081fd5b81356020614a4f6149d783615835565b80838252828201915082860187848660051b8901011115614a6e578586fd5b855b85811015614a2257813584529284019290840190600101614a70565b803563ffffffff81168114614aa057600080fd5b919050565b600060208284031215614ab6578081fd5b813561295b81615915565b600060208284031215614ad2578081fd5b815161295b81615915565b600080600060608486031215614af1578182fd5b8335614afc81615915565b92506020840135614b0c81615915565b91506040840135614b1c81615915565b809150509250925092565b6000806000806000806000806000806101408b8d031215614b46578586fd5b8a35614b5181615915565b995060208b0135614b618161592d565b985060408b0135614b718161592d565b975060608b0135614b818161592d565b965060808b0135614b918161592d565b999c989b50969995989760a0870135975060c08701359660e08101359650610100810135955061012001359350915050565b60008060408385031215614bd5578182fd5b8235614be081615915565b91506020838101356001600160401b0380821115614bfc578384fd5b818601915086601f830112614c0f578384fd5b813581811115614c2157614c216158ff565b614c33601f8201601f19168501615805565b91508082528784828501011115614c48578485fd5b8084840185840137810190920192909252919491935090915050565b60008060408385031215614c76578182fd5b8235614c8181615915565b946020939093013593505050565b600080600080600060608688031215614ca6578283fd5b85356001600160401b0380821115614cbc578485fd5b614cc889838a0161496e565b90975095506020880135915080821115614ce0578485fd5b50614ced8882890161496e565b9094509250506040860135614d018161592d565b809150509295509295909350565b600060208284031215614d20578081fd5b81356001600160401b03811115614d35578182fd5b614699848285016149b7565b60008060408385031215614d53578182fd5b82356001600160401b0380821115614d69578384fd5b614d75868387016149b7565b93506020850135915080821115614d8a578283fd5b50614d9785828601614a2f565b9150509250929050565b600080600060608486031215614db5578081fd5b83356001600160401b0380821115614dcb578283fd5b614dd7878388016149b7565b94506020860135915080821115614dec578283fd5b50614df986828701614a2f565b9250506040840135614b1c8161592d565b60008060208385031215614e1c578182fd5b82356001600160401b03811115614e31578283fd5b614e3d8582860161496e565b90969095509350505050565b600080600080600060608688031215614e60578283fd5b85356001600160401b0380821115614e76578485fd5b614e8289838a0161496e565b90975095506020880135915080821115614e9a578485fd5b50614ea78882890161496e565b96999598509660400135949350505050565b60008060008060808587031215614ece578182fd5b84516001600160401b03811115614ee3578283fd5b8501601f81018713614ef3578283fd5b80516020614f036149d783615835565b8083825282820191508285018b848660051b8801011115614f22578788fd5b8795505b84861015614f44578051835260019590950194918301918301614f26565b509189015160408a01516060909a0151929b909a509197509095505050505050565b600060208284031215614f77578081fd5b815161295b8161592d565b600060208284031215614f93578081fd5b5035919050565b60008060408385031215614fac578182fd5b823591506020830135614fbe81615915565b809150509250929050565b60008060408385031215614fdb578182fd5b50508035926020909101359150565b600060208284031215614ffb578081fd5b81356001600160e01b03198116811461295b578182fd5b600060208284031215615023578081fd5b5051919050565b60006020828403121561503b578081fd5b61295b82614a8c565b60008060008060808587031215615059578182fd5b61506285614a8c565b935061507060208601614a8c565b925061507e60408601614a8c565b915061508c60608601614a8c565b905092959194509250565b81835260006020808501945082825b858110156150d45781356150b981615915565b6001600160a01b0316875295820195908201906001016150a6565b509495945050505050565b6000815180845260208085019450808401835b838110156150d45781516001600160a01b0316875295820195908201906001016150f2565b81835260006001600160fb1b0383111561512f578081fd5b8260051b80836020870137939093016020019283525090919050565b6000815180845260208085019450808401835b838110156150d45781518752958201959082019060010161515e565b600081518084526151928160208601602086016158a6565b601f01601f19169290920160200192915050565b600082516151b88184602087016158a6565b9190910192915050565b76020b1b1b2b9b9a1b7b73a3937b61d1030b1b1b7bab73a1604d1b8152600083516151f48160178501602088016158a6565b7001034b99036b4b9b9b4b733903937b6329607d1b60179184019182015283516152258160288401602088016158a6565b01602801949350505050565b6001600160a01b0391909116815260200190565b6001600160a01b0392831681529116602082015260400190565b6001600160a01b03871681526080602082018190526000906152849083018789615097565b8281036040840152615297818688615117565b9150508215156060830152979650505050505050565b6001600160a01b0383168152604060208201819052600090614699908301846150df565b6001600160a01b03841681526060602082018190526000906152f5908301856150df565b8281036040840152615307818561514b565b9695505050505050565b6001600160a01b0385168152608060208201819052600090615335908301866150df565b8281036040840152615347818661514b565b915050821515606083015295945050505050565b6001600160a01b038616815260a06020820181905260009061537f908301876150df565b8281036040840152615391818761514b565b606084019590955250509015156080909101529392505050565b6001600160a01b03841681526040602082018190526000906153d09083018486615117565b95945050505050565b6001600160a01b03831681526040602082018190526000906146999083018461517a565b6001600160a01b03929092168252602082015260400190565b60e08152600061542a60e083018b8d615097565b828103602084015261543d818a8c615117565b905087151560408401528281036060840152615459818861514b565b6080840196909652505060a081019290925260c0909101529695505050505050565b60608152600061548e60608301866150df565b82810360208401526154a0818661514b565b915050826040830152949350505050565b60208082528181018390526000906040808401600586811b8601830188865b8981101561558d57888303603f190185528135368c9003605e190181126154f5578889fd5b8b016060813561550481615915565b6001600160a01b031685528189013536839003601e19018112615525578a8bfd5b820180356001600160401b0381111561553c578b8cfd5b80881b360384131561554c578b8cfd5b828b880152615560838801828d8501615097565b9250505061556f888301614a8c565b63ffffffff16948801949094525093860193908601906001016154d0565b50909998505050505050505050565b6060815260006155b0606083018789615117565b82810360208401526155c3818688615117565b9150508260408301529695505050505050565b6040815260006155ea604083018587615117565b9050826020830152949350505050565b60808152600061560d608083018761514b565b6020830195909552506040810192909252606090910152919050565b60208101600c831061564b57634e487b7160e01b600052602160045260246000fd5b91905290565b60208152600061295b602083018461517a565b60208082526031908201527f43616c6c6572206973206e6f742077686974656c69737465642061732061206c60408201527034b8bab4b234ba3c90383937bb34b232b960791b606082015260800190565b6020808252602e908201527f496e697469616c697a61626c653a20636f6e747261637420697320616c72656160408201526d191e481a5b9a5d1a585b1a5e995960921b606082015260800190565b6020808252600b908201526a626164206164647265737360a81b604082015260600190565b6020808252602b908201527f496e697469616c697a61626c653a20636f6e7472616374206973206e6f74206960408201526a6e697469616c697a696e6760a81b606082015260800190565b60208082526019908201527810d85b1b195c881a5cc81b9bdd0819d85cc81858d8dbdd5b9d603a1b604082015260600190565b6020808252601f908201527f5265656e7472616e637947756172643a207265656e7472616e742063616c6c00604082015260600190565b63ffffffff948516815292841660208401529083166040830152909116606082015260800190565b604051601f8201601f191681016001600160401b038111828210171561582d5761582d6158ff565b604052919050565b60006001600160401b0382111561584e5761584e6158ff565b5060051b60200190565b6000821982111561586b5761586b6158e9565b500190565b600081600019048311821515161561588a5761588a6158e9565b500290565b6000828210156158a1576158a16158e9565b500390565b60005b838110156158c15781810151838201526020016158a9565b838111156116755750506000910152565b6000816158e1576158e16158e9565b506000190190565b634e487b7160e01b600052601160045260246000fd5b634e487b7160e01b600052604160045260246000fd5b6001600160a01b038116811461592a57600080fd5b50565b801515811461592a57600080fdfe6d53deaa1363a9a09a38da6f41ec59fc13a00b08c43141d19c181ddb970e9d2a45a03fb503c1bf173e1a78fdc6b62e74bfc9c0cac4b0db3c4a667287a0fb7b9d72fed0a30cb639f27f755e6f7c6edf975db0859d96eb67b27d2695c6486b1be0a2646970667358221220754bf2f0ea3d2c8673d2aa8fff8b6fe827031287f9a5d58b2f133d382f4e08d464736f6c63430008040033",
  "devdoc": {
    "kind": "dev",
    "methods": {
      "addIntegration(address,string)": {
        "params": {
          "contractAddress": "The address of the integration contract",
          "name": "The name of the protocol being integrated to"
        }
      },
      "addToken(address,bool,bool,bool,bool,uint256,uint256,uint256,uint256,uint256)": {
        "params": {
          "acceptingDeposits": "Whether token deposits are enabled",
          "acceptingWithdrawals": "Whether token withdrawals are enabled",
          "biosRewardWeight": "Token weight for BIOS rewards",
          "reserveRatioNumerator": "Number that gets divided by reserve ratio denominator to get reserve ratio",
          "tokenAddress": "The address of the ERC20 token contract"
        }
      },
      "biosBuyBack(uint256)": {
        "params": {
          "ratioX1000": "BIOS/WETH ratio for front runner protection"
        }
      },
      "claimAllRewards(uint256[])": {
        "params": {
          "strategies": "Array of strategy IDs to claim eth rewards from"
        },
        "returns": {
          "biosClaimed": "The amount of BIOS claimed by the user",
          "ethClaimed": "The amount of ETH claimed by the user"
        }
      },
      "claimBiosRewards()": {
        "returns": {
          "biosClaimed": "The amount of BIOS claimed by the user"
        }
      },
      "claimEthRewards(uint256[])": {
        "params": {
          "strategies": "Array of strategy IDs to claim rewards from. 0 for BIOS PFA!"
        },
        "returns": {
          "ethClaimed": "The amount of ETH claimed by the user"
        }
      },
      "claimLpFees(address[])": {
        "params": {
          "tokens": "Array of token the token addresses"
        }
      },
      "deposit(address[],uint256[])": {
        "params": {
          "amounts": "Array of token amounts",
          "tokens": "Array of token the token addresses"
        }
      },
      "getEthRewardsTimePeriod()": {
        "returns": {
          "ethRewardsTimePeriod": "The number of seconds between the last two ETH payouts"
        }
      },
      "getLastBiosBuyBackTimestamp()": {
        "returns": {
          "_0": "The timestamp the biosBuyBack function was last called"
        }
      },
      "getLastDeployTimestamp()": {
        "returns": {
          "_0": "The timestamp the deploy function was last called"
        }
      },
      "getLastDistributeEthTimestamp()": {
        "returns": {
          "_0": "The timestamp the distributeEth function was last called"
        }
      },
      "getRoleAdmin(bytes32)": {
        "details": "Returns the admin role that controls `role`. See {grantRole} and {revokeRole}. To change a role's admin, use {_setRoleAdmin}."
      },
      "getRoleMember(bytes32,uint256)": {
        "details": "Returns one of the accounts that have `role`. `index` must be a value between 0 and {getRoleMemberCount}, non-inclusive. Role bearers are not sorted in any particular way, and their ordering may change at any point. WARNING: When using {getRoleMember} and {getRoleMemberCount}, make sure you perform all queries on the same block. See the following https://forum.openzeppelin.com/t/iterating-over-elements-on-enumerableset-in-openzeppelin-contracts/2296[forum post] for more information."
      },
      "getRoleMemberCount(bytes32)": {
        "details": "Returns the number of accounts that have `role`. Can be used together with {getRoleMember} to enumerate all bearers of a role."
      },
      "grantRole(bytes32,address)": {
        "details": "Grants `role` to `account`. If `account` had not been already granted `role`, emits a {RoleGranted} event. Requirements: - the caller must have ``role``'s admin role."
      },
      "hasRole(bytes32,address)": {
        "details": "Returns `true` if `account` has been granted `role`."
      },
      "initialize(address,address,address)": {
        "params": {
          "admin_": "default administrator, a cold storage address",
          "moduleMap_": "Module Map address",
          "owner_": "single owner account, used to manage the managers"
        }
      },
      "isLiquidityProvider(address)": {
        "params": {
          "account": "The address of the account to check if they are a liquidity provider"
        },
        "returns": {
          "_0": "Bool indicating whether the account is a liquidity provider"
        }
      },
      "isManager(address)": {
        "params": {
          "account": "The address of the account to check if they are a manager"
        },
        "returns": {
          "_0": "Bool indicating whether the account is a manger"
        }
      },
      "isOwner(address)": {
        "params": {
          "account": "The address of the account to check if they are an owner"
        },
        "returns": {
          "_0": "Bool indicating whether the account is an owner"
        }
      },
      "provideLiquidity(address[],uint256[])": {
        "params": {
          "amounts": "Array of token amounts",
          "tokens": "Array of token the token addresses"
        }
      },
      "renounceRole(bytes32,address)": {
        "details": "Revokes `role` from the calling account. Roles are often managed via {grantRole} and {revokeRole}: this function's purpose is to provide a mechanism for accounts to lose their privileges if they are compromised (such as when a trusted device is misplaced). If the calling account had been revoked `role`, emits a {RoleRevoked} event. Requirements: - the caller must be `account`."
      },
      "revokeRole(bytes32,address)": {
        "details": "Revokes `role` from `account`. If `account` had been granted `role`, emits a {RoleRevoked} event. Requirements: - the caller must have ``role``'s admin role."
      },
      "seedBiosRewards(uint256)": {
        "params": {
          "biosAmount": "The amount of BIOS to add to the rewards"
        }
      },
      "setBiosRewardsDuration(uint32)": {
        "params": {
          "biosRewardsDuration": "The duration in seconds for a BIOS rewards period to last"
        }
      },
      "supportsInterface(bytes4)": {
        "details": "See {IERC165-supportsInterface}."
      },
      "takeLiquidity(address[],uint256[])": {
        "params": {
          "amounts": "Array of token amounts",
          "tokens": "Array of token the token addresses"
        }
      },
      "updateEthDistributionWeights(uint32,uint32,uint32,uint32)": {
        "params": {
          "biosBuyBackEthWeight": "The relative weight of ETH to send to BIOS buy back",
          "protocolFeeEthWeight": "The relative weight of ETH to send to protocol fee accrual",
          "rewardsEthWeight": "The relative weight of ETH to send to user rewards",
          "treasuryEthWeight": "The relative weight of ETH to send to the treasury"
        }
      },
      "updateGasAccount(address)": {
        "params": {
          "gasAccount": "The address of the account to send ETH to gas for executing bulk system functions"
        }
      },
      "updateGasAccountTargetEthBalance(uint256)": {
        "params": {
          "gasAccountTargetEthBalance": "The target ETH balance of the gas account"
        }
      },
      "updateTokenReserveRatioNumerator(address,uint256)": {
        "params": {
          "reserveRatioNumerator": "Number that gets divided by reserve ratio denominator to get reserve ratio",
          "tokenAddress": "the address of the token ERC20 contract"
        }
      },
      "updateTokenRewardWeight(address,uint256)": {
        "params": {
          "tokenAddress": "The address of the token ERC20 contract",
          "updatedWeight": "The updated token BIOS reward weight"
        }
      },
      "updateTokenTargetLiquidityRatioNumerator(address,uint256)": {
        "params": {
          "targetLiquidityRatioNumerator": "Number that gets divided by target liquidity ratio denominator to get target liquidity ratio",
          "tokenAddress": "the address of the token ERC20 contract"
        }
      },
      "updateTokenTransferFeeKValueNumerator(address,uint256)": {
        "params": {
          "tokenAddress": "the address of the token ERC20 contract",
          "transferFeeKValueNumerator": "Number that gets divided by transfer fee K-value denominator to get K-value"
        }
      },
      "updateTokenTransferFeePlatformRatioNumerator(address,uint256)": {
        "params": {
          "tokenAddress": "the address of the token ERC20 contract",
          "transferFeePlatformRatioNumerator": "Number that gets divided by transfer fee platform ratio denominator to get the ratio of transfer fees sent to the platform instead of LPers"
        }
      },
      "updateTreasuryAccount(address)": {
        "params": {
          "treasuryAccount": "The address of the system treasury account"
        }
      },
      "withdraw(address[],uint256[],bool)": {
        "params": {
          "amounts": "Array of token amounts",
          "tokens": "Array of token the token addresses",
          "withdrawWethAsEth": "Boolean indicating whether should receive WETH balance as ETH"
        }
      },
      "withdrawAllAndClaim(address[],uint256[],bool)": {
        "params": {
          "strategies": "Array of strategyIDs that user is claiming rewards from",
          "tokens": "Array of token address that user is exiting positions from",
          "withdrawWethAsEth": "Boolean indicating whether should receive WETH balance as ETH"
        },
        "returns": {
          "biosClaimed": "The amount of BIOS being claimed from rewards",
          "ethClaimed": "The amount of ETH being claimed from rewards",
          "ethWithdrawn": "The amount of WETH balance being withdrawn as ETH",
          "tokenAmounts": "The amounts of each token being withdrawn"
        }
      }
    },
    "title": "Kernel",
    "version": 1
  },
  "userdoc": {
    "kind": "user",
    "methods": {
      "addIntegration(address,string)": {
        "notice": "This function is used after tokens have been added, and a weight array should be included"
      },
      "biosBuyBack(uint256)": {
        "notice": "Uses any WETH held in the SushiSwap integration to buy back BIOS which is sent to the Kernel"
      },
      "claimAllRewards(uint256[])": {
        "notice": "Allows user to claim their ETH and BIOS rewards"
      },
      "claimBiosRewards()": {
        "notice": "Allows user to claim their BIOS rewards"
      },
      "claimEthRewards(uint256[])": {
        "notice": "Allows user to claim their ETH rewards"
      },
      "deploy((address,address[],uint32)[])": {
        "notice": "Deploys all tokens to all integrations according to configured weights"
      },
      "deposit(address[],uint256[])": {
        "notice": "User is allowed to deposit whitelisted tokens"
      },
      "distributeEth(uint256[],uint256[],uint256)": {
        "notice": "Distributes WETH to the gas account, BIOS buy back, treasury, protocol fee accrual, and user rewards"
      },
      "initialize(address,address,address)": {
        "notice": "Initializes contract - used as a replacement for a constructor"
      },
      "provideLiquidity(address[],uint256[])": {
        "notice": "User is allowed to LP whitelisted tokens"
      },
      "tokenApprovals()": {
        "notice": "Gives the UserPositions contract approval to transfer BIOS from Kernel"
      },
      "withdraw(address[],uint256[],bool)": {
        "notice": "User is allowed to withdraw tokens"
      },
      "withdrawAllAndClaim(address[],uint256[],bool)": {
        "notice": "Allows a user to withdraw entire undeployed balances of the specified tokens and claim rewards"
      }
    },
    "notice": "Allows users to deposit/withdraw erc20 tokensAllows a system admin to control which tokens are depositable",
    "version": 1
  },
  "storageLayout": {
    "storage": [
      {
        "astId": 723,
        "contract": "contracts/core/Kernel.sol:Kernel",
        "label": "_initialized",
        "offset": 0,
        "slot": "0",
        "type": "t_bool"
      },
      {
        "astId": 726,
        "contract": "contracts/core/Kernel.sol:Kernel",
        "label": "_initializing",
        "offset": 1,
        "slot": "0",
        "type": "t_bool"
      },
      {
        "astId": 2036,
        "contract": "contracts/core/Kernel.sol:Kernel",
        "label": "__gap",
        "offset": 0,
        "slot": "1",
        "type": "t_array(t_uint256)50_storage"
      },
      {
        "astId": 2285,
        "contract": "contracts/core/Kernel.sol:Kernel",
        "label": "__gap",
        "offset": 0,
        "slot": "51",
        "type": "t_array(t_uint256)50_storage"
      },
      {
        "astId": 204,
        "contract": "contracts/core/Kernel.sol:Kernel",
        "label": "_roles",
        "offset": 0,
        "slot": "101",
        "type": "t_mapping(t_bytes32,t_struct(RoleData)199_storage)"
      },
      {
        "astId": 491,
        "contract": "contracts/core/Kernel.sol:Kernel",
        "label": "__gap",
        "offset": 0,
        "slot": "102",
        "type": "t_array(t_uint256)49_storage"
      },
      {
        "astId": 45,
        "contract": "contracts/core/Kernel.sol:Kernel",
        "label": "_roleMembers",
        "offset": 0,
        "slot": "151",
        "type": "t_mapping(t_bytes32,t_struct(AddressSet)2698_storage)"
      },
      {
        "astId": 154,
        "contract": "contracts/core/Kernel.sol:Kernel",
        "label": "__gap",
        "offset": 0,
        "slot": "152",
        "type": "t_array(t_uint256)49_storage"
      },
      {
        "astId": 10143,
        "contract": "contracts/core/Kernel.sol:Kernel",
        "label": "moduleMap",
        "offset": 0,
        "slot": "201",
        "type": "t_contract(IModuleMap)20736"
      },
      {
        "astId": 804,
        "contract": "contracts/core/Kernel.sol:Kernel",
        "label": "_status",
        "offset": 0,
        "slot": "202",
        "type": "t_uint256"
      },
      {
        "astId": 847,
        "contract": "contracts/core/Kernel.sol:Kernel",
        "label": "__gap",
        "offset": 0,
        "slot": "203",
        "type": "t_array(t_uint256)49_storage"
      },
      {
        "astId": 8591,
        "contract": "contracts/core/Kernel.sol:Kernel",
        "label": "lastDeployTimestamp",
        "offset": 0,
        "slot": "252",
        "type": "t_uint256"
      },
      {
        "astId": 8593,
        "contract": "contracts/core/Kernel.sol:Kernel",
        "label": "lastHarvestYieldTimestamp",
        "offset": 0,
        "slot": "253",
        "type": "t_uint256"
      },
      {
        "astId": 8595,
        "contract": "contracts/core/Kernel.sol:Kernel",
        "label": "lastDistributeEthTimestamp",
        "offset": 0,
        "slot": "254",
        "type": "t_uint256"
      },
      {
        "astId": 8597,
        "contract": "contracts/core/Kernel.sol:Kernel",
        "label": "lastLastDistributeEthTimestamp",
        "offset": 0,
        "slot": "255",
        "type": "t_uint256"
      },
      {
        "astId": 8599,
        "contract": "contracts/core/Kernel.sol:Kernel",
        "label": "lastBiosBuyBackTimestamp",
        "offset": 0,
        "slot": "256",
        "type": "t_uint256"
      },
      {
        "astId": 8601,
        "contract": "contracts/core/Kernel.sol:Kernel",
        "label": "initializationTimestamp",
        "offset": 0,
        "slot": "257",
        "type": "t_uint256"
      },
      {
        "astId": 8603,
        "contract": "contracts/core/Kernel.sol:Kernel",
        "label": "lpWhitelistEnabled",
        "offset": 0,
        "slot": "258",
        "type": "t_bool"
      }
    ],
    "types": {
      "t_address": {
        "encoding": "inplace",
        "label": "address",
        "numberOfBytes": "20"
      },
      "t_array(t_bytes32)dyn_storage": {
        "base": "t_bytes32",
        "encoding": "dynamic_array",
        "label": "bytes32[]",
        "numberOfBytes": "32"
      },
      "t_array(t_uint256)49_storage": {
        "base": "t_uint256",
        "encoding": "inplace",
        "label": "uint256[49]",
        "numberOfBytes": "1568"
      },
      "t_array(t_uint256)50_storage": {
        "base": "t_uint256",
        "encoding": "inplace",
        "label": "uint256[50]",
        "numberOfBytes": "1600"
      },
      "t_bool": {
        "encoding": "inplace",
        "label": "bool",
        "numberOfBytes": "1"
      },
      "t_bytes32": {
        "encoding": "inplace",
        "label": "bytes32",
        "numberOfBytes": "32"
      },
      "t_contract(IModuleMap)20736": {
        "encoding": "inplace",
        "label": "contract IModuleMap",
        "numberOfBytes": "20"
      },
      "t_mapping(t_address,t_bool)": {
        "encoding": "mapping",
        "key": "t_address",
        "label": "mapping(address => bool)",
        "numberOfBytes": "32",
        "value": "t_bool"
      },
      "t_mapping(t_bytes32,t_struct(AddressSet)2698_storage)": {
        "encoding": "mapping",
        "key": "t_bytes32",
        "label": "mapping(bytes32 => struct EnumerableSetUpgradeable.AddressSet)",
        "numberOfBytes": "32",
        "value": "t_struct(AddressSet)2698_storage"
      },
      "t_mapping(t_bytes32,t_struct(RoleData)199_storage)": {
        "encoding": "mapping",
        "key": "t_bytes32",
        "label": "mapping(bytes32 => struct AccessControlUpgradeable.RoleData)",
        "numberOfBytes": "32",
        "value": "t_struct(RoleData)199_storage"
      },
      "t_mapping(t_bytes32,t_uint256)": {
        "encoding": "mapping",
        "key": "t_bytes32",
        "label": "mapping(bytes32 => uint256)",
        "numberOfBytes": "32",
        "value": "t_uint256"
      },
      "t_struct(AddressSet)2698_storage": {
        "encoding": "inplace",
        "label": "struct EnumerableSetUpgradeable.AddressSet",
        "members": [
          {
            "astId": 2697,
            "contract": "contracts/core/Kernel.sol:Kernel",
            "label": "_inner",
            "offset": 0,
            "slot": "0",
            "type": "t_struct(Set)2397_storage"
          }
        ],
        "numberOfBytes": "64"
      },
      "t_struct(RoleData)199_storage": {
        "encoding": "inplace",
        "label": "struct AccessControlUpgradeable.RoleData",
        "members": [
          {
            "astId": 196,
            "contract": "contracts/core/Kernel.sol:Kernel",
            "label": "members",
            "offset": 0,
            "slot": "0",
            "type": "t_mapping(t_address,t_bool)"
          },
          {
            "astId": 198,
            "contract": "contracts/core/Kernel.sol:Kernel",
            "label": "adminRole",
            "offset": 0,
            "slot": "1",
            "type": "t_bytes32"
          }
        ],
        "numberOfBytes": "64"
      },
      "t_struct(Set)2397_storage": {
        "encoding": "inplace",
        "label": "struct EnumerableSetUpgradeable.Set",
        "members": [
          {
            "astId": 2392,
            "contract": "contracts/core/Kernel.sol:Kernel",
            "label": "_values",
            "offset": 0,
            "slot": "0",
            "type": "t_array(t_bytes32)dyn_storage"
          },
          {
            "astId": 2396,
            "contract": "contracts/core/Kernel.sol:Kernel",
            "label": "_indexes",
            "offset": 0,
            "slot": "1",
            "type": "t_mapping(t_bytes32,t_uint256)"
          }
        ],
        "numberOfBytes": "64"
      },
      "t_uint256": {
        "encoding": "inplace",
        "label": "uint256",
        "numberOfBytes": "32"
      }
    }
  }
}