{
  "address": "0x1Cd3a902A65E5370D1fbCB72337a8C32487Ad5E0",
  "abi": [
    {
      "anonymous": false,
      "inputs": [
        {
          "indexed": true,
          "internalType": "uint256",
          "name": "id",
          "type": "uint256"
        }
      ],
      "name": "DeleteStrategy",
      "type": "event"
    },
    {
      "anonymous": false,
      "inputs": [
        {
          "indexed": true,
          "internalType": "uint256",
          "name": "id",
          "type": "uint256"
        },
        {
          "components": [
            {
              "internalType": "address",
              "name": "integration",
              "type": "address"
            },
            {
              "internalType": "uint32",
              "name": "ammPoolID",
              "type": "uint32"
            }
          ],
          "indexed": false,
          "internalType": "struct IStrategyMap.Integration[]",
          "name": "integrations",
          "type": "tuple[]"
        },
        {
          "components": [
            {
              "internalType": "uint256",
              "name": "integrationPairIdx",
              "type": "uint256"
            },
            {
              "internalType": "address",
              "name": "token",
              "type": "address"
            },
            {
              "internalType": "uint32",
              "name": "weight",
              "type": "uint32"
            }
          ],
          "indexed": false,
          "internalType": "struct IStrategyMap.Token[]",
          "name": "tokens",
          "type": "tuple[]"
        },
        {
          "indexed": false,
          "internalType": "string",
          "name": "name",
          "type": "string"
        }
      ],
      "name": "NewStrategy",
      "type": "event"
    },
    {
      "anonymous": false,
      "inputs": [
        {
          "indexed": true,
          "internalType": "uint256",
          "name": "id",
          "type": "uint256"
        },
        {
          "indexed": false,
          "internalType": "string",
          "name": "name",
          "type": "string"
        }
      ],
      "name": "UpdateName",
      "type": "event"
    },
    {
      "anonymous": false,
      "inputs": [
        {
          "indexed": true,
          "internalType": "uint256",
          "name": "id",
          "type": "uint256"
        },
        {
          "components": [
            {
              "internalType": "address",
              "name": "integration",
              "type": "address"
            },
            {
              "internalType": "uint32",
              "name": "ammPoolID",
              "type": "uint32"
            }
          ],
          "indexed": false,
          "internalType": "struct IStrategyMap.Integration[]",
          "name": "integrations",
          "type": "tuple[]"
        },
        {
          "components": [
            {
              "internalType": "uint256",
              "name": "integrationPairIdx",
              "type": "uint256"
            },
            {
              "internalType": "address",
              "name": "token",
              "type": "address"
            },
            {
              "internalType": "uint32",
              "name": "weight",
              "type": "uint32"
            }
          ],
          "indexed": false,
          "internalType": "struct IStrategyMap.Token[]",
          "name": "tokens",
          "type": "tuple[]"
        }
      ],
      "name": "UpdateStrategy",
      "type": "event"
    },
    {
      "inputs": [],
      "name": "TOKEN_WEIGHT",
      "outputs": [
        {
          "internalType": "uint32",
          "name": "",
          "type": "uint32"
        }
      ],
      "stateMutability": "view",
      "type": "function"
    },
    {
      "inputs": [
        {
          "internalType": "address[]",
          "name": "controllers_",
          "type": "address[]"
        },
        {
          "internalType": "address",
          "name": "moduleMap_",
          "type": "address"
        }
      ],
      "name": "__Controlled_init",
      "outputs": [],
      "stateMutability": "nonpayable",
      "type": "function"
    },
    {
      "inputs": [
        {
          "internalType": "address",
          "name": "controller",
          "type": "address"
        }
      ],
      "name": "addController",
      "outputs": [],
      "stateMutability": "nonpayable",
      "type": "function"
    },
    {
      "inputs": [
        {
          "internalType": "string",
          "name": "name",
          "type": "string"
        },
        {
          "components": [
            {
              "internalType": "address",
              "name": "integration",
              "type": "address"
            },
            {
              "internalType": "uint32",
              "name": "ammPoolID",
              "type": "uint32"
            }
          ],
          "internalType": "struct IStrategyMap.Integration[]",
          "name": "integrations",
          "type": "tuple[]"
        },
        {
          "components": [
            {
              "internalType": "uint256",
              "name": "integrationPairIdx",
              "type": "uint256"
            },
            {
              "internalType": "address",
              "name": "token",
              "type": "address"
            },
            {
              "internalType": "uint32",
              "name": "weight",
              "type": "uint32"
            }
          ],
          "internalType": "struct IStrategyMap.Token[]",
          "name": "tokens",
          "type": "tuple[]"
        },
        {
          "internalType": "uint256[]",
          "name": "maxCap",
          "type": "uint256[]"
        }
      ],
      "name": "addStrategy",
      "outputs": [],
      "stateMutability": "nonpayable",
      "type": "function"
    },
    {
      "inputs": [
        {
          "internalType": "address[]",
          "name": "tokens",
          "type": "address[]"
        }
      ],
      "name": "clearClosablePositions",
      "outputs": [],
      "stateMutability": "nonpayable",
      "type": "function"
    },
    {
      "inputs": [
        {
          "internalType": "address",
          "name": "token",
          "type": "address"
        },
        {
          "internalType": "uint256",
          "name": "amount",
          "type": "uint256"
        }
      ],
      "name": "closePositionsForWithdrawal",
      "outputs": [],
      "stateMutability": "nonpayable",
      "type": "function"
    },
    {
      "inputs": [
        {
          "internalType": "uint256",
          "name": "",
          "type": "uint256"
        }
      ],
      "name": "controllers",
      "outputs": [
        {
          "internalType": "address",
          "name": "",
          "type": "address"
        }
      ],
      "stateMutability": "view",
      "type": "function"
    },
    {
      "inputs": [
        {
          "internalType": "address",
          "name": "integration",
          "type": "address"
        },
        {
          "internalType": "uint32",
          "name": "poolID",
          "type": "uint32"
        },
        {
          "internalType": "address",
          "name": "token",
          "type": "address"
        },
        {
          "internalType": "uint256",
          "name": "amount",
          "type": "uint256"
        }
      ],
      "name": "decreaseDeployAmountChange",
      "outputs": [],
      "stateMutability": "nonpayable",
      "type": "function"
    },
    {
      "inputs": [
        {
          "internalType": "uint256",
          "name": "id",
          "type": "uint256"
        },
        {
          "components": [
            {
              "internalType": "address",
              "name": "token",
              "type": "address"
            },
            {
              "internalType": "uint256",
              "name": "amount",
              "type": "uint256"
            }
          ],
          "internalType": "struct IUserPositions.TokenMovement[]",
          "name": "tokens",
          "type": "tuple[]"
        }
      ],
      "name": "decreaseStrategy",
      "outputs": [],
      "stateMutability": "nonpayable",
      "type": "function"
    },
    {
      "inputs": [
        {
          "internalType": "uint256",
          "name": "id",
          "type": "uint256"
        }
      ],
      "name": "deleteStrategy",
      "outputs": [],
      "stateMutability": "nonpayable",
      "type": "function"
    },
    {
      "inputs": [
        {
          "internalType": "address",
          "name": "token",
          "type": "address"
        },
        {
          "internalType": "uint256",
          "name": "index",
          "type": "uint256"
        }
      ],
      "name": "getClosablePositions",
      "outputs": [
        {
          "components": [
            {
              "internalType": "address",
              "name": "integration",
              "type": "address"
            },
            {
              "internalType": "uint32",
              "name": "ammPoolID",
              "type": "uint32"
            },
            {
              "internalType": "uint256",
              "name": "amount",
              "type": "uint256"
            }
          ],
          "internalType": "struct IStrategyMap.ClosablePosition",
          "name": "",
          "type": "tuple"
        }
      ],
      "stateMutability": "view",
      "type": "function"
    },
    {
      "inputs": [
        {
          "internalType": "address",
          "name": "integration",
          "type": "address"
        },
        {
          "internalType": "uint32",
          "name": "poolID",
          "type": "uint32"
        },
        {
          "internalType": "address",
          "name": "token",
          "type": "address"
        }
      ],
      "name": "getDeployAmount",
      "outputs": [
        {
          "internalType": "int256",
          "name": "",
          "type": "int256"
        }
      ],
      "stateMutability": "view",
      "type": "function"
    },
    {
      "inputs": [
        {
          "internalType": "uint256",
          "name": "id",
          "type": "uint256"
        },
        {
          "internalType": "address",
          "name": "token",
          "type": "address"
        }
      ],
      "name": "getMaximumCap",
      "outputs": [
        {
          "internalType": "uint256",
          "name": "cap",
          "type": "uint256"
        }
      ],
      "stateMutability": "view",
      "type": "function"
    },
    {
      "inputs": [
        {
          "internalType": "uint256[]",
          "name": "ids",
          "type": "uint256[]"
        }
      ],
      "name": "getMultipleStrategies",
      "outputs": [
        {
          "components": [
            {
              "internalType": "string",
              "name": "name",
              "type": "string"
            },
            {
              "components": [
                {
                  "internalType": "address",
                  "name": "integration",
                  "type": "address"
                },
                {
                  "internalType": "uint32",
                  "name": "ammPoolID",
                  "type": "uint32"
                }
              ],
              "internalType": "struct IStrategyMap.Integration[]",
              "name": "integrations",
              "type": "tuple[]"
            },
            {
              "components": [
                {
                  "internalType": "uint256",
                  "name": "integrationPairIdx",
                  "type": "uint256"
                },
                {
                  "internalType": "address",
                  "name": "token",
                  "type": "address"
                },
                {
                  "internalType": "uint32",
                  "name": "weight",
                  "type": "uint32"
                }
              ],
              "internalType": "struct IStrategyMap.Token[]",
              "name": "tokens",
              "type": "tuple[]"
            }
          ],
          "internalType": "struct IStrategyMap.StrategySummary[]",
          "name": "",
          "type": "tuple[]"
        }
      ],
      "stateMutability": "view",
      "type": "function"
    },
    {
      "inputs": [
        {
          "internalType": "uint256",
          "name": "id",
          "type": "uint256"
        }
      ],
      "name": "getStrategy",
      "outputs": [
        {
          "components": [
            {
              "internalType": "string",
              "name": "name",
              "type": "string"
            },
            {
              "components": [
                {
                  "internalType": "address",
                  "name": "integration",
                  "type": "address"
                },
                {
                  "internalType": "uint32",
                  "name": "ammPoolID",
                  "type": "uint32"
                }
              ],
              "internalType": "struct IStrategyMap.Integration[]",
              "name": "integrations",
              "type": "tuple[]"
            },
            {
              "components": [
                {
                  "internalType": "uint256",
                  "name": "integrationPairIdx",
                  "type": "uint256"
                },
                {
                  "internalType": "address",
                  "name": "token",
                  "type": "address"
                },
                {
                  "internalType": "uint32",
                  "name": "weight",
                  "type": "uint32"
                }
              ],
              "internalType": "struct IStrategyMap.Token[]",
              "name": "tokens",
              "type": "tuple[]"
            }
          ],
          "internalType": "struct IStrategyMap.StrategySummary",
          "name": "",
          "type": "tuple"
        }
      ],
      "stateMutability": "view",
      "type": "function"
    },
    {
      "inputs": [
        {
          "internalType": "uint256[]",
          "name": "_strategies",
          "type": "uint256[]"
        },
        {
          "internalType": "address[]",
          "name": "_tokens",
          "type": "address[]"
        }
      ],
      "name": "getStrategyBalances",
      "outputs": [
        {
          "components": [
            {
              "internalType": "uint256",
              "name": "strategyID",
              "type": "uint256"
            },
            {
              "components": [
                {
                  "internalType": "address",
                  "name": "token",
                  "type": "address"
                },
                {
                  "internalType": "uint256",
                  "name": "balance",
                  "type": "uint256"
                }
              ],
              "internalType": "struct IStrategyMap.GeneralBalance[]",
              "name": "tokens",
              "type": "tuple[]"
            }
          ],
          "internalType": "struct IStrategyMap.StrategyBalance[]",
          "name": "strategyBalances",
          "type": "tuple[]"
        },
        {
          "components": [
            {
              "internalType": "address",
              "name": "token",
              "type": "address"
            },
            {
              "internalType": "uint256",
              "name": "balance",
              "type": "uint256"
            }
          ],
          "internalType": "struct IStrategyMap.GeneralBalance[]",
          "name": "generalBalances",
          "type": "tuple[]"
        }
      ],
      "stateMutability": "view",
      "type": "function"
    },
    {
      "inputs": [
        {
          "internalType": "uint256",
          "name": "id",
          "type": "uint256"
        },
        {
          "internalType": "address",
          "name": "token",
          "type": "address"
        }
      ],
      "name": "getStrategyTokenBalance",
      "outputs": [
        {
          "internalType": "uint256",
          "name": "amount",
          "type": "uint256"
        }
      ],
      "stateMutability": "view",
      "type": "function"
    },
    {
      "inputs": [
        {
          "internalType": "uint256",
          "name": "strategy",
          "type": "uint256"
        }
      ],
      "name": "getStrategyTokenLength",
      "outputs": [
        {
          "internalType": "uint256",
          "name": "",
          "type": "uint256"
        }
      ],
      "stateMutability": "view",
      "type": "function"
    },
    {
      "inputs": [
        {
          "internalType": "address",
          "name": "token",
          "type": "address"
        }
      ],
      "name": "getTokenTotalBalance",
      "outputs": [
        {
          "internalType": "uint256",
          "name": "amount",
          "type": "uint256"
        }
      ],
      "stateMutability": "view",
      "type": "function"
    },
    {
      "inputs": [],
      "name": "idCounter",
      "outputs": [
        {
          "internalType": "uint256",
          "name": "",
          "type": "uint256"
        }
      ],
      "stateMutability": "view",
      "type": "function"
    },
    {
      "inputs": [
        {
          "internalType": "uint256",
          "name": "id",
          "type": "uint256"
        },
        {
          "components": [
            {
              "internalType": "address",
              "name": "token",
              "type": "address"
            },
            {
              "internalType": "uint256",
              "name": "amount",
              "type": "uint256"
            }
          ],
          "internalType": "struct IUserPositions.TokenMovement[]",
          "name": "tokens",
          "type": "tuple[]"
        }
      ],
      "name": "increaseStrategy",
      "outputs": [],
      "stateMutability": "nonpayable",
      "type": "function"
    },
    {
      "inputs": [
        {
          "internalType": "uint256",
          "name": "id",
          "type": "uint256"
        },
        {
          "components": [
            {
              "internalType": "address",
              "name": "token",
              "type": "address"
            },
            {
              "internalType": "uint256",
              "name": "amount",
              "type": "uint256"
            }
          ],
          "internalType": "struct IUserPositions.TokenMovement[]",
          "name": "tokens",
          "type": "tuple[]"
        }
      ],
      "name": "increaseTokenBalance",
      "outputs": [],
      "stateMutability": "nonpayable",
      "type": "function"
    },
    {
      "inputs": [
        {
          "internalType": "address[]",
          "name": "controllers_",
          "type": "address[]"
        },
        {
          "internalType": "address",
          "name": "moduleMap_",
          "type": "address"
        }
      ],
      "name": "initialize",
      "outputs": [],
      "stateMutability": "nonpayable",
      "type": "function"
    },
    {
      "inputs": [],
      "name": "moduleMap",
      "outputs": [
        {
          "internalType": "contract IModuleMap",
          "name": "",
          "type": "address"
        }
      ],
      "stateMutability": "view",
      "type": "function"
    },
    {
      "inputs": [
        {
          "internalType": "uint256",
          "name": "id",
          "type": "uint256"
        },
        {
          "internalType": "address",
          "name": "token",
          "type": "address"
        },
        {
          "internalType": "uint256",
          "name": "maxCap",
          "type": "uint256"
        }
      ],
      "name": "setMaximumCap",
      "outputs": [],
      "stateMutability": "nonpayable",
      "type": "function"
    },
    {
      "inputs": [
        {
          "internalType": "uint256",
          "name": "id",
          "type": "uint256"
        },
        {
          "internalType": "string",
          "name": "name",
          "type": "string"
        }
      ],
      "name": "updateName",
      "outputs": [],
      "stateMutability": "nonpayable",
      "type": "function"
    },
    {
      "inputs": [
        {
          "internalType": "uint256",
          "name": "id",
          "type": "uint256"
        },
        {
          "components": [
            {
              "internalType": "address",
              "name": "integration",
              "type": "address"
            },
            {
              "internalType": "uint32",
              "name": "ammPoolID",
              "type": "uint32"
            }
          ],
          "internalType": "struct IStrategyMap.Integration[]",
          "name": "integrations",
          "type": "tuple[]"
        },
        {
          "components": [
            {
              "internalType": "uint256",
              "name": "integrationPairIdx",
              "type": "uint256"
            },
            {
              "internalType": "address",
              "name": "token",
              "type": "address"
            },
            {
              "internalType": "uint32",
              "name": "weight",
              "type": "uint32"
            }
          ],
          "internalType": "struct IStrategyMap.Token[]",
          "name": "tokens",
          "type": "tuple[]"
        },
        {
          "internalType": "uint256[]",
          "name": "maxCap",
          "type": "uint256[]"
        }
      ],
      "name": "updateStrategy",
      "outputs": [],
      "stateMutability": "nonpayable",
      "type": "function"
    }
  ],
  "transactionHash": "0x7b46fd94e8dfd060681a6fc7180076b9181c2c00f2d5ef539ef9d51e9c77e795",
  "args": [],
  "solcInputHash": "3431e4381f2519326a70e3e5c8d5090e",
  "bytecode": "0x608060405234801561001057600080fd5b50614df5806100206000396000f3fe608060405234801561001057600080fd5b50600436106101495760003560e01c80630f0a1c6f1461014e5780631416110b1461017d5780631975762f1461019257806319fed71e146101b257806327ddb971146101c557806343b17d63146101f6578063462d0b2e1461020957806353e76f2c1461021c5780635560066a1461022f57806377205dce1461024257806385039aa61461027b578063873020371461028e57806398c671ce146102a15780639d6eaec2146102b4578063a441f6ec146102e9578063a742d0b61461032d578063a7fc7a0714610356578063b2da600014610369578063c68d90761461037c578063ce19bda11461038f578063cfc0cc34146103ae578063d4a4a043146103ce578063e94b0dd2146103e1578063eb08ab28146103f4578063ee73ccae146103fd578063f7e50fcf14610410578063ffeeb23414610459575b600080fd5b600054610167906201000090046001600160a01b031681565b6040516101749190614843565b60405180910390f35b61019061018b36600461454e565b61047a565b005b6101a56101a036600461410f565b6109fb565b6040516101749190614959565b6101906101c036600461429b565b610ae1565b6101e86101d3366004614419565b60009081526003602052604090206002015490565b604051908152602001610174565b61019061020436600461410f565b610d5d565b61019061021736600461414e565b610e13565b61019061022a366004614597565b610e90565b61019061023d36600461404e565b610f8c565b6101e8610250366004614449565b60009182526003602090815260408084206001600160a01b0390931684526004909201905290205490565b61019061028936600461454e565b611543565b61019061029c366004614419565b611759565b6101906102af36600461414e565b61192f565b6101e86102c2366004614449565b60009182526005602090815260408084206001600160a01b03909316845291905290205490565b6102fc6102f736600461404e565b611abe565b6040805182516001600160a01b0316815260208084015163ffffffff16908201529181015190820152606001610174565b6101e861033b36600461400f565b6001600160a01b031660009081526004602052604090205490565b61019061036436600461400f565b611b63565b610190610377366004614478565b611da0565b61019061038a3660046144af565b611f75565b610399620186a081565b60405163ffffffff9091168152602001610174565b6103c16103bc366004614419565b6126ba565b6040516101749190614be0565b6101906103dc36600461454e565b61287f565b6101676103ef366004614419565b612e4c565b6101e860085481565b61019061040b3660046140c1565b612e76565b6101e861041e366004614079565b6001600160a01b03808416600090815260066020908152604080832063ffffffff871684528252808320938516835292905220549392505050565b61046c610467366004614213565b612f54565b6040516101749291906148d2565b3360009081526001602052604090205460ff166104b25760405162461bcd60e51b81526004016104a990614b8c565b60405180910390fd5b60006104bd846126ba565b905060005b828110156109f4576000858152600360208190526040822001908585848181106104fc57634e487b7160e01b600052603260045260246000fd5b610512926020604090920201908101915061400f565b6001600160a01b0316815260208101919091526040016000205460ff1661054b5760405162461bcd60e51b81526004016104a990614b39565b60008581526003602052604081206004018186868581811061057d57634e487b7160e01b600052603260045260246000fd5b610593926020604090920201908101915061400f565b6001600160a01b0316815260208101919091526040016000205490508015610691578484838181106105d557634e487b7160e01b600052603260045260246000fd5b9050604002016020013560056000888152602001908152602001600020600087878681811061061457634e487b7160e01b600052603260045260246000fd5b61062a926020604090920201908101915061400f565b6001600160a01b03166001600160a01b03168152602001908152602001600020546106559190614c64565b81116106915760405162461bcd60e51b815260206004820152600b60248201526a617420636170616369747960a81b60448201526064016104a9565b8484838181106106b157634e487b7160e01b600052603260045260246000fd5b905060400201602001356005600088815260200190815260200160002060008787868181106106f057634e487b7160e01b600052603260045260246000fd5b610706926020604090920201908101915061400f565b6001600160a01b03166001600160a01b0316815260200190815260200160002060008282546107359190614c64565b90915550859050848381811061075b57634e487b7160e01b600052603260045260246000fd5b905060400201602001356004600087878681811061078957634e487b7160e01b600052603260045260246000fd5b61079f926020604090920201908101915061400f565b6001600160a01b03166001600160a01b0316815260200190815260200160002060008282546107ce9190614c64565b90915550600090505b8360400151518110156109df578360400151818151811061080857634e487b7160e01b600052603260045260246000fd5b6020026020010151602001516001600160a01b031686868581811061083d57634e487b7160e01b600052603260045260246000fd5b610853926020604090920201908101915061400f565b6001600160a01b031614156109cd57600084602001518560400151838151811061088d57634e487b7160e01b600052603260045260246000fd5b602002602001015160000151815181106108b757634e487b7160e01b600052603260045260246000fd5b602002602001015190506109338787868181106108e457634e487b7160e01b600052603260045260246000fd5b905060400201602001358660400151848151811061091257634e487b7160e01b600052603260045260246000fd5b60200260200101516040015163ffffffff16620186a063ffffffff16613497565b81516001600160a01b031660009081526006602090815260408083208286015163ffffffff16845290915281209089898881811061098157634e487b7160e01b600052603260045260246000fd5b610997926020604090920201908101915061400f565b6001600160a01b03166001600160a01b0316815260200190815260200160002060008282546109c69190614c23565b9091555050505b806109d781614d63565b9150506107d7565b505080806109ec90614d63565b9150506104c2565b5050505050565b60606000826001600160401b03811115610a2557634e487b7160e01b600052604160045260246000fd5b604051908082528060200260200182016040528015610a5e57816020015b610a4b613c3c565b815260200190600190039081610a435790505b50905060005b83811015610ad957610a9b858583818110610a8f57634e487b7160e01b600052603260045260246000fd5b905060200201356126ba565b828281518110610abb57634e487b7160e01b600052603260045260246000fd5b60200260200101819052508080610ad190614d63565b915050610a64565b509392505050565b3360009081526001602052604090205460ff16610b105760405162461bcd60e51b81526004016104a990614b8c565b84610b2d5760405162461bcd60e51b81526004016104a990614a23565b82610b4a5760405162461bcd60e51b81526004016104a990614ae7565b86610b8a5760405162461bcd60e51b815260206004820152601060248201526f6d75737420686176652061206e616d6560801b60448201526064016104a9565b828114610bcc5760405162461bcd60e51b815260206004820152601060248201526f6361707320617265206d697373696e6760801b60448201526064016104a9565b60088054906000610bdc83614d63565b919050555060006008549050610d10818a8a8080601f016020809104026020016040519081016040528093929190818152602001838380828437600081840152601f19601f820116905080830192505050505050508989808060200260200160405190810160405280939291908181526020016000905b82821015610c7f57610c7060408302860136819003810190614359565b81526020019060010190610c53565b50505050508888808060200260200160405190810160405280939291908181526020016000905b82821015610cd257610cc3606083028601368190038101906143b4565b81526020019060010190610ca6565b50505050508787808060200260200160405190810160405280939291908181526020018383602002808284376000920191909152506134b692505050565b807f4e61f7bf6a133a1b5c26fdae178f0d6316fa1214e5d7f1153e67c688dc64eef0888888888e8e604051610d4a96959493929190614889565b60405180910390a2505050505050505050565b3360009081526001602052604090205460ff16610d8c5760405162461bcd60e51b81526004016104a990614b8c565b60005b81811015610e0e5760076000848484818110610dbb57634e487b7160e01b600052603260045260246000fd5b9050602002016020810190610dd0919061400f565b6001600160a01b03166001600160a01b031681526020019081526020016000206000610dfc9190613c5d565b80610e0681614d63565b915050610d8f565b505050565b600054610100900460ff16610e2e5760005460ff1615610e32565b303b155b610e4e5760405162461bcd60e51b81526004016104a990614a74565b600054610100900460ff16158015610e70576000805461ffff19166101011790555b610e7a838361192f565b8015610e0e576000805461ff0019169055505050565b3360009081526001602052604090205460ff16610ebf5760405162461bcd60e51b81526004016104a990614b8c565b60008381526003602052604081208054610ed890614d28565b905011610ef75760405162461bcd60e51b81526004016104a9906149f6565b80610f335760405162461bcd60e51b815260206004820152600c60248201526b696e76616c6964206e616d6560a01b60448201526064016104a9565b6000838152600360205260409020610f4c908383613c81565b50827fac2072268d18e10aecad35c0c04acd66330b2571a8ff403e3c702d77d3bab1348383604051610f7f9291906149e2565b60405180910390a2505050565b3360009081526001602052604090205460ff16610fbb5760405162461bcd60e51b81526004016104a990614b8c565b6001600160a01b038216600090815260076020908152604080832080548251818502810185019093528083529192909190849084015b8282101561104e576000848152602090819020604080516060810182526002860290920180546001600160a01b0381168452600160a01b900463ffffffff1683850152600190810154918301919091529083529092019101610ff1565b5050505090506000808060029054906101000a90046001600160a01b03166001600160a01b0316636f8c3f8a60006040518263ffffffff1660e01b815260040161109891906149ba565b60206040518083038186803b1580156110b057600080fd5b505afa1580156110c4573d6000803e3d6000fd5b505050506040513d601f19601f820116820180604052508101906110e89190614032565b8351909150156109f4576000600184516111029190614cfa565b90505b6040516370a0823160e01b81526000906001600160a01b038816906370a0823190611134908690600401614843565b60206040518083038186803b15801561114c57600080fd5b505afa158015611160573d6000803e3d6000fd5b505050506040513d601f19601f820116820180604052508101906111849190614431565b90508482815181106111a657634e487b7160e01b600052603260045260246000fd5b60200260200101516020015163ffffffff166000141561128f578482815181106111e057634e487b7160e01b600052603260045260246000fd5b6020026020010151600001516001600160a01b031663f3fef3a38887858151811061121b57634e487b7160e01b600052603260045260246000fd5b6020026020010151604001516040518363ffffffff1660e01b81526004016112589291906001600160a01b03929092168252602082015260400190565b600060405180830381600087803b15801561127257600080fd5b505af1158015611286573d6000803e3d6000fd5b50505050611391565b8482815181106112af57634e487b7160e01b600052603260045260246000fd5b6020026020010151600001516001600160a01b0316637db2ddfe888785815181106112ea57634e487b7160e01b600052603260045260246000fd5b60200260200101516040015188868151811061131657634e487b7160e01b600052603260045260246000fd5b60209081029190910181015101516040516001600160e01b031960e086901b1681526001600160a01b039093166004840152602483019190915263ffffffff166044820152606401600060405180830381600087803b15801561137857600080fd5b505af115801561138c573d6000803e3d6000fd5b505050505b600081886001600160a01b03166370a08231866040518263ffffffff1660e01b81526004016113c09190614843565b60206040518083038186803b1580156113d857600080fd5b505afa1580156113ec573d6000803e3d6000fd5b505050506040513d601f19601f820116820180604052508101906114109190614431565b61141a9190614cfa565b6001600160a01b03891660009081526007602052604090208054919250908061145357634e487b7160e01b600052603160045260246000fd5b60008281526020812060026000199093019283020180546001600160c01b0319168155600101559055855161150c908790859081106114a257634e487b7160e01b600052603260045260246000fd5b6020026020010151600001518785815181106114ce57634e487b7160e01b600052603260045260246000fd5b6020026020010151602001518a8987815181106114fb57634e487b7160e01b600052603260045260246000fd5b602002602001015160400151612e76565b6115168186614c64565b945086851061152657505061153b565b5050808061153390614d11565b915050611105565b505050505050565b3360009081526001602052604090205460ff166115725760405162461bcd60e51b81526004016104a990614b8c565b60005b81811015611753576000848152600360208190526040822001908484848181106115af57634e487b7160e01b600052603260045260246000fd5b6115c5926020604090920201908101915061400f565b6001600160a01b0316815260208101919091526040016000205460ff166115fe5760405162461bcd60e51b81526004016104a990614b39565b82828281811061161e57634e487b7160e01b600052603260045260246000fd5b9050604002016020013560056000868152602001908152602001600020600085858581811061165d57634e487b7160e01b600052603260045260246000fd5b611673926020604090920201908101915061400f565b6001600160a01b03166001600160a01b0316815260200190815260200160002060008282546116a29190614c64565b9091555083905082828181106116c857634e487b7160e01b600052603260045260246000fd5b90506040020160200135600460008585858181106116f657634e487b7160e01b600052603260045260246000fd5b61170c926020604090920201908101915061400f565b6001600160a01b03166001600160a01b03168152602001908152602001600020600082825461173b9190614c64565b9091555081905061174b81614d63565b915050611575565b50505050565b3360009081526001602052604090205460ff166117885760405162461bcd60e51b81526004016104a990614b8c565b6000611793826126ba565b905060005b8160400151518110156118c857600560008481526020019081526020016000206000836040015183815181106117de57634e487b7160e01b600052603260045260246000fd5b6020026020010151602001516001600160a01b03166001600160a01b031681526020019081526020016000205460001461184c5760405162461bcd60e51b815260206004820152600f60248201526e737472617465677920696e2075736560881b60448201526064016104a9565b6003600084815260200190815260200160002060030160008360400151838151811061188857634e487b7160e01b600052603260045260246000fd5b6020908102919091018101518101516001600160a01b03168252810191909152604001600020805460ff19169055806118c081614d63565b915050611798565b506000828152600360205260408120906118e28282613d05565b6118f0600183016000613d3f565b6118fe600283016000613d5d565b505060405182907f79097c9b1a7ba453a3ecc60124deebb47c637495f9912752840842a8ae28905690600090a25050565b600054610100900460ff1661194a5760005460ff161561194e565b303b155b61196a5760405162461bcd60e51b81526004016104a990614a74565b600054610100900460ff1615801561198c576000805461ffff19166101011790555b6001600160a01b0382166119b25760405162461bcd60e51b81526004016104a990614ac2565b60005b8351811015611a2a5760006001600160a01b03168482815181106119e957634e487b7160e01b600052603260045260246000fd5b60200260200101516001600160a01b03161415611a185760405162461bcd60e51b81526004016104a990614ac2565b80611a2281614d63565b9150506119b5565b5060005b8351811015611aa0576001806000868481518110611a5c57634e487b7160e01b600052603260045260246000fd5b6020908102919091018101516001600160a01b03168252810191909152604001600020805460ff191691151591909117905580611a9881614d63565b915050611a2e565b508251611ab4906002906020860190613d7e565b50610e7a82613ba8565b60408051606081018252600080825260208083018290528284018290526001600160a01b03861682526007905291909120805483908110611b0f57634e487b7160e01b600052603260045260246000fd5b60009182526020918290206040805160608101825260029390930290910180546001600160a01b0381168452600160a01b900463ffffffff1693830193909352600190920154918101919091529392505050565b600080546040516337c61fc560e11b8152620100009091046001600160a01b031691636f8c3f8a91611b9891906004016149ba565b60206040518083038186803b158015611bb057600080fd5b505afa158015611bc4573d6000803e3d6000fd5b505050506040513d601f19601f82011682018060405250810190611be89190614032565b6001600160a01b0316632f54bf6e336040518263ffffffff1660e01b8152600401611c139190614843565b60206040518083038186803b158015611c2b57600080fd5b505afa158015611c3f573d6000803e3d6000fd5b505050506040513d601f19601f82011682018060405250810190611c63919061427b565b611cc25760405162461bcd60e51b815260206004820152602a60248201527f436f6e74726f6c6c65643a3a6f6e6c794f776e65723a2043616c6c6572206973604482015269103737ba1037bbb732b960b11b60648201526084016104a9565b6001600160a01b03811660009081526001602081905260408220805460ff19169091179055805b600254811015611d4a5760028181548110611d1457634e487b7160e01b600052603260045260246000fd5b6000918252602090912001546001600160a01b0384811691161415611d3857600191505b80611d4281614d63565b915050611ce9565b5080611d9c57600280546001810182556000919091527f405787fa12a823e0f2b7631cc41b3ba8828b3321ca811111fa75cd3aa3bb5ace0180546001600160a01b0319166001600160a01b0384161790555b5050565b600080546040516337c61fc560e11b8152620100009091046001600160a01b031691636f8c3f8a91611dd591906004016149ba565b60206040518083038186803b158015611ded57600080fd5b505afa158015611e01573d6000803e3d6000fd5b505050506040513d601f19601f82011682018060405250810190611e259190614032565b6001600160a01b031663f3ae2415336040518263ffffffff1660e01b8152600401611e509190614843565b60206040518083038186803b158015611e6857600080fd5b505afa158015611e7c573d6000803e3d6000fd5b505050506040513d601f19601f82011682018060405250810190611ea0919061427b565b611f035760405162461bcd60e51b815260206004820152602e60248201527f436f6e74726f6c6c65643a3a6f6e6c794d616e616765723a2043616c6c65722060448201526d34b9903737ba1036b0b730b3b2b960911b60648201526084016104a9565b6001600160a01b038216611f295760405162461bcd60e51b81526004016104a990614a51565b600854831115611f4b5760405162461bcd60e51b81526004016104a990614b0f565b60009283526003602090815260408085206001600160a01b03909416855260049093019052912055565b3360009081526001602052604090205460ff16611fa45760405162461bcd60e51b81526004016104a990614b8c565b84611fc15760405162461bcd60e51b81526004016104a990614a23565b82611fde5760405162461bcd60e51b81526004016104a990614ae7565b60008781526003602052604081208054611ff790614d28565b9050116120165760405162461bcd60e51b81526004016104a9906149f6565b6000612021886126ba565b600089815260036020526040812091925061203f9160020190613d5d565b600088815260036020526040812061205c91600190910190613d3f565b60005b81604001515181101561230857620186a063ffffffff168260400151828151811061209a57634e487b7160e01b600052603260045260246000fd5b60200260200101516040015163ffffffff16600560008c81526020019081526020016000206000856040015185815181106120e557634e487b7160e01b600052603260045260246000fd5b6020026020010151602001516001600160a01b03166001600160a01b031681526020019081526020016000205461211c9190614c9c565b6121269190614c7c565b6006600084602001518560400151858151811061215357634e487b7160e01b600052603260045260246000fd5b6020026020010151600001518151811061217d57634e487b7160e01b600052603260045260246000fd5b6020026020010151600001516001600160a01b03166001600160a01b0316815260200190815260200160002060008460200151856040015185815181106121d457634e487b7160e01b600052603260045260246000fd5b602002602001015160000151815181106121fe57634e487b7160e01b600052603260045260246000fd5b60200260200101516020015163ffffffff1663ffffffff16815260200190815260200160002060008460400151848151811061224a57634e487b7160e01b600052603260045260246000fd5b6020026020010151602001516001600160a01b03166001600160a01b0316815260200190815260200160002060008282546122859190614cbb565b92505081905550600360008a81526020019081526020016000206003016000836040015183815181106122c857634e487b7160e01b600052603260045260246000fd5b6020908102919091018101518101516001600160a01b03168252810191909152604001600020805460ff191690558061230081614d63565b91505061205f565b5060005b848110156125c75760008981526005602052604081208188888581811061234357634e487b7160e01b600052603260045260246000fd5b905060600201602001602081019061235b919061400f565b6001600160a01b03166001600160a01b031681526020019081526020016000205411156125b557620186a08686838181106123a657634e487b7160e01b600052603260045260246000fd5b90506060020160400160208101906123be91906145d3565b63ffffffff16600560008c815260200190815260200160002060008989868181106123f957634e487b7160e01b600052603260045260246000fd5b9050606002016020016020810190612411919061400f565b6001600160a01b03166001600160a01b031681526020019081526020016000205461243c9190614c9c565b6124469190614c7c565b600660008a8a8a8a8781811061246c57634e487b7160e01b600052603260045260246000fd5b9050606002016000013581811061249357634e487b7160e01b600052603260045260246000fd5b6124a9926020604090920201908101915061400f565b6001600160a01b03166001600160a01b0316815260200190815260200160002060008a8a8a8a878181106124ed57634e487b7160e01b600052603260045260246000fd5b9050606002016000013581811061251457634e487b7160e01b600052603260045260246000fd5b905060400201602001602081019061252c91906145d3565b63ffffffff1663ffffffff168152602001908152602001600020600088888581811061256857634e487b7160e01b600052603260045260246000fd5b9050606002016020016020810190612580919061400f565b6001600160a01b03166001600160a01b0316815260200190815260200160002060008282546125af9190614c23565b90915550505b806125bf81614d63565b91505061230c565b506126728882600001518989808060200260200160405190810160405280939291908181526020016000905b8282101561261f5761261060408302860136819003810190614359565b815260200190600101906125f3565b50505050508888808060200260200160405190810160405280939291908181526020016000905b82821015610cd257612663606083028601368190038101906143b4565b81526020019060010190612646565b877fff42d8810dd20b2ca67dcd42122a89f3901dfc9f4a6b77e745f38ca8566c9585888888886040516126a89493929190614857565b60405180910390a25050505050505050565b6126c2613c3c565b6126ca613c3c565b600083815260036020526040902080546126e390614d28565b80601f016020809104026020016040519081016040528092919081815260200182805461270f90614d28565b801561275c5780601f106127315761010080835404028352916020019161275c565b820191906000526020600020905b81548152906001019060200180831161273f57829003601f168201915b5050509183525050600083815260036020908152604080832060010180548251818502810185019093528083529193909284015b828210156127dc57600084815260209081902060408051808201909152908401546001600160a01b0381168252600160a01b900463ffffffff1681830152825260019092019101612790565b5050505060208083019190915260008481526003825260408082206002018054825181860281018601909352808352919390929084015b828210156128705760008481526020908190206040805160608101825260028602909201805483526001908101546001600160a01b03811684860152600160a01b900463ffffffff16918301919091529083529092019101612813565b50505050604082015292915050565b3360009081526001602052604090205460ff166128ae5760405162461bcd60e51b81526004016104a990614b8c565b60006128b9846126ba565b90506000816040015151116128e05760405162461bcd60e51b81526004016104a990614b0f565b60005b828110156109f45783838281811061290b57634e487b7160e01b600052603260045260246000fd5b9050604002016020013560056000878152602001908152602001600020600086868581811061294a57634e487b7160e01b600052603260045260246000fd5b612960926020604090920201908101915061400f565b6001600160a01b03166001600160a01b0316815260200190815260200160002054101561299f5760405162461bcd60e51b81526004016104a990614b60565b8383828181106129bf57634e487b7160e01b600052603260045260246000fd5b90506040020160200135600460008686858181106129ed57634e487b7160e01b600052603260045260246000fd5b612a03926020604090920201908101915061400f565b6001600160a01b03166001600160a01b03168152602001908152602001600020541015612a425760405162461bcd60e51b81526004016104a990614b60565b838382818110612a6257634e487b7160e01b600052603260045260246000fd5b90506040020160200135600560008781526020019081526020016000206000868685818110612aa157634e487b7160e01b600052603260045260246000fd5b612ab7926020604090920201908101915061400f565b6001600160a01b03166001600160a01b031681526020019081526020016000206000828254612ae69190614cfa565b909155508490508382818110612b0c57634e487b7160e01b600052603260045260246000fd5b9050604002016020013560046000868685818110612b3a57634e487b7160e01b600052603260045260246000fd5b612b50926020604090920201908101915061400f565b6001600160a01b03166001600160a01b031681526020019081526020016000206000828254612b7f9190614cfa565b90915550600090505b826040015151811015612e395782604001518181518110612bb957634e487b7160e01b600052603260045260246000fd5b6020026020010151602001516001600160a01b0316858584818110612bee57634e487b7160e01b600052603260045260246000fd5b612c04926020604090920201908101915061400f565b6001600160a01b03161415612e27576000836020015184604001518381518110612c3e57634e487b7160e01b600052603260045260246000fd5b60200260200101516000015181518110612c6857634e487b7160e01b600052603260045260246000fd5b602002602001015190506000612cc5878786818110612c9757634e487b7160e01b600052603260045260246000fd5b905060400201602001358660400151858151811061091257634e487b7160e01b600052603260045260246000fd5b82516001600160a01b031660009081526006602090815260408083208287015163ffffffff1684529091528120919250829190898988818110612d1857634e487b7160e01b600052603260045260246000fd5b612d2e926020604090920201908101915061400f565b6001600160a01b03166001600160a01b031681526020019081526020016000206000828254612d5d9190614cbb565b90915550600790506000888887818110612d8757634e487b7160e01b600052603260045260246000fd5b612d9d926020604090920201908101915061400f565b6001600160a01b0390811682526020808301939093526040918201600090812083516060810185528751841681529685015163ffffffff908116888701908152948801968752815460018181018455928452959092209651600290950290960180549351909116600160a01b026001600160c01b0319909316939091169290921717815590519101555b80612e3181614d63565b915050612b88565b5080612e4481614d63565b9150506128e3565b60028181548110612e5c57600080fd5b6000918252602090912001546001600160a01b0316905081565b6001600160a01b03808516600090815260066020908152604080832063ffffffff881684528252808320938616835292905290812054908112612f03576001600160a01b03808616600090815260066020908152604080832063ffffffff89168452825280832093871683529290529081208054849290612ef8908490614cbb565b909155506109f49050565b6001600160a01b03808616600090815260066020908152604080832063ffffffff89168452825280832093871683529290529081208054849290612f48908490614c23565b90915550505050505050565b606080846001600160401b03811115612f7d57634e487b7160e01b600052604160045260246000fd5b604051908082528060200260200182016040528015612fc357816020015b604080518082019091526000815260606020820152815260200190600190039081612f9b5790505b509150826001600160401b03811115612fec57634e487b7160e01b600052604160045260246000fd5b60405190808252806020026020018201604052801561302557816020015b613012613dd3565b81526020019060019003908161300a5790505b50905060005b8381101561313a5784848281811061305357634e487b7160e01b600052603260045260246000fd5b9050602002016020810190613068919061400f565b82828151811061308857634e487b7160e01b600052603260045260246000fd5b60209081029190910101516001600160a01b039091169052600460008686848181106130c457634e487b7160e01b600052603260045260246000fd5b90506020020160208101906130d9919061400f565b6001600160a01b03166001600160a01b031681526020019081526020016000205482828151811061311a57634e487b7160e01b600052603260045260246000fd5b60209081029190910181015101528061313281614d63565b91505061302b565b5060005b8581101561348d5760006003600089898581811061316c57634e487b7160e01b600052603260045260246000fd5b905060200201358152602001908152602001600020600201805480602002602001604051908101604052809291908181526020016000905b828210156132015760008481526020908190206040805160608101825260028602909201805483526001908101546001600160a01b03811684860152600160a01b900463ffffffff169183019190915290835290920191016131a4565b50505050905080516001600160401b0381111561322e57634e487b7160e01b600052604160045260246000fd5b60405190808252806020026020018201604052801561326757816020015b613254613dd3565b81526020019060019003908161324c5790505b5084838151811061328857634e487b7160e01b600052603260045260246000fd5b6020026020010151602001819052508787838181106132b757634e487b7160e01b600052603260045260246000fd5b905060200201358483815181106132de57634e487b7160e01b600052603260045260246000fd5b60209081029190910101515260005b81518110156134785781818151811061331657634e487b7160e01b600052603260045260246000fd5b60200260200101516020015185848151811061334257634e487b7160e01b600052603260045260246000fd5b602002602001015160200151828151811061336d57634e487b7160e01b600052603260045260246000fd5b60209081029190910101516001600160a01b039091169052600560008a8a868181106133a957634e487b7160e01b600052603260045260246000fd5b90506020020135815260200190815260200160002060008383815181106133e057634e487b7160e01b600052603260045260246000fd5b6020026020010151602001516001600160a01b03166001600160a01b031681526020019081526020016000205485848151811061342d57634e487b7160e01b600052603260045260246000fd5b602002602001015160200151828151811061345857634e487b7160e01b600052603260045260246000fd5b60209081029190910181015101528061347081614d63565b9150506132ed565b5050808061348590614d63565b91505061313e565b5094509492505050565b6000816134a48486614c9c565b6134ae9190614c7c565b949350505050565b60005b83518110156135545760006001600160a01b03168482815181106134ed57634e487b7160e01b600052603260045260246000fd5b6020026020010151600001516001600160a01b031614156135425760405162461bcd60e51b815260206004820152600f60248201526e3130b21034b73a32b3b930ba34b7b760891b60448201526064016104a9565b8061354c81614d63565b9150506134b9565b50600082516001600160401b0381111561357e57634e487b7160e01b600052604160045260246000fd5b6040519080825280602002602001820160405280156135a7578160200160208202803683370190505b5090506000805b84518110156138965785518582815181106135d957634e487b7160e01b600052603260045260246000fd5b602002602001015160000151106136325760405162461bcd60e51b815260206004820152601d60248201527f696e746567726174696f6e20696478206f7574206f6620626f756e647300000060448201526064016104a9565b60006001600160a01b031685828151811061365d57634e487b7160e01b600052603260045260246000fd5b6020026020010151602001516001600160a01b031614156136905760405162461bcd60e51b81526004016104a990614a51565b600960008683815181106136b457634e487b7160e01b600052603260045260246000fd5b6020026020010151602001516001600160a01b03166001600160a01b03168152602001908152602001600020546000141561375b5784818151811061370957634e487b7160e01b600052603260045260246000fd5b60200260200101516020015183838151811061373557634e487b7160e01b600052603260045260246000fd5b6001600160a01b03909216602092830291909101909101528161375781614d63565b9250505b84818151811061377b57634e487b7160e01b600052603260045260246000fd5b60200260200101516040015163ffffffff16600960008784815181106137b157634e487b7160e01b600052603260045260246000fd5b6020026020010151602001516001600160a01b03166001600160a01b0316815260200190815260200160002060008282546137ec9190614c64565b9250508190555083818151811061381357634e487b7160e01b600052603260045260246000fd5b6020026020010151600360008a8152602001908152602001600020600401600087848151811061385357634e487b7160e01b600052603260045260246000fd5b6020026020010151602001516001600160a01b03166001600160a01b0316815260200190815260200160002081905550808061388e90614d63565b9150506135ae565b5060005b81811015613a1957620186a063ffffffff16600960008584815181106138d057634e487b7160e01b600052603260045260246000fd5b60200260200101516001600160a01b03166001600160a01b03168152602001908152602001600020541461393d5760405162461bcd60e51b81526020600482015260146024820152731a5b9d985b1a59081d1bdad95b881dd95a59da1d60621b60448201526064016104a9565b6001600360008a8152602001908152602001600020600301600085848151811061397757634e487b7160e01b600052603260045260246000fd5b60200260200101516001600160a01b03166001600160a01b0316815260200190815260200160002060006101000a81548160ff021916908315150217905550600960008483815181106139da57634e487b7160e01b600052603260045260246000fd5b60200260200101516001600160a01b03166001600160a01b03168152602001908152602001600020600090558080613a1190614d63565b91505061389a565b5060008781526003602090815260409091208751613a3992890190613dea565b5060005b8551811015613ae35760036000898152602001908152602001600020600101868281518110613a7c57634e487b7160e01b600052603260045260246000fd5b6020908102919091018101518254600181018455600093845292829020815193018054919092015163ffffffff16600160a01b026001600160c01b03199091166001600160a01b039093169290921791909117905580613adb81614d63565b915050613a3d565b5060005b8451811015613b9e5760036000898152602001908152602001600020600201858281518110613b2657634e487b7160e01b600052603260045260246000fd5b60209081029190910181015182546001818101855560009485529383902082516002909202019081559181015191909201805460409093015163ffffffff16600160a01b026001600160c01b03199093166001600160a01b039092169190911791909117905580613b9681614d63565b915050613ae7565b5050505050505050565b600054610100900460ff16613bc35760005460ff1615613bc7565b303b155b613be35760405162461bcd60e51b81526004016104a990614a74565b600054610100900460ff16158015613c05576000805461ffff19166101011790555b6000805462010000600160b01b031916620100006001600160a01b038516021790558015611d9c576000805461ff00191690555050565b60405180606001604052806060815260200160608152602001606081525090565b5080546000825560020290600052602060002090810190613c7e9190613e5e565b50565b828054613c8d90614d28565b90600052602060002090601f016020900481019282613caf5760008555613cf5565b82601f10613cc85782800160ff19823516178555613cf5565b82800160010185558215613cf5579182015b82811115613cf5578235825591602001919060010190613cda565b50613d01929150613e84565b5090565b508054613d1190614d28565b6000825580601f10613d21575050565b601f016020900490600052602060002090810190613c7e9190613e84565b5080546000825590600052602060002090810190613c7e9190613e99565b5080546000825560020290600052602060002090810190613c7e9190613eb8565b828054828255906000526020600020908101928215613cf5579160200282015b82811115613cf557825182546001600160a01b0319166001600160a01b03909116178255602090920191600190910190613d9e565b604080518082019091526000808252602082015290565b828054613df690614d28565b90600052602060002090601f016020900481019282613e185760008555613cf5565b82601f10613e3157805160ff1916838001178555613cf5565b82800160010185558215613cf5579182015b82811115613cf5578251825591602001919060010190613e43565b5b80821115613d015780546001600160c01b031916815560006001820155600201613e5f565b5b80821115613d015760008155600101613e85565b5b80821115613d015780546001600160c01b0319168155600101613e9a565b5b80821115613d0157600081556001810180546001600160c01b0319169055600201613eb9565b8035613eea81614daa565b919050565b60008083601f840112613f00578081fd5b5081356001600160401b03811115613f16578182fd5b6020830191508360208260051b8501011115613f3157600080fd5b9250929050565b60008083601f840112613f49578182fd5b5081356001600160401b03811115613f5f578182fd5b6020830191508360208260061b8501011115613f3157600080fd5b60008083601f840112613f8b578182fd5b5081356001600160401b03811115613fa1578182fd5b602083019150836020606083028501011115613f3157600080fd5b60008083601f840112613fcd578182fd5b5081356001600160401b03811115613fe3578182fd5b602083019150836020828501011115613f3157600080fd5b803563ffffffff81168114613eea57600080fd5b600060208284031215614020578081fd5b813561402b81614daa565b9392505050565b600060208284031215614043578081fd5b815161402b81614daa565b60008060408385031215614060578081fd5b823561406b81614daa565b946020939093013593505050565b60008060006060848603121561408d578081fd5b833561409881614daa565b92506140a660208501613ffb565b915060408401356140b681614daa565b809150509250925092565b600080600080608085870312156140d6578081fd5b84356140e181614daa565b93506140ef60208601613ffb565b925060408501356140ff81614daa565b9396929550929360600135925050565b60008060208385031215614121578182fd5b82356001600160401b03811115614136578283fd5b61414285828601613eef565b90969095509350505050565b60008060408385031215614160578182fd5b82356001600160401b0380821115614176578384fd5b818501915085601f830112614189578384fd5b813560208282111561419d5761419d614d94565b8160051b92506141ae818401614bf3565b8281528181019085830185870184018b10156141c8578889fd5b8896505b848710156141f657803595506141e186614daa565b858352600196909601959183019183016141cc565b5096506142069050878201613edf565b9450505050509250929050565b60008060008060408587031215614228578182fd5b84356001600160401b038082111561423e578384fd5b61424a88838901613eef565b90965094506020870135915080821115614262578384fd5b5061426f87828801613eef565b95989497509550505050565b60006020828403121561428c578081fd5b8151801515811461402b578182fd5b6000806000806000806000806080898b0312156142b6578586fd5b88356001600160401b03808211156142cc578788fd5b6142d88c838d01613fbc565b909a50985060208b01359150808211156142f0578788fd5b6142fc8c838d01613f38565b909850965060408b0135915080821115614314578586fd5b6143208c838d01613f7a565b909650945060608b0135915080821115614338578384fd5b506143458b828c01613eef565b999c989b5096995094979396929594505050565b60006040828403121561436a578081fd5b604080519081016001600160401b038111828210171561438c5761438c614d94565b604052823561439a81614daa565b81526143a860208401613ffb565b60208201529392505050565b6000606082840312156143c5578081fd5b604051606081016001600160401b03811182821017156143e7576143e7614d94565b6040528235815260208301356143fc81614daa565b602082015261440d60408401613ffb565b60408201529392505050565b60006020828403121561442a578081fd5b5035919050565b600060208284031215614442578081fd5b5051919050565b6000806040838503121561445b578182fd5b82359150602083013561446d81614daa565b809150509250929050565b60008060006060848603121561448c578081fd5b83359250602084013561449e81614daa565b929592945050506040919091013590565b60008060008060008060006080888a0312156144c9578081fd5b8735965060208801356001600160401b03808211156144e6578283fd5b6144f28b838c01613f38565b909850965060408a013591508082111561450a578283fd5b6145168b838c01613f7a565b909650945060608a013591508082111561452e578283fd5b5061453b8a828b01613eef565b989b979a50959850939692959293505050565b600080600060408486031215614562578081fd5b8335925060208401356001600160401b0381111561457e578182fd5b61458a86828701613f38565b9497909650939450505050565b6000806000604084860312156145ab578081fd5b8335925060208401356001600160401b038111156145c7578182fd5b61458a86828701613fbc565b6000602082840312156145e4578081fd5b61402b82613ffb565b6000815180845260208085019450808401835b8381101561463057815180516001600160a01b031688528301518388015260409096019590820190600101614600565b509495945050505050565b81835260006020808501945082825b8581101561463057813561465d81614daa565b6001600160a01b0316875263ffffffff614678838501613ffb565b1687840152604096870196919091019060010161464a565b6000815180845260208085019450808401835b8381101561463057815180516001600160a01b0316885283015163ffffffff1683880152604090960195908201906001016146a3565b81835260006020808501945082825b8581101561463057813587528282013561470181614daa565b6001600160a01b031687840152604063ffffffff614720848301613ffb565b169088015260609687019691909101906001016146e8565b6000815180845260208085019450808401835b8381101561463057815180518852838101516001600160a01b03168489015260409081015163ffffffff16908801526060909601959082019060010161474b565b81835281816020850137506000828201602090810191909152601f909101601f19169091010190565b60008151606084528051806060860152825b818110156147e457602081840181015160808884010152016147c7565b818111156147f55783608083880101525b50601f19601f8201168501915050602083015160808583030160208601526148206080830182614690565b9150506040830151848203604086015261483a8282614738565b95945050505050565b6001600160a01b0391909116815260200190565b60408152600061486b60408301868861463b565b828103602084015261487e8185876146d9565b979650505050505050565b60608152600061489d60608301888a61463b565b82810360208401526148b08187896146d9565b905082810360408401526148c581858761478c565b9998505050505050505050565b6000604080830181845280865180835260608601915060608160051b87010192506020808901865b8381101561493957888603605f19018552815180518752830151838701889052614926888801826145ed565b96505093820193908201906001016148fa565b50508684038188015250505061494f81866145ed565b9695505050505050565b6000602080830181845280855180835260408601915060408160051b8701019250838701855b828110156149ad57603f1988860301845261499b8583516147b5565b9450928501929085019060010161497f565b5092979650505050505050565b60208101600c83106149dc57634e487b7160e01b600052602160045260246000fd5b91905290565b6020815260006134ae60208301848661478c565b6020808252601390820152721cdd1c985d1959de481b5d5cdd08195e1a5cdd606a1b604082015260600190565b602080825260149082015273696e746567726174696f6e73206d697373696e6760601b604082015260600190565b6020808252600990820152683130b2103a37b5b2b760b91b604082015260600190565b6020808252602e908201527f496e697469616c697a61626c653a20636f6e747261637420697320616c72656160408201526d191e481a5b9a5d1a585b1a5e995960921b606082015260800190565b6020808252600b908201526a626164206164647265737360a81b604082015260600190565b6020808252600e908201526d746f6b656e73206d697373696e6760901b604082015260600190565b60208082526010908201526f696e76616c696420737472617465677960801b604082015260600190565b6020808252600d908201526c34b73b30b634b2103a37b5b2b760991b604082015260600190565b602080825260129082015271696e73756666696369656e742066756e647360701b604082015260600190565b60208082526034908201527f436f6e74726f6c6c65643a3a6f6e6c79436f6e74726f6c6c65723a2043616c6c60408201527332b91034b9903737ba1031b7b73a3937b63632b960611b606082015260800190565b60208152600061402b60208301846147b5565b604051601f8201601f191681016001600160401b0381118282101715614c1b57614c1b614d94565b604052919050565b600080821280156001600160ff1b0384900385131615614c4557614c45614d7e565b600160ff1b8390038412811615614c5e57614c5e614d7e565b50500190565b60008219821115614c7757614c77614d7e565b500190565b600082614c9757634e487b7160e01b81526012600452602481fd5b500490565b6000816000190483118215151615614cb657614cb6614d7e565b500290565b60008083128015600160ff1b850184121615614cd957614cd9614d7e565b6001600160ff1b0384018313811615614cf457614cf4614d7e565b50500390565b600082821015614d0c57614d0c614d7e565b500390565b600081614d2057614d20614d7e565b506000190190565b600181811c90821680614d3c57607f821691505b60208210811415614d5d57634e487b7160e01b600052602260045260246000fd5b50919050565b6000600019821415614d7757614d77614d7e565b5060010190565b634e487b7160e01b600052601160045260246000fd5b634e487b7160e01b600052604160045260246000fd5b6001600160a01b0381168114613c7e57600080fdfea2646970667358221220cba251debed91d9b17361c56e5a0203c53f1c64363e7dbf13b29d485b0ce6a5564736f6c63430008040033",
  "devdoc": {
    "kind": "dev",
    "methods": {
      "addStrategy(string,(address,uint32)[],(uint256,address,uint32)[],uint256[])": {
        "params": {
          "integrations": "the integrations and weights that form the strategy",
          "maxCap": "The maximum amount investable in a strategy",
          "name": "the name of the new strategy"
        }
      },
      "clearClosablePositions(address[])": {
        "params": {
          "tokens": "The list of tokens to clear"
        }
      },
      "closePositionsForWithdrawal(address,uint256)": {
        "params": {
          "amount": "the amount to source",
          "token": "the token to source"
        }
      },
      "decreaseDeployAmountChange(address,uint32,address,uint256)": {
        "params": {
          "amount": "the amount to reduce the vector by",
          "integration": "the integration that was changed",
          "poolID": "the pool within the integration that handled the tokens",
          "token": "the token to decrease for"
        }
      },
      "decreaseStrategy(uint256,(address,uint256)[])": {
        "params": {
          "id": "the strategy to withdraw assets from",
          "tokens": "details of the tokens being deposited"
        }
      },
      "deleteStrategy(uint256)": {
        "details": "This can only be called successfully if the strategy being deleted doesn't have any assets invested in it.To delete a strategy with funds deployed in it, first update the strategy so that the existing tokens are no longer available in the strategy, then delete the strategy. This will unwind the users positions, and they will be able to withdraw their funds.",
        "params": {
          "id": "the strategy to delete"
        }
      },
      "getDeployAmount(address,uint32,address)": {
        "params": {
          "integration": "the integration to deploy to",
          "poolID": "the pool within the integration that should receive the tokens",
          "token": "the token to be deployed"
        },
        "returns": {
          "_0": "the pending deploy amount"
        }
      },
      "getMaximumCap(uint256,address)": {
        "params": {
          "id": "the strategy id",
          "token": "the token address"
        },
        "returns": {
          "cap": " the maximum cap for the strategy/token pair"
        }
      },
      "getMultipleStrategies(uint256[])": {
        "params": {
          "ids": "The ids of the strategies to return."
        }
      },
      "getStrategy(uint256)": {
        "params": {
          "id": "the strategy to return"
        }
      },
      "getStrategyBalances(uint256[],address[])": {
        "params": {
          "_strategies": "The strategies to retrieve balances for",
          "_tokens": "The tokens to retrieve"
        }
      },
      "getStrategyTokenBalance(uint256,address)": {
        "params": {
          "id": "the strategy id to check",
          "token": "The token to retrieve the balance for"
        },
        "returns": {
          "amount": " the amount of token that is invested in the strategy"
        }
      },
      "getStrategyTokenLength(uint256)": {
        "params": {
          "strategy": "the strategy to look up"
        },
        "returns": {
          "_0": "the length"
        }
      },
      "getTokenTotalBalance(address)": {
        "params": {
          "token": "the token to fetch the balance for"
        },
        "returns": {
          "amount": " the amount of the token currently invested"
        }
      },
      "increaseStrategy(uint256,(address,uint256)[])": {
        "params": {
          "id": "the strategy to deposit into",
          "tokens": "the tokens to deposit"
        }
      },
      "increaseTokenBalance(uint256,(address,uint256)[])": {
        "params": {
          "id": "The strategy id",
          "tokens": "the tokens and amounts "
        }
      },
      "setMaximumCap(uint256,address,uint256)": {
        "params": {
          "id": "The strategy id",
          "maxCap": "The maximum amount of funds that can be invested",
          "token": "the token address"
        }
      },
      "updateName(uint256,string)": {
        "params": {
          "name": "the new name"
        }
      },
      "updateStrategy(uint256,(address,uint32)[],(uint256,address,uint32)[],uint256[])": {
        "params": {
          "id": "the strategy to update",
          "integrations": "the new integrations that will be used",
          "tokens": "the tokens accepted for new entries"
        }
      }
    },
    "version": 1
  },
  "userdoc": {
    "kind": "user",
    "methods": {
      "addStrategy(string,(address,uint32)[],(uint256,address,uint32)[],uint256[])": {
        "notice": "Adds a new strategy to the list of available strategies"
      },
      "clearClosablePositions(address[])": {
        "notice": "Clears the list of positions that can be closed to supply a token"
      },
      "closePositionsForWithdrawal(address,uint256)": {
        "notice": "Closes enough positions to provide a requested amount of a token"
      },
      "decreaseDeployAmountChange(address,uint32,address,uint256)": {
        "notice": "Decreases the deployable amount after a deployment/withdrawal"
      },
      "decreaseStrategy(uint256,(address,uint256)[])": {
        "notice": "Decreases the amount of a set of tokens invested in a strategy"
      },
      "deleteStrategy(uint256)": {
        "notice": "Deletes a strategy"
      },
      "getDeployAmount(address,uint32,address)": {
        "notice": "Returns the current amount awaiting deployment"
      },
      "getMaximumCap(uint256,address)": {
        "notice": "Retrieves the maximum cap for a strategy/token pair"
      },
      "getMultipleStrategies(uint256[])": {
        "notice": "Returns 1 or more strategies in a single call."
      },
      "getStrategy(uint256)": {
        "notice": "Getter function to return the nested arrays as well as the name"
      },
      "getStrategyBalances(uint256[],address[])": {
        "notice": "Returns balances per strategy, and total invested balances"
      },
      "getStrategyTokenBalance(uint256,address)": {
        "notice": "Returns the amount of a given token currently invested in a strategy"
      },
      "getStrategyTokenLength(uint256)": {
        "notice": "returns the length of the tokens array in a strategy"
      },
      "getTokenTotalBalance(address)": {
        "notice": "Returns the total amount of a token invested across all strategies"
      },
      "idCounter()": {
        "notice": "autogenerated getter definition"
      },
      "increaseStrategy(uint256,(address,uint256)[])": {
        "notice": "Increases the amount of a set of tokens in a strategy"
      },
      "increaseTokenBalance(uint256,(address,uint256)[])": {
        "notice": "Increases strategy balances without increasing the deploy amount"
      },
      "setMaximumCap(uint256,address,uint256)": {
        "notice": "Sets the maximum investment cap for a strategy and token pair"
      },
      "updateName(uint256,string)": {
        "notice": "Updates the strategy name"
      },
      "updateStrategy(uint256,(address,uint32)[],(uint256,address,uint32)[],uint256[])": {
        "notice": "Updates a strategy's integrations and tokens"
      }
    },
    "version": 1
  },
  "storageLayout": {
    "storage": [
      {
        "astId": 723,
        "contract": "contracts/core/StrategyMap.sol:StrategyMap",
        "label": "_initialized",
        "offset": 0,
        "slot": "0",
        "type": "t_bool"
      },
      {
        "astId": 726,
        "contract": "contracts/core/StrategyMap.sol:StrategyMap",
        "label": "_initializing",
        "offset": 1,
        "slot": "0",
        "type": "t_bool"
      },
      {
        "astId": 10143,
        "contract": "contracts/core/StrategyMap.sol:StrategyMap",
        "label": "moduleMap",
        "offset": 2,
        "slot": "0",
        "type": "t_contract(IModuleMap)20736"
      },
      {
        "astId": 4667,
        "contract": "contracts/core/StrategyMap.sol:StrategyMap",
        "label": "_controllers",
        "offset": 0,
        "slot": "1",
        "type": "t_mapping(t_address,t_bool)"
      },
      {
        "astId": 4670,
        "contract": "contracts/core/StrategyMap.sol:StrategyMap",
        "label": "controllers",
        "offset": 0,
        "slot": "2",
        "type": "t_array(t_address)dyn_storage"
      },
      {
        "astId": 10403,
        "contract": "contracts/core/StrategyMap.sol:StrategyMap",
        "label": "strategies",
        "offset": 0,
        "slot": "3",
        "type": "t_mapping(t_uint256,t_struct(Strategy)21095_storage)"
      },
      {
        "astId": 10407,
        "contract": "contracts/core/StrategyMap.sol:StrategyMap",
        "label": "tokenBalances",
        "offset": 0,
        "slot": "4",
        "type": "t_mapping(t_address,t_uint256)"
      },
      {
        "astId": 10413,
        "contract": "contracts/core/StrategyMap.sol:StrategyMap",
        "label": "strategyTokenBalances",
        "offset": 0,
        "slot": "5",
        "type": "t_mapping(t_uint256,t_mapping(t_address,t_uint256))"
      },
      {
        "astId": 10421,
        "contract": "contracts/core/StrategyMap.sol:StrategyMap",
        "label": "deployAmount",
        "offset": 0,
        "slot": "6",
        "type": "t_mapping(t_address,t_mapping(t_uint32,t_mapping(t_address,t_int256)))"
      },
      {
        "astId": 10427,
        "contract": "contracts/core/StrategyMap.sol:StrategyMap",
        "label": "_closablePositions",
        "offset": 0,
        "slot": "7",
        "type": "t_mapping(t_address,t_array(t_struct(ClosablePosition)21125_storage)dyn_storage)"
      },
      {
        "astId": 10430,
        "contract": "contracts/core/StrategyMap.sol:StrategyMap",
        "label": "idCounter",
        "offset": 0,
        "slot": "8",
        "type": "t_uint256"
      },
      {
        "astId": 10434,
        "contract": "contracts/core/StrategyMap.sol:StrategyMap",
        "label": "tokenWeights",
        "offset": 0,
        "slot": "9",
        "type": "t_mapping(t_address,t_uint256)"
      }
    ],
    "types": {
      "t_address": {
        "encoding": "inplace",
        "label": "address",
        "numberOfBytes": "20"
      },
      "t_array(t_address)dyn_storage": {
        "base": "t_address",
        "encoding": "dynamic_array",
        "label": "address[]",
        "numberOfBytes": "32"
      },
      "t_array(t_struct(ClosablePosition)21125_storage)dyn_storage": {
        "base": "t_struct(ClosablePosition)21125_storage",
        "encoding": "dynamic_array",
        "label": "struct IStrategyMap.ClosablePosition[]",
        "numberOfBytes": "32"
      },
      "t_array(t_struct(Integration)21060_storage)dyn_storage": {
        "base": "t_struct(Integration)21060_storage",
        "encoding": "dynamic_array",
        "label": "struct IStrategyMap.Integration[]",
        "numberOfBytes": "32"
      },
      "t_array(t_struct(Token)21067_storage)dyn_storage": {
        "base": "t_struct(Token)21067_storage",
        "encoding": "dynamic_array",
        "label": "struct IStrategyMap.Token[]",
        "numberOfBytes": "32"
      },
      "t_bool": {
        "encoding": "inplace",
        "label": "bool",
        "numberOfBytes": "1"
      },
      "t_contract(IModuleMap)20736": {
        "encoding": "inplace",
        "label": "contract IModuleMap",
        "numberOfBytes": "20"
      },
      "t_int256": {
        "encoding": "inplace",
        "label": "int256",
        "numberOfBytes": "32"
      },
      "t_mapping(t_address,t_array(t_struct(ClosablePosition)21125_storage)dyn_storage)": {
        "encoding": "mapping",
        "key": "t_address",
        "label": "mapping(address => struct IStrategyMap.ClosablePosition[])",
        "numberOfBytes": "32",
        "value": "t_array(t_struct(ClosablePosition)21125_storage)dyn_storage"
      },
      "t_mapping(t_address,t_bool)": {
        "encoding": "mapping",
        "key": "t_address",
        "label": "mapping(address => bool)",
        "numberOfBytes": "32",
        "value": "t_bool"
      },
      "t_mapping(t_address,t_int256)": {
        "encoding": "mapping",
        "key": "t_address",
        "label": "mapping(address => int256)",
        "numberOfBytes": "32",
        "value": "t_int256"
      },
      "t_mapping(t_address,t_mapping(t_uint32,t_mapping(t_address,t_int256)))": {
        "encoding": "mapping",
        "key": "t_address",
        "label": "mapping(address => mapping(uint32 => mapping(address => int256)))",
        "numberOfBytes": "32",
        "value": "t_mapping(t_uint32,t_mapping(t_address,t_int256))"
      },
      "t_mapping(t_address,t_uint256)": {
        "encoding": "mapping",
        "key": "t_address",
        "label": "mapping(address => uint256)",
        "numberOfBytes": "32",
        "value": "t_uint256"
      },
      "t_mapping(t_uint256,t_mapping(t_address,t_uint256))": {
        "encoding": "mapping",
        "key": "t_uint256",
        "label": "mapping(uint256 => mapping(address => uint256))",
        "numberOfBytes": "32",
        "value": "t_mapping(t_address,t_uint256)"
      },
      "t_mapping(t_uint256,t_struct(Strategy)21095_storage)": {
        "encoding": "mapping",
        "key": "t_uint256",
        "label": "mapping(uint256 => struct IStrategyMap.Strategy)",
        "numberOfBytes": "32",
        "value": "t_struct(Strategy)21095_storage"
      },
      "t_mapping(t_uint32,t_mapping(t_address,t_int256))": {
        "encoding": "mapping",
        "key": "t_uint32",
        "label": "mapping(uint32 => mapping(address => int256))",
        "numberOfBytes": "32",
        "value": "t_mapping(t_address,t_int256)"
      },
      "t_string_storage": {
        "encoding": "bytes",
        "label": "string",
        "numberOfBytes": "32"
      },
      "t_struct(ClosablePosition)21125_storage": {
        "encoding": "inplace",
        "label": "struct IStrategyMap.ClosablePosition",
        "members": [
          {
            "astId": 21120,
            "contract": "contracts/core/StrategyMap.sol:StrategyMap",
            "label": "integration",
            "offset": 0,
            "slot": "0",
            "type": "t_address"
          },
          {
            "astId": 21122,
            "contract": "contracts/core/StrategyMap.sol:StrategyMap",
            "label": "ammPoolID",
            "offset": 20,
            "slot": "0",
            "type": "t_uint32"
          },
          {
            "astId": 21124,
            "contract": "contracts/core/StrategyMap.sol:StrategyMap",
            "label": "amount",
            "offset": 0,
            "slot": "1",
            "type": "t_uint256"
          }
        ],
        "numberOfBytes": "64"
      },
      "t_struct(Integration)21060_storage": {
        "encoding": "inplace",
        "label": "struct IStrategyMap.Integration",
        "members": [
          {
            "astId": 21057,
            "contract": "contracts/core/StrategyMap.sol:StrategyMap",
            "label": "integration",
            "offset": 0,
            "slot": "0",
            "type": "t_address"
          },
          {
            "astId": 21059,
            "contract": "contracts/core/StrategyMap.sol:StrategyMap",
            "label": "ammPoolID",
            "offset": 20,
            "slot": "0",
            "type": "t_uint32"
          }
        ],
        "numberOfBytes": "32"
      },
      "t_struct(Strategy)21095_storage": {
        "encoding": "inplace",
        "label": "struct IStrategyMap.Strategy",
        "members": [
          {
            "astId": 21078,
            "contract": "contracts/core/StrategyMap.sol:StrategyMap",
            "label": "name",
            "offset": 0,
            "slot": "0",
            "type": "t_string_storage"
          },
          {
            "astId": 21082,
            "contract": "contracts/core/StrategyMap.sol:StrategyMap",
            "label": "integrations",
            "offset": 0,
            "slot": "1",
            "type": "t_array(t_struct(Integration)21060_storage)dyn_storage"
          },
          {
            "astId": 21086,
            "contract": "contracts/core/StrategyMap.sol:StrategyMap",
            "label": "tokens",
            "offset": 0,
            "slot": "2",
            "type": "t_array(t_struct(Token)21067_storage)dyn_storage"
          },
          {
            "astId": 21090,
            "contract": "contracts/core/StrategyMap.sol:StrategyMap",
            "label": "availableTokens",
            "offset": 0,
            "slot": "3",
            "type": "t_mapping(t_address,t_bool)"
          },
          {
            "astId": 21094,
            "contract": "contracts/core/StrategyMap.sol:StrategyMap",
            "label": "maximumCap",
            "offset": 0,
            "slot": "4",
            "type": "t_mapping(t_address,t_uint256)"
          }
        ],
        "numberOfBytes": "160"
      },
      "t_struct(Token)21067_storage": {
        "encoding": "inplace",
        "label": "struct IStrategyMap.Token",
        "members": [
          {
            "astId": 21062,
            "contract": "contracts/core/StrategyMap.sol:StrategyMap",
            "label": "integrationPairIdx",
            "offset": 0,
            "slot": "0",
            "type": "t_uint256"
          },
          {
            "astId": 21064,
            "contract": "contracts/core/StrategyMap.sol:StrategyMap",
            "label": "token",
            "offset": 0,
            "slot": "1",
            "type": "t_address"
          },
          {
            "astId": 21066,
            "contract": "contracts/core/StrategyMap.sol:StrategyMap",
            "label": "weight",
            "offset": 20,
            "slot": "1",
            "type": "t_uint32"
          }
        ],
        "numberOfBytes": "64"
      },
      "t_uint256": {
        "encoding": "inplace",
        "label": "uint256",
        "numberOfBytes": "32"
      },
      "t_uint32": {
        "encoding": "inplace",
        "label": "uint32",
        "numberOfBytes": "4"
      }
    }
  }
}