{
  "address": "0x17DB934a6f8C424C533eC01A71313c02a9835Bc0",
  "abi": [
    {
      "inputs": [
        {
          "internalType": "address[]",
          "name": "controllers_",
          "type": "address[]"
        },
        {
          "internalType": "address",
          "name": "moduleMap_",
          "type": "address"
        }
      ],
      "name": "__Controlled_init",
      "outputs": [],
      "stateMutability": "nonpayable",
      "type": "function"
    },
    {
      "inputs": [
        {
          "internalType": "address",
          "name": "controller",
          "type": "address"
        }
      ],
      "name": "addController",
      "outputs": [],
      "stateMutability": "nonpayable",
      "type": "function"
    },
    {
      "inputs": [
        {
          "internalType": "address",
          "name": "_traderAddress",
          "type": "address"
        }
      ],
      "name": "addTrader",
      "outputs": [],
      "stateMutability": "nonpayable",
      "type": "function"
    },
    {
      "inputs": [
        {
          "internalType": "uint256",
          "name": "",
          "type": "uint256"
        }
      ],
      "name": "controllers",
      "outputs": [
        {
          "internalType": "address",
          "name": "",
          "type": "address"
        }
      ],
      "stateMutability": "view",
      "type": "function"
    },
    {
      "inputs": [
        {
          "internalType": "address[]",
          "name": "_controllers",
          "type": "address[]"
        },
        {
          "internalType": "address",
          "name": "_moduleMap",
          "type": "address"
        }
      ],
      "name": "initialize",
      "outputs": [],
      "stateMutability": "nonpayable",
      "type": "function"
    },
    {
      "inputs": [],
      "name": "moduleMap",
      "outputs": [
        {
          "internalType": "contract IModuleMap",
          "name": "",
          "type": "address"
        }
      ],
      "stateMutability": "view",
      "type": "function"
    },
    {
      "inputs": [
        {
          "internalType": "address",
          "name": "_traderAddress",
          "type": "address"
        }
      ],
      "name": "removeTrader",
      "outputs": [],
      "stateMutability": "nonpayable",
      "type": "function"
    },
    {
      "inputs": [
        {
          "internalType": "address",
          "name": "_walletAddress",
          "type": "address"
        }
      ],
      "name": "setInternalWallet",
      "outputs": [],
      "stateMutability": "nonpayable",
      "type": "function"
    },
    {
      "inputs": [
        {
          "internalType": "address",
          "name": "_tokenIn",
          "type": "address"
        },
        {
          "internalType": "address",
          "name": "_tokenOut",
          "type": "address"
        },
        {
          "internalType": "address",
          "name": "_recipient",
          "type": "address"
        },
        {
          "internalType": "uint256",
          "name": "_amountIn",
          "type": "uint256"
        },
        {
          "internalType": "uint256",
          "name": "_minAmountOut",
          "type": "uint256"
        }
      ],
      "name": "swapExactIn",
      "outputs": [
        {
          "internalType": "bool",
          "name": "tradeSuccess_",
          "type": "bool"
        }
      ],
      "stateMutability": "nonpayable",
      "type": "function"
    },
    {
      "inputs": [
        {
          "internalType": "address",
          "name": "_tokenIn",
          "type": "address"
        },
        {
          "internalType": "address",
          "name": "_tokenOut",
          "type": "address"
        },
        {
          "internalType": "address",
          "name": "_recipient",
          "type": "address"
        },
        {
          "internalType": "uint256",
          "name": "_amountIn",
          "type": "uint256"
        }
      ],
      "name": "swapExactIn",
      "outputs": [
        {
          "internalType": "bool",
          "name": "tradeSuccess_",
          "type": "bool"
        }
      ],
      "stateMutability": "nonpayable",
      "type": "function"
    }
  ],
  "transactionHash": "0x53677bd867ad2910820cadc4f6fbe3d9847e19a8f330dac679b034f621326ce1",
  "args": [],
  "solcInputHash": "3431e4381f2519326a70e3e5c8d5090e",
  "bytecode": "0x608060405234801561001057600080fd5b50611b11806100206000396000f3fe608060405234801561001057600080fd5b506004361061008e5760003560e01c80630a1f194f146100935780630f0a1c6f146100a8578063462d0b2e146100d75780635d428e08146100ea57806398c671ce146100fd578063a7fc7a0714610110578063c0e7e87014610123578063c343129f14610146578063c4ef281914610159578063e94b0dd21461016c575b600080fd5b6100a66100a1366004611631565b61017f565b005b6000546100c1906201000090046001600160a01b031681565b6040516100ce9190611857565b60405180910390f35b6100a66100e5366004611713565b610322565b6100a66100f8366004611631565b610445565b6100a661010b366004611713565b6105d9565b6100a661011e366004611631565b61077e565b6101366101313660046116b9565b6109bc565b60405190151581526020016100ce565b6100a6610154366004611631565b610aec565b610136610167366004611669565b610c2a565b6100c161017a36600461180b565b610c70565b600080546040516337c61fc560e11b8152620100009091046001600160a01b031691636f8c3f8a916101b491906004016118a9565b60206040518083038186803b1580156101cc57600080fd5b505afa1580156101e0573d6000803e3d6000fd5b505050506040513d601f19601f82011682018060405250810190610204919061164d565b6001600160a01b031663f3ae2415336040518263ffffffff1660e01b815260040161022f9190611857565b60206040518083038186803b15801561024757600080fd5b505afa15801561025b573d6000803e3d6000fd5b505050506040513d601f19601f8201168201806040525081019061027f91906117eb565b6102a45760405162461bcd60e51b815260040161029b90611977565b60405180910390fd5b6102af600382610c9a565b6103135760405162461bcd60e51b815260206004820152602f60248201527f537761704d616e616765723a3a72656d6f76655472616465723a20547261646560448201526e1c881dd85cc81b9bdd081859191959608a1b606482015260840161029b565b61031e600382610cb8565b5050565b600054610100900460ff1661033d5760005460ff1615610341565b303b155b61035d5760405162461bcd60e51b815260040161029b90611904565b600054610100900460ff1615801561037f576000805461ffff19166101011790555b61038983836105d9565b600080546040516337c61fc560e11b8152620100009091046001600160a01b031691636f8c3f8a916103be91906004016118a9565b60206040518083038186803b1580156103d657600080fd5b505afa1580156103ea573d6000803e3d6000fd5b505050506040513d601f19601f8201168201806040525081019061040e919061164d565b600580546001600160a01b0319166001600160a01b03929092169190911790558015610440576000805461ff00191690555b505050565b600080546040516337c61fc560e11b8152620100009091046001600160a01b031691636f8c3f8a9161047a91906004016118a9565b60206040518083038186803b15801561049257600080fd5b505afa1580156104a6573d6000803e3d6000fd5b505050506040513d601f19601f820116820180604052508101906104ca919061164d565b6001600160a01b031663f3ae2415336040518263ffffffff1660e01b81526004016104f59190611857565b60206040518083038186803b15801561050d57600080fd5b505afa158015610521573d6000803e3d6000fd5b505050506040513d601f19601f8201168201806040525081019061054591906117eb565b6105615760405162461bcd60e51b815260040161029b90611977565b61056c600382610c9a565b156105ce5760405162461bcd60e51b815260206004820152602c60248201527f537761704d616e616765723a3a6164645472616465723a20547261646572206160448201526b1b1c9958591e48185919195960a21b606482015260840161029b565b61031e600382610ccd565b600054610100900460ff166105f45760005460ff16156105f8565b303b155b6106145760405162461bcd60e51b815260040161029b90611904565b600054610100900460ff16158015610636576000805461ffff19166101011790555b6001600160a01b03821661065c5760405162461bcd60e51b815260040161029b90611952565b60005b83518110156106d45760006001600160a01b031684828151811061069357634e487b7160e01b600052603260045260246000fd5b60200260200101516001600160a01b031614156106c25760405162461bcd60e51b815260040161029b90611952565b806106cc81611a5c565b91505061065f565b5060005b835181101561074a57600180600086848151811061070657634e487b7160e01b600052603260045260246000fd5b6020908102919091018101516001600160a01b03168252810191909152604001600020805460ff19169115159190911790558061074281611a5c565b9150506106d8565b50825161075e9060029060208601906115a7565b5061076882610ce2565b8015610440576000805461ff0019169055505050565b600080546040516337c61fc560e11b8152620100009091046001600160a01b031691636f8c3f8a916107b391906004016118a9565b60206040518083038186803b1580156107cb57600080fd5b505afa1580156107df573d6000803e3d6000fd5b505050506040513d601f19601f82011682018060405250810190610803919061164d565b6001600160a01b0316632f54bf6e336040518263ffffffff1660e01b815260040161082e9190611857565b60206040518083038186803b15801561084657600080fd5b505afa15801561085a573d6000803e3d6000fd5b505050506040513d601f19601f8201168201806040525081019061087e91906117eb565b6108dd5760405162461bcd60e51b815260206004820152602a60248201527f436f6e74726f6c6c65643a3a6f6e6c794f776e65723a2043616c6c6572206973604482015269103737ba1037bbb732b960b11b606482015260840161029b565b6001600160a01b03811660009081526001602081905260408220805460ff19169091179055805b600254811015610965576002818154811061092f57634e487b7160e01b600052603260045260246000fd5b6000918252602090912001546001600160a01b038481169116141561095357600191505b8061095d81611a5c565b915050610904565b508061031e57600280546001810182556000919091527f405787fa12a823e0f2b7631cc41b3ba8828b3321ca811111fa75cd3aa3bb5ace0180546001600160a01b0384166001600160a01b03199091161790555050565b3360009081526001602052604081205460ff166109eb5760405162461bcd60e51b815260040161029b906119c5565b6000806109f9888887610d76565b91509150600084821015610a0d5784610a0f565b815b9050610a1e8989898985610f71565b93508315610a2e57505050610ae3565b82610a436001600160a01b038b168289611104565b604051634947054160e01b81526001600160a01b038b811660048301528a811660248301528981166044830152606482018990526084820184905282169063494705419060a401602060405180830381600087803b158015610aa457600080fd5b505af1158015610ab8573d6000803e3d6000fd5b505050506040513d601f19601f82011682018060405250810190610adc91906117eb565b9450505050505b95945050505050565b600080546040516337c61fc560e11b8152620100009091046001600160a01b031691636f8c3f8a91610b2191906004016118a9565b60206040518083038186803b158015610b3957600080fd5b505afa158015610b4d573d6000803e3d6000fd5b505050506040513d601f19601f82011682018060405250810190610b71919061164d565b6001600160a01b031663f3ae2415336040518263ffffffff1660e01b8152600401610b9c9190611857565b60206040518083038186803b158015610bb457600080fd5b505afa158015610bc8573d6000803e3d6000fd5b505050506040513d601f19601f82011682018060405250810190610bec91906117eb565b610c085760405162461bcd60e51b815260040161029b90611977565b600580546001600160a01b0319166001600160a01b0392909216919091179055565b3360009081526001602052604081205460ff16610c595760405162461bcd60e51b815260040161029b906119c5565b610c678585858560006109bc565b50949350505050565b60028181548110610c8057600080fd5b6000918252602090912001546001600160a01b0316905081565b6000610caf836001600160a01b038416611167565b90505b92915050565b6000610caf836001600160a01b03841661117f565b6000610caf836001600160a01b03841661129c565b600054610100900460ff16610cfd5760005460ff1615610d01565b303b155b610d1d5760405162461bcd60e51b815260040161029b90611904565b600054610100900460ff16158015610d3f576000805461ffff19166101011790555b6000805462010000600160b01b031916620100006001600160a01b03851602179055801561031e576000805461ff00191690555050565b60008080805b610d8660036112e6565b8160ff161015610f67576000610da0600360ff84166112f0565b9050600080826001600160a01b031663841bdb9e8b8b6040518363ffffffff1660e01b8152600401610dd392919061186b565b60206040518083038186803b158015610deb57600080fd5b505afa158015610dff573d6000803e3d6000fd5b505050506040513d601f19601f82011682018060405250810190610e2391906117eb565b15610f3257604051632550332960e11b81526001600160a01b03841690634aa0665290610e58908d908d908d90600401611885565b602060405180830381600087803b158015610e7257600080fd5b505af1158015610e86573d6000803e3d6000fd5b505050506040513d601f19601f82011682018060405250810190610eaa9190611823565b60405163332ff05b60e21b81529092506001600160a01b0384169063ccbfc16c90610edd908d908d908d90600401611885565b602060405180830381600087803b158015610ef757600080fd5b505af1158015610f0b573d6000803e3d6000fd5b505050506040513d601f19601f82011682018060405250810190610f2f9190611823565b90505b84821115610f5157610f48600360ff86166112f0565b96508095508194505b5050508080610f5f90611a77565b915050610d7c565b5050935093915050565b6005546040516370a0823160e01b81526000918791879184916001600160a01b03808516926370a0823192610fac9290911690600401611857565b60206040518083038186803b158015610fc457600080fd5b505afa158015610fd8573d6000803e3d6000fd5b505050506040513d601f19601f82011682018060405250810190610ffc9190611823565b600554604051636eb1769f60e11b81529192506000916001600160a01b038581169263dd62ed3e926110369290911690309060040161186b565b60206040518083038186803b15801561104e57600080fd5b505afa158015611062573d6000803e3d6000fd5b505050506040513d601f19601f820116820180604052508101906110869190611823565b90508582101580156110985750858110155b80156110a45750600086115b156110f7576005546110c4906001600160a01b03858116911630896112fc565b6110d86001600160a01b0384168988611104565b6005546110f2906001600160a01b03868116911689611104565b600194505b5050505095945050505050565b6040516001600160a01b03831660248201526044810182905261044090849063a9059cbb60e01b906064015b60408051601f198184030181529190526020810180516001600160e01b03166001600160e01b031990931692909217909152611323565b60009081526001919091016020526040902054151590565b600081815260018301602052604081205480156112925760006111a3600183611a19565b85549091506000906111b790600190611a19565b90508181146112385760008660000182815481106111e557634e487b7160e01b600052603260045260246000fd5b906000526020600020015490508087600001848154811061121657634e487b7160e01b600052603260045260246000fd5b6000918252602080832090910192909255918252600188019052604090208390555b855486908061125757634e487b7160e01b600052603160045260246000fd5b600190038181906000526020600020016000905590558560010160008681526020019081526020016000206000905560019350505050610cb2565b6000915050610cb2565b60006112a88383611167565b6112de57508154600181810184556000848152602080822090930184905584548482528286019093526040902091909155610cb2565b506000610cb2565b6000610cb2825490565b6000610caf83836113f5565b61131d846323b872dd60e01b85858560405160240161113093929190611885565b50505050565b6000611378826040518060400160405280602081526020017f5361666545524332303a206c6f772d6c6576656c2063616c6c206661696c6564815250856001600160a01b031661142d9092919063ffffffff16565b805190915015610440578080602001905181019061139691906117eb565b6104405760405162461bcd60e51b815260206004820152602a60248201527f5361666545524332303a204552433230206f7065726174696f6e20646964206e6044820152691bdd081cdd58d8d9595960b21b606482015260840161029b565b600082600001828154811061141a57634e487b7160e01b600052603260045260246000fd5b9060005260206000200154905092915050565b606061143c8484600085611446565b90505b9392505050565b6060824710156114a75760405162461bcd60e51b815260206004820152602660248201527f416464726573733a20696e73756666696369656e742062616c616e636520666f6044820152651c8818d85b1b60d21b606482015260840161029b565b843b6114f55760405162461bcd60e51b815260206004820152601d60248201527f416464726573733a2063616c6c20746f206e6f6e2d636f6e7472616374000000604482015260640161029b565b600080866001600160a01b03168587604051611511919061183b565b60006040518083038185875af1925050503d806000811461154e576040519150601f19603f3d011682016040523d82523d6000602084013e611553565b606091505b509150915061156382828661156e565b979650505050505050565b6060831561157d57508161143f565b82511561158d5782518084602001fd5b8160405162461bcd60e51b815260040161029b91906118d1565b8280548282559060005260206000209081019282156115fc579160200282015b828111156115fc57825182546001600160a01b0319166001600160a01b039091161782556020909201916001909101906115c7565b5061160892915061160c565b5090565b5b80821115611608576000815560010161160d565b803561162c81611ac3565b919050565b600060208284031215611642578081fd5b813561143f81611ac3565b60006020828403121561165e578081fd5b815161143f81611ac3565b6000806000806080858703121561167e578283fd5b843561168981611ac3565b9350602085013561169981611ac3565b925060408501356116a981611ac3565b9396929550929360600135925050565b600080600080600060a086880312156116d0578081fd5b85356116db81611ac3565b945060208601356116eb81611ac3565b935060408601356116fb81611ac3565b94979396509394606081013594506080013592915050565b60008060408385031215611725578182fd5b82356001600160401b038082111561173b578384fd5b818501915085601f83011261174e578384fd5b813560208282111561176257611762611aad565b8160051b604051601f19603f8301168101818110868211171561178757611787611aad565b604052838152828101945085830182870184018b10156117a5578889fd5b8896505b848710156117ce576117ba81611621565b8652600196909601959483019483016117a9565b5096506117de9050878201611621565b9450505050509250929050565b6000602082840312156117fc578081fd5b8151801515811461143f578182fd5b60006020828403121561181c578081fd5b5035919050565b600060208284031215611834578081fd5b5051919050565b6000825161184d818460208701611a30565b9190910192915050565b6001600160a01b0391909116815260200190565b6001600160a01b0392831681529116602082015260400190565b6001600160a01b039384168152919092166020820152604081019190915260600190565b60208101600c83106118cb57634e487b7160e01b600052602160045260246000fd5b91905290565b60208152600082518060208401526118f0816040850160208701611a30565b601f01601f19169190910160400192915050565b6020808252602e908201527f496e697469616c697a61626c653a20636f6e747261637420697320616c72656160408201526d191e481a5b9a5d1a585b1a5e995960921b606082015260800190565b6020808252600b908201526a626164206164647265737360a81b604082015260600190565b6020808252602e908201527f436f6e74726f6c6c65643a3a6f6e6c794d616e616765723a2043616c6c65722060408201526d34b9903737ba1036b0b730b3b2b960911b606082015260800190565b60208082526034908201527f436f6e74726f6c6c65643a3a6f6e6c79436f6e74726f6c6c65723a2043616c6c60408201527332b91034b9903737ba1031b7b73a3937b63632b960611b606082015260800190565b600082821015611a2b57611a2b611a97565b500390565b60005b83811015611a4b578181015183820152602001611a33565b8381111561131d5750506000910152565b6000600019821415611a7057611a70611a97565b5060010190565b600060ff821660ff811415611a8e57611a8e611a97565b60010192915050565b634e487b7160e01b600052601160045260246000fd5b634e487b7160e01b600052604160045260246000fd5b6001600160a01b0381168114611ad857600080fd5b5056fea2646970667358221220e6371f353b038a8e33de6a8fbafa3e720f9899c18b584d3acfd1ae4c85f7c5fc64736f6c63430008040033",
  "devdoc": {
    "kind": "dev",
    "methods": {
      "addTrader(address)": {
        "params": {
          "_traderAddress": "Address of the contract implementing IDexTrader interface"
        }
      },
      "removeTrader(address)": {
        "params": {
          "_traderAddress": "Address of the contract implementing IDexTrader interface"
        }
      },
      "setInternalWallet(address)": {
        "params": {
          "_walletAddress": "The address of the contract (user) which will be used for internal swaps"
        }
      },
      "swapExactIn(address,address,address,uint256)": {
        "params": {
          "_amountIn": "The exact amount of the input to swap",
          "_recipient": "The address of the token out recipient",
          "_tokenIn": "The address of the input token",
          "_tokenOut": "The address of the output token"
        },
        "returns": {
          "tradeSuccess_": "Indicates whether the swap succeeded"
        }
      },
      "swapExactIn(address,address,address,uint256,uint256)": {
        "params": {
          "_amountIn": "The exact amount of the input to swap",
          "_minAmountOut": "The minimum amount of _tokenOut to receive",
          "_recipient": "The address of the token out recipient",
          "_tokenIn": "The address of the input token",
          "_tokenOut": "The address of the output token"
        },
        "returns": {
          "tradeSuccess_": "Indicates whether the swap succeeded"
        }
      }
    },
    "version": 1
  },
  "userdoc": {
    "kind": "user",
    "methods": {},
    "version": 1
  },
  "storageLayout": {
    "storage": [
      {
        "astId": 723,
        "contract": "contracts/core/SwapManager.sol:SwapManager",
        "label": "_initialized",
        "offset": 0,
        "slot": "0",
        "type": "t_bool"
      },
      {
        "astId": 726,
        "contract": "contracts/core/SwapManager.sol:SwapManager",
        "label": "_initializing",
        "offset": 1,
        "slot": "0",
        "type": "t_bool"
      },
      {
        "astId": 10143,
        "contract": "contracts/core/SwapManager.sol:SwapManager",
        "label": "moduleMap",
        "offset": 2,
        "slot": "0",
        "type": "t_contract(IModuleMap)20736"
      },
      {
        "astId": 4667,
        "contract": "contracts/core/SwapManager.sol:SwapManager",
        "label": "_controllers",
        "offset": 0,
        "slot": "1",
        "type": "t_mapping(t_address,t_bool)"
      },
      {
        "astId": 4670,
        "contract": "contracts/core/SwapManager.sol:SwapManager",
        "label": "controllers",
        "offset": 0,
        "slot": "2",
        "type": "t_array(t_address)dyn_storage"
      },
      {
        "astId": 12959,
        "contract": "contracts/core/SwapManager.sol:SwapManager",
        "label": "traders",
        "offset": 0,
        "slot": "3",
        "type": "t_struct(AddressSet)3315_storage"
      },
      {
        "astId": 12961,
        "contract": "contracts/core/SwapManager.sol:SwapManager",
        "label": "internalWallet",
        "offset": 0,
        "slot": "5",
        "type": "t_address"
      }
    ],
    "types": {
      "t_address": {
        "encoding": "inplace",
        "label": "address",
        "numberOfBytes": "20"
      },
      "t_array(t_address)dyn_storage": {
        "base": "t_address",
        "encoding": "dynamic_array",
        "label": "address[]",
        "numberOfBytes": "32"
      },
      "t_array(t_bytes32)dyn_storage": {
        "base": "t_bytes32",
        "encoding": "dynamic_array",
        "label": "bytes32[]",
        "numberOfBytes": "32"
      },
      "t_bool": {
        "encoding": "inplace",
        "label": "bool",
        "numberOfBytes": "1"
      },
      "t_bytes32": {
        "encoding": "inplace",
        "label": "bytes32",
        "numberOfBytes": "32"
      },
      "t_contract(IModuleMap)20736": {
        "encoding": "inplace",
        "label": "contract IModuleMap",
        "numberOfBytes": "20"
      },
      "t_mapping(t_address,t_bool)": {
        "encoding": "mapping",
        "key": "t_address",
        "label": "mapping(address => bool)",
        "numberOfBytes": "32",
        "value": "t_bool"
      },
      "t_mapping(t_bytes32,t_uint256)": {
        "encoding": "mapping",
        "key": "t_bytes32",
        "label": "mapping(bytes32 => uint256)",
        "numberOfBytes": "32",
        "value": "t_uint256"
      },
      "t_struct(AddressSet)3315_storage": {
        "encoding": "inplace",
        "label": "struct EnumerableSet.AddressSet",
        "members": [
          {
            "astId": 3314,
            "contract": "contracts/core/SwapManager.sol:SwapManager",
            "label": "_inner",
            "offset": 0,
            "slot": "0",
            "type": "t_struct(Set)3014_storage"
          }
        ],
        "numberOfBytes": "64"
      },
      "t_struct(Set)3014_storage": {
        "encoding": "inplace",
        "label": "struct EnumerableSet.Set",
        "members": [
          {
            "astId": 3009,
            "contract": "contracts/core/SwapManager.sol:SwapManager",
            "label": "_values",
            "offset": 0,
            "slot": "0",
            "type": "t_array(t_bytes32)dyn_storage"
          },
          {
            "astId": 3013,
            "contract": "contracts/core/SwapManager.sol:SwapManager",
            "label": "_indexes",
            "offset": 0,
            "slot": "1",
            "type": "t_mapping(t_bytes32,t_uint256)"
          }
        ],
        "numberOfBytes": "64"
      },
      "t_uint256": {
        "encoding": "inplace",
        "label": "uint256",
        "numberOfBytes": "32"
      }
    }
  }
}