{
  "address": "0x3c030b5B76ef148F0C35499d2Bdb605D112f8574",
  "abi": [
    {
      "anonymous": false,
      "inputs": [
        {
          "indexed": true,
          "internalType": "address",
          "name": "token0",
          "type": "address"
        },
        {
          "indexed": true,
          "internalType": "address",
          "name": "token1",
          "type": "address"
        },
        {
          "indexed": false,
          "internalType": "uint256",
          "name": "primaryPoolIndex",
          "type": "uint256"
        }
      ],
      "name": "UniswapPairPrimaryPoolUpdated",
      "type": "event"
    },
    {
      "anonymous": false,
      "inputs": [
        {
          "indexed": true,
          "internalType": "address",
          "name": "token0",
          "type": "address"
        },
        {
          "indexed": true,
          "internalType": "address",
          "name": "token1",
          "type": "address"
        },
        {
          "indexed": false,
          "internalType": "uint24",
          "name": "fee",
          "type": "uint24"
        },
        {
          "indexed": false,
          "internalType": "uint24",
          "name": "slippageNumerator",
          "type": "uint24"
        }
      ],
      "name": "UniswapPoolAdded",
      "type": "event"
    },
    {
      "anonymous": false,
      "inputs": [
        {
          "indexed": true,
          "internalType": "address",
          "name": "token0",
          "type": "address"
        },
        {
          "indexed": true,
          "internalType": "address",
          "name": "token1",
          "type": "address"
        },
        {
          "indexed": false,
          "internalType": "uint256",
          "name": "poolIndex",
          "type": "uint256"
        },
        {
          "indexed": false,
          "internalType": "uint24",
          "name": "slippageNumerator",
          "type": "uint24"
        }
      ],
      "name": "UniswapPoolSlippageNumeratorUpdated",
      "type": "event"
    },
    {
      "inputs": [
        {
          "internalType": "address[]",
          "name": "controllers_",
          "type": "address[]"
        },
        {
          "internalType": "address",
          "name": "moduleMap_",
          "type": "address"
        }
      ],
      "name": "__Controlled_init",
      "outputs": [],
      "stateMutability": "nonpayable",
      "type": "function"
    },
    {
      "inputs": [
        {
          "internalType": "address",
          "name": "controller",
          "type": "address"
        }
      ],
      "name": "addController",
      "outputs": [],
      "stateMutability": "nonpayable",
      "type": "function"
    },
    {
      "inputs": [
        {
          "internalType": "address",
          "name": "tokenA",
          "type": "address"
        },
        {
          "internalType": "address",
          "name": "tokenB",
          "type": "address"
        },
        {
          "internalType": "uint24",
          "name": "feeNumerator",
          "type": "uint24"
        },
        {
          "internalType": "uint24",
          "name": "slippageNumerator",
          "type": "uint24"
        }
      ],
      "name": "addPool",
      "outputs": [],
      "stateMutability": "nonpayable",
      "type": "function"
    },
    {
      "inputs": [
        {
          "internalType": "uint256",
          "name": "",
          "type": "uint256"
        }
      ],
      "name": "controllers",
      "outputs": [
        {
          "internalType": "address",
          "name": "",
          "type": "address"
        }
      ],
      "stateMutability": "view",
      "type": "function"
    },
    {
      "inputs": [
        {
          "internalType": "address",
          "name": "tokenIn",
          "type": "address"
        },
        {
          "internalType": "address",
          "name": "tokenOut",
          "type": "address"
        },
        {
          "internalType": "uint256",
          "name": "amountOut",
          "type": "uint256"
        }
      ],
      "name": "getAmountInMaximum",
      "outputs": [
        {
          "internalType": "uint256",
          "name": "amountInMaximum",
          "type": "uint256"
        }
      ],
      "stateMutability": "view",
      "type": "function"
    },
    {
      "inputs": [
        {
          "internalType": "address",
          "name": "_tokenIn",
          "type": "address"
        },
        {
          "internalType": "address",
          "name": "_tokenOut",
          "type": "address"
        },
        {
          "internalType": "uint256",
          "name": "_amountIn",
          "type": "uint256"
        }
      ],
      "name": "getAmountOut",
      "outputs": [
        {
          "internalType": "uint256",
          "name": "",
          "type": "uint256"
        }
      ],
      "stateMutability": "view",
      "type": "function"
    },
    {
      "inputs": [
        {
          "internalType": "address",
          "name": "tokenIn",
          "type": "address"
        },
        {
          "internalType": "address",
          "name": "tokenOut",
          "type": "address"
        },
        {
          "internalType": "uint256",
          "name": "amountIn",
          "type": "uint256"
        }
      ],
      "name": "getAmountOutMinimum",
      "outputs": [
        {
          "internalType": "uint256",
          "name": "amountOutMinimum",
          "type": "uint256"
        }
      ],
      "stateMutability": "view",
      "type": "function"
    },
    {
      "inputs": [
        {
          "internalType": "address",
          "name": "tokenIn",
          "type": "address"
        },
        {
          "internalType": "address",
          "name": "tokenOut",
          "type": "address"
        },
        {
          "internalType": "uint256",
          "name": "amountOut",
          "type": "uint256"
        }
      ],
      "name": "getEstimatedTokenIn",
      "outputs": [
        {
          "internalType": "uint256",
          "name": "amountIn",
          "type": "uint256"
        }
      ],
      "stateMutability": "view",
      "type": "function"
    },
    {
      "inputs": [
        {
          "internalType": "address",
          "name": "tokenIn",
          "type": "address"
        },
        {
          "internalType": "address",
          "name": "tokenOut",
          "type": "address"
        },
        {
          "internalType": "uint256",
          "name": "amountIn",
          "type": "uint256"
        }
      ],
      "name": "getEstimatedTokenOut",
      "outputs": [
        {
          "internalType": "uint256",
          "name": "amountOut",
          "type": "uint256"
        }
      ],
      "stateMutability": "view",
      "type": "function"
    },
    {
      "inputs": [],
      "name": "getFeeDenominator",
      "outputs": [
        {
          "internalType": "uint24",
          "name": "",
          "type": "uint24"
        }
      ],
      "stateMutability": "pure",
      "type": "function"
    },
    {
      "inputs": [
        {
          "internalType": "address",
          "name": "tokenIn",
          "type": "address"
        },
        {
          "internalType": "address",
          "name": "tokenOut",
          "type": "address"
        }
      ],
      "name": "getPathFor",
      "outputs": [
        {
          "components": [
            {
              "internalType": "address",
              "name": "tokenOut",
              "type": "address"
            },
            {
              "internalType": "uint256",
              "name": "firstPoolFee",
              "type": "uint256"
            },
            {
              "internalType": "address",
              "name": "tokenInTokenOut",
              "type": "address"
            },
            {
              "internalType": "uint256",
              "name": "secondPoolFee",
              "type": "uint256"
            },
            {
              "internalType": "address",
              "name": "tokenIn",
              "type": "address"
            }
          ],
          "internalType": "struct IUniswapTrader.Path",
          "name": "",
          "type": "tuple"
        }
      ],
      "stateMutability": "view",
      "type": "function"
    },
    {
      "inputs": [
        {
          "internalType": "address",
          "name": "token0",
          "type": "address"
        },
        {
          "internalType": "address",
          "name": "token1",
          "type": "address"
        },
        {
          "internalType": "uint256",
          "name": "poolIndex",
          "type": "uint256"
        }
      ],
      "name": "getPool",
      "outputs": [
        {
          "internalType": "uint24",
          "name": "",
          "type": "uint24"
        },
        {
          "internalType": "uint24",
          "name": "",
          "type": "uint24"
        }
      ],
      "stateMutability": "view",
      "type": "function"
    },
    {
      "inputs": [
        {
          "internalType": "address",
          "name": "tokenA",
          "type": "address"
        },
        {
          "internalType": "address",
          "name": "tokenB",
          "type": "address"
        }
      ],
      "name": "getPoolAddress",
      "outputs": [
        {
          "internalType": "address",
          "name": "pool",
          "type": "address"
        }
      ],
      "stateMutability": "view",
      "type": "function"
    },
    {
      "inputs": [
        {
          "internalType": "address",
          "name": "tokenA",
          "type": "address"
        },
        {
          "internalType": "address",
          "name": "tokenB",
          "type": "address"
        },
        {
          "internalType": "uint256",
          "name": "poolId",
          "type": "uint256"
        }
      ],
      "name": "getPoolFeeNumerator",
      "outputs": [
        {
          "internalType": "uint24",
          "name": "feeNumerator",
          "type": "uint24"
        }
      ],
      "stateMutability": "view",
      "type": "function"
    },
    {
      "inputs": [
        {
          "internalType": "address",
          "name": "tokenA",
          "type": "address"
        },
        {
          "internalType": "address",
          "name": "tokenB",
          "type": "address"
        },
        {
          "internalType": "uint256",
          "name": "poolId",
          "type": "uint256"
        }
      ],
      "name": "getPoolSlippageNumerator",
      "outputs": [
        {
          "internalType": "uint24",
          "name": "slippageNumerator",
          "type": "uint24"
        }
      ],
      "stateMutability": "view",
      "type": "function"
    },
    {
      "inputs": [],
      "name": "getSlippageDenominator",
      "outputs": [
        {
          "internalType": "uint24",
          "name": "",
          "type": "uint24"
        }
      ],
      "stateMutability": "pure",
      "type": "function"
    },
    {
      "inputs": [
        {
          "internalType": "address",
          "name": "tokenA",
          "type": "address"
        },
        {
          "internalType": "address",
          "name": "tokenB",
          "type": "address"
        }
      ],
      "name": "getSqrtPriceX96",
      "outputs": [
        {
          "internalType": "uint256",
          "name": "",
          "type": "uint256"
        }
      ],
      "stateMutability": "view",
      "type": "function"
    },
    {
      "inputs": [
        {
          "internalType": "uint256",
          "name": "tokenPairIndex",
          "type": "uint256"
        }
      ],
      "name": "getTokenPair",
      "outputs": [
        {
          "internalType": "address",
          "name": "",
          "type": "address"
        },
        {
          "internalType": "address",
          "name": "",
          "type": "address"
        }
      ],
      "stateMutability": "view",
      "type": "function"
    },
    {
      "inputs": [
        {
          "internalType": "address",
          "name": "tokenA",
          "type": "address"
        },
        {
          "internalType": "address",
          "name": "tokenB",
          "type": "address"
        }
      ],
      "name": "getTokenPairPoolsLength",
      "outputs": [
        {
          "internalType": "uint256",
          "name": "",
          "type": "uint256"
        }
      ],
      "stateMutability": "view",
      "type": "function"
    },
    {
      "inputs": [],
      "name": "getTokenPairsLength",
      "outputs": [
        {
          "internalType": "uint256",
          "name": "",
          "type": "uint256"
        }
      ],
      "stateMutability": "view",
      "type": "function"
    },
    {
      "inputs": [
        {
          "internalType": "address",
          "name": "tokenA",
          "type": "address"
        },
        {
          "internalType": "address",
          "name": "tokenB",
          "type": "address"
        },
        {
          "internalType": "uint256",
          "name": "amountA",
          "type": "uint256"
        },
        {
          "internalType": "uint256",
          "name": "amountB",
          "type": "uint256"
        }
      ],
      "name": "getTokensAndAmountsSorted",
      "outputs": [
        {
          "internalType": "address",
          "name": "token0",
          "type": "address"
        },
        {
          "internalType": "address",
          "name": "token1",
          "type": "address"
        },
        {
          "internalType": "uint256",
          "name": "amount0",
          "type": "uint256"
        },
        {
          "internalType": "uint256",
          "name": "amount1",
          "type": "uint256"
        }
      ],
      "stateMutability": "pure",
      "type": "function"
    },
    {
      "inputs": [
        {
          "internalType": "address",
          "name": "tokenA",
          "type": "address"
        },
        {
          "internalType": "address",
          "name": "tokenB",
          "type": "address"
        }
      ],
      "name": "getTokensSorted",
      "outputs": [
        {
          "internalType": "address",
          "name": "token0",
          "type": "address"
        },
        {
          "internalType": "address",
          "name": "token1",
          "type": "address"
        }
      ],
      "stateMutability": "pure",
      "type": "function"
    },
    {
      "inputs": [
        {
          "internalType": "address[]",
          "name": "controllers_",
          "type": "address[]"
        },
        {
          "internalType": "address",
          "name": "moduleMap_",
          "type": "address"
        },
        {
          "internalType": "address",
          "name": "factoryAddress_",
          "type": "address"
        },
        {
          "internalType": "address",
          "name": "swapRouterAddress_",
          "type": "address"
        }
      ],
      "name": "initialize",
      "outputs": [],
      "stateMutability": "nonpayable",
      "type": "function"
    },
    {
      "inputs": [
        {
          "internalType": "address",
          "name": "_tokenA",
          "type": "address"
        },
        {
          "internalType": "address",
          "name": "_tokenB",
          "type": "address"
        }
      ],
      "name": "isPoolExist",
      "outputs": [
        {
          "internalType": "bool",
          "name": "",
          "type": "bool"
        }
      ],
      "stateMutability": "view",
      "type": "function"
    },
    {
      "inputs": [],
      "name": "moduleMap",
      "outputs": [
        {
          "internalType": "contract IModuleMap",
          "name": "",
          "type": "address"
        }
      ],
      "stateMutability": "view",
      "type": "function"
    },
    {
      "inputs": [
        {
          "internalType": "address",
          "name": "tokenIn",
          "type": "address"
        },
        {
          "internalType": "address",
          "name": "tokenOut",
          "type": "address"
        },
        {
          "internalType": "uint256",
          "name": "firstPoolFee",
          "type": "uint256"
        },
        {
          "internalType": "address",
          "name": "tokenInTokenOut",
          "type": "address"
        },
        {
          "internalType": "uint256",
          "name": "secondPoolFee",
          "type": "uint256"
        }
      ],
      "name": "setPathFor",
      "outputs": [],
      "stateMutability": "nonpayable",
      "type": "function"
    },
    {
      "inputs": [
        {
          "internalType": "address",
          "name": "tokenIn",
          "type": "address"
        },
        {
          "internalType": "address",
          "name": "tokenOut",
          "type": "address"
        },
        {
          "internalType": "address",
          "name": "recipient",
          "type": "address"
        },
        {
          "internalType": "uint256",
          "name": "amountIn",
          "type": "uint256"
        },
        {
          "internalType": "uint256",
          "name": "amountOutMin",
          "type": "uint256"
        }
      ],
      "name": "swapExactInput",
      "outputs": [
        {
          "internalType": "bool",
          "name": "tradeSuccess",
          "type": "bool"
        }
      ],
      "stateMutability": "nonpayable",
      "type": "function"
    },
    {
      "inputs": [
        {
          "internalType": "address",
          "name": "tokenIn",
          "type": "address"
        },
        {
          "internalType": "address",
          "name": "tokenOut",
          "type": "address"
        },
        {
          "internalType": "address",
          "name": "recipient",
          "type": "address"
        },
        {
          "internalType": "uint256",
          "name": "amountIn",
          "type": "uint256"
        }
      ],
      "name": "swapExactInput",
      "outputs": [
        {
          "internalType": "bool",
          "name": "tradeSuccess",
          "type": "bool"
        }
      ],
      "stateMutability": "nonpayable",
      "type": "function"
    },
    {
      "inputs": [
        {
          "internalType": "address",
          "name": "tokenIn",
          "type": "address"
        },
        {
          "internalType": "address",
          "name": "tokenOut",
          "type": "address"
        },
        {
          "internalType": "address",
          "name": "recipient",
          "type": "address"
        },
        {
          "internalType": "uint256",
          "name": "amountOut",
          "type": "uint256"
        }
      ],
      "name": "swapExactOutput",
      "outputs": [
        {
          "internalType": "bool",
          "name": "tradeSuccess",
          "type": "bool"
        }
      ],
      "stateMutability": "nonpayable",
      "type": "function"
    },
    {
      "inputs": [
        {
          "internalType": "address",
          "name": "tokenA",
          "type": "address"
        },
        {
          "internalType": "address",
          "name": "tokenB",
          "type": "address"
        },
        {
          "internalType": "uint256",
          "name": "primaryPoolIndex",
          "type": "uint256"
        }
      ],
      "name": "updatePairPrimaryPool",
      "outputs": [],
      "stateMutability": "nonpayable",
      "type": "function"
    },
    {
      "inputs": [
        {
          "internalType": "address",
          "name": "tokenA",
          "type": "address"
        },
        {
          "internalType": "address",
          "name": "tokenB",
          "type": "address"
        },
        {
          "internalType": "uint256",
          "name": "poolIndex",
          "type": "uint256"
        },
        {
          "internalType": "uint24",
          "name": "slippageNumerator",
          "type": "uint24"
        }
      ],
      "name": "updatePoolSlippageNumerator",
      "outputs": [],
      "stateMutability": "nonpayable",
      "type": "function"
    }
  ],
  "transactionHash": "0x99485dc29cc30e0487a7dadb9fa11a6bc66936545e9cdca2135eea56d76d765e",
  "args": [],
  "solcInputHash": "3431e4381f2519326a70e3e5c8d5090e",
  "bytecode": "0x608060405234801561001057600080fd5b5061496b806100206000396000f3fe608060405234801561001057600080fd5b50600436106101755760003560e01c806304102ba11461017a578063048417a41461018f57806306bec6e7146101a65780630f0a1c6f146101cd578063160855ba146101f3578063305df65d14610206578063320d3e781461021957806334857bb01461022c5780633fa1e0c81461024f578063413ca0b71461026257806349470541146102c05780634aa06652146102d35780634ac558f3146102e65780635245da56146102f9578063527c22d31461031a578063634461741461032d5780637757f6d2146103405780637c21ce1414610353578063841bdb9e1461036657806398c671ce146103795780639c9221001461038c578063a6cda8331461039f578063a7fc7a07146103dd578063ab2f0651146103f0578063acf6cc1a14610403578063b9b6d1b014610424578063bbb3701714610437578063ccbfc16c14610440578063d46005b114610453578063e94b0dd214610466578063f4e1fc4114610437575b600080fd5b61018d610188366004614115565b610479565b005b6008545b6040519081526020015b60405180910390f35b6101b96101b436600461416c565b611230565b60405162ffffff909116815260200161019d565b6000546101e6906201000090046001600160a01b031681565b60405161019d91906144fb565b61018d610201366004614206565b61133b565b6101b961021436600461416c565b61176f565b610193610227366004614033565b6117ee565b61023f61023a36600461406b565b611886565b604051901515815260200161019d565b6101e661025d366004614033565b611ea0565b610275610270366004614033565b611f34565b60405161019d919081516001600160a01b0390811682526020808401519083015260408084015182169083015260608084015190830152608092830151169181019190915260a00190565b61023f6102ce3660046140bb565b61204a565b6101936102e136600461416c565b612104565b61018d6102f43660046141ac565b612111565b61030c610307366004614033565b612361565b60405161019d92919061450f565b61019361032836600461416c565b612395565b61019361033b366004614033565b6124d9565b61019361034e36600461416c565b612519565b61030c6103613660046143f7565b612603565b61023f610374366004614033565b612700565b61018d610387366004614290565b612742565b61023f61039a36600461406b565b6128e8565b6103b26103ad36600461424b565b612997565b604080516001600160a01b03958616815294909316602085015291830152606082015260800161019d565b61018d6103eb366004613ffb565b6129de565b61018d6103fe36600461416c565b612c1b565b61041661041136600461416c565b61320b565b60405161019d929190614737565b61019361043236600461416c565b613354565b620f42406101b9565b61019361044e36600461416c565b613391565b61018d6104613660046142d4565b6133bf565b6101e66104743660046143f7565b61346f565b600080546040516337c61fc560e11b8152620100009091046001600160a01b031691636f8c3f8a916104ae919060040161456a565b60206040518083038186803b1580156104c657600080fd5b505afa1580156104da573d6000803e3d6000fd5b505050506040513d601f19601f820116820180604052508101906104fe9190614017565b6001600160a01b031663f3ae2415336040518263ffffffff1660e01b815260040161052991906144fb565b60206040518083038186803b15801561054157600080fd5b505afa158015610555573d6000803e3d6000fd5b505050506040513d601f19601f820116820180604052508101906105799190614346565b61059e5760405162461bcd60e51b815260040161059590614618565b60405180910390fd5b6001600160a01b0384166105c45760405162461bcd60e51b8152600401610595906145f3565b6001600160a01b0383166105ea5760405162461bcd60e51b8152600401610595906145f3565b6000546040516337c61fc560e11b8152620100009091046001600160a01b031690636f8c3f8a906106209060039060040161456a565b60206040518083038186803b15801561063857600080fd5b505afa15801561064c573d6000803e3d6000fd5b505050506040513d601f19601f820116820180604052508101906106709190614017565b6001600160a01b0316637faa0597856040518263ffffffff1660e01b815260040161069b91906144fb565b60206040518083038186803b1580156106b357600080fd5b505afa1580156106c7573d6000803e3d6000fd5b505050506040513d601f19601f820116820180604052508101906106eb9190614346565b61075c5760405162461bcd60e51b815260206004820152604860248201527f556e69737761705472616465723a3a616464506f6f6c3a20546f6b656e4120686044820152600080516020614916833981519152606482015267074696f6e204d61760c41b608482015260a401610595565b6000546040516337c61fc560e11b8152620100009091046001600160a01b031690636f8c3f8a906107929060039060040161456a565b60206040518083038186803b1580156107aa57600080fd5b505afa1580156107be573d6000803e3d6000fd5b505050506040513d601f19601f820116820180604052508101906107e29190614017565b6001600160a01b0316637faa0597846040518263ffffffff1660e01b815260040161080d91906144fb565b60206040518083038186803b15801561082557600080fd5b505afa158015610839573d6000803e3d6000fd5b505050506040513d601f19601f8201168201806040525081019061085d9190614346565b6108ce5760405162461bcd60e51b815260206004820152604860248201527f556e69737761705472616465723a3a616464506f6f6c3a20546f6b656e4220686044820152600080516020614916833981519152606482015267074696f6e204d61760c41b608482015260a401610595565b620f424062ffffff8216111561096c5760405162461bcd60e51b815260206004820152605760248201527f556e69737761705472616465723a3a616464506f6f6c3a20536c69707061676560448201527f206e756d657261746f722063616e6e6f74206265206772656174657220746861606482015276371039b634b83830b833b2903232b737b6b4b730ba37b960491b608482015260a401610595565b600354604051630b4c774160e11b81526000916001600160a01b031690631698ee82906109a190889088908890600401614529565b60206040518083038186803b1580156109b957600080fd5b505afa1580156109cd573d6000803e3d6000fd5b505050506040513d601f19601f820116820180604052508101906109f19190614017565b6001600160a01b03161415610a5c5760405162461bcd60e51b815260206004820152602b60248201527f556e69737761705472616465723a3a616464506f6f6c3a20506f6f6c20646f6560448201526a1cc81b9bdd08195e1a5cdd60aa1b6064820152608401610595565b600080610a698686612361565b915091506000805b6001600160a01b03808516600090815260056020908152604080832093871683529290522054811015610b19576001600160a01b038085166000908152600560209081526040808320938716835292905220805462ffffff8816919083908110610aeb57634e487b7160e01b600052603260045260246000fd5b60009182526020909120015462ffffff161415610b0757600191505b80610b1181614836565b915050610a71565b508015610b845760405162461bcd60e51b815260206004820152603360248201527f556e69737761705472616465723a3a616464506f6f6c3a20506f6f6c2068617360448201527208185b1c9958591e481899595b881859191959606a1b6064820152608401610595565b60408051808201825262ffffff878116825286811660208084019182526001600160a01b03888116600090815260058352868120918916815290825294852080546001810182559086529085208451910180549251841663010000000265ffffffffffff19909316919093161717905590805b600854811015610cb457856001600160a01b031660088281548110610c2c57634e487b7160e01b600052603260045260246000fd5b60009182526020909120600290910201546001600160a01b0316148015610c985750846001600160a01b031660088281548110610c7957634e487b7160e01b600052603260045260246000fd5b60009182526020909120600160029092020101546001600160a01b0316145b15610ca257600191505b80610cac81614836565b915050610bf7565b50806111d8576040805180820182526001600160a01b0387811680835287821660208401908152600880546001810182556000918252855160029182027ff3f7a9fe364faab93b216da50a3214154f22a0a2b415b23a84c8169e8b636ee3810180549288166001600160a01b031993841617905593517ff3f7a9fe364faab93b216da50a3214154f22a0a2b415b23a84c8169e8b636ee4909401805494871694909116939093179092555494516337c61fc560e11b81529394919363dd62ed3e9330936201000090041691636f8c3f8a91610d92919060040161456a565b60206040518083038186803b158015610daa57600080fd5b505afa158015610dbe573d6000803e3d6000fd5b505050506040513d601f19601f82011682018060405250810190610de29190614017565b6040518363ffffffff1660e01b8152600401610dff92919061450f565b60206040518083038186803b158015610e1757600080fd5b505afa158015610e2b573d6000803e3d6000fd5b505050506040513d601f19601f82011682018060405250810190610e4f919061440f565b610eef576000546040516337c61fc560e11b8152610eef916201000090046001600160a01b031690636f8c3f8a90610e8c9060029060040161456a565b60206040518083038186803b158015610ea457600080fd5b505afa158015610eb8573d6000803e3d6000fd5b505050506040513d601f19601f82011682018060405250810190610edc9190614017565b6001600160a01b03881690600019613499565b6000546040516337c61fc560e11b81526001600160a01b038088169263dd62ed3e9230926201000090920490911690636f8c3f8a90610f339060029060040161456a565b60206040518083038186803b158015610f4b57600080fd5b505afa158015610f5f573d6000803e3d6000fd5b505050506040513d601f19601f82011682018060405250810190610f839190614017565b6040518363ffffffff1660e01b8152600401610fa092919061450f565b60206040518083038186803b158015610fb857600080fd5b505afa158015610fcc573d6000803e3d6000fd5b505050506040513d601f19601f82011682018060405250810190610ff0919061440f565b611090576000546040516337c61fc560e11b8152611090916201000090046001600160a01b031690636f8c3f8a9061102d9060029060040161456a565b60206040518083038186803b15801561104557600080fd5b505afa158015611059573d6000803e3d6000fd5b505050506040513d601f19601f8201168201806040525081019061107d9190614017565b6001600160a01b03871690600019613499565b60048054604051636eb1769f60e11b81526001600160a01b038981169363dd62ed3e936110c3933093909116910161450f565b60206040518083038186803b1580156110db57600080fd5b505afa1580156110ef573d6000803e3d6000fd5b505050506040513d601f19601f82011682018060405250810190611113919061440f565b61113357600454611133906001600160a01b038881169116600019613499565b60048054604051636eb1769f60e11b81526001600160a01b038881169363dd62ed3e93611166933093909116910161450f565b60206040518083038186803b15801561117e57600080fd5b505afa158015611192573d6000803e3d6000fd5b505050506040513d601f19601f820116820180604052508101906111b6919061440f565b6111d6576004546111d6906001600160a01b038781169116600019613499565b505b836001600160a01b0316856001600160a01b03167fa2ef711760cee8cd3a81db17763c9b2fc95b6b9491d0b2abccc28180269f80d9898960405161121d929190614737565b60405180910390a3505050505050505050565b600080600061123f8686612361565b6001600160a01b03808316600090815260056020908152604080832093851683529290522054919350915084106112db5760405162461bcd60e51b815260206004820152603a60248201527f556e69737761705472616465723a3a676574506f6f6c4665654e756d657261746044820152791bdc8e88141bdbdb08125108191bd95cc81b9bdd08195e1a5cdd60321b6064820152608401610595565b6001600160a01b03808316600090815260056020908152604080832093851683529290522080548590811061132057634e487b7160e01b600052603260045260246000fd5b60009182526020909120015462ffffff169695505050505050565b600080546040516337c61fc560e11b8152620100009091046001600160a01b031691636f8c3f8a91611370919060040161456a565b60206040518083038186803b15801561138857600080fd5b505afa15801561139c573d6000803e3d6000fd5b505050506040513d601f19601f820116820180604052508101906113c09190614017565b6001600160a01b031663f3ae2415336040518263ffffffff1660e01b81526004016113eb91906144fb565b60206040518083038186803b15801561140357600080fd5b505afa158015611417573d6000803e3d6000fd5b505050506040513d601f19601f8201168201806040525081019061143b9190614346565b6114575760405162461bcd60e51b815260040161059590614618565b6001600160a01b03841661147d5760405162461bcd60e51b8152600401610595906145f3565b6001600160a01b0383166114a35760405162461bcd60e51b8152600401610595906145f3565b620f424062ffffff821611156115375760405162461bcd60e51b815260206004820152606b602482015260008051602061489683398151915260448201526000805160206148b683398151915260648201527f7374206e6f742062652067726561746572207468616e20736c6970706167652060848201526a3232b737b6b4b730ba37b960a91b60a482015260c401610595565b6000806115448686612361565b6001600160a01b038083166000908152600560209081526040808320938516835292905220805492945090925062ffffff8516918690811061159657634e487b7160e01b600052603260045260246000fd5b6000918252602090912001546301000000900462ffffff1614156116245760405162461bcd60e51b815260206004820152605d602482015260008051602061489683398151915260448201526000805160206148b683398151915260648201527f7374206265207570646174656420746f2061206e6577206e756d626572000000608482015260a401610595565b6001600160a01b0380831660009081526005602090815260408083209385168352929052205484106116ac5760405162461bcd60e51b815260206004820152603e602482015260008051602061489683398151915260448201527f4e756d657261746f723a20506f6f6c20646f6573206e6f7420657869737400006064820152608401610595565b6001600160a01b0380831660009081526005602090815260408083209385168352929052208054849190869081106116f457634e487b7160e01b600052603260045260246000fd5b600091825260209182902001805465ffffff0000001916630100000062ffffff9485160217905560408051878152928616918301919091526001600160a01b0383811692908516917f687cb316011045b0b6aa372665979f03ae3d37b62e4cdc380472dc8582417bda910160405180910390a3505050505050565b600080600061177e8686612361565b6001600160a01b038083166000908152600560209081526040808320938516835292905220805492945090925090859081106117ca57634e487b7160e01b600052603260045260246000fd5b6000918252602090912001546301000000900462ffffff16925050505b9392505050565b6000806117fb8484611ea0565b6001600160a01b0316633850c7bd6040518163ffffffff1660e01b815260040160e06040518083038186803b15801561183357600080fd5b505afa158015611847573d6000803e3d6000fd5b505050506040513d601f19601f8201168201806040525081019061186b9190614360565b50506001600160a01b03909416955050505050505b92915050565b3360009081526001602052604081205460ff166118b55760405162461bcd60e51b815260040161059590614666565b6001600160a01b0385166118db5760405162461bcd60e51b8152600401610595906145f3565b6001600160a01b0384166119015760405162461bcd60e51b8152600401610595906145f3565b6001600160a01b0383166119275760405162461bcd60e51b8152600401610595906145f3565b6001600160a01b03808616600090815260076020908152604080832093881683529290522054859060ff1615611af75760006119638787611f34565b905060006040518060a001604052808360800151846020015185604001518660600151876000015160405160200161199f9594939291906144a4565b60408051601f198184030181529181529082526001600160a01b03808a1660208401524283830152606083018990526000608090930192909252600480549151631e51809360e31b815293945091169163f28c049891611a01918591016146ba565b602060405180830381600087803b158015611a1b57600080fd5b505af1925050508015611a4b575060408051601f3d908101601f19168201909252611a489181019061440f565b60015b611ae95760009350611ae486846001600160a01b03166370a08231306040518263ffffffff1660e01b8152600401611a8391906144fb565b60206040518083038186803b158015611a9b57600080fd5b505afa158015611aaf573d6000803e3d6000fd5b505050506040513d601f19601f82011682018060405250810190611ad3919061440f565b6001600160a01b03861691906135e2565b611aef565b50600193505b505050611e98565b600080611b048888612361565b6001600160a01b03808316600090815260056020908152604080832093851683529290529081208054939550919350918290611b5057634e487b7160e01b600052603260045260246000fd5b60009182526020909120015462ffffff1611611bbc5760405162461bcd60e51b815260206004820152603760248201526000805160206148d6833981519152604482015276141bdbdb081a185cc81b9bdd081899595b881859191959604a1b6064820152608401610595565b6000611bc9898988613354565b905080846001600160a01b03166370a08231306040518263ffffffff1660e01b8152600401611bf891906144fb565b60206040518083038186803b158015611c1057600080fd5b505afa158015611c24573d6000803e3d6000fd5b505050506040513d601f19601f82011682018060405250810190611c48919061440f565b1015611cb45760405162461bcd60e51b815260206004820152604160248201526000805160206148d683398151915260448201527f42616c616e6365206973206c657373207468616e20747261646520616d6f756e6064820152601d60fa1b608482015260a401610595565b60408051610100810182526000818301819052606082018190526080820181905260a0820181905260c0820181905260e082018190526001600160a01b038c811683528b8116602080850191909152878216835260058152848320918716835252918220805491929091611d3857634e487b7160e01b600052603260045260246000fd5b600091825260208220015462ffffff166040808401919091526001600160a01b03808b16606085015242608085015260a084018a905260c0840185905260e0840192909252600480549151631b67c43360e31b8152919092169163db3e219891611da4918591016146cd565b602060405180830381600087803b158015611dbe57600080fd5b505af1925050508015611dee575060408051601f3d908101601f19168201909252611deb9181019061440f565b60015b611e8c5760009550611e8788866001600160a01b03166370a08231306040518263ffffffff1660e01b8152600401611e2691906144fb565b60206040518083038186803b158015611e3e57600080fd5b505afa158015611e52573d6000803e3d6000fd5b505050506040513d601f19601f82011682018060405250810190611e76919061440f565b6001600160a01b03881691906135e2565b611e92565b50600195505b50505050505b949350505050565b600080611eaf84846000611230565b600354604051630b4c774160e11b81529192506001600160a01b031690631698ee8290611ee490879087908690600401614529565b60206040518083038186803b158015611efc57600080fd5b505afa158015611f10573d6000803e3d6000fd5b505050506040513d601f19601f82011682018060405250810190611e989190614017565b6040805160a0810182526000808252602080830182905282840182905260608301829052608083018290526001600160a01b0386811683526007825284832090861683529052919091205460ff16611fde5760405162461bcd60e51b815260206004820152602760248201527f546865726520697320616e206578697374696e6720506f6f6c20666f7220746860448201526634b9903830b4b960c91b6064820152608401610595565b506001600160a01b039182166000908152600660209081526040808320938516835292815290829020825160a081018452815485168152600182015492810192909252600281015484169282019290925260038201546060820152600490910154909116608082015290565b3360009081526001602052604081205460ff166120795760405162461bcd60e51b815260040161059590614666565b6001600160a01b03861661209f5760405162461bcd60e51b8152600401610595906145f3565b6001600160a01b0385166120c55760405162461bcd60e51b8152600401610595906145f3565b6001600160a01b0384166120eb5760405162461bcd60e51b8152600401610595906145f3565b6120f88686868686613601565b90505b95945050505050565b6000611e98848484612395565b600080546040516337c61fc560e11b8152620100009091046001600160a01b031691636f8c3f8a91612146919060040161456a565b60206040518083038186803b15801561215e57600080fd5b505afa158015612172573d6000803e3d6000fd5b505050506040513d601f19601f820116820180604052508101906121969190614017565b6001600160a01b031663f3ae2415336040518263ffffffff1660e01b81526004016121c191906144fb565b60206040518083038186803b1580156121d957600080fd5b505afa1580156121ed573d6000803e3d6000fd5b505050506040513d601f19601f820116820180604052508101906122119190614346565b61222d5760405162461bcd60e51b815260040161059590614618565b6001600160a01b0385166122535760405162461bcd60e51b8152600401610595906145f3565b6001600160a01b0384166122795760405162461bcd60e51b8152600401610595906145f3565b6001600160a01b03821661229f5760405162461bcd60e51b8152600401610595906145f3565b6040805160a0810182526001600160a01b0396871680825260208083019687529488168284019081526060830194855296881660808301818152600083815260068852858120838252885285812094518554908c166001600160a01b031991821617865598516001808701919091559951600286018054918d16918b169190911790559551600385015551600490930180549390991692909616919091179096559481526007825284812092815291905291909120805460ff19169091179055565b600080826001600160a01b0316846001600160a01b0316101561238857508290508161238e565b50819050825b9250929050565b6001600160a01b03808416600090815260076020908152604080832093861683529290529081205460ff16156124065760006123d18585611f34565b905060006123e88260800151836040015186612395565b90506123fd8260400151836000015183612395565b925050506117e7565b600061241485856000611230565b9050600061242286866117ee565b9050846001600160a01b0316866001600160a01b0316101561248957620f424061244c83826147cb565b62ffffff1661246e6124638785600160601b613aa2565b84600160601b613aa2565b61247891906147ac565b612482919061478c565b92506124d0565b620f424061249783826147cb565b62ffffff166124b96124ae87600160601b86613aa2565b600160601b85613aa2565b6124c391906147ac565b6124cd919061478c565b92505b50509392505050565b60008060006124e88585612361565b6001600160a01b03918216600090815260056020908152604080832093909416825291909152205495945050505050565b6001600160a01b03808416600090815260076020908152604080832093861683529290529081205460ff16156125815760006125558585611f34565b9050600061256c8260400151836000015186612519565b90506123fd8260800151836040015183612519565b600061258f85856000611230565b9050600061259d86866117ee565b9050846001600160a01b0316866001600160a01b031610156125de57620f42406125c783826147cb565b62ffffff1661246e6124ae87600160601b86613aa2565b620f42406125ec83826147cb565b62ffffff166124b96124638785600160601b613aa2565b600854600090819083106126785760405162461bcd60e51b815260206004820152603660248201527f556e69737761705472616465723a3a676574546f6b656e506169723a20546f6b604482015275195b881c185a5c88191bd95cc81b9bdd08195e1a5cdd60521b6064820152608401610595565b6008838154811061269957634e487b7160e01b600052603260045260246000fd5b6000918252602090912060029091020154600880546001600160a01b0390921691859081106126d857634e487b7160e01b600052603260045260246000fd5b600091825260209091206001600290920201015490946001600160a01b039091169350915050565b600080600061270f8585612361565b6001600160a01b039182166000908152600560209081526040808320939094168252919091522054151595945050505050565b600054610100900460ff1661275d5760005460ff1615612761565b303b155b61277d5760405162461bcd60e51b8152600401610595906145a5565b600054610100900460ff1615801561279f576000805461ffff19166101011790555b6001600160a01b0382166127c55760405162461bcd60e51b8152600401610595906145f3565b60005b835181101561283d5760006001600160a01b03168482815181106127fc57634e487b7160e01b600052603260045260246000fd5b60200260200101516001600160a01b0316141561282b5760405162461bcd60e51b8152600401610595906145f3565b8061283581614836565b9150506127c8565b5060005b83518110156128b357600180600086848151811061286f57634e487b7160e01b600052603260045260246000fd5b6020908102919091018101516001600160a01b03168252810191909152604001600020805460ff1916911515919091179055806128ab81614836565b915050612841565b5082516128c7906002906020860190613e98565b506128d182613c27565b80156128e3576000805461ff00191690555b505050565b3360009081526001602052604081205460ff166129175760405162461bcd60e51b815260040161059590614666565b6001600160a01b03851661293d5760405162461bcd60e51b8152600401610595906145f3565b6001600160a01b0384166129635760405162461bcd60e51b8152600401610595906145f3565b6001600160a01b0383166129895760405162461bcd60e51b8152600401610595906145f3565b6120fb858585856000613601565b600080600080866001600160a01b0316886001600160a01b031610156129c75750869250859150849050836129d3565b50859250869150839050845b945094509450949050565b600080546040516337c61fc560e11b8152620100009091046001600160a01b031691636f8c3f8a91612a13919060040161456a565b60206040518083038186803b158015612a2b57600080fd5b505afa158015612a3f573d6000803e3d6000fd5b505050506040513d601f19601f82011682018060405250810190612a639190614017565b6001600160a01b0316632f54bf6e336040518263ffffffff1660e01b8152600401612a8e91906144fb565b60206040518083038186803b158015612aa657600080fd5b505afa158015612aba573d6000803e3d6000fd5b505050506040513d601f19601f82011682018060405250810190612ade9190614346565b612b3d5760405162461bcd60e51b815260206004820152602a60248201527f436f6e74726f6c6c65643a3a6f6e6c794f776e65723a2043616c6c6572206973604482015269103737ba1037bbb732b960b11b6064820152608401610595565b6001600160a01b03811660009081526001602081905260408220805460ff19169091179055805b600254811015612bc55760028181548110612b8f57634e487b7160e01b600052603260045260246000fd5b6000918252602090912001546001600160a01b0384811691161415612bb357600191505b80612bbd81614836565b915050612b64565b5080612c1757600280546001810182556000919091527f405787fa12a823e0f2b7631cc41b3ba8828b3321ca811111fa75cd3aa3bb5ace0180546001600160a01b0319166001600160a01b0384161790555b5050565b600080546040516337c61fc560e11b8152620100009091046001600160a01b031691636f8c3f8a91612c50919060040161456a565b60206040518083038186803b158015612c6857600080fd5b505afa158015612c7c573d6000803e3d6000fd5b505050506040513d601f19601f82011682018060405250810190612ca09190614017565b6001600160a01b031663f3ae2415336040518263ffffffff1660e01b8152600401612ccb91906144fb565b60206040518083038186803b158015612ce357600080fd5b505afa158015612cf7573d6000803e3d6000fd5b505050506040513d601f19601f82011682018060405250810190612d1b9190614346565b612d375760405162461bcd60e51b815260040161059590614618565b6001600160a01b038316612d5d5760405162461bcd60e51b8152600401610595906145f3565b6001600160a01b038216612d835760405162461bcd60e51b8152600401610595906145f3565b80612dfe5760405162461bcd60e51b815260206004820152605160248201526000805160206148f683398151915260448201527f506f6f6c3a2053706563696669656420696e64657820697320616c7265616479606482015270081d1a19481c1c9a5b585c9e481c1bdbdb607a1b608482015260a401610595565b600080612e0b8585612361565b6001600160a01b0380831660009081526005602090815260408083209385168352929052205491935091508310612eaa5760405162461bcd60e51b815260206004820152604960248201526000805160206148f683398151915260448201527f506f6f6c3a2053706563696669656420706f6f6c20696e64657820646f6573206064820152681b9bdd08195e1a5cdd60ba1b608482015260a401610595565b6001600160a01b0380831660009081526005602090815260408083209385168352929052908120805485908110612ef157634e487b7160e01b600052603260045260246000fd5b60009182526020808320909101546001600160a01b03808716845260058352604080852091871685529252908220805462ffffff90921693509086908110612f4957634e487b7160e01b600052603260045260246000fd5b6000918252602080832091909101546001600160a01b038781168452600583526040808520918816855292529082208054630100000090920462ffffff1693509190612fa557634e487b7160e01b600052603260045260246000fd5b60009182526020808320909101546001600160a01b038088168452600583526040808520918816855292529120805462ffffff9092169187908110612ffa57634e487b7160e01b600052603260045260246000fd5b6000918252602080832091909101805462ffffff191662ffffff94909416939093179092556001600160a01b03868116825260058352604080832091871683529252908120805490919061305e57634e487b7160e01b600052603260045260246000fd5b6000918252602080832091909101546001600160a01b0387811684526005835260408085209188168552925291208054630100000090920462ffffff1691879081106130ba57634e487b7160e01b600052603260045260246000fd5b60009182526020808320909101805462ffffff9490941663010000000265ffffff00000019909416939093179092556001600160a01b03808716825260058352604080832091871683529252908120805484929061312857634e487b7160e01b600052603260045260246000fd5b6000918252602080832091909101805462ffffff191662ffffff94909416939093179092556001600160a01b03868116825260058352604080832091871683529252908120805483929061318c57634e487b7160e01b600052603260045260246000fd5b9060005260206000200160000160036101000a81548162ffffff021916908362ffffff160217905550826001600160a01b0316846001600160a01b03167fa5059aac7a947fedcf9741dd4daa56b660656aa44187109ca1aeb2d46f9aa3b6876040516131fa91815260200190565b60405180910390a350505050505050565b6001600160a01b038084166000908152600560209081526040808320938616835292905290812054819083106132965760405162461bcd60e51b815260206004820152602a60248201527f556e69737761705472616465723a676574506f6f6c3a20506f6f6c20646f6573604482015269081b9bdd08195e1a5cdd60b21b6064820152608401610595565b6001600160a01b0380861660009081526005602090815260408083209388168352929052208054849081106132db57634e487b7160e01b600052603260045260246000fd5b60009182526020808320909101546001600160a01b038089168452600583526040808520918916855292529120805462ffffff909216918590811061333057634e487b7160e01b600052603260045260246000fd5b6000918252602090912001549096630100000090910462ffffff1695509350505050565b600080613362858585612519565b905060006133728686600061176f565b9050620f4240613382828261474d565b6124c39062ffffff16846147ac565b60008061339f858585612395565b905060006133af8686600061176f565b9050620f424061338282826147cb565b600054610100900460ff166133da5760005460ff16156133de565b303b155b6133fa5760405162461bcd60e51b8152600401610595906145a5565b600054610100900460ff1615801561341c576000805461ffff19166101011790555b6134268585612742565b600380546001600160a01b038086166001600160a01b03199283161790925560048054928516929091169190911790558015613468576000805461ff00191690555b5050505050565b6002818154811061347f57600080fd5b6000918252602090912001546001600160a01b0316905081565b8015806135215750604051636eb1769f60e11b81526001600160a01b0384169063dd62ed3e906134cf903090869060040161450f565b60206040518083038186803b1580156134e757600080fd5b505afa1580156134fb573d6000803e3d6000fd5b505050506040513d601f19601f8201168201806040525081019061351f919061440f565b155b61358c5760405162461bcd60e51b815260206004820152603660248201527f5361666545524332303a20617070726f76652066726f6d206e6f6e2d7a65726f60448201527520746f206e6f6e2d7a65726f20616c6c6f77616e636560501b6064820152608401610595565b6128e38363095ea7b360e01b84846040516024016135ab929190614551565b60408051601f198184030181529190526020810180516001600160e01b03166001600160e01b031990931692909217909152613cbb565b6128e38363a9059cbb60e01b84846040516024016135ab929190614551565b6001600160a01b038086166000908152600760209081526040808320938816835292905290812054869060ff161561376f57600061363f8888611f34565b905060006040518060a001604052808360800151846020015185604001518660600151876000015160405160200161367b9594939291906144a4565b60408051601f198184030181529181529082526001600160a01b03808b1660208401524283830152606083018a9052608090920188905260048054915163c04b8d5960e01b815293945091169163c04b8d59916136da918591016146ba565b602060405180830381600087803b1580156136f457600080fd5b505af1925050508015613724575060408051601f3d908101601f191682019092526137219181019061440f565b60015b613761576000935061375c87846001600160a01b03166370a08231306040518263ffffffff1660e01b8152600401611a8391906144fb565b613767565b50600193505b5050506120fb565b60008061377c8989612361565b6001600160a01b0380831660009081526005602090815260408083209385168352929052205491935091506138125760405162461bcd60e51b815260206004820152603660248201527f556e69737761705472616465723a3a737761704578616374496e7075743a20506044820152751bdbdb081a185cc81b9bdd081899595b88185919195960521b6064820152608401610595565b6040516370a0823160e01b815286906001600160a01b038516906370a08231906138409030906004016144fb565b60206040518083038186803b15801561385857600080fd5b505afa15801561386c573d6000803e3d6000fd5b505050506040513d601f19601f82011682018060405250810190613890919061440f565b1015613906576040805162461bcd60e51b81526020600482015260248101919091527f556e69737761705472616465723a3a737761704578616374496e7075743a204260448201527f616c616e6365206973206c657373207468616e20747261646520616d6f756e746064820152608401610595565b60006139138a8a89613391565b60408051610100810182526000818301819052606082018190526080820181905260a0820181905260c0820181905260e082018190526001600160a01b038e811683528d81166020808501919091528882168352600581528483209188168352529182208054939450909290919061399b57634e487b7160e01b600052603260045260246000fd5b600091825260208220015462ffffff166040808401919091526001600160a01b03808c16606085015242608085015260a084018b905260c0840185905260e084019290925260048054915163414bf38960e01b8152919092169163414bf38991613a07918591016146cd565b602060405180830381600087803b158015613a2157600080fd5b505af1925050508015613a51575060408051601f3d908101601f19168201909252613a4e9181019061440f565b60015b613a8e5760009550613a8989866001600160a01b03166370a08231306040518263ffffffff1660e01b8152600401611e2691906144fb565b613a94565b50600195505b505050505095945050505050565b600080806000198587098587029250828110838203039150508060001415613adc5760008411613ad157600080fd5b5082900490506117e7565b808411613ae857600080fd5b600084868809808403938111909203919050600085613b09816000196147ef565b613b14906001614774565b16958690049593849004936000819003046001019050613b3481846147ac565b909317926000613b458760036147ac565b6002189050613b5481886147ac565b613b5f9060026147ef565b613b6990826147ac565b9050613b7581886147ac565b613b809060026147ef565b613b8a90826147ac565b9050613b9681886147ac565b613ba19060026147ef565b613bab90826147ac565b9050613bb781886147ac565b613bc29060026147ef565b613bcc90826147ac565b9050613bd881886147ac565b613be39060026147ef565b613bed90826147ac565b9050613bf981886147ac565b613c049060026147ef565b613c0e90826147ac565b9050613c1a81866147ac565b9998505050505050505050565b600054610100900460ff16613c425760005460ff1615613c46565b303b155b613c625760405162461bcd60e51b8152600401610595906145a5565b600054610100900460ff16158015613c84576000805461ffff19166101011790555b6000805462010000600160b01b031916620100006001600160a01b038516021790558015612c17576000805461ff00191690555050565b6000613d10826040518060400160405280602081526020017f5361666545524332303a206c6f772d6c6576656c2063616c6c206661696c6564815250856001600160a01b0316613d8d9092919063ffffffff16565b8051909150156128e35780806020019051810190613d2e9190614346565b6128e35760405162461bcd60e51b815260206004820152602a60248201527f5361666545524332303a204552433230206f7065726174696f6e20646964206e6044820152691bdd081cdd58d8d9595960b21b6064820152608401610595565b6060611e98848460008585843b613de65760405162461bcd60e51b815260206004820152601d60248201527f416464726573733a2063616c6c20746f206e6f6e2d636f6e74726163740000006044820152606401610595565b600080866001600160a01b03168587604051613e0291906144df565b60006040518083038185875af1925050503d8060008114613e3f576040519150601f19603f3d011682016040523d82523d6000602084013e613e44565b606091505b5091509150613e54828286613e5f565b979650505050505050565b60608315613e6e5750816117e7565b825115613e7e5782518084602001fd5b8160405162461bcd60e51b81526004016105959190614592565b828054828255906000526020600020908101928215613eed579160200282015b82811115613eed57825182546001600160a01b0319166001600160a01b03909116178255602090920191600190910190613eb8565b50613ef9929150613efd565b5090565b5b80821115613ef95760008155600101613efe565b8035613f1d8161487d565b919050565b600082601f830112613f32578081fd5b813560206001600160401b0380831115613f4e57613f4e614867565b8260051b604051601f19603f83011681018181108482111715613f7357613f73614867565b60405284815283810192508684018288018501891015613f91578687fd5b8692505b85831015613fba57613fa681613f12565b845292840192600192909201918401613f95565b50979650505050505050565b80518015158114613f1d57600080fd5b805161ffff81168114613f1d57600080fd5b803562ffffff81168114613f1d57600080fd5b60006020828403121561400c578081fd5b81356117e78161487d565b600060208284031215614028578081fd5b81516117e78161487d565b60008060408385031215614045578081fd5b82356140508161487d565b915060208301356140608161487d565b809150509250929050565b60008060008060808587031215614080578182fd5b843561408b8161487d565b9350602085013561409b8161487d565b925060408501356140ab8161487d565b9396929550929360600135925050565b600080600080600060a086880312156140d2578081fd5b85356140dd8161487d565b945060208601356140ed8161487d565b935060408601356140fd8161487d565b94979396509394606081013594506080013592915050565b6000806000806080858703121561412a578384fd5b84356141358161487d565b935060208501356141458161487d565b925061415360408601613fe8565b915061416160608601613fe8565b905092959194509250565b600080600060608486031215614180578283fd5b833561418b8161487d565b9250602084013561419b8161487d565b929592945050506040919091013590565b600080600080600060a086880312156141c3578081fd5b85356141ce8161487d565b945060208601356141de8161487d565b93506040860135925060608601356141f58161487d565b949793965091946080013592915050565b6000806000806080858703121561421b578384fd5b84356142268161487d565b935060208501356142368161487d565b92506040850135915061416160608601613fe8565b60008060008060808587031215614260578182fd5b843561426b8161487d565b9350602085013561427b8161487d565b93969395505050506040820135916060013590565b600080604083850312156142a2578182fd5b82356001600160401b038111156142b7578283fd5b6142c385828601613f22565b92505060208301356140608161487d565b600080600080608085870312156142e9578182fd5b84356001600160401b038111156142fe578283fd5b61430a87828801613f22565b945050602085013561431b8161487d565b9250604085013561432b8161487d565b9150606085013561433b8161487d565b939692955090935050565b600060208284031215614357578081fd5b6117e782613fc6565b600080600080600080600060e0888a03121561437a578485fd5b87516143858161487d565b8097505060208801518060020b811461439c578586fd5b95506143aa60408901613fd6565b94506143b860608901613fd6565b93506143c660808901613fd6565b925060a088015160ff811681146143db578283fd5b91506143e960c08901613fc6565b905092959891949750929550565b600060208284031215614408578081fd5b5035919050565b600060208284031215614420578081fd5b5051919050565b6000815180845261443f816020860160208601614806565b601f01601f19169290920160200192915050565b6000815160a0845261446860a0850182614427565b6020848101516001600160a01b031690860152604080850151908601526060808501519086015260809384015193909401929092525090919050565b6001600160601b0319606096871b81168252601482019590955292851b84166034840152604883019190915290921b166068820152607c0190565b600082516144f1818460208701614806565b9190910192915050565b6001600160a01b0391909116815260200190565b6001600160a01b0392831681529116602082015260400190565b6001600160a01b03938416815291909216602082015262ffffff909116604082015260600190565b6001600160a01b03929092168252602082015260400190565b60208101600c831061458c57634e487b7160e01b600052602160045260246000fd5b91905290565b6020815260006117e76020830184614427565b6020808252602e908201527f496e697469616c697a61626c653a20636f6e747261637420697320616c72656160408201526d191e481a5b9a5d1a585b1a5e995960921b606082015260800190565b6020808252600b908201526a626164206164647265737360a81b604082015260600190565b6020808252602e908201527f436f6e74726f6c6c65643a3a6f6e6c794d616e616765723a2043616c6c65722060408201526d34b9903737ba1036b0b730b3b2b960911b606082015260800190565b60208082526034908201527f436f6e74726f6c6c65643a3a6f6e6c79436f6e74726f6c6c65723a2043616c6c60408201527332b91034b9903737ba1031b7b73a3937b63632b960611b606082015260800190565b6020815260006117e76020830184614453565b6101008101611880828480516001600160a01b03908116835260208083015182169084015260408083015162ffffff16908401526060808301518216908401526080808301519084015260a0828101519084015260c0808301519084015260e09182015116910152565b62ffffff92831681529116602082015260400190565b600062ffffff80831681851680830382111561476b5761476b614851565b01949350505050565b6000821982111561478757614787614851565b500190565b6000826147a757634e487b7160e01b81526012600452602481fd5b500490565b60008160001904831182151516156147c6576147c6614851565b500290565b600062ffffff838116908316818110156147e7576147e7614851565b039392505050565b60008282101561480157614801614851565b500390565b60005b83811015614821578181015183820152602001614809565b83811115614830576000848401525b50505050565b600060001982141561484a5761484a614851565b5060010190565b634e487b7160e01b600052601160045260246000fd5b634e487b7160e01b600052604160045260246000fd5b6001600160a01b038116811461489257600080fd5b5056fe556e69737761705472616465723a757064617465506f6f6c536c6970706167654e756d657261746f723a20536c697070616765206e756d657261746f72206d75556e69737761705472616465723a3a7377617045786163744f75747075743a20556e69737761705472616465723a3a757064617465506169725072696d6172796173206e6f74206265656e20616464656420696e2074686520496e7465677261a2646970667358221220f4549e5f07a2d8a31c080333c9649b312dfdd6bca7cb03482f37ec14f69eb30664736f6c63430008040033",
  "devdoc": {
    "kind": "dev",
    "methods": {
      "addPool(address,address,uint24,uint24)": {
        "params": {
          "feeNumerator": "The Uniswap pool fee numerator",
          "slippageNumerator": "The value divided by the slippage denominator to calculate the allowable slippage positions is enabled for this pool",
          "tokenA": "The address of tokenA ERC20 contract",
          "tokenB": "The address of tokenB ERC20 contract"
        }
      },
      "getAmountInMaximum(address,address,uint256)": {
        "params": {
          "amountOut": "The exact amount of token being swapped for",
          "tokenIn": "The address of the input token",
          "tokenOut": "The address of the output token"
        },
        "returns": {
          "amountInMaximum": "The maximum amount of tokenIn to spend, factoring in allowable slippage"
        }
      },
      "getAmountOut(address,address,uint256)": {
        "params": {
          "_amountIn": "The exact amount of the input to swap",
          "_tokenIn": "The address of the input token",
          "_tokenOut": "The address of the output token"
        },
        "returns": {
          "_0": "uint256 The estimated amount of tokenOut to receive"
        }
      },
      "getAmountOutMinimum(address,address,uint256)": {
        "params": {
          "amountIn": "The exact amount of the input to swap",
          "tokenIn": "The address of the input token",
          "tokenOut": "The address of the output token"
        },
        "returns": {
          "amountOutMinimum": "The minimum amount of tokenOut to receive, factoring in allowable slippage"
        }
      },
      "getEstimatedTokenIn(address,address,uint256)": {
        "params": {
          "amountOut": "The exact amount of the output token to swap for",
          "tokenIn": "The address of the input token",
          "tokenOut": "The address of the output token"
        },
        "returns": {
          "amountIn": "The estimated amount of tokenIn to spend"
        }
      },
      "getEstimatedTokenOut(address,address,uint256)": {
        "params": {
          "amountIn": "The exact amount of the input to swap",
          "tokenIn": "The address of the input token",
          "tokenOut": "The address of the output token"
        },
        "returns": {
          "amountOut": "The estimated amount of tokenOut to receive"
        }
      },
      "getFeeDenominator()": {
        "returns": {
          "_0": "The denominator used to calculate the pool fee percentage"
        }
      },
      "getPool(address,address,uint256)": {
        "params": {
          "poolIndex": "The index of the pool",
          "token0": "The address of token0 of the pool",
          "token1": "The address of token1 of the pool"
        },
        "returns": {
          "_0": "The pool fee numerator",
          "_1": "The pool slippage numerator"
        }
      },
      "getPoolAddress(address,address)": {
        "params": {
          "tokenA": "The address of tokenA ERC20 contract",
          "tokenB": "The address of tokenB ERC20 contract"
        },
        "returns": {
          "pool": "The pool address"
        }
      },
      "getPoolFeeNumerator(address,address,uint256)": {
        "params": {
          "poolId": "The index of the pool in the pools mapping",
          "tokenA": "The address of tokenA",
          "tokenB": "The address of tokenB"
        },
        "returns": {
          "feeNumerator": "The numerator that gets divided by the fee denominator"
        }
      },
      "getPoolSlippageNumerator(address,address,uint256)": {
        "params": {
          "poolId": "The index of the pool in the pools mapping",
          "tokenA": "The address of tokenA",
          "tokenB": "The address of tokenB"
        },
        "returns": {
          "slippageNumerator": "The numerator that gets divided by the slippage denominator"
        }
      },
      "getSlippageDenominator()": {
        "returns": {
          "_0": "The denominator used to calculate the allowable slippage percentage"
        }
      },
      "getSqrtPriceX96(address,address)": {
        "returns": {
          "_0": "sqrtPriceX96 The current price of the pool as a sqrt(token1/token0) Q64.96 value"
        }
      },
      "getTokenPair(uint256)": {
        "params": {
          "tokenPairIndex": "The index of the token pair"
        },
        "returns": {
          "_0": "The address of token0",
          "_1": "The address of token1"
        }
      },
      "getTokenPairPoolsLength(address,address)": {
        "params": {
          "tokenA": "The address of tokenA",
          "tokenB": "The address of tokenB"
        },
        "returns": {
          "_0": "The quantity of pools configured for the specified token pair"
        }
      },
      "getTokenPairsLength()": {
        "returns": {
          "_0": "The number of token pairs configured"
        }
      },
      "getTokensAndAmountsSorted(address,address,uint256,uint256)": {
        "params": {
          "amountA": "The amount of tokenA",
          "amountB": "The amount of tokenB",
          "tokenA": "The address of tokenA",
          "tokenB": "The address of tokenB"
        },
        "returns": {
          "amount0": "The amount of sorted token0",
          "amount1": "The amount of sorted token1",
          "token0": "The address of sorted token0",
          "token1": "The address of sorted token1"
        }
      },
      "getTokensSorted(address,address)": {
        "params": {
          "tokenA": "The address of tokenA",
          "tokenB": "The address of tokenB"
        },
        "returns": {
          "token0": "The address of the sorted token0",
          "token1": "The address of the sorted token1"
        }
      },
      "initialize(address[],address,address,address)": {
        "params": {
          "controllers_": "The addresses of the controlling contracts",
          "factoryAddress_": "The address of the Uniswap factory contract",
          "moduleMap_": "Module Map address",
          "swapRouterAddress_": "The address of the Uniswap swap router contract"
        }
      },
      "isPoolExist(address,address)": {
        "params": {
          "_tokenA": "The address of the first  token from the token pair",
          "_tokenB": "The address of the second token from the token pair return true if pool exist else overwise"
        }
      },
      "swapExactInput(address,address,address,uint256)": {
        "params": {
          "amountIn": "The exact amount of the input to swap",
          "recipient": "The address to receive the tokens",
          "tokenIn": "The address of the input token",
          "tokenOut": "The address of the output token"
        },
        "returns": {
          "tradeSuccess": "Indicates whether the trade succeeded"
        }
      },
      "swapExactInput(address,address,address,uint256,uint256)": {
        "params": {
          "amountIn": "The exact amount of the input to swap",
          "amountOutMin": "The minimum amount of tokenOut to receive from the swap",
          "recipient": "The address of the token out recipient",
          "tokenIn": "The address of the input token",
          "tokenOut": "The address of the output token"
        },
        "returns": {
          "tradeSuccess": "Indicates whether the swap succeeded"
        }
      },
      "swapExactOutput(address,address,address,uint256)": {
        "params": {
          "amountOut": "The exact amount of the output token to receive",
          "recipient": "The address to receive the tokens",
          "tokenIn": "The address of the input token",
          "tokenOut": "The address of the output token"
        },
        "returns": {
          "tradeSuccess": "Indicates whether the trade succeeded"
        }
      },
      "updatePairPrimaryPool(address,address,uint256)": {
        "params": {
          "primaryPoolIndex": "The index of the Uniswap pool to make the new primary pool",
          "tokenA": "The address of tokenA of the pool",
          "tokenB": "The address of tokenB of the pool"
        }
      },
      "updatePoolSlippageNumerator(address,address,uint256,uint24)": {
        "params": {
          "poolIndex": "The index of the pool for the specified token pair",
          "slippageNumerator": "The new slippage numerator to update the pool",
          "tokenA": "The address of tokenA of the pool",
          "tokenB": "The address of tokenB of the pool"
        }
      }
    },
    "version": 1
  },
  "userdoc": {
    "kind": "user",
    "methods": {
      "updatePairPrimaryPool(address,address,uint256)": {
        "notice": "Updates which Uniswap pool to use as the default poolwhen swapping between token0 and token1"
      }
    },
    "notice": "Integrates 0x Nodes to Uniswap v3tokenA/tokenB naming implies tokens are unsortedtoken0/token1 naming implies tokens are sorted",
    "version": 1
  },
  "storageLayout": {
    "storage": [
      {
        "astId": 723,
        "contract": "contracts/core/UniswapTrader.sol:UniswapTrader",
        "label": "_initialized",
        "offset": 0,
        "slot": "0",
        "type": "t_bool"
      },
      {
        "astId": 726,
        "contract": "contracts/core/UniswapTrader.sol:UniswapTrader",
        "label": "_initializing",
        "offset": 1,
        "slot": "0",
        "type": "t_bool"
      },
      {
        "astId": 10143,
        "contract": "contracts/core/UniswapTrader.sol:UniswapTrader",
        "label": "moduleMap",
        "offset": 2,
        "slot": "0",
        "type": "t_contract(IModuleMap)20736"
      },
      {
        "astId": 4667,
        "contract": "contracts/core/UniswapTrader.sol:UniswapTrader",
        "label": "_controllers",
        "offset": 0,
        "slot": "1",
        "type": "t_mapping(t_address,t_bool)"
      },
      {
        "astId": 4670,
        "contract": "contracts/core/UniswapTrader.sol:UniswapTrader",
        "label": "controllers",
        "offset": 0,
        "slot": "2",
        "type": "t_array(t_address)dyn_storage"
      },
      {
        "astId": 13383,
        "contract": "contracts/core/UniswapTrader.sol:UniswapTrader",
        "label": "factoryAddress",
        "offset": 0,
        "slot": "3",
        "type": "t_address"
      },
      {
        "astId": 13385,
        "contract": "contracts/core/UniswapTrader.sol:UniswapTrader",
        "label": "swapRouterAddress",
        "offset": 0,
        "slot": "4",
        "type": "t_address"
      },
      {
        "astId": 13393,
        "contract": "contracts/core/UniswapTrader.sol:UniswapTrader",
        "label": "pools",
        "offset": 0,
        "slot": "5",
        "type": "t_mapping(t_address,t_mapping(t_address,t_array(t_struct(Pool)13370_storage)dyn_storage))"
      },
      {
        "astId": 13400,
        "contract": "contracts/core/UniswapTrader.sol:UniswapTrader",
        "label": "paths",
        "offset": 0,
        "slot": "6",
        "type": "t_mapping(t_address,t_mapping(t_address,t_struct(Path)22333_storage))"
      },
      {
        "astId": 13406,
        "contract": "contracts/core/UniswapTrader.sol:UniswapTrader",
        "label": "isMultihopPair",
        "offset": 0,
        "slot": "7",
        "type": "t_mapping(t_address,t_mapping(t_address,t_bool))"
      },
      {
        "astId": 13410,
        "contract": "contracts/core/UniswapTrader.sol:UniswapTrader",
        "label": "tokenPairs",
        "offset": 0,
        "slot": "8",
        "type": "t_array(t_struct(TokenPair)13375_storage)dyn_storage"
      }
    ],
    "types": {
      "t_address": {
        "encoding": "inplace",
        "label": "address",
        "numberOfBytes": "20"
      },
      "t_array(t_address)dyn_storage": {
        "base": "t_address",
        "encoding": "dynamic_array",
        "label": "address[]",
        "numberOfBytes": "32"
      },
      "t_array(t_struct(Pool)13370_storage)dyn_storage": {
        "base": "t_struct(Pool)13370_storage",
        "encoding": "dynamic_array",
        "label": "struct UniswapTrader.Pool[]",
        "numberOfBytes": "32"
      },
      "t_array(t_struct(TokenPair)13375_storage)dyn_storage": {
        "base": "t_struct(TokenPair)13375_storage",
        "encoding": "dynamic_array",
        "label": "struct UniswapTrader.TokenPair[]",
        "numberOfBytes": "32"
      },
      "t_bool": {
        "encoding": "inplace",
        "label": "bool",
        "numberOfBytes": "1"
      },
      "t_contract(IModuleMap)20736": {
        "encoding": "inplace",
        "label": "contract IModuleMap",
        "numberOfBytes": "20"
      },
      "t_mapping(t_address,t_array(t_struct(Pool)13370_storage)dyn_storage)": {
        "encoding": "mapping",
        "key": "t_address",
        "label": "mapping(address => struct UniswapTrader.Pool[])",
        "numberOfBytes": "32",
        "value": "t_array(t_struct(Pool)13370_storage)dyn_storage"
      },
      "t_mapping(t_address,t_bool)": {
        "encoding": "mapping",
        "key": "t_address",
        "label": "mapping(address => bool)",
        "numberOfBytes": "32",
        "value": "t_bool"
      },
      "t_mapping(t_address,t_mapping(t_address,t_array(t_struct(Pool)13370_storage)dyn_storage))": {
        "encoding": "mapping",
        "key": "t_address",
        "label": "mapping(address => mapping(address => struct UniswapTrader.Pool[]))",
        "numberOfBytes": "32",
        "value": "t_mapping(t_address,t_array(t_struct(Pool)13370_storage)dyn_storage)"
      },
      "t_mapping(t_address,t_mapping(t_address,t_bool))": {
        "encoding": "mapping",
        "key": "t_address",
        "label": "mapping(address => mapping(address => bool))",
        "numberOfBytes": "32",
        "value": "t_mapping(t_address,t_bool)"
      },
      "t_mapping(t_address,t_mapping(t_address,t_struct(Path)22333_storage))": {
        "encoding": "mapping",
        "key": "t_address",
        "label": "mapping(address => mapping(address => struct IUniswapTrader.Path))",
        "numberOfBytes": "32",
        "value": "t_mapping(t_address,t_struct(Path)22333_storage)"
      },
      "t_mapping(t_address,t_struct(Path)22333_storage)": {
        "encoding": "mapping",
        "key": "t_address",
        "label": "mapping(address => struct IUniswapTrader.Path)",
        "numberOfBytes": "32",
        "value": "t_struct(Path)22333_storage"
      },
      "t_struct(Path)22333_storage": {
        "encoding": "inplace",
        "label": "struct IUniswapTrader.Path",
        "members": [
          {
            "astId": 22324,
            "contract": "contracts/core/UniswapTrader.sol:UniswapTrader",
            "label": "tokenOut",
            "offset": 0,
            "slot": "0",
            "type": "t_address"
          },
          {
            "astId": 22326,
            "contract": "contracts/core/UniswapTrader.sol:UniswapTrader",
            "label": "firstPoolFee",
            "offset": 0,
            "slot": "1",
            "type": "t_uint256"
          },
          {
            "astId": 22328,
            "contract": "contracts/core/UniswapTrader.sol:UniswapTrader",
            "label": "tokenInTokenOut",
            "offset": 0,
            "slot": "2",
            "type": "t_address"
          },
          {
            "astId": 22330,
            "contract": "contracts/core/UniswapTrader.sol:UniswapTrader",
            "label": "secondPoolFee",
            "offset": 0,
            "slot": "3",
            "type": "t_uint256"
          },
          {
            "astId": 22332,
            "contract": "contracts/core/UniswapTrader.sol:UniswapTrader",
            "label": "tokenIn",
            "offset": 0,
            "slot": "4",
            "type": "t_address"
          }
        ],
        "numberOfBytes": "160"
      },
      "t_struct(Pool)13370_storage": {
        "encoding": "inplace",
        "label": "struct UniswapTrader.Pool",
        "members": [
          {
            "astId": 13367,
            "contract": "contracts/core/UniswapTrader.sol:UniswapTrader",
            "label": "feeNumerator",
            "offset": 0,
            "slot": "0",
            "type": "t_uint24"
          },
          {
            "astId": 13369,
            "contract": "contracts/core/UniswapTrader.sol:UniswapTrader",
            "label": "slippageNumerator",
            "offset": 3,
            "slot": "0",
            "type": "t_uint24"
          }
        ],
        "numberOfBytes": "32"
      },
      "t_struct(TokenPair)13375_storage": {
        "encoding": "inplace",
        "label": "struct UniswapTrader.TokenPair",
        "members": [
          {
            "astId": 13372,
            "contract": "contracts/core/UniswapTrader.sol:UniswapTrader",
            "label": "token0",
            "offset": 0,
            "slot": "0",
            "type": "t_address"
          },
          {
            "astId": 13374,
            "contract": "contracts/core/UniswapTrader.sol:UniswapTrader",
            "label": "token1",
            "offset": 0,
            "slot": "1",
            "type": "t_address"
          }
        ],
        "numberOfBytes": "64"
      },
      "t_uint24": {
        "encoding": "inplace",
        "label": "uint24",
        "numberOfBytes": "3"
      },
      "t_uint256": {
        "encoding": "inplace",
        "label": "uint256",
        "numberOfBytes": "32"
      }
    }
  }
}