{
  "address": "0xaCE05A48fB7346892e4F0CAD488b09D02D454544",
  "abi": [
    {
      "anonymous": false,
      "inputs": [
        {
          "indexed": true,
          "internalType": "address",
          "name": "user",
          "type": "address"
        },
        {
          "indexed": false,
          "internalType": "address[]",
          "name": "tokens",
          "type": "address[]"
        },
        {
          "indexed": false,
          "internalType": "uint256[]",
          "name": "tokenAmounts",
          "type": "uint256[]"
        },
        {
          "indexed": false,
          "internalType": "uint256",
          "name": "ethAmount",
          "type": "uint256"
        }
      ],
      "name": "Deposit",
      "type": "event"
    },
    {
      "anonymous": false,
      "inputs": [
        {
          "indexed": true,
          "internalType": "uint256",
          "name": "id",
          "type": "uint256"
        },
        {
          "indexed": true,
          "internalType": "address",
          "name": "user",
          "type": "address"
        },
        {
          "components": [
            {
              "internalType": "address",
              "name": "token",
              "type": "address"
            },
            {
              "internalType": "uint256",
              "name": "amount",
              "type": "uint256"
            }
          ],
          "indexed": false,
          "internalType": "struct IUserPositions.TokenMovement[]",
          "name": "tokens",
          "type": "tuple[]"
        }
      ],
      "name": "EnterStrategy",
      "type": "event"
    },
    {
      "anonymous": false,
      "inputs": [
        {
          "indexed": true,
          "internalType": "uint256",
          "name": "id",
          "type": "uint256"
        },
        {
          "indexed": true,
          "internalType": "address",
          "name": "user",
          "type": "address"
        },
        {
          "components": [
            {
              "internalType": "address",
              "name": "token",
              "type": "address"
            },
            {
              "internalType": "uint256",
              "name": "amount",
              "type": "uint256"
            }
          ],
          "indexed": false,
          "internalType": "struct IUserPositions.TokenMovement[]",
          "name": "tokens",
          "type": "tuple[]"
        }
      ],
      "name": "ExitStrategy",
      "type": "event"
    },
    {
      "inputs": [
        {
          "internalType": "address[]",
          "name": "controllers_",
          "type": "address[]"
        },
        {
          "internalType": "address",
          "name": "moduleMap_",
          "type": "address"
        }
      ],
      "name": "__Controlled_init",
      "outputs": [],
      "stateMutability": "nonpayable",
      "type": "function"
    },
    {
      "inputs": [
        {
          "internalType": "uint256",
          "name": "strategyID",
          "type": "uint256"
        },
        {
          "internalType": "address",
          "name": "user",
          "type": "address"
        },
        {
          "components": [
            {
              "internalType": "address",
              "name": "token",
              "type": "address"
            },
            {
              "internalType": "uint256",
              "name": "amount",
              "type": "uint256"
            }
          ],
          "internalType": "struct IUserPositions.TokenMovement[]",
          "name": "tokens",
          "type": "tuple[]"
        },
        {
          "internalType": "bool",
          "name": "enterStrat",
          "type": "bool"
        }
      ],
      "name": "_remoteStrategyExecution",
      "outputs": [],
      "stateMutability": "nonpayable",
      "type": "function"
    },
    {
      "inputs": [
        {
          "internalType": "address",
          "name": "controller",
          "type": "address"
        }
      ],
      "name": "addController",
      "outputs": [],
      "stateMutability": "nonpayable",
      "type": "function"
    },
    {
      "inputs": [
        {
          "internalType": "address",
          "name": "recipient",
          "type": "address"
        },
        {
          "internalType": "uint256[]",
          "name": "strategies",
          "type": "uint256[]"
        }
      ],
      "name": "claimEthRewards",
      "outputs": [
        {
          "internalType": "uint256",
          "name": "ethClaimed",
          "type": "uint256"
        }
      ],
      "stateMutability": "nonpayable",
      "type": "function"
    },
    {
      "inputs": [
        {
          "internalType": "uint256",
          "name": "",
          "type": "uint256"
        }
      ],
      "name": "controllers",
      "outputs": [
        {
          "internalType": "address",
          "name": "",
          "type": "address"
        }
      ],
      "stateMutability": "view",
      "type": "function"
    },
    {
      "inputs": [
        {
          "internalType": "address",
          "name": "depositor",
          "type": "address"
        },
        {
          "internalType": "address[]",
          "name": "tokens",
          "type": "address[]"
        },
        {
          "internalType": "uint256[]",
          "name": "amounts",
          "type": "uint256[]"
        },
        {
          "internalType": "uint256",
          "name": "ethAmount",
          "type": "uint256"
        },
        {
          "internalType": "bool",
          "name": "migration",
          "type": "bool"
        }
      ],
      "name": "deposit",
      "outputs": [],
      "stateMutability": "nonpayable",
      "type": "function"
    },
    {
      "inputs": [
        {
          "internalType": "uint256",
          "name": "strategyID",
          "type": "uint256"
        },
        {
          "components": [
            {
              "internalType": "address",
              "name": "token",
              "type": "address"
            },
            {
              "internalType": "uint256",
              "name": "amount",
              "type": "uint256"
            }
          ],
          "internalType": "struct IUserPositions.TokenMovement[]",
          "name": "tokens",
          "type": "tuple[]"
        }
      ],
      "name": "enterStrategy",
      "outputs": [],
      "stateMutability": "nonpayable",
      "type": "function"
    },
    {
      "inputs": [
        {
          "internalType": "uint256",
          "name": "strategyID",
          "type": "uint256"
        },
        {
          "components": [
            {
              "internalType": "address",
              "name": "token",
              "type": "address"
            },
            {
              "internalType": "uint256",
              "name": "amount",
              "type": "uint256"
            }
          ],
          "internalType": "struct IUserPositions.TokenMovement[]",
          "name": "tokens",
          "type": "tuple[]"
        }
      ],
      "name": "exitStrategy",
      "outputs": [],
      "stateMutability": "nonpayable",
      "type": "function"
    },
    {
      "inputs": [
        {
          "internalType": "address",
          "name": "user",
          "type": "address"
        },
        {
          "internalType": "uint256[]",
          "name": "_strategies",
          "type": "uint256[]"
        },
        {
          "internalType": "address[]",
          "name": "_tokens",
          "type": "address[]"
        }
      ],
      "name": "getUserBalances",
      "outputs": [
        {
          "components": [
            {
              "internalType": "uint256",
              "name": "strategyID",
              "type": "uint256"
            },
            {
              "components": [
                {
                  "internalType": "address",
                  "name": "token",
                  "type": "address"
                },
                {
                  "internalType": "uint256",
                  "name": "balance",
                  "type": "uint256"
                }
              ],
              "internalType": "struct IStrategyMap.GeneralBalance[]",
              "name": "tokens",
              "type": "tuple[]"
            }
          ],
          "internalType": "struct IStrategyMap.StrategyBalance[]",
          "name": "strategyBalance",
          "type": "tuple[]"
        },
        {
          "components": [
            {
              "internalType": "address",
              "name": "token",
              "type": "address"
            },
            {
              "internalType": "uint256",
              "name": "balance",
              "type": "uint256"
            }
          ],
          "internalType": "struct IStrategyMap.GeneralBalance[]",
          "name": "userBalance",
          "type": "tuple[]"
        }
      ],
      "stateMutability": "view",
      "type": "function"
    },
    {
      "inputs": [
        {
          "internalType": "address",
          "name": "token",
          "type": "address"
        },
        {
          "internalType": "address",
          "name": "user",
          "type": "address"
        }
      ],
      "name": "getUserInvestedAmountByToken",
      "outputs": [
        {
          "internalType": "uint256",
          "name": "amount",
          "type": "uint256"
        }
      ],
      "stateMutability": "view",
      "type": "function"
    },
    {
      "inputs": [
        {
          "internalType": "uint256",
          "name": "id",
          "type": "uint256"
        },
        {
          "internalType": "address",
          "name": "token",
          "type": "address"
        },
        {
          "internalType": "address",
          "name": "user",
          "type": "address"
        }
      ],
      "name": "getUserStrategyBalanceByToken",
      "outputs": [
        {
          "internalType": "uint256",
          "name": "amount",
          "type": "uint256"
        }
      ],
      "stateMutability": "view",
      "type": "function"
    },
    {
      "inputs": [
        {
          "internalType": "address[]",
          "name": "controllers_",
          "type": "address[]"
        },
        {
          "internalType": "address",
          "name": "moduleMap_",
          "type": "address"
        }
      ],
      "name": "initialize",
      "outputs": [],
      "stateMutability": "nonpayable",
      "type": "function"
    },
    {
      "inputs": [
        {
          "internalType": "uint256",
          "name": "strategyId",
          "type": "uint256"
        },
        {
          "components": [
            {
              "internalType": "address",
              "name": "user",
              "type": "address"
            },
            {
              "components": [
                {
                  "internalType": "address",
                  "name": "token",
                  "type": "address"
                },
                {
                  "internalType": "uint256",
                  "name": "amount",
                  "type": "uint256"
                }
              ],
              "internalType": "struct IUserPositions.TokenMovement[]",
              "name": "tokens",
              "type": "tuple[]"
            }
          ],
          "internalType": "struct IUserPositions.MigrateStrategy[]",
          "name": "users",
          "type": "tuple[]"
        }
      ],
      "name": "migrateUser",
      "outputs": [],
      "stateMutability": "nonpayable",
      "type": "function"
    },
    {
      "inputs": [],
      "name": "moduleMap",
      "outputs": [
        {
          "internalType": "contract IModuleMap",
          "name": "",
          "type": "address"
        }
      ],
      "stateMutability": "view",
      "type": "function"
    },
    {
      "inputs": [
        {
          "internalType": "address",
          "name": "asset",
          "type": "address"
        }
      ],
      "name": "totalTokenBalance",
      "outputs": [
        {
          "internalType": "uint256",
          "name": "",
          "type": "uint256"
        }
      ],
      "stateMutability": "view",
      "type": "function"
    },
    {
      "inputs": [
        {
          "internalType": "address[]",
          "name": "assets",
          "type": "address[]"
        },
        {
          "internalType": "address",
          "name": "account",
          "type": "address"
        },
        {
          "internalType": "uint256[]",
          "name": "amounts",
          "type": "uint256[]"
        },
        {
          "internalType": "bool[]",
          "name": "add",
          "type": "bool[]"
        }
      ],
      "name": "updateUserInterconnectBalances",
      "outputs": [],
      "stateMutability": "nonpayable",
      "type": "function"
    },
    {
      "inputs": [
        {
          "internalType": "address[]",
          "name": "assets",
          "type": "address[]"
        },
        {
          "internalType": "address",
          "name": "account",
          "type": "address"
        },
        {
          "internalType": "uint256[]",
          "name": "amounts",
          "type": "uint256[]"
        },
        {
          "internalType": "bool[]",
          "name": "add",
          "type": "bool[]"
        }
      ],
      "name": "updateUserTokenBalances",
      "outputs": [],
      "stateMutability": "nonpayable",
      "type": "function"
    },
    {
      "inputs": [
        {
          "internalType": "address",
          "name": "asset",
          "type": "address"
        },
        {
          "internalType": "address",
          "name": "account",
          "type": "address"
        }
      ],
      "name": "userDeployableBalance",
      "outputs": [
        {
          "internalType": "uint256",
          "name": "",
          "type": "uint256"
        }
      ],
      "stateMutability": "view",
      "type": "function"
    },
    {
      "inputs": [
        {
          "internalType": "address",
          "name": "asset",
          "type": "address"
        },
        {
          "internalType": "address",
          "name": "account",
          "type": "address"
        }
      ],
      "name": "userInterconnectBalance",
      "outputs": [
        {
          "internalType": "uint256",
          "name": "",
          "type": "uint256"
        }
      ],
      "stateMutability": "view",
      "type": "function"
    },
    {
      "inputs": [
        {
          "internalType": "address",
          "name": "asset",
          "type": "address"
        },
        {
          "internalType": "address",
          "name": "account",
          "type": "address"
        }
      ],
      "name": "userTokenBalance",
      "outputs": [
        {
          "internalType": "uint256",
          "name": "",
          "type": "uint256"
        }
      ],
      "stateMutability": "view",
      "type": "function"
    },
    {
      "inputs": [
        {
          "internalType": "address",
          "name": "recipient",
          "type": "address"
        },
        {
          "internalType": "address[]",
          "name": "tokens",
          "type": "address[]"
        },
        {
          "internalType": "uint256[]",
          "name": "amounts",
          "type": "uint256[]"
        },
        {
          "internalType": "bool",
          "name": "withdrawWethAsEth",
          "type": "bool"
        }
      ],
      "name": "withdraw",
      "outputs": [
        {
          "internalType": "uint256",
          "name": "ethWithdrawn",
          "type": "uint256"
        }
      ],
      "stateMutability": "nonpayable",
      "type": "function"
    },
    {
      "inputs": [
        {
          "internalType": "address",
          "name": "recipient",
          "type": "address"
        },
        {
          "internalType": "address[]",
          "name": "tokens",
          "type": "address[]"
        },
        {
          "internalType": "uint256[]",
          "name": "strategies",
          "type": "uint256[]"
        },
        {
          "internalType": "bool",
          "name": "withdrawWethAsEth",
          "type": "bool"
        }
      ],
      "name": "withdrawAllAndClaim",
      "outputs": [
        {
          "internalType": "uint256[]",
          "name": "tokenAmounts",
          "type": "uint256[]"
        },
        {
          "internalType": "uint256",
          "name": "ethWithdrawn",
          "type": "uint256"
        },
        {
          "internalType": "uint256",
          "name": "ethClaimed",
          "type": "uint256"
        },
        {
          "internalType": "uint256",
          "name": "biosClaimed",
          "type": "uint256"
        }
      ],
      "stateMutability": "nonpayable",
      "type": "function"
    }
  ],
  "transactionHash": "0xd6a75cc719052434bfbaca96484a9ac4ccb616f4f782c6c151114eb5bcd781ac",
  "args": [],
  "solcInputHash": "3431e4381f2519326a70e3e5c8d5090e",
  "bytecode": "0x608060405234801561001057600080fd5b5061571880620000216000396000f3fe608060405234801561001057600080fd5b50600436106101125760003560e01c80630f0a1c6f1461011757806316d805bd1461014657806341127a6714610167578063462d0b2e1461017a578063558c811e1461018f5780635702ea2a146101a25780636e10e5b7146101b5578063776f5a8d146101c85780638a22eee3146101db57806395be0546146101ee57806398c671ce14610211578063a7fc7a0714610224578063a810b37814610237578063b47064c814610258578063b81f44991461026b578063c3b2a7f41461027e578063d969f1b514610291578063df9b1af9146102a4578063e88d4d0e146102dd578063e94b0dd2146102f0578063f0f25dd514610303578063f546599214610316575b600080fd5b600054610130906201000090046001600160a01b031681565b60405161013d919061512d565b60405180910390f35b6101596101543660046149c9565b61033f565b60405190815260200161013d565b610159610175366004614f3d565b61036c565b61018d610188366004614d1b565b6103a2565b005b61015961019d366004614a92565b610429565b61018d6101b0366004614d5f565b610493565b61018d6101c3366004614fe1565b61089c565b61018d6101d6366004614b17565b610a9d565b61018d6101e9366004615011565b6115a8565b6102016101fc366004614a01565b6116a2565b60405161013d94939291906152b3565b61018d61021f366004614d1b565b611a4d565b61018d610232366004614991565b611bdc565b61024a610245366004614bfa565b611e19565b60405161013d929190615218565b6101596102663660046149c9565b612408565b61018d610279366004615011565b612492565b61015961028c366004614ba8565b61249e565b61018d61029f366004614f7e565b612506565b6101596102b23660046149c9565b6001600160a01b03918216600090815260086020908152604080832093909416825291909152205490565b6101596102eb3660046149c9565b612641565b6101306102fe366004614f0d565b6126f2565b61018d610311366004614c79565b61271c565b610159610324366004614991565b6001600160a01b031660009081526004602052604090205490565b6001600160a01b038082166000908152600660209081526040808320938616835292905220545b92915050565b6001600160a01b0380821660009081526007602090815260408083208784528252808320938616835292905220545b9392505050565b600054610100900460ff166103bd5760005460ff16156103c1565b303b155b6103e65760405162461bcd60e51b81526004016103dd906153ad565b60405180910390fd5b600054610100900460ff16158015610408576000805461ffff19166101011790555b6104128383611a4d565b8015610424576000805461ff00191690555b505050565b3360009081526001602052604081205460ff166104585760405162461bcd60e51b81526004016103dd90615473565b6001600160a01b03851661047e5760405162461bcd60e51b81526004016103dd906153fb565b61048a85858585612ae5565b95945050505050565b3360009081526001602052604090205460ff166104c25760405162461bcd60e51b81526004016103dd90615473565b6001600160a01b0383166104e85760405162461bcd60e51b81526004016103dd906153fb565b81518451146105605760405162461bcd60e51b815260206004820152604a60248201526000805160206156c383398151915260448201527f6e6e65637442616c616e6365733a20617272617973206d7573742062652065716064820152690eac2d840d8cadccee8d60b31b608482015260a4016103dd565b60005b84518110156108955760006008600087848151811061059257634e487b7160e01b600052603260045260246000fd5b60200260200101516001600160a01b03166001600160a01b031681526020019081526020016000206000866001600160a01b03166001600160a01b0316815260200190815260200160002054905083828151811061060057634e487b7160e01b600052603260045260246000fd5b6020026020010151600014156106a75760405162461bcd60e51b815260206004820152606c60248201526000805160206156c383398151915260448201527f6e6e65637442616c616e6365733a204d7573742068617665206120706f73697460648201527f697665206f72206e65676174697665206e756d62657220746f206368616e676560848201526b207468652062616c616e636560a01b60a482015260c4016103dd565b60008383815181106106c957634e487b7160e01b600052603260045260246000fd5b602002602001015115610710578483815181106106f657634e487b7160e01b600052603260045260246000fd5b60200260200101518261070991906155da565b905061080c565b8185848151811061073157634e487b7160e01b600052603260045260246000fd5b602002602001015111156107d65760405162461bcd60e51b815260206004820152606c60248201526000805160206156c383398151915260448201527f6e6e65637442616c616e6365733a20416d6f756e7420746f207265647563652060648201527f62616c616e6365206d757374206265206e6f206d6f7265207468616e2063757260848201526b72656e742062616c616e636560a01b60a482015260c4016103dd565b8483815181106107f657634e487b7160e01b600052603260045260246000fd5b60200260200101518261080991906155f2565b90505b806008600089868151811061083157634e487b7160e01b600052603260045260246000fd5b60200260200101516001600160a01b03166001600160a01b031681526020019081526020016000206000886001600160a01b03166001600160a01b03168152602001908152602001600020819055505050808061088d90615635565b915050610563565b5050505050565b3360009081526001602052604090205460ff166108cb5760405162461bcd60e51b81526004016103dd90615473565b600080546040516337c61fc560e11b8152620100009091046001600160a01b031690636f8c3f8a90610902906008906004016152e2565b60206040518083038186803b15801561091a57600080fd5b505afa15801561092e573d6000803e3d6000fd5b505050506040513d601f19601f8201168201806040525081019061095291906149ad565b905060005b82811015610895576109ea8585858481811061098357634e487b7160e01b600052603260045260246000fd5b90506020028101906109959190615528565b6109a3906020810190614991565b8686858181106109c357634e487b7160e01b600052603260045260246000fd5b90506020028101906109d59190615528565b6109e39060208101906154e1565b60016138c2565b816001600160a01b03166385039aa686868685818110610a1a57634e487b7160e01b600052603260045260246000fd5b9050602002810190610a2c9190615528565b610a3a9060208101906154e1565b6040518463ffffffff1660e01b8152600401610a58939291906154c7565b600060405180830381600087803b158015610a7257600080fd5b505af1158015610a86573d6000803e3d6000fd5b505050508080610a9590615635565b915050610957565b3360009081526001602052604090205460ff16610acc5760405162461bcd60e51b81526004016103dd90615473565b6001600160a01b038516610af25760405162461bcd60e51b81526004016103dd906153fb565b600080546040516337c61fc560e11b8152620100009091046001600160a01b031690636f8c3f8a90610b29906003906004016152e2565b60206040518083038186803b158015610b4157600080fd5b505afa158015610b55573d6000803e3d6000fd5b505050506040513d601f19601f82011682018060405250810190610b7991906149ad565b90506000816001600160a01b03166344fc9b566040518163ffffffff1660e01b815260040160206040518083038186803b158015610bb657600080fd5b505afa158015610bca573d6000803e3d6000fd5b505050506040513d601f19601f82011682018060405250810190610bee91906149ad565b9050600086516001600160401b03811115610c1957634e487b7160e01b600052604160045260246000fd5b604051908082528060200260200182016040528015610c42578160200160208202803683370190505b50905060005b875181101561138c57836001600160a01b03166358fcf37a898381518110610c8057634e487b7160e01b600052603260045260246000fd5b60200260200101516040518263ffffffff1660e01b8152600401610ca4919061512d565b60206040518083038186803b158015610cbc57600080fd5b505afa158015610cd0573d6000803e3d6000fd5b505050506040513d601f19601f82011682018060405250810190610cf49190614df7565b610d655760405162461bcd60e51b815260206004820152603c60248201527f55736572506f736974696f6e733a3a6465706f7369743a205468697320746f6b60448201527b656e206973206e6f7420616363657074696e67206465706f7369747360201b60648201526084016103dd565b6000878281518110610d8757634e487b7160e01b600052603260045260246000fd5b602002602001015111610e04576040805162461bcd60e51b81526020600482015260248101919091527f55736572506f736974696f6e733a3a6465706f7369743a204465706f7369742060448201527f616d6f756e74206d7573742062652067726561746572207468616e207a65726f60648201526084016103dd565b60008515610e3b57878281518110610e2c57634e487b7160e01b600052603260045260246000fd5b60200260200101519050611263565b6000898381518110610e5d57634e487b7160e01b600052603260045260246000fd5b602002602001015190506000816001600160a01b03166370a08231600060029054906101000a90046001600160a01b03166001600160a01b0316636f8c3f8a60006040518263ffffffff1660e01b8152600401610eba91906152e2565b60206040518083038186803b158015610ed257600080fd5b505afa158015610ee6573d6000803e3d6000fd5b505050506040513d601f19601f82011682018060405250810190610f0a91906149ad565b6040518263ffffffff1660e01b8152600401610f26919061512d565b60206040518083038186803b158015610f3e57600080fd5b505afa158015610f52573d6000803e3d6000fd5b505050506040513d601f19601f82011682018060405250810190610f769190614f25565b600080546040516337c61fc560e11b8152929350611046928f92620100009092046001600160a01b031691636f8c3f8a91610fb491906004016152e2565b60206040518083038186803b158015610fcc57600080fd5b505afa158015610fe0573d6000803e3d6000fd5b505050506040513d601f19601f8201168201806040525081019061100491906149ad565b8c878151811061102457634e487b7160e01b600052603260045260246000fd5b6020026020010151856001600160a01b0316613cb5909392919063ffffffff16565b600080546040516337c61fc560e11b81526001600160a01b03808616926370a08231926201000090910490911690636f8c3f8a906110889086906004016152e2565b60206040518083038186803b1580156110a057600080fd5b505afa1580156110b4573d6000803e3d6000fd5b505050506040513d601f19601f820116820180604052508101906110d891906149ad565b6040518263ffffffff1660e01b81526004016110f4919061512d565b60206040518083038186803b15801561110c57600080fd5b505afa158015611120573d6000803e3d6000fd5b505050506040513d601f19601f820116820180604052508101906111449190614f25565b905061115082826155f2565b6000546040516337c61fc560e11b81529195506201000090046001600160a01b031690636f8c3f8a906111879060049081016152e2565b60206040518083038186803b15801561119f57600080fd5b505afa1580156111b3573d6000803e3d6000fd5b505050506040513d601f19601f820116820180604052508101906111d791906149ad565b6001600160a01b0316637b65fb1c8d878151811061120557634e487b7160e01b600052603260045260246000fd5b60200260200101518f876040518463ffffffff1660e01b815260040161122d93929190615141565b600060405180830381600087803b15801561124757600080fd5b505af115801561125b573d6000803e3d6000fd5b505050505050505b8083838151811061128457634e487b7160e01b600052603260045260246000fd5b60200260200101818152505080600460008b85815181106112b557634e487b7160e01b600052603260045260246000fd5b60200260200101516001600160a01b03166001600160a01b0316815260200190815260200160002060008282546112ec91906155da565b9250508190555080600560008b858151811061131857634e487b7160e01b600052603260045260246000fd5b60200260200101516001600160a01b03166001600160a01b0316815260200190815260200160002060008c6001600160a01b03166001600160a01b03168152602001908152602001600020600082825461137291906155da565b90915550829150611384905081615635565b915050610c48565b508415611559576000836001600160a01b0316638b9c94896040518163ffffffff1660e01b815260040160206040518083038186803b1580156113ce57600080fd5b505afa1580156113e2573d6000803e3d6000fd5b505050506040513d601f19601f8201168201806040525081019061140691906149ad565b6000546040516337c61fc560e11b81529192506201000090046001600160a01b031690636f8c3f8a9061143d9060049081016152e2565b60206040518083038186803b15801561145557600080fd5b505afa158015611469573d6000803e3d6000fd5b505050506040513d601f19601f8201168201806040525081019061148d91906149ad565b6001600160a01b0316637b65fb1c828b896040518463ffffffff1660e01b81526004016114bc93929190615141565b600060405180830381600087803b1580156114d657600080fd5b505af11580156114ea573d6000803e3d6000fd5b505050506001600160a01b038116600090815260046020526040812080548892906115169084906155da565b90915550506001600160a01b038082166000908152600560209081526040808320938d16835292905290812080548892906115529084906155da565b9091555050505b876001600160a01b03167f8a0e0d2e597a2c18e7266d384fcd37c696485c4f2d04f8f90cebe3cf9453a15b888388604051611596939291906151b0565b60405180910390a25050505050505050565b6115b68333848460006138c2565b6000546040516337c61fc560e11b8152620100009091046001600160a01b031690636f8c3f8a906115ec906008906004016152e2565b60206040518083038186803b15801561160457600080fd5b505afa158015611618573d6000803e3d6000fd5b505050506040513d601f19601f8201168201806040525081019061163c91906149ad565b6001600160a01b0316631416110b8484846040518463ffffffff1660e01b815260040161166b939291906154c7565b600060405180830381600087803b15801561168557600080fd5b505af1158015611699573d6000803e3d6000fd5b50505050505050565b33600090815260016020526040812054606091908190819060ff166116d95760405162461bcd60e51b81526004016103dd90615473565b6001600160a01b038a166116ff5760405162461bcd60e51b81526004016103dd906153fb565b876001600160401b0381111561172557634e487b7160e01b600052604160045260246000fd5b60405190808252806020026020018201604052801561174e578160200160208202803683370190505b50600080546040516337c61fc560e11b81529296509091620100009091046001600160a01b031690636f8c3f8a9061178a9060049081016152e2565b60206040518083038186803b1580156117a257600080fd5b505afa1580156117b6573d6000803e3d6000fd5b505050506040513d601f19601f820116820180604052508101906117da91906149ad565b905060005b89811015611862576118258b8b8381811061180a57634e487b7160e01b600052603260045260246000fd5b905060200201602081019061181f9190614991565b8d612408565b86828151811061184557634e487b7160e01b600052603260045260246000fd5b60209081029190910101528061185a81615635565b9150506117df565b506118a48b8b8b808060200260200160405190810160405280939291908181526020018383602002808284376000920191909152508a92508b9150612ae59050565b600080546040516337c61fc560e11b81529296509091620100009091046001600160a01b031690636f8c3f8a906118e0906005906004016152e2565b60206040518083038186803b1580156118f857600080fd5b505afa15801561190c573d6000803e3d6000fd5b505050506040513d601f19601f8201168201806040525081019061193091906149ad565b6001600160a01b03166354ed0e598d6040518263ffffffff1660e01b815260040161195b919061512d565b60206040518083038186803b15801561197357600080fd5b505afa158015611987573d6000803e3d6000fd5b505050506040513d601f19601f820116820180604052508101906119ab9190614f25565b11156119bf576119bc8b8989613d13565b92505b6040516384afeffd60e01b81526001600160a01b038216906384afeffd906119eb908e9060040161512d565b602060405180830381600087803b158015611a0557600080fd5b505af1158015611a19573d6000803e3d6000fd5b505050506040513d601f19601f82011682018060405250810190611a3d9190614f25565b9150509650965096509692505050565b600054610100900460ff16611a685760005460ff1615611a6c565b303b155b611a885760405162461bcd60e51b81526004016103dd906153ad565b600054610100900460ff16158015611aaa576000805461ffff19166101011790555b6001600160a01b038216611ad05760405162461bcd60e51b81526004016103dd906153fb565b60005b8351811015611b485760006001600160a01b0316848281518110611b0757634e487b7160e01b600052603260045260246000fd5b60200260200101516001600160a01b03161415611b365760405162461bcd60e51b81526004016103dd906153fb565b80611b4081615635565b915050611ad3565b5060005b8351811015611bbe576001806000868481518110611b7a57634e487b7160e01b600052603260045260246000fd5b6020908102919091018101516001600160a01b03168252810191909152604001600020805460ff191691151591909117905580611bb681615635565b915050611b4c565b508251611bd29060029060208601906145ed565b5061041282613e1b565b600080546040516337c61fc560e11b8152620100009091046001600160a01b031691636f8c3f8a91611c1191906004016152e2565b60206040518083038186803b158015611c2957600080fd5b505afa158015611c3d573d6000803e3d6000fd5b505050506040513d601f19601f82011682018060405250810190611c6191906149ad565b6001600160a01b0316632f54bf6e336040518263ffffffff1660e01b8152600401611c8c919061512d565b60206040518083038186803b158015611ca457600080fd5b505afa158015611cb8573d6000803e3d6000fd5b505050506040513d601f19601f82011682018060405250810190611cdc9190614df7565b611d3b5760405162461bcd60e51b815260206004820152602a60248201527f436f6e74726f6c6c65643a3a6f6e6c794f776e65723a2043616c6c6572206973604482015269103737ba1037bbb732b960b11b60648201526084016103dd565b6001600160a01b03811660009081526001602081905260408220805460ff19169091179055805b600254811015611dc35760028181548110611d8d57634e487b7160e01b600052603260045260246000fd5b6000918252602090912001546001600160a01b0384811691161415611db157600191505b80611dbb81615635565b915050611d62565b5080611e1557600280546001810182556000919091527f405787fa12a823e0f2b7631cc41b3ba8828b3321ca811111fa75cd3aa3bb5ace0180546001600160a01b0319166001600160a01b0384161790555b5050565b606080846001600160401b03811115611e4257634e487b7160e01b600052604160045260246000fd5b604051908082528060200260200182016040528015611e8857816020015b604080518082019091526000815260606020820152815260200190600190039081611e605790505b509150826001600160401b03811115611eb157634e487b7160e01b600052604160045260246000fd5b604051908082528060200260200182016040528015611eea57816020015b611ed7614652565b815260200190600190039081611ecf5790505b50905060005b8381101561202257848482818110611f1857634e487b7160e01b600052603260045260246000fd5b9050602002016020810190611f2d9190614991565b828281518110611f4d57634e487b7160e01b600052603260045260246000fd5b60209081029190910101516001600160a01b03909116905260056000868684818110611f8957634e487b7160e01b600052603260045260246000fd5b9050602002016020810190611f9e9190614991565b6001600160a01b03166001600160a01b031681526020019081526020016000206000896001600160a01b03166001600160a01b031681526020019081526020016000205482828151811061200257634e487b7160e01b600052603260045260246000fd5b60209081029190910181015101528061201a81615635565b915050611ef0565b50600080546040516337c61fc560e11b8152620100009091046001600160a01b031690636f8c3f8a9061205a906008906004016152e2565b60206040518083038186803b15801561207257600080fd5b505afa158015612086573d6000803e3d6000fd5b505050506040513d601f19601f820116820180604052508101906120aa91906149ad565b905060005b868110156123fc576000826001600160a01b031663cfc0cc348a8a858181106120e857634e487b7160e01b600052603260045260246000fd5b905060200201356040518263ffffffff1660e01b815260040161210d91815260200190565b60006040518083038186803b15801561212557600080fd5b505afa158015612139573d6000803e3d6000fd5b505050506040513d6000823e601f3d908101601f191682016040526121619190810190614e13565b60400151905080516001600160401b0381111561218e57634e487b7160e01b600052604160045260246000fd5b6040519080825280602002602001820160405280156121c757816020015b6121b4614652565b8152602001906001900390816121ac5790505b508583815181106121e857634e487b7160e01b600052603260045260246000fd5b60200260200101516020018190525088888381811061221757634e487b7160e01b600052603260045260246000fd5b9050602002013585838151811061223e57634e487b7160e01b600052603260045260246000fd5b60209081029190910101515260005b81518110156123e75781818151811061227657634e487b7160e01b600052603260045260246000fd5b6020026020010151602001518684815181106122a257634e487b7160e01b600052603260045260246000fd5b60200260200101516020015182815181106122cd57634e487b7160e01b600052603260045260246000fd5b6020908102919091018101516001600160a01b039283169052908c166000908152600790915260408120908b8b8681811061231857634e487b7160e01b600052603260045260246000fd5b905060200201358152602001908152602001600020600083838151811061234f57634e487b7160e01b600052603260045260246000fd5b6020026020010151602001516001600160a01b03166001600160a01b031681526020019081526020016000205486848151811061239c57634e487b7160e01b600052603260045260246000fd5b60200260200101516020015182815181106123c757634e487b7160e01b600052603260045260246000fd5b6020908102919091018101510152806123df81615635565b91505061224d565b505080806123f490615635565b9150506120af565b50509550959350505050565b6001600160a01b03808316600081815260056020908152604080832094861683529381528382205460068252848320938352929052918220541061244e57506000610366565b6001600160a01b03808316600081815260066020908152604080832094881683529381528382205460058252848320938352929052919091205461039b91906155f2565b61042483338484613eaf565b3360009081526001602052604081205460ff166124cd5760405162461bcd60e51b81526004016103dd90615473565b6001600160a01b0384166124f35760405162461bcd60e51b81526004016103dd906153fb565b6124fe848484613d13565b949350505050565b3360009081526001602052604090205460ff166125355760405162461bcd60e51b81526004016103dd90615473565b8015612635576125498585858560006138c2565b6000546040516337c61fc560e11b8152620100009091046001600160a01b031690636f8c3f8a9061257f906008906004016152e2565b60206040518083038186803b15801561259757600080fd5b505afa1580156125ab573d6000803e3d6000fd5b505050506040513d601f19601f820116820180604052508101906125cf91906149ad565b6001600160a01b0316631416110b8685856040518463ffffffff1660e01b81526004016125fe939291906154c7565b600060405180830381600087803b15801561261857600080fd5b505af115801561262c573d6000803e3d6000fd5b50505050610895565b61089585858585613eaf565b6001600160a01b0380831660008181526008602090815260408083209486168084529482528083205493835260058252808320948352939052918220548291612689916155da565b6001600160a01b0380851660009081526006602090815260408083209389168352929052205490915081116126c2576000915050610366565b6001600160a01b038084166000908152600660209081526040808320938816835292905220546124fe90826155f2565b6002818154811061270257600080fd5b6000918252602090912001546001600160a01b0316905081565b3360009081526001602052604090205460ff1661274b5760405162461bcd60e51b81526004016103dd90615473565b6001600160a01b0384166127715760405162461bcd60e51b81526004016103dd906153fb565b8482146127e05760405162461bcd60e51b815260206004820152604360248201526000805160206156a383398151915260448201527f6c616e6365733a20617272617973206d75737420626520657175616c206c656e6064820152620cee8d60eb1b608482015260a4016103dd565b60005b858110156116995760006005600089898581811061281157634e487b7160e01b600052603260045260246000fd5b90506020020160208101906128269190614991565b6001600160a01b03908116825260208083019390935260409182016000908120918a1681529252902054905084848381811061287257634e487b7160e01b600052603260045260246000fd5b90506020020135600014156129115760405162461bcd60e51b815260206004820152606560248201526000805160206156a383398151915260448201527f6c616e6365733a204d7573742068617665206120706f736974697665206f722060648201527f6e65676174697665206e756d62657220746f206368616e6765207468652062616084820152646c616e636560d81b60a482015260c4016103dd565b600083838151811061293357634e487b7160e01b600052603260045260246000fd5b6020026020010151156129795785858481811061296057634e487b7160e01b600052603260045260246000fd5b905060200201358261297291906155da565b9050612a6c565b8186868581811061299a57634e487b7160e01b600052603260045260246000fd5b905060200201351115612a375760405162461bcd60e51b815260206004820152606560248201526000805160206156a383398151915260448201527f6c616e6365733a20416d6f756e7420746f207265647563652062616c616e636560648201527f206d757374206265206e6f206d6f7265207468616e2063757272656e742062616084820152646c616e636560d81b60a482015260c4016103dd565b858584818110612a5757634e487b7160e01b600052603260045260246000fd5b9050602002013582612a6991906155f2565b90505b80600560008b8b87818110612a9157634e487b7160e01b600052603260045260246000fd5b9050602002016020810190612aa69190614991565b6001600160a01b03908116825260208083019390935260409182016000908120918c168152925290205550819050612add81615635565b9150506127e3565b600080546040516337c61fc560e11b815282916201000090046001600160a01b031690636f8c3f8a90612b1d906003906004016152e2565b60206040518083038186803b158015612b3557600080fd5b505afa158015612b49573d6000803e3d6000fd5b505050506040513d601f19601f82011682018060405250810190612b6d91906149ad565b90506000816001600160a01b0316638b9c94896040518163ffffffff1660e01b815260040160206040518083038186803b158015612baa57600080fd5b505afa158015612bbe573d6000803e3d6000fd5b505050506040513d601f19601f82011682018060405250810190612be291906149ad565b90506000826001600160a01b03166344fc9b566040518163ffffffff1660e01b815260040160206040518083038186803b158015612c1f57600080fd5b505afa158015612c33573d6000803e3d6000fd5b505050506040513d601f19601f82011682018060405250810190612c5791906149ad565b9050600093508551875114612cee5760405162461bcd60e51b815260206004820152605160248201527f55736572506f736974696f6e733a3a5f77697468647261773a20546f6b656e7360448201527f206172726179206c656e67746820646f6573206e6f74206d6174636820616d6f6064820152700eadce8e640c2e4e4c2f240d8cadccee8d607b1b608482015260a4016103dd565b60005b87518110156138b657868181518110612d1a57634e487b7160e01b600052603260045260246000fd5b602002602001015160001415612d2f576138b6565b836001600160a01b0316630b3972cb898381518110612d5e57634e487b7160e01b600052603260045260246000fd5b60200260200101516040518263ffffffff1660e01b8152600401612d82919061512d565b60206040518083038186803b158015612d9a57600080fd5b505afa158015612dae573d6000803e3d6000fd5b505050506040513d601f19601f82011682018060405250810190612dd29190614df7565b612e4e5760405162461bcd60e51b815260206004820152604160248201527f55736572506f736974696f6e733a3a5f77697468647261773a2054686973207460448201527f6f6b656e206973206e6f7420616363657074696e67207769746864726177616c6064820152607360f81b608482015260a4016103dd565b612e7f888281518110612e7157634e487b7160e01b600052603260045260246000fd5b60200260200101518a612408565b878281518110612e9f57634e487b7160e01b600052603260045260246000fd5b60200260200101511115612f1b5760405162461bcd60e51b815260206004820152603e60248201527f55736572506f736974696f6e733a3a5f77697468647261773a2057697468647260448201527f617720616d6f756e74206578636565647320757365722062616c616e6365000060648201526084016103dd565b6000888281518110612f3d57634e487b7160e01b600052603260045260246000fd5b60200260200101516001600160a01b03166370a08231600060029054906101000a90046001600160a01b03166001600160a01b0316636f8c3f8a60006040518263ffffffff1660e01b8152600401612f9591906152e2565b60206040518083038186803b158015612fad57600080fd5b505afa158015612fc1573d6000803e3d6000fd5b505050506040513d601f19601f82011682018060405250810190612fe591906149ad565b6040518263ffffffff1660e01b8152600401613001919061512d565b60206040518083038186803b15801561301957600080fd5b505afa15801561302d573d6000803e3d6000fd5b505050506040513d601f19601f820116820180604052508101906130519190614f25565b905087828151811061307357634e487b7160e01b600052603260045260246000fd5b60200260200101518110156131ca576000546040516337c61fc560e11b8152620100009091046001600160a01b031690636f8c3f8a906130b8906008906004016152e2565b60206040518083038186803b1580156130d057600080fd5b505afa1580156130e4573d6000803e3d6000fd5b505050506040513d601f19601f8201168201806040525081019061310891906149ad565b6001600160a01b0316635560066a8a848151811061313657634e487b7160e01b600052603260045260246000fd5b60200260200101518a858151811061315e57634e487b7160e01b600052603260045260246000fd5b60200260200101516040518363ffffffff1660e01b81526004016131979291906001600160a01b03929092168252602082015260400190565b600060405180830381600087803b1580156131b157600080fd5b505af11580156131c5573d6000803e3d6000fd5b505050505b6000846001600160a01b03168a84815181106131f657634e487b7160e01b600052603260045260246000fd5b60200260200101516001600160a01b03161480156132115750875b1561326f5788838151811061323657634e487b7160e01b600052603260045260246000fd5b6020026020010151965088838151811061326057634e487b7160e01b600052603260045260246000fd5b602002602001015190506134d7565b60008a848151811061329157634e487b7160e01b600052603260045260246000fd5b60200260200101516001600160a01b03166370a08231600060029054906101000a90046001600160a01b03166001600160a01b0316636f8c3f8a60006040518263ffffffff1660e01b81526004016132e991906152e2565b60206040518083038186803b15801561330157600080fd5b505afa158015613315573d6000803e3d6000fd5b505050506040513d601f19601f8201168201806040525081019061333991906149ad565b6040518263ffffffff1660e01b8152600401613355919061512d565b60206040518083038186803b15801561336d57600080fd5b505afa158015613381573d6000803e3d6000fd5b505050506040513d601f19601f820116820180604052508101906133a59190614f25565b90508984815181106133c757634e487b7160e01b600052603260045260246000fd5b60200260200101518110156133de57809150613409565b8984815181106133fe57634e487b7160e01b600052603260045260246000fd5b602002602001015191505b600080546040516337c61fc560e11b81526134d592620100009092046001600160a01b031691636f8c3f8a9161344291906004016152e2565b60206040518083038186803b15801561345a57600080fd5b505afa15801561346e573d6000803e3d6000fd5b505050506040513d601f19601f8201168201806040525081019061349291906149ad565b8d848e88815181106134b457634e487b7160e01b600052603260045260246000fd5b60200260200101516001600160a01b0316613cb5909392919063ffffffff16565b505b6000546040516337c61fc560e11b8152620100009091046001600160a01b031690636f8c3f8a9061350c9060049081016152e2565b60206040518083038186803b15801561352457600080fd5b505afa158015613538573d6000803e3d6000fd5b505050506040513d601f19601f8201168201806040525081019061355c91906149ad565b6001600160a01b0316631f126bd08b858151811061358a57634e487b7160e01b600052603260045260246000fd5b60200260200101518d846040518463ffffffff1660e01b81526004016135b293929190615141565b600060405180830381600087803b1580156135cc57600080fd5b505af11580156135e0573d6000803e3d6000fd5b50505050836001600160a01b03168a848151811061360e57634e487b7160e01b600052603260045260246000fd5b60200260200101516001600160a01b0316141561370e576000546040516337c61fc560e11b8152620100009091046001600160a01b031690636f8c3f8a9061365b906005906004016152e2565b60206040518083038186803b15801561367357600080fd5b505afa158015613687573d6000803e3d6000fd5b505050506040513d601f19601f820116820180604052508101906136ab91906149ad565b6001600160a01b031663a22aecd16000838e6040518463ffffffff1660e01b81526004016136db9392919061530a565b600060405180830381600087803b1580156136f557600080fd5b505af1158015613709573d6000803e3d6000fd5b505050505b600460008b858151811061373257634e487b7160e01b600052603260045260246000fd5b60200260200101516001600160a01b03166001600160a01b03168152602001908152602001600020548111156137b9576000600460008c868151811061378857634e487b7160e01b600052603260045260246000fd5b60200260200101516001600160a01b03166001600160a01b031681526020019081526020016000208190555061381b565b80600460008c86815181106137de57634e487b7160e01b600052603260045260246000fd5b60200260200101516001600160a01b03166001600160a01b03168152602001908152602001600020600082825461381591906155f2565b90915550505b80600560008c868151811061384057634e487b7160e01b600052603260045260246000fd5b60200260200101516001600160a01b03166001600160a01b0316815260200190815260200160002060008d6001600160a01b03166001600160a01b03168152602001908152602001600020600082825461389a91906155f2565b92505081905550505080806138ae90615635565b915050612cf1565b50505050949350505050565b816138df5760405162461bcd60e51b81526004016103dd9061535c565b60005b82811015613c6957600084848381811061390c57634e487b7160e01b600052603260045260246000fd5b6139229260206040909202019081019150614991565b6001600160a01b031614156139495760405162461bcd60e51b81526004016103dd90615420565b600084848381811061396b57634e487b7160e01b600052603260045260246000fd5b90506040020160200135116139925760405162461bcd60e51b81526004016103dd90615385565b81613a23578383828181106139b757634e487b7160e01b600052603260045260246000fd5b90506040020160200135613a008585848181106139e457634e487b7160e01b600052603260045260246000fd5b6139fa9260206040909202019081019150614991565b87612641565b1015613a1e5760405162461bcd60e51b81526004016103dd90615447565b613adf565b838382818110613a4357634e487b7160e01b600052603260045260246000fd5b9050604002016020013560056000868685818110613a7157634e487b7160e01b600052603260045260246000fd5b613a879260206040909202019081019150614991565b6001600160a01b03166001600160a01b031681526020019081526020016000206000876001600160a01b03166001600160a01b031681526020019081526020016000206000828254613ad991906155da565b90915550505b838382818110613aff57634e487b7160e01b600052603260045260246000fd5b6001600160a01b03881660009081526007602090815260408083208c845282528083209302949094019093013592909150868685818110613b5057634e487b7160e01b600052603260045260246000fd5b613b669260206040909202019081019150614991565b6001600160a01b03166001600160a01b031681526020019081526020016000206000828254613b9591906155da565b909155508490508382818110613bbb57634e487b7160e01b600052603260045260246000fd5b9050604002016020013560066000876001600160a01b03166001600160a01b031681526020019081526020016000206000868685818110613c0c57634e487b7160e01b600052603260045260246000fd5b613c229260206040909202019081019150614991565b6001600160a01b03166001600160a01b031681526020019081526020016000206000828254613c5191906155da565b90915550819050613c6181615635565b9150506138e2565b50836001600160a01b0316857f334bb5f87e7c3a4187387befedac3205b6e6516e347d3a9142aae21a2ef122148585604051613ca692919061529f565b60405180910390a35050505050565b613d0d846323b872dd60e01b858585604051602401613cd693929190615141565b60408051601f198184030181529190526020810180516001600160e01b03166001600160e01b031990931692909217909152614410565b50505050565b600080546040516337c61fc560e11b8152620100009091046001600160a01b031690636f8c3f8a90613d4a906005906004016152e2565b60206040518083038186803b158015613d6257600080fd5b505afa158015613d76573d6000803e3d6000fd5b505050506040513d601f19601f82011682018060405250810190613d9a91906149ad565b6001600160a01b031663c3b2a7f48585856040518463ffffffff1660e01b8152600401613dc993929190615165565b602060405180830381600087803b158015613de357600080fd5b505af1158015613df7573d6000803e3d6000fd5b505050506040513d601f19601f820116820180604052508101906124fe9190614f25565b600054610100900460ff16613e365760005460ff1615613e3a565b303b155b613e565760405162461bcd60e51b81526004016103dd906153ad565b600054610100900460ff16158015613e78576000805461ffff19166101011790555b6000805462010000600160b01b031916620100006001600160a01b038516021790558015611e15576000805461ff00191690555050565b80613ecc5760405162461bcd60e51b81526004016103dd9061535c565b60005b818110156141cd576000838383818110613ef957634e487b7160e01b600052603260045260246000fd5b613f0f9260206040909202019081019150614991565b6001600160a01b03161415613f365760405162461bcd60e51b81526004016103dd90615420565b6000838383818110613f5857634e487b7160e01b600052603260045260246000fd5b9050604002016020013511613f7f5760405162461bcd60e51b81526004016103dd90615385565b828282818110613f9f57634e487b7160e01b600052603260045260246000fd5b6001600160a01b03871660009081526007602090815260408083208b845282528083209302949094019093013592909150858585818110613ff057634e487b7160e01b600052603260045260246000fd5b6140069260206040909202019081019150614991565b6001600160a01b03166001600160a01b031681526020019081526020016000205410156140455760405162461bcd60e51b81526004016103dd90615447565b82828281811061406557634e487b7160e01b600052603260045260246000fd5b9050604002016020013560066000866001600160a01b03166001600160a01b0316815260200190815260200160002060008585858181106140b657634e487b7160e01b600052603260045260246000fd5b6140cc9260206040909202019081019150614991565b6001600160a01b03166001600160a01b0316815260200190815260200160002060008282546140fb91906155f2565b90915550839050828281811061412157634e487b7160e01b600052603260045260246000fd5b6001600160a01b03871660009081526007602090815260408083208b84528252808320930294909401909301359290915085858581811061417257634e487b7160e01b600052603260045260246000fd5b6141889260206040909202019081019150614991565b6001600160a01b03166001600160a01b0316815260200190815260200160002060008282546141b791906155f2565b909155506141c6905081615635565b9050613ecf565b506000546040516337c61fc560e11b8152620100009091046001600160a01b031690636f8c3f8a90614204906005906004016152e2565b60206040518083038186803b15801561421c57600080fd5b505afa158015614230573d6000803e3d6000fd5b505050506040513d601f19601f8201168201806040525081019061425491906149ad565b6001600160a01b031663a22aecd1858484600081811061428457634e487b7160e01b600052603260045260246000fd5b90506040020160200135336040518463ffffffff1660e01b81526004016142ad9392919061530a565b600060405180830381600087803b1580156142c757600080fd5b505af11580156142db573d6000803e3d6000fd5b50505050826001600160a01b0316847f3ad24ebe8503084720eb1ca09347e684215bd91ce405e748489d5d7551544171848460405161431b92919061529f565b60405180910390a36000546040516337c61fc560e11b8152620100009091046001600160a01b031690636f8c3f8a90614359906008906004016152e2565b60206040518083038186803b15801561437157600080fd5b505afa158015614385573d6000803e3d6000fd5b505050506040513d601f19601f820116820180604052508101906143a991906149ad565b6001600160a01b031663d4a4a0438584846040518463ffffffff1660e01b81526004016143d8939291906154c7565b600060405180830381600087803b1580156143f257600080fd5b505af1158015614406573d6000803e3d6000fd5b5050505050505050565b6000614465826040518060400160405280602081526020017f5361666545524332303a206c6f772d6c6576656c2063616c6c206661696c6564815250856001600160a01b03166144e29092919063ffffffff16565b80519091501561042457808060200190518101906144839190614df7565b6104245760405162461bcd60e51b815260206004820152602a60248201527f5361666545524332303a204552433230206f7065726174696f6e20646964206e6044820152691bdd081cdd58d8d9595960b21b60648201526084016103dd565b60606124fe848460008585843b61453b5760405162461bcd60e51b815260206004820152601d60248201527f416464726573733a2063616c6c20746f206e6f6e2d636f6e747261637400000060448201526064016103dd565b600080866001600160a01b031685876040516145579190615111565b60006040518083038185875af1925050503d8060008114614594576040519150601f19603f3d011682016040523d82523d6000602084013e614599565b606091505b50915091506145a98282866145b4565b979650505050505050565b606083156145c357508161039b565b8251156145d35782518084602001fd5b8160405162461bcd60e51b81526004016103dd9190615329565b828054828255906000526020600020908101928215614642579160200282015b8281111561464257825182546001600160a01b0319166001600160a01b0390911617825560209092019160019091019061460d565b5061464e929150614669565b5090565b604080518082019091526000808252602082015290565b5b8082111561464e576000815560010161466a565b60008083601f84011261468f578182fd5b5081356001600160401b038111156146a5578182fd5b6020830191508360208260051b85010111156146c057600080fd5b9250929050565b600082601f8301126146d7578081fd5b813560206146ec6146e7836155b7565b615587565b80838252828201915082860187848660051b890101111561470b578586fd5b855b858110156147325781356147208161567c565b8452928401929084019060010161470d565b5090979650505050505050565b600082601f83011261474f578081fd5b8135602061475f6146e7836155b7565b80838252828201915082860187848660051b890101111561477e578586fd5b855b8581101561473257813561479381615694565b84529284019290840190600101614780565b600082601f8301126147b5578081fd5b815160206147c56146e7836155b7565b80838252828201915082860187848660061b89010111156147e4578586fd5b855b8581101561473257604080838b0312156147fe578788fd5b61480661553d565b83516148118161567c565b815261481e848801614978565b8188015285529385019391909101906001016147e6565b60008083601f840112614846578182fd5b5081356001600160401b0381111561485c578182fd5b6020830191508360208260061b85010111156146c057600080fd5b600082601f830112614887578081fd5b815160206148976146e7836155b7565b828152818101908583016060808602880185018910156148b5578687fd5b865b8681101561490d5781838b0312156148cd578788fd5b6148d5615565565b83518152868401516148e68161567c565b8188015260406148f7858201614978565b90820152855293850193918101916001016148b7565b509198975050505050505050565b600082601f83011261492b578081fd5b8135602061493b6146e7836155b7565b80838252828201915082860187848660051b890101111561495a578586fd5b855b858110156147325781358452928401929084019060010161495c565b805163ffffffff8116811461498c57600080fd5b919050565b6000602082840312156149a2578081fd5b813561039b8161567c565b6000602082840312156149be578081fd5b815161039b8161567c565b600080604083850312156149db578081fd5b82356149e68161567c565b915060208301356149f68161567c565b809150509250929050565b60008060008060008060808789031215614a19578182fd5b8635614a248161567c565b955060208701356001600160401b0380821115614a3f578384fd5b614a4b8a838b0161467e565b90975095506040890135915080821115614a63578384fd5b50614a7089828a0161467e565b9094509250506060870135614a8481615694565b809150509295509295509295565b60008060008060808587031215614aa7578182fd5b8435614ab28161567c565b935060208501356001600160401b0380821115614acd578384fd5b614ad9888389016146c7565b94506040870135915080821115614aee578384fd5b50614afb8782880161491b565b9250506060850135614b0c81615694565b939692955090935050565b600080600080600060a08688031215614b2e578283fd5b8535614b398161567c565b945060208601356001600160401b0380821115614b54578485fd5b614b6089838a016146c7565b95506040880135915080821115614b75578485fd5b50614b828882890161491b565b935050606086013591506080860135614b9a81615694565b809150509295509295909350565b600080600060408486031215614bbc578081fd5b8335614bc78161567c565b925060208401356001600160401b03811115614be1578182fd5b614bed8682870161467e565b9497909650939450505050565b600080600080600060608688031215614c11578283fd5b8535614c1c8161567c565b945060208601356001600160401b0380821115614c37578485fd5b614c4389838a0161467e565b90965094506040880135915080821115614c5b578283fd5b50614c688882890161467e565b969995985093965092949392505050565b60008060008060008060808789031215614c91578384fd5b86356001600160401b0380821115614ca7578586fd5b614cb38a838b0161467e565b909850965060208901359150614cc88261567c565b90945060408801359080821115614cdd578384fd5b614ce98a838b0161467e565b90955093506060890135915080821115614d01578283fd5b50614d0e89828a0161473f565b9150509295509295509295565b60008060408385031215614d2d578182fd5b82356001600160401b03811115614d42578283fd5b614d4e858286016146c7565b92505060208301356149f68161567c565b60008060008060808587031215614d74578182fd5b84356001600160401b0380821115614d8a578384fd5b614d96888389016146c7565b955060208701359150614da88261567c565b90935060408601359080821115614dbd578384fd5b614dc98883890161491b565b93506060870135915080821115614dde578283fd5b50614deb8782880161473f565b91505092959194509250565b600060208284031215614e08578081fd5b815161039b81615694565b60006020808385031215614e25578182fd5b82516001600160401b0380821115614e3b578384fd5b9084019060608287031215614e4e578384fd5b614e56615565565b825182811115614e64578586fd5b8301601f81018813614e74578586fd5b805183811115614e8657614e86615666565b614e98601f8201601f19168701615587565b8181528987838501011115614eab578788fd5b614eba82888301898601615609565b835250508284015182811115614ece578586fd5b614eda888286016147a5565b85830152506040830151935081841115614ef2578485fd5b614efe87858501614877565b60408201529695505050505050565b600060208284031215614f1e578081fd5b5035919050565b600060208284031215614f36578081fd5b5051919050565b600080600060608486031215614f51578081fd5b833592506020840135614f638161567c565b91506040840135614f738161567c565b809150509250925092565b600080600080600060808688031215614f95578283fd5b853594506020860135614fa78161567c565b935060408601356001600160401b03811115614fc1578384fd5b614fcd88828901614835565b9094509250506060860135614b9a81615694565b600080600060408486031215614ff5578081fd5b8335925060208401356001600160401b03811115614be1578182fd5b600080600060408486031215615025578081fd5b8335925060208401356001600160401b03811115615041578182fd5b614bed86828701614835565b6000815180845260208085019450808401835b8381101561509057815180516001600160a01b031688528301518388015260409096019590820190600101615060565b509495945050505050565b81835260006020808501945082825b858110156150905781356150bd8161567c565b6001600160a01b031687528183013583880152604096870196909101906001016150aa565b6000815180845260208085019450808401835b83811015615090578151875295820195908201906001016150f5565b60008251615123818460208701615609565b9190910192915050565b6001600160a01b0391909116815260200190565b6001600160a01b039384168152919092166020820152604081019190915260600190565b6001600160a01b0384168152604060208201819052810182905260006001600160fb1b03831115615194578081fd5b8260051b80856060850137919091016060019081529392505050565b606080825284519082018190526000906020906080840190828801845b828110156151f25781516001600160a01b0316845292840192908401906001016151cd565b5050508381038285015261520681876150e2565b92505050826040830152949350505050565b6000604080830181845280865180835260608601915060608160051b87010192506020808901865b8381101561527f57888603605f1901855281518051875283015183870188905261526c8888018261504d565b9650509382019390820190600101615240565b505086840381880152505050615295818661504d565b9695505050505050565b6020815260006124fe60208301848661509b565b6080815260006152c660808301876150e2565b6020830195909552506040810192909252606090910152919050565b60208101600c831061530457634e487b7160e01b600052602160045260246000fd5b91905290565b92835260208301919091526001600160a01b0316604082015260600190565b6020815260008251806020840152615348816040850160208701615609565b601f01601f19169190910160400192915050565b6020808252600f908201526e1d1bdad95b9cc81c995c5d5a5c9959608a1b604082015260600190565b6020808252600e908201526d1a5b9d985b1a5908185b5bdd5b9d60921b604082015260600190565b6020808252602e908201527f496e697469616c697a61626c653a20636f6e747261637420697320616c72656160408201526d191e481a5b9a5d1a585b1a5e995960921b606082015260800190565b6020808252600b908201526a626164206164647265737360a81b604082015260600190565b6020808252600d908201526c34b73b30b634b2103a37b5b2b760991b604082015260600190565b602080825260129082015271696e73756666696369656e742066756e647360701b604082015260600190565b60208082526034908201527f436f6e74726f6c6c65643a3a6f6e6c79436f6e74726f6c6c65723a2043616c6c60408201527332b91034b9903737ba1031b7b73a3937b63632b960611b606082015260800190565b83815260406020820152600061048a60408301848661509b565b6000808335601e198436030181126154f7578283fd5b8301803591506001600160401b03821115615510578283fd5b6020019150600681901b36038213156146c057600080fd5b60008235603e19833603018112615123578182fd5b604080519081016001600160401b038111828210171561555f5761555f615666565b60405290565b604051606081016001600160401b038111828210171561555f5761555f615666565b604051601f8201601f191681016001600160401b03811182821017156155af576155af615666565b604052919050565b60006001600160401b038211156155d0576155d0615666565b5060051b60200190565b600082198211156155ed576155ed615650565b500190565b60008282101561560457615604615650565b500390565b60005b8381101561562457818101518382015260200161560c565b83811115613d0d5750506000910152565b600060001982141561564957615649615650565b5060010190565b634e487b7160e01b600052601160045260246000fd5b634e487b7160e01b600052604160045260246000fd5b6001600160a01b038116811461569157600080fd5b50565b801515811461569157600080fdfe55736572506f736974696f6e733a3a75706461746555736572546f6b656e426155736572506f736974696f6e733a3a75706461746555736572496e746572636fa26469706673582212204d7e2c6f76cbf35d7463d71e5ed70c0f11e8924f434fdd473810f6f225ed0bc064736f6c63430008040033",
  "devdoc": {
    "kind": "dev",
    "methods": {
      "claimEthRewards(address,uint256[])": {
        "params": {
          "recipient": "The address of the user claiming ETH rewards",
          "strategies": "An array of strategyIDs to claim rewards for"
        }
      },
      "deposit(address,address[],uint256[],uint256,bool)": {
        "params": {
          "amounts": "Array of token amounts",
          "depositor": "Address of the account depositing",
          "ethAmount": "The amount of ETH sent with the deposit",
          "tokens": "Array of token the token addresses"
        }
      },
      "enterStrategy(uint256,(address,uint256)[])": {
        "params": {
          "strategyID": "The strategy to enter",
          "tokens": "The tokens and amounts to enter into the strategy"
        }
      },
      "exitStrategy(uint256,(address,uint256)[])": {
        "params": {
          "strategyID": "The strategy to withdrawfrom",
          "tokens": "The tokens and amounts to withdraw"
        }
      },
      "getUserBalances(address,uint256[],address[])": {
        "params": {
          "_strategies": "the strategies to get balances for",
          "_tokens": "the tokens to get balances for",
          "user": "the user to request for"
        },
        "returns": {
          "strategyBalance": " The user's invested funds in the strategies",
          "userBalance": " User total token balances"
        }
      },
      "getUserInvestedAmountByToken(address,address)": {
        "params": {
          "token": "the token address",
          "user": "the user holding the funds"
        },
        "returns": {
          "amount": " the amount of tokens the user has invested across all strategies"
        }
      },
      "getUserStrategyBalanceByToken(uint256,address,address)": {
        "params": {
          "id": "the strategy id",
          "token": "the token address",
          "user": "the user who holds the funds"
        },
        "returns": {
          "amount": " the amount of token that the user has invested in the strategy "
        }
      },
      "initialize(address[],address)": {
        "params": {
          "controllers_": "The addresses of the controlling contracts",
          "moduleMap_": "Address of the Module Map"
        }
      },
      "migrateUser(uint256,(address,(address,uint256)[])[])": {
        "params": {
          "users": "the user data to add to the strategy"
        }
      },
      "totalTokenBalance(address)": {
        "params": {
          "asset": "Address of the ERC20 token contract"
        },
        "returns": {
          "_0": "The total balance of the asset deposited in the system"
        }
      },
      "updateUserInterconnectBalances(address[],address,uint256[],bool[])": {
        "params": {
          "account": "user ",
          "amounts": "list of amounts to update ",
          "assets": "list of tokens to update"
        }
      },
      "updateUserTokenBalances(address[],address,uint256[],bool[])": {
        "params": {
          "account": "user ",
          "amounts": "list of amounts to update ",
          "assets": "list of tokens to update"
        }
      },
      "userDeployableBalance(address,address)": {
        "params": {
          "account": "Address of the user account",
          "asset": "Address of the ERC20 token contract"
        }
      },
      "userInterconnectBalance(address,address)": {
        "params": {
          "account": "Address of the user account",
          "asset": "Address of the ERC20 token contract"
        }
      },
      "userTokenBalance(address,address)": {
        "params": {
          "account": "Address of the user account",
          "asset": "Address of the ERC20 token contract"
        }
      },
      "withdraw(address,address[],uint256[],bool)": {
        "params": {
          "amounts": "Array of token amounts",
          "recipient": "The address of the user withdrawing",
          "tokens": "Array of token the token addresses",
          "withdrawWethAsEth": "Boolean indicating whether should receive WETH balance as ETH"
        }
      },
      "withdrawAllAndClaim(address,address[],uint256[],bool)": {
        "params": {
          "recipient": "The address of the user withdrawing tokens",
          "strategies": "Array of strategy IDs that user is claiming rewards from",
          "tokens": "Array of token address that user is exiting positions from",
          "withdrawWethAsEth": "Boolean indicating whether should receive WETH balance as ETH"
        },
        "returns": {
          "biosClaimed": "The amount of BIOS being claimed from rewards",
          "ethClaimed": "The amount of ETH being claimed from rewards",
          "ethWithdrawn": "The amount of ETH being withdrawn",
          "tokenAmounts": "The amounts of each token being withdrawn"
        }
      }
    },
    "stateVariables": {
      "_biosRewardsDuration": {
        "details": "This is deprecated - now live in BiosRewards.sol"
      }
    },
    "title": "User Positions",
    "version": 1
  },
  "userdoc": {
    "kind": "user",
    "methods": {
      "deposit(address,address[],uint256[],uint256,bool)": {
        "notice": "User is allowed to deposit whitelisted tokens"
      },
      "enterStrategy(uint256,(address,uint256)[])": {
        "notice": "Adds a user's funds to a strategy to be deployed"
      },
      "exitStrategy(uint256,(address,uint256)[])": {
        "notice": "Marks a user's funds as withdrawable"
      },
      "getUserBalances(address,uint256[],address[])": {
        "notice": "Returns a user's balances for requested strategies, and the users total invested amounts for each token requested"
      },
      "getUserInvestedAmountByToken(address,address)": {
        "notice": "Returns the amount of a given token that a user has invested across all strategies"
      },
      "getUserStrategyBalanceByToken(uint256,address,address)": {
        "notice": "returns the amount of a given token a user has invested in a given strategy"
      },
      "migrateUser(uint256,(address,(address,uint256)[])[])": {
        "notice": "Migrates user strategy positions to the new system"
      },
      "updateUserInterconnectBalances(address[],address,uint256[],bool[])": {
        "notice": "Updates a user's interconnected balance. Only called by controlled contracts or relayer"
      },
      "updateUserTokenBalances(address[],address,uint256[],bool[])": {
        "notice": "Updates a user's local balance. Only called by controlled contracts or relayer"
      },
      "withdraw(address,address[],uint256[],bool)": {
        "notice": "User is allowed to withdraw tokens"
      },
      "withdrawAllAndClaim(address,address[],uint256[],bool)": {
        "notice": "Allows a user to withdraw entire balances of the specified tokens and claim rewards"
      }
    },
    "notice": "Allows users to deposit/withdraw erc20 tokens",
    "version": 1
  },
  "storageLayout": {
    "storage": [
      {
        "astId": 723,
        "contract": "contracts/core/UserPositions.sol:UserPositions",
        "label": "_initialized",
        "offset": 0,
        "slot": "0",
        "type": "t_bool"
      },
      {
        "astId": 726,
        "contract": "contracts/core/UserPositions.sol:UserPositions",
        "label": "_initializing",
        "offset": 1,
        "slot": "0",
        "type": "t_bool"
      },
      {
        "astId": 10143,
        "contract": "contracts/core/UserPositions.sol:UserPositions",
        "label": "moduleMap",
        "offset": 2,
        "slot": "0",
        "type": "t_contract(IModuleMap)20736"
      },
      {
        "astId": 4667,
        "contract": "contracts/core/UserPositions.sol:UserPositions",
        "label": "_controllers",
        "offset": 0,
        "slot": "1",
        "type": "t_mapping(t_address,t_bool)"
      },
      {
        "astId": 4670,
        "contract": "contracts/core/UserPositions.sol:UserPositions",
        "label": "controllers",
        "offset": 0,
        "slot": "2",
        "type": "t_array(t_address)dyn_storage"
      },
      {
        "astId": 15543,
        "contract": "contracts/core/UserPositions.sol:UserPositions",
        "label": "_biosRewardsDuration",
        "offset": 0,
        "slot": "3",
        "type": "t_uint32"
      },
      {
        "astId": 15547,
        "contract": "contracts/core/UserPositions.sol:UserPositions",
        "label": "_totalSupply",
        "offset": 0,
        "slot": "4",
        "type": "t_mapping(t_address,t_uint256)"
      },
      {
        "astId": 15553,
        "contract": "contracts/core/UserPositions.sol:UserPositions",
        "label": "_balances",
        "offset": 0,
        "slot": "5",
        "type": "t_mapping(t_address,t_mapping(t_address,t_uint256))"
      },
      {
        "astId": 15559,
        "contract": "contracts/core/UserPositions.sol:UserPositions",
        "label": "_deployedBalances",
        "offset": 0,
        "slot": "6",
        "type": "t_mapping(t_address,t_mapping(t_address,t_uint256))"
      },
      {
        "astId": 15567,
        "contract": "contracts/core/UserPositions.sol:UserPositions",
        "label": "_userStrategyBalances",
        "offset": 0,
        "slot": "7",
        "type": "t_mapping(t_address,t_mapping(t_uint256,t_mapping(t_address,t_uint256)))"
      },
      {
        "astId": 15573,
        "contract": "contracts/core/UserPositions.sol:UserPositions",
        "label": "_interconnectBalances",
        "offset": 0,
        "slot": "8",
        "type": "t_mapping(t_address,t_mapping(t_address,t_uint256))"
      }
    ],
    "types": {
      "t_address": {
        "encoding": "inplace",
        "label": "address",
        "numberOfBytes": "20"
      },
      "t_array(t_address)dyn_storage": {
        "base": "t_address",
        "encoding": "dynamic_array",
        "label": "address[]",
        "numberOfBytes": "32"
      },
      "t_bool": {
        "encoding": "inplace",
        "label": "bool",
        "numberOfBytes": "1"
      },
      "t_contract(IModuleMap)20736": {
        "encoding": "inplace",
        "label": "contract IModuleMap",
        "numberOfBytes": "20"
      },
      "t_mapping(t_address,t_bool)": {
        "encoding": "mapping",
        "key": "t_address",
        "label": "mapping(address => bool)",
        "numberOfBytes": "32",
        "value": "t_bool"
      },
      "t_mapping(t_address,t_mapping(t_address,t_uint256))": {
        "encoding": "mapping",
        "key": "t_address",
        "label": "mapping(address => mapping(address => uint256))",
        "numberOfBytes": "32",
        "value": "t_mapping(t_address,t_uint256)"
      },
      "t_mapping(t_address,t_mapping(t_uint256,t_mapping(t_address,t_uint256)))": {
        "encoding": "mapping",
        "key": "t_address",
        "label": "mapping(address => mapping(uint256 => mapping(address => uint256)))",
        "numberOfBytes": "32",
        "value": "t_mapping(t_uint256,t_mapping(t_address,t_uint256))"
      },
      "t_mapping(t_address,t_uint256)": {
        "encoding": "mapping",
        "key": "t_address",
        "label": "mapping(address => uint256)",
        "numberOfBytes": "32",
        "value": "t_uint256"
      },
      "t_mapping(t_uint256,t_mapping(t_address,t_uint256))": {
        "encoding": "mapping",
        "key": "t_uint256",
        "label": "mapping(uint256 => mapping(address => uint256))",
        "numberOfBytes": "32",
        "value": "t_mapping(t_address,t_uint256)"
      },
      "t_uint256": {
        "encoding": "inplace",
        "label": "uint256",
        "numberOfBytes": "32"
      },
      "t_uint32": {
        "encoding": "inplace",
        "label": "uint32",
        "numberOfBytes": "4"
      }
    }
  }
}