{
  "address": "0xF43D563A0Ca6e474955BA87db65552B1dc8B4a78",
  "abi": [
    {
      "anonymous": false,
      "inputs": [
        {
          "indexed": true,
          "internalType": "address",
          "name": "token",
          "type": "address"
        },
        {
          "indexed": false,
          "internalType": "uint256",
          "name": "reward",
          "type": "uint256"
        },
        {
          "indexed": false,
          "internalType": "uint32",
          "name": "duration",
          "type": "uint32"
        }
      ],
      "name": "RewardAdded",
      "type": "event"
    },
    {
      "inputs": [
        {
          "internalType": "address[]",
          "name": "controllers_",
          "type": "address[]"
        },
        {
          "internalType": "address",
          "name": "moduleMap_",
          "type": "address"
        }
      ],
      "name": "__Controlled_init",
      "outputs": [],
      "stateMutability": "nonpayable",
      "type": "function"
    },
    {
      "inputs": [
        {
          "internalType": "address",
          "name": "controller",
          "type": "address"
        }
      ],
      "name": "addController",
      "outputs": [],
      "stateMutability": "nonpayable",
      "type": "function"
    },
    {
      "inputs": [
        {
          "internalType": "address",
          "name": "recipient",
          "type": "address"
        }
      ],
      "name": "claimBiosRewards",
      "outputs": [
        {
          "internalType": "uint256",
          "name": "biosClaimed",
          "type": "uint256"
        }
      ],
      "stateMutability": "nonpayable",
      "type": "function"
    },
    {
      "inputs": [
        {
          "internalType": "address",
          "name": "token",
          "type": "address"
        },
        {
          "internalType": "address",
          "name": "account",
          "type": "address"
        }
      ],
      "name": "claimReward",
      "outputs": [
        {
          "internalType": "uint256",
          "name": "reward",
          "type": "uint256"
        }
      ],
      "stateMutability": "nonpayable",
      "type": "function"
    },
    {
      "inputs": [
        {
          "internalType": "uint256",
          "name": "",
          "type": "uint256"
        }
      ],
      "name": "controllers",
      "outputs": [
        {
          "internalType": "address",
          "name": "",
          "type": "address"
        }
      ],
      "stateMutability": "view",
      "type": "function"
    },
    {
      "inputs": [
        {
          "internalType": "address",
          "name": "token",
          "type": "address"
        },
        {
          "internalType": "address",
          "name": "account",
          "type": "address"
        },
        {
          "internalType": "uint256",
          "name": "amount",
          "type": "uint256"
        }
      ],
      "name": "decreaseRewards",
      "outputs": [],
      "stateMutability": "nonpayable",
      "type": "function"
    },
    {
      "inputs": [
        {
          "internalType": "address",
          "name": "token",
          "type": "address"
        },
        {
          "internalType": "address",
          "name": "account",
          "type": "address"
        }
      ],
      "name": "earned",
      "outputs": [
        {
          "internalType": "uint256",
          "name": "",
          "type": "uint256"
        }
      ],
      "stateMutability": "view",
      "type": "function"
    },
    {
      "inputs": [],
      "name": "getBiosRewards",
      "outputs": [
        {
          "internalType": "uint256",
          "name": "",
          "type": "uint256"
        }
      ],
      "stateMutability": "view",
      "type": "function"
    },
    {
      "inputs": [],
      "name": "getBiosRewardsDuration",
      "outputs": [
        {
          "internalType": "uint32",
          "name": "",
          "type": "uint32"
        }
      ],
      "stateMutability": "view",
      "type": "function"
    },
    {
      "inputs": [],
      "name": "getTotalClaimedBiosRewards",
      "outputs": [
        {
          "internalType": "uint256",
          "name": "",
          "type": "uint256"
        }
      ],
      "stateMutability": "view",
      "type": "function"
    },
    {
      "inputs": [
        {
          "internalType": "address",
          "name": "account",
          "type": "address"
        }
      ],
      "name": "getTotalUserClaimedBiosRewards",
      "outputs": [
        {
          "internalType": "uint256",
          "name": "",
          "type": "uint256"
        }
      ],
      "stateMutability": "view",
      "type": "function"
    },
    {
      "inputs": [
        {
          "internalType": "address",
          "name": "account",
          "type": "address"
        }
      ],
      "name": "getUserBiosRewards",
      "outputs": [
        {
          "internalType": "uint256",
          "name": "userBiosRewards",
          "type": "uint256"
        }
      ],
      "stateMutability": "view",
      "type": "function"
    },
    {
      "inputs": [],
      "name": "increaseBiosRewards",
      "outputs": [],
      "stateMutability": "nonpayable",
      "type": "function"
    },
    {
      "inputs": [
        {
          "internalType": "address",
          "name": "token",
          "type": "address"
        },
        {
          "internalType": "address",
          "name": "account",
          "type": "address"
        },
        {
          "internalType": "uint256",
          "name": "amount",
          "type": "uint256"
        }
      ],
      "name": "increaseRewards",
      "outputs": [],
      "stateMutability": "nonpayable",
      "type": "function"
    },
    {
      "inputs": [
        {
          "internalType": "address[]",
          "name": "controllers_",
          "type": "address[]"
        },
        {
          "internalType": "address",
          "name": "moduleMap_",
          "type": "address"
        },
        {
          "internalType": "uint32",
          "name": "biosRewardsDuration",
          "type": "uint32"
        }
      ],
      "name": "initialize",
      "outputs": [],
      "stateMutability": "nonpayable",
      "type": "function"
    },
    {
      "inputs": [
        {
          "internalType": "address",
          "name": "token",
          "type": "address"
        }
      ],
      "name": "lastTimeRewardApplicable",
      "outputs": [
        {
          "internalType": "uint256",
          "name": "",
          "type": "uint256"
        }
      ],
      "stateMutability": "view",
      "type": "function"
    },
    {
      "inputs": [
        {
          "internalType": "address",
          "name": "",
          "type": "address"
        }
      ],
      "name": "lastUpdateTime",
      "outputs": [
        {
          "internalType": "uint256",
          "name": "",
          "type": "uint256"
        }
      ],
      "stateMutability": "view",
      "type": "function"
    },
    {
      "inputs": [],
      "name": "moduleMap",
      "outputs": [
        {
          "internalType": "contract IModuleMap",
          "name": "",
          "type": "address"
        }
      ],
      "stateMutability": "view",
      "type": "function"
    },
    {
      "inputs": [
        {
          "internalType": "address",
          "name": "token",
          "type": "address"
        },
        {
          "internalType": "uint256",
          "name": "reward",
          "type": "uint256"
        },
        {
          "internalType": "uint32",
          "name": "duration",
          "type": "uint32"
        }
      ],
      "name": "notifyRewardAmount",
      "outputs": [],
      "stateMutability": "nonpayable",
      "type": "function"
    },
    {
      "inputs": [
        {
          "internalType": "address",
          "name": "",
          "type": "address"
        }
      ],
      "name": "periodFinish",
      "outputs": [
        {
          "internalType": "uint256",
          "name": "",
          "type": "uint256"
        }
      ],
      "stateMutability": "view",
      "type": "function"
    },
    {
      "inputs": [
        {
          "internalType": "address",
          "name": "token",
          "type": "address"
        }
      ],
      "name": "rewardPerToken",
      "outputs": [
        {
          "internalType": "uint256",
          "name": "",
          "type": "uint256"
        }
      ],
      "stateMutability": "view",
      "type": "function"
    },
    {
      "inputs": [
        {
          "internalType": "address",
          "name": "",
          "type": "address"
        }
      ],
      "name": "rewardPerTokenStored",
      "outputs": [
        {
          "internalType": "uint256",
          "name": "",
          "type": "uint256"
        }
      ],
      "stateMutability": "view",
      "type": "function"
    },
    {
      "inputs": [
        {
          "internalType": "address",
          "name": "",
          "type": "address"
        }
      ],
      "name": "rewardRate",
      "outputs": [
        {
          "internalType": "uint256",
          "name": "",
          "type": "uint256"
        }
      ],
      "stateMutability": "view",
      "type": "function"
    },
    {
      "inputs": [
        {
          "internalType": "address",
          "name": "",
          "type": "address"
        },
        {
          "internalType": "address",
          "name": "",
          "type": "address"
        }
      ],
      "name": "rewards",
      "outputs": [
        {
          "internalType": "uint256",
          "name": "",
          "type": "uint256"
        }
      ],
      "stateMutability": "view",
      "type": "function"
    },
    {
      "inputs": [
        {
          "internalType": "address",
          "name": "sender",
          "type": "address"
        },
        {
          "internalType": "uint256",
          "name": "biosAmount",
          "type": "uint256"
        }
      ],
      "name": "seedBiosRewards",
      "outputs": [],
      "stateMutability": "nonpayable",
      "type": "function"
    },
    {
      "inputs": [
        {
          "internalType": "uint32",
          "name": "biosRewardsDuration_",
          "type": "uint32"
        }
      ],
      "name": "setBiosRewardsDuration",
      "outputs": [],
      "stateMutability": "nonpayable",
      "type": "function"
    },
    {
      "inputs": [
        {
          "internalType": "address",
          "name": "",
          "type": "address"
        },
        {
          "internalType": "address",
          "name": "",
          "type": "address"
        }
      ],
      "name": "userRewardPerTokenPaid",
      "outputs": [
        {
          "internalType": "uint256",
          "name": "",
          "type": "uint256"
        }
      ],
      "stateMutability": "view",
      "type": "function"
    }
  ],
  "transactionHash": "0x9ebcbfb0363945856c653bbecc9640c27c75eb7d87e5c6ab9f9f05dc987f7428",
  "args": [],
  "solcInputHash": "3fb2c2d9111dbcc848be196eb3f217b7",
  "bytecode": "0x608060405234801561001057600080fd5b50612e1c806100206000396000f3fe608060405234801561001057600080fd5b50600436106101495760003560e01c806304abbb1c1461014e5780630f0a1c6f14610163578063182b69fd146101925780631f126bd0146101a4578063211dc32d146101b7578063221ca18c146101ca5780632ce9aead146101ea57806335f6978f1461020a57806341a275e4146102125780634953c78214610225578063638634ee14610238578063668e69611461024b57806367dc15bc146102745780637035ab9814610287578063705624cd146102b25780637af85b53146102c55780637b65fb1c146102dd57806384afeffd146102f05780638c3b32ee1461030357806398c671ce1461030b5780639ce43f901461031e578063a7fc7a071461033e578063da09d19d14610351578063e70b9e2714610371578063e94b0dd21461039c578063f1229777146103af578063f487f603146103c2575b600080fd5b61016161015c366004612b86565b6103d5565b005b60005461017c906201000090046001600160a01b031681565b6040516101899190612bbc565b60405180910390f35b6004545b604051908152602001610189565b6101616101b23660046129f6565b610523565b6101966101c53660046129be565b610667565b6101966101d8366004612986565b60076020526000908152604090205481565b6101966101f8366004612986565b60086020526000908152604090205481565b600354610196565b610161610220366004612a61565b6107f5565b6101966102333660046129be565b610805565b610196610246366004612986565b61097c565b610196610259366004612986565b6001600160a01b031660009081526005602052604090205490565b610196610282366004612986565b6109a6565b6101966102953660046129be565b600a60209081526000928352604080842090915290825290205481565b6101616102c0366004612ae2565b610b52565b600c5460405163ffffffff9091168152602001610189565b6101616102eb3660046129f6565b610be0565b6101966102fe366004612986565b610d1d565b610161610d55565b610161610319366004612a9e565b610d8e565b61019661032c366004612986565b60096020526000908152604090205481565b61016161034c366004612986565b610e8e565b61019661035f366004612986565b60066020526000908152604090205481565b61019661037f3660046129be565b600b60209081526000928352604080842090915290825290205481565b61017c6103aa366004612b56565b6110cb565b6101966103bd366004612986565b6110f5565b6101616103d0366004612a36565b6112a7565b3360009081526001602052604090205460ff1661040d5760405162461bcd60e51b815260040161040490612c79565b60405180910390fd5b600c5463ffffffff8281169116141561048d5760405162461bcd60e51b81526020600482015260486024820152600080516020612dc783398151915260448201527f696f6e3a204475726174696f6e206d7573742062652073657420746f2061206e60648201526765772076616c756560c01b608482015260a401610404565b60008163ffffffff16116105075760405162461bcd60e51b81526020600482015260476024820152600080516020612dc783398151915260448201527f696f6e3a204475726174696f6e206d7573742062652067726561746572207468606482015266616e207a65726f60c81b608482015260a401610404565b600c805463ffffffff191663ffffffff92909216919091179055565b3360009081526001602052604090205460ff166105525760405162461bcd60e51b815260040161040490612c79565b828261055d826110f5565b6001600160a01b03831660009081526009602052604090205561057f8261097c565b6001600160a01b038084166000908152600860205260409020919091558116156105f8576105ad8282610667565b6001600160a01b038084166000818152600b60209081526040808320948716808452948252808320959095559181526009825283812054600a83528482209382529290915291909120555b600083116106605760405162461bcd60e51b815260206004820152602f60248201527f42696f73526577617264733a3a6465637265617365526577617264733a20436160448201526e06e6e6f74206465637265617365203608c1b6064820152608401610404565b5050505050565b600080546040516337c61fc560e11b815282916201000090046001600160a01b031690636f8c3f8a9061069f90600190600401612bd0565b60206040518083038186803b1580156106b757600080fd5b505afa1580156106cb573d6000803e3d6000fd5b505050506040513d601f19601f820116820180604052508101906106ef91906129a2565b6001600160a01b038086166000818152600b6020908152604080832094891680845294825280832054938352600a8252808320948352939052919091205491925090670de0b6b3a764000090610744876110f5565b61074e9190612d24565b60405163168e0c9960e31b81526001600160a01b038881166004830152878116602483015285169063b47064c89060440160206040518083038186803b15801561079757600080fd5b505afa1580156107ab573d6000803e3d6000fd5b505050506040513d601f19601f820116820180604052508101906107cf9190612b6e565b6107d99190612d05565b6107e39190612ce5565b6107ed9190612ccd565b949350505050565b6108008383836114f7565b505050565b3360009081526001602052604081205460ff166108345760405162461bcd60e51b815260040161040490612c79565b828261083f826110f5565b6001600160a01b0383166000908152600960205260409020556108618261097c565b6001600160a01b038084166000908152600860205260409020919091558116156108da5761088f8282610667565b6001600160a01b038084166000818152600b60209081526040808320948716808452948252808320959095559181526009825283812054600a83528482209382529290915291909120555b6108e48585610667565b92508215610974576001600160a01b038086166000908152600b60209081526040808320938816835292905290812081905560038054859290610928908490612d24565b9250508190555082600460008282546109419190612ccd565b90915550506001600160a01b0384166000908152600560205260408120805485929061096e908490612ccd565b90915550505b505092915050565b6001600160a01b0381166000908152600660205260408120546109a0904290611720565b92915050565b600080546040516337c61fc560e11b815282916201000090046001600160a01b031690636f8c3f8a906109de90600390600401612bd0565b60206040518083038186803b1580156109f657600080fd5b505afa158015610a0a573d6000803e3d6000fd5b505050506040513d601f19601f82011682018060405250810190610a2e91906129a2565b905060005b816001600160a01b031663f35823736040518163ffffffff1660e01b815260040160206040518083038186803b158015610a6c57600080fd5b505afa158015610a80573d6000803e3d6000fd5b505050506040513d601f19601f82011682018060405250810190610aa49190612b6e565b811015610b4b57604051630cf99be760e31b815260048101829052610b2d906001600160a01b038416906367ccdf389060240160206040518083038186803b158015610aef57600080fd5b505afa158015610b03573d6000803e3d6000fd5b505050506040513d601f19601f82011682018060405250810190610b2791906129a2565b85610667565b610b379084612ccd565b925080610b4381612d67565b915050610a33565b5050919050565b600054610100900460ff1680610b6b575060005460ff16155b610b875760405162461bcd60e51b815260040161040490612c2b565b600054610100900460ff16158015610ba9576000805461ffff19166101011790555b610bb38484610d8e565b600c805463ffffffff191663ffffffff84161790558015610bda576000805461ff00191690555b50505050565b3360009081526001602052604090205460ff16610c0f5760405162461bcd60e51b815260040161040490612c79565b8282610c1a826110f5565b6001600160a01b038316600090815260096020526040902055610c3c8261097c565b6001600160a01b03808416600090815260086020526040902091909155811615610cb557610c6a8282610667565b6001600160a01b038084166000818152600b60209081526040808320948716808452948252808320959095559181526009825283812054600a83528482209382529290915291909120555b600083116106605760405162461bcd60e51b815260206004820152602f60248201527f42696f73526577617264733a3a696e637265617365526577617264733a20436160448201526e06e6e6f7420696e637265617365203608c1b6064820152608401610404565b3360009081526001602052604081205460ff16610d4c5760405162461bcd60e51b815260040161040490612c79565b6109a082611736565b3360009081526001602052604090205460ff16610d845760405162461bcd60e51b815260040161040490612c79565b610d8c611a07565b565b600054610100900460ff1680610da7575060005460ff16155b610dc35760405162461bcd60e51b815260040161040490612c2b565b600054610100900460ff16158015610de5576000805461ffff19166101011790555b60005b8351811015610e5a576001806000868481518110610e1657634e487b7160e01b600052603260045260246000fd5b6020908102919091018101516001600160a01b03168252810191909152604001600020805460ff191691151591909117905580610e5281612d67565b915050610de8565b508251610e6e906002906020860190612844565b50610e78826121e3565b8015610800576000805461ff0019169055505050565b600080546040516337c61fc560e11b8152620100009091046001600160a01b031691636f8c3f8a91610ec39190600401612bd0565b60206040518083038186803b158015610edb57600080fd5b505afa158015610eef573d6000803e3d6000fd5b505050506040513d601f19601f82011682018060405250810190610f1391906129a2565b6001600160a01b0316632f54bf6e336040518263ffffffff1660e01b8152600401610f3e9190612bbc565b60206040518083038186803b158015610f5657600080fd5b505afa158015610f6a573d6000803e3d6000fd5b505050506040513d601f19601f82011682018060405250810190610f8e9190612b36565b610fed5760405162461bcd60e51b815260206004820152602a60248201527f436f6e74726f6c6c65643a3a6f6e6c794f776e65723a2043616c6c6572206973604482015269103737ba1037bbb732b960b11b6064820152608401610404565b6001600160a01b03811660009081526001602081905260408220805460ff19169091179055805b600254811015611075576002818154811061103f57634e487b7160e01b600052603260045260246000fd5b6000918252602090912001546001600160a01b038481169116141561106357600191505b8061106d81612d67565b915050611014565b50806110c757600280546001810182556000919091527f405787fa12a823e0f2b7631cc41b3ba8828b3321ca811111fa75cd3aa3bb5ace0180546001600160a01b0319166001600160a01b0384161790555b5050565b600281815481106110db57600080fd5b6000918252602090912001546001600160a01b0316905081565b600080546040516337c61fc560e11b815282916201000090046001600160a01b031690636f8c3f8a9061112d90600190600401612bd0565b60206040518083038186803b15801561114557600080fd5b505afa158015611159573d6000803e3d6000fd5b505050506040513d601f19601f8201168201806040525081019061117d91906129a2565b6001600160a01b031663f5465992846040518263ffffffff1660e01b81526004016111a89190612bbc565b60206040518083038186803b1580156111c057600080fd5b505afa1580156111d4573d6000803e3d6000fd5b505050506040513d601f19601f820116820180604052508101906111f89190612b6e565b90508061121c5750506001600160a01b031660009081526009602052604090205490565b6001600160a01b03831660009081526007602090815260408083205460089092529091205482919061124d8661097c565b6112579190612d24565b6112619190612d05565b61127390670de0b6b3a7640000612d05565b61127d9190612ce5565b6001600160a01b0384166000908152600960205260409020546112a09190612ccd565b9392505050565b3360009081526001602052604090205460ff166112d65760405162461bcd60e51b815260040161040490612c79565b600081116113585760405162461bcd60e51b815260206004820152604360248201527f42696f73526577617264733a3a7365656442696f73526577617264733a20424960448201527f4f5320616d6f756e74206d7573742062652067726561746572207468616e207a60648201526265726f60e81b608482015260a401610404565b600080546040516337c61fc560e11b8152620100009091046001600160a01b031690636f8c3f8a9061138f90600390600401612bd0565b60206040518083038186803b1580156113a757600080fd5b505afa1580156113bb573d6000803e3d6000fd5b505050506040513d601f19601f820116820180604052508101906113df91906129a2565b6001600160a01b03166344fc9b566040518163ffffffff1660e01b815260040160206040518083038186803b15801561141757600080fd5b505afa15801561142b573d6000803e3d6000fd5b505050506040513d601f19601f8201168201806040525081019061144f91906129a2565b600080546040516337c61fc560e11b81529293506114ef928692620100009092046001600160a01b031691636f8c3f8a9161148d9190600401612bd0565b60206040518083038186803b1580156114a557600080fd5b505afa1580156114b9573d6000803e3d6000fd5b505050506040513d601f19601f820116820180604052508101906114dd91906129a2565b6001600160a01b038416919085612271565b610800611a07565b826000611503826110f5565b6001600160a01b0383166000908152600960205260409020556115258261097c565b6001600160a01b0380841660009081526008602052604090209190915581161561159e576115538282610667565b6001600160a01b038084166000818152600b60209081526040808320948716808452948252808320959095559181526009825283812054600a83528482209382529290915291909120555b6001600160a01b03851660009081526006602052604090205442106115eb576115cd63ffffffff841685612ce5565b6001600160a01b03861660009081526007602052604090205561166f565b6001600160a01b03851660009081526006602052604081205461160f904290612d24565b6001600160a01b038716600090815260076020526040812054919250906116369083612d05565b905063ffffffff85166116498288612ccd565b6116539190612ce5565b6001600160a01b03881660009081526007602052604090205550505b6001600160a01b0385166000908152600860205260409020429081905561169d9063ffffffff851690612ccd565b6001600160a01b038616600090815260066020526040812091909155600380548692906116cb908490612ccd565b90915550506040805185815263ffffffff851660208201526001600160a01b038716917f70c212f3b1a015d66b8a21bb7d6dec623050fc2fc878c5f72d30b90000414419910160405180910390a25050505050565b600081831061172f57816112a0565b5090919050565b600080546040516337c61fc560e11b815282916201000090046001600160a01b031690636f8c3f8a9061176e90600390600401612bd0565b60206040518083038186803b15801561178657600080fd5b505afa15801561179a573d6000803e3d6000fd5b505050506040513d601f19601f820116820180604052508101906117be91906129a2565b90506000816001600160a01b031663f35823736040518163ffffffff1660e01b815260040160206040518083038186803b1580156117fb57600080fd5b505afa15801561180f573d6000803e3d6000fd5b505050506040513d601f19601f820116820180604052508101906118339190612b6e565b905060005b818110156118f957604051630cf99be760e31b8152600481018290526000906001600160a01b038516906367ccdf389060240160206040518083038186803b15801561188357600080fd5b505afa158015611897573d6000803e3d6000fd5b505050506040513d601f19601f820116820180604052508101906118bb91906129a2565b905060006118c98288610667565b11156118e6576118d98187610805565b6118e39086612ccd565b94505b50806118f181612d67565b915050611838565b50600080546040516337c61fc560e11b8152610b4b92620100009092046001600160a01b031691636f8c3f8a916119339190600401612bd0565b60206040518083038186803b15801561194b57600080fd5b505afa15801561195f573d6000803e3d6000fd5b505050506040513d601f19601f8201168201806040525081019061198391906129a2565b8585856001600160a01b03166344fc9b566040518163ffffffff1660e01b815260040160206040518083038186803b1580156119be57600080fd5b505afa1580156119d2573d6000803e3d6000fd5b505050506040513d601f19601f820116820180604052508101906119f691906129a2565b6001600160a01b0316929190612271565b600080546040516337c61fc560e11b8152620100009091046001600160a01b031690636f8c3f8a90611a3d906004908101612bd0565b60206040518083038186803b158015611a5557600080fd5b505afa158015611a69573d6000803e3d6000fd5b505050506040513d601f19601f82011682018060405250810190611a8d91906129a2565b600080546040516337c61fc560e11b81529293509091620100009091046001600160a01b031690636f8c3f8a90611ac990600390600401612bd0565b60206040518083038186803b158015611ae157600080fd5b505afa158015611af5573d6000803e3d6000fd5b505050506040513d601f19601f82011682018060405250810190611b1991906129a2565b600080546040516337c61fc560e11b81529293509091620100009091046001600160a01b031690636f8c3f8a90611b5590600190600401612bd0565b60206040518083038186803b158015611b6d57600080fd5b505afa158015611b81573d6000803e3d6000fd5b505050506040513d601f19601f82011682018060405250810190611ba591906129a2565b90506000826001600160a01b03166344fc9b566040518163ffffffff1660e01b815260040160206040518083038186803b158015611be257600080fd5b505afa158015611bf6573d6000803e3d6000fd5b505050506040513d601f19601f82011682018060405250810190611c1a91906129a2565b90506000816001600160a01b03166370a08231600060029054906101000a90046001600160a01b03166001600160a01b0316636f8c3f8a60006040518263ffffffff1660e01b8152600401611c6f9190612bd0565b60206040518083038186803b158015611c8757600080fd5b505afa158015611c9b573d6000803e3d6000fd5b505050506040513d601f19601f82011682018060405250810190611cbf91906129a2565b6040518263ffffffff1660e01b8152600401611cdb9190612bbc565b60206040518083038186803b158015611cf357600080fd5b505afa158015611d07573d6000803e3d6000fd5b505050506040513d601f19601f82011682018060405250810190611d2b9190612b6e565b604051637aa32cc960e11b81529091506001600160a01b0384169063f546599290611d5a908590600401612bbc565b60206040518083038186803b158015611d7257600080fd5b505afa158015611d86573d6000803e3d6000fd5b505050506040513d601f19601f82011682018060405250810190611daa9190612b6e565b856001600160a01b03166335f6978f6040518163ffffffff1660e01b815260040160206040518083038186803b158015611de357600080fd5b505afa158015611df7573d6000803e3d6000fd5b505050506040513d601f19601f82011682018060405250810190611e1b9190612b6e565b611e259190612ccd565b8111611ea75760405162461bcd60e51b815260206004820152604560248201527f42696f73526577617264733a3a696e63726561736542696f735265776172647360448201527f3a204e6f20617661696c61626c652042494f5320746f2061646420746f207265606482015264776172647360d81b608482015260a401610404565b604051637aa32cc960e11b81526000906001600160a01b0385169063f546599290611ed6908690600401612bbc565b60206040518083038186803b158015611eee57600080fd5b505afa158015611f02573d6000803e3d6000fd5b505050506040513d601f19601f82011682018060405250810190611f269190612b6e565b866001600160a01b03166335f6978f6040518163ffffffff1660e01b815260040160206040518083038186803b158015611f5f57600080fd5b505afa158015611f73573d6000803e3d6000fd5b505050506040513d601f19601f82011682018060405250810190611f979190612b6e565b611fa19084612d24565b611fab9190612d24565b90506000856001600160a01b031663f35823736040518163ffffffff1660e01b815260040160206040518083038186803b158015611fe857600080fd5b505afa158015611ffc573d6000803e3d6000fd5b505050506040513d601f19601f820116820180604052508101906120209190612b6e565b90506000866001600160a01b0316638e7a4b186040518163ffffffff1660e01b815260040160206040518083038186803b15801561205d57600080fd5b505afa158015612071573d6000803e3d6000fd5b505050506040513d601f19601f820116820180604052508101906120959190612b6e565b905060005b828110156121d857604051630cf99be760e31b8152600481018290526000906001600160a01b038a16906367ccdf389060240160206040518083038186803b1580156120e557600080fd5b505afa1580156120f9573d6000803e3d6000fd5b505050506040513d601f19601f8201168201806040525081019061211d91906129a2565b90506000896001600160a01b0316633c43134d836040518263ffffffff1660e01b815260040161214d9190612bbc565b60206040518083038186803b15801561216557600080fd5b505afa158015612179573d6000803e3d6000fd5b505050506040513d601f19601f8201168201806040525081019061219d9190612b6e565b90506000846121ac8389612d05565b6121b69190612ce5565b90506121c283826122cb565b50505080806121d090612d67565b91505061209a565b505050505050505050565b600054610100900460ff16806121fc575060005460ff16155b6122185760405162461bcd60e51b815260040161040490612c2b565b600054610100900460ff1615801561223a576000805461ffff19166101011790555b6000805462010000600160b01b031916620100006001600160a01b0385160217905580156110c7576000805461ff00191690555050565b604080516001600160a01b0385811660248301528416604482015260648082018490528251808303909101815260849091019091526020810180516001600160e01b03166323b872dd60e01b179052610bda908590612667565b600080546040516337c61fc560e11b8152620100009091046001600160a01b031690636f8c3f8a90612301906004908101612bd0565b60206040518083038186803b15801561231957600080fd5b505afa15801561232d573d6000803e3d6000fd5b505050506040513d601f19601f8201168201806040525081019061235191906129a2565b9050806001600160a01b03166335f6978f6040518163ffffffff1660e01b815260040160206040518083038186803b15801561238c57600080fd5b505afa1580156123a0573d6000803e3d6000fd5b505050506040513d601f19601f820116820180604052508101906123c49190612b6e565b6123ce9083612ccd565b6000546040516337c61fc560e11b8152620100009091046001600160a01b031690636f8c3f8a9061240490600390600401612bd0565b60206040518083038186803b15801561241c57600080fd5b505afa158015612430573d6000803e3d6000fd5b505050506040513d601f19601f8201168201806040525081019061245491906129a2565b6001600160a01b03166344fc9b566040518163ffffffff1660e01b815260040160206040518083038186803b15801561248c57600080fd5b505afa1580156124a0573d6000803e3d6000fd5b505050506040513d601f19601f820116820180604052508101906124c491906129a2565b600080546040516337c61fc560e11b81526001600160a01b03938416936370a0823193620100009093041691636f8c3f8a916125039190600401612bd0565b60206040518083038186803b15801561251b57600080fd5b505afa15801561252f573d6000803e3d6000fd5b505050506040513d601f19601f8201168201806040525081019061255391906129a2565b6040518263ffffffff1660e01b815260040161256f9190612bbc565b60206040518083038186803b15801561258757600080fd5b505afa15801561259b573d6000803e3d6000fd5b505050506040513d601f19601f820116820180604052508101906125bf9190612b6e565b10156126515760405162461bcd60e51b815260206004820152605560248201527f42696f73526577617264733a3a696e637265617365546f6b656e42696f73526560448201527f77617264733a204e6f7420656e6f75676820617661696c61626c652042494f5360648201527408199bdc881cdc1958da599a595908185b5bdd5b9d605a1b608482015260a401610404565b600c54610800908490849063ffffffff166114f7565b60006126bc826040518060400160405280602081526020017f5361666545524332303a206c6f772d6c6576656c2063616c6c206661696c6564815250856001600160a01b03166127399092919063ffffffff16565b80519091501561080057808060200190518101906126da9190612b36565b6108005760405162461bcd60e51b815260206004820152602a60248201527f5361666545524332303a204552433230206f7065726174696f6e20646964206e6044820152691bdd081cdd58d8d9595960b21b6064820152608401610404565b60606107ed848460008585843b6127925760405162461bcd60e51b815260206004820152601d60248201527f416464726573733a2063616c6c20746f206e6f6e2d636f6e74726163740000006044820152606401610404565b600080866001600160a01b031685876040516127ae9190612ba0565b60006040518083038185875af1925050503d80600081146127eb576040519150601f19603f3d011682016040523d82523d6000602084013e6127f0565b606091505b509150915061280082828661280b565b979650505050505050565b6060831561281a5750816112a0565b82511561282a5782518084602001fd5b8160405162461bcd60e51b81526004016104049190612bf8565b828054828255906000526020600020908101928215612899579160200282015b8281111561289957825182546001600160a01b0319166001600160a01b03909116178255602090920191600190910190612864565b506128a59291506128a9565b5090565b5b808211156128a557600081556001016128aa565b80356128c981612dae565b919050565b600082601f8301126128de578081fd5b813560206001600160401b03808311156128fa576128fa612d98565b8260051b604051601f19603f8301168101818110848211171561291f5761291f612d98565b6040528481528381019250868401828801850189101561293d578687fd5b8692505b8583101561296657612952816128be565b845292840192600192909201918401612941565b50979650505050505050565b803563ffffffff811681146128c957600080fd5b600060208284031215612997578081fd5b81356112a081612dae565b6000602082840312156129b3578081fd5b81516112a081612dae565b600080604083850312156129d0578081fd5b82356129db81612dae565b915060208301356129eb81612dae565b809150509250929050565b600080600060608486031215612a0a578081fd5b8335612a1581612dae565b92506020840135612a2581612dae565b929592945050506040919091013590565b60008060408385031215612a48578182fd5b8235612a5381612dae565b946020939093013593505050565b600080600060608486031215612a75578283fd5b8335612a8081612dae565b925060208401359150612a9560408501612972565b90509250925092565b60008060408385031215612ab0578182fd5b82356001600160401b03811115612ac5578283fd5b612ad1858286016128ce565b92505060208301356129eb81612dae565b600080600060608486031215612af6578283fd5b83356001600160401b03811115612b0b578384fd5b612b17868287016128ce565b9350506020840135612b2881612dae565b9150612a9560408501612972565b600060208284031215612b47578081fd5b815180151581146112a0578182fd5b600060208284031215612b67578081fd5b5035919050565b600060208284031215612b7f578081fd5b5051919050565b600060208284031215612b97578081fd5b6112a082612972565b60008251612bb2818460208701612d3b565b9190910192915050565b6001600160a01b0391909116815260200190565b60208101600b8310612bf257634e487b7160e01b600052602160045260246000fd5b91905290565b6020815260008251806020840152612c17816040850160208701612d3b565b601f01601f19169190910160400192915050565b6020808252602e908201527f496e697469616c697a61626c653a20636f6e747261637420697320616c72656160408201526d191e481a5b9a5d1a585b1a5e995960921b606082015260800190565b60208082526034908201527f436f6e74726f6c6c65643a3a6f6e6c79436f6e74726f6c6c65723a2043616c6c60408201527332b91034b9903737ba1031b7b73a3937b63632b960611b606082015260800190565b60008219821115612ce057612ce0612d82565b500190565b600082612d0057634e487b7160e01b81526012600452602481fd5b500490565b6000816000190483118215151615612d1f57612d1f612d82565b500290565b600082821015612d3657612d36612d82565b500390565b60005b83811015612d56578181015183820152602001612d3e565b83811115610bda5750506000910152565b6000600019821415612d7b57612d7b612d82565b5060010190565b634e487b7160e01b600052601160045260246000fd5b634e487b7160e01b600052604160045260246000fd5b6001600160a01b0381168114612dc357600080fd5b5056fe42696f73526577617264733a3a73657442696f73526577617264734475726174a264697066735822122086010ed5ac27a4a4a1bc69d8b2b0c6e87603736df7f0b51c3ca1f055a816adb664736f6c63430008040033",
  "devdoc": {
    "kind": "dev",
    "methods": {
      "claimBiosRewards(address)": {
        "params": {
          "recipient": "The address of the user claiming BIOS rewards"
        }
      },
      "getBiosRewardsDuration()": {
        "returns": {
          "_0": "The Bios Rewards Duration"
        }
      },
      "notifyRewardAmount(address,uint256,uint32)": {
        "params": {
          "duration": "The duration of the rewards period",
          "reward": "The updated reward amount",
          "token": "The address of the ERC20 token contract"
        }
      },
      "seedBiosRewards(address,uint256)": {
        "params": {
          "biosAmount": "The amount of BIOS to add to rewards",
          "sender": "The account seeding BIOS rewards"
        }
      },
      "setBiosRewardsDuration(uint32)": {
        "params": {
          "biosRewardsDuration_": "The duration in seconds for a BIOS rewards period to last"
        }
      }
    },
    "version": 1
  },
  "userdoc": {
    "kind": "user",
    "methods": {
      "claimBiosRewards(address)": {
        "notice": "Allows users to claim their BIOS rewards for each token"
      },
      "increaseBiosRewards()": {
        "notice": "Sends all BIOS available in the Kernel to each token BIOS rewards pool based up configured weights"
      }
    },
    "version": 1
  },
  "storageLayout": {
    "storage": [
      {
        "astId": 722,
        "contract": "contracts/core/BiosRewards.sol:BiosRewards",
        "label": "_initialized",
        "offset": 0,
        "slot": "0",
        "type": "t_bool"
      },
      {
        "astId": 725,
        "contract": "contracts/core/BiosRewards.sol:BiosRewards",
        "label": "_initializing",
        "offset": 1,
        "slot": "0",
        "type": "t_bool"
      },
      {
        "astId": 8299,
        "contract": "contracts/core/BiosRewards.sol:BiosRewards",
        "label": "moduleMap",
        "offset": 2,
        "slot": "0",
        "type": "t_contract(IModuleMap)17371"
      },
      {
        "astId": 3467,
        "contract": "contracts/core/BiosRewards.sol:BiosRewards",
        "label": "_controllers",
        "offset": 0,
        "slot": "1",
        "type": "t_mapping(t_address,t_bool)"
      },
      {
        "astId": 3470,
        "contract": "contracts/core/BiosRewards.sol:BiosRewards",
        "label": "controllers",
        "offset": 0,
        "slot": "2",
        "type": "t_array(t_address)dyn_storage"
      },
      {
        "astId": 2553,
        "contract": "contracts/core/BiosRewards.sol:BiosRewards",
        "label": "totalBiosRewards",
        "offset": 0,
        "slot": "3",
        "type": "t_uint256"
      },
      {
        "astId": 2555,
        "contract": "contracts/core/BiosRewards.sol:BiosRewards",
        "label": "totalClaimedBiosRewards",
        "offset": 0,
        "slot": "4",
        "type": "t_uint256"
      },
      {
        "astId": 2559,
        "contract": "contracts/core/BiosRewards.sol:BiosRewards",
        "label": "totalUserClaimedBiosRewards",
        "offset": 0,
        "slot": "5",
        "type": "t_mapping(t_address,t_uint256)"
      },
      {
        "astId": 2563,
        "contract": "contracts/core/BiosRewards.sol:BiosRewards",
        "label": "periodFinish",
        "offset": 0,
        "slot": "6",
        "type": "t_mapping(t_address,t_uint256)"
      },
      {
        "astId": 2567,
        "contract": "contracts/core/BiosRewards.sol:BiosRewards",
        "label": "rewardRate",
        "offset": 0,
        "slot": "7",
        "type": "t_mapping(t_address,t_uint256)"
      },
      {
        "astId": 2571,
        "contract": "contracts/core/BiosRewards.sol:BiosRewards",
        "label": "lastUpdateTime",
        "offset": 0,
        "slot": "8",
        "type": "t_mapping(t_address,t_uint256)"
      },
      {
        "astId": 2575,
        "contract": "contracts/core/BiosRewards.sol:BiosRewards",
        "label": "rewardPerTokenStored",
        "offset": 0,
        "slot": "9",
        "type": "t_mapping(t_address,t_uint256)"
      },
      {
        "astId": 2581,
        "contract": "contracts/core/BiosRewards.sol:BiosRewards",
        "label": "userRewardPerTokenPaid",
        "offset": 0,
        "slot": "10",
        "type": "t_mapping(t_address,t_mapping(t_address,t_uint256))"
      },
      {
        "astId": 2587,
        "contract": "contracts/core/BiosRewards.sol:BiosRewards",
        "label": "rewards",
        "offset": 0,
        "slot": "11",
        "type": "t_mapping(t_address,t_mapping(t_address,t_uint256))"
      },
      {
        "astId": 2589,
        "contract": "contracts/core/BiosRewards.sol:BiosRewards",
        "label": "_biosRewardsDuration",
        "offset": 0,
        "slot": "12",
        "type": "t_uint32"
      }
    ],
    "types": {
      "t_address": {
        "encoding": "inplace",
        "label": "address",
        "numberOfBytes": "20"
      },
      "t_array(t_address)dyn_storage": {
        "base": "t_address",
        "encoding": "dynamic_array",
        "label": "address[]",
        "numberOfBytes": "32"
      },
      "t_bool": {
        "encoding": "inplace",
        "label": "bool",
        "numberOfBytes": "1"
      },
      "t_contract(IModuleMap)17371": {
        "encoding": "inplace",
        "label": "contract IModuleMap",
        "numberOfBytes": "20"
      },
      "t_mapping(t_address,t_bool)": {
        "encoding": "mapping",
        "key": "t_address",
        "label": "mapping(address => bool)",
        "numberOfBytes": "32",
        "value": "t_bool"
      },
      "t_mapping(t_address,t_mapping(t_address,t_uint256))": {
        "encoding": "mapping",
        "key": "t_address",
        "label": "mapping(address => mapping(address => uint256))",
        "numberOfBytes": "32",
        "value": "t_mapping(t_address,t_uint256)"
      },
      "t_mapping(t_address,t_uint256)": {
        "encoding": "mapping",
        "key": "t_address",
        "label": "mapping(address => uint256)",
        "numberOfBytes": "32",
        "value": "t_uint256"
      },
      "t_uint256": {
        "encoding": "inplace",
        "label": "uint256",
        "numberOfBytes": "32"
      },
      "t_uint32": {
        "encoding": "inplace",
        "label": "uint32",
        "numberOfBytes": "4"
      }
    }
  }
}