{
  "address": "0x498F85816cB4b7A62958C42B8Cc7504550A36217",
  "abi": [
    {
      "anonymous": false,
      "inputs": [
        {
          "indexed": false,
          "internalType": "address",
          "name": "newAddress",
          "type": "address"
        },
        {
          "indexed": false,
          "internalType": "address",
          "name": "oldAddress",
          "type": "address"
        }
      ],
      "name": "BiosAddressUpdated",
      "type": "event"
    },
    {
      "anonymous": false,
      "inputs": [
        {
          "indexed": true,
          "internalType": "address",
          "name": "token",
          "type": "address"
        },
        {
          "indexed": true,
          "internalType": "enum TokenSettings.TokenSettingName",
          "name": "settingName",
          "type": "uint8"
        },
        {
          "indexed": true,
          "internalType": "bool",
          "name": "newValue",
          "type": "bool"
        }
      ],
      "name": "TokenSettingToggled",
      "type": "event"
    },
    {
      "inputs": [
        {
          "internalType": "address[]",
          "name": "controllers_",
          "type": "address[]"
        },
        {
          "internalType": "address",
          "name": "moduleMap_",
          "type": "address"
        }
      ],
      "name": "__Controlled_init",
      "outputs": [],
      "stateMutability": "nonpayable",
      "type": "function"
    },
    {
      "inputs": [
        {
          "internalType": "address",
          "name": "controller",
          "type": "address"
        }
      ],
      "name": "addController",
      "outputs": [],
      "stateMutability": "nonpayable",
      "type": "function"
    },
    {
      "inputs": [
        {
          "internalType": "address",
          "name": "contractAddress",
          "type": "address"
        },
        {
          "internalType": "string",
          "name": "name",
          "type": "string"
        }
      ],
      "name": "addIntegration",
      "outputs": [],
      "stateMutability": "nonpayable",
      "type": "function"
    },
    {
      "inputs": [
        {
          "internalType": "address",
          "name": "tokenAddress",
          "type": "address"
        },
        {
          "internalType": "bool",
          "name": "acceptingDeposits",
          "type": "bool"
        },
        {
          "internalType": "bool",
          "name": "acceptingWithdrawals",
          "type": "bool"
        },
        {
          "internalType": "bool",
          "name": "acceptingLping",
          "type": "bool"
        },
        {
          "internalType": "bool",
          "name": "acceptingBridging",
          "type": "bool"
        },
        {
          "internalType": "uint256",
          "name": "biosRewardWeight",
          "type": "uint256"
        },
        {
          "internalType": "uint256",
          "name": "reserveRatioNumerator",
          "type": "uint256"
        },
        {
          "internalType": "uint256",
          "name": "targetLiquidityRatioNumerator",
          "type": "uint256"
        },
        {
          "internalType": "uint256",
          "name": "transferFeeKValueNumerator",
          "type": "uint256"
        },
        {
          "internalType": "uint256",
          "name": "transferFeePlatformRatioNumerator",
          "type": "uint256"
        }
      ],
      "name": "addToken",
      "outputs": [],
      "stateMutability": "nonpayable",
      "type": "function"
    },
    {
      "inputs": [
        {
          "internalType": "uint256",
          "name": "",
          "type": "uint256"
        }
      ],
      "name": "controllers",
      "outputs": [
        {
          "internalType": "address",
          "name": "",
          "type": "address"
        }
      ],
      "stateMutability": "view",
      "type": "function"
    },
    {
      "inputs": [
        {
          "internalType": "address",
          "name": "tokenAddress",
          "type": "address"
        }
      ],
      "name": "disableTokenBridging",
      "outputs": [],
      "stateMutability": "nonpayable",
      "type": "function"
    },
    {
      "inputs": [
        {
          "internalType": "address",
          "name": "tokenAddress",
          "type": "address"
        }
      ],
      "name": "disableTokenDeposits",
      "outputs": [],
      "stateMutability": "nonpayable",
      "type": "function"
    },
    {
      "inputs": [
        {
          "internalType": "address",
          "name": "tokenAddress",
          "type": "address"
        }
      ],
      "name": "disableTokenLping",
      "outputs": [],
      "stateMutability": "nonpayable",
      "type": "function"
    },
    {
      "inputs": [
        {
          "internalType": "address",
          "name": "tokenAddress",
          "type": "address"
        }
      ],
      "name": "disableTokenWithdrawals",
      "outputs": [],
      "stateMutability": "nonpayable",
      "type": "function"
    },
    {
      "inputs": [
        {
          "internalType": "address",
          "name": "tokenAddress",
          "type": "address"
        }
      ],
      "name": "enableTokenBridging",
      "outputs": [],
      "stateMutability": "nonpayable",
      "type": "function"
    },
    {
      "inputs": [
        {
          "internalType": "address",
          "name": "tokenAddress",
          "type": "address"
        }
      ],
      "name": "enableTokenDeposits",
      "outputs": [],
      "stateMutability": "nonpayable",
      "type": "function"
    },
    {
      "inputs": [
        {
          "internalType": "address",
          "name": "tokenAddress",
          "type": "address"
        }
      ],
      "name": "enableTokenLping",
      "outputs": [],
      "stateMutability": "nonpayable",
      "type": "function"
    },
    {
      "inputs": [
        {
          "internalType": "address",
          "name": "tokenAddress",
          "type": "address"
        }
      ],
      "name": "enableTokenWithdrawals",
      "outputs": [],
      "stateMutability": "nonpayable",
      "type": "function"
    },
    {
      "inputs": [],
      "name": "getBiosRewardWeightSum",
      "outputs": [
        {
          "internalType": "uint256",
          "name": "rewardWeightSum",
          "type": "uint256"
        }
      ],
      "stateMutability": "view",
      "type": "function"
    },
    {
      "inputs": [],
      "name": "getBiosTokenAddress",
      "outputs": [
        {
          "internalType": "address",
          "name": "",
          "type": "address"
        }
      ],
      "stateMutability": "view",
      "type": "function"
    },
    {
      "inputs": [
        {
          "internalType": "uint256",
          "name": "integrationId",
          "type": "uint256"
        }
      ],
      "name": "getIntegrationAddress",
      "outputs": [
        {
          "internalType": "address",
          "name": "",
          "type": "address"
        }
      ],
      "stateMutability": "view",
      "type": "function"
    },
    {
      "inputs": [],
      "name": "getIntegrationAddressesLength",
      "outputs": [
        {
          "internalType": "uint256",
          "name": "",
          "type": "uint256"
        }
      ],
      "stateMutability": "view",
      "type": "function"
    },
    {
      "inputs": [
        {
          "internalType": "address",
          "name": "integrationAddress",
          "type": "address"
        }
      ],
      "name": "getIntegrationName",
      "outputs": [
        {
          "internalType": "string",
          "name": "",
          "type": "string"
        }
      ],
      "stateMutability": "view",
      "type": "function"
    },
    {
      "inputs": [
        {
          "internalType": "address",
          "name": "integrationAddress",
          "type": "address"
        }
      ],
      "name": "getIsIntegrationAdded",
      "outputs": [
        {
          "internalType": "bool",
          "name": "",
          "type": "bool"
        }
      ],
      "stateMutability": "view",
      "type": "function"
    },
    {
      "inputs": [
        {
          "internalType": "address",
          "name": "tokenAddress",
          "type": "address"
        }
      ],
      "name": "getIsTokenAdded",
      "outputs": [
        {
          "internalType": "bool",
          "name": "",
          "type": "bool"
        }
      ],
      "stateMutability": "view",
      "type": "function"
    },
    {
      "inputs": [],
      "name": "getReserveRatioDenominator",
      "outputs": [
        {
          "internalType": "uint32",
          "name": "",
          "type": "uint32"
        }
      ],
      "stateMutability": "pure",
      "type": "function"
    },
    {
      "inputs": [],
      "name": "getTargetLiquidityRatioDenominator",
      "outputs": [
        {
          "internalType": "uint32",
          "name": "",
          "type": "uint32"
        }
      ],
      "stateMutability": "pure",
      "type": "function"
    },
    {
      "inputs": [
        {
          "internalType": "address",
          "name": "tokenAddress",
          "type": "address"
        }
      ],
      "name": "getTokenAcceptingBridging",
      "outputs": [
        {
          "internalType": "bool",
          "name": "",
          "type": "bool"
        }
      ],
      "stateMutability": "view",
      "type": "function"
    },
    {
      "inputs": [
        {
          "internalType": "address",
          "name": "tokenAddress",
          "type": "address"
        }
      ],
      "name": "getTokenAcceptingDeposits",
      "outputs": [
        {
          "internalType": "bool",
          "name": "",
          "type": "bool"
        }
      ],
      "stateMutability": "view",
      "type": "function"
    },
    {
      "inputs": [
        {
          "internalType": "address",
          "name": "tokenAddress",
          "type": "address"
        }
      ],
      "name": "getTokenAcceptingLping",
      "outputs": [
        {
          "internalType": "bool",
          "name": "",
          "type": "bool"
        }
      ],
      "stateMutability": "view",
      "type": "function"
    },
    {
      "inputs": [
        {
          "internalType": "address",
          "name": "tokenAddress",
          "type": "address"
        }
      ],
      "name": "getTokenAcceptingWithdrawals",
      "outputs": [
        {
          "internalType": "bool",
          "name": "",
          "type": "bool"
        }
      ],
      "stateMutability": "view",
      "type": "function"
    },
    {
      "inputs": [
        {
          "internalType": "uint256",
          "name": "tokenId",
          "type": "uint256"
        }
      ],
      "name": "getTokenAddress",
      "outputs": [
        {
          "internalType": "address",
          "name": "",
          "type": "address"
        }
      ],
      "stateMutability": "view",
      "type": "function"
    },
    {
      "inputs": [],
      "name": "getTokenAddressesLength",
      "outputs": [
        {
          "internalType": "uint256",
          "name": "",
          "type": "uint256"
        }
      ],
      "stateMutability": "view",
      "type": "function"
    },
    {
      "inputs": [
        {
          "internalType": "address",
          "name": "tokenAddress",
          "type": "address"
        }
      ],
      "name": "getTokenBiosRewardWeight",
      "outputs": [
        {
          "internalType": "uint256",
          "name": "",
          "type": "uint256"
        }
      ],
      "stateMutability": "view",
      "type": "function"
    },
    {
      "inputs": [
        {
          "internalType": "address",
          "name": "tokenAddress",
          "type": "address"
        }
      ],
      "name": "getTokenId",
      "outputs": [
        {
          "internalType": "uint256",
          "name": "",
          "type": "uint256"
        }
      ],
      "stateMutability": "view",
      "type": "function"
    },
    {
      "inputs": [
        {
          "internalType": "address",
          "name": "tokenAddress",
          "type": "address"
        }
      ],
      "name": "getTokenReserveRatioNumerator",
      "outputs": [
        {
          "internalType": "uint256",
          "name": "",
          "type": "uint256"
        }
      ],
      "stateMutability": "view",
      "type": "function"
    },
    {
      "inputs": [
        {
          "internalType": "address",
          "name": "tokenAddress",
          "type": "address"
        }
      ],
      "name": "getTokenTargetLiquidityRatioNumerator",
      "outputs": [
        {
          "internalType": "uint256",
          "name": "",
          "type": "uint256"
        }
      ],
      "stateMutability": "view",
      "type": "function"
    },
    {
      "inputs": [
        {
          "internalType": "address",
          "name": "tokenAddress",
          "type": "address"
        }
      ],
      "name": "getTokenTransferFeeKValueNumerator",
      "outputs": [
        {
          "internalType": "uint256",
          "name": "",
          "type": "uint256"
        }
      ],
      "stateMutability": "view",
      "type": "function"
    },
    {
      "inputs": [
        {
          "internalType": "address",
          "name": "tokenAddress",
          "type": "address"
        }
      ],
      "name": "getTokenTransferFeePlatformRatioNumerator",
      "outputs": [
        {
          "internalType": "uint256",
          "name": "",
          "type": "uint256"
        }
      ],
      "stateMutability": "view",
      "type": "function"
    },
    {
      "inputs": [],
      "name": "getTransferFeeKValueDenominator",
      "outputs": [
        {
          "internalType": "uint32",
          "name": "",
          "type": "uint32"
        }
      ],
      "stateMutability": "pure",
      "type": "function"
    },
    {
      "inputs": [],
      "name": "getTransferFeePlatformRatioDenominator",
      "outputs": [
        {
          "internalType": "uint32",
          "name": "",
          "type": "uint32"
        }
      ],
      "stateMutability": "pure",
      "type": "function"
    },
    {
      "inputs": [],
      "name": "getWethTokenAddress",
      "outputs": [
        {
          "internalType": "address",
          "name": "",
          "type": "address"
        }
      ],
      "stateMutability": "view",
      "type": "function"
    },
    {
      "inputs": [
        {
          "internalType": "address[]",
          "name": "controllers_",
          "type": "address[]"
        },
        {
          "internalType": "address",
          "name": "moduleMap_",
          "type": "address"
        },
        {
          "internalType": "address",
          "name": "wethTokenAddress_",
          "type": "address"
        },
        {
          "internalType": "address",
          "name": "biosTokenAddress_",
          "type": "address"
        }
      ],
      "name": "initialize",
      "outputs": [],
      "stateMutability": "nonpayable",
      "type": "function"
    },
    {
      "inputs": [],
      "name": "moduleMap",
      "outputs": [
        {
          "internalType": "contract IModuleMap",
          "name": "",
          "type": "address"
        }
      ],
      "stateMutability": "view",
      "type": "function"
    },
    {
      "inputs": [
        {
          "internalType": "address",
          "name": "biosAddress",
          "type": "address"
        }
      ],
      "name": "updateBiosTokenAddress",
      "outputs": [],
      "stateMutability": "nonpayable",
      "type": "function"
    },
    {
      "inputs": [
        {
          "internalType": "address",
          "name": "tokenAddress",
          "type": "address"
        },
        {
          "internalType": "uint256",
          "name": "reserveRatioNumerator",
          "type": "uint256"
        }
      ],
      "name": "updateTokenReserveRatioNumerator",
      "outputs": [],
      "stateMutability": "nonpayable",
      "type": "function"
    },
    {
      "inputs": [
        {
          "internalType": "address",
          "name": "tokenAddress",
          "type": "address"
        },
        {
          "internalType": "uint256",
          "name": "rewardWeight",
          "type": "uint256"
        }
      ],
      "name": "updateTokenRewardWeight",
      "outputs": [],
      "stateMutability": "nonpayable",
      "type": "function"
    },
    {
      "inputs": [
        {
          "internalType": "address",
          "name": "tokenAddress",
          "type": "address"
        },
        {
          "internalType": "uint256",
          "name": "targetLiquidityRatioNumerator",
          "type": "uint256"
        }
      ],
      "name": "updateTokenTargetLiquidityRatioNumerator",
      "outputs": [],
      "stateMutability": "nonpayable",
      "type": "function"
    },
    {
      "inputs": [
        {
          "internalType": "address",
          "name": "tokenAddress",
          "type": "address"
        },
        {
          "internalType": "uint256",
          "name": "transferFeeKValueNumerator",
          "type": "uint256"
        }
      ],
      "name": "updateTokenTransferFeeKValueNumerator",
      "outputs": [],
      "stateMutability": "nonpayable",
      "type": "function"
    },
    {
      "inputs": [
        {
          "internalType": "address",
          "name": "tokenAddress",
          "type": "address"
        },
        {
          "internalType": "uint256",
          "name": "transferFeePlatformRatioNumerator",
          "type": "uint256"
        }
      ],
      "name": "updateTokenTransferFeePlatformRatioNumerator",
      "outputs": [],
      "stateMutability": "nonpayable",
      "type": "function"
    }
  ],
  "transactionHash": "0xe4d372c1e83ff74e9315d857fc0c1def7ecd9ee2e3d255efdd9ae78f0614132b",
  "args": [],
  "solcInputHash": "7d917e1519e37740255f81b3cdc6a48d",
  "bytecode": "0x608060405234801561001057600080fd5b50613f86806100206000396000f3fe608060405234801561001057600080fd5b506004361061020f5760003560e01c80630b03cc6d146102145780630b3972cb146102295780630b883388146102515780630f0a1c6f146102645780631605691a1461028a5780631ba19e3e1461029d5780631de4fe13146102b0578063212c86b9146102dc5780632866547a146102ef5780632be5b673146103025780633c43134d146103155780634153db4e1461033657806344fc9b561461034957806348f115361461035a57806350e7fc371461036d57806357c5f3171461037e57806358fcf37a1461039157806367ccdf38146103a457806372836bcf146103b75780637d471f97146103ca5780637d6145d3146103dd5780637faa0597146103e5578063804773c81461036d57806382cb0b671461041457806385cce6ca14610427578063886560551461043a5780638b9c94891461044d5780638e591f871461045e5780638e7a4b181461047e57806394085f1c14610486578063967cb96e1461036d57806398c671ce14610499578063a703b729146104ac578063a7fc7a07146104bf578063b17f0b63146104d2578063bca5048f146104e5578063cb8a5842146104f8578063d46005b11461050b578063e87e53aa1461036d578063e94b0dd21461051e578063ea0db29614610531578063eab12c9514610544578063eec60c6e14610557578063f15376861461056a578063f35823731461057d575b600080fd5b61022761022236600461399c565b610585565b005b61023c610237366004613820565b61073b565b60405190151581526020015b60405180910390f35b61022761025f366004613820565b6107ed565b60005461027d906201000090046001600160a01b031681565b6040516102489190613abc565b610227610298366004613820565b610a7b565b61027d6102ab366004613aa4565b610cd0565b61023c6102be366004613820565b6001600160a01b031660009081526007602052604090205460ff1690565b6102276102ea366004613820565b610d90565b6102276102fd36600461399c565b610ff7565b610227610310366004613820565b61118b565b610328610323366004613820565b611330565b604051908152602001610248565b61022761034436600461399c565b6113e0565b6004546001600160a01b031661027d565b61022761036836600461399c565b6115b0565b604051620f42408152602001610248565b61022761038c366004613820565b61168f565b61023c61039f366004613820565b6118df565b61027d6103b2366004613aa4565b611985565b6103286103c5366004613820565b611a18565b6103286103d8366004613820565b611ac7565b600654610328565b61023c6103f3366004613820565b6001600160a01b031660009081526008602052604090206001015460ff1690565b610227610422366004613820565b611b8b565b610328610435366004613820565b611de4565b6102276104483660046138fb565b611ea0565b6003546001600160a01b031661027d565b61047161046c366004613820565b611fe9565b6040516102489190613af8565b610328612125565b610227610494366004613820565b6121a2565b6102276104a73660046139c7565b612405565b6102276104ba36600461385f565b6125ab565b6102276104cd366004613820565b6125f8565b61023c6104e0366004613820565b612835565b6102276104f336600461399c565b6128dc565b610227610506366004613820565b612a6b565b610227610519366004613a16565b612cb3565b61027d61052c366004613aa4565b612dcf565b61023c61053f366004613820565b612df9565b610328610552366004613820565b612ea1565b610227610565366004613820565b612f57565b610328610578366004613820565b6131b7565b600554610328565b3360009081526001602052604090205460ff166105bd5760405162461bcd60e51b81526004016105b490613c0c565b60405180910390fd5b6001600160a01b03821660009081526008602052604090206001015460ff166106505760405162461bcd60e51b815260206004820152604b6024820152600080516020613ed183398151915260448201527f6665724665654b56616c75654e756d657261746f723a20546f6b656e20646f6560648201526a1cc81b9bdd08195e1a5cdd60aa1b608482015260a4016105b4565b620f424081111561071c5760405162461bcd60e51b81526020600482015260906024820152600080516020613ed183398151915260448201527f6665724665654b56616c75654e756d657261746f723a207472616e736665724660648201527f65654b56616c75654e756d657261746f72206d757374206265206c657373207460848201527f68616e206f7220657175616c20746f207472616e7366657220666565204b2d7660a48201526f30b63ab2903232b737b6b4b730ba37b960811b60c482015260e4016105b4565b6001600160a01b03909116600090815260086020526040902060050155565b6001600160a01b03811660009081526008602052604081206001015460ff166107c55760405162461bcd60e51b81526020600482015260426024820152600080516020613d9183398151915260448201527f675769746864726177616c733a20546f6b656e20646f6573206e6f74206578696064820152611cdd60f21b608482015260a4016105b4565b506001600160a01b031660009081526008602052604090206001015462010000900460ff1690565b600080546040516337c61fc560e11b8152620100009091046001600160a01b031691636f8c3f8a916108229190600401613ad0565b60206040518083038186803b15801561083a57600080fd5b505afa15801561084e573d6000803e3d6000fd5b505050506040513d601f19601f820116820180604052508101906108729190613843565b6001600160a01b031663f3ae2415336040518263ffffffff1660e01b815260040161089d9190613abc565b60206040518083038186803b1580156108b557600080fd5b505afa1580156108c9573d6000803e3d6000fd5b505050506040513d601f19601f820116820180604052508101906108ed9190613a88565b6109095760405162461bcd60e51b81526004016105b490613bbe565b6001600160a01b03811660009081526008602052604090206001015460ff166109845760405162461bcd60e51b81526020600482015260396024820152600080516020613db18339815191526044820152781a5d1cce88151bdad95b88191bd95cc81b9bdd08195e1a5cdd603a1b60648201526084016105b4565b6001600160a01b038116600090815260086020526040902060010154610100900460ff1615610a175760405162461bcd60e51b81526020600482015260456024820152600080516020613db183398151915260448201527f6974733a20546f6b656e20616c726561647920616363657074696e67206465706064820152646f7369747360d81b608482015260a4016105b4565b6001600160a01b03811660009081526008602052604090206001908101805461ff00191661010017905560055b6040516001600160a01b038416907f964eb5cca489ded8042998dce63b255765605f648f384b9f282a95e4cbf829a290600090a450565b600080546040516337c61fc560e11b8152620100009091046001600160a01b031691636f8c3f8a91610ab09190600401613ad0565b60206040518083038186803b158015610ac857600080fd5b505afa158015610adc573d6000803e3d6000fd5b505050506040513d601f19601f82011682018060405250810190610b009190613843565b6001600160a01b031663f3ae2415336040518263ffffffff1660e01b8152600401610b2b9190613abc565b60206040518083038186803b158015610b4357600080fd5b505afa158015610b57573d6000803e3d6000fd5b505050506040513d601f19601f82011682018060405250810190610b7b9190613a88565b610b975760405162461bcd60e51b81526004016105b490613bbe565b6001600160a01b03811660009081526008602052604090206001015460ff16610c135760405162461bcd60e51b815260206004820152603a6024820152600080516020613e118339815191526044820152791cda5d1cce88151bdad95b88191bd95cc81b9bdd08195e1a5cdd60321b60648201526084016105b4565b6001600160a01b038116600090815260086020526040902060010154610100900460ff16610ca55760405162461bcd60e51b81526020600482015260456024820152600080516020613e1183398151915260448201527f736974733a20546f6b656e206465706f7369747320616c72656164792064697360648201526418589b195960da1b608482015260a4016105b4565b6001600160a01b0381166000908152600860205260408120600101805461ff00191690556005610a44565b6006546000908210610d545760405162461bcd60e51b815260206004820152604160248201527f496e746567726174696f6e4d61703a3a676574496e746567726174696f6e416460448201527f64726573733a20496e746567726174696f6e20646f6573206e6f7420657869736064820152601d60fa1b608482015260a4016105b4565b60068281548110610d7557634e487b7160e01b600052603260045260246000fd5b6000918252602090912001546001600160a01b031692915050565b600080546040516337c61fc560e11b8152620100009091046001600160a01b031691636f8c3f8a91610dc59190600401613ad0565b60206040518083038186803b158015610ddd57600080fd5b505afa158015610df1573d6000803e3d6000fd5b505050506040513d601f19601f82011682018060405250810190610e159190613843565b6001600160a01b031663f3ae2415336040518263ffffffff1660e01b8152600401610e409190613abc565b60206040518083038186803b158015610e5857600080fd5b505afa158015610e6c573d6000803e3d6000fd5b505050506040513d601f19601f82011682018060405250810190610e909190613a88565b610eac5760405162461bcd60e51b81526004016105b490613bbe565b6001600160a01b03811660009081526008602052604090206001015460ff16610f2a5760405162461bcd60e51b815260206004820152603c6024820152600080516020613e5183398151915260448201527b1c985dd85b1cce88151bdad95b88191bd95cc81b9bdd08195e1a5cdd60221b60648201526084016105b4565b6001600160a01b03811660009081526008602052604090206001015462010000900460ff1615610fc45760405162461bcd60e51b815260206004820152604b6024820152600080516020613e5183398151915260448201527f726177616c733a20546f6b656e20616c726561647920616363657074696e672060648201526a7769746864726177616c7360a81b608482015260a4016105b4565b6001600160a01b03811660009081526008602052604090206001908101805462ff00001916620100001790556006610a44565b3360009081526001602052604090205460ff166110265760405162461bcd60e51b81526004016105b490613c0c565b6001600160a01b03821660009081526008602052604090206001015460ff166110bc5760405162461bcd60e51b815260206004820152604e6024820152600080516020613e7183398151915260448201527f744c6971756964697479526174696f4e756d657261746f723a20546f6b656e2060648201526d191bd95cc81b9bdd08195e1a5cdd60921b608482015260a4016105b4565b620f424081111561116c5760405162461bcd60e51b81526020600482015260986024820152600080516020613e7183398151915260448201527f744c6971756964697479526174696f4e756d657261746f723a207461726765746064820152600080516020613e318339815191526084820152600080516020613df183398151915260a4820152773ab4b234ba3c903930ba34b7903232b737b6b4b730ba37b960411b60c482015260e4016105b4565b6001600160a01b03909116600090815260086020526040902060040155565b600080546040516337c61fc560e11b8152620100009091046001600160a01b031691636f8c3f8a916111c09190600401613ad0565b60206040518083038186803b1580156111d857600080fd5b505afa1580156111ec573d6000803e3d6000fd5b505050506040513d601f19601f820116820180604052508101906112109190613843565b6001600160a01b031663f3ae2415336040518263ffffffff1660e01b815260040161123b9190613abc565b60206040518083038186803b15801561125357600080fd5b505afa158015611267573d6000803e3d6000fd5b505050506040513d601f19601f8201168201806040525081019061128b9190613a88565b6112a75760405162461bcd60e51b81526004016105b490613bbe565b600480546001600160a01b038381166001600160a01b0319831681179093551690156112e9576112e982600180600080600080620186a0619c4061c350613257565b604080516001600160a01b038085168252831660208201527fe6de78377637a5695d2171fe3588a8fd2420a00c06f84722772c705743f3140e910160405180910390a15050565b6001600160a01b03811660009081526008602052604081206001015460ff166113c15760405162461bcd60e51b815260206004820152603e60248201527f496e746567726174696f6e4d61703a3a676574546f6b656e42696f735265776160448201527f72645765696768743a20546f6b656e20646f6573206e6f74206578697374000060648201526084016105b4565b506001600160a01b031660009081526008602052604090206002015490565b3360009081526001602052604090205460ff1661140f5760405162461bcd60e51b81526004016105b490613c0c565b6001600160a01b03821660009081526008602052604090206001015460ff166114a95760405162461bcd60e51b81526020600482015260526024820152600080516020613ed183398151915260448201527f666572466565506c6174666f726d526174696f4e756d657261746f723a20546f6064820152711ad95b88191bd95cc81b9bdd08195e1a5cdd60721b608482015260a4016105b4565b620f42408111156115915760405162461bcd60e51b81526020600482015260a56024820152600080516020613ed183398151915260448201527f666572466565506c6174666f726d526174696f4e756d657261746f723a20747260648201527f616e73666572466565506c6174666f726d526174696f4e756d657261746f722060848201527f6d757374206265206c657373207468616e206f7220657175616c20746f20747260a48201527f616e736665722066656520706c6174666f726d20726174696f2064656e6f6d6960c4820152643730ba37b960d91b60e4820152610104016105b4565b6001600160a01b03909116600090815260086020526040902060060155565b3360009081526001602052604090205460ff166115df5760405162461bcd60e51b81526004016105b490613c0c565b6001600160a01b03821660009081526008602052604090206001015460ff166116705760405162461bcd60e51b815260206004820152603d60248201527f496e746567726174696f6e4d61703a3a757064617465546f6b656e526577617260448201527f645765696768743a20546f6b656e20646f6573206e6f7420657869737400000060648201526084016105b4565b6001600160a01b03909116600090815260086020526040902060020155565b600080546040516337c61fc560e11b8152620100009091046001600160a01b031691636f8c3f8a916116c49190600401613ad0565b60206040518083038186803b1580156116dc57600080fd5b505afa1580156116f0573d6000803e3d6000fd5b505050506040513d601f19601f820116820180604052508101906117149190613843565b6001600160a01b031663f3ae2415336040518263ffffffff1660e01b815260040161173f9190613abc565b60206040518083038186803b15801561175757600080fd5b505afa15801561176b573d6000803e3d6000fd5b505050506040513d601f19601f8201168201806040525081019061178f9190613a88565b6117ab5760405162461bcd60e51b81526004016105b490613bbe565b6001600160a01b03811660009081526008602052604090206001015460ff166118235760405162461bcd60e51b81526020600482015260366024820152600080516020613dd18339815191526044820152750e88151bdad95b88191bd95cc81b9bdd08195e1a5cdd60521b60648201526084016105b4565b6001600160a01b0381166000908152600860205260409020600101546301000000900460ff16156118aa5760405162461bcd60e51b815260206004820152603f6024820152600080516020613dd183398151915260448201527f3a20546f6b656e20616c726561647920616363657074696e67204c50696e670060648201526084016105b4565b6001600160a01b03811660009081526008602052604090206001908101805463ff000000191663010000001790556007610a44565b6001600160a01b03811660009081526008602052604081206001015460ff1661195e5760405162461bcd60e51b815260206004820152603f6024820152600080516020613d9183398151915260448201527f674465706f736974733a20546f6b656e20646f6573206e6f742065786973740060648201526084016105b4565b506001600160a01b0316600090815260086020526040902060010154610100900460ff1690565b60055460009082106119f75760405162461bcd60e51b815260206004820152603560248201527f496e746567726174696f6e4d61703a3a676574546f6b656e416464726573733a60448201527408151bdad95b88191bd95cc81b9bdd08195e1a5cdd605a1b60648201526084016105b4565b60058281548110610d7557634e487b7160e01b600052603260045260246000fd5b6001600160a01b03811660009081526008602052604081206001015460ff16611aa85760405162461bcd60e51b81526020600482015260486024820152600080516020613ef183398151915260448201527f4665654b56616c75654e756d657261746f723a20546f6b656e20646f6573206e6064820152671bdd08195e1a5cdd60c21b608482015260a4016105b4565b506001600160a01b031660009081526008602052604090206005015490565b6001600160a01b03811660009081526008602052604081206001015460ff16611b6c5760405162461bcd60e51b815260206004820152604b60248201527f496e746567726174696f6e4d61703a3a676574546f6b656e5461726765744c6960448201527f71756964697479526174696f4e756d657261746f723a20546f6b656e20646f6560648201526a1cc81b9bdd08195e1a5cdd60aa1b608482015260a4016105b4565b506001600160a01b031660009081526008602052604090206004015490565b600080546040516337c61fc560e11b8152620100009091046001600160a01b031691636f8c3f8a91611bc09190600401613ad0565b60206040518083038186803b158015611bd857600080fd5b505afa158015611bec573d6000803e3d6000fd5b505050506040513d601f19601f82011682018060405250810190611c109190613843565b6001600160a01b031663f3ae2415336040518263ffffffff1660e01b8152600401611c3b9190613abc565b60206040518083038186803b158015611c5357600080fd5b505afa158015611c67573d6000803e3d6000fd5b505050506040513d601f19601f82011682018060405250810190611c8b9190613a88565b611ca75760405162461bcd60e51b81526004016105b490613bbe565b6001600160a01b03811660009081526008602052604090206001015460ff16611d235760405162461bcd60e51b815260206004820152603a6024820152600080516020613f1183398151915260448201527919da5b99ce88151bdad95b88191bd95cc81b9bdd08195e1a5cdd60321b60648201526084016105b4565b6001600160a01b038116600090815260086020526040902060010154600160201b900460ff16611db75760405162461bcd60e51b81526020600482015260456024820152600080516020613f1183398151915260448201527f67696e673a20546f6b656e206272696467696e6720616c72656164792064697360648201526418589b195960da1b608482015260a4016105b4565b6001600160a01b03811660009081526008602081905260408220600101805460ff60201b19169055610a44565b6001600160a01b03811660009081526008602052604081206001015460ff16611e815760405162461bcd60e51b815260206004820152604360248201527f496e746567726174696f6e4d61703a3a676574546f6b656e526573657276655260448201527f6174696f4e756d657261746f723a20546f6b656e20646f6573206e6f742065786064820152621a5cdd60ea1b608482015260a4016105b4565b506001600160a01b031660009081526008602052604090206003015490565b3360009081526001602052604090205460ff16611ecf5760405162461bcd60e51b81526004016105b490613c0c565b6001600160a01b03821660009081526007602052604090205460ff1615611f5a5760405162461bcd60e51b815260206004820152603960248201527f496e746567726174696f6e4d61703a3a616464496e746567726174696f6e3a20604482015278125b9d1959dc985d1a5bdb88185b1c9958591e481859191959603a1b60648201526084016105b4565b6001600160a01b0382166000908152600760209081526040909120805460ff1916600190811782558351611f959392909101918401906136ab565b5050600680546001810182556000919091527ff652222313e28459528d920b65115c16c04f3efc82aaedc97be59f3f377c0d3f0180546001600160a01b0319166001600160a01b0392909216919091179055565b6001600160a01b03811660009081526007602052604090205460609060ff1661207a5760405162461bcd60e51b815260206004820152603e60248201527f496e746567726174696f6e4d61703a3a676574496e746567726174696f6e4e6160448201527f6d653a20496e746567726174696f6e20646f6573206e6f74206578697374000060648201526084016105b4565b6001600160a01b038216600090815260076020526040902060010180546120a090613ca8565b80601f01602080910402602001604051908101604052809291908181526020018280546120cc90613ca8565b80156121195780601f106120ee57610100808354040283529160200191612119565b820191906000526020600020905b8154815290600101906020018083116120fc57829003601f168201915b50505050509050919050565b6000805b60055481101561219e57600860006005838154811061215857634e487b7160e01b600052603260045260246000fd5b60009182526020808320909101546001600160a01b0316835282019290925260400190206002015461218a9083613c90565b91508061219681613ce3565b915050612129565b5090565b600080546040516337c61fc560e11b8152620100009091046001600160a01b031691636f8c3f8a916121d79190600401613ad0565b60206040518083038186803b1580156121ef57600080fd5b505afa158015612203573d6000803e3d6000fd5b505050506040513d601f19601f820116820180604052508101906122279190613843565b6001600160a01b031663f3ae2415336040518263ffffffff1660e01b81526004016122529190613abc565b60206040518083038186803b15801561226a57600080fd5b505afa15801561227e573d6000803e3d6000fd5b505050506040513d601f19601f820116820180604052508101906122a29190613a88565b6122be5760405162461bcd60e51b81526004016105b490613bbe565b6001600160a01b03811660009081526008602052604090206001015460ff166123395760405162461bcd60e51b81526020600482015260396024820152600080516020613f318339815191526044820152781a5b99ce88151bdad95b88191bd95cc81b9bdd08195e1a5cdd603a1b60648201526084016105b4565b6001600160a01b038116600090815260086020526040902060010154600160201b900460ff16156123ce5760405162461bcd60e51b81526020600482015260456024820152600080516020613f3183398151915260448201527f696e673a20546f6b656e20616c726561647920616363657074696e67206272696064820152646467696e6760d81b608482015260a4016105b4565b6001600160a01b03811660009081526008602081905260409091206001908101805460ff60201b1916600160201b17905590610a44565b600054610100900460ff166124205760005460ff1615612424565b303b155b6124405760405162461bcd60e51b81526004016105b490613b4b565b600054610100900460ff16158015612462576000805461ffff19166101011790555b6001600160a01b0382166124885760405162461bcd60e51b81526004016105b490613b99565b60005b83518110156125005760006001600160a01b03168482815181106124bf57634e487b7160e01b600052603260045260246000fd5b60200260200101516001600160a01b031614156124ee5760405162461bcd60e51b81526004016105b490613b99565b806124f881613ce3565b91505061248b565b5060005b835181101561257657600180600086848151811061253257634e487b7160e01b600052603260045260246000fd5b6020908102919091018101516001600160a01b03168252810191909152604001600020805460ff19169115159190911790558061256e81613ce3565b915050612504565b50825161258a90600290602086019061372b565b5061259482613617565b80156125a6576000805461ff00191690555b505050565b3360009081526001602052604090205460ff166125da5760405162461bcd60e51b81526004016105b490613c0c565b6125ec8a8a8a8a8a8a8a8a8a8a613257565b50505050505050505050565b600080546040516337c61fc560e11b8152620100009091046001600160a01b031691636f8c3f8a9161262d9190600401613ad0565b60206040518083038186803b15801561264557600080fd5b505afa158015612659573d6000803e3d6000fd5b505050506040513d601f19601f8201168201806040525081019061267d9190613843565b6001600160a01b0316632f54bf6e336040518263ffffffff1660e01b81526004016126a89190613abc565b60206040518083038186803b1580156126c057600080fd5b505afa1580156126d4573d6000803e3d6000fd5b505050506040513d601f19601f820116820180604052508101906126f89190613a88565b6127575760405162461bcd60e51b815260206004820152602a60248201527f436f6e74726f6c6c65643a3a6f6e6c794f776e65723a2043616c6c6572206973604482015269103737ba1037bbb732b960b11b60648201526084016105b4565b6001600160a01b03811660009081526001602081905260408220805460ff19169091179055805b6002548110156127df57600281815481106127a957634e487b7160e01b600052603260045260246000fd5b6000918252602090912001546001600160a01b03848116911614156127cd57600191505b806127d781613ce3565b91505061277e565b508061283157600280546001810182556000919091527f405787fa12a823e0f2b7631cc41b3ba8828b3321ca811111fa75cd3aa3bb5ace0180546001600160a01b0319166001600160a01b0384161790555b5050565b6001600160a01b03811660009081526008602052604081206001015460ff166128b35760405162461bcd60e51b815260206004820152603c6024820152600080516020613d9183398151915260448201527b19d31c1a5b99ce88151bdad95b88191bd95cc81b9bdd08195e1a5cdd60221b60648201526084016105b4565b506001600160a01b03166000908152600860205260409020600101546301000000900460ff1690565b3360009081526001602052604090205460ff1661290b5760405162461bcd60e51b81526004016105b490613c0c565b6001600160a01b03821660009081526008602052604090206001015460ff166129995760405162461bcd60e51b81526020600482015260466024820152600080516020613eb183398151915260448201527f7665526174696f4e756d657261746f723a20546f6b656e20646f6573206e6f7460648201526508195e1a5cdd60d21b608482015260a4016105b4565b620f4240811115612a4c5760405162461bcd60e51b815260206004820152607f6024820152600080516020613eb183398151915260448201527f7665526174696f4e756d657261746f723a2072657365727665526174696f4e7560648201527f6d657261746f72206d757374206265206c657373207468616e206f722065717560848201527f616c20746f207265736572766520726174696f2064656e6f6d696e61746f720060a482015260c4016105b4565b6001600160a01b03909116600090815260086020526040902060030155565b600080546040516337c61fc560e11b8152620100009091046001600160a01b031691636f8c3f8a91612aa09190600401613ad0565b60206040518083038186803b158015612ab857600080fd5b505afa158015612acc573d6000803e3d6000fd5b505050506040513d601f19601f82011682018060405250810190612af09190613843565b6001600160a01b031663f3ae2415336040518263ffffffff1660e01b8152600401612b1b9190613abc565b60206040518083038186803b158015612b3357600080fd5b505afa158015612b47573d6000803e3d6000fd5b505050506040513d601f19601f82011682018060405250810190612b6b9190613a88565b612b875760405162461bcd60e51b81526004016105b490613bbe565b6001600160a01b03811660009081526008602052604090206001015460ff16612c005760405162461bcd60e51b81526020600482015260376024820152600080516020613e9183398151915260448201527619ce88151bdad95b88191bd95cc81b9bdd08195e1a5cdd604a1b60648201526084016105b4565b6001600160a01b0381166000908152600860205260409020600101546301000000900460ff16612c865760405162461bcd60e51b815260206004820152603f6024820152600080516020613e9183398151915260448201527f673a20546f6b656e204c50696e6720616c72656164792064697361626c65640060648201526084016105b4565b6001600160a01b0381166000908152600860205260408120600101805463ff000000191690556007610a44565b600054610100900460ff16612cce5760005460ff1615612cd2565b303b155b612cee5760405162461bcd60e51b81526004016105b490613b4b565b600054610100900460ff16158015612d10576000805461ffff19166101011790555b6001600160a01b038316612d365760405162461bcd60e51b81526004016105b490613b99565b612d408585612405565b600380546001600160a01b038086166001600160a01b0319928316179092556004805492851692909116919091179055612d8b836001806000808061c350620186a0619c4082613257565b6001600160a01b03821615612db657612db682600180600080600080620186a0619c40611388613257565b8015612dc8576000805461ff00191690555b5050505050565b60028181548110612ddf57600080fd5b6000918252602090912001546001600160a01b0316905081565b6001600160a01b03811660009081526008602052604081206001015460ff16612e785760405162461bcd60e51b815260206004820152603f6024820152600080516020613d9183398151915260448201527f674272696467696e673a20546f6b656e20646f6573206e6f742065786973740060648201526084016105b4565b506001600160a01b0316600090815260086020526040902060010154600160201b900460ff1690565b6001600160a01b03811660009081526008602052604081206001015460ff16612f385760405162461bcd60e51b815260206004820152604f6024820152600080516020613ef183398151915260448201527f466565506c6174666f726d526174696f4e756d657261746f723a20546f6b656e60648201526e08191bd95cc81b9bdd08195e1a5cdd608a1b608482015260a4016105b4565b506001600160a01b031660009081526008602052604090206006015490565b600080546040516337c61fc560e11b8152620100009091046001600160a01b031691636f8c3f8a91612f8c9190600401613ad0565b60206040518083038186803b158015612fa457600080fd5b505afa158015612fb8573d6000803e3d6000fd5b505050506040513d601f19601f82011682018060405250810190612fdc9190613843565b6001600160a01b031663f3ae2415336040518263ffffffff1660e01b81526004016130079190613abc565b60206040518083038186803b15801561301f57600080fd5b505afa158015613033573d6000803e3d6000fd5b505050506040513d601f19601f820116820180604052508101906130579190613a88565b6130735760405162461bcd60e51b81526004016105b490613bbe565b6001600160a01b03811660009081526008602052604090206001015460ff166130f25760405162461bcd60e51b815260206004820152603d6024820152600080516020613d7183398151915260448201527f64726177616c733a20546f6b656e20646f6573206e6f7420657869737400000060648201526084016105b4565b6001600160a01b03811660009081526008602052604090206001015462010000900460ff1661318b5760405162461bcd60e51b815260206004820152604b6024820152600080516020613d7183398151915260448201527f64726177616c733a20546f6b656e207769746864726177616c7320616c72656160648201526a191e48191a5cd8589b195960aa1b608482015260a4016105b4565b6001600160a01b0381166000908152600860205260408120600101805462ff0000191690556006610a44565b6001600160a01b03811660009081526008602052604081206001015460ff1661323b5760405162461bcd60e51b815260206004820152603060248201527f496e746567726174696f6e4d61703a3a676574546f6b656e49643a20546f6b6560448201526f1b88191bd95cc81b9bdd08195e1a5cdd60821b60648201526084016105b4565b506001600160a01b031660009081526008602052604090205490565b6001600160a01b038a1660009081526008602052604090206001015460ff1615613280576125ec565b620f424084111561332f5760405162461bcd60e51b815260206004820152606760248201527f496e746567726174696f6e4d61703a3a616464546f6b656e3a2072657365727660448201527f65526174696f4e756d657261746f72206d757374206265206c6573732074686160648201527f6e206f7220657175616c20746f207265736572766520726174696f2064656e6f60848201526636b4b730ba37b960c91b60a482015260c4016105b4565b620f42408311156133cb5760405162461bcd60e51b815260206004820152607860248201527f496e746567726174696f6e4d61703a3a616464546f6b656e3a207461726765746044820152600080516020613e318339815191526064820152600080516020613df18339815191526084820152773ab4b234ba3c903930ba34b7903232b737b6b4b730ba37b960411b60a482015260c4016105b4565b620f42408211156134745760405162461bcd60e51b81526020600482015260736024820152600080516020613d5183398151915260448201527f65724665654b56616c75654e756d657261746f72206d757374206265206c657360648201527f73207468616e206f7220657175616c20746f207472616e7366657220666565206084820152722596bb30b63ab2903232b737b6b4b730ba37b960691b60a482015260c4016105b4565b620f42408111156135315760405162461bcd60e51b81526020600482015260816024820152600080516020613d5183398151915260448201527f6572466565506c6174666f726d526174696f4e756d657261746f72206d75737460648201527f206265206c657373207468616e206f7220657175616c20746f207472616e736660848201527f65722066656520706c6174666f726d20726174696f2064656e6f6d696e61746f60a4820152603960f91b60c482015260e4016105b4565b600580546001600160a01b03909b1660008181526008602052604081209c8d556001808e0180549a1515600160201b0260ff60201b199c151563010000000263ff000000199e151562010000029e909e1663ffff0000199f15156101000261ffff19909d169c909c1783179e909e169a909a179b909b17999099169a909a1790965560028a0194909455600389019290925560048801558683015560069095019490945583549182018455929092527f036b6384b5eca791c62761152d0c79bb0604c104a5fb6f4eb0703f3154bb3db090910180546001600160a01b0319169091179055565b600054610100900460ff166136325760005460ff1615613636565b303b155b6136525760405162461bcd60e51b81526004016105b490613b4b565b600054610100900460ff16158015613674576000805461ffff19166101011790555b6000805462010000600160b01b031916620100006001600160a01b038516021790558015612831576000805461ff00191690555050565b8280546136b790613ca8565b90600052602060002090601f0160209004810192826136d9576000855561371f565b82601f106136f257805160ff191683800117855561371f565b8280016001018555821561371f579182015b8281111561371f578251825591602001919060010190613704565b5061219e929150613780565b82805482825590600052602060002090810192821561371f579160200282015b8281111561371f57825182546001600160a01b0319166001600160a01b0390911617825560209092019160019091019061374b565b5b8082111561219e5760008155600101613781565b600082601f8301126137a5578081fd5b813560206001600160401b038211156137c0576137c0613d14565b8160051b6137cf828201613c60565b8381528281019086840183880185018910156137e9578687fd5b8693505b8584101561381457803561380081613d2a565b8352600193909301929184019184016137ed565b50979650505050505050565b600060208284031215613831578081fd5b813561383c81613d2a565b9392505050565b600060208284031215613854578081fd5b815161383c81613d2a565b6000806000806000806000806000806101408b8d03121561387e578586fd5b8a3561388981613d2a565b995060208b013561389981613d42565b985060408b01356138a981613d42565b975060608b01356138b981613d42565b965060808b01356138c981613d42565b999c989b50969995989760a0870135975060c08701359660e08101359650610100810135955061012001359350915050565b6000806040838503121561390d578182fd5b823561391881613d2a565b91506020838101356001600160401b0380821115613934578384fd5b818601915086601f830112613947578384fd5b81358181111561395957613959613d14565b61396b601f8201601f19168501613c60565b91508082528784828501011115613980578485fd5b8084840185840137810190920192909252919491935090915050565b600080604083850312156139ae578182fd5b82356139b981613d2a565b946020939093013593505050565b600080604083850312156139d9578182fd5b82356001600160401b038111156139ee578283fd5b6139fa85828601613795565b9250506020830135613a0b81613d2a565b809150509250929050565b60008060008060808587031215613a2b578384fd5b84356001600160401b03811115613a40578485fd5b613a4c87828801613795565b9450506020850135613a5d81613d2a565b92506040850135613a6d81613d2a565b91506060850135613a7d81613d2a565b939692955090935050565b600060208284031215613a99578081fd5b815161383c81613d42565b600060208284031215613ab5578081fd5b5035919050565b6001600160a01b0391909116815260200190565b60208101600d8310613af257634e487b7160e01b600052602160045260246000fd5b91905290565b6000602080835283518082850152825b81811015613b2457858101830151858201604001528201613b08565b81811115613b355783604083870101525b50601f01601f1916929092016040019392505050565b6020808252602e908201527f496e697469616c697a61626c653a20636f6e747261637420697320616c72656160408201526d191e481a5b9a5d1a585b1a5e995960921b606082015260800190565b6020808252600b908201526a626164206164647265737360a81b604082015260600190565b6020808252602e908201527f436f6e74726f6c6c65643a3a6f6e6c794d616e616765723a2043616c6c65722060408201526d34b9903737ba1036b0b730b3b2b960911b606082015260800190565b60208082526034908201527f436f6e74726f6c6c65643a3a6f6e6c79436f6e74726f6c6c65723a2043616c6c60408201527332b91034b9903737ba1031b7b73a3937b63632b960611b606082015260800190565b604051601f8201601f191681016001600160401b0381118282101715613c8857613c88613d14565b604052919050565b60008219821115613ca357613ca3613cfe565b500190565b600181811c90821680613cbc57607f821691505b60208210811415613cdd57634e487b7160e01b600052602260045260246000fd5b50919050565b6000600019821415613cf757613cf7613cfe565b5060010190565b634e487b7160e01b600052601160045260246000fd5b634e487b7160e01b600052604160045260246000fd5b6001600160a01b0381168114613d3f57600080fd5b50565b8015158114613d3f57600080fdfe496e746567726174696f6e4d61703a3a616464546f6b656e3a207472616e7366496e746567726174696f6e4d61703a3a64697361626c65546f6b656e57697468496e746567726174696f6e4d61703a3a676574546f6b656e416363657074696e496e746567726174696f6e4d61703a3a656e61626c65546f6b656e4465706f73496e746567726174696f6e4d61703a3a656e61626c65546f6b656e4c70696e676c657373207468616e206f7220657175616c20746f20746172676574206c6971496e746567726174696f6e4d61703a3a64697361626c65546f6b656e4465706f4c6971756964697479526174696f4e756d657261746f72206d75737420626520496e746567726174696f6e4d61703a3a656e61626c65546f6b656e5769746864496e746567726174696f6e4d61703a3a757064617465546f6b656e5461726765496e746567726174696f6e4d61703a3a64697361626c65546f6b656e4c70696e496e746567726174696f6e4d61703a3a757064617465546f6b656e5265736572496e746567726174696f6e4d61703a3a757064617465546f6b656e5472616e73496e746567726174696f6e4d61703a3a676574546f6b656e5472616e73666572496e746567726174696f6e4d61703a3a64697361626c65546f6b656e42726964496e746567726174696f6e4d61703a3a656e61626c65546f6b656e4272696467a26469706673582212202081b0018eed3754a3c52ccd530c5dc5d495414b4639db05a51b5b59b71c226b64736f6c63430008040033",
  "devdoc": {
    "kind": "dev",
    "methods": {
      "addIntegration(address,string)": {
        "params": {
          "contractAddress": "The address of the integration contract",
          "name": "The name of the protocol being integrated to"
        }
      },
      "addToken(address,bool,bool,bool,bool,uint256,uint256,uint256,uint256,uint256)": {
        "params": {
          "acceptingDeposits": "Whether token deposits are enabled",
          "acceptingWithdrawals": "Whether token withdrawals are enabled",
          "biosRewardWeight": "Token weight for BIOS rewards",
          "reserveRatioNumerator": "Number that gets divided by reserve ratio denominator to get reserve ratio",
          "tokenAddress": "The address of the ERC20 token contract"
        }
      },
      "disableTokenBridging(address)": {
        "params": {
          "tokenAddress": "The address of the token ERC20 contract"
        }
      },
      "disableTokenDeposits(address)": {
        "params": {
          "tokenAddress": "The address of the token ERC20 contract"
        }
      },
      "disableTokenLping(address)": {
        "params": {
          "tokenAddress": "The address of the token ERC20 contract"
        }
      },
      "disableTokenWithdrawals(address)": {
        "params": {
          "tokenAddress": "The address of the token ERC20 contract"
        }
      },
      "enableTokenBridging(address)": {
        "params": {
          "tokenAddress": "The address of the token ERC20 contract"
        }
      },
      "enableTokenDeposits(address)": {
        "params": {
          "tokenAddress": "The address of the token ERC20 contract"
        }
      },
      "enableTokenLping(address)": {
        "params": {
          "tokenAddress": "The address of the token ERC20 contract"
        }
      },
      "enableTokenWithdrawals(address)": {
        "params": {
          "tokenAddress": "The address of the token ERC20 contract"
        }
      },
      "getBiosRewardWeightSum()": {
        "returns": {
          "rewardWeightSum": "reward weight of depositable tokens"
        }
      },
      "getBiosTokenAddress()": {
        "returns": {
          "_0": "The address of the BIOS token"
        }
      },
      "getIntegrationAddress(uint256)": {
        "params": {
          "integrationId": "The ID of the integration"
        },
        "returns": {
          "_0": "The address of the integration contract"
        }
      },
      "getIntegrationAddressesLength()": {
        "returns": {
          "_0": "The quantity of Integrations added"
        }
      },
      "getIntegrationName(address)": {
        "params": {
          "integrationAddress": "The address of the integration contract"
        },
        "returns": {
          "_0": "The name of the of the protocol being integrated to"
        }
      },
      "getReserveRatioDenominator()": {
        "returns": {
          "_0": "The token reserve ratio denominator"
        }
      },
      "getTargetLiquidityRatioDenominator()": {
        "returns": {
          "_0": "The target liquidity ratio denominator"
        }
      },
      "getTokenAcceptingBridging(address)": {
        "params": {
          "tokenAddress": "The address of the token ERC20 contract"
        },
        "returns": {
          "_0": "bool indicating whether Lping this token is currently enabled"
        }
      },
      "getTokenAcceptingDeposits(address)": {
        "params": {
          "tokenAddress": "The address of the token ERC20 contract"
        },
        "returns": {
          "_0": "bool indicating whether depositing this token is currently enabled"
        }
      },
      "getTokenAcceptingLping(address)": {
        "params": {
          "tokenAddress": "The address of the token ERC20 contract"
        },
        "returns": {
          "_0": "bool indicating whether Lping this token is currently enabled"
        }
      },
      "getTokenAcceptingWithdrawals(address)": {
        "params": {
          "tokenAddress": "The address of the token ERC20 contract"
        },
        "returns": {
          "_0": "bool indicating whether withdrawing this token is currently enabled"
        }
      },
      "getTokenAddress(uint256)": {
        "params": {
          "tokenId": "The ID of the token"
        },
        "returns": {
          "_0": "The address of the token ERC20 contract"
        }
      },
      "getTokenAddressesLength()": {
        "returns": {
          "_0": "The quantity of tokens added"
        }
      },
      "getTokenBiosRewardWeight(address)": {
        "params": {
          "tokenAddress": "The address of the token ERC20 contract"
        },
        "returns": {
          "_0": "The token BIOS reward weight"
        }
      },
      "getTokenId(address)": {
        "params": {
          "tokenAddress": "The address of the token ERC20 contract"
        },
        "returns": {
          "_0": "The index of the token in the tokens array"
        }
      },
      "getTokenReserveRatioNumerator(address)": {
        "params": {
          "tokenAddress": "The address of the token ERC20 contract"
        },
        "returns": {
          "_0": "The token reserve ratio numerator"
        }
      },
      "getTokenTargetLiquidityRatioNumerator(address)": {
        "params": {
          "tokenAddress": "The address of the token ERC20 contract"
        },
        "returns": {
          "_0": "The number that gets divided by target liquidity ratio denominator"
        }
      },
      "getTokenTransferFeeKValueNumerator(address)": {
        "params": {
          "tokenAddress": "The address of the token ERC20 contract"
        },
        "returns": {
          "_0": "The number that gets divided by transfer fee K-value denominator"
        }
      },
      "getTokenTransferFeePlatformRatioNumerator(address)": {
        "params": {
          "tokenAddress": "The address of the token ERC20 contract"
        },
        "returns": {
          "_0": "The number that gets divided by transfer fee platform ratio denominator"
        }
      },
      "getTransferFeeKValueDenominator()": {
        "returns": {
          "_0": "The transfer fee K-value denominator"
        }
      },
      "getTransferFeePlatformRatioDenominator()": {
        "returns": {
          "_0": "The transfer fee platform ratio denominator"
        }
      },
      "getWethTokenAddress()": {
        "returns": {
          "_0": "The address of the WETH token"
        }
      },
      "updateTokenReserveRatioNumerator(address,uint256)": {
        "params": {
          "reserveRatioNumerator": "Number that gets divided by reserve ratio denominator to get reserve ratio",
          "tokenAddress": "the address of the token ERC20 contract"
        }
      },
      "updateTokenRewardWeight(address,uint256)": {
        "params": {
          "rewardWeight": "The updated token BIOS reward weight",
          "tokenAddress": "The address of the token ERC20 contract"
        }
      },
      "updateTokenTargetLiquidityRatioNumerator(address,uint256)": {
        "params": {
          "targetLiquidityRatioNumerator": "Number that gets divided by target liquidity ratio denominator to get target liquidity ratio",
          "tokenAddress": "the address of the token ERC20 contract"
        }
      },
      "updateTokenTransferFeeKValueNumerator(address,uint256)": {
        "params": {
          "tokenAddress": "the address of the token ERC20 contract",
          "transferFeeKValueNumerator": "Number that gets divided by transfer fee K-value denominator to get K-value"
        }
      },
      "updateTokenTransferFeePlatformRatioNumerator(address,uint256)": {
        "params": {
          "tokenAddress": "the address of the token ERC20 contract",
          "transferFeePlatformRatioNumerator": "Number that gets divided by transfer fee platform ratio denominator to get the ratio of transfer fees sent to the platform instead of LPers"
        }
      }
    },
    "version": 1
  },
  "userdoc": {
    "kind": "user",
    "methods": {
      "getIntegrationAddressesLength()": {
        "notice": "Gets the length of supported integrations"
      },
      "getTokenAddressesLength()": {
        "notice": "Gets the length of supported tokens"
      }
    },
    "version": 1
  },
  "storageLayout": {
    "storage": [
      {
        "astId": 723,
        "contract": "contracts/core/IntegrationMap.sol:IntegrationMap",
        "label": "_initialized",
        "offset": 0,
        "slot": "0",
        "type": "t_bool"
      },
      {
        "astId": 726,
        "contract": "contracts/core/IntegrationMap.sol:IntegrationMap",
        "label": "_initializing",
        "offset": 1,
        "slot": "0",
        "type": "t_bool"
      },
      {
        "astId": 9911,
        "contract": "contracts/core/IntegrationMap.sol:IntegrationMap",
        "label": "moduleMap",
        "offset": 2,
        "slot": "0",
        "type": "t_contract(IModuleMap)20555"
      },
      {
        "astId": 4667,
        "contract": "contracts/core/IntegrationMap.sol:IntegrationMap",
        "label": "_controllers",
        "offset": 0,
        "slot": "1",
        "type": "t_mapping(t_address,t_bool)"
      },
      {
        "astId": 4670,
        "contract": "contracts/core/IntegrationMap.sol:IntegrationMap",
        "label": "controllers",
        "offset": 0,
        "slot": "2",
        "type": "t_array(t_address)dyn_storage"
      },
      {
        "astId": 5473,
        "contract": "contracts/core/IntegrationMap.sol:IntegrationMap",
        "label": "wethTokenAddress",
        "offset": 0,
        "slot": "3",
        "type": "t_address"
      },
      {
        "astId": 5475,
        "contract": "contracts/core/IntegrationMap.sol:IntegrationMap",
        "label": "biosTokenAddress",
        "offset": 0,
        "slot": "4",
        "type": "t_address"
      },
      {
        "astId": 5478,
        "contract": "contracts/core/IntegrationMap.sol:IntegrationMap",
        "label": "tokenAddresses",
        "offset": 0,
        "slot": "5",
        "type": "t_array(t_address)dyn_storage"
      },
      {
        "astId": 5481,
        "contract": "contracts/core/IntegrationMap.sol:IntegrationMap",
        "label": "integrationAddresses",
        "offset": 0,
        "slot": "6",
        "type": "t_array(t_address)dyn_storage"
      },
      {
        "astId": 5486,
        "contract": "contracts/core/IntegrationMap.sol:IntegrationMap",
        "label": "integrations",
        "offset": 0,
        "slot": "7",
        "type": "t_mapping(t_address,t_struct(Integration)19574_storage)"
      },
      {
        "astId": 5491,
        "contract": "contracts/core/IntegrationMap.sol:IntegrationMap",
        "label": "tokens",
        "offset": 0,
        "slot": "8",
        "type": "t_mapping(t_address,t_struct(Token)19597_storage)"
      }
    ],
    "types": {
      "t_address": {
        "encoding": "inplace",
        "label": "address",
        "numberOfBytes": "20"
      },
      "t_array(t_address)dyn_storage": {
        "base": "t_address",
        "encoding": "dynamic_array",
        "label": "address[]",
        "numberOfBytes": "32"
      },
      "t_bool": {
        "encoding": "inplace",
        "label": "bool",
        "numberOfBytes": "1"
      },
      "t_contract(IModuleMap)20555": {
        "encoding": "inplace",
        "label": "contract IModuleMap",
        "numberOfBytes": "20"
      },
      "t_mapping(t_address,t_bool)": {
        "encoding": "mapping",
        "key": "t_address",
        "label": "mapping(address => bool)",
        "numberOfBytes": "32",
        "value": "t_bool"
      },
      "t_mapping(t_address,t_struct(Integration)19574_storage)": {
        "encoding": "mapping",
        "key": "t_address",
        "label": "mapping(address => struct IIntegrationMap.Integration)",
        "numberOfBytes": "32",
        "value": "t_struct(Integration)19574_storage"
      },
      "t_mapping(t_address,t_struct(Token)19597_storage)": {
        "encoding": "mapping",
        "key": "t_address",
        "label": "mapping(address => struct IIntegrationMap.Token)",
        "numberOfBytes": "32",
        "value": "t_struct(Token)19597_storage"
      },
      "t_string_storage": {
        "encoding": "bytes",
        "label": "string",
        "numberOfBytes": "32"
      },
      "t_struct(Integration)19574_storage": {
        "encoding": "inplace",
        "label": "struct IIntegrationMap.Integration",
        "members": [
          {
            "astId": 19571,
            "contract": "contracts/core/IntegrationMap.sol:IntegrationMap",
            "label": "added",
            "offset": 0,
            "slot": "0",
            "type": "t_bool"
          },
          {
            "astId": 19573,
            "contract": "contracts/core/IntegrationMap.sol:IntegrationMap",
            "label": "name",
            "offset": 0,
            "slot": "1",
            "type": "t_string_storage"
          }
        ],
        "numberOfBytes": "64"
      },
      "t_struct(Token)19597_storage": {
        "encoding": "inplace",
        "label": "struct IIntegrationMap.Token",
        "members": [
          {
            "astId": 19576,
            "contract": "contracts/core/IntegrationMap.sol:IntegrationMap",
            "label": "id",
            "offset": 0,
            "slot": "0",
            "type": "t_uint256"
          },
          {
            "astId": 19578,
            "contract": "contracts/core/IntegrationMap.sol:IntegrationMap",
            "label": "added",
            "offset": 0,
            "slot": "1",
            "type": "t_bool"
          },
          {
            "astId": 19580,
            "contract": "contracts/core/IntegrationMap.sol:IntegrationMap",
            "label": "acceptingDeposits",
            "offset": 1,
            "slot": "1",
            "type": "t_bool"
          },
          {
            "astId": 19582,
            "contract": "contracts/core/IntegrationMap.sol:IntegrationMap",
            "label": "acceptingWithdrawals",
            "offset": 2,
            "slot": "1",
            "type": "t_bool"
          },
          {
            "astId": 19584,
            "contract": "contracts/core/IntegrationMap.sol:IntegrationMap",
            "label": "acceptingLping",
            "offset": 3,
            "slot": "1",
            "type": "t_bool"
          },
          {
            "astId": 19586,
            "contract": "contracts/core/IntegrationMap.sol:IntegrationMap",
            "label": "acceptingBridging",
            "offset": 4,
            "slot": "1",
            "type": "t_bool"
          },
          {
            "astId": 19588,
            "contract": "contracts/core/IntegrationMap.sol:IntegrationMap",
            "label": "biosRewardWeight",
            "offset": 0,
            "slot": "2",
            "type": "t_uint256"
          },
          {
            "astId": 19590,
            "contract": "contracts/core/IntegrationMap.sol:IntegrationMap",
            "label": "reserveRatioNumerator",
            "offset": 0,
            "slot": "3",
            "type": "t_uint256"
          },
          {
            "astId": 19592,
            "contract": "contracts/core/IntegrationMap.sol:IntegrationMap",
            "label": "targetLiquidityRatioNumerator",
            "offset": 0,
            "slot": "4",
            "type": "t_uint256"
          },
          {
            "astId": 19594,
            "contract": "contracts/core/IntegrationMap.sol:IntegrationMap",
            "label": "transferFeeKValueNumerator",
            "offset": 0,
            "slot": "5",
            "type": "t_uint256"
          },
          {
            "astId": 19596,
            "contract": "contracts/core/IntegrationMap.sol:IntegrationMap",
            "label": "transferFeePlatformRatioNumerator",
            "offset": 0,
            "slot": "6",
            "type": "t_uint256"
          }
        ],
        "numberOfBytes": "224"
      },
      "t_uint256": {
        "encoding": "inplace",
        "label": "uint256",
        "numberOfBytes": "32"
      }
    }
  }
}