{
  "address": "0x6D8fC370a4513bC86115d7735a396e20cd9AeE74",
  "abi": [
    {
      "anonymous": false,
      "inputs": [],
      "name": "BiosBuyBack",
      "type": "event"
    },
    {
      "anonymous": false,
      "inputs": [
        {
          "indexed": true,
          "internalType": "address",
          "name": "user",
          "type": "address"
        },
        {
          "indexed": false,
          "internalType": "uint256",
          "name": "biosRewards",
          "type": "uint256"
        }
      ],
      "name": "ClaimBiosRewards",
      "type": "event"
    },
    {
      "anonymous": false,
      "inputs": [
        {
          "indexed": true,
          "internalType": "address",
          "name": "user",
          "type": "address"
        },
        {
          "indexed": false,
          "internalType": "uint256[]",
          "name": "strategies",
          "type": "uint256[]"
        },
        {
          "indexed": false,
          "internalType": "uint256",
          "name": "ethRewards",
          "type": "uint256"
        }
      ],
      "name": "ClaimEthRewards",
      "type": "event"
    },
    {
      "anonymous": false,
      "inputs": [],
      "name": "Deploy",
      "type": "event"
    },
    {
      "anonymous": false,
      "inputs": [],
      "name": "DistributeEth",
      "type": "event"
    },
    {
      "anonymous": false,
      "inputs": [
        {
          "indexed": false,
          "internalType": "uint32",
          "name": "biosBuyBackEthWeight",
          "type": "uint32"
        },
        {
          "indexed": false,
          "internalType": "uint32",
          "name": "treasuryEthWeight",
          "type": "uint32"
        },
        {
          "indexed": false,
          "internalType": "uint32",
          "name": "protocolFeeEthWeight",
          "type": "uint32"
        },
        {
          "indexed": false,
          "internalType": "uint32",
          "name": "rewardsEthWeight",
          "type": "uint32"
        }
      ],
      "name": "EthDistributionWeightsUpdated",
      "type": "event"
    },
    {
      "anonymous": false,
      "inputs": [
        {
          "indexed": false,
          "internalType": "uint256",
          "name": "gasAccountTargetEthBalance",
          "type": "uint256"
        }
      ],
      "name": "GasAccountTargetEthBalanceUpdated",
      "type": "event"
    },
    {
      "anonymous": false,
      "inputs": [
        {
          "indexed": false,
          "internalType": "address",
          "name": "gasAccount",
          "type": "address"
        }
      ],
      "name": "GasAccountUpdated",
      "type": "event"
    },
    {
      "anonymous": false,
      "inputs": [],
      "name": "HarvestYield",
      "type": "event"
    },
    {
      "anonymous": false,
      "inputs": [
        {
          "indexed": true,
          "internalType": "address",
          "name": "contractAddress",
          "type": "address"
        },
        {
          "indexed": false,
          "internalType": "string",
          "name": "name",
          "type": "string"
        }
      ],
      "name": "IntegrationAdded",
      "type": "event"
    },
    {
      "anonymous": false,
      "inputs": [
        {
          "indexed": true,
          "internalType": "bytes32",
          "name": "role",
          "type": "bytes32"
        },
        {
          "indexed": true,
          "internalType": "bytes32",
          "name": "previousAdminRole",
          "type": "bytes32"
        },
        {
          "indexed": true,
          "internalType": "bytes32",
          "name": "newAdminRole",
          "type": "bytes32"
        }
      ],
      "name": "RoleAdminChanged",
      "type": "event"
    },
    {
      "anonymous": false,
      "inputs": [
        {
          "indexed": true,
          "internalType": "bytes32",
          "name": "role",
          "type": "bytes32"
        },
        {
          "indexed": true,
          "internalType": "address",
          "name": "account",
          "type": "address"
        },
        {
          "indexed": true,
          "internalType": "address",
          "name": "sender",
          "type": "address"
        }
      ],
      "name": "RoleGranted",
      "type": "event"
    },
    {
      "anonymous": false,
      "inputs": [
        {
          "indexed": true,
          "internalType": "bytes32",
          "name": "role",
          "type": "bytes32"
        },
        {
          "indexed": true,
          "internalType": "address",
          "name": "account",
          "type": "address"
        },
        {
          "indexed": true,
          "internalType": "address",
          "name": "sender",
          "type": "address"
        }
      ],
      "name": "RoleRevoked",
      "type": "event"
    },
    {
      "anonymous": false,
      "inputs": [
        {
          "indexed": false,
          "internalType": "uint256",
          "name": "biosAmount",
          "type": "uint256"
        }
      ],
      "name": "SeedBiosRewards",
      "type": "event"
    },
    {
      "anonymous": false,
      "inputs": [
        {
          "indexed": false,
          "internalType": "uint32",
          "name": "biosRewardsDuration",
          "type": "uint32"
        }
      ],
      "name": "SetBiosRewardsDuration",
      "type": "event"
    },
    {
      "anonymous": false,
      "inputs": [
        {
          "indexed": true,
          "internalType": "address",
          "name": "tokenAddress",
          "type": "address"
        },
        {
          "indexed": false,
          "internalType": "bool",
          "name": "acceptingDeposits",
          "type": "bool"
        },
        {
          "indexed": false,
          "internalType": "bool",
          "name": "acceptingWithdrawals",
          "type": "bool"
        },
        {
          "indexed": false,
          "internalType": "bool",
          "name": "acceptingLping",
          "type": "bool"
        },
        {
          "indexed": false,
          "internalType": "bool",
          "name": "acceptingBridging",
          "type": "bool"
        },
        {
          "indexed": false,
          "internalType": "uint256",
          "name": "biosRewardWeight",
          "type": "uint256"
        },
        {
          "indexed": false,
          "internalType": "uint256",
          "name": "reserveRatioNumerator",
          "type": "uint256"
        },
        {
          "indexed": false,
          "internalType": "uint256",
          "name": "targetLiquidityRatioNumerator",
          "type": "uint256"
        },
        {
          "indexed": false,
          "internalType": "uint256",
          "name": "transferFeeKValueNumerator",
          "type": "uint256"
        },
        {
          "indexed": false,
          "internalType": "uint256",
          "name": "transferFeePlatformRatioNumerator",
          "type": "uint256"
        }
      ],
      "name": "TokenAdded",
      "type": "event"
    },
    {
      "anonymous": false,
      "inputs": [
        {
          "indexed": true,
          "internalType": "address",
          "name": "token",
          "type": "address"
        },
        {
          "indexed": true,
          "internalType": "enum TokenSettings.TokenSettingName",
          "name": "settingName",
          "type": "uint8"
        },
        {
          "indexed": true,
          "internalType": "uint256",
          "name": "newValue",
          "type": "uint256"
        }
      ],
      "name": "TokenSettingUpdated",
      "type": "event"
    },
    {
      "anonymous": false,
      "inputs": [
        {
          "indexed": false,
          "internalType": "address",
          "name": "treasuryAccount",
          "type": "address"
        }
      ],
      "name": "TreasuryAccountUpdated",
      "type": "event"
    },
    {
      "anonymous": false,
      "inputs": [
        {
          "indexed": true,
          "internalType": "address",
          "name": "user",
          "type": "address"
        },
        {
          "indexed": false,
          "internalType": "address[]",
          "name": "tokens",
          "type": "address[]"
        },
        {
          "indexed": false,
          "internalType": "uint256[]",
          "name": "tokenAmounts",
          "type": "uint256[]"
        },
        {
          "indexed": false,
          "internalType": "uint256",
          "name": "ethAmount",
          "type": "uint256"
        }
      ],
      "name": "Withdraw",
      "type": "event"
    },
    {
      "anonymous": false,
      "inputs": [
        {
          "indexed": true,
          "internalType": "address",
          "name": "user",
          "type": "address"
        },
        {
          "indexed": false,
          "internalType": "address[]",
          "name": "tokens",
          "type": "address[]"
        },
        {
          "indexed": false,
          "internalType": "uint256[]",
          "name": "strategies",
          "type": "uint256[]"
        },
        {
          "indexed": false,
          "internalType": "bool",
          "name": "withdrawWethAsEth",
          "type": "bool"
        },
        {
          "indexed": false,
          "internalType": "uint256[]",
          "name": "tokenAmounts",
          "type": "uint256[]"
        },
        {
          "indexed": false,
          "internalType": "uint256",
          "name": "ethWithdrawn",
          "type": "uint256"
        },
        {
          "indexed": false,
          "internalType": "uint256",
          "name": "ethRewards",
          "type": "uint256"
        },
        {
          "indexed": false,
          "internalType": "uint256",
          "name": "biosRewards",
          "type": "uint256"
        }
      ],
      "name": "WithdrawAllAndClaim",
      "type": "event"
    },
    {
      "inputs": [],
      "name": "DEFAULT_ADMIN_ROLE",
      "outputs": [
        {
          "internalType": "bytes32",
          "name": "",
          "type": "bytes32"
        }
      ],
      "stateMutability": "view",
      "type": "function"
    },
    {
      "inputs": [],
      "name": "LIQUIDITY_PROVIDER_ROLE",
      "outputs": [
        {
          "internalType": "bytes32",
          "name": "",
          "type": "bytes32"
        }
      ],
      "stateMutability": "view",
      "type": "function"
    },
    {
      "inputs": [],
      "name": "MANAGER_ROLE",
      "outputs": [
        {
          "internalType": "bytes32",
          "name": "",
          "type": "bytes32"
        }
      ],
      "stateMutability": "view",
      "type": "function"
    },
    {
      "inputs": [],
      "name": "OWNER_ROLE",
      "outputs": [
        {
          "internalType": "bytes32",
          "name": "",
          "type": "bytes32"
        }
      ],
      "stateMutability": "view",
      "type": "function"
    },
    {
      "inputs": [
        {
          "internalType": "address",
          "name": "contractAddress",
          "type": "address"
        },
        {
          "internalType": "string",
          "name": "name",
          "type": "string"
        }
      ],
      "name": "addIntegration",
      "outputs": [],
      "stateMutability": "nonpayable",
      "type": "function"
    },
    {
      "inputs": [
        {
          "internalType": "address",
          "name": "tokenAddress",
          "type": "address"
        },
        {
          "internalType": "bool",
          "name": "acceptingDeposits",
          "type": "bool"
        },
        {
          "internalType": "bool",
          "name": "acceptingWithdrawals",
          "type": "bool"
        },
        {
          "internalType": "bool",
          "name": "acceptingLping",
          "type": "bool"
        },
        {
          "internalType": "bool",
          "name": "acceptingBridging",
          "type": "bool"
        },
        {
          "internalType": "uint256",
          "name": "biosRewardWeight",
          "type": "uint256"
        },
        {
          "internalType": "uint256",
          "name": "reserveRatioNumerator",
          "type": "uint256"
        },
        {
          "internalType": "uint256",
          "name": "targetLiquidityRatioNumerator",
          "type": "uint256"
        },
        {
          "internalType": "uint256",
          "name": "transferFeeKValueNumerator",
          "type": "uint256"
        },
        {
          "internalType": "uint256",
          "name": "transferFeePlatformRatioNumerator",
          "type": "uint256"
        }
      ],
      "name": "addToken",
      "outputs": [],
      "stateMutability": "nonpayable",
      "type": "function"
    },
    {
      "inputs": [
        {
          "internalType": "uint256",
          "name": "ratioX1000",
          "type": "uint256"
        }
      ],
      "name": "biosBuyBack",
      "outputs": [],
      "stateMutability": "nonpayable",
      "type": "function"
    },
    {
      "inputs": [
        {
          "internalType": "uint256[]",
          "name": "strategies",
          "type": "uint256[]"
        }
      ],
      "name": "claimAllRewards",
      "outputs": [
        {
          "internalType": "uint256",
          "name": "ethClaimed",
          "type": "uint256"
        },
        {
          "internalType": "uint256",
          "name": "biosClaimed",
          "type": "uint256"
        }
      ],
      "stateMutability": "nonpayable",
      "type": "function"
    },
    {
      "inputs": [],
      "name": "claimBiosRewards",
      "outputs": [
        {
          "internalType": "uint256",
          "name": "biosClaimed",
          "type": "uint256"
        }
      ],
      "stateMutability": "nonpayable",
      "type": "function"
    },
    {
      "inputs": [
        {
          "internalType": "uint256[]",
          "name": "strategies",
          "type": "uint256[]"
        }
      ],
      "name": "claimEthRewards",
      "outputs": [
        {
          "internalType": "uint256",
          "name": "ethClaimed",
          "type": "uint256"
        }
      ],
      "stateMutability": "nonpayable",
      "type": "function"
    },
    {
      "inputs": [
        {
          "internalType": "address[]",
          "name": "tokens",
          "type": "address[]"
        }
      ],
      "name": "claimLpFees",
      "outputs": [],
      "stateMutability": "nonpayable",
      "type": "function"
    },
    {
      "inputs": [
        {
          "components": [
            {
              "internalType": "address",
              "name": "integration",
              "type": "address"
            },
            {
              "internalType": "address[]",
              "name": "tokens",
              "type": "address[]"
            },
            {
              "internalType": "uint32",
              "name": "ammPoolID",
              "type": "uint32"
            }
          ],
          "internalType": "struct IYieldManager.DeployRequest[]",
          "name": "deployments",
          "type": "tuple[]"
        }
      ],
      "name": "deploy",
      "outputs": [],
      "stateMutability": "nonpayable",
      "type": "function"
    },
    {
      "inputs": [
        {
          "internalType": "address[]",
          "name": "tokens",
          "type": "address[]"
        },
        {
          "internalType": "uint256[]",
          "name": "amounts",
          "type": "uint256[]"
        }
      ],
      "name": "deposit",
      "outputs": [],
      "stateMutability": "payable",
      "type": "function"
    },
    {
      "inputs": [],
      "name": "disableLpWhitelist",
      "outputs": [],
      "stateMutability": "nonpayable",
      "type": "function"
    },
    {
      "inputs": [
        {
          "internalType": "uint256[]",
          "name": "strategies",
          "type": "uint256[]"
        },
        {
          "internalType": "uint256[]",
          "name": "positions",
          "type": "uint256[]"
        },
        {
          "internalType": "uint256",
          "name": "biosAmount",
          "type": "uint256"
        }
      ],
      "name": "distributeEth",
      "outputs": [],
      "stateMutability": "nonpayable",
      "type": "function"
    },
    {
      "inputs": [],
      "name": "enableLpWhitelist",
      "outputs": [],
      "stateMutability": "nonpayable",
      "type": "function"
    },
    {
      "inputs": [],
      "name": "getEthRewardsTimePeriod",
      "outputs": [
        {
          "internalType": "uint256",
          "name": "ethRewardsTimePeriod",
          "type": "uint256"
        }
      ],
      "stateMutability": "view",
      "type": "function"
    },
    {
      "inputs": [],
      "name": "getLastBiosBuyBackTimestamp",
      "outputs": [
        {
          "internalType": "uint256",
          "name": "",
          "type": "uint256"
        }
      ],
      "stateMutability": "view",
      "type": "function"
    },
    {
      "inputs": [],
      "name": "getLastDeployTimestamp",
      "outputs": [
        {
          "internalType": "uint256",
          "name": "",
          "type": "uint256"
        }
      ],
      "stateMutability": "view",
      "type": "function"
    },
    {
      "inputs": [],
      "name": "getLastDistributeEthTimestamp",
      "outputs": [
        {
          "internalType": "uint256",
          "name": "",
          "type": "uint256"
        }
      ],
      "stateMutability": "view",
      "type": "function"
    },
    {
      "inputs": [],
      "name": "getLpWhitelistEnabled",
      "outputs": [
        {
          "internalType": "bool",
          "name": "",
          "type": "bool"
        }
      ],
      "stateMutability": "view",
      "type": "function"
    },
    {
      "inputs": [
        {
          "internalType": "bytes32",
          "name": "role",
          "type": "bytes32"
        }
      ],
      "name": "getRoleAdmin",
      "outputs": [
        {
          "internalType": "bytes32",
          "name": "",
          "type": "bytes32"
        }
      ],
      "stateMutability": "view",
      "type": "function"
    },
    {
      "inputs": [
        {
          "internalType": "bytes32",
          "name": "role",
          "type": "bytes32"
        },
        {
          "internalType": "uint256",
          "name": "index",
          "type": "uint256"
        }
      ],
      "name": "getRoleMember",
      "outputs": [
        {
          "internalType": "address",
          "name": "",
          "type": "address"
        }
      ],
      "stateMutability": "view",
      "type": "function"
    },
    {
      "inputs": [
        {
          "internalType": "bytes32",
          "name": "role",
          "type": "bytes32"
        }
      ],
      "name": "getRoleMemberCount",
      "outputs": [
        {
          "internalType": "uint256",
          "name": "",
          "type": "uint256"
        }
      ],
      "stateMutability": "view",
      "type": "function"
    },
    {
      "inputs": [
        {
          "internalType": "bytes32",
          "name": "role",
          "type": "bytes32"
        },
        {
          "internalType": "address",
          "name": "account",
          "type": "address"
        }
      ],
      "name": "grantRole",
      "outputs": [],
      "stateMutability": "nonpayable",
      "type": "function"
    },
    {
      "inputs": [
        {
          "internalType": "bytes32",
          "name": "role",
          "type": "bytes32"
        },
        {
          "internalType": "address",
          "name": "account",
          "type": "address"
        }
      ],
      "name": "hasRole",
      "outputs": [
        {
          "internalType": "bool",
          "name": "",
          "type": "bool"
        }
      ],
      "stateMutability": "view",
      "type": "function"
    },
    {
      "inputs": [
        {
          "internalType": "address",
          "name": "admin_",
          "type": "address"
        },
        {
          "internalType": "address",
          "name": "owner_",
          "type": "address"
        },
        {
          "internalType": "address",
          "name": "moduleMap_",
          "type": "address"
        }
      ],
      "name": "initialize",
      "outputs": [],
      "stateMutability": "nonpayable",
      "type": "function"
    },
    {
      "inputs": [
        {
          "internalType": "address",
          "name": "account",
          "type": "address"
        }
      ],
      "name": "isLiquidityProvider",
      "outputs": [
        {
          "internalType": "bool",
          "name": "",
          "type": "bool"
        }
      ],
      "stateMutability": "view",
      "type": "function"
    },
    {
      "inputs": [
        {
          "internalType": "address",
          "name": "account",
          "type": "address"
        }
      ],
      "name": "isManager",
      "outputs": [
        {
          "internalType": "bool",
          "name": "",
          "type": "bool"
        }
      ],
      "stateMutability": "view",
      "type": "function"
    },
    {
      "inputs": [
        {
          "internalType": "address",
          "name": "account",
          "type": "address"
        }
      ],
      "name": "isOwner",
      "outputs": [
        {
          "internalType": "bool",
          "name": "",
          "type": "bool"
        }
      ],
      "stateMutability": "view",
      "type": "function"
    },
    {
      "inputs": [],
      "name": "moduleMap",
      "outputs": [
        {
          "internalType": "contract IModuleMap",
          "name": "",
          "type": "address"
        }
      ],
      "stateMutability": "view",
      "type": "function"
    },
    {
      "inputs": [
        {
          "internalType": "address[]",
          "name": "tokens",
          "type": "address[]"
        },
        {
          "internalType": "uint256[]",
          "name": "amounts",
          "type": "uint256[]"
        }
      ],
      "name": "provideLiquidity",
      "outputs": [],
      "stateMutability": "nonpayable",
      "type": "function"
    },
    {
      "inputs": [
        {
          "internalType": "bytes32",
          "name": "role",
          "type": "bytes32"
        },
        {
          "internalType": "address",
          "name": "account",
          "type": "address"
        }
      ],
      "name": "renounceRole",
      "outputs": [],
      "stateMutability": "nonpayable",
      "type": "function"
    },
    {
      "inputs": [
        {
          "internalType": "bytes32",
          "name": "role",
          "type": "bytes32"
        },
        {
          "internalType": "address",
          "name": "account",
          "type": "address"
        }
      ],
      "name": "revokeRole",
      "outputs": [],
      "stateMutability": "nonpayable",
      "type": "function"
    },
    {
      "inputs": [
        {
          "internalType": "uint256",
          "name": "biosAmount",
          "type": "uint256"
        }
      ],
      "name": "seedBiosRewards",
      "outputs": [],
      "stateMutability": "nonpayable",
      "type": "function"
    },
    {
      "inputs": [
        {
          "internalType": "uint32",
          "name": "biosRewardsDuration",
          "type": "uint32"
        }
      ],
      "name": "setBiosRewardsDuration",
      "outputs": [],
      "stateMutability": "nonpayable",
      "type": "function"
    },
    {
      "inputs": [
        {
          "internalType": "bytes4",
          "name": "interfaceId",
          "type": "bytes4"
        }
      ],
      "name": "supportsInterface",
      "outputs": [
        {
          "internalType": "bool",
          "name": "",
          "type": "bool"
        }
      ],
      "stateMutability": "view",
      "type": "function"
    },
    {
      "inputs": [
        {
          "internalType": "address[]",
          "name": "tokens",
          "type": "address[]"
        },
        {
          "internalType": "uint256[]",
          "name": "amounts",
          "type": "uint256[]"
        }
      ],
      "name": "takeLiquidity",
      "outputs": [],
      "stateMutability": "nonpayable",
      "type": "function"
    },
    {
      "inputs": [],
      "name": "tokenApprovals",
      "outputs": [],
      "stateMutability": "nonpayable",
      "type": "function"
    },
    {
      "inputs": [
        {
          "internalType": "uint32",
          "name": "biosBuyBackEthWeight",
          "type": "uint32"
        },
        {
          "internalType": "uint32",
          "name": "treasuryEthWeight",
          "type": "uint32"
        },
        {
          "internalType": "uint32",
          "name": "protocolFeeEthWeight",
          "type": "uint32"
        },
        {
          "internalType": "uint32",
          "name": "rewardsEthWeight",
          "type": "uint32"
        }
      ],
      "name": "updateEthDistributionWeights",
      "outputs": [],
      "stateMutability": "nonpayable",
      "type": "function"
    },
    {
      "inputs": [
        {
          "internalType": "address payable",
          "name": "gasAccount",
          "type": "address"
        }
      ],
      "name": "updateGasAccount",
      "outputs": [],
      "stateMutability": "nonpayable",
      "type": "function"
    },
    {
      "inputs": [
        {
          "internalType": "uint256",
          "name": "gasAccountTargetEthBalance",
          "type": "uint256"
        }
      ],
      "name": "updateGasAccountTargetEthBalance",
      "outputs": [],
      "stateMutability": "nonpayable",
      "type": "function"
    },
    {
      "inputs": [
        {
          "internalType": "address",
          "name": "tokenAddress",
          "type": "address"
        },
        {
          "internalType": "uint256",
          "name": "reserveRatioNumerator",
          "type": "uint256"
        }
      ],
      "name": "updateTokenReserveRatioNumerator",
      "outputs": [],
      "stateMutability": "nonpayable",
      "type": "function"
    },
    {
      "inputs": [
        {
          "internalType": "address",
          "name": "tokenAddress",
          "type": "address"
        },
        {
          "internalType": "uint256",
          "name": "updatedWeight",
          "type": "uint256"
        }
      ],
      "name": "updateTokenRewardWeight",
      "outputs": [],
      "stateMutability": "nonpayable",
      "type": "function"
    },
    {
      "inputs": [
        {
          "internalType": "address",
          "name": "tokenAddress",
          "type": "address"
        },
        {
          "internalType": "uint256",
          "name": "targetLiquidityRatioNumerator",
          "type": "uint256"
        }
      ],
      "name": "updateTokenTargetLiquidityRatioNumerator",
      "outputs": [],
      "stateMutability": "nonpayable",
      "type": "function"
    },
    {
      "inputs": [
        {
          "internalType": "address",
          "name": "tokenAddress",
          "type": "address"
        },
        {
          "internalType": "uint256",
          "name": "transferFeeKValueNumerator",
          "type": "uint256"
        }
      ],
      "name": "updateTokenTransferFeeKValueNumerator",
      "outputs": [],
      "stateMutability": "nonpayable",
      "type": "function"
    },
    {
      "inputs": [
        {
          "internalType": "address",
          "name": "tokenAddress",
          "type": "address"
        },
        {
          "internalType": "uint256",
          "name": "transferFeePlatformRatioNumerator",
          "type": "uint256"
        }
      ],
      "name": "updateTokenTransferFeePlatformRatioNumerator",
      "outputs": [],
      "stateMutability": "nonpayable",
      "type": "function"
    },
    {
      "inputs": [
        {
          "internalType": "address payable",
          "name": "treasuryAccount",
          "type": "address"
        }
      ],
      "name": "updateTreasuryAccount",
      "outputs": [],
      "stateMutability": "nonpayable",
      "type": "function"
    },
    {
      "inputs": [
        {
          "internalType": "address[]",
          "name": "tokens",
          "type": "address[]"
        },
        {
          "internalType": "uint256[]",
          "name": "amounts",
          "type": "uint256[]"
        },
        {
          "internalType": "bool",
          "name": "withdrawWethAsEth",
          "type": "bool"
        }
      ],
      "name": "withdraw",
      "outputs": [],
      "stateMutability": "nonpayable",
      "type": "function"
    },
    {
      "inputs": [
        {
          "internalType": "address[]",
          "name": "tokens",
          "type": "address[]"
        },
        {
          "internalType": "uint256[]",
          "name": "strategies",
          "type": "uint256[]"
        },
        {
          "internalType": "bool",
          "name": "withdrawWethAsEth",
          "type": "bool"
        }
      ],
      "name": "withdrawAllAndClaim",
      "outputs": [
        {
          "internalType": "uint256[]",
          "name": "tokenAmounts",
          "type": "uint256[]"
        },
        {
          "internalType": "uint256",
          "name": "ethWithdrawn",
          "type": "uint256"
        },
        {
          "internalType": "uint256",
          "name": "ethClaimed",
          "type": "uint256"
        },
        {
          "internalType": "uint256",
          "name": "biosClaimed",
          "type": "uint256"
        }
      ],
      "stateMutability": "nonpayable",
      "type": "function"
    },
    {
      "stateMutability": "payable",
      "type": "receive"
    }
  ],
  "transactionHash": "0xb1722f070a849421e4da4738b842a4a6ee22b543aac6c11ef64947cc14ebca6d",
  "args": [],
  "solcInputHash": "7d917e1519e37740255f81b3cdc6a48d",
  "bytecode": "0x608060405234801561001057600080fd5b50615a0f80620000216000396000f3fe60806040526004361061023d5760003560e01c806301eb7a191461024957806301ffc9a71461027357806304abbb1c146102935780630b03cc6d146102b55780630b1ff20a146102d55780630f0a1c6f146102f557806312804d23146103225780631542d6dd146103375780631a8821db1461035657806320037cdd146103765780632369fde514610398578063248a9ca3146103ad5780632866547a146103cd5780632f2ff15d146103ed5780632f54bf6e1461040d57806330dd79dd1461042d57806336568abe1461044d5780633f10724c1461046d5780634153db4e1461048d57806348f11536146104ad5780634bc3f872146104cd5780634dee99b4146104e35780635b21a556146104f857806369c32f6014610518578063845fe1d0146105385780638811d21b1461055857806388656055146105885780638a34be28146105a85780639010d07c146105c857806391d14854146105e857806399f7854a14610608578063a1bc290814610628578063a217fddf14610648578063a2beb5101461065d578063a703b72914610692578063b1cb1d80146106b2578063b4f0abf0146106d2578063bca5048f146106f2578063c0c53b8b14610712578063ca15c87314610732578063cb3c582214610752578063d547741f14610767578063d690d13e14610787578063da6b22071461079c578063de13acfb146107b1578063de726b71146107d1578063e58378bb146107f1578063ec87621c14610813578063efc908a114610835578063f3ae24151461084857600080fd5b3661024457005b600080fd5b34801561025557600080fd5b506101025460ff165b60405190151581526020015b60405180910390f35b34801561027f57600080fd5b5061025e61028e366004615028565b610868565b34801561029f57600080fd5b506102b36102ae366004615068565b610893565b005b3480156102c157600080fd5b506102b36102d0366004614ca2565b6109cc565b3480156102e157600080fd5b506102b36102f0366004614fc0565b610b09565b34801561030157600080fd5b5060c954610315906001600160a01b031681565b60405161026a919061526f565b34801561032e57600080fd5b506102b3610c33565b34801561034357600080fd5b5060fe545b60405190815260200161026a565b34801561036257600080fd5b506102b3610371366004614ddf565b610c5a565b34801561038257600080fd5b5061034860008051602061597a83398151915281565b3480156103a457600080fd5b506102b3610eee565b3480156103b957600080fd5b506103486103c8366004614fc0565b611602565b3480156103d957600080fd5b506102b36103e8366004614ca2565b611617565b3480156103f957600080fd5b506102b3610408366004614fd8565b61171b565b34801561041957600080fd5b5061025e610428366004614ae3565b61173d565b34801561043957600080fd5b506102b3610448366004614e87565b611757565b34801561045957600080fd5b506102b3610468366004614fd8565b611998565b34801561047957600080fd5b506102b3610488366004614e48565b611a16565b34801561049957600080fd5b506102b36104a8366004614ca2565b611c48565b3480156104b957600080fd5b506102b36104c8366004614ca2565b611d4c565b3480156104d957600080fd5b5061010054610348565b3480156104ef57600080fd5b506102b3611e50565b34801561050457600080fd5b506102b3610513366004614d4d565b611e7a565b34801561052457600080fd5b506102b3610533366004614d7f565b611fcc565b34801561054457600080fd5b506102b3610553366004614fc0565b612121565b34801561056457600080fd5b50610578610573366004614ccd565b612353565b60405161026a9493929190615638565b34801561059457600080fd5b506102b36105a3366004614c01565b612532565b3480156105b457600080fd5b506102b36105c3366004614d7f565b612671565b3480156105d457600080fd5b506103156105e3366004615007565b61278b565b3480156105f457600080fd5b5061025e610603366004614fd8565b6127aa565b34801561061457600080fd5b5061025e610623366004614ae3565b6127d5565b34801561063457600080fd5b506102b3610643366004614ae3565b6127ef565b34801561065457600080fd5b50610348600081565b34801561066957600080fd5b5061067d610678366004614e48565b612915565b6040805192835260208301919091520161026a565b34801561069e57600080fd5b506102b36106ad366004614b65565b612964565b3480156106be57600080fd5b506102b36106cd366004614fc0565b6130b2565b3480156106de57600080fd5b506102b36106ed366004614ae3565b6131db565b3480156106fe57600080fd5b506102b361070d366004614ca2565b613301565b34801561071e57600080fd5b506102b361072d366004614b1b565b613405565b34801561073e57600080fd5b5061034861074d366004614fc0565b6135b6565b34801561075e57600080fd5b506103486135cd565b34801561077357600080fd5b506102b3610782366004614fd8565b61360c565b34801561079357600080fd5b50610348613629565b3480156107a857600080fd5b5060fc54610348565b3480156107bd57600080fd5b506102b36107cc366004615082565b613665565b3480156107dd57600080fd5b506103486107ec366004614e48565b6137a6565b3480156107fd57600080fd5b506103486000805160206159ba83398151915281565b34801561081f57600080fd5b5061034860008051602061599a83398151915281565b6102b3610843366004614d7f565b6137e6565b34801561085457600080fd5b5061025e610863366004614ae3565b613a13565b60006001600160e01b03198216635a05180f60e01b148061088d575061088d82613a2d565b92915050565b60008051602061599a8339815191526108ac8133613a62565b60c9546040516337c61fc560e11b81526001600160a01b0390911690636f8c3f8a906108dc906004908101615667565b60206040518083038186803b1580156108f457600080fd5b505afa158015610908573d6000803e3d6000fd5b505050506040513d601f19601f8201168201806040525081019061092c9190614aff565b60405163012aeec760e21b815263ffffffff841660048201526001600160a01b0391909116906304abbb1c90602401600060405180830381600087803b15801561097557600080fd5b505af1158015610989573d6000803e3d6000fd5b505060405163ffffffff851681527fd0feedf758dbe53f0afc15b3592dc422176e73dab86458bd5d65aaf80b8d2d29925060200190505b60405180910390a15050565b60008051602061599a8339815191526109e58133613a62565b60c9546040516337c61fc560e11b81526001600160a01b0390911690636f8c3f8a90610a1690600390600401615667565b60206040518083038186803b158015610a2e57600080fd5b505afa158015610a42573d6000803e3d6000fd5b505050506040513d601f19601f82011682018060405250810190610a669190614aff565b6001600160a01b0316630b03cc6d84846040518363ffffffff1660e01b8152600401610a9392919061543b565b600060405180830381600087803b158015610aad57600080fd5b505af1158015610ac1573d6000803e3d6000fd5b5084925060039150610ad09050565b6040516001600160a01b038616907f94a9ad1d62531353f56ce5906e87954e2c34a7330db39361c4b392ba0519336890600090a4505050565b60008051602061599a833981519152610b228133613a62565b60c9546040516337c61fc560e11b81526001600160a01b0390911690636f8c3f8a90610b5390600290600401615667565b60206040518083038186803b158015610b6b57600080fd5b505afa158015610b7f573d6000803e3d6000fd5b505050506040513d601f19601f82011682018060405250810190610ba39190614aff565b6001600160a01b0316630b1ff20a836040518263ffffffff1660e01b8152600401610bd091815260200190565b600060405180830381600087803b158015610bea57600080fd5b505af1158015610bfe573d6000803e3d6000fd5b505050507f70002914330d9c830892c922ec3403d9d8a2cc3719a69cede0b9069f3f82b2bb826040516109c091815260200190565b60008051602061599a833981519152610c4c8133613a62565b50610102805460ff19169055565b600260ca541415610c865760405162461bcd60e51b8152600401610c7d906157e4565b60405180910390fd5b600260ca5560c9546040516337c61fc560e11b81526000916001600160a01b031690636f8c3f8a90610cbd90600190600401615667565b60206040518083038186803b158015610cd557600080fd5b505afa158015610ce9573d6000803e3d6000fd5b505050506040513d601f19601f82011682018060405250810190610d0d9190614aff565b6001600160a01b031663558c811e338686866040518563ffffffff1660e01b8152600401610d3e949392919061534f565b602060405180830381600087803b158015610d5857600080fd5b505af1158015610d6c573d6000803e3d6000fd5b505050506040513d601f19601f82011682018060405250810190610d909190615050565b90508015610e9e5760c9546040516337c61fc560e11b8152610e949183916001600160a01b0390911690636f8c3f8a90610dcf90600390600401615667565b60206040518083038186803b158015610de757600080fd5b505afa158015610dfb573d6000803e3d6000fd5b505050506040513d601f19601f82011682018060405250810190610e1f9190614aff565b6001600160a01b0316638b9c94896040518163ffffffff1660e01b815260040160206040518083038186803b158015610e5757600080fd5b505afa158015610e6b573d6000803e3d6000fd5b505050506040513d601f19601f82011682018060405250810190610e8f9190614aff565b613ac6565b610e9e8133613c24565b336001600160a01b03167f91e54360cfab588303c49bbbb2869608cb9a9fd5ff9b4431f86988f91290421d858584604051610edb939291906154b9565b60405180910390a25050600160ca555050565b60008051602061599a833981519152610f078133613a62565b60c9546040516337c61fc560e11b81526000916001600160a01b031690636f8c3f8a90610f3990600390600401615667565b60206040518083038186803b158015610f5157600080fd5b505afa158015610f65573d6000803e3d6000fd5b505050506040513d601f19601f82011682018060405250810190610f899190614aff565b90506000816001600160a01b03166344fc9b566040518163ffffffff1660e01b815260040160206040518083038186803b158015610fc657600080fd5b505afa158015610fda573d6000803e3d6000fd5b505050506040513d601f19601f82011682018060405250810190610ffe9190614aff565b90506000826001600160a01b0316638b9c94896040518163ffffffff1660e01b815260040160206040518083038186803b15801561103b57600080fd5b505afa15801561104f573d6000803e3d6000fd5b505050506040513d601f19601f820116820180604052508101906110739190614aff565b60c9546040516337c61fc560e11b81529192506001600160a01b038085169263dd62ed3e9230921690636f8c3f8a906110b0906004908101615667565b60206040518083038186803b1580156110c857600080fd5b505afa1580156110dc573d6000803e3d6000fd5b505050506040513d601f19601f820116820180604052508101906111009190614aff565b6040518363ffffffff1660e01b815260040161111d929190615283565b60206040518083038186803b15801561113557600080fd5b505afa158015611149573d6000803e3d6000fd5b505050506040513d601f19601f8201168201806040525081019061116d9190615050565b6112065760c9546040516337c61fc560e11b8152611206916001600160a01b031690636f8c3f8a906111a3906004908101615667565b60206040518083038186803b1580156111bb57600080fd5b505afa1580156111cf573d6000803e3d6000fd5b505050506040513d601f19601f820116820180604052508101906111f39190614aff565b6001600160a01b03841690600019613cc2565b60c9546040516337c61fc560e11b81526001600160a01b038481169263dd62ed3e92309290911690636f8c3f8a9061124390600290600401615667565b60206040518083038186803b15801561125b57600080fd5b505afa15801561126f573d6000803e3d6000fd5b505050506040513d601f19601f820116820180604052508101906112939190614aff565b6040518363ffffffff1660e01b81526004016112b0929190615283565b60206040518083038186803b1580156112c857600080fd5b505afa1580156112dc573d6000803e3d6000fd5b505050506040513d601f19601f820116820180604052508101906113009190615050565b6113375760c9546040516337c61fc560e11b8152611337916001600160a01b031690636f8c3f8a906111a390600290600401615667565b60c9546040516337c61fc560e11b81526001600160a01b038381169263dd62ed3e92309290911690636f8c3f8a9061137490600190600401615667565b60206040518083038186803b15801561138c57600080fd5b505afa1580156113a0573d6000803e3d6000fd5b505050506040513d601f19601f820116820180604052508101906113c49190614aff565b6040518363ffffffff1660e01b81526004016113e1929190615283565b60206040518083038186803b1580156113f957600080fd5b505afa15801561140d573d6000803e3d6000fd5b505050506040513d601f19601f820116820180604052508101906114319190615050565b6114cb5760c9546040516337c61fc560e11b81526114cb916001600160a01b031690636f8c3f8a9061146890600190600401615667565b60206040518083038186803b15801561148057600080fd5b505afa158015611494573d6000803e3d6000fd5b505050506040513d601f19601f820116820180604052508101906114b89190614aff565b6001600160a01b03831690600019613cc2565b60c9546040516337c61fc560e11b81526001600160a01b038381169263dd62ed3e92309290911690636f8c3f8a9061150890600290600401615667565b60206040518083038186803b15801561152057600080fd5b505afa158015611534573d6000803e3d6000fd5b505050506040513d601f19601f820116820180604052508101906115589190614aff565b6040518363ffffffff1660e01b8152600401611575929190615283565b60206040518083038186803b15801561158d57600080fd5b505afa1580156115a1573d6000803e3d6000fd5b505050506040513d601f19601f820116820180604052508101906115c59190615050565b6115fc5760c9546040516337c61fc560e11b81526115fc916001600160a01b031690636f8c3f8a9061146890600290600401615667565b50505050565b60009081526065602052604090206001015490565b60008051602061599a8339815191526116308133613a62565b60c9546040516337c61fc560e11b81526001600160a01b0390911690636f8c3f8a9061166190600390600401615667565b60206040518083038186803b15801561167957600080fd5b505afa15801561168d573d6000803e3d6000fd5b505050506040513d601f19601f820116820180604052508101906116b19190614aff565b6001600160a01b0316632866547a84846040518363ffffffff1660e01b81526004016116de92919061543b565b600060405180830381600087803b1580156116f857600080fd5b505af115801561170c573d6000803e3d6000fd5b5084925060029150610ad09050565b61172482611602565b61172e8133613a62565b6117388383613e0b565b505050565b600061088d6000805160206159ba833981519152836127aa565b60c9546040516337c61fc560e11b81526001600160a01b0390911690636f8c3f8a9061178890600290600401615667565b60206040518083038186803b1580156117a057600080fd5b505afa1580156117b4573d6000803e3d6000fd5b505050506040513d601f19601f820116820180604052508101906117d89190614aff565b6001600160a01b031663e0a30f736040518163ffffffff1660e01b815260040160206040518083038186803b15801561181057600080fd5b505afa158015611824573d6000803e3d6000fd5b505050506040513d601f19601f820116820180604052508101906118489190614aff565b6001600160a01b0316336001600160a01b0316146118785760405162461bcd60e51b8152600401610c7d906157b1565b60c9546040516337c61fc560e11b81526001600160a01b0390911690636f8c3f8a906118a990600290600401615667565b60206040518083038186803b1580156118c157600080fd5b505afa1580156118d5573d6000803e3d6000fd5b505050506040513d601f19601f820116820180604052508101906118f99190614aff565b6001600160a01b03166330dd79dd86868686866040518663ffffffff1660e01b815260040161192c9594939291906155da565b600060405180830381600087803b15801561194657600080fd5b505af115801561195a573d6000803e3d6000fd5b505060fe805460ff5542905550506040517f975dc81fc1f814abf091a0d0126f3d75cde1a0b0aa2dee81138793762eea42fc90600090a15050505050565b6001600160a01b0381163314611a085760405162461bcd60e51b815260206004820152602f60248201527f416363657373436f6e74726f6c3a2063616e206f6e6c792072656e6f756e636560448201526e103937b632b9903337b91039b2b63360891b6064820152608401610c7d565b611a128282613e2d565b5050565b60c9546040516337c61fc560e11b81526001600160a01b0390911690636f8c3f8a90611a4790600290600401615667565b60206040518083038186803b158015611a5f57600080fd5b505afa158015611a73573d6000803e3d6000fd5b505050506040513d601f19601f82011682018060405250810190611a979190614aff565b6001600160a01b031663e0a30f736040518163ffffffff1660e01b815260040160206040518083038186803b158015611acf57600080fd5b505afa158015611ae3573d6000803e3d6000fd5b505050506040513d601f19601f82011682018060405250810190611b079190614aff565b6001600160a01b0316336001600160a01b031614611b375760405162461bcd60e51b8152600401610c7d906157b1565b60c9546040516337c61fc560e11b81526001600160a01b0390911690636f8c3f8a90611b6890600290600401615667565b60206040518083038186803b158015611b8057600080fd5b505afa158015611b94573d6000803e3d6000fd5b505050506040513d601f19601f82011682018060405250810190611bb89190614aff565b6001600160a01b0316633f10724c83836040518363ffffffff1660e01b8152600401611be59291906154ef565b600060405180830381600087803b158015611bff57600080fd5b505af1158015611c13573d6000803e3d6000fd5b50504260fc5550506040517fd9659eff71087e0e5ae7a01868fb393704aec3a891860a55e69a47b9ad2f2dab90600090a15050565b60008051602061599a833981519152611c618133613a62565b60c9546040516337c61fc560e11b81526001600160a01b0390911690636f8c3f8a90611c9290600390600401615667565b60206040518083038186803b158015611caa57600080fd5b505afa158015611cbe573d6000803e3d6000fd5b505050506040513d601f19601f82011682018060405250810190611ce29190614aff565b6001600160a01b0316634153db4e84846040518363ffffffff1660e01b8152600401611d0f92919061543b565b600060405180830381600087803b158015611d2957600080fd5b505af1158015611d3d573d6000803e3d6000fd5b5084925060049150610ad09050565b60008051602061599a833981519152611d658133613a62565b60c9546040516337c61fc560e11b81526001600160a01b0390911690636f8c3f8a90611d9690600390600401615667565b60206040518083038186803b158015611dae57600080fd5b505afa158015611dc2573d6000803e3d6000fd5b505050506040513d601f19601f82011682018060405250810190611de69190614aff565b6001600160a01b03166348f1153684846040518363ffffffff1660e01b8152600401611e1392919061543b565b600060405180830381600087803b158015611e2d57600080fd5b505af1158015611e41573d6000803e3d6000fd5b5084925060009150610ad09050565b60008051602061599a833981519152611e698133613a62565b50610102805460ff19166001179055565b6101025460ff161580611ea05750611ea060008051602061597a833981519152336127aa565b611ebc5760405162461bcd60e51b8152600401610c7d906156a2565b600260ca541415611edf5760405162461bcd60e51b8152600401610c7d906157e4565b600260ca5560c9546040516337c61fc560e11b81526001600160a01b0390911690636f8c3f8a90611f1590600a90600401615667565b60206040518083038186803b158015611f2d57600080fd5b505afa158015611f41573d6000803e3d6000fd5b505050506040513d601f19601f82011682018060405250810190611f659190614aff565b6001600160a01b031663d84ac98c33836040518363ffffffff1660e01b8152600401611f929291906152eb565b600060405180830381600087803b158015611fac57600080fd5b505af1158015611fc0573d6000803e3d6000fd5b5050600160ca55505050565b6101025460ff161580611ff25750611ff260008051602061597a833981519152336127aa565b61200e5760405162461bcd60e51b8152600401610c7d906156a2565b600260ca5414156120315760405162461bcd60e51b8152600401610c7d906157e4565b600260ca5560c9546040516337c61fc560e11b81526001600160a01b0390911690636f8c3f8a9061206790600a90600401615667565b60206040518083038186803b15801561207f57600080fd5b505afa158015612093573d6000803e3d6000fd5b505050506040513d601f19601f820116820180604052508101906120b79190614aff565b6001600160a01b03166343f0a5bb3384846040518463ffffffff1660e01b81526004016120e69392919061530f565b600060405180830381600087803b15801561210057600080fd5b505af1158015612114573d6000803e3d6000fd5b5050600160ca5550505050565b60c9546040516337c61fc560e11b81526001600160a01b0390911690636f8c3f8a9061215290600290600401615667565b60206040518083038186803b15801561216a57600080fd5b505afa15801561217e573d6000803e3d6000fd5b505050506040513d601f19601f820116820180604052508101906121a29190614aff565b6001600160a01b031663e0a30f736040518163ffffffff1660e01b815260040160206040518083038186803b1580156121da57600080fd5b505afa1580156121ee573d6000803e3d6000fd5b505050506040513d601f19601f820116820180604052508101906122129190614aff565b6001600160a01b0316336001600160a01b0316146122425760405162461bcd60e51b8152600401610c7d906157b1565b60c9546040516337c61fc560e11b81526001600160a01b0390911690636f8c3f8a9061227390600290600401615667565b60206040518083038186803b15801561228b57600080fd5b505afa15801561229f573d6000803e3d6000fd5b505050506040513d601f19601f820116820180604052508101906122c39190614aff565b6001600160a01b031663845fe1d0826040518263ffffffff1660e01b81526004016122f091815260200190565b600060405180830381600087803b15801561230a57600080fd5b505af115801561231e573d6000803e3d6000fd5b5050426101005550506040517f0de1d02cebd74da6199efdd09bf1124d52c591382b792cfcce400d8c8396672a90600090a150565b60c9546040516337c61fc560e11b8152606091600091829182916001600160a01b0390911690636f8c3f8a9061238e90600190600401615667565b60206040518083038186803b1580156123a657600080fd5b505afa1580156123ba573d6000803e3d6000fd5b505050506040513d601f19601f820116820180604052508101906123de9190614aff565b6001600160a01b03166395be0546338b8b8b8b8b6040518763ffffffff1660e01b81526004016124139695949392919061529d565b600060405180830381600087803b15801561242d57600080fd5b505af1158015612441573d6000803e3d6000fd5b505050506040513d6000823e601f3d908101601f191682016040526124699190810190614ef7565b9296509094509250905082156124b05760c9546040516337c61fc560e11b81526124b09185916001600160a01b0390911690636f8c3f8a90610dcf90600390600401615667565b60006124bc8385615896565b11156124d5576124d56124cf8385615896565b33613c24565b336001600160a01b03167fc5b4b8ab390a1b4492016dad7a8c2c74bb8044f074a79c621297e84f465d2e688a8a8a8a8a8a8a8a8a60405161251e99989796959493929190615454565b60405180910390a295509550955095915050565b60008051602061599a83398151915261254b8133613a62565b60c9546040516337c61fc560e11b81526001600160a01b0390911690636f8c3f8a9061257c90600390600401615667565b60206040518083038186803b15801561259457600080fd5b505afa1580156125a8573d6000803e3d6000fd5b505050506040513d601f19601f820116820180604052508101906125cc9190614aff565b6001600160a01b0316638865605584846040518363ffffffff1660e01b81526004016125f9929190615417565b600060405180830381600087803b15801561261357600080fd5b505af1158015612627573d6000803e3d6000fd5b50505050826001600160a01b03167ff15c2370ab3e2550092505583d19a745408c68d87d83f56843652d6f01df378d83604051612664919061568f565b60405180910390a2505050565b6101025460ff161580612697575061269760008051602061597a833981519152336127aa565b6126b35760405162461bcd60e51b8152600401610c7d906156a2565b600260ca5414156126d65760405162461bcd60e51b8152600401610c7d906157e4565b600260ca5560c9546040516337c61fc560e11b81526001600160a01b0390911690636f8c3f8a9061270c90600a90600401615667565b60206040518083038186803b15801561272457600080fd5b505afa158015612738573d6000803e3d6000fd5b505050506040513d601f19601f8201168201806040525081019061275c9190614aff565b6001600160a01b031663fd2b51343384846040518463ffffffff1660e01b81526004016120e69392919061530f565b60008281526097602052604081206127a39083613e4f565b9392505050565b60009182526065602090815260408084206001600160a01b0393909316845291905290205460ff1690565b600061088d60008051602061597a833981519152836127aa565b60008051602061599a8339815191526128088133613a62565b60c9546040516337c61fc560e11b81526001600160a01b0390911690636f8c3f8a9061283990600290600401615667565b60206040518083038186803b15801561285157600080fd5b505afa158015612865573d6000803e3d6000fd5b505050506040513d601f19601f820116820180604052508101906128899190614aff565b6001600160a01b031663a1bc2908836040518263ffffffff1660e01b81526004016128b4919061526f565b600060405180830381600087803b1580156128ce57600080fd5b505af11580156128e2573d6000803e3d6000fd5b505050507f56b5bc41858c1c8ea6c49bbaa714990fccbcefd31efe9d22cfbebf5d311dfdfc826040516109c0919061526f565b600080600260ca54141561293b5760405162461bcd60e51b8152600401610c7d906157e4565b600260ca5561294a8484613e5b565b9150612954613fb5565b600160ca55919491935090915050565b60008051602061599a83398151915261297d8133613a62565b60c9546040516337c61fc560e11b81526001600160a01b0390911690636f8c3f8a906129ae90600390600401615667565b60206040518083038186803b1580156129c657600080fd5b505afa1580156129da573d6000803e3d6000fd5b505050506040513d601f19601f820116820180604052508101906129fe9190614aff565b60405163a703b72960e01b81526001600160a01b038d811660048301528c151560248301528b151560448301528a15156064830152891515608483015260a4820189905260c4820188905260e4820187905261010482018690526101248201859052919091169063a703b7299061014401600060405180830381600087803b158015612a8957600080fd5b505af1158015612a9d573d6000803e3d6000fd5b505050508a6001600160a01b031663dd62ed3e60c960009054906101000a90046001600160a01b03166001600160a01b0316636f8c3f8a60006040518263ffffffff1660e01b8152600401612af29190615667565b60206040518083038186803b158015612b0a57600080fd5b505afa158015612b1e573d6000803e3d6000fd5b505050506040513d601f19601f82011682018060405250810190612b429190614aff565b60c9546040516337c61fc560e11b81526001600160a01b0390911690636f8c3f8a90612b7390600290600401615667565b60206040518083038186803b158015612b8b57600080fd5b505afa158015612b9f573d6000803e3d6000fd5b505050506040513d601f19601f82011682018060405250810190612bc39190614aff565b6040518363ffffffff1660e01b8152600401612be0929190615283565b60206040518083038186803b158015612bf857600080fd5b505afa158015612c0c573d6000803e3d6000fd5b505050506040513d601f19601f82011682018060405250810190612c309190615050565b612cca5760c9546040516337c61fc560e11b8152612cca916001600160a01b031690636f8c3f8a90612c6790600290600401615667565b60206040518083038186803b158015612c7f57600080fd5b505afa158015612c93573d6000803e3d6000fd5b505050506040513d601f19601f82011682018060405250810190612cb79190614aff565b6001600160a01b038d1690600019613cc2565b60c9546040516337c61fc560e11b81526001600160a01b03808e169263dd62ed3e92911690636f8c3f8a90612d0490600090600401615667565b60206040518083038186803b158015612d1c57600080fd5b505afa158015612d30573d6000803e3d6000fd5b505050506040513d601f19601f82011682018060405250810190612d549190614aff565b60c9546040516337c61fc560e11b81526001600160a01b0390911690636f8c3f8a90612d8590600190600401615667565b60206040518083038186803b158015612d9d57600080fd5b505afa158015612db1573d6000803e3d6000fd5b505050506040513d601f19601f82011682018060405250810190612dd59190614aff565b6040518363ffffffff1660e01b8152600401612df2929190615283565b60206040518083038186803b158015612e0a57600080fd5b505afa158015612e1e573d6000803e3d6000fd5b505050506040513d601f19601f82011682018060405250810190612e429190615050565b612e795760c9546040516337c61fc560e11b8152612e79916001600160a01b031690636f8c3f8a90612c6790600190600401615667565b60c9546040516337c61fc560e11b81526001600160a01b03808e169263dd62ed3e92911690636f8c3f8a90612eb390600090600401615667565b60206040518083038186803b158015612ecb57600080fd5b505afa158015612edf573d6000803e3d6000fd5b505050506040513d601f19601f82011682018060405250810190612f039190614aff565b60c9546040516337c61fc560e11b81526001600160a01b0390911690636f8c3f8a90612f3490600b90600401615667565b60206040518083038186803b158015612f4c57600080fd5b505afa158015612f60573d6000803e3d6000fd5b505050506040513d601f19601f82011682018060405250810190612f849190614aff565b6040518363ffffffff1660e01b8152600401612fa1929190615283565b60206040518083038186803b158015612fb957600080fd5b505afa158015612fcd573d6000803e3d6000fd5b505050506040513d601f19601f82011682018060405250810190612ff19190615050565b6130285760c9546040516337c61fc560e11b8152613028916001600160a01b031690636f8c3f8a90612c6790600b90600401615667565b604080518b151581528a151560208201528915158183015288151560608201526080810188905260a0810187905260c0810186905260e08101859052610100810184905290516001600160a01b038d16917f7bc8b8972b091625aaef49aac424a93abb527b8507448b2935e656c5a4ffcbf691908190036101200190a25050505050505050505050565b60008051602061599a8339815191526130cb8133613a62565b60c9546040516337c61fc560e11b81526001600160a01b0390911690636f8c3f8a906130fb906004908101615667565b60206040518083038186803b15801561311357600080fd5b505afa158015613127573d6000803e3d6000fd5b505050506040513d601f19601f8201168201806040525081019061314b9190614aff565b6001600160a01b031663f487f60333846040518363ffffffff1660e01b815260040161317892919061543b565b600060405180830381600087803b15801561319257600080fd5b505af11580156131a6573d6000803e3d6000fd5b505050507f8d270fd3d1e6fc4a4951325d6032d0b8fd681d74fa76039998b2aeec501fee61826040516109c091815260200190565b60008051602061599a8339815191526131f48133613a62565b60c9546040516337c61fc560e11b81526001600160a01b0390911690636f8c3f8a9061322590600290600401615667565b60206040518083038186803b15801561323d57600080fd5b505afa158015613251573d6000803e3d6000fd5b505050506040513d601f19601f820116820180604052508101906132759190614aff565b6001600160a01b031663b4f0abf0836040518263ffffffff1660e01b81526004016132a0919061526f565b600060405180830381600087803b1580156132ba57600080fd5b505af11580156132ce573d6000803e3d6000fd5b505050507f29136396b324aa7f7a8d1b8f00da39b8d88642bc714a9747c151b20e3d2af233826040516109c0919061526f565b60008051602061599a83398151915261331a8133613a62565b60c9546040516337c61fc560e11b81526001600160a01b0390911690636f8c3f8a9061334b90600390600401615667565b60206040518083038186803b15801561336357600080fd5b505afa158015613377573d6000803e3d6000fd5b505050506040513d601f19601f8201168201806040525081019061339b9190614aff565b6001600160a01b031663bca5048f84846040518363ffffffff1660e01b81526004016133c892919061543b565b600060405180830381600087803b1580156133e257600080fd5b505af11580156133f6573d6000803e3d6000fd5b5084925060019150610ad09050565b600054610100900460ff166134205760005460ff1615613424565b303b155b6134405760405162461bcd60e51b8152600401610c7d906156f3565b600054610100900460ff16158015613462576000805461ffff19166101011790555b6001600160a01b0384166134885760405162461bcd60e51b8152600401610c7d90615741565b6001600160a01b0383166134ae5760405162461bcd60e51b8152600401610c7d90615741565b6001600160a01b0382166134d45760405162461bcd60e51b8152600401610c7d90615741565b6134dd826140ee565b6134e561417b565b6134ed6141ac565b6134f86000856141eb565b6135106000805160206159ba833981519152846141eb565b61352860008051602061599a833981519152846141eb565b61354060008051602061597a833981519152846141eb565b61356660008051602061599a8339815191526000805160206159ba8339815191526141f5565b61358c60008051602061597a83398151915260008051602061599a8339815191526141f5565b4261010155610102805460ff1916600117905580156115fc576000805461ff001916905550505050565b600081815260976020526040812061088d90614248565b60fe54600090156136065760ff54156135f55760ff5460fe546135f091906158cd565b905090565b6101015460fe546135f091906158cd565b50600090565b61361582611602565b61361f8133613a62565b6117388383613e2d565b6000600260ca54141561364e5760405162461bcd60e51b8152600401610c7d906157e4565b600260ca5561365b613fb5565b9050600160ca5590565b60008051602061599a83398151915261367e8133613a62565b60c9546040516337c61fc560e11b81526001600160a01b0390911690636f8c3f8a906136af90600290600401615667565b60206040518083038186803b1580156136c757600080fd5b505afa1580156136db573d6000803e3d6000fd5b505050506040513d601f19601f820116820180604052508101906136ff9190614aff565b6001600160a01b031663de13acfb868686866040518563ffffffff1660e01b8152600401613730949392919061581b565b600060405180830381600087803b15801561374a57600080fd5b505af115801561375e573d6000803e3d6000fd5b505050507fe7404d70edeef1a8fd327fdf11833c2321aa82626773fb135a22680f82ba875185858585604051613797949392919061581b565b60405180910390a15050505050565b6000600260ca5414156137cb5760405162461bcd60e51b8152600401610c7d906157e4565b600260ca556137da8383613e5b565b600160ca559392505050565b600260ca5414156138095760405162461bcd60e51b8152600401610c7d906157e4565b600260ca55341561395e5760c9546040516337c61fc560e11b81526000916001600160a01b031690636f8c3f8a9061384690600390600401615667565b60206040518083038186803b15801561385e57600080fd5b505afa158015613872573d6000803e3d6000fd5b505050506040513d601f19601f820116820180604052508101906138969190614aff565b6001600160a01b0316638b9c94896040518163ffffffff1660e01b815260040160206040518083038186803b1580156138ce57600080fd5b505afa1580156138e2573d6000803e3d6000fd5b505050506040513d601f19601f820116820180604052508101906139069190614aff565b9050806001600160a01b031663d0e30db0346040518263ffffffff1660e01b81526004016000604051808303818588803b15801561394357600080fd5b505af1158015613957573d6000803e3d6000fd5b5050505050505b60c9546040516337c61fc560e11b81526001600160a01b0390911690636f8c3f8a9061398f90600190600401615667565b60206040518083038186803b1580156139a757600080fd5b505afa1580156139bb573d6000803e3d6000fd5b505050506040513d601f19601f820116820180604052508101906139df9190614aff565b6001600160a01b031663776f5a8d3384843460006040518663ffffffff1660e01b81526004016120e6959493929190615399565b600061088d60008051602061599a833981519152836127aa565b60006001600160e01b03198216637965db0b60e01b148061088d57506301ffc9a760e01b6001600160e01b031983161461088d565b613a6c82826127aa565b611a1257613a84816001600160a01b03166014614252565b613a8f836020614252565b604051602001613aa0929190615200565b60408051601f198184030181529082905262461bcd60e51b8252610c7d9160040161568f565b60fa461415613bc65760c9546040516337c61fc560e11b81526000916001600160a01b031690636f8c3f8a90613b0190600c90600401615667565b60206040518083038186803b158015613b1957600080fd5b505afa158015613b2d573d6000803e3d6000fd5b505050506040513d601f19601f82011682018060405250810190613b519190614aff565b9050613b676001600160a01b0383168285614433565b604051636f074d1f60e11b8152600481018490526001600160a01b0382169063de0e9a3e90602401600060405180830381600087803b158015613ba957600080fd5b505af1158015613bbd573d6000803e3d6000fd5b50505050505050565b604051632e1a7d4d60e01b8152600481018390526001600160a01b03821690632e1a7d4d90602401600060405180830381600087803b158015613c0857600080fd5b505af1158015613c1c573d6000803e3d6000fd5b505050505050565b6000816001600160a01b03168360405160006040518083038185875af1925050503d8060008114613c71576040519150601f19603f3d011682016040523d82523d6000602084013e613c76565b606091505b50509050806117385760405162461bcd60e51b81526020600482015260186024820152774661696c656420746f207472616e736665722076616c756560401b6044820152606401610c7d565b801580613d4a5750604051636eb1769f60e11b81526001600160a01b0384169063dd62ed3e90613cf89030908690600401615283565b60206040518083038186803b158015613d1057600080fd5b505afa158015613d24573d6000803e3d6000fd5b505050506040513d601f19601f82011682018060405250810190613d489190615050565b155b613db55760405162461bcd60e51b815260206004820152603660248201527f5361666545524332303a20617070726f76652066726f6d206e6f6e2d7a65726f60448201527520746f206e6f6e2d7a65726f20616c6c6f77616e636560501b6064820152608401610c7d565b6117388363095ea7b360e01b8484604051602401613dd492919061543b565b60408051601f198184030181529190526020810180516001600160e01b03166001600160e01b031990931692909217909152614452565b613e158282614524565b600082815260976020526040902061173890826145aa565b613e3782826145bf565b60008281526097602052604090206117389082614626565b60006127a3838361463b565b60c9546040516337c61fc560e11b81526000916001600160a01b031690636f8c3f8a90613e8d90600190600401615667565b60206040518083038186803b158015613ea557600080fd5b505afa158015613eb9573d6000803e3d6000fd5b505050506040513d601f19601f82011682018060405250810190613edd9190614aff565b6001600160a01b031663c3b2a7f43385856040518463ffffffff1660e01b8152600401613f0c939291906153e9565b602060405180830381600087803b158015613f2657600080fd5b505af1158015613f3a573d6000803e3d6000fd5b505050506040513d601f19601f82011682018060405250810190613f5e9190615050565b9050613f6a8133613c24565b336001600160a01b03167f52641a01fee1d4b51c574b806315d8012d15a005587807a7f0a84e42393b0922848484604051613fa793929190615614565b60405180910390a292915050565b60c9546040516337c61fc560e11b81526000916001600160a01b031690636f8c3f8a90613fe6906004908101615667565b60206040518083038186803b158015613ffe57600080fd5b505afa158015614012573d6000803e3d6000fd5b505050506040513d601f19601f820116820180604052508101906140369190614aff565b6001600160a01b03166384afeffd336040518263ffffffff1660e01b8152600401614061919061526f565b602060405180830381600087803b15801561407b57600080fd5b505af115801561408f573d6000803e3d6000fd5b505050506040513d601f19601f820116820180604052508101906140b39190615050565b60405181815290915033907fbb219a4ef7ab353b9ff2f337e191975fba0952436ef67efea1aecca5f6f766d69060200160405180910390a290565b600054610100900460ff166141095760005460ff161561410d565b303b155b6141295760405162461bcd60e51b8152600401610c7d906156f3565b600054610100900460ff1615801561414b576000805461ffff19166101011790555b60c980546001600160a01b0319166001600160a01b0384161790558015611a12576000805461ff00191690555050565b600054610100900460ff166141a25760405162461bcd60e51b8152600401610c7d90615766565b6141aa614673565b565b600054610100900460ff166141d35760405162461bcd60e51b8152600401610c7d90615766565b6141db6146a1565b6141e36146a1565b6141aa6146a1565b611a128282613e0b565b600061420083611602565b600084815260656020526040808220600101859055519192508391839186917fbd79b86ffe0ab8e8776151514217cd7cacd52c909f66475c3af44e129f0b00ff9190a4505050565b600061088d825490565b606060006142618360026158ae565b61426c906002615896565b6001600160401b0381111561429157634e487b7160e01b600052604160045260246000fd5b6040519080825280601f01601f1916602001820160405280156142bb576020820181803683370190505b509050600360fc1b816000815181106142e457634e487b7160e01b600052603260045260246000fd5b60200101906001600160f81b031916908160001a905350600f60fb1b8160018151811061432157634e487b7160e01b600052603260045260246000fd5b60200101906001600160f81b031916908160001a90535060006143458460026158ae565b614350906001615896565b90505b60018111156143e4576f181899199a1a9b1b9c1cb0b131b232b360811b85600f166010811061439257634e487b7160e01b600052603260045260246000fd5b1a60f81b8282815181106143b657634e487b7160e01b600052603260045260246000fd5b60200101906001600160f81b031916908160001a90535060049490941c936143dd81615910565b9050614353565b5083156127a35760405162461bcd60e51b815260206004820181905260248201527f537472696e67733a20686578206c656e67746820696e73756666696369656e746044820152606401610c7d565b6117388363a9059cbb60e01b8484604051602401613dd492919061543b565b60006144a7826040518060400160405280602081526020017f5361666545524332303a206c6f772d6c6576656c2063616c6c206661696c6564815250856001600160a01b03166146c89092919063ffffffff16565b80519091501561173857808060200190518101906144c59190614fa4565b6117385760405162461bcd60e51b815260206004820152602a60248201527f5361666545524332303a204552433230206f7065726174696f6e20646964206e6044820152691bdd081cdd58d8d9595960b21b6064820152608401610c7d565b61452e82826127aa565b611a125760008281526065602090815260408083206001600160a01b03851684529091529020805460ff191660011790556145663390565b6001600160a01b0316816001600160a01b0316837f2f8788117e7eff1d82e926ec794901d17c78024a50270940304540a733656f0d60405160405180910390a45050565b60006127a3836001600160a01b0384166146df565b6145c982826127aa565b15611a125760008281526065602090815260408083206001600160a01b0385168085529252808320805460ff1916905551339285917ff6391f5c32d9c69d2a47ea670b442974b53935d1edc7fd64eb21e047a839171b9190a45050565b60006127a3836001600160a01b03841661472e565b600082600001828154811061466057634e487b7160e01b600052603260045260246000fd5b9060005260206000200154905092915050565b600054610100900460ff1661469a5760405162461bcd60e51b8152600401610c7d90615766565b600160ca55565b600054610100900460ff166141aa5760405162461bcd60e51b8152600401610c7d90615766565b60606146d7848460008561484b565b949350505050565b60008181526001830160205260408120546147265750815460018181018455600084815260208082209093018490558454848252828601909352604090209190915561088d565b50600061088d565b600081815260018301602052604081205480156148415760006147526001836158cd565b8554909150600090614766906001906158cd565b90508181146147e757600086600001828154811061479457634e487b7160e01b600052603260045260246000fd5b90600052602060002001549050808760000184815481106147c557634e487b7160e01b600052603260045260246000fd5b6000918252602080832090910192909255918252600188019052604090208390555b855486908061480657634e487b7160e01b600052603160045260246000fd5b60019003818190600052602060002001600090559055856001016000868152602001908152602001600020600090556001935050505061088d565b600091505061088d565b6060824710156148ac5760405162461bcd60e51b815260206004820152602660248201527f416464726573733a20696e73756666696369656e742062616c616e636520666f6044820152651c8818d85b1b60d21b6064820152608401610c7d565b843b6148fa5760405162461bcd60e51b815260206004820152601d60248201527f416464726573733a2063616c6c20746f206e6f6e2d636f6e74726163740000006044820152606401610c7d565b600080866001600160a01b0316858760405161491691906151e4565b60006040518083038185875af1925050503d8060008114614953576040519150601f19603f3d011682016040523d82523d6000602084013e614958565b606091505b5091509150614968828286614973565b979650505050505050565b606083156149825750816127a3565b8251156149925782518084602001fd5b8160405162461bcd60e51b8152600401610c7d919061568f565b60008083601f8401126149bd578182fd5b5081356001600160401b038111156149d3578182fd5b6020830191508360208260051b85010111156149ee57600080fd5b9250929050565b600082601f830112614a05578081fd5b81356020614a1a614a1583615873565b615843565b80838252828201915082860187848660051b8901011115614a39578586fd5b855b85811015614a60578135614a4e81615953565b84529284019290840190600101614a3b565b5090979650505050505050565b600082601f830112614a7d578081fd5b81356020614a8d614a1583615873565b80838252828201915082860187848660051b8901011115614aac578586fd5b855b85811015614a6057813584529284019290840190600101614aae565b803563ffffffff81168114614ade57600080fd5b919050565b600060208284031215614af4578081fd5b81356127a381615953565b600060208284031215614b10578081fd5b81516127a381615953565b600080600060608486031215614b2f578182fd5b8335614b3a81615953565b92506020840135614b4a81615953565b91506040840135614b5a81615953565b809150509250925092565b6000806000806000806000806000806101408b8d031215614b84578586fd5b8a35614b8f81615953565b995060208b0135614b9f8161596b565b985060408b0135614baf8161596b565b975060608b0135614bbf8161596b565b965060808b0135614bcf8161596b565b999c989b50969995989760a0870135975060c08701359660e08101359650610100810135955061012001359350915050565b60008060408385031215614c13578182fd5b8235614c1e81615953565b91506020838101356001600160401b0380821115614c3a578384fd5b818601915086601f830112614c4d578384fd5b813581811115614c5f57614c5f61593d565b614c71601f8201601f19168501615843565b91508082528784828501011115614c86578485fd5b8084840185840137810190920192909252919491935090915050565b60008060408385031215614cb4578182fd5b8235614cbf81615953565b946020939093013593505050565b600080600080600060608688031215614ce4578283fd5b85356001600160401b0380821115614cfa578485fd5b614d0689838a016149ac565b90975095506020880135915080821115614d1e578485fd5b50614d2b888289016149ac565b9094509250506040860135614d3f8161596b565b809150509295509295909350565b600060208284031215614d5e578081fd5b81356001600160401b03811115614d73578182fd5b6146d7848285016149f5565b60008060408385031215614d91578182fd5b82356001600160401b0380821115614da7578384fd5b614db3868387016149f5565b93506020850135915080821115614dc8578283fd5b50614dd585828601614a6d565b9150509250929050565b600080600060608486031215614df3578081fd5b83356001600160401b0380821115614e09578283fd5b614e15878388016149f5565b94506020860135915080821115614e2a578283fd5b50614e3786828701614a6d565b9250506040840135614b5a8161596b565b60008060208385031215614e5a578182fd5b82356001600160401b03811115614e6f578283fd5b614e7b858286016149ac565b90969095509350505050565b600080600080600060608688031215614e9e578283fd5b85356001600160401b0380821115614eb4578485fd5b614ec089838a016149ac565b90975095506020880135915080821115614ed8578485fd5b50614ee5888289016149ac565b96999598509660400135949350505050565b60008060008060808587031215614f0c578182fd5b84516001600160401b03811115614f21578283fd5b8501601f81018713614f31578283fd5b80516020614f41614a1583615873565b8083825282820191508285018b848660051b8801011115614f60578788fd5b8795505b84861015614f82578051835260019590950194918301918301614f64565b509189015160408a01516060909a0151929b909a509197509095505050505050565b600060208284031215614fb5578081fd5b81516127a38161596b565b600060208284031215614fd1578081fd5b5035919050565b60008060408385031215614fea578182fd5b823591506020830135614ffc81615953565b809150509250929050565b60008060408385031215615019578182fd5b50508035926020909101359150565b600060208284031215615039578081fd5b81356001600160e01b0319811681146127a3578182fd5b600060208284031215615061578081fd5b5051919050565b600060208284031215615079578081fd5b6127a382614aca565b60008060008060808587031215615097578182fd5b6150a085614aca565b93506150ae60208601614aca565b92506150bc60408601614aca565b91506150ca60608601614aca565b905092959194509250565b81835260006020808501945082825b858110156151125781356150f781615953565b6001600160a01b0316875295820195908201906001016150e4565b509495945050505050565b6000815180845260208085019450808401835b838110156151125781516001600160a01b031687529582019590820190600101615130565b81835260006001600160fb1b0383111561516d578081fd5b8260051b80836020870137939093016020019283525090919050565b6000815180845260208085019450808401835b838110156151125781518752958201959082019060010161519c565b600081518084526151d08160208601602086016158e4565b601f01601f19169290920160200192915050565b600082516151f68184602087016158e4565b9190910192915050565b76020b1b1b2b9b9a1b7b73a3937b61d1030b1b1b7bab73a1604d1b8152600083516152328160178501602088016158e4565b7001034b99036b4b9b9b4b733903937b6329607d1b60179184019182015283516152638160288401602088016158e4565b01602801949350505050565b6001600160a01b0391909116815260200190565b6001600160a01b0392831681529116602082015260400190565b6001600160a01b03871681526080602082018190526000906152c290830187896150d5565b82810360408401526152d5818688615155565b9150508215156060830152979650505050505050565b6001600160a01b03831681526040602082018190526000906146d79083018461511d565b6001600160a01b03841681526060602082018190526000906153339083018561511d565b82810360408401526153458185615189565b9695505050505050565b6001600160a01b03851681526080602082018190526000906153739083018661511d565b82810360408401526153858186615189565b915050821515606083015295945050505050565b6001600160a01b038616815260a0602082018190526000906153bd9083018761511d565b82810360408401526153cf8187615189565b606084019590955250509015156080909101529392505050565b6001600160a01b038416815260406020820181905260009061540e9083018486615155565b95945050505050565b6001600160a01b03831681526040602082018190526000906146d7908301846151b8565b6001600160a01b03929092168252602082015260400190565b60e08152600061546860e083018b8d6150d5565b828103602084015261547b818a8c615155565b9050871515604084015282810360608401526154978188615189565b6080840196909652505060a081019290925260c0909101529695505050505050565b6060815260006154cc606083018661511d565b82810360208401526154de8186615189565b915050826040830152949350505050565b60208082528181018390526000906040808401600586811b8601830188865b898110156155cb57888303603f190185528135368c9003605e19018112615533578889fd5b8b016060813561554281615953565b6001600160a01b031685528189013536839003601e19018112615563578a8bfd5b820180356001600160401b0381111561557a578b8cfd5b80881b360384131561558a578b8cfd5b828b88015261559e838801828d85016150d5565b925050506155ad888301614aca565b63ffffffff169488019490945250938601939086019060010161550e565b50909998505050505050505050565b6060815260006155ee606083018789615155565b8281036020840152615601818688615155565b9150508260408301529695505050505050565b604081526000615628604083018587615155565b9050826020830152949350505050565b60808152600061564b6080830187615189565b6020830195909552506040810192909252606090910152919050565b60208101600d831061568957634e487b7160e01b600052602160045260246000fd5b91905290565b6020815260006127a360208301846151b8565b60208082526031908201527f43616c6c6572206973206e6f742077686974656c69737465642061732061206c60408201527034b8bab4b234ba3c90383937bb34b232b960791b606082015260800190565b6020808252602e908201527f496e697469616c697a61626c653a20636f6e747261637420697320616c72656160408201526d191e481a5b9a5d1a585b1a5e995960921b606082015260800190565b6020808252600b908201526a626164206164647265737360a81b604082015260600190565b6020808252602b908201527f496e697469616c697a61626c653a20636f6e7472616374206973206e6f74206960408201526a6e697469616c697a696e6760a81b606082015260800190565b60208082526019908201527810d85b1b195c881a5cc81b9bdd0819d85cc81858d8dbdd5b9d603a1b604082015260600190565b6020808252601f908201527f5265656e7472616e637947756172643a207265656e7472616e742063616c6c00604082015260600190565b63ffffffff948516815292841660208401529083166040830152909116606082015260800190565b604051601f8201601f191681016001600160401b038111828210171561586b5761586b61593d565b604052919050565b60006001600160401b0382111561588c5761588c61593d565b5060051b60200190565b600082198211156158a9576158a9615927565b500190565b60008160001904831182151516156158c8576158c8615927565b500290565b6000828210156158df576158df615927565b500390565b60005b838110156158ff5781810151838201526020016158e7565b838111156115fc5750506000910152565b60008161591f5761591f615927565b506000190190565b634e487b7160e01b600052601160045260246000fd5b634e487b7160e01b600052604160045260246000fd5b6001600160a01b038116811461596857600080fd5b50565b801515811461596857600080fdfe6d53deaa1363a9a09a38da6f41ec59fc13a00b08c43141d19c181ddb970e9d2a45a03fb503c1bf173e1a78fdc6b62e74bfc9c0cac4b0db3c4a667287a0fb7b9d72fed0a30cb639f27f755e6f7c6edf975db0859d96eb67b27d2695c6486b1be0a264697066735822122018fc13362bfb4352e2905fe170a3d75a8e98872ffc3e486aef297ba6cb0db5d164736f6c63430008040033",
  "devdoc": {
    "kind": "dev",
    "methods": {
      "addIntegration(address,string)": {
        "params": {
          "contractAddress": "The address of the integration contract",
          "name": "The name of the protocol being integrated to"
        }
      },
      "addToken(address,bool,bool,bool,bool,uint256,uint256,uint256,uint256,uint256)": {
        "params": {
          "acceptingDeposits": "Whether token deposits are enabled",
          "acceptingWithdrawals": "Whether token withdrawals are enabled",
          "biosRewardWeight": "Token weight for BIOS rewards",
          "reserveRatioNumerator": "Number that gets divided by reserve ratio denominator to get reserve ratio",
          "tokenAddress": "The address of the ERC20 token contract"
        }
      },
      "biosBuyBack(uint256)": {
        "params": {
          "ratioX1000": "BIOS/WETH ratio for front runner protection"
        }
      },
      "claimAllRewards(uint256[])": {
        "params": {
          "strategies": "Array of strategy IDs to claim eth rewards from"
        },
        "returns": {
          "biosClaimed": "The amount of BIOS claimed by the user",
          "ethClaimed": "The amount of ETH claimed by the user"
        }
      },
      "claimBiosRewards()": {
        "returns": {
          "biosClaimed": "The amount of BIOS claimed by the user"
        }
      },
      "claimEthRewards(uint256[])": {
        "params": {
          "strategies": "Array of strategy IDs to claim rewards from. 0 for BIOS PFA!"
        },
        "returns": {
          "ethClaimed": "The amount of ETH claimed by the user"
        }
      },
      "claimLpFees(address[])": {
        "params": {
          "tokens": "Array of token the token addresses"
        }
      },
      "deposit(address[],uint256[])": {
        "params": {
          "amounts": "Array of token amounts",
          "tokens": "Array of token the token addresses"
        }
      },
      "getEthRewardsTimePeriod()": {
        "returns": {
          "ethRewardsTimePeriod": "The number of seconds between the last two ETH payouts"
        }
      },
      "getLastBiosBuyBackTimestamp()": {
        "returns": {
          "_0": "The timestamp the biosBuyBack function was last called"
        }
      },
      "getLastDeployTimestamp()": {
        "returns": {
          "_0": "The timestamp the deploy function was last called"
        }
      },
      "getLastDistributeEthTimestamp()": {
        "returns": {
          "_0": "The timestamp the distributeEth function was last called"
        }
      },
      "getRoleAdmin(bytes32)": {
        "details": "Returns the admin role that controls `role`. See {grantRole} and {revokeRole}. To change a role's admin, use {_setRoleAdmin}."
      },
      "getRoleMember(bytes32,uint256)": {
        "details": "Returns one of the accounts that have `role`. `index` must be a value between 0 and {getRoleMemberCount}, non-inclusive. Role bearers are not sorted in any particular way, and their ordering may change at any point. WARNING: When using {getRoleMember} and {getRoleMemberCount}, make sure you perform all queries on the same block. See the following https://forum.openzeppelin.com/t/iterating-over-elements-on-enumerableset-in-openzeppelin-contracts/2296[forum post] for more information."
      },
      "getRoleMemberCount(bytes32)": {
        "details": "Returns the number of accounts that have `role`. Can be used together with {getRoleMember} to enumerate all bearers of a role."
      },
      "grantRole(bytes32,address)": {
        "details": "Grants `role` to `account`. If `account` had not been already granted `role`, emits a {RoleGranted} event. Requirements: - the caller must have ``role``'s admin role."
      },
      "hasRole(bytes32,address)": {
        "details": "Returns `true` if `account` has been granted `role`."
      },
      "initialize(address,address,address)": {
        "params": {
          "admin_": "default administrator, a cold storage address",
          "moduleMap_": "Module Map address",
          "owner_": "single owner account, used to manage the managers"
        }
      },
      "isLiquidityProvider(address)": {
        "params": {
          "account": "The address of the account to check if they are a liquidity provider"
        },
        "returns": {
          "_0": "Bool indicating whether the account is a liquidity provider"
        }
      },
      "isManager(address)": {
        "params": {
          "account": "The address of the account to check if they are a manager"
        },
        "returns": {
          "_0": "Bool indicating whether the account is a manger"
        }
      },
      "isOwner(address)": {
        "params": {
          "account": "The address of the account to check if they are an owner"
        },
        "returns": {
          "_0": "Bool indicating whether the account is an owner"
        }
      },
      "provideLiquidity(address[],uint256[])": {
        "params": {
          "amounts": "Array of token amounts",
          "tokens": "Array of token the token addresses"
        }
      },
      "renounceRole(bytes32,address)": {
        "details": "Revokes `role` from the calling account. Roles are often managed via {grantRole} and {revokeRole}: this function's purpose is to provide a mechanism for accounts to lose their privileges if they are compromised (such as when a trusted device is misplaced). If the calling account had been revoked `role`, emits a {RoleRevoked} event. Requirements: - the caller must be `account`."
      },
      "revokeRole(bytes32,address)": {
        "details": "Revokes `role` from `account`. If `account` had been granted `role`, emits a {RoleRevoked} event. Requirements: - the caller must have ``role``'s admin role."
      },
      "seedBiosRewards(uint256)": {
        "params": {
          "biosAmount": "The amount of BIOS to add to the rewards"
        }
      },
      "setBiosRewardsDuration(uint32)": {
        "params": {
          "biosRewardsDuration": "The duration in seconds for a BIOS rewards period to last"
        }
      },
      "supportsInterface(bytes4)": {
        "details": "See {IERC165-supportsInterface}."
      },
      "takeLiquidity(address[],uint256[])": {
        "params": {
          "amounts": "Array of token amounts",
          "tokens": "Array of token the token addresses"
        }
      },
      "updateEthDistributionWeights(uint32,uint32,uint32,uint32)": {
        "params": {
          "biosBuyBackEthWeight": "The relative weight of ETH to send to BIOS buy back",
          "protocolFeeEthWeight": "The relative weight of ETH to send to protocol fee accrual",
          "rewardsEthWeight": "The relative weight of ETH to send to user rewards",
          "treasuryEthWeight": "The relative weight of ETH to send to the treasury"
        }
      },
      "updateGasAccount(address)": {
        "params": {
          "gasAccount": "The address of the account to send ETH to gas for executing bulk system functions"
        }
      },
      "updateGasAccountTargetEthBalance(uint256)": {
        "params": {
          "gasAccountTargetEthBalance": "The target ETH balance of the gas account"
        }
      },
      "updateTokenReserveRatioNumerator(address,uint256)": {
        "params": {
          "reserveRatioNumerator": "Number that gets divided by reserve ratio denominator to get reserve ratio",
          "tokenAddress": "the address of the token ERC20 contract"
        }
      },
      "updateTokenRewardWeight(address,uint256)": {
        "params": {
          "tokenAddress": "The address of the token ERC20 contract",
          "updatedWeight": "The updated token BIOS reward weight"
        }
      },
      "updateTokenTargetLiquidityRatioNumerator(address,uint256)": {
        "params": {
          "targetLiquidityRatioNumerator": "Number that gets divided by target liquidity ratio denominator to get target liquidity ratio",
          "tokenAddress": "the address of the token ERC20 contract"
        }
      },
      "updateTokenTransferFeeKValueNumerator(address,uint256)": {
        "params": {
          "tokenAddress": "the address of the token ERC20 contract",
          "transferFeeKValueNumerator": "Number that gets divided by transfer fee K-value denominator to get K-value"
        }
      },
      "updateTokenTransferFeePlatformRatioNumerator(address,uint256)": {
        "params": {
          "tokenAddress": "the address of the token ERC20 contract",
          "transferFeePlatformRatioNumerator": "Number that gets divided by transfer fee platform ratio denominator to get the ratio of transfer fees sent to the platform instead of LPers"
        }
      },
      "updateTreasuryAccount(address)": {
        "params": {
          "treasuryAccount": "The address of the system treasury account"
        }
      },
      "withdraw(address[],uint256[],bool)": {
        "params": {
          "amounts": "Array of token amounts",
          "tokens": "Array of token the token addresses",
          "withdrawWethAsEth": "Boolean indicating whether should receive WETH balance as ETH"
        }
      },
      "withdrawAllAndClaim(address[],uint256[],bool)": {
        "params": {
          "strategies": "Array of strategyIDs that user is claiming rewards from",
          "tokens": "Array of token address that user is exiting positions from",
          "withdrawWethAsEth": "Boolean indicating whether should receive WETH balance as ETH"
        },
        "returns": {
          "biosClaimed": "The amount of BIOS being claimed from rewards",
          "ethClaimed": "The amount of ETH being claimed from rewards",
          "ethWithdrawn": "The amount of WETH balance being withdrawn as ETH",
          "tokenAmounts": "The amounts of each token being withdrawn"
        }
      }
    },
    "title": "Kernel",
    "version": 1
  },
  "userdoc": {
    "kind": "user",
    "methods": {
      "addIntegration(address,string)": {
        "notice": "This function is used after tokens have been added, and a weight array should be included"
      },
      "biosBuyBack(uint256)": {
        "notice": "Uses any WETH held in the SushiSwap integration to buy back BIOS which is sent to the Kernel"
      },
      "claimAllRewards(uint256[])": {
        "notice": "Allows user to claim their ETH and BIOS rewards"
      },
      "claimBiosRewards()": {
        "notice": "Allows user to claim their BIOS rewards"
      },
      "claimEthRewards(uint256[])": {
        "notice": "Allows user to claim their ETH rewards"
      },
      "deploy((address,address[],uint32)[])": {
        "notice": "Deploys all tokens to all integrations according to configured weights"
      },
      "deposit(address[],uint256[])": {
        "notice": "User is allowed to deposit whitelisted tokens"
      },
      "distributeEth(uint256[],uint256[],uint256)": {
        "notice": "Distributes WETH to the gas account, BIOS buy back, treasury, protocol fee accrual, and user rewards"
      },
      "initialize(address,address,address)": {
        "notice": "Initializes contract - used as a replacement for a constructor"
      },
      "provideLiquidity(address[],uint256[])": {
        "notice": "User is allowed to LP whitelisted tokens"
      },
      "tokenApprovals()": {
        "notice": "Gives the UserPositions contract approval to transfer BIOS from Kernel"
      },
      "withdraw(address[],uint256[],bool)": {
        "notice": "User is allowed to withdraw tokens"
      },
      "withdrawAllAndClaim(address[],uint256[],bool)": {
        "notice": "Allows a user to withdraw entire undeployed balances of the specified tokens and claim rewards"
      }
    },
    "notice": "Allows users to deposit/withdraw erc20 tokensAllows a system admin to control which tokens are depositable",
    "version": 1
  },
  "storageLayout": {
    "storage": [
      {
        "astId": 723,
        "contract": "contracts/core/Kernel.sol:Kernel",
        "label": "_initialized",
        "offset": 0,
        "slot": "0",
        "type": "t_bool"
      },
      {
        "astId": 726,
        "contract": "contracts/core/Kernel.sol:Kernel",
        "label": "_initializing",
        "offset": 1,
        "slot": "0",
        "type": "t_bool"
      },
      {
        "astId": 2036,
        "contract": "contracts/core/Kernel.sol:Kernel",
        "label": "__gap",
        "offset": 0,
        "slot": "1",
        "type": "t_array(t_uint256)50_storage"
      },
      {
        "astId": 2285,
        "contract": "contracts/core/Kernel.sol:Kernel",
        "label": "__gap",
        "offset": 0,
        "slot": "51",
        "type": "t_array(t_uint256)50_storage"
      },
      {
        "astId": 204,
        "contract": "contracts/core/Kernel.sol:Kernel",
        "label": "_roles",
        "offset": 0,
        "slot": "101",
        "type": "t_mapping(t_bytes32,t_struct(RoleData)199_storage)"
      },
      {
        "astId": 491,
        "contract": "contracts/core/Kernel.sol:Kernel",
        "label": "__gap",
        "offset": 0,
        "slot": "102",
        "type": "t_array(t_uint256)49_storage"
      },
      {
        "astId": 45,
        "contract": "contracts/core/Kernel.sol:Kernel",
        "label": "_roleMembers",
        "offset": 0,
        "slot": "151",
        "type": "t_mapping(t_bytes32,t_struct(AddressSet)2698_storage)"
      },
      {
        "astId": 154,
        "contract": "contracts/core/Kernel.sol:Kernel",
        "label": "__gap",
        "offset": 0,
        "slot": "152",
        "type": "t_array(t_uint256)49_storage"
      },
      {
        "astId": 9911,
        "contract": "contracts/core/Kernel.sol:Kernel",
        "label": "moduleMap",
        "offset": 0,
        "slot": "201",
        "type": "t_contract(IModuleMap)20555"
      },
      {
        "astId": 804,
        "contract": "contracts/core/Kernel.sol:Kernel",
        "label": "_status",
        "offset": 0,
        "slot": "202",
        "type": "t_uint256"
      },
      {
        "astId": 847,
        "contract": "contracts/core/Kernel.sol:Kernel",
        "label": "__gap",
        "offset": 0,
        "slot": "203",
        "type": "t_array(t_uint256)49_storage"
      },
      {
        "astId": 8302,
        "contract": "contracts/core/Kernel.sol:Kernel",
        "label": "lastDeployTimestamp",
        "offset": 0,
        "slot": "252",
        "type": "t_uint256"
      },
      {
        "astId": 8304,
        "contract": "contracts/core/Kernel.sol:Kernel",
        "label": "lastHarvestYieldTimestamp",
        "offset": 0,
        "slot": "253",
        "type": "t_uint256"
      },
      {
        "astId": 8306,
        "contract": "contracts/core/Kernel.sol:Kernel",
        "label": "lastDistributeEthTimestamp",
        "offset": 0,
        "slot": "254",
        "type": "t_uint256"
      },
      {
        "astId": 8308,
        "contract": "contracts/core/Kernel.sol:Kernel",
        "label": "lastLastDistributeEthTimestamp",
        "offset": 0,
        "slot": "255",
        "type": "t_uint256"
      },
      {
        "astId": 8310,
        "contract": "contracts/core/Kernel.sol:Kernel",
        "label": "lastBiosBuyBackTimestamp",
        "offset": 0,
        "slot": "256",
        "type": "t_uint256"
      },
      {
        "astId": 8312,
        "contract": "contracts/core/Kernel.sol:Kernel",
        "label": "initializationTimestamp",
        "offset": 0,
        "slot": "257",
        "type": "t_uint256"
      },
      {
        "astId": 8314,
        "contract": "contracts/core/Kernel.sol:Kernel",
        "label": "lpWhitelistEnabled",
        "offset": 0,
        "slot": "258",
        "type": "t_bool"
      }
    ],
    "types": {
      "t_address": {
        "encoding": "inplace",
        "label": "address",
        "numberOfBytes": "20"
      },
      "t_array(t_bytes32)dyn_storage": {
        "base": "t_bytes32",
        "encoding": "dynamic_array",
        "label": "bytes32[]",
        "numberOfBytes": "32"
      },
      "t_array(t_uint256)49_storage": {
        "base": "t_uint256",
        "encoding": "inplace",
        "label": "uint256[49]",
        "numberOfBytes": "1568"
      },
      "t_array(t_uint256)50_storage": {
        "base": "t_uint256",
        "encoding": "inplace",
        "label": "uint256[50]",
        "numberOfBytes": "1600"
      },
      "t_bool": {
        "encoding": "inplace",
        "label": "bool",
        "numberOfBytes": "1"
      },
      "t_bytes32": {
        "encoding": "inplace",
        "label": "bytes32",
        "numberOfBytes": "32"
      },
      "t_contract(IModuleMap)20555": {
        "encoding": "inplace",
        "label": "contract IModuleMap",
        "numberOfBytes": "20"
      },
      "t_mapping(t_address,t_bool)": {
        "encoding": "mapping",
        "key": "t_address",
        "label": "mapping(address => bool)",
        "numberOfBytes": "32",
        "value": "t_bool"
      },
      "t_mapping(t_bytes32,t_struct(AddressSet)2698_storage)": {
        "encoding": "mapping",
        "key": "t_bytes32",
        "label": "mapping(bytes32 => struct EnumerableSetUpgradeable.AddressSet)",
        "numberOfBytes": "32",
        "value": "t_struct(AddressSet)2698_storage"
      },
      "t_mapping(t_bytes32,t_struct(RoleData)199_storage)": {
        "encoding": "mapping",
        "key": "t_bytes32",
        "label": "mapping(bytes32 => struct AccessControlUpgradeable.RoleData)",
        "numberOfBytes": "32",
        "value": "t_struct(RoleData)199_storage"
      },
      "t_mapping(t_bytes32,t_uint256)": {
        "encoding": "mapping",
        "key": "t_bytes32",
        "label": "mapping(bytes32 => uint256)",
        "numberOfBytes": "32",
        "value": "t_uint256"
      },
      "t_struct(AddressSet)2698_storage": {
        "encoding": "inplace",
        "label": "struct EnumerableSetUpgradeable.AddressSet",
        "members": [
          {
            "astId": 2697,
            "contract": "contracts/core/Kernel.sol:Kernel",
            "label": "_inner",
            "offset": 0,
            "slot": "0",
            "type": "t_struct(Set)2397_storage"
          }
        ],
        "numberOfBytes": "64"
      },
      "t_struct(RoleData)199_storage": {
        "encoding": "inplace",
        "label": "struct AccessControlUpgradeable.RoleData",
        "members": [
          {
            "astId": 196,
            "contract": "contracts/core/Kernel.sol:Kernel",
            "label": "members",
            "offset": 0,
            "slot": "0",
            "type": "t_mapping(t_address,t_bool)"
          },
          {
            "astId": 198,
            "contract": "contracts/core/Kernel.sol:Kernel",
            "label": "adminRole",
            "offset": 0,
            "slot": "1",
            "type": "t_bytes32"
          }
        ],
        "numberOfBytes": "64"
      },
      "t_struct(Set)2397_storage": {
        "encoding": "inplace",
        "label": "struct EnumerableSetUpgradeable.Set",
        "members": [
          {
            "astId": 2392,
            "contract": "contracts/core/Kernel.sol:Kernel",
            "label": "_values",
            "offset": 0,
            "slot": "0",
            "type": "t_array(t_bytes32)dyn_storage"
          },
          {
            "astId": 2396,
            "contract": "contracts/core/Kernel.sol:Kernel",
            "label": "_indexes",
            "offset": 0,
            "slot": "1",
            "type": "t_mapping(t_bytes32,t_uint256)"
          }
        ],
        "numberOfBytes": "64"
      },
      "t_uint256": {
        "encoding": "inplace",
        "label": "uint256",
        "numberOfBytes": "32"
      }
    }
  }
}