{
  "address": "0x26A6759059A778cf8e38bE7F4e9f7F64C6A69e06",
  "abi": [
    {
      "anonymous": false,
      "inputs": [
        {
          "indexed": true,
          "internalType": "address",
          "name": "tokenA",
          "type": "address"
        },
        {
          "indexed": true,
          "internalType": "address",
          "name": "tokenB",
          "type": "address"
        },
        {
          "indexed": false,
          "internalType": "uint32",
          "name": "poolID",
          "type": "uint32"
        }
      ],
      "name": "CreatePool",
      "type": "event"
    },
    {
      "anonymous": false,
      "inputs": [
        {
          "indexed": false,
          "internalType": "uint256",
          "name": "poolId",
          "type": "uint256"
        },
        {
          "indexed": false,
          "internalType": "uint256",
          "name": "amount",
          "type": "uint256"
        }
      ],
      "name": "DepositToPool",
      "type": "event"
    },
    {
      "anonymous": false,
      "inputs": [
        {
          "indexed": true,
          "internalType": "uint32",
          "name": "poolID",
          "type": "uint32"
        }
      ],
      "name": "HarvestYieldError",
      "type": "event"
    },
    {
      "anonymous": false,
      "inputs": [
        {
          "indexed": false,
          "internalType": "uint256",
          "name": "amount",
          "type": "uint256"
        }
      ],
      "name": "LPTokensAcquired",
      "type": "event"
    },
    {
      "anonymous": false,
      "inputs": [
        {
          "indexed": false,
          "internalType": "uint256",
          "name": "poolId",
          "type": "uint256"
        },
        {
          "indexed": false,
          "internalType": "address",
          "name": "tokenSold",
          "type": "address"
        },
        {
          "indexed": false,
          "internalType": "uint256",
          "name": "amountSold",
          "type": "uint256"
        },
        {
          "indexed": false,
          "internalType": "address",
          "name": "tokenBought",
          "type": "address"
        },
        {
          "indexed": false,
          "internalType": "uint256",
          "name": "amountBought",
          "type": "uint256"
        }
      ],
      "name": "PoolRebalanced",
      "type": "event"
    },
    {
      "anonymous": false,
      "inputs": [
        {
          "indexed": false,
          "internalType": "uint256",
          "name": "amount",
          "type": "uint256"
        }
      ],
      "name": "TokensReceived",
      "type": "event"
    },
    {
      "anonymous": false,
      "inputs": [
        {
          "indexed": false,
          "internalType": "uint256",
          "name": "poolId",
          "type": "uint256"
        },
        {
          "indexed": false,
          "internalType": "uint256",
          "name": "amount",
          "type": "uint256"
        }
      ],
      "name": "WithdrawnFromPool",
      "type": "event"
    },
    {
      "anonymous": false,
      "inputs": [
        {
          "indexed": false,
          "internalType": "uint256",
          "name": "amount",
          "type": "uint256"
        }
      ],
      "name": "YieldReceived",
      "type": "event"
    },
    {
      "inputs": [
        {
          "internalType": "address[]",
          "name": "controllers_",
          "type": "address[]"
        },
        {
          "internalType": "address",
          "name": "moduleMap_",
          "type": "address"
        }
      ],
      "name": "__Controlled_init",
      "outputs": [],
      "stateMutability": "nonpayable",
      "type": "function"
    },
    {
      "inputs": [
        {
          "internalType": "address",
          "name": "controller",
          "type": "address"
        }
      ],
      "name": "addController",
      "outputs": [],
      "stateMutability": "nonpayable",
      "type": "function"
    },
    {
      "inputs": [
        {
          "internalType": "uint32",
          "name": "poolId",
          "type": "uint32"
        },
        {
          "internalType": "address",
          "name": "stakingRewards",
          "type": "address"
        }
      ],
      "name": "configureStaking",
      "outputs": [],
      "stateMutability": "nonpayable",
      "type": "function"
    },
    {
      "inputs": [
        {
          "internalType": "uint32",
          "name": "poolId",
          "type": "uint32"
        },
        {
          "internalType": "address",
          "name": "stakingRewards",
          "type": "address"
        }
      ],
      "name": "configureStakingOverwrite",
      "outputs": [],
      "stateMutability": "nonpayable",
      "type": "function"
    },
    {
      "inputs": [
        {
          "internalType": "uint256",
          "name": "",
          "type": "uint256"
        }
      ],
      "name": "controllers",
      "outputs": [
        {
          "internalType": "address",
          "name": "",
          "type": "address"
        }
      ],
      "stateMutability": "view",
      "type": "function"
    },
    {
      "inputs": [
        {
          "internalType": "address",
          "name": "tokenA",
          "type": "address"
        },
        {
          "internalType": "address",
          "name": "tokenB",
          "type": "address"
        },
        {
          "internalType": "uint256",
          "name": "",
          "type": "uint256"
        }
      ],
      "name": "createPool",
      "outputs": [],
      "stateMutability": "nonpayable",
      "type": "function"
    },
    {
      "inputs": [
        {
          "internalType": "uint32",
          "name": "poolId",
          "type": "uint32"
        },
        {
          "internalType": "address",
          "name": "token",
          "type": "address"
        },
        {
          "internalType": "uint256",
          "name": "amount",
          "type": "uint256"
        }
      ],
      "name": "decrementBalance",
      "outputs": [],
      "stateMutability": "nonpayable",
      "type": "function"
    },
    {
      "inputs": [
        {
          "internalType": "uint32",
          "name": "poolId",
          "type": "uint32"
        }
      ],
      "name": "deploy",
      "outputs": [],
      "stateMutability": "nonpayable",
      "type": "function"
    },
    {
      "inputs": [
        {
          "internalType": "address",
          "name": "tokenAddress",
          "type": "address"
        },
        {
          "internalType": "uint256",
          "name": "amount",
          "type": "uint256"
        },
        {
          "internalType": "uint32",
          "name": "poolId",
          "type": "uint32"
        }
      ],
      "name": "deposit",
      "outputs": [],
      "stateMutability": "nonpayable",
      "type": "function"
    },
    {
      "inputs": [
        {
          "internalType": "address",
          "name": "tokenIn",
          "type": "address"
        },
        {
          "internalType": "address",
          "name": "tokenOut",
          "type": "address"
        },
        {
          "internalType": "uint256",
          "name": "amountIn",
          "type": "uint256"
        }
      ],
      "name": "getAmountOut",
      "outputs": [
        {
          "internalType": "uint256",
          "name": "amountOut",
          "type": "uint256"
        }
      ],
      "stateMutability": "view",
      "type": "function"
    },
    {
      "inputs": [
        {
          "internalType": "address",
          "name": "tokenIn",
          "type": "address"
        },
        {
          "internalType": "address",
          "name": "tokenOut",
          "type": "address"
        },
        {
          "internalType": "uint256",
          "name": "amountIn",
          "type": "uint256"
        }
      ],
      "name": "getAmountOutMinimum",
      "outputs": [
        {
          "internalType": "uint256",
          "name": "amountOutMinimum",
          "type": "uint256"
        }
      ],
      "stateMutability": "view",
      "type": "function"
    },
    {
      "inputs": [
        {
          "internalType": "uint32",
          "name": "poolId",
          "type": "uint32"
        },
        {
          "internalType": "address",
          "name": "tokenAddress",
          "type": "address"
        }
      ],
      "name": "getBalance",
      "outputs": [
        {
          "internalType": "uint256",
          "name": "",
          "type": "uint256"
        }
      ],
      "stateMutability": "view",
      "type": "function"
    },
    {
      "inputs": [
        {
          "internalType": "uint32",
          "name": "poolId",
          "type": "uint32"
        }
      ],
      "name": "getHarvestedYield",
      "outputs": [
        {
          "internalType": "uint256",
          "name": "",
          "type": "uint256"
        }
      ],
      "stateMutability": "view",
      "type": "function"
    },
    {
      "inputs": [
        {
          "internalType": "uint32",
          "name": "poolId",
          "type": "uint32"
        }
      ],
      "name": "getPendingYield",
      "outputs": [
        {
          "internalType": "address[2]",
          "name": "tokens",
          "type": "address[2]"
        },
        {
          "internalType": "uint256[2]",
          "name": "amounts",
          "type": "uint256[2]"
        }
      ],
      "stateMutability": "view",
      "type": "function"
    },
    {
      "inputs": [
        {
          "internalType": "uint32",
          "name": "pid",
          "type": "uint32"
        }
      ],
      "name": "getPool",
      "outputs": [
        {
          "components": [
            {
              "internalType": "address",
              "name": "tokenA",
              "type": "address"
            },
            {
              "internalType": "address",
              "name": "tokenB",
              "type": "address"
            },
            {
              "internalType": "uint256",
              "name": "positionID",
              "type": "uint256"
            }
          ],
          "internalType": "struct IAMMIntegration.Pool",
          "name": "",
          "type": "tuple"
        }
      ],
      "stateMutability": "view",
      "type": "function"
    },
    {
      "inputs": [
        {
          "internalType": "uint32",
          "name": "poolId",
          "type": "uint32"
        }
      ],
      "name": "getPoolBalance",
      "outputs": [
        {
          "internalType": "uint256",
          "name": "tokenA",
          "type": "uint256"
        },
        {
          "internalType": "uint256",
          "name": "tokenB",
          "type": "uint256"
        }
      ],
      "stateMutability": "view",
      "type": "function"
    },
    {
      "inputs": [
        {
          "internalType": "uint32[]",
          "name": "pids",
          "type": "uint32[]"
        }
      ],
      "name": "getRewardBalances",
      "outputs": [
        {
          "internalType": "uint256[]",
          "name": "rewardAmounts",
          "type": "uint256[]"
        }
      ],
      "stateMutability": "view",
      "type": "function"
    },
    {
      "inputs": [
        {
          "internalType": "uint32",
          "name": "poolId",
          "type": "uint32"
        }
      ],
      "name": "getStakingAddress",
      "outputs": [
        {
          "internalType": "address",
          "name": "",
          "type": "address"
        }
      ],
      "stateMutability": "view",
      "type": "function"
    },
    {
      "inputs": [],
      "name": "getTotalHarvestedYield",
      "outputs": [
        {
          "internalType": "uint256",
          "name": "amount",
          "type": "uint256"
        }
      ],
      "stateMutability": "view",
      "type": "function"
    },
    {
      "inputs": [
        {
          "internalType": "uint32[]",
          "name": "pids",
          "type": "uint32[]"
        }
      ],
      "name": "getYieldBalances",
      "outputs": [
        {
          "internalType": "uint256[]",
          "name": "amounts",
          "type": "uint256[]"
        }
      ],
      "stateMutability": "view",
      "type": "function"
    },
    {
      "inputs": [],
      "name": "harvestYield",
      "outputs": [],
      "stateMutability": "nonpayable",
      "type": "function"
    },
    {
      "inputs": [
        {
          "internalType": "uint32",
          "name": "poolId",
          "type": "uint32"
        },
        {
          "internalType": "uint256",
          "name": "rewardRatioX1000",
          "type": "uint256"
        },
        {
          "internalType": "uint256",
          "name": "",
          "type": "uint256"
        },
        {
          "internalType": "bool",
          "name": "",
          "type": "bool"
        }
      ],
      "name": "harvestYieldByPool",
      "outputs": [],
      "stateMutability": "nonpayable",
      "type": "function"
    },
    {
      "inputs": [
        {
          "internalType": "uint32",
          "name": "poolId",
          "type": "uint32"
        },
        {
          "internalType": "address",
          "name": "token",
          "type": "address"
        },
        {
          "internalType": "uint256",
          "name": "amount",
          "type": "uint256"
        }
      ],
      "name": "incrementBalance",
      "outputs": [],
      "stateMutability": "nonpayable",
      "type": "function"
    },
    {
      "inputs": [
        {
          "internalType": "address[]",
          "name": "controllers_",
          "type": "address[]"
        },
        {
          "internalType": "address",
          "name": "moduleMap_",
          "type": "address"
        },
        {
          "internalType": "address",
          "name": "factoryAddress_",
          "type": "address"
        },
        {
          "internalType": "address",
          "name": "swapRouterAddress_",
          "type": "address"
        },
        {
          "internalType": "uint24",
          "name": "slippageNumerator_",
          "type": "uint24"
        }
      ],
      "name": "initialize",
      "outputs": [],
      "stateMutability": "nonpayable",
      "type": "function"
    },
    {
      "inputs": [
        {
          "internalType": "uint32",
          "name": "poolId",
          "type": "uint32"
        }
      ],
      "name": "manualDeploy",
      "outputs": [],
      "stateMutability": "nonpayable",
      "type": "function"
    },
    {
      "inputs": [
        {
          "internalType": "address",
          "name": "tokenAddress",
          "type": "address"
        },
        {
          "internalType": "uint256",
          "name": "amount",
          "type": "uint256"
        },
        {
          "internalType": "uint32",
          "name": "poolId",
          "type": "uint32"
        },
        {
          "internalType": "uint256",
          "name": "ratioX1000",
          "type": "uint256"
        }
      ],
      "name": "manualWithdraw",
      "outputs": [],
      "stateMutability": "nonpayable",
      "type": "function"
    },
    {
      "inputs": [],
      "name": "moduleMap",
      "outputs": [
        {
          "internalType": "contract IModuleMap",
          "name": "",
          "type": "address"
        }
      ],
      "stateMutability": "view",
      "type": "function"
    },
    {
      "inputs": [],
      "name": "poolCount",
      "outputs": [
        {
          "internalType": "uint32",
          "name": "",
          "type": "uint32"
        }
      ],
      "stateMutability": "view",
      "type": "function"
    },
    {
      "inputs": [
        {
          "internalType": "uint32",
          "name": "poolId",
          "type": "uint32"
        },
        {
          "internalType": "uint256",
          "name": "ratioX1000",
          "type": "uint256"
        },
        {
          "internalType": "uint256",
          "name": "maxSellTokenA",
          "type": "uint256"
        },
        {
          "internalType": "uint256",
          "name": "maxSellTokenB",
          "type": "uint256"
        }
      ],
      "name": "rebalancePool",
      "outputs": [],
      "stateMutability": "nonpayable",
      "type": "function"
    },
    {
      "inputs": [
        {
          "internalType": "uint32",
          "name": "poolId",
          "type": "uint32"
        }
      ],
      "name": "stakeLPTokens",
      "outputs": [],
      "stateMutability": "nonpayable",
      "type": "function"
    },
    {
      "inputs": [
        {
          "internalType": "address",
          "name": "tokenIn",
          "type": "address"
        },
        {
          "internalType": "address",
          "name": "tokenOut",
          "type": "address"
        },
        {
          "internalType": "address",
          "name": "recipient",
          "type": "address"
        },
        {
          "internalType": "uint256",
          "name": "amountIn",
          "type": "uint256"
        },
        {
          "internalType": "uint256",
          "name": "amountOutMin",
          "type": "uint256"
        }
      ],
      "name": "swapExactInput",
      "outputs": [
        {
          "internalType": "uint256[]",
          "name": "",
          "type": "uint256[]"
        }
      ],
      "stateMutability": "nonpayable",
      "type": "function"
    },
    {
      "inputs": [
        {
          "internalType": "uint32[]",
          "name": "pids",
          "type": "uint32[]"
        }
      ],
      "name": "updateRewardToken",
      "outputs": [],
      "stateMutability": "nonpayable",
      "type": "function"
    },
    {
      "inputs": [
        {
          "internalType": "address",
          "name": "tokenAddress",
          "type": "address"
        },
        {
          "internalType": "uint256",
          "name": "amount",
          "type": "uint256"
        },
        {
          "internalType": "uint32",
          "name": "poolId",
          "type": "uint32"
        }
      ],
      "name": "withdraw",
      "outputs": [],
      "stateMutability": "nonpayable",
      "type": "function"
    },
    {
      "inputs": [
        {
          "internalType": "address",
          "name": "tokenAddress",
          "type": "address"
        },
        {
          "internalType": "uint256",
          "name": "amount",
          "type": "uint256"
        },
        {
          "internalType": "uint32",
          "name": "poolId",
          "type": "uint32"
        },
        {
          "internalType": "uint256",
          "name": "ratioX1000",
          "type": "uint256"
        }
      ],
      "name": "withdraw",
      "outputs": [],
      "stateMutability": "nonpayable",
      "type": "function"
    },
    {
      "inputs": [
        {
          "internalType": "uint32",
          "name": "",
          "type": "uint32"
        }
      ],
      "name": "yieldBalances",
      "outputs": [
        {
          "internalType": "uint256",
          "name": "",
          "type": "uint256"
        }
      ],
      "stateMutability": "view",
      "type": "function"
    },
    {
      "stateMutability": "payable",
      "type": "receive"
    }
  ],
  "transactionHash": "0x6fa2fe28dd7c9a272c34545aaa57a84151033e8c378bac0d7136b9bb602954e8",
  "args": [],
  "solcInputHash": "cd669f552ab81bbb358febb0763f4a63",
  "bytecode": "0x608060405234801561001057600080fd5b5061591880620000216000396000f3fe6080604052600436106101985760003560e01c80630c3fa05f146101a45780630f0a1c6f146101c6578063257b318514610202578063403df5441461022257806348342f8014610250578063494705411461028c5780634aa06652146102b95780634d24e9e4146102e75780634dc6ba091461030757806351810fb5146103275780635441c2b61461034757806355b961801461036757806358a0f0491461037c57806359cf86da1461039c5780635a1fcc3a146103bc5780635ce564f4146103dc5780635f53bc43146103fc5780637534e0601461041c578063754a02741461043c5780637db2ddfe1461045c578063904281601461047c57806398c671ce1461049c5780639da46ee3146104bc578063a4515d371461050c578063a7fc7a071461053f578063a816800c1461055f578063ac211b951461057f578063b1cccca21461059f578063ccbfc16c146105bf578063cf73715a146105df578063e809529e146105ff578063e8d991d11461062c578063e94b0dd214610641578063eb40c54514610661578063f525cb681461069657600080fd5b3661019f57005b600080fd5b3480156101b057600080fd5b506101c46101bf3660046152a3565b6106c8565b005b3480156101d257600080fd5b506000546101ec906201000090046001600160a01b031681565b6040516101f991906153aa565b60405180910390f35b34801561020e57600080fd5b506101c461021d366004614fae565b610901565b34801561022e57600080fd5b5061024261023d3660046152a3565b610b21565b6040516101f99291906153f1565b34801561025c57600080fd5b506101ec61026b3660046152a3565b63ffffffff166000908152600960205260409020546001600160a01b031690565b34801561029857600080fd5b506102ac6102a7366004614e3d565b610c97565b6040516101f99190615456565b3480156102c557600080fd5b506102d96102d4366004614e97565b610ce0565b6040519081526020016101f9565b3480156102f357600080fd5b506102ac6103023660046150ce565b610cfe565b34801561031357600080fd5b506101c461032236600461513d565b610df3565b34801561033357600080fd5b506101c4610342366004614e97565b6110b2565b34801561035357600080fd5b506102d96103623660046152bf565b611424565b34801561037357600080fd5b506102d9611454565b34801561038857600080fd5b506102ac6103973660046150ce565b61149a565b3480156103a857600080fd5b506101c46103b73660046152ec565b611584565b3480156103c857600080fd5b506101c46103d73660046152bf565b6116e3565b3480156103e857600080fd5b506101c46103f73660046152a3565b61180b565b34801561040857600080fd5b506101c46104173660046152ec565b611846565b34801561042857600080fd5b506101c461043736600461530b565b61199b565b34801561044857600080fd5b506101c4610457366004614f18565b611c76565b34801561046857600080fd5b506101c4610477366004614ed7565b611da6565b34801561048857600080fd5b506101c46104973660046152bf565b611f06565b3480156104a857600080fd5b506101c46104b7366004614f5f565b61202e565b3480156104c857600080fd5b506104dc6104d73660046152a3565b6121d3565b6040805182516001600160a01b0390811682526020808501519091169082015291810151908201526060016101f9565b34801561051857600080fd5b506102d96105273660046152a3565b63ffffffff166000908152600c602052604090205490565b34801561054b57600080fd5b506101c461055a366004614e05565b612232565b34801561056b57600080fd5b506101c461057a366004614f18565b612470565b34801561058b57600080fd5b506101c461059a366004615354565b61259b565b3480156105ab57600080fd5b506101c46105ba366004614ed7565b61295e565b3480156105cb57600080fd5b506102d96105da366004614e97565b6129c6565b3480156105eb57600080fd5b506101c46105fa3660046152a3565b612a0c565b34801561060b57600080fd5b506102d961061a3660046152a3565b600b6020526000908152604090205481565b34801561063857600080fd5b506101c4612b28565b34801561064d57600080fd5b506101ec61065c366004615223565b612d06565b34801561066d57600080fd5b5061068161067c3660046152a3565b612d30565b604080519283526020830191909152016101f9565b3480156106a257600080fd5b506007546106b39063ffffffff1681565b60405163ffffffff90911681526020016101f9565b600080546040516337c61fc560e11b8152620100009091046001600160a01b031691636f8c3f8a916106fd919060040161549a565b60206040518083038186803b15801561071557600080fd5b505afa158015610729573d6000803e3d6000fd5b505050506040513d601f19601f8201168201806040525081019061074d9190614e21565b6001600160a01b031663f3ae2415336040518263ffffffff1660e01b815260040161077891906153aa565b60206040518083038186803b15801561079057600080fd5b505afa1580156107a4573d6000803e3d6000fd5b505050506040513d601f19601f820116820180604052508101906107c891906151cc565b6107ed5760405162461bcd60e51b81526004016107e4906155c1565b60405180910390fd5b60006107f8826121d3565b9050600061080e82600001518360200151612d46565b6001600160a01b03166370a08231306040518263ffffffff1660e01b815260040161083991906153aa565b60206040518083038186803b15801561085157600080fd5b505afa158015610865573d6000803e3d6000fd5b505050506040513d601f19601f82011682018060405250810190610889919061523b565b63ffffffff84166000908152600960205260409081902054905163534a7e1d60e11b8152600481018390529192506001600160a01b03169063a694fc3a90602401600060405180830381600087803b1580156108e457600080fd5b505af11580156108f8573d6000803e3d6000fd5b50505050505050565b600054610100900460ff1661091c5760005460ff1615610920565b303b155b61093c5760405162461bcd60e51b81526004016107e490615522565b600054610100900460ff1615801561095e576000805461ffff19166101011790555b6001600160a01b0384166109845760405162461bcd60e51b81526004016107e490615570565b6001600160a01b0383166109aa5760405162461bcd60e51b81526004016107e490615570565b6109b4868661202e565b60038054600480546001600160a01b0319166001600160a01b038781169190911782556001600160b81b031990921663010000008884160262ffffff19161762ffffff86161783556000546040516337c61fc560e11b81526201000090910490921692636f8c3f8a92610a27920161549a565b60206040518083038186803b158015610a3f57600080fd5b505afa158015610a53573d6000803e3d6000fd5b505050506040513d601f19601f82011682018060405250810190610a779190614e21565b6001600160a01b0316638b9c94896040518163ffffffff1660e01b815260040160206040518083038186803b158015610aaf57600080fd5b505afa158015610ac3573d6000803e3d6000fd5b505050506040513d601f19601f82011682018060405250810190610ae79190614e21565b600580546001600160a01b0319166001600160a01b03929092169190911790558015610b19576000805461ff00191690555b505050505050565b610b29614ce7565b610b31614ce7565b6040805180820180835263ffffffff8616600090815260096020908152908490205463d1af0c7d60e01b9092529251919283926001600160a01b039092169163d1af0c7d9160448086019290818703018186803b158015610b9157600080fd5b505afa158015610ba5573d6000803e3d6000fd5b505050506040513d601f19601f82011682018060405250810190610bc99190614e21565b6001600160a01b03908116825260055481166020928301526040805180820180835263ffffffff89166000908152600990955291909320546246613160e11b909152829116628cc262610c1f30604485016153aa565b60206040518083038186803b158015610c3757600080fd5b505afa158015610c4b573d6000803e3d6000fd5b505050506040513d601f19601f82011682018060405250810190610c6f919061523b565b815263ffffffff9095166000908152600b602090815260409091205495019490945293915050565b3360009081526001602052604090205460609060ff16610cc95760405162461bcd60e51b81526004016107e49061560f565b610cd68686868686612dd7565b9695505050505050565b6000806000610cef8686612fc8565b91509150610cd684838361309f565b6060816001600160401b03811115610d2657634e487b7160e01b600052604160045260246000fd5b604051908082528060200260200182016040528015610d4f578160200160208202803683370190505b50905060005b82811015610dec57600d6000858584818110610d8157634e487b7160e01b600052603260045260246000fd5b9050602002016020810190610d9691906152a3565b63ffffffff1663ffffffff16815260200190815260200160002054828281518110610dd157634e487b7160e01b600052603260045260246000fd5b6020908102919091010152610de581615822565b9050610d55565b5092915050565b600080546040516337c61fc560e11b8152620100009091046001600160a01b031691636f8c3f8a91610e28919060040161549a565b60206040518083038186803b158015610e4057600080fd5b505afa158015610e54573d6000803e3d6000fd5b505050506040513d601f19601f82011682018060405250810190610e789190614e21565b6001600160a01b031663f3ae2415336040518263ffffffff1660e01b8152600401610ea391906153aa565b60206040518083038186803b158015610ebb57600080fd5b505afa158015610ecf573d6000803e3d6000fd5b505050506040513d601f19601f82011682018060405250810190610ef391906151cc565b610f0f5760405162461bcd60e51b81526004016107e4906155c1565b60005b81518110156110ae57600060096000848481518110610f4157634e487b7160e01b600052603260045260246000fd5b602002602001015163ffffffff16815260200190815260200160002060009054906101000a90046001600160a01b03166001600160a01b031663d1af0c7d6040518163ffffffff1660e01b815260040160206040518083038186803b158015610fa957600080fd5b505afa158015610fbd573d6000803e3d6000fd5b505050506040513d601f19601f82011682018060405250810190610fe19190614e21565b90506001600160a01b0381166110315760405162461bcd60e51b815260206004820152601560248201527424b73b30b634b2103932bbb0b93239903a37b5b2b760591b60448201526064016107e4565b80600e600085858151811061105657634e487b7160e01b600052603260045260246000fd5b602002602001015163ffffffff1663ffffffff16815260200190815260200160002060006101000a8154816001600160a01b0302191690836001600160a01b0316021790555050806110a790615822565b9050610f12565b5050565b600080546040516337c61fc560e11b8152620100009091046001600160a01b031691636f8c3f8a916110e7919060040161549a565b60206040518083038186803b1580156110ff57600080fd5b505afa158015611113573d6000803e3d6000fd5b505050506040513d601f19601f820116820180604052508101906111379190614e21565b6001600160a01b031663f3ae2415336040518263ffffffff1660e01b815260040161116291906153aa565b60206040518083038186803b15801561117a57600080fd5b505afa15801561118e573d6000803e3d6000fd5b505050506040513d601f19601f820116820180604052508101906111b291906151cc565b6111ce5760405162461bcd60e51b81526004016107e4906155c1565b6007805463ffffffff169060006111e48361583d565b825461010092830a63ffffffff81810219909216928216029190911790925560078054831660009081526006602052604080822080546001600160a01b03199081166001600160a01b038c8116918217909355855488168552838520600190810180549093168c8516179092558554600880549384018155958690527ff3f7a9fe364faab93b216da50a3214154f22a0a2b415b23a84c8169e8b636ee395830495909501805492909616600490810290970a8089021990921694909716029290921790925582549151636eb1769f60e11b8152600019955063dd62ed3e936112d09330931691016153be565b60206040518083038186803b1580156112e857600080fd5b505afa1580156112fc573d6000803e3d6000fd5b505050506040513d601f19601f82011682018060405250810190611320919061523b565b1461135c57600454611340906001600160a01b03858116911660006131a5565b60045461135c906001600160a01b0385811691166000196131a5565b60048054604051636eb1769f60e11b8152600019926001600160a01b038681169363dd62ed3e9361139393309390921691016153be565b60206040518083038186803b1580156113ab57600080fd5b505afa1580156113bf573d6000803e3d6000fd5b505050506040513d601f19601f820116820180604052508101906113e3919061523b565b1461141f57600454611403906001600160a01b03848116911660006131a5565b60045461141f906001600160a01b0384811691166000196131a5565b505050565b63ffffffff82166000908152600a602090815260408083206001600160a01b038516845290915290205492915050565b6000805b60075463ffffffff90811690821610156114965761147a610527826001615754565b611484908361573c565b915061148f8161583d565b9050611458565b5090565b6060816001600160401b038111156114c257634e487b7160e01b600052604160045260246000fd5b6040519080825280602002602001820160405280156114eb578160200160208202803683370190505b50905060005b82811015610dec5761154984848381811061151c57634e487b7160e01b600052603260045260246000fd5b905060200201602081019061153191906152a3565b63ffffffff166000908152600b602052604090205490565b82828151811061156957634e487b7160e01b600052603260045260246000fd5b602090810291909101015261157d81615822565b90506114f1565b600080546040516337c61fc560e11b8152620100009091046001600160a01b031691636f8c3f8a916115b9919060040161549a565b60206040518083038186803b1580156115d157600080fd5b505afa1580156115e5573d6000803e3d6000fd5b505050506040513d601f19601f820116820180604052508101906116099190614e21565b6001600160a01b031663f3ae2415336040518263ffffffff1660e01b815260040161163491906153aa565b60206040518083038186803b15801561164c57600080fd5b505afa158015611660573d6000803e3d6000fd5b505050506040513d601f19601f8201168201806040525081019061168491906151cc565b6116a05760405162461bcd60e51b81526004016107e4906155c1565b63ffffffff83166000908152600a602090815260408083206001600160a01b0386168452909152812080548392906116d990849061573c565b9091555050505050565b600080546040516337c61fc560e11b8152620100009091046001600160a01b031691636f8c3f8a91611718919060040161549a565b60206040518083038186803b15801561173057600080fd5b505afa158015611744573d6000803e3d6000fd5b505050506040513d601f19601f820116820180604052508101906117689190614e21565b6001600160a01b031663f3ae2415336040518263ffffffff1660e01b815260040161179391906153aa565b60206040518083038186803b1580156117ab57600080fd5b505afa1580156117bf573d6000803e3d6000fd5b505050506040513d601f19601f820116820180604052508101906117e391906151cc565b6117ff5760405162461bcd60e51b81526004016107e4906155c1565b6110ae828260006132ee565b3360009081526001602052604090205460ff1661183a5760405162461bcd60e51b81526004016107e49061560f565b611843816135f6565b50565b600080546040516337c61fc560e11b8152620100009091046001600160a01b031691636f8c3f8a9161187b919060040161549a565b60206040518083038186803b15801561189357600080fd5b505afa1580156118a7573d6000803e3d6000fd5b505050506040513d601f19601f820116820180604052508101906118cb9190614e21565b6001600160a01b031663f3ae2415336040518263ffffffff1660e01b81526004016118f691906153aa565b60206040518083038186803b15801561190e57600080fd5b505afa158015611922573d6000803e3d6000fd5b505050506040513d601f19601f8201168201806040525081019061194691906151cc565b6119625760405162461bcd60e51b81526004016107e4906155c1565b63ffffffff83166000908152600a602090815260408083206001600160a01b0386168452909152812080548392906116d99084906157df565b600080546040516337c61fc560e11b8152620100009091046001600160a01b031691636f8c3f8a916119d0919060040161549a565b60206040518083038186803b1580156119e857600080fd5b505afa1580156119fc573d6000803e3d6000fd5b505050506040513d601f19601f82011682018060405250810190611a209190614e21565b6001600160a01b031663f3ae2415336040518263ffffffff1660e01b8152600401611a4b91906153aa565b60206040518083038186803b158015611a6357600080fd5b505afa158015611a77573d6000803e3d6000fd5b505050506040513d601f19601f82011682018060405250810190611a9b91906151cc565b611ab75760405162461bcd60e51b81526004016107e4906155c1565b63ffffffff84166000908152600e60205260408120546001600160a01b031690611ae08261385f565b63ffffffff8716600090815260096020526040808220548151631e8c5c8960e11b815291519394506001600160a01b031692633d18b9129260048084019391929182900301818387803b158015611b3657600080fd5b505af1158015611b4a573d6000803e3d6000fd5b50505050600081611b5a8461385f565b611b6491906157df565b905080156108f8576000806001600160a01b03851673f28164a485b0b2c90639e47b0f377b4a438a16b11415611bbb5773831753dd7087cac61ab5644b308642cc1c33dc139150611bb4836138e4565b9050611bc1565b50839050815b600554611bd99083906001600160a01b03168a6139a4565b600554600090611c0c9084906001600160a01b031630856014611bfd8585846129c6565b611c07919061577c565b612dd7565b905080600181518110611c2f57634e487b7160e01b600052603260045260246000fd5b6020026020010151600b60008c63ffffffff1663ffffffff1681526020019081526020016000206000828254611c65919061573c565b909155505050505050505050505050565b600080546040516337c61fc560e11b8152620100009091046001600160a01b031691636f8c3f8a91611cab919060040161549a565b60206040518083038186803b158015611cc357600080fd5b505afa158015611cd7573d6000803e3d6000fd5b505050506040513d601f19601f82011682018060405250810190611cfb9190614e21565b6001600160a01b031663f3ae2415336040518263ffffffff1660e01b8152600401611d2691906153aa565b60206040518083038186803b158015611d3e57600080fd5b505afa158015611d52573d6000803e3d6000fd5b505050506040513d601f19601f82011682018060405250810190611d7691906151cc565b611d925760405162461bcd60e51b81526004016107e4906155c1565b611da08484848460006139cf565b50505050565b3360009081526001602052604090205460ff16611dd55760405162461bcd60e51b81526004016107e49061560f565b611ddf8184611424565b821115611e2e5760405162461bcd60e51b815260206004820152601d60248201527f696e746567726174696f6e3a2062616c616e636520657863656564656400000060448201526064016107e4565b63ffffffff81166000908152600a602090815260408083206001600160a01b038716845290915281208054849290611e679084906157df565b9091555050600080546040516337c61fc560e11b815261141f92620100009092046001600160a01b031691636f8c3f8a91611ea5919060040161549a565b60206040518083038186803b158015611ebd57600080fd5b505afa158015611ed1573d6000803e3d6000fd5b505050506040513d601f19601f82011682018060405250810190611ef59190614e21565b6001600160a01b0385169084613b9f565b600080546040516337c61fc560e11b8152620100009091046001600160a01b031691636f8c3f8a91611f3b919060040161549a565b60206040518083038186803b158015611f5357600080fd5b505afa158015611f67573d6000803e3d6000fd5b505050506040513d601f19601f82011682018060405250810190611f8b9190614e21565b6001600160a01b031663f3ae2415336040518263ffffffff1660e01b8152600401611fb691906153aa565b60206040518083038186803b158015611fce57600080fd5b505afa158015611fe2573d6000803e3d6000fd5b505050506040513d601f19601f8201168201806040525081019061200691906151cc565b6120225760405162461bcd60e51b81526004016107e4906155c1565b6110ae828260016132ee565b600054610100900460ff166120495760005460ff161561204d565b303b155b6120695760405162461bcd60e51b81526004016107e490615522565b600054610100900460ff1615801561208b576000805461ffff19166101011790555b6001600160a01b0382166120b15760405162461bcd60e51b81526004016107e490615570565b60005b83518110156121295760006001600160a01b03168482815181106120e857634e487b7160e01b600052603260045260246000fd5b60200260200101516001600160a01b031614156121175760405162461bcd60e51b81526004016107e490615570565b8061212181615822565b9150506120b4565b5060005b835181101561219f57600180600086848151811061215b57634e487b7160e01b600052603260045260246000fd5b6020908102919091018101516001600160a01b03168252810191909152604001600020805460ff19169115159190911790558061219781615822565b91505061212d565b5082516121b3906002906020860190614d05565b506121bd82613bbe565b801561141f576000805461ff0019169055505050565b60408051606080820183526000808352602080840182905292840181905263ffffffff94909416845260068252928290208251938401835280546001600160a01b03908116855260018201541691840191909152600201549082015290565b600080546040516337c61fc560e11b8152620100009091046001600160a01b031691636f8c3f8a91612267919060040161549a565b60206040518083038186803b15801561227f57600080fd5b505afa158015612293573d6000803e3d6000fd5b505050506040513d601f19601f820116820180604052508101906122b79190614e21565b6001600160a01b0316632f54bf6e336040518263ffffffff1660e01b81526004016122e291906153aa565b60206040518083038186803b1580156122fa57600080fd5b505afa15801561230e573d6000803e3d6000fd5b505050506040513d601f19601f8201168201806040525081019061233291906151cc565b6123915760405162461bcd60e51b815260206004820152602a60248201527f436f6e74726f6c6c65643a3a6f6e6c794f776e65723a2043616c6c6572206973604482015269103737ba1037bbb732b960b11b60648201526084016107e4565b6001600160a01b03811660009081526001602081905260408220805460ff19169091179055805b60025481101561241957600281815481106123e357634e487b7160e01b600052603260045260246000fd5b6000918252602090912001546001600160a01b038481169116141561240757600191505b8061241181615822565b9150506123b8565b50806110ae57600280546001810182556000919091527f405787fa12a823e0f2b7631cc41b3ba8828b3321ca811111fa75cd3aa3bb5ace0180546001600160a01b0384166001600160a01b03199091161790555050565b3360009081526001602052604090205460ff1661249f5760405162461bcd60e51b81526004016107e49061560f565b6124a98285611424565b831161258d57600080546040516337c61fc560e11b815261254992620100009092046001600160a01b031691636f8c3f8a916124e8919060040161549a565b60206040518083038186803b15801561250057600080fd5b505afa158015612514573d6000803e3d6000fd5b505050506040513d601f19601f820116820180604052508101906125389190614e21565b6001600160a01b0386169085613b9f565b63ffffffff82166000908152600a602090815260408083206001600160a01b0388168452909152812080548592906125829084906157df565b90915550611da09050565b611da08484848460016139cf565b600080546040516337c61fc560e11b8152620100009091046001600160a01b031691636f8c3f8a916125d0919060040161549a565b60206040518083038186803b1580156125e857600080fd5b505afa1580156125fc573d6000803e3d6000fd5b505050506040513d601f19601f820116820180604052508101906126209190614e21565b6001600160a01b031663f3ae2415336040518263ffffffff1660e01b815260040161264b91906153aa565b60206040518083038186803b15801561266357600080fd5b505afa158015612677573d6000803e3d6000fd5b505050506040513d601f19601f8201168201806040525081019061269b91906151cc565b6126b75760405162461bcd60e51b81526004016107e4906155c1565b60006126c2856121d3565b63ffffffff86166000908152600660205260409020549091506001600160a01b03166127005760405162461bcd60e51b81526004016107e490615595565b61271381600001518260200151866139a4565b60008061273b83612728898660000151611424565b6127368a8760200151611424565b613c52565b9150915060008061274f8486858a8a613cd3565b915091506000816001600160a01b03166370a08231306040518263ffffffff1660e01b815260040161278191906153aa565b60206040518083038186803b15801561279957600080fd5b505afa1580156127ad573d6000803e3d6000fd5b505050506040513d601f19601f820116820180604052508101906127d1919061523b565b90506127e585833086611c078a888a6129c6565b50600081836001600160a01b03166370a08231306040518263ffffffff1660e01b815260040161281591906153aa565b60206040518083038186803b15801561282d57600080fd5b505afa158015612841573d6000803e3d6000fd5b505050506040513d601f19601f82011682018060405250810190612865919061523b565b61286f91906157df565b905080156129515763ffffffff8b166000908152600a602090815260408083206001600160a01b038a168452909152812080548692906128b09084906157df565b909155505063ffffffff8b166000908152600a602090815260408083206001600160a01b0387168452909152812080548392906128ee90849061573c565b90915550506040805163ffffffff8d1681526001600160a01b038881166020830152818301879052851660608201526080810183905290517f3318ce2371d9cd19d64b4ca999bd8bdcfcf18e4ec416d7dc611b729b2e59c5009181900360a00190a15b5050505050505050505050565b3360009081526001602052604090205460ff1661298d5760405162461bcd60e51b81526004016107e49061560f565b63ffffffff81166000908152600a602090815260408083206001600160a01b0387168452909152812080548492906116d990849061573c565b600354600090620f4240906129e09062ffffff16826157bb565b62ffffff166129f0868686610ce0565b6129fa919061579c565b612a04919061577c565b949350505050565b600080546040516337c61fc560e11b8152620100009091046001600160a01b031691636f8c3f8a91612a41919060040161549a565b60206040518083038186803b158015612a5957600080fd5b505afa158015612a6d573d6000803e3d6000fd5b505050506040513d601f19601f82011682018060405250810190612a919190614e21565b6001600160a01b031663f3ae2415336040518263ffffffff1660e01b8152600401612abc91906153aa565b60206040518083038186803b158015612ad457600080fd5b505afa158015612ae8573d6000803e3d6000fd5b505050506040513d601f19601f82011682018060405250810190612b0c91906151cc565b61183a5760405162461bcd60e51b81526004016107e4906155c1565b3360009081526001602052604090205460ff16612b575760405162461bcd60e51b81526004016107e49061560f565b6000805b60075463ffffffff16811015612c2d57600060088281548110612b8e57634e487b7160e01b600052603260045260246000fd5b6000918252602080832060088304015460079092166004026101000a90910463ffffffff16808352600b9091526040909120549091508015612c1a57612bd4818561573c565b63ffffffff83166000908152600c6020526040812080549296508392909190612bfe90849061573c565b909155505063ffffffff82166000908152600b60205260408120555b505080612c2690615822565b9050612b5b565b508015611843576000546040516337c61fc560e11b8152612cd0916201000090046001600160a01b031690636f8c3f8a90612c6d9060029060040161549a565b60206040518083038186803b158015612c8557600080fd5b505afa158015612c99573d6000803e3d6000fd5b505050506040513d601f19601f82011682018060405250810190612cbd9190614e21565b6005546001600160a01b03169083613b9f565b6040518181527fd0e841f234010ad7f57b7c09faffb2245cd240429c6e8fa3cd934a0a8bf58eb09060200160405180910390a150565b60028181548110612d1657600080fd5b6000918252602090912001546001600160a01b0316905081565b600080612d3c83613d2f565b9094909350915050565b60035460405163e6a4390560e01b8152600091630100000090046001600160a01b03169063e6a4390590612d8090869086906004016153be565b60206040518083038186803b158015612d9857600080fd5b505afa158015612dac573d6000803e3d6000fd5b505050506040513d601f19601f82011682018060405250810190612dd09190614e21565b9392505050565b604080516002808252606080830184529260009291906020830190803683370190505090508681600081518110612e1e57634e487b7160e01b600052603260045260246000fd5b60200260200101906001600160a01b031690816001600160a01b0316815250508581600181518110612e6057634e487b7160e01b600052603260045260246000fd5b6001600160a01b03928316602091820292909201015260048054604051636eb1769f60e11b8152429388938c82169363dd62ed3e93612ea4933093921691016153be565b60206040518083038186803b158015612ebc57600080fd5b505afa158015612ed0573d6000803e3d6000fd5b505050506040513d601f19601f82011682018060405250810190612ef4919061523b565b1015612f2f57600454612f15906001600160a01b038a8116911660006131a5565b600454612f2f906001600160a01b038a81169116876131a5565b600480546040516338ed173960e01b81526001600160a01b03909116916338ed173991612f66918991899188918d91899101615663565b600060405180830381600087803b158015612f8057600080fd5b505af1158015612f94573d6000803e3d6000fd5b505050506040513d6000823e601f3d908101601f19168201604052612fbc919081019061503c565b98975050505050505050565b6000806000612fd78585614020565b509050600080612fe78787612d46565b6001600160a01b0316630902f1ac6040518163ffffffff1660e01b815260040160606040518083038186803b15801561301f57600080fd5b505afa158015613033573d6000803e3d6000fd5b505050506040513d601f19601f8201168201806040525081019061305791906151e8565b506001600160701b031691506001600160701b03169150826001600160a01b0316876001600160a01b03161461308e578082613091565b81815b909890975095505050505050565b60008084116130fb5760405162461bcd60e51b815260206004820152602260248201527f616d6f756e74496e206d7573742062652067726561746572207468616e207a65604482015261726f60f01b60648201526084016107e4565b60008311801561310b5750600082115b6131575760405162461bcd60e51b815260206004820152601d60248201527f4e6f206c697175696469747920696e20706f6f6c20726573657276657300000060448201526064016107e4565b6000613165856103e561579c565b90506000613173848361579c565b9050600082613184876103e861579c565b61318e919061573c565b905061319a818361577c565b979650505050505050565b80158061322d5750604051636eb1769f60e11b81526001600160a01b0384169063dd62ed3e906131db90309086906004016153be565b60206040518083038186803b1580156131f357600080fd5b505afa158015613207573d6000803e3d6000fd5b505050506040513d601f19601f8201168201806040525081019061322b919061523b565b155b6132985760405162461bcd60e51b815260206004820152603660248201527f5361666545524332303a20617070726f76652066726f6d206e6f6e2d7a65726f60448201527520746f206e6f6e2d7a65726f20616c6c6f77616e636560501b60648201526084016107e4565b61141f8363095ea7b360e01b84846040516024016132b79291906153d8565b60408051601f198184030181529190526020810180516001600160e01b03166001600160e01b0319909316929092179091526140f5565b60006132f9846121d3565b80519091506001600160a01b03166133235760405162461bcd60e51b81526004016107e490615595565b6001821515146133965763ffffffff84166000908152600960205260409020546001600160a01b0316156133965760405162461bcd60e51b815260206004820152601a60248201527914dd185ada5b99c8185b1c9958591e4818dbdb999a59dd5c995960321b60448201526064016107e4565b60006133aa82600001518360200151612d46565b90506000849050816001600160a01b0316816001600160a01b03166372f702f36040518163ffffffff1660e01b815260040160206040518083038186803b1580156133f457600080fd5b505afa158015613408573d6000803e3d6000fd5b505050506040513d601f19601f8201168201806040525081019061342c9190614e21565b6001600160a01b03161461347e5760405162461bcd60e51b8152602060048201526019602482015278496e636f7272656374207374616b696e67206164647265737360381b60448201526064016107e4565b63ffffffff861660009081526009602090815260409182902080546001600160a01b0319166001600160a01b038516908117909155825163d1af0c7d60e01b81529251909263d1af0c7d926004808301939192829003018186803b1580156134e557600080fd5b505afa1580156134f9573d6000803e3d6000fd5b505050506040513d601f19601f8201168201806040525081019061351d9190614e21565b63ffffffff87166000908152600e60205260409081902080546001600160a01b0319166001600160a01b0393841617905551636eb1769f60e11b81526000199184169063dd62ed3e906135769030908a906004016153be565b60206040518083038186803b15801561358e57600080fd5b505afa1580156135a2573d6000803e3d6000fd5b505050506040513d601f19601f820116820180604052508101906135c6919061523b565b14610b19576135e06001600160a01b0383168660006131a5565b610b196001600160a01b038316866000196131a5565b6000613601826121d3565b63ffffffff83166000908152600660205260409020549091506001600160a01b031661363f5760405162461bcd60e51b81526004016107e490615595565b600061364f838360000151611424565b90506000613661848460200151611424565b905081158061366e575080155b156136795750505050565b60008061368e85600001518660200151612fc8565b915091506000806136a1868686866141c7565b600480548a5160208c015160405162e8e33760e81b81526001600160a01b039283169481019490945281166024840152604483018590526064830184905260006084840181905260a484018190523060c48501524260e4850152949650929450919091169063e8e337009061010401606060405180830381600087803b15801561372a57600080fd5b505af115801561373e573d6000803e3d6000fd5b505050506040513d601f19601f820116820180604052508101906137629190615276565b63ffffffff8c166000908152600a602090815260408083208e516001600160a01b03168452909152812080549295508794509250906137a29084906157df565b909155505063ffffffff89166000908152600a602090815260408083208b8301516001600160a01b03168452909152812080548492906137e39084906157df565b90915550506040518181527f250600b7e1d8b908a0f07fa409e087c1b43ef3a5de3c0e23a41998c311f0ea909060200160405180910390a17fb28fd890673610fa2a3efb1cf64ae1b26dd83c3261fbd99f0d4a5821ccdaa993898260405161384c9291906156d3565b60405180910390a1505050505050505050565b6040516370a0823160e01b81526000906001600160a01b038316906370a082319061388e9030906004016153aa565b60206040518083038186803b1580156138a657600080fd5b505afa1580156138ba573d6000803e3d6000fd5b505050506040513d601f19601f820116820180604052508101906138de919061523b565b92915050565b6000811561399f57600061390b73831753dd7087cac61ab5644b308642cc1c33dc1361385f565b6040516367dfd4c960e01b81526004810185905290915073f28164a485b0b2c90639e47b0f377b4a438a16b1906367dfd4c990602401600060405180830381600087803b15801561395b57600080fd5b505af115801561396f573d6000803e3d6000fd5b505050508061399173831753dd7087cac61ab5644b308642cc1c33dc1361385f565b61399b91906157df565b9150505b919050565b60006139b08484612d46565b90506000806139bf8686612fc8565b91509150610b198383838761430b565b60006139da846121d3565b905082156139f5576139f581600001518260200151856139a4565b6000613a0285888861443c565b63ffffffff861660009081526009602052604090819020549051632e1a7d4d60e01b8152600481018390529192506001600160a01b031690632e1a7d4d90602401600060405180830381600087803b158015613a5d57600080fd5b505af1158015613a71573d6000803e3d6000fd5b505060045484516020860151613aab94506001600160a01b0390921692508491613a9b9190612d46565b6001600160a01b031691906131a5565b6004548251602084015160009283926001600160a01b039091169163baa2abde919086858030613add4261016861573c565b60405160e089901b6001600160e01b03191681526001600160a01b039788166004820152958716602487015260448601949094526064850192909252608484015290921660a482015260c481019190915260e4016040805180830381600087803b158015613b4a57600080fd5b505af1158015613b5e573d6000803e3d6000fd5b505050506040513d601f19601f82011682018060405250810190613b829190615253565b91509150613b9484888b85858a614658565b505050505050505050565b61141f8363a9059cbb60e01b84846040516024016132b79291906153d8565b600054610100900460ff16613bd95760005460ff1615613bdd565b303b155b613bf95760405162461bcd60e51b81526004016107e490615522565b600054610100900460ff16158015613c1b576000805461ffff19166101011790555b6000805462010000600160b01b031916620100006001600160a01b0385160217905580156110ae576000805461ff00191690555050565b60008080613c60848661573c565b11613cad5760405162461bcd60e51b815260206004820181905260248201527f517569636b53776170496e746567726174696f6e3a206e6f2062616c616e636560448201526064016107e4565b600080613cc287600001518860200151612fc8565b915091506130918787878585614a28565b60008085600001516001600160a01b0316876001600160a01b03161415613d1057506020850151838510613d075783613d09565b845b9150613d25565b508451828510613d205782613d22565b845b91505b9550959350505050565b6000806000613d3d846121d3565b63ffffffff85166000908152600960205260408082205490516370a0823160e01b815292935090916001600160a01b03909116906370a0823190613d859030906004016153aa565b60206040518083038186803b158015613d9d57600080fd5b505afa158015613db1573d6000803e3d6000fd5b505050506040513d601f19601f82011682018060405250810190613dd5919061523b565b613de783600001518460200151612d46565b6001600160a01b03166370a08231306040518263ffffffff1660e01b8152600401613e1291906153aa565b60206040518083038186803b158015613e2a57600080fd5b505afa158015613e3e573d6000803e3d6000fd5b505050506040513d601f19601f82011682018060405250810190613e62919061523b565b613e6c919061573c565b905061401481613e8484600001518560200151612d46565b6001600160a01b03166318160ddd6040518163ffffffff1660e01b815260040160206040518083038186803b158015613ebc57600080fd5b505afa158015613ed0573d6000803e3d6000fd5b505050506040513d601f19601f82011682018060405250810190613ef4919061523b565b845160208601516001600160a01b038216916370a0823191613f169190612d46565b6040518263ffffffff1660e01b8152600401613f3291906153aa565b60206040518083038186803b158015613f4a57600080fd5b505afa158015613f5e573d6000803e3d6000fd5b505050506040513d601f19601f82011682018060405250810190613f82919061523b565b602086015186516001600160a01b038216916370a0823191613fa391612d46565b6040518263ffffffff1660e01b8152600401613fbf91906153aa565b60206040518083038186803b158015613fd757600080fd5b505afa158015613feb573d6000803e3d6000fd5b505050506040513d601f19601f8201168201806040525081019061400f919061523b565b614b8a565b90969095509350505050565b600080826001600160a01b0316846001600160a01b031614156140815760405162461bcd60e51b81526020600482015260196024820152784964656e746963616c20746f6b656e2061646472657373657360381b60448201526064016107e4565b826001600160a01b0316846001600160a01b0316106140a15782846140a4565b83835b90925090506001600160a01b0382166140ee5760405162461bcd60e51b815260206004820152600c60248201526b5a65726f206164647265737360a01b60448201526064016107e4565b9250929050565b600061414a826040518060400160405280602081526020017f5361666545524332303a206c6f772d6c6576656c2063616c6c206661696c6564815250856001600160a01b0316614bec9092919063ffffffff16565b80519091501561141f578080602001905181019061416891906151cc565b61141f5760405162461bcd60e51b815260206004820152602a60248201527f5361666545524332303a204552433230206f7065726174696f6e20646964206e6044820152691bdd081cdd58d8d9595960b21b60648201526084016107e4565b60008082841115614268576000836141e1866103e861579c565b6141eb919061577c565b905060006103e86141fc838961579c565b614206919061577c565b9050808810156142315787935081614220856103e861579c565b61422a919061577c565b9250614261565b8781101561425a576103e8614246838961579c565b614250919061577c565b9350869250614261565b8793508692505b5050614302565b828410156143025760008461427f856103e861579c565b614289919061577c565b905060006103e861429a838a61579c565b6142a4919061577c565b9050808710156142cf57816142bb886103e861579c565b6142c5919061577c565b93508692506142ff565b868110156142f8578793506103e86142e7838661579c565b6142f1919061577c565b92506142ff565b8793508692505b50505b94509492505050565b6001600160a01b0384166143605760405162461bcd60e51b815260206004820152601c60248201527b2a3930b232b92537b2a4b73a32b3b930ba34b7b71d2130b22830b4b960211b60448201526064016107e4565b6000828410156143885783614377846103e861579c565b614381919061577c565b90506143a2565b8383101561439d5782614377856103e861579c565b506103e85b818111156143ee576001826143b781846157df565b6143c290606461579c565b6143cc919061577c565b106143e95760405162461bcd60e51b81526004016107e4906154f5565b614435565b808211156144355760018261440383826157df565b61440e90606461579c565b614418919061577c565b106144355760405162461bcd60e51b81526004016107e4906154f5565b5050505050565b600080614448856121d3565b905060008061445f83600001518460200151612fc8565b91509150600061447784600001518560200151612d46565b6001600160a01b03166318160ddd6040518163ffffffff1660e01b815260040160206040518083038186803b1580156144af57600080fd5b505afa1580156144c3573d6000803e3d6000fd5b505050506040513d601f19601f820116820180604052508101906144e7919061523b565b63ffffffff89166000908152600960205260408082205490516370a0823160e01b815292935090916001600160a01b03909116906370a082319061452f9030906004016153aa565b60206040518083038186803b15801561454757600080fd5b505afa15801561455b573d6000803e3d6000fd5b505050506040513d601f19601f8201168201806040525081019061457f919061523b565b9050600085600001516001600160a01b0316896001600160a01b031614156145d35782156145c957826145ba86670de0b6b3a764000061579c565b6145c4919061577c565b6145cc565b60005b9050614601565b82156145fb57826145ec85670de0b6b3a764000061579c565b6145f6919061577c565b6145fe565b60005b90505b806146155760009650505050505050612dd0565b8061462160028a61577c565b61463390670de0b6b3a764000061579c565b61463d919061577c565b96508187111561464b578196505b5050505050509392505050565b606086600001516001600160a01b0316856001600160a01b0316141561483e57602087015161468f90863086611c078484836129c6565b9050811561476b57600080546040516337c61fc560e11b815261476692620100009092046001600160a01b031691636f8c3f8a916146d0919060040161549a565b60206040518083038186803b1580156146e857600080fd5b505afa1580156146fc573d6000803e3d6000fd5b505050506040513d601f19601f820116820180604052508101906147209190614e21565b8260018151811061474157634e487b7160e01b600052603260045260246000fd5b602002602001015186614754919061573c565b89516001600160a01b03169190613b9f565b6147df565b8060018151811061478c57634e487b7160e01b600052603260045260246000fd5b60200260200101518461479f919061573c565b63ffffffff87166000908152600a602090815260408083208b516001600160a01b03168452909152812080549091906147d990849061573c565b90915550505b6000805160206158c383398151915286858360018151811061481157634e487b7160e01b600052603260045260246000fd5b6020026020010151614823919061573c565b6040516148319291906156d3565b60405180910390a16108f8565b86602001516001600160a01b0316856001600160a01b031614156108f857865161487090863087611c078484836129c6565b9050811561494f57600080546040516337c61fc560e11b815261494a92620100009092046001600160a01b031691636f8c3f8a916148b1919060040161549a565b60206040518083038186803b1580156148c957600080fd5b505afa1580156148dd573d6000803e3d6000fd5b505050506040513d601f19601f820116820180604052508101906149019190614e21565b8260018151811061492257634e487b7160e01b600052603260045260246000fd5b602002602001015185614935919061573c565b60208a01516001600160a01b03169190613b9f565b6149c5565b8060018151811061497057634e487b7160e01b600052603260045260246000fd5b602002602001015183614983919061573c565b63ffffffff87166000908152600a602090815260408083208b8301516001600160a01b03168452909152812080549091906149bf90849061573c565b90915550505b6000805160206158c38339815191528684836001815181106149f757634e487b7160e01b600052603260045260246000fd5b6020026020010151614a09919061573c565b604051614a179291906156d3565b60405180910390a150505050505050565b60008082841115614ad857600083614a42866103e861579c565b614a4c919061577c565b905060006103e8614a5d838961579c565b614a67919061577c565b905080881015614aac57600282614a808a6103e861579c565b614a8a919061577c565b614a9490896157df565b614a9e919061577c565b925088602001519350614ad1565b87811015614ad1576002614ac0828a6157df565b614aca919061577c565b8951945092505b5050613d25565b82841015613d2557600084614aef856103e861579c565b614af9919061577c565b905060006103e8614b0a838a61579c565b614b14919061577c565b905086811015614b42576002614b2a82896157df565b614b34919061577c565b925088602001519350614b7e565b80871015614b7e57600282614b59896103e861579c565b614b63919061577c565b614b6d908a6157df565b614b77919061577c565b8951945092505b50509550959350505050565b6000808085614b9e886402540be40061579c565b614ba8919061577c565b90506402540be400614bba828761579c565b614bc4919061577c565b92506402540be400614bd6828661579c565b614be0919061577c565b91505094509492505050565b6060612a04848460008585843b614c455760405162461bcd60e51b815260206004820152601d60248201527f416464726573733a2063616c6c20746f206e6f6e2d636f6e747261637400000060448201526064016107e4565b600080866001600160a01b03168587604051614c61919061538e565b60006040518083038185875af1925050503d8060008114614c9e576040519150601f19603f3d011682016040523d82523d6000602084013e614ca3565b606091505b509150915061319a82828660608315614cbd575081612dd0565b825115614ccd5782518084602001fd5b8160405162461bcd60e51b81526004016107e491906154c2565b60405180604001604052806002906020820280368337509192915050565b828054828255906000526020600020908101928215614d5a579160200282015b82811115614d5a57825182546001600160a01b0319166001600160a01b03909116178255602090920191600190910190614d25565b506114969291505b808211156114965760008155600101614d62565b600082601f830112614d86578081fd5b81356020614d9b614d9683615719565b6156e9565b80838252828201915082860187848660051b8901011115614dba578586fd5b855b85811015614de1578135614dcf8161588d565b84529284019290840190600101614dbc565b5090979650505050505050565b80516001600160701b038116811461399f57600080fd5b600060208284031215614e16578081fd5b8135612dd08161588d565b600060208284031215614e32578081fd5b8151612dd08161588d565b600080600080600060a08688031215614e54578081fd5b8535614e5f8161588d565b94506020860135614e6f8161588d565b93506040860135614e7f8161588d565b94979396509394606081013594506080013592915050565b600080600060608486031215614eab578283fd5b8335614eb68161588d565b92506020840135614ec68161588d565b929592945050506040919091013590565b600080600060608486031215614eeb578283fd5b8335614ef68161588d565b9250602084013591506040840135614f0d816158b0565b809150509250925092565b60008060008060808587031215614f2d578384fd5b8435614f388161588d565b9350602085013592506040850135614f4f816158b0565b9396929550929360600135925050565b60008060408385031215614f71578182fd5b82356001600160401b03811115614f86578283fd5b614f9285828601614d76565b9250506020830135614fa38161588d565b809150509250929050565b600080600080600060a08688031215614fc5578283fd5b85356001600160401b03811115614fda578384fd5b614fe688828901614d76565b9550506020860135614ff78161588d565b935060408601356150078161588d565b925060608601356150178161588d565b9150608086013562ffffff8116811461502e578182fd5b809150509295509295909350565b6000602080838503121561504e578182fd5b82516001600160401b03811115615063578283fd5b8301601f81018513615073578283fd5b8051615081614d9682615719565b80828252848201915084840188868560051b87010111156150a0578687fd5b8694505b838510156150c25780518352600194909401939185019185016150a4565b50979650505050505050565b600080602083850312156150e0578182fd5b82356001600160401b03808211156150f6578384fd5b818501915085601f830112615109578384fd5b813581811115615117578485fd5b8660208260051b850101111561512b578485fd5b60209290920196919550909350505050565b6000602080838503121561514f578182fd5b82356001600160401b03811115615164578283fd5b8301601f81018513615174578283fd5b8035615182614d9682615719565b80828252848201915084840188868560051b87010111156151a1578687fd5b8694505b838510156150c25780356151b8816158b0565b8352600194909401939185019185016151a5565b6000602082840312156151dd578081fd5b8151612dd0816158a2565b6000806000606084860312156151fc578081fd5b61520584614dee565b925061521360208501614dee565b91506040840151614f0d816158b0565b600060208284031215615234578081fd5b5035919050565b60006020828403121561524c578081fd5b5051919050565b60008060408385031215615265578182fd5b505080516020909101519092909150565b60008060006060848603121561528a578081fd5b8351925060208401519150604084015190509250925092565b6000602082840312156152b4578081fd5b8135612dd0816158b0565b600080604083850312156152d1578182fd5b82356152dc816158b0565b91506020830135614fa38161588d565b600080600060608486031215615300578081fd5b8335614eb6816158b0565b60008060008060808587031215615320578182fd5b843561532b816158b0565b935060208501359250604085013591506060850135615349816158a2565b939692955090935050565b60008060008060808587031215615369578182fd5b8435615374816158b0565b966020860135965060408601359560600135945092505050565b600082516153a08184602087016157f6565b9190910192915050565b6001600160a01b0391909116815260200190565b6001600160a01b0392831681529116602082015260400190565b6001600160a01b03929092168252602082015260400190565b60808101818460005b60028110156154225781516001600160a01b03168352602092830192909101906001016153fa565b505050604082018360005b600281101561544c57815183526020928301929091019060010161542d565b5050509392505050565b6020808252825182820181905260009190848201906040850190845b8181101561548e57835183529284019291840191600101615472565b50909695505050505050565b60208101600d83106154bc57634e487b7160e01b600052602160045260246000fd5b91905290565b60208152600082518060208401526154e18160408501602087016157f6565b601f01601f19169190910160400192915050565b60208082526013908201527210d95a5b1a5b99d31a5b5a5d14995858da1959606a1b604082015260600190565b6020808252602e908201527f496e697469616c697a61626c653a20636f6e747261637420697320616c72656160408201526d191e481a5b9a5d1a585b1a5e995960921b606082015260800190565b6020808252600b908201526a626164206164647265737360a81b604082015260600190565b602080825260129082015271141bdbdb08191bd95cdb89dd08195e1a5cdd60721b604082015260600190565b6020808252602e908201527f436f6e74726f6c6c65643a3a6f6e6c794d616e616765723a2043616c6c65722060408201526d34b9903737ba1036b0b730b3b2b960911b606082015260800190565b60208082526034908201527f436f6e74726f6c6c65643a3a6f6e6c79436f6e74726f6c6c65723a2043616c6c60408201527332b91034b9903737ba1031b7b73a3937b63632b960611b606082015260800190565b600060a082018783526020878185015260a0604085015281875180845260c0860191508289019350845b818110156156b25784516001600160a01b03168352938301939183019160010161568d565b50506001600160a01b03969096166060850152505050608001529392505050565b63ffffffff929092168252602082015260400190565b604051601f8201601f191681016001600160401b038111828210171561571157615711615877565b604052919050565b60006001600160401b0382111561573257615732615877565b5060051b60200190565b6000821982111561574f5761574f615861565b500190565b600063ffffffff80831681851680830382111561577357615773615861565b01949350505050565b60008261579757634e487b7160e01b81526012600452602481fd5b500490565b60008160001904831182151516156157b6576157b6615861565b500290565b600062ffffff838116908316818110156157d7576157d7615861565b039392505050565b6000828210156157f1576157f1615861565b500390565b60005b838110156158115781810151838201526020016157f9565b83811115611da05750506000910152565b600060001982141561583657615836615861565b5060010190565b600063ffffffff8083168181141561585757615857615861565b6001019392505050565b634e487b7160e01b600052601160045260246000fd5b634e487b7160e01b600052604160045260246000fd5b6001600160a01b038116811461184357600080fd5b801515811461184357600080fd5b63ffffffff8116811461184357600080fdfe6fb183d14e6407db4dfb55deb83841283e9e3015e3aabe210d446b16f1ce0937a2646970667358221220b8f6c6ea501f205cafbf06082a5b6491c8f8fd2f03bbd13907922c4814425ca864736f6c63430008040033",
  "devdoc": {
    "kind": "dev",
    "methods": {
      "decrementBalance(uint32,address,uint256)": {
        "params": {
          "amount": "The amount of the token being decreased"
        }
      },
      "deposit(address,uint256,uint32)": {
        "params": {
          "amount": "The amount of the token being deposited",
          "tokenAddress": "The address of the deposited token"
        }
      },
      "getAmountOut(address,address,uint256)": {
        "params": {
          "amountIn": "The exact amount of the input to swap",
          "tokenIn": "The address of the input token",
          "tokenOut": "The address of the output token"
        },
        "returns": {
          "amountOut": "The estimated amount of tokenOut to receive"
        }
      },
      "getAmountOutMinimum(address,address,uint256)": {
        "params": {
          "amountIn": "The exact amount of the input to swap",
          "tokenIn": "The address of the input token",
          "tokenOut": "The address of the output token"
        },
        "returns": {
          "amountOutMinimum": "The minimum amount of tokenOut to receive, factoring in allowable slippage"
        }
      },
      "getBalance(uint32,address)": {
        "returns": {
          "_0": "tokenAddress The address of the token to get the balance of"
        }
      },
      "getPendingYield(uint32)": {
        "details": "Returns total amount of pending yield in SUSHI rewards",
        "params": {
          "poolId": "The integration pool to check for pending SUSHI rewards"
        },
        "returns": {
          "amounts": "Amounts of pending yield",
          "tokens": "Token addresses of of the pending yield"
        }
      },
      "harvestYield()": {
        "details": "Harvests token yield from the integration"
      },
      "incrementBalance(uint32,address,uint256)": {
        "params": {
          "amount": "The amount of the token being deposited"
        }
      },
      "initialize(address[],address,address,address,uint24)": {
        "params": {
          "controllers_": "The address of the controlling contract",
          "factoryAddress_": "The address of the QuickSwap factory contract",
          "swapRouterAddress_": "The address of the Quick swap router contract"
        }
      },
      "rebalancePool(uint32,uint256,uint256,uint256)": {
        "params": {
          "maxSellTokenA": "max amount of tokenA to sell (to limit rebalancing)",
          "maxSellTokenB": "max amount of tokenB to sell (to limit rebalancing)",
          "poolId": "The ID of the pool to rebalance",
          "ratioX1000": "reserves ratio to control the price slippage"
        }
      },
      "withdraw(address,uint256,uint32)": {
        "params": {
          "amount": "The amoutn of the token to withdraw",
          "tokenAddress": "The address of the underlying token to withdraw"
        }
      },
      "withdraw(address,uint256,uint32,uint256)": {
        "params": {
          "amount": "The amoutn of the token to withdraw",
          "tokenAddress": "The address of the underlying token to withdraw"
        }
      }
    },
    "version": 1
  },
  "userdoc": {
    "events": {
      "CreatePool(address,address,uint32)": {
        "notice": "Events"
      }
    },
    "kind": "user",
    "methods": {
      "harvestYieldByPool(uint32,uint256,uint256,bool)": {
        "notice": "Harvest available yield for desired pool"
      },
      "rebalancePool(uint32,uint256,uint256,uint256)": {
        "notice": "Rebalances by attempting to swap up to max to get into position ratio"
      },
      "withdraw(address,uint256,uint32)": {
        "notice": "Withdraws token from the integration"
      },
      "withdraw(address,uint256,uint32,uint256)": {
        "notice": "Withdraws token from the integration"
      }
    },
    "notice": "Integrates 0x Nodes to QuickSwap in Polygon Stakes against https://github.com/QuickSwap/quickswap-core/blob/master/contracts/staking/StakingRewards.sol The StakingRewards only send back rewards when explicitly harvested",
    "version": 1
  },
  "storageLayout": {
    "storage": [
      {
        "astId": 723,
        "contract": "contracts/yield-integrations/PolygonQuickSwapIntegration.sol:PolygonQuickSwapIntegration",
        "label": "_initialized",
        "offset": 0,
        "slot": "0",
        "type": "t_bool"
      },
      {
        "astId": 726,
        "contract": "contracts/yield-integrations/PolygonQuickSwapIntegration.sol:PolygonQuickSwapIntegration",
        "label": "_initializing",
        "offset": 1,
        "slot": "0",
        "type": "t_bool"
      },
      {
        "astId": 10099,
        "contract": "contracts/yield-integrations/PolygonQuickSwapIntegration.sol:PolygonQuickSwapIntegration",
        "label": "moduleMap",
        "offset": 2,
        "slot": "0",
        "type": "t_contract(IModuleMap)20911"
      },
      {
        "astId": 4667,
        "contract": "contracts/yield-integrations/PolygonQuickSwapIntegration.sol:PolygonQuickSwapIntegration",
        "label": "_controllers",
        "offset": 0,
        "slot": "1",
        "type": "t_mapping(t_address,t_bool)"
      },
      {
        "astId": 4670,
        "contract": "contracts/yield-integrations/PolygonQuickSwapIntegration.sol:PolygonQuickSwapIntegration",
        "label": "controllers",
        "offset": 0,
        "slot": "2",
        "type": "t_array(t_address)dyn_storage"
      },
      {
        "astId": 35622,
        "contract": "contracts/yield-integrations/PolygonQuickSwapIntegration.sol:PolygonQuickSwapIntegration",
        "label": "slippageNumerator",
        "offset": 0,
        "slot": "3",
        "type": "t_uint24"
      },
      {
        "astId": 35624,
        "contract": "contracts/yield-integrations/PolygonQuickSwapIntegration.sol:PolygonQuickSwapIntegration",
        "label": "factoryAddress",
        "offset": 3,
        "slot": "3",
        "type": "t_address"
      },
      {
        "astId": 35626,
        "contract": "contracts/yield-integrations/PolygonQuickSwapIntegration.sol:PolygonQuickSwapIntegration",
        "label": "swapRouterAddress",
        "offset": 0,
        "slot": "4",
        "type": "t_address"
      },
      {
        "astId": 35628,
        "contract": "contracts/yield-integrations/PolygonQuickSwapIntegration.sol:PolygonQuickSwapIntegration",
        "label": "wnativeAddress",
        "offset": 0,
        "slot": "5",
        "type": "t_address"
      },
      {
        "astId": 35633,
        "contract": "contracts/yield-integrations/PolygonQuickSwapIntegration.sol:PolygonQuickSwapIntegration",
        "label": "pools",
        "offset": 0,
        "slot": "6",
        "type": "t_mapping(t_uint256,t_struct(Pool)19296_storage)"
      },
      {
        "astId": 35635,
        "contract": "contracts/yield-integrations/PolygonQuickSwapIntegration.sol:PolygonQuickSwapIntegration",
        "label": "poolCount",
        "offset": 0,
        "slot": "7",
        "type": "t_uint32"
      },
      {
        "astId": 35638,
        "contract": "contracts/yield-integrations/PolygonQuickSwapIntegration.sol:PolygonQuickSwapIntegration",
        "label": "poolIds",
        "offset": 0,
        "slot": "8",
        "type": "t_array(t_uint32)dyn_storage"
      },
      {
        "astId": 35643,
        "contract": "contracts/yield-integrations/PolygonQuickSwapIntegration.sol:PolygonQuickSwapIntegration",
        "label": "stakings",
        "offset": 0,
        "slot": "9",
        "type": "t_mapping(t_uint256,t_contract(IStakingRewards)21174)"
      },
      {
        "astId": 35649,
        "contract": "contracts/yield-integrations/PolygonQuickSwapIntegration.sol:PolygonQuickSwapIntegration",
        "label": "balances",
        "offset": 0,
        "slot": "10",
        "type": "t_mapping(t_uint256,t_mapping(t_address,t_uint256))"
      },
      {
        "astId": 35653,
        "contract": "contracts/yield-integrations/PolygonQuickSwapIntegration.sol:PolygonQuickSwapIntegration",
        "label": "yieldBalances",
        "offset": 0,
        "slot": "11",
        "type": "t_mapping(t_uint32,t_uint256)"
      },
      {
        "astId": 35657,
        "contract": "contracts/yield-integrations/PolygonQuickSwapIntegration.sol:PolygonQuickSwapIntegration",
        "label": "harvestedYield",
        "offset": 0,
        "slot": "12",
        "type": "t_mapping(t_uint32,t_uint256)"
      },
      {
        "astId": 35661,
        "contract": "contracts/yield-integrations/PolygonQuickSwapIntegration.sol:PolygonQuickSwapIntegration",
        "label": "rewardBalances",
        "offset": 0,
        "slot": "13",
        "type": "t_mapping(t_uint32,t_uint256)"
      },
      {
        "astId": 35665,
        "contract": "contracts/yield-integrations/PolygonQuickSwapIntegration.sol:PolygonQuickSwapIntegration",
        "label": "rewardToken",
        "offset": 0,
        "slot": "14",
        "type": "t_mapping(t_uint32,t_address)"
      }
    ],
    "types": {
      "t_address": {
        "encoding": "inplace",
        "label": "address",
        "numberOfBytes": "20"
      },
      "t_array(t_address)dyn_storage": {
        "base": "t_address",
        "encoding": "dynamic_array",
        "label": "address[]",
        "numberOfBytes": "32"
      },
      "t_array(t_uint32)dyn_storage": {
        "base": "t_uint32",
        "encoding": "dynamic_array",
        "label": "uint32[]",
        "numberOfBytes": "32"
      },
      "t_bool": {
        "encoding": "inplace",
        "label": "bool",
        "numberOfBytes": "1"
      },
      "t_contract(IModuleMap)20911": {
        "encoding": "inplace",
        "label": "contract IModuleMap",
        "numberOfBytes": "20"
      },
      "t_contract(IStakingRewards)21174": {
        "encoding": "inplace",
        "label": "contract IStakingRewards",
        "numberOfBytes": "20"
      },
      "t_mapping(t_address,t_bool)": {
        "encoding": "mapping",
        "key": "t_address",
        "label": "mapping(address => bool)",
        "numberOfBytes": "32",
        "value": "t_bool"
      },
      "t_mapping(t_address,t_uint256)": {
        "encoding": "mapping",
        "key": "t_address",
        "label": "mapping(address => uint256)",
        "numberOfBytes": "32",
        "value": "t_uint256"
      },
      "t_mapping(t_uint256,t_contract(IStakingRewards)21174)": {
        "encoding": "mapping",
        "key": "t_uint256",
        "label": "mapping(uint256 => contract IStakingRewards)",
        "numberOfBytes": "32",
        "value": "t_contract(IStakingRewards)21174"
      },
      "t_mapping(t_uint256,t_mapping(t_address,t_uint256))": {
        "encoding": "mapping",
        "key": "t_uint256",
        "label": "mapping(uint256 => mapping(address => uint256))",
        "numberOfBytes": "32",
        "value": "t_mapping(t_address,t_uint256)"
      },
      "t_mapping(t_uint256,t_struct(Pool)19296_storage)": {
        "encoding": "mapping",
        "key": "t_uint256",
        "label": "mapping(uint256 => struct IAMMIntegration.Pool)",
        "numberOfBytes": "32",
        "value": "t_struct(Pool)19296_storage"
      },
      "t_mapping(t_uint32,t_address)": {
        "encoding": "mapping",
        "key": "t_uint32",
        "label": "mapping(uint32 => address)",
        "numberOfBytes": "32",
        "value": "t_address"
      },
      "t_mapping(t_uint32,t_uint256)": {
        "encoding": "mapping",
        "key": "t_uint32",
        "label": "mapping(uint32 => uint256)",
        "numberOfBytes": "32",
        "value": "t_uint256"
      },
      "t_struct(Pool)19296_storage": {
        "encoding": "inplace",
        "label": "struct IAMMIntegration.Pool",
        "members": [
          {
            "astId": 19291,
            "contract": "contracts/yield-integrations/PolygonQuickSwapIntegration.sol:PolygonQuickSwapIntegration",
            "label": "tokenA",
            "offset": 0,
            "slot": "0",
            "type": "t_address"
          },
          {
            "astId": 19293,
            "contract": "contracts/yield-integrations/PolygonQuickSwapIntegration.sol:PolygonQuickSwapIntegration",
            "label": "tokenB",
            "offset": 0,
            "slot": "1",
            "type": "t_address"
          },
          {
            "astId": 19295,
            "contract": "contracts/yield-integrations/PolygonQuickSwapIntegration.sol:PolygonQuickSwapIntegration",
            "label": "positionID",
            "offset": 0,
            "slot": "2",
            "type": "t_uint256"
          }
        ],
        "numberOfBytes": "96"
      },
      "t_uint24": {
        "encoding": "inplace",
        "label": "uint24",
        "numberOfBytes": "3"
      },
      "t_uint256": {
        "encoding": "inplace",
        "label": "uint256",
        "numberOfBytes": "32"
      },
      "t_uint32": {
        "encoding": "inplace",
        "label": "uint32",
        "numberOfBytes": "4"
      }
    }
  }
}