{
  "address": "0x89D421a591C0889068bDE3B6B2a76D76126FAcAb",
  "abi": [
    {
      "inputs": [
        {
          "internalType": "address[]",
          "name": "controllers_",
          "type": "address[]"
        },
        {
          "internalType": "address",
          "name": "moduleMap_",
          "type": "address"
        }
      ],
      "name": "__Controlled_init",
      "outputs": [],
      "stateMutability": "nonpayable",
      "type": "function"
    },
    {
      "inputs": [
        {
          "internalType": "address",
          "name": "controller",
          "type": "address"
        }
      ],
      "name": "addController",
      "outputs": [],
      "stateMutability": "nonpayable",
      "type": "function"
    },
    {
      "inputs": [
        {
          "internalType": "string",
          "name": "name",
          "type": "string"
        },
        {
          "components": [
            {
              "internalType": "address",
              "name": "integration",
              "type": "address"
            },
            {
              "internalType": "uint32",
              "name": "ammPoolID",
              "type": "uint32"
            }
          ],
          "internalType": "struct IStrategyMap.Integration[]",
          "name": "integrations",
          "type": "tuple[]"
        },
        {
          "components": [
            {
              "internalType": "uint256",
              "name": "integrationPairIdx",
              "type": "uint256"
            },
            {
              "internalType": "address",
              "name": "token",
              "type": "address"
            },
            {
              "internalType": "uint32",
              "name": "weight",
              "type": "uint32"
            }
          ],
          "internalType": "struct IStrategyMap.Token[]",
          "name": "tokens",
          "type": "tuple[]"
        }
      ],
      "name": "addStrategy",
      "outputs": [],
      "stateMutability": "nonpayable",
      "type": "function"
    },
    {
      "inputs": [
        {
          "internalType": "uint256",
          "name": "",
          "type": "uint256"
        }
      ],
      "name": "controllers",
      "outputs": [
        {
          "internalType": "address",
          "name": "",
          "type": "address"
        }
      ],
      "stateMutability": "view",
      "type": "function"
    },
    {
      "inputs": [
        {
          "internalType": "uint256",
          "name": "id",
          "type": "uint256"
        }
      ],
      "name": "deleteStrategy",
      "outputs": [],
      "stateMutability": "nonpayable",
      "type": "function"
    },
    {
      "inputs": [
        {
          "internalType": "address[]",
          "name": "controllers_",
          "type": "address[]"
        },
        {
          "internalType": "address",
          "name": "moduleMap_",
          "type": "address"
        }
      ],
      "name": "initialize",
      "outputs": [],
      "stateMutability": "nonpayable",
      "type": "function"
    },
    {
      "inputs": [],
      "name": "moduleMap",
      "outputs": [
        {
          "internalType": "contract IModuleMap",
          "name": "",
          "type": "address"
        }
      ],
      "stateMutability": "view",
      "type": "function"
    },
    {
      "inputs": [
        {
          "internalType": "uint256",
          "name": "id",
          "type": "uint256"
        },
        {
          "components": [
            {
              "internalType": "address",
              "name": "integration",
              "type": "address"
            },
            {
              "internalType": "uint32",
              "name": "ammPoolID",
              "type": "uint32"
            }
          ],
          "internalType": "struct IStrategyMap.Integration[]",
          "name": "integrations",
          "type": "tuple[]"
        },
        {
          "components": [
            {
              "internalType": "uint256",
              "name": "integrationPairIdx",
              "type": "uint256"
            },
            {
              "internalType": "address",
              "name": "token",
              "type": "address"
            },
            {
              "internalType": "uint32",
              "name": "weight",
              "type": "uint32"
            }
          ],
          "internalType": "struct IStrategyMap.Token[]",
          "name": "tokens",
          "type": "tuple[]"
        }
      ],
      "name": "updateStrategy",
      "outputs": [],
      "stateMutability": "nonpayable",
      "type": "function"
    },
    {
      "inputs": [
        {
          "internalType": "uint256",
          "name": "id",
          "type": "uint256"
        },
        {
          "internalType": "string",
          "name": "name",
          "type": "string"
        }
      ],
      "name": "updateStrategyName",
      "outputs": [],
      "stateMutability": "nonpayable",
      "type": "function"
    }
  ],
  "transactionHash": "0x631a96338b13e352738ebc03538c628fbff8ef9ea73d2718781ff4d46810459c",
  "args": [],
  "solcInputHash": "3fb2c2d9111dbcc848be196eb3f217b7",
  "bytecode": "0x608060405234801561001057600080fd5b50611796806100206000396000f3fe608060405234801561001057600080fd5b50600436106100835760003560e01c80630f0a1c6f14610088578063462d0b2e146100b757806370051bf2146100cc57806387302037146100df57806398c671ce146100f2578063a7fc7a0714610105578063e94b0dd214610118578063edeaa0d21461012b578063fbcaaf961461013e575b600080fd5b6000546100a1906201000090046001600160a01b031681565b6040516100ae919061158e565b60405180910390f35b6100ca6100c5366004611233565b610151565b005b6100ca6100da36600461132b565b6101d2565b6100ca6100ed3660046113c0565b610545565b6100ca610100366004611233565b610749565b6100ca6101133660046111f4565b610833565b6100a16101263660046113c0565b610a70565b6100ca6101393660046113d8565b610a9a565b6100ca61014c36600461144e565b610e0a565b600054610100900460ff168061016a575060005460ff16155b61018f5760405162461bcd60e51b815260040161018690611613565b60405180910390fd5b600054610100900460ff161580156101b1576000805461ffff19166101011790555b6101bb8383610749565b80156101cd576000805461ff00191690555b505050565b600080546040516337c61fc560e11b8152620100009091046001600160a01b031691636f8c3f8a9161020791906004016115a2565b60206040518083038186803b15801561021f57600080fd5b505afa158015610233573d6000803e3d6000fd5b505050506040513d601f19601f820116820180604052508101906102579190611217565b6001600160a01b031663f3ae2415336040518263ffffffff1660e01b8152600401610282919061158e565b60206040518083038186803b15801561029a57600080fd5b505afa1580156102ae573d6000803e3d6000fd5b505050506040513d601f19601f820116820180604052508101906102d2919061130b565b6102ee5760405162461bcd60e51b815260040161018690611661565b600080546040516337c61fc560e11b8152620100009091046001600160a01b031690636f8c3f8a90610325906003906004016115a2565b60206040518083038186803b15801561033d57600080fd5b505afa158015610351573d6000803e3d6000fd5b505050506040513d601f19601f820116820180604052508101906103759190611217565b905060005b8481101561044e57816001600160a01b0316631de4fe138787848181106103b157634e487b7160e01b600052603260045260246000fd5b6103c792602060409092020190810191506111f4565b6040518263ffffffff1660e01b81526004016103e3919061158e565b60206040518083038186803b1580156103fb57600080fd5b505afa15801561040f573d6000803e3d6000fd5b505050506040513d601f19601f82011682018060405250810190610433919061130b565b61043c57600080fd5b806104468161170b565b91505061037a565b506000546040516337c61fc560e11b8152620100009091046001600160a01b031690636f8c3f8a90610485906008906004016115a2565b60206040518083038186803b15801561049d57600080fd5b505afa1580156104b1573d6000803e3d6000fd5b505050506040513d601f19601f820116820180604052508101906104d59190611217565b6001600160a01b03166370051bf28888888888886040518763ffffffff1660e01b815260040161050a969594939291906115ca565b600060405180830381600087803b15801561052457600080fd5b505af1158015610538573d6000803e3d6000fd5b5050505050505050505050565b600080546040516337c61fc560e11b8152620100009091046001600160a01b031691636f8c3f8a9161057a91906004016115a2565b60206040518083038186803b15801561059257600080fd5b505afa1580156105a6573d6000803e3d6000fd5b505050506040513d601f19601f820116820180604052508101906105ca9190611217565b6001600160a01b031663f3ae2415336040518263ffffffff1660e01b81526004016105f5919061158e565b60206040518083038186803b15801561060d57600080fd5b505afa158015610621573d6000803e3d6000fd5b505050506040513d601f19601f82011682018060405250810190610645919061130b565b6106615760405162461bcd60e51b815260040161018690611661565b6000546040516337c61fc560e11b8152620100009091046001600160a01b031690636f8c3f8a90610697906008906004016115a2565b60206040518083038186803b1580156106af57600080fd5b505afa1580156106c3573d6000803e3d6000fd5b505050506040513d601f19601f820116820180604052508101906106e79190611217565b6001600160a01b03166387302037826040518263ffffffff1660e01b815260040161071491815260200190565b600060405180830381600087803b15801561072e57600080fd5b505af1158015610742573d6000803e3d6000fd5b5050505050565b600054610100900460ff1680610762575060005460ff16155b61077e5760405162461bcd60e51b815260040161018690611613565b600054610100900460ff161580156107a0576000805461ffff19166101011790555b60005b83518110156108155760018060008684815181106107d157634e487b7160e01b600052603260045260246000fd5b6020908102919091018101516001600160a01b03168252810191909152604001600020805460ff19169115159190911790558061080d8161170b565b9150506107a3565b5082516108299060029060208601906110a0565b506101bb82611012565b600080546040516337c61fc560e11b8152620100009091046001600160a01b031691636f8c3f8a9161086891906004016115a2565b60206040518083038186803b15801561088057600080fd5b505afa158015610894573d6000803e3d6000fd5b505050506040513d601f19601f820116820180604052508101906108b89190611217565b6001600160a01b0316632f54bf6e336040518263ffffffff1660e01b81526004016108e3919061158e565b60206040518083038186803b1580156108fb57600080fd5b505afa15801561090f573d6000803e3d6000fd5b505050506040513d601f19601f82011682018060405250810190610933919061130b565b6109925760405162461bcd60e51b815260206004820152602a60248201527f436f6e74726f6c6c65643a3a6f6e6c794f776e65723a2043616c6c6572206973604482015269103737ba1037bbb732b960b11b6064820152608401610186565b6001600160a01b03811660009081526001602081905260408220805460ff19169091179055805b600254811015610a1a57600281815481106109e457634e487b7160e01b600052603260045260246000fd5b6000918252602090912001546001600160a01b0384811691161415610a0857600191505b80610a128161170b565b9150506109b9565b5080610a6c57600280546001810182556000919091527f405787fa12a823e0f2b7631cc41b3ba8828b3321ca811111fa75cd3aa3bb5ace0180546001600160a01b0319166001600160a01b0384161790555b5050565b60028181548110610a8057600080fd5b6000918252602090912001546001600160a01b0316905081565b600080546040516337c61fc560e11b8152620100009091046001600160a01b031691636f8c3f8a91610acf91906004016115a2565b60206040518083038186803b158015610ae757600080fd5b505afa158015610afb573d6000803e3d6000fd5b505050506040513d601f19601f82011682018060405250810190610b1f9190611217565b6001600160a01b031663f3ae2415336040518263ffffffff1660e01b8152600401610b4a919061158e565b60206040518083038186803b158015610b6257600080fd5b505afa158015610b76573d6000803e3d6000fd5b505050506040513d601f19601f82011682018060405250810190610b9a919061130b565b610bb65760405162461bcd60e51b815260040161018690611661565b600080546040516337c61fc560e11b8152620100009091046001600160a01b031690636f8c3f8a90610bed906003906004016115a2565b60206040518083038186803b158015610c0557600080fd5b505afa158015610c19573d6000803e3d6000fd5b505050506040513d601f19601f82011682018060405250810190610c3d9190611217565b905060005b84811015610d1657816001600160a01b0316631de4fe13878784818110610c7957634e487b7160e01b600052603260045260246000fd5b610c8f92602060409092020190810191506111f4565b6040518263ffffffff1660e01b8152600401610cab919061158e565b60206040518083038186803b158015610cc357600080fd5b505afa158015610cd7573d6000803e3d6000fd5b505050506040513d601f19601f82011682018060405250810190610cfb919061130b565b610d0457600080fd5b80610d0e8161170b565b915050610c42565b506000546040516337c61fc560e11b8152620100009091046001600160a01b031690636f8c3f8a90610d4d906008906004016115a2565b60206040518083038186803b158015610d6557600080fd5b505afa158015610d79573d6000803e3d6000fd5b505050506040513d601f19601f82011682018060405250810190610d9d9190611217565b6001600160a01b031663edeaa0d287878787876040518663ffffffff1660e01b8152600401610dd09594939291906116af565b600060405180830381600087803b158015610dea57600080fd5b505af1158015610dfe573d6000803e3d6000fd5b50505050505050505050565b600080546040516337c61fc560e11b8152620100009091046001600160a01b031691636f8c3f8a91610e3f91906004016115a2565b60206040518083038186803b158015610e5757600080fd5b505afa158015610e6b573d6000803e3d6000fd5b505050506040513d601f19601f82011682018060405250810190610e8f9190611217565b6001600160a01b031663f3ae2415336040518263ffffffff1660e01b8152600401610eba919061158e565b60206040518083038186803b158015610ed257600080fd5b505afa158015610ee6573d6000803e3d6000fd5b505050506040513d601f19601f82011682018060405250810190610f0a919061130b565b610f265760405162461bcd60e51b815260040161018690611661565b6000546040516337c61fc560e11b8152620100009091046001600160a01b031690636f8c3f8a90610f5c906008906004016115a2565b60206040518083038186803b158015610f7457600080fd5b505afa158015610f88573d6000803e3d6000fd5b505050506040513d601f19601f82011682018060405250810190610fac9190611217565b6001600160a01b03166353e76f2c8484846040518463ffffffff1660e01b8152600401610fdb939291906116e8565b600060405180830381600087803b158015610ff557600080fd5b505af1158015611009573d6000803e3d6000fd5b50505050505050565b600054610100900460ff168061102b575060005460ff16155b6110475760405162461bcd60e51b815260040161018690611613565b600054610100900460ff16158015611069576000805461ffff19166101011790555b6000805462010000600160b01b031916620100006001600160a01b038516021790558015610a6c576000805461ff00191690555050565b8280548282559060005260206000209081019282156110f5579160200282015b828111156110f557825182546001600160a01b0319166001600160a01b039091161782556020909201916001909101906110c0565b50611101929150611105565b5090565b5b808211156111015760008155600101611106565b803561112581611748565b919050565b60008083601f84011261113b578182fd5b5081356001600160401b03811115611151578182fd5b6020830191508360208260061b850101111561116c57600080fd5b9250929050565b60008083601f840112611184578182fd5b5081356001600160401b0381111561119a578182fd5b60208301915083602060608302850101111561116c57600080fd5b60008083601f8401126111c6578182fd5b5081356001600160401b038111156111dc578182fd5b60208301915083602082850101111561116c57600080fd5b600060208284031215611205578081fd5b813561121081611748565b9392505050565b600060208284031215611228578081fd5b815161121081611748565b60008060408385031215611245578081fd5b82356001600160401b038082111561125b578283fd5b818501915085601f83011261126e578283fd5b813560208282111561128257611282611732565b8160051b604051601f19603f830116810181811086821117156112a7576112a7611732565b604052838152828101945085830182870184018b10156112c5578788fd5b8796505b848710156112ee576112da8161111a565b8652600196909601959483019483016112c9565b5096506112fe905087820161111a565b9450505050509250929050565b60006020828403121561131c578081fd5b81518015158114611210578182fd5b60008060008060008060608789031215611343578182fd5b86356001600160401b0380821115611359578384fd5b6113658a838b016111b5565b9098509650602089013591508082111561137d578384fd5b6113898a838b0161112a565b909650945060408901359150808211156113a1578384fd5b506113ae89828a01611173565b979a9699509497509295939492505050565b6000602082840312156113d1578081fd5b5035919050565b6000806000806000606086880312156113ef578081fd5b8535945060208601356001600160401b038082111561140c578283fd5b61141889838a0161112a565b90965094506040880135915080821115611430578283fd5b5061143d88828901611173565b969995985093965092949392505050565b600080600060408486031215611462578283fd5b8335925060208401356001600160401b0381111561147e578283fd5b61148a868287016111b5565b9497909650939450505050565b81835260006020808501945082825b858110156114f25781356114b981611748565b6001600160a01b031687528183013563ffffffff81168082146114da578586fd5b888501525060409687019691909101906001016114a6565b509495945050505050565b81835260006020808501945082825b858110156114f257813587528282013561152581611748565b6001600160a01b03168784015260408281013563ffffffff811680821461154a578687fd5b9189019190915250606096870196919091019060010161150c565b81835281816020850137506000828201602090810191909152601f909101601f19169091010190565b6001600160a01b0391909116815260200190565b60208101600b83106115c457634e487b7160e01b600052602160045260246000fd5b91905290565b6060815260006115de60608301888a611565565b82810360208401526115f1818789611497565b905082810360408401526116068185876114fd565b9998505050505050505050565b6020808252602e908201527f496e697469616c697a61626c653a20636f6e747261637420697320616c72656160408201526d191e481a5b9a5d1a585b1a5e995960921b606082015260800190565b6020808252602e908201527f436f6e74726f6c6c65643a3a6f6e6c794d616e616765723a2043616c6c65722060408201526d34b9903737ba1036b0b730b3b2b960911b606082015260800190565b8581526060602082015260006116c9606083018688611497565b82810360408401526116dc8185876114fd565b98975050505050505050565b838152604060208201526000611702604083018486611565565b95945050505050565b600060001982141561172b57634e487b7160e01b81526011600452602481fd5b5060010190565b634e487b7160e01b600052604160045260246000fd5b6001600160a01b038116811461175d57600080fd5b5056fea26469706673582212200fb03baa764aed489a6a7e972c48cf3f31c9de840ec187937b67a290808d427f64736f6c63430008040033",
  "devdoc": {
    "kind": "dev",
    "methods": {
      "addStrategy(string,(address,uint32)[],(uint256,address,uint32)[])": {
        "details": "This is a passthrough to StrategyMap.addStrategy"
      },
      "deleteStrategy(uint256)": {
        "details": "This is a pass through to StrategyMap.deleteStrategy"
      },
      "updateStrategy(uint256,(address,uint32)[],(uint256,address,uint32)[])": {
        "details": "This is a passthrough to StrategyMap.updateStrategyTokens"
      },
      "updateStrategyName(uint256,string)": {
        "details": "This is a pass through function to StrategyMap.updateName"
      }
    },
    "version": 1
  },
  "userdoc": {
    "kind": "user",
    "methods": {
      "addStrategy(string,(address,uint32)[],(uint256,address,uint32)[])": {
        "notice": "Adds a new strategy to the strategy map."
      },
      "deleteStrategy(uint256)": {
        "notice": "Deletes a strategy"
      },
      "updateStrategy(uint256,(address,uint32)[],(uint256,address,uint32)[])": {
        "notice": "Updates the whitelisted tokens a strategy accepts for new deposits"
      },
      "updateStrategyName(uint256,string)": {
        "notice": "Updates a strategy's name"
      }
    },
    "version": 1
  },
  "storageLayout": {
    "storage": [
      {
        "astId": 722,
        "contract": "contracts/core/StrategyManager.sol:StrategyManager",
        "label": "_initialized",
        "offset": 0,
        "slot": "0",
        "type": "t_bool"
      },
      {
        "astId": 725,
        "contract": "contracts/core/StrategyManager.sol:StrategyManager",
        "label": "_initializing",
        "offset": 1,
        "slot": "0",
        "type": "t_bool"
      },
      {
        "astId": 8299,
        "contract": "contracts/core/StrategyManager.sol:StrategyManager",
        "label": "moduleMap",
        "offset": 2,
        "slot": "0",
        "type": "t_contract(IModuleMap)17371"
      },
      {
        "astId": 3467,
        "contract": "contracts/core/StrategyManager.sol:StrategyManager",
        "label": "_controllers",
        "offset": 0,
        "slot": "1",
        "type": "t_mapping(t_address,t_bool)"
      },
      {
        "astId": 3470,
        "contract": "contracts/core/StrategyManager.sol:StrategyManager",
        "label": "controllers",
        "offset": 0,
        "slot": "2",
        "type": "t_array(t_address)dyn_storage"
      }
    ],
    "types": {
      "t_address": {
        "encoding": "inplace",
        "label": "address",
        "numberOfBytes": "20"
      },
      "t_array(t_address)dyn_storage": {
        "base": "t_address",
        "encoding": "dynamic_array",
        "label": "address[]",
        "numberOfBytes": "32"
      },
      "t_bool": {
        "encoding": "inplace",
        "label": "bool",
        "numberOfBytes": "1"
      },
      "t_contract(IModuleMap)17371": {
        "encoding": "inplace",
        "label": "contract IModuleMap",
        "numberOfBytes": "20"
      },
      "t_mapping(t_address,t_bool)": {
        "encoding": "mapping",
        "key": "t_address",
        "label": "mapping(address => bool)",
        "numberOfBytes": "32",
        "value": "t_bool"
      }
    }
  }
}