{
  "address": "0x73668324Db392489741064F8fd7788980d276956",
  "abi": [
    {
      "anonymous": false,
      "inputs": [
        {
          "indexed": true,
          "internalType": "address",
          "name": "user",
          "type": "address"
        },
        {
          "indexed": false,
          "internalType": "address[]",
          "name": "tokens",
          "type": "address[]"
        },
        {
          "indexed": false,
          "internalType": "uint256[]",
          "name": "tokenAmounts",
          "type": "uint256[]"
        },
        {
          "indexed": false,
          "internalType": "uint256",
          "name": "ethAmount",
          "type": "uint256"
        }
      ],
      "name": "Deposit",
      "type": "event"
    },
    {
      "anonymous": false,
      "inputs": [
        {
          "indexed": true,
          "internalType": "uint256",
          "name": "id",
          "type": "uint256"
        },
        {
          "indexed": true,
          "internalType": "address",
          "name": "user",
          "type": "address"
        },
        {
          "components": [
            {
              "internalType": "address",
              "name": "token",
              "type": "address"
            },
            {
              "internalType": "uint256",
              "name": "amount",
              "type": "uint256"
            }
          ],
          "indexed": false,
          "internalType": "struct IUserPositions.TokenMovement[]",
          "name": "tokens",
          "type": "tuple[]"
        }
      ],
      "name": "EnterStrategy",
      "type": "event"
    },
    {
      "anonymous": false,
      "inputs": [
        {
          "indexed": true,
          "internalType": "uint256",
          "name": "id",
          "type": "uint256"
        },
        {
          "indexed": true,
          "internalType": "address",
          "name": "user",
          "type": "address"
        },
        {
          "components": [
            {
              "internalType": "address",
              "name": "token",
              "type": "address"
            },
            {
              "internalType": "uint256",
              "name": "amount",
              "type": "uint256"
            }
          ],
          "indexed": false,
          "internalType": "struct IUserPositions.TokenMovement[]",
          "name": "tokens",
          "type": "tuple[]"
        }
      ],
      "name": "ExitStrategy",
      "type": "event"
    },
    {
      "anonymous": false,
      "inputs": [
        {
          "indexed": false,
          "internalType": "bool",
          "name": "isPaused",
          "type": "bool"
        }
      ],
      "name": "Pause",
      "type": "event"
    },
    {
      "inputs": [
        {
          "internalType": "uint256",
          "name": "strategyID",
          "type": "uint256"
        },
        {
          "internalType": "address",
          "name": "user",
          "type": "address"
        },
        {
          "components": [
            {
              "internalType": "address",
              "name": "token",
              "type": "address"
            },
            {
              "internalType": "uint256",
              "name": "amount",
              "type": "uint256"
            }
          ],
          "internalType": "struct IUserPositions.TokenMovement[]",
          "name": "tokens",
          "type": "tuple[]"
        },
        {
          "internalType": "bool",
          "name": "enterStrat",
          "type": "bool"
        }
      ],
      "name": "_remoteStrategyExecution",
      "outputs": [],
      "stateMutability": "nonpayable",
      "type": "function"
    },
    {
      "inputs": [
        {
          "internalType": "address",
          "name": "controller",
          "type": "address"
        }
      ],
      "name": "addController",
      "outputs": [],
      "stateMutability": "nonpayable",
      "type": "function"
    },
    {
      "inputs": [
        {
          "internalType": "address",
          "name": "recipient",
          "type": "address"
        },
        {
          "internalType": "uint256[]",
          "name": "strategies",
          "type": "uint256[]"
        }
      ],
      "name": "claimEthRewards",
      "outputs": [
        {
          "internalType": "uint256",
          "name": "ethClaimed",
          "type": "uint256"
        }
      ],
      "stateMutability": "nonpayable",
      "type": "function"
    },
    {
      "inputs": [
        {
          "internalType": "uint256",
          "name": "",
          "type": "uint256"
        }
      ],
      "name": "controllers",
      "outputs": [
        {
          "internalType": "address",
          "name": "",
          "type": "address"
        }
      ],
      "stateMutability": "view",
      "type": "function"
    },
    {
      "inputs": [
        {
          "internalType": "address",
          "name": "depositor",
          "type": "address"
        },
        {
          "internalType": "address[]",
          "name": "tokens",
          "type": "address[]"
        },
        {
          "internalType": "uint256[]",
          "name": "amounts",
          "type": "uint256[]"
        },
        {
          "internalType": "uint256",
          "name": "ethAmount",
          "type": "uint256"
        },
        {
          "internalType": "bool",
          "name": "migration",
          "type": "bool"
        }
      ],
      "name": "deposit",
      "outputs": [],
      "stateMutability": "nonpayable",
      "type": "function"
    },
    {
      "inputs": [
        {
          "internalType": "uint256",
          "name": "strategyID",
          "type": "uint256"
        },
        {
          "components": [
            {
              "internalType": "address",
              "name": "token",
              "type": "address"
            },
            {
              "internalType": "uint256",
              "name": "amount",
              "type": "uint256"
            }
          ],
          "internalType": "struct IUserPositions.TokenMovement[]",
          "name": "tokens",
          "type": "tuple[]"
        }
      ],
      "name": "enterStrategy",
      "outputs": [],
      "stateMutability": "nonpayable",
      "type": "function"
    },
    {
      "inputs": [
        {
          "internalType": "uint256",
          "name": "strategyID",
          "type": "uint256"
        },
        {
          "components": [
            {
              "internalType": "address",
              "name": "token",
              "type": "address"
            },
            {
              "internalType": "uint256",
              "name": "amount",
              "type": "uint256"
            }
          ],
          "internalType": "struct IUserPositions.TokenMovement[]",
          "name": "tokens",
          "type": "tuple[]"
        }
      ],
      "name": "exitStrategy",
      "outputs": [],
      "stateMutability": "nonpayable",
      "type": "function"
    },
    {
      "inputs": [],
      "name": "getAllControllers",
      "outputs": [
        {
          "internalType": "address[]",
          "name": "currentControllers",
          "type": "address[]"
        }
      ],
      "stateMutability": "view",
      "type": "function"
    },
    {
      "inputs": [
        {
          "internalType": "address",
          "name": "user",
          "type": "address"
        },
        {
          "internalType": "uint256[]",
          "name": "_strategies",
          "type": "uint256[]"
        },
        {
          "internalType": "address[]",
          "name": "_tokens",
          "type": "address[]"
        }
      ],
      "name": "getUserBalances",
      "outputs": [
        {
          "components": [
            {
              "internalType": "uint256",
              "name": "strategyID",
              "type": "uint256"
            },
            {
              "components": [
                {
                  "internalType": "address",
                  "name": "token",
                  "type": "address"
                },
                {
                  "internalType": "uint256",
                  "name": "balance",
                  "type": "uint256"
                }
              ],
              "internalType": "struct IStrategyMap.GeneralBalance[]",
              "name": "tokens",
              "type": "tuple[]"
            }
          ],
          "internalType": "struct IStrategyMap.StrategyBalance[]",
          "name": "strategyBalance",
          "type": "tuple[]"
        },
        {
          "components": [
            {
              "internalType": "address",
              "name": "token",
              "type": "address"
            },
            {
              "internalType": "uint256",
              "name": "balance",
              "type": "uint256"
            }
          ],
          "internalType": "struct IStrategyMap.GeneralBalance[]",
          "name": "userBalance",
          "type": "tuple[]"
        }
      ],
      "stateMutability": "view",
      "type": "function"
    },
    {
      "inputs": [
        {
          "internalType": "address",
          "name": "token",
          "type": "address"
        },
        {
          "internalType": "address",
          "name": "user",
          "type": "address"
        }
      ],
      "name": "getUserInvestedAmountByToken",
      "outputs": [
        {
          "internalType": "uint256",
          "name": "amount",
          "type": "uint256"
        }
      ],
      "stateMutability": "view",
      "type": "function"
    },
    {
      "inputs": [
        {
          "internalType": "uint256",
          "name": "id",
          "type": "uint256"
        },
        {
          "internalType": "address",
          "name": "token",
          "type": "address"
        },
        {
          "internalType": "address",
          "name": "user",
          "type": "address"
        }
      ],
      "name": "getUserStrategyBalanceByToken",
      "outputs": [
        {
          "internalType": "uint256",
          "name": "amount",
          "type": "uint256"
        }
      ],
      "stateMutability": "view",
      "type": "function"
    },
    {
      "inputs": [
        {
          "internalType": "address[]",
          "name": "controllers_",
          "type": "address[]"
        },
        {
          "internalType": "address",
          "name": "moduleMap_",
          "type": "address"
        }
      ],
      "name": "initialize",
      "outputs": [],
      "stateMutability": "nonpayable",
      "type": "function"
    },
    {
      "inputs": [
        {
          "internalType": "address",
          "name": "controller",
          "type": "address"
        }
      ],
      "name": "isController",
      "outputs": [
        {
          "internalType": "bool",
          "name": "status",
          "type": "bool"
        }
      ],
      "stateMutability": "view",
      "type": "function"
    },
    {
      "inputs": [],
      "name": "moduleMap",
      "outputs": [
        {
          "internalType": "contract IModuleMap",
          "name": "",
          "type": "address"
        }
      ],
      "stateMutability": "view",
      "type": "function"
    },
    {
      "inputs": [],
      "name": "pause",
      "outputs": [],
      "stateMutability": "nonpayable",
      "type": "function"
    },
    {
      "inputs": [],
      "name": "paused",
      "outputs": [
        {
          "internalType": "bool",
          "name": "",
          "type": "bool"
        }
      ],
      "stateMutability": "view",
      "type": "function"
    },
    {
      "inputs": [
        {
          "internalType": "address",
          "name": "asset",
          "type": "address"
        }
      ],
      "name": "totalTokenBalance",
      "outputs": [
        {
          "internalType": "uint256",
          "name": "",
          "type": "uint256"
        }
      ],
      "stateMutability": "view",
      "type": "function"
    },
    {
      "inputs": [],
      "name": "unpause",
      "outputs": [],
      "stateMutability": "nonpayable",
      "type": "function"
    },
    {
      "inputs": [
        {
          "internalType": "address[]",
          "name": "assets",
          "type": "address[]"
        },
        {
          "internalType": "address",
          "name": "account",
          "type": "address"
        },
        {
          "internalType": "uint256[]",
          "name": "amounts",
          "type": "uint256[]"
        },
        {
          "internalType": "bool[]",
          "name": "add",
          "type": "bool[]"
        }
      ],
      "name": "updateUserInterconnectBalances",
      "outputs": [],
      "stateMutability": "nonpayable",
      "type": "function"
    },
    {
      "inputs": [
        {
          "internalType": "address[]",
          "name": "assets",
          "type": "address[]"
        },
        {
          "internalType": "address",
          "name": "account",
          "type": "address"
        },
        {
          "internalType": "uint256[]",
          "name": "amounts",
          "type": "uint256[]"
        },
        {
          "internalType": "bool[]",
          "name": "add",
          "type": "bool[]"
        }
      ],
      "name": "updateUserTokenBalances",
      "outputs": [],
      "stateMutability": "nonpayable",
      "type": "function"
    },
    {
      "inputs": [
        {
          "internalType": "address",
          "name": "asset",
          "type": "address"
        },
        {
          "internalType": "address",
          "name": "account",
          "type": "address"
        }
      ],
      "name": "userDeployableBalance",
      "outputs": [
        {
          "internalType": "uint256",
          "name": "",
          "type": "uint256"
        }
      ],
      "stateMutability": "view",
      "type": "function"
    },
    {
      "inputs": [
        {
          "internalType": "address",
          "name": "asset",
          "type": "address"
        },
        {
          "internalType": "address",
          "name": "account",
          "type": "address"
        }
      ],
      "name": "userInterconnectBalance",
      "outputs": [
        {
          "internalType": "uint256",
          "name": "",
          "type": "uint256"
        }
      ],
      "stateMutability": "view",
      "type": "function"
    },
    {
      "inputs": [
        {
          "internalType": "address",
          "name": "asset",
          "type": "address"
        },
        {
          "internalType": "address",
          "name": "account",
          "type": "address"
        }
      ],
      "name": "userTokenBalance",
      "outputs": [
        {
          "internalType": "uint256",
          "name": "",
          "type": "uint256"
        }
      ],
      "stateMutability": "view",
      "type": "function"
    },
    {
      "inputs": [
        {
          "internalType": "address",
          "name": "recipient",
          "type": "address"
        },
        {
          "internalType": "address[]",
          "name": "tokens",
          "type": "address[]"
        },
        {
          "internalType": "uint256[]",
          "name": "amounts",
          "type": "uint256[]"
        },
        {
          "internalType": "bool",
          "name": "withdrawWethAsEth",
          "type": "bool"
        }
      ],
      "name": "withdraw",
      "outputs": [
        {
          "internalType": "uint256",
          "name": "ethWithdrawn",
          "type": "uint256"
        }
      ],
      "stateMutability": "nonpayable",
      "type": "function"
    },
    {
      "inputs": [
        {
          "internalType": "address",
          "name": "recipient",
          "type": "address"
        },
        {
          "internalType": "address[]",
          "name": "tokens",
          "type": "address[]"
        },
        {
          "internalType": "uint256[]",
          "name": "strategies",
          "type": "uint256[]"
        },
        {
          "internalType": "bool",
          "name": "withdrawWethAsEth",
          "type": "bool"
        }
      ],
      "name": "withdrawAllAndClaim",
      "outputs": [
        {
          "internalType": "uint256[]",
          "name": "tokenAmounts",
          "type": "uint256[]"
        },
        {
          "internalType": "uint256",
          "name": "ethWithdrawn",
          "type": "uint256"
        },
        {
          "internalType": "uint256",
          "name": "ethClaimed",
          "type": "uint256"
        },
        {
          "internalType": "uint256",
          "name": "biosClaimed",
          "type": "uint256"
        }
      ],
      "stateMutability": "nonpayable",
      "type": "function"
    }
  ],
  "transactionHash": "0xe35e3bcd010cf532086520502b61968b3e76e2d26e5573730f06cb24f9ed932d",
  "args": [],
  "solcInputHash": "74091831759e5a287e0bfe1d33db2486",
  "bytecode": "0x608060405234801561001057600080fd5b50615b2a80620000216000396000f3fe608060405234801561001057600080fd5b50600436106101335760003560e01c80630f0a1c6f1461013857806316d805bd14610167578063337993cb146101885780633f4ba83a1461019d57806341127a67146101a7578063462d0b2e146101ba578063558c811e146101cd5780635702ea2a146101e05780635c975abb146101f3578063776f5a8d146102105780638456cb59146102235780638a22eee31461022b57806395be05461461023e578063a7fc7a0714610261578063a810b37814610274578063b429afeb14610295578063b47064c8146102c1578063b81f4499146102d4578063c3b2a7f4146102e7578063d969f1b5146102fa578063df9b1af91461030d578063e88d4d0e14610346578063e94b0dd214610359578063f0f25dd51461036c578063f54659921461037f575b600080fd5b600054610151906201000090046001600160a01b031681565b60405161015e9190615522565b60405180910390f35b61017a610175366004614db6565b6103a8565b60405190815260200161015e565b6101906103d5565b60405161015e91906155a5565b6101a5610437565b005b61017a6101b536600461532a565b61058b565b6101a56101c8366004615108565b6105c1565b61017a6101db366004614e7f565b61063f565b6101a56101ee36600461514c565b6106cf565b6009546102009060ff1681565b604051901515815260200161015e565b6101a561021e366004614f04565b610ad6565b6101a5610b5b565b6101a56102393660046153ce565b610ca5565b61025161024c366004614dee565b610dc2565b60405161015e9493929190615689565b6101a561026f366004614d7e565b6112a5565b610287610282366004614fe7565b61149d565b60405161015e9291906155ee565b6102006102a3366004614d7e565b6001600160a01b031660009081526001602052604090205460ff1690565b61017a6102cf366004614db6565b611a88565b6101a56102e23660046153ce565b611b12565b61017a6102f5366004614f95565b611b41565b6101a561030836600461536b565b611bcc565b61017a61031b366004614db6565b6001600160a01b03918216600090815260086020908152604080832093909416825291909152205490565b61017a610354366004614db6565b611d07565b6101516103673660046152fa565b611db8565b6101a561037a366004615066565b611de2565b61017a61038d366004614d7e565b6001600160a01b031660009081526004602052604090205490565b6001600160a01b038082166000908152600660209081526040808320938616835292905220545b92915050565b6060600280548060200260200160405190810160405280929190818152602001828054801561042d57602002820191906000526020600020905b81546001600160a01b0316815260019091019060200180831161040f575b5050505050905090565b600080546040516337c61fc560e11b8152620100009091046001600160a01b031691636f8c3f8a9161046c91906004016156b8565b60206040518083038186803b15801561048457600080fd5b505afa158015610498573d6000803e3d6000fd5b505050506040513d601f19601f820116820180604052508101906104bc9190614d9a565b6001600160a01b0316632f54bf6e336040518263ffffffff1660e01b81526004016104e79190615522565b60206040518083038186803b1580156104ff57600080fd5b505afa158015610513573d6000803e3d6000fd5b505050506040513d601f19601f8201168201806040525081019061053791906151e4565b61055c5760405162461bcd60e51b815260040161055390615783565b60405180910390fd5b6009805460ff1916905560405160008152600080516020615ad5833981519152906020015b60405180910390a1565b6001600160a01b0380821660009081526007602090815260408083208784528252808320938616835292905220545b9392505050565b600054610100900460ff166105dc5760005460ff16156105e0565b303b155b6105fc5760405162461bcd60e51b8152600401610553906157cd565b600054610100900460ff1615801561061e576000805461ffff19166101011790555b61062883836121a9565b801561063a576000805461ff00191690555b505050565b60095460009060ff16156106655760405162461bcd60e51b815260040161055390615840565b3360009081526001602052604090205460ff166106945760405162461bcd60e51b8152600401610553906158c1565b6001600160a01b0385166106ba5760405162461bcd60e51b81526004016105539061581b565b6106c685858585612334565b95945050505050565b3360009081526001602052604090205460ff166106fe5760405162461bcd60e51b8152600401610553906158c1565b6001600160a01b0383166107245760405162461bcd60e51b81526004016105539061581b565b815184511461079c5760405162461bcd60e51b815260206004820152604a6024820152600080516020615ab583398151915260448201527f6e6e65637442616c616e6365733a20617272617973206d7573742062652065716064820152690eac2d840d8cadccee8d60b31b608482015260a401610553565b60005b8451811015610acf576000600860008784815181106107ce57634e487b7160e01b600052603260045260246000fd5b60200260200101516001600160a01b03166001600160a01b031681526020019081526020016000206000866001600160a01b03166001600160a01b0316815260200190815260200160002054905083828151811061083c57634e487b7160e01b600052603260045260246000fd5b6020026020010151600014156108e35760405162461bcd60e51b815260206004820152606c6024820152600080516020615ab583398151915260448201527f6e6e65637442616c616e6365733a204d7573742068617665206120706f73697460648201527f697665206f72206e65676174697665206e756d62657220746f206368616e676560848201526b207468652062616c616e636560a01b60a482015260c401610553565b600083838151811061090557634e487b7160e01b600052603260045260246000fd5b60200260200101511561094c5784838151811061093257634e487b7160e01b600052603260045260246000fd5b60200260200101518261094591906159cc565b9050610a48565b8185848151811061096d57634e487b7160e01b600052603260045260246000fd5b60200260200101511115610a125760405162461bcd60e51b815260206004820152606c6024820152600080516020615ab583398151915260448201527f6e6e65637442616c616e6365733a20416d6f756e7420746f207265647563652060648201527f62616c616e6365206d757374206265206e6f206d6f7265207468616e2063757260848201526b72656e742062616c616e636560a01b60a482015260c401610553565b848381518110610a3257634e487b7160e01b600052603260045260246000fd5b602002602001015182610a4591906159e4565b90505b8060086000898681518110610a6d57634e487b7160e01b600052603260045260246000fd5b60200260200101516001600160a01b03166001600160a01b031681526020019081526020016000206000886001600160a01b03166001600160a01b0316815260200190815260200160002081905550505080610ac890615a27565b905061079f565b5050505050565b3360009081526001602052604090205460ff16610b055760405162461bcd60e51b8152600401610553906158c1565b60095460ff1615610b285760405162461bcd60e51b815260040161055390615840565b6001600160a01b038516610b4e5760405162461bcd60e51b81526004016105539061581b565b610acf8585858585613124565b600080546040516337c61fc560e11b8152620100009091046001600160a01b031691636f8c3f8a91610b9091906004016156b8565b60206040518083038186803b158015610ba857600080fd5b505afa158015610bbc573d6000803e3d6000fd5b505050506040513d601f19601f82011682018060405250810190610be09190614d9a565b6001600160a01b0316632f54bf6e336040518263ffffffff1660e01b8152600401610c0b9190615522565b60206040518083038186803b158015610c2357600080fd5b505afa158015610c37573d6000803e3d6000fd5b505050506040513d601f19601f82011682018060405250810190610c5b91906151e4565b610c775760405162461bcd60e51b815260040161055390615783565b6009805460ff19166001908117909155604051908152600080516020615ad583398151915290602001610581565b60095460ff1615610cc85760405162461bcd60e51b815260040161055390615840565b610cd68333848460006139fb565b6000546040516337c61fc560e11b8152620100009091046001600160a01b031690636f8c3f8a90610d0c906008906004016156b8565b60206040518083038186803b158015610d2457600080fd5b505afa158015610d38573d6000803e3d6000fd5b505050506040513d601f19601f82011682018060405250810190610d5c9190614d9a565b6001600160a01b0316631416110b8484846040518463ffffffff1660e01b8152600401610d8b93929190615915565b600060405180830381600087803b158015610da557600080fd5b505af1158015610db9573d6000803e3d6000fd5b50505050505050565b6009546060906000908190819060ff1615610def5760405162461bcd60e51b815260040161055390615840565b3360009081526001602052604090205460ff16610e1e5760405162461bcd60e51b8152600401610553906158c1565b6001600160a01b038a16610e445760405162461bcd60e51b81526004016105539061581b565b876001600160401b03811115610e6a57634e487b7160e01b600052604160045260246000fd5b604051908082528060200260200182016040528015610e93578160200160208202803683370190505b50935060005b88811015610f1c57610edf8a8a83818110610ec457634e487b7160e01b600052603260045260246000fd5b9050602002016020810190610ed99190614d7e565b8c611a88565b858281518110610eff57634e487b7160e01b600052603260045260246000fd5b602090810291909101015280610f1481615a27565b915050610e99565b50610f5e8a8a8a808060200260200160405190810160405280939291908181526020018383602002808284376000920191909152508992508a91506123349050565b600080546040516337c61fc560e11b81529295509091620100009091046001600160a01b031690636f8c3f8a90610f9a906005906004016156b8565b60206040518083038186803b158015610fb257600080fd5b505afa158015610fc6573d6000803e3d6000fd5b505050506040513d601f19601f82011682018060405250810190610fea9190614d9a565b6001600160a01b03166354ed0e598c6040518263ffffffff1660e01b81526004016110159190615522565b60206040518083038186803b15801561102d57600080fd5b505afa158015611041573d6000803e3d6000fd5b505050506040513d601f19601f820116820180604052508101906110659190615312565b1115611079576110768a8888613efd565b91505b600080546040516337c61fc560e11b8152620100009091046001600160a01b031690636f8c3f8a906110b0906003906004016156b8565b60206040518083038186803b1580156110c857600080fd5b505afa1580156110dc573d6000803e3d6000fd5b505050506040513d601f19601f820116820180604052508101906111009190614d9a565b6001600160a01b03166344fc9b566040518163ffffffff1660e01b815260040160206040518083038186803b15801561113857600080fd5b505afa15801561114c573d6000803e3d6000fd5b505050506040513d601f19601f820116820180604052508101906111709190614d9a565b6001600160a01b03161461129857600080546040516337c61fc560e11b8152620100009091046001600160a01b031690636f8c3f8a906111b49060049081016156b8565b60206040518083038186803b1580156111cc57600080fd5b505afa1580156111e0573d6000803e3d6000fd5b505050506040513d601f19601f820116820180604052508101906112049190614d9a565b90506001600160a01b03811615611296576040516384afeffd60e01b81526001600160a01b038216906384afeffd90611241908e90600401615522565b602060405180830381600087803b15801561125b57600080fd5b505af115801561126f573d6000803e3d6000fd5b505050506040513d601f19601f820116820180604052508101906112939190615312565b91505b505b9650965096509692505050565b600080546040516337c61fc560e11b8152620100009091046001600160a01b031691636f8c3f8a916112da91906004016156b8565b60206040518083038186803b1580156112f257600080fd5b505afa158015611306573d6000803e3d6000fd5b505050506040513d601f19601f8201168201806040525081019061132a9190614d9a565b6001600160a01b0316632f54bf6e336040518263ffffffff1660e01b81526004016113559190615522565b60206040518083038186803b15801561136d57600080fd5b505afa158015611381573d6000803e3d6000fd5b505050506040513d601f19601f820116820180604052508101906113a591906151e4565b6113c15760405162461bcd60e51b815260040161055390615783565b6001600160a01b03811660009081526001602081905260408220805460ff19169091179055805b600254811015611447576002818154811061141357634e487b7160e01b600052603260045260246000fd5b6000918252602090912001546001600160a01b038481169116141561143757600191505b61144081615a27565b90506113e8565b508061149957600280546001810182556000919091527f405787fa12a823e0f2b7631cc41b3ba8828b3321ca811111fa75cd3aa3bb5ace0180546001600160a01b0319166001600160a01b0384161790555b5050565b606080846001600160401b038111156114c657634e487b7160e01b600052604160045260246000fd5b60405190808252806020026020018201604052801561150c57816020015b6040805180820190915260008152606060208201528152602001906001900390816114e45790505b509150826001600160401b0381111561153557634e487b7160e01b600052604160045260246000fd5b60405190808252806020026020018201604052801561156e57816020015b61155b6149da565b8152602001906001900390816115535790505b50905060005b838110156116a45784848281811061159c57634e487b7160e01b600052603260045260246000fd5b90506020020160208101906115b19190614d7e565b8282815181106115d157634e487b7160e01b600052603260045260246000fd5b60209081029190910101516001600160a01b0390911690526005600086868481811061160d57634e487b7160e01b600052603260045260246000fd5b90506020020160208101906116229190614d7e565b6001600160a01b03166001600160a01b031681526020019081526020016000206000896001600160a01b03166001600160a01b031681526020019081526020016000205482828151811061168657634e487b7160e01b600052603260045260246000fd5b602090810291909101810151015261169d81615a27565b9050611574565b50600080546040516337c61fc560e11b8152620100009091046001600160a01b031690636f8c3f8a906116dc906008906004016156b8565b60206040518083038186803b1580156116f457600080fd5b505afa158015611708573d6000803e3d6000fd5b505050506040513d601f19601f8201168201806040525081019061172c9190614d9a565b905060005b86811015611a7c576000826001600160a01b031663cfc0cc348a8a8581811061176a57634e487b7160e01b600052603260045260246000fd5b905060200201356040518263ffffffff1660e01b815260040161178f91815260200190565b60006040518083038186803b1580156117a757600080fd5b505afa1580156117bb573d6000803e3d6000fd5b505050506040513d6000823e601f3d908101601f191682016040526117e39190810190615200565b60400151905080516001600160401b0381111561181057634e487b7160e01b600052604160045260246000fd5b60405190808252806020026020018201604052801561184957816020015b6118366149da565b81526020019060019003908161182e5790505b5085838151811061186a57634e487b7160e01b600052603260045260246000fd5b60200260200101516020018190525088888381811061189957634e487b7160e01b600052603260045260246000fd5b905060200201358583815181106118c057634e487b7160e01b600052603260045260246000fd5b60209081029190910101515260005b8151811015611a69578181815181106118f857634e487b7160e01b600052603260045260246000fd5b60200260200101516020015186848151811061192457634e487b7160e01b600052603260045260246000fd5b602002602001015160200151828151811061194f57634e487b7160e01b600052603260045260246000fd5b6020908102919091018101516001600160a01b039283169052908c166000908152600790915260408120908b8b8681811061199a57634e487b7160e01b600052603260045260246000fd5b90506020020135815260200190815260200160002060008383815181106119d157634e487b7160e01b600052603260045260246000fd5b6020026020010151602001516001600160a01b03166001600160a01b0316815260200190815260200160002054868481518110611a1e57634e487b7160e01b600052603260045260246000fd5b6020026020010151602001518281518110611a4957634e487b7160e01b600052603260045260246000fd5b602090810291909101810151015280611a6181615a27565b9150506118cf565b505080611a7590615a27565b9050611731565b50509550959350505050565b6001600160a01b038083166000818152600560209081526040808320948616835293815283822054600682528483209383529290529182205410611ace575060006103cf565b6001600160a01b0380831660008181526006602090815260408083209488168352938152838220546005825284832093835292905291909120546105ba91906159e4565b60095460ff1615611b355760405162461bcd60e51b815260040161055390615840565b61063a83338484614005565b3360009081526001602052604081205460ff16611b705760405162461bcd60e51b8152600401610553906158c1565b60095460ff1615611b935760405162461bcd60e51b815260040161055390615840565b6001600160a01b038416611bb95760405162461bcd60e51b81526004016105539061581b565b611bc4848484613efd565b949350505050565b3360009081526001602052604090205460ff16611bfb5760405162461bcd60e51b8152600401610553906158c1565b8015611cfb57611c0f8585858560006139fb565b6000546040516337c61fc560e11b8152620100009091046001600160a01b031690636f8c3f8a90611c45906008906004016156b8565b60206040518083038186803b158015611c5d57600080fd5b505afa158015611c71573d6000803e3d6000fd5b505050506040513d601f19601f82011682018060405250810190611c959190614d9a565b6001600160a01b0316631416110b8685856040518463ffffffff1660e01b8152600401611cc493929190615915565b600060405180830381600087803b158015611cde57600080fd5b505af1158015611cf2573d6000803e3d6000fd5b50505050610acf565b610acf85858585614005565b6001600160a01b0380831660008181526008602090815260408083209486168084529482528083205493835260058252808320948352939052918220548291611d4f916159cc565b6001600160a01b038085166000908152600660209081526040808320938916835292905220549091508111611d885760009150506103cf565b6001600160a01b03808416600090815260066020908152604080832093881683529290522054611bc490826159e4565b60028181548110611dc857600080fd5b6000918252602090912001546001600160a01b0316905081565b3360009081526001602052604090205460ff16611e115760405162461bcd60e51b8152600401610553906158c1565b6001600160a01b038416611e375760405162461bcd60e51b81526004016105539061581b565b848214611ea65760405162461bcd60e51b81526020600482015260436024820152600080516020615a9583398151915260448201527f6c616e6365733a20617272617973206d75737420626520657175616c206c656e6064820152620cee8d60eb1b608482015260a401610553565b60005b85811015610db957600060056000898985818110611ed757634e487b7160e01b600052603260045260246000fd5b9050602002016020810190611eec9190614d7e565b6001600160a01b03908116825260208083019390935260409182016000908120918a16815292529020549050848483818110611f3857634e487b7160e01b600052603260045260246000fd5b9050602002013560001415611fd75760405162461bcd60e51b81526020600482015260656024820152600080516020615a9583398151915260448201527f6c616e6365733a204d7573742068617665206120706f736974697665206f722060648201527f6e65676174697665206e756d62657220746f206368616e6765207468652062616084820152646c616e636560d81b60a482015260c401610553565b6000838381518110611ff957634e487b7160e01b600052603260045260246000fd5b60200260200101511561203f5785858481811061202657634e487b7160e01b600052603260045260246000fd5b905060200201358261203891906159cc565b9050612132565b8186868581811061206057634e487b7160e01b600052603260045260246000fd5b9050602002013511156120fd5760405162461bcd60e51b81526020600482015260656024820152600080516020615a9583398151915260448201527f6c616e6365733a20416d6f756e7420746f207265647563652062616c616e636560648201527f206d757374206265206e6f206d6f7265207468616e2063757272656e742062616084820152646c616e636560d81b60a482015260c401610553565b85858481811061211d57634e487b7160e01b600052603260045260246000fd5b905060200201358261212f91906159e4565b90505b80600560008b8b8781811061215757634e487b7160e01b600052603260045260246000fd5b905060200201602081019061216c9190614d7e565b6001600160a01b03908116825260208083019390935260409182016000908120918c1681529252902055506121a2905081615a27565b9050611ea9565b600054610100900460ff166121c45760005460ff16156121c8565b303b155b6121e45760405162461bcd60e51b8152600401610553906157cd565b600054610100900460ff16158015612206576000805461ffff19166101011790555b6001600160a01b03821661222c5760405162461bcd60e51b81526004016105539061581b565b60005b83518110156122a25760006001600160a01b031684828151811061226357634e487b7160e01b600052603260045260246000fd5b60200260200101516001600160a01b031614156122925760405162461bcd60e51b81526004016105539061581b565b61229b81615a27565b905061222f565b5060005b83518110156123165760018060008684815181106122d457634e487b7160e01b600052603260045260246000fd5b6020908102919091018101516001600160a01b03168252810191909152604001600020805460ff191691151591909117905561230f81615a27565b90506122a6565b50825161232a9060029060208601906149f1565b5061062882614566565b600080546040516337c61fc560e11b815282916201000090046001600160a01b031690636f8c3f8a9061236c906003906004016156b8565b60206040518083038186803b15801561238457600080fd5b505afa158015612398573d6000803e3d6000fd5b505050506040513d601f19601f820116820180604052508101906123bc9190614d9a565b90506000816001600160a01b0316638b9c94896040518163ffffffff1660e01b815260040160206040518083038186803b1580156123f957600080fd5b505afa15801561240d573d6000803e3d6000fd5b505050506040513d601f19601f820116820180604052508101906124319190614d9a565b90506000826001600160a01b03166344fc9b566040518163ffffffff1660e01b815260040160206040518083038186803b15801561246e57600080fd5b505afa158015612482573d6000803e3d6000fd5b505050506040513d601f19601f820116820180604052508101906124a69190614d9a565b905060009350855187511461253d5760405162461bcd60e51b815260206004820152605160248201527f55736572506f736974696f6e733a3a5f77697468647261773a20546f6b656e7360448201527f206172726179206c656e67746820646f6573206e6f74206d6174636820616d6f6064820152700eadce8e640c2e4e4c2f240d8cadccee8d607b1b608482015260a401610553565b60005b87518110156131185786818151811061256957634e487b7160e01b600052603260045260246000fd5b60200260200101516000141561257e57613106565b836001600160a01b0316630b3972cb8983815181106125ad57634e487b7160e01b600052603260045260246000fd5b60200260200101516040518263ffffffff1660e01b81526004016125d19190615522565b60206040518083038186803b1580156125e957600080fd5b505afa1580156125fd573d6000803e3d6000fd5b505050506040513d601f19601f8201168201806040525081019061262191906151e4565b61269d5760405162461bcd60e51b815260206004820152604160248201527f55736572506f736974696f6e733a3a5f77697468647261773a2054686973207460448201527f6f6b656e206973206e6f7420616363657074696e67207769746864726177616c6064820152607360f81b608482015260a401610553565b6126ce8882815181106126c057634e487b7160e01b600052603260045260246000fd5b60200260200101518a611a88565b8782815181106126ee57634e487b7160e01b600052603260045260246000fd5b6020026020010151111561276a5760405162461bcd60e51b815260206004820152603e60248201527f55736572506f736974696f6e733a3a5f77697468647261773a2057697468647260448201527f617720616d6f756e74206578636565647320757365722062616c616e636500006064820152608401610553565b600088828151811061278c57634e487b7160e01b600052603260045260246000fd5b60200260200101516001600160a01b03166370a08231600060029054906101000a90046001600160a01b03166001600160a01b0316636f8c3f8a60006040518263ffffffff1660e01b81526004016127e491906156b8565b60206040518083038186803b1580156127fc57600080fd5b505afa158015612810573d6000803e3d6000fd5b505050506040513d601f19601f820116820180604052508101906128349190614d9a565b6040518263ffffffff1660e01b81526004016128509190615522565b60206040518083038186803b15801561286857600080fd5b505afa15801561287c573d6000803e3d6000fd5b505050506040513d601f19601f820116820180604052508101906128a09190615312565b90508782815181106128c257634e487b7160e01b600052603260045260246000fd5b6020026020010151811015612a19576000546040516337c61fc560e11b8152620100009091046001600160a01b031690636f8c3f8a90612907906008906004016156b8565b60206040518083038186803b15801561291f57600080fd5b505afa158015612933573d6000803e3d6000fd5b505050506040513d601f19601f820116820180604052508101906129579190614d9a565b6001600160a01b0316635560066a8a848151811061298557634e487b7160e01b600052603260045260246000fd5b60200260200101518a85815181106129ad57634e487b7160e01b600052603260045260246000fd5b60200260200101516040518363ffffffff1660e01b81526004016129e69291906001600160a01b03929092168252602082015260400190565b600060405180830381600087803b158015612a0057600080fd5b505af1158015612a14573d6000803e3d6000fd5b505050505b6000846001600160a01b03168a8481518110612a4557634e487b7160e01b600052603260045260246000fd5b60200260200101516001600160a01b0316148015612a605750875b15612abe57888381518110612a8557634e487b7160e01b600052603260045260246000fd5b60200260200101519650888381518110612aaf57634e487b7160e01b600052603260045260246000fd5b60200260200101519050612d26565b60008a8481518110612ae057634e487b7160e01b600052603260045260246000fd5b60200260200101516001600160a01b03166370a08231600060029054906101000a90046001600160a01b03166001600160a01b0316636f8c3f8a60006040518263ffffffff1660e01b8152600401612b3891906156b8565b60206040518083038186803b158015612b5057600080fd5b505afa158015612b64573d6000803e3d6000fd5b505050506040513d601f19601f82011682018060405250810190612b889190614d9a565b6040518263ffffffff1660e01b8152600401612ba49190615522565b60206040518083038186803b158015612bbc57600080fd5b505afa158015612bd0573d6000803e3d6000fd5b505050506040513d601f19601f82011682018060405250810190612bf49190615312565b9050898481518110612c1657634e487b7160e01b600052603260045260246000fd5b6020026020010151811015612c2d57809150612c58565b898481518110612c4d57634e487b7160e01b600052603260045260246000fd5b602002602001015191505b600080546040516337c61fc560e11b8152612d2492620100009092046001600160a01b031691636f8c3f8a91612c9191906004016156b8565b60206040518083038186803b158015612ca957600080fd5b505afa158015612cbd573d6000803e3d6000fd5b505050506040513d601f19601f82011682018060405250810190612ce19190614d9a565b8d848e8881518110612d0357634e487b7160e01b600052603260045260246000fd5b60200260200101516001600160a01b03166145fa909392919063ffffffff16565b505b600080546040516337c61fc560e11b8152620100009091046001600160a01b031690636f8c3f8a90612d5c9060049081016156b8565b60206040518083038186803b158015612d7457600080fd5b505afa158015612d88573d6000803e3d6000fd5b505050506040513d601f19601f82011682018060405250810190612dac9190614d9a565b90506001600160a01b03811615612e4757806001600160a01b0316631f126bd08c8681518110612dec57634e487b7160e01b600052603260045260246000fd5b60200260200101518e856040518463ffffffff1660e01b8152600401612e1493929190615536565b600060405180830381600087803b158015612e2e57600080fd5b505af1158015612e42573d6000803e3d6000fd5b505050505b846001600160a01b03168b8581518110612e7157634e487b7160e01b600052603260045260246000fd5b60200260200101516001600160a01b03161415612f71576000546040516337c61fc560e11b8152620100009091046001600160a01b031690636f8c3f8a90612ebe906005906004016156b8565b60206040518083038186803b158015612ed657600080fd5b505afa158015612eea573d6000803e3d6000fd5b505050506040513d601f19601f82011682018060405250810190612f0e9190614d9a565b6001600160a01b031663a22aecd16000848f6040518463ffffffff1660e01b8152600401612f3e939291906156e0565b600060405180830381600087803b158015612f5857600080fd5b505af1158015612f6c573d6000803e3d6000fd5b505050505b600460008c8681518110612f9557634e487b7160e01b600052603260045260246000fd5b60200260200101516001600160a01b03166001600160a01b031681526020019081526020016000205482111561301c576000600460008d8781518110612feb57634e487b7160e01b600052603260045260246000fd5b60200260200101516001600160a01b03166001600160a01b031681526020019081526020016000208190555061307e565b81600460008d878151811061304157634e487b7160e01b600052603260045260246000fd5b60200260200101516001600160a01b03166001600160a01b03168152602001908152602001600020600082825461307891906159e4565b90915550505b81600560008d87815181106130a357634e487b7160e01b600052603260045260246000fd5b60200260200101516001600160a01b03166001600160a01b0316815260200190815260200160002060008e6001600160a01b03166001600160a01b0316815260200190815260200160002060008282546130fd91906159e4565b90915550505050505b8061311081615a27565b915050612540565b50505050949350505050565b600080546040516337c61fc560e11b8152620100009091046001600160a01b031690636f8c3f8a9061315b906003906004016156b8565b60206040518083038186803b15801561317357600080fd5b505afa158015613187573d6000803e3d6000fd5b505050506040513d601f19601f820116820180604052508101906131ab9190614d9a565b90506000816001600160a01b03166344fc9b566040518163ffffffff1660e01b815260040160206040518083038186803b1580156131e857600080fd5b505afa1580156131fc573d6000803e3d6000fd5b505050506040513d601f19601f820116820180604052508101906132209190614d9a565b905060006001600160a01b0382166132395760006132be565b6000546040516337c61fc560e11b8152620100009091046001600160a01b031690636f8c3f8a9061326e9060049081016156b8565b60206040518083038186803b15801561328657600080fd5b505afa15801561329a573d6000803e3d6000fd5b505050506040513d601f19601f820116820180604052508101906132be9190614d9a565b9050600087516001600160401b038111156132e957634e487b7160e01b600052604160045260246000fd5b604051908082528060200260200182016040528015613312578160200160208202803683370190505b50905060005b885181101561385257846001600160a01b03166358fcf37a8a838151811061335057634e487b7160e01b600052603260045260246000fd5b60200260200101516040518263ffffffff1660e01b81526004016133749190615522565b60206040518083038186803b15801561338c57600080fd5b505afa1580156133a0573d6000803e3d6000fd5b505050506040513d601f19601f820116820180604052508101906133c491906151e4565b6134355760405162461bcd60e51b815260206004820152603c60248201527f55736572506f736974696f6e733a3a6465706f7369743a205468697320746f6b60448201527b656e206973206e6f7420616363657074696e67206465706f7369747360201b6064820152608401610553565b600088828151811061345757634e487b7160e01b600052603260045260246000fd5b6020026020010151116134d4576040805162461bcd60e51b81526020600482015260248101919091527f55736572506f736974696f6e733a3a6465706f7369743a204465706f7369742060448201527f616d6f756e74206d7573742062652067726561746572207468616e207a65726f6064820152608401610553565b6000861561350b578882815181106134fc57634e487b7160e01b600052603260045260246000fd5b60200260200101519050613729565b6135648b8b848151811061352f57634e487b7160e01b600052603260045260246000fd5b60200260200101518b858151811061355757634e487b7160e01b600052603260045260246000fd5b6020026020010151614658565b90506001600160a01b038416156135ff57836001600160a01b0316637b65fb1c8b84815181106135a457634e487b7160e01b600052603260045260246000fd5b60200260200101518d846040518463ffffffff1660e01b81526004016135cc93929190615536565b600060405180830381600087803b1580156135e657600080fd5b505af11580156135fa573d6000803e3d6000fd5b505050505b846001600160a01b03168a838151811061362957634e487b7160e01b600052603260045260246000fd5b60200260200101516001600160a01b03161415613729576000546040516337c61fc560e11b8152620100009091046001600160a01b031690636f8c3f8a90613676906005906004016156b8565b60206040518083038186803b15801561368e57600080fd5b505afa1580156136a2573d6000803e3d6000fd5b505050506040513d601f19601f820116820180604052508101906136c69190614d9a565b6001600160a01b03166313cf6b006000838e6040518463ffffffff1660e01b81526004016136f6939291906156e0565b600060405180830381600087803b15801561371057600080fd5b505af1158015613724573d6000803e3d6000fd5b505050505b8083838151811061374a57634e487b7160e01b600052603260045260246000fd5b60200260200101818152505080600460008c858151811061377b57634e487b7160e01b600052603260045260246000fd5b60200260200101516001600160a01b03166001600160a01b0316815260200190815260200160002060008282546137b291906159cc565b9250508190555080600560008c85815181106137de57634e487b7160e01b600052603260045260246000fd5b60200260200101516001600160a01b03166001600160a01b0316815260200190815260200160002060008d6001600160a01b03166001600160a01b03168152602001908152602001600020600082825461383891906159cc565b9091555082915061384a905081615a27565b915050613318565b5085156139ab576000846001600160a01b0316638b9c94896040518163ffffffff1660e01b815260040160206040518083038186803b15801561389457600080fd5b505afa1580156138a8573d6000803e3d6000fd5b505050506040513d601f19601f820116820180604052508101906138cc9190614d9a565b90506001600160a01b0383161561394057604051631ed97ec760e21b81526001600160a01b03841690637b65fb1c9061390d9084908e908c90600401615536565b600060405180830381600087803b15801561392757600080fd5b505af115801561393b573d6000803e3d6000fd5b505050505b6001600160a01b038116600090815260046020526040812080548992906139689084906159cc565b90915550506001600160a01b038082166000908152600560209081526040808320938e16835292905290812080548992906139a49084906159cc565b9091555050505b886001600160a01b03167f8a0e0d2e597a2c18e7266d384fcd37c696485c4f2d04f8f90cebe3cf9453a15b8983896040516139e8939291906155b8565b60405180910390a2505050505050505050565b81613a185760405162461bcd60e51b815260040161055390615732565b60005b82811015613da0576000848483818110613a4557634e487b7160e01b600052603260045260246000fd5b613a5b9260206040909202019081019150614d7e565b6001600160a01b03161415613a825760405162461bcd60e51b81526004016105539061586e565b6000848483818110613aa457634e487b7160e01b600052603260045260246000fd5b9050604002016020013511613acb5760405162461bcd60e51b81526004016105539061575b565b81613b5c57838382818110613af057634e487b7160e01b600052603260045260246000fd5b90506040020160200135613b39858584818110613b1d57634e487b7160e01b600052603260045260246000fd5b613b339260206040909202019081019150614d7e565b87611d07565b1015613b575760405162461bcd60e51b815260040161055390615895565b613c18565b838382818110613b7c57634e487b7160e01b600052603260045260246000fd5b9050604002016020013560056000868685818110613baa57634e487b7160e01b600052603260045260246000fd5b613bc09260206040909202019081019150614d7e565b6001600160a01b03166001600160a01b031681526020019081526020016000206000876001600160a01b03166001600160a01b031681526020019081526020016000206000828254613c1291906159cc565b90915550505b838382818110613c3857634e487b7160e01b600052603260045260246000fd5b6001600160a01b03881660009081526007602090815260408083208c845282528083209302949094019093013592909150868685818110613c8957634e487b7160e01b600052603260045260246000fd5b613c9f9260206040909202019081019150614d7e565b6001600160a01b03166001600160a01b031681526020019081526020016000206000828254613cce91906159cc565b909155508490508382818110613cf457634e487b7160e01b600052603260045260246000fd5b9050604002016020013560066000876001600160a01b03166001600160a01b031681526020019081526020016000206000868685818110613d4557634e487b7160e01b600052603260045260246000fd5b613d5b9260206040909202019081019150614d7e565b6001600160a01b03166001600160a01b031681526020019081526020016000206000828254613d8a91906159cc565b90915550613d99905081615a27565b9050613a1b565b506000546040516337c61fc560e11b8152620100009091046001600160a01b031690636f8c3f8a90613dd7906005906004016156b8565b60206040518083038186803b158015613def57600080fd5b505afa158015613e03573d6000803e3d6000fd5b505050506040513d601f19601f82011682018060405250810190613e279190614d9a565b6001600160a01b03166313cf6b008685856000818110613e5757634e487b7160e01b600052603260045260246000fd5b90506040020160200135336040518463ffffffff1660e01b8152600401613e80939291906156e0565b600060405180830381600087803b158015613e9a57600080fd5b505af1158015613eae573d6000803e3d6000fd5b50505050836001600160a01b0316857f334bb5f87e7c3a4187387befedac3205b6e6516e347d3a9142aae21a2ef122148585604051613eee929190615675565b60405180910390a35050505050565b600080546040516337c61fc560e11b8152620100009091046001600160a01b031690636f8c3f8a90613f34906005906004016156b8565b60206040518083038186803b158015613f4c57600080fd5b505afa158015613f60573d6000803e3d6000fd5b505050506040513d601f19601f82011682018060405250810190613f849190614d9a565b6001600160a01b031663c3b2a7f48585856040518463ffffffff1660e01b8152600401613fb39392919061555a565b602060405180830381600087803b158015613fcd57600080fd5b505af1158015613fe1573d6000803e3d6000fd5b505050506040513d601f19601f82011682018060405250810190611bc49190615312565b806140225760405162461bcd60e51b815260040161055390615732565b60005b8181101561432357600083838381811061404f57634e487b7160e01b600052603260045260246000fd5b6140659260206040909202019081019150614d7e565b6001600160a01b0316141561408c5760405162461bcd60e51b81526004016105539061586e565b60008383838181106140ae57634e487b7160e01b600052603260045260246000fd5b90506040020160200135116140d55760405162461bcd60e51b81526004016105539061575b565b8282828181106140f557634e487b7160e01b600052603260045260246000fd5b6001600160a01b03871660009081526007602090815260408083208b84528252808320930294909401909301359290915085858581811061414657634e487b7160e01b600052603260045260246000fd5b61415c9260206040909202019081019150614d7e565b6001600160a01b03166001600160a01b0316815260200190815260200160002054101561419b5760405162461bcd60e51b815260040161055390615895565b8282828181106141bb57634e487b7160e01b600052603260045260246000fd5b9050604002016020013560066000866001600160a01b03166001600160a01b03168152602001908152602001600020600085858581811061420c57634e487b7160e01b600052603260045260246000fd5b6142229260206040909202019081019150614d7e565b6001600160a01b03166001600160a01b03168152602001908152602001600020600082825461425191906159e4565b90915550839050828281811061427757634e487b7160e01b600052603260045260246000fd5b6001600160a01b03871660009081526007602090815260408083208b8452825280832093029490940190930135929091508585858181106142c857634e487b7160e01b600052603260045260246000fd5b6142de9260206040909202019081019150614d7e565b6001600160a01b03166001600160a01b03168152602001908152602001600020600082825461430d91906159e4565b9091555061431c905081615a27565b9050614025565b506000546040516337c61fc560e11b8152620100009091046001600160a01b031690636f8c3f8a9061435a906005906004016156b8565b60206040518083038186803b15801561437257600080fd5b505afa158015614386573d6000803e3d6000fd5b505050506040513d601f19601f820116820180604052508101906143aa9190614d9a565b6001600160a01b031663a22aecd185848460008181106143da57634e487b7160e01b600052603260045260246000fd5b90506040020160200135336040518463ffffffff1660e01b8152600401614403939291906156e0565b600060405180830381600087803b15801561441d57600080fd5b505af1158015614431573d6000803e3d6000fd5b50505050826001600160a01b0316847f3ad24ebe8503084720eb1ca09347e684215bd91ce405e748489d5d75515441718484604051614471929190615675565b60405180910390a36000546040516337c61fc560e11b8152620100009091046001600160a01b031690636f8c3f8a906144af906008906004016156b8565b60206040518083038186803b1580156144c757600080fd5b505afa1580156144db573d6000803e3d6000fd5b505050506040513d601f19601f820116820180604052508101906144ff9190614d9a565b6001600160a01b031663d4a4a0438584846040518463ffffffff1660e01b815260040161452e93929190615915565b600060405180830381600087803b15801561454857600080fd5b505af115801561455c573d6000803e3d6000fd5b5050505050505050565b600054610100900460ff166145815760005460ff1615614585565b303b155b6145a15760405162461bcd60e51b8152600401610553906157cd565b600054610100900460ff161580156145c3576000805461ffff19166101011790555b6000805462010000600160b01b031916620100006001600160a01b038516021790558015611499576000805461ff00191690555050565b614652846323b872dd60e01b85858560405160240161461b93929190615536565b60408051601f198184030181529190526020810180516001600160e01b03166001600160e01b03199093169290921790915261480d565b50505050565b600080546040516337c61fc560e11b815282916201000090046001600160a01b031690636f8c3f8a9061468f9084906004016156b8565b60206040518083038186803b1580156146a757600080fd5b505afa1580156146bb573d6000803e3d6000fd5b505050506040513d601f19601f820116820180604052508101906146df9190614d9a565b6040516370a0823160e01b815290915084906000906001600160a01b038316906370a0823190614713908690600401615522565b60206040518083038186803b15801561472b57600080fd5b505afa15801561473f573d6000803e3d6000fd5b505050506040513d601f19601f820116820180604052508101906147639190615312565b905061477a6001600160a01b0383168885886145fa565b6040516370a0823160e01b815281906001600160a01b038416906370a08231906147a8908790600401615522565b60206040518083038186803b1580156147c057600080fd5b505afa1580156147d4573d6000803e3d6000fd5b505050506040513d601f19601f820116820180604052508101906147f89190615312565b61480291906159e4565b979650505050505050565b6000614862826040518060400160405280602081526020017f5361666545524332303a206c6f772d6c6576656c2063616c6c206661696c6564815250856001600160a01b03166148df9092919063ffffffff16565b80519091501561063a578080602001905181019061488091906151e4565b61063a5760405162461bcd60e51b815260206004820152602a60248201527f5361666545524332303a204552433230206f7065726174696f6e20646964206e6044820152691bdd081cdd58d8d9595960b21b6064820152608401610553565b6060611bc4848460008585843b6149385760405162461bcd60e51b815260206004820152601d60248201527f416464726573733a2063616c6c20746f206e6f6e2d636f6e74726163740000006044820152606401610553565b600080866001600160a01b031685876040516149549190615506565b60006040518083038185875af1925050503d8060008114614991576040519150601f19603f3d011682016040523d82523d6000602084013e614996565b606091505b5091509150614802828286606083156149b05750816105ba565b8251156149c05782518084602001fd5b8160405162461bcd60e51b815260040161055391906156ff565b604080518082019091526000808252602082015290565b828054828255906000526020600020908101928215614a46579160200282015b82811115614a4657825182546001600160a01b0319166001600160a01b03909116178255602090920191600190910190614a11565b50614a52929150614a56565b5090565b5b80821115614a525760008155600101614a57565b60008083601f840112614a7c578182fd5b5081356001600160401b03811115614a92578182fd5b6020830191508360208260051b8501011115614aad57600080fd5b9250929050565b600082601f830112614ac4578081fd5b81356020614ad9614ad4836159a9565b615979565b80838252828201915082860187848660051b8901011115614af8578586fd5b855b85811015614b1f578135614b0d81615a6e565b84529284019290840190600101614afa565b5090979650505050505050565b600082601f830112614b3c578081fd5b81356020614b4c614ad4836159a9565b80838252828201915082860187848660051b8901011115614b6b578586fd5b855b85811015614b1f578135614b8081615a86565b84529284019290840190600101614b6d565b600082601f830112614ba2578081fd5b81516020614bb2614ad4836159a9565b80838252828201915082860187848660061b8901011115614bd1578586fd5b855b85811015614b1f57604080838b031215614beb578788fd5b614bf361592f565b8351614bfe81615a6e565b8152614c0b848801614d65565b818801528552938501939190910190600101614bd3565b60008083601f840112614c33578182fd5b5081356001600160401b03811115614c49578182fd5b6020830191508360208260061b8501011115614aad57600080fd5b600082601f830112614c74578081fd5b81516020614c84614ad4836159a9565b82815281810190858301606080860288018501891015614ca2578687fd5b865b86811015614cfa5781838b031215614cba578788fd5b614cc2615957565b8351815286840151614cd381615a6e565b818801526040614ce4858201614d65565b9082015285529385019391810191600101614ca4565b509198975050505050505050565b600082601f830112614d18578081fd5b81356020614d28614ad4836159a9565b80838252828201915082860187848660051b8901011115614d47578586fd5b855b85811015614b1f57813584529284019290840190600101614d49565b805163ffffffff81168114614d7957600080fd5b919050565b600060208284031215614d8f578081fd5b81356105ba81615a6e565b600060208284031215614dab578081fd5b81516105ba81615a6e565b60008060408385031215614dc8578081fd5b8235614dd381615a6e565b91506020830135614de381615a6e565b809150509250929050565b60008060008060008060808789031215614e06578182fd5b8635614e1181615a6e565b955060208701356001600160401b0380821115614e2c578384fd5b614e388a838b01614a6b565b90975095506040890135915080821115614e50578384fd5b50614e5d89828a01614a6b565b9094509250506060870135614e7181615a86565b809150509295509295509295565b60008060008060808587031215614e94578182fd5b8435614e9f81615a6e565b935060208501356001600160401b0380821115614eba578384fd5b614ec688838901614ab4565b94506040870135915080821115614edb578384fd5b50614ee887828801614d08565b9250506060850135614ef981615a86565b939692955090935050565b600080600080600060a08688031215614f1b578283fd5b8535614f2681615a6e565b945060208601356001600160401b0380821115614f41578485fd5b614f4d89838a01614ab4565b95506040880135915080821115614f62578485fd5b50614f6f88828901614d08565b935050606086013591506080860135614f8781615a86565b809150509295509295909350565b600080600060408486031215614fa9578081fd5b8335614fb481615a6e565b925060208401356001600160401b03811115614fce578182fd5b614fda86828701614a6b565b9497909650939450505050565b600080600080600060608688031215614ffe578283fd5b853561500981615a6e565b945060208601356001600160401b0380821115615024578485fd5b61503089838a01614a6b565b90965094506040880135915080821115615048578283fd5b5061505588828901614a6b565b969995985093965092949392505050565b6000806000806000806080878903121561507e578384fd5b86356001600160401b0380821115615094578586fd5b6150a08a838b01614a6b565b9098509650602089013591506150b582615a6e565b909450604088013590808211156150ca578384fd5b6150d68a838b01614a6b565b909550935060608901359150808211156150ee578283fd5b506150fb89828a01614b2c565b9150509295509295509295565b6000806040838503121561511a578182fd5b82356001600160401b0381111561512f578283fd5b61513b85828601614ab4565b9250506020830135614de381615a6e565b60008060008060808587031215615161578182fd5b84356001600160401b0380821115615177578384fd5b61518388838901614ab4565b95506020870135915061519582615a6e565b909350604086013590808211156151aa578384fd5b6151b688838901614d08565b935060608701359150808211156151cb578283fd5b506151d887828801614b2c565b91505092959194509250565b6000602082840312156151f5578081fd5b81516105ba81615a86565b60006020808385031215615212578182fd5b82516001600160401b0380821115615228578384fd5b908401906060828703121561523b578384fd5b615243615957565b825182811115615251578586fd5b8301601f81018813615261578586fd5b80518381111561527357615273615a58565b615285601f8201601f19168701615979565b8181528987838501011115615298578788fd5b6152a7828883018986016159fb565b8352505082840151828111156152bb578586fd5b6152c788828601614b92565b858301525060408301519350818411156152df578485fd5b6152eb87858501614c64565b60408201529695505050505050565b60006020828403121561530b578081fd5b5035919050565b600060208284031215615323578081fd5b5051919050565b60008060006060848603121561533e578081fd5b83359250602084013561535081615a6e565b9150604084013561536081615a6e565b809150509250925092565b600080600080600060808688031215615382578283fd5b85359450602086013561539481615a6e565b935060408601356001600160401b038111156153ae578384fd5b6153ba88828901614c22565b9094509250506060860135614f8781615a86565b6000806000604084860312156153e2578081fd5b8335925060208401356001600160401b038111156153fe578182fd5b614fda86828701614c22565b6000815180845260208085019450808401835b838110156154425781516001600160a01b03168752958201959082019060010161541d565b509495945050505050565b6000815180845260208085019450808401835b8381101561544257815180516001600160a01b031688528301518388015260409096019590820190600101615460565b81835260006020808501945082825b858110156154425781356154b281615a6e565b6001600160a01b0316875281830135838801526040968701969091019060010161549f565b6000815180845260208085019450808401835b83811015615442578151875295820195908201906001016154ea565b600082516155188184602087016159fb565b9190910192915050565b6001600160a01b0391909116815260200190565b6001600160a01b039384168152919092166020820152604081019190915260600190565b6001600160a01b0384168152604060208201819052810182905260006001600160fb1b03831115615589578081fd5b8260051b80856060850137919091016060019081529392505050565b6020815260006105ba602083018461540a565b6060815260006155cb606083018661540a565b82810360208401526155dd81866154d7565b915050826040830152949350505050565b6000604080830181845280865180835260608601915060608160051b87010192506020808901865b8381101561565557888603605f190185528151805187528301518387018890526156428888018261544d565b9650509382019390820190600101615616565b50508684038188015250505061566b818661544d565b9695505050505050565b602081526000611bc4602083018486615490565b60808152600061569c60808301876154d7565b6020830195909552506040810192909252606090910152919050565b60208101600d83106156da57634e487b7160e01b600052602160045260246000fd5b91905290565b92835260208301919091526001600160a01b0316604082015260600190565b602081526000825180602084015261571e8160408501602087016159fb565b601f01601f19169190910160400192915050565b6020808252600f908201526e1d1bdad95b9cc81c995c5d5a5c9959608a1b604082015260600190565b6020808252600e908201526d1a5b9d985b1a5908185b5bdd5b9d60921b604082015260600190565b6020808252602a908201527f436f6e74726f6c6c65643a3a6f6e6c794f776e65723a2043616c6c6572206973604082015269103737ba1037bbb732b960b11b606082015260800190565b6020808252602e908201527f496e697469616c697a61626c653a20636f6e747261637420697320616c72656160408201526d191e481a5b9a5d1a585b1a5e995960921b606082015260800190565b6020808252600b908201526a626164206164647265737360a81b604082015260600190565b60208082526014908201527318dbdb9d1c9858dd1cc8185c99481c185d5cd95960621b604082015260600190565b6020808252600d908201526c34b73b30b634b2103a37b5b2b760991b604082015260600190565b602080825260129082015271696e73756666696369656e742066756e647360701b604082015260600190565b60208082526034908201527f436f6e74726f6c6c65643a3a6f6e6c79436f6e74726f6c6c65723a2043616c6c60408201527332b91034b9903737ba1031b7b73a3937b63632b960611b606082015260800190565b8381526040602082015260006106c6604083018486615490565b604080519081016001600160401b038111828210171561595157615951615a58565b60405290565b604051606081016001600160401b038111828210171561595157615951615a58565b604051601f8201601f191681016001600160401b03811182821017156159a1576159a1615a58565b604052919050565b60006001600160401b038211156159c2576159c2615a58565b5060051b60200190565b600082198211156159df576159df615a42565b500190565b6000828210156159f6576159f6615a42565b500390565b60005b83811015615a165781810151838201526020016159fe565b838111156146525750506000910152565b6000600019821415615a3b57615a3b615a42565b5060010190565b634e487b7160e01b600052601160045260246000fd5b634e487b7160e01b600052604160045260246000fd5b6001600160a01b0381168114615a8357600080fd5b50565b8015158114615a8357600080fdfe55736572506f736974696f6e733a3a75706461746555736572546f6b656e426155736572506f736974696f6e733a3a75706461746555736572496e746572636f9422424b175dda897495a07b091ef74a3ef715cf6d866fc972954c1c7f459304a2646970667358221220ad3a23b6841533e034791d33a0cb1bb38f5925db50e2a833b0815d3834abe78a64736f6c63430008040033",
  "devdoc": {
    "kind": "dev",
    "methods": {
      "claimEthRewards(address,uint256[])": {
        "params": {
          "recipient": "The address of the user claiming ETH rewards",
          "strategies": "An array of strategyIDs to claim rewards for"
        }
      },
      "deposit(address,address[],uint256[],uint256,bool)": {
        "params": {
          "amounts": "Array of token amounts",
          "depositor": "Address of the account depositing",
          "ethAmount": "The amount of ETH sent with the deposit",
          "tokens": "Array of token the token addresses"
        }
      },
      "enterStrategy(uint256,(address,uint256)[])": {
        "params": {
          "strategyID": "The strategy to enter",
          "tokens": "The tokens and amounts to enter into the strategy"
        }
      },
      "exitStrategy(uint256,(address,uint256)[])": {
        "params": {
          "strategyID": "The strategy to withdrawfrom",
          "tokens": "The tokens and amounts to withdraw"
        }
      },
      "getUserBalances(address,uint256[],address[])": {
        "params": {
          "_strategies": "the strategies to get balances for",
          "_tokens": "the tokens to get balances for",
          "user": "the user to request for"
        },
        "returns": {
          "strategyBalance": " The user's invested funds in the strategies",
          "userBalance": " User total token balances"
        }
      },
      "getUserInvestedAmountByToken(address,address)": {
        "params": {
          "token": "the token address",
          "user": "the user holding the funds"
        },
        "returns": {
          "amount": " the amount of tokens the user has invested across all strategies"
        }
      },
      "getUserStrategyBalanceByToken(uint256,address,address)": {
        "params": {
          "id": "the strategy id",
          "token": "the token address",
          "user": "the user who holds the funds"
        },
        "returns": {
          "amount": " the amount of token that the user has invested in the strategy "
        }
      },
      "initialize(address[],address)": {
        "params": {
          "controllers_": "The addresses of the controlling contracts",
          "moduleMap_": "Address of the Module Map"
        }
      },
      "totalTokenBalance(address)": {
        "params": {
          "asset": "Address of the ERC20 token contract"
        },
        "returns": {
          "_0": "The total balance of the asset deposited in the system"
        }
      },
      "updateUserInterconnectBalances(address[],address,uint256[],bool[])": {
        "params": {
          "account": "user ",
          "amounts": "list of amounts to update ",
          "assets": "list of tokens to update"
        }
      },
      "updateUserTokenBalances(address[],address,uint256[],bool[])": {
        "params": {
          "account": "user ",
          "amounts": "list of amounts to update ",
          "assets": "list of tokens to update"
        }
      },
      "userDeployableBalance(address,address)": {
        "params": {
          "account": "Address of the user account",
          "asset": "Address of the ERC20 token contract"
        }
      },
      "userInterconnectBalance(address,address)": {
        "params": {
          "account": "Address of the user account",
          "asset": "Address of the ERC20 token contract"
        }
      },
      "userTokenBalance(address,address)": {
        "params": {
          "account": "Address of the user account",
          "asset": "Address of the ERC20 token contract"
        }
      },
      "withdraw(address,address[],uint256[],bool)": {
        "params": {
          "amounts": "Array of token amounts",
          "recipient": "The address of the user withdrawing",
          "tokens": "Array of token the token addresses",
          "withdrawWethAsEth": "Boolean indicating whether should receive WETH balance as ETH"
        }
      },
      "withdrawAllAndClaim(address,address[],uint256[],bool)": {
        "params": {
          "recipient": "The address of the user withdrawing tokens",
          "strategies": "Array of strategy IDs that user is claiming rewards from",
          "tokens": "Array of token address that user is exiting positions from",
          "withdrawWethAsEth": "Boolean indicating whether should receive WETH balance as ETH"
        },
        "returns": {
          "biosClaimed": "The amount of BIOS being claimed from rewards",
          "ethClaimed": "The amount of ETH being claimed from rewards",
          "ethWithdrawn": "The amount of ETH being withdrawn",
          "tokenAmounts": "The amounts of each token being withdrawn"
        }
      }
    },
    "stateVariables": {
      "_biosRewardsDuration": {
        "details": "This is deprecated - now live in BiosRewards.sol"
      }
    },
    "title": "User Positions",
    "version": 1
  },
  "userdoc": {
    "kind": "user",
    "methods": {
      "deposit(address,address[],uint256[],uint256,bool)": {
        "notice": "User is allowed to deposit whitelisted tokens"
      },
      "enterStrategy(uint256,(address,uint256)[])": {
        "notice": "Adds a user's funds to a strategy to be deployed"
      },
      "exitStrategy(uint256,(address,uint256)[])": {
        "notice": "Marks a user's funds as withdrawable"
      },
      "getUserBalances(address,uint256[],address[])": {
        "notice": "Returns a user's balances for requested strategies, and the users total invested amounts for each token requested"
      },
      "getUserInvestedAmountByToken(address,address)": {
        "notice": "Returns the amount of a given token that a user has invested across all strategies"
      },
      "getUserStrategyBalanceByToken(uint256,address,address)": {
        "notice": "returns the amount of a given token a user has invested in a given strategy"
      },
      "updateUserInterconnectBalances(address[],address,uint256[],bool[])": {
        "notice": "Updates a user's interconnected balance. Only called by controlled contracts or relayer"
      },
      "updateUserTokenBalances(address[],address,uint256[],bool[])": {
        "notice": "Updates a user's local balance. Only called by controlled contracts or relayer"
      },
      "withdraw(address,address[],uint256[],bool)": {
        "notice": "User is allowed to withdraw tokens"
      },
      "withdrawAllAndClaim(address,address[],uint256[],bool)": {
        "notice": "Allows a user to withdraw entire balances of the specified tokens and claim rewards"
      }
    },
    "notice": "Allows users to deposit/withdraw erc20 tokens",
    "version": 1
  },
  "storageLayout": {
    "storage": [
      {
        "astId": 723,
        "contract": "contracts/core/UserPositions.sol:UserPositions",
        "label": "_initialized",
        "offset": 0,
        "slot": "0",
        "type": "t_bool"
      },
      {
        "astId": 726,
        "contract": "contracts/core/UserPositions.sol:UserPositions",
        "label": "_initializing",
        "offset": 1,
        "slot": "0",
        "type": "t_bool"
      },
      {
        "astId": 10147,
        "contract": "contracts/core/UserPositions.sol:UserPositions",
        "label": "moduleMap",
        "offset": 2,
        "slot": "0",
        "type": "t_contract(IModuleMap)21207"
      },
      {
        "astId": 4666,
        "contract": "contracts/core/UserPositions.sol:UserPositions",
        "label": "_controllers",
        "offset": 0,
        "slot": "1",
        "type": "t_mapping(t_address,t_bool)"
      },
      {
        "astId": 4669,
        "contract": "contracts/core/UserPositions.sol:UserPositions",
        "label": "controllers",
        "offset": 0,
        "slot": "2",
        "type": "t_array(t_address)dyn_storage"
      },
      {
        "astId": 15703,
        "contract": "contracts/core/UserPositions.sol:UserPositions",
        "label": "_biosRewardsDuration",
        "offset": 0,
        "slot": "3",
        "type": "t_uint32"
      },
      {
        "astId": 15707,
        "contract": "contracts/core/UserPositions.sol:UserPositions",
        "label": "_totalSupply",
        "offset": 0,
        "slot": "4",
        "type": "t_mapping(t_address,t_uint256)"
      },
      {
        "astId": 15713,
        "contract": "contracts/core/UserPositions.sol:UserPositions",
        "label": "_balances",
        "offset": 0,
        "slot": "5",
        "type": "t_mapping(t_address,t_mapping(t_address,t_uint256))"
      },
      {
        "astId": 15719,
        "contract": "contracts/core/UserPositions.sol:UserPositions",
        "label": "_deployedBalances",
        "offset": 0,
        "slot": "6",
        "type": "t_mapping(t_address,t_mapping(t_address,t_uint256))"
      },
      {
        "astId": 15727,
        "contract": "contracts/core/UserPositions.sol:UserPositions",
        "label": "_userStrategyBalances",
        "offset": 0,
        "slot": "7",
        "type": "t_mapping(t_address,t_mapping(t_uint256,t_mapping(t_address,t_uint256)))"
      },
      {
        "astId": 15733,
        "contract": "contracts/core/UserPositions.sol:UserPositions",
        "label": "_interconnectBalances",
        "offset": 0,
        "slot": "8",
        "type": "t_mapping(t_address,t_mapping(t_address,t_uint256))"
      },
      {
        "astId": 15735,
        "contract": "contracts/core/UserPositions.sol:UserPositions",
        "label": "paused",
        "offset": 0,
        "slot": "9",
        "type": "t_bool"
      }
    ],
    "types": {
      "t_address": {
        "encoding": "inplace",
        "label": "address",
        "numberOfBytes": "20"
      },
      "t_array(t_address)dyn_storage": {
        "base": "t_address",
        "encoding": "dynamic_array",
        "label": "address[]",
        "numberOfBytes": "32"
      },
      "t_bool": {
        "encoding": "inplace",
        "label": "bool",
        "numberOfBytes": "1"
      },
      "t_contract(IModuleMap)21207": {
        "encoding": "inplace",
        "label": "contract IModuleMap",
        "numberOfBytes": "20"
      },
      "t_mapping(t_address,t_bool)": {
        "encoding": "mapping",
        "key": "t_address",
        "label": "mapping(address => bool)",
        "numberOfBytes": "32",
        "value": "t_bool"
      },
      "t_mapping(t_address,t_mapping(t_address,t_uint256))": {
        "encoding": "mapping",
        "key": "t_address",
        "label": "mapping(address => mapping(address => uint256))",
        "numberOfBytes": "32",
        "value": "t_mapping(t_address,t_uint256)"
      },
      "t_mapping(t_address,t_mapping(t_uint256,t_mapping(t_address,t_uint256)))": {
        "encoding": "mapping",
        "key": "t_address",
        "label": "mapping(address => mapping(uint256 => mapping(address => uint256)))",
        "numberOfBytes": "32",
        "value": "t_mapping(t_uint256,t_mapping(t_address,t_uint256))"
      },
      "t_mapping(t_address,t_uint256)": {
        "encoding": "mapping",
        "key": "t_address",
        "label": "mapping(address => uint256)",
        "numberOfBytes": "32",
        "value": "t_uint256"
      },
      "t_mapping(t_uint256,t_mapping(t_address,t_uint256))": {
        "encoding": "mapping",
        "key": "t_uint256",
        "label": "mapping(uint256 => mapping(address => uint256))",
        "numberOfBytes": "32",
        "value": "t_mapping(t_address,t_uint256)"
      },
      "t_uint256": {
        "encoding": "inplace",
        "label": "uint256",
        "numberOfBytes": "32"
      },
      "t_uint32": {
        "encoding": "inplace",
        "label": "uint32",
        "numberOfBytes": "4"
      }
    }
  }
}