{
  "address": "0x3e34e48DbE67863Fb75F556A842C5FfD340395dD",
  "abi": [
    {
      "inputs": [
        {
          "internalType": "address[]",
          "name": "controllers_",
          "type": "address[]"
        },
        {
          "internalType": "address",
          "name": "moduleMap_",
          "type": "address"
        }
      ],
      "name": "__Controlled_init",
      "outputs": [],
      "stateMutability": "nonpayable",
      "type": "function"
    },
    {
      "inputs": [
        {
          "internalType": "address",
          "name": "controller",
          "type": "address"
        }
      ],
      "name": "addController",
      "outputs": [],
      "stateMutability": "nonpayable",
      "type": "function"
    },
    {
      "inputs": [
        {
          "internalType": "uint256",
          "name": "",
          "type": "uint256"
        }
      ],
      "name": "controllers",
      "outputs": [
        {
          "internalType": "address",
          "name": "",
          "type": "address"
        }
      ],
      "stateMutability": "view",
      "type": "function"
    },
    {
      "inputs": [],
      "name": "deploy",
      "outputs": [],
      "stateMutability": "nonpayable",
      "type": "function"
    },
    {
      "inputs": [
        {
          "internalType": "address",
          "name": "tokenAddress",
          "type": "address"
        },
        {
          "internalType": "uint256",
          "name": "amount",
          "type": "uint256"
        }
      ],
      "name": "deposit",
      "outputs": [],
      "stateMutability": "nonpayable",
      "type": "function"
    },
    {
      "inputs": [
        {
          "internalType": "address",
          "name": "underlyingTokenAddress",
          "type": "address"
        }
      ],
      "name": "getATokenAddress",
      "outputs": [
        {
          "internalType": "address",
          "name": "",
          "type": "address"
        }
      ],
      "stateMutability": "view",
      "type": "function"
    },
    {
      "inputs": [
        {
          "internalType": "address",
          "name": "tokenAddress",
          "type": "address"
        }
      ],
      "name": "getBalance",
      "outputs": [
        {
          "internalType": "uint256",
          "name": "",
          "type": "uint256"
        }
      ],
      "stateMutability": "view",
      "type": "function"
    },
    {
      "inputs": [
        {
          "internalType": "address",
          "name": "token",
          "type": "address"
        }
      ],
      "name": "getPendingYield",
      "outputs": [
        {
          "internalType": "uint256",
          "name": "",
          "type": "uint256"
        }
      ],
      "stateMutability": "view",
      "type": "function"
    },
    {
      "inputs": [],
      "name": "harvestYield",
      "outputs": [],
      "stateMutability": "nonpayable",
      "type": "function"
    },
    {
      "inputs": [
        {
          "internalType": "address[]",
          "name": "controllers_",
          "type": "address[]"
        },
        {
          "internalType": "address",
          "name": "moduleMap_",
          "type": "address"
        },
        {
          "internalType": "address",
          "name": "lendingPoolAddress_",
          "type": "address"
        }
      ],
      "name": "initialize",
      "outputs": [],
      "stateMutability": "nonpayable",
      "type": "function"
    },
    {
      "inputs": [],
      "name": "moduleMap",
      "outputs": [
        {
          "internalType": "contract IModuleMap",
          "name": "",
          "type": "address"
        }
      ],
      "stateMutability": "view",
      "type": "function"
    },
    {
      "inputs": [
        {
          "internalType": "address",
          "name": "tokenAddress",
          "type": "address"
        },
        {
          "internalType": "uint256",
          "name": "amount",
          "type": "uint256"
        }
      ],
      "name": "recoverTokens",
      "outputs": [],
      "stateMutability": "nonpayable",
      "type": "function"
    },
    {
      "inputs": [
        {
          "internalType": "address",
          "name": "tokenAddress",
          "type": "address"
        }
      ],
      "name": "retrievePrincipal",
      "outputs": [],
      "stateMutability": "nonpayable",
      "type": "function"
    },
    {
      "inputs": [
        {
          "internalType": "address",
          "name": "tokenAddress",
          "type": "address"
        },
        {
          "internalType": "uint256",
          "name": "amount",
          "type": "uint256"
        }
      ],
      "name": "withdraw",
      "outputs": [],
      "stateMutability": "nonpayable",
      "type": "function"
    }
  ],
  "transactionHash": "0x7f08b256533583102ba2a058cea71f2f850ada22fa26ab6a10a44866feddb342",
  "args": [],
  "solcInputHash": "ee9094f6d6ecb2a5ecb5b069bb618e82",
  "bytecode": "0x608060405234801561001057600080fd5b506121cf806100206000396000f3fe608060405234801561001057600080fd5b50600436106100ba5760003560e01c8063069c9fae146100bf5780630f0a1c6f146100d457806347e7ef2414610103578063537bb13714610116578063711cc00514610137578063714f583b1461014a578063775c300c1461015d57806390482d721461016557806398c671ce14610178578063a7fc7a071461018b578063e8d991d11461019e578063e94b0dd2146101a6578063f3fef3a3146101b9578063f8b2cb4f146101cc575b600080fd5b6100d26100cd366004611cd2565b6101f5565b005b6000546100ed906201000090046001600160a01b031681565b6040516100fa9190611f05565b60405180910390f35b6100d2610111366004611cd2565b610499565b610129610124366004611c9a565b6104f9565b6040519081526020016100fa565b6100ed610145366004611c9a565b6105d6565b6100d2610158366004611c9a565b610667565b6100d2610861565b6100d2610173366004611d4c565b610bc3565b6100d2610186366004611cfd565b610c5d565b6100d2610199366004611c9a565b610d63565b6100d2610f5d565b6100ed6101b4366004611eb9565b611312565b6100d26101c7366004611cd2565b61133c565b6101296101da366004611c9a565b6001600160a01b031660009081526004602052604090205490565b600080546040516337c61fc560e11b8152620100009091046001600160a01b031691636f8c3f8a9161022a9190600401611f6f565b60206040518083038186803b15801561024257600080fd5b505afa158015610256573d6000803e3d6000fd5b505050506040513d601f19601f8201168201806040525081019061027a9190611cb6565b6001600160a01b0316632f54bf6e336040518263ffffffff1660e01b81526004016102a59190611f05565b60206040518083038186803b1580156102bd57600080fd5b505afa1580156102d1573d6000803e3d6000fd5b505050506040513d601f19601f820116820180604052508101906102f59190611dad565b61031a5760405162461bcd60e51b815260040161031190611fca565b60405180910390fd5b6000811161036a5760405162461bcd60e51b815260206004820152601d60248201527f416d6f756e74206d7573742062652067726561746572207468616e20300000006044820152606401610311565b6040516370a0823160e01b815282906001600160a01b038216906370a0823190610398903090600401611f05565b60206040518083038186803b1580156103b057600080fd5b505afa1580156103c4573d6000803e3d6000fd5b505050506040513d601f19601f820116820180604052508101906103e89190611ed1565b8211156103f457600080fd5b811561049457600080546040516337c61fc560e11b815261049492620100009092046001600160a01b031691636f8c3f8a916104339190600401611f6f565b60206040518083038186803b15801561044b57600080fd5b505afa15801561045f573d6000803e3d6000fd5b505050506040513d601f19601f820116820180604052508101906104839190611cb6565b6001600160a01b0383169084611375565b505050565b3360009081526001602052604090205460ff166104c85760405162461bcd60e51b815260040161031190612062565b6001600160a01b038216600090815260046020526040812080548392906104f09084906120df565b90915550505050565b600080610505836105d6565b6001600160a01b03166370a08231306040518263ffffffff1660e01b81526004016105309190611f05565b60206040518083038186803b15801561054857600080fd5b505afa15801561055c573d6000803e3d6000fd5b505050506040513d601f19601f820116820180604052508101906105809190611ed1565b6001600160a01b0384166000908152600460205260409020549091508111156105cd576001600160a01b0383166000908152600460205260409020546105c690826120f7565b9392505050565b50600092915050565b6003546040516335ea6a7560e01b815260009182916001600160a01b03909116906335ea6a759061060b908690600401611f05565b6101806040518083038186803b15801561062457600080fd5b505afa158015610638573d6000803e3d6000fd5b505050506040513d601f19601f8201168201806040525081019061065c9190611dcd565b60e001519392505050565b600080546040516337c61fc560e11b8152620100009091046001600160a01b031691636f8c3f8a9161069c9190600401611f6f565b60206040518083038186803b1580156106b457600080fd5b505afa1580156106c8573d6000803e3d6000fd5b505050506040513d601f19601f820116820180604052508101906106ec9190611cb6565b6001600160a01b031663f3ae2415336040518263ffffffff1660e01b81526004016107179190611f05565b60206040518083038186803b15801561072f57600080fd5b505afa158015610743573d6000803e3d6000fd5b505050506040513d601f19601f820116820180604052508101906107679190611dad565b6107ca5760405162461bcd60e51b815260206004820152602e60248201527f436f6e74726f6c6c65643a3a6f6e6c794d616e616765723a2043616c6c65722060448201526d34b9903737ba1036b0b730b3b2b960911b6064820152608401610311565b60006107d5826105d6565b90506000816001600160a01b03166370a08231306040518263ffffffff1660e01b81526004016108059190611f05565b60206040518083038186803b15801561081d57600080fd5b505afa158015610831573d6000803e3d6000fd5b505050506040513d601f19601f820116820180604052508101906108559190611ed1565b905061049483826113cb565b3360009081526001602052604090205460ff166108905760405162461bcd60e51b815260040161031190612062565b600080546040516337c61fc560e11b8152620100009091046001600160a01b031690636f8c3f8a906108c790600390600401611f6f565b60206040518083038186803b1580156108df57600080fd5b505afa1580156108f3573d6000803e3d6000fd5b505050506040513d601f19601f820116820180604052508101906109179190611cb6565b90506000816001600160a01b031663f35823736040518163ffffffff1660e01b815260040160206040518083038186803b15801561095457600080fd5b505afa158015610968573d6000803e3d6000fd5b505050506040513d601f19601f8201168201806040525081019061098c9190611ed1565b905060005b8181101561049457604051630cf99be760e31b8152600481018290526000906001600160a01b038516906367ccdf389060240160206040518083038186803b1580156109dc57600080fd5b505afa1580156109f0573d6000803e3d6000fd5b505050506040513d601f19601f82011682018060405250810190610a149190611cb6565b90506000816001600160a01b03166370a08231306040518263ffffffff1660e01b8152600401610a449190611f05565b60206040518083038186803b158015610a5c57600080fd5b505afa158015610a70573d6000803e3d6000fd5b505050506040513d601f19601f82011682018060405250810190610a949190611ed1565b600354604051636eb1769f60e11b81529192506001600160a01b038085169263dd62ed3e92610aca923092911690600401611f19565b60206040518083038186803b158015610ae257600080fd5b505afa158015610af6573d6000803e3d6000fd5b505050506040513d601f19601f82011682018060405250810190610b1a9190611ed1565b610b3a57600354610b3a906001600160a01b0384811691166000196116fd565b8015610bae5760035460405163e8eda9df60e01b81526001600160a01b03848116600483015260248201849052306044830152600060648301529091169063e8eda9df90608401600060405180830381600087803b158015610b9b57600080fd5b505af1925050508015610bac575060015b505b50508080610bbb9061213a565b915050610991565b600054610100900460ff16610bde5760005460ff1615610be2565b303b155b610bfe5760405162461bcd60e51b815260040161031190612014565b600054610100900460ff16158015610c20576000805461ffff19166101011790555b610c2a8484610c5d565b600380546001600160a01b0319166001600160a01b0384161790558015610c57576000805461ff00191690555b50505050565b600054610100900460ff16610c785760005460ff1615610c7c565b303b155b610c985760405162461bcd60e51b815260040161031190612014565b600054610100900460ff16158015610cba576000805461ffff19166101011790555b60005b8351811015610d2f576001806000868481518110610ceb57634e487b7160e01b600052603260045260246000fd5b6020908102919091018101516001600160a01b03168252810191909152604001600020805460ff191691151591909117905580610d278161213a565b915050610cbd565b508251610d43906002906020860190611aed565b50610d4d8261180f565b8015610494576000805461ff0019169055505050565b600080546040516337c61fc560e11b8152620100009091046001600160a01b031691636f8c3f8a91610d989190600401611f6f565b60206040518083038186803b158015610db057600080fd5b505afa158015610dc4573d6000803e3d6000fd5b505050506040513d601f19601f82011682018060405250810190610de89190611cb6565b6001600160a01b0316632f54bf6e336040518263ffffffff1660e01b8152600401610e139190611f05565b60206040518083038186803b158015610e2b57600080fd5b505afa158015610e3f573d6000803e3d6000fd5b505050506040513d601f19601f82011682018060405250810190610e639190611dad565b610e7f5760405162461bcd60e51b815260040161031190611fca565b6001600160a01b03811660009081526001602081905260408220805460ff19169091179055805b600254811015610f075760028181548110610ed157634e487b7160e01b600052603260045260246000fd5b6000918252602090912001546001600160a01b0384811691161415610ef557600191505b80610eff8161213a565b915050610ea6565b5080610f5957600280546001810182556000919091527f405787fa12a823e0f2b7631cc41b3ba8828b3321ca811111fa75cd3aa3bb5ace0180546001600160a01b0319166001600160a01b0384161790555b5050565b3360009081526001602052604090205460ff16610f8c5760405162461bcd60e51b815260040161031190612062565b600080546040516337c61fc560e11b8152620100009091046001600160a01b031690636f8c3f8a90610fc390600390600401611f6f565b60206040518083038186803b158015610fdb57600080fd5b505afa158015610fef573d6000803e3d6000fd5b505050506040513d601f19601f820116820180604052508101906110139190611cb6565b90506000816001600160a01b031663f35823736040518163ffffffff1660e01b815260040160206040518083038186803b15801561105057600080fd5b505afa158015611064573d6000803e3d6000fd5b505050506040513d601f19601f820116820180604052508101906110889190611ed1565b905060005b8181101561049457604051630cf99be760e31b8152600481018290526000906001600160a01b038516906367ccdf389060240160206040518083038186803b1580156110d857600080fd5b505afa1580156110ec573d6000803e3d6000fd5b505050506040513d601f19601f820116820180604052508101906111109190611cb6565b9050600061111d826105d6565b90506001600160a01b038116156112fd576040516370a0823160e01b81526000906001600160a01b038316906370a082319061115d903090600401611f05565b60206040518083038186803b15801561117557600080fd5b505afa158015611189573d6000803e3d6000fd5b505050506040513d601f19601f820116820180604052508101906111ad9190611ed1565b6001600160a01b0384166000908152600460205260409020549091508111156112fb576003546001600160a01b038481166000908152600460205260409020549116906369328dec90859061120290856120f7565b6000546040516337c61fc560e11b8152620100009091046001600160a01b031690636f8c3f8a9061123890600290600401611f6f565b60206040518083038186803b15801561125057600080fd5b505afa158015611264573d6000803e3d6000fd5b505050506040513d601f19601f820116820180604052508101906112889190611cb6565b6040518463ffffffff1660e01b81526004016112a693929190611f4c565b602060405180830381600087803b1580156112c057600080fd5b505af19250505080156112f0575060408051601f3d908101601f191682019092526112ed91810190611ed1565b60015b6112f9576112fb565b505b505b5050808061130a9061213a565b91505061108d565b6002818154811061132257600080fd5b6000918252602090912001546001600160a01b0316905081565b3360009081526001602052604090205460ff1661136b5760405162461bcd60e51b815260040161031190612062565b610f5982826113cb565b6104948363a9059cbb60e01b8484604051602401611394929190611f33565b60408051601f198184030181529190526020810180516001600160e01b03166001600160e01b0319909316929092179091526118a3565b6040516370a0823160e01b81526001600160a01b038316906370a08231906113f7903090600401611f05565b60206040518083038186803b15801561140f57600080fd5b505afa158015611423573d6000803e3d6000fd5b505050506040513d601f19601f820116820180604052508101906114479190611ed1565b8111156114d757600354604051631a4ca37b60e21b81526001600160a01b03909116906369328dec9061148290859085903090600401611f4c565b602060405180830381600087803b15801561149c57600080fd5b505af19250505080156114cc575060408051601f3d908101601f191682019092526114c991810190611ed1565b60015b6114d5576114d7565b505b6040516370a0823160e01b81526001600160a01b038316906370a0823190611503903090600401611f05565b60206040518083038186803b15801561151b57600080fd5b505afa15801561152f573d6000803e3d6000fd5b505050506040513d601f19601f820116820180604052508101906115539190611ed1565b8111156115d9576040516370a0823160e01b81526001600160a01b038316906370a0823190611586903090600401611f05565b60206040518083038186803b15801561159e57600080fd5b505afa1580156115b2573d6000803e3d6000fd5b505050506040513d601f19601f820116820180604052508101906115d69190611ed1565b90505b6001600160a01b03821660009081526004602052604090205415611663576001600160a01b038216600090815260046020526040902054811115611635576001600160a01b038216600090815260046020526040812055611663565b6001600160a01b0382166000908152600460205260408120805483929061165d9084906120f7565b90915550505b600080546040516337c61fc560e11b8152610f5992620100009092046001600160a01b031691636f8c3f8a9161169c9190600401611f6f565b60206040518083038186803b1580156116b457600080fd5b505afa1580156116c8573d6000803e3d6000fd5b505050506040513d601f19601f820116820180604052508101906116ec9190611cb6565b6001600160a01b0384169083611375565b8015806117855750604051636eb1769f60e11b81526001600160a01b0384169063dd62ed3e906117339030908690600401611f19565b60206040518083038186803b15801561174b57600080fd5b505afa15801561175f573d6000803e3d6000fd5b505050506040513d601f19601f820116820180604052508101906117839190611ed1565b155b6117f05760405162461bcd60e51b815260206004820152603660248201527f5361666545524332303a20617070726f76652066726f6d206e6f6e2d7a65726f60448201527520746f206e6f6e2d7a65726f20616c6c6f77616e636560501b6064820152608401610311565b6104948363095ea7b360e01b8484604051602401611394929190611f33565b600054610100900460ff1661182a5760005460ff161561182e565b303b155b61184a5760405162461bcd60e51b815260040161031190612014565b600054610100900460ff1615801561186c576000805461ffff19166101011790555b6000805462010000600160b01b031916620100006001600160a01b038516021790558015610f59576000805461ff00191690555050565b60006118f8826040518060400160405280602081526020017f5361666545524332303a206c6f772d6c6576656c2063616c6c206661696c6564815250856001600160a01b03166119759092919063ffffffff16565b80519091501561049457808060200190518101906119169190611dad565b6104945760405162461bcd60e51b815260206004820152602a60248201527f5361666545524332303a204552433230206f7065726174696f6e20646964206e6044820152691bdd081cdd58d8d9595960b21b6064820152608401610311565b6060611984848460008561198c565b949350505050565b6060824710156119ed5760405162461bcd60e51b815260206004820152602660248201527f416464726573733a20696e73756666696369656e742062616c616e636520666f6044820152651c8818d85b1b60d21b6064820152608401610311565b843b611a3b5760405162461bcd60e51b815260206004820152601d60248201527f416464726573733a2063616c6c20746f206e6f6e2d636f6e74726163740000006044820152606401610311565b600080866001600160a01b03168587604051611a579190611ee9565b60006040518083038185875af1925050503d8060008114611a94576040519150601f19603f3d011682016040523d82523d6000602084013e611a99565b606091505b5091509150611aa9828286611ab4565b979650505050505050565b60608315611ac35750816105c6565b825115611ad35782518084602001fd5b8160405162461bcd60e51b81526004016103119190611f97565b828054828255906000526020600020908101928215611b42579160200282015b82811115611b4257825182546001600160a01b0319166001600160a01b03909116178255602090920191600190910190611b0d565b50611b4e929150611b52565b5090565b5b80821115611b4e5760008155600101611b53565b8051611b7281612181565b919050565b600082601f830112611b87578081fd5b813560206001600160401b0380831115611ba357611ba361216b565b8260051b604051601f19603f83011681018181108482111715611bc857611bc861216b565b60405284815283810192508684018288018501891015611be6578687fd5b8692505b85831015611c11578035611bfd81612181565b845292840192600192909201918401611bea565b50979650505050505050565b600060208284031215611c2e578081fd5b604051602081016001600160401b0381118282101715611c5057611c5061216b565b6040529151825250919050565b80516001600160801b0381168114611b7257600080fd5b805164ffffffffff81168114611b7257600080fd5b805160ff81168114611b7257600080fd5b600060208284031215611cab578081fd5b81356105c681612181565b600060208284031215611cc7578081fd5b81516105c681612181565b60008060408385031215611ce4578081fd5b8235611cef81612181565b946020939093013593505050565b60008060408385031215611d0f578182fd5b82356001600160401b03811115611d24578283fd5b611d3085828601611b77565b9250506020830135611d4181612181565b809150509250929050565b600080600060608486031215611d60578081fd5b83356001600160401b03811115611d75578182fd5b611d8186828701611b77565b9350506020840135611d9281612181565b91506040840135611da281612181565b809150509250925092565b600060208284031215611dbe578081fd5b815180151581146105c6578182fd5b60006101808284031215611ddf578081fd5b611de76120b6565b611df18484611c1d565b8152611dff60208401611c5d565b6020820152611e1060408401611c5d565b6040820152611e2160608401611c5d565b6060820152611e3260808401611c5d565b6080820152611e4360a08401611c5d565b60a0820152611e5460c08401611c74565b60c0820152611e6560e08401611b67565b60e0820152610100611e78818501611b67565b90820152610120611e8a848201611b67565b90820152610140611e9c848201611b67565b90820152610160611eae848201611c89565b908201529392505050565b600060208284031215611eca578081fd5b5035919050565b600060208284031215611ee2578081fd5b5051919050565b60008251611efb81846020870161210e565b9190910192915050565b6001600160a01b0391909116815260200190565b6001600160a01b0392831681529116602082015260400190565b6001600160a01b03929092168252602082015260400190565b6001600160a01b0393841681526020810192909252909116604082015260600190565b60208101600b8310611f9157634e487b7160e01b600052602160045260246000fd5b91905290565b6020815260008251806020840152611fb681604085016020870161210e565b601f01601f19169190910160400192915050565b6020808252602a908201527f436f6e74726f6c6c65643a3a6f6e6c794f776e65723a2043616c6c6572206973604082015269103737ba1037bbb732b960b11b606082015260800190565b6020808252602e908201527f496e697469616c697a61626c653a20636f6e747261637420697320616c72656160408201526d191e481a5b9a5d1a585b1a5e995960921b606082015260800190565b60208082526034908201527f436f6e74726f6c6c65643a3a6f6e6c79436f6e74726f6c6c65723a2043616c6c60408201527332b91034b9903737ba1031b7b73a3937b63632b960611b606082015260800190565b60405161018081016001600160401b03811182821017156120d9576120d961216b565b60405290565b600082198211156120f2576120f2612155565b500190565b60008282101561210957612109612155565b500390565b60005b83811015612129578181015183820152602001612111565b83811115610c575750506000910152565b600060001982141561214e5761214e612155565b5060010190565b634e487b7160e01b600052601160045260246000fd5b634e487b7160e01b600052604160045260246000fd5b6001600160a01b038116811461219657600080fd5b5056fea264697066735822122082dfcfba5e81d79f72052e9f3e3fe666afb637fee12661a064007776bde1700c64736f6c63430008040033",
  "devdoc": {
    "kind": "dev",
    "methods": {
      "deposit(address,uint256)": {
        "params": {
          "amount": "The amount of the token being deposited",
          "tokenAddress": "The address of the deposited token"
        }
      },
      "getATokenAddress(address)": {
        "params": {
          "underlyingTokenAddress": "The address of the underlying token"
        },
        "returns": {
          "_0": "The address of the corresponding aToken"
        }
      },
      "getBalance(address)": {
        "details": "This returns the total amount of the underlying token thathas been deposited to the integration contract",
        "params": {
          "tokenAddress": "The address of the deployed token"
        },
        "returns": {
          "_0": "The amount of the underlying token that can be withdrawn"
        }
      },
      "getPendingYield(address)": {
        "details": "Returns total amount of pending yield for the specified token in Aave",
        "params": {
          "token": "The of the token to check for available yield"
        },
        "returns": {
          "_0": "Amount of yield available for harvest"
        }
      },
      "initialize(address[],address,address)": {
        "params": {
          "controllers_": "The addresses of the controlling contracts",
          "lendingPoolAddress_": "The address of the Aave lending pool contract",
          "moduleMap_": "The address of the module map contract"
        }
      },
      "recoverTokens(address,uint256)": {
        "details": "This is used to recover lost funds from the contract to the KernelBe super careful not to transfer out the wrong tokens!We should make it a point to remove this function relatively soon",
        "params": {
          "tokenAddress": "The address of the token to recover"
        }
      },
      "retrievePrincipal(address)": {
        "params": {
          "tokenAddress": "The address of the underlying token to withdraw"
        }
      },
      "withdraw(address,uint256)": {
        "params": {
          "amount": "The amoutn of the token to withdraw",
          "tokenAddress": "The address of the underlying token to withdraw"
        }
      }
    },
    "version": 1
  },
  "userdoc": {
    "kind": "user",
    "methods": {
      "deploy()": {
        "notice": "Deploys all available tokens to Aave"
      },
      "harvestYield()": {
        "notice": "Harvests all token yield from the Aave lending pool"
      },
      "retrievePrincipal(address)": {
        "notice": "Withdraws token from the integration"
      },
      "withdraw(address,uint256)": {
        "notice": "Withdraws token from the integration"
      }
    },
    "notice": "Integrates 0x Nodes to the Aave lending poolThe Kernel contract should be added as the controller",
    "version": 1
  },
  "storageLayout": {
    "storage": [
      {
        "astId": 723,
        "contract": "contracts/yield-integrations/AaveIntegration.sol:AaveIntegration",
        "label": "_initialized",
        "offset": 0,
        "slot": "0",
        "type": "t_bool"
      },
      {
        "astId": 726,
        "contract": "contracts/yield-integrations/AaveIntegration.sol:AaveIntegration",
        "label": "_initializing",
        "offset": 1,
        "slot": "0",
        "type": "t_bool"
      },
      {
        "astId": 8327,
        "contract": "contracts/yield-integrations/AaveIntegration.sol:AaveIntegration",
        "label": "moduleMap",
        "offset": 2,
        "slot": "0",
        "type": "t_contract(IModuleMap)17407"
      },
      {
        "astId": 3495,
        "contract": "contracts/yield-integrations/AaveIntegration.sol:AaveIntegration",
        "label": "_controllers",
        "offset": 0,
        "slot": "1",
        "type": "t_mapping(t_address,t_bool)"
      },
      {
        "astId": 3498,
        "contract": "contracts/yield-integrations/AaveIntegration.sol:AaveIntegration",
        "label": "controllers",
        "offset": 0,
        "slot": "2",
        "type": "t_array(t_address)dyn_storage"
      },
      {
        "astId": 21275,
        "contract": "contracts/yield-integrations/AaveIntegration.sol:AaveIntegration",
        "label": "lendingPoolAddress",
        "offset": 0,
        "slot": "3",
        "type": "t_address"
      },
      {
        "astId": 21279,
        "contract": "contracts/yield-integrations/AaveIntegration.sol:AaveIntegration",
        "label": "balances",
        "offset": 0,
        "slot": "4",
        "type": "t_mapping(t_address,t_uint256)"
      }
    ],
    "types": {
      "t_address": {
        "encoding": "inplace",
        "label": "address",
        "numberOfBytes": "20"
      },
      "t_array(t_address)dyn_storage": {
        "base": "t_address",
        "encoding": "dynamic_array",
        "label": "address[]",
        "numberOfBytes": "32"
      },
      "t_bool": {
        "encoding": "inplace",
        "label": "bool",
        "numberOfBytes": "1"
      },
      "t_contract(IModuleMap)17407": {
        "encoding": "inplace",
        "label": "contract IModuleMap",
        "numberOfBytes": "20"
      },
      "t_mapping(t_address,t_bool)": {
        "encoding": "mapping",
        "key": "t_address",
        "label": "mapping(address => bool)",
        "numberOfBytes": "32",
        "value": "t_bool"
      },
      "t_mapping(t_address,t_uint256)": {
        "encoding": "mapping",
        "key": "t_address",
        "label": "mapping(address => uint256)",
        "numberOfBytes": "32",
        "value": "t_uint256"
      },
      "t_uint256": {
        "encoding": "inplace",
        "label": "uint256",
        "numberOfBytes": "32"
      }
    }
  }
}