{
  "address": "0xebd1c4Ba8FD728cC92A538dfF10c69Fc6cf1BE4d",
  "abi": [
    {
      "anonymous": false,
      "inputs": [
        {
          "indexed": true,
          "internalType": "address",
          "name": "from",
          "type": "address"
        },
        {
          "indexed": true,
          "internalType": "uint256",
          "name": "pid",
          "type": "uint256"
        },
        {
          "indexed": false,
          "internalType": "uint256",
          "name": "amount",
          "type": "uint256"
        },
        {
          "indexed": true,
          "internalType": "address",
          "name": "to",
          "type": "address"
        }
      ],
      "name": "BiosEmitterHarvest",
      "type": "event"
    },
    {
      "anonymous": false,
      "inputs": [
        {
          "indexed": true,
          "internalType": "address",
          "name": "user",
          "type": "address"
        },
        {
          "indexed": true,
          "internalType": "uint256",
          "name": "pid",
          "type": "uint256"
        },
        {
          "indexed": false,
          "internalType": "uint256",
          "name": "amount",
          "type": "uint256"
        },
        {
          "indexed": true,
          "internalType": "address",
          "name": "to",
          "type": "address"
        }
      ],
      "name": "EmergencyWithdraw",
      "type": "event"
    },
    {
      "anonymous": false,
      "inputs": [
        {
          "indexed": false,
          "internalType": "uint256",
          "name": "biosPerBlock",
          "type": "uint256"
        }
      ],
      "name": "LogBiosPerBlock",
      "type": "event"
    },
    {
      "anonymous": false,
      "inputs": [
        {
          "indexed": false,
          "internalType": "uint256",
          "name": "_pendingBios",
          "type": "uint256"
        }
      ],
      "name": "LogPendingBios",
      "type": "event"
    },
    {
      "anonymous": false,
      "inputs": [
        {
          "indexed": true,
          "internalType": "uint256",
          "name": "pid",
          "type": "uint256"
        },
        {
          "indexed": false,
          "internalType": "uint256",
          "name": "allocPoint",
          "type": "uint256"
        }
      ],
      "name": "LogPoolAddition",
      "type": "event"
    },
    {
      "anonymous": false,
      "inputs": [
        {
          "indexed": true,
          "internalType": "uint256",
          "name": "pid",
          "type": "uint256"
        },
        {
          "indexed": false,
          "internalType": "uint256",
          "name": "allocPoint",
          "type": "uint256"
        }
      ],
      "name": "LogSetPool",
      "type": "event"
    },
    {
      "anonymous": false,
      "inputs": [
        {
          "indexed": true,
          "internalType": "uint256",
          "name": "pid",
          "type": "uint256"
        },
        {
          "indexed": false,
          "internalType": "uint64",
          "name": "lastRewardBlock",
          "type": "uint64"
        },
        {
          "indexed": false,
          "internalType": "uint256",
          "name": "lpSupply",
          "type": "uint256"
        },
        {
          "indexed": false,
          "internalType": "uint256",
          "name": "accBiosPerShare",
          "type": "uint256"
        }
      ],
      "name": "LogUpdatePool",
      "type": "event"
    },
    {
      "anonymous": false,
      "inputs": [
        {
          "indexed": true,
          "internalType": "address",
          "name": "user",
          "type": "address"
        },
        {
          "indexed": false,
          "internalType": "uint256",
          "name": "amount",
          "type": "uint256"
        }
      ],
      "name": "MigratedUserPosition",
      "type": "event"
    },
    {
      "anonymous": false,
      "inputs": [
        {
          "indexed": true,
          "internalType": "address",
          "name": "user",
          "type": "address"
        },
        {
          "indexed": false,
          "internalType": "uint256",
          "name": "amount",
          "type": "uint256"
        }
      ],
      "name": "UpdatedUserPosition",
      "type": "event"
    },
    {
      "inputs": [
        {
          "internalType": "address",
          "name": "controller",
          "type": "address"
        }
      ],
      "name": "addController",
      "outputs": [],
      "stateMutability": "nonpayable",
      "type": "function"
    },
    {
      "inputs": [
        {
          "internalType": "address",
          "name": "_token",
          "type": "address"
        },
        {
          "internalType": "uint256",
          "name": "_allocPoint",
          "type": "uint256"
        }
      ],
      "name": "addPool",
      "outputs": [],
      "stateMutability": "nonpayable",
      "type": "function"
    },
    {
      "inputs": [
        {
          "internalType": "address[]",
          "name": "_tokens",
          "type": "address[]"
        },
        {
          "internalType": "uint256[]",
          "name": "_allocPoints",
          "type": "uint256[]"
        }
      ],
      "name": "addPools",
      "outputs": [],
      "stateMutability": "nonpayable",
      "type": "function"
    },
    {
      "inputs": [
        {
          "internalType": "uint256",
          "name": "",
          "type": "uint256"
        }
      ],
      "name": "controllers",
      "outputs": [
        {
          "internalType": "address",
          "name": "",
          "type": "address"
        }
      ],
      "stateMutability": "view",
      "type": "function"
    },
    {
      "inputs": [
        {
          "internalType": "address",
          "name": "_token",
          "type": "address"
        },
        {
          "internalType": "uint256",
          "name": "_amount",
          "type": "uint256"
        }
      ],
      "name": "decreaseRewards",
      "outputs": [],
      "stateMutability": "nonpayable",
      "type": "function"
    },
    {
      "inputs": [
        {
          "internalType": "address",
          "name": "_token",
          "type": "address"
        },
        {
          "internalType": "uint256",
          "name": "_amount",
          "type": "uint256"
        },
        {
          "internalType": "address",
          "name": "_depositor",
          "type": "address"
        }
      ],
      "name": "deposit",
      "outputs": [],
      "stateMutability": "nonpayable",
      "type": "function"
    },
    {
      "inputs": [],
      "name": "getAccumulatedBiosPrecision",
      "outputs": [
        {
          "internalType": "uint256",
          "name": "",
          "type": "uint256"
        }
      ],
      "stateMutability": "pure",
      "type": "function"
    },
    {
      "inputs": [],
      "name": "getAllControllers",
      "outputs": [
        {
          "internalType": "address[]",
          "name": "currentControllers",
          "type": "address[]"
        }
      ],
      "stateMutability": "view",
      "type": "function"
    },
    {
      "inputs": [],
      "name": "getBiosPerBlock",
      "outputs": [
        {
          "internalType": "uint256",
          "name": "",
          "type": "uint256"
        }
      ],
      "stateMutability": "view",
      "type": "function"
    },
    {
      "inputs": [
        {
          "internalType": "address",
          "name": "_token",
          "type": "address"
        }
      ],
      "name": "getEligibleToken",
      "outputs": [
        {
          "internalType": "bool",
          "name": "",
          "type": "bool"
        }
      ],
      "stateMutability": "view",
      "type": "function"
    },
    {
      "inputs": [
        {
          "internalType": "address",
          "name": "_token",
          "type": "address"
        }
      ],
      "name": "getPoolId",
      "outputs": [
        {
          "internalType": "uint256",
          "name": "r_pid",
          "type": "uint256"
        }
      ],
      "stateMutability": "view",
      "type": "function"
    },
    {
      "inputs": [
        {
          "internalType": "address",
          "name": "_token",
          "type": "address"
        }
      ],
      "name": "getPoolInfo",
      "outputs": [
        {
          "internalType": "uint128",
          "name": "",
          "type": "uint128"
        },
        {
          "internalType": "uint64",
          "name": "",
          "type": "uint64"
        },
        {
          "internalType": "uint64",
          "name": "",
          "type": "uint64"
        }
      ],
      "stateMutability": "view",
      "type": "function"
    },
    {
      "inputs": [
        {
          "internalType": "address",
          "name": "_token",
          "type": "address"
        },
        {
          "internalType": "address",
          "name": "_user",
          "type": "address"
        }
      ],
      "name": "getUserInfo",
      "outputs": [
        {
          "internalType": "uint256",
          "name": "",
          "type": "uint256"
        },
        {
          "internalType": "int256",
          "name": "",
          "type": "int256"
        }
      ],
      "stateMutability": "view",
      "type": "function"
    },
    {
      "inputs": [
        {
          "internalType": "address",
          "name": "_token",
          "type": "address"
        },
        {
          "internalType": "address",
          "name": "_harvester",
          "type": "address"
        }
      ],
      "name": "harvest",
      "outputs": [
        {
          "internalType": "uint256",
          "name": "",
          "type": "uint256"
        }
      ],
      "stateMutability": "nonpayable",
      "type": "function"
    },
    {
      "inputs": [
        {
          "internalType": "address",
          "name": "_harvester",
          "type": "address"
        }
      ],
      "name": "harvestAll",
      "outputs": [
        {
          "internalType": "uint256",
          "name": "",
          "type": "uint256"
        }
      ],
      "stateMutability": "nonpayable",
      "type": "function"
    },
    {
      "inputs": [
        {
          "internalType": "address",
          "name": "_token",
          "type": "address"
        },
        {
          "internalType": "uint256",
          "name": "_amount",
          "type": "uint256"
        }
      ],
      "name": "increaseRewards",
      "outputs": [],
      "stateMutability": "nonpayable",
      "type": "function"
    },
    {
      "inputs": [
        {
          "internalType": "address[]",
          "name": "controllers_",
          "type": "address[]"
        },
        {
          "internalType": "address",
          "name": "moduleMap_",
          "type": "address"
        },
        {
          "internalType": "uint256",
          "name": "_bios_per_block",
          "type": "uint256"
        }
      ],
      "name": "initialize",
      "outputs": [],
      "stateMutability": "nonpayable",
      "type": "function"
    },
    {
      "inputs": [
        {
          "internalType": "address",
          "name": "controller",
          "type": "address"
        }
      ],
      "name": "isController",
      "outputs": [
        {
          "internalType": "bool",
          "name": "status",
          "type": "bool"
        }
      ],
      "stateMutability": "view",
      "type": "function"
    },
    {
      "inputs": [
        {
          "internalType": "address[]",
          "name": "_tokens",
          "type": "address[]"
        }
      ],
      "name": "massUpdatePools",
      "outputs": [],
      "stateMutability": "nonpayable",
      "type": "function"
    },
    {
      "inputs": [],
      "name": "moduleMap",
      "outputs": [
        {
          "internalType": "contract IModuleMap",
          "name": "",
          "type": "address"
        }
      ],
      "stateMutability": "view",
      "type": "function"
    },
    {
      "inputs": [
        {
          "internalType": "address",
          "name": "_token",
          "type": "address"
        },
        {
          "internalType": "address",
          "name": "_user",
          "type": "address"
        }
      ],
      "name": "pendingBios",
      "outputs": [
        {
          "internalType": "uint256",
          "name": "pending",
          "type": "uint256"
        }
      ],
      "stateMutability": "view",
      "type": "function"
    },
    {
      "inputs": [
        {
          "internalType": "address",
          "name": "",
          "type": "address"
        }
      ],
      "name": "pid",
      "outputs": [
        {
          "internalType": "uint256",
          "name": "",
          "type": "uint256"
        }
      ],
      "stateMutability": "view",
      "type": "function"
    },
    {
      "inputs": [
        {
          "internalType": "uint256",
          "name": "",
          "type": "uint256"
        }
      ],
      "name": "poolInfo",
      "outputs": [
        {
          "internalType": "uint128",
          "name": "accBiosPerShare",
          "type": "uint128"
        },
        {
          "internalType": "uint64",
          "name": "lastRewardBlock",
          "type": "uint64"
        },
        {
          "internalType": "uint64",
          "name": "allocPoint",
          "type": "uint64"
        },
        {
          "internalType": "bool",
          "name": "initialized",
          "type": "bool"
        }
      ],
      "stateMutability": "view",
      "type": "function"
    },
    {
      "inputs": [
        {
          "internalType": "uint256",
          "name": "",
          "type": "uint256"
        },
        {
          "internalType": "address",
          "name": "",
          "type": "address"
        }
      ],
      "name": "rewardDebt",
      "outputs": [
        {
          "internalType": "int256",
          "name": "",
          "type": "int256"
        }
      ],
      "stateMutability": "view",
      "type": "function"
    },
    {
      "inputs": [
        {
          "internalType": "uint256",
          "name": "_bios_per_block",
          "type": "uint256"
        }
      ],
      "name": "setBiosPerBlock",
      "outputs": [],
      "stateMutability": "nonpayable",
      "type": "function"
    },
    {
      "inputs": [
        {
          "internalType": "address",
          "name": "_token",
          "type": "address"
        },
        {
          "internalType": "uint256",
          "name": "_allocPoint",
          "type": "uint256"
        }
      ],
      "name": "setPool",
      "outputs": [],
      "stateMutability": "nonpayable",
      "type": "function"
    },
    {
      "inputs": [
        {
          "internalType": "address[]",
          "name": "_tokens",
          "type": "address[]"
        },
        {
          "internalType": "uint256[]",
          "name": "_allocPoints",
          "type": "uint256[]"
        }
      ],
      "name": "setPools",
      "outputs": [],
      "stateMutability": "nonpayable",
      "type": "function"
    },
    {
      "inputs": [],
      "name": "totalAllocPoint",
      "outputs": [
        {
          "internalType": "uint256",
          "name": "",
          "type": "uint256"
        }
      ],
      "stateMutability": "view",
      "type": "function"
    },
    {
      "inputs": [
        {
          "internalType": "address",
          "name": "_token",
          "type": "address"
        }
      ],
      "name": "updatePool",
      "outputs": [
        {
          "components": [
            {
              "internalType": "uint128",
              "name": "accBiosPerShare",
              "type": "uint128"
            },
            {
              "internalType": "uint64",
              "name": "lastRewardBlock",
              "type": "uint64"
            },
            {
              "internalType": "uint64",
              "name": "allocPoint",
              "type": "uint64"
            },
            {
              "internalType": "bool",
              "name": "initialized",
              "type": "bool"
            }
          ],
          "internalType": "struct IBiosEmitter.PoolInfo",
          "name": "pool",
          "type": "tuple"
        }
      ],
      "stateMutability": "nonpayable",
      "type": "function"
    },
    {
      "inputs": [
        {
          "internalType": "address",
          "name": "_token",
          "type": "address"
        },
        {
          "internalType": "uint256",
          "name": "_amount",
          "type": "uint256"
        },
        {
          "internalType": "address",
          "name": "_withdrawer",
          "type": "address"
        }
      ],
      "name": "withdraw",
      "outputs": [],
      "stateMutability": "nonpayable",
      "type": "function"
    }
  ],
  "transactionHash": "0x6cf7af658114351716ad68f49b3d347e725fceb8bb969f63914e330c466e2246",
  "args": [],
  "solcInputHash": "6b3cff8e9848db73a4b75e9fcec41d40",
  "bytecode": "0x608060405234801561001057600080fd5b5061322b806100206000396000f3fe608060405234801561001057600080fd5b506004361061016a5760003560e01c8063011f3f6f1461016f57806306bfa938146101955780630f0a1c6f146101d75780631526fe27146101fd57806317caf6f11461024957806329b7db82146102525780632abc62011461025d57806332a9caba14610272578063337993cb1461028557806339eaed291461029a5780633e4cd056146102ad57806347753dba146102d05780635c48360f146102d85780636230ee8e146102eb57806366cc1857146102fe57806369328dec14610311578063699bdca91461032457806371283b27146103375780637b46c54f1461034a5780638cefbdd4146103a9578063a7fc7a07146103bc578063b429afeb146103cf578063b9e2a207146103fb578063caa9a08d14610426578063d196583a14610439578063d8274d0a1461044c578063d9dcdf351461046c578063e94b0dd21461047f578063f2801fe714610492578063f45346dc146104ba575b600080fd5b61018261017d366004612a76565b6104cd565b6040519081526020015b60405180910390f35b6101a86101a3366004612a3e565b6106b6565b604080516001600160801b0390941684526001600160401b03928316602085015291169082015260600161018c565b6000546101f0906201000090046001600160a01b031681565b60405161018c9190612d2b565b61021061020b366004612cbb565b61079c565b604080516001600160801b039590951685526001600160401b03938416602086015291909216908301521515606082015260800161018c565b61018260085481565b64e8d4a51000610182565b61027061026b366004612be0565b6107f1565b005b610270610280366004612aae565b610988565b61028d610cbc565b60405161018c9190612d3f565b6102706102a8366004612b1a565b610d1e565b6102c06102bb366004612a3e565b610d79565b604051901515815260200161018c565b600754610182565b6102706102e6366004612aae565b610dfd565b6102706102f9366004612be0565b611049565b61018261030c366004612a76565b6111db565b61027061031f366004612ad9565b61136f565b610182610332366004612a3e565b611458565b610270610345366004612aae565b61176c565b61035d610358366004612a3e565b611808565b6040805182516001600160801b031681526020808401516001600160401b039081169183019190915283830151169181019190915260609182015115159181019190915260800161018c565b6102706103b7366004612b89565b611a9f565b6102706103ca366004612a3e565b611b7e565b6102c06103dd366004612a3e565b6001600160a01b031660009081526001602052604090205460ff1690565b610182610409366004612ceb565b600660209081526000928352604080842090915290825290205481565b610182610434366004612a3e565b611d76565b610270610447366004612cbb565b611dcd565b61018261045a366004612a3e565b60046020526000908152604090205481565b61027061047a366004612aae565b611f49565b6101f061048d366004612cbb565b611fe0565b6104a56104a0366004612a76565b61200a565b6040805192835260208301919091520161018c565b6102706104c8366004612ad9565b61208d565b6001600160a01b038216600090815260056020526040812054839060ff166105105760405162461bcd60e51b815260040161050790612de7565b60405180910390fd5b600061051b85611d76565b905060006003828154811061054057634e487b7160e01b600052603260045260246000fd5b6000918252602080832060408051608081018252600290940290910180546001600160801b0381168086526001600160401b03600160801b8304811695870195909552600160c01b909104909316918401919091526001015460ff1615156060830152909250906105b088612169565b905082602001516001600160401b0316431180156105cd57508015155b1561064f57600083602001516001600160401b0316436105ed9190613133565b9050600060085485604001516001600160401b03166007548461061091906130d5565b61061a91906130d5565b61062491906130b5565b90508261063664e8d4a51000836130d5565b61064091906130b5565b61064a908561309d565b935050505b60008481526006602090815260408083206001600160a01b038b1684529091529020546106aa9064e8d4a51000846106878c8c612271565b61069191906130d5565b61069b91906130b5565b6106a591906130f4565b61237b565b98975050505050505050565b6000806000806106c585611d76565b9050600381815481106106e857634e487b7160e01b600052603260045260246000fd5b6000918252602090912060029091020154600380546001600160801b03909216918390811061072757634e487b7160e01b600052603260045260246000fd5b906000526020600020906002020160000160109054906101000a90046001600160401b03166003838154811061076d57634e487b7160e01b600052603260045260246000fd5b60009182526020909120600290910201549197909650600160c01b9091046001600160401b0316945092505050565b600381815481106107ac57600080fd5b6000918252602090912060029091020180546001909101546001600160801b03821692506001600160401b03600160801b8304811692600160c01b9004169060ff1684565b600080546040516337c61fc560e11b8152620100009091046001600160a01b031691636f8c3f8a916108269190600401612d8c565b60206040518083038186803b15801561083e57600080fd5b505afa158015610852573d6000803e3d6000fd5b505050506040513d601f19601f820116820180604052508101906108769190612a5a565b6001600160a01b0316632f54bf6e336040518263ffffffff1660e01b81526004016108a19190612d2b565b60206040518083038186803b1580156108b957600080fd5b505afa1580156108cd573d6000803e3d6000fd5b505050506040513d601f19601f820116820180604052508101906108f19190612c9b565b61090d5760405162461bcd60e51b815260040161050790612e2f565b60005b82518110156109835761097183828151811061093c57634e487b7160e01b600052603260045260246000fd5b602002602001015183838151811061096457634e487b7160e01b600052603260045260246000fd5b6020026020010151610988565b8061097b81613176565b915050610910565b505050565b6001600160a01b038216600090815260056020526040902054829060ff1615610a0b5760405162461bcd60e51b815260206004820152602f60248201527f42696f73456d69747465723a3a646f65734e6f7445786973743a20506f6f6c2060448201526e616c7265616164792065786973747360881b6064820152608401610507565b600080546040516337c61fc560e11b8152620100009091046001600160a01b031691636f8c3f8a91610a409190600401612d8c565b60206040518083038186803b158015610a5857600080fd5b505afa158015610a6c573d6000803e3d6000fd5b505050506040513d601f19601f82011682018060405250810190610a909190612a5a565b6001600160a01b0316632f54bf6e336040518263ffffffff1660e01b8152600401610abb9190612d2b565b60206040518083038186803b158015610ad357600080fd5b505afa158015610ae7573d6000803e3d6000fd5b505050506040513d601f19601f82011682018060405250810190610b0b9190612c9b565b610b275760405162461bcd60e51b815260040161050790612e2f565b60004390508260086000828254610b3e919061309d565b90915550506001600160a01b0384166000908152600560209081526040808320805460ff19908116600190811790925582516080810184528581526001600160401b038088169582019586528981169482019485526060820184815260038054808701825598819052925160029098027fc2575a0e9e593c00f959f8c92f12db2869c3395a3b0502d05e2516446f71f85b81018054985197518416600160c01b026001600160c01b0398909416600160801b026001600160c01b03199099166001600160801b039a909a169990991797909717959095161790955591517fc2575a0e9e593c00f959f8c92f12db2869c3395a3b0502d05e2516446f71f85c9093018054931515939092169290921790559054610c5a9190613133565b6001600160a01b038516600090815260046020526040902055600354610c8290600190613133565b6040518481527f38410508059921573ab9ebdca2a5034be738d236366b8f32de4434ea95ed3c81906020015b60405180910390a250505050565b60606002805480602002602001604051908101604052809291908181526020018280548015610d1457602002820191906000526020600020905b81546001600160a01b03168152600190910190602001808311610cf6575b5050505050905090565b8060005b81811015610d7357610d62848483818110610d4d57634e487b7160e01b600052603260045260246000fd5b90506020020160208101906103589190612a3e565b50610d6c81613176565b9050610d22565b50505050565b6001600160a01b03811660009081526005602052604081205460ff1615610df5576000610da583611d76565b905060038181548110610dc857634e487b7160e01b600052603260045260246000fd5b600091825260209091206001600290920201015460ff1615610deb576001610dee565b60005b9392505050565b506000919050565b6001600160a01b038216600090815260056020526040902054829060ff16610e375760405162461bcd60e51b815260040161050790612de7565b600080546040516337c61fc560e11b8152620100009091046001600160a01b031691636f8c3f8a91610e6c9190600401612d8c565b60206040518083038186803b158015610e8457600080fd5b505afa158015610e98573d6000803e3d6000fd5b505050506040513d601f19601f82011682018060405250810190610ebc9190612a5a565b6001600160a01b0316632f54bf6e336040518263ffffffff1660e01b8152600401610ee79190612d2b565b60206040518083038186803b158015610eff57600080fd5b505afa158015610f13573d6000803e3d6000fd5b505050506040513d601f19601f82011682018060405250810190610f379190612c9b565b610f535760405162461bcd60e51b815260040161050790612e2f565b6000610f5e84611d76565b90508260038281548110610f8257634e487b7160e01b600052603260045260246000fd5b6000918252602090912060029091020154600854610fb091600160c01b90046001600160401b031690613133565b610fba919061309d565b6008819055508260038281548110610fe257634e487b7160e01b600052603260045260246000fd5b906000526020600020906002020160000160186101000a8154816001600160401b0302191690836001600160401b03160217905550807f942cc7e17a17c164bd977f32ab8c54265d5b9d481e4e352bf874f1e568874e7c84604051610cae91815260200190565b600080546040516337c61fc560e11b8152620100009091046001600160a01b031691636f8c3f8a9161107e9190600401612d8c565b60206040518083038186803b15801561109657600080fd5b505afa1580156110aa573d6000803e3d6000fd5b505050506040513d601f19601f820116820180604052508101906110ce9190612a5a565b6001600160a01b0316632f54bf6e336040518263ffffffff1660e01b81526004016110f99190612d2b565b60206040518083038186803b15801561111157600080fd5b505afa158015611125573d6000803e3d6000fd5b505050506040513d601f19601f820116820180604052508101906111499190612c9b565b6111655760405162461bcd60e51b815260040161050790612e2f565b60005b8251811015610983576111c983828151811061119457634e487b7160e01b600052603260045260246000fd5b60200260200101518383815181106111bc57634e487b7160e01b600052603260045260246000fd5b6020026020010151610dfd565b806111d381613176565b915050611168565b6001600160a01b038216600090815260056020526040812054839060ff166112155760405162461bcd60e51b815260040161050790612de7565b3360009081526001602052604090205460ff166112445760405162461bcd60e51b815260040161050790612f8a565b600061125085856123bf565b9050801561136757600080546040516337c61fc560e11b8152620100009091046001600160a01b031690636f8c3f8a9061128f90600390600401612d8c565b60206040518083038186803b1580156112a757600080fd5b505afa1580156112bb573d6000803e3d6000fd5b505050506040513d601f19601f820116820180604052508101906112df9190612a5a565b6001600160a01b03166344fc9b566040518163ffffffff1660e01b815260040160206040518083038186803b15801561131757600080fd5b505afa15801561132b573d6000803e3d6000fd5b505050506040513d601f19601f8201168201806040525081019061134f9190612a5a565b90506113656001600160a01b03821686846124c2565b505b949350505050565b6001600160a01b038316600090815260056020526040902054839060ff166113a95760405162461bcd60e51b815260040161050790612de7565b3360009081526001602052604090205460ff166113d85760405162461bcd60e51b815260040161050790612f8a565b60006113e385611d76565b905060006113f086611808565b805190915064e8d4a510009061140f906001600160801b0316876130d5565b61141991906130b5565b60008381526006602090815260408083206001600160a01b03891684529091528120805490919061144b9084906130f4565b9091555050505050505050565b3360009081526001602052604081205460ff166114875760405162461bcd60e51b815260040161050790612f8a565b600080546040516337c61fc560e11b8152620100009091046001600160a01b031690636f8c3f8a906114be90600390600401612d8c565b60206040518083038186803b1580156114d657600080fd5b505afa1580156114ea573d6000803e3d6000fd5b505050506040513d601f19601f8201168201806040525081019061150e9190612a5a565b90506000816001600160a01b031663f35823736040518163ffffffff1660e01b815260040160206040518083038186803b15801561154b57600080fd5b505afa15801561155f573d6000803e3d6000fd5b505050506040513d601f19601f820116820180604052508101906115839190612cd3565b90506000805b8281101561165857604051630cf99be760e31b8152600481018290526000906001600160a01b038616906367ccdf389060240160206040518083038186803b1580156115d457600080fd5b505afa1580156115e8573d6000803e3d6000fd5b505050506040513d601f19601f8201168201806040525081019061160c9190612a5a565b6001600160a01b03811660009081526005602052604090205490915060ff16156116475761163a81886123bf565b611644908461309d565b92505b5061165181613176565b9050611589565b50801561136757600080546040516337c61fc560e11b8152620100009091046001600160a01b031690636f8c3f8a9061169690600390600401612d8c565b60206040518083038186803b1580156116ae57600080fd5b505afa1580156116c2573d6000803e3d6000fd5b505050506040513d601f19601f820116820180604052508101906116e69190612a5a565b6001600160a01b03166344fc9b566040518163ffffffff1660e01b815260040160206040518083038186803b15801561171e57600080fd5b505afa158015611732573d6000803e3d6000fd5b505050506040513d601f19601f820116820180604052508101906117569190612a5a565b90506113656001600160a01b03821687846124c2565b3360009081526001602052604090205460ff1661179b5760405162461bcd60e51b815260040161050790612f8a565b600081116118035760405162461bcd60e51b815260206004820152602f60248201527f42696f73456d69747465723a3a696e637265617365526577617264733a20436160448201526e06e6e6f7420696e637265617365203608c1b6064820152608401610507565b610983825b6040805160808101825260008082526020808301829052828401829052606083018290526001600160a01b0385168252600590529190912054829060ff166118625760405162461bcd60e51b815260040161050790612de7565b600061186d84611d76565b90506003818154811061189057634e487b7160e01b600052603260045260246000fd5b600091825260209182902060408051608081018252600290930290910180546001600160801b03811684526001600160401b03600160801b82048116958501869052600160c01b90910416918301919091526001015460ff16151560608201529350431115611a9857600061190485612169565b9050801561199857600084602001516001600160401b0316436119279190613133565b9050600060085486604001516001600160401b03166007548461194a91906130d5565b61195491906130d5565b61195e91906130b5565b90508261197064e8d4a51000836130d5565b61197a91906130b5565b86518790611989908390613072565b6001600160801b031690525050505b6001600160401b034316602085015260038054859190849081106119cc57634e487b7160e01b600052603260045260246000fd5b60009182526020918290208351600292909202018054848401516040808701516001600160801b039586166001600160c01b031990941693909317600160801b6001600160401b0393841602176001600160c01b0316600160c01b938316939093029290921783556060958601516001909301805460ff191693151593909317909255888401518951825191909316815293840186905291169082015283917f0fc9545022a542541ad085d091fb09a2ab36fee366a4576ab63714ea907ad353910160405180910390a2505b5050919050565b600054610100900460ff16611aba5760005460ff1615611ac2565b611ac2612514565b611ade5760405162461bcd60e51b815260040161050790612e79565b600054610100900460ff16158015611b00576000805461ffff19166101011790555b81600081118015611b1a575068056bc75e2d631000008111155b611b365760405162461bcd60e51b815260040161050790612eec565b611b408585612525565b60078390556040518381526000805160206131d68339815191529060200160405180910390a1508015610d73576000805461ff001916905550505050565b600080546040516337c61fc560e11b8152620100009091046001600160a01b031691636f8c3f8a91611bb39190600401612d8c565b60206040518083038186803b158015611bcb57600080fd5b505afa158015611bdf573d6000803e3d6000fd5b505050506040513d601f19601f82011682018060405250810190611c039190612a5a565b6001600160a01b0316632f54bf6e336040518263ffffffff1660e01b8152600401611c2e9190612d2b565b60206040518083038186803b158015611c4657600080fd5b505afa158015611c5a573d6000803e3d6000fd5b505050506040513d601f19601f82011682018060405250810190611c7e9190612c9b565b611c9a5760405162461bcd60e51b815260040161050790612e2f565b6001600160a01b03811660009081526001602081905260408220805460ff19169091179055805b600254811015611d205760028181548110611cec57634e487b7160e01b600052603260045260246000fd5b6000918252602090912001546001600160a01b0384811691161415611d1057600191505b611d1981613176565b9050611cc1565b5080611d7257600280546001810182556000919091527f405787fa12a823e0f2b7631cc41b3ba8828b3321ca811111fa75cd3aa3bb5ace0180546001600160a01b0319166001600160a01b0384161790555b5050565b6001600160a01b038116600090815260056020526040812054829060ff16611db05760405162461bcd60e51b815260040161050790612de7565b50506001600160a01b031660009081526004602052604090205490565b600080546040516337c61fc560e11b8152620100009091046001600160a01b031691636f8c3f8a91611e029190600401612d8c565b60206040518083038186803b158015611e1a57600080fd5b505afa158015611e2e573d6000803e3d6000fd5b505050506040513d601f19601f82011682018060405250810190611e529190612a5a565b6001600160a01b0316632f54bf6e336040518263ffffffff1660e01b8152600401611e7d9190612d2b565b60206040518083038186803b158015611e9557600080fd5b505afa158015611ea9573d6000803e3d6000fd5b505050506040513d601f19601f82011682018060405250810190611ecd9190612c9b565b611ee95760405162461bcd60e51b815260040161050790612e2f565b80600081118015611f03575068056bc75e2d631000008111155b611f1f5760405162461bcd60e51b815260040161050790612eec565b60078290556040518281526000805160206131d68339815191529060200160405180910390a15050565b3360009081526001602052604090205460ff16611f785760405162461bcd60e51b815260040161050790612f8a565b600081116118035760405162461bcd60e51b815260206004820152602f60248201527f42696f73456d69747465723a3a6465637265617365526577617264733a20436160448201526e06e6e6f74206465637265617365203608c1b6064820152608401610507565b60028181548110611ff057600080fd5b6000918252602090912001546001600160a01b0316905081565b6001600160a01b0382166000908152600560205260408120548190849060ff166120465760405162461bcd60e51b815260040161050790612de7565b600061205186611d76565b905061205d8686612271565b60009182526006602090815260408084206001600160a01b03989098168452969052949020549395939450505050565b6001600160a01b038316600090815260056020526040902054839060ff166120c75760405162461bcd60e51b815260040161050790612de7565b3360009081526001602052604090205460ff166120f65760405162461bcd60e51b815260040161050790612f8a565b600061210185611d76565b9050600061210e86611808565b805190915064e8d4a510009061212d906001600160801b0316876130d5565b61213791906130b5565b60008381526006602090815260408083206001600160a01b03891684529091528120805490919061144b908490613031565b600080546040516337c61fc560e11b8152620100009091046001600160a01b031690636f8c3f8a906121a090600190600401612d8c565b60206040518083038186803b1580156121b857600080fd5b505afa1580156121cc573d6000803e3d6000fd5b505050506040513d601f19601f820116820180604052508101906121f09190612a5a565b6001600160a01b031663f5465992836040518263ffffffff1660e01b815260040161221b9190612d2b565b60206040518083038186803b15801561223357600080fd5b505afa158015612247573d6000803e3d6000fd5b505050506040513d601f19601f8201168201806040525081019061226b9190612cd3565b92915050565b600080546040516337c61fc560e11b8152620100009091046001600160a01b031690636f8c3f8a906122a890600190600401612d8c565b60206040518083038186803b1580156122c057600080fd5b505afa1580156122d4573d6000803e3d6000fd5b505050506040513d601f19601f820116820180604052508101906122f89190612a5a565b60405163168e0c9960e31b81526001600160a01b0385811660048301528481166024830152919091169063b47064c89060440160206040518083038186803b15801561234357600080fd5b505afa158015612357573d6000803e3d6000fd5b505050506040513d601f19601f82011682018060405250810190610dee9190612cd3565b6000808212156123bb5760405162461bcd60e51b815260206004820152600b60248201526a0496e7465676572203c20360ac1b6044820152606401610507565b5090565b6000806123cb84611d76565b905060006123d885611808565b905060006123e68686612271565b9050806123f9576000935050505061226b565b815160009064e8d4a5100090612418906001600160801b0316846130d5565b61242291906130b5565b60008581526006602090815260408083206001600160a01b038b16845290915281205491925090612457906106a590846130f4565b60008681526006602090815260408083206001600160a01b038c1680855290835292819020869055518381529293509091879130917f0830af60eeb407b13c69c9c7464576e8f2d0055b6609704d2d61e5dee390a63a910160405180910390a4979650505050505050565b604080516001600160a01b038416602482015260448082018490528251808303909101815260649091019091526020810180516001600160e01b031663a9059cbb60e01b1790526109839084906126ca565b600061251f3061279c565b15905090565b600054610100900460ff166125405760005460ff1615612548565b612548612514565b6125645760405162461bcd60e51b815260040161050790612e79565b600054610100900460ff16158015612586576000805461ffff19166101011790555b6001600160a01b0382166125ac5760405162461bcd60e51b815260040161050790612ec7565b60005b83518110156126225760006001600160a01b03168482815181106125e357634e487b7160e01b600052603260045260246000fd5b60200260200101516001600160a01b031614156126125760405162461bcd60e51b815260040161050790612ec7565b61261b81613176565b90506125af565b5060005b835181101561269657600180600086848151811061265457634e487b7160e01b600052603260045260246000fd5b6020908102919091018101516001600160a01b03168252810191909152604001600020805460ff191691151591909117905561268f81613176565b9050612626565b5082516126aa906002906020860190612955565b506126b4826127ab565b8015610983576000805461ff0019169055505050565b600061271f826040518060400160405280602081526020017f5361666545524332303a206c6f772d6c6576656c2063616c6c206661696c6564815250856001600160a01b03166128439092919063ffffffff16565b805190915015610983578080602001905181019061273d9190612c9b565b6109835760405162461bcd60e51b815260206004820152602a60248201527f5361666545524332303a204552433230206f7065726174696f6e20646964206e6044820152691bdd081cdd58d8d9595960b21b6064820152608401610507565b6001600160a01b03163b151590565b600054610100900460ff166127c65760005460ff16156127ce565b6127ce612514565b6127ea5760405162461bcd60e51b815260040161050790612e79565b600054610100900460ff1615801561280c576000805461ffff19166101011790555b6000805462010000600160b01b031916620100006001600160a01b038516021790558015611d72576000805461ff00191690555050565b60606113678484600085856128578561279c565b6128a35760405162461bcd60e51b815260206004820152601d60248201527f416464726573733a2063616c6c20746f206e6f6e2d636f6e74726163740000006044820152606401610507565b600080866001600160a01b031685876040516128bf9190612d0f565b60006040518083038185875af1925050503d80600081146128fc576040519150601f19603f3d011682016040523d82523d6000602084013e612901565b606091505b509150915061291182828661291c565b979650505050505050565b6060831561292b575081610dee565b82511561293b5782518084602001fd5b8160405162461bcd60e51b81526004016105079190612db4565b8280548282559060005260206000209081019282156129aa579160200282015b828111156129aa57825182546001600160a01b0319166001600160a01b03909116178255602090920191600190910190612975565b506123bb9291505b808211156123bb57600081556001016129b2565b600082601f8301126129d6578081fd5b813560206129eb6129e68361300e565b612fde565b80838252828201915082860187848660051b8901011115612a0a578586fd5b855b85811015612a31578135612a1f816131bd565b84529284019290840190600101612a0c565b5090979650505050505050565b600060208284031215612a4f578081fd5b8135610dee816131bd565b600060208284031215612a6b578081fd5b8151610dee816131bd565b60008060408385031215612a88578081fd5b8235612a93816131bd565b91506020830135612aa3816131bd565b809150509250929050565b60008060408385031215612ac0578182fd5b8235612acb816131bd565b946020939093013593505050565b600080600060608486031215612aed578081fd5b8335612af8816131bd565b9250602084013591506040840135612b0f816131bd565b809150509250925092565b60008060208385031215612b2c578182fd5b82356001600160401b0380821115612b42578384fd5b818501915085601f830112612b55578384fd5b813581811115612b63578485fd5b8660208260051b8501011115612b77578485fd5b60209290920196919550909350505050565b600080600060608486031215612b9d578283fd5b83356001600160401b03811115612bb2578384fd5b612bbe868287016129c6565b9350506020840135612bcf816131bd565b929592945050506040919091013590565b60008060408385031215612bf2578182fd5b82356001600160401b0380821115612c08578384fd5b612c14868387016129c6565b9350602091508185013581811115612c2a578384fd5b85019050601f81018613612c3c578283fd5b8035612c4a6129e68261300e565b80828252848201915084840189868560051b8701011115612c69578687fd5b8694505b83851015612c8b578035835260019490940193918501918501612c6d565b5080955050505050509250929050565b600060208284031215612cac578081fd5b81518015158114610dee578182fd5b600060208284031215612ccc578081fd5b5035919050565b600060208284031215612ce4578081fd5b5051919050565b60008060408385031215612cfd578182fd5b823591506020830135612aa3816131bd565b60008251612d2181846020870161314a565b9190910192915050565b6001600160a01b0391909116815260200190565b6020808252825182820181905260009190848201906040850190845b81811015612d805783516001600160a01b031683529284019291840191600101612d5b565b50909695505050505050565b60208101600e8310612dae57634e487b7160e01b600052602160045260246000fd5b91905290565b6020815260008251806020840152612dd381604085016020870161314a565b601f01601f19169190910160400192915050565b60208082526028908201527f42696f73456d69747465723a3a6578697374733a20506f6f6c20646f6573206e6040820152671bdd08195e1a5cdd60c21b606082015260800190565b6020808252602a908201527f436f6e74726f6c6c65643a3a6f6e6c794f776e65723a2043616c6c6572206973604082015269103737ba1037bbb732b960b11b606082015260800190565b6020808252602e908201527f496e697469616c697a61626c653a20636f6e747261637420697320616c72656160408201526d191e481a5b9a5d1a585b1a5e995960921b606082015260800190565b6020808252600b908201526a626164206164647265737360a81b604082015260600190565b60208082526072908201527f42696f73456d69747465723a3a76616c696442696f73506572426c6f636b3a2060408201527f496e76616c69642076616c75652e2062696f735f7065725f626c6f636b206d7560608201527f73742062652067726561746572207468616e2030206f72206c6573732074686160808201527106e206f7220657175616c20746f20316532360741b60a082015260c00190565b60208082526034908201527f436f6e74726f6c6c65643a3a6f6e6c79436f6e74726f6c6c65723a2043616c6c60408201527332b91034b9903737ba1031b7b73a3937b63632b960611b606082015260800190565b604051601f8201601f191681016001600160401b0381118282101715613006576130066131a7565b604052919050565b60006001600160401b03821115613027576130276131a7565b5060051b60200190565b600080821280156001600160ff1b038490038513161561305357613053613191565b600160ff1b839003841281161561306c5761306c613191565b50500190565b60006001600160801b0382811684821680830382111561309457613094613191565b01949350505050565b600082198211156130b0576130b0613191565b500190565b6000826130d057634e487b7160e01b81526012600452602481fd5b500490565b60008160001904831182151516156130ef576130ef613191565b500290565b60008083128015600160ff1b85018412161561311257613112613191565b6001600160ff1b038401831381161561312d5761312d613191565b50500390565b60008282101561314557613145613191565b500390565b60005b8381101561316557818101518382015260200161314d565b83811115610d735750506000910152565b600060001982141561318a5761318a613191565b5060010190565b634e487b7160e01b600052601160045260246000fd5b634e487b7160e01b600052604160045260246000fd5b6001600160a01b03811681146131d257600080fd5b5056fe970b146690d99254ca12e29f3d32d374ce4f967b6a2bad535a0a3c82c76e0707a26469706673582212206ec24cc62581ef1488251364f57a6a1e068301129da9367b7434fb4c0c8d15d564736f6c63430008040033",
  "devdoc": {
    "kind": "dev",
    "methods": {
      "addPool(address,uint256)": {
        "params": {
          "_allocPoint": "AP of the new pool.",
          "_token": "Address of the LP ERC-20 token."
        }
      },
      "deposit(address,uint256,address)": {
        "params": {
          "_amount": "LP token amount to deposit.",
          "_depositor": "The receiver of `amount` deposit benefit."
        }
      },
      "getPoolInfo(address)": {
        "params": {
          "_token": "address of underlying token"
        },
        "returns": {
          "_0": "uint128 accBiosPerShare; uint64 lastRewardBlock;"
        }
      },
      "getUserInfo(address,address)": {
        "params": {
          "_user": "address of user"
        },
        "returns": {
          "_0": "user.amount and user.rewardDebt"
        }
      },
      "harvest(address,address)": {
        "params": {
          "_harvester": "Receiver of BIOS rewards."
        }
      },
      "massUpdatePools(address[])": {
        "params": {
          "_tokens": "Pool IDs of all to be updated. Make sure to update all active pools."
        }
      },
      "pendingBios(address,address)": {
        "params": {
          "_user": "Address of user."
        },
        "returns": {
          "pending": "BIOS reward for a given user."
        }
      },
      "setBiosPerBlock(uint256)": {
        "params": {
          "_bios_per_block": "# of BIOS per block"
        }
      },
      "setPool(address,uint256)": {
        "params": {
          "_allocPoint": "New AP of the pool.",
          "_token": "The address of the token."
        }
      },
      "updatePool(address)": {
        "returns": {
          "pool": "Returns the pool that was updated."
        }
      },
      "withdraw(address,uint256,address)": {
        "params": {
          "_amount": "LP token amount to withdraw.",
          "_withdrawer": "Receiver of the LP tokens."
        }
      }
    },
    "stateVariables": {
      "totalAllocPoint": {
        "details": "Total allocation points. Must be the sum of all allocation points in all pools."
      }
    },
    "version": 1
  },
  "userdoc": {
    "kind": "user",
    "methods": {
      "addPool(address,uint256)": {
        "notice": "Add a new LP to the pool. Can only be called by the owner. DO NOT add the same LP token more than once. Rewards will be messed up if you do."
      },
      "deposit(address,uint256,address)": {
        "notice": "Deposit LP tokens to MC for BIOS allocation. MUST be called before UserPositions is updated!"
      },
      "getPoolInfo(address)": {
        "notice": "Get Latest Pool Info"
      },
      "getUserInfo(address,address)": {
        "notice": "Get Latest User Info"
      },
      "harvest(address,address)": {
        "notice": "Harvest proceeds for transaction sender to `to`."
      },
      "massUpdatePools(address[])": {
        "notice": "Update reward variables for all pools. Be careful of gas spending!"
      },
      "pendingBios(address,address)": {
        "notice": "View function to see pending BIOS on frontend."
      },
      "pid(address)": {
        "notice": "token address mapping to pool index"
      },
      "poolInfo(uint256)": {
        "notice": "Info of each MCV2 pool."
      },
      "rewardDebt(uint256,address)": {
        "notice": "Info of each user that stakes LP tokens."
      },
      "setBiosPerBlock(uint256)": {
        "notice": "Set the number of bios per block"
      },
      "setPool(address,uint256)": {
        "notice": "Update the given pool's BIOS allocation point. Can only be called by the owner."
      },
      "updatePool(address)": {
        "notice": "Update reward variables of the given pool.IMPORTANT! If being called as part of a UserPositions update, it must be called before UserPositions state has been updated!"
      },
      "withdraw(address,uint256,address)": {
        "notice": "Withdraw LP tokens from MC. MUST be called before UserPositions is updated!"
      }
    },
    "version": 1
  },
  "storageLayout": {
    "storage": [
      {
        "astId": 702,
        "contract": "contracts/core/BiosEmitterV0.sol:BiosEmitterV0",
        "label": "_initialized",
        "offset": 0,
        "slot": "0",
        "type": "t_bool"
      },
      {
        "astId": 705,
        "contract": "contracts/core/BiosEmitterV0.sol:BiosEmitterV0",
        "label": "_initializing",
        "offset": 1,
        "slot": "0",
        "type": "t_bool"
      },
      {
        "astId": 11341,
        "contract": "contracts/core/BiosEmitterV0.sol:BiosEmitterV0",
        "label": "moduleMap",
        "offset": 2,
        "slot": "0",
        "type": "t_contract(IModuleMap)22677"
      },
      {
        "astId": 5851,
        "contract": "contracts/core/BiosEmitterV0.sol:BiosEmitterV0",
        "label": "_controllers",
        "offset": 0,
        "slot": "1",
        "type": "t_mapping(t_address,t_bool)"
      },
      {
        "astId": 5854,
        "contract": "contracts/core/BiosEmitterV0.sol:BiosEmitterV0",
        "label": "controllers",
        "offset": 0,
        "slot": "2",
        "type": "t_array(t_address)dyn_storage"
      },
      {
        "astId": 3774,
        "contract": "contracts/core/BiosEmitterV0.sol:BiosEmitterV0",
        "label": "poolInfo",
        "offset": 0,
        "slot": "3",
        "type": "t_array(t_struct(PoolInfo)20978_storage)dyn_storage"
      },
      {
        "astId": 3779,
        "contract": "contracts/core/BiosEmitterV0.sol:BiosEmitterV0",
        "label": "pid",
        "offset": 0,
        "slot": "4",
        "type": "t_mapping(t_address,t_uint256)"
      },
      {
        "astId": 3783,
        "contract": "contracts/core/BiosEmitterV0.sol:BiosEmitterV0",
        "label": "addedPools",
        "offset": 0,
        "slot": "5",
        "type": "t_mapping(t_address,t_bool)"
      },
      {
        "astId": 3790,
        "contract": "contracts/core/BiosEmitterV0.sol:BiosEmitterV0",
        "label": "rewardDebt",
        "offset": 0,
        "slot": "6",
        "type": "t_mapping(t_uint256,t_mapping(t_address,t_int256))"
      },
      {
        "astId": 3792,
        "contract": "contracts/core/BiosEmitterV0.sol:BiosEmitterV0",
        "label": "bios_per_block",
        "offset": 0,
        "slot": "7",
        "type": "t_uint256"
      },
      {
        "astId": 3798,
        "contract": "contracts/core/BiosEmitterV0.sol:BiosEmitterV0",
        "label": "totalAllocPoint",
        "offset": 0,
        "slot": "8",
        "type": "t_uint256"
      }
    ],
    "types": {
      "t_address": {
        "encoding": "inplace",
        "label": "address",
        "numberOfBytes": "20"
      },
      "t_array(t_address)dyn_storage": {
        "base": "t_address",
        "encoding": "dynamic_array",
        "label": "address[]",
        "numberOfBytes": "32"
      },
      "t_array(t_struct(PoolInfo)20978_storage)dyn_storage": {
        "base": "t_struct(PoolInfo)20978_storage",
        "encoding": "dynamic_array",
        "label": "struct IBiosEmitter.PoolInfo[]",
        "numberOfBytes": "32"
      },
      "t_bool": {
        "encoding": "inplace",
        "label": "bool",
        "numberOfBytes": "1"
      },
      "t_contract(IModuleMap)22677": {
        "encoding": "inplace",
        "label": "contract IModuleMap",
        "numberOfBytes": "20"
      },
      "t_int256": {
        "encoding": "inplace",
        "label": "int256",
        "numberOfBytes": "32"
      },
      "t_mapping(t_address,t_bool)": {
        "encoding": "mapping",
        "key": "t_address",
        "label": "mapping(address => bool)",
        "numberOfBytes": "32",
        "value": "t_bool"
      },
      "t_mapping(t_address,t_int256)": {
        "encoding": "mapping",
        "key": "t_address",
        "label": "mapping(address => int256)",
        "numberOfBytes": "32",
        "value": "t_int256"
      },
      "t_mapping(t_address,t_uint256)": {
        "encoding": "mapping",
        "key": "t_address",
        "label": "mapping(address => uint256)",
        "numberOfBytes": "32",
        "value": "t_uint256"
      },
      "t_mapping(t_uint256,t_mapping(t_address,t_int256))": {
        "encoding": "mapping",
        "key": "t_uint256",
        "label": "mapping(uint256 => mapping(address => int256))",
        "numberOfBytes": "32",
        "value": "t_mapping(t_address,t_int256)"
      },
      "t_struct(PoolInfo)20978_storage": {
        "encoding": "inplace",
        "label": "struct IBiosEmitter.PoolInfo",
        "members": [
          {
            "astId": 20971,
            "contract": "contracts/core/BiosEmitterV0.sol:BiosEmitterV0",
            "label": "accBiosPerShare",
            "offset": 0,
            "slot": "0",
            "type": "t_uint128"
          },
          {
            "astId": 20973,
            "contract": "contracts/core/BiosEmitterV0.sol:BiosEmitterV0",
            "label": "lastRewardBlock",
            "offset": 16,
            "slot": "0",
            "type": "t_uint64"
          },
          {
            "astId": 20975,
            "contract": "contracts/core/BiosEmitterV0.sol:BiosEmitterV0",
            "label": "allocPoint",
            "offset": 24,
            "slot": "0",
            "type": "t_uint64"
          },
          {
            "astId": 20977,
            "contract": "contracts/core/BiosEmitterV0.sol:BiosEmitterV0",
            "label": "initialized",
            "offset": 0,
            "slot": "1",
            "type": "t_bool"
          }
        ],
        "numberOfBytes": "64"
      },
      "t_uint128": {
        "encoding": "inplace",
        "label": "uint128",
        "numberOfBytes": "16"
      },
      "t_uint256": {
        "encoding": "inplace",
        "label": "uint256",
        "numberOfBytes": "32"
      },
      "t_uint64": {
        "encoding": "inplace",
        "label": "uint64",
        "numberOfBytes": "8"
      }
    }
  }
}