{
  "address": "0x9D31Cfaf51eF470D8c10Defb67cfCE4Bfd6c0FBB",
  "abi": [
    {
      "anonymous": false,
      "inputs": [
        {
          "indexed": true,
          "internalType": "address",
          "name": "token",
          "type": "address"
        },
        {
          "indexed": false,
          "internalType": "uint256",
          "name": "reward",
          "type": "uint256"
        },
        {
          "indexed": false,
          "internalType": "uint32",
          "name": "duration",
          "type": "uint32"
        }
      ],
      "name": "RewardAdded",
      "type": "event"
    },
    {
      "inputs": [
        {
          "internalType": "address[]",
          "name": "controllers_",
          "type": "address[]"
        },
        {
          "internalType": "address",
          "name": "moduleMap_",
          "type": "address"
        }
      ],
      "name": "__Controlled_init",
      "outputs": [],
      "stateMutability": "nonpayable",
      "type": "function"
    },
    {
      "inputs": [
        {
          "internalType": "address",
          "name": "controller",
          "type": "address"
        }
      ],
      "name": "addController",
      "outputs": [],
      "stateMutability": "nonpayable",
      "type": "function"
    },
    {
      "inputs": [
        {
          "internalType": "address",
          "name": "token",
          "type": "address"
        },
        {
          "internalType": "address",
          "name": "account",
          "type": "address"
        }
      ],
      "name": "claimReward",
      "outputs": [
        {
          "internalType": "uint256",
          "name": "reward",
          "type": "uint256"
        }
      ],
      "stateMutability": "nonpayable",
      "type": "function"
    },
    {
      "inputs": [
        {
          "internalType": "uint256",
          "name": "",
          "type": "uint256"
        }
      ],
      "name": "controllers",
      "outputs": [
        {
          "internalType": "address",
          "name": "",
          "type": "address"
        }
      ],
      "stateMutability": "view",
      "type": "function"
    },
    {
      "inputs": [
        {
          "internalType": "address",
          "name": "token",
          "type": "address"
        },
        {
          "internalType": "address",
          "name": "account",
          "type": "address"
        },
        {
          "internalType": "uint256",
          "name": "amount",
          "type": "uint256"
        }
      ],
      "name": "decreaseRewards",
      "outputs": [],
      "stateMutability": "nonpayable",
      "type": "function"
    },
    {
      "inputs": [
        {
          "internalType": "address",
          "name": "token",
          "type": "address"
        },
        {
          "internalType": "address",
          "name": "account",
          "type": "address"
        }
      ],
      "name": "earned",
      "outputs": [
        {
          "internalType": "uint256",
          "name": "",
          "type": "uint256"
        }
      ],
      "stateMutability": "view",
      "type": "function"
    },
    {
      "inputs": [],
      "name": "getBiosRewards",
      "outputs": [
        {
          "internalType": "uint256",
          "name": "",
          "type": "uint256"
        }
      ],
      "stateMutability": "view",
      "type": "function"
    },
    {
      "inputs": [],
      "name": "getTotalClaimedBiosRewards",
      "outputs": [
        {
          "internalType": "uint256",
          "name": "",
          "type": "uint256"
        }
      ],
      "stateMutability": "view",
      "type": "function"
    },
    {
      "inputs": [
        {
          "internalType": "address",
          "name": "account",
          "type": "address"
        }
      ],
      "name": "getTotalUserClaimedBiosRewards",
      "outputs": [
        {
          "internalType": "uint256",
          "name": "",
          "type": "uint256"
        }
      ],
      "stateMutability": "view",
      "type": "function"
    },
    {
      "inputs": [
        {
          "internalType": "address",
          "name": "account",
          "type": "address"
        }
      ],
      "name": "getUserBiosRewards",
      "outputs": [
        {
          "internalType": "uint256",
          "name": "userBiosRewards",
          "type": "uint256"
        }
      ],
      "stateMutability": "view",
      "type": "function"
    },
    {
      "inputs": [
        {
          "internalType": "address",
          "name": "token",
          "type": "address"
        },
        {
          "internalType": "address",
          "name": "account",
          "type": "address"
        },
        {
          "internalType": "uint256",
          "name": "amount",
          "type": "uint256"
        }
      ],
      "name": "increaseRewards",
      "outputs": [],
      "stateMutability": "nonpayable",
      "type": "function"
    },
    {
      "inputs": [
        {
          "internalType": "address[]",
          "name": "controllers_",
          "type": "address[]"
        },
        {
          "internalType": "address",
          "name": "moduleMap_",
          "type": "address"
        }
      ],
      "name": "initialize",
      "outputs": [],
      "stateMutability": "nonpayable",
      "type": "function"
    },
    {
      "inputs": [
        {
          "internalType": "address",
          "name": "token",
          "type": "address"
        }
      ],
      "name": "lastTimeRewardApplicable",
      "outputs": [
        {
          "internalType": "uint256",
          "name": "",
          "type": "uint256"
        }
      ],
      "stateMutability": "view",
      "type": "function"
    },
    {
      "inputs": [
        {
          "internalType": "address",
          "name": "",
          "type": "address"
        }
      ],
      "name": "lastUpdateTime",
      "outputs": [
        {
          "internalType": "uint256",
          "name": "",
          "type": "uint256"
        }
      ],
      "stateMutability": "view",
      "type": "function"
    },
    {
      "inputs": [],
      "name": "moduleMap",
      "outputs": [
        {
          "internalType": "contract IModuleMap",
          "name": "",
          "type": "address"
        }
      ],
      "stateMutability": "view",
      "type": "function"
    },
    {
      "inputs": [
        {
          "internalType": "address",
          "name": "token",
          "type": "address"
        },
        {
          "internalType": "uint256",
          "name": "reward",
          "type": "uint256"
        },
        {
          "internalType": "uint32",
          "name": "duration",
          "type": "uint32"
        }
      ],
      "name": "notifyRewardAmount",
      "outputs": [],
      "stateMutability": "nonpayable",
      "type": "function"
    },
    {
      "inputs": [
        {
          "internalType": "address",
          "name": "",
          "type": "address"
        }
      ],
      "name": "periodFinish",
      "outputs": [
        {
          "internalType": "uint256",
          "name": "",
          "type": "uint256"
        }
      ],
      "stateMutability": "view",
      "type": "function"
    },
    {
      "inputs": [
        {
          "internalType": "address",
          "name": "token",
          "type": "address"
        }
      ],
      "name": "rewardPerToken",
      "outputs": [
        {
          "internalType": "uint256",
          "name": "",
          "type": "uint256"
        }
      ],
      "stateMutability": "view",
      "type": "function"
    },
    {
      "inputs": [
        {
          "internalType": "address",
          "name": "",
          "type": "address"
        }
      ],
      "name": "rewardPerTokenStored",
      "outputs": [
        {
          "internalType": "uint256",
          "name": "",
          "type": "uint256"
        }
      ],
      "stateMutability": "view",
      "type": "function"
    },
    {
      "inputs": [
        {
          "internalType": "address",
          "name": "",
          "type": "address"
        }
      ],
      "name": "rewardRate",
      "outputs": [
        {
          "internalType": "uint256",
          "name": "",
          "type": "uint256"
        }
      ],
      "stateMutability": "view",
      "type": "function"
    },
    {
      "inputs": [
        {
          "internalType": "address",
          "name": "",
          "type": "address"
        },
        {
          "internalType": "address",
          "name": "",
          "type": "address"
        }
      ],
      "name": "rewards",
      "outputs": [
        {
          "internalType": "uint256",
          "name": "",
          "type": "uint256"
        }
      ],
      "stateMutability": "view",
      "type": "function"
    },
    {
      "inputs": [
        {
          "internalType": "address",
          "name": "",
          "type": "address"
        },
        {
          "internalType": "address",
          "name": "",
          "type": "address"
        }
      ],
      "name": "userRewardPerTokenPaid",
      "outputs": [
        {
          "internalType": "uint256",
          "name": "",
          "type": "uint256"
        }
      ],
      "stateMutability": "view",
      "type": "function"
    }
  ],
  "transactionHash": "0x01f7c7b668ecbfe4de344fed119e4c06f729f40f4589162013b1b801033b5477",
  "args": [],
  "solcInputHash": "9a2d833a7f4efc4c6a00f7b335e25279",
  "bytecode": "0x608060405234801561001057600080fd5b506117cf806100206000396000f3fe608060405234801561001057600080fd5b50600436106101425760003560e01c8063668e6961116100b85780639ce43f901161007c5780639ce43f90146102d8578063a7fc7a07146102f8578063da09d19d1461030b578063e70b9e271461032b578063e94b0dd214610356578063f12297771461036957600080fd5b8063668e69611461024b57806367dc15bc146102745780637035ab98146102875780637b65fb1c146102b257806398c671ce146102c557600080fd5b80632ce9aead1161010a5780632ce9aead146101d757806335f6978f146101f757806341a275e4146101ff578063462d0b2e146102125780634953c78214610225578063638634ee1461023857600080fd5b80630f0a1c6f14610147578063182b69fd1461017d5780631f126bd01461018f578063211dc32d146101a4578063221ca18c146101b7575b600080fd5b600054610160906201000090046001600160a01b031681565b6040516001600160a01b0390911681526020015b60405180910390f35b6004545b604051908152602001610174565b6101a261019d366004611450565b61037c565b005b6101816101b2366004611418565b6104c9565b6101816101c53660046113e0565b60076020526000908152604090205481565b6101816101e53660046113e0565b60086020526000908152604090205481565b600354610181565b6101a261020d366004611490565b610657565b6101a26102203660046114d9565b6108af565b610181610233366004611418565b610927565b6101816102463660046113e0565b610a9e565b6101816102593660046113e0565b6001600160a01b031660009081526005602052604090205490565b6101816102823660046113e0565b610ac8565b610181610295366004611418565b600a60209081526000928352604080842090915290825290205481565b6101a26102c0366004611450565b610c74565b6101a26102d33660046114d9565b610db1565b6101816102e63660046113e0565b60096020526000908152604090205481565b6101a26103063660046113e0565b610e9b565b6101816103193660046113e0565b60066020526000908152604090205481565b610181610339366004611418565b600b60209081526000928352604080842090915290825290205481565b6101606103643660046115d2565b6110d6565b6101816103773660046113e0565b611100565b3360009081526001602052604090205460ff166103b45760405162461bcd60e51b81526004016103ab90611678565b60405180910390fd5b82826103bf82611100565b6001600160a01b0383166000908152600960205260409020556103e182610a9e565b6001600160a01b0380841660009081526008602052604090209190915581161561045a5761040f82826104c9565b6001600160a01b038084166000818152600b60209081526040808320948716808452948252808320959095559181526009825283812054600a83528482209382529290915291909120555b600083116104c25760405162461bcd60e51b815260206004820152602f60248201527f42696f73526577617264733a3a6465637265617365526577617264733a20436160448201526e06e6e6f74206465637265617365203608c1b60648201526084016103ab565b5050505050565b600080546040516337c61fc560e11b815282916201000090046001600160a01b031690636f8c3f8a9061050190600190600401611602565b60206040518083038186803b15801561051957600080fd5b505afa15801561052d573d6000803e3d6000fd5b505050506040513d601f19601f8201168201806040525081019061055191906113fc565b6001600160a01b038086166000818152600b6020908152604080832094891680845294825280832054938352600a8252808320948352939052919091205491925090670de0b6b3a7640000906105a687611100565b6105b09190611723565b60405163168e0c9960e31b81526001600160a01b038881166004830152878116602483015285169063b47064c89060440160206040518083038186803b1580156105f957600080fd5b505afa15801561060d573d6000803e3d6000fd5b505050506040513d601f19601f8201168201806040525081019061063191906115ea565b61063b9190611704565b61064591906116e4565b61064f91906116cc565b949350505050565b3360009081526001602052604090205460ff166106865760405162461bcd60e51b81526004016103ab90611678565b82600061069282611100565b6001600160a01b0383166000908152600960205260409020556106b482610a9e565b6001600160a01b0380841660009081526008602052604090209190915581161561072d576106e282826104c9565b6001600160a01b038084166000818152600b60209081526040808320948716808452948252808320959095559181526009825283812054600a83528482209382529290915291909120555b6001600160a01b038516600090815260066020526040902054421061077a5761075c63ffffffff8416856116e4565b6001600160a01b0386166000908152600760205260409020556107fe565b6001600160a01b03851660009081526006602052604081205461079e904290611723565b6001600160a01b038716600090815260076020526040812054919250906107c59083611704565b905063ffffffff85166107d882886116cc565b6107e291906116e4565b6001600160a01b03881660009081526007602052604090205550505b6001600160a01b0385166000908152600860205260409020429081905561082c9063ffffffff8516906116cc565b6001600160a01b0386166000908152600660205260408120919091556003805486929061085a9084906116cc565b90915550506040805185815263ffffffff851660208201526001600160a01b038716917f70c212f3b1a015d66b8a21bb7d6dec623050fc2fc878c5f72d30b90000414419910160405180910390a25050505050565b600054610100900460ff16806108c8575060005460ff16155b6108e45760405162461bcd60e51b81526004016103ab9061162a565b600054610100900460ff16158015610906576000805461ffff19166101011790555b6109108383610db1565b8015610922576000805461ff00191690555b505050565b3360009081526001602052604081205460ff166109565760405162461bcd60e51b81526004016103ab90611678565b828261096182611100565b6001600160a01b03831660009081526009602052604090205561098382610a9e565b6001600160a01b038084166000908152600860205260409020919091558116156109fc576109b182826104c9565b6001600160a01b038084166000818152600b60209081526040808320948716808452948252808320959095559181526009825283812054600a83528482209382529290915291909120555b610a0685856104c9565b92508215610a96576001600160a01b038086166000908152600b60209081526040808320938816835292905290812081905560038054859290610a4a908490611723565b925050819055508260046000828254610a6391906116cc565b90915550506001600160a01b03841660009081526005602052604081208054859290610a909084906116cc565b90915550505b505092915050565b6001600160a01b038116600090815260066020526040812054610ac29042906112b2565b92915050565b600080546040516337c61fc560e11b815282916201000090046001600160a01b031690636f8c3f8a90610b0090600390600401611602565b60206040518083038186803b158015610b1857600080fd5b505afa158015610b2c573d6000803e3d6000fd5b505050506040513d601f19601f82011682018060405250810190610b5091906113fc565b905060005b816001600160a01b031663f35823736040518163ffffffff1660e01b815260040160206040518083038186803b158015610b8e57600080fd5b505afa158015610ba2573d6000803e3d6000fd5b505050506040513d601f19601f82011682018060405250810190610bc691906115ea565b811015610c6d57604051630cf99be760e31b815260048101829052610c4f906001600160a01b038416906367ccdf389060240160206040518083038186803b158015610c1157600080fd5b505afa158015610c25573d6000803e3d6000fd5b505050506040513d601f19601f82011682018060405250810190610c4991906113fc565b856104c9565b610c5990846116cc565b925080610c658161173a565b915050610b55565b5050919050565b3360009081526001602052604090205460ff16610ca35760405162461bcd60e51b81526004016103ab90611678565b8282610cae82611100565b6001600160a01b038316600090815260096020526040902055610cd082610a9e565b6001600160a01b03808416600090815260086020526040902091909155811615610d4957610cfe82826104c9565b6001600160a01b038084166000818152600b60209081526040808320948716808452948252808320959095559181526009825283812054600a83528482209382529290915291909120555b600083116104c25760405162461bcd60e51b815260206004820152602f60248201527f42696f73526577617264733a3a696e637265617365526577617264733a20436160448201526e06e6e6f7420696e637265617365203608c1b60648201526084016103ab565b600054610100900460ff1680610dca575060005460ff16155b610de65760405162461bcd60e51b81526004016103ab9061162a565b600054610100900460ff16158015610e08576000805461ffff19166101011790555b60005b8351811015610e7d576001806000868481518110610e3957634e487b7160e01b600052603260045260246000fd5b6020908102919091018101516001600160a01b03168252810191909152604001600020805460ff191691151591909117905580610e758161173a565b915050610e0b565b508251610e91906002906020860190611356565b50610910826112c8565b600080546040516337c61fc560e11b8152620100009091046001600160a01b031691636f8c3f8a91610ed09190600401611602565b60206040518083038186803b158015610ee857600080fd5b505afa158015610efc573d6000803e3d6000fd5b505050506040513d601f19601f82011682018060405250810190610f2091906113fc565b6040516317aa5fb760e11b81523360048201526001600160a01b039190911690632f54bf6e9060240160206040518083038186803b158015610f6157600080fd5b505afa158015610f75573d6000803e3d6000fd5b505050506040513d601f19601f82011682018060405250810190610f9991906115b2565b610ff85760405162461bcd60e51b815260206004820152602a60248201527f436f6e74726f6c6c65643a3a6f6e6c794f776e65723a2043616c6c6572206973604482015269103737ba1037bbb732b960b11b60648201526084016103ab565b6001600160a01b03811660009081526001602081905260408220805460ff19169091179055805b600254811015611080576002818154811061104a57634e487b7160e01b600052603260045260246000fd5b6000918252602090912001546001600160a01b038481169116141561106e57600191505b806110788161173a565b91505061101f565b50806110d257600280546001810182556000919091527f405787fa12a823e0f2b7631cc41b3ba8828b3321ca811111fa75cd3aa3bb5ace0180546001600160a01b0319166001600160a01b0384161790555b5050565b600281815481106110e657600080fd5b6000918252602090912001546001600160a01b0316905081565b600080546040516337c61fc560e11b815282916201000090046001600160a01b031690636f8c3f8a9061113890600190600401611602565b60206040518083038186803b15801561115057600080fd5b505afa158015611164573d6000803e3d6000fd5b505050506040513d601f19601f8201168201806040525081019061118891906113fc565b604051637aa32cc960e11b81526001600160a01b038581166004830152919091169063f54659929060240160206040518083038186803b1580156111cb57600080fd5b505afa1580156111df573d6000803e3d6000fd5b505050506040513d601f19601f8201168201806040525081019061120391906115ea565b9050806112275750506001600160a01b031660009081526009602052604090205490565b6001600160a01b03831660009081526007602090815260408083205460089092529091205482919061125886610a9e565b6112629190611723565b61126c9190611704565b61127e90670de0b6b3a7640000611704565b61128891906116e4565b6001600160a01b0384166000908152600960205260409020546112ab91906116cc565b9392505050565b60008183106112c157816112ab565b5090919050565b600054610100900460ff16806112e1575060005460ff16155b6112fd5760405162461bcd60e51b81526004016103ab9061162a565b600054610100900460ff1615801561131f576000805461ffff19166101011790555b6000805462010000600160b01b031916620100006001600160a01b0385160217905580156110d2576000805461ff00191690555050565b8280548282559060005260206000209081019282156113ab579160200282015b828111156113ab57825182546001600160a01b0319166001600160a01b03909116178255602090920191600190910190611376565b506113b79291506113bb565b5090565b5b808211156113b757600081556001016113bc565b80356113db81611781565b919050565b6000602082840312156113f1578081fd5b81356112ab81611781565b60006020828403121561140d578081fd5b81516112ab81611781565b6000806040838503121561142a578081fd5b823561143581611781565b9150602083013561144581611781565b809150509250929050565b600080600060608486031215611464578081fd5b833561146f81611781565b9250602084013561147f81611781565b929592945050506040919091013590565b6000806000606084860312156114a4578283fd5b83356114af81611781565b925060208401359150604084013563ffffffff811681146114ce578182fd5b809150509250925092565b600080604083850312156114eb578182fd5b823567ffffffffffffffff80821115611502578384fd5b818501915085601f830112611515578384fd5b81356020828211156115295761152961176b565b8160051b604051601f19603f8301168101818110868211171561154e5761154e61176b565b604052838152828101945085830182870184018b101561156c578889fd5b8896505b8487101561159557611581816113d0565b865260019690960195948301948301611570565b5096506115a590508782016113d0565b9450505050509250929050565b6000602082840312156115c3578081fd5b815180151581146112ab578182fd5b6000602082840312156115e3578081fd5b5035919050565b6000602082840312156115fb578081fd5b5051919050565b60208101600a831061162457634e487b7160e01b600052602160045260246000fd5b91905290565b6020808252602e908201527f496e697469616c697a61626c653a20636f6e747261637420697320616c72656160408201526d191e481a5b9a5d1a585b1a5e995960921b606082015260800190565b60208082526034908201527f436f6e74726f6c6c65643a3a6f6e6c79436f6e74726f6c6c65723a2043616c6c60408201527332b91034b9903737ba1031b7b73a3937b63632b960611b606082015260800190565b600082198211156116df576116df611755565b500190565b6000826116ff57634e487b7160e01b81526012600452602481fd5b500490565b600081600019048311821515161561171e5761171e611755565b500290565b60008282101561173557611735611755565b500390565b600060001982141561174e5761174e611755565b5060010190565b634e487b7160e01b600052601160045260246000fd5b634e487b7160e01b600052604160045260246000fd5b6001600160a01b038116811461179657600080fd5b5056fea264697066735822122010e502212aa9d1f912de9ed3b0518de0f44c18df9b81e932c6c56c7289b6158964736f6c63430008040033",
  "devdoc": {
    "kind": "dev",
    "methods": {
      "notifyRewardAmount(address,uint256,uint32)": {
        "params": {
          "duration": "The duration of the rewards period",
          "reward": "The updated reward amount",
          "token": "The address of the ERC20 token contract"
        }
      }
    },
    "version": 1
  },
  "userdoc": {
    "kind": "user",
    "methods": {},
    "version": 1
  },
  "storageLayout": {
    "storage": [
      {
        "astId": 773,
        "contract": "contracts/core/BiosRewards.sol:BiosRewards",
        "label": "_initialized",
        "offset": 0,
        "slot": "0",
        "type": "t_bool"
      },
      {
        "astId": 776,
        "contract": "contracts/core/BiosRewards.sol:BiosRewards",
        "label": "_initializing",
        "offset": 1,
        "slot": "0",
        "type": "t_bool"
      },
      {
        "astId": 5859,
        "contract": "contracts/core/BiosRewards.sol:BiosRewards",
        "label": "moduleMap",
        "offset": 2,
        "slot": "0",
        "type": "t_contract(IModuleMap)14460"
      },
      {
        "astId": 3093,
        "contract": "contracts/core/BiosRewards.sol:BiosRewards",
        "label": "_controllers",
        "offset": 0,
        "slot": "1",
        "type": "t_mapping(t_address,t_bool)"
      },
      {
        "astId": 3096,
        "contract": "contracts/core/BiosRewards.sol:BiosRewards",
        "label": "controllers",
        "offset": 0,
        "slot": "2",
        "type": "t_array(t_address)dyn_storage"
      },
      {
        "astId": 2580,
        "contract": "contracts/core/BiosRewards.sol:BiosRewards",
        "label": "totalBiosRewards",
        "offset": 0,
        "slot": "3",
        "type": "t_uint256"
      },
      {
        "astId": 2582,
        "contract": "contracts/core/BiosRewards.sol:BiosRewards",
        "label": "totalClaimedBiosRewards",
        "offset": 0,
        "slot": "4",
        "type": "t_uint256"
      },
      {
        "astId": 2586,
        "contract": "contracts/core/BiosRewards.sol:BiosRewards",
        "label": "totalUserClaimedBiosRewards",
        "offset": 0,
        "slot": "5",
        "type": "t_mapping(t_address,t_uint256)"
      },
      {
        "astId": 2590,
        "contract": "contracts/core/BiosRewards.sol:BiosRewards",
        "label": "periodFinish",
        "offset": 0,
        "slot": "6",
        "type": "t_mapping(t_address,t_uint256)"
      },
      {
        "astId": 2594,
        "contract": "contracts/core/BiosRewards.sol:BiosRewards",
        "label": "rewardRate",
        "offset": 0,
        "slot": "7",
        "type": "t_mapping(t_address,t_uint256)"
      },
      {
        "astId": 2598,
        "contract": "contracts/core/BiosRewards.sol:BiosRewards",
        "label": "lastUpdateTime",
        "offset": 0,
        "slot": "8",
        "type": "t_mapping(t_address,t_uint256)"
      },
      {
        "astId": 2602,
        "contract": "contracts/core/BiosRewards.sol:BiosRewards",
        "label": "rewardPerTokenStored",
        "offset": 0,
        "slot": "9",
        "type": "t_mapping(t_address,t_uint256)"
      },
      {
        "astId": 2608,
        "contract": "contracts/core/BiosRewards.sol:BiosRewards",
        "label": "userRewardPerTokenPaid",
        "offset": 0,
        "slot": "10",
        "type": "t_mapping(t_address,t_mapping(t_address,t_uint256))"
      },
      {
        "astId": 2614,
        "contract": "contracts/core/BiosRewards.sol:BiosRewards",
        "label": "rewards",
        "offset": 0,
        "slot": "11",
        "type": "t_mapping(t_address,t_mapping(t_address,t_uint256))"
      }
    ],
    "types": {
      "t_address": {
        "encoding": "inplace",
        "label": "address",
        "numberOfBytes": "20"
      },
      "t_array(t_address)dyn_storage": {
        "base": "t_address",
        "encoding": "dynamic_array",
        "label": "address[]",
        "numberOfBytes": "32"
      },
      "t_bool": {
        "encoding": "inplace",
        "label": "bool",
        "numberOfBytes": "1"
      },
      "t_contract(IModuleMap)14460": {
        "encoding": "inplace",
        "label": "contract IModuleMap",
        "numberOfBytes": "20"
      },
      "t_mapping(t_address,t_bool)": {
        "encoding": "mapping",
        "key": "t_address",
        "label": "mapping(address => bool)",
        "numberOfBytes": "32",
        "value": "t_bool"
      },
      "t_mapping(t_address,t_mapping(t_address,t_uint256))": {
        "encoding": "mapping",
        "key": "t_address",
        "label": "mapping(address => mapping(address => uint256))",
        "numberOfBytes": "32",
        "value": "t_mapping(t_address,t_uint256)"
      },
      "t_mapping(t_address,t_uint256)": {
        "encoding": "mapping",
        "key": "t_address",
        "label": "mapping(address => uint256)",
        "numberOfBytes": "32",
        "value": "t_uint256"
      },
      "t_uint256": {
        "encoding": "inplace",
        "label": "uint256",
        "numberOfBytes": "32"
      }
    }
  }
}