{
  "address": "0xa962Ef15a9b2A20521EA98cD88b9eb5a241b1A40",
  "abi": [
    {
      "anonymous": false,
      "inputs": [
        {
          "indexed": true,
          "internalType": "address",
          "name": "tokenA",
          "type": "address"
        },
        {
          "indexed": true,
          "internalType": "address",
          "name": "tokenB",
          "type": "address"
        },
        {
          "indexed": false,
          "internalType": "uint32",
          "name": "poolID",
          "type": "uint32"
        }
      ],
      "name": "CreatePool",
      "type": "event"
    },
    {
      "anonymous": false,
      "inputs": [
        {
          "indexed": true,
          "internalType": "uint32",
          "name": "poolID",
          "type": "uint32"
        }
      ],
      "name": "DeployError",
      "type": "event"
    },
    {
      "anonymous": false,
      "inputs": [
        {
          "indexed": true,
          "internalType": "uint32",
          "name": "poolID",
          "type": "uint32"
        },
        {
          "indexed": true,
          "internalType": "uint256",
          "name": "amount0",
          "type": "uint256"
        },
        {
          "indexed": true,
          "internalType": "uint256",
          "name": "amount1",
          "type": "uint256"
        }
      ],
      "name": "DeploySuccess",
      "type": "event"
    },
    {
      "anonymous": false,
      "inputs": [
        {
          "indexed": false,
          "internalType": "address",
          "name": "token",
          "type": "address"
        },
        {
          "indexed": false,
          "internalType": "uint256",
          "name": "amount",
          "type": "uint256"
        },
        {
          "indexed": false,
          "internalType": "uint32",
          "name": "poolID",
          "type": "uint32"
        }
      ],
      "name": "Deposit",
      "type": "event"
    },
    {
      "anonymous": false,
      "inputs": [
        {
          "indexed": true,
          "internalType": "uint32",
          "name": "poolID",
          "type": "uint32"
        }
      ],
      "name": "HarvestYieldError",
      "type": "event"
    },
    {
      "anonymous": false,
      "inputs": [
        {
          "indexed": false,
          "internalType": "uint32",
          "name": "poolID",
          "type": "uint32"
        }
      ],
      "name": "PoolCreated",
      "type": "event"
    },
    {
      "anonymous": false,
      "inputs": [
        {
          "indexed": false,
          "internalType": "uint32",
          "name": "source",
          "type": "uint32"
        },
        {
          "indexed": false,
          "internalType": "uint32",
          "name": "destination",
          "type": "uint32"
        },
        {
          "indexed": false,
          "internalType": "uint256[]",
          "name": "amounts",
          "type": "uint256[]"
        },
        {
          "indexed": false,
          "internalType": "address[]",
          "name": "tokens",
          "type": "address[]"
        }
      ],
      "name": "TransferBetweenPools",
      "type": "event"
    },
    {
      "anonymous": false,
      "inputs": [
        {
          "indexed": false,
          "internalType": "uint32",
          "name": "poolID",
          "type": "uint32"
        }
      ],
      "name": "YieldHarvested",
      "type": "event"
    },
    {
      "anonymous": false,
      "inputs": [
        {
          "indexed": false,
          "internalType": "uint256",
          "name": "amount",
          "type": "uint256"
        },
        {
          "indexed": false,
          "internalType": "address",
          "name": "token",
          "type": "address"
        },
        {
          "indexed": false,
          "internalType": "uint32",
          "name": "poolID",
          "type": "uint32"
        }
      ],
      "name": "YieldReceived",
      "type": "event"
    },
    {
      "inputs": [
        {
          "internalType": "address",
          "name": "controller",
          "type": "address"
        }
      ],
      "name": "addController",
      "outputs": [],
      "stateMutability": "nonpayable",
      "type": "function"
    },
    {
      "inputs": [
        {
          "internalType": "uint32",
          "name": "",
          "type": "uint32"
        },
        {
          "internalType": "address",
          "name": "",
          "type": "address"
        }
      ],
      "name": "availableYield",
      "outputs": [
        {
          "internalType": "uint256",
          "name": "",
          "type": "uint256"
        }
      ],
      "stateMutability": "view",
      "type": "function"
    },
    {
      "inputs": [
        {
          "internalType": "uint32",
          "name": "",
          "type": "uint32"
        },
        {
          "internalType": "address",
          "name": "",
          "type": "address"
        }
      ],
      "name": "balances",
      "outputs": [
        {
          "internalType": "uint256",
          "name": "",
          "type": "uint256"
        }
      ],
      "stateMutability": "view",
      "type": "function"
    },
    {
      "inputs": [
        {
          "internalType": "uint256",
          "name": "",
          "type": "uint256"
        }
      ],
      "name": "controllers",
      "outputs": [
        {
          "internalType": "address",
          "name": "",
          "type": "address"
        }
      ],
      "stateMutability": "view",
      "type": "function"
    },
    {
      "inputs": [],
      "name": "createPool",
      "outputs": [],
      "stateMutability": "nonpayable",
      "type": "function"
    },
    {
      "inputs": [
        {
          "internalType": "uint32",
          "name": "",
          "type": "uint32"
        }
      ],
      "name": "deploy",
      "outputs": [],
      "stateMutability": "view",
      "type": "function"
    },
    {
      "inputs": [
        {
          "internalType": "address",
          "name": "token",
          "type": "address"
        },
        {
          "internalType": "uint256",
          "name": "amount",
          "type": "uint256"
        },
        {
          "internalType": "uint32",
          "name": "poolID",
          "type": "uint32"
        }
      ],
      "name": "deposit",
      "outputs": [],
      "stateMutability": "nonpayable",
      "type": "function"
    },
    {
      "inputs": [
        {
          "components": [
            {
              "internalType": "uint32",
              "name": "poolID",
              "type": "uint32"
            },
            {
              "internalType": "uint256",
              "name": "amount",
              "type": "uint256"
            }
          ],
          "internalType": "struct IDROIntegration.DonateParams[]",
          "name": "params",
          "type": "tuple[]"
        }
      ],
      "name": "donate",
      "outputs": [],
      "stateMutability": "nonpayable",
      "type": "function"
    },
    {
      "inputs": [
        {
          "components": [
            {
              "internalType": "address",
              "name": "token0",
              "type": "address"
            },
            {
              "internalType": "uint24",
              "name": "newFee",
              "type": "uint24"
            },
            {
              "internalType": "int24",
              "name": "tickLower",
              "type": "int24"
            },
            {
              "internalType": "int24",
              "name": "tickUpper",
              "type": "int24"
            },
            {
              "internalType": "uint32",
              "name": "poolID",
              "type": "uint32"
            },
            {
              "internalType": "address",
              "name": "token1",
              "type": "address"
            },
            {
              "internalType": "uint256",
              "name": "amount0Min",
              "type": "uint256"
            },
            {
              "internalType": "uint256",
              "name": "amount1Min",
              "type": "uint256"
            }
          ],
          "internalType": "struct IDROIntegration.EnterParams",
          "name": "params",
          "type": "tuple"
        }
      ],
      "name": "enterPosition",
      "outputs": [],
      "stateMutability": "nonpayable",
      "type": "function"
    },
    {
      "inputs": [
        {
          "components": [
            {
              "internalType": "uint32",
              "name": "poolID",
              "type": "uint32"
            },
            {
              "internalType": "uint256",
              "name": "decreaseAmount0Min",
              "type": "uint256"
            },
            {
              "internalType": "uint256",
              "name": "decreaseAmount1Min",
              "type": "uint256"
            }
          ],
          "internalType": "struct IDROIntegration.CloseParams",
          "name": "params",
          "type": "tuple"
        }
      ],
      "name": "exitPosition",
      "outputs": [],
      "stateMutability": "nonpayable",
      "type": "function"
    },
    {
      "inputs": [],
      "name": "factory",
      "outputs": [
        {
          "internalType": "contract IUniswapV3Factory",
          "name": "",
          "type": "address"
        }
      ],
      "stateMutability": "view",
      "type": "function"
    },
    {
      "inputs": [],
      "name": "getAllControllers",
      "outputs": [
        {
          "internalType": "address[]",
          "name": "currentControllers",
          "type": "address[]"
        }
      ],
      "stateMutability": "view",
      "type": "function"
    },
    {
      "inputs": [
        {
          "internalType": "uint256",
          "name": "amount0",
          "type": "uint256"
        },
        {
          "internalType": "uint256",
          "name": "amount1",
          "type": "uint256"
        },
        {
          "internalType": "int24",
          "name": "tickLower",
          "type": "int24"
        },
        {
          "internalType": "int24",
          "name": "tickUpper",
          "type": "int24"
        },
        {
          "internalType": "uint160",
          "name": "currentPrice",
          "type": "uint160"
        }
      ],
      "name": "getAmountMinimums",
      "outputs": [
        {
          "internalType": "uint256",
          "name": "amount0Min",
          "type": "uint256"
        },
        {
          "internalType": "uint256",
          "name": "amount1Min",
          "type": "uint256"
        }
      ],
      "stateMutability": "pure",
      "type": "function"
    },
    {
      "inputs": [
        {
          "internalType": "uint32",
          "name": "poolId",
          "type": "uint32"
        }
      ],
      "name": "getPendingYield",
      "outputs": [
        {
          "internalType": "address[]",
          "name": "tokens",
          "type": "address[]"
        },
        {
          "internalType": "uint256[]",
          "name": "amounts",
          "type": "uint256[]"
        }
      ],
      "stateMutability": "view",
      "type": "function"
    },
    {
      "inputs": [
        {
          "internalType": "uint32",
          "name": "poolId",
          "type": "uint32"
        }
      ],
      "name": "getPendingYieldBurn",
      "outputs": [
        {
          "internalType": "address[]",
          "name": "tokens",
          "type": "address[]"
        },
        {
          "internalType": "uint256[]",
          "name": "amounts",
          "type": "uint256[]"
        }
      ],
      "stateMutability": "nonpayable",
      "type": "function"
    },
    {
      "inputs": [
        {
          "internalType": "uint32",
          "name": "poolID",
          "type": "uint32"
        }
      ],
      "name": "getPool",
      "outputs": [
        {
          "components": [
            {
              "internalType": "uint24",
              "name": "fee",
              "type": "uint24"
            },
            {
              "internalType": "int24",
              "name": "tickLower",
              "type": "int24"
            },
            {
              "internalType": "int24",
              "name": "tickUpper",
              "type": "int24"
            },
            {
              "internalType": "address",
              "name": "tokenA",
              "type": "address"
            },
            {
              "internalType": "address",
              "name": "tokenB",
              "type": "address"
            },
            {
              "internalType": "address",
              "name": "uniPool",
              "type": "address"
            },
            {
              "internalType": "uint256",
              "name": "positionID",
              "type": "uint256"
            }
          ],
          "internalType": "struct IUniswapV3Integration.PositionNFT",
          "name": "pool",
          "type": "tuple"
        }
      ],
      "stateMutability": "view",
      "type": "function"
    },
    {
      "inputs": [
        {
          "internalType": "uint32",
          "name": "poolID",
          "type": "uint32"
        }
      ],
      "name": "getPoolBalance",
      "outputs": [
        {
          "internalType": "uint256",
          "name": "tokenA",
          "type": "uint256"
        },
        {
          "internalType": "uint256",
          "name": "tokenB",
          "type": "uint256"
        }
      ],
      "stateMutability": "view",
      "type": "function"
    },
    {
      "inputs": [
        {
          "internalType": "uint32",
          "name": "poolID",
          "type": "uint32"
        }
      ],
      "name": "getRawPoolData",
      "outputs": [
        {
          "internalType": "address",
          "name": "token0",
          "type": "address"
        },
        {
          "internalType": "address",
          "name": "token1",
          "type": "address"
        },
        {
          "internalType": "uint24",
          "name": "fee",
          "type": "uint24"
        },
        {
          "internalType": "int24",
          "name": "tickLower",
          "type": "int24"
        },
        {
          "internalType": "int24",
          "name": "tickUpper",
          "type": "int24"
        },
        {
          "internalType": "uint128",
          "name": "liquidity",
          "type": "uint128"
        },
        {
          "internalType": "uint128",
          "name": "tokensOwed0",
          "type": "uint128"
        },
        {
          "internalType": "uint128",
          "name": "tokensOwed1",
          "type": "uint128"
        }
      ],
      "stateMutability": "view",
      "type": "function"
    },
    {
      "inputs": [],
      "name": "harvestYield",
      "outputs": [],
      "stateMutability": "nonpayable",
      "type": "function"
    },
    {
      "inputs": [
        {
          "internalType": "uint32",
          "name": "poolID",
          "type": "uint32"
        },
        {
          "components": [
            {
              "internalType": "uint160",
              "name": "sqrtPriceLimitX96",
              "type": "uint160"
            },
            {
              "internalType": "address",
              "name": "tokenIn",
              "type": "address"
            },
            {
              "internalType": "address",
              "name": "tokenOut",
              "type": "address"
            },
            {
              "internalType": "uint24",
              "name": "fee",
              "type": "uint24"
            },
            {
              "internalType": "uint256",
              "name": "amountIn",
              "type": "uint256"
            },
            {
              "internalType": "uint256",
              "name": "amountOutMinimum",
              "type": "uint256"
            }
          ],
          "internalType": "struct IDROIntegration.SwapParams",
          "name": "token0Params",
          "type": "tuple"
        },
        {
          "components": [
            {
              "internalType": "uint160",
              "name": "sqrtPriceLimitX96",
              "type": "uint160"
            },
            {
              "internalType": "address",
              "name": "tokenIn",
              "type": "address"
            },
            {
              "internalType": "address",
              "name": "tokenOut",
              "type": "address"
            },
            {
              "internalType": "uint24",
              "name": "fee",
              "type": "uint24"
            },
            {
              "internalType": "uint256",
              "name": "amountIn",
              "type": "uint256"
            },
            {
              "internalType": "uint256",
              "name": "amountOutMinimum",
              "type": "uint256"
            }
          ],
          "internalType": "struct IDROIntegration.SwapParams",
          "name": "token1Params",
          "type": "tuple"
        }
      ],
      "name": "harvestYieldByPool",
      "outputs": [],
      "stateMutability": "nonpayable",
      "type": "function"
    },
    {
      "inputs": [
        {
          "internalType": "address[]",
          "name": "controllers_",
          "type": "address[]"
        },
        {
          "internalType": "address",
          "name": "moduleMap_",
          "type": "address"
        },
        {
          "internalType": "address",
          "name": "nonfungiblePositionManager_",
          "type": "address"
        },
        {
          "internalType": "address",
          "name": "uniswapFactory_",
          "type": "address"
        },
        {
          "internalType": "address",
          "name": "swapRouter_",
          "type": "address"
        }
      ],
      "name": "initialize",
      "outputs": [],
      "stateMutability": "nonpayable",
      "type": "function"
    },
    {
      "inputs": [
        {
          "internalType": "address",
          "name": "controller",
          "type": "address"
        }
      ],
      "name": "isController",
      "outputs": [
        {
          "internalType": "bool",
          "name": "status",
          "type": "bool"
        }
      ],
      "stateMutability": "view",
      "type": "function"
    },
    {
      "inputs": [
        {
          "internalType": "uint32",
          "name": "poolID",
          "type": "uint32"
        },
        {
          "internalType": "uint256",
          "name": "amount0Desired",
          "type": "uint256"
        },
        {
          "internalType": "uint256",
          "name": "amount1Desired",
          "type": "uint256"
        },
        {
          "internalType": "uint256",
          "name": "amount0Min",
          "type": "uint256"
        },
        {
          "internalType": "uint256",
          "name": "amount1Min",
          "type": "uint256"
        }
      ],
      "name": "manualDeploy",
      "outputs": [],
      "stateMutability": "nonpayable",
      "type": "function"
    },
    {
      "inputs": [
        {
          "internalType": "uint32",
          "name": "poolID",
          "type": "uint32"
        },
        {
          "internalType": "address",
          "name": "token",
          "type": "address"
        },
        {
          "internalType": "uint256",
          "name": "amount",
          "type": "uint256"
        },
        {
          "internalType": "uint256",
          "name": "amount0Min",
          "type": "uint256"
        },
        {
          "internalType": "uint256",
          "name": "amount1Min",
          "type": "uint256"
        }
      ],
      "name": "manualWithdraw",
      "outputs": [],
      "stateMutability": "nonpayable",
      "type": "function"
    },
    {
      "inputs": [],
      "name": "moduleMap",
      "outputs": [
        {
          "internalType": "contract IModuleMap",
          "name": "",
          "type": "address"
        }
      ],
      "stateMutability": "view",
      "type": "function"
    },
    {
      "inputs": [
        {
          "internalType": "address",
          "name": "",
          "type": "address"
        },
        {
          "internalType": "address",
          "name": "",
          "type": "address"
        },
        {
          "internalType": "uint256",
          "name": "",
          "type": "uint256"
        },
        {
          "internalType": "bytes",
          "name": "",
          "type": "bytes"
        }
      ],
      "name": "onERC721Received",
      "outputs": [
        {
          "internalType": "bytes4",
          "name": "",
          "type": "bytes4"
        }
      ],
      "stateMutability": "pure",
      "type": "function"
    },
    {
      "inputs": [],
      "name": "poolIDCounter",
      "outputs": [
        {
          "internalType": "uint32",
          "name": "",
          "type": "uint32"
        }
      ],
      "stateMutability": "view",
      "type": "function"
    },
    {
      "inputs": [
        {
          "internalType": "uint32",
          "name": "",
          "type": "uint32"
        }
      ],
      "name": "positionID",
      "outputs": [
        {
          "internalType": "uint256",
          "name": "",
          "type": "uint256"
        }
      ],
      "stateMutability": "view",
      "type": "function"
    },
    {
      "inputs": [],
      "name": "positionManager",
      "outputs": [
        {
          "internalType": "contract INonfungiblePositionManager",
          "name": "",
          "type": "address"
        }
      ],
      "stateMutability": "view",
      "type": "function"
    },
    {
      "inputs": [
        {
          "internalType": "uint32",
          "name": "poolID",
          "type": "uint32"
        },
        {
          "components": [
            {
              "internalType": "uint160",
              "name": "sqrtPriceLimitX96",
              "type": "uint160"
            },
            {
              "internalType": "address",
              "name": "tokenIn",
              "type": "address"
            },
            {
              "internalType": "address",
              "name": "tokenOut",
              "type": "address"
            },
            {
              "internalType": "uint24",
              "name": "fee",
              "type": "uint24"
            },
            {
              "internalType": "uint256",
              "name": "amountIn",
              "type": "uint256"
            },
            {
              "internalType": "uint256",
              "name": "amountOutMinimum",
              "type": "uint256"
            }
          ],
          "internalType": "struct IDROIntegration.SwapParams",
          "name": "params",
          "type": "tuple"
        }
      ],
      "name": "rebalancePool",
      "outputs": [],
      "stateMutability": "nonpayable",
      "type": "function"
    },
    {
      "inputs": [
        {
          "internalType": "address",
          "name": "tokenA",
          "type": "address"
        },
        {
          "internalType": "address",
          "name": "tokenB",
          "type": "address"
        }
      ],
      "name": "sortTokens",
      "outputs": [
        {
          "internalType": "address",
          "name": "token0",
          "type": "address"
        },
        {
          "internalType": "address",
          "name": "token1",
          "type": "address"
        }
      ],
      "stateMutability": "pure",
      "type": "function"
    },
    {
      "inputs": [],
      "name": "swapRouter",
      "outputs": [
        {
          "internalType": "contract IUniswapV3SwapRouter",
          "name": "",
          "type": "address"
        }
      ],
      "stateMutability": "view",
      "type": "function"
    },
    {
      "inputs": [
        {
          "internalType": "uint32",
          "name": "poolID",
          "type": "uint32"
        },
        {
          "internalType": "address",
          "name": "token",
          "type": "address"
        },
        {
          "internalType": "uint256",
          "name": "amount",
          "type": "uint256"
        },
        {
          "internalType": "bool",
          "name": "add",
          "type": "bool"
        }
      ],
      "name": "updateBalance",
      "outputs": [],
      "stateMutability": "nonpayable",
      "type": "function"
    },
    {
      "inputs": [
        {
          "internalType": "address",
          "name": "token",
          "type": "address"
        },
        {
          "internalType": "uint256",
          "name": "amount",
          "type": "uint256"
        },
        {
          "internalType": "uint32",
          "name": "poolID",
          "type": "uint32"
        }
      ],
      "name": "withdraw",
      "outputs": [],
      "stateMutability": "nonpayable",
      "type": "function"
    }
  ],
  "transactionHash": "0x87338be5ef250ad394377be5f653141a814da97fe3ceec029d5af1412b29130f",
  "args": [],
  "solcInputHash": "ac678850e482357cdda9c4b11b479f14",
  "bytecode": "0x608060405234801561001057600080fd5b50615d4b80620000216000396000f3fe608060405234801561001057600080fd5b50600436106101965760003560e01c80630a7597d81461019b5780630e0e28f1146101b05780630f0a1c6f146101c3578063150b7a02146101f2578063337993cb1461021e5780633ba4879114610233578063403df5441461026c5780634437bac21461029057806349ee8ac9146103035780634c73682d14610323578063544caa561461033657806357efda03146103575780635aa5869b146103825780635ce564f4146103955780636ab4c728146103a8578063791b98bc146103bb5780637db2ddfe146103ce5780637dc55d21146103e15780639a06b113146103f45780639da46ee3146103fc5780639ef3a9a014610480578063a7fc7a07146104ac578063b1cccca2146104bf578063b429afeb146104d2578063b6968ce21461050e578063b783ea0514610536578063bcc59f0814610549578063bda9c6491461055c578063c31c9c071461056f578063c45a015514610582578063c86cf98e14610595578063e8d991d1146105a8578063e94b0dd2146105b0578063eb40c545146105c3575b600080fd5b6101ae6101a93660046151cc565b6105d6565b005b6101ae6101be3660046151dd565b610977565b6000546101dc906201000090046001600160a01b031681565b6040516101e99190615723565b60405180910390f35b610205610200366004614f58565b611038565b6040516001600160e01b031990911681526020016101e9565b61022661104a565b6040516101e99190615792565b61025e610241366004615474565b600860209081526000928352604080842090915290825290205481565b6040519081526020016101e9565b61028261027a36600461545a565b606080915091565b6040516101e99291906157a5565b6102a361029e36600461545a565b6110ac565b604080516001600160a01b03998a16815298909716602089015262ffffff90951695870195909552600292830b6060870152910b60808501526001600160801b0390811660a085015291821660c08401521660e0820152610100016101e9565b61025e61031136600461545a565b60076020526000908152604090205481565b6101ae61033136600461559c565b611199565b610349610344366004614f20565b611647565b6040516101e9929190615737565b61025e610365366004615474565b600660209081526000928352604080842090915290825290205481565b6101ae61039036600461502e565b611678565b6101ae6103a336600461545a565b6117ac565b6101ae6103b636600461548f565b6117de565b6003546101dc906001600160a01b031681565b6101ae6103dc366004614ff1565b611989565b6102826103ef36600461545a565b611b08565b6101ae612083565b61040f61040a36600461545a565b61221c565b6040516101e99190600060e08201905062ffffff8351168252602083015160020b6020830152604083015160020b6040830152606083015160018060a01b0380821660608501528060808601511660808501528060a08601511660a0850152505060c083015160c083015292915050565b60055461049790600160a01b900463ffffffff1681565b60405163ffffffff90911681526020016101e9565b6101ae6104ba366004614ee8565b612440565b6101ae6104cd366004614ff1565b61267b565b6104fe6104e0366004614ee8565b6001600160a01b031660009081526001602052604090205460ff1690565b60405190151581526020016101e9565b61052161051c3660046153fc565b612746565b604080519283526020830191909152016101e9565b6101ae610544366004615560565b612791565b6101ae61055736600461552d565b612c7d565b6101ae61056a3660046154df565b612fd1565b6005546101dc906001600160a01b031681565b6004546101dc906001600160a01b031681565b6101ae6105a3366004615125565b613322565b6101ae613542565b6101dc6105be36600461536e565b6137e0565b6105216105d136600461545a565b61380a565b600080546040516337c61fc560e11b8152620100009091046001600160a01b031691636f8c3f8a9161060b91906004016157fb565b60206040518083038186803b15801561062357600080fd5b505afa158015610637573d6000803e3d6000fd5b505050506040513d601f19601f8201168201806040525081019061065b9190614f04565b6001600160a01b031663f3ae2415336040518263ffffffff1660e01b81526004016106869190615723565b60206040518083038186803b15801561069e57600080fd5b505afa1580156106b2573d6000803e3d6000fd5b505050506040513d601f19601f820116820180604052508101906106d69190615194565b6106fb5760405162461bcd60e51b81526004016106f2906158f7565b60405180910390fd5b600060078161070d602085018561545a565b63ffffffff1663ffffffff1681526020019081526020016000205490506000811161074a5760405162461bcd60e51b81526004016106f290615856565b600554600160a01b900463ffffffff16610767602084018461545a565b63ffffffff16111561078b5760405162461bcd60e51b81526004016106f2906159bf565b60035460405163133f757160e31b815260048101839052600091829182916001600160a01b0316906399fbab88906024016101806040518083038186803b1580156107d557600080fd5b505afa1580156107e9573d6000803e3d6000fd5b505050506040513d601f19601f8201168201806040525081019061080d91906155dd565b5050505097505050509450945050506000806108956040518060e00160405280896000016020810190610840919061545a565b63ffffffff168152602001876001600160a01b03168152602001866001600160a01b03168152602001856001600160801b03168152602001888152602001896020013581526020018960400135815250613a84565b909250905081156109045781600660006108b260208b018b61545a565b63ffffffff1663ffffffff1681526020019081526020016000206000876001600160a01b03166001600160a01b0316815260200190815260200160002060008282546108fe9190615b4c565b90915550505b801561096e57806006600061091c60208b018b61545a565b63ffffffff1663ffffffff1681526020019081526020016000206000866001600160a01b03166001600160a01b0316815260200190815260200160002060008282546109689190615b4c565b90915550505b50505050505050565b600080546040516337c61fc560e11b8152620100009091046001600160a01b031691636f8c3f8a916109ac91906004016157fb565b60206040518083038186803b1580156109c457600080fd5b505afa1580156109d8573d6000803e3d6000fd5b505050506040513d601f19601f820116820180604052508101906109fc9190614f04565b6001600160a01b031663f3ae2415336040518263ffffffff1660e01b8152600401610a279190615723565b60206040518083038186803b158015610a3f57600080fd5b505afa158015610a53573d6000803e3d6000fd5b505050506040513d601f19601f82011682018060405250810190610a779190615194565b610a935760405162461bcd60e51b81526004016106f2906158f7565b60076000610aa760a084016080850161545a565b63ffffffff16815260208101919091526040016000205415610b015760405162461bcd60e51b81526020600482015260136024820152723837b9b4ba34b7b71039ba34b6361037b832b760691b60448201526064016106f2565b600554600160a01b900463ffffffff16610b2160a083016080840161545a565b63ffffffff161115610b455760405162461bcd60e51b81526004016106f290615999565b6000600681610b5a60a085016080860161545a565b63ffffffff168152602080820192909252604001600090812091610b8090850185614ee8565b6001600160a01b0316815260208101919091526040016000908120549150600681610bb160a086016080870161545a565b63ffffffff1681526020810191909152604001600090812090610bda60c0860160a08701614ee8565b6001600160a01b0316815260208082019290925260400160002054915060001990610c0790850185614ee8565b600354604051636eb1769f60e11b81526001600160a01b039283169263dd62ed3e92610c3b92309290911690600401615737565b60206040518083038186803b158015610c5357600080fd5b505afa158015610c67573d6000803e3d6000fd5b505050506040513d601f19601f82011682018060405250810190610c8b9190615386565b14610cdf57600354610cbf906001600160a01b03166000610caf6020870187614ee8565b6001600160a01b03169190613c7a565b600354610cdf906001600160a01b0316600019610caf6020870187614ee8565b600019610cf260c0850160a08601614ee8565b600354604051636eb1769f60e11b81526001600160a01b039283169263dd62ed3e92610d2692309290911690600401615737565b60206040518083038186803b158015610d3e57600080fd5b505afa158015610d52573d6000803e3d6000fd5b505050506040513d601f19601f82011682018060405250810190610d769190615386565b14610dc057600354610d9d906001600160a01b03166000610caf60c0870160a08801614ee8565b600354610dc0906001600160a01b0316600019610caf60c0870160a08801614ee8565b600354604080516101608101909152600091829182916001600160a01b03169063883164569080610df460208b018b614ee8565b6001600160a01b03168152602001610e1260c08b0160a08c01614ee8565b6001600160a01b03168152602001896020016020810190610e339190615352565b62ffffff168152602001610e4d60608b0160408c016151b0565b60020b8152602001610e6560808b0160608c016151b0565b60020b81526020018881526020018781526020018960c0013581526020018960e001358152602001306001600160a01b03168152602001428152506040518263ffffffff1660e01b8152600401610ebc9190615a66565b608060405180830381600087803b158015610ed657600080fd5b505af1158015610eea573d6000803e3d6000fd5b505050506040513d601f19601f82011682018060405250810190610f0e919061539e565b935093505092508260076000886080016020810190610f2d919061545a565b63ffffffff1663ffffffff168152602001908152602001600020819055508160066000886080016020810190610f63919061545a565b63ffffffff168152602080820192909252604001600090812091610f89908a018a614ee8565b6001600160a01b03166001600160a01b031681526020019081526020016000206000828254610fb89190615bbf565b9091555081905060066000610fd360a08a0160808b0161545a565b63ffffffff1681526020810191909152604001600090812090610ffc60c08a0160a08b01614ee8565b6001600160a01b03166001600160a01b03168152602001908152602001600020600082825461102b9190615bbf565b9091555050505050505050565b630a85bd0160e11b5b95945050505050565b606060028054806020026020016040519081016040528092919081815260200182805480156110a257602002820191906000526020600020905b81546001600160a01b03168152600190910190602001808311611084575b5050505050905090565b60035463ffffffff821660009081526007602052604080822054905163133f757160e31b81526004810191909152909182918291829182918291829182916001600160a01b03909116906399fbab88906024016101806040518083038186803b15801561111857600080fd5b505afa15801561112c573d6000803e3d6000fd5b505050506040513d601f19601f8201168201806040525081019061115091906155dd565b909192939495969798999a50909192939495969798995090919250909150809850819950829a50839b50849c50859d50869e50879f505050505050505050919395975091939597565b600080546040516337c61fc560e11b8152620100009091046001600160a01b031691636f8c3f8a916111ce91906004016157fb565b60206040518083038186803b1580156111e657600080fd5b505afa1580156111fa573d6000803e3d6000fd5b505050506040513d601f19601f8201168201806040525081019061121e9190614f04565b6001600160a01b031663f3ae2415336040518263ffffffff1660e01b81526004016112499190615723565b60206040518083038186803b15801561126157600080fd5b505afa158015611275573d6000803e3d6000fd5b505050506040513d601f19601f820116820180604052508101906112999190615194565b6112b55760405162461bcd60e51b81526004016106f2906158f7565b60055463ffffffff600160a01b909104811690861611156112e85760405162461bcd60e51b81526004016106f290615999565b63ffffffff8516600090815260076020526040902054806113435760405162461bcd60e51b8152602060048201526015602482015274141bdbdb081c1bdcda5d1a5bdb881a5b9d985b1a59605a1b60448201526064016106f2565b60035463ffffffff871660009081526007602052604080822054905163133f757160e31b81526004810191909152909182916001600160a01b03909116906399fbab88906024016101806040518083038186803b1580156113a357600080fd5b505afa1580156113b7573d6000803e3d6000fd5b505050506040513d601f19601f820116820180604052508101906113db91906155dd565b505050505050505093509350505086600660008a63ffffffff1663ffffffff1681526020019081526020016000206000846001600160a01b03166001600160a01b031681526020019081526020016000205410156114735760405162461bcd60e51b81526020600482015260156024820152740696e73756666696369656e7420616d6f756e74203605c1b60448201526064016106f2565b63ffffffff881660009081526006602090815260408083206001600160a01b03851684529091529020548611156114e45760405162461bcd60e51b8152602060048201526015602482015274696e73756666696369656e7420616d6f756e74203160581b60448201526064016106f2565b6003546040805160c081018252858152602081018a81528183018a8152606083018a8152608084018a81524260a08601908152955163219f5d1760e01b8152945160048601529251602485015290516044840152516064830152516084820152905160a482015260009182916001600160a01b039091169063219f5d179060c401606060405180830381600087803b15801561157f57600080fd5b505af1158015611593573d6000803e3d6000fd5b505050506040513d601f19601f820116820180604052508101906115b79190615288565b63ffffffff8d1660009081526006602090815260408083206001600160a01b038b1684529091528120805493965091945085935090916115f8908490615bbf565b909155505063ffffffff8a1660009081526006602090815260408083206001600160a01b038716845290915281208054839290611636908490615bbf565b909155505050505050505050505050565b600080826001600160a01b0316846001600160a01b03161061166a57828461166d565b83835b909590945092505050565b600054610100900460ff166116935760005460ff161561169b565b61169b613dc3565b6116b75760405162461bcd60e51b81526004016106f290615884565b600054610100900460ff161580156116d9576000805461ffff19166101011790555b6001600160a01b0384166116ff5760405162461bcd60e51b81526004016106f2906158d2565b6001600160a01b0383166117255760405162461bcd60e51b81526004016106f2906158d2565b6001600160a01b03821661174b5760405162461bcd60e51b81526004016106f2906158d2565b6117558686613dd4565b600380546001600160a01b038087166001600160a01b03199283161790925560058054858416908316179055600480549286169290911691909117905580156117a4576000805461ff00191690555b505050505050565b3360009081526001602052604090205460ff166117db5760405162461bcd60e51b81526004016106f290615945565b50565b600080546040516337c61fc560e11b8152620100009091046001600160a01b031691636f8c3f8a9161181391906004016157fb565b60206040518083038186803b15801561182b57600080fd5b505afa15801561183f573d6000803e3d6000fd5b505050506040513d601f19601f820116820180604052508101906118639190614f04565b6001600160a01b031663f3ae2415336040518263ffffffff1660e01b815260040161188e9190615723565b60206040518083038186803b1580156118a657600080fd5b505afa1580156118ba573d6000803e3d6000fd5b505050506040513d601f19601f820116820180604052508101906118de9190615194565b6118fa5760405162461bcd60e51b81526004016106f2906158f7565b80156119445763ffffffff841660009081526006602090815260408083206001600160a01b038716845290915281208054849290611939908490615b4c565b909155506119839050565b63ffffffff841660009081526006602090815260408083206001600160a01b03871684529091528120805484929061197d908490615bbf565b90915550505b50505050565b3360009081526001602052604090205460ff166119b85760405162461bcd60e51b81526004016106f290615945565b63ffffffff811660009081526006602090815260408083206001600160a01b0387168452909152902054821115611a2b5760405162461bcd60e51b815260206004820152601760248201527644524f3a204e6f7420456e6f7567682042616c616e636560481b60448201526064016106f2565b63ffffffff811660009081526006602090815260408083206001600160a01b038716845290915281208054849290611a64908490615bbf565b9091555050600080546040516337c61fc560e11b8152611b0392620100009092046001600160a01b031691636f8c3f8a91611aa291906004016157fb565b60206040518083038186803b158015611aba57600080fd5b505afa158015611ace573d6000803e3d6000fd5b505050506040513d601f19601f82011682018060405250810190611af29190614f04565b6001600160a01b0385169084613f79565b505050565b63ffffffff811660009081526007602052604080822054600354915163133f757160e31b8152600481018290526060938493909182918291829182916001600160a01b03909116906399fbab88906024016101806040518083038186803b158015611b7257600080fd5b505afa158015611b86573d6000803e3d6000fd5b505050506040513d601f19601f82011682018060405250810190611baa91906155dd565b5050505050965096509650965096505050600460009054906101000a90046001600160a01b03166001600160a01b0316631698ee828686866040518463ffffffff1660e01b8152600401611c0093929190615751565b60206040518083038186803b158015611c1857600080fd5b505afa158015611c2c573d6000803e3d6000fd5b505050506040513d601f19601f82011682018060405250810190611c509190614f04565b60405163a34123a760e01b8152600284810b600483015283900b6024820152600060448201526001600160a01b03919091169063a34123a7906064016040805180830381600087803b158015611ca557600080fd5b505af1158015611cb9573d6000803e3d6000fd5b505050506040513d601f19601f82011682018060405250810190611cdd91906153d9565b505060035460405163133f757160e31b81526004810188905260009182916001600160a01b03909116906399fbab88906024016101806040518083038186803b158015611d2957600080fd5b505afa158015611d3d573d6000803e3d6000fd5b505050506040513d601f19601f82011682018060405250810190611d6191906155dd565b909c509a5060039950611d7998505050505050505050565b604051908082528060200260200182016040528015611da2578160200160208202803683370190505b5060408051600380825260808201909252919b5060208201606080368337019050509850868a600081518110611de857634e487b7160e01b600052603260045260246000fd5b60200260200101906001600160a01b031690816001600160a01b031681525050816001600160801b031689600081518110611e3357634e487b7160e01b600052603260045260246000fd5b602002602001018181525050858a600181518110611e6157634e487b7160e01b600052603260045260246000fd5b60200260200101906001600160a01b031690816001600160a01b031681525050806001600160801b031689600181518110611eac57634e487b7160e01b600052603260045260246000fd5b60209081029190910101526000546040516337c61fc560e11b8152620100009091046001600160a01b031690636f8c3f8a90611eed906003906004016157fb565b60206040518083038186803b158015611f0557600080fd5b505afa158015611f19573d6000803e3d6000fd5b505050506040513d601f19601f82011682018060405250810190611f3d9190614f04565b6001600160a01b0316638b9c94896040518163ffffffff1660e01b815260040160206040518083038186803b158015611f7557600080fd5b505afa158015611f89573d6000803e3d6000fd5b505050506040513d601f19601f82011682018060405250810190611fad9190614f04565b8a600281518110611fce57634e487b7160e01b600052603260045260246000fd5b6001600160a01b0390921660209283029190910182015263ffffffff8c1660009081526008909152604081208b519091908c90600290811061202057634e487b7160e01b600052603260045260246000fd5b60200260200101516001600160a01b03166001600160a01b03168152602001908152602001600020548960028151811061206a57634e487b7160e01b600052603260045260246000fd5b6020026020010181815250505050505050505050915091565b600080546040516337c61fc560e11b8152620100009091046001600160a01b031691636f8c3f8a916120b891906004016157fb565b60206040518083038186803b1580156120d057600080fd5b505afa1580156120e4573d6000803e3d6000fd5b505050506040513d601f19601f820116820180604052508101906121089190614f04565b6001600160a01b031663f3ae2415336040518263ffffffff1660e01b81526004016121339190615723565b60206040518083038186803b15801561214b57600080fd5b505afa15801561215f573d6000803e3d6000fd5b505050506040513d601f19601f820116820180604052508101906121839190615194565b61219f5760405162461bcd60e51b81526004016106f2906158f7565b60058054600160a01b900463ffffffff169060146121bc83615c1d565b82546101009290920a63ffffffff818102199093169183160217909155600554604051600160a01b90910490911681527fa78ad62f94123bd15ee811eb3ffb683be428ffa403852cb585a3c77cc2cd2939915060200160405180910390a1565b6040805160e081018252600080825260208201819052918101829052606081018290526080810182905260a0810182905260c081019190915260035463ffffffff831660009081526007602052604080822054905163133f757160e31b81526004810191909152909182918291829182916001600160a01b0316906399fbab88906024016101806040518083038186803b1580156122b957600080fd5b505afa1580156122cd573d6000803e3d6000fd5b505050506040513d601f19601f820116820180604052508101906122f191906155dd565b505050505096509650965096509650505082866000019062ffffff16908162ffffff168152505081866020019060020b908160020b8152505080866040019060020b908160020b815250508486606001906001600160a01b031690816001600160a01b0316815250508386608001906001600160a01b031690816001600160a01b031681525050600460009054906101000a90046001600160a01b03166001600160a01b0316631698ee828686866040518463ffffffff1660e01b81526004016123bd93929190615751565b60206040518083038186803b1580156123d557600080fd5b505afa1580156123e9573d6000803e3d6000fd5b505050506040513d601f19601f8201168201806040525081019061240d9190614f04565b6001600160a01b031660a087015250505063ffffffff90931660009081526007602052604090205460c083015250919050565b600080546040516337c61fc560e11b8152620100009091046001600160a01b031691636f8c3f8a9161247591906004016157fb565b60206040518083038186803b15801561248d57600080fd5b505afa1580156124a1573d6000803e3d6000fd5b505050506040513d601f19601f820116820180604052508101906124c59190614f04565b6001600160a01b0316632f54bf6e336040518263ffffffff1660e01b81526004016124f09190615723565b60206040518083038186803b15801561250857600080fd5b505afa15801561251c573d6000803e3d6000fd5b505050506040513d601f19601f820116820180604052508101906125409190615194565b61259f5760405162461bcd60e51b815260206004820152602a60248201527f436f6e74726f6c6c65643a3a6f6e6c794f776e65723a2043616c6c6572206973604482015269103737ba1037bbb732b960b11b60648201526084016106f2565b6001600160a01b03811660009081526001602081905260408220805460ff19169091179055805b60025481101561262557600281815481106125f157634e487b7160e01b600052603260045260246000fd5b6000918252602090912001546001600160a01b038481169116141561261557600191505b61261e81615c02565b90506125c6565b508061267757600280546001810182556000919091527f405787fa12a823e0f2b7631cc41b3ba8828b3321ca811111fa75cd3aa3bb5ace0180546001600160a01b0319166001600160a01b0384161790555b5050565b3360009081526001602052604090205460ff166126aa5760405162461bcd60e51b81526004016106f290615945565b60055463ffffffff600160a01b909104811690821611156126dd5760405162461bcd60e51b81526004016106f2906159bf565b6001600160a01b0383166127035760405162461bcd60e51b81526004016106f2906158d2565b63ffffffff811660009081526006602090815260408083206001600160a01b03871684529091528120805484929061273c908490615b4c565b9091555050505050565b600080600061275486613f98565b9050600061276186613f98565b905060006127728684848d8d6143aa565b90506127808684848461446c565b909b909a5098505050505050505050565b600080546040516337c61fc560e11b8152620100009091046001600160a01b031691636f8c3f8a916127c691906004016157fb565b60206040518083038186803b1580156127de57600080fd5b505afa1580156127f2573d6000803e3d6000fd5b505050506040513d601f19601f820116820180604052508101906128169190614f04565b6001600160a01b031663f3ae2415336040518263ffffffff1660e01b81526004016128419190615723565b60206040518083038186803b15801561285957600080fd5b505afa15801561286d573d6000803e3d6000fd5b505050506040513d601f19601f820116820180604052508101906128919190615194565b6128ad5760405162461bcd60e51b81526004016106f2906158f7565b60055463ffffffff600160a01b909104811690841611156128e05760405162461bcd60e51b81526004016106f2906159bf565b63ffffffff8316600090815260076020526040902054806129135760405162461bcd60e51b81526004016106f290615856565b60035460405163133f757160e31b81526004810183905260009182916001600160a01b03909116906399fbab88906024016101806040518083038186803b15801561295d57600080fd5b505afa158015612971573d6000803e3d6000fd5b505050506040513d601f19601f8201168201806040525081019061299591906155dd565b5050505050505050935093505050600080600360009054906101000a90046001600160a01b03166001600160a01b031663fc6f78656040518060800160405280888152602001306001600160a01b031681526020016129f78b60800135614508565b6001600160801b03168152602001612a128a60800135614508565b6001600160801b03168152506040518263ffffffff1660e01b8152600401612a3a91906159e5565b6040805180830381600087803b158015612a5357600080fd5b505af1158015612a67573d6000803e3d6000fd5b505050506040513d601f19601f82011682018060405250810190612a8b91906153d9565b600080546040516337c61fc560e11b815293955091935091620100009091046001600160a01b031690636f8c3f8a90612ac9906003906004016157fb565b60206040518083038186803b158015612ae157600080fd5b505afa158015612af5573d6000803e3d6000fd5b505050506040513d601f19601f82011682018060405250810190612b199190614f04565b6001600160a01b0316638b9c94896040518163ffffffff1660e01b815260040160206040518083038186803b158015612b5157600080fd5b505afa158015612b65573d6000803e3d6000fd5b505050506040513d601f19601f82011682018060405250810190612b899190614f04565b90506000816001600160a01b0316866001600160a01b031614612bd5578315612bd057612bc3612bbe368b90038b018b6151ef565b614575565b612bcd9082615b4c565b90505b612be2565b612bdf8482615b4c565b90505b816001600160a01b0316856001600160a01b031614612c25578215612c2057612c13612bbe368a90038a018a6151ef565b612c1d9082615b4c565b90505b612c32565b612c2f8382615b4c565b90505b8015612c715763ffffffff8a1660009081526008602090815260408083206001600160a01b038616845290915281208054839290611636908490615b4c565b50505050505050505050565b600080546040516337c61fc560e11b8152620100009091046001600160a01b031691636f8c3f8a91612cb291906004016157fb565b60206040518083038186803b158015612cca57600080fd5b505afa158015612cde573d6000803e3d6000fd5b505050506040513d601f19601f82011682018060405250810190612d029190614f04565b6001600160a01b031663f3ae2415336040518263ffffffff1660e01b8152600401612d2d9190615723565b60206040518083038186803b158015612d4557600080fd5b505afa158015612d59573d6000803e3d6000fd5b505050506040513d601f19601f82011682018060405250810190612d7d9190615194565b612d995760405162461bcd60e51b81526004016106f2906158f7565b60055463ffffffff600160a01b90910481169083161115612dcc5760405162461bcd60e51b81526004016106f290615999565b8060800135600660008463ffffffff1663ffffffff1681526020019081526020016000206000836020016020810190612e059190614ee8565b6001600160a01b03166001600160a01b03168152602001908152602001600020541015612e6d5760405162461bcd60e51b815260206004820152601660248201527534b739bab33334b1b4b2b73a1030b6b7bab73a1034b760511b60448201526064016106f2565b63ffffffff82166000908152600660209081526040808320918391612e9791908601908601614ee8565b6001600160a01b03166001600160a01b031681526020019081526020016000205490506000600660008563ffffffff1663ffffffff1681526020019081526020016000206000846040016020810190612ef09190614ee8565b6001600160a01b0316815260208101919091526040016000908120549150612f20612bbe368690038601866151ef565b9050612f30608085013584615bbf565b9250612f3c8183615b4c565b63ffffffff8616600090815260066020908152604080832093955086939291612f69918901908901614ee8565b6001600160a01b03168152602080820192909252604090810160009081209390935563ffffffff88168352600690915280822084929091612fb09060608901908901614ee8565b6001600160a01b031681526020810191909152604001600020555050505050565b600080546040516337c61fc560e11b8152620100009091046001600160a01b031691636f8c3f8a9161300691906004016157fb565b60206040518083038186803b15801561301e57600080fd5b505afa158015613032573d6000803e3d6000fd5b505050506040513d601f19601f820116820180604052508101906130569190614f04565b6001600160a01b031663f3ae2415336040518263ffffffff1660e01b81526004016130819190615723565b60206040518083038186803b15801561309957600080fd5b505afa1580156130ad573d6000803e3d6000fd5b505050506040513d601f19601f820116820180604052508101906130d19190615194565b6130ed5760405162461bcd60e51b81526004016106f2906158f7565b60055463ffffffff600160a01b909104811690861611801590613116575060008563ffffffff16115b6131325760405162461bcd60e51b81526004016106f290615999565b6001600160a01b0384166131785760405162461bcd60e51b815260206004820152600d60248201526c34b73b30b634b2103a37b5b2b760991b60448201526064016106f2565b60035463ffffffff861660009081526007602052604080822054905163133f757160e31b815291928392839283926001600160a01b0316916399fbab88916131c69160040190815260200190565b6101806040518083038186803b1580156131df57600080fd5b505afa1580156131f3573d6000803e3d6000fd5b505050506040513d601f19601f8201168201806040525081019061321791906155dd565b50505050509650965050955095505050600080856001600160a01b03168a6001600160a01b031614156132745761326a8b61326361325487613f98565b61325d87613f98565b8d6146b3565b8a8a614728565b9092509050613299565b6132938b61326361328487613f98565b61328d87613f98565b8d6148c4565b90925090505b63ffffffff8b1660009081526006602090815260408083206001600160a01b038a168452909152812080548492906132d2908490615b4c565b909155505063ffffffff8b1660009081526006602090815260408083206001600160a01b038916845290915281208054839290613310908490615b4c565b90915550505050505050505050505050565b600080546040516337c61fc560e11b8152620100009091046001600160a01b031690636f8c3f8a90613359906003906004016157fb565b60206040518083038186803b15801561337157600080fd5b505afa158015613385573d6000803e3d6000fd5b505050506040513d601f19601f820116820180604052508101906133a99190614f04565b6001600160a01b0316638b9c94896040518163ffffffff1660e01b815260040160206040518083038186803b1580156133e157600080fd5b505afa1580156133f5573d6000803e3d6000fd5b505050506040513d601f19601f820116820180604052508101906134199190614f04565b9050600082815b818110156135255785858281811061344857634e487b7160e01b600052603260045260246000fd5b905060400201602001356008600088888581811061347657634e487b7160e01b600052603260045260246000fd5b61348c926020604090920201908101915061545a565b63ffffffff1663ffffffff1681526020019081526020016000206000866001600160a01b03166001600160a01b0316815260200190815260200160002060008282546134d89190615b4c565b9091555086905085828181106134fe57634e487b7160e01b600052603260045260246000fd5b90506040020160200135836135139190615b4c565b925061351e81615c02565b9050613420565b5061353b6001600160a01b0384163330856148fa565b5050505050565b3360009081526001602052604090205460ff166135715760405162461bcd60e51b81526004016106f290615945565b600080546040516337c61fc560e11b8152620100009091046001600160a01b031690636f8c3f8a906135a8906002906004016157fb565b60206040518083038186803b1580156135c057600080fd5b505afa1580156135d4573d6000803e3d6000fd5b505050506040513d601f19601f820116820180604052508101906135f89190614f04565b600080546040516337c61fc560e11b81529293509091620100009091046001600160a01b031690636f8c3f8a90613634906003906004016157fb565b60206040518083038186803b15801561364c57600080fd5b505afa158015613660573d6000803e3d6000fd5b505050506040513d601f19601f820116820180604052508101906136849190614f04565b6001600160a01b0316638b9c94896040518163ffffffff1660e01b815260040160206040518083038186803b1580156136bc57600080fd5b505afa1580156136d0573d6000803e3d6000fd5b505050506040513d601f19601f820116820180604052508101906136f49190614f04565b905060015b60055463ffffffff600160a01b909104811690821611611b035763ffffffff811660009081526008602090815260408083206001600160a01b038616845290915290205480156137cd5763ffffffff80831660009081526008602090815260408083206001600160a01b038816808552925282209190915561377f9186908490613f7916565b604080518281526001600160a01b038516602082015263ffffffff84168183015290517f3dd230bc07734c2a9b97385becdf27d48f7e25031ca7140521b740a2aa9070c09181900360600190a15b50806137d881615c1d565b9150506136f9565b600281815481106137f057600080fd5b6000918252602090912001546001600160a01b0316905081565b60008060008363ffffffff16118015613836575060055463ffffffff600160a01b909104811690841611155b6138525760405162461bcd60e51b81526004016106f2906159bf565b63ffffffff8316600090815260076020526040902054806138ab5760405162461bcd60e51b81526020600482015260136024820152721c1bdcda5d1a5bdb881a5cc81a5b9d985b1a59606a1b60448201526064016106f2565b60035460405163133f757160e31b815260048101839052600091829182918291829182916001600160a01b03909116906399fbab88906024016101806040518083038186803b1580156138fd57600080fd5b505afa158015613911573d6000803e3d6000fd5b505050506040513d601f19601f8201168201806040525081019061393591906155dd565b5050505097509750975097509750975050506000600460009054906101000a90046001600160a01b03166001600160a01b0316631698ee828888886040518463ffffffff1660e01b815260040161398e93929190615751565b60206040518083038186803b1580156139a657600080fd5b505afa1580156139ba573d6000803e3d6000fd5b505050506040513d601f19601f820116820180604052508101906139de9190614f04565b6001600160a01b0316633850c7bd6040518163ffffffff1660e01b815260040160e06040518083038186803b158015613a1657600080fd5b505afa158015613a2a573d6000803e3d6000fd5b505050506040513d601f19601f82011682018060405250810190613a4e91906152bc565b5050505050509050613a7281613a6386613f98565b613a6c86613f98565b8561446c565b909c909b509950505050505050505050565b6003546040805160a0808201835260808086015183526060808701516001600160801b03166020850152918601518385015260c08601519183019190915242908201529051630624e65f60e11b815260009283926001600160a01b0390911691630c49ccbe91613af691600401615a28565b6040805180830381600087803b158015613b0f57600080fd5b505af1158015613b23573d6000803e3d6000fd5b505050506040513d601f19601f82011682018060405250810190613b4791906153d9565b5050600354604080516080808201835286015181523060208201526001600160801b038183018190526060820152905163fc6f786560e01b81526001600160a01b039092169163fc6f786591613b9f916004016159e5565b6040805180830381600087803b158015613bb857600080fd5b505af1158015613bcc573d6000803e3d6000fd5b505050506040513d601f19601f82011682018060405250810190613bf091906153d9565b6003546080860151604051630852cd8d60e31b81529395509193506001600160a01b0316916342966c6891613c2b9160040190815260200190565b600060405180830381600087803b158015613c4557600080fd5b505af1158015613c59573d6000803e3d6000fd5b5050935163ffffffff16600090815260076020526040812055509092909150565b801580613d025750604051636eb1769f60e11b81526001600160a01b0384169063dd62ed3e90613cb09030908690600401615737565b60206040518083038186803b158015613cc857600080fd5b505afa158015613cdc573d6000803e3d6000fd5b505050506040513d601f19601f82011682018060405250810190613d009190615386565b155b613d6d5760405162461bcd60e51b815260206004820152603660248201527f5361666545524332303a20617070726f76652066726f6d206e6f6e2d7a65726f60448201527520746f206e6f6e2d7a65726f20616c6c6f77616e636560501b60648201526084016106f2565b611b038363095ea7b360e01b8484604051602401613d8c929190615779565b60408051601f198184030181529190526020810180516001600160e01b03166001600160e01b031990931692909217909152614932565b6000613dce30614a04565b15905090565b600054610100900460ff16613def5760005460ff1615613df7565b613df7613dc3565b613e135760405162461bcd60e51b81526004016106f290615884565b600054610100900460ff16158015613e35576000805461ffff19166101011790555b6001600160a01b038216613e5b5760405162461bcd60e51b81526004016106f2906158d2565b60005b8351811015613ed15760006001600160a01b0316848281518110613e9257634e487b7160e01b600052603260045260246000fd5b60200260200101516001600160a01b03161415613ec15760405162461bcd60e51b81526004016106f2906158d2565b613eca81615c02565b9050613e5e565b5060005b8351811015613f45576001806000868481518110613f0357634e487b7160e01b600052603260045260246000fd5b6020908102919091018101516001600160a01b03168252810191909152604001600020805460ff1916911515919091179055613f3e81615c02565b9050613ed5565b508251613f59906002906020860190614df7565b50613f6382614a13565b8015611b03576000805461ff0019169055505050565b611b038363a9059cbb60e01b8484604051602401613d8c929190615779565b60008060008360020b12613faf578260020b613fbc565b8260020b613fbc90615c76565b9050613fcb620d89e719615c55565b60020b8111156140015760405162461bcd60e51b81526020600482015260016024820152601560fa1b60448201526064016106f2565b60006001821661401557600160801b614027565b6ffffcb933bd6fad37aa2d162d1a5940015b6001600160881b03169050600282161561405c576080614057826ffff97272373d413259a46990580e213a615b78565b901c90505b6004821615614086576080614081826ffff2e50f5f656932ef12357cf3c7fdcc615b78565b901c90505b60088216156140b05760806140ab826fffe5caca7e10e4e61c3624eaa0941cd0615b78565b901c90505b60108216156140da5760806140d5826fffcb9843d60f6159c9db58835c926644615b78565b901c90505b60208216156141045760806140ff826fff973b41fa98c081472e6896dfb254c0615b78565b901c90505b604082161561412e576080614129826fff2ea16466c96a3843ec78b326b52861615b78565b901c90505b6080821615614158576080614153826ffe5dee046a99a2a811c461f1969c3053615b78565b901c90505b61010082161561418357608061417e826ffcbe86c7900a88aedcffc83b479aa3a4615b78565b901c90505b6102008216156141ae5760806141a9826ff987a7253ac413176f2b074cf7815e54615b78565b901c90505b6104008216156141d95760806141d4826ff3392b0822b70005940c7a398e4b70f3615b78565b901c90505b6108008216156142045760806141ff826fe7159475a2c29b7443b29c7fa6e889d9615b78565b901c90505b61100082161561422f57608061422a826fd097f3bdfd2022b8845ad8f792aa5825615b78565b901c90505b61200082161561425a576080614255826fa9f746462d870fdf8a65dc1f90e061e5615b78565b901c90505b614000821615614285576080614280826f70d869a156d2a1b890bb3df62baf32f7615b78565b901c90505b6180008216156142b05760806142ab826f31be135f97d08fd981231505542fcfa6615b78565b901c90505b620100008216156142dc5760806142d7826f09aa508b5b7a84e1c677de54f3e99bc9615b78565b901c90505b62020000821615614307576080614302826e5d6af8dedb81196699c329225ee604615b78565b901c90505b6204000082161561433157608061432c826d2216e584f5fa1ea926041bedfe98615b78565b901c90505b62080000821615614359576080614354826b048a170391f7dc42444e8fa2615b78565b901c90505b60008460020b13156143745761437181600019615b64565b90505b614382600160201b82615c41565b1561438e576001614391565b60005b6143a29060ff16602083901c615b4c565b949350505050565b6000836001600160a01b0316856001600160a01b031611156143ca579293925b846001600160a01b0316866001600160a01b0316116143f5576143ee8585856146b3565b9050611041565b836001600160a01b0316866001600160a01b0316101561445757600061441c8786866146b3565b9050600061442b8789866148c4565b9050806001600160801b0316826001600160801b03161061444c578061444e565b815b92505050611041565b6144628585846148c4565b9695505050505050565b600080836001600160a01b0316856001600160a01b0316111561448d579293925b846001600160a01b0316866001600160a01b0316116144b8576144b1858585614aab565b91506144ff565b836001600160a01b0316866001600160a01b031610156144f1576144dd868585614aab565b91506144ea858785614b15565b90506144ff565b6144fc858585614b15565b90505b94509492505050565b60006001600160801b038211156145715760405162461bcd60e51b815260206004820152602760248201527f53616665436173743a2076616c756520646f65736e27742066697420696e20316044820152663238206269747360c81b60648201526084016106f2565b5090565b600061459f8260200151600560009054906101000a90046001600160a01b03168460800151614b5f565b6005546040805160e0810182526020858101516001600160a01b03908116835286840151811691830191825260608088015162ffffff908116858701908152309286019283526080808b015190870190815260a0808c01519088019081528b51861660c0890190815298516304e45aaf60e01b815297518616600489015295518516602488015290519091166044860152905182166064850152516084840152905160a48301529151821660c48201529116906304e45aaf9060e401602060405180830381600087803b15801561467557600080fd5b505af1158015614689573d6000803e3d6000fd5b505050506040513d601f19601f820116820180604052508101906146ad9190615386565b92915050565b6000826001600160a01b0316846001600160a01b031611156146d3579192915b60006146f6856001600160a01b0316856001600160a01b0316600160601b614c1b565b905061471d614718848361470a8989615b97565b6001600160a01b0316614c1b565b614cca565b9150505b9392505050565b63ffffffff8416600090815260076020908152604080832054600354825160a0810184528281526001600160801b03891694810194909452838301879052606084018690524260808501529151630624e65f60e11b8152849391926001600160a01b031691630c49ccbe916147a09190600401615a28565b6040805180830381600087803b1580156147b957600080fd5b505af11580156147cd573d6000803e3d6000fd5b505050506040513d601f19601f820116820180604052508101906147f191906153d9565b600354604080516080810182528581523060208201529396509194506001600160a01b03169163fc6f786591810161482887614508565b6001600160801b0316815260200161483f86614508565b6001600160801b03168152506040518263ffffffff1660e01b815260040161486791906159e5565b6040805180830381600087803b15801561488057600080fd5b505af1158015614894573d6000803e3d6000fd5b505050506040513d601f19601f820116820180604052508101906148b891906153d9565b50505094509492505050565b6000826001600160a01b0316846001600160a01b031611156148e4579192915b6143a261471883600160601b61470a8888615b97565b6040516001600160a01b03808516602483015283166044820152606481018290526119839085906323b872dd60e01b90608401613d8c565b6000614987826040518060400160405280602081526020017f5361666545524332303a206c6f772d6c6576656c2063616c6c206661696c6564815250856001600160a01b0316614ce59092919063ffffffff16565b805190915015611b0357808060200190518101906149a59190615194565b611b035760405162461bcd60e51b815260206004820152602a60248201527f5361666545524332303a204552433230206f7065726174696f6e20646964206e6044820152691bdd081cdd58d8d9595960b21b60648201526084016106f2565b6001600160a01b03163b151590565b600054610100900460ff16614a2e5760005460ff1615614a36565b614a36613dc3565b614a525760405162461bcd60e51b81526004016106f290615884565b600054610100900460ff16158015614a74576000805461ffff19166101011790555b6000805462010000600160b01b031916620100006001600160a01b038516021790558015612677576000805461ff00191690555050565b6000826001600160a01b0316846001600160a01b03161115614acb579192915b6001600160a01b038416614b0b600160601b600160e01b03606085901b16614af38787615b97565b6001600160a01b0316866001600160a01b0316614c1b565b6143a29190615b64565b6000826001600160a01b0316846001600160a01b03161115614b35579192915b6143a26001600160801b038316614b4c8686615b97565b6001600160a01b0316600160601b614c1b565b604051636eb1769f60e11b81526000906001600160a01b0385169063dd62ed3e90614b909030908790600401615737565b60206040518083038186803b158015614ba857600080fd5b505afa158015614bbc573d6000803e3d6000fd5b505050506040513d601f19601f82011682018060405250810190614be09190615386565b905081811015611983578015614c0557614c056001600160a01b038516846000613c7a565b6119836001600160a01b03851684600019613c7a565b600080806000198587098587029250828110838203039150508060001415614c555760008411614c4a57600080fd5b508290049050614721565b808411614c6157600080fd5b60008486880960026001871981018816978890046003810283188082028403028082028403028082028403028082028403028082028403029081029092039091026000889003889004909101858311909403939093029303949094049190911702949350505050565b806001600160801b0381168114614ce057600080fd5b919050565b60606143a2848460008585614cf985614a04565b614d455760405162461bcd60e51b815260206004820152601d60248201527f416464726573733a2063616c6c20746f206e6f6e2d636f6e747261637400000060448201526064016106f2565b600080866001600160a01b03168587604051614d619190615707565b60006040518083038185875af1925050503d8060008114614d9e576040519150601f19603f3d011682016040523d82523d6000602084013e614da3565b606091505b5091509150614db3828286614dbe565b979650505050505050565b60608315614dcd575081614721565b825115614ddd5782518084602001fd5b8160405162461bcd60e51b81526004016106f29190615823565b828054828255906000526020600020908101928215614e4c579160200282015b82811115614e4c57825182546001600160a01b0319166001600160a01b03909116178255602090920191600190910190614e17565b506145719291505b808211156145715760008155600101614e54565b8035614ce081615cd2565b8051614ce081615cd2565b8051614ce081615cf5565b600060c08284031215614e9a578081fd5b50919050565b80516001600160801b0381168114614ce057600080fd5b805161ffff81168114614ce057600080fd5b8051614ce081615d04565b803563ffffffff81168114614ce057600080fd5b600060208284031215614ef9578081fd5b813561472181615cd2565b600060208284031215614f15578081fd5b815161472181615cd2565b60008060408385031215614f32578081fd5b8235614f3d81615cd2565b91506020830135614f4d81615cd2565b809150509250929050565b600080600080600060808688031215614f6f578081fd5b8535614f7a81615cd2565b94506020860135614f8a81615cd2565b93506040860135925060608601356001600160401b0380821115614fac578283fd5b818801915088601f830112614fbf578283fd5b813581811115614fcd578384fd5b896020828501011115614fde578384fd5b9699959850939650602001949392505050565b600080600060608486031215615005578081fd5b833561501081615cd2565b92506020840135915061502560408501614ed4565b90509250925092565b600080600080600060a08688031215615045578283fd5b85356001600160401b038082111561505b578485fd5b818801915088601f83011261506e578485fd5b813560208282111561508257615082615cbc565b8160051b9250615093818401615b1c565b8281528181019085830185870184018e10156150ad57898afd5b8996505b848710156150db57803595506150c686615cd2565b858352600196909601959183019183016150b1565b5099506150eb90508a8201614e68565b9750505050506150fd60408701614e68565b925061510b60608701614e68565b915061511960808701614e68565b90509295509295909350565b60008060208385031215615137578182fd5b82356001600160401b038082111561514d578384fd5b818501915085601f830112615160578384fd5b81358181111561516e578485fd5b8660208260061b8501011115615182578485fd5b60209290920196919550909350505050565b6000602082840312156151a5578081fd5b815161472181615ce7565b6000602082840312156151c1578081fd5b813561472181615cf5565b600060608284031215614e9a578081fd5b60006101008284031215614e9a578081fd5b600060c08284031215615200578081fd5b60405160c081016001600160401b038111828210171561522257615222615cbc565b604052823561523081615cd2565b8152602083013561524081615cd2565b6020820152604083013561525381615cd2565b6040820152606083013561526681615d04565b60608201526080838101359082015260a0928301359281019290925250919050565b60008060006060848603121561529c578081fd5b6152a584614ea0565b925060208401519150604084015190509250925092565b600080600080600080600060e0888a0312156152d6578485fd5b87516152e181615cd2565b60208901519097506152f281615cf5565b955061530060408901614eb7565b945061530e60608901614eb7565b935061531c60808901614eb7565b925060a088015160ff81168114615331578283fd5b60c089015190925061534281615ce7565b8091505092959891949750929550565b600060208284031215615363578081fd5b813561472181615d04565b60006020828403121561537f578081fd5b5035919050565b600060208284031215615397578081fd5b5051919050565b600080600080608085870312156153b3578182fd5b845193506153c360208601614ea0565b6040860151606090960151949790965092505050565b600080604083850312156153eb578182fd5b505080516020909101519092909150565b600080600080600060a08688031215615413578283fd5b8535945060208601359350604086013561542c81615cf5565b9250606086013561543c81615cf5565b9150608086013561544c81615cd2565b809150509295509295909350565b60006020828403121561546b578081fd5b61472182614ed4565b60008060408385031215615486578182fd5b614f3d83614ed4565b600080600080608085870312156154a4578182fd5b6154ad85614ed4565b935060208501356154bd81615cd2565b92506040850135915060608501356154d481615ce7565b939692955090935050565b600080600080600060a086880312156154f6578283fd5b6154ff86614ed4565b9450602086013561550f81615cd2565b94979496505050506040830135926060810135926080909101359150565b60008060e0838503121561553f578182fd5b61554883614ed4565b91506155578460208501614e89565b90509250929050565b60008060006101a08486031215615575578081fd5b61557e84614ed4565b925061558d8560208601614e89565b91506150258560e08601614e89565b600080600080600060a086880312156155b3578283fd5b6155bc86614ed4565b97602087013597506040870135966060810135965060800135945092505050565b6000806000806000806000806000806000806101808d8f0312156155ff578586fd5b8c516001600160601b0381168114615615578687fd5b9b5061562360208e01614e73565b9a5061563160408e01614e73565b995061563f60608e01614e73565b985061564d60808e01614ec9565b975061565b60a08e01614e7e565b965061566960c08e01614e7e565b955061567760e08e01614ea0565b94506101008d015193506101208d015192506156966101408e01614ea0565b91506156a56101608e01614ea0565b90509295989b509295989b509295989b565b6001600160a01b03169052565b6000815180845260208085019450808401835b838110156156fc5781516001600160a01b0316875295820195908201906001016156d7565b509495945050505050565b60008251615719818460208701615bd6565b9190910192915050565b6001600160a01b0391909116815260200190565b6001600160a01b0392831681529116602082015260400190565b6001600160a01b03938416815291909216602082015262ffffff909116604082015260600190565b6001600160a01b03929092168252602082015260400190565b60208152600061472160208301846156c4565b6040815260006157b860408301856156c4565b828103602084810191909152845180835285820192820190845b818110156157ee578451835293830193918301916001016157d2565b5090979650505050505050565b60208101600e831061581d57634e487b7160e01b600052602160045260246000fd5b91905290565b6020815260008251806020840152615842816040850160208701615bd6565b601f01601f19169190910160400192915050565b6020808252601490820152733837b7b6103430b9903737903837b9b4ba34b7b760611b604082015260600190565b6020808252602e908201527f496e697469616c697a61626c653a20636f6e747261637420697320616c72656160408201526d191e481a5b9a5d1a585b1a5e995960921b606082015260800190565b6020808252600b908201526a626164206164647265737360a81b604082015260600190565b6020808252602e908201527f436f6e74726f6c6c65643a3a6f6e6c794d616e616765723a2043616c6c65722060408201526d34b9903737ba1036b0b730b3b2b960911b606082015260800190565b60208082526034908201527f436f6e74726f6c6c65643a3a6f6e6c79436f6e74726f6c6c65723a2043616c6c60408201527332b91034b9903737ba1031b7b73a3937b63632b960611b606082015260800190565b6020808252600c908201526b125b9d985b1a59081c1bdbdb60a21b604082015260600190565b6020808252600c908201526b1a5b9d985b1a59081c1bdbdb60a21b604082015260600190565b815181526020808301516001600160a01b0316908201526040808301516001600160801b0390811691830191909152606092830151169181019190915260800190565b815181526020808301516001600160801b03169082015260408083015190820152606080830151908201526080918201519181019190915260a00190565b600061016082019050615a7a8284516156b7565b6020830151615a8c60208401826156b7565b506040830151615aa3604084018262ffffff169052565b506060830151615ab8606084018260020b9052565b506080830151615acd608084018260020b9052565b5060a083015160a083015260c083015160c083015260e083015160e083015261010080840151818401525061012080840151615b0b828501826156b7565b505061014092830151919092015290565b604051601f8201601f191681016001600160401b0381118282101715615b4457615b44615cbc565b604052919050565b60008219821115615b5f57615b5f615c90565b500190565b600082615b7357615b73615ca6565b500490565b6000816000190483118215151615615b9257615b92615c90565b500290565b60006001600160a01b0383811690831681811015615bb757615bb7615c90565b039392505050565b600082821015615bd157615bd1615c90565b500390565b60005b83811015615bf1578181015183820152602001615bd9565b838111156119835750506000910152565b6000600019821415615c1657615c16615c90565b5060010190565b600063ffffffff80831681811415615c3757615c37615c90565b6001019392505050565b600082615c5057615c50615ca6565b500690565b60008160020b627fffff19811415615c6f57615c6f615c90565b9003919050565b6000600160ff1b821415615c8c57615c8c615c90565b0390565b634e487b7160e01b600052601160045260246000fd5b634e487b7160e01b600052601260045260246000fd5b634e487b7160e01b600052604160045260246000fd5b6001600160a01b03811681146117db57600080fd5b80151581146117db57600080fd5b8060020b81146117db57600080fd5b62ffffff811681146117db57600080fdfea2646970667358221220bf5ae0aa3652a05e952ab794bbd9194cf98f48ed8eda399e9f53c25d327eef7c64736f6c63430008040033",
  "devdoc": {
    "kind": "dev",
    "methods": {
      "getPendingYield(uint32)": {
        "details": "use getPendingYieldDRO via callstatic instead"
      },
      "getPendingYieldBurn(uint32)": {
        "details": "don't run this on chain!!!"
      },
      "harvestYield()": {
        "details": "Harvests token yield from the integration"
      },
      "rebalancePool(uint32,(uint160,address,address,uint24,uint256,uint256))": {
        "params": {
          "params": "The swap parameters",
          "poolID": "The pool to change"
        }
      },
      "withdraw(address,uint256,uint32)": {
        "params": {
          "amount": "The amount of token in the pool to withdraw",
          "poolID": "the pool to withdraw from",
          "token": "the token to withdraw"
        }
      }
    },
    "version": 1
  },
  "userdoc": {
    "events": {
      "CreatePool(address,address,uint32)": {
        "notice": "Events"
      },
      "PoolCreated(uint32)": {
        "notice": "Events"
      }
    },
    "kind": "user",
    "methods": {
      "availableYield(uint32,address)": {
        "notice": "Autogenerated getter function definitions"
      },
      "createPool()": {
        "notice": "Functions"
      },
      "deposit(address,uint256,uint32)": {
        "notice": "IAMMInterface Functions"
      },
      "getPoolBalance(uint32)": {
        "notice": "Getter functions"
      },
      "initialize(address[],address,address,address,address)": {
        "notice": "Functions"
      },
      "poolIDCounter()": {
        "notice": "Autogenerated getter function definitions"
      },
      "positionManager()": {
        "notice": "State variables"
      },
      "rebalancePool(uint32,(uint160,address,address,uint24,uint256,uint256))": {
        "notice": "Changes the composition of deposits in preparation of a deploy"
      },
      "updateBalance(uint32,address,uint256,bool)": {
        "notice": "Management functions"
      }
    },
    "notice": "RULES - when we burn liquidity, we always withdraw the principal and leave the fees - when we claim fees, we know all the tokens we collect are fees - in other words, calling \"collect\" will always pull only fees unless we have just performed a liquidity burn",
    "version": 1
  },
  "storageLayout": {
    "storage": [
      {
        "astId": 702,
        "contract": "contracts/yield-integrations/DROIntegration.sol:DROIntegration",
        "label": "_initialized",
        "offset": 0,
        "slot": "0",
        "type": "t_bool"
      },
      {
        "astId": 705,
        "contract": "contracts/yield-integrations/DROIntegration.sol:DROIntegration",
        "label": "_initializing",
        "offset": 1,
        "slot": "0",
        "type": "t_bool"
      },
      {
        "astId": 13077,
        "contract": "contracts/yield-integrations/DROIntegration.sol:DROIntegration",
        "label": "moduleMap",
        "offset": 2,
        "slot": "0",
        "type": "t_contract(IModuleMap)24442"
      },
      {
        "astId": 7548,
        "contract": "contracts/yield-integrations/DROIntegration.sol:DROIntegration",
        "label": "_controllers",
        "offset": 0,
        "slot": "1",
        "type": "t_mapping(t_address,t_bool)"
      },
      {
        "astId": 7551,
        "contract": "contracts/yield-integrations/DROIntegration.sol:DROIntegration",
        "label": "controllers",
        "offset": 0,
        "slot": "2",
        "type": "t_array(t_address)dyn_storage"
      },
      {
        "astId": 36264,
        "contract": "contracts/yield-integrations/DROIntegration.sol:DROIntegration",
        "label": "positionManager",
        "offset": 0,
        "slot": "3",
        "type": "t_contract(INonfungiblePositionManager)30080"
      },
      {
        "astId": 36267,
        "contract": "contracts/yield-integrations/DROIntegration.sol:DROIntegration",
        "label": "factory",
        "offset": 0,
        "slot": "4",
        "type": "t_contract(IUniswapV3Factory)30163"
      },
      {
        "astId": 36270,
        "contract": "contracts/yield-integrations/DROIntegration.sol:DROIntegration",
        "label": "swapRouter",
        "offset": 0,
        "slot": "5",
        "type": "t_contract(IUniswapV3SwapRouter)27300"
      },
      {
        "astId": 36273,
        "contract": "contracts/yield-integrations/DROIntegration.sol:DROIntegration",
        "label": "poolIDCounter",
        "offset": 20,
        "slot": "5",
        "type": "t_uint32"
      },
      {
        "astId": 36280,
        "contract": "contracts/yield-integrations/DROIntegration.sol:DROIntegration",
        "label": "balances",
        "offset": 0,
        "slot": "6",
        "type": "t_mapping(t_uint32,t_mapping(t_address,t_uint256))"
      },
      {
        "astId": 36285,
        "contract": "contracts/yield-integrations/DROIntegration.sol:DROIntegration",
        "label": "positionID",
        "offset": 0,
        "slot": "7",
        "type": "t_mapping(t_uint32,t_uint256)"
      },
      {
        "astId": 36292,
        "contract": "contracts/yield-integrations/DROIntegration.sol:DROIntegration",
        "label": "availableYield",
        "offset": 0,
        "slot": "8",
        "type": "t_mapping(t_uint32,t_mapping(t_address,t_uint256))"
      }
    ],
    "types": {
      "t_address": {
        "encoding": "inplace",
        "label": "address",
        "numberOfBytes": "20"
      },
      "t_array(t_address)dyn_storage": {
        "base": "t_address",
        "encoding": "dynamic_array",
        "label": "address[]",
        "numberOfBytes": "32"
      },
      "t_bool": {
        "encoding": "inplace",
        "label": "bool",
        "numberOfBytes": "1"
      },
      "t_contract(IModuleMap)24442": {
        "encoding": "inplace",
        "label": "contract IModuleMap",
        "numberOfBytes": "20"
      },
      "t_contract(INonfungiblePositionManager)30080": {
        "encoding": "inplace",
        "label": "contract INonfungiblePositionManager",
        "numberOfBytes": "20"
      },
      "t_contract(IUniswapV3Factory)30163": {
        "encoding": "inplace",
        "label": "contract IUniswapV3Factory",
        "numberOfBytes": "20"
      },
      "t_contract(IUniswapV3SwapRouter)27300": {
        "encoding": "inplace",
        "label": "contract IUniswapV3SwapRouter",
        "numberOfBytes": "20"
      },
      "t_mapping(t_address,t_bool)": {
        "encoding": "mapping",
        "key": "t_address",
        "label": "mapping(address => bool)",
        "numberOfBytes": "32",
        "value": "t_bool"
      },
      "t_mapping(t_address,t_uint256)": {
        "encoding": "mapping",
        "key": "t_address",
        "label": "mapping(address => uint256)",
        "numberOfBytes": "32",
        "value": "t_uint256"
      },
      "t_mapping(t_uint32,t_mapping(t_address,t_uint256))": {
        "encoding": "mapping",
        "key": "t_uint32",
        "label": "mapping(uint32 => mapping(address => uint256))",
        "numberOfBytes": "32",
        "value": "t_mapping(t_address,t_uint256)"
      },
      "t_mapping(t_uint32,t_uint256)": {
        "encoding": "mapping",
        "key": "t_uint32",
        "label": "mapping(uint32 => uint256)",
        "numberOfBytes": "32",
        "value": "t_uint256"
      },
      "t_uint256": {
        "encoding": "inplace",
        "label": "uint256",
        "numberOfBytes": "32"
      },
      "t_uint32": {
        "encoding": "inplace",
        "label": "uint32",
        "numberOfBytes": "4"
      }
    }
  }
}