{
  "address": "0x5a1107408F7978B2494614D904777873268566DB",
  "abi": [
    {
      "inputs": [
        {
          "internalType": "address",
          "name": "controller",
          "type": "address"
        }
      ],
      "name": "addController",
      "outputs": [],
      "stateMutability": "nonpayable",
      "type": "function"
    },
    {
      "inputs": [
        {
          "internalType": "address",
          "name": "user",
          "type": "address"
        },
        {
          "internalType": "uint256[]",
          "name": "ids",
          "type": "uint256[]"
        }
      ],
      "name": "claimEthRewards",
      "outputs": [
        {
          "internalType": "uint256",
          "name": "ethRewards",
          "type": "uint256"
        }
      ],
      "stateMutability": "nonpayable",
      "type": "function"
    },
    {
      "inputs": [
        {
          "internalType": "uint256",
          "name": "",
          "type": "uint256"
        }
      ],
      "name": "controllers",
      "outputs": [
        {
          "internalType": "address",
          "name": "",
          "type": "address"
        }
      ],
      "stateMutability": "view",
      "type": "function"
    },
    {
      "inputs": [
        {
          "internalType": "uint256",
          "name": "strategyId",
          "type": "uint256"
        },
        {
          "internalType": "uint256",
          "name": "amount",
          "type": "uint256"
        },
        {
          "internalType": "address",
          "name": "user",
          "type": "address"
        }
      ],
      "name": "decreaseUserRewards",
      "outputs": [],
      "stateMutability": "nonpayable",
      "type": "function"
    },
    {
      "inputs": [
        {
          "internalType": "uint256",
          "name": "strategyId",
          "type": "uint256"
        },
        {
          "internalType": "uint256",
          "name": "ethRewardsAmount",
          "type": "uint256"
        }
      ],
      "name": "donate",
      "outputs": [],
      "stateMutability": "payable",
      "type": "function"
    },
    {
      "inputs": [],
      "name": "getAllControllers",
      "outputs": [
        {
          "internalType": "address[]",
          "name": "currentControllers",
          "type": "address[]"
        }
      ],
      "stateMutability": "view",
      "type": "function"
    },
    {
      "inputs": [],
      "name": "getEthRewards",
      "outputs": [
        {
          "internalType": "uint256",
          "name": "",
          "type": "uint256"
        }
      ],
      "stateMutability": "view",
      "type": "function"
    },
    {
      "inputs": [
        {
          "internalType": "uint256",
          "name": "strategyId",
          "type": "uint256"
        }
      ],
      "name": "getStrategyInfo",
      "outputs": [
        {
          "components": [
            {
              "internalType": "uint256",
              "name": "rewardPerShare",
              "type": "uint256"
            },
            {
              "internalType": "uint256",
              "name": "totalRewards",
              "type": "uint256"
            }
          ],
          "internalType": "struct IEtherRewards.StrategyInfo",
          "name": "",
          "type": "tuple"
        }
      ],
      "stateMutability": "view",
      "type": "function"
    },
    {
      "inputs": [],
      "name": "getTotalClaimedEthRewards",
      "outputs": [
        {
          "internalType": "uint256",
          "name": "",
          "type": "uint256"
        }
      ],
      "stateMutability": "view",
      "type": "function"
    },
    {
      "inputs": [
        {
          "internalType": "address",
          "name": "user",
          "type": "address"
        },
        {
          "internalType": "uint256[]",
          "name": "ids",
          "type": "uint256[]"
        }
      ],
      "name": "getTotalUserClaimedEthByStrategy",
      "outputs": [
        {
          "internalType": "uint256[]",
          "name": "",
          "type": "uint256[]"
        }
      ],
      "stateMutability": "view",
      "type": "function"
    },
    {
      "inputs": [
        {
          "internalType": "address",
          "name": "account",
          "type": "address"
        }
      ],
      "name": "getTotalUserClaimedEthRewards",
      "outputs": [
        {
          "internalType": "uint256",
          "name": "",
          "type": "uint256"
        }
      ],
      "stateMutability": "view",
      "type": "function"
    },
    {
      "inputs": [
        {
          "internalType": "address",
          "name": "user",
          "type": "address"
        }
      ],
      "name": "getUserEthRewards",
      "outputs": [
        {
          "internalType": "uint256",
          "name": "",
          "type": "uint256"
        }
      ],
      "stateMutability": "view",
      "type": "function"
    },
    {
      "inputs": [
        {
          "internalType": "uint256",
          "name": "strategyId",
          "type": "uint256"
        },
        {
          "internalType": "address",
          "name": "user",
          "type": "address"
        }
      ],
      "name": "getUserInfo",
      "outputs": [
        {
          "components": [
            {
              "internalType": "int256",
              "name": "rewardDebt",
              "type": "int256"
            },
            {
              "internalType": "uint256",
              "name": "claimedRewards",
              "type": "uint256"
            }
          ],
          "internalType": "struct IEtherRewards.UserInfo",
          "name": "",
          "type": "tuple"
        }
      ],
      "stateMutability": "view",
      "type": "function"
    },
    {
      "inputs": [
        {
          "internalType": "uint256",
          "name": "strategyId",
          "type": "uint256"
        },
        {
          "internalType": "address",
          "name": "user",
          "type": "address"
        }
      ],
      "name": "getUserStrategyRewards",
      "outputs": [
        {
          "internalType": "uint256",
          "name": "ethRewards",
          "type": "uint256"
        }
      ],
      "stateMutability": "view",
      "type": "function"
    },
    {
      "inputs": [
        {
          "internalType": "uint256",
          "name": "strategyId",
          "type": "uint256"
        },
        {
          "internalType": "uint256",
          "name": "ethRewardsAmount",
          "type": "uint256"
        }
      ],
      "name": "increaseEthRewards",
      "outputs": [],
      "stateMutability": "nonpayable",
      "type": "function"
    },
    {
      "inputs": [
        {
          "internalType": "uint256",
          "name": "strategyId",
          "type": "uint256"
        },
        {
          "internalType": "uint256",
          "name": "amount",
          "type": "uint256"
        },
        {
          "internalType": "address",
          "name": "user",
          "type": "address"
        }
      ],
      "name": "increaseUserRewards",
      "outputs": [],
      "stateMutability": "nonpayable",
      "type": "function"
    },
    {
      "inputs": [
        {
          "internalType": "address[]",
          "name": "controllers_",
          "type": "address[]"
        },
        {
          "internalType": "address",
          "name": "moduleMap_",
          "type": "address"
        }
      ],
      "name": "initialize",
      "outputs": [],
      "stateMutability": "nonpayable",
      "type": "function"
    },
    {
      "inputs": [
        {
          "internalType": "address",
          "name": "controller",
          "type": "address"
        }
      ],
      "name": "isController",
      "outputs": [
        {
          "internalType": "bool",
          "name": "status",
          "type": "bool"
        }
      ],
      "stateMutability": "view",
      "type": "function"
    },
    {
      "inputs": [],
      "name": "moduleMap",
      "outputs": [
        {
          "internalType": "contract IModuleMap",
          "name": "",
          "type": "address"
        }
      ],
      "stateMutability": "view",
      "type": "function"
    }
  ],
  "transactionHash": "0xa8a780e6f2c55ad91fd9f9c4f8bd111f5b00b71aba109da51678a67442bb70cd",
  "args": [],
  "solcInputHash": "767e0012b9ccaf8da4e2bf0036db621f",
  "bytecode": "0x608060405234801561001057600080fd5b506121ba806100206000396000f3fe6080604052600436106100e45760003560e01c80630c52b797146100e95780630cdd53f61461010d5780630f0a1c6f146101225780631069f3b51461015557806313cf6b0014610190578063337993cb146101b0578063462d0b2e146101d257806354ed0e59146101f25780636500d90f14610212578063a22aecd114610248578063a7fc7a0714610268578063b429afeb14610288578063c3b2a7f4146102d1578063d390c73a146102f1578063db089e791461031e578063e87e88dc14610377578063e94b0dd21461038c578063ebfd2da4146103ac578063f4f104b5146103cc575b600080fd5b3480156100f557600080fd5b506004545b6040519081526020015b60405180910390f35b61012061011b366004611d36565b6103ec565b005b34801561012e57600080fd5b50600054610148906201000090046001600160a01b031681565b6040516101049190611d8f565b34801561016157600080fd5b50610175610170366004611d07565b610445565b60408051825181526020928301519281019290925201610104565b34801561019c57600080fd5b506101206101ab366004611d57565b610491565b3480156101bc57600080fd5b506101c5610527565b6040516101049190611da3565b3480156101de57600080fd5b506101206101ed366004611af1565b610589565b3480156101fe57600080fd5b506100fa61020d366004611a30565b610607565b34801561021e57600080fd5b506100fa61022d366004611a30565b6001600160a01b031660009081526005602052604090205490565b34801561025457600080fd5b50610120610263366004611d57565b610741565b34801561027457600080fd5b50610120610283366004611a30565b6107cd565b34801561029457600080fd5b506102c16102a3366004611a30565b6001600160a01b031660009081526001602052604090205460ff1690565b6040519015158152602001610104565b3480156102dd57600080fd5b506100fa6102ec366004611a6f565b610a09565b3480156102fd57600080fd5b5061031161030c366004611a6f565b610a8f565b6040516101049190611df0565b34801561032a57600080fd5b50610175610339366004611cd7565b604080518082019091526000808252602082015250600090815260076020908152604091829020825180840190935280548352600101549082015290565b34801561038357600080fd5b506003546100fa565b34801561039857600080fd5b506101486103a7366004611cd7565b610b86565b3480156103b857600080fd5b506100fa6103c7366004611d07565b610bb0565b3480156103d857600080fd5b506101206103e7366004611d36565b610bbc565b6000811180156103fb57508034145b6104375760405162461bcd60e51b81526020600482015260086024820152670dccacac840cae8d60c31b60448201526064015b60405180910390fd5b6104418282610beb565b5050565b604080518082018252600080825260209182018190526001600160a01b038416815260068252828120858252825282902082518084019093528054835260010154908201525b92915050565b3360009081526001602052604090205460ff166104c05760405162461bcd60e51b815260040161042e90611ec3565b60008381526007602052604090205464e8d4a51000906104e090846120b0565b6104ea919061200d565b6001600160a01b03821660009081526006602090815260408083208784529091528120805490919061051d908490611fb4565b9091555050505050565b6060600280548060200260200160405190810160405280929190818152602001828054801561057f57602002820191906000526020600020905b81546001600160a01b03168152600190910190602001808311610561575b5050505050905090565b600054610100900460ff166105a45760005460ff16156105a8565b303b155b6105c45760405162461bcd60e51b815260040161042e90611e50565b600054610100900460ff161580156105e6576000805461ffff19166101011790555b6105f08383610fda565b8015610602576000805461ff00191690555b505050565b600080546040516337c61fc560e11b815282916201000090046001600160a01b031690636f8c3f8a9061063f90600890600401611e28565b60206040518083038186803b15801561065757600080fd5b505afa15801561066b573d6000803e3d6000fd5b505050506040513d601f19601f8201168201806040525081019061068f9190611a53565b90506000805b826001600160a01b031663eb08ab286040518163ffffffff1660e01b815260040160206040518083038186803b1580156106ce57600080fd5b505afa1580156106e2573d6000803e3d6000fd5b505050506040513d601f19601f820116820180604052508101906107069190611cef565b81116107395760006107188287611165565b5090506107258184611ff5565b9250508061073290612125565b9050610695565b509392505050565b3360009081526001602052604090205460ff166107705760405162461bcd60e51b815260040161042e90611ec3565b60008381526007602052604090205464e8d4a510009061079090846120b0565b61079a919061200d565b6001600160a01b03821660009081526006602090815260408083208784529091528120805490919061051d9084906120cf565b600080546040516337c61fc560e11b8152620100009091046001600160a01b031691636f8c3f8a916108029190600401611e28565b60206040518083038186803b15801561081a57600080fd5b505afa15801561082e573d6000803e3d6000fd5b505050506040513d601f19601f820116820180604052508101906108529190611a53565b6001600160a01b0316632f54bf6e336040518263ffffffff1660e01b815260040161087d9190611d8f565b60206040518083038186803b15801561089557600080fd5b505afa1580156108a9573d6000803e3d6000fd5b505050506040513d601f19601f820116820180604052508101906108cd9190611b9e565b61092c5760405162461bcd60e51b815260206004820152602a60248201527f436f6e74726f6c6c65643a3a6f6e6c794f776e65723a2043616c6c6572206973604482015269103737ba1037bbb732b960b11b606482015260840161042e565b6001600160a01b03811660009081526001602081905260408220805460ff19169091179055805b6002548110156109b2576002818154811061097e57634e487b7160e01b600052603260045260246000fd5b6000918252602090912001546001600160a01b03848116911614156109a257600191505b6109ab81612125565b9050610953565b508061044157600280546001810182556000919091527f405787fa12a823e0f2b7631cc41b3ba8828b3321ca811111fa75cd3aa3bb5ace0180546001600160a01b0384166001600160a01b03199091161790555050565b3360009081526001602052604081205460ff16610a385760405162461bcd60e51b815260040161042e90611ec3565b60005b8281101561073957610a73848483818110610a6657634e487b7160e01b600052603260045260246000fd5b9050602002013586611494565b610a7d9083611ff5565b9150610a8881612125565b9050610a3b565b60606000826001600160401b03811115610ab957634e487b7160e01b600052604160045260246000fd5b604051908082528060200260200182016040528015610ae2578160200160208202803683370190505b50905060005b83811015610b7d576001600160a01b038616600090815260066020526040812090868684818110610b2957634e487b7160e01b600052603260045260246000fd5b90506020020135815260200190815260200160002060010154828281518110610b6257634e487b7160e01b600052603260045260246000fd5b6020908102919091010152610b7681612125565b9050610ae8565b50949350505050565b60028181548110610b9657600080fd5b6000918252602090912001546001600160a01b0316905081565b60006107398383611165565b3360009081526001602052604090205460ff166104375760405162461bcd60e51b815260040161042e90611ec3565b600082815260076020526040808220825491516337c61fc560e11b81529092916201000090046001600160a01b031690636f8c3f8a90610c3090600390600401611e28565b60206040518083038186803b158015610c4857600080fd5b505afa158015610c5c573d6000803e3d6000fd5b505050506040513d601f19601f82011682018060405250810190610c809190611a53565b905060008415610daa576000546040516337c61fc560e11b8152620100009091046001600160a01b031690636f8c3f8a90610cc090600890600401611e28565b60206040518083038186803b158015610cd857600080fd5b505afa158015610cec573d6000803e3d6000fd5b505050506040513d601f19601f82011682018060405250810190610d109190611a53565b6001600160a01b0316639d6eaec286610d288861154c565b6040516001600160e01b031960e085901b16815260048101929092526001600160a01b0316602482015260440160206040518083038186803b158015610d6d57600080fd5b505afa158015610d81573d6000803e3d6000fd5b505050506040513d601f19601f82011682018060405250810190610da59190611cef565b610f1b565b6000546040516337c61fc560e11b8152620100009091046001600160a01b031690636f8c3f8a90610de090600190600401611e28565b60206040518083038186803b158015610df857600080fd5b505afa158015610e0c573d6000803e3d6000fd5b505050506040513d601f19601f82011682018060405250810190610e309190611a53565b6001600160a01b031663f5465992836001600160a01b03166344fc9b566040518163ffffffff1660e01b815260040160206040518083038186803b158015610e7757600080fd5b505afa158015610e8b573d6000803e3d6000fd5b505050506040513d601f19601f82011682018060405250810190610eaf9190611a53565b6040518263ffffffff1660e01b8152600401610ecb9190611d8f565b60206040518083038186803b158015610ee357600080fd5b505afa158015610ef7573d6000803e3d6000fd5b505050506040513d601f19601f82011682018060405250810190610f1b9190611cef565b905060008111610f6d5760405162461bcd60e51b815260206004820152601f60248201527f4574686572526577617264733a3a746f6b656e4e6f744465706f736974656400604482015260640161042e565b80610f7d64e8d4a51000866120b0565b610f87919061200d565b836000016000828254610f9a9190611ff5565b9250508190555083836001016000828254610fb59190611ff5565b925050819055508360036000828254610fce9190611ff5565b90915550505050505050565b600054610100900460ff16610ff55760005460ff1615610ff9565b303b155b6110155760405162461bcd60e51b815260040161042e90611e50565b600054610100900460ff16158015611037576000805461ffff19166101011790555b6001600160a01b03821661105d5760405162461bcd60e51b815260040161042e90611e9e565b60005b83518110156110d35760006001600160a01b031684828151811061109457634e487b7160e01b600052603260045260246000fd5b60200260200101516001600160a01b031614156110c35760405162461bcd60e51b815260040161042e90611e9e565b6110cc81612125565b9050611060565b5060005b835181101561114757600180600086848151811061110557634e487b7160e01b600052603260045260246000fd5b6020908102919091018101516001600160a01b03168252810191909152604001600020805460ff191691151591909117905561114081612125565b90506110d7565b50825161115b906002906020860190611851565b506105f08261178c565b6001600160a01b0380821660009081526006602090815260408083208684528252808320815180830183528154815260019182015493810193909352835491516337c61fc560e11b815293948594859362010000900490911691636f8c3f8a916111d29190600401611e28565b60206040518083038186803b1580156111ea57600080fd5b505afa1580156111fe573d6000803e3d6000fd5b505050506040513d601f19601f820116820180604052508101906112229190611a53565b9050856113b1576000546040516337c61fc560e11b81526001600160a01b038084169263b47064c8926201000090910490911690636f8c3f8a9061126b90600390600401611e28565b60206040518083038186803b15801561128357600080fd5b505afa158015611297573d6000803e3d6000fd5b505050506040513d601f19601f820116820180604052508101906112bb9190611a53565b6001600160a01b03166344fc9b566040518163ffffffff1660e01b815260040160206040518083038186803b1580156112f357600080fd5b505afa158015611307573d6000803e3d6000fd5b505050506040513d601f19601f8201168201806040525081019061132b9190611a53565b6040516001600160e01b031960e084901b1681526001600160a01b039182166004820152908816602482015260440160206040518083038186803b15801561137257600080fd5b505afa158015611386573d6000803e3d6000fd5b505050506040513d601f19601f820116820180604052508101906113aa9190611cef565b9250611453565b806001600160a01b03166341127a67876113ca8961154c565b6040516001600160e01b031960e085901b16815260048101929092526001600160a01b0390811660248301528816604482015260640160206040518083038186803b15801561141857600080fd5b505afa15801561142c573d6000803e3d6000fd5b505050506040513d601f19601f820116820180604052508101906114509190611cef565b92505b6000868152600760205260409020546114899064e8d4a51000906114789086906120b0565b611482919061200d565b8351611820565b935050509250929050565b60008060006114a38585611165565b909250905081156107395760008581526007602052604090205464e8d4a51000906114cf9083906120b0565b6114d9919061200d565b6001600160a01b038516600090815260066020908152604080832089845290915281209190915560048054849290611512908490611ff5565b90915550506001600160a01b0384166000908152600560205260408120805484929061153f908490611ff5565b9091555050509392505050565b600081611649576000546040516337c61fc560e11b8152620100009091046001600160a01b031690636f8c3f8a9061158990600390600401611e28565b60206040518083038186803b1580156115a157600080fd5b505afa1580156115b5573d6000803e3d6000fd5b505050506040513d601f19601f820116820180604052508101906115d99190611a53565b6001600160a01b03166344fc9b566040518163ffffffff1660e01b815260040160206040518083038186803b15801561161157600080fd5b505afa158015611625573d6000803e3d6000fd5b505050506040513d601f19601f8201168201806040525081019061048b9190611a53565b6000546040516337c61fc560e11b8152620100009091046001600160a01b031690636f8c3f8a9061167f90600890600401611e28565b60206040518083038186803b15801561169757600080fd5b505afa1580156116ab573d6000803e3d6000fd5b505050506040513d601f19601f820116820180604052508101906116cf9190611a53565b6001600160a01b031663cfc0cc34836040518263ffffffff1660e01b81526004016116fc91815260200190565b60006040518083038186803b15801561171457600080fd5b505afa158015611728573d6000803e3d6000fd5b505050506040513d6000823e601f3d908101601f191682016040526117509190810190611bbe565b6040015160008151811061177457634e487b7160e01b600052603260045260246000fd5b6020026020010151602001519050919050565b919050565b600054610100900460ff166117a75760005460ff16156117ab565b303b155b6117c75760405162461bcd60e51b815260040161042e90611e50565b600054610100900460ff161580156117e9576000805461ffff19166101011790555b6000805462010000600160b01b031916620100006001600160a01b038516021790558015610441576000805461ff00191690555050565b600080821215611847576118368260001961202d565b6118409084611ff5565b905061048b565b611840828461210e565b8280548282559060005260206000209081019282156118a6579160200282015b828111156118a657825182546001600160a01b0319166001600160a01b03909116178255602090920191600190910190611871565b506118b29291506118b6565b5090565b5b808211156118b257600081556001016118b7565b80356117878161216c565b600082601f8301126118e6578081fd5b815160206118fb6118f683611f91565b611f61565b80838252828201915082860187848660061b890101111561191a578586fd5b855b8581101561196b57604080838b031215611934578788fd5b61193c611f17565b83516119478161216c565b8152611954848801611a1c565b81880152855293850193919091019060010161191c565b5090979650505050505050565b600082601f830112611988578081fd5b815160206119986118f683611f91565b828152818101908583016060808602880185018910156119b6578687fd5b865b86811015611a0e5781838b0312156119ce578788fd5b6119d6611f3f565b83518152868401516119e78161216c565b8188015260406119f8858201611a1c565b90820152855293850193918101916001016119b8565b509198975050505050505050565b805163ffffffff8116811461178757600080fd5b600060208284031215611a41578081fd5b8135611a4c8161216c565b9392505050565b600060208284031215611a64578081fd5b8151611a4c8161216c565b600080600060408486031215611a83578182fd5b8335611a8e8161216c565b925060208401356001600160401b0380821115611aa9578384fd5b818601915086601f830112611abc578384fd5b813581811115611aca578485fd5b8760208260051b8501011115611ade578485fd5b6020830194508093505050509250925092565b60008060408385031215611b03578182fd5b82356001600160401b03811115611b18578283fd5b8301601f81018513611b28578283fd5b80356020611b386118f683611f91565b80838252828201915082850189848660051b8801011115611b57578788fd5b8795505b84861015611b82578035611b6e8161216c565b835260019590950194918301918301611b5b565b509550611b9290508682016118cb565b93505050509250929050565b600060208284031215611baf578081fd5b81518015158114611a4c578182fd5b60006020808385031215611bd0578182fd5b82516001600160401b0380821115611be6578384fd5b9084019060608287031215611bf9578384fd5b611c01611f3f565b825182811115611c0f578586fd5b8301601f81018813611c1f578586fd5b805183811115611c3157611c31612156565b611c43601f8201601f19168701611f61565b8181528987838501011115611c56578788fd5b875b82811015611c73578381018801518282018901528701611c58565b82811115611c8357888884840101525b50835250508284015182811115611c98578586fd5b611ca4888286016118d6565b85830152506040830151935081841115611cbc578485fd5b611cc887858501611978565b60408201529695505050505050565b600060208284031215611ce8578081fd5b5035919050565b600060208284031215611d00578081fd5b5051919050565b60008060408385031215611d19578182fd5b823591506020830135611d2b8161216c565b809150509250929050565b60008060408385031215611d48578182fd5b50508035926020909101359150565b600080600060608486031215611d6b578081fd5b83359250602084013591506040840135611d848161216c565b809150509250925092565b6001600160a01b0391909116815260200190565b6020808252825182820181905260009190848201906040850190845b81811015611de45783516001600160a01b031683529284019291840191600101611dbf565b50909695505050505050565b6020808252825182820181905260009190848201906040850190845b81811015611de457835183529284019291840191600101611e0c565b60208101600e8310611e4a57634e487b7160e01b600052602160045260246000fd5b91905290565b6020808252602e908201527f496e697469616c697a61626c653a20636f6e747261637420697320616c72656160408201526d191e481a5b9a5d1a585b1a5e995960921b606082015260800190565b6020808252600b908201526a626164206164647265737360a81b604082015260600190565b60208082526034908201527f436f6e74726f6c6c65643a3a6f6e6c79436f6e74726f6c6c65723a2043616c6c60408201527332b91034b9903737ba1031b7b73a3937b63632b960611b606082015260800190565b604080519081016001600160401b0381118282101715611f3957611f39612156565b60405290565b604051606081016001600160401b0381118282101715611f3957611f39612156565b604051601f8201601f191681016001600160401b0381118282101715611f8957611f89612156565b604052919050565b60006001600160401b03821115611faa57611faa612156565b5060051b60200190565b600080821280156001600160ff1b0384900385131615611fd657611fd6612140565b600160ff1b8390038412811615611fef57611fef612140565b50500190565b6000821982111561200857612008612140565b500190565b60008261202857634e487b7160e01b81526012600452602481fd5b500490565b60006001600160ff1b038184138284138082168684048611161561205357612053612140565b600160ff1b8487128281168783058912161561207157612071612140565b85871292508782058712848416161561208c5761208c612140565b878505871281841616156120a2576120a2612140565b505050929093029392505050565b60008160001904831182151516156120ca576120ca612140565b500290565b60008083128015600160ff1b8501841216156120ed576120ed612140565b6001600160ff1b038401831381161561210857612108612140565b50500390565b60008282101561212057612120612140565b500390565b600060001982141561213957612139612140565b5060010190565b634e487b7160e01b600052601160045260246000fd5b634e487b7160e01b600052604160045260246000fd5b6001600160a01b038116811461218157600080fd5b5056fea26469706673582212207e4a67c5d6b62de160e942d532715b226c367e0ed8835072a9ceeaa55a6bb54364736f6c63430008040033",
  "devdoc": {
    "kind": "dev",
    "methods": {
      "claimEthRewards(address,uint256[])": {
        "params": {
          "ids": "An array of strategyIds to claim rewards for",
          "user": "The address of the user"
        },
        "returns": {
          "ethRewards": "The amount of Ether claimed"
        }
      },
      "decreaseUserRewards(uint256,uint256,address)": {
        "params": {
          "amount": "Amount of token entered into strategy",
          "strategyId": "Strategy the user entered into",
          "user": "The address of the user"
        }
      },
      "getEthRewards()": {
        "returns": {
          "_0": "The total amount of Ether rewards"
        }
      },
      "getTotalClaimedEthRewards()": {
        "returns": {
          "_0": "The total value of ETH claimed by users"
        }
      },
      "getTotalUserClaimedEthRewards(address)": {
        "returns": {
          "_0": "The total value of ETH claimed by a user"
        }
      },
      "getUserEthRewards(address)": {
        "params": {
          "user": "The address of the user"
        },
        "returns": {
          "_0": "ethRewards The amount of Ether claimed"
        }
      },
      "getUserStrategyRewards(uint256,address)": {
        "params": {
          "strategyId": "The ID of the strategy",
          "user": "The address of the user"
        },
        "returns": {
          "ethRewards": "The amount of claimable Ether"
        }
      },
      "increaseEthRewards(uint256,uint256)": {
        "details": "strategyId = 0 for BIOS PFA!",
        "params": {
          "ethRewardsAmount": "The amount of Ether rewards to add",
          "strategyId": "The strategyId of the strategy to increase rewards for"
        }
      },
      "increaseUserRewards(uint256,uint256,address)": {
        "params": {
          "amount": "Amount of token entered into strategy",
          "strategyId": "Strategy the user entered into",
          "user": "The address of the user"
        }
      },
      "initialize(address[],address)": {
        "params": {
          "controllers_": "The array of controllers for this contract",
          "moduleMap_": "The address of the ModuleMap contract"
        }
      }
    },
    "version": 1
  },
  "userdoc": {
    "kind": "user",
    "methods": {},
    "version": 1
  },
  "storageLayout": {
    "storage": [
      {
        "astId": 702,
        "contract": "contracts/core/EtherRewards.sol:EtherRewards",
        "label": "_initialized",
        "offset": 0,
        "slot": "0",
        "type": "t_bool"
      },
      {
        "astId": 705,
        "contract": "contracts/core/EtherRewards.sol:EtherRewards",
        "label": "_initializing",
        "offset": 1,
        "slot": "0",
        "type": "t_bool"
      },
      {
        "astId": 11452,
        "contract": "contracts/core/EtherRewards.sol:EtherRewards",
        "label": "moduleMap",
        "offset": 2,
        "slot": "0",
        "type": "t_contract(IModuleMap)22788"
      },
      {
        "astId": 5923,
        "contract": "contracts/core/EtherRewards.sol:EtherRewards",
        "label": "_controllers",
        "offset": 0,
        "slot": "1",
        "type": "t_mapping(t_address,t_bool)"
      },
      {
        "astId": 5926,
        "contract": "contracts/core/EtherRewards.sol:EtherRewards",
        "label": "controllers",
        "offset": 0,
        "slot": "2",
        "type": "t_array(t_address)dyn_storage"
      },
      {
        "astId": 6141,
        "contract": "contracts/core/EtherRewards.sol:EtherRewards",
        "label": "totalEthRewards",
        "offset": 0,
        "slot": "3",
        "type": "t_uint256"
      },
      {
        "astId": 6143,
        "contract": "contracts/core/EtherRewards.sol:EtherRewards",
        "label": "totalClaimedEthRewards",
        "offset": 0,
        "slot": "4",
        "type": "t_uint256"
      },
      {
        "astId": 6147,
        "contract": "contracts/core/EtherRewards.sol:EtherRewards",
        "label": "totalUserClaimedEthRewards",
        "offset": 0,
        "slot": "5",
        "type": "t_mapping(t_address,t_uint256)"
      },
      {
        "astId": 6154,
        "contract": "contracts/core/EtherRewards.sol:EtherRewards",
        "label": "users",
        "offset": 0,
        "slot": "6",
        "type": "t_mapping(t_address,t_mapping(t_uint256,t_struct(UserInfo)21592_storage))"
      },
      {
        "astId": 6159,
        "contract": "contracts/core/EtherRewards.sol:EtherRewards",
        "label": "strategies",
        "offset": 0,
        "slot": "7",
        "type": "t_mapping(t_uint256,t_struct(StrategyInfo)21597_storage)"
      }
    ],
    "types": {
      "t_address": {
        "encoding": "inplace",
        "label": "address",
        "numberOfBytes": "20"
      },
      "t_array(t_address)dyn_storage": {
        "base": "t_address",
        "encoding": "dynamic_array",
        "label": "address[]",
        "numberOfBytes": "32"
      },
      "t_bool": {
        "encoding": "inplace",
        "label": "bool",
        "numberOfBytes": "1"
      },
      "t_contract(IModuleMap)22788": {
        "encoding": "inplace",
        "label": "contract IModuleMap",
        "numberOfBytes": "20"
      },
      "t_int256": {
        "encoding": "inplace",
        "label": "int256",
        "numberOfBytes": "32"
      },
      "t_mapping(t_address,t_bool)": {
        "encoding": "mapping",
        "key": "t_address",
        "label": "mapping(address => bool)",
        "numberOfBytes": "32",
        "value": "t_bool"
      },
      "t_mapping(t_address,t_mapping(t_uint256,t_struct(UserInfo)21592_storage))": {
        "encoding": "mapping",
        "key": "t_address",
        "label": "mapping(address => mapping(uint256 => struct IEtherRewards.UserInfo))",
        "numberOfBytes": "32",
        "value": "t_mapping(t_uint256,t_struct(UserInfo)21592_storage)"
      },
      "t_mapping(t_address,t_uint256)": {
        "encoding": "mapping",
        "key": "t_address",
        "label": "mapping(address => uint256)",
        "numberOfBytes": "32",
        "value": "t_uint256"
      },
      "t_mapping(t_uint256,t_struct(StrategyInfo)21597_storage)": {
        "encoding": "mapping",
        "key": "t_uint256",
        "label": "mapping(uint256 => struct IEtherRewards.StrategyInfo)",
        "numberOfBytes": "32",
        "value": "t_struct(StrategyInfo)21597_storage"
      },
      "t_mapping(t_uint256,t_struct(UserInfo)21592_storage)": {
        "encoding": "mapping",
        "key": "t_uint256",
        "label": "mapping(uint256 => struct IEtherRewards.UserInfo)",
        "numberOfBytes": "32",
        "value": "t_struct(UserInfo)21592_storage"
      },
      "t_struct(StrategyInfo)21597_storage": {
        "encoding": "inplace",
        "label": "struct IEtherRewards.StrategyInfo",
        "members": [
          {
            "astId": 21594,
            "contract": "contracts/core/EtherRewards.sol:EtherRewards",
            "label": "rewardPerShare",
            "offset": 0,
            "slot": "0",
            "type": "t_uint256"
          },
          {
            "astId": 21596,
            "contract": "contracts/core/EtherRewards.sol:EtherRewards",
            "label": "totalRewards",
            "offset": 0,
            "slot": "1",
            "type": "t_uint256"
          }
        ],
        "numberOfBytes": "64"
      },
      "t_struct(UserInfo)21592_storage": {
        "encoding": "inplace",
        "label": "struct IEtherRewards.UserInfo",
        "members": [
          {
            "astId": 21589,
            "contract": "contracts/core/EtherRewards.sol:EtherRewards",
            "label": "rewardDebt",
            "offset": 0,
            "slot": "0",
            "type": "t_int256"
          },
          {
            "astId": 21591,
            "contract": "contracts/core/EtherRewards.sol:EtherRewards",
            "label": "claimedRewards",
            "offset": 0,
            "slot": "1",
            "type": "t_uint256"
          }
        ],
        "numberOfBytes": "64"
      },
      "t_uint256": {
        "encoding": "inplace",
        "label": "uint256",
        "numberOfBytes": "32"
      }
    }
  }
}