{
  "address": "0x4cBe0c2D48D40F7b1231Bb0893925987cE53771f",
  "abi": [
    {
      "anonymous": false,
      "inputs": [
        {
          "indexed": true,
          "internalType": "address",
          "name": "user",
          "type": "address"
        },
        {
          "indexed": false,
          "internalType": "address[]",
          "name": "tokens",
          "type": "address[]"
        },
        {
          "indexed": false,
          "internalType": "uint256[]",
          "name": "amounts",
          "type": "uint256[]"
        }
      ],
      "name": "BridgeFrom",
      "type": "event"
    },
    {
      "anonymous": false,
      "inputs": [
        {
          "indexed": true,
          "internalType": "address",
          "name": "user",
          "type": "address"
        },
        {
          "indexed": false,
          "internalType": "address[]",
          "name": "tokens",
          "type": "address[]"
        },
        {
          "indexed": false,
          "internalType": "uint256[]",
          "name": "amounts",
          "type": "uint256[]"
        }
      ],
      "name": "BridgeTo",
      "type": "event"
    },
    {
      "anonymous": false,
      "inputs": [
        {
          "indexed": true,
          "internalType": "address",
          "name": "user",
          "type": "address"
        },
        {
          "indexed": false,
          "internalType": "address[]",
          "name": "tokens",
          "type": "address[]"
        }
      ],
      "name": "ClaimLpFeeRewards",
      "type": "event"
    },
    {
      "anonymous": false,
      "inputs": [
        {
          "indexed": true,
          "internalType": "address",
          "name": "user",
          "type": "address"
        },
        {
          "indexed": false,
          "internalType": "address[]",
          "name": "tokens",
          "type": "address[]"
        },
        {
          "indexed": false,
          "internalType": "uint256[]",
          "name": "tokenAmounts",
          "type": "uint256[]"
        }
      ],
      "name": "ProvideLiquidity",
      "type": "event"
    },
    {
      "anonymous": false,
      "inputs": [
        {
          "components": [
            {
              "internalType": "address",
              "name": "user",
              "type": "address"
            },
            {
              "internalType": "uint256",
              "name": "strategyId",
              "type": "uint256"
            },
            {
              "internalType": "bool",
              "name": "enterStrat",
              "type": "bool"
            },
            {
              "internalType": "uint256",
              "name": "nonce",
              "type": "uint256"
            },
            {
              "components": [
                {
                  "internalType": "address",
                  "name": "token",
                  "type": "address"
                },
                {
                  "internalType": "uint256",
                  "name": "amount",
                  "type": "uint256"
                }
              ],
              "internalType": "struct IUserPositions.TokenMovement[]",
              "name": "movements",
              "type": "tuple[]"
            },
            {
              "internalType": "bytes",
              "name": "signature",
              "type": "bytes"
            }
          ],
          "indexed": false,
          "internalType": "struct IInterconnects.RemoteStrategyExecutionBody",
          "name": "req",
          "type": "tuple"
        }
      ],
      "name": "RSE",
      "type": "event"
    },
    {
      "anonymous": false,
      "inputs": [
        {
          "indexed": true,
          "internalType": "address",
          "name": "user",
          "type": "address"
        },
        {
          "indexed": false,
          "internalType": "address[]",
          "name": "tokens",
          "type": "address[]"
        },
        {
          "indexed": false,
          "internalType": "uint256[]",
          "name": "tokenAmounts",
          "type": "uint256[]"
        }
      ],
      "name": "TakeLiquidity",
      "type": "event"
    },
    {
      "anonymous": false,
      "inputs": [
        {
          "indexed": true,
          "internalType": "address",
          "name": "user",
          "type": "address"
        },
        {
          "indexed": false,
          "internalType": "address[]",
          "name": "tokens",
          "type": "address[]"
        },
        {
          "indexed": false,
          "internalType": "uint256[]",
          "name": "amounts",
          "type": "uint256[]"
        }
      ],
      "name": "UndoBridgeFrom",
      "type": "event"
    },
    {
      "anonymous": false,
      "inputs": [
        {
          "indexed": false,
          "internalType": "address[]",
          "name": "tokens",
          "type": "address[]"
        },
        {
          "indexed": false,
          "internalType": "uint256[]",
          "name": "tokenAmounts",
          "type": "uint256[]"
        },
        {
          "indexed": false,
          "internalType": "bool[]",
          "name": "add",
          "type": "bool[]"
        }
      ],
      "name": "UpdateTokenPoolLpBalances",
      "type": "event"
    },
    {
      "inputs": [],
      "name": "RSE_FEE_DENOMINATOR",
      "outputs": [
        {
          "internalType": "uint32",
          "name": "",
          "type": "uint32"
        }
      ],
      "stateMutability": "view",
      "type": "function"
    },
    {
      "inputs": [
        {
          "internalType": "address",
          "name": "controller",
          "type": "address"
        }
      ],
      "name": "addController",
      "outputs": [],
      "stateMutability": "nonpayable",
      "type": "function"
    },
    {
      "inputs": [
        {
          "internalType": "address",
          "name": "user",
          "type": "address"
        },
        {
          "internalType": "address[]",
          "name": "tokens",
          "type": "address[]"
        },
        {
          "internalType": "uint256[]",
          "name": "amounts",
          "type": "uint256[]"
        }
      ],
      "name": "bridgeFrom",
      "outputs": [],
      "stateMutability": "nonpayable",
      "type": "function"
    },
    {
      "inputs": [
        {
          "internalType": "address",
          "name": "user",
          "type": "address"
        },
        {
          "internalType": "address[]",
          "name": "tokens",
          "type": "address[]"
        },
        {
          "internalType": "uint256[]",
          "name": "amounts",
          "type": "uint256[]"
        }
      ],
      "name": "bridgeTo",
      "outputs": [],
      "stateMutability": "nonpayable",
      "type": "function"
    },
    {
      "inputs": [
        {
          "internalType": "address",
          "name": "user",
          "type": "address"
        },
        {
          "internalType": "address[]",
          "name": "tokens",
          "type": "address[]"
        }
      ],
      "name": "claimLpFeeRewards",
      "outputs": [],
      "stateMutability": "nonpayable",
      "type": "function"
    },
    {
      "inputs": [
        {
          "internalType": "uint256",
          "name": "",
          "type": "uint256"
        }
      ],
      "name": "controllers",
      "outputs": [
        {
          "internalType": "address",
          "name": "",
          "type": "address"
        }
      ],
      "stateMutability": "view",
      "type": "function"
    },
    {
      "inputs": [],
      "name": "getAllControllers",
      "outputs": [
        {
          "internalType": "address[]",
          "name": "currentControllers",
          "type": "address[]"
        }
      ],
      "stateMutability": "view",
      "type": "function"
    },
    {
      "inputs": [],
      "name": "getRelayAccount",
      "outputs": [
        {
          "internalType": "address",
          "name": "",
          "type": "address"
        }
      ],
      "stateMutability": "view",
      "type": "function"
    },
    {
      "inputs": [
        {
          "internalType": "address",
          "name": "asset",
          "type": "address"
        }
      ],
      "name": "getTokenLpUsers",
      "outputs": [
        {
          "internalType": "address[]",
          "name": "",
          "type": "address[]"
        }
      ],
      "stateMutability": "view",
      "type": "function"
    },
    {
      "inputs": [
        {
          "internalType": "address",
          "name": "asset",
          "type": "address"
        }
      ],
      "name": "getTokenPoolLpActivePositions",
      "outputs": [
        {
          "internalType": "uint256",
          "name": "",
          "type": "uint256"
        }
      ],
      "stateMutability": "view",
      "type": "function"
    },
    {
      "inputs": [
        {
          "internalType": "address",
          "name": "asset",
          "type": "address"
        }
      ],
      "name": "getTokenPoolLpBalance",
      "outputs": [
        {
          "internalType": "uint256",
          "name": "",
          "type": "uint256"
        }
      ],
      "stateMutability": "view",
      "type": "function"
    },
    {
      "inputs": [
        {
          "internalType": "address",
          "name": "asset",
          "type": "address"
        }
      ],
      "name": "getTokenProtocolFeeRewards",
      "outputs": [
        {
          "internalType": "uint256",
          "name": "",
          "type": "uint256"
        }
      ],
      "stateMutability": "view",
      "type": "function"
    },
    {
      "inputs": [
        {
          "internalType": "address",
          "name": "asset",
          "type": "address"
        },
        {
          "internalType": "address",
          "name": "user",
          "type": "address"
        }
      ],
      "name": "getTokenUserLpBalance",
      "outputs": [
        {
          "internalType": "uint256",
          "name": "",
          "type": "uint256"
        }
      ],
      "stateMutability": "view",
      "type": "function"
    },
    {
      "inputs": [
        {
          "internalType": "address",
          "name": "asset",
          "type": "address"
        },
        {
          "internalType": "address",
          "name": "user",
          "type": "address"
        }
      ],
      "name": "getTokenUserLpFeeRewardBalance",
      "outputs": [
        {
          "internalType": "uint256",
          "name": "",
          "type": "uint256"
        }
      ],
      "stateMutability": "view",
      "type": "function"
    },
    {
      "inputs": [
        {
          "internalType": "address[]",
          "name": "controllers_",
          "type": "address[]"
        },
        {
          "internalType": "address",
          "name": "moduleMap_",
          "type": "address"
        },
        {
          "internalType": "address payable",
          "name": "relayAccount_",
          "type": "address"
        },
        {
          "internalType": "uint32",
          "name": "_rseFeeNumerator",
          "type": "uint32"
        }
      ],
      "name": "initialize",
      "outputs": [],
      "stateMutability": "nonpayable",
      "type": "function"
    },
    {
      "inputs": [
        {
          "internalType": "address",
          "name": "controller",
          "type": "address"
        }
      ],
      "name": "isController",
      "outputs": [
        {
          "internalType": "bool",
          "name": "status",
          "type": "bool"
        }
      ],
      "stateMutability": "view",
      "type": "function"
    },
    {
      "inputs": [],
      "name": "moduleMap",
      "outputs": [
        {
          "internalType": "contract IModuleMap",
          "name": "",
          "type": "address"
        }
      ],
      "stateMutability": "view",
      "type": "function"
    },
    {
      "inputs": [
        {
          "internalType": "address",
          "name": "user",
          "type": "address"
        },
        {
          "internalType": "address[]",
          "name": "tokens",
          "type": "address[]"
        },
        {
          "internalType": "uint256[]",
          "name": "amounts",
          "type": "uint256[]"
        }
      ],
      "name": "provideLiquidity",
      "outputs": [],
      "stateMutability": "nonpayable",
      "type": "function"
    },
    {
      "inputs": [
        {
          "components": [
            {
              "internalType": "address",
              "name": "user",
              "type": "address"
            },
            {
              "internalType": "uint256",
              "name": "strategyId",
              "type": "uint256"
            },
            {
              "internalType": "bool",
              "name": "enterStrat",
              "type": "bool"
            },
            {
              "internalType": "uint256",
              "name": "nonce",
              "type": "uint256"
            },
            {
              "components": [
                {
                  "internalType": "address",
                  "name": "token",
                  "type": "address"
                },
                {
                  "internalType": "uint256",
                  "name": "amount",
                  "type": "uint256"
                }
              ],
              "internalType": "struct IUserPositions.TokenMovement[]",
              "name": "movements",
              "type": "tuple[]"
            },
            {
              "internalType": "bytes",
              "name": "signature",
              "type": "bytes"
            }
          ],
          "internalType": "struct IInterconnects.RemoteStrategyExecutionBody",
          "name": "req",
          "type": "tuple"
        }
      ],
      "name": "remoteStrategyExecution",
      "outputs": [],
      "stateMutability": "nonpayable",
      "type": "function"
    },
    {
      "inputs": [],
      "name": "rseFeeNumerator",
      "outputs": [
        {
          "internalType": "uint32",
          "name": "",
          "type": "uint32"
        }
      ],
      "stateMutability": "view",
      "type": "function"
    },
    {
      "inputs": [
        {
          "internalType": "address",
          "name": "user",
          "type": "address"
        },
        {
          "internalType": "address[]",
          "name": "tokens",
          "type": "address[]"
        },
        {
          "internalType": "uint256[]",
          "name": "amounts",
          "type": "uint256[]"
        }
      ],
      "name": "takeLiquidity",
      "outputs": [],
      "stateMutability": "nonpayable",
      "type": "function"
    },
    {
      "inputs": [
        {
          "internalType": "address",
          "name": "user",
          "type": "address"
        },
        {
          "internalType": "address[]",
          "name": "tokens",
          "type": "address[]"
        },
        {
          "internalType": "uint256[]",
          "name": "amounts",
          "type": "uint256[]"
        }
      ],
      "name": "undoBridgeFrom",
      "outputs": [],
      "stateMutability": "nonpayable",
      "type": "function"
    },
    {
      "inputs": [
        {
          "internalType": "uint32",
          "name": "numerator",
          "type": "uint32"
        }
      ],
      "name": "updateRSEFeeNumerator",
      "outputs": [],
      "stateMutability": "nonpayable",
      "type": "function"
    },
    {
      "inputs": [
        {
          "internalType": "address payable",
          "name": "relayAccount_",
          "type": "address"
        }
      ],
      "name": "updateRelayAccount",
      "outputs": [],
      "stateMutability": "nonpayable",
      "type": "function"
    },
    {
      "inputs": [
        {
          "components": [
            {
              "internalType": "address",
              "name": "user",
              "type": "address"
            },
            {
              "internalType": "uint256",
              "name": "strategyId",
              "type": "uint256"
            },
            {
              "internalType": "bool",
              "name": "enterStrat",
              "type": "bool"
            },
            {
              "internalType": "uint256",
              "name": "nonce",
              "type": "uint256"
            },
            {
              "components": [
                {
                  "internalType": "address",
                  "name": "token",
                  "type": "address"
                },
                {
                  "internalType": "uint256",
                  "name": "amount",
                  "type": "uint256"
                }
              ],
              "internalType": "struct IUserPositions.TokenMovement[]",
              "name": "movements",
              "type": "tuple[]"
            },
            {
              "internalType": "bytes",
              "name": "signature",
              "type": "bytes"
            }
          ],
          "internalType": "struct IInterconnects.RemoteStrategyExecutionBody",
          "name": "req",
          "type": "tuple"
        }
      ],
      "name": "verifyRSE",
      "outputs": [
        {
          "internalType": "bool",
          "name": "",
          "type": "bool"
        }
      ],
      "stateMutability": "pure",
      "type": "function"
    }
  ],
  "transactionHash": "0xf9f34e1a6457a4552dba61c1aed736136cb4d20f90b412461a0557d95b534bbd",
  "args": [],
  "solcInputHash": "6b3cff8e9848db73a4b75e9fcec41d40",
  "bytecode": "0x608060405234801561001057600080fd5b50615222806100206000396000f3fe608060405234801561001057600080fd5b50600436106101335760003560e01c80630f0a1c6f1461013857806316c0f76b146101675780632e140f1d14610178578063337993cb1461019b5780633dbcbbae146101b0578063402c68cc146101e757806343f0a5bb146101fc5780634572b30c1461020f5780634da193951461022257806364ee534714610241578063894105e0146102545780638ba2f3cf1461026457806390d81be9146102a057806392092de7146102b357806392f917c8146102c6578063a07f12a3146102d9578063a7fc7a0714610302578063aaba1ca214610315578063b429afeb14610328578063b59b464b14610354578063c521704614610367578063c5efb53a1461037a578063d84ac98c146103b3578063e94b0dd2146103c6578063fd2b5134146103d9575b600080fd5b600054610151906201000090046001600160a01b031681565b60405161015e9190614a8a565b60405180910390f35b6035546001600160a01b0316610151565b61018b610186366004614822565b6103ec565b604051901515815260200161015e565b6101a36104bc565b60405161015e9190614b9c565b6101d96101be366004614580565b6001600160a01b031660009081526038602052604090205490565b60405190815260200161015e565b6101fa6101f53660046146c8565b61051e565b005b6101fa61020a366004614649565b6108a6565b6101fa61021d366004614913565b611154565b61022c620f424081565b60405163ffffffff909116815260200161015e565b6101fa61024f366004614822565b61128c565b603c5461022c9063ffffffff1681565b6101d96102723660046145bf565b6001600160a01b03918216600090815260366020908152604080832093909416825291909152206001015490565b6101fa6102ae3660046146c8565b61179c565b6101fa6102c13660046146c8565b611b50565b6101fa6102d4366004614794565b612071565b6101d96102e7366004614580565b6001600160a01b031660009081526037602052604090205490565b6101fa610310366004614580565b612147565b6101a3610323366004614580565b612382565b61018b610336366004614580565b6001600160a01b031660009081526001602052604090205460ff1690565b6101fa610362366004614580565b6123f8565b6101d9610375366004614580565b612536565b6101d96103883660046145bf565b6001600160a01b03918216600090815260366020908152604080832093909416825291909152205490565b6101fa6103c13660046145f7565b612635565b6101516103d43660046148e3565b612a0b565b6101fa6103e7366004614649565b612a35565b6000808260000151836020015184604001518560600151866080015160405160200161041c959493929190614a9e565b604051602081830303815290604052805190602001209050600061048c826040517b0ca2ba3432b932bab69029b4b3b732b21026b2b9b9b0b3b29d05199960211b6020820152603c8101829052600090605c01604051602081830303815290604052805190602001209050919050565b905083600001516001600160a01b03166104aa828660a001516132c2565b6001600160a01b031614949350505050565b6060600280548060200260200160405190810160405280929190818152602001828054801561051457602002820191906000526020600020905b81546001600160a01b031681526001909101906020018083116104f6575b5050505050905090565b6035546001600160a01b031633146105515760405162461bcd60e51b815260040161054890614c90565b60405180910390fd5b818160008060029054906101000a90046001600160a01b03166001600160a01b0316636f8c3f8a60036040518263ffffffff1660e01b81526004016105969190614c68565b60206040518083038186803b1580156105ae57600080fd5b505afa1580156105c2573d6000803e3d6000fd5b505050506040513d601f19601f820116820180604052508101906105e691906145a3565b905081518351146106095760405162461bcd60e51b815260040161054890614dab565b60005b83518110156106e457816001600160a01b031663ea0db29685838151811061064457634e487b7160e01b600052603260045260246000fd5b60200260200101516040518263ffffffff1660e01b81526004016106689190614a8a565b60206040518083038186803b15801561068057600080fd5b505afa158015610694573d6000803e3d6000fd5b505050506040513d601f19601f820116820180604052508101906106b89190614806565b6106d45760405162461bcd60e51b815260040161054890614cec565b6106dd816150cd565b905061060c565b50600260035414156107085760405162461bcd60e51b815260040161054890614e9a565b600260035584516000906001600160401b0381111561073757634e487b7160e01b600052604160045260246000fd5b604051908082528060200260200182016040528015610760578160200160208202803683370190505b50600080546040516337c61fc560e11b81529293509091620100009091046001600160a01b031690636f8c3f8a9061079d90600190600401614c68565b60206040518083038186803b1580156107b557600080fd5b505afa1580156107c9573d6000803e3d6000fd5b505050506040513d601f19601f820116820180604052508101906107ed91906145a3565b60405163f0f25dd560e01b81529091506001600160a01b0382169063f0f25dd590610822908a908c908b908890600401614baf565b600060405180830381600087803b15801561083c57600080fd5b505af1158015610850573d6000803e3d6000fd5b50505050876001600160a01b03167fc0d927b1a552ab2c106f99c6abfa28a20e4ad4feea024b7997adff3d1885bd0b888860405161088f929190614bf7565b60405180910390a250506001600355505050505050565b3360009081526001602052604090205460ff166108d55760405162461bcd60e51b815260040161054890614e46565b82811461095b5760405162461bcd60e51b815260206004820152604860248201527f496e746572636f6e6e656374733a3a74616b654c69717569646974793a204c6560448201527f6e677468206f6620746f6b656e7320616e6420616d6f756e7473206d75737420606482015267189948195c5d585b60c21b608482015260a401610548565b600080546040516337c61fc560e11b8152620100009091046001600160a01b031690636f8c3f8a9061099290600190600401614c68565b60206040518083038186803b1580156109aa57600080fd5b505afa1580156109be573d6000803e3d6000fd5b505050506040513d601f19601f820116820180604052508101906109e291906145a3565b90506000846001600160401b03811115610a0c57634e487b7160e01b600052604160045260246000fd5b604051908082528060200260200182016040528015610a35578160200160208202803683370190505b5090506000836001600160401b03811115610a6057634e487b7160e01b600052604160045260246000fd5b604051908082528060200260200182016040528015610a89578160200160208202803683370190505b5090506000866001600160401b03811115610ab457634e487b7160e01b600052604160045260246000fd5b604051908082528060200260200182016040528015610add578160200160208202803683370190505b50905060005b8781101561109d576000898983818110610b0d57634e487b7160e01b600052603260045260246000fd5b9050602002016020810190610b229190614580565b90506000888884818110610b4657634e487b7160e01b600052603260045260246000fd5b90506020020135118015610ba557506001600160a01b038082166000908152603660209081526040808320938f1683529290522054888884818110610b9b57634e487b7160e01b600052603260045260246000fd5b9050602002013511155b610c475760405162461bcd60e51b815260206004820152607360248201526000805160206151ad83398151915260448201527f20616d6f756e74206d7573742062652067726561746572207468616e207a657260648201527f6f20616e64206e6f206d6f7265207468616e20746865207573657227732062616084820152723630b731b2903337b9103a3432903a37b5b2b760691b60a482015260c401610548565b6001600160a01b038116600090815260376020526040902054888884818110610c8057634e487b7160e01b600052603260045260246000fd5b905060200201351115610d1b5760405162461bcd60e51b815260206004820152606360248201526000805160206151ad83398151915260448201527f20616d6f756e74206d757374206265206e6f206d6f7265207468616e2074686560648201527f20617661696c61626c6520616d6f756e7420696e2074686520746f6b656e20706084820152621bdbdb60ea1b60a482015260c401610548565b80858381518110610d3c57634e487b7160e01b600052603260045260246000fd5b60200260200101906001600160a01b031690816001600160a01b031681525050878783818110610d7c57634e487b7160e01b600052603260045260246000fd5b90506020020135848381518110610da357634e487b7160e01b600052603260045260246000fd5b6020026020010181815250506001838381518110610dd157634e487b7160e01b600052603260045260246000fd5b91151560209283029190910190910152878783818110610e0157634e487b7160e01b600052603260045260246000fd5b9050602002013560366000836001600160a01b03166001600160a01b0316815260200190815260200160002060008d6001600160a01b03166001600160a01b031681526020019081526020016000206000016000828254610e62919061508a565b909155508890508783818110610e8857634e487b7160e01b600052603260045260246000fd5b9050602002013560376000836001600160a01b03166001600160a01b031681526020019081526020016000206000828254610ec3919061508a565b90915550506001600160a01b038082166000908152603660209081526040808320938f168352929052205461108a5760005b6001600160a01b038216600090815260396020526040902054811015611088576001600160a01b0382811660009081526039602052604090208054918e169183908110610f5257634e487b7160e01b600052603260045260246000fd5b6000918252602090912001546001600160a01b03161415611076576001600160a01b03821660009081526039602052604090208054610f939060019061508a565b81548110610fb157634e487b7160e01b600052603260045260246000fd5b60009182526020808320909101546001600160a01b03858116845260399092526040909220805491909216919083908110610ffc57634e487b7160e01b600052603260045260246000fd5b600091825260208083209190910180546001600160a01b0319166001600160a01b03948516179055918416815260399091526040902080548061104f57634e487b7160e01b600052603160045260246000fd5b600082815260209020810160001990810180546001600160a01b0319169055019055611088565b80611080816150cd565b915050610ef5565b505b5080611095816150cd565b915050610ae3565b5060405163f0f25dd560e01b81526001600160a01b0385169063f0f25dd5906110d09086908d9087908790600401614baf565b600060405180830381600087803b1580156110ea57600080fd5b505af11580156110fe573d6000803e3d6000fd5b50505050886001600160a01b03167fa1f0a36e60af87632f11db638faac61619cceacdc0aa92c9d55c6145fc0c8957898989896040516111419493929190614b4f565b60405180910390a2505050505050505050565b600080546040516337c61fc560e11b8152620100009091046001600160a01b031691636f8c3f8a916111899190600401614c68565b60206040518083038186803b1580156111a157600080fd5b505afa1580156111b5573d6000803e3d6000fd5b505050506040513d601f19601f820116820180604052508101906111d991906145a3565b6001600160a01b031663f3ae2415336040518263ffffffff1660e01b81526004016112049190614a8a565b60206040518083038186803b15801561121c57600080fd5b505afa158015611230573d6000803e3d6000fd5b505050506040513d601f19601f820116820180604052508101906112549190614806565b6112705760405162461bcd60e51b815260040161054890614df8565b603c805463ffffffff191663ffffffff92909216919091179055565b6035546001600160a01b031633146112b65760405162461bcd60e51b815260040161054890614c90565b806112c0816103ec565b6113185760405162461bcd60e51b815260206004820152603560248201526000805160206151cd8339815191526044820152740814da59db985d1d5c99481a5cc81a5b9d985b1a59605a1b6064820152608401610548565b6002600354141561133b5760405162461bcd60e51b815260040161054890614e9a565b600260035560a082015161134e90613341565b600080546040516337c61fc560e11b8152620100009091046001600160a01b031690636f8c3f8a9061138590600190600401614c68565b60206040518083038186803b15801561139d57600080fd5b505afa1580156113b1573d6000803e3d6000fd5b505050506040513d601f19601f820116820180604052508101906113d591906145a3565b905060006113e68460800151613404565b905060008460800151516001600160401b0381111561141557634e487b7160e01b600052604160045260246000fd5b60405190808252806020026020018201604052801561143e578160200160208202803683370190505b50905060005b856080015151811015611562578560800151818151811061147557634e487b7160e01b600052603260045260246000fd5b6020026020010151600001518282815181106114a157634e487b7160e01b600052603260045260246000fd5b60200260200101906001600160a01b031690816001600160a01b0316815250508281815181106114e157634e487b7160e01b600052603260045260246000fd5b6020026020010151603b60008860800151848151811061151157634e487b7160e01b600052603260045260246000fd5b6020026020010151600001516001600160a01b03166001600160a01b03168152602001908152602001600020600082825461154c9190615033565b9091555061155b9050816150cd565b9050611444565b5084604001511561162657826001600160a01b031663f0f25dd58287600001518585516001600160401b038111156115aa57634e487b7160e01b600052604160045260246000fd5b6040519080825280602002602001820160405280156115d3578160200160208202803683370190505b506040518563ffffffff1660e01b81526004016115f39493929190614baf565b600060405180830381600087803b15801561160d57600080fd5b505af1158015611621573d6000803e3d6000fd5b505050505b602085015185516080870151604080890151905163d969f1b560e01b81526001600160a01b0388169463d969f1b5946116659491939092600401614f59565b600060405180830381600087803b15801561167f57600080fd5b505af1158015611693573d6000803e3d6000fd5b50505050846040015161175957826001600160a01b031663f0f25dd58287600001518585516001600160401b038111156116dd57634e487b7160e01b600052604160045260246000fd5b604051908082528060200260200182016040528015611706578160200160208202803683370190505b506040518563ffffffff1660e01b81526004016117269493929190614baf565b600060405180830381600087803b15801561174057600080fd5b505af1158015611754573d6000803e3d6000fd5b505050505b7fb181eff2e901f498767095da3758c77d213a159e5b445fb357cc1bcfe4f2cbd8856040516117889190614ed1565b60405180910390a150506001600355505050565b6035546001600160a01b031633146117c65760405162461bcd60e51b815260040161054890614c90565b818160008060029054906101000a90046001600160a01b03166001600160a01b0316636f8c3f8a60036040518263ffffffff1660e01b815260040161180b9190614c68565b60206040518083038186803b15801561182357600080fd5b505afa158015611837573d6000803e3d6000fd5b505050506040513d601f19601f8201168201806040525081019061185b91906145a3565b9050815183511461187e5760405162461bcd60e51b815260040161054890614dab565b60005b835181101561195957816001600160a01b031663ea0db2968583815181106118b957634e487b7160e01b600052603260045260246000fd5b60200260200101516040518263ffffffff1660e01b81526004016118dd9190614a8a565b60206040518083038186803b1580156118f557600080fd5b505afa158015611909573d6000803e3d6000fd5b505050506040513d601f19601f8201168201806040525081019061192d9190614806565b6119495760405162461bcd60e51b815260040161054890614cec565b611952816150cd565b9050611881565b506002600354141561197d5760405162461bcd60e51b815260040161054890614e9a565b600260035584516000906001600160401b038111156119ac57634e487b7160e01b600052604160045260246000fd5b6040519080825280602002602001820160405280156119d5578160200160208202803683370190505b50905060005b8651811015611a26576001828281518110611a0657634e487b7160e01b600052603260045260246000fd5b91151560209283029190910190910152611a1f816150cd565b90506119db565b50600080546040516337c61fc560e11b8152620100009091046001600160a01b031690636f8c3f8a90611a5e90600190600401614c68565b60206040518083038186803b158015611a7657600080fd5b505afa158015611a8a573d6000803e3d6000fd5b505050506040513d601f19601f82011682018060405250810190611aae91906145a3565b60405163f0f25dd560e01b81529091506001600160a01b0382169063f0f25dd590611ae3908a908c908b908890600401614baf565b600060405180830381600087803b158015611afd57600080fd5b505af1158015611b11573d6000803e3d6000fd5b50505050876001600160a01b03167fe74c23878a8558dd68d0e6448fc8c06e1c5b0652bc2d0181d9e95797d9cb7c41888860405161088f929190614bf7565b6035546001600160a01b03163314611b7a5760405162461bcd60e51b815260040161054890614c90565b818160008060029054906101000a90046001600160a01b03166001600160a01b0316636f8c3f8a60036040518263ffffffff1660e01b8152600401611bbf9190614c68565b60206040518083038186803b158015611bd757600080fd5b505afa158015611beb573d6000803e3d6000fd5b505050506040513d601f19601f82011682018060405250810190611c0f91906145a3565b90508151835114611c325760405162461bcd60e51b815260040161054890614dab565b60005b8351811015611d0d57816001600160a01b031663ea0db296858381518110611c6d57634e487b7160e01b600052603260045260246000fd5b60200260200101516040518263ffffffff1660e01b8152600401611c919190614a8a565b60206040518083038186803b158015611ca957600080fd5b505afa158015611cbd573d6000803e3d6000fd5b505050506040513d601f19601f82011682018060405250810190611ce19190614806565b611cfd5760405162461bcd60e51b815260040161054890614cec565b611d06816150cd565b9050611c35565b5060026003541415611d315760405162461bcd60e51b815260040161054890614e9a565b600260035584516000906001600160401b03811115611d6057634e487b7160e01b600052604160045260246000fd5b604051908082528060200260200182016040528015611d89578160200160208202803683370190505b509050600086516001600160401b03811115611db557634e487b7160e01b600052604160045260246000fd5b604051908082528060200260200182016040528015611dde578160200160208202803683370190505b50905060005b8751811015611e2f576001838281518110611e0f57634e487b7160e01b600052603260045260246000fd5b91151560209283029190910190910152611e28816150cd565b9050611de4565b506000806000611e3f8a8a6134f7565b925092509250611e508a8a86613b52565b600080546040516337c61fc560e11b8152620100009091046001600160a01b031690636f8c3f8a90611e8790600190600401614c68565b60206040518083038186803b158015611e9f57600080fd5b505afa158015611eb3573d6000803e3d6000fd5b505050506040513d601f19601f82011682018060405250810190611ed791906145a3565b9050806001600160a01b0316635702ea2a8c8e858a6040518563ffffffff1660e01b8152600401611f0b9493929190614baf565b600060405180830381600087803b158015611f2557600080fd5b505af1158015611f39573d6000803e3d6000fd5b5050505060005b8b5181101561201a5760008c8281518110611f6b57634e487b7160e01b600052603260045260246000fd5b602002602001015190506000858381518110611f9757634e487b7160e01b600052603260045260246000fd5b602002602001015190506000878481518110611fc357634e487b7160e01b600052603260045260246000fd5b60200260200101519050611fd78383613f87565b6001600160a01b03831660009081526038602052604081208054839290611fff908490615033565b9250508190555050505080612013906150cd565b9050611f40565b508b6001600160a01b03167f3e5de4d4037a75074ae26c1254648d020c004bfbee680cd606953c27223c126e8c8c604051612056929190614bf7565b60405180910390a25050600160035550505050505050505050565b600054610100900460ff1661208c5760005460ff1615612090565b303b155b6120ac5760405162461bcd60e51b815260040161054890614d38565b600054610100900460ff161580156120ce576000805461ffff19166101011790555b6001600160a01b0383166120f45760405162461bcd60e51b815260040161054890614d86565b6120fe8585614093565b603580546001600160a01b0319166001600160a01b038516179055603c805463ffffffff191663ffffffff84161790558015612140576000805461ff00191690555b5050505050565b600080546040516337c61fc560e11b8152620100009091046001600160a01b031691636f8c3f8a9161217c9190600401614c68565b60206040518083038186803b15801561219457600080fd5b505afa1580156121a8573d6000803e3d6000fd5b505050506040513d601f19601f820116820180604052508101906121cc91906145a3565b6001600160a01b0316632f54bf6e336040518263ffffffff1660e01b81526004016121f79190614a8a565b60206040518083038186803b15801561220f57600080fd5b505afa158015612223573d6000803e3d6000fd5b505050506040513d601f19601f820116820180604052508101906122479190614806565b6122a65760405162461bcd60e51b815260206004820152602a60248201527f436f6e74726f6c6c65643a3a6f6e6c794f776e65723a2043616c6c6572206973604482015269103737ba1037bbb732b960b11b6064820152608401610548565b6001600160a01b03811660009081526001602081905260408220805460ff19169091179055805b60025481101561232c57600281815481106122f857634e487b7160e01b600052603260045260246000fd5b6000918252602090912001546001600160a01b038481169116141561231c57600191505b612325816150cd565b90506122cd565b508061237e57600280546001810182556000919091527f405787fa12a823e0f2b7631cc41b3ba8828b3321ca811111fa75cd3aa3bb5ace0180546001600160a01b0319166001600160a01b0384161790555b5050565b6001600160a01b0381166000908152603960209081526040918290208054835181840281018401909452808452606093928301828280156123ec57602002820191906000526020600020905b81546001600160a01b031681526001909101906020018083116123ce575b50505050509050919050565b600080546040516337c61fc560e11b8152620100009091046001600160a01b031691636f8c3f8a9161242d9190600401614c68565b60206040518083038186803b15801561244557600080fd5b505afa158015612459573d6000803e3d6000fd5b505050506040513d601f19601f8201168201806040525081019061247d91906145a3565b6001600160a01b031663f3ae2415336040518263ffffffff1660e01b81526004016124a89190614a8a565b60206040518083038186803b1580156124c057600080fd5b505afa1580156124d4573d6000803e3d6000fd5b505050506040513d601f19601f820116820180604052508101906124f89190614806565b6125145760405162461bcd60e51b815260040161054890614df8565b603580546001600160a01b0319166001600160a01b0392909216919091179055565b6001600160a01b03811660009081526039602090815260408083208054825181850281018501909352808352849384939291908301828280156125a257602002820191906000526020600020905b81546001600160a01b03168152600190910190602001808311612584575b5050505050905060005b815181101561262c5760008282815181106125d757634e487b7160e01b600052603260045260246000fd5b6020908102919091018101516001600160a01b038089166000908152603684526040808220928416825291909352909120549091506126169085615033565b9350508080612624906150cd565b9150506125ac565b50909392505050565b3360009081526001602052604090205460ff166126645760405162461bcd60e51b815260040161054890614e46565b600260035414156126875760405162461bcd60e51b815260040161054890614e9a565b6002600355600080546040516337c61fc560e11b8152620100009091046001600160a01b031690636f8c3f8a906126c390600190600401614c68565b60206040518083038186803b1580156126db57600080fd5b505afa1580156126ef573d6000803e3d6000fd5b505050506040513d601f19601f8201168201806040525081019061271391906145a3565b90506000826001600160401b0381111561273d57634e487b7160e01b600052604160045260246000fd5b604051908082528060200260200182016040528015612766578160200160208202803683370190505b5090506000836001600160401b0381111561279157634e487b7160e01b600052604160045260246000fd5b6040519080825280602002602001820160405280156127ba578160200160208202803683370190505b50905060005b848110156129545760008686838181106127ea57634e487b7160e01b600052603260045260246000fd5b90506020020160208101906127ff9190614580565b6001600160a01b038082166000908152603660209081526040808320938d1683529290522060010154909150806128b25760405162461bcd60e51b815260206004820152604b60248201527f496e746572636f6e6e656374733a3a636c61696d4c70466565733a204c50206660448201527f6565207265776172642062616c616e6365206d7573742062652067726561746560648201526a72207468616e207a65726f60a81b608482015260a401610548565b6001600160a01b038083166000908152603660209081526040808320938d168352929052908120600101558451819086908590811061290157634e487b7160e01b600052603260045260246000fd5b602002602001018181525050600184848151811061292f57634e487b7160e01b600052603260045260246000fd5b911515602092830291909101909101525081905061294c816150cd565b9150506127c0565b5060405163f0f25dd560e01b81526001600160a01b0384169063f0f25dd59061298990889088908b9088908890600401614afa565b600060405180830381600087803b1580156129a357600080fd5b505af11580156129b7573d6000803e3d6000fd5b50505050856001600160a01b03167f85de76e33a0549b6782937a91bc55eb27cc8f5554c303a9e263cac55e52c929386866040516129f6929190614ade565b60405180910390a25050600160035550505050565b60028181548110612a1b57600080fd5b6000918252602090912001546001600160a01b0316905081565b3360009081526001602052604090205460ff16612a645760405162461bcd60e51b815260040161054890614e46565b828114612ac95760405162461bcd60e51b815260206004820152604b602482015260008051602061518d833981519152604482015260008051602061514d83398151915260648201526a1cdd08189948195c5d585b60aa1b608482015260a401610548565b600080546040516337c61fc560e11b8152620100009091046001600160a01b031690636f8c3f8a90612b0090600390600401614c68565b60206040518083038186803b158015612b1857600080fd5b505afa158015612b2c573d6000803e3d6000fd5b505050506040513d601f19601f82011682018060405250810190612b5091906145a3565b600080546040516337c61fc560e11b81529293509091620100009091046001600160a01b031690636f8c3f8a90612b8c90600190600401614c68565b60206040518083038186803b158015612ba457600080fd5b505afa158015612bb8573d6000803e3d6000fd5b505050506040513d601f19601f82011682018060405250810190612bdc91906145a3565b90506000856001600160401b03811115612c0657634e487b7160e01b600052604160045260246000fd5b604051908082528060200260200182016040528015612c2f578160200160208202803683370190505b5090506000846001600160401b03811115612c5a57634e487b7160e01b600052604160045260246000fd5b604051908082528060200260200182016040528015612c83578160200160208202803683370190505b5090506000876001600160401b03811115612cae57634e487b7160e01b600052604160045260246000fd5b604051908082528060200260200182016040528015612cd7578160200160208202803683370190505b50905060005b8881101561320a57856001600160a01b031663b17f0b638b8b84818110612d1457634e487b7160e01b600052603260045260246000fd5b9050602002016020810190612d299190614580565b6040518263ffffffff1660e01b8152600401612d459190614a8a565b60206040518083038186803b158015612d5d57600080fd5b505afa158015612d71573d6000803e3d6000fd5b505050506040513d601f19601f82011682018060405250810190612d959190614806565b612e075760405162461bcd60e51b8152602060048201526049602482015260008051602061518d83398151915260448201527f205468697320746f6b656e206973206e6f7420616363657074696e67204c5020606482015268706f736974696f6e7360b81b608482015260a401610548565b60008a8a83818110612e2957634e487b7160e01b600052603260045260246000fd5b9050602002016020810190612e3e9190614580565b90506000898984818110612e6257634e487b7160e01b600052603260045260246000fd5b90506020020135118015612f1c575060405163168e0c9960e31b81526001600160a01b0382811660048301528d8116602483015287169063b47064c89060440160206040518083038186803b158015612eba57600080fd5b505afa158015612ece573d6000803e3d6000fd5b505050506040513d601f19601f82011682018060405250810190612ef291906148fb565b898984818110612f1257634e487b7160e01b600052603260045260246000fd5b9050602002013511155b612fb35760405162461bcd60e51b8152602060048201526068602482015260008051602061518d83398151915260448201527f204c5020616d6f756e74206d7573742062652067726561746572207468616e2060648201527f7a65726f20616e64206e6f206d6f7265207468616e20746865207573657227736084820152672062616c616e636560c01b60a482015260c401610548565b80858381518110612fd457634e487b7160e01b600052603260045260246000fd5b60200260200101906001600160a01b031690816001600160a01b03168152505088888381811061301457634e487b7160e01b600052603260045260246000fd5b9050602002013584838151811061303b57634e487b7160e01b600052603260045260246000fd5b602002602001018181525050600083838151811061306957634e487b7160e01b600052603260045260246000fd5b60200260200101901515908115158152505060366000826001600160a01b03166001600160a01b0316815260200190815260200160002060008d6001600160a01b03166001600160a01b03168152602001908152602001600020600001546000141561310e576001600160a01b0381811660009081526039602090815260408220805460018101825590835291200180546001600160a01b031916918e169190911790555b88888381811061312e57634e487b7160e01b600052603260045260246000fd5b9050602002013560366000836001600160a01b03166001600160a01b0316815260200190815260200160002060008e6001600160a01b03166001600160a01b03168152602001908152602001600020600001600082825461318f9190615033565b9091555089905088838181106131b557634e487b7160e01b600052603260045260246000fd5b9050602002013560376000836001600160a01b03166001600160a01b0316815260200190815260200160002060008282546131f09190615033565b909155508291506132029050816150cd565b915050612cdd565b5060405163f0f25dd560e01b81526001600160a01b0385169063f0f25dd59061323d9086908e9087908790600401614baf565b600060405180830381600087803b15801561325757600080fd5b505af115801561326b573d6000803e3d6000fd5b50505050896001600160a01b03167f22e6ae20e2e0df5f416bcd6e7f6d19e21922b83a293acce479b03994e40120718a8a8a8a6040516132ae9493929190614b4f565b60405180910390a250505050505050505050565b6000806000806132d185614235565b6040805160008152602081018083528b905260ff8316918101919091526060810184905260808101839052929550909350915060019060a0016020604051602081039080840390855afa15801561332c573d6000803e3d6000fd5b5050604051601f190151979650505050505050565b603a816040516133519190614a6e565b9081526040519081900360200190205460ff16156133cf5760405162461bcd60e51b815260206004820152603560248201527f496e746572636f6e6e656374733a3a6d61726b54786e4173436f6d706c657465604482015274643a20416c726561647920636f6d706c657465642160581b6064820152608401610548565b6001603a826040516133e19190614a6e565b908152604051908190036020019020805491151560ff1990921691909117905550565b606081516001600160401b0381111561342d57634e487b7160e01b600052604160045260246000fd5b604051908082528060200260200182016040528015613456578160200160208202803683370190505b50905060005b82518110156134f157603c548351620f42409163ffffffff169085908490811061349657634e487b7160e01b600052603260045260246000fd5b6020026020010151602001516134ac919061506b565b6134b6919061504b565b8282815181106134d657634e487b7160e01b600052603260045260246000fd5b60209081029190910101526134ea816150cd565b905061345c565b50919050565b600080546040516337c61fc560e11b815260609283928392620100009091046001600160a01b031690636f8c3f8a9061353590600390600401614c68565b60206040518083038186803b15801561354d57600080fd5b505afa158015613561573d6000803e3d6000fd5b505050506040513d601f19601f8201168201806040525081019061358591906145a3565b90506000816001600160a01b03166350e7fc376040518163ffffffff1660e01b815260040160206040518083038186803b1580156135c257600080fd5b505afa1580156135d6573d6000803e3d6000fd5b505050506040513d601f19601f820116820180604052508101906135fa919061492f565b90506000826001600160a01b031663804773c86040518163ffffffff1660e01b815260040160206040518083038186803b15801561363757600080fd5b505afa15801561364b573d6000803e3d6000fd5b505050506040513d601f19601f8201168201806040525081019061366f919061492f565b90506000836001600160a01b031663967cb96e6040518163ffffffff1660e01b815260040160206040518083038186803b1580156136ac57600080fd5b505afa1580156136c0573d6000803e3d6000fd5b505050506040513d601f19601f820116820180604052508101906136e4919061492f565b905088516001600160401b0381111561370d57634e487b7160e01b600052604160045260246000fd5b604051908082528060200260200182016040528015613736578160200160208202803683370190505b50965088516001600160401b0381111561376057634e487b7160e01b600052604160045260246000fd5b604051908082528060200260200182016040528015613789578160200160208202803683370190505b50955088516001600160401b038111156137b357634e487b7160e01b600052604160045260246000fd5b6040519080825280602002602001820160405280156137dc578160200160208202803683370190505b50945060005b8951811015613b465760008a828151811061380d57634e487b7160e01b600052603260045260246000fd5b602002602001015190506000866001600160a01b031663eab12c95836040518263ffffffff1660e01b81526004016138459190614a8a565b60206040518083038186803b15801561385d57600080fd5b505afa158015613871573d6000803e3d6000fd5b505050506040513d601f19601f8201168201806040525081019061389591906148fb565b905060006138a283612536565b604051637d471f9760e01b81526001600160a01b038a1690637d471f97906138ce908790600401614a8a565b60206040518083038186803b1580156138e657600080fd5b505afa1580156138fa573d6000803e3d6000fd5b505050506040513d601f19601f8201168201806040525081019061391e91906148fb565b613928919061506b565b6001600160a01b0384166000908152603760205260409020546139529063ffffffff8a169061506b565b61395c919061504b565b905060006139708263ffffffff891661506b565b8d868151811061399057634e487b7160e01b600052603260045260246000fd5b60200260200101518a6001600160a01b03166372836bcf876040518263ffffffff1660e01b81526004016139c49190614a8a565b60206040518083038186803b1580156139dc57600080fd5b505afa1580156139f0573d6000803e3d6000fd5b505050506040513d601f19601f82011682018060405250810190613a1491906148fb565b613a1e919061506b565b613a28919061504b565b905063ffffffff8616613a3b848361506b565b613a45919061504b565b8c8681518110613a6557634e487b7160e01b600052603260045260246000fd5b6020026020010181815250508b8581518110613a9157634e487b7160e01b600052603260045260246000fd5b602002602001015181613aa4919061508a565b8b8681518110613ac457634e487b7160e01b600052603260045260246000fd5b602002602001018181525050808d8681518110613af157634e487b7160e01b600052603260045260246000fd5b6020026020010151613b03919061508a565b8a8681518110613b2357634e487b7160e01b600052603260045260246000fd5b602002602001018181525050505050508080613b3e906150cd565b9150506137e2565b50505050509250925092565b81518351148015613b64575080518351145b613bf65760405162461bcd60e51b8152602060048201526063602482015260008051602061516d83398151915260448201527f42616c616e6365733a204c656e677468206f6620746f6b656e732c20616d6f7560648201527f6e74732c20616e64206164642f7375627472616374206d7573742062652065716084820152621d585b60ea1b60a482015260c401610548565b600080546040516337c61fc560e11b8152620100009091046001600160a01b031690636f8c3f8a90613c2d90600390600401614c68565b60206040518083038186803b158015613c4557600080fd5b505afa158015613c59573d6000803e3d6000fd5b505050506040513d601f19601f82011682018060405250810190613c7d91906145a3565b905060005b8451811015613f4557816001600160a01b031663b17f0b63868381518110613cba57634e487b7160e01b600052603260045260246000fd5b60200260200101516040518263ffffffff1660e01b8152600401613cde9190614a8a565b60206040518083038186803b158015613cf657600080fd5b505afa158015613d0a573d6000803e3d6000fd5b505050506040513d601f19601f82011682018060405250810190613d2e9190614806565b613da95760405162461bcd60e51b8152602060048201526052602482015260008051602061516d83398151915260448201527f42616c616e6365733a205468697320746f6b656e206973206e6f7420616363656064820152717074696e67204c5020706f736974696f6e7360701b608482015260a401610548565b6000838281518110613dcb57634e487b7160e01b600052603260045260246000fd5b602002602001015115613e5e57848281518110613df857634e487b7160e01b600052603260045260246000fd5b602002602001015160376000888581518110613e2457634e487b7160e01b600052603260045260246000fd5b60200260200101516001600160a01b03166001600160a01b0316815260200190815260200160002054613e579190615033565b9050613ee0565b848281518110613e7e57634e487b7160e01b600052603260045260246000fd5b602002602001015160376000888581518110613eaa57634e487b7160e01b600052603260045260246000fd5b60200260200101516001600160a01b03166001600160a01b0316815260200190815260200160002054613edd919061508a565b90505b8060376000888581518110613f0557634e487b7160e01b600052603260045260246000fd5b60200260200101516001600160a01b03166001600160a01b0316815260200190815260200160002081905550508080613f3d906150cd565b915050613c82565b507f092d5ff091ec017019ed95dfec6b3f8524e73fc3a80d5fee8f763e1829aed54b848484604051613f7993929190614c25565b60405180910390a150505050565b6000613f9283612536565b905060005b6001600160a01b03841660009081526039602052604090205481101561408d576001600160a01b0384166000908152603960205260408120805483908110613fef57634e487b7160e01b600052603260045260246000fd5b60009182526020808320909101546001600160a01b03888116845260368352604080852091909216808552925290912054909150839061402f908661506b565b614039919061504b565b6001600160a01b03808716600090815260366020908152604080832093861683529290529081206001018054909190614073908490615033565b909155508291506140859050816150cd565b915050613f97565b50505050565b600054610100900460ff166140ae5760005460ff16156140b2565b303b155b6140ce5760405162461bcd60e51b815260040161054890614d38565b600054610100900460ff161580156140f0576000805461ffff19166101011790555b6001600160a01b0382166141165760405162461bcd60e51b815260040161054890614d86565b60005b835181101561418c5760006001600160a01b031684828151811061414d57634e487b7160e01b600052603260045260246000fd5b60200260200101516001600160a01b0316141561417c5760405162461bcd60e51b815260040161054890614d86565b614185816150cd565b9050614119565b5060005b83518110156142005760018060008684815181106141be57634e487b7160e01b600052603260045260246000fd5b6020908102919091018101516001600160a01b03168252810191909152604001600020805460ff19169115159190911790556141f9816150cd565b9050614190565b508251614214906002906020860190614338565b5061421e826142a4565b8015614230576000805461ff00191690555b505050565b600080600083516041146142865760405162461bcd60e51b81526020600482015260186024820152770d2dcecc2d8d2c840e6d2cedcc2e8eae4ca40d8cadccee8d60431b6044820152606401610548565b50505060208101516040820151606090920151909260009190911a90565b600054610100900460ff166142bf5760005460ff16156142c3565b303b155b6142df5760405162461bcd60e51b815260040161054890614d38565b600054610100900460ff16158015614301576000805461ffff19166101011790555b6000805462010000600160b01b031916620100006001600160a01b03851602179055801561237e576000805461ff00191690555050565b82805482825590600052602060002090810192821561438d579160200282015b8281111561438d57825182546001600160a01b0319166001600160a01b03909116178255602090920191600190910190614358565b5061439992915061439d565b5090565b5b80821115614399576000815560010161439e565b80356143bd81615114565b919050565b60008083601f8401126143d3578182fd5b5081356001600160401b038111156143e9578182fd5b6020830191508360208260051b850101111561440457600080fd5b9250929050565b600082601f83011261441b578081fd5b8135602061443061442b83615010565b614fe0565b80838252828201915082860187848660051b890101111561444f578586fd5b855b8581101561447657813561446481615114565b84529284019290840190600101614451565b5090979650505050505050565b600082601f830112614493578081fd5b813560206144a361442b83615010565b80838252828201915082860187848660061b89010111156144c2578586fd5b855b8581101561447657604080838b0312156144dc578788fd5b6144e4614f96565b83356144ef81615114565b81528387013587820152855293850193909101906001016144c4565b80356143bd8161512c565b600082601f830112614526578081fd5b81356001600160401b0381111561453f5761453f6150fe565b614552601f8201601f1916602001614fe0565b818152846020838601011115614566578283fd5b816020850160208301379081016020019190915292915050565b600060208284031215614591578081fd5b813561459c81615114565b9392505050565b6000602082840312156145b4578081fd5b815161459c81615114565b600080604083850312156145d1578081fd5b82356145dc81615114565b915060208301356145ec81615114565b809150509250929050565b60008060006040848603121561460b578081fd5b833561461681615114565b925060208401356001600160401b03811115614630578182fd5b61463c868287016143c2565b9497909650939450505050565b600080600080600060608688031215614660578283fd5b853561466b81615114565b945060208601356001600160401b0380821115614686578485fd5b61469289838a016143c2565b909650945060408801359150808211156146aa578283fd5b506146b7888289016143c2565b969995985093965092949392505050565b6000806000606084860312156146dc578081fd5b83356146e781615114565b92506020848101356001600160401b0380821115614703578384fd5b61470f8883890161440b565b94506040870135915080821115614724578384fd5b508501601f81018713614735578283fd5b803561474361442b82615010565b8082825284820191508484018a868560051b8701011115614762578687fd5b8694505b83851015614784578035835260019490940193918501918501614766565b5080955050505050509250925092565b600080600080608085870312156147a9578182fd5b84356001600160401b038111156147be578283fd5b6147ca8782880161440b565b94505060208501356147db81615114565b925060408501356147eb81615114565b915060608501356147fb8161513a565b939692955090935050565b600060208284031215614817578081fd5b815161459c8161512c565b600060208284031215614833578081fd5b81356001600160401b0380821115614849578283fd5b9083019060c0828603121561485c578283fd5b614864614fbe565b61486d836143b2565b8152602083013560208201526148856040840161450b565b6040820152606083013560608201526080830135828111156148a5578485fd5b6148b187828601614483565b60808301525060a0830135828111156148c8578485fd5b6148d487828601614516565b60a08301525095945050505050565b6000602082840312156148f4578081fd5b5035919050565b60006020828403121561490c578081fd5b5051919050565b600060208284031215614924578081fd5b813561459c8161513a565b600060208284031215614940578081fd5b815161459c8161513a565b81835260006020808501945082825b8581101561498857813561496d81615114565b6001600160a01b03168752958201959082019060010161495a565b509495945050505050565b6000815180845260208085019450808401835b838110156149885781516001600160a01b0316875295820195908201906001016149a6565b6000815180845260208085019450808401835b838110156149885781511515875295820195908201906001016149de565b6000815180845260208085019450808401835b8381101561498857815180516001600160a01b031688528301518388015260409096019590820190600101614a0f565b6000815180845260208085019450808401835b8381101561498857815187529582019590820190600101614a52565b60008251614a808184602087016150a1565b9190910192915050565b6001600160a01b0391909116815260200190565b60018060a01b0386168152846020820152831515604082015282606082015260a060808201526000614ad360a08301846149fc565b979650505050505050565b602081526000614af260208301848661494b565b949350505050565b608081526000614b0e60808301878961494b565b6001600160a01b03861660208401528281036040840152614b2f8186614a3f565b90508281036060840152614b4381856149cb565b98975050505050505050565b604081526000614b6360408301868861494b565b82810360208401528381526001600160fb1b03841115614b81578182fd5b8360051b808660208401370160200190815295945050505050565b60208152600061459c6020830184614993565b608081526000614bc26080830187614993565b6001600160a01b03861660208401528281036040840152614be38186614a3f565b90508281036060840152614ad381856149cb565b604081526000614c0a6040830185614993565b8281036020840152614c1c8185614a3f565b95945050505050565b606081526000614c386060830186614993565b8281036020840152614c4a8186614a3f565b90508281036040840152614c5e81856149cb565b9695505050505050565b60208101600e8310614c8a57634e487b7160e01b600052602160045260246000fd5b91905290565b6020808252603c908201527f496e746572636f6e6e656374733a3a6f6e6c7952656c61794163636f756e743a60408201527b0810d85b1b195c881a5cc81b9bdd081c995b185e481858d8dbdd5b9d60221b606082015260800190565b602080825260409082018190526000805160206151cd833981519152908201527f20546f6b656e206973206e6f7420616363657074696e67206272696467696e67606082015260800190565b6020808252602e908201527f496e697469616c697a61626c653a20636f6e747261637420697320616c72656160408201526d191e481a5b9a5d1a585b1a5e995960921b606082015260800190565b6020808252600b908201526a626164206164647265737360a81b604082015260600190565b6020808252604b908201526000805160206151cd833981519152604082015260008051602061514d83398151915260608201526a1cdd08189948195c5d585b60aa1b608082015260a00190565b6020808252602e908201527f436f6e74726f6c6c65643a3a6f6e6c794d616e616765723a2043616c6c65722060408201526d34b9903737ba1036b0b730b3b2b960911b606082015260800190565b60208082526034908201527f436f6e74726f6c6c65643a3a6f6e6c79436f6e74726f6c6c65723a2043616c6c60408201527332b91034b9903737ba1031b7b73a3937b63632b960611b606082015260800190565b6020808252601f908201527f5265656e7472616e637947756172643a207265656e7472616e742063616c6c00604082015260600190565b6000602080835260018060a01b038451168184015280840151604084015260408401511515606084015260608401516080840152608084015160c060a0850152614f1e60e08501826149fc565b905060a0850151601f19808684030160c08701528151808452614f46818686018786016150a1565b601f011691909101909101949350505050565b8481526001600160a01b0384166020820152608060408201819052600090614f83908301856149fc565b9050821515606083015295945050505050565b604080519081016001600160401b0381118282101715614fb857614fb86150fe565b60405290565b60405160c081016001600160401b0381118282101715614fb857614fb86150fe565b604051601f8201601f191681016001600160401b0381118282101715615008576150086150fe565b604052919050565b60006001600160401b03821115615029576150296150fe565b5060051b60200190565b60008219821115615046576150466150e8565b500190565b60008261506657634e487b7160e01b81526012600452602481fd5b500490565b6000816000190483118215151615615085576150856150e8565b500290565b60008282101561509c5761509c6150e8565b500390565b60005b838110156150bc5781810151838201526020016150a4565b8381111561408d5750506000910152565b60006000198214156150e1576150e16150e8565b5060010190565b634e487b7160e01b600052601160045260246000fd5b634e487b7160e01b600052604160045260246000fd5b6001600160a01b038116811461512957600080fd5b50565b801515811461512957600080fd5b63ffffffff8116811461512957600080fdfe204c656e677468206f6620746f6b656e7320616e6420616d6f756e7473206d75496e746572636f6e6e656374733a3a757064617465546f6b656e506f6f6c4c70496e746572636f6e6e656374733a3a70726f766964654c69717569646974793a496e746572636f6e6e656374733a3a74616b654c69717569646974793a204c50496e746572636f6e6e656374733a3a76616c69646174654272696467696e673aa2646970667358221220f6eaf69dd6f8a806d855fda1a7880b5c91a4e0add968ffb0de85c2db02a3a6eb64736f6c63430008040033",
  "devdoc": {
    "kind": "dev",
    "methods": {
      "bridgeFrom(address,address[],uint256[])": {
        "details": "Wrapper around userPositions func to decrease user's token balance",
        "params": {
          "amounts": "Array of the token amounts",
          "tokens": "Array of the token addresses",
          "user": "user bridging"
        }
      },
      "bridgeTo(address,address[],uint256[])": {
        "details": "Wrapper around userPositions func, updateTokenPoolLpBalances, and feeHandler",
        "params": {
          "amounts": "Array of the token amounts",
          "tokens": "Array of the token addresses",
          "user": "user bridging"
        }
      },
      "claimLpFeeRewards(address,address[])": {
        "params": {
          "tokens": "Array of the token addresses",
          "user": "Address of the account LP-ing"
        }
      },
      "getRelayAccount()": {
        "returns": {
          "_0": "The address of the gas account"
        }
      },
      "getTokenLpUsers(address)": {
        "params": {
          "asset": "Address of the ERC20 token contract"
        }
      },
      "getTokenPoolLpActivePositions(address)": {
        "details": "this returns the sum of all active LP positions for a given token. This is different than the LP balance, as the LP balance is the available amount of this sum. This number is gte the LP balance, usually greater than.",
        "params": {
          "asset": "Address of the ERC20 token contract"
        }
      },
      "getTokenPoolLpBalance(address)": {
        "params": {
          "asset": "Address of the ERC20 token contract"
        }
      },
      "getTokenProtocolFeeRewards(address)": {
        "params": {
          "asset": "Address of the ERC20 token contract"
        }
      },
      "getTokenUserLpBalance(address,address)": {
        "params": {
          "asset": "Address of the ERC20 token contract",
          "user": "Address of the user account"
        }
      },
      "getTokenUserLpFeeRewardBalance(address,address)": {
        "params": {
          "asset": "Address of the ERC20 token contract",
          "user": "Address of the user account"
        }
      },
      "initialize(address[],address,address,uint32)": {
        "params": {
          "_rseFeeNumerator": "The numerator for RSE fees. Denominator is 1,000,000. So 10,000 = 1% fee.",
          "controllers_": "The addresses of the controlling contracts",
          "moduleMap_": "Address of the Module Map",
          "relayAccount_": "The address of the relay account that will control this account"
        }
      },
      "provideLiquidity(address,address[],uint256[])": {
        "params": {
          "amounts": "Array of the token amounts",
          "tokens": "Array of the token addresses",
          "user": "Address of the account LP-ing"
        }
      },
      "takeLiquidity(address,address[],uint256[])": {
        "params": {
          "amounts": "Array of the token amounts",
          "tokens": "Array of the token addresses",
          "user": "Address of the account LP-ing"
        }
      },
      "undoBridgeFrom(address,address[],uint256[])": {
        "details": "Wrapper around userPositions func to increase user's token balance",
        "params": {
          "amounts": "Array of the token amounts",
          "tokens": "Array of the token addresses",
          "user": "user bridging"
        }
      },
      "updateRSEFeeNumerator(uint32)": {
        "params": {
          "numerator": "fee numerator"
        }
      },
      "updateRelayAccount(address)": {
        "params": {
          "relayAccount_": "The address of the relay account"
        }
      },
      "verifyRSE((address,uint256,bool,uint256,(address,uint256)[],bytes))": {
        "details": "this function verifies that the signature is from the signer and contains the correct hashed contents",
        "params": {
          "req": "- RSE request as struct RemoteStrategyExecutionBody"
        }
      }
    },
    "version": 1
  },
  "userdoc": {
    "kind": "user",
    "methods": {
      "claimLpFeeRewards(address,address[])": {
        "notice": "User is allowed to claim fees"
      },
      "provideLiquidity(address,address[],uint256[])": {
        "notice": "User is allowed to LP whitelisted tokens"
      }
    },
    "version": 1
  },
  "storageLayout": {
    "storage": [
      {
        "astId": 702,
        "contract": "contracts/core/Interconnects.sol:Interconnects",
        "label": "_initialized",
        "offset": 0,
        "slot": "0",
        "type": "t_bool"
      },
      {
        "astId": 705,
        "contract": "contracts/core/Interconnects.sol:Interconnects",
        "label": "_initializing",
        "offset": 1,
        "slot": "0",
        "type": "t_bool"
      },
      {
        "astId": 11341,
        "contract": "contracts/core/Interconnects.sol:Interconnects",
        "label": "moduleMap",
        "offset": 2,
        "slot": "0",
        "type": "t_contract(IModuleMap)22677"
      },
      {
        "astId": 5851,
        "contract": "contracts/core/Interconnects.sol:Interconnects",
        "label": "_controllers",
        "offset": 0,
        "slot": "1",
        "type": "t_mapping(t_address,t_bool)"
      },
      {
        "astId": 5854,
        "contract": "contracts/core/Interconnects.sol:Interconnects",
        "label": "controllers",
        "offset": 0,
        "slot": "2",
        "type": "t_array(t_address)dyn_storage"
      },
      {
        "astId": 783,
        "contract": "contracts/core/Interconnects.sol:Interconnects",
        "label": "_status",
        "offset": 0,
        "slot": "3",
        "type": "t_uint256"
      },
      {
        "astId": 827,
        "contract": "contracts/core/Interconnects.sol:Interconnects",
        "label": "__gap",
        "offset": 0,
        "slot": "4",
        "type": "t_array(t_uint256)49_storage"
      },
      {
        "astId": 8083,
        "contract": "contracts/core/Interconnects.sol:Interconnects",
        "label": "_relayAccount",
        "offset": 0,
        "slot": "53",
        "type": "t_address_payable"
      },
      {
        "astId": 8090,
        "contract": "contracts/core/Interconnects.sol:Interconnects",
        "label": "_tokenUserLpBalances",
        "offset": 0,
        "slot": "54",
        "type": "t_mapping(t_address,t_mapping(t_address,t_struct(lpData)21987_storage))"
      },
      {
        "astId": 8094,
        "contract": "contracts/core/Interconnects.sol:Interconnects",
        "label": "_tokenPoolLpBalances",
        "offset": 0,
        "slot": "55",
        "type": "t_mapping(t_address,t_uint256)"
      },
      {
        "astId": 8098,
        "contract": "contracts/core/Interconnects.sol:Interconnects",
        "label": "_tokenProtocolFeeRewards",
        "offset": 0,
        "slot": "56",
        "type": "t_mapping(t_address,t_uint256)"
      },
      {
        "astId": 8103,
        "contract": "contracts/core/Interconnects.sol:Interconnects",
        "label": "_tokenLpUsers",
        "offset": 0,
        "slot": "57",
        "type": "t_mapping(t_address,t_array(t_address)dyn_storage)"
      },
      {
        "astId": 8107,
        "contract": "contracts/core/Interconnects.sol:Interconnects",
        "label": "relayTxns",
        "offset": 0,
        "slot": "58",
        "type": "t_mapping(t_bytes_memory_ptr,t_bool)"
      },
      {
        "astId": 8111,
        "contract": "contracts/core/Interconnects.sol:Interconnects",
        "label": "_tokenRSEFees",
        "offset": 0,
        "slot": "59",
        "type": "t_mapping(t_address,t_uint256)"
      },
      {
        "astId": 8116,
        "contract": "contracts/core/Interconnects.sol:Interconnects",
        "label": "rseFeeNumerator",
        "offset": 0,
        "slot": "60",
        "type": "t_uint32"
      }
    ],
    "types": {
      "t_address": {
        "encoding": "inplace",
        "label": "address",
        "numberOfBytes": "20"
      },
      "t_address_payable": {
        "encoding": "inplace",
        "label": "address payable",
        "numberOfBytes": "20"
      },
      "t_array(t_address)dyn_storage": {
        "base": "t_address",
        "encoding": "dynamic_array",
        "label": "address[]",
        "numberOfBytes": "32"
      },
      "t_array(t_uint256)49_storage": {
        "base": "t_uint256",
        "encoding": "inplace",
        "label": "uint256[49]",
        "numberOfBytes": "1568"
      },
      "t_bool": {
        "encoding": "inplace",
        "label": "bool",
        "numberOfBytes": "1"
      },
      "t_bytes_memory_ptr": {
        "encoding": "bytes",
        "label": "bytes",
        "numberOfBytes": "32"
      },
      "t_contract(IModuleMap)22677": {
        "encoding": "inplace",
        "label": "contract IModuleMap",
        "numberOfBytes": "20"
      },
      "t_mapping(t_address,t_array(t_address)dyn_storage)": {
        "encoding": "mapping",
        "key": "t_address",
        "label": "mapping(address => address[])",
        "numberOfBytes": "32",
        "value": "t_array(t_address)dyn_storage"
      },
      "t_mapping(t_address,t_bool)": {
        "encoding": "mapping",
        "key": "t_address",
        "label": "mapping(address => bool)",
        "numberOfBytes": "32",
        "value": "t_bool"
      },
      "t_mapping(t_address,t_mapping(t_address,t_struct(lpData)21987_storage))": {
        "encoding": "mapping",
        "key": "t_address",
        "label": "mapping(address => mapping(address => struct IInterconnects.lpData))",
        "numberOfBytes": "32",
        "value": "t_mapping(t_address,t_struct(lpData)21987_storage)"
      },
      "t_mapping(t_address,t_struct(lpData)21987_storage)": {
        "encoding": "mapping",
        "key": "t_address",
        "label": "mapping(address => struct IInterconnects.lpData)",
        "numberOfBytes": "32",
        "value": "t_struct(lpData)21987_storage"
      },
      "t_mapping(t_address,t_uint256)": {
        "encoding": "mapping",
        "key": "t_address",
        "label": "mapping(address => uint256)",
        "numberOfBytes": "32",
        "value": "t_uint256"
      },
      "t_mapping(t_bytes_memory_ptr,t_bool)": {
        "encoding": "mapping",
        "key": "t_bytes_memory_ptr",
        "label": "mapping(bytes => bool)",
        "numberOfBytes": "32",
        "value": "t_bool"
      },
      "t_struct(lpData)21987_storage": {
        "encoding": "inplace",
        "label": "struct IInterconnects.lpData",
        "members": [
          {
            "astId": 21984,
            "contract": "contracts/core/Interconnects.sol:Interconnects",
            "label": "position",
            "offset": 0,
            "slot": "0",
            "type": "t_uint256"
          },
          {
            "astId": 21986,
            "contract": "contracts/core/Interconnects.sol:Interconnects",
            "label": "rewards",
            "offset": 0,
            "slot": "1",
            "type": "t_uint256"
          }
        ],
        "numberOfBytes": "64"
      },
      "t_uint256": {
        "encoding": "inplace",
        "label": "uint256",
        "numberOfBytes": "32"
      },
      "t_uint32": {
        "encoding": "inplace",
        "label": "uint32",
        "numberOfBytes": "4"
      }
    }
  }
}