{
  "address": "0xb62B8a415741168c93e12aB193d4b4FE5001905E",
  "abi": [
    {
      "anonymous": false,
      "inputs": [],
      "name": "BiosBuyBack",
      "type": "event"
    },
    {
      "anonymous": false,
      "inputs": [
        {
          "indexed": true,
          "internalType": "address",
          "name": "user",
          "type": "address"
        },
        {
          "indexed": false,
          "internalType": "uint256",
          "name": "biosRewards",
          "type": "uint256"
        }
      ],
      "name": "ClaimBiosRewards",
      "type": "event"
    },
    {
      "anonymous": false,
      "inputs": [
        {
          "indexed": true,
          "internalType": "address",
          "name": "user",
          "type": "address"
        },
        {
          "indexed": false,
          "internalType": "uint256[]",
          "name": "strategies",
          "type": "uint256[]"
        },
        {
          "indexed": false,
          "internalType": "uint256",
          "name": "ethRewards",
          "type": "uint256"
        }
      ],
      "name": "ClaimEthRewards",
      "type": "event"
    },
    {
      "anonymous": false,
      "inputs": [],
      "name": "Deploy",
      "type": "event"
    },
    {
      "anonymous": false,
      "inputs": [],
      "name": "DistributeEth",
      "type": "event"
    },
    {
      "anonymous": false,
      "inputs": [
        {
          "indexed": false,
          "internalType": "uint32",
          "name": "biosBuyBackEthWeight",
          "type": "uint32"
        },
        {
          "indexed": false,
          "internalType": "uint32",
          "name": "treasuryEthWeight",
          "type": "uint32"
        },
        {
          "indexed": false,
          "internalType": "uint32",
          "name": "protocolFeeEthWeight",
          "type": "uint32"
        },
        {
          "indexed": false,
          "internalType": "uint32",
          "name": "rewardsEthWeight",
          "type": "uint32"
        }
      ],
      "name": "EthDistributionWeightsUpdated",
      "type": "event"
    },
    {
      "anonymous": false,
      "inputs": [
        {
          "indexed": false,
          "internalType": "uint256",
          "name": "gasAccountTargetEthBalance",
          "type": "uint256"
        }
      ],
      "name": "GasAccountTargetEthBalanceUpdated",
      "type": "event"
    },
    {
      "anonymous": false,
      "inputs": [
        {
          "indexed": false,
          "internalType": "address",
          "name": "gasAccount",
          "type": "address"
        }
      ],
      "name": "GasAccountUpdated",
      "type": "event"
    },
    {
      "anonymous": false,
      "inputs": [],
      "name": "HarvestYield",
      "type": "event"
    },
    {
      "anonymous": false,
      "inputs": [
        {
          "indexed": true,
          "internalType": "address",
          "name": "contractAddress",
          "type": "address"
        },
        {
          "indexed": false,
          "internalType": "string",
          "name": "name",
          "type": "string"
        }
      ],
      "name": "IntegrationAdded",
      "type": "event"
    },
    {
      "anonymous": false,
      "inputs": [
        {
          "indexed": true,
          "internalType": "bytes32",
          "name": "role",
          "type": "bytes32"
        },
        {
          "indexed": true,
          "internalType": "bytes32",
          "name": "previousAdminRole",
          "type": "bytes32"
        },
        {
          "indexed": true,
          "internalType": "bytes32",
          "name": "newAdminRole",
          "type": "bytes32"
        }
      ],
      "name": "RoleAdminChanged",
      "type": "event"
    },
    {
      "anonymous": false,
      "inputs": [
        {
          "indexed": true,
          "internalType": "bytes32",
          "name": "role",
          "type": "bytes32"
        },
        {
          "indexed": true,
          "internalType": "address",
          "name": "account",
          "type": "address"
        },
        {
          "indexed": true,
          "internalType": "address",
          "name": "sender",
          "type": "address"
        }
      ],
      "name": "RoleGranted",
      "type": "event"
    },
    {
      "anonymous": false,
      "inputs": [
        {
          "indexed": true,
          "internalType": "bytes32",
          "name": "role",
          "type": "bytes32"
        },
        {
          "indexed": true,
          "internalType": "address",
          "name": "account",
          "type": "address"
        },
        {
          "indexed": true,
          "internalType": "address",
          "name": "sender",
          "type": "address"
        }
      ],
      "name": "RoleRevoked",
      "type": "event"
    },
    {
      "anonymous": false,
      "inputs": [
        {
          "indexed": false,
          "internalType": "uint256",
          "name": "biosAmount",
          "type": "uint256"
        }
      ],
      "name": "SeedBiosRewards",
      "type": "event"
    },
    {
      "anonymous": false,
      "inputs": [
        {
          "indexed": false,
          "internalType": "uint32",
          "name": "biosRewardsDuration",
          "type": "uint32"
        }
      ],
      "name": "SetBiosRewardsDuration",
      "type": "event"
    },
    {
      "anonymous": false,
      "inputs": [
        {
          "indexed": true,
          "internalType": "address",
          "name": "tokenAddress",
          "type": "address"
        },
        {
          "indexed": false,
          "internalType": "bool",
          "name": "acceptingDeposits",
          "type": "bool"
        },
        {
          "indexed": false,
          "internalType": "bool",
          "name": "acceptingWithdrawals",
          "type": "bool"
        },
        {
          "indexed": false,
          "internalType": "bool",
          "name": "acceptingLping",
          "type": "bool"
        },
        {
          "indexed": false,
          "internalType": "bool",
          "name": "acceptingBridging",
          "type": "bool"
        },
        {
          "indexed": false,
          "internalType": "uint256",
          "name": "biosRewardWeight",
          "type": "uint256"
        },
        {
          "indexed": false,
          "internalType": "uint256",
          "name": "reserveRatioNumerator",
          "type": "uint256"
        },
        {
          "indexed": false,
          "internalType": "uint256",
          "name": "targetLiquidityRatioNumerator",
          "type": "uint256"
        },
        {
          "indexed": false,
          "internalType": "uint256",
          "name": "transferFeeKValueNumerator",
          "type": "uint256"
        },
        {
          "indexed": false,
          "internalType": "uint256",
          "name": "transferFeePlatformRatioNumerator",
          "type": "uint256"
        }
      ],
      "name": "TokenAdded",
      "type": "event"
    },
    {
      "anonymous": false,
      "inputs": [
        {
          "indexed": false,
          "internalType": "address",
          "name": "treasuryAccount",
          "type": "address"
        }
      ],
      "name": "TreasuryAccountUpdated",
      "type": "event"
    },
    {
      "anonymous": false,
      "inputs": [
        {
          "indexed": true,
          "internalType": "address",
          "name": "user",
          "type": "address"
        },
        {
          "indexed": false,
          "internalType": "address[]",
          "name": "tokens",
          "type": "address[]"
        },
        {
          "indexed": false,
          "internalType": "uint256[]",
          "name": "tokenAmounts",
          "type": "uint256[]"
        },
        {
          "indexed": false,
          "internalType": "uint256",
          "name": "ethAmount",
          "type": "uint256"
        }
      ],
      "name": "Withdraw",
      "type": "event"
    },
    {
      "anonymous": false,
      "inputs": [
        {
          "indexed": true,
          "internalType": "address",
          "name": "user",
          "type": "address"
        },
        {
          "indexed": false,
          "internalType": "address[]",
          "name": "tokens",
          "type": "address[]"
        },
        {
          "indexed": false,
          "internalType": "uint256[]",
          "name": "strategies",
          "type": "uint256[]"
        },
        {
          "indexed": false,
          "internalType": "bool",
          "name": "withdrawWethAsEth",
          "type": "bool"
        },
        {
          "indexed": false,
          "internalType": "uint256[]",
          "name": "tokenAmounts",
          "type": "uint256[]"
        },
        {
          "indexed": false,
          "internalType": "uint256",
          "name": "ethWithdrawn",
          "type": "uint256"
        },
        {
          "indexed": false,
          "internalType": "uint256",
          "name": "ethRewards",
          "type": "uint256"
        },
        {
          "indexed": false,
          "internalType": "uint256",
          "name": "biosRewards",
          "type": "uint256"
        }
      ],
      "name": "WithdrawAllAndClaim",
      "type": "event"
    },
    {
      "inputs": [],
      "name": "DEFAULT_ADMIN_ROLE",
      "outputs": [
        {
          "internalType": "bytes32",
          "name": "",
          "type": "bytes32"
        }
      ],
      "stateMutability": "view",
      "type": "function"
    },
    {
      "inputs": [],
      "name": "LIQUIDITY_PROVIDER_ROLE",
      "outputs": [
        {
          "internalType": "bytes32",
          "name": "",
          "type": "bytes32"
        }
      ],
      "stateMutability": "view",
      "type": "function"
    },
    {
      "inputs": [],
      "name": "MANAGER_ROLE",
      "outputs": [
        {
          "internalType": "bytes32",
          "name": "",
          "type": "bytes32"
        }
      ],
      "stateMutability": "view",
      "type": "function"
    },
    {
      "inputs": [],
      "name": "OWNER_ROLE",
      "outputs": [
        {
          "internalType": "bytes32",
          "name": "",
          "type": "bytes32"
        }
      ],
      "stateMutability": "view",
      "type": "function"
    },
    {
      "inputs": [
        {
          "internalType": "address",
          "name": "contractAddress",
          "type": "address"
        },
        {
          "internalType": "string",
          "name": "name",
          "type": "string"
        }
      ],
      "name": "addIntegration",
      "outputs": [],
      "stateMutability": "nonpayable",
      "type": "function"
    },
    {
      "inputs": [
        {
          "internalType": "address",
          "name": "tokenAddress",
          "type": "address"
        },
        {
          "internalType": "bool",
          "name": "acceptingDeposits",
          "type": "bool"
        },
        {
          "internalType": "bool",
          "name": "acceptingWithdrawals",
          "type": "bool"
        },
        {
          "internalType": "bool",
          "name": "acceptingLping",
          "type": "bool"
        },
        {
          "internalType": "bool",
          "name": "acceptingBridging",
          "type": "bool"
        },
        {
          "internalType": "uint256",
          "name": "biosRewardWeight",
          "type": "uint256"
        },
        {
          "internalType": "uint256",
          "name": "reserveRatioNumerator",
          "type": "uint256"
        },
        {
          "internalType": "uint256",
          "name": "targetLiquidityRatioNumerator",
          "type": "uint256"
        },
        {
          "internalType": "uint256",
          "name": "transferFeeKValueNumerator",
          "type": "uint256"
        },
        {
          "internalType": "uint256",
          "name": "transferFeePlatformRatioNumerator",
          "type": "uint256"
        }
      ],
      "name": "addToken",
      "outputs": [],
      "stateMutability": "nonpayable",
      "type": "function"
    },
    {
      "inputs": [
        {
          "internalType": "uint256",
          "name": "ratioX1000",
          "type": "uint256"
        }
      ],
      "name": "biosBuyBack",
      "outputs": [],
      "stateMutability": "nonpayable",
      "type": "function"
    },
    {
      "inputs": [
        {
          "internalType": "uint256[]",
          "name": "strategies",
          "type": "uint256[]"
        }
      ],
      "name": "claimAllRewards",
      "outputs": [
        {
          "internalType": "uint256",
          "name": "ethClaimed",
          "type": "uint256"
        },
        {
          "internalType": "uint256",
          "name": "biosClaimed",
          "type": "uint256"
        }
      ],
      "stateMutability": "nonpayable",
      "type": "function"
    },
    {
      "inputs": [],
      "name": "claimBiosRewards",
      "outputs": [
        {
          "internalType": "uint256",
          "name": "biosClaimed",
          "type": "uint256"
        }
      ],
      "stateMutability": "nonpayable",
      "type": "function"
    },
    {
      "inputs": [
        {
          "internalType": "uint256[]",
          "name": "strategies",
          "type": "uint256[]"
        }
      ],
      "name": "claimEthRewards",
      "outputs": [
        {
          "internalType": "uint256",
          "name": "ethClaimed",
          "type": "uint256"
        }
      ],
      "stateMutability": "nonpayable",
      "type": "function"
    },
    {
      "inputs": [
        {
          "internalType": "address[]",
          "name": "tokens",
          "type": "address[]"
        }
      ],
      "name": "claimLpFees",
      "outputs": [],
      "stateMutability": "nonpayable",
      "type": "function"
    },
    {
      "inputs": [
        {
          "components": [
            {
              "internalType": "address",
              "name": "integration",
              "type": "address"
            },
            {
              "internalType": "address[]",
              "name": "tokens",
              "type": "address[]"
            },
            {
              "internalType": "uint32",
              "name": "ammPoolID",
              "type": "uint32"
            }
          ],
          "internalType": "struct IYieldManager.DeployRequest[]",
          "name": "deployments",
          "type": "tuple[]"
        }
      ],
      "name": "deploy",
      "outputs": [],
      "stateMutability": "nonpayable",
      "type": "function"
    },
    {
      "inputs": [
        {
          "internalType": "address[]",
          "name": "tokens",
          "type": "address[]"
        },
        {
          "internalType": "uint256[]",
          "name": "amounts",
          "type": "uint256[]"
        }
      ],
      "name": "deposit",
      "outputs": [],
      "stateMutability": "payable",
      "type": "function"
    },
    {
      "inputs": [],
      "name": "disableLpWhitelist",
      "outputs": [],
      "stateMutability": "nonpayable",
      "type": "function"
    },
    {
      "inputs": [
        {
          "internalType": "uint256[]",
          "name": "strategies",
          "type": "uint256[]"
        },
        {
          "internalType": "uint256[]",
          "name": "positions",
          "type": "uint256[]"
        },
        {
          "internalType": "uint256",
          "name": "biosAmount",
          "type": "uint256"
        }
      ],
      "name": "distributeEth",
      "outputs": [],
      "stateMutability": "nonpayable",
      "type": "function"
    },
    {
      "inputs": [],
      "name": "enableLpWhitelist",
      "outputs": [],
      "stateMutability": "nonpayable",
      "type": "function"
    },
    {
      "inputs": [],
      "name": "getEthRewardsTimePeriod",
      "outputs": [
        {
          "internalType": "uint256",
          "name": "ethRewardsTimePeriod",
          "type": "uint256"
        }
      ],
      "stateMutability": "view",
      "type": "function"
    },
    {
      "inputs": [],
      "name": "getLastBiosBuyBackTimestamp",
      "outputs": [
        {
          "internalType": "uint256",
          "name": "",
          "type": "uint256"
        }
      ],
      "stateMutability": "view",
      "type": "function"
    },
    {
      "inputs": [],
      "name": "getLastDeployTimestamp",
      "outputs": [
        {
          "internalType": "uint256",
          "name": "",
          "type": "uint256"
        }
      ],
      "stateMutability": "view",
      "type": "function"
    },
    {
      "inputs": [],
      "name": "getLastDistributeEthTimestamp",
      "outputs": [
        {
          "internalType": "uint256",
          "name": "",
          "type": "uint256"
        }
      ],
      "stateMutability": "view",
      "type": "function"
    },
    {
      "inputs": [],
      "name": "getLpWhitelistEnabled",
      "outputs": [
        {
          "internalType": "bool",
          "name": "",
          "type": "bool"
        }
      ],
      "stateMutability": "view",
      "type": "function"
    },
    {
      "inputs": [
        {
          "internalType": "bytes32",
          "name": "role",
          "type": "bytes32"
        }
      ],
      "name": "getRoleAdmin",
      "outputs": [
        {
          "internalType": "bytes32",
          "name": "",
          "type": "bytes32"
        }
      ],
      "stateMutability": "view",
      "type": "function"
    },
    {
      "inputs": [
        {
          "internalType": "bytes32",
          "name": "role",
          "type": "bytes32"
        },
        {
          "internalType": "uint256",
          "name": "index",
          "type": "uint256"
        }
      ],
      "name": "getRoleMember",
      "outputs": [
        {
          "internalType": "address",
          "name": "",
          "type": "address"
        }
      ],
      "stateMutability": "view",
      "type": "function"
    },
    {
      "inputs": [
        {
          "internalType": "bytes32",
          "name": "role",
          "type": "bytes32"
        }
      ],
      "name": "getRoleMemberCount",
      "outputs": [
        {
          "internalType": "uint256",
          "name": "",
          "type": "uint256"
        }
      ],
      "stateMutability": "view",
      "type": "function"
    },
    {
      "inputs": [
        {
          "internalType": "bytes32",
          "name": "role",
          "type": "bytes32"
        },
        {
          "internalType": "address",
          "name": "account",
          "type": "address"
        }
      ],
      "name": "grantRole",
      "outputs": [],
      "stateMutability": "nonpayable",
      "type": "function"
    },
    {
      "inputs": [
        {
          "internalType": "bytes32",
          "name": "role",
          "type": "bytes32"
        },
        {
          "internalType": "address",
          "name": "account",
          "type": "address"
        }
      ],
      "name": "hasRole",
      "outputs": [
        {
          "internalType": "bool",
          "name": "",
          "type": "bool"
        }
      ],
      "stateMutability": "view",
      "type": "function"
    },
    {
      "inputs": [
        {
          "internalType": "address",
          "name": "admin_",
          "type": "address"
        },
        {
          "internalType": "address",
          "name": "owner_",
          "type": "address"
        },
        {
          "internalType": "address",
          "name": "manager_",
          "type": "address"
        },
        {
          "internalType": "address",
          "name": "liquidityProvider_",
          "type": "address"
        },
        {
          "internalType": "address",
          "name": "moduleMap_",
          "type": "address"
        }
      ],
      "name": "initialize",
      "outputs": [],
      "stateMutability": "nonpayable",
      "type": "function"
    },
    {
      "inputs": [
        {
          "internalType": "address",
          "name": "account",
          "type": "address"
        }
      ],
      "name": "isLiquidityProvider",
      "outputs": [
        {
          "internalType": "bool",
          "name": "",
          "type": "bool"
        }
      ],
      "stateMutability": "view",
      "type": "function"
    },
    {
      "inputs": [
        {
          "internalType": "address",
          "name": "account",
          "type": "address"
        }
      ],
      "name": "isManager",
      "outputs": [
        {
          "internalType": "bool",
          "name": "",
          "type": "bool"
        }
      ],
      "stateMutability": "view",
      "type": "function"
    },
    {
      "inputs": [
        {
          "internalType": "address",
          "name": "account",
          "type": "address"
        }
      ],
      "name": "isOwner",
      "outputs": [
        {
          "internalType": "bool",
          "name": "",
          "type": "bool"
        }
      ],
      "stateMutability": "view",
      "type": "function"
    },
    {
      "inputs": [],
      "name": "moduleMap",
      "outputs": [
        {
          "internalType": "contract IModuleMap",
          "name": "",
          "type": "address"
        }
      ],
      "stateMutability": "view",
      "type": "function"
    },
    {
      "inputs": [
        {
          "internalType": "address[]",
          "name": "tokens",
          "type": "address[]"
        },
        {
          "internalType": "uint256[]",
          "name": "amounts",
          "type": "uint256[]"
        }
      ],
      "name": "provideLiquidity",
      "outputs": [],
      "stateMutability": "nonpayable",
      "type": "function"
    },
    {
      "inputs": [
        {
          "internalType": "bytes32",
          "name": "role",
          "type": "bytes32"
        },
        {
          "internalType": "address",
          "name": "account",
          "type": "address"
        }
      ],
      "name": "renounceRole",
      "outputs": [],
      "stateMutability": "nonpayable",
      "type": "function"
    },
    {
      "inputs": [
        {
          "internalType": "bytes32",
          "name": "role",
          "type": "bytes32"
        },
        {
          "internalType": "address",
          "name": "account",
          "type": "address"
        }
      ],
      "name": "revokeRole",
      "outputs": [],
      "stateMutability": "nonpayable",
      "type": "function"
    },
    {
      "inputs": [
        {
          "internalType": "bytes4",
          "name": "interfaceId",
          "type": "bytes4"
        }
      ],
      "name": "supportsInterface",
      "outputs": [
        {
          "internalType": "bool",
          "name": "",
          "type": "bool"
        }
      ],
      "stateMutability": "view",
      "type": "function"
    },
    {
      "inputs": [
        {
          "internalType": "address[]",
          "name": "tokens",
          "type": "address[]"
        },
        {
          "internalType": "uint256[]",
          "name": "amounts",
          "type": "uint256[]"
        }
      ],
      "name": "takeLiquidity",
      "outputs": [],
      "stateMutability": "nonpayable",
      "type": "function"
    },
    {
      "inputs": [],
      "name": "tokenApprovals",
      "outputs": [],
      "stateMutability": "nonpayable",
      "type": "function"
    },
    {
      "inputs": [
        {
          "internalType": "uint32",
          "name": "biosBuyBackEthWeight",
          "type": "uint32"
        },
        {
          "internalType": "uint32",
          "name": "treasuryEthWeight",
          "type": "uint32"
        },
        {
          "internalType": "uint32",
          "name": "protocolFeeEthWeight",
          "type": "uint32"
        },
        {
          "internalType": "uint32",
          "name": "rewardsEthWeight",
          "type": "uint32"
        }
      ],
      "name": "updateEthDistributionWeights",
      "outputs": [],
      "stateMutability": "nonpayable",
      "type": "function"
    },
    {
      "inputs": [
        {
          "internalType": "address payable",
          "name": "gasAccount",
          "type": "address"
        }
      ],
      "name": "updateGasAccount",
      "outputs": [],
      "stateMutability": "nonpayable",
      "type": "function"
    },
    {
      "inputs": [
        {
          "internalType": "uint256",
          "name": "gasAccountTargetEthBalance",
          "type": "uint256"
        }
      ],
      "name": "updateGasAccountTargetEthBalance",
      "outputs": [],
      "stateMutability": "nonpayable",
      "type": "function"
    },
    {
      "inputs": [
        {
          "internalType": "address payable",
          "name": "treasuryAccount",
          "type": "address"
        }
      ],
      "name": "updateTreasuryAccount",
      "outputs": [],
      "stateMutability": "nonpayable",
      "type": "function"
    },
    {
      "inputs": [
        {
          "internalType": "address[]",
          "name": "tokens",
          "type": "address[]"
        },
        {
          "internalType": "uint256[]",
          "name": "amounts",
          "type": "uint256[]"
        },
        {
          "internalType": "bool",
          "name": "withdrawWethAsEth",
          "type": "bool"
        }
      ],
      "name": "withdraw",
      "outputs": [],
      "stateMutability": "nonpayable",
      "type": "function"
    },
    {
      "inputs": [
        {
          "internalType": "address[]",
          "name": "tokens",
          "type": "address[]"
        },
        {
          "internalType": "uint256[]",
          "name": "strategies",
          "type": "uint256[]"
        },
        {
          "internalType": "bool",
          "name": "withdrawWethAsEth",
          "type": "bool"
        }
      ],
      "name": "withdrawAllAndClaim",
      "outputs": [
        {
          "internalType": "uint256[]",
          "name": "tokenAmounts",
          "type": "uint256[]"
        },
        {
          "internalType": "uint256",
          "name": "ethWithdrawn",
          "type": "uint256"
        },
        {
          "internalType": "uint256",
          "name": "ethClaimed",
          "type": "uint256"
        },
        {
          "internalType": "uint256",
          "name": "biosClaimed",
          "type": "uint256"
        }
      ],
      "stateMutability": "nonpayable",
      "type": "function"
    },
    {
      "stateMutability": "payable",
      "type": "receive"
    }
  ],
  "transactionHash": "0x4c1b06ffa1261ed0509fe6043e8309e2d5ef3c649727fab97004838f1b43c645",
  "args": [],
  "solcInputHash": "6b3cff8e9848db73a4b75e9fcec41d40",
  "bytecode": "0x608060405234801561001057600080fd5b506151de806100206000396000f3fe6080604052600436106101f05760003560e01c806301eb7a19146101fc57806301ffc9a7146102265780630b1ff20a146102465780630f0a1c6f1461026857806312804d23146102955780631459457a146102aa5780631542d6dd146102ca5780631a8821db146102e957806320037cdd146103095780632369fde51461032b578063248a9ca3146103405780632f2ff15d146103605780632f54bf6e1461038057806330dd79dd146103a057806336568abe146103c05780633f10724c146103e05780634bc3f872146104005780634dee99b4146104165780635b21a5561461042b57806369c32f601461044b578063845fe1d01461046b5780638811d21b1461048b57806388656055146104bb5780638a34be28146104db5780639010d07c146104fb57806391d148541461051b57806399f7854a1461053b578063a1bc29081461055b578063a217fddf1461057b578063a2beb51014610590578063a703b729146105c5578063b4f0abf0146105e5578063ca15c87314610605578063cb3c582214610625578063d547741f1461063a578063d690d13e1461065a578063da6b22071461066f578063de13acfb14610684578063de726b71146106a4578063e58378bb146106c4578063ec87621c146106e6578063efc908a114610708578063f3ae24151461071b57600080fd5b366101f757005b600080fd5b34801561020857600080fd5b506101025460ff165b60405190151581526020015b60405180910390f35b34801561023257600080fd5b5061021161024136600461470b565b61073b565b34801561025257600080fd5b506102666102613660046146a3565b610766565b005b34801561027457600080fd5b5060c954610288906001600160a01b031681565b60405161021d9190614a16565b3480156102a157600080fd5b5061026661089c565b3480156102b657600080fd5b506102666102c53660046142b3565b6108c3565b3480156102d657600080fd5b5060fe545b60405190815260200161021d565b3480156102f557600080fd5b50610266610304366004614564565b610ad0565b34801561031557600080fd5b506102db60008051602061514983398151915281565b34801561033757600080fd5b50610266610d5b565b34801561034c57600080fd5b506102db61035b3660046146a3565b61146f565b34801561036c57600080fd5b5061026661037b3660046146bb565b611484565b34801561038c57600080fd5b5061021161039b36600461427b565b6114a6565b3480156103ac57600080fd5b506102666103bb366004614617565b6114c0565b3480156103cc57600080fd5b506102666103db3660046146bb565b611701565b3480156103ec57600080fd5b506102666103fb3660046145d8565b61177f565b34801561040c57600080fd5b50610100546102db565b34801561042257600080fd5b506102666119b1565b34801561043757600080fd5b506102666104463660046144d2565b6119db565b34801561045757600080fd5b50610266610466366004614504565b611b2d565b34801561047757600080fd5b506102666104863660046146a3565b611c82565b34801561049757600080fd5b506104ab6104a6366004614460565b611eb4565b60405161021d9493929190614ddf565b3480156104c757600080fd5b506102666104d63660046143bf565b6120a7565b3480156104e757600080fd5b506102666104f6366004614504565b6121e6565b34801561050757600080fd5b506102886105163660046146ea565b612300565b34801561052757600080fd5b506102116105363660046146bb565b61231f565b34801561054757600080fd5b5061021161055636600461427b565b61234a565b34801561056757600080fd5b5061026661057636600461427b565b612364565b34801561058757600080fd5b506102db600081565b34801561059c57600080fd5b506105b06105ab3660046145d8565b61248a565b6040805192835260208301919091520161021d565b3480156105d157600080fd5b506102666105e0366004614323565b6124da565b3480156105f157600080fd5b5061026661060036600461427b565b612c28565b34801561061157600080fd5b506102db6106203660046146a3565b612d4e565b34801561063157600080fd5b506102db612d65565b34801561064657600080fd5b506102666106553660046146bb565b612da4565b34801561066657600080fd5b506102db612dc1565b34801561067b57600080fd5b5060fc546102db565b34801561069057600080fd5b5061026661069f366004614829565b612dfe565b3480156106b057600080fd5b506102db6106bf3660046145d8565b612f3f565b3480156106d057600080fd5b506102db60008051602061518983398151915281565b3480156106f257600080fd5b506102db60008051602061516983398151915281565b610266610716366004614504565b612f7f565b34801561072757600080fd5b5061021161073636600461427b565b6131ac565b60006001600160e01b03198216635a05180f60e01b14806107605750610760826131c6565b92915050565b60008051602061516983398151915261077f81336131fb565b60c9546040516337c61fc560e11b81526001600160a01b0390911690636f8c3f8a906107b090600290600401614e0e565b60206040518083038186803b1580156107c857600080fd5b505afa1580156107dc573d6000803e3d6000fd5b505050506040513d601f19601f820116820180604052508101906108009190614297565b6001600160a01b0316630b1ff20a836040518263ffffffff1660e01b815260040161082d91815260200190565b600060405180830381600087803b15801561084757600080fd5b505af115801561085b573d6000803e3d6000fd5b505050507f70002914330d9c830892c922ec3403d9d8a2cc3719a69cede0b9069f3f82b2bb8260405161089091815260200190565b60405180910390a15050565b6000805160206151698339815191526108b581336131fb565b50610102805460ff19169055565b600054610100900460ff166108de5760005460ff16156108e6565b6108e661325f565b61090b5760405162461bcd60e51b815260040161090290614e9a565b60405180910390fd5b600054610100900460ff1615801561092d576000805461ffff19166101011790555b6001600160a01b0386166109535760405162461bcd60e51b815260040161090290614ee8565b6001600160a01b0385166109795760405162461bcd60e51b815260040161090290614ee8565b6001600160a01b03841661099f5760405162461bcd60e51b815260040161090290614ee8565b6001600160a01b0382166109c55760405162461bcd60e51b815260040161090290614ee8565b6001600160a01b0383166109eb5760405162461bcd60e51b815260040161090290614ee8565b6109f482613270565b6109fc613301565b610a04613332565b610a0f600087613359565b610a2760008051602061518983398151915286613359565b610a3f60008051602061516983398151915285613359565b610a5760008051602061514983398151915284613359565b610a7d600080516020615169833981519152600080516020615189833981519152613363565b610aa3600080516020615149833981519152600080516020615169833981519152613363565b4261010155610102805460ff191660011790558015610ac8576000805461ff00191690555b505050505050565b600260ca541415610af35760405162461bcd60e51b815260040161090290614f8b565b600260ca5560c9546040516337c61fc560e11b81526000916001600160a01b031690636f8c3f8a90610b2a90600190600401614e0e565b60206040518083038186803b158015610b4257600080fd5b505afa158015610b56573d6000803e3d6000fd5b505050506040513d601f19601f82011682018060405250810190610b7a9190614297565b6001600160a01b031663558c811e338686866040518563ffffffff1660e01b8152600401610bab9493929190614af6565b602060405180830381600087803b158015610bc557600080fd5b505af1158015610bd9573d6000803e3d6000fd5b505050506040513d601f19601f82011682018060405250810190610bfd9190614811565b90508015610d0b5760c9546040516337c61fc560e11b8152610d019183916001600160a01b0390911690636f8c3f8a90610c3c90600390600401614e0e565b60206040518083038186803b158015610c5457600080fd5b505afa158015610c68573d6000803e3d6000fd5b505050506040513d601f19601f82011682018060405250810190610c8c9190614297565b6001600160a01b0316638b9c94896040518163ffffffff1660e01b815260040160206040518083038186803b158015610cc457600080fd5b505afa158015610cd8573d6000803e3d6000fd5b505050506040513d601f19601f82011682018060405250810190610cfc9190614297565b6133b6565b610d0b8133613517565b336001600160a01b03167f91e54360cfab588303c49bbbb2869608cb9a9fd5ff9b4431f86988f91290421d858584604051610d4893929190614c60565b60405180910390a25050600160ca555050565b600080516020615169833981519152610d7481336131fb565b60c9546040516337c61fc560e11b81526000916001600160a01b031690636f8c3f8a90610da690600390600401614e0e565b60206040518083038186803b158015610dbe57600080fd5b505afa158015610dd2573d6000803e3d6000fd5b505050506040513d601f19601f82011682018060405250810190610df69190614297565b90506000816001600160a01b03166344fc9b566040518163ffffffff1660e01b815260040160206040518083038186803b158015610e3357600080fd5b505afa158015610e47573d6000803e3d6000fd5b505050506040513d601f19601f82011682018060405250810190610e6b9190614297565b90506000826001600160a01b0316638b9c94896040518163ffffffff1660e01b815260040160206040518083038186803b158015610ea857600080fd5b505afa158015610ebc573d6000803e3d6000fd5b505050506040513d601f19601f82011682018060405250810190610ee09190614297565b60c9546040516337c61fc560e11b81529192506001600160a01b038085169263dd62ed3e9230921690636f8c3f8a90610f1d906004908101614e0e565b60206040518083038186803b158015610f3557600080fd5b505afa158015610f49573d6000803e3d6000fd5b505050506040513d601f19601f82011682018060405250810190610f6d9190614297565b6040518363ffffffff1660e01b8152600401610f8a929190614a2a565b60206040518083038186803b158015610fa257600080fd5b505afa158015610fb6573d6000803e3d6000fd5b505050506040513d601f19601f82011682018060405250810190610fda9190614811565b6110735760c9546040516337c61fc560e11b8152611073916001600160a01b031690636f8c3f8a90611010906004908101614e0e565b60206040518083038186803b15801561102857600080fd5b505afa15801561103c573d6000803e3d6000fd5b505050506040513d601f19601f820116820180604052508101906110609190614297565b6001600160a01b038416906000196135b5565b60c9546040516337c61fc560e11b81526001600160a01b038481169263dd62ed3e92309290911690636f8c3f8a906110b090600290600401614e0e565b60206040518083038186803b1580156110c857600080fd5b505afa1580156110dc573d6000803e3d6000fd5b505050506040513d601f19601f820116820180604052508101906111009190614297565b6040518363ffffffff1660e01b815260040161111d929190614a2a565b60206040518083038186803b15801561113557600080fd5b505afa158015611149573d6000803e3d6000fd5b505050506040513d601f19601f8201168201806040525081019061116d9190614811565b6111a45760c9546040516337c61fc560e11b81526111a4916001600160a01b031690636f8c3f8a9061101090600290600401614e0e565b60c9546040516337c61fc560e11b81526001600160a01b038381169263dd62ed3e92309290911690636f8c3f8a906111e190600190600401614e0e565b60206040518083038186803b1580156111f957600080fd5b505afa15801561120d573d6000803e3d6000fd5b505050506040513d601f19601f820116820180604052508101906112319190614297565b6040518363ffffffff1660e01b815260040161124e929190614a2a565b60206040518083038186803b15801561126657600080fd5b505afa15801561127a573d6000803e3d6000fd5b505050506040513d601f19601f8201168201806040525081019061129e9190614811565b6113385760c9546040516337c61fc560e11b8152611338916001600160a01b031690636f8c3f8a906112d590600190600401614e0e565b60206040518083038186803b1580156112ed57600080fd5b505afa158015611301573d6000803e3d6000fd5b505050506040513d601f19601f820116820180604052508101906113259190614297565b6001600160a01b038316906000196135b5565b60c9546040516337c61fc560e11b81526001600160a01b038381169263dd62ed3e92309290911690636f8c3f8a9061137590600290600401614e0e565b60206040518083038186803b15801561138d57600080fd5b505afa1580156113a1573d6000803e3d6000fd5b505050506040513d601f19601f820116820180604052508101906113c59190614297565b6040518363ffffffff1660e01b81526004016113e2929190614a2a565b60206040518083038186803b1580156113fa57600080fd5b505afa15801561140e573d6000803e3d6000fd5b505050506040513d601f19601f820116820180604052508101906114329190614811565b6114695760c9546040516337c61fc560e11b8152611469916001600160a01b031690636f8c3f8a906112d590600290600401614e0e565b50505050565b60009081526065602052604090206001015490565b61148d8261146f565b61149781336131fb565b6114a183836136fe565b505050565b60006107606000805160206151898339815191528361231f565b60c9546040516337c61fc560e11b81526001600160a01b0390911690636f8c3f8a906114f190600290600401614e0e565b60206040518083038186803b15801561150957600080fd5b505afa15801561151d573d6000803e3d6000fd5b505050506040513d601f19601f820116820180604052508101906115419190614297565b6001600160a01b031663e0a30f736040518163ffffffff1660e01b815260040160206040518083038186803b15801561157957600080fd5b505afa15801561158d573d6000803e3d6000fd5b505050506040513d601f19601f820116820180604052508101906115b19190614297565b6001600160a01b0316336001600160a01b0316146115e15760405162461bcd60e51b815260040161090290614f58565b60c9546040516337c61fc560e11b81526001600160a01b0390911690636f8c3f8a9061161290600290600401614e0e565b60206040518083038186803b15801561162a57600080fd5b505afa15801561163e573d6000803e3d6000fd5b505050506040513d601f19601f820116820180604052508101906116629190614297565b6001600160a01b03166330dd79dd86868686866040518663ffffffff1660e01b8152600401611695959493929190614d81565b600060405180830381600087803b1580156116af57600080fd5b505af11580156116c3573d6000803e3d6000fd5b505060fe805460ff5542905550506040517f975dc81fc1f814abf091a0d0126f3d75cde1a0b0aa2dee81138793762eea42fc90600090a15050505050565b6001600160a01b03811633146117715760405162461bcd60e51b815260206004820152602f60248201527f416363657373436f6e74726f6c3a2063616e206f6e6c792072656e6f756e636560448201526e103937b632b9903337b91039b2b63360891b6064820152608401610902565b61177b8282613720565b5050565b60c9546040516337c61fc560e11b81526001600160a01b0390911690636f8c3f8a906117b090600290600401614e0e565b60206040518083038186803b1580156117c857600080fd5b505afa1580156117dc573d6000803e3d6000fd5b505050506040513d601f19601f820116820180604052508101906118009190614297565b6001600160a01b031663e0a30f736040518163ffffffff1660e01b815260040160206040518083038186803b15801561183857600080fd5b505afa15801561184c573d6000803e3d6000fd5b505050506040513d601f19601f820116820180604052508101906118709190614297565b6001600160a01b0316336001600160a01b0316146118a05760405162461bcd60e51b815260040161090290614f58565b60c9546040516337c61fc560e11b81526001600160a01b0390911690636f8c3f8a906118d190600290600401614e0e565b60206040518083038186803b1580156118e957600080fd5b505afa1580156118fd573d6000803e3d6000fd5b505050506040513d601f19601f820116820180604052508101906119219190614297565b6001600160a01b0316633f10724c83836040518363ffffffff1660e01b815260040161194e929190614c96565b600060405180830381600087803b15801561196857600080fd5b505af115801561197c573d6000803e3d6000fd5b50504260fc5550506040517fd9659eff71087e0e5ae7a01868fb393704aec3a891860a55e69a47b9ad2f2dab90600090a15050565b6000805160206151698339815191526119ca81336131fb565b50610102805460ff19166001179055565b6101025460ff161580611a015750611a016000805160206151498339815191523361231f565b611a1d5760405162461bcd60e51b815260040161090290614e49565b600260ca541415611a405760405162461bcd60e51b815260040161090290614f8b565b600260ca5560c9546040516337c61fc560e11b81526001600160a01b0390911690636f8c3f8a90611a7690600a90600401614e0e565b60206040518083038186803b158015611a8e57600080fd5b505afa158015611aa2573d6000803e3d6000fd5b505050506040513d601f19601f82011682018060405250810190611ac69190614297565b6001600160a01b031663d84ac98c33836040518363ffffffff1660e01b8152600401611af3929190614a92565b600060405180830381600087803b158015611b0d57600080fd5b505af1158015611b21573d6000803e3d6000fd5b5050600160ca55505050565b6101025460ff161580611b535750611b536000805160206151498339815191523361231f565b611b6f5760405162461bcd60e51b815260040161090290614e49565b600260ca541415611b925760405162461bcd60e51b815260040161090290614f8b565b600260ca5560c9546040516337c61fc560e11b81526001600160a01b0390911690636f8c3f8a90611bc890600a90600401614e0e565b60206040518083038186803b158015611be057600080fd5b505afa158015611bf4573d6000803e3d6000fd5b505050506040513d601f19601f82011682018060405250810190611c189190614297565b6001600160a01b03166343f0a5bb3384846040518463ffffffff1660e01b8152600401611c4793929190614ab6565b600060405180830381600087803b158015611c6157600080fd5b505af1158015611c75573d6000803e3d6000fd5b5050600160ca5550505050565b60c9546040516337c61fc560e11b81526001600160a01b0390911690636f8c3f8a90611cb390600290600401614e0e565b60206040518083038186803b158015611ccb57600080fd5b505afa158015611cdf573d6000803e3d6000fd5b505050506040513d601f19601f82011682018060405250810190611d039190614297565b6001600160a01b031663e0a30f736040518163ffffffff1660e01b815260040160206040518083038186803b158015611d3b57600080fd5b505afa158015611d4f573d6000803e3d6000fd5b505050506040513d601f19601f82011682018060405250810190611d739190614297565b6001600160a01b0316336001600160a01b031614611da35760405162461bcd60e51b815260040161090290614f58565b60c9546040516337c61fc560e11b81526001600160a01b0390911690636f8c3f8a90611dd490600290600401614e0e565b60206040518083038186803b158015611dec57600080fd5b505afa158015611e00573d6000803e3d6000fd5b505050506040513d601f19601f82011682018060405250810190611e249190614297565b6001600160a01b031663845fe1d0826040518263ffffffff1660e01b8152600401611e5191815260200190565b600060405180830381600087803b158015611e6b57600080fd5b505af1158015611e7f573d6000803e3d6000fd5b5050426101005550506040517f0de1d02cebd74da6199efdd09bf1124d52c591382b792cfcce400d8c8396672a90600090a150565b60c9546040516337c61fc560e11b81526060916000918291829182916001600160a01b031690636f8c3f8a90611eef90600190600401614e0e565b60206040518083038186803b158015611f0757600080fd5b505afa158015611f1b573d6000803e3d6000fd5b505050506040513d601f19601f82011682018060405250810190611f3f9190614297565b6001600160a01b03166395be0546338c8c8c8c8c6040518763ffffffff1660e01b8152600401611f7496959493929190614a44565b600060405180830381600087803b158015611f8e57600080fd5b505af1158015611fa2573d6000803e3d6000fd5b505050506040513d6000823e601f3d908101601f19168201604052611fca9190810190614733565b805160208201516040830151606084015192985090965094509250905083156120245760c9546040516337c61fc560e11b81526120249186916001600160a01b0390911690636f8c3f8a90610c3c90600390600401614e0e565b60006120308486615065565b1115612049576120496120438486615065565b33613517565b336001600160a01b03167fc5b4b8ab390a1b4492016dad7a8c2c74bb8044f074a79c621297e84f465d2e688b8b8b8b8b8b8b8b8b60405161209299989796959493929190614bfb565b60405180910390a25095509550955095915050565b6000805160206151698339815191526120c081336131fb565b60c9546040516337c61fc560e11b81526001600160a01b0390911690636f8c3f8a906120f190600390600401614e0e565b60206040518083038186803b15801561210957600080fd5b505afa15801561211d573d6000803e3d6000fd5b505050506040513d601f19601f820116820180604052508101906121419190614297565b6001600160a01b0316638865605584846040518363ffffffff1660e01b815260040161216e929190614bbe565b600060405180830381600087803b15801561218857600080fd5b505af115801561219c573d6000803e3d6000fd5b50505050826001600160a01b03167ff15c2370ab3e2550092505583d19a745408c68d87d83f56843652d6f01df378d836040516121d99190614e36565b60405180910390a2505050565b6101025460ff16158061220c575061220c6000805160206151498339815191523361231f565b6122285760405162461bcd60e51b815260040161090290614e49565b600260ca54141561224b5760405162461bcd60e51b815260040161090290614f8b565b600260ca5560c9546040516337c61fc560e11b81526001600160a01b0390911690636f8c3f8a9061228190600a90600401614e0e565b60206040518083038186803b15801561229957600080fd5b505afa1580156122ad573d6000803e3d6000fd5b505050506040513d601f19601f820116820180604052508101906122d19190614297565b6001600160a01b031663fd2b51343384846040518463ffffffff1660e01b8152600401611c4793929190614ab6565b60008281526097602052604081206123189083613742565b9392505050565b60009182526065602090815260408084206001600160a01b0393909316845291905290205460ff1690565b60006107606000805160206151498339815191528361231f565b60008051602061516983398151915261237d81336131fb565b60c9546040516337c61fc560e11b81526001600160a01b0390911690636f8c3f8a906123ae90600290600401614e0e565b60206040518083038186803b1580156123c657600080fd5b505afa1580156123da573d6000803e3d6000fd5b505050506040513d601f19601f820116820180604052508101906123fe9190614297565b6001600160a01b031663a1bc2908836040518263ffffffff1660e01b81526004016124299190614a16565b600060405180830381600087803b15801561244357600080fd5b505af1158015612457573d6000803e3d6000fd5b505050507f56b5bc41858c1c8ea6c49bbaa714990fccbcefd31efe9d22cfbebf5d311dfdfc826040516108909190614a16565b600080600260ca5414156124b05760405162461bcd60e51b815260040161090290614f8b565b600260ca556124bf848461374e565b91506124ca336138a8565b600160ca55919491935090915050565b6000805160206151698339815191526124f381336131fb565b60c9546040516337c61fc560e11b81526001600160a01b0390911690636f8c3f8a9061252490600390600401614e0e565b60206040518083038186803b15801561253c57600080fd5b505afa158015612550573d6000803e3d6000fd5b505050506040513d601f19601f820116820180604052508101906125749190614297565b60405163a703b72960e01b81526001600160a01b038d811660048301528c151560248301528b151560448301528a15156064830152891515608483015260a4820189905260c4820188905260e4820187905261010482018690526101248201859052919091169063a703b7299061014401600060405180830381600087803b1580156125ff57600080fd5b505af1158015612613573d6000803e3d6000fd5b505050508a6001600160a01b031663dd62ed3e60c960009054906101000a90046001600160a01b03166001600160a01b0316636f8c3f8a60006040518263ffffffff1660e01b81526004016126689190614e0e565b60206040518083038186803b15801561268057600080fd5b505afa158015612694573d6000803e3d6000fd5b505050506040513d601f19601f820116820180604052508101906126b89190614297565b60c9546040516337c61fc560e11b81526001600160a01b0390911690636f8c3f8a906126e990600290600401614e0e565b60206040518083038186803b15801561270157600080fd5b505afa158015612715573d6000803e3d6000fd5b505050506040513d601f19601f820116820180604052508101906127399190614297565b6040518363ffffffff1660e01b8152600401612756929190614a2a565b60206040518083038186803b15801561276e57600080fd5b505afa158015612782573d6000803e3d6000fd5b505050506040513d601f19601f820116820180604052508101906127a69190614811565b6128405760c9546040516337c61fc560e11b8152612840916001600160a01b031690636f8c3f8a906127dd90600290600401614e0e565b60206040518083038186803b1580156127f557600080fd5b505afa158015612809573d6000803e3d6000fd5b505050506040513d601f19601f8201168201806040525081019061282d9190614297565b6001600160a01b038d16906000196135b5565b60c9546040516337c61fc560e11b81526001600160a01b03808e169263dd62ed3e92911690636f8c3f8a9061287a90600090600401614e0e565b60206040518083038186803b15801561289257600080fd5b505afa1580156128a6573d6000803e3d6000fd5b505050506040513d601f19601f820116820180604052508101906128ca9190614297565b60c9546040516337c61fc560e11b81526001600160a01b0390911690636f8c3f8a906128fb90600190600401614e0e565b60206040518083038186803b15801561291357600080fd5b505afa158015612927573d6000803e3d6000fd5b505050506040513d601f19601f8201168201806040525081019061294b9190614297565b6040518363ffffffff1660e01b8152600401612968929190614a2a565b60206040518083038186803b15801561298057600080fd5b505afa158015612994573d6000803e3d6000fd5b505050506040513d601f19601f820116820180604052508101906129b89190614811565b6129ef5760c9546040516337c61fc560e11b81526129ef916001600160a01b031690636f8c3f8a906127dd90600190600401614e0e565b60c9546040516337c61fc560e11b81526001600160a01b03808e169263dd62ed3e92911690636f8c3f8a90612a2990600090600401614e0e565b60206040518083038186803b158015612a4157600080fd5b505afa158015612a55573d6000803e3d6000fd5b505050506040513d601f19601f82011682018060405250810190612a799190614297565b60c9546040516337c61fc560e11b81526001600160a01b0390911690636f8c3f8a90612aaa90600b90600401614e0e565b60206040518083038186803b158015612ac257600080fd5b505afa158015612ad6573d6000803e3d6000fd5b505050506040513d601f19601f82011682018060405250810190612afa9190614297565b6040518363ffffffff1660e01b8152600401612b17929190614a2a565b60206040518083038186803b158015612b2f57600080fd5b505afa158015612b43573d6000803e3d6000fd5b505050506040513d601f19601f82011682018060405250810190612b679190614811565b612b9e5760c9546040516337c61fc560e11b8152612b9e916001600160a01b031690636f8c3f8a906127dd90600b90600401614e0e565b604080518b151581528a151560208201528915158183015288151560608201526080810188905260a0810187905260c0810186905260e08101859052610100810184905290516001600160a01b038d16917f7bc8b8972b091625aaef49aac424a93abb527b8507448b2935e656c5a4ffcbf691908190036101200190a25050505050505050505050565b600080516020615169833981519152612c4181336131fb565b60c9546040516337c61fc560e11b81526001600160a01b0390911690636f8c3f8a90612c7290600290600401614e0e565b60206040518083038186803b158015612c8a57600080fd5b505afa158015612c9e573d6000803e3d6000fd5b505050506040513d601f19601f82011682018060405250810190612cc29190614297565b6001600160a01b031663b4f0abf0836040518263ffffffff1660e01b8152600401612ced9190614a16565b600060405180830381600087803b158015612d0757600080fd5b505af1158015612d1b573d6000803e3d6000fd5b505050507f29136396b324aa7f7a8d1b8f00da39b8d88642bc714a9747c151b20e3d2af233826040516108909190614a16565b6000818152609760205260408120610760906139f1565b60fe5460009015612d9e5760ff5415612d8d5760ff5460fe54612d88919061509c565b905090565b6101015460fe54612d88919061509c565b50600090565b612dad8261146f565b612db781336131fb565b6114a18383613720565b6000600260ca541415612de65760405162461bcd60e51b815260040161090290614f8b565b600260ca55612df4336138a8565b9050600160ca5590565b600080516020615169833981519152612e1781336131fb565b60c9546040516337c61fc560e11b81526001600160a01b0390911690636f8c3f8a90612e4890600290600401614e0e565b60206040518083038186803b158015612e6057600080fd5b505afa158015612e74573d6000803e3d6000fd5b505050506040513d601f19601f82011682018060405250810190612e989190614297565b6001600160a01b031663de13acfb868686866040518563ffffffff1660e01b8152600401612ec99493929190614fc2565b600060405180830381600087803b158015612ee357600080fd5b505af1158015612ef7573d6000803e3d6000fd5b505050507fe7404d70edeef1a8fd327fdf11833c2321aa82626773fb135a22680f82ba875185858585604051612f309493929190614fc2565b60405180910390a15050505050565b6000600260ca541415612f645760405162461bcd60e51b815260040161090290614f8b565b600260ca55612f73838361374e565b600160ca559392505050565b600260ca541415612fa25760405162461bcd60e51b815260040161090290614f8b565b600260ca5534156130f75760c9546040516337c61fc560e11b81526000916001600160a01b031690636f8c3f8a90612fdf90600390600401614e0e565b60206040518083038186803b158015612ff757600080fd5b505afa15801561300b573d6000803e3d6000fd5b505050506040513d601f19601f8201168201806040525081019061302f9190614297565b6001600160a01b0316638b9c94896040518163ffffffff1660e01b815260040160206040518083038186803b15801561306757600080fd5b505afa15801561307b573d6000803e3d6000fd5b505050506040513d601f19601f8201168201806040525081019061309f9190614297565b9050806001600160a01b031663d0e30db0346040518263ffffffff1660e01b81526004016000604051808303818588803b1580156130dc57600080fd5b505af11580156130f0573d6000803e3d6000fd5b5050505050505b60c9546040516337c61fc560e11b81526001600160a01b0390911690636f8c3f8a9061312890600190600401614e0e565b60206040518083038186803b15801561314057600080fd5b505afa158015613154573d6000803e3d6000fd5b505050506040513d601f19601f820116820180604052508101906131789190614297565b6001600160a01b031663776f5a8d3384843460006040518663ffffffff1660e01b8152600401611c47959493929190614b40565b60006107606000805160206151698339815191528361231f565b60006001600160e01b03198216637965db0b60e01b148061076057506301ffc9a760e01b6001600160e01b0319831614610760565b613205828261231f565b61177b5761321d816001600160a01b031660146139fb565b6132288360206139fb565b6040516020016132399291906149a7565b60408051601f198184030181529082905262461bcd60e51b825261090291600401614e36565b600061326a30613bdc565b15905090565b600054610100900460ff1661328b5760005460ff1615613293565b61329361325f565b6132af5760405162461bcd60e51b815260040161090290614e9a565b600054610100900460ff161580156132d1576000805461ffff19166101011790555b60c980546001600160a01b0319166001600160a01b038416179055801561177b576000805461ff00191690555050565b600054610100900460ff166133285760405162461bcd60e51b815260040161090290614f0d565b613330613beb565b565b600054610100900460ff166133305760405162461bcd60e51b815260040161090290614f0d565b61177b82826136fe565b600061336e8361146f565b600084815260656020526040808220600101859055519192508391839186917fbd79b86ffe0ab8e8776151514217cd7cacd52c909f66475c3af44e129f0b00ff9190a4505050565b60fa4614806133c55750603846145b156134c15760c9546040516337c61fc560e11b81526000916001600160a01b031690636f8c3f8a906133fc90600c90600401614e0e565b60206040518083038186803b15801561341457600080fd5b505afa158015613428573d6000803e3d6000fd5b505050506040513d601f19601f8201168201806040525081019061344c9190614297565b90506134626001600160a01b0383168285613c19565b604051636f074d1f60e11b8152600481018490526001600160a01b0382169063de0e9a3e90602401600060405180830381600087803b1580156134a457600080fd5b505af11580156134b8573d6000803e3d6000fd5b50505050505050565b604051632e1a7d4d60e01b8152600481018390526001600160a01b03821690632e1a7d4d90602401600060405180830381600087803b15801561350357600080fd5b505af1158015610ac8573d6000803e3d6000fd5b6000816001600160a01b03168360405160006040518083038185875af1925050503d8060008114613564576040519150601f19603f3d011682016040523d82523d6000602084013e613569565b606091505b50509050806114a15760405162461bcd60e51b81526020600482015260186024820152774661696c656420746f207472616e736665722076616c756560401b6044820152606401610902565b80158061363d5750604051636eb1769f60e11b81526001600160a01b0384169063dd62ed3e906135eb9030908690600401614a2a565b60206040518083038186803b15801561360357600080fd5b505afa158015613617573d6000803e3d6000fd5b505050506040513d601f19601f8201168201806040525081019061363b9190614811565b155b6136a85760405162461bcd60e51b815260206004820152603660248201527f5361666545524332303a20617070726f76652066726f6d206e6f6e2d7a65726f60448201527520746f206e6f6e2d7a65726f20616c6c6f77616e636560501b6064820152608401610902565b6114a18363095ea7b360e01b84846040516024016136c7929190614be2565b60408051601f198184030181529190526020810180516001600160e01b03166001600160e01b031990931692909217909152613c38565b6137088282613d0a565b60008281526097602052604090206114a19082613d90565b61372a8282613da5565b60008281526097602052604090206114a19082613e0c565b60006123188383613e21565b60c9546040516337c61fc560e11b81526000916001600160a01b031690636f8c3f8a9061378090600190600401614e0e565b60206040518083038186803b15801561379857600080fd5b505afa1580156137ac573d6000803e3d6000fd5b505050506040513d601f19601f820116820180604052508101906137d09190614297565b6001600160a01b031663c3b2a7f43385856040518463ffffffff1660e01b81526004016137ff93929190614b90565b602060405180830381600087803b15801561381957600080fd5b505af115801561382d573d6000803e3d6000fd5b505050506040513d601f19601f820116820180604052508101906138519190614811565b905061385d8133613517565b336001600160a01b03167f52641a01fee1d4b51c574b806315d8012d15a005587807a7f0a84e42393b092284848460405161389a93929190614dbb565b60405180910390a292915050565b60c9546040516337c61fc560e11b81526000916001600160a01b031690636f8c3f8a906138da90600d90600401614e0e565b60206040518083038186803b1580156138f257600080fd5b505afa158015613906573d6000803e3d6000fd5b505050506040513d601f19601f8201168201806040525081019061392a9190614297565b6001600160a01b031663699bdca9836040518263ffffffff1660e01b81526004016139559190614a16565b602060405180830381600087803b15801561396f57600080fd5b505af1158015613983573d6000803e3d6000fd5b505050506040513d601f19601f820116820180604052508101906139a79190614811565b9050816001600160a01b03167fbb219a4ef7ab353b9ff2f337e191975fba0952436ef67efea1aecca5f6f766d6826040516139e491815260200190565b60405180910390a2919050565b6000610760825490565b60606000613a0a83600261507d565b613a15906002615065565b6001600160401b03811115613a3a57634e487b7160e01b600052604160045260246000fd5b6040519080825280601f01601f191660200182016040528015613a64576020820181803683370190505b509050600360fc1b81600081518110613a8d57634e487b7160e01b600052603260045260246000fd5b60200101906001600160f81b031916908160001a905350600f60fb1b81600181518110613aca57634e487b7160e01b600052603260045260246000fd5b60200101906001600160f81b031916908160001a9053506000613aee84600261507d565b613af9906001615065565b90505b6001811115613b8d576f181899199a1a9b1b9c1cb0b131b232b360811b85600f1660108110613b3b57634e487b7160e01b600052603260045260246000fd5b1a60f81b828281518110613b5f57634e487b7160e01b600052603260045260246000fd5b60200101906001600160f81b031916908160001a90535060049490941c93613b86816150df565b9050613afc565b5083156123185760405162461bcd60e51b815260206004820181905260248201527f537472696e67733a20686578206c656e67746820696e73756666696369656e746044820152606401610902565b6001600160a01b03163b151590565b600054610100900460ff16613c125760405162461bcd60e51b815260040161090290614f0d565b600160ca55565b6114a18363a9059cbb60e01b84846040516024016136c7929190614be2565b6000613c8d826040518060400160405280602081526020017f5361666545524332303a206c6f772d6c6576656c2063616c6c206661696c6564815250856001600160a01b0316613e599092919063ffffffff16565b8051909150156114a15780806020019051810190613cab9190614687565b6114a15760405162461bcd60e51b815260206004820152602a60248201527f5361666545524332303a204552433230206f7065726174696f6e20646964206e6044820152691bdd081cdd58d8d9595960b21b6064820152608401610902565b613d14828261231f565b61177b5760008281526065602090815260408083206001600160a01b03851684529091529020805460ff19166001179055613d4c3390565b6001600160a01b0316816001600160a01b0316837f2f8788117e7eff1d82e926ec794901d17c78024a50270940304540a733656f0d60405160405180910390a45050565b6000612318836001600160a01b038416613e70565b613daf828261231f565b1561177b5760008281526065602090815260408083206001600160a01b0385168085529252808320805460ff1916905551339285917ff6391f5c32d9c69d2a47ea670b442974b53935d1edc7fd64eb21e047a839171b9190a45050565b6000612318836001600160a01b038416613ebf565b6000826000018281548110613e4657634e487b7160e01b600052603260045260246000fd5b9060005260206000200154905092915050565b6060613e688484600085613fdc565b949350505050565b6000818152600183016020526040812054613eb757508154600181810184556000848152602080822090930184905584548482528286019093526040902091909155610760565b506000610760565b60008181526001830160205260408120548015613fd2576000613ee360018361509c565b8554909150600090613ef79060019061509c565b9050818114613f78576000866000018281548110613f2557634e487b7160e01b600052603260045260246000fd5b9060005260206000200154905080876000018481548110613f5657634e487b7160e01b600052603260045260246000fd5b6000918252602080832090910192909255918252600188019052604090208390555b8554869080613f9757634e487b7160e01b600052603160045260246000fd5b600190038181906000526020600020016000905590558560010160008681526020019081526020016000206000905560019350505050610760565b6000915050610760565b60608247101561403d5760405162461bcd60e51b815260206004820152602660248201527f416464726573733a20696e73756666696369656e742062616c616e636520666f6044820152651c8818d85b1b60d21b6064820152608401610902565b61404685613bdc565b6140925760405162461bcd60e51b815260206004820152601d60248201527f416464726573733a2063616c6c20746f206e6f6e2d636f6e74726163740000006044820152606401610902565b600080866001600160a01b031685876040516140ae919061498b565b60006040518083038185875af1925050503d80600081146140eb576040519150601f19603f3d011682016040523d82523d6000602084013e6140f0565b606091505b509150915061410082828661410b565b979650505050505050565b6060831561411a575081612318565b82511561412a5782518084602001fd5b8160405162461bcd60e51b81526004016109029190614e36565b60008083601f840112614155578182fd5b5081356001600160401b0381111561416b578182fd5b6020830191508360208260051b850101111561418657600080fd5b9250929050565b600082601f83011261419d578081fd5b813560206141b26141ad83615042565b615012565b80838252828201915082860187848660051b89010111156141d1578586fd5b855b858110156141f85781356141e681615122565b845292840192908401906001016141d3565b5090979650505050505050565b600082601f830112614215578081fd5b813560206142256141ad83615042565b80838252828201915082860187848660051b8901011115614244578586fd5b855b858110156141f857813584529284019290840190600101614246565b803563ffffffff8116811461427657600080fd5b919050565b60006020828403121561428c578081fd5b813561231881615122565b6000602082840312156142a8578081fd5b815161231881615122565b600080600080600060a086880312156142ca578081fd5b85356142d581615122565b945060208601356142e581615122565b935060408601356142f581615122565b9250606086013561430581615122565b9150608086013561431581615122565b809150509295509295909350565b6000806000806000806000806000806101408b8d031215614342578788fd5b8a3561434d81615122565b995060208b013561435d8161513a565b985060408b013561436d8161513a565b975060608b013561437d8161513a565b965060808b013561438d8161513a565b999c989b50969995989760a0870135975060c08701359660e08101359650610100810135955061012001359350915050565b600080604083850312156143d1578182fd5b82356143dc81615122565b91506020838101356001600160401b03808211156143f8578384fd5b818601915086601f83011261440b578384fd5b81358181111561441d5761441d61510c565b61442f601f8201601f19168501615012565b91508082528784828501011115614444578485fd5b8084840185840137810190920192909252919491935090915050565b600080600080600060608688031215614477578283fd5b85356001600160401b038082111561448d578485fd5b61449989838a01614144565b909750955060208801359150808211156144b1578485fd5b506144be88828901614144565b90945092505060408601356143158161513a565b6000602082840312156144e3578081fd5b81356001600160401b038111156144f8578182fd5b613e688482850161418d565b60008060408385031215614516578182fd5b82356001600160401b038082111561452c578384fd5b6145388683870161418d565b9350602085013591508082111561454d578283fd5b5061455a85828601614205565b9150509250929050565b600080600060608486031215614578578081fd5b83356001600160401b038082111561458e578283fd5b61459a8783880161418d565b945060208601359150808211156145af578283fd5b506145bc86828701614205565b92505060408401356145cd8161513a565b809150509250925092565b600080602083850312156145ea578182fd5b82356001600160401b038111156145ff578283fd5b61460b85828601614144565b90969095509350505050565b60008060008060006060868803121561462e578283fd5b85356001600160401b0380821115614644578485fd5b61465089838a01614144565b90975095506020880135915080821115614668578485fd5b5061467588828901614144565b96999598509660400135949350505050565b600060208284031215614698578081fd5b81516123188161513a565b6000602082840312156146b4578081fd5b5035919050565b600080604083850312156146cd578182fd5b8235915060208301356146df81615122565b809150509250929050565b600080604083850312156146fc578182fd5b50508035926020909101359150565b60006020828403121561471c578081fd5b81356001600160e01b031981168114612318578182fd5b60006020808385031215614745578182fd5b82516001600160401b038082111561475b578384fd5b908401906080828703121561476e578384fd5b614776614fea565b825182811115614784578586fd5b83019150601f82018713614796578485fd5b81516147a46141ad82615042565b8082825286820191508685018a888560051b88010111156147c3578889fd5b8895505b838610156147e55780518352600195909501949187019187016147c7565b508352505082840151938101939093525060408082015190830152606090810151908201529392505050565b600060208284031215614822578081fd5b5051919050565b6000806000806080858703121561483e578182fd5b61484785614262565b935061485560208601614262565b925061486360408601614262565b915061487160608601614262565b905092959194509250565b81835260006020808501945082825b858110156148b957813561489e81615122565b6001600160a01b03168752958201959082019060010161488b565b509495945050505050565b6000815180845260208085019450808401835b838110156148b95781516001600160a01b0316875295820195908201906001016148d7565b81835260006001600160fb1b03831115614914578081fd5b8260051b80836020870137939093016020019283525090919050565b6000815180845260208085019450808401835b838110156148b957815187529582019590820190600101614943565b600081518084526149778160208601602086016150b3565b601f01601f19169290920160200192915050565b6000825161499d8184602087016150b3565b9190910192915050565b76020b1b1b2b9b9a1b7b73a3937b61d1030b1b1b7bab73a1604d1b8152600083516149d98160178501602088016150b3565b7001034b99036b4b9b9b4b733903937b6329607d1b6017918401918201528351614a0a8160288401602088016150b3565b01602801949350505050565b6001600160a01b0391909116815260200190565b6001600160a01b0392831681529116602082015260400190565b6001600160a01b0387168152608060208201819052600090614a69908301878961487c565b8281036040840152614a7c8186886148fc565b9150508215156060830152979650505050505050565b6001600160a01b0383168152604060208201819052600090613e68908301846148c4565b6001600160a01b0384168152606060208201819052600090614ada908301856148c4565b8281036040840152614aec8185614930565b9695505050505050565b6001600160a01b0385168152608060208201819052600090614b1a908301866148c4565b8281036040840152614b2c8186614930565b915050821515606083015295945050505050565b6001600160a01b038616815260a060208201819052600090614b64908301876148c4565b8281036040840152614b768187614930565b606084019590955250509015156080909101529392505050565b6001600160a01b0384168152604060208201819052600090614bb590830184866148fc565b95945050505050565b6001600160a01b0383168152604060208201819052600090613e689083018461495f565b6001600160a01b03929092168252602082015260400190565b60e081526000614c0f60e083018b8d61487c565b8281036020840152614c22818a8c6148fc565b905087151560408401528281036060840152614c3e8188614930565b6080840196909652505060a081019290925260c0909101529695505050505050565b606081526000614c7360608301866148c4565b8281036020840152614c858186614930565b915050826040830152949350505050565b60208082528181018390526000906040808401600586811b8601830188865b89811015614d7257888303603f190185528135368c9003605e19018112614cda578889fd5b8b0160608135614ce981615122565b6001600160a01b031685528189013536839003601e19018112614d0a578a8bfd5b820180356001600160401b03811115614d21578b8cfd5b80881b3603841315614d31578b8cfd5b828b880152614d45838801828d850161487c565b92505050614d54888301614262565b63ffffffff1694880194909452509386019390860190600101614cb5565b50909998505050505050505050565b606081526000614d956060830187896148fc565b8281036020840152614da88186886148fc565b9150508260408301529695505050505050565b604081526000614dcf6040830185876148fc565b9050826020830152949350505050565b608081526000614df26080830187614930565b6020830195909552506040810192909252606090910152919050565b60208101600e8310614e3057634e487b7160e01b600052602160045260246000fd5b91905290565b602081526000612318602083018461495f565b60208082526031908201527f43616c6c6572206973206e6f742077686974656c69737465642061732061206c60408201527034b8bab4b234ba3c90383937bb34b232b960791b606082015260800190565b6020808252602e908201527f496e697469616c697a61626c653a20636f6e747261637420697320616c72656160408201526d191e481a5b9a5d1a585b1a5e995960921b606082015260800190565b6020808252600b908201526a626164206164647265737360a81b604082015260600190565b6020808252602b908201527f496e697469616c697a61626c653a20636f6e7472616374206973206e6f74206960408201526a6e697469616c697a696e6760a81b606082015260800190565b60208082526019908201527810d85b1b195c881a5cc81b9bdd0819d85cc81858d8dbdd5b9d603a1b604082015260600190565b6020808252601f908201527f5265656e7472616e637947756172643a207265656e7472616e742063616c6c00604082015260600190565b63ffffffff948516815292841660208401529083166040830152909116606082015260800190565b604051608081016001600160401b038111828210171561500c5761500c61510c565b60405290565b604051601f8201601f191681016001600160401b038111828210171561503a5761503a61510c565b604052919050565b60006001600160401b0382111561505b5761505b61510c565b5060051b60200190565b60008219821115615078576150786150f6565b500190565b6000816000190483118215151615615097576150976150f6565b500290565b6000828210156150ae576150ae6150f6565b500390565b60005b838110156150ce5781810151838201526020016150b6565b838111156114695750506000910152565b6000816150ee576150ee6150f6565b506000190190565b634e487b7160e01b600052601160045260246000fd5b634e487b7160e01b600052604160045260246000fd5b6001600160a01b038116811461513757600080fd5b50565b801515811461513757600080fdfe6d53deaa1363a9a09a38da6f41ec59fc13a00b08c43141d19c181ddb970e9d2a45a03fb503c1bf173e1a78fdc6b62e74bfc9c0cac4b0db3c4a667287a0fb7b9d72fed0a30cb639f27f755e6f7c6edf975db0859d96eb67b27d2695c6486b1be0a2646970667358221220dc3356bf1347fc89f22e6344e7286afe99408f02600f3bdfecda86f59cdbde0d64736f6c63430008040033",
  "devdoc": {
    "kind": "dev",
    "methods": {
      "addIntegration(address,string)": {
        "params": {
          "contractAddress": "The address of the integration contract",
          "name": "The name of the protocol being integrated to"
        }
      },
      "addToken(address,bool,bool,bool,bool,uint256,uint256,uint256,uint256,uint256)": {
        "params": {
          "acceptingDeposits": "Whether token deposits are enabled",
          "acceptingWithdrawals": "Whether token withdrawals are enabled",
          "biosRewardWeight": "Token weight for BIOS rewards",
          "reserveRatioNumerator": "Number that gets divided by reserve ratio denominator to get reserve ratio",
          "tokenAddress": "The address of the ERC20 token contract"
        }
      },
      "biosBuyBack(uint256)": {
        "params": {
          "ratioX1000": "BIOS/WETH ratio for front runner protection"
        }
      },
      "claimAllRewards(uint256[])": {
        "params": {
          "strategies": "Array of strategy IDs to claim eth rewards from"
        },
        "returns": {
          "biosClaimed": "The amount of BIOS claimed by the user",
          "ethClaimed": "The amount of ETH claimed by the user"
        }
      },
      "claimBiosRewards()": {
        "returns": {
          "biosClaimed": "The amount of BIOS claimed by the user"
        }
      },
      "claimEthRewards(uint256[])": {
        "params": {
          "strategies": "Array of strategy IDs to claim rewards from. 0 for BIOS PFA!"
        },
        "returns": {
          "ethClaimed": "The amount of ETH claimed by the user"
        }
      },
      "claimLpFees(address[])": {
        "params": {
          "tokens": "Array of token the token addresses"
        }
      },
      "deposit(address[],uint256[])": {
        "params": {
          "amounts": "Array of token amounts",
          "tokens": "Array of token the token addresses"
        }
      },
      "getEthRewardsTimePeriod()": {
        "returns": {
          "ethRewardsTimePeriod": "The number of seconds between the last two ETH payouts"
        }
      },
      "getLastBiosBuyBackTimestamp()": {
        "returns": {
          "_0": "The timestamp the biosBuyBack function was last called"
        }
      },
      "getLastDeployTimestamp()": {
        "returns": {
          "_0": "The timestamp the deploy function was last called"
        }
      },
      "getLastDistributeEthTimestamp()": {
        "returns": {
          "_0": "The timestamp the distributeEth function was last called"
        }
      },
      "getRoleAdmin(bytes32)": {
        "details": "Returns the admin role that controls `role`. See {grantRole} and {revokeRole}. To change a role's admin, use {_setRoleAdmin}."
      },
      "getRoleMember(bytes32,uint256)": {
        "details": "Returns one of the accounts that have `role`. `index` must be a value between 0 and {getRoleMemberCount}, non-inclusive. Role bearers are not sorted in any particular way, and their ordering may change at any point. WARNING: When using {getRoleMember} and {getRoleMemberCount}, make sure you perform all queries on the same block. See the following https://forum.openzeppelin.com/t/iterating-over-elements-on-enumerableset-in-openzeppelin-contracts/2296[forum post] for more information."
      },
      "getRoleMemberCount(bytes32)": {
        "details": "Returns the number of accounts that have `role`. Can be used together with {getRoleMember} to enumerate all bearers of a role."
      },
      "grantRole(bytes32,address)": {
        "details": "Grants `role` to `account`. If `account` had not been already granted `role`, emits a {RoleGranted} event. Requirements: - the caller must have ``role``'s admin role."
      },
      "hasRole(bytes32,address)": {
        "details": "Returns `true` if `account` has been granted `role`."
      },
      "initialize(address,address,address,address,address)": {
        "params": {
          "admin_": "default administrator, a cold storage address",
          "moduleMap_": "Module Map address",
          "owner_": "single owner account, used to manage the managers"
        }
      },
      "isLiquidityProvider(address)": {
        "params": {
          "account": "The address of the account to check if they are a liquidity provider"
        },
        "returns": {
          "_0": "Bool indicating whether the account is a liquidity provider"
        }
      },
      "isManager(address)": {
        "params": {
          "account": "The address of the account to check if they are a manager"
        },
        "returns": {
          "_0": "Bool indicating whether the account is a manger"
        }
      },
      "isOwner(address)": {
        "params": {
          "account": "The address of the account to check if they are an owner"
        },
        "returns": {
          "_0": "Bool indicating whether the account is an owner"
        }
      },
      "provideLiquidity(address[],uint256[])": {
        "params": {
          "amounts": "Array of token amounts",
          "tokens": "Array of token the token addresses"
        }
      },
      "renounceRole(bytes32,address)": {
        "details": "Revokes `role` from the calling account. Roles are often managed via {grantRole} and {revokeRole}: this function's purpose is to provide a mechanism for accounts to lose their privileges if they are compromised (such as when a trusted device is misplaced). If the calling account had been revoked `role`, emits a {RoleRevoked} event. Requirements: - the caller must be `account`."
      },
      "revokeRole(bytes32,address)": {
        "details": "Revokes `role` from `account`. If `account` had been granted `role`, emits a {RoleRevoked} event. Requirements: - the caller must have ``role``'s admin role."
      },
      "supportsInterface(bytes4)": {
        "details": "See {IERC165-supportsInterface}."
      },
      "takeLiquidity(address[],uint256[])": {
        "params": {
          "amounts": "Array of token amounts",
          "tokens": "Array of token the token addresses"
        }
      },
      "updateEthDistributionWeights(uint32,uint32,uint32,uint32)": {
        "params": {
          "biosBuyBackEthWeight": "The relative weight of ETH to send to BIOS buy back",
          "protocolFeeEthWeight": "The relative weight of ETH to send to protocol fee accrual",
          "rewardsEthWeight": "The relative weight of ETH to send to user rewards",
          "treasuryEthWeight": "The relative weight of ETH to send to the treasury"
        }
      },
      "updateGasAccount(address)": {
        "params": {
          "gasAccount": "The address of the account to send ETH to gas for executing bulk system functions"
        }
      },
      "updateGasAccountTargetEthBalance(uint256)": {
        "params": {
          "gasAccountTargetEthBalance": "The target ETH balance of the gas account"
        }
      },
      "updateTreasuryAccount(address)": {
        "params": {
          "treasuryAccount": "The address of the system treasury account"
        }
      },
      "withdraw(address[],uint256[],bool)": {
        "params": {
          "amounts": "Array of token amounts",
          "tokens": "Array of token the token addresses",
          "withdrawWethAsEth": "Boolean indicating whether should receive WETH balance as ETH"
        }
      },
      "withdrawAllAndClaim(address[],uint256[],bool)": {
        "params": {
          "strategies": "Array of strategyIDs that user is claiming rewards from",
          "tokens": "Array of token address that user is exiting positions from",
          "withdrawWethAsEth": "Boolean indicating whether should receive WETH balance as ETH"
        },
        "returns": {
          "biosClaimed": "The amount of BIOS being claimed from rewards",
          "ethClaimed": "The amount of ETH being claimed from rewards",
          "ethWithdrawn": "The amount of WETH balance being withdrawn as ETH",
          "tokenAmounts": "The amounts of each token being withdrawn"
        }
      }
    },
    "title": "Kernel",
    "version": 1
  },
  "userdoc": {
    "kind": "user",
    "methods": {
      "addIntegration(address,string)": {
        "notice": "This function is used after tokens have been added, and a weight array should be included"
      },
      "biosBuyBack(uint256)": {
        "notice": "Uses any WETH held in the SushiSwap integration to buy back BIOS which is sent to the Kernel"
      },
      "claimAllRewards(uint256[])": {
        "notice": "Allows user to claim their ETH and BIOS rewards"
      },
      "claimBiosRewards()": {
        "notice": "Allows user to claim their BIOS rewards"
      },
      "claimEthRewards(uint256[])": {
        "notice": "Allows user to claim their ETH rewards"
      },
      "deploy((address,address[],uint32)[])": {
        "notice": "Deploys all tokens to all integrations according to configured weights"
      },
      "deposit(address[],uint256[])": {
        "notice": "User is allowed to deposit whitelisted tokens"
      },
      "distributeEth(uint256[],uint256[],uint256)": {
        "notice": "Distributes WETH to the gas account, BIOS buy back, treasury, protocol fee accrual, and user rewards"
      },
      "initialize(address,address,address,address,address)": {
        "notice": "Initializes contract - used as a replacement for a constructor"
      },
      "provideLiquidity(address[],uint256[])": {
        "notice": "User is allowed to LP whitelisted tokens"
      },
      "tokenApprovals()": {
        "notice": "Gives the UserPositions contract approval to transfer BIOS from Kernel"
      },
      "withdraw(address[],uint256[],bool)": {
        "notice": "User is allowed to withdraw tokens"
      },
      "withdrawAllAndClaim(address[],uint256[],bool)": {
        "notice": "Allows a user to withdraw entire undeployed balances of the specified tokens and claim rewards"
      }
    },
    "notice": "Allows users to deposit/withdraw erc20 tokensAllows a system admin to control which tokens are depositable",
    "version": 1
  },
  "storageLayout": {
    "storage": [
      {
        "astId": 702,
        "contract": "contracts/core/Kernel.sol:Kernel",
        "label": "_initialized",
        "offset": 0,
        "slot": "0",
        "type": "t_bool"
      },
      {
        "astId": 705,
        "contract": "contracts/core/Kernel.sol:Kernel",
        "label": "_initializing",
        "offset": 1,
        "slot": "0",
        "type": "t_bool"
      },
      {
        "astId": 2052,
        "contract": "contracts/core/Kernel.sol:Kernel",
        "label": "__gap",
        "offset": 0,
        "slot": "1",
        "type": "t_array(t_uint256)50_storage"
      },
      {
        "astId": 2299,
        "contract": "contracts/core/Kernel.sol:Kernel",
        "label": "__gap",
        "offset": 0,
        "slot": "51",
        "type": "t_array(t_uint256)50_storage"
      },
      {
        "astId": 184,
        "contract": "contracts/core/Kernel.sol:Kernel",
        "label": "_roles",
        "offset": 0,
        "slot": "101",
        "type": "t_mapping(t_bytes32,t_struct(RoleData)179_storage)"
      },
      {
        "astId": 472,
        "contract": "contracts/core/Kernel.sol:Kernel",
        "label": "__gap",
        "offset": 0,
        "slot": "102",
        "type": "t_array(t_uint256)49_storage"
      },
      {
        "astId": 33,
        "contract": "contracts/core/Kernel.sol:Kernel",
        "label": "_roleMembers",
        "offset": 0,
        "slot": "151",
        "type": "t_mapping(t_bytes32,t_struct(AddressSet)2712_storage)"
      },
      {
        "astId": 143,
        "contract": "contracts/core/Kernel.sol:Kernel",
        "label": "__gap",
        "offset": 0,
        "slot": "152",
        "type": "t_array(t_uint256)49_storage"
      },
      {
        "astId": 11341,
        "contract": "contracts/core/Kernel.sol:Kernel",
        "label": "moduleMap",
        "offset": 0,
        "slot": "201",
        "type": "t_contract(IModuleMap)22677"
      },
      {
        "astId": 783,
        "contract": "contracts/core/Kernel.sol:Kernel",
        "label": "_status",
        "offset": 0,
        "slot": "202",
        "type": "t_uint256"
      },
      {
        "astId": 827,
        "contract": "contracts/core/Kernel.sol:Kernel",
        "label": "__gap",
        "offset": 0,
        "slot": "203",
        "type": "t_array(t_uint256)49_storage"
      },
      {
        "astId": 9894,
        "contract": "contracts/core/Kernel.sol:Kernel",
        "label": "lastDeployTimestamp",
        "offset": 0,
        "slot": "252",
        "type": "t_uint256"
      },
      {
        "astId": 9896,
        "contract": "contracts/core/Kernel.sol:Kernel",
        "label": "lastHarvestYieldTimestamp",
        "offset": 0,
        "slot": "253",
        "type": "t_uint256"
      },
      {
        "astId": 9898,
        "contract": "contracts/core/Kernel.sol:Kernel",
        "label": "lastDistributeEthTimestamp",
        "offset": 0,
        "slot": "254",
        "type": "t_uint256"
      },
      {
        "astId": 9900,
        "contract": "contracts/core/Kernel.sol:Kernel",
        "label": "lastLastDistributeEthTimestamp",
        "offset": 0,
        "slot": "255",
        "type": "t_uint256"
      },
      {
        "astId": 9902,
        "contract": "contracts/core/Kernel.sol:Kernel",
        "label": "lastBiosBuyBackTimestamp",
        "offset": 0,
        "slot": "256",
        "type": "t_uint256"
      },
      {
        "astId": 9904,
        "contract": "contracts/core/Kernel.sol:Kernel",
        "label": "initializationTimestamp",
        "offset": 0,
        "slot": "257",
        "type": "t_uint256"
      },
      {
        "astId": 9906,
        "contract": "contracts/core/Kernel.sol:Kernel",
        "label": "lpWhitelistEnabled",
        "offset": 0,
        "slot": "258",
        "type": "t_bool"
      }
    ],
    "types": {
      "t_address": {
        "encoding": "inplace",
        "label": "address",
        "numberOfBytes": "20"
      },
      "t_array(t_bytes32)dyn_storage": {
        "base": "t_bytes32",
        "encoding": "dynamic_array",
        "label": "bytes32[]",
        "numberOfBytes": "32"
      },
      "t_array(t_uint256)49_storage": {
        "base": "t_uint256",
        "encoding": "inplace",
        "label": "uint256[49]",
        "numberOfBytes": "1568"
      },
      "t_array(t_uint256)50_storage": {
        "base": "t_uint256",
        "encoding": "inplace",
        "label": "uint256[50]",
        "numberOfBytes": "1600"
      },
      "t_bool": {
        "encoding": "inplace",
        "label": "bool",
        "numberOfBytes": "1"
      },
      "t_bytes32": {
        "encoding": "inplace",
        "label": "bytes32",
        "numberOfBytes": "32"
      },
      "t_contract(IModuleMap)22677": {
        "encoding": "inplace",
        "label": "contract IModuleMap",
        "numberOfBytes": "20"
      },
      "t_mapping(t_address,t_bool)": {
        "encoding": "mapping",
        "key": "t_address",
        "label": "mapping(address => bool)",
        "numberOfBytes": "32",
        "value": "t_bool"
      },
      "t_mapping(t_bytes32,t_struct(AddressSet)2712_storage)": {
        "encoding": "mapping",
        "key": "t_bytes32",
        "label": "mapping(bytes32 => struct EnumerableSetUpgradeable.AddressSet)",
        "numberOfBytes": "32",
        "value": "t_struct(AddressSet)2712_storage"
      },
      "t_mapping(t_bytes32,t_struct(RoleData)179_storage)": {
        "encoding": "mapping",
        "key": "t_bytes32",
        "label": "mapping(bytes32 => struct AccessControlUpgradeable.RoleData)",
        "numberOfBytes": "32",
        "value": "t_struct(RoleData)179_storage"
      },
      "t_mapping(t_bytes32,t_uint256)": {
        "encoding": "mapping",
        "key": "t_bytes32",
        "label": "mapping(bytes32 => uint256)",
        "numberOfBytes": "32",
        "value": "t_uint256"
      },
      "t_struct(AddressSet)2712_storage": {
        "encoding": "inplace",
        "label": "struct EnumerableSetUpgradeable.AddressSet",
        "members": [
          {
            "astId": 2711,
            "contract": "contracts/core/Kernel.sol:Kernel",
            "label": "_inner",
            "offset": 0,
            "slot": "0",
            "type": "t_struct(Set)2411_storage"
          }
        ],
        "numberOfBytes": "64"
      },
      "t_struct(RoleData)179_storage": {
        "encoding": "inplace",
        "label": "struct AccessControlUpgradeable.RoleData",
        "members": [
          {
            "astId": 176,
            "contract": "contracts/core/Kernel.sol:Kernel",
            "label": "members",
            "offset": 0,
            "slot": "0",
            "type": "t_mapping(t_address,t_bool)"
          },
          {
            "astId": 178,
            "contract": "contracts/core/Kernel.sol:Kernel",
            "label": "adminRole",
            "offset": 0,
            "slot": "1",
            "type": "t_bytes32"
          }
        ],
        "numberOfBytes": "64"
      },
      "t_struct(Set)2411_storage": {
        "encoding": "inplace",
        "label": "struct EnumerableSetUpgradeable.Set",
        "members": [
          {
            "astId": 2406,
            "contract": "contracts/core/Kernel.sol:Kernel",
            "label": "_values",
            "offset": 0,
            "slot": "0",
            "type": "t_array(t_bytes32)dyn_storage"
          },
          {
            "astId": 2410,
            "contract": "contracts/core/Kernel.sol:Kernel",
            "label": "_indexes",
            "offset": 0,
            "slot": "1",
            "type": "t_mapping(t_bytes32,t_uint256)"
          }
        ],
        "numberOfBytes": "64"
      },
      "t_uint256": {
        "encoding": "inplace",
        "label": "uint256",
        "numberOfBytes": "32"
      }
    }
  }
}