{
  "address": "0x5B8b052056Ef48D128436673b4c0005087F06d90",
  "abi": [
    {
      "anonymous": false,
      "inputs": [
        {
          "indexed": false,
          "internalType": "uint256",
          "name": "strategyId",
          "type": "uint256"
        },
        {
          "components": [
            {
              "internalType": "address",
              "name": "integration",
              "type": "address"
            },
            {
              "internalType": "uint32",
              "name": "ammPoolID",
              "type": "uint32"
            }
          ],
          "indexed": false,
          "internalType": "struct IStrategyMap.Integration",
          "name": "integration",
          "type": "tuple"
        },
        {
          "indexed": false,
          "internalType": "address",
          "name": "token",
          "type": "address"
        }
      ],
      "name": "AddIntegration",
      "type": "event"
    },
    {
      "anonymous": false,
      "inputs": [
        {
          "indexed": true,
          "internalType": "uint256",
          "name": "id",
          "type": "uint256"
        }
      ],
      "name": "DeleteStrategy",
      "type": "event"
    },
    {
      "anonymous": false,
      "inputs": [
        {
          "indexed": false,
          "internalType": "uint256",
          "name": "strategyId",
          "type": "uint256"
        },
        {
          "indexed": false,
          "internalType": "uint256",
          "name": "sourceIndex",
          "type": "uint256"
        },
        {
          "indexed": false,
          "internalType": "uint256",
          "name": "destinationIndex",
          "type": "uint256"
        },
        {
          "indexed": false,
          "internalType": "uint32",
          "name": "amount",
          "type": "uint32"
        },
        {
          "indexed": false,
          "internalType": "bool",
          "name": "rebalance",
          "type": "bool"
        }
      ],
      "name": "IntegrationWeightAdjustment",
      "type": "event"
    },
    {
      "anonymous": false,
      "inputs": [
        {
          "indexed": true,
          "internalType": "uint256",
          "name": "id",
          "type": "uint256"
        },
        {
          "components": [
            {
              "internalType": "address",
              "name": "integration",
              "type": "address"
            },
            {
              "internalType": "uint32",
              "name": "ammPoolID",
              "type": "uint32"
            }
          ],
          "indexed": false,
          "internalType": "struct IStrategyMap.Integration[]",
          "name": "integrations",
          "type": "tuple[]"
        },
        {
          "components": [
            {
              "internalType": "uint256",
              "name": "integrationPairIdx",
              "type": "uint256"
            },
            {
              "internalType": "address",
              "name": "token",
              "type": "address"
            },
            {
              "internalType": "uint32",
              "name": "weight",
              "type": "uint32"
            }
          ],
          "indexed": false,
          "internalType": "struct IStrategyMap.Token[]",
          "name": "tokens",
          "type": "tuple[]"
        },
        {
          "indexed": false,
          "internalType": "string",
          "name": "name",
          "type": "string"
        }
      ],
      "name": "NewStrategy",
      "type": "event"
    },
    {
      "anonymous": false,
      "inputs": [
        {
          "indexed": false,
          "internalType": "uint256",
          "name": "strategyId",
          "type": "uint256"
        },
        {
          "indexed": false,
          "internalType": "uint256",
          "name": "integrationIndex",
          "type": "uint256"
        },
        {
          "indexed": false,
          "internalType": "address",
          "name": "token",
          "type": "address"
        }
      ],
      "name": "RemoveIntegration",
      "type": "event"
    },
    {
      "anonymous": false,
      "inputs": [
        {
          "indexed": true,
          "internalType": "uint256",
          "name": "id",
          "type": "uint256"
        },
        {
          "indexed": false,
          "internalType": "string",
          "name": "name",
          "type": "string"
        }
      ],
      "name": "UpdateName",
      "type": "event"
    },
    {
      "inputs": [],
      "name": "TOKEN_WEIGHT",
      "outputs": [
        {
          "internalType": "uint32",
          "name": "",
          "type": "uint32"
        }
      ],
      "stateMutability": "view",
      "type": "function"
    },
    {
      "inputs": [
        {
          "internalType": "address",
          "name": "controller",
          "type": "address"
        }
      ],
      "name": "addController",
      "outputs": [],
      "stateMutability": "nonpayable",
      "type": "function"
    },
    {
      "inputs": [
        {
          "internalType": "uint256",
          "name": "strategyId",
          "type": "uint256"
        },
        {
          "components": [
            {
              "internalType": "address",
              "name": "integration",
              "type": "address"
            },
            {
              "internalType": "uint32",
              "name": "ammPoolID",
              "type": "uint32"
            }
          ],
          "internalType": "struct IStrategyMap.Integration",
          "name": "integration",
          "type": "tuple"
        },
        {
          "internalType": "address",
          "name": "token",
          "type": "address"
        }
      ],
      "name": "addPairToStrategy",
      "outputs": [],
      "stateMutability": "nonpayable",
      "type": "function"
    },
    {
      "inputs": [
        {
          "internalType": "string",
          "name": "name",
          "type": "string"
        },
        {
          "components": [
            {
              "internalType": "address",
              "name": "integration",
              "type": "address"
            },
            {
              "internalType": "uint32",
              "name": "ammPoolID",
              "type": "uint32"
            }
          ],
          "internalType": "struct IStrategyMap.Integration[]",
          "name": "integrations",
          "type": "tuple[]"
        },
        {
          "components": [
            {
              "internalType": "uint256",
              "name": "integrationPairIdx",
              "type": "uint256"
            },
            {
              "internalType": "address",
              "name": "token",
              "type": "address"
            },
            {
              "internalType": "uint32",
              "name": "weight",
              "type": "uint32"
            }
          ],
          "internalType": "struct IStrategyMap.Token[]",
          "name": "tokens",
          "type": "tuple[]"
        },
        {
          "internalType": "uint256[]",
          "name": "maxCap",
          "type": "uint256[]"
        }
      ],
      "name": "addStrategy",
      "outputs": [],
      "stateMutability": "nonpayable",
      "type": "function"
    },
    {
      "inputs": [
        {
          "internalType": "address[]",
          "name": "tokens",
          "type": "address[]"
        }
      ],
      "name": "clearClosablePositions",
      "outputs": [],
      "stateMutability": "nonpayable",
      "type": "function"
    },
    {
      "inputs": [
        {
          "internalType": "address",
          "name": "token",
          "type": "address"
        },
        {
          "internalType": "uint256",
          "name": "amount",
          "type": "uint256"
        }
      ],
      "name": "closePositionsForWithdrawal",
      "outputs": [],
      "stateMutability": "nonpayable",
      "type": "function"
    },
    {
      "inputs": [
        {
          "internalType": "uint256",
          "name": "",
          "type": "uint256"
        }
      ],
      "name": "controllers",
      "outputs": [
        {
          "internalType": "address",
          "name": "",
          "type": "address"
        }
      ],
      "stateMutability": "view",
      "type": "function"
    },
    {
      "inputs": [
        {
          "internalType": "address",
          "name": "integration",
          "type": "address"
        },
        {
          "internalType": "uint32",
          "name": "poolID",
          "type": "uint32"
        },
        {
          "internalType": "address",
          "name": "token",
          "type": "address"
        },
        {
          "internalType": "uint256",
          "name": "amount",
          "type": "uint256"
        }
      ],
      "name": "decreaseDeployAmountChange",
      "outputs": [],
      "stateMutability": "nonpayable",
      "type": "function"
    },
    {
      "inputs": [
        {
          "internalType": "uint256",
          "name": "id",
          "type": "uint256"
        },
        {
          "components": [
            {
              "internalType": "address",
              "name": "token",
              "type": "address"
            },
            {
              "internalType": "uint256",
              "name": "amount",
              "type": "uint256"
            }
          ],
          "internalType": "struct IUserPositions.TokenMovement[]",
          "name": "tokens",
          "type": "tuple[]"
        }
      ],
      "name": "decreaseStrategy",
      "outputs": [],
      "stateMutability": "nonpayable",
      "type": "function"
    },
    {
      "inputs": [
        {
          "internalType": "uint256",
          "name": "id",
          "type": "uint256"
        }
      ],
      "name": "deleteStrategy",
      "outputs": [],
      "stateMutability": "nonpayable",
      "type": "function"
    },
    {
      "inputs": [],
      "name": "getAllControllers",
      "outputs": [
        {
          "internalType": "address[]",
          "name": "currentControllers",
          "type": "address[]"
        }
      ],
      "stateMutability": "view",
      "type": "function"
    },
    {
      "inputs": [
        {
          "internalType": "address",
          "name": "token",
          "type": "address"
        },
        {
          "internalType": "uint256",
          "name": "index",
          "type": "uint256"
        }
      ],
      "name": "getClosablePositions",
      "outputs": [
        {
          "components": [
            {
              "internalType": "address",
              "name": "integration",
              "type": "address"
            },
            {
              "internalType": "uint32",
              "name": "ammPoolID",
              "type": "uint32"
            },
            {
              "internalType": "uint256",
              "name": "amount",
              "type": "uint256"
            }
          ],
          "internalType": "struct IStrategyMap.ClosablePosition",
          "name": "",
          "type": "tuple"
        }
      ],
      "stateMutability": "view",
      "type": "function"
    },
    {
      "inputs": [
        {
          "internalType": "address",
          "name": "integration",
          "type": "address"
        },
        {
          "internalType": "uint32",
          "name": "poolID",
          "type": "uint32"
        },
        {
          "internalType": "address",
          "name": "token",
          "type": "address"
        }
      ],
      "name": "getDeployAmount",
      "outputs": [
        {
          "internalType": "int256",
          "name": "",
          "type": "int256"
        }
      ],
      "stateMutability": "view",
      "type": "function"
    },
    {
      "inputs": [
        {
          "internalType": "uint256",
          "name": "id",
          "type": "uint256"
        },
        {
          "internalType": "address",
          "name": "token",
          "type": "address"
        }
      ],
      "name": "getMaximumCap",
      "outputs": [
        {
          "internalType": "uint256",
          "name": "cap",
          "type": "uint256"
        }
      ],
      "stateMutability": "view",
      "type": "function"
    },
    {
      "inputs": [
        {
          "internalType": "uint256[]",
          "name": "ids",
          "type": "uint256[]"
        }
      ],
      "name": "getMultipleStrategies",
      "outputs": [
        {
          "components": [
            {
              "internalType": "string",
              "name": "name",
              "type": "string"
            },
            {
              "components": [
                {
                  "internalType": "address",
                  "name": "integration",
                  "type": "address"
                },
                {
                  "internalType": "uint32",
                  "name": "ammPoolID",
                  "type": "uint32"
                }
              ],
              "internalType": "struct IStrategyMap.Integration[]",
              "name": "integrations",
              "type": "tuple[]"
            },
            {
              "components": [
                {
                  "internalType": "uint256",
                  "name": "integrationPairIdx",
                  "type": "uint256"
                },
                {
                  "internalType": "address",
                  "name": "token",
                  "type": "address"
                },
                {
                  "internalType": "uint32",
                  "name": "weight",
                  "type": "uint32"
                }
              ],
              "internalType": "struct IStrategyMap.Token[]",
              "name": "tokens",
              "type": "tuple[]"
            }
          ],
          "internalType": "struct IStrategyMap.StrategySummary[]",
          "name": "",
          "type": "tuple[]"
        }
      ],
      "stateMutability": "view",
      "type": "function"
    },
    {
      "inputs": [
        {
          "internalType": "uint256",
          "name": "id",
          "type": "uint256"
        }
      ],
      "name": "getStrategy",
      "outputs": [
        {
          "components": [
            {
              "internalType": "string",
              "name": "name",
              "type": "string"
            },
            {
              "components": [
                {
                  "internalType": "address",
                  "name": "integration",
                  "type": "address"
                },
                {
                  "internalType": "uint32",
                  "name": "ammPoolID",
                  "type": "uint32"
                }
              ],
              "internalType": "struct IStrategyMap.Integration[]",
              "name": "integrations",
              "type": "tuple[]"
            },
            {
              "components": [
                {
                  "internalType": "uint256",
                  "name": "integrationPairIdx",
                  "type": "uint256"
                },
                {
                  "internalType": "address",
                  "name": "token",
                  "type": "address"
                },
                {
                  "internalType": "uint32",
                  "name": "weight",
                  "type": "uint32"
                }
              ],
              "internalType": "struct IStrategyMap.Token[]",
              "name": "tokens",
              "type": "tuple[]"
            }
          ],
          "internalType": "struct IStrategyMap.StrategySummary",
          "name": "",
          "type": "tuple"
        }
      ],
      "stateMutability": "view",
      "type": "function"
    },
    {
      "inputs": [
        {
          "internalType": "uint256[]",
          "name": "_strategies",
          "type": "uint256[]"
        },
        {
          "internalType": "address[]",
          "name": "_tokens",
          "type": "address[]"
        }
      ],
      "name": "getStrategyBalances",
      "outputs": [
        {
          "components": [
            {
              "internalType": "uint256",
              "name": "strategyID",
              "type": "uint256"
            },
            {
              "components": [
                {
                  "internalType": "address",
                  "name": "token",
                  "type": "address"
                },
                {
                  "internalType": "uint256",
                  "name": "balance",
                  "type": "uint256"
                }
              ],
              "internalType": "struct IStrategyMap.GeneralBalance[]",
              "name": "tokens",
              "type": "tuple[]"
            }
          ],
          "internalType": "struct IStrategyMap.StrategyBalance[]",
          "name": "strategyBalances",
          "type": "tuple[]"
        },
        {
          "components": [
            {
              "internalType": "address",
              "name": "token",
              "type": "address"
            },
            {
              "internalType": "uint256",
              "name": "balance",
              "type": "uint256"
            }
          ],
          "internalType": "struct IStrategyMap.GeneralBalance[]",
          "name": "generalBalances",
          "type": "tuple[]"
        }
      ],
      "stateMutability": "view",
      "type": "function"
    },
    {
      "inputs": [
        {
          "internalType": "uint256",
          "name": "id",
          "type": "uint256"
        },
        {
          "internalType": "address",
          "name": "token",
          "type": "address"
        }
      ],
      "name": "getStrategyTokenBalance",
      "outputs": [
        {
          "internalType": "uint256",
          "name": "amount",
          "type": "uint256"
        }
      ],
      "stateMutability": "view",
      "type": "function"
    },
    {
      "inputs": [
        {
          "internalType": "uint256",
          "name": "strategy",
          "type": "uint256"
        }
      ],
      "name": "getStrategyTokenLength",
      "outputs": [
        {
          "internalType": "uint256",
          "name": "",
          "type": "uint256"
        }
      ],
      "stateMutability": "view",
      "type": "function"
    },
    {
      "inputs": [
        {
          "internalType": "address",
          "name": "token",
          "type": "address"
        }
      ],
      "name": "getTokenTotalBalance",
      "outputs": [
        {
          "internalType": "uint256",
          "name": "amount",
          "type": "uint256"
        }
      ],
      "stateMutability": "view",
      "type": "function"
    },
    {
      "inputs": [],
      "name": "idCounter",
      "outputs": [
        {
          "internalType": "uint256",
          "name": "",
          "type": "uint256"
        }
      ],
      "stateMutability": "view",
      "type": "function"
    },
    {
      "inputs": [
        {
          "internalType": "uint256",
          "name": "id",
          "type": "uint256"
        },
        {
          "components": [
            {
              "internalType": "address",
              "name": "token",
              "type": "address"
            },
            {
              "internalType": "uint256",
              "name": "amount",
              "type": "uint256"
            }
          ],
          "internalType": "struct IUserPositions.TokenMovement[]",
          "name": "tokens",
          "type": "tuple[]"
        }
      ],
      "name": "increaseStrategy",
      "outputs": [],
      "stateMutability": "nonpayable",
      "type": "function"
    },
    {
      "inputs": [
        {
          "internalType": "address[]",
          "name": "controllers_",
          "type": "address[]"
        },
        {
          "internalType": "address",
          "name": "moduleMap_",
          "type": "address"
        }
      ],
      "name": "initialize",
      "outputs": [],
      "stateMutability": "nonpayable",
      "type": "function"
    },
    {
      "inputs": [
        {
          "internalType": "address",
          "name": "controller",
          "type": "address"
        }
      ],
      "name": "isController",
      "outputs": [
        {
          "internalType": "bool",
          "name": "status",
          "type": "bool"
        }
      ],
      "stateMutability": "view",
      "type": "function"
    },
    {
      "inputs": [],
      "name": "moduleMap",
      "outputs": [
        {
          "internalType": "contract IModuleMap",
          "name": "",
          "type": "address"
        }
      ],
      "stateMutability": "view",
      "type": "function"
    },
    {
      "inputs": [
        {
          "internalType": "uint256",
          "name": "strategyId",
          "type": "uint256"
        },
        {
          "internalType": "uint256",
          "name": "sourceIndex",
          "type": "uint256"
        },
        {
          "internalType": "uint256",
          "name": "destinationIndex",
          "type": "uint256"
        },
        {
          "internalType": "int256",
          "name": "vectorAmount",
          "type": "int256"
        },
        {
          "internalType": "uint32",
          "name": "amount",
          "type": "uint32"
        },
        {
          "internalType": "bool",
          "name": "rebalance",
          "type": "bool"
        }
      ],
      "name": "movePairWeight",
      "outputs": [],
      "stateMutability": "nonpayable",
      "type": "function"
    },
    {
      "inputs": [
        {
          "internalType": "uint256",
          "name": "strategyId",
          "type": "uint256"
        },
        {
          "internalType": "uint256",
          "name": "integrationIndex",
          "type": "uint256"
        },
        {
          "internalType": "address",
          "name": "token",
          "type": "address"
        }
      ],
      "name": "removePairFromStrategy",
      "outputs": [],
      "stateMutability": "nonpayable",
      "type": "function"
    },
    {
      "inputs": [
        {
          "internalType": "uint256",
          "name": "strategyId",
          "type": "uint256"
        },
        {
          "internalType": "address",
          "name": "token",
          "type": "address"
        },
        {
          "internalType": "bool",
          "name": "available",
          "type": "bool"
        }
      ],
      "name": "setAvailableTokens",
      "outputs": [],
      "stateMutability": "nonpayable",
      "type": "function"
    },
    {
      "inputs": [
        {
          "internalType": "uint256",
          "name": "id",
          "type": "uint256"
        },
        {
          "internalType": "address",
          "name": "token",
          "type": "address"
        },
        {
          "internalType": "uint256",
          "name": "maxCap",
          "type": "uint256"
        }
      ],
      "name": "setMaximumCap",
      "outputs": [],
      "stateMutability": "nonpayable",
      "type": "function"
    },
    {
      "inputs": [
        {
          "internalType": "address",
          "name": "integration",
          "type": "address"
        },
        {
          "internalType": "uint32",
          "name": "poolID",
          "type": "uint32"
        },
        {
          "internalType": "address",
          "name": "token",
          "type": "address"
        },
        {
          "internalType": "uint256",
          "name": "amount",
          "type": "uint256"
        },
        {
          "internalType": "bool",
          "name": "add",
          "type": "bool"
        }
      ],
      "name": "updateDeployAmount",
      "outputs": [],
      "stateMutability": "nonpayable",
      "type": "function"
    },
    {
      "inputs": [
        {
          "internalType": "uint256",
          "name": "id",
          "type": "uint256"
        },
        {
          "internalType": "string",
          "name": "name",
          "type": "string"
        }
      ],
      "name": "updateName",
      "outputs": [],
      "stateMutability": "nonpayable",
      "type": "function"
    }
  ],
  "transactionHash": "0xcd9b9b11d9018fbc116a2a21f73e29be9460718718139016f78d550619aae006",
  "args": [],
  "solcInputHash": "7e530319077cb03f54f01a672e4afeb7",
  "bytecode": "0x608060405234801561001057600080fd5b50615a0a80620000216000396000f3fe608060405234801561001057600080fd5b50600436106101755760003560e01c80630f0a1c6f1461017a5780631416110b146101a95780631975762f146101be57806319fed71e146101de57806327ddb971146101f15780632cf854ed14610222578063337993cb146102355780633771dafe1461024a57806343b17d631461025d578063462d0b2e1461027057806353e76f2c1461028357806354017292146102965780635560066a146102a957806377205dce146102bc57806387302037146102f5578063922e9fe3146103085780639d6eaec21461031b578063a441f6ec14610350578063a742d0b614610394578063a7fc7a07146103bd578063ad14c3a8146103d0578063b2da6000146103e3578063b429afeb146103f6578063ce19bda114610432578063cfc0cc3414610451578063d4a4a04314610471578063e94b0dd214610484578063eb08ab2814610497578063ee73ccae146104a0578063f7e50fcf146104b3578063ffeeb234146104fc575b600080fd5b600054610193906201000090046001600160a01b031681565b6040516101a091906152fe565b60405180910390f35b6101bc6101b7366004614fd9565b61051d565b005b6101d16101cc366004614bd5565b610abc565b6040516101a091906154ab565b6101bc6101ec366004614d5d565b610ba0565b6102146101ff366004614f0d565b60009081526003602052604090206002015490565b6040519081526020016101a0565b6101bc61023036600461505e565b610e64565b61023d611297565b6040516101a09190615312565b6101bc6102583660046150ca565b6112f9565b6101bc61026b366004614bd5565b6118e6565b6101bc61027e366004614c14565b61199a565b6101bc610291366004615022565b611a17565b6101bc6102a4366004614b6e565b611b39565b6101bc6102b7366004614aa9565b611e8b565b6102146102ca366004614f3d565b60009182526003602090815260408084206001600160a01b0390931684526004909201905290205490565b6101bc610303366004614f0d565b612442565b6101bc610316366004614f6c565b612616565b610214610329366004614f3d565b60009182526005602090815260408084206001600160a01b03909316845291905290205490565b61036361035e366004614aa9565b61276a565b6040805182516001600160a01b0316815260208084015163ffffffff169082015291810151908201526060016101a0565b6102146103a2366004614a6a565b6001600160a01b031660009081526004602052604090205490565b6101bc6103cb366004614a6a565b61280f565b6101bc6103de36600461509d565b612a4a565b6101bc6103f1366004614fa2565b612e71565b610422610404366004614a6a565b6001600160a01b031660009081526001602052604090205460ff1690565b60405190151581526020016101a0565b61043c620186a081565b60405163ffffffff90911681526020016101a0565b61046461045f366004614f0d565b612fff565b6040516101a091906156ff565b6101bc61047f366004614fd9565b6131c4565b610193610492366004614f0d565b61378f565b61021460085481565b6101bc6104ae366004614b1e565b6137b9565b6102146104c1366004614ad4565b6001600160a01b03808416600090815260066020908152604080832063ffffffff871684528252808320938516835292905220549392505050565b61050f61050a366004614cd9565b6138af565b6040516101a0929190615424565b3360009081526001602052604090205460ff166105555760405162461bcd60e51b815260040161054c906156ab565b60405180910390fd5b600061056084612fff565b905060005b82811015610ab55760008581526003602081905260408220019085858481811061059f57634e487b7160e01b600052603260045260246000fd5b6105b59260206040909202019081019150614a6a565b6001600160a01b0316815260208101919091526040016000205460ff1661060e5760405162461bcd60e51b815260206004820152600d60248201526c34b73b30b634b2103a37b5b2b760991b604482015260640161054c565b60008581526003602052604081206004018186868581811061064057634e487b7160e01b600052603260045260246000fd5b6106569260206040909202019081019150614a6a565b6001600160a01b03168152602081019190915260400160002054905080156107545784848381811061069857634e487b7160e01b600052603260045260246000fd5b905060400201602001356005600088815260200190815260200160002060008787868181106106d757634e487b7160e01b600052603260045260246000fd5b6106ed9260206040909202019081019150614a6a565b6001600160a01b03166001600160a01b031681526020019081526020016000205461071891906157b0565b81116107545760405162461bcd60e51b815260206004820152600b60248201526a617420636170616369747960a81b604482015260640161054c565b84848381811061077457634e487b7160e01b600052603260045260246000fd5b905060400201602001356005600088815260200190815260200160002060008787868181106107b357634e487b7160e01b600052603260045260246000fd5b6107c99260206040909202019081019150614a6a565b6001600160a01b03166001600160a01b0316815260200190815260200160002060008282546107f891906157b0565b90915550859050848381811061081e57634e487b7160e01b600052603260045260246000fd5b905060400201602001356004600087878681811061084c57634e487b7160e01b600052603260045260246000fd5b6108629260206040909202019081019150614a6a565b6001600160a01b03166001600160a01b03168152602001908152602001600020600082825461089191906157b0565b90915550600090505b836040015151811015610aa257836040015181815181106108cb57634e487b7160e01b600052603260045260246000fd5b6020026020010151602001516001600160a01b031686868581811061090057634e487b7160e01b600052603260045260246000fd5b6109169260206040909202019081019150614a6a565b6001600160a01b03161415610a9057600084602001518560400151838151811061095057634e487b7160e01b600052603260045260246000fd5b6020026020010151600001518151811061097a57634e487b7160e01b600052603260045260246000fd5b602002602001015190506109f68787868181106109a757634e487b7160e01b600052603260045260246000fd5b90506040020160200135866040015184815181106109d557634e487b7160e01b600052603260045260246000fd5b60200260200101516040015163ffffffff16620186a063ffffffff16613dee565b81516001600160a01b031660009081526006602090815260408083208286015163ffffffff168452909152812090898988818110610a4457634e487b7160e01b600052603260045260246000fd5b610a5a9260206040909202019081019150614a6a565b6001600160a01b03166001600160a01b031681526020019081526020016000206000828254610a89919061576f565b9091555050505b80610a9a816158fc565b91505061089a565b505080610aae906158fc565b9050610565565b5050505050565b60606000826001600160401b03811115610ae657634e487b7160e01b600052604160045260246000fd5b604051908082528060200260200182016040528015610b1f57816020015b610b0c6146ed565b815260200190600190039081610b045790505b50905060005b83811015610b9857610b5c858583818110610b5057634e487b7160e01b600052603260045260246000fd5b90506020020135612fff565b828281518110610b7c57634e487b7160e01b600052603260045260246000fd5b602002602001018190525080610b91906158fc565b9050610b25565b509392505050565b3360009081526001602052604090205460ff16610bcf5760405162461bcd60e51b815260040161054c906156ab565b84610c135760405162461bcd60e51b8152602060048201526014602482015273696e746567726174696f6e73206d697373696e6760601b604482015260640161054c565b82610c515760405162461bcd60e51b815260206004820152600e60248201526d746f6b656e73206d697373696e6760901b604482015260640161054c565b86610c915760405162461bcd60e51b815260206004820152601060248201526f6d75737420686176652061206e616d6560801b604482015260640161054c565b828114610cd35760405162461bcd60e51b815260206004820152601060248201526f6361707320617265206d697373696e6760801b604482015260640161054c565b60088054906000610ce3836158fc565b919050555060006008549050610e17818a8a8080601f016020809104026020016040519081016040528093929190818152602001838380828437600081840152601f19601f820116905080830192505050505050508989808060200260200160405190810160405280939291908181526020016000905b82821015610d8657610d7760408302860136819003810190614e49565b81526020019060010190610d5a565b50505050508888808060200260200160405190810160405280939291908181526020016000905b82821015610dd957610dca60608302860136819003810190614ea6565b81526020019060010190610dad565b5050505050878780806020026020016040519081016040528093929190818152602001838360200280828437600092019190915250613e0d92505050565b807f4e61f7bf6a133a1b5c26fdae178f0d6316fa1214e5d7f1153e67c688dc64eef0888888888e8e604051610e519695949392919061535f565b60405180910390a2505050505050505050565b600080546040516337c61fc560e11b8152620100009091046001600160a01b031691636f8c3f8a91610e99919060040161550c565b60206040518083038186803b158015610eb157600080fd5b505afa158015610ec5573d6000803e3d6000fd5b505050506040513d601f19601f82011682018060405250810190610ee99190614a8d565b6001600160a01b031663f3ae2415336040518263ffffffff1660e01b8152600401610f1491906152fe565b60206040518083038186803b158015610f2c57600080fd5b505afa158015610f40573d6000803e3d6000fd5b505050506040513d601f19601f82011682018060405250810190610f649190614d41565b610f805760405162461bcd60e51b815260040161054c90615608565b6000610f8b84612fff565b905060001960005b8260200151518110156110025760006001600160a01b031683602001518281518110610fcf57634e487b7160e01b600052603260045260246000fd5b6020026020010151600001516001600160a01b03161415610ff257809150611002565b610ffb816158fc565b9050610f93565b5060001981131561105f57600085815260036020526040902060010180548591908390811061104157634e487b7160e01b600052603260045260246000fd5b9060005260206000200181816110579190615943565b905050611096565b600085815260036020908152604082206001908101805491820181558352912085910161108c8282615943565b5050506020810151515b60001960005b83604001515181101561110b5760006001600160a01b0316846040015182815181106110d857634e487b7160e01b600052603260045260246000fd5b6020026020010151602001516001600160a01b031614156110fb5780915061110b565b611104816158fc565b905061109c565b506000198113156111cf576040518060600160405280838152602001856001600160a01b03168152602001600063ffffffff1681525060036000888152602001908152602001600020600201828154811061117657634e487b7160e01b600052603260045260246000fd5b60009182526020918290208351600290920201908155908201516001909101805460409093015163ffffffff16600160a01b026001600160c01b03199093166001600160a01b0390921691909117919091179055611254565b600086815260036020908152604080832081516060810183528681526001600160a01b03808a168286019081529382018681526002938401805460018181018355918952969097209251959093029091019384559151929093018054935163ffffffff16600160a01b026001600160c01b031990941692909116919091179190911790555b7ff8fbc92087a4e86059181dcf1b783a6082cc38532cd41b8b5fcae727a4d2f70e86868660405161128793929190615712565b60405180910390a1505050505050565b606060028054806020026020016040519081016040528092919081815260200182805480156112ef57602002820191906000526020600020905b81546001600160a01b031681526001909101906020018083116112d1575b5050505050905090565b600080546040516337c61fc560e11b8152620100009091046001600160a01b031691636f8c3f8a9161132e919060040161550c565b60206040518083038186803b15801561134657600080fd5b505afa15801561135a573d6000803e3d6000fd5b505050506040513d601f19601f8201168201806040525081019061137e9190614a8d565b6001600160a01b031663f3ae2415336040518263ffffffff1660e01b81526004016113a991906152fe565b60206040518083038186803b1580156113c157600080fd5b505afa1580156113d5573d6000803e3d6000fd5b505050506040513d601f19601f820116820180604052508101906113f99190614d41565b6114155760405162461bcd60e51b815260040161054c90615608565b6000868152600360205260409020600201805463ffffffff841691908790811061144f57634e487b7160e01b600052603260045260246000fd5b6000918252602090912060029091020160010154600160a01b900463ffffffff1610156114af5760405162461bcd60e51b815260206004820152600e60248201526d1a5b9d985b1a5908185b5bdd5b9d60921b604482015260640161054c565b60008681526003602052604090206002018054839190879081106114e357634e487b7160e01b600052603260045260246000fd5b906000526020600020906002020160010160148282829054906101000a900463ffffffff166115129190615885565b92506101000a81548163ffffffff021916908363ffffffff1602179055508160036000888152602001908152602001600020600201858154811061156657634e487b7160e01b600052603260045260246000fd5b906000526020600020906002020160010160148282829054906101000a900463ffffffff1661159591906157c8565b92506101000a81548163ffffffff021916908363ffffffff16021790555080156118945760006115c487612fff565b90508360066000836020015184604001518a815181106115f457634e487b7160e01b600052603260045260246000fd5b6020026020010151600001518151811061161e57634e487b7160e01b600052603260045260246000fd5b6020026020010151600001516001600160a01b03166001600160a01b031681526020019081526020016000206000836020015184604001518a8151811061167557634e487b7160e01b600052603260045260246000fd5b6020026020010151600001518151811061169f57634e487b7160e01b600052603260045260246000fd5b60200260200101516020015163ffffffff1663ffffffff1681526020019081526020016000206000836040015189815181106116eb57634e487b7160e01b600052603260045260246000fd5b6020026020010151602001516001600160a01b03166001600160a01b031681526020019081526020016000206000828254611726919061582f565b92505081905550836006600083602001518460400151898151811061175b57634e487b7160e01b600052603260045260246000fd5b6020026020010151600001518151811061178557634e487b7160e01b600052603260045260246000fd5b6020026020010151600001516001600160a01b03166001600160a01b0316815260200190815260200160002060008360200151846040015189815181106117dc57634e487b7160e01b600052603260045260246000fd5b6020026020010151600001518151811061180657634e487b7160e01b600052603260045260246000fd5b60200260200101516020015163ffffffff1663ffffffff16815260200190815260200160002060008360400151888151811061185257634e487b7160e01b600052603260045260246000fd5b6020026020010151602001516001600160a01b03166001600160a01b03168152602001908152602001600020600082825461188d919061576f565b9091555050505b604080518781526020810187905290810185905263ffffffff8316606082015281151560808201527f267e393d3a83262400cccd2af547b7d115a8c7b6f0ace9331f15e308d552c7be9060a001611287565b3360009081526001602052604090205460ff166119155760405162461bcd60e51b815260040161054c906156ab565b60005b81811015611995576007600084848481811061194457634e487b7160e01b600052603260045260246000fd5b90506020020160208101906119599190614a6a565b6001600160a01b03166001600160a01b031681526020019081526020016000206000611985919061470e565b61198e816158fc565b9050611918565b505050565b600054610100900460ff166119b55760005460ff16156119b9565b303b155b6119d55760405162461bcd60e51b815260040161054c9061556b565b600054610100900460ff161580156119f7576000805461ffff19166101011790555b611a0183836144d3565b8015611995576000805461ff0019169055505050565b3360009081526001602052604090205460ff16611a465760405162461bcd60e51b815260040161054c906156ab565b60008381526003602052604081208054611a5f906158c1565b905011611aa45760405162461bcd60e51b81526020600482015260136024820152721cdd1c985d1959de481b5d5cdd08195e1a5cdd606a1b604482015260640161054c565b80611ae05760405162461bcd60e51b815260206004820152600c60248201526b696e76616c6964206e616d6560a01b604482015260640161054c565b6000838152600360205260409020611af9908383614732565b50827fac2072268d18e10aecad35c0c04acd66330b2571a8ff403e3c702d77d3bab1348383604051611b2c929190615534565b60405180910390a2505050565b600080546040516337c61fc560e11b8152620100009091046001600160a01b031691636f8c3f8a91611b6e919060040161550c565b60206040518083038186803b158015611b8657600080fd5b505afa158015611b9a573d6000803e3d6000fd5b505050506040513d601f19601f82011682018060405250810190611bbe9190614a8d565b6001600160a01b031663f3ae2415336040518263ffffffff1660e01b8152600401611be991906152fe565b60206040518083038186803b158015611c0157600080fd5b505afa158015611c15573d6000803e3d6000fd5b505050506040513d601f19601f82011682018060405250810190611c399190614d41565b611c555760405162461bcd60e51b815260040161054c90615608565b6001600160ff1b03821115611c9f5760405162461bcd60e51b815260206004820152601060248201526f616d6f756e7420746f6f206c6172676560801b604482015260640161054c565b6000546040516337c61fc560e11b8152620100009091046001600160a01b031690636f8c3f8a90611cd59060039060040161550c565b60206040518083038186803b158015611ced57600080fd5b505afa158015611d01573d6000803e3d6000fd5b505050506040513d601f19601f82011682018060405250810190611d259190614a8d565b6001600160a01b0316631de4fe13866040518263ffffffff1660e01b8152600401611d5091906152fe565b60206040518083038186803b158015611d6857600080fd5b505afa158015611d7c573d6000803e3d6000fd5b505050506040513d601f19601f82011682018060405250810190611da09190614d41565b611de45760405162461bcd60e51b8152602060048201526015602482015274125b9d1959dc985d1a5bdb881b9bdd081859191959605a1b604482015260640161054c565b8015611e3a576001600160a01b03808616600090815260066020908152604080832063ffffffff89168452825280832093871683529290529081208054849290611e2f90849061576f565b90915550610ab59050565b6001600160a01b03808616600090815260066020908152604080832063ffffffff89168452825280832093871683529290529081208054849290611e7f90849061582f565b90915550505050505050565b3360009081526001602052604090205460ff16611eba5760405162461bcd60e51b815260040161054c906156ab565b6001600160a01b038216600090815260076020908152604080832080548251818502810185019093528083529192909190849084015b82821015611f4d576000848152602090819020604080516060810182526002860290920180546001600160a01b0381168452600160a01b900463ffffffff1683850152600190810154918301919091529083529092019101611ef0565b5050505090506000808060029054906101000a90046001600160a01b03166001600160a01b0316636f8c3f8a60006040518263ffffffff1660e01b8152600401611f97919061550c565b60206040518083038186803b158015611faf57600080fd5b505afa158015611fc3573d6000803e3d6000fd5b505050506040513d601f19601f82011682018060405250810190611fe79190614a8d565b835190915015610ab557600060018451612001919061586e565b90505b6040516370a0823160e01b81526000906001600160a01b038816906370a08231906120339086906004016152fe565b60206040518083038186803b15801561204b57600080fd5b505afa15801561205f573d6000803e3d6000fd5b505050506040513d601f19601f820116820180604052508101906120839190614f25565b90508482815181106120a557634e487b7160e01b600052603260045260246000fd5b60200260200101516020015163ffffffff166000141561218e578482815181106120df57634e487b7160e01b600052603260045260246000fd5b6020026020010151600001516001600160a01b031663f3fef3a38887858151811061211a57634e487b7160e01b600052603260045260246000fd5b6020026020010151604001516040518363ffffffff1660e01b81526004016121579291906001600160a01b03929092168252602082015260400190565b600060405180830381600087803b15801561217157600080fd5b505af1158015612185573d6000803e3d6000fd5b50505050612290565b8482815181106121ae57634e487b7160e01b600052603260045260246000fd5b6020026020010151600001516001600160a01b0316637db2ddfe888785815181106121e957634e487b7160e01b600052603260045260246000fd5b60200260200101516040015188868151811061221557634e487b7160e01b600052603260045260246000fd5b60209081029190910181015101516040516001600160e01b031960e086901b1681526001600160a01b039093166004840152602483019190915263ffffffff166044820152606401600060405180830381600087803b15801561227757600080fd5b505af115801561228b573d6000803e3d6000fd5b505050505b600081886001600160a01b03166370a08231866040518263ffffffff1660e01b81526004016122bf91906152fe565b60206040518083038186803b1580156122d757600080fd5b505afa1580156122eb573d6000803e3d6000fd5b505050506040513d601f19601f8201168201806040525081019061230f9190614f25565b612319919061586e565b6001600160a01b03891660009081526007602052604090208054919250908061235257634e487b7160e01b600052603160045260246000fd5b60008281526020812060026000199093019283020180546001600160c01b0319168155600101559055855161240b908790859081106123a157634e487b7160e01b600052603260045260246000fd5b6020026020010151600001518785815181106123cd57634e487b7160e01b600052603260045260246000fd5b6020026020010151602001518a8987815181106123fa57634e487b7160e01b600052603260045260246000fd5b6020026020010151604001516137b9565b61241581866157b0565b945086851061242557505061243a565b50508080612432906158aa565b915050612004565b505050505050565b3360009081526001602052604090205460ff166124715760405162461bcd60e51b815260040161054c906156ab565b600061247c82612fff565b905060005b8160400151518110156125af57600560008481526020019081526020016000206000836040015183815181106124c757634e487b7160e01b600052603260045260246000fd5b6020026020010151602001516001600160a01b03166001600160a01b03168152602001908152602001600020546000146125355760405162461bcd60e51b815260206004820152600f60248201526e737472617465677920696e2075736560881b604482015260640161054c565b6003600084815260200190815260200160002060030160008360400151838151811061257157634e487b7160e01b600052603260045260246000fd5b6020908102919091018101518101516001600160a01b03168252810191909152604001600020805460ff191690556125a8816158fc565b9050612481565b506000828152600360205260408120906125c982826147b6565b6125d76001830160006147f0565b6125e560028301600061480e565b505060405182907f79097c9b1a7ba453a3ecc60124deebb47c637495f9912752840842a8ae28905690600090a25050565b600080546040516337c61fc560e11b8152620100009091046001600160a01b031691636f8c3f8a9161264b919060040161550c565b60206040518083038186803b15801561266357600080fd5b505afa158015612677573d6000803e3d6000fd5b505050506040513d601f19601f8201168201806040525081019061269b9190614a8d565b6001600160a01b031663f3ae2415336040518263ffffffff1660e01b81526004016126c691906152fe565b60206040518083038186803b1580156126de57600080fd5b505afa1580156126f2573d6000803e3d6000fd5b505050506040513d601f19601f820116820180604052508101906127169190614d41565b6127325760405162461bcd60e51b815260040161054c90615608565b60009283526003602081815260408086206001600160a01b039590951686529390910190529120805460ff1916911515919091179055565b60408051606081018252600080825260208083018290528284018290526001600160a01b038616825260079052919091208054839081106127bb57634e487b7160e01b600052603260045260246000fd5b60009182526020918290206040805160608101825260029390930290910180546001600160a01b0381168452600160a01b900463ffffffff1693830193909352600190920154918101919091529392505050565b600080546040516337c61fc560e11b8152620100009091046001600160a01b031691636f8c3f8a91612844919060040161550c565b60206040518083038186803b15801561285c57600080fd5b505afa158015612870573d6000803e3d6000fd5b505050506040513d601f19601f820116820180604052508101906128949190614a8d565b6001600160a01b0316632f54bf6e336040518263ffffffff1660e01b81526004016128bf91906152fe565b60206040518083038186803b1580156128d757600080fd5b505afa1580156128eb573d6000803e3d6000fd5b505050506040513d601f19601f8201168201806040525081019061290f9190614d41565b61296e5760405162461bcd60e51b815260206004820152602a60248201527f436f6e74726f6c6c65643a3a6f6e6c794f776e65723a2043616c6c6572206973604482015269103737ba1037bbb732b960b11b606482015260840161054c565b6001600160a01b03811660009081526001602081905260408220805460ff19169091179055805b6002548110156129f457600281815481106129c057634e487b7160e01b600052603260045260246000fd5b6000918252602090912001546001600160a01b03848116911614156129e457600191505b6129ed816158fc565b9050612995565b5080612a4657600280546001810182556000919091527f405787fa12a823e0f2b7631cc41b3ba8828b3321ca811111fa75cd3aa3bb5ace0180546001600160a01b0319166001600160a01b0384161790555b5050565b600080546040516337c61fc560e11b8152620100009091046001600160a01b031691636f8c3f8a91612a7f919060040161550c565b60206040518083038186803b158015612a9757600080fd5b505afa158015612aab573d6000803e3d6000fd5b505050506040513d601f19601f82011682018060405250810190612acf9190614a8d565b6001600160a01b031663f3ae2415336040518263ffffffff1660e01b8152600401612afa91906152fe565b60206040518083038186803b158015612b1257600080fd5b505afa158015612b26573d6000803e3d6000fd5b505050506040513d601f19601f82011682018060405250810190612b4a9190614d41565b612b665760405162461bcd60e51b815260040161054c90615608565b600854831115612ba75760405162461bcd60e51b815260206004820152600c60248201526b42616420737472617465677960a01b604482015260640161054c565b6000612bb284612fff565b9050806020015151831115612bd95760405162461bcd60e51b815260040161054c90615656565b600160005b826040015151811015612d96578483604001518281518110612c1057634e487b7160e01b600052603260045260246000fd5b6020026020010151600001511415612d8657836001600160a01b031683604001518281518110612c5057634e487b7160e01b600052603260045260246000fd5b6020026020010151602001516001600160a01b03161415612d815782604001518181518110612c8f57634e487b7160e01b600052603260045260246000fd5b60200260200101516040015163ffffffff16600014612cdd5760405162461bcd60e51b815260206004820152600a6024820152690776569676874203e20360b41b604482015260640161054c565b60408051606081018252600080825260208083018290528284018290528982526003905291909120600201805483908110612d2857634e487b7160e01b600052603260045260246000fd5b60009182526020918290208351600290920201908155908201516001909101805460409093015163ffffffff16600160a01b026001600160c01b03199093166001600160a01b0390921691909117919091179055612d86565b600091505b612d8f816158fc565b9050612bde565b508015612e2257604080518082018252600080825260208083018290528882526003905291909120600101805486908110612de157634e487b7160e01b600052603260045260246000fd5b6000918252602091829020835191018054939092015163ffffffff16600160a01b026001600160c01b03199093166001600160a01b03909116179190911790555b60408051868152602081018690526001600160a01b0385168183015290517f0b0f8b860fd87e193c7e0c4262d6dd2e9279461c3a992ff9b4a435cd6c53bf919181900360600190a15050505050565b600080546040516337c61fc560e11b8152620100009091046001600160a01b031691636f8c3f8a91612ea6919060040161550c565b60206040518083038186803b158015612ebe57600080fd5b505afa158015612ed2573d6000803e3d6000fd5b505050506040513d601f19601f82011682018060405250810190612ef69190614a8d565b6001600160a01b031663f3ae2415336040518263ffffffff1660e01b8152600401612f2191906152fe565b60206040518083038186803b158015612f3957600080fd5b505afa158015612f4d573d6000803e3d6000fd5b505050506040513d601f19601f82011682018060405250810190612f719190614d41565b612f8d5760405162461bcd60e51b815260040161054c90615608565b6001600160a01b038216612fb35760405162461bcd60e51b815260040161054c90615548565b600854831115612fd55760405162461bcd60e51b815260040161054c906155de565b60009283526003602090815260408085206001600160a01b03909416855260049093019052912055565b6130076146ed565b61300f6146ed565b60008381526003602052604090208054613028906158c1565b80601f0160208091040260200160405190810160405280929190818152602001828054613054906158c1565b80156130a15780601f10613076576101008083540402835291602001916130a1565b820191906000526020600020905b81548152906001019060200180831161308457829003601f168201915b5050509183525050600083815260036020908152604080832060010180548251818502810185019093528083529193909284015b8282101561312157600084815260209081902060408051808201909152908401546001600160a01b0381168252600160a01b900463ffffffff16818301528252600190920191016130d5565b5050505060208083019190915260008481526003825260408082206002018054825181860281018601909352808352919390929084015b828210156131b55760008481526020908190206040805160608101825260028602909201805483526001908101546001600160a01b03811684860152600160a01b900463ffffffff16918301919091529083529092019101613158565b50505050604082015292915050565b3360009081526001602052604090205460ff166131f35760405162461bcd60e51b815260040161054c906156ab565b60006131fe84612fff565b90506000816040015151116132255760405162461bcd60e51b815260040161054c906155de565b60005b82811015610ab55783838281811061325057634e487b7160e01b600052603260045260246000fd5b9050604002016020013560056000878152602001908152602001600020600086868581811061328f57634e487b7160e01b600052603260045260246000fd5b6132a59260206040909202019081019150614a6a565b6001600160a01b03166001600160a01b031681526020019081526020016000205410156132e45760405162461bcd60e51b815260040161054c9061567f565b83838281811061330457634e487b7160e01b600052603260045260246000fd5b905060400201602001356004600086868581811061333257634e487b7160e01b600052603260045260246000fd5b6133489260206040909202019081019150614a6a565b6001600160a01b03166001600160a01b031681526020019081526020016000205410156133875760405162461bcd60e51b815260040161054c9061567f565b8383828181106133a757634e487b7160e01b600052603260045260246000fd5b905060400201602001356005600087815260200190815260200160002060008686858181106133e657634e487b7160e01b600052603260045260246000fd5b6133fc9260206040909202019081019150614a6a565b6001600160a01b03166001600160a01b03168152602001908152602001600020600082825461342b919061586e565b90915550849050838281811061345157634e487b7160e01b600052603260045260246000fd5b905060400201602001356004600086868581811061347f57634e487b7160e01b600052603260045260246000fd5b6134959260206040909202019081019150614a6a565b6001600160a01b03166001600160a01b0316815260200190815260200160002060008282546134c4919061586e565b90915550600090505b82604001515181101561377e57826040015181815181106134fe57634e487b7160e01b600052603260045260246000fd5b6020026020010151602001516001600160a01b031685858481811061353357634e487b7160e01b600052603260045260246000fd5b6135499260206040909202019081019150614a6a565b6001600160a01b0316141561376c57600083602001518460400151838151811061358357634e487b7160e01b600052603260045260246000fd5b602002602001015160000151815181106135ad57634e487b7160e01b600052603260045260246000fd5b60200260200101519050600061360a8787868181106135dc57634e487b7160e01b600052603260045260246000fd5b90506040020160200135866040015185815181106109d557634e487b7160e01b600052603260045260246000fd5b82516001600160a01b031660009081526006602090815260408083208287015163ffffffff168452909152812091925082919089898881811061365d57634e487b7160e01b600052603260045260246000fd5b6136739260206040909202019081019150614a6a565b6001600160a01b03166001600160a01b0316815260200190815260200160002060008282546136a2919061582f565b909155506007905060008888878181106136cc57634e487b7160e01b600052603260045260246000fd5b6136e29260206040909202019081019150614a6a565b6001600160a01b0390811682526020808301939093526040918201600090812083516060810185528751841681529685015163ffffffff908116888701908152948801968752815460018181018455928452959092209651600290950290960180549351909116600160a01b026001600160c01b0319909316939091169290921717815590519101555b80613776816158fc565b9150506134cd565b50613788816158fc565b9050613228565b6002818154811061379f57600080fd5b6000918252602090912001546001600160a01b0316905081565b3360009081526001602052604090205460ff166137e85760405162461bcd60e51b815260040161054c906156ab565b6001600160a01b03808516600090815260066020908152604080832063ffffffff88168452825280832093861683529290529081205490811261386a576001600160a01b03808616600090815260066020908152604080832063ffffffff89168452825280832093871683529290529081208054849290611e2f90849061582f565b6001600160a01b03808616600090815260066020908152604080832063ffffffff89168452825280832093871683529290529081208054849290611e7f90849061576f565b606080846001600160401b038111156138d857634e487b7160e01b600052604160045260246000fd5b60405190808252806020026020018201604052801561391e57816020015b6040805180820190915260008152606060208201528152602001906001900390816138f65790505b509150826001600160401b0381111561394757634e487b7160e01b600052604160045260246000fd5b60405190808252806020026020018201604052801561398057816020015b61396d61482f565b8152602001906001900390816139655790505b50905060005b83811015613a93578484828181106139ae57634e487b7160e01b600052603260045260246000fd5b90506020020160208101906139c39190614a6a565b8282815181106139e357634e487b7160e01b600052603260045260246000fd5b60209081029190910101516001600160a01b03909116905260046000868684818110613a1f57634e487b7160e01b600052603260045260246000fd5b9050602002016020810190613a349190614a6a565b6001600160a01b03166001600160a01b0316815260200190815260200160002054828281518110613a7557634e487b7160e01b600052603260045260246000fd5b6020908102919091018101510152613a8c816158fc565b9050613986565b5060005b85811015613de457600060036000898985818110613ac557634e487b7160e01b600052603260045260246000fd5b905060200201358152602001908152602001600020600201805480602002602001604051908101604052809291908181526020016000905b82821015613b5a5760008481526020908190206040805160608101825260028602909201805483526001908101546001600160a01b03811684860152600160a01b900463ffffffff16918301919091529083529092019101613afd565b50505050905080516001600160401b03811115613b8757634e487b7160e01b600052604160045260246000fd5b604051908082528060200260200182016040528015613bc057816020015b613bad61482f565b815260200190600190039081613ba55790505b50848381518110613be157634e487b7160e01b600052603260045260246000fd5b602002602001015160200181905250878783818110613c1057634e487b7160e01b600052603260045260246000fd5b90506020020135848381518110613c3757634e487b7160e01b600052603260045260246000fd5b60209081029190910101515260005b8151811015613dd157818181518110613c6f57634e487b7160e01b600052603260045260246000fd5b602002602001015160200151858481518110613c9b57634e487b7160e01b600052603260045260246000fd5b6020026020010151602001518281518110613cc657634e487b7160e01b600052603260045260246000fd5b60209081029190910101516001600160a01b039091169052600560008a8a86818110613d0257634e487b7160e01b600052603260045260246000fd5b9050602002013581526020019081526020016000206000838381518110613d3957634e487b7160e01b600052603260045260246000fd5b6020026020010151602001516001600160a01b03166001600160a01b0316815260200190815260200160002054858481518110613d8657634e487b7160e01b600052603260045260246000fd5b6020026020010151602001518281518110613db157634e487b7160e01b600052603260045260246000fd5b602090810291909101810151015280613dc9816158fc565b915050613c46565b505080613ddd906158fc565b9050613a97565b5094509492505050565b600081613dfb8486615810565b613e0591906157f0565b949350505050565b60005b8351811015613e875760006001600160a01b0316848281518110613e4457634e487b7160e01b600052603260045260246000fd5b6020026020010151600001516001600160a01b03161415613e775760405162461bcd60e51b815260040161054c90615656565b613e80816158fc565b9050613e10565b50600082516001600160401b03811115613eb157634e487b7160e01b600052604160045260246000fd5b604051908082528060200260200182016040528015613eda578160200160208202803683370190505b5090506000805b84518110156141c7578551858281518110613f0c57634e487b7160e01b600052603260045260246000fd5b60200260200101516000015110613f655760405162461bcd60e51b815260206004820152601d60248201527f696e746567726174696f6e20696478206f7574206f6620626f756e6473000000604482015260640161054c565b60006001600160a01b0316858281518110613f9057634e487b7160e01b600052603260045260246000fd5b6020026020010151602001516001600160a01b03161415613fc35760405162461bcd60e51b815260040161054c90615548565b60096000868381518110613fe757634e487b7160e01b600052603260045260246000fd5b6020026020010151602001516001600160a01b03166001600160a01b03168152602001908152602001600020546000141561408e5784818151811061403c57634e487b7160e01b600052603260045260246000fd5b60200260200101516020015183838151811061406857634e487b7160e01b600052603260045260246000fd5b6001600160a01b03909216602092830291909101909101528161408a816158fc565b9250505b8481815181106140ae57634e487b7160e01b600052603260045260246000fd5b60200260200101516040015163ffffffff16600960008784815181106140e457634e487b7160e01b600052603260045260246000fd5b6020026020010151602001516001600160a01b03166001600160a01b03168152602001908152602001600020600082825461411f91906157b0565b9250508190555083818151811061414657634e487b7160e01b600052603260045260246000fd5b6020026020010151600360008a8152602001908152602001600020600401600087848151811061418657634e487b7160e01b600052603260045260246000fd5b6020026020010151602001516001600160a01b03166001600160a01b0316815260200190815260200160002081905550806141c0906158fc565b9050613ee1565b5060005b8181101561434857620186a063ffffffff166009600085848151811061420157634e487b7160e01b600052603260045260246000fd5b60200260200101516001600160a01b03166001600160a01b03168152602001908152602001600020541461426e5760405162461bcd60e51b81526020600482015260146024820152731a5b9d985b1a59081d1bdad95b881dd95a59da1d60621b604482015260640161054c565b6001600360008a815260200190815260200160002060030160008584815181106142a857634e487b7160e01b600052603260045260246000fd5b60200260200101516001600160a01b03166001600160a01b0316815260200190815260200160002060006101000a81548160ff0219169083151502179055506009600084838151811061430b57634e487b7160e01b600052603260045260246000fd5b60200260200101516001600160a01b03166001600160a01b031681526020019081526020016000206000905580614341906158fc565b90506141cb565b506000878152600360209081526040909120875161436892890190614846565b5060005b855181101561441057600360008981526020019081526020016000206001018682815181106143ab57634e487b7160e01b600052603260045260246000fd5b6020908102919091018101518254600181018455600093845292829020815193018054919092015163ffffffff16600160a01b026001600160c01b03199091166001600160a01b0390931692909217919091179055614409816158fc565b905061436c565b5060005b84518110156144c9576003600089815260200190815260200160002060020185828151811061445357634e487b7160e01b600052603260045260246000fd5b60209081029190910181015182546001818101855560009485529383902082516002909202019081559181015191909201805460409093015163ffffffff16600160a01b026001600160c01b03199093166001600160a01b03909216919091179190911790556144c2816158fc565b9050614414565b5050505050505050565b600054610100900460ff166144ee5760005460ff16156144f2565b303b155b61450e5760405162461bcd60e51b815260040161054c9061556b565b600054610100900460ff16158015614530576000805461ffff19166101011790555b6001600160a01b0382166145565760405162461bcd60e51b815260040161054c906155b9565b60005b83518110156145cc5760006001600160a01b031684828151811061458d57634e487b7160e01b600052603260045260246000fd5b60200260200101516001600160a01b031614156145bc5760405162461bcd60e51b815260040161054c906155b9565b6145c5816158fc565b9050614559565b5060005b83518110156146405760018060008684815181106145fe57634e487b7160e01b600052603260045260246000fd5b6020908102919091018101516001600160a01b03168252810191909152604001600020805460ff1916911515919091179055614639816158fc565b90506145d0565b5082516146549060029060208601906148ba565b50611a0182600054610100900460ff166146745760005460ff1615614678565b303b155b6146945760405162461bcd60e51b815260040161054c9061556b565b600054610100900460ff161580156146b6576000805461ffff19166101011790555b6000805462010000600160b01b031916620100006001600160a01b038516021790558015612a46576000805461ff00191690555050565b60405180606001604052806060815260200160608152602001606081525090565b508054600082556002029060005260206000209081019061472f919061490f565b50565b82805461473e906158c1565b90600052602060002090601f01602090048101928261476057600085556147a6565b82601f106147795782800160ff198235161785556147a6565b828001600101855582156147a6579182015b828111156147a657823582559160200191906001019061478b565b506147b2929150614935565b5090565b5080546147c2906158c1565b6000825580601f106147d2575050565b601f01602090049060005260206000209081019061472f9190614935565b508054600082559060005260206000209081019061472f919061494a565b508054600082556002029060005260206000209081019061472f9190614969565b604080518082019091526000808252602082015290565b828054614852906158c1565b90600052602060002090601f01602090048101928261487457600085556147a6565b82601f1061488d57805160ff19168380011785556147a6565b828001600101855582156147a6579182015b828111156147a657825182559160200191906001019061489f565b8280548282559060005260206000209081019282156147a6579160200282015b828111156147a657825182546001600160a01b0319166001600160a01b039091161782556020909201916001909101906148da565b5b808211156147b25780546001600160c01b031916815560006001820155600201614910565b5b808211156147b25760008155600101614936565b5b808211156147b25780546001600160c01b031916815560010161494b565b5b808211156147b257600081556001810180546001600160c01b031916905560020161496a565b803561499b8161599f565b919050565b60008083601f8401126149b1578081fd5b5081356001600160401b038111156149c7578182fd5b6020830191508360208260051b85010111156149e257600080fd5b9250929050565b60008083601f8401126149fa578182fd5b5081356001600160401b03811115614a10578182fd5b6020830191508360208260061b85010111156149e257600080fd5b60008083601f840112614a3c578182fd5b5081356001600160401b03811115614a52578182fd5b6020830191508360208285010111156149e257600080fd5b600060208284031215614a7b578081fd5b8135614a868161599f565b9392505050565b600060208284031215614a9e578081fd5b8151614a868161599f565b60008060408385031215614abb578081fd5b8235614ac68161599f565b946020939093013593505050565b600080600060608486031215614ae8578081fd5b8335614af38161599f565b92506020840135614b03816159c2565b91506040840135614b138161599f565b809150509250925092565b60008060008060808587031215614b33578081fd5b8435614b3e8161599f565b93506020850135614b4e816159c2565b92506040850135614b5e8161599f565b9396929550929360600135925050565b600080600080600060a08688031215614b85578081fd5b8535614b908161599f565b94506020860135614ba0816159c2565b93506040860135614bb08161599f565b9250606086013591506080860135614bc7816159b4565b809150509295509295909350565b60008060208385031215614be7578182fd5b82356001600160401b03811115614bfc578283fd5b614c08858286016149a0565b90969095509350505050565b60008060408385031215614c26578182fd5b82356001600160401b0380821115614c3c578384fd5b818501915085601f830112614c4f578384fd5b8135602082821115614c6357614c6361592d565b8160051b9250614c7481840161573f565b8281528181019085830185870184018b1015614c8e578889fd5b8896505b84871015614cbc5780359550614ca78661599f565b85835260019690960195918301918301614c92565b509650614ccc9050878201614990565b9450505050509250929050565b60008060008060408587031215614cee578182fd5b84356001600160401b0380821115614d04578384fd5b614d10888389016149a0565b90965094506020870135915080821115614d28578384fd5b50614d35878288016149a0565b95989497509550505050565b600060208284031215614d52578081fd5b8151614a86816159b4565b6000806000806000806000806080898b031215614d78578586fd5b88356001600160401b0380821115614d8e578788fd5b614d9a8c838d01614a2b565b909a50985060208b0135915080821115614db2578788fd5b614dbe8c838d016149e9565b909850965060408b0135915080821115614dd6578485fd5b818b0191508b601f830112614de9578485fd5b813581811115614df7578586fd5b8c6020606083028501011115614e0b578586fd5b6020830196508095505060608b0135915080821115614e28578384fd5b50614e358b828c016149a0565b999c989b5096995094979396929594505050565b600060408284031215614e5a578081fd5b604080519081016001600160401b0381118282101715614e7c57614e7c61592d565b6040528235614e8a8161599f565b81526020830135614e9a816159c2565b60208201529392505050565b600060608284031215614eb7578081fd5b604051606081016001600160401b0381118282101715614ed957614ed961592d565b604052823581526020830135614eee8161599f565b60208201526040830135614f01816159c2565b60408201529392505050565b600060208284031215614f1e578081fd5b5035919050565b600060208284031215614f36578081fd5b5051919050565b60008060408385031215614f4f578182fd5b823591506020830135614f618161599f565b809150509250929050565b600080600060608486031215614f80578081fd5b833592506020840135614f928161599f565b91506040840135614b13816159b4565b600080600060608486031215614fb6578081fd5b833592506020840135614fc88161599f565b929592945050506040919091013590565b600080600060408486031215614fed578081fd5b8335925060208401356001600160401b03811115615009578182fd5b615015868287016149e9565b9497909650939450505050565b600080600060408486031215615036578081fd5b8335925060208401356001600160401b03811115615052578182fd5b61501586828701614a2b565b60008060008385036080811215615073578182fd5b843593506040601f1982011215615088578182fd5b506020840191506060840135614b138161599f565b6000806000606084860312156150b1578081fd5b83359250602084013591506040840135614b138161599f565b60008060008060008060c087890312156150e2578384fd5b863595506020870135945060408701359350606087013592506080870135615109816159c2565b915060a0870135615119816159b4565b809150509295509295509295565b6000815180845260208085019450808401835b8381101561516a57815180516001600160a01b03168852830151838801526040909601959082019060010161513a565b509495945050505050565b6000815180845260208085019450808401835b8381101561516a57815180516001600160a01b0316885283015163ffffffff168388015260409096019590820190600101615188565b6000815180845260208085019450808401835b8381101561516a57815180518852838101516001600160a01b03168489015260409081015163ffffffff1690880152606090960195908201906001016151d1565b81835281816020850137506000828201602090810191909152601f909101601f19169091010190565b80356152468161599f565b6001600160a01b03168252602081013561525f816159c2565b63ffffffff81166020840152505050565b60008151606084528051806060860152825b8181101561529f5760208184018101516080888401015201615282565b818111156152b05783608083880101525b50601f19601f8201168501915050602083015160808583030160208601526152db6080830182615175565b915050604083015184820360408601526152f582826151be565b95945050505050565b6001600160a01b0391909116815260200190565b6020808252825182820181905260009190848201906040850190845b818110156153535783516001600160a01b03168352928401929184019160010161532e565b50909695505050505050565b60608082528181018790526000908860808401835b8a81101561539957615386828461523b565b6040928301929190910190600101615374565b50848103602086810191909152888252915088908201845b898110156154005782358252838301356153ca8161599f565b6001600160a01b0316828501526040838101356153e6816159c2565b63ffffffff169083015291840191908401906001016153b1565b50858103604087015261541481888a615212565b9c9b505050505050505050505050565b6000604080830181845280865180835260608601915060608160051b87010192506020808901865b8381101561548b57888603605f1901855281518051875283015183870188905261547888880182615127565b965050938201939082019060010161544c565b5050868403818801525050506154a18186615127565b9695505050505050565b6000602080830181845280855180835260408601915060408160051b8701019250838701855b828110156154ff57603f198886030184526154ed858351615270565b945092850192908501906001016154d1565b5092979650505050505050565b60208101600e831061552e57634e487b7160e01b600052602160045260246000fd5b91905290565b602081526000613e05602083018486615212565b6020808252600990820152683130b2103a37b5b2b760b91b604082015260600190565b6020808252602e908201527f496e697469616c697a61626c653a20636f6e747261637420697320616c72656160408201526d191e481a5b9a5d1a585b1a5e995960921b606082015260800190565b6020808252600b908201526a626164206164647265737360a81b604082015260600190565b60208082526010908201526f696e76616c696420737472617465677960801b604082015260600190565b6020808252602e908201527f436f6e74726f6c6c65643a3a6f6e6c794d616e616765723a2043616c6c65722060408201526d34b9903737ba1036b0b730b3b2b960911b606082015260800190565b6020808252600f908201526e3130b21034b73a32b3b930ba34b7b760891b604082015260600190565b602080825260129082015271696e73756666696369656e742066756e647360701b604082015260600190565b60208082526034908201527f436f6e74726f6c6c65643a3a6f6e6c79436f6e74726f6c6c65723a2043616c6c60408201527332b91034b9903737ba1031b7b73a3937b63632b960611b606082015260800190565b602081526000614a866020830184615270565b83815260808101615726602083018561523b565b6001600160a01b03929092166060919091015292915050565b604051601f8201601f191681016001600160401b03811182821017156157675761576761592d565b604052919050565b600080821280156001600160ff1b038490038513161561579157615791615917565b600160ff1b83900384128116156157aa576157aa615917565b50500190565b600082198211156157c3576157c3615917565b500190565b600063ffffffff8083168185168083038211156157e7576157e7615917565b01949350505050565b60008261580b57634e487b7160e01b81526012600452602481fd5b500490565b600081600019048311821515161561582a5761582a615917565b500290565b60008083128015600160ff1b85018412161561584d5761584d615917565b6001600160ff1b038401831381161561586857615868615917565b50500390565b60008282101561588057615880615917565b500390565b600063ffffffff838116908316818110156158a2576158a2615917565b039392505050565b6000816158b9576158b9615917565b506000190190565b600181811c908216806158d557607f821691505b602082108114156158f657634e487b7160e01b600052602260045260246000fd5b50919050565b600060001982141561591057615910615917565b5060010190565b634e487b7160e01b600052601160045260246000fd5b634e487b7160e01b600052604160045260246000fd5b813561594e8161599f565b81546001600160a01b031981166001600160a01b03929092169182178355602084013561597a816159c2565b6001600160c01b03199190911690911760a09190911b63ffffffff60a01b1617905550565b6001600160a01b038116811461472f57600080fd5b801515811461472f57600080fd5b63ffffffff8116811461472f57600080fdfea2646970667358221220d2b727b5a3d86fc6b1215d59649c91db349cac89815ea8faefc43b2bfa1e3a7f64736f6c63430008040033",
  "devdoc": {
    "kind": "dev",
    "methods": {
      "addStrategy(string,(address,uint32)[],(uint256,address,uint32)[],uint256[])": {
        "params": {
          "integrations": "the integrations and weights that form the strategy",
          "maxCap": "The maximum amount investable in a strategy",
          "name": "the name of the new strategy"
        }
      },
      "clearClosablePositions(address[])": {
        "params": {
          "tokens": "The list of tokens to clear"
        }
      },
      "closePositionsForWithdrawal(address,uint256)": {
        "params": {
          "amount": "the amount to source",
          "token": "the token to source"
        }
      },
      "decreaseDeployAmountChange(address,uint32,address,uint256)": {
        "params": {
          "amount": "the amount to reduce the vector by",
          "integration": "the integration that was changed",
          "poolID": "the pool within the integration that handled the tokens",
          "token": "the token to decrease for"
        }
      },
      "decreaseStrategy(uint256,(address,uint256)[])": {
        "params": {
          "id": "the strategy to withdraw assets from",
          "tokens": "details of the tokens being deposited"
        }
      },
      "deleteStrategy(uint256)": {
        "details": "This can only be called successfully if the strategy being deleted doesn't have any assets invested in it.To delete a strategy with funds deployed in it, first update the strategy so that the existing tokens are no longer available in the strategy, then delete the strategy. This will unwind the users positions, and they will be able to withdraw their funds.",
        "params": {
          "id": "the strategy to delete"
        }
      },
      "getDeployAmount(address,uint32,address)": {
        "params": {
          "integration": "the integration to deploy to",
          "poolID": "the pool within the integration that should receive the tokens",
          "token": "the token to be deployed"
        },
        "returns": {
          "_0": "the pending deploy amount"
        }
      },
      "getMaximumCap(uint256,address)": {
        "params": {
          "id": "the strategy id",
          "token": "the token address"
        },
        "returns": {
          "cap": " the maximum cap for the strategy/token pair"
        }
      },
      "getMultipleStrategies(uint256[])": {
        "params": {
          "ids": "The ids of the strategies to return."
        }
      },
      "getStrategy(uint256)": {
        "params": {
          "id": "the strategy to return"
        }
      },
      "getStrategyBalances(uint256[],address[])": {
        "params": {
          "_strategies": "The strategies to retrieve balances for",
          "_tokens": "The tokens to retrieve"
        }
      },
      "getStrategyTokenBalance(uint256,address)": {
        "params": {
          "id": "the strategy id to check",
          "token": "The token to retrieve the balance for"
        },
        "returns": {
          "amount": " the amount of token that is invested in the strategy"
        }
      },
      "getStrategyTokenLength(uint256)": {
        "params": {
          "strategy": "the strategy to look up"
        },
        "returns": {
          "_0": "the length"
        }
      },
      "getTokenTotalBalance(address)": {
        "params": {
          "token": "the token to fetch the balance for"
        },
        "returns": {
          "amount": " the amount of the token currently invested"
        }
      },
      "increaseStrategy(uint256,(address,uint256)[])": {
        "params": {
          "id": "the strategy to deposit into",
          "tokens": "the tokens to deposit"
        }
      },
      "movePairWeight(uint256,uint256,uint256,int256,uint32,bool)": {
        "details": "Changes weights of integrations, optionally rebalancing the integrations so that current fund allocation reflects new weights"
      },
      "setMaximumCap(uint256,address,uint256)": {
        "params": {
          "id": "The strategy id",
          "maxCap": "The maximum amount of funds that can be invested",
          "token": "the token address"
        }
      },
      "updateName(uint256,string)": {
        "params": {
          "name": "the new name"
        }
      }
    },
    "version": 1
  },
  "userdoc": {
    "kind": "user",
    "methods": {
      "addStrategy(string,(address,uint32)[],(uint256,address,uint32)[],uint256[])": {
        "notice": "Adds a new strategy to the list of available strategies"
      },
      "clearClosablePositions(address[])": {
        "notice": "Clears the list of positions that can be closed to supply a token"
      },
      "closePositionsForWithdrawal(address,uint256)": {
        "notice": "Closes enough positions to provide a requested amount of a token"
      },
      "decreaseDeployAmountChange(address,uint32,address,uint256)": {
        "notice": "Decreases the deployable amount after a deployment/withdrawal"
      },
      "decreaseStrategy(uint256,(address,uint256)[])": {
        "notice": "Decreases the amount of a set of tokens invested in a strategy"
      },
      "deleteStrategy(uint256)": {
        "notice": "Deletes a strategy"
      },
      "getDeployAmount(address,uint32,address)": {
        "notice": "Returns the current amount awaiting deployment"
      },
      "getMaximumCap(uint256,address)": {
        "notice": "Retrieves the maximum cap for a strategy/token pair"
      },
      "getMultipleStrategies(uint256[])": {
        "notice": "Returns 1 or more strategies in a single call."
      },
      "getStrategy(uint256)": {
        "notice": "Getter function to return the nested arrays as well as the name"
      },
      "getStrategyBalances(uint256[],address[])": {
        "notice": "Returns balances per strategy, and total invested balances"
      },
      "getStrategyTokenBalance(uint256,address)": {
        "notice": "Returns the amount of a given token currently invested in a strategy"
      },
      "getStrategyTokenLength(uint256)": {
        "notice": "returns the length of the tokens array in a strategy"
      },
      "getTokenTotalBalance(address)": {
        "notice": "Returns the total amount of a token invested across all strategies"
      },
      "idCounter()": {
        "notice": "autogenerated getter definition"
      },
      "increaseStrategy(uint256,(address,uint256)[])": {
        "notice": "Increases the amount of a set of tokens in a strategy"
      },
      "setMaximumCap(uint256,address,uint256)": {
        "notice": "Sets the maximum investment cap for a strategy and token pair"
      },
      "updateName(uint256,string)": {
        "notice": "Updates the strategy name"
      }
    },
    "version": 1
  },
  "storageLayout": {
    "storage": [
      {
        "astId": 702,
        "contract": "contracts/core/StrategyMap.sol:StrategyMap",
        "label": "_initialized",
        "offset": 0,
        "slot": "0",
        "type": "t_bool"
      },
      {
        "astId": 705,
        "contract": "contracts/core/StrategyMap.sol:StrategyMap",
        "label": "_initializing",
        "offset": 1,
        "slot": "0",
        "type": "t_bool"
      },
      {
        "astId": 11413,
        "contract": "contracts/core/StrategyMap.sol:StrategyMap",
        "label": "moduleMap",
        "offset": 2,
        "slot": "0",
        "type": "t_contract(IModuleMap)22749"
      },
      {
        "astId": 5923,
        "contract": "contracts/core/StrategyMap.sol:StrategyMap",
        "label": "_controllers",
        "offset": 0,
        "slot": "1",
        "type": "t_mapping(t_address,t_bool)"
      },
      {
        "astId": 5926,
        "contract": "contracts/core/StrategyMap.sol:StrategyMap",
        "label": "controllers",
        "offset": 0,
        "slot": "2",
        "type": "t_array(t_address)dyn_storage"
      },
      {
        "astId": 11603,
        "contract": "contracts/core/StrategyMap.sol:StrategyMap",
        "label": "strategies",
        "offset": 0,
        "slot": "3",
        "type": "t_mapping(t_uint256,t_struct(Strategy)23895_storage)"
      },
      {
        "astId": 11607,
        "contract": "contracts/core/StrategyMap.sol:StrategyMap",
        "label": "tokenBalances",
        "offset": 0,
        "slot": "4",
        "type": "t_mapping(t_address,t_uint256)"
      },
      {
        "astId": 11613,
        "contract": "contracts/core/StrategyMap.sol:StrategyMap",
        "label": "strategyTokenBalances",
        "offset": 0,
        "slot": "5",
        "type": "t_mapping(t_uint256,t_mapping(t_address,t_uint256))"
      },
      {
        "astId": 11621,
        "contract": "contracts/core/StrategyMap.sol:StrategyMap",
        "label": "deployAmount",
        "offset": 0,
        "slot": "6",
        "type": "t_mapping(t_address,t_mapping(t_uint32,t_mapping(t_address,t_int256)))"
      },
      {
        "astId": 11627,
        "contract": "contracts/core/StrategyMap.sol:StrategyMap",
        "label": "_closablePositions",
        "offset": 0,
        "slot": "7",
        "type": "t_mapping(t_address,t_array(t_struct(ClosablePosition)23925_storage)dyn_storage)"
      },
      {
        "astId": 11630,
        "contract": "contracts/core/StrategyMap.sol:StrategyMap",
        "label": "idCounter",
        "offset": 0,
        "slot": "8",
        "type": "t_uint256"
      },
      {
        "astId": 11634,
        "contract": "contracts/core/StrategyMap.sol:StrategyMap",
        "label": "tokenWeights",
        "offset": 0,
        "slot": "9",
        "type": "t_mapping(t_address,t_uint256)"
      }
    ],
    "types": {
      "t_address": {
        "encoding": "inplace",
        "label": "address",
        "numberOfBytes": "20"
      },
      "t_array(t_address)dyn_storage": {
        "base": "t_address",
        "encoding": "dynamic_array",
        "label": "address[]",
        "numberOfBytes": "32"
      },
      "t_array(t_struct(ClosablePosition)23925_storage)dyn_storage": {
        "base": "t_struct(ClosablePosition)23925_storage",
        "encoding": "dynamic_array",
        "label": "struct IStrategyMap.ClosablePosition[]",
        "numberOfBytes": "32"
      },
      "t_array(t_struct(Integration)23860_storage)dyn_storage": {
        "base": "t_struct(Integration)23860_storage",
        "encoding": "dynamic_array",
        "label": "struct IStrategyMap.Integration[]",
        "numberOfBytes": "32"
      },
      "t_array(t_struct(Token)23867_storage)dyn_storage": {
        "base": "t_struct(Token)23867_storage",
        "encoding": "dynamic_array",
        "label": "struct IStrategyMap.Token[]",
        "numberOfBytes": "32"
      },
      "t_bool": {
        "encoding": "inplace",
        "label": "bool",
        "numberOfBytes": "1"
      },
      "t_contract(IModuleMap)22749": {
        "encoding": "inplace",
        "label": "contract IModuleMap",
        "numberOfBytes": "20"
      },
      "t_int256": {
        "encoding": "inplace",
        "label": "int256",
        "numberOfBytes": "32"
      },
      "t_mapping(t_address,t_array(t_struct(ClosablePosition)23925_storage)dyn_storage)": {
        "encoding": "mapping",
        "key": "t_address",
        "label": "mapping(address => struct IStrategyMap.ClosablePosition[])",
        "numberOfBytes": "32",
        "value": "t_array(t_struct(ClosablePosition)23925_storage)dyn_storage"
      },
      "t_mapping(t_address,t_bool)": {
        "encoding": "mapping",
        "key": "t_address",
        "label": "mapping(address => bool)",
        "numberOfBytes": "32",
        "value": "t_bool"
      },
      "t_mapping(t_address,t_int256)": {
        "encoding": "mapping",
        "key": "t_address",
        "label": "mapping(address => int256)",
        "numberOfBytes": "32",
        "value": "t_int256"
      },
      "t_mapping(t_address,t_mapping(t_uint32,t_mapping(t_address,t_int256)))": {
        "encoding": "mapping",
        "key": "t_address",
        "label": "mapping(address => mapping(uint32 => mapping(address => int256)))",
        "numberOfBytes": "32",
        "value": "t_mapping(t_uint32,t_mapping(t_address,t_int256))"
      },
      "t_mapping(t_address,t_uint256)": {
        "encoding": "mapping",
        "key": "t_address",
        "label": "mapping(address => uint256)",
        "numberOfBytes": "32",
        "value": "t_uint256"
      },
      "t_mapping(t_uint256,t_mapping(t_address,t_uint256))": {
        "encoding": "mapping",
        "key": "t_uint256",
        "label": "mapping(uint256 => mapping(address => uint256))",
        "numberOfBytes": "32",
        "value": "t_mapping(t_address,t_uint256)"
      },
      "t_mapping(t_uint256,t_struct(Strategy)23895_storage)": {
        "encoding": "mapping",
        "key": "t_uint256",
        "label": "mapping(uint256 => struct IStrategyMap.Strategy)",
        "numberOfBytes": "32",
        "value": "t_struct(Strategy)23895_storage"
      },
      "t_mapping(t_uint32,t_mapping(t_address,t_int256))": {
        "encoding": "mapping",
        "key": "t_uint32",
        "label": "mapping(uint32 => mapping(address => int256))",
        "numberOfBytes": "32",
        "value": "t_mapping(t_address,t_int256)"
      },
      "t_string_storage": {
        "encoding": "bytes",
        "label": "string",
        "numberOfBytes": "32"
      },
      "t_struct(ClosablePosition)23925_storage": {
        "encoding": "inplace",
        "label": "struct IStrategyMap.ClosablePosition",
        "members": [
          {
            "astId": 23920,
            "contract": "contracts/core/StrategyMap.sol:StrategyMap",
            "label": "integration",
            "offset": 0,
            "slot": "0",
            "type": "t_address"
          },
          {
            "astId": 23922,
            "contract": "contracts/core/StrategyMap.sol:StrategyMap",
            "label": "ammPoolID",
            "offset": 20,
            "slot": "0",
            "type": "t_uint32"
          },
          {
            "astId": 23924,
            "contract": "contracts/core/StrategyMap.sol:StrategyMap",
            "label": "amount",
            "offset": 0,
            "slot": "1",
            "type": "t_uint256"
          }
        ],
        "numberOfBytes": "64"
      },
      "t_struct(Integration)23860_storage": {
        "encoding": "inplace",
        "label": "struct IStrategyMap.Integration",
        "members": [
          {
            "astId": 23857,
            "contract": "contracts/core/StrategyMap.sol:StrategyMap",
            "label": "integration",
            "offset": 0,
            "slot": "0",
            "type": "t_address"
          },
          {
            "astId": 23859,
            "contract": "contracts/core/StrategyMap.sol:StrategyMap",
            "label": "ammPoolID",
            "offset": 20,
            "slot": "0",
            "type": "t_uint32"
          }
        ],
        "numberOfBytes": "32"
      },
      "t_struct(Strategy)23895_storage": {
        "encoding": "inplace",
        "label": "struct IStrategyMap.Strategy",
        "members": [
          {
            "astId": 23878,
            "contract": "contracts/core/StrategyMap.sol:StrategyMap",
            "label": "name",
            "offset": 0,
            "slot": "0",
            "type": "t_string_storage"
          },
          {
            "astId": 23882,
            "contract": "contracts/core/StrategyMap.sol:StrategyMap",
            "label": "integrations",
            "offset": 0,
            "slot": "1",
            "type": "t_array(t_struct(Integration)23860_storage)dyn_storage"
          },
          {
            "astId": 23886,
            "contract": "contracts/core/StrategyMap.sol:StrategyMap",
            "label": "tokens",
            "offset": 0,
            "slot": "2",
            "type": "t_array(t_struct(Token)23867_storage)dyn_storage"
          },
          {
            "astId": 23890,
            "contract": "contracts/core/StrategyMap.sol:StrategyMap",
            "label": "availableTokens",
            "offset": 0,
            "slot": "3",
            "type": "t_mapping(t_address,t_bool)"
          },
          {
            "astId": 23894,
            "contract": "contracts/core/StrategyMap.sol:StrategyMap",
            "label": "maximumCap",
            "offset": 0,
            "slot": "4",
            "type": "t_mapping(t_address,t_uint256)"
          }
        ],
        "numberOfBytes": "160"
      },
      "t_struct(Token)23867_storage": {
        "encoding": "inplace",
        "label": "struct IStrategyMap.Token",
        "members": [
          {
            "astId": 23862,
            "contract": "contracts/core/StrategyMap.sol:StrategyMap",
            "label": "integrationPairIdx",
            "offset": 0,
            "slot": "0",
            "type": "t_uint256"
          },
          {
            "astId": 23864,
            "contract": "contracts/core/StrategyMap.sol:StrategyMap",
            "label": "token",
            "offset": 0,
            "slot": "1",
            "type": "t_address"
          },
          {
            "astId": 23866,
            "contract": "contracts/core/StrategyMap.sol:StrategyMap",
            "label": "weight",
            "offset": 20,
            "slot": "1",
            "type": "t_uint32"
          }
        ],
        "numberOfBytes": "64"
      },
      "t_uint256": {
        "encoding": "inplace",
        "label": "uint256",
        "numberOfBytes": "32"
      },
      "t_uint32": {
        "encoding": "inplace",
        "label": "uint32",
        "numberOfBytes": "4"
      }
    }
  }
}