{
  "address": "0xac34706eBAF42f5f7661D811C7398590f50FC068",
  "abi": [
    {
      "anonymous": false,
      "inputs": [
        {
          "indexed": true,
          "internalType": "address",
          "name": "tokenA",
          "type": "address"
        },
        {
          "indexed": true,
          "internalType": "address",
          "name": "tokenB",
          "type": "address"
        },
        {
          "indexed": false,
          "internalType": "uint32",
          "name": "poolID",
          "type": "uint32"
        }
      ],
      "name": "CreatePool",
      "type": "event"
    },
    {
      "anonymous": false,
      "inputs": [
        {
          "indexed": false,
          "internalType": "uint256",
          "name": "poolId",
          "type": "uint256"
        },
        {
          "indexed": false,
          "internalType": "uint256",
          "name": "amount",
          "type": "uint256"
        }
      ],
      "name": "DepositToPool",
      "type": "event"
    },
    {
      "anonymous": false,
      "inputs": [
        {
          "indexed": true,
          "internalType": "uint32",
          "name": "poolID",
          "type": "uint32"
        }
      ],
      "name": "HarvestYieldError",
      "type": "event"
    },
    {
      "anonymous": false,
      "inputs": [
        {
          "indexed": false,
          "internalType": "uint256",
          "name": "amount",
          "type": "uint256"
        }
      ],
      "name": "LPTokensAcquired",
      "type": "event"
    },
    {
      "anonymous": false,
      "inputs": [
        {
          "indexed": false,
          "internalType": "uint256",
          "name": "poolId",
          "type": "uint256"
        },
        {
          "indexed": false,
          "internalType": "address",
          "name": "tokenSold",
          "type": "address"
        },
        {
          "indexed": false,
          "internalType": "uint256",
          "name": "amountSold",
          "type": "uint256"
        },
        {
          "indexed": false,
          "internalType": "address",
          "name": "tokenBought",
          "type": "address"
        },
        {
          "indexed": false,
          "internalType": "uint256",
          "name": "amountBought",
          "type": "uint256"
        }
      ],
      "name": "PoolRebalanced",
      "type": "event"
    },
    {
      "anonymous": false,
      "inputs": [
        {
          "indexed": false,
          "internalType": "uint256",
          "name": "amount",
          "type": "uint256"
        }
      ],
      "name": "TokensReceived",
      "type": "event"
    },
    {
      "anonymous": false,
      "inputs": [
        {
          "indexed": false,
          "internalType": "uint256",
          "name": "poolId",
          "type": "uint256"
        },
        {
          "indexed": false,
          "internalType": "uint256",
          "name": "amount",
          "type": "uint256"
        }
      ],
      "name": "WithdrawnFromPool",
      "type": "event"
    },
    {
      "anonymous": false,
      "inputs": [
        {
          "indexed": false,
          "internalType": "uint256",
          "name": "amount",
          "type": "uint256"
        }
      ],
      "name": "YieldReceived",
      "type": "event"
    },
    {
      "inputs": [
        {
          "internalType": "address[]",
          "name": "controllers_",
          "type": "address[]"
        },
        {
          "internalType": "address",
          "name": "moduleMap_",
          "type": "address"
        }
      ],
      "name": "__Controlled_init",
      "outputs": [],
      "stateMutability": "nonpayable",
      "type": "function"
    },
    {
      "inputs": [
        {
          "internalType": "address",
          "name": "controller",
          "type": "address"
        }
      ],
      "name": "addController",
      "outputs": [],
      "stateMutability": "nonpayable",
      "type": "function"
    },
    {
      "inputs": [
        {
          "internalType": "uint32",
          "name": "poolId",
          "type": "uint32"
        },
        {
          "internalType": "uint256",
          "name": "masterChefPoolId",
          "type": "uint256"
        }
      ],
      "name": "configureStaking",
      "outputs": [],
      "stateMutability": "nonpayable",
      "type": "function"
    },
    {
      "inputs": [
        {
          "internalType": "uint32",
          "name": "poolId",
          "type": "uint32"
        },
        {
          "internalType": "uint256",
          "name": "masterChefPoolId",
          "type": "uint256"
        }
      ],
      "name": "configureStakingOverwrite",
      "outputs": [],
      "stateMutability": "nonpayable",
      "type": "function"
    },
    {
      "inputs": [
        {
          "internalType": "uint256",
          "name": "",
          "type": "uint256"
        }
      ],
      "name": "controllers",
      "outputs": [
        {
          "internalType": "address",
          "name": "",
          "type": "address"
        }
      ],
      "stateMutability": "view",
      "type": "function"
    },
    {
      "inputs": [],
      "name": "countExtraSushi",
      "outputs": [
        {
          "internalType": "uint256",
          "name": "extraSushi",
          "type": "uint256"
        },
        {
          "internalType": "uint256",
          "name": "accountedSushi",
          "type": "uint256"
        }
      ],
      "stateMutability": "nonpayable",
      "type": "function"
    },
    {
      "inputs": [
        {
          "internalType": "address",
          "name": "tokenA",
          "type": "address"
        },
        {
          "internalType": "address",
          "name": "tokenB",
          "type": "address"
        },
        {
          "internalType": "uint256",
          "name": "",
          "type": "uint256"
        }
      ],
      "name": "createPool",
      "outputs": [],
      "stateMutability": "nonpayable",
      "type": "function"
    },
    {
      "inputs": [
        {
          "internalType": "uint32",
          "name": "poolId",
          "type": "uint32"
        },
        {
          "internalType": "address",
          "name": "token",
          "type": "address"
        },
        {
          "internalType": "uint256",
          "name": "amount",
          "type": "uint256"
        }
      ],
      "name": "decrementBalance",
      "outputs": [],
      "stateMutability": "nonpayable",
      "type": "function"
    },
    {
      "inputs": [
        {
          "internalType": "uint32",
          "name": "poolId",
          "type": "uint32"
        }
      ],
      "name": "deploy",
      "outputs": [],
      "stateMutability": "nonpayable",
      "type": "function"
    },
    {
      "inputs": [
        {
          "internalType": "address",
          "name": "tokenAddress",
          "type": "address"
        },
        {
          "internalType": "uint256",
          "name": "amount",
          "type": "uint256"
        },
        {
          "internalType": "uint32",
          "name": "poolId",
          "type": "uint32"
        }
      ],
      "name": "deposit",
      "outputs": [],
      "stateMutability": "nonpayable",
      "type": "function"
    },
    {
      "inputs": [
        {
          "internalType": "address",
          "name": "tokenIn",
          "type": "address"
        },
        {
          "internalType": "address",
          "name": "tokenOut",
          "type": "address"
        },
        {
          "internalType": "uint256",
          "name": "amountIn",
          "type": "uint256"
        }
      ],
      "name": "getAmountOut",
      "outputs": [
        {
          "internalType": "uint256",
          "name": "amountOut",
          "type": "uint256"
        }
      ],
      "stateMutability": "view",
      "type": "function"
    },
    {
      "inputs": [
        {
          "internalType": "address",
          "name": "tokenIn",
          "type": "address"
        },
        {
          "internalType": "address",
          "name": "tokenOut",
          "type": "address"
        },
        {
          "internalType": "uint256",
          "name": "amountIn",
          "type": "uint256"
        }
      ],
      "name": "getAmountOutMinimum",
      "outputs": [
        {
          "internalType": "uint256",
          "name": "amountOutMinimum",
          "type": "uint256"
        }
      ],
      "stateMutability": "view",
      "type": "function"
    },
    {
      "inputs": [
        {
          "internalType": "uint32",
          "name": "poolId",
          "type": "uint32"
        },
        {
          "internalType": "address",
          "name": "tokenAddress",
          "type": "address"
        }
      ],
      "name": "getBalance",
      "outputs": [
        {
          "internalType": "uint256",
          "name": "",
          "type": "uint256"
        }
      ],
      "stateMutability": "view",
      "type": "function"
    },
    {
      "inputs": [
        {
          "internalType": "uint32",
          "name": "poolId",
          "type": "uint32"
        }
      ],
      "name": "getHarvestedYield",
      "outputs": [
        {
          "internalType": "uint256",
          "name": "",
          "type": "uint256"
        }
      ],
      "stateMutability": "view",
      "type": "function"
    },
    {
      "inputs": [
        {
          "internalType": "uint32",
          "name": "poolId",
          "type": "uint32"
        }
      ],
      "name": "getPendingYield",
      "outputs": [
        {
          "internalType": "address[1]",
          "name": "tokens",
          "type": "address[1]"
        },
        {
          "internalType": "uint256[1]",
          "name": "amounts",
          "type": "uint256[1]"
        }
      ],
      "stateMutability": "view",
      "type": "function"
    },
    {
      "inputs": [
        {
          "internalType": "uint32",
          "name": "pid",
          "type": "uint32"
        }
      ],
      "name": "getPool",
      "outputs": [
        {
          "components": [
            {
              "internalType": "address",
              "name": "tokenA",
              "type": "address"
            },
            {
              "internalType": "address",
              "name": "tokenB",
              "type": "address"
            },
            {
              "internalType": "uint256",
              "name": "positionID",
              "type": "uint256"
            }
          ],
          "internalType": "struct IAMMIntegration.Pool",
          "name": "",
          "type": "tuple"
        }
      ],
      "stateMutability": "view",
      "type": "function"
    },
    {
      "inputs": [
        {
          "internalType": "uint32",
          "name": "poolId",
          "type": "uint32"
        }
      ],
      "name": "getPoolBalance",
      "outputs": [
        {
          "internalType": "uint256",
          "name": "tokenA",
          "type": "uint256"
        },
        {
          "internalType": "uint256",
          "name": "tokenB",
          "type": "uint256"
        }
      ],
      "stateMutability": "view",
      "type": "function"
    },
    {
      "inputs": [
        {
          "internalType": "uint32",
          "name": "poolId",
          "type": "uint32"
        }
      ],
      "name": "getStakingPoolId",
      "outputs": [
        {
          "internalType": "uint256",
          "name": "",
          "type": "uint256"
        }
      ],
      "stateMutability": "view",
      "type": "function"
    },
    {
      "inputs": [
        {
          "internalType": "uint32[]",
          "name": "pids",
          "type": "uint32[]"
        }
      ],
      "name": "getSushiBalances",
      "outputs": [
        {
          "internalType": "uint256[]",
          "name": "sushiAmounts",
          "type": "uint256[]"
        }
      ],
      "stateMutability": "view",
      "type": "function"
    },
    {
      "inputs": [],
      "name": "getTotalHarvestedYield",
      "outputs": [
        {
          "internalType": "uint256",
          "name": "amount",
          "type": "uint256"
        }
      ],
      "stateMutability": "view",
      "type": "function"
    },
    {
      "inputs": [
        {
          "internalType": "uint32[]",
          "name": "pids",
          "type": "uint32[]"
        }
      ],
      "name": "getYieldBalances",
      "outputs": [
        {
          "internalType": "uint256[]",
          "name": "amounts",
          "type": "uint256[]"
        }
      ],
      "stateMutability": "view",
      "type": "function"
    },
    {
      "inputs": [],
      "name": "harvestYield",
      "outputs": [],
      "stateMutability": "nonpayable",
      "type": "function"
    },
    {
      "inputs": [
        {
          "internalType": "uint32",
          "name": "poolId",
          "type": "uint32"
        },
        {
          "internalType": "uint256",
          "name": "sushiRatioX1000",
          "type": "uint256"
        },
        {
          "internalType": "uint256",
          "name": "",
          "type": "uint256"
        },
        {
          "internalType": "bool",
          "name": "",
          "type": "bool"
        }
      ],
      "name": "harvestYieldByPool",
      "outputs": [],
      "stateMutability": "nonpayable",
      "type": "function"
    },
    {
      "inputs": [
        {
          "internalType": "uint32",
          "name": "poolId",
          "type": "uint32"
        },
        {
          "internalType": "address",
          "name": "token",
          "type": "address"
        },
        {
          "internalType": "uint256",
          "name": "amount",
          "type": "uint256"
        }
      ],
      "name": "incrementBalance",
      "outputs": [],
      "stateMutability": "nonpayable",
      "type": "function"
    },
    {
      "inputs": [
        {
          "internalType": "address[]",
          "name": "controllers_",
          "type": "address[]"
        },
        {
          "internalType": "address",
          "name": "moduleMap_",
          "type": "address"
        },
        {
          "internalType": "address",
          "name": "factoryAddress_",
          "type": "address"
        },
        {
          "internalType": "address",
          "name": "swapRouterAddress_",
          "type": "address"
        },
        {
          "internalType": "address",
          "name": "masterChef_",
          "type": "address"
        },
        {
          "internalType": "address",
          "name": "sushi_",
          "type": "address"
        },
        {
          "internalType": "uint24",
          "name": "slippageNumerator_",
          "type": "uint24"
        }
      ],
      "name": "initialize",
      "outputs": [],
      "stateMutability": "nonpayable",
      "type": "function"
    },
    {
      "inputs": [
        {
          "internalType": "uint32",
          "name": "poolId",
          "type": "uint32"
        }
      ],
      "name": "manualDeploy",
      "outputs": [],
      "stateMutability": "nonpayable",
      "type": "function"
    },
    {
      "inputs": [
        {
          "internalType": "address",
          "name": "tokenAddress",
          "type": "address"
        },
        {
          "internalType": "uint256",
          "name": "amount",
          "type": "uint256"
        },
        {
          "internalType": "uint32",
          "name": "poolId",
          "type": "uint32"
        },
        {
          "internalType": "uint256",
          "name": "ratioX1000",
          "type": "uint256"
        }
      ],
      "name": "manualWithdraw",
      "outputs": [],
      "stateMutability": "nonpayable",
      "type": "function"
    },
    {
      "inputs": [],
      "name": "moduleMap",
      "outputs": [
        {
          "internalType": "contract IModuleMap",
          "name": "",
          "type": "address"
        }
      ],
      "stateMutability": "view",
      "type": "function"
    },
    {
      "inputs": [],
      "name": "poolCount",
      "outputs": [
        {
          "internalType": "uint32",
          "name": "",
          "type": "uint32"
        }
      ],
      "stateMutability": "view",
      "type": "function"
    },
    {
      "inputs": [
        {
          "internalType": "address",
          "name": "",
          "type": "address"
        }
      ],
      "name": "priceCeilings",
      "outputs": [
        {
          "internalType": "uint256",
          "name": "",
          "type": "uint256"
        }
      ],
      "stateMutability": "view",
      "type": "function"
    },
    {
      "inputs": [
        {
          "internalType": "uint32",
          "name": "poolId",
          "type": "uint32"
        },
        {
          "internalType": "uint256",
          "name": "ratioX1000",
          "type": "uint256"
        },
        {
          "internalType": "uint256",
          "name": "maxSellTokenA",
          "type": "uint256"
        },
        {
          "internalType": "uint256",
          "name": "maxSellTokenB",
          "type": "uint256"
        }
      ],
      "name": "rebalancePool",
      "outputs": [],
      "stateMutability": "nonpayable",
      "type": "function"
    },
    {
      "inputs": [
        {
          "internalType": "uint32",
          "name": "poolId",
          "type": "uint32"
        }
      ],
      "name": "stakeLPTokens",
      "outputs": [],
      "stateMutability": "nonpayable",
      "type": "function"
    },
    {
      "inputs": [
        {
          "internalType": "address",
          "name": "tokenAddress",
          "type": "address"
        },
        {
          "internalType": "uint256",
          "name": "amount",
          "type": "uint256"
        },
        {
          "internalType": "uint32",
          "name": "poolId",
          "type": "uint32"
        }
      ],
      "name": "withdraw",
      "outputs": [],
      "stateMutability": "nonpayable",
      "type": "function"
    },
    {
      "inputs": [
        {
          "internalType": "address",
          "name": "tokenAddress",
          "type": "address"
        },
        {
          "internalType": "uint256",
          "name": "amount",
          "type": "uint256"
        },
        {
          "internalType": "uint32",
          "name": "poolId",
          "type": "uint32"
        },
        {
          "internalType": "uint256",
          "name": "ratioX1000",
          "type": "uint256"
        }
      ],
      "name": "withdraw",
      "outputs": [],
      "stateMutability": "nonpayable",
      "type": "function"
    },
    {
      "inputs": [
        {
          "internalType": "uint32",
          "name": "",
          "type": "uint32"
        }
      ],
      "name": "yieldBalances",
      "outputs": [
        {
          "internalType": "uint256",
          "name": "",
          "type": "uint256"
        }
      ],
      "stateMutability": "view",
      "type": "function"
    },
    {
      "stateMutability": "payable",
      "type": "receive"
    }
  ],
  "transactionHash": "0x18dc799c7220ca22d71ef5a237e9be93223de47df363d7bc71916be7139eefd8",
  "args": [],
  "solcInputHash": "95f752398cd2db7b9438ee5be3183efd",
  "bytecode": "0x608060405234801561001057600080fd5b5061551c806100206000396000f3fe6080604052600436106101985760003560e01c80630c3fa05f146101a45780630f0a1c6f146101c6578063364d0f5a14610202578063403df544146102225780634aa066521461025057806351810fb51461027e5780635441c2b61461029e57806355b96180146102be57806358a0f049146102d357806359cf86da146103005780635ce564f4146103205780635f53bc4314610340578063680c3052146103605780637500ab2c146103805780637534e060146103a0578063754a0274146103c05780637db2ddfe146103e057806398c671ce1461040057806398cf119b146104205780639da46ee31461044d578063a4515d371461049d578063a7fc7a07146104d0578063a816800c146104f0578063ac211b9514610510578063b1cccca214610530578063ccbfc16c14610550578063cf73715a14610570578063d23c84b814610590578063d4617591146105c3578063e7daae2e146105e6578063e809529e14610606578063e8d991d114610633578063e94b0dd214610648578063eb40c54514610668578063f525cb681461068857600080fd5b3661019f57005b600080fd5b3480156101b057600080fd5b506101c46101bf366004614e7c565b6106ba565b005b3480156101d257600080fd5b506000546101ec906201000090046001600160a01b031681565b6040516101f99190614fae565b60405180910390f35b34801561020e57600080fd5b506101c461021d366004614ee4565b610960565b34801561022e57600080fd5b5061024261023d366004614e7c565b610a8c565b6040516101f9929190614ff5565b34801561025c57600080fd5b5061027061026b366004614a20565b610b5c565b6040519081526020016101f9565b34801561028a57600080fd5b506101c4610299366004614a20565b610c75565b3480156102aa57600080fd5b506102706102b9366004614e98565b610faf565b3480156102ca57600080fd5b50610270610fe0565b3480156102df57600080fd5b506102f36102ee366004614c7c565b611026565b6040516101f9919061505a565b34801561030c57600080fd5b506101c461031b366004614ec5565b611117565b34801561032c57600080fd5b506101c461033b366004614e7c565b611276565b34801561034c57600080fd5b506101c461035b366004614ec5565b6112b1565b34801561036c57600080fd5b506101c461037b366004614ee4565b611406565b34801561038c57600080fd5b506102f361039b366004614c7c565b611441565b3480156103ac57600080fd5b506101c46103bb366004614f0f565b61152f565b3480156103cc57600080fd5b506101c46103db366004614aa1565b6117cf565b3480156103ec57600080fd5b506101c46103fb366004614a60565b6119ed565b34801561040c57600080fd5b506101c461041b366004614ae8565b611b19565b34801561042c57600080fd5b5061027061043b3660046149e8565b600d6020526000908152604090205481565b34801561045957600080fd5b5061046d610468366004614e7c565b611c1f565b6040805182516001600160a01b0390811682526020808501519091169082015291810151908201526060016101f9565b3480156104a957600080fd5b506102706104b8366004614e7c565b63ffffffff166000908152600f602052604090205490565b3480156104dc57600080fd5b506101c46104eb3660046149e8565b611c7e565b3480156104fc57600080fd5b506101c461050b366004614aa1565b611ebc565b34801561051c57600080fd5b506101c461052b366004614f58565b611f42565b34801561053c57600080fd5b506101c461054b366004614a60565b612346565b34801561055c57600080fd5b5061027061056b366004614a20565b6123ae565b34801561057c57600080fd5b506101c461058b366004614e7c565b6123f4565b34801561059c57600080fd5b506102706105ab366004614e7c565b63ffffffff166000908152600b602052604090205490565b3480156105cf57600080fd5b506105d8612510565b6040516101f9929190615259565b3480156105f257600080fd5b506101c4610601366004614b37565b61275e565b34801561061257600080fd5b50610270610621366004614e7c565b600e6020526000908152604090205481565b34801561063f57600080fd5b506101c461294f565b34801561065457600080fd5b506101ec610663366004614dfc565b612bd9565b34801561067457600080fd5b506105d8610683366004614e7c565b612c03565b34801561069457600080fd5b506009546106a59063ffffffff1681565b60405163ffffffff90911681526020016101f9565b600080546040516337c61fc560e11b8152620100009091046001600160a01b031691636f8c3f8a916106ef919060040161509e565b60206040518083038186803b15801561070757600080fd5b505afa15801561071b573d6000803e3d6000fd5b505050506040513d601f19601f8201168201806040525081019061073f9190614a04565b6001600160a01b031663f3ae2415336040518263ffffffff1660e01b815260040161076a9190614fae565b60206040518083038186803b15801561078257600080fd5b505afa158015610796573d6000803e3d6000fd5b505050506040513d601f19601f820116820180604052508101906107ba9190614ceb565b6107df5760405162461bcd60e51b81526004016107d6906151a0565b60405180910390fd5b63ffffffff81166000908152600860209081526040808320815160608101835281546001600160a01b039081168083526001840154909116948201859052600290920154928101929092529092916108379190612c19565b6001600160a01b03166370a08231306040518263ffffffff1660e01b81526004016108629190614fae565b60206040518083038186803b15801561087a57600080fd5b505afa15801561088e573d6000803e3d6000fd5b505050506040513d601f19601f820116820180604052508101906108b29190614e14565b9050801561095b576006546000906108d2906001600160a01b0316612caa565b60055463ffffffff86166000908152600b602052604090819020549051631c57762b60e31b81529293506001600160a01b039091169163e2bbb1589161091c918690600401615259565b600060405180830381600087803b15801561093657600080fd5b505af115801561094a573d6000803e3d6000fd5b505050506109588482612d29565b50505b505050565b600080546040516337c61fc560e11b8152620100009091046001600160a01b031691636f8c3f8a91610995919060040161509e565b60206040518083038186803b1580156109ad57600080fd5b505afa1580156109c1573d6000803e3d6000fd5b505050506040513d601f19601f820116820180604052508101906109e59190614a04565b6001600160a01b031663f3ae2415336040518263ffffffff1660e01b8152600401610a109190614fae565b60206040518083038186803b158015610a2857600080fd5b505afa158015610a3c573d6000803e3d6000fd5b505050506040513d601f19601f82011682018060405250810190610a609190614ceb565b610a7c5760405162461bcd60e51b81526004016107d6906151a0565b610a8882826001612d85565b5050565b610a946148c5565b610a9c6148c5565b6006546001600160a01b03908116835263ffffffff8416600090815260106020908152604080832054600554600b9093529281902054905163065509bb60e21b81529293919091169163195426ec91610af9913090600401615242565b60206040518083038186803b158015610b1157600080fd5b505afa158015610b25573d6000803e3d6000fd5b505050506040513d601f19601f82011682018060405250810190610b499190614e14565b610b539190615340565b81529092909150565b6000808211610bb85760405162461bcd60e51b815260206004820152602260248201527f616d6f756e74496e206d7573742062652067726561746572207468616e207a65604482015261726f60f01b60648201526084016107d6565b600080610bc58686612ff5565b91509150600082118015610bd95750600081115b610c255760405162461bcd60e51b815260206004820152601d60248201527f4e6f206c697175696469747920696e20706f6f6c20726573657276657300000060448201526064016107d6565b6000610c33856103e56153a0565b90506000610c4183836153a0565b9050600082610c52866103e86153a0565b610c5c9190615340565b9050610c688183615380565b9998505050505050505050565b600080546040516337c61fc560e11b8152620100009091046001600160a01b031691636f8c3f8a91610caa919060040161509e565b60206040518083038186803b158015610cc257600080fd5b505afa158015610cd6573d6000803e3d6000fd5b505050506040513d601f19601f82011682018060405250810190610cfa9190614a04565b6001600160a01b031663f3ae2415336040518263ffffffff1660e01b8152600401610d259190614fae565b60206040518083038186803b158015610d3d57600080fd5b505afa158015610d51573d6000803e3d6000fd5b505050506040513d601f19601f82011682018060405250810190610d759190614ceb565b610d915760405162461bcd60e51b81526004016107d6906151a0565b6009805463ffffffff16906000610da783615441565b825463ffffffff91821661010093840a9081029083021990911617909255600980548316600090815260086020819052604080832080546001600160a01b03808d166001600160a01b03199283168117909355865489168652838620600190810180548e84169416939093179092559554600a805492830181559095529283047fc65a7bb8d6351c1cf70c95a316cc6a92839c986682d98bc35f958f4883f9d2a801805460046007909516850290970a948816850294909702199095169290921790945583549051636eb1769f60e11b81526000199550929363dd62ed3e93610e94933093169101614fc2565b60206040518083038186803b158015610eac57600080fd5b505afa158015610ec0573d6000803e3d6000fd5b505050506040513d601f19601f82011682018060405250810190610ee49190614e14565b1015610f0657600454610f06906001600160a01b0385811691166000196130cc565b60048054604051636eb1769f60e11b8152600019926001600160a01b038681169363dd62ed3e93610f3d9330939092169101614fc2565b60206040518083038186803b158015610f5557600080fd5b505afa158015610f69573d6000803e3d6000fd5b505050506040513d601f19601f82011682018060405250810190610f8d9190614e14565b101561095b5760045461095b906001600160a01b0384811691166000196130cc565b63ffffffff82166000908152600c602090815260408083206001600160a01b03851684529091529020545b92915050565b6000805b60095463ffffffff9081169082161015611022576110066104b8826001615358565b6110109083615340565b915061101b81615441565b9050610fe4565b5090565b6060816001600160401b0381111561104e57634e487b7160e01b600052604160045260246000fd5b604051908082528060200260200182016040528015611077578160200160208202803683370190505b50905060005b82811015611110576110d58484838181106110a857634e487b7160e01b600052603260045260246000fd5b90506020020160208101906110bd9190614e7c565b63ffffffff166000908152600e602052604090205490565b8282815181106110f557634e487b7160e01b600052603260045260246000fd5b602090810291909101015261110981615426565b905061107d565b5092915050565b600080546040516337c61fc560e11b8152620100009091046001600160a01b031691636f8c3f8a9161114c919060040161509e565b60206040518083038186803b15801561116457600080fd5b505afa158015611178573d6000803e3d6000fd5b505050506040513d601f19601f8201168201806040525081019061119c9190614a04565b6001600160a01b031663f3ae2415336040518263ffffffff1660e01b81526004016111c79190614fae565b60206040518083038186803b1580156111df57600080fd5b505afa1580156111f3573d6000803e3d6000fd5b505050506040513d601f19601f820116820180604052508101906112179190614ceb565b6112335760405162461bcd60e51b81526004016107d6906151a0565b63ffffffff83166000908152600c602090815260408083206001600160a01b03861684529091528120805483929061126c908490615340565b9091555050505050565b3360009081526001602052604090205460ff166112a55760405162461bcd60e51b81526004016107d6906151ee565b6112ae81613215565b50565b600080546040516337c61fc560e11b8152620100009091046001600160a01b031691636f8c3f8a916112e6919060040161509e565b60206040518083038186803b1580156112fe57600080fd5b505afa158015611312573d6000803e3d6000fd5b505050506040513d601f19601f820116820180604052508101906113369190614a04565b6001600160a01b031663f3ae2415336040518263ffffffff1660e01b81526004016113619190614fae565b60206040518083038186803b15801561137957600080fd5b505afa15801561138d573d6000803e3d6000fd5b505050506040513d601f19601f820116820180604052508101906113b19190614ceb565b6113cd5760405162461bcd60e51b81526004016107d6906151a0565b63ffffffff83166000908152600c602090815260408083206001600160a01b03861684529091528120805483929061126c9084906153e3565b3360009081526001602052604090205460ff166114355760405162461bcd60e51b81526004016107d6906151ee565b610a8882826000612d85565b6060816001600160401b0381111561146957634e487b7160e01b600052604160045260246000fd5b604051908082528060200260200182016040528015611492578160200160208202803683370190505b50905060005b8281101561111057601060008585848181106114c457634e487b7160e01b600052603260045260246000fd5b90506020020160208101906114d99190614e7c565b63ffffffff1663ffffffff1681526020019081526020016000205482828151811061151457634e487b7160e01b600052603260045260246000fd5b602090810291909101015261152881615426565b9050611498565b600080546040516337c61fc560e11b8152620100009091046001600160a01b031691636f8c3f8a91611564919060040161509e565b60206040518083038186803b15801561157c57600080fd5b505afa158015611590573d6000803e3d6000fd5b505050506040513d601f19601f820116820180604052508101906115b49190614a04565b6001600160a01b031663f3ae2415336040518263ffffffff1660e01b81526004016115df9190614fae565b60206040518083038186803b1580156115f757600080fd5b505afa15801561160b573d6000803e3d6000fd5b505050506040513d601f19601f8201168201806040525081019061162f9190614ceb565b61164b5760405162461bcd60e51b81526004016107d6906151a0565b600654600090611663906001600160a01b0316612caa565b60055463ffffffff87166000908152600b6020526040808220549051631c57762b60e31b81529394506001600160a01b039092169263e2bbb158926116ac929091600401615259565b600060405180830381600087803b1580156116c657600080fd5b505af11580156116da573d6000803e3d6000fd5b505050506116e88582612d29565b5063ffffffff851660009081526010602052604090205480156117c757600654600754611722916001600160a01b039081169116876135a1565b60065460075460009161174e916001600160a01b03918216911630856117498484836123ae565b6136f4565b63ffffffff881660009081526010602052604081205580519091508190600190811061178a57634e487b7160e01b600052603260045260246000fd5b6020026020010151600e60008963ffffffff1663ffffffff16815260200190815260200160002060008282546117c09190615340565b9091555050505b505050505050565b600080546040516337c61fc560e11b8152620100009091046001600160a01b031691636f8c3f8a91611804919060040161509e565b60206040518083038186803b15801561181c57600080fd5b505afa158015611830573d6000803e3d6000fd5b505050506040513d601f19601f820116820180604052508101906118549190614a04565b6001600160a01b031663f3ae2415336040518263ffffffff1660e01b815260040161187f9190614fae565b60206040518083038186803b15801561189757600080fd5b505afa1580156118ab573d6000803e3d6000fd5b505050506040513d601f19601f820116820180604052508101906118cf9190614ceb565b6118eb5760405162461bcd60e51b81526004016107d6906151a0565b6118f58285610faf565b83116119d957600080546040516337c61fc560e11b815261199592620100009092046001600160a01b031691636f8c3f8a91611934919060040161509e565b60206040518083038186803b15801561194c57600080fd5b505afa158015611960573d6000803e3d6000fd5b505050506040513d601f19601f820116820180604052508101906119849190614a04565b6001600160a01b03861690856138ca565b63ffffffff82166000908152600c602090815260408083206001600160a01b0388168452909152812080548592906119ce9084906153e3565b909155506119e79050565b6119e78484848460006138e9565b50505050565b3360009081526001602052604090205460ff16611a1c5760405162461bcd60e51b81526004016107d6906151ee565b611a268184610faf565b8211611b0a57600080546040516337c61fc560e11b8152611ac692620100009092046001600160a01b031691636f8c3f8a91611a65919060040161509e565b60206040518083038186803b158015611a7d57600080fd5b505afa158015611a91573d6000803e3d6000fd5b505050506040513d601f19601f82011682018060405250810190611ab59190614a04565b6001600160a01b03851690846138ca565b63ffffffff81166000908152600c602090815260408083206001600160a01b038716845290915281208054849290611aff9084906153e3565b9091555061095b9050565b61095b838383600060016138e9565b600054610100900460ff16611b345760005460ff1615611b38565b303b155b611b545760405162461bcd60e51b81526004016107d690615126565b600054610100900460ff16158015611b76576000805461ffff19166101011790555b60005b8351811015611beb576001806000868481518110611ba757634e487b7160e01b600052603260045260246000fd5b6020908102919091018101516001600160a01b03168252810191909152604001600020805460ff191691151591909117905580611be381615426565b915050611b79565b508251611bff9060029060208601906148e3565b50611c0982613afb565b801561095b576000805461ff0019169055505050565b60408051606080820183526000808352602080840182905292840181905263ffffffff94909416845260088252928290208251938401835280546001600160a01b03908116855260018201541691840191909152600201549082015290565b600080546040516337c61fc560e11b8152620100009091046001600160a01b031691636f8c3f8a91611cb3919060040161509e565b60206040518083038186803b158015611ccb57600080fd5b505afa158015611cdf573d6000803e3d6000fd5b505050506040513d601f19601f82011682018060405250810190611d039190614a04565b6001600160a01b0316632f54bf6e336040518263ffffffff1660e01b8152600401611d2e9190614fae565b60206040518083038186803b158015611d4657600080fd5b505afa158015611d5a573d6000803e3d6000fd5b505050506040513d601f19601f82011682018060405250810190611d7e9190614ceb565b611ddd5760405162461bcd60e51b815260206004820152602a60248201527f436f6e74726f6c6c65643a3a6f6e6c794f776e65723a2043616c6c6572206973604482015269103737ba1037bbb732b960b11b60648201526084016107d6565b6001600160a01b03811660009081526001602081905260408220805460ff19169091179055805b600254811015611e655760028181548110611e2f57634e487b7160e01b600052603260045260246000fd5b6000918252602090912001546001600160a01b0384811691161415611e5357600191505b80611e5d81615426565b915050611e04565b5080610a8857600280546001810182556000919091527f405787fa12a823e0f2b7631cc41b3ba8828b3321ca811111fa75cd3aa3bb5ace0180546001600160a01b0384166001600160a01b03199091161790555050565b3360009081526001602052604090205460ff16611eeb5760405162461bcd60e51b81526004016107d6906151ee565b611ef58285610faf565b8311611f3457600080546040516337c61fc560e11b815261199592620100009092046001600160a01b031691636f8c3f8a91611934919060040161509e565b6119e78484848460016138e9565b600080546040516337c61fc560e11b8152620100009091046001600160a01b031691636f8c3f8a91611f77919060040161509e565b60206040518083038186803b158015611f8f57600080fd5b505afa158015611fa3573d6000803e3d6000fd5b505050506040513d601f19601f82011682018060405250810190611fc79190614a04565b6001600160a01b031663f3ae2415336040518263ffffffff1660e01b8152600401611ff29190614fae565b60206040518083038186803b15801561200a57600080fd5b505afa15801561201e573d6000803e3d6000fd5b505050506040513d601f19601f820116820180604052508101906120429190614ceb565b61205e5760405162461bcd60e51b81526004016107d6906151a0565b600061206985611c1f565b63ffffffff86166000908152600860205260409020549091506001600160a01b03166120a75760405162461bcd60e51b81526004016107d690615174565b6120ba81600001518260200151866135a1565b6000806120e2836120cf898660000151610faf565b6120dd8a8760200151610faf565b613b8f565b9150915060008084600001516001600160a01b0316846001600160a01b03161415612124578460200151915086831061211b578661211d565b825b905061213a565b845191508583106121355785612137565b825b90505b6040516370a0823160e01b81526000906001600160a01b038416906370a0823190612169903090600401614fae565b60206040518083038186803b15801561218157600080fd5b505afa158015612195573d6000803e3d6000fd5b505050506040513d601f19601f820116820180604052508101906121b99190614e14565b90506121cd858430856117498a89896123ae565b50600081846001600160a01b03166370a08231306040518263ffffffff1660e01b81526004016121fd9190614fae565b60206040518083038186803b15801561221557600080fd5b505afa158015612229573d6000803e3d6000fd5b505050506040513d601f19601f8201168201806040525081019061224d9190614e14565b61225791906153e3565b905080156123395763ffffffff8b166000908152600c602090815260408083206001600160a01b038a168452909152812080548792906122989084906153e3565b909155505063ffffffff8b166000908152600c602090815260408083206001600160a01b0388168452909152812080548392906122d6908490615340565b90915550506040805163ffffffff8d1681526001600160a01b038881166020830152818301889052861660608201526080810183905290517f3318ce2371d9cd19d64b4ca999bd8bdcfcf18e4ec416d7dc611b729b2e59c5009181900360a00190a15b5050505050505050505050565b3360009081526001602052604090205460ff166123755760405162461bcd60e51b81526004016107d6906151ee565b63ffffffff81166000908152600c602090815260408083206001600160a01b03871684529091528120805484929061126c908490615340565b600354600090620f4240906123c89062ffffff16826153bf565b62ffffff166123d8868686610b5c565b6123e291906153a0565b6123ec9190615380565b949350505050565b600080546040516337c61fc560e11b8152620100009091046001600160a01b031691636f8c3f8a91612429919060040161509e565b60206040518083038186803b15801561244157600080fd5b505afa158015612455573d6000803e3d6000fd5b505050506040513d601f19601f820116820180604052508101906124799190614a04565b6001600160a01b031663f3ae2415336040518263ffffffff1660e01b81526004016124a49190614fae565b60206040518083038186803b1580156124bc57600080fd5b505afa1580156124d0573d6000803e3d6000fd5b505050506040513d601f19601f820116820180604052508101906124f49190614ceb565b6112a55760405162461bcd60e51b81526004016107d6906151a0565b600080546040516337c61fc560e11b815282916201000090046001600160a01b031690636f8c3f8a9061254790849060040161509e565b60206040518083038186803b15801561255f57600080fd5b505afa158015612573573d6000803e3d6000fd5b505050506040513d601f19601f820116820180604052508101906125979190614a04565b6001600160a01b031663f3ae2415336040518263ffffffff1660e01b81526004016125c29190614fae565b60206040518083038186803b1580156125da57600080fd5b505afa1580156125ee573d6000803e3d6000fd5b505050506040513d601f19601f820116820180604052508101906126129190614ceb565b61262e5760405162461bcd60e51b81526004016107d6906151a0565b60095463ffffffff16806126995760405162461bcd60e51b815260206004820152602c60248201527f43616e6e6f7420636f756e74206578747261207375736869207768656e206e6f60448201526b081c1bdbdb1cc8195e1a5cdd60a21b60648201526084016107d6565b60005b818163ffffffff1610156126ec57601060006126b9836001615358565b63ffffffff1681526020810191909152604001600020546126da9084615340565b92506126e581615441565b905061269c565b506006548290612704906001600160a01b0316612caa565b61270e91906153e3565b92508215612759576001600090815260106020527f8c6065603763fec3f5742441d3833f3f43b982453612d76adb39a885e3006b5f8054859290612753908490615340565b90915550505b509091565b600054610100900460ff166127795760005460ff161561277d565b303b155b6127995760405162461bcd60e51b81526004016107d690615126565b600054610100900460ff161580156127bb576000805461ffff19166101011790555b6127c58888611b19565b60038054600480546001600160a01b03199081166001600160a01b038a81169190911783556005805483168a83161790556001600160b81b031990931663010000008b85160262ffffff19161762ffffff8716178455600680549091168784161790556000546040516337c61fc560e11b81526201000090910490921692636f8c3f8a92612853920161509e565b60206040518083038186803b15801561286b57600080fd5b505afa15801561287f573d6000803e3d6000fd5b505050506040513d601f19601f820116820180604052508101906128a39190614a04565b6001600160a01b0316638b9c94896040518163ffffffff1660e01b815260040160206040518083038186803b1580156128db57600080fd5b505afa1580156128ef573d6000803e3d6000fd5b505050506040513d601f19601f820116820180604052508101906129139190614a04565b600780546001600160a01b0319166001600160a01b03929092169190911790558015612945576000805461ff00191690555b5050505050505050565b3360009081526001602052604090205460ff1661297e5760405162461bcd60e51b81526004016107d6906151ee565b6000805b60095463ffffffff9081169082161015612b00576000600e6000600a8463ffffffff16815481106129c357634e487b7160e01b600052603260045260246000fd5b6000918252602080832060088304015460079092166004026101000a90910463ffffffff16835282019290925260400190205490508015612aed57612a088184615340565b925080600f6000600a8563ffffffff1681548110612a3657634e487b7160e01b600052603260045260246000fd5b90600052602060002090600891828204019190066004029054906101000a900463ffffffff1663ffffffff1663ffffffff1681526020019081526020016000206000828254612a859190615340565b925050819055506000600e6000600a8563ffffffff1681548110612ab957634e487b7160e01b600052603260045260246000fd5b6000918252602080832060088304015460079092166004026101000a90910463ffffffff1683528201929092526040019020555b5080612af881615441565b915050612982565b5080156112ae576000546040516337c61fc560e11b8152612ba3916201000090046001600160a01b031690636f8c3f8a90612b409060029060040161509e565b60206040518083038186803b158015612b5857600080fd5b505afa158015612b6c573d6000803e3d6000fd5b505050506040513d601f19601f82011682018060405250810190612b909190614a04565b6007546001600160a01b031690836138ca565b6040518181527fd0e841f234010ad7f57b7c09faffb2245cd240429c6e8fa3cd934a0a8bf58eb09060200160405180910390a150565b60028181548110612be957600080fd5b6000918252602090912001546001600160a01b0316905081565b600080612c0f83613d63565b9094909350915050565b60035460405163e6a4390560e01b8152600091630100000090046001600160a01b03169063e6a4390590612c539086908690600401614fc2565b60206040518083038186803b158015612c6b57600080fd5b505afa158015612c7f573d6000803e3d6000fd5b505050506040513d601f19601f82011682018060405250810190612ca39190614a04565b9392505050565b6040516370a0823160e01b81526000906001600160a01b038316906370a0823190612cd9903090600401614fae565b60206040518083038186803b158015612cf157600080fd5b505afa158015612d05573d6000803e3d6000fd5b505050506040513d601f19601f82011682018060405250810190610fda9190614e14565b6006546000908290612d43906001600160a01b0316612caa565b612d4d91906153e3565b90508015610fda5763ffffffff831660009081526010602052604081208054839290612d7a908490615340565b909155505092915050565b6000612d9084611c1f565b80519091506001600160a01b0316612dba5760405162461bcd60e51b81526004016107d690615174565b600182151514612e245763ffffffff84166000908152600b602052604090205415612e245760405162461bcd60e51b815260206004820152601a60248201527914dd185ada5b99c8185b1c9958591e4818dbdb999a59dd5c995960321b60448201526064016107d6565b600554604051631526fe2760e01b8152600481018590526000916001600160a01b031690631526fe2790602401608060405180830381600087803b158015612e6b57600080fd5b505af1158015612e7f573d6000803e3d6000fd5b505050506040513d601f19601f82011682018060405250810190612ea39190614d07565b90506000612eb983600001518460200151612c19565b9050806001600160a01b031682600001516001600160a01b031614612f335760405162461bcd60e51b815260206004820152602a60248201527f496e636f7272656374204d617374657243686566277320706f6f6c49642077616044820152691cc81c1c9bdd9a59195960b21b60648201526084016107d6565b63ffffffff86166000908152600b6020526040908190208690556005549051636eb1769f60e11b8152600019916001600160a01b038085169263dd62ed3e92612f83923092911690600401614fc2565b60206040518083038186803b158015612f9b57600080fd5b505afa158015612faf573d6000803e3d6000fd5b505050506040513d601f19601f82011682018060405250810190612fd39190614e14565b10156117c7576005546117c7906001600160a01b0383811691166000196130cc565b600080600061300485856140a7565b5090506000806130148787612c19565b6001600160a01b0316630902f1ac6040518163ffffffff1660e01b815260040160606040518083038186803b15801561304c57600080fd5b505afa158015613060573d6000803e3d6000fd5b505050506040513d601f19601f820116820180604052508101906130849190614dc1565b506001600160701b031691506001600160701b03169150826001600160a01b0316876001600160a01b0316146130bb5780826130be565b81815b909890975095505050505050565b8015806131545750604051636eb1769f60e11b81526001600160a01b0384169063dd62ed3e906131029030908690600401614fc2565b60206040518083038186803b15801561311a57600080fd5b505afa15801561312e573d6000803e3d6000fd5b505050506040513d601f19601f820116820180604052508101906131529190614e14565b155b6131bf5760405162461bcd60e51b815260206004820152603660248201527f5361666545524332303a20617070726f76652066726f6d206e6f6e2d7a65726f60448201527520746f206e6f6e2d7a65726f20616c6c6f77616e636560501b60648201526084016107d6565b61095b8363095ea7b360e01b84846040516024016131de929190614fdc565b60408051601f198184030181529190526020810180516001600160e01b03166001600160e01b03199093169290921790915261417c565b600061322082611c1f565b63ffffffff83166000908152600860205260409020549091506001600160a01b031661325e5760405162461bcd60e51b81526004016107d690615174565b600061326e838360000151610faf565b90506000613280848460200151610faf565b905081158061328d575080155b156132985750505050565b60008060008060006132b288600001518960200151612ff5565b9150915080821115613354576000816132cd846103e86153a0565b6132d79190615380565b905060006103e86132e8838a6153a0565b6132f29190615380565b90508089101561331d578896508161330c886103e86153a0565b6133169190615380565b955061334d565b88811015613346576103e8613332838a6153a0565b61333c9190615380565b965087955061334d565b8896508795505b50506133ee565b808210156133ee5760008261336b836103e86153a0565b6133759190615380565b905060006103e8613386838b6153a0565b6133909190615380565b9050808810156133bb57816133a7896103e86153a0565b6133b19190615380565b96508795506133eb565b878110156133e4578896506103e86133d383896153a0565b6133dd9190615380565b95506133eb565b8896508795505b50505b60048054895160208b015160405162e8e33760e81b81526001600160a01b039283169481019490945281166024840152604483018890526064830187905260006084840181905260a48401523060c48401524260e4840152169063e8e337009061010401606060405180830381600087803b15801561346c57600080fd5b505af1158015613480573d6000803e3d6000fd5b505050506040513d601f19601f820116820180604052508101906134a49190614e4f565b63ffffffff8c166000908152600c602090815260408083208e516001600160a01b03168452909152812080549297508994509250906134e49084906153e3565b909155505063ffffffff89166000908152600c602090815260408083208b8301516001600160a01b03168452909152812080548692906135259084906153e3565b90915550506040518381527f250600b7e1d8b908a0f07fa409e087c1b43ef3a5de3c0e23a41998c311f0ea909060200160405180910390a17fb28fd890673610fa2a3efb1cf64ae1b26dd83c3261fbd99f0d4a5821ccdaa993898460405161358e9291906152d7565b60405180910390a1505050505050505050565b60006135ad8484612c19565b90506001600160a01b0381166136045760405162461bcd60e51b815260206004820152601c60248201527b29bab9b434a9bbb0b824b73a32b3b930ba34b7b71d2130b22830b4b960211b60448201526064016107d6565b60008060006136138787612ff5565b915091508082101561363d578161362c826103e86153a0565b6136369190615380565b9250613658565b81811015613652578061362c836103e86153a0565b6103e892505b848311156136a45760018561366d81866153e3565b6136789060646153a0565b6136829190615380565b1061369f5760405162461bcd60e51b81526004016107d6906150f9565b6136eb565b828511156136eb576001856136b985826153e3565b6136c49060646153a0565b6136ce9190615380565b106136eb5760405162461bcd60e51b81526004016107d6906150f9565b50505050505050565b60408051600280825260608083018452926000929190602083019080368337019050509050868160008151811061373b57634e487b7160e01b600052603260045260246000fd5b60200260200101906001600160a01b031690816001600160a01b031681525050858160018151811061377d57634e487b7160e01b600052603260045260246000fd5b6001600160a01b03928316602091820292909201015260048054604051636eb1769f60e11b8152429388938c82169363dd62ed3e936137c193309392169101614fc2565b60206040518083038186803b1580156137d957600080fd5b505afa1580156137ed573d6000803e3d6000fd5b505050506040513d601f19601f820116820180604052508101906138119190614e14565b101561383157600454613831906001600160a01b038a81169116876130cc565b600480546040516338ed173960e01b81526001600160a01b03909116916338ed173991613868918991899188918d91899101615267565b600060405180830381600087803b15801561388257600080fd5b505af1158015613896573d6000803e3d6000fd5b505050506040513d6000823e601f3d908101601f191682016040526138be9190810190614bea565b98975050505050505050565b61095b8363a9059cbb60e01b84846040516024016131de929190614fdc565b60006138f484611c1f565b9050821561390f5761390f81600001518260200151856135a1565b60008061391b86613d63565b91509150600061392e8383898c8c61424e565b600654909150600090613949906001600160a01b0316612caa565b60055463ffffffff8a166000908152600b602052604090819020549051630441a3e760e41b81529293506001600160a01b039091169163441a3e7091613993918690600401615259565b600060405180830381600087803b1580156139ad57600080fd5b505af11580156139c1573d6000803e3d6000fd5b505050506139cf8882612d29565b5060045485516020870151613a04926001600160a01b03169185916139f49190612c19565b6001600160a01b031691906130cc565b6004548551602087015160009283926001600160a01b039091169163baa2abde919087858030613a3642610168615340565b60405160e089901b6001600160e01b03191681526001600160a01b039788166004820152958716602487015260448601949094526064850192909252608484015290921660a482015260c481019190915260e4016040805180830381600087803b158015613aa357600080fd5b505af1158015613ab7573d6000803e3d6000fd5b505050506040513d601f19601f82011682018060405250810190613adb9190614e2c565b91509150613aed878b8e85858d6143ee565b505050505050505050505050565b600054610100900460ff16613b165760005460ff1615613b1a565b303b155b613b365760405162461bcd60e51b81526004016107d690615126565b600054610100900460ff16158015613b58576000805461ffff19166101011790555b6000805462010000600160b01b031916620100006001600160a01b038516021790558015610a88576000805461ff00191690555050565b60008080613b9d8486615340565b11613bea5760405162461bcd60e51b815260206004820181905260248201527f537573686953776170496e746567726174696f6e3a206e6f2062616c616e636560448201526064016107d6565b600080613bff87600001518860200151612ff5565b9150915080821115613cb057600081613c1a846103e86153a0565b613c249190615380565b905060006103e8613c3583896153a0565b613c3f9190615380565b905080881015613c8457600282613c588a6103e86153a0565b613c629190615380565b613c6c90896153e3565b613c769190615380565b945088602001519550613ca9565b87811015613ca9576002613c98828a6153e3565b613ca29190615380565b8951965094505b5050613d59565b80821015613d5957600082613cc7836103e86153a0565b613cd19190615380565b905060006103e8613ce2838a6153a0565b613cec9190615380565b905086811015613d1a576002613d0282896153e3565b613d0c9190615380565b945088602001519550613d56565b80871015613d5657600282613d31896103e86153a0565b613d3b9190615380565b613d45908a6153e3565b613d4f9190615380565b8951965094505b50505b5050935093915050565b6000806000613d7184611c1f565b60055463ffffffff86166000908152600b60205260408082205490516393f1a40b60e01b815293945090926001600160a01b03909216916393f1a40b91613dbc913090600401615242565b604080518083038186803b158015613dd357600080fd5b505afa158015613de7573d6000803e3d6000fd5b505050506040513d601f19601f82011682018060405250810190613e0b9190614d74565b5182516020840151613e1d9190612c19565b6001600160a01b03166370a08231306040518263ffffffff1660e01b8152600401613e489190614fae565b60206040518083038186803b158015613e6057600080fd5b505afa158015613e74573d6000803e3d6000fd5b505050506040513d601f19601f82011682018060405250810190613e989190614e14565b613ea29190615340565b90506000613eb883600001518460200151612c19565b6001600160a01b03166318160ddd6040518163ffffffff1660e01b815260040160206040518083038186803b158015613ef057600080fd5b505afa158015613f04573d6000803e3d6000fd5b505050506040513d601f19601f82011682018060405250810190613f289190614e14565b613f37836402540be4006153a0565b613f419190615380565b90506402540be4008184600001516001600160a01b03166370a08231613f6f87600001518860200151612c19565b6040518263ffffffff1660e01b8152600401613f8b9190614fae565b60206040518083038186803b158015613fa357600080fd5b505afa158015613fb7573d6000803e3d6000fd5b505050506040513d601f19601f82011682018060405250810190613fdb9190614e14565b613fe591906153a0565b613fef9190615380565b94506402540be4008184602001516001600160a01b03166370a0823161401d87600001518860200151612c19565b6040518263ffffffff1660e01b81526004016140399190614fae565b60206040518083038186803b15801561405157600080fd5b505afa158015614065573d6000803e3d6000fd5b505050506040513d601f19601f820116820180604052508101906140899190614e14565b61409391906153a0565b61409d9190615380565b9350505050915091565b600080826001600160a01b0316846001600160a01b031614156141085760405162461bcd60e51b81526020600482015260196024820152784964656e746963616c20746f6b656e2061646472657373657360381b60448201526064016107d6565b826001600160a01b0316846001600160a01b03161061412857828461412b565b83835b90925090506001600160a01b0382166141755760405162461bcd60e51b815260206004820152600c60248201526b5a65726f206164647265737360a01b60448201526064016107d6565b9250929050565b60006141d1826040518060400160405280602081526020017f5361666545524332303a206c6f772d6c6576656c2063616c6c206661696c6564815250856001600160a01b03166147ba9092919063ffffffff16565b80519091501561095b57808060200190518101906141ef9190614ceb565b61095b5760405162461bcd60e51b815260206004820152602a60248201527f5361666545524332303a204552433230206f7065726174696f6e20646964206e6044820152691bdd081cdd58d8d9595960b21b60648201526084016107d6565b60008061425a85611c1f565b905060008082600001516001600160a01b0316866001600160a01b031614156142a757614288600286615380565b91506142a086846020015160028861026b9190615380565b90506142e8565b82602001516001600160a01b0316866001600160a01b031614156142e85782516142d890879061026b600289615380565b91506142e5600286615380565b90505b6000898311806142f757508882115b1561430457506064614330565b61430e898b615340565b6143188385615340565b6143239060646153a0565b61432d9190615380565b90505b60055463ffffffff89166000908152600b6020526040908190205490516393f1a40b60e01b815260649284926001600160a01b03909116916393f1a40b9161437c913090600401615242565b604080518083038186803b15801561439357600080fd5b505afa1580156143a7573d6000803e3d6000fd5b505050506040513d601f19601f820116820180604052508101906143cb9190614d74565b516143d691906153a0565b6143e09190615380565b9a9950505050505050505050565b85516001600160a01b03858116911614156145cd57602086015160009061441d908630866117498484836123ae565b905081156144f957600080546040516337c61fc560e11b81526144f492620100009092046001600160a01b031691636f8c3f8a9161445e919060040161509e565b60206040518083038186803b15801561447657600080fd5b505afa15801561448a573d6000803e3d6000fd5b505050506040513d601f19601f820116820180604052508101906144ae9190614a04565b826001815181106144cf57634e487b7160e01b600052603260045260246000fd5b6020026020010151866144e29190615340565b89516001600160a01b031691906138ca565b61456d565b8060018151811061451a57634e487b7160e01b600052603260045260246000fd5b60200260200101518461452d9190615340565b63ffffffff87166000908152600c602090815260408083208b516001600160a01b0316845290915281208054909190614567908490615340565b90915550505b6000805160206154c783398151915286858360018151811061459f57634e487b7160e01b600052603260045260246000fd5b60200260200101516145b19190615340565b6040516145bf9291906152d7565b60405180910390a1506117c7565b85602001516001600160a01b0316846001600160a01b031614156117c7578551600090614602908630876117498484836123ae565b905081156146e157600080546040516337c61fc560e11b81526146dc92620100009092046001600160a01b031691636f8c3f8a91614643919060040161509e565b60206040518083038186803b15801561465b57600080fd5b505afa15801561466f573d6000803e3d6000fd5b505050506040513d601f19601f820116820180604052508101906146939190614a04565b826001815181106146b457634e487b7160e01b600052603260045260246000fd5b6020026020010151856146c79190615340565b60208a01516001600160a01b031691906138ca565b614757565b8060018151811061470257634e487b7160e01b600052603260045260246000fd5b6020026020010151836147159190615340565b63ffffffff87166000908152600c602090815260408083208b8301516001600160a01b0316845290915281208054909190614751908490615340565b90915550505b6000805160206154c783398151915286848360018151811061478957634e487b7160e01b600052603260045260246000fd5b602002602001015161479b9190615340565b6040516147a99291906152d7565b60405180910390a150505050505050565b60606123ec848460008585843b6148135760405162461bcd60e51b815260206004820152601d60248201527f416464726573733a2063616c6c20746f206e6f6e2d636f6e747261637400000060448201526064016107d6565b600080866001600160a01b0316858760405161482f9190614f92565b60006040518083038185875af1925050503d806000811461486c576040519150601f19603f3d011682016040523d82523d6000602084013e614871565b606091505b509150915061488182828661488c565b979650505050505050565b6060831561489b575081612ca3565b8251156148ab5782518084602001fd5b8160405162461bcd60e51b81526004016107d691906150c6565b60405180602001604052806001906020820280368337509192915050565b828054828255906000526020600020908101928215614938579160200282015b8281111561493857825182546001600160a01b0319166001600160a01b03909116178255602090920191600190910190614903565b506110229291505b808211156110225760008155600101614940565b600082601f830112614964578081fd5b813560206149796149748361531d565b6152ed565b80838252828201915082860187848660051b8901011115614998578586fd5b855b858110156149bf5781356149ad81615491565b8452928401929084019060010161499a565b5090979650505050505050565b80516001600160701b03811681146149e357600080fd5b919050565b6000602082840312156149f9578081fd5b8135612ca381615491565b600060208284031215614a15578081fd5b8151612ca381615491565b600080600060608486031215614a34578182fd5b8335614a3f81615491565b92506020840135614a4f81615491565b929592945050506040919091013590565b600080600060608486031215614a74578283fd5b8335614a7f81615491565b9250602084013591506040840135614a96816154b4565b809150509250925092565b60008060008060808587031215614ab6578081fd5b8435614ac181615491565b9350602085013592506040850135614ad8816154b4565b9396929550929360600135925050565b60008060408385031215614afa578182fd5b82356001600160401b03811115614b0f578283fd5b614b1b85828601614954565b9250506020830135614b2c81615491565b809150509250929050565b600080600080600080600060e0888a031215614b51578485fd5b87356001600160401b03811115614b66578586fd5b614b728a828b01614954565b9750506020880135614b8381615491565b95506040880135614b9381615491565b94506060880135614ba381615491565b93506080880135614bb381615491565b925060a0880135614bc381615491565b915060c088013562ffffff81168114614bda578182fd5b8091505092959891949750929550565b60006020808385031215614bfc578182fd5b82516001600160401b03811115614c11578283fd5b8301601f81018513614c21578283fd5b8051614c2f6149748261531d565b80828252848201915084840188868560051b8701011115614c4e578687fd5b8694505b83851015614c70578051835260019490940193918501918501614c52565b50979650505050505050565b60008060208385031215614c8e578182fd5b82356001600160401b0380821115614ca4578384fd5b818501915085601f830112614cb7578384fd5b813581811115614cc5578485fd5b8660208260051b8501011115614cd9578485fd5b60209290920196919550909350505050565b600060208284031215614cfc578081fd5b8151612ca3816154a6565b600060808284031215614d18578081fd5b604051608081016001600160401b0381118282101715614d3a57614d3a61547b565b6040528251614d4881615491565b808252506020830151602082015260408301516040820152606083015160608201528091505092915050565b600060408284031215614d85578081fd5b604080519081016001600160401b0381118282101715614da757614da761547b565b604052825181526020928301519281019290925250919050565b600080600060608486031215614dd5578081fd5b614dde846149cc565b9250614dec602085016149cc565b91506040840151614a96816154b4565b600060208284031215614e0d578081fd5b5035919050565b600060208284031215614e25578081fd5b5051919050565b60008060408385031215614e3e578182fd5b505080516020909101519092909150565b600080600060608486031215614e63578081fd5b8351925060208401519150604084015190509250925092565b600060208284031215614e8d578081fd5b8135612ca3816154b4565b60008060408385031215614eaa578182fd5b8235614eb5816154b4565b91506020830135614b2c81615491565b600080600060608486031215614ed9578081fd5b8335614a3f816154b4565b60008060408385031215614ef6578182fd5b8235614f01816154b4565b946020939093013593505050565b60008060008060808587031215614f24578182fd5b8435614f2f816154b4565b935060208501359250604085013591506060850135614f4d816154a6565b939692955090935050565b60008060008060808587031215614f6d578182fd5b8435614f78816154b4565b966020860135965060408601359560600135945092505050565b60008251614fa48184602087016153fa565b9190910192915050565b6001600160a01b0391909116815260200190565b6001600160a01b0392831681529116602082015260400190565b6001600160a01b03929092168252602082015260400190565b60408101818460005b60018110156150265781516001600160a01b0316835260209283019290910190600101614ffe565b50505060208083018460005b600181101561504f57815183529183019190830190600101615032565b505050509392505050565b6020808252825182820181905260009190848201906040850190845b8181101561509257835183529284019291840191600101615076565b50909695505050505050565b60208101600c83106150c057634e487b7160e01b600052602160045260246000fd5b91905290565b60208152600082518060208401526150e58160408501602087016153fa565b601f01601f19169190910160400192915050565b60208082526013908201527210d95a5b1a5b99d31a5b5a5d14995858da1959606a1b604082015260600190565b6020808252602e908201527f496e697469616c697a61626c653a20636f6e747261637420697320616c72656160408201526d191e481a5b9a5d1a585b1a5e995960921b606082015260800190565b602080825260129082015271141bdbdb08191bd95cdb89dd08195e1a5cdd60721b604082015260600190565b6020808252602e908201527f436f6e74726f6c6c65643a3a6f6e6c794d616e616765723a2043616c6c65722060408201526d34b9903737ba1036b0b730b3b2b960911b606082015260800190565b60208082526034908201527f436f6e74726f6c6c65643a3a6f6e6c79436f6e74726f6c6c65723a2043616c6c60408201527332b91034b9903737ba1031b7b73a3937b63632b960611b606082015260800190565b9182526001600160a01b0316602082015260400190565b918252602082015260400190565b600060a082018783526020878185015260a0604085015281875180845260c0860191508289019350845b818110156152b65784516001600160a01b031683529383019391830191600101615291565b50506001600160a01b03969096166060850152505050608001529392505050565b63ffffffff929092168252602082015260400190565b604051601f8201601f191681016001600160401b03811182821017156153155761531561547b565b604052919050565b60006001600160401b038211156153365761533661547b565b5060051b60200190565b6000821982111561535357615353615465565b500190565b600063ffffffff80831681851680830382111561537757615377615465565b01949350505050565b60008261539b57634e487b7160e01b81526012600452602481fd5b500490565b60008160001904831182151516156153ba576153ba615465565b500290565b600062ffffff838116908316818110156153db576153db615465565b039392505050565b6000828210156153f5576153f5615465565b500390565b60005b838110156154155781810151838201526020016153fd565b838111156119e75750506000910152565b600060001982141561543a5761543a615465565b5060010190565b600063ffffffff8083168181141561545b5761545b615465565b6001019392505050565b634e487b7160e01b600052601160045260246000fd5b634e487b7160e01b600052604160045260246000fd5b6001600160a01b03811681146112ae57600080fd5b80151581146112ae57600080fd5b63ffffffff811681146112ae57600080fdfe6fb183d14e6407db4dfb55deb83841283e9e3015e3aabe210d446b16f1ce0937a264697066735822122019ca44527d722a23e40aceec10da6145eb1279f204a54d6bd1b884b0f74ee5ec64736f6c63430008040033",
  "devdoc": {
    "kind": "dev",
    "methods": {
      "deposit(address,uint256,uint32)": {
        "params": {
          "amount": "The amount of the token being deposited",
          "tokenAddress": "The address of the deposited token"
        }
      },
      "getAmountOut(address,address,uint256)": {
        "params": {
          "amountIn": "The exact amount of the input to swap",
          "tokenIn": "The address of the input token",
          "tokenOut": "The address of the output token"
        },
        "returns": {
          "amountOut": "The estimated amount of tokenOut to receive"
        }
      },
      "getAmountOutMinimum(address,address,uint256)": {
        "params": {
          "amountIn": "The exact amount of the input to swap",
          "tokenIn": "The address of the input token",
          "tokenOut": "The address of the output token"
        },
        "returns": {
          "amountOutMinimum": "The minimum amount of tokenOut to receive, factoring in allowable slippage"
        }
      },
      "getBalance(uint32,address)": {
        "returns": {
          "_0": "tokenAddress The address of the token to get the balance of"
        }
      },
      "getPendingYield(uint32)": {
        "details": "Returns total amount of pending yield in SUSHI rewards",
        "params": {
          "poolId": "the masterchef pool to retrieve yield for"
        },
        "returns": {
          "amounts": "Amounts of pending yield",
          "tokens": "Token addresses of pending yield"
        }
      },
      "harvestYield()": {
        "details": "Harvests token yield from the integration"
      },
      "incrementBalance(uint32,address,uint256)": {
        "params": {
          "amount": "The amount of the token being deposited",
          "token": "The address of the deposited token"
        }
      },
      "initialize(address[],address,address,address,address,address,uint24)": {
        "params": {
          "controllers_": "The address of the controlling contract",
          "factoryAddress_": "The address of the SushiSwap factory contract",
          "swapRouterAddress_": "The address of the Sushi swap router contract"
        }
      },
      "rebalancePool(uint32,uint256,uint256,uint256)": {
        "params": {
          "maxSellTokenA": "max amount of tokenA to sell (to limit rebalancing)",
          "maxSellTokenB": "max amount of tokenB to sell (to limit rebalancing)",
          "poolId": "The ID of the pool to rebalance",
          "ratioX1000": "reserves ratio to control the price slippage"
        }
      },
      "withdraw(address,uint256,uint32)": {
        "params": {
          "amount": "The amoutn of the token to withdraw",
          "tokenAddress": "The address of the underlying token to withdraw"
        }
      }
    },
    "version": 1
  },
  "userdoc": {
    "events": {
      "CreatePool(address,address,uint32)": {
        "notice": "Events"
      }
    },
    "kind": "user",
    "methods": {
      "harvestYieldByPool(uint32,uint256,uint256,bool)": {
        "notice": "Harvest available yield for desired pool"
      },
      "rebalancePool(uint32,uint256,uint256,uint256)": {
        "notice": "Rebalances by attempting to swap up to max to get into position ratio"
      },
      "withdraw(address,uint256,uint32)": {
        "notice": "Withdraws token from the integration"
      }
    },
    "notice": "Integrates 0x Nodes to SushiSwap",
    "version": 1
  },
  "storageLayout": {
    "storage": [
      {
        "astId": 723,
        "contract": "contracts/yield-integrations/SushiSwapIntegration.sol:SushiSwapIntegration",
        "label": "_initialized",
        "offset": 0,
        "slot": "0",
        "type": "t_bool"
      },
      {
        "astId": 726,
        "contract": "contracts/yield-integrations/SushiSwapIntegration.sol:SushiSwapIntegration",
        "label": "_initializing",
        "offset": 1,
        "slot": "0",
        "type": "t_bool"
      },
      {
        "astId": 9727,
        "contract": "contracts/yield-integrations/SushiSwapIntegration.sol:SushiSwapIntegration",
        "label": "moduleMap",
        "offset": 2,
        "slot": "0",
        "type": "t_contract(IModuleMap)19935"
      },
      {
        "astId": 4667,
        "contract": "contracts/yield-integrations/SushiSwapIntegration.sol:SushiSwapIntegration",
        "label": "_controllers",
        "offset": 0,
        "slot": "1",
        "type": "t_mapping(t_address,t_bool)"
      },
      {
        "astId": 4670,
        "contract": "contracts/yield-integrations/SushiSwapIntegration.sol:SushiSwapIntegration",
        "label": "controllers",
        "offset": 0,
        "slot": "2",
        "type": "t_array(t_address)dyn_storage"
      },
      {
        "astId": 34180,
        "contract": "contracts/yield-integrations/SushiSwapIntegration.sol:SushiSwapIntegration",
        "label": "slippageNumerator",
        "offset": 0,
        "slot": "3",
        "type": "t_uint24"
      },
      {
        "astId": 34182,
        "contract": "contracts/yield-integrations/SushiSwapIntegration.sol:SushiSwapIntegration",
        "label": "factoryAddress",
        "offset": 3,
        "slot": "3",
        "type": "t_address"
      },
      {
        "astId": 34184,
        "contract": "contracts/yield-integrations/SushiSwapIntegration.sol:SushiSwapIntegration",
        "label": "swapRouterAddress",
        "offset": 0,
        "slot": "4",
        "type": "t_address"
      },
      {
        "astId": 34186,
        "contract": "contracts/yield-integrations/SushiSwapIntegration.sol:SushiSwapIntegration",
        "label": "masterChef",
        "offset": 0,
        "slot": "5",
        "type": "t_address"
      },
      {
        "astId": 34188,
        "contract": "contracts/yield-integrations/SushiSwapIntegration.sol:SushiSwapIntegration",
        "label": "sushi",
        "offset": 0,
        "slot": "6",
        "type": "t_address"
      },
      {
        "astId": 34190,
        "contract": "contracts/yield-integrations/SushiSwapIntegration.sol:SushiSwapIntegration",
        "label": "wethAddress",
        "offset": 0,
        "slot": "7",
        "type": "t_address"
      },
      {
        "astId": 34195,
        "contract": "contracts/yield-integrations/SushiSwapIntegration.sol:SushiSwapIntegration",
        "label": "pools",
        "offset": 0,
        "slot": "8",
        "type": "t_mapping(t_uint256,t_struct(Pool)18371_storage)"
      },
      {
        "astId": 34197,
        "contract": "contracts/yield-integrations/SushiSwapIntegration.sol:SushiSwapIntegration",
        "label": "poolCount",
        "offset": 0,
        "slot": "9",
        "type": "t_uint32"
      },
      {
        "astId": 34200,
        "contract": "contracts/yield-integrations/SushiSwapIntegration.sol:SushiSwapIntegration",
        "label": "poolIds",
        "offset": 0,
        "slot": "10",
        "type": "t_array(t_uint32)dyn_storage"
      },
      {
        "astId": 34204,
        "contract": "contracts/yield-integrations/SushiSwapIntegration.sol:SushiSwapIntegration",
        "label": "stakings",
        "offset": 0,
        "slot": "11",
        "type": "t_mapping(t_uint32,t_uint256)"
      },
      {
        "astId": 34210,
        "contract": "contracts/yield-integrations/SushiSwapIntegration.sol:SushiSwapIntegration",
        "label": "balances",
        "offset": 0,
        "slot": "12",
        "type": "t_mapping(t_uint256,t_mapping(t_address,t_uint256))"
      },
      {
        "astId": 34214,
        "contract": "contracts/yield-integrations/SushiSwapIntegration.sol:SushiSwapIntegration",
        "label": "priceCeilings",
        "offset": 0,
        "slot": "13",
        "type": "t_mapping(t_address,t_uint256)"
      },
      {
        "astId": 34218,
        "contract": "contracts/yield-integrations/SushiSwapIntegration.sol:SushiSwapIntegration",
        "label": "yieldBalances",
        "offset": 0,
        "slot": "14",
        "type": "t_mapping(t_uint32,t_uint256)"
      },
      {
        "astId": 34222,
        "contract": "contracts/yield-integrations/SushiSwapIntegration.sol:SushiSwapIntegration",
        "label": "harvestedYield",
        "offset": 0,
        "slot": "15",
        "type": "t_mapping(t_uint32,t_uint256)"
      },
      {
        "astId": 34226,
        "contract": "contracts/yield-integrations/SushiSwapIntegration.sol:SushiSwapIntegration",
        "label": "sushiBalances",
        "offset": 0,
        "slot": "16",
        "type": "t_mapping(t_uint32,t_uint256)"
      }
    ],
    "types": {
      "t_address": {
        "encoding": "inplace",
        "label": "address",
        "numberOfBytes": "20"
      },
      "t_array(t_address)dyn_storage": {
        "base": "t_address",
        "encoding": "dynamic_array",
        "label": "address[]",
        "numberOfBytes": "32"
      },
      "t_array(t_uint32)dyn_storage": {
        "base": "t_uint32",
        "encoding": "dynamic_array",
        "label": "uint32[]",
        "numberOfBytes": "32"
      },
      "t_bool": {
        "encoding": "inplace",
        "label": "bool",
        "numberOfBytes": "1"
      },
      "t_contract(IModuleMap)19935": {
        "encoding": "inplace",
        "label": "contract IModuleMap",
        "numberOfBytes": "20"
      },
      "t_mapping(t_address,t_bool)": {
        "encoding": "mapping",
        "key": "t_address",
        "label": "mapping(address => bool)",
        "numberOfBytes": "32",
        "value": "t_bool"
      },
      "t_mapping(t_address,t_uint256)": {
        "encoding": "mapping",
        "key": "t_address",
        "label": "mapping(address => uint256)",
        "numberOfBytes": "32",
        "value": "t_uint256"
      },
      "t_mapping(t_uint256,t_mapping(t_address,t_uint256))": {
        "encoding": "mapping",
        "key": "t_uint256",
        "label": "mapping(uint256 => mapping(address => uint256))",
        "numberOfBytes": "32",
        "value": "t_mapping(t_address,t_uint256)"
      },
      "t_mapping(t_uint256,t_struct(Pool)18371_storage)": {
        "encoding": "mapping",
        "key": "t_uint256",
        "label": "mapping(uint256 => struct IAMMIntegration.Pool)",
        "numberOfBytes": "32",
        "value": "t_struct(Pool)18371_storage"
      },
      "t_mapping(t_uint32,t_uint256)": {
        "encoding": "mapping",
        "key": "t_uint32",
        "label": "mapping(uint32 => uint256)",
        "numberOfBytes": "32",
        "value": "t_uint256"
      },
      "t_struct(Pool)18371_storage": {
        "encoding": "inplace",
        "label": "struct IAMMIntegration.Pool",
        "members": [
          {
            "astId": 18366,
            "contract": "contracts/yield-integrations/SushiSwapIntegration.sol:SushiSwapIntegration",
            "label": "tokenA",
            "offset": 0,
            "slot": "0",
            "type": "t_address"
          },
          {
            "astId": 18368,
            "contract": "contracts/yield-integrations/SushiSwapIntegration.sol:SushiSwapIntegration",
            "label": "tokenB",
            "offset": 0,
            "slot": "1",
            "type": "t_address"
          },
          {
            "astId": 18370,
            "contract": "contracts/yield-integrations/SushiSwapIntegration.sol:SushiSwapIntegration",
            "label": "positionID",
            "offset": 0,
            "slot": "2",
            "type": "t_uint256"
          }
        ],
        "numberOfBytes": "96"
      },
      "t_uint24": {
        "encoding": "inplace",
        "label": "uint24",
        "numberOfBytes": "3"
      },
      "t_uint256": {
        "encoding": "inplace",
        "label": "uint256",
        "numberOfBytes": "32"
      },
      "t_uint32": {
        "encoding": "inplace",
        "label": "uint32",
        "numberOfBytes": "4"
      }
    }
  }
}