{
  "address": "0x8A0A53e8D7955B0Ce652bE8BF166E8d6af17709c",
  "abi": [
    {
      "anonymous": false,
      "inputs": [
        {
          "indexed": true,
          "internalType": "address",
          "name": "tokenA",
          "type": "address"
        },
        {
          "indexed": true,
          "internalType": "address",
          "name": "tokenB",
          "type": "address"
        },
        {
          "indexed": false,
          "internalType": "uint32",
          "name": "poolID",
          "type": "uint32"
        }
      ],
      "name": "CreatePool",
      "type": "event"
    },
    {
      "anonymous": false,
      "inputs": [
        {
          "indexed": false,
          "internalType": "address",
          "name": "token",
          "type": "address"
        },
        {
          "indexed": false,
          "internalType": "uint256",
          "name": "amount",
          "type": "uint256"
        },
        {
          "indexed": false,
          "internalType": "uint32",
          "name": "poolID",
          "type": "uint32"
        }
      ],
      "name": "Deposit",
      "type": "event"
    },
    {
      "anonymous": false,
      "inputs": [
        {
          "indexed": false,
          "internalType": "uint256",
          "name": "poolId",
          "type": "uint256"
        },
        {
          "indexed": false,
          "internalType": "uint256",
          "name": "amount",
          "type": "uint256"
        }
      ],
      "name": "DepositToPool",
      "type": "event"
    },
    {
      "anonymous": false,
      "inputs": [
        {
          "indexed": true,
          "internalType": "uint32",
          "name": "poolID",
          "type": "uint32"
        }
      ],
      "name": "HarvestYieldError",
      "type": "event"
    },
    {
      "anonymous": false,
      "inputs": [
        {
          "indexed": false,
          "internalType": "uint256",
          "name": "amount",
          "type": "uint256"
        }
      ],
      "name": "LPTokensAcquired",
      "type": "event"
    },
    {
      "anonymous": false,
      "inputs": [
        {
          "indexed": false,
          "internalType": "uint256",
          "name": "poolId",
          "type": "uint256"
        },
        {
          "indexed": false,
          "internalType": "address",
          "name": "tokenSold",
          "type": "address"
        },
        {
          "indexed": false,
          "internalType": "uint256",
          "name": "amountSold",
          "type": "uint256"
        },
        {
          "indexed": false,
          "internalType": "address",
          "name": "tokenBought",
          "type": "address"
        },
        {
          "indexed": false,
          "internalType": "uint256",
          "name": "amountBought",
          "type": "uint256"
        }
      ],
      "name": "PoolRebalanced",
      "type": "event"
    },
    {
      "anonymous": false,
      "inputs": [
        {
          "indexed": false,
          "internalType": "uint256",
          "name": "amount",
          "type": "uint256"
        }
      ],
      "name": "TokensReceived",
      "type": "event"
    },
    {
      "anonymous": false,
      "inputs": [
        {
          "indexed": false,
          "internalType": "uint32",
          "name": "source",
          "type": "uint32"
        },
        {
          "indexed": false,
          "internalType": "uint32",
          "name": "destination",
          "type": "uint32"
        },
        {
          "indexed": false,
          "internalType": "uint256[]",
          "name": "amounts",
          "type": "uint256[]"
        },
        {
          "indexed": false,
          "internalType": "address[]",
          "name": "tokens",
          "type": "address[]"
        }
      ],
      "name": "TransferBetweenPools",
      "type": "event"
    },
    {
      "anonymous": false,
      "inputs": [
        {
          "indexed": false,
          "internalType": "uint256",
          "name": "poolId",
          "type": "uint256"
        },
        {
          "indexed": false,
          "internalType": "uint256",
          "name": "amount",
          "type": "uint256"
        }
      ],
      "name": "WithdrawnFromPool",
      "type": "event"
    },
    {
      "anonymous": false,
      "inputs": [
        {
          "indexed": false,
          "internalType": "uint32",
          "name": "poolID",
          "type": "uint32"
        }
      ],
      "name": "YieldHarvested",
      "type": "event"
    },
    {
      "anonymous": false,
      "inputs": [
        {
          "indexed": false,
          "internalType": "uint256",
          "name": "amount",
          "type": "uint256"
        }
      ],
      "name": "YieldReceived",
      "type": "event"
    },
    {
      "inputs": [
        {
          "internalType": "address",
          "name": "controller",
          "type": "address"
        }
      ],
      "name": "addController",
      "outputs": [],
      "stateMutability": "nonpayable",
      "type": "function"
    },
    {
      "inputs": [
        {
          "internalType": "uint32",
          "name": "poolId",
          "type": "uint32"
        },
        {
          "internalType": "uint256",
          "name": "masterChefPoolId",
          "type": "uint256"
        }
      ],
      "name": "configureStaking",
      "outputs": [],
      "stateMutability": "nonpayable",
      "type": "function"
    },
    {
      "inputs": [
        {
          "internalType": "uint32",
          "name": "poolId",
          "type": "uint32"
        },
        {
          "internalType": "uint256",
          "name": "masterChefPoolId",
          "type": "uint256"
        }
      ],
      "name": "configureStakingOverwrite",
      "outputs": [],
      "stateMutability": "nonpayable",
      "type": "function"
    },
    {
      "inputs": [
        {
          "internalType": "uint256",
          "name": "",
          "type": "uint256"
        }
      ],
      "name": "controllers",
      "outputs": [
        {
          "internalType": "address",
          "name": "",
          "type": "address"
        }
      ],
      "stateMutability": "view",
      "type": "function"
    },
    {
      "inputs": [
        {
          "internalType": "uint32",
          "name": "poolId",
          "type": "uint32"
        },
        {
          "internalType": "uint256",
          "name": "max",
          "type": "uint256"
        }
      ],
      "name": "countExtraRewards",
      "outputs": [
        {
          "internalType": "uint256",
          "name": "rewards",
          "type": "uint256"
        }
      ],
      "stateMutability": "nonpayable",
      "type": "function"
    },
    {
      "inputs": [
        {
          "internalType": "address",
          "name": "tokenA",
          "type": "address"
        },
        {
          "internalType": "address",
          "name": "tokenB",
          "type": "address"
        },
        {
          "internalType": "uint256",
          "name": "",
          "type": "uint256"
        }
      ],
      "name": "createPool",
      "outputs": [],
      "stateMutability": "nonpayable",
      "type": "function"
    },
    {
      "inputs": [
        {
          "internalType": "uint32",
          "name": "poolId",
          "type": "uint32"
        },
        {
          "internalType": "address",
          "name": "token",
          "type": "address"
        },
        {
          "internalType": "uint256",
          "name": "amount",
          "type": "uint256"
        }
      ],
      "name": "decrementBalance",
      "outputs": [],
      "stateMutability": "nonpayable",
      "type": "function"
    },
    {
      "inputs": [
        {
          "internalType": "uint32",
          "name": "poolId",
          "type": "uint32"
        }
      ],
      "name": "deploy",
      "outputs": [],
      "stateMutability": "nonpayable",
      "type": "function"
    },
    {
      "inputs": [
        {
          "internalType": "address",
          "name": "token",
          "type": "address"
        },
        {
          "internalType": "uint256",
          "name": "amount",
          "type": "uint256"
        },
        {
          "internalType": "uint32",
          "name": "poolId",
          "type": "uint32"
        }
      ],
      "name": "deposit",
      "outputs": [],
      "stateMutability": "nonpayable",
      "type": "function"
    },
    {
      "inputs": [],
      "name": "getAllControllers",
      "outputs": [
        {
          "internalType": "address[]",
          "name": "currentControllers",
          "type": "address[]"
        }
      ],
      "stateMutability": "view",
      "type": "function"
    },
    {
      "inputs": [
        {
          "internalType": "address",
          "name": "tokenIn",
          "type": "address"
        },
        {
          "internalType": "address",
          "name": "tokenOut",
          "type": "address"
        },
        {
          "internalType": "uint256",
          "name": "amountIn",
          "type": "uint256"
        }
      ],
      "name": "getAmountOut",
      "outputs": [
        {
          "internalType": "uint256",
          "name": "amountOut",
          "type": "uint256"
        }
      ],
      "stateMutability": "view",
      "type": "function"
    },
    {
      "inputs": [
        {
          "internalType": "address",
          "name": "tokenIn",
          "type": "address"
        },
        {
          "internalType": "address",
          "name": "tokenOut",
          "type": "address"
        },
        {
          "internalType": "uint256",
          "name": "amountIn",
          "type": "uint256"
        }
      ],
      "name": "getAmountOutMinimum",
      "outputs": [
        {
          "internalType": "uint256",
          "name": "amountOutMinimum",
          "type": "uint256"
        }
      ],
      "stateMutability": "view",
      "type": "function"
    },
    {
      "inputs": [
        {
          "internalType": "uint32",
          "name": "poolId",
          "type": "uint32"
        },
        {
          "internalType": "address",
          "name": "token",
          "type": "address"
        }
      ],
      "name": "getBalance",
      "outputs": [
        {
          "internalType": "uint256",
          "name": "",
          "type": "uint256"
        }
      ],
      "stateMutability": "view",
      "type": "function"
    },
    {
      "inputs": [
        {
          "internalType": "uint32",
          "name": "poolId",
          "type": "uint32"
        }
      ],
      "name": "getHarvestedYield",
      "outputs": [
        {
          "internalType": "uint256",
          "name": "",
          "type": "uint256"
        }
      ],
      "stateMutability": "view",
      "type": "function"
    },
    {
      "inputs": [
        {
          "internalType": "uint32",
          "name": "poolId",
          "type": "uint32"
        }
      ],
      "name": "getPendingYield",
      "outputs": [
        {
          "internalType": "address[3]",
          "name": "tokens",
          "type": "address[3]"
        },
        {
          "internalType": "uint256[3]",
          "name": "amounts",
          "type": "uint256[3]"
        }
      ],
      "stateMutability": "view",
      "type": "function"
    },
    {
      "inputs": [
        {
          "internalType": "uint32",
          "name": "pid",
          "type": "uint32"
        }
      ],
      "name": "getPool",
      "outputs": [
        {
          "components": [
            {
              "internalType": "address",
              "name": "tokenA",
              "type": "address"
            },
            {
              "internalType": "address",
              "name": "tokenB",
              "type": "address"
            },
            {
              "internalType": "uint256",
              "name": "positionID",
              "type": "uint256"
            }
          ],
          "internalType": "struct IAMMIntegration.Pool",
          "name": "",
          "type": "tuple"
        }
      ],
      "stateMutability": "view",
      "type": "function"
    },
    {
      "inputs": [
        {
          "internalType": "uint32",
          "name": "poolId",
          "type": "uint32"
        }
      ],
      "name": "getPoolBalance",
      "outputs": [
        {
          "internalType": "uint256",
          "name": "tokenA",
          "type": "uint256"
        },
        {
          "internalType": "uint256",
          "name": "tokenB",
          "type": "uint256"
        }
      ],
      "stateMutability": "view",
      "type": "function"
    },
    {
      "inputs": [
        {
          "internalType": "uint32",
          "name": "poolId",
          "type": "uint32"
        }
      ],
      "name": "getRewardTokenAmounts",
      "outputs": [
        {
          "internalType": "uint256[]",
          "name": "",
          "type": "uint256[]"
        },
        {
          "internalType": "address[]",
          "name": "",
          "type": "address[]"
        }
      ],
      "stateMutability": "view",
      "type": "function"
    },
    {
      "inputs": [
        {
          "internalType": "uint32",
          "name": "poolId",
          "type": "uint32"
        }
      ],
      "name": "getStakingPoolId",
      "outputs": [
        {
          "internalType": "uint256",
          "name": "",
          "type": "uint256"
        }
      ],
      "stateMutability": "view",
      "type": "function"
    },
    {
      "inputs": [],
      "name": "getTotalHarvestedYield",
      "outputs": [
        {
          "internalType": "uint256",
          "name": "amount",
          "type": "uint256"
        }
      ],
      "stateMutability": "view",
      "type": "function"
    },
    {
      "inputs": [
        {
          "internalType": "uint32[]",
          "name": "pids",
          "type": "uint32[]"
        }
      ],
      "name": "getYieldBalances",
      "outputs": [
        {
          "internalType": "uint256[]",
          "name": "amounts",
          "type": "uint256[]"
        }
      ],
      "stateMutability": "view",
      "type": "function"
    },
    {
      "inputs": [],
      "name": "harvestYield",
      "outputs": [],
      "stateMutability": "nonpayable",
      "type": "function"
    },
    {
      "inputs": [
        {
          "internalType": "uint32",
          "name": "poolId",
          "type": "uint32"
        },
        {
          "internalType": "uint256",
          "name": "sushiRatioX1000",
          "type": "uint256"
        },
        {
          "internalType": "uint256",
          "name": "tokenRatioX1000",
          "type": "uint256"
        },
        {
          "internalType": "bool",
          "name": "convertToWeth",
          "type": "bool"
        }
      ],
      "name": "harvestYieldByPool",
      "outputs": [],
      "stateMutability": "nonpayable",
      "type": "function"
    },
    {
      "inputs": [
        {
          "internalType": "uint32",
          "name": "poolId",
          "type": "uint32"
        },
        {
          "internalType": "address",
          "name": "token",
          "type": "address"
        },
        {
          "internalType": "uint256",
          "name": "amount",
          "type": "uint256"
        }
      ],
      "name": "incrementBalance",
      "outputs": [],
      "stateMutability": "nonpayable",
      "type": "function"
    },
    {
      "inputs": [
        {
          "internalType": "address[]",
          "name": "controllers_",
          "type": "address[]"
        },
        {
          "internalType": "address",
          "name": "moduleMap_",
          "type": "address"
        },
        {
          "internalType": "address",
          "name": "factoryAddress_",
          "type": "address"
        },
        {
          "internalType": "address",
          "name": "swapRouterAddress_",
          "type": "address"
        },
        {
          "internalType": "address",
          "name": "masterChef_",
          "type": "address"
        },
        {
          "internalType": "address",
          "name": "sushi_",
          "type": "address"
        },
        {
          "internalType": "uint24",
          "name": "slippageNumerator_",
          "type": "uint24"
        }
      ],
      "name": "initialize",
      "outputs": [],
      "stateMutability": "nonpayable",
      "type": "function"
    },
    {
      "inputs": [
        {
          "internalType": "address",
          "name": "controller",
          "type": "address"
        }
      ],
      "name": "isController",
      "outputs": [
        {
          "internalType": "bool",
          "name": "status",
          "type": "bool"
        }
      ],
      "stateMutability": "view",
      "type": "function"
    },
    {
      "inputs": [
        {
          "internalType": "uint32",
          "name": "poolId",
          "type": "uint32"
        }
      ],
      "name": "manualDeploy",
      "outputs": [],
      "stateMutability": "nonpayable",
      "type": "function"
    },
    {
      "inputs": [
        {
          "internalType": "address",
          "name": "tokenAddress",
          "type": "address"
        },
        {
          "internalType": "uint256",
          "name": "amount",
          "type": "uint256"
        },
        {
          "internalType": "uint32",
          "name": "poolId",
          "type": "uint32"
        },
        {
          "internalType": "uint256",
          "name": "ratioX1000",
          "type": "uint256"
        }
      ],
      "name": "manualWithdraw",
      "outputs": [],
      "stateMutability": "nonpayable",
      "type": "function"
    },
    {
      "inputs": [],
      "name": "moduleMap",
      "outputs": [
        {
          "internalType": "contract IModuleMap",
          "name": "",
          "type": "address"
        }
      ],
      "stateMutability": "view",
      "type": "function"
    },
    {
      "inputs": [],
      "name": "poolCount",
      "outputs": [
        {
          "internalType": "uint32",
          "name": "",
          "type": "uint32"
        }
      ],
      "stateMutability": "view",
      "type": "function"
    },
    {
      "inputs": [
        {
          "internalType": "address",
          "name": "",
          "type": "address"
        }
      ],
      "name": "priceCeilings",
      "outputs": [
        {
          "internalType": "uint256",
          "name": "",
          "type": "uint256"
        }
      ],
      "stateMutability": "view",
      "type": "function"
    },
    {
      "inputs": [
        {
          "internalType": "uint32",
          "name": "poolId",
          "type": "uint32"
        },
        {
          "internalType": "uint256",
          "name": "ratioX1000",
          "type": "uint256"
        },
        {
          "internalType": "uint256",
          "name": "maxSellTokenA",
          "type": "uint256"
        },
        {
          "internalType": "uint256",
          "name": "maxSellTokenB",
          "type": "uint256"
        }
      ],
      "name": "rebalancePool",
      "outputs": [],
      "stateMutability": "nonpayable",
      "type": "function"
    },
    {
      "inputs": [
        {
          "internalType": "uint32",
          "name": "poolId",
          "type": "uint32"
        }
      ],
      "name": "stakeLPTokens",
      "outputs": [],
      "stateMutability": "nonpayable",
      "type": "function"
    },
    {
      "inputs": [
        {
          "internalType": "address",
          "name": "tokenAddress",
          "type": "address"
        },
        {
          "internalType": "uint256",
          "name": "amount",
          "type": "uint256"
        },
        {
          "internalType": "uint32",
          "name": "poolId",
          "type": "uint32"
        }
      ],
      "name": "withdraw",
      "outputs": [],
      "stateMutability": "nonpayable",
      "type": "function"
    },
    {
      "inputs": [
        {
          "internalType": "address",
          "name": "tokenAddress",
          "type": "address"
        },
        {
          "internalType": "uint256",
          "name": "amount",
          "type": "uint256"
        },
        {
          "internalType": "uint32",
          "name": "poolId",
          "type": "uint32"
        },
        {
          "internalType": "uint256",
          "name": "ratioX1000",
          "type": "uint256"
        }
      ],
      "name": "withdraw",
      "outputs": [],
      "stateMutability": "nonpayable",
      "type": "function"
    },
    {
      "inputs": [
        {
          "internalType": "uint32",
          "name": "",
          "type": "uint32"
        }
      ],
      "name": "yieldBalances",
      "outputs": [
        {
          "internalType": "uint256",
          "name": "",
          "type": "uint256"
        }
      ],
      "stateMutability": "view",
      "type": "function"
    },
    {
      "stateMutability": "payable",
      "type": "receive"
    }
  ],
  "transactionHash": "0x45f4ac052b416ebd4b13fb9bc097efb35f07a9429d98bd830af552ff909754aa",
  "args": [],
  "solcInputHash": "61a73176c1e011986752fcf1255fd163",
  "bytecode": "0x608060405234801561001057600080fd5b50615cdf80620000216000396000f3fe6080604052600436106101a35760003560e01c80630367377f146101af5780630c3fa05f146101e65780630f0a1c6f14610208578063337993cb1461023b578063364d0f5a1461025d578063403df5441461027d5780634aa06652146102ab57806351810fb5146102d95780635441c2b6146102f957806355b961801461031957806358a0f0491461032e57806359cf86da1461035b5780635ce564f41461037b5780635f53bc431461039b578063680c3052146103bb5780637534e060146103db578063754a0274146103fb5780637db2ddfe1461041b57806393cd5c101461043b57806398cf119b1461045b5780639da46ee314610488578063a4515d37146104d8578063a7fc7a071461050b578063a816800c1461052b578063ac211b951461054b578063b1cccca21461056b578063b429afeb1461058b578063ccbfc16c146105d4578063cf73715a146105f4578063d23c84b814610614578063e7daae2e14610647578063e809529e14610667578063e8d991d114610694578063e94b0dd2146106a9578063eb40c545146106c9578063f525cb68146106fe57600080fd5b366101aa57005b600080fd5b3480156101bb57600080fd5b506101cf6101ca3660046155b0565b610730565b6040516101dd929190615831565b60405180910390f35b3480156101f257600080fd5b506102066102013660046155b0565b61093e565b005b34801561021457600080fd5b5060005461022e906201000090046001600160a01b031681565b6040516101dd919061575f565b34801561024757600080fd5b50610250610bc3565b6040516101dd919061580b565b34801561026957600080fd5b50610206610278366004615623565b610c25565b34801561028957600080fd5b5061029d6102983660046155b0565b610d51565b6040516101dd9291906157a6565b3480156102b757600080fd5b506102cb6102c63660046151ca565b610f0a565b6040519081526020016101dd565b3480156102e557600080fd5b506102066102f43660046151ca565b610f32565b34801561030557600080fd5b506102cb6103143660046155cc565b611268565b34801561032557600080fd5b506102cb611298565b34801561033a57600080fd5b5061034e61034936600461541d565b6112de565b6040516101dd919061581e565b34801561036757600080fd5b50610206610376366004615604565b6113bc565b34801561038757600080fd5b506102066103963660046155b0565b61151b565b3480156103a757600080fd5b506102066103b6366004615604565b611556565b3480156103c757600080fd5b506102066103d6366004615623565b6116ab565b3480156103e757600080fd5b506102066103f636600461564e565b6117d3565b34801561040757600080fd5b5061020661041636600461524b565b611ce6565b34801561042757600080fd5b5061020661043636600461520a565b611f04565b34801561044757600080fd5b506102cb610456366004615623565b612030565b34801561046757600080fd5b506102cb610476366004615192565b600d6020526000908152604090205481565b34801561049457600080fd5b506104a86104a33660046155b0565b6121fe565b6040805182516001600160a01b0390811682526020808501519091169082015291810151908201526060016101dd565b3480156104e457600080fd5b506102cb6104f33660046155b0565b63ffffffff166000908152600f602052604090205490565b34801561051757600080fd5b50610206610526366004615192565b61225d565b34801561053757600080fd5b5061020661054636600461524b565b612499565b34801561055757600080fd5b50610206610566366004615697565b61251f565b34801561057757600080fd5b5061020661058636600461520a565b6128dc565b34801561059757600080fd5b506105c46105a6366004615192565b6001600160a01b031660009081526001602052604090205460ff1690565b60405190151581526020016101dd565b3480156105e057600080fd5b506102cb6105ef3660046151ca565b612944565b34801561060057600080fd5b5061020661060f3660046155b0565b61298a565b34801561062057600080fd5b506102cb61062f3660046155b0565b63ffffffff166000908152600b602052604090205490565b34801561065357600080fd5b50610206610662366004615292565b612aa6565b34801561067357600080fd5b506102cb6106823660046155b0565b600e6020526000908152604090205481565b3480156106a057600080fd5b50610206612d2f565b3480156106b557600080fd5b5061022e6106c4366004615530565b612fa1565b3480156106d557600080fd5b506106e96106e43660046155b0565b612fcb565b604080519283526020830191909152016101dd565b34801561070a57600080fd5b5060095461071b9063ffffffff1681565b60405163ffffffff90911681526020016101dd565b606080600061073e846121fe565b80519091506001600160a01b03166107935760405162461bcd60e51b8152602060048201526013602482015272141bdbdb08191bd95cc81b9bdd08195e1a5cdd606a1b60448201526064015b60405180910390fd5b6040805160028082526060820183526000926020830190803683375050604080516002808252606082018352939450600093909250906020830190803683370190505090508260000151816000815181106107fe57634e487b7160e01b600052603260045260246000fd5b6001600160a01b039283166020918202929092010152600754845182169116146108525763ffffffff8616600090815260106020908152604080832086516001600160a01b03168452909152902054610855565b60005b8260008151811061087657634e487b7160e01b600052603260045260246000fd5b6020026020010181815250508260200151816001815181106108a857634e487b7160e01b600052603260045260246000fd5b6001600160a01b039283166020918202929092018101919091526007549085015182169116146109045763ffffffff86166000908152601060209081526040808320868301516001600160a01b03168452909152902054610907565b60005b8260018151811061092857634e487b7160e01b600052603260045260246000fd5b6020908102919091010152909590945092505050565b600080546040516337c61fc560e11b8152620100009091046001600160a01b031691636f8c3f8a91610973919060040161585f565b60206040518083038186803b15801561098b57600080fd5b505afa15801561099f573d6000803e3d6000fd5b505050506040513d601f19601f820116820180604052508101906109c391906151ae565b6001600160a01b031663f3ae2415336040518263ffffffff1660e01b81526004016109ee919061575f565b60206040518083038186803b158015610a0657600080fd5b505afa158015610a1a573d6000803e3d6000fd5b505050506040513d601f19601f82011682018060405250810190610a3e919061548c565b610a5a5760405162461bcd60e51b815260040161078a90615986565b6000610a65826121fe565b90506000610a768260000151612fe1565b90506000610a878360200151612fe1565b90506000610a9d84600001518560200151613066565b6001600160a01b03166370a08231306040518263ffffffff1660e01b8152600401610ac8919061575f565b60206040518083038186803b158015610ae057600080fd5b505afa158015610af4573d6000803e3d6000fd5b505050506040513d601f19601f82011682018060405250810190610b189190615548565b90508015610b9c5760055463ffffffff86166000908152600b602052604090819020549051638dbdbe6d60e01b81526001600160a01b0390921691638dbdbe6d91610b699185903090600401615a3f565b600060405180830381600087803b158015610b8357600080fd5b505af1158015610b97573d6000803e3d6000fd5b505050505b610bab858560000151856130f7565b50610bbb858560200151846130f7565b505050505050565b60606002805480602002602001604051908101604052809291908181526020018280548015610c1b57602002820191906000526020600020905b81546001600160a01b03168152600190910190602001808311610bfd575b5050505050905090565b600080546040516337c61fc560e11b8152620100009091046001600160a01b031691636f8c3f8a91610c5a919060040161585f565b60206040518083038186803b158015610c7257600080fd5b505afa158015610c86573d6000803e3d6000fd5b505050506040513d601f19601f82011682018060405250810190610caa91906151ae565b6001600160a01b031663f3ae2415336040518263ffffffff1660e01b8152600401610cd5919061575f565b60206040518083038186803b158015610ced57600080fd5b505afa158015610d01573d6000803e3d6000fd5b505050506040513d601f19601f82011682018060405250810190610d25919061548c565b610d415760405162461bcd60e51b815260040161078a90615986565b610d4d8282600161315a565b5050565b610d596150c9565b610d616150c9565b6000610d6c846121fe565b80519091506001600160a01b031615610f04576006546001600160a01b03908116845260055463ffffffff86166000908152600b60205260409081902054905163065509bb60e21b8152919092169163195426ec91610dd091903090600401615a28565b60206040518083038186803b158015610de857600080fd5b505afa158015610dfc573d6000803e3d6000fd5b505050506040513d601f19601f82011682018060405250810190610e209190615548565b82526007546001600160a01b03166020840152610e3c846133dc565b602083015260075481516001600160a01b03918216911614610eaf5780516001600160a01b0390811660408086019190915263ffffffff86166000908152601060209081528282208551909416825292909252902054610e9b856133f4565b610ea59190615b03565b6040830152610f04565b602081810180516001600160a01b0390811660408088019190915263ffffffff88166000908152601085528181209351909216825291909252902054610ef4856133f4565b610efe9190615b03565b60408301525b50915091565b6000806000610f198686613503565b91509150610f288483836135da565b9695505050505050565b600080546040516337c61fc560e11b8152620100009091046001600160a01b031691636f8c3f8a91610f67919060040161585f565b60206040518083038186803b158015610f7f57600080fd5b505afa158015610f93573d6000803e3d6000fd5b505050506040513d601f19601f82011682018060405250810190610fb791906151ae565b6001600160a01b031663f3ae2415336040518263ffffffff1660e01b8152600401610fe2919061575f565b60206040518083038186803b158015610ffa57600080fd5b505afa15801561100e573d6000803e3d6000fd5b505050506040513d601f19601f82011682018060405250810190611032919061548c565b61104e5760405162461bcd60e51b815260040161078a90615986565b6009805463ffffffff1690600061106483615c04565b825463ffffffff91821661010093840a9081029083021990911617909255600980548316600090815260086020819052604080832080546001600160a01b03808d166001600160a01b03199283168117909355865489168652838620600190810180548e84169416939093179092559554600a805492830181559095529283047fc65a7bb8d6351c1cf70c95a316cc6a92839c986682d98bc35f958f4883f9d2a801805460046007909516850290970a948816850294909702199095169290921790945583549051636eb1769f60e11b815292945063dd62ed3e93611150933093929092169101615773565b60206040518083038186803b15801561116857600080fd5b505afa15801561117c573d6000803e3d6000fd5b505050506040513d601f19601f820116820180604052508101906111a09190615548565b6111c0576004546111c0906001600160a01b0385811691166000196136e0565b60048054604051636eb1769f60e11b81526001600160a01b038581169363dd62ed3e936111f39330939091169101615773565b60206040518083038186803b15801561120b57600080fd5b505afa15801561121f573d6000803e3d6000fd5b505050506040513d601f19601f820116820180604052508101906112439190615548565b61126357600454611263906001600160a01b0384811691166000196136e0565b505050565b63ffffffff82166000908152600c602090815260408083206001600160a01b038516845290915290205492915050565b6000805b60095463ffffffff90811690821610156112da576112be6104f3826001615b1b565b6112c89083615b03565b91506112d381615c04565b905061129c565b5090565b6060816001600160401b0381111561130657634e487b7160e01b600052604160045260246000fd5b60405190808252806020026020018201604052801561132f578160200160208202803683370190505b50905060005b828110156113b55761137a84848381811061136057634e487b7160e01b600052603260045260246000fd5b905060200201602081019061137591906155b0565b6133dc565b82828151811061139a57634e487b7160e01b600052603260045260246000fd5b60209081029190910101526113ae81615be9565b9050611335565b5092915050565b600080546040516337c61fc560e11b8152620100009091046001600160a01b031691636f8c3f8a916113f1919060040161585f565b60206040518083038186803b15801561140957600080fd5b505afa15801561141d573d6000803e3d6000fd5b505050506040513d601f19601f8201168201806040525081019061144191906151ae565b6001600160a01b031663f3ae2415336040518263ffffffff1660e01b815260040161146c919061575f565b60206040518083038186803b15801561148457600080fd5b505afa158015611498573d6000803e3d6000fd5b505050506040513d601f19601f820116820180604052508101906114bc919061548c565b6114d85760405162461bcd60e51b815260040161078a90615986565b63ffffffff83166000908152600c602090815260408083206001600160a01b038616845290915281208054839290611511908490615b03565b9091555050505050565b3360009081526001602052604090205460ff1661154a5760405162461bcd60e51b815260040161078a906159d4565b61155381613829565b50565b600080546040516337c61fc560e11b8152620100009091046001600160a01b031691636f8c3f8a9161158b919060040161585f565b60206040518083038186803b1580156115a357600080fd5b505afa1580156115b7573d6000803e3d6000fd5b505050506040513d601f19601f820116820180604052508101906115db91906151ae565b6001600160a01b031663f3ae2415336040518263ffffffff1660e01b8152600401611606919061575f565b60206040518083038186803b15801561161e57600080fd5b505afa158015611632573d6000803e3d6000fd5b505050506040513d601f19601f82011682018060405250810190611656919061548c565b6116725760405162461bcd60e51b815260040161078a90615986565b63ffffffff83166000908152600c602090815260408083206001600160a01b038616845290915281208054839290611511908490615ba6565b600080546040516337c61fc560e11b8152620100009091046001600160a01b031691636f8c3f8a916116e0919060040161585f565b60206040518083038186803b1580156116f857600080fd5b505afa15801561170c573d6000803e3d6000fd5b505050506040513d601f19601f8201168201806040525081019061173091906151ae565b6001600160a01b031663f3ae2415336040518263ffffffff1660e01b815260040161175b919061575f565b60206040518083038186803b15801561177357600080fd5b505afa158015611787573d6000803e3d6000fd5b505050506040513d601f19601f820116820180604052508101906117ab919061548c565b6117c75760405162461bcd60e51b815260040161078a90615986565b610d4d8282600061315a565b600080546040516337c61fc560e11b8152620100009091046001600160a01b031691636f8c3f8a91611808919060040161585f565b60206040518083038186803b15801561182057600080fd5b505afa158015611834573d6000803e3d6000fd5b505050506040513d601f19601f8201168201806040525081019061185891906151ae565b6001600160a01b031663f3ae2415336040518263ffffffff1660e01b8152600401611883919061575f565b60206040518083038186803b15801561189b57600080fd5b505afa1580156118af573d6000803e3d6000fd5b505050506040513d601f19601f820116820180604052508101906118d3919061548c565b6118ef5760405162461bcd60e51b815260040161078a90615986565b60006118fa856121fe565b9050811561191f5760065460075461191f916001600160a01b03908116911686613a92565b600061192e8260000151612fe1565b9050600061193f8360200151612fe1565b60055463ffffffff89166000908152600b602052604090819020549051630c7e663b60e11b81529293506001600160a01b03909116916318fccc7691611989913090600401615a28565b600060405180830381600087803b1580156119a357600080fd5b505af11580156119b7573d6000803e3d6000fd5b5050505063ffffffff8716600090815260106020908152604080832086516001600160a01b0316845290915281205484518491906119f490612fe1565b6119fe9190615b03565b611a089190615ba6565b63ffffffff8916600090815260106020908152604080832088830180516001600160a01b03168552925282205490519293509091849190611a4890612fe1565b611a529190615b03565b611a5c9190615ba6565b905060008215611b745760075486516001600160a01b0390811691161415611a8f57611a888382615b03565b9050611b74565b8615611b34578551600754611aae91906001600160a01b03168a613a92565b8551600754600091611aca916001600160a01b03163087613abd565b905080600181518110611aed57634e487b7160e01b600052603260045260246000fd5b602002602001015182611b009190615b03565b63ffffffff8c1660009081526010602090815260408083208b516001600160a01b031684529091528120559150611b749050565b63ffffffff8a166000908152600c6020908152604080832089516001600160a01b0316845290915281208054859290611b6e908490615b03565b90915550505b8115611c955760075460208701516001600160a01b0390811691161415611ba657611b9f8282615b03565b9050611c95565b8615611c53576020860151600754611bc891906001600160a01b03168a613a92565b6020860151600754600091611be7916001600160a01b03163086613abd565b905080600181518110611c0a57634e487b7160e01b600052603260045260246000fd5b602002602001015182611c1d9190615b03565b63ffffffff8c1660009081526010602090815260408083208b8301516001600160a01b031684529091528120559150611c959050565b63ffffffff8a166000908152600c60209081526040808320898301516001600160a01b0316845290915281208054849290611c8f908490615b03565b90915550505b611c9d613cbe565b611ca79082615b03565b90508015611cda5763ffffffff8a166000908152600e602052604081208054839290611cd4908490615b03565b90915550505b50505050505050505050565b600080546040516337c61fc560e11b8152620100009091046001600160a01b031691636f8c3f8a91611d1b919060040161585f565b60206040518083038186803b158015611d3357600080fd5b505afa158015611d47573d6000803e3d6000fd5b505050506040513d601f19601f82011682018060405250810190611d6b91906151ae565b6001600160a01b031663f3ae2415336040518263ffffffff1660e01b8152600401611d96919061575f565b60206040518083038186803b158015611dae57600080fd5b505afa158015611dc2573d6000803e3d6000fd5b505050506040513d601f19601f82011682018060405250810190611de6919061548c565b611e025760405162461bcd60e51b815260040161078a90615986565b611e0c8285611268565b8311611ef057600080546040516337c61fc560e11b8152611eac92620100009092046001600160a01b031691636f8c3f8a91611e4b919060040161585f565b60206040518083038186803b158015611e6357600080fd5b505afa158015611e77573d6000803e3d6000fd5b505050506040513d601f19601f82011682018060405250810190611e9b91906151ae565b6001600160a01b0386169085613d33565b63ffffffff82166000908152600c602090815260408083206001600160a01b038816845290915281208054859290611ee5908490615ba6565b90915550611efe9050565b611efe848484846000613d52565b50505050565b3360009081526001602052604090205460ff16611f335760405162461bcd60e51b815260040161078a906159d4565b611f3d8184611268565b821161202157600080546040516337c61fc560e11b8152611fdd92620100009092046001600160a01b031691636f8c3f8a91611f7c919060040161585f565b60206040518083038186803b158015611f9457600080fd5b505afa158015611fa8573d6000803e3d6000fd5b505050506040513d601f19601f82011682018060405250810190611fcc91906151ae565b6001600160a01b0385169084613d33565b63ffffffff81166000908152600c602090815260408083206001600160a01b038716845290915281208054849290612016908490615ba6565b909155506112639050565b61126383838360006001613d52565b600080546040516337c61fc560e11b8152620100009091046001600160a01b031690636f8c3f8a9061206690849060040161585f565b60206040518083038186803b15801561207e57600080fd5b505afa158015612092573d6000803e3d6000fd5b505050506040513d601f19601f820116820180604052508101906120b691906151ae565b6001600160a01b031663f3ae2415336040518263ffffffff1660e01b81526004016120e1919061575f565b60206040518083038186803b1580156120f957600080fd5b505afa15801561210d573d6000803e3d6000fd5b505050506040513d601f19601f82011682018060405250810190612131919061548c565b61214d5760405162461bcd60e51b815260040161078a90615986565b6000612158846121fe565b60075481519192506000916001600160a01b0390811691161461217c578151612182565b81602001515b905060006121908683611268565b61219983612fe1565b6121a39190615ba6565b90506000851180156121b457508085105b6121be57806121c0565b845b935083156121f55763ffffffff861660009081526010602090815260408083206001600160a01b038616845290915290208490555b50505092915050565b60408051606080820183526000808352602080840182905292840181905263ffffffff94909416845260088252928290208251938401835280546001600160a01b03908116855260018201541691840191909152600201549082015290565b600080546040516337c61fc560e11b8152620100009091046001600160a01b031691636f8c3f8a91612292919060040161585f565b60206040518083038186803b1580156122aa57600080fd5b505afa1580156122be573d6000803e3d6000fd5b505050506040513d601f19601f820116820180604052508101906122e291906151ae565b6001600160a01b0316632f54bf6e336040518263ffffffff1660e01b815260040161230d919061575f565b60206040518083038186803b15801561232557600080fd5b505afa158015612339573d6000803e3d6000fd5b505050506040513d601f19601f8201168201806040525081019061235d919061548c565b6123bc5760405162461bcd60e51b815260206004820152602a60248201527f436f6e74726f6c6c65643a3a6f6e6c794f776e65723a2043616c6c6572206973604482015269103737ba1037bbb732b960b11b606482015260840161078a565b6001600160a01b03811660009081526001602081905260408220805460ff19169091179055805b600254811015612442576002818154811061240e57634e487b7160e01b600052603260045260246000fd5b6000918252602090912001546001600160a01b038481169116141561243257600191505b61243b81615be9565b90506123e3565b5080610d4d57600280546001810182556000919091527f405787fa12a823e0f2b7631cc41b3ba8828b3321ca811111fa75cd3aa3bb5ace0180546001600160a01b0384166001600160a01b03199091161790555050565b3360009081526001602052604090205460ff166124c85760405162461bcd60e51b815260040161078a906159d4565b6124d28285611268565b831161251157600080546040516337c61fc560e11b8152611eac92620100009092046001600160a01b031691636f8c3f8a91611e4b919060040161585f565b611efe848484846001613d52565b600080546040516337c61fc560e11b8152620100009091046001600160a01b031691636f8c3f8a91612554919060040161585f565b60206040518083038186803b15801561256c57600080fd5b505afa158015612580573d6000803e3d6000fd5b505050506040513d601f19601f820116820180604052508101906125a491906151ae565b6001600160a01b031663f3ae2415336040518263ffffffff1660e01b81526004016125cf919061575f565b60206040518083038186803b1580156125e757600080fd5b505afa1580156125fb573d6000803e3d6000fd5b505050506040513d601f19601f8201168201806040525081019061261f919061548c565b61263b5760405162461bcd60e51b815260040161078a90615986565b6000612646856121fe565b63ffffffff86166000908152600860205260409020549091506001600160a01b03166126845760405162461bcd60e51b815260040161078a9061595a565b6126978160000151826020015186613a92565b6000806126bf836126ac898660000151611268565b6126ba8a8760200151611268565b614343565b915091506000806126d38486858a8a61436c565b915091506000816001600160a01b03166370a08231306040518263ffffffff1660e01b8152600401612705919061575f565b60206040518083038186803b15801561271d57600080fd5b505afa158015612731573d6000803e3d6000fd5b505050506040513d601f19601f820116820180604052508101906127559190615548565b905061276385833086613abd565b50600081836001600160a01b03166370a08231306040518263ffffffff1660e01b8152600401612793919061575f565b60206040518083038186803b1580156127ab57600080fd5b505afa1580156127bf573d6000803e3d6000fd5b505050506040513d601f19601f820116820180604052508101906127e39190615548565b6127ed9190615ba6565b905080156128cf5763ffffffff8b166000908152600c602090815260408083206001600160a01b038a1684529091528120805486929061282e908490615ba6565b909155505063ffffffff8b166000908152600c602090815260408083206001600160a01b03871684529091528120805483929061286c908490615b03565b90915550506040805163ffffffff8d1681526001600160a01b038881166020830152818301879052851660608201526080810183905290517f3318ce2371d9cd19d64b4ca999bd8bdcfcf18e4ec416d7dc611b729b2e59c5009181900360a00190a15b5050505050505050505050565b3360009081526001602052604090205460ff1661290b5760405162461bcd60e51b815260040161078a906159d4565b63ffffffff81166000908152600c602090815260408083206001600160a01b038716845290915281208054849290611511908490615b03565b600354600090620f42409061295e9062ffffff1682615b82565b62ffffff1661296e868686610f0a565b6129789190615b63565b6129829190615b43565b949350505050565b600080546040516337c61fc560e11b8152620100009091046001600160a01b031691636f8c3f8a916129bf919060040161585f565b60206040518083038186803b1580156129d757600080fd5b505afa1580156129eb573d6000803e3d6000fd5b505050506040513d601f19601f82011682018060405250810190612a0f91906151ae565b6001600160a01b031663f3ae2415336040518263ffffffff1660e01b8152600401612a3a919061575f565b60206040518083038186803b158015612a5257600080fd5b505afa158015612a66573d6000803e3d6000fd5b505050506040513d601f19601f82011682018060405250810190612a8a919061548c565b61154a5760405162461bcd60e51b815260040161078a90615986565b600054610100900460ff16612ac15760005460ff1615612ac5565b303b155b612ae15760405162461bcd60e51b815260040161078a906158e7565b600054610100900460ff16158015612b03576000805461ffff19166101011790555b6001600160a01b038616612b295760405162461bcd60e51b815260040161078a90615935565b6001600160a01b038516612b4f5760405162461bcd60e51b815260040161078a90615935565b6001600160a01b038416612b755760405162461bcd60e51b815260040161078a90615935565b6001600160a01b038316612b9b5760405162461bcd60e51b815260040161078a90615935565b612ba588886143c8565b60038054600480546001600160a01b03199081166001600160a01b038a81169190911783556005805483168a83161790556001600160b81b031990931663010000008b85160262ffffff19161762ffffff8716178455600680549091168784161790556000546040516337c61fc560e11b81526201000090910490921692636f8c3f8a92612c33920161585f565b60206040518083038186803b158015612c4b57600080fd5b505afa158015612c5f573d6000803e3d6000fd5b505050506040513d601f19601f82011682018060405250810190612c8391906151ae565b6001600160a01b0316638b9c94896040518163ffffffff1660e01b815260040160206040518083038186803b158015612cbb57600080fd5b505afa158015612ccf573d6000803e3d6000fd5b505050506040513d601f19601f82011682018060405250810190612cf391906151ae565b600780546001600160a01b0319166001600160a01b03929092169190911790558015612d25576000805461ff00191690555b5050505050505050565b3360009081526001602052604090205460ff16612d5e5760405162461bcd60e51b815260040161078a906159d4565b6000805b60095463ffffffff16811015612ec8576000600e6000600a8481548110612d9957634e487b7160e01b600052603260045260246000fd5b6000918252602080832060088304015460079092166004026101000a90910463ffffffff16835282019290925260400190205490508015612eb757612dde8184615b03565b925080600f6000600a8581548110612e0657634e487b7160e01b600052603260045260246000fd5b90600052602060002090600891828204019190066004029054906101000a900463ffffffff1663ffffffff1663ffffffff1681526020019081526020016000206000828254612e559190615b03565b925050819055506000600e6000600a8581548110612e8357634e487b7160e01b600052603260045260246000fd5b6000918252602080832060088304015460079092166004026101000a90910463ffffffff1683528201929092526040019020555b50612ec181615be9565b9050612d62565b508015611553576000546040516337c61fc560e11b8152612f6b916201000090046001600160a01b031690636f8c3f8a90612f089060029060040161585f565b60206040518083038186803b158015612f2057600080fd5b505afa158015612f34573d6000803e3d6000fd5b505050506040513d601f19601f82011682018060405250810190612f5891906151ae565b6007546001600160a01b03169083613d33565b6040518181527fd0e841f234010ad7f57b7c09faffb2245cd240429c6e8fa3cd934a0a8bf58eb09060200160405180910390a150565b60028181548110612fb157600080fd5b6000918252602090912001546001600160a01b0316905081565b600080612fd783614569565b9094909350915050565b6040516370a0823160e01b81526000906001600160a01b038316906370a082319061301090309060040161575f565b60206040518083038186803b15801561302857600080fd5b505afa15801561303c573d6000803e3d6000fd5b505050506040513d601f19601f820116820180604052508101906130609190615548565b92915050565b60035460405163e6a4390560e01b8152600091630100000090046001600160a01b03169063e6a43905906130a09086908690600401615773565b60206040518083038186803b1580156130b857600080fd5b505afa1580156130cc573d6000803e3d6000fd5b505050506040513d601f19601f820116820180604052508101906130f091906151ae565b9392505050565b60008161310384612fe1565b61310d9190615ba6565b905080156130f05763ffffffff841660009081526010602090815260408083206001600160a01b03871684529091528120805483929061314e908490615b03565b90915550509392505050565b6000613165846121fe565b80519091506001600160a01b031661318f5760405162461bcd60e51b815260040161078a9061595a565b6001821515146131f95763ffffffff84166000908152600b6020526040902054156131f95760405162461bcd60e51b815260206004820152601a60248201527914dd185ada5b99c8185b1c9958591e4818dbdb999a59dd5c995960321b604482015260640161078a565b600061320d82600001518360200151613066565b6005546040516378ed5d1f60e01b8152600481018790529192506001600160a01b03808416929116906378ed5d1f9060240160206040518083038186803b15801561325757600080fd5b505afa15801561326b573d6000803e3d6000fd5b505050506040513d601f19601f8201168201806040525081019061328f91906151ae565b6001600160a01b0316146132f85760405162461bcd60e51b815260206004820152602a60248201527f496e636f7272656374204d617374657243686566277320706f6f6c49642077616044820152691cc81c1c9bdd9a59195960b21b606482015260840161078a565b63ffffffff85166000908152600b6020526040908190208590556005549051636eb1769f60e11b8152600019916001600160a01b038085169263dd62ed3e92613348923092911690600401615773565b60206040518083038186803b15801561336057600080fd5b505afa158015613374573d6000803e3d6000fd5b505050506040513d601f19601f820116820180604052508101906133989190615548565b10156133d5576005546133b9906001600160a01b03838116911660006136e0565b6005546133d5906001600160a01b0383811691166000196136e0565b5050505050565b63ffffffff166000908152600e602052604090205490565b63ffffffff81166000908152600b602052604080822054600554915163c346253d60e01b81526004810182905290916001600160a01b03169063c346253d9060240160206040518083038186803b15801561344e57600080fd5b505afa158015613462573d6000803e3d6000fd5b505050506040513d601f19601f8201168201806040525081019061348691906151ae565b6001600160a01b03166348e43af482306040518363ffffffff1660e01b81526004016134b3929190615a28565b60206040518083038186803b1580156134cb57600080fd5b505afa1580156134df573d6000803e3d6000fd5b505050506040513d601f19601f820116820180604052508101906130f09190615548565b600080600061351285856148ad565b5090506000806135228787613066565b6001600160a01b0316630902f1ac6040518163ffffffff1660e01b815260040160606040518083038186803b15801561355a57600080fd5b505afa15801561356e573d6000803e3d6000fd5b505050506040513d601f19601f8201168201806040525081019061359291906154f5565b506001600160701b031691506001600160701b03169150826001600160a01b0316876001600160a01b0316146135c95780826135cc565b81815b909890975095505050505050565b60008084116136365760405162461bcd60e51b815260206004820152602260248201527f616d6f756e74496e206d7573742062652067726561746572207468616e207a65604482015261726f60f01b606482015260840161078a565b6000831180156136465750600082115b6136925760405162461bcd60e51b815260206004820152601d60248201527f4e6f206c697175696469747920696e20706f6f6c207265736572766573000000604482015260640161078a565b60006136a0856103e5615b63565b905060006136ae8483615b63565b90506000826136bf876103e8615b63565b6136c99190615b03565b90506136d58183615b43565b979650505050505050565b8015806137685750604051636eb1769f60e11b81526001600160a01b0384169063dd62ed3e906137169030908690600401615773565b60206040518083038186803b15801561372e57600080fd5b505afa158015613742573d6000803e3d6000fd5b505050506040513d601f19601f820116820180604052508101906137669190615548565b155b6137d35760405162461bcd60e51b815260206004820152603660248201527f5361666545524332303a20617070726f76652066726f6d206e6f6e2d7a65726f60448201527520746f206e6f6e2d7a65726f20616c6c6f77616e636560501b606482015260840161078a565b6112638363095ea7b360e01b84846040516024016137f292919061578d565b60408051601f198184030181529190526020810180516001600160e01b03166001600160e01b031990931692909217909152614982565b6000613834826121fe565b63ffffffff83166000908152600860205260409020549091506001600160a01b03166138725760405162461bcd60e51b815260040161078a9061595a565b6000613882838360000151611268565b90506000613894848460200151611268565b90508115806138a1575080155b156138ac5750505050565b6000806138c185600001518660200151613503565b915091506000806138d486868686614a54565b600480548a5160208c015160405162e8e33760e81b81526001600160a01b039283169481019490945281166024840152604483018590526064830184905260006084840181905260a484018190523060c48501524260e4850152949650929450919091169063e8e337009061010401606060405180830381600087803b15801561395d57600080fd5b505af1158015613971573d6000803e3d6000fd5b505050506040513d601f19601f820116820180604052508101906139959190615583565b63ffffffff8c166000908152600c602090815260408083208e516001600160a01b03168452909152812080549295508794509250906139d5908490615ba6565b909155505063ffffffff89166000908152600c602090815260408083208b8301516001600160a01b0316845290915281208054849290613a16908490615ba6565b90915550506040518181527f250600b7e1d8b908a0f07fa409e087c1b43ef3a5de3c0e23a41998c311f0ea909060200160405180910390a17fb28fd890673610fa2a3efb1cf64ae1b26dd83c3261fbd99f0d4a5821ccdaa9938982604051613a7f929190615a9a565b60405180910390a1505050505050505050565b6000613a9e8484613066565b9050600080613aad8686613503565b91509150610bbb83838387614b98565b60606000613acc868685612944565b60408051600280825260608201835292935060009290916020830190803683370190505090508681600081518110613b1457634e487b7160e01b600052603260045260246000fd5b60200260200101906001600160a01b031690816001600160a01b0316815250508581600181518110613b5657634e487b7160e01b600052603260045260246000fd5b6001600160a01b03928316602091820292909201015260048054604051636eb1769f60e11b8152429388938c82169363dd62ed3e93613b9a93309392169101615773565b60206040518083038186803b158015613bb257600080fd5b505afa158015613bc6573d6000803e3d6000fd5b505050506040513d601f19601f82011682018060405250810190613bea9190615548565b1015613c2557600454613c0b906001600160a01b038a8116911660006136e0565b600454613c25906001600160a01b038a81169116876136e0565b600480546040516338ed173960e01b81526001600160a01b03909116916338ed173991613c5c918991889188918d91899101615a5e565b600060405180830381600087803b158015613c7657600080fd5b505af1158015613c8a573d6000803e3d6000fd5b505050506040513d6000823e601f3d908101601f19168201604052613cb29190810190615397565b98975050505050505050565b6006546000908190613cd8906001600160a01b0316612fe1565b905080156112da57600654600754600091613d01916001600160a01b0391821691163085613abd565b905080600181518110613d2457634e487b7160e01b600052603260045260246000fd5b60200260200101519250505090565b6112638363a9059cbb60e01b84846040516024016137f292919061578d565b6000613d5d846121fe565b90508215613d7857613d788160000151826020015185613a92565b600080613d8d83600001518460200151613503565b60055463ffffffff89166000908152600b60205260408082205490516393f1a40b60e01b815294965092945092613ec0928c928c926001600160a01b03909116916393f1a40b91613de391903090600401615a28565b604080518083038186803b158015613dfa57600080fd5b505afa158015613e0e573d6000803e3d6000fd5b505050506040513d601f19601f82011682018060405250810190613e3291906154a8565b600001518686613e4a8a600001518b60200151613066565b6001600160a01b03166318160ddd6040518163ffffffff1660e01b815260040160206040518083038186803b158015613e8257600080fd5b505afa158015613e96573d6000803e3d6000fd5b505050506040513d601f19601f82011682018060405250810190613eba9190615548565b8a614cc2565b90506000613ed18560000151612fe1565b90506000613ee28660200151612fe1565b60055463ffffffff8b166000908152600b602052604090819020549051630ad58d2f60e01b81529293506001600160a01b0390911691630ad58d2f91613f2e9187903090600401615a3f565b600060405180830381600087803b158015613f4857600080fd5b505af1158015613f5c573d6000803e3d6000fd5b50505050613f6f898760000151846130f7565b50613f7f898760200151836130f7565b5060045486516020880151613fb4926001600160a01b0316918691613fa49190613066565b6001600160a01b031691906136e0565b6004548651602088015160009283926001600160a01b039091169163baa2abde919088858030613fe642610168615b03565b60405160e089901b6001600160e01b03191681526001600160a01b039788166004820152958716602487015260448601949094526064850192909252608484015290921660a482015260c481019190915260e4016040805180830381600087803b15801561405357600080fd5b505af1158015614067573d6000803e3d6000fd5b505050506040513d601f19601f8201168201806040525081019061408b9190615560565b9150915087600001516001600160a01b03168d6001600160a01b031614156141e15760006140c28960200151838b60000151614d94565b6140cc9084615b03565b9050891561417457600080546040516337c61fc560e11b815261416f92620100009092046001600160a01b031691636f8c3f8a9161410d919060040161585f565b60206040518083038186803b15801561412557600080fd5b505afa158015614139573d6000803e3d6000fd5b505050506040513d601f19601f8201168201806040525081019061415d91906151ae565b8a516001600160a01b03169083613d33565b6141b4565b63ffffffff8c166000908152600c602090815260408083208c516001600160a01b03168452909152812080548392906141ae908490615b03565b90915550505b600080516020615c8a8339815191528c826040516141d3929190615a9a565b60405180910390a150614334565b87602001516001600160a01b03168d6001600160a01b031614156143345760006142148960000151848b60200151614d94565b61421e9083615b03565b905089156142c957600080546040516337c61fc560e11b81526142c492620100009092046001600160a01b031691636f8c3f8a9161425f919060040161585f565b60206040518083038186803b15801561427757600080fd5b505afa15801561428b573d6000803e3d6000fd5b505050506040513d601f19601f820116820180604052508101906142af91906151ae565b60208b01516001600160a01b03169083613d33565b61430b565b63ffffffff8c166000908152600c602090815260408083208c8301516001600160a01b0316845290915281208054839290614305908490615b03565b90915550505b600080516020615c8a8339815191528c8260405161432a929190615a9a565b60405180910390a1505b50505050505050505050505050565b60008060008061435b87600001518860200151613503565b915091506135cc8787878585614dd8565b60008085600001516001600160a01b0316876001600160a01b031614156143a9575060208501518385106143a057836143a2565b845b91506143be565b5084518285106143b957826143bb565b845b91505b9550959350505050565b600054610100900460ff166143e35760005460ff16156143e7565b303b155b6144035760405162461bcd60e51b815260040161078a906158e7565b600054610100900460ff16158015614425576000805461ffff19166101011790555b6001600160a01b03821661444b5760405162461bcd60e51b815260040161078a90615935565b60005b83518110156144c15760006001600160a01b031684828151811061448257634e487b7160e01b600052603260045260246000fd5b60200260200101516001600160a01b031614156144b15760405162461bcd60e51b815260040161078a90615935565b6144ba81615be9565b905061444e565b5060005b83518110156145355760018060008684815181106144f357634e487b7160e01b600052603260045260246000fd5b6020908102919091018101516001600160a01b03168252810191909152604001600020805460ff191691151591909117905561452e81615be9565b90506144c5565b5082516145499060029060208601906150e7565b5061455382614f3a565b8015611263576000805461ff0019169055505050565b6000806000614577846121fe565b60055463ffffffff86166000908152600b60205260408082205490516393f1a40b60e01b815293945090926001600160a01b03909216916393f1a40b916145c2913090600401615a28565b604080518083038186803b1580156145d957600080fd5b505afa1580156145ed573d6000803e3d6000fd5b505050506040513d601f19601f8201168201806040525081019061461191906154a8565b51825160208401516146239190613066565b6001600160a01b03166370a08231306040518263ffffffff1660e01b815260040161464e919061575f565b60206040518083038186803b15801561466657600080fd5b505afa15801561467a573d6000803e3d6000fd5b505050506040513d601f19601f8201168201806040525081019061469e9190615548565b6146a89190615b03565b905060006146be83600001518460200151613066565b6001600160a01b03166318160ddd6040518163ffffffff1660e01b815260040160206040518083038186803b1580156146f657600080fd5b505afa15801561470a573d6000803e3d6000fd5b505050506040513d601f19601f8201168201806040525081019061472e9190615548565b61473d836402540be400615b63565b6147479190615b43565b90506402540be4008184600001516001600160a01b03166370a0823161477587600001518860200151613066565b6040518263ffffffff1660e01b8152600401614791919061575f565b60206040518083038186803b1580156147a957600080fd5b505afa1580156147bd573d6000803e3d6000fd5b505050506040513d601f19601f820116820180604052508101906147e19190615548565b6147eb9190615b63565b6147f59190615b43565b94506402540be4008184602001516001600160a01b03166370a0823161482387600001518860200151613066565b6040518263ffffffff1660e01b815260040161483f919061575f565b60206040518083038186803b15801561485757600080fd5b505afa15801561486b573d6000803e3d6000fd5b505050506040513d601f19601f8201168201806040525081019061488f9190615548565b6148999190615b63565b6148a39190615b43565b9350505050915091565b600080826001600160a01b0316846001600160a01b0316141561490e5760405162461bcd60e51b81526020600482015260196024820152784964656e746963616c20746f6b656e2061646472657373657360381b604482015260640161078a565b826001600160a01b0316846001600160a01b03161061492e578284614931565b83835b90925090506001600160a01b03821661497b5760405162461bcd60e51b815260206004820152600c60248201526b5a65726f206164647265737360a01b604482015260640161078a565b9250929050565b60006149d7826040518060400160405280602081526020017f5361666545524332303a206c6f772d6c6576656c2063616c6c206661696c6564815250856001600160a01b0316614fce9092919063ffffffff16565b80519091501561126357808060200190518101906149f5919061548c565b6112635760405162461bcd60e51b815260206004820152602a60248201527f5361666545524332303a204552433230206f7065726174696f6e20646964206e6044820152691bdd081cdd58d8d9595960b21b606482015260840161078a565b60008082841115614af557600083614a6e866103e8615b63565b614a789190615b43565b905060006103e8614a898389615b63565b614a939190615b43565b905080881015614abe5787935081614aad856103e8615b63565b614ab79190615b43565b9250614aee565b87811015614ae7576103e8614ad38389615b63565b614add9190615b43565b9350869250614aee565b8793508692505b5050614b8f565b82841015614b8f57600084614b0c856103e8615b63565b614b169190615b43565b905060006103e8614b27838a615b63565b614b319190615b43565b905080871015614b5c5781614b48886103e8615b63565b614b529190615b43565b9350869250614b8c565b86811015614b85578793506103e8614b748386615b63565b614b7e9190615b43565b9250614b8c565b8793508692505b50505b94509492505050565b6001600160a01b038416614bed5760405162461bcd60e51b815260206004820152601c60248201527b2a3930b232b92537b2a4b73a32b3b930ba34b7b71d2130b22830b4b960211b604482015260640161078a565b600082841015614c155783614c04846103e8615b63565b614c0e9190615b43565b9050614c2f565b83831015614c2a5782614c04856103e8615b63565b506103e85b81811115614c7b57600182614c448184615ba6565b614c4f906064615b63565b614c599190615b43565b10614c765760405162461bcd60e51b815260040161078a906158ba565b6133d5565b808211156133d557600182614c908382615ba6565b614c9b906064615b63565b614ca59190615b43565b106133d55760405162461bcd60e51b815260040161078a906158ba565b60008082600001516001600160a01b0316896001600160a01b03161415614d15578315614d0b5783614cfc87670de0b6b3a7640000615b63565b614d069190615b43565b614d0e565b60005b9050614d43565b8315614d3d5783614d2e86670de0b6b3a7640000615b63565b614d389190615b43565b614d40565b60005b90505b80614d525760009150506136d5565b80614d5e60028a615b43565b614d7090670de0b6b3a7640000615b63565b614d7a9190615b43565b915086821115614d88578691505b50979650505050505050565b600080614da385843087613abd565b905080600181518110614dc657634e487b7160e01b600052603260045260246000fd5b60200260200101519150509392505050565b60008082841115614e8857600083614df2866103e8615b63565b614dfc9190615b43565b905060006103e8614e0d8389615b63565b614e179190615b43565b905080881015614e5c57600282614e308a6103e8615b63565b614e3a9190615b43565b614e449089615ba6565b614e4e9190615b43565b925088602001519350614e81565b87811015614e81576002614e70828a615ba6565b614e7a9190615b43565b8951945092505b50506143be565b828410156143be57600084614e9f856103e8615b63565b614ea99190615b43565b905060006103e8614eba838a615b63565b614ec49190615b43565b905086811015614ef2576002614eda8289615ba6565b614ee49190615b43565b925088602001519350614f2e565b80871015614f2e57600282614f09896103e8615b63565b614f139190615b43565b614f1d908a615ba6565b614f279190615b43565b8951945092505b50509550959350505050565b600054610100900460ff16614f555760005460ff1615614f59565b303b155b614f755760405162461bcd60e51b815260040161078a906158e7565b600054610100900460ff16158015614f97576000805461ffff19166101011790555b6000805462010000600160b01b031916620100006001600160a01b038516021790558015610d4d576000805461ff00191690555050565b6060612982848460008585843b6150275760405162461bcd60e51b815260206004820152601d60248201527f416464726573733a2063616c6c20746f206e6f6e2d636f6e7472616374000000604482015260640161078a565b600080866001600160a01b031685876040516150439190615743565b60006040518083038185875af1925050503d8060008114615080576040519150601f19603f3d011682016040523d82523d6000602084013e615085565b606091505b50915091506136d58282866060831561509f5750816130f0565b8251156150af5782518084602001fd5b8160405162461bcd60e51b815260040161078a9190615887565b60405180606001604052806003906020820280368337509192915050565b82805482825590600052602060002090810192821561513c579160200282015b8281111561513c57825182546001600160a01b0319166001600160a01b03909116178255602090920191600190910190615107565b506112da9291505b808211156112da5760008155600101615144565b803561516381615c54565b919050565b80516001600160701b038116811461516357600080fd5b803562ffffff8116811461516357600080fd5b6000602082840312156151a3578081fd5b81356130f081615c54565b6000602082840312156151bf578081fd5b81516130f081615c54565b6000806000606084860312156151de578182fd5b83356151e981615c54565b925060208401356151f981615c54565b929592945050506040919091013590565b60008060006060848603121561521e578283fd5b833561522981615c54565b925060208401359150604084013561524081615c77565b809150509250925092565b60008060008060808587031215615260578081fd5b843561526b81615c54565b935060208501359250604085013561528281615c77565b9396929550929360600135925050565b600080600080600080600060e0888a0312156152ac578283fd5b87356001600160401b038111156152c1578384fd5b8801601f81018a136152d1578384fd5b803560206152e66152e183615ae0565b615ab0565b8083825282820191508285018e848660051b8801011115615305578889fd5b8895505b8486101561533057803561531c81615c54565b835260019590950194918301918301615309565b509a5061534090508b8201615158565b985050505061535160408901615158565b945061535f60608901615158565b935061536d60808901615158565b925061537b60a08901615158565b915061538960c0890161517f565b905092959891949750929550565b600060208083850312156153a9578182fd5b82516001600160401b038111156153be578283fd5b8301601f810185136153ce578283fd5b80516153dc6152e182615ae0565b80828252848201915084840188868560051b87010111156153fb578687fd5b8694505b83851015614d885780518352600194909401939185019185016153ff565b6000806020838503121561542f578182fd5b82356001600160401b0380821115615445578384fd5b818501915085601f830112615458578384fd5b813581811115615466578485fd5b8660208260051b850101111561547a578485fd5b60209290920196919550909350505050565b60006020828403121561549d578081fd5b81516130f081615c69565b6000604082840312156154b9578081fd5b604080519081016001600160401b03811182821017156154db576154db615c3e565b604052825181526020928301519281019290925250919050565b600080600060608486031215615509578081fd5b61551284615168565b925061552060208501615168565b9150604084015161524081615c77565b600060208284031215615541578081fd5b5035919050565b600060208284031215615559578081fd5b5051919050565b60008060408385031215615572578182fd5b505080516020909101519092909150565b600080600060608486031215615597578081fd5b8351925060208401519150604084015190509250925092565b6000602082840312156155c1578081fd5b81356130f081615c77565b600080604083850312156155de578182fd5b82356155e981615c77565b915060208301356155f981615c54565b809150509250929050565b600080600060608486031215615618578081fd5b83356151e981615c77565b60008060408385031215615635578182fd5b823561564081615c77565b946020939093013593505050565b60008060008060808587031215615663578182fd5b843561566e81615c77565b93506020850135925060408501359150606085013561568c81615c69565b939692955090935050565b600080600080608085870312156156ac578182fd5b84356156b781615c77565b966020860135965060408601359560600135945092505050565b6000815180845260208085019450808401835b838110156157095781516001600160a01b0316875295820195908201906001016156e4565b509495945050505050565b6000815180845260208085019450808401835b8381101561570957815187529582019590820190600101615727565b60008251615755818460208701615bbd565b9190910192915050565b6001600160a01b0391909116815260200190565b6001600160a01b0392831681529116602082015260400190565b6001600160a01b03929092168252602082015260400190565b60c08101818460005b60038110156157d75781516001600160a01b03168352602092830192909101906001016157af565b505050606082018360005b60038110156158015781518352602092830192909101906001016157e2565b5050509392505050565b6020815260006130f060208301846156d1565b6020815260006130f06020830184615714565b6040815260006158446040830185615714565b828103602084015261585681856156d1565b95945050505050565b60208101600d831061588157634e487b7160e01b600052602160045260246000fd5b91905290565b60208152600082518060208401526158a6816040850160208701615bbd565b601f01601f19169190910160400192915050565b60208082526013908201527210d95a5b1a5b99d31a5b5a5d14995858da1959606a1b604082015260600190565b6020808252602e908201527f496e697469616c697a61626c653a20636f6e747261637420697320616c72656160408201526d191e481a5b9a5d1a585b1a5e995960921b606082015260800190565b6020808252600b908201526a626164206164647265737360a81b604082015260600190565b602080825260129082015271141bdbdb08191bd95cdb89dd08195e1a5cdd60721b604082015260600190565b6020808252602e908201527f436f6e74726f6c6c65643a3a6f6e6c794d616e616765723a2043616c6c65722060408201526d34b9903737ba1036b0b730b3b2b960911b606082015260800190565b60208082526034908201527f436f6e74726f6c6c65643a3a6f6e6c79436f6e74726f6c6c65723a2043616c6c60408201527332b91034b9903737ba1031b7b73a3937b63632b960611b606082015260800190565b9182526001600160a01b0316602082015260400190565b92835260208301919091526001600160a01b0316604082015260600190565b85815284602082015260a060408201526000615a7d60a08301866156d1565b6001600160a01b0394909416606083015250608001529392505050565b63ffffffff929092168252602082015260400190565b604051601f8201601f191681016001600160401b0381118282101715615ad857615ad8615c3e565b604052919050565b60006001600160401b03821115615af957615af9615c3e565b5060051b60200190565b60008219821115615b1657615b16615c28565b500190565b600063ffffffff808316818516808303821115615b3a57615b3a615c28565b01949350505050565b600082615b5e57634e487b7160e01b81526012600452602481fd5b500490565b6000816000190483118215151615615b7d57615b7d615c28565b500290565b600062ffffff83811690831681811015615b9e57615b9e615c28565b039392505050565b600082821015615bb857615bb8615c28565b500390565b60005b83811015615bd8578181015183820152602001615bc0565b83811115611efe5750506000910152565b6000600019821415615bfd57615bfd615c28565b5060010190565b600063ffffffff80831681811415615c1e57615c1e615c28565b6001019392505050565b634e487b7160e01b600052601160045260246000fd5b634e487b7160e01b600052604160045260246000fd5b6001600160a01b038116811461155357600080fd5b801515811461155357600080fd5b63ffffffff8116811461155357600080fdfe6fb183d14e6407db4dfb55deb83841283e9e3015e3aabe210d446b16f1ce0937a26469706673582212201d052ea7ff7a3104a5174f2a1c909a62d52f6ad78c846f55a92d2c51551f84af64736f6c63430008040033",
  "devdoc": {
    "kind": "dev",
    "methods": {
      "countExtraRewards(uint32,uint256)": {
        "details": "only call without max for pools that have an exclusive (non-weth) token :)",
        "params": {
          "max": "The maximum amount of rewards to account, or 0 for all",
          "poolId": "The amm pool ID of the pool to fix"
        }
      },
      "deposit(address,uint256,uint32)": {
        "params": {
          "amount": "The amount of the token being deposited",
          "token": "The address of the deposited token"
        }
      },
      "getAmountOut(address,address,uint256)": {
        "params": {
          "amountIn": "The exact amount of the input to swap",
          "tokenIn": "The address of the input token",
          "tokenOut": "The address of the output token"
        },
        "returns": {
          "amountOut": "The estimated amount of tokenOut to receive"
        }
      },
      "getAmountOutMinimum(address,address,uint256)": {
        "params": {
          "amountIn": "The exact amount of the input to swap",
          "tokenIn": "The address of the input token",
          "tokenOut": "The address of the output token"
        },
        "returns": {
          "amountOutMinimum": "The minimum amount of tokenOut to receive, factoring in allowable slippage"
        }
      },
      "getBalance(uint32,address)": {
        "returns": {
          "_0": "token The address of the token to get the balance of"
        }
      },
      "getPendingYield(uint32)": {
        "details": "Returns total amount of pending yield in SUSHI rewards",
        "returns": {
          "amounts": "Returns the amounts of the yield tokens",
          "tokens": "Returns the addresses of the yield tokens"
        }
      },
      "harvestYield()": {
        "details": "Harvests token yield from the integration"
      },
      "incrementBalance(uint32,address,uint256)": {
        "params": {
          "amount": "The amount of the token being deposited",
          "token": "The address of the deposited token"
        }
      },
      "initialize(address[],address,address,address,address,address,uint24)": {
        "params": {
          "controllers_": "The address of the controlling contract",
          "factoryAddress_": "The address of the SushiSwap factory contract",
          "swapRouterAddress_": "The address of the Sushi swap router contract"
        }
      },
      "rebalancePool(uint32,uint256,uint256,uint256)": {
        "params": {
          "maxSellTokenA": "max amount of tokenA to sell",
          "maxSellTokenB": "max amount of tokenB to sell",
          "poolId": "The ID of the pool to rebalance"
        }
      },
      "withdraw(address,uint256,uint32)": {
        "params": {
          "amount": "The amoutn of the token to withdraw",
          "tokenAddress": "The address of the underlying token to withdraw"
        }
      }
    },
    "version": 1
  },
  "userdoc": {
    "events": {
      "CreatePool(address,address,uint32)": {
        "notice": "Events"
      }
    },
    "kind": "user",
    "methods": {
      "harvestYieldByPool(uint32,uint256,uint256,bool)": {
        "notice": "Harvest available yield for all pools positions"
      },
      "rebalancePool(uint32,uint256,uint256,uint256)": {
        "notice": "Rebalances by attempting to swap up to max to get into position ratio"
      },
      "withdraw(address,uint256,uint32)": {
        "notice": "Withdraws token from the integration"
      }
    },
    "notice": "Integrates 0x Nodes to SushiSwap",
    "version": 1
  },
  "storageLayout": {
    "storage": [
      {
        "astId": 723,
        "contract": "contracts/yield-integrations/SushiSwapIntegrationV2.sol:SushiSwapIntegrationV2",
        "label": "_initialized",
        "offset": 0,
        "slot": "0",
        "type": "t_bool"
      },
      {
        "astId": 726,
        "contract": "contracts/yield-integrations/SushiSwapIntegrationV2.sol:SushiSwapIntegrationV2",
        "label": "_initializing",
        "offset": 1,
        "slot": "0",
        "type": "t_bool"
      },
      {
        "astId": 10147,
        "contract": "contracts/yield-integrations/SushiSwapIntegrationV2.sol:SushiSwapIntegrationV2",
        "label": "moduleMap",
        "offset": 2,
        "slot": "0",
        "type": "t_contract(IModuleMap)21195"
      },
      {
        "astId": 4666,
        "contract": "contracts/yield-integrations/SushiSwapIntegrationV2.sol:SushiSwapIntegrationV2",
        "label": "_controllers",
        "offset": 0,
        "slot": "1",
        "type": "t_mapping(t_address,t_bool)"
      },
      {
        "astId": 4669,
        "contract": "contracts/yield-integrations/SushiSwapIntegrationV2.sol:SushiSwapIntegrationV2",
        "label": "controllers",
        "offset": 0,
        "slot": "2",
        "type": "t_array(t_address)dyn_storage"
      },
      {
        "astId": 44870,
        "contract": "contracts/yield-integrations/SushiSwapIntegrationV2.sol:SushiSwapIntegrationV2",
        "label": "slippageNumerator",
        "offset": 0,
        "slot": "3",
        "type": "t_uint24"
      },
      {
        "astId": 44872,
        "contract": "contracts/yield-integrations/SushiSwapIntegrationV2.sol:SushiSwapIntegrationV2",
        "label": "factoryAddress",
        "offset": 3,
        "slot": "3",
        "type": "t_address"
      },
      {
        "astId": 44874,
        "contract": "contracts/yield-integrations/SushiSwapIntegrationV2.sol:SushiSwapIntegrationV2",
        "label": "swapRouterAddress",
        "offset": 0,
        "slot": "4",
        "type": "t_address"
      },
      {
        "astId": 44876,
        "contract": "contracts/yield-integrations/SushiSwapIntegrationV2.sol:SushiSwapIntegrationV2",
        "label": "masterChef",
        "offset": 0,
        "slot": "5",
        "type": "t_address"
      },
      {
        "astId": 44878,
        "contract": "contracts/yield-integrations/SushiSwapIntegrationV2.sol:SushiSwapIntegrationV2",
        "label": "sushi",
        "offset": 0,
        "slot": "6",
        "type": "t_address"
      },
      {
        "astId": 44880,
        "contract": "contracts/yield-integrations/SushiSwapIntegrationV2.sol:SushiSwapIntegrationV2",
        "label": "wethAddress",
        "offset": 0,
        "slot": "7",
        "type": "t_address"
      },
      {
        "astId": 44885,
        "contract": "contracts/yield-integrations/SushiSwapIntegrationV2.sol:SushiSwapIntegrationV2",
        "label": "pools",
        "offset": 0,
        "slot": "8",
        "type": "t_mapping(t_uint256,t_struct(Pool)19424_storage)"
      },
      {
        "astId": 44887,
        "contract": "contracts/yield-integrations/SushiSwapIntegrationV2.sol:SushiSwapIntegrationV2",
        "label": "poolCount",
        "offset": 0,
        "slot": "9",
        "type": "t_uint32"
      },
      {
        "astId": 44890,
        "contract": "contracts/yield-integrations/SushiSwapIntegrationV2.sol:SushiSwapIntegrationV2",
        "label": "poolIds",
        "offset": 0,
        "slot": "10",
        "type": "t_array(t_uint32)dyn_storage"
      },
      {
        "astId": 44894,
        "contract": "contracts/yield-integrations/SushiSwapIntegrationV2.sol:SushiSwapIntegrationV2",
        "label": "stakings",
        "offset": 0,
        "slot": "11",
        "type": "t_mapping(t_uint32,t_uint256)"
      },
      {
        "astId": 44900,
        "contract": "contracts/yield-integrations/SushiSwapIntegrationV2.sol:SushiSwapIntegrationV2",
        "label": "balances",
        "offset": 0,
        "slot": "12",
        "type": "t_mapping(t_uint256,t_mapping(t_address,t_uint256))"
      },
      {
        "astId": 44904,
        "contract": "contracts/yield-integrations/SushiSwapIntegrationV2.sol:SushiSwapIntegrationV2",
        "label": "priceCeilings",
        "offset": 0,
        "slot": "13",
        "type": "t_mapping(t_address,t_uint256)"
      },
      {
        "astId": 44908,
        "contract": "contracts/yield-integrations/SushiSwapIntegrationV2.sol:SushiSwapIntegrationV2",
        "label": "yieldBalances",
        "offset": 0,
        "slot": "14",
        "type": "t_mapping(t_uint32,t_uint256)"
      },
      {
        "astId": 44912,
        "contract": "contracts/yield-integrations/SushiSwapIntegrationV2.sol:SushiSwapIntegrationV2",
        "label": "harvestedYield",
        "offset": 0,
        "slot": "15",
        "type": "t_mapping(t_uint32,t_uint256)"
      },
      {
        "astId": 44918,
        "contract": "contracts/yield-integrations/SushiSwapIntegrationV2.sol:SushiSwapIntegrationV2",
        "label": "rewardBalances",
        "offset": 0,
        "slot": "16",
        "type": "t_mapping(t_uint32,t_mapping(t_address,t_uint256))"
      }
    ],
    "types": {
      "t_address": {
        "encoding": "inplace",
        "label": "address",
        "numberOfBytes": "20"
      },
      "t_array(t_address)dyn_storage": {
        "base": "t_address",
        "encoding": "dynamic_array",
        "label": "address[]",
        "numberOfBytes": "32"
      },
      "t_array(t_uint32)dyn_storage": {
        "base": "t_uint32",
        "encoding": "dynamic_array",
        "label": "uint32[]",
        "numberOfBytes": "32"
      },
      "t_bool": {
        "encoding": "inplace",
        "label": "bool",
        "numberOfBytes": "1"
      },
      "t_contract(IModuleMap)21195": {
        "encoding": "inplace",
        "label": "contract IModuleMap",
        "numberOfBytes": "20"
      },
      "t_mapping(t_address,t_bool)": {
        "encoding": "mapping",
        "key": "t_address",
        "label": "mapping(address => bool)",
        "numberOfBytes": "32",
        "value": "t_bool"
      },
      "t_mapping(t_address,t_uint256)": {
        "encoding": "mapping",
        "key": "t_address",
        "label": "mapping(address => uint256)",
        "numberOfBytes": "32",
        "value": "t_uint256"
      },
      "t_mapping(t_uint256,t_mapping(t_address,t_uint256))": {
        "encoding": "mapping",
        "key": "t_uint256",
        "label": "mapping(uint256 => mapping(address => uint256))",
        "numberOfBytes": "32",
        "value": "t_mapping(t_address,t_uint256)"
      },
      "t_mapping(t_uint256,t_struct(Pool)19424_storage)": {
        "encoding": "mapping",
        "key": "t_uint256",
        "label": "mapping(uint256 => struct IAMMIntegration.Pool)",
        "numberOfBytes": "32",
        "value": "t_struct(Pool)19424_storage"
      },
      "t_mapping(t_uint32,t_mapping(t_address,t_uint256))": {
        "encoding": "mapping",
        "key": "t_uint32",
        "label": "mapping(uint32 => mapping(address => uint256))",
        "numberOfBytes": "32",
        "value": "t_mapping(t_address,t_uint256)"
      },
      "t_mapping(t_uint32,t_uint256)": {
        "encoding": "mapping",
        "key": "t_uint32",
        "label": "mapping(uint32 => uint256)",
        "numberOfBytes": "32",
        "value": "t_uint256"
      },
      "t_struct(Pool)19424_storage": {
        "encoding": "inplace",
        "label": "struct IAMMIntegration.Pool",
        "members": [
          {
            "astId": 19419,
            "contract": "contracts/yield-integrations/SushiSwapIntegrationV2.sol:SushiSwapIntegrationV2",
            "label": "tokenA",
            "offset": 0,
            "slot": "0",
            "type": "t_address"
          },
          {
            "astId": 19421,
            "contract": "contracts/yield-integrations/SushiSwapIntegrationV2.sol:SushiSwapIntegrationV2",
            "label": "tokenB",
            "offset": 0,
            "slot": "1",
            "type": "t_address"
          },
          {
            "astId": 19423,
            "contract": "contracts/yield-integrations/SushiSwapIntegrationV2.sol:SushiSwapIntegrationV2",
            "label": "positionID",
            "offset": 0,
            "slot": "2",
            "type": "t_uint256"
          }
        ],
        "numberOfBytes": "96"
      },
      "t_uint24": {
        "encoding": "inplace",
        "label": "uint24",
        "numberOfBytes": "3"
      },
      "t_uint256": {
        "encoding": "inplace",
        "label": "uint256",
        "numberOfBytes": "32"
      },
      "t_uint32": {
        "encoding": "inplace",
        "label": "uint32",
        "numberOfBytes": "4"
      }
    }
  }
}