{
  "address": "0xe04877B631413156E5Ef0Add161B6415E1269C23",
  "abi": [
    {
      "anonymous": false,
      "inputs": [
        {
          "indexed": false,
          "internalType": "address",
          "name": "tokenIn",
          "type": "address"
        },
        {
          "indexed": false,
          "internalType": "address",
          "name": "tokenOut",
          "type": "address"
        },
        {
          "indexed": false,
          "internalType": "uint256",
          "name": "amountIn",
          "type": "uint256"
        },
        {
          "indexed": false,
          "internalType": "uint256",
          "name": "amountOutMin",
          "type": "uint256"
        },
        {
          "indexed": false,
          "internalType": "uint256",
          "name": "amountOut",
          "type": "uint256"
        }
      ],
      "name": "ExecutedSwapExactInput",
      "type": "event"
    },
    {
      "anonymous": false,
      "inputs": [
        {
          "indexed": false,
          "internalType": "address",
          "name": "tokenIn",
          "type": "address"
        },
        {
          "indexed": false,
          "internalType": "address",
          "name": "tokenOut",
          "type": "address"
        },
        {
          "indexed": false,
          "internalType": "uint256",
          "name": "amountIn",
          "type": "uint256"
        },
        {
          "indexed": false,
          "internalType": "uint256",
          "name": "amountOutMin",
          "type": "uint256"
        }
      ],
      "name": "FailedSwapExactInput",
      "type": "event"
    },
    {
      "anonymous": false,
      "inputs": [
        {
          "indexed": false,
          "internalType": "uint24",
          "name": "slippageNumerator",
          "type": "uint24"
        }
      ],
      "name": "SushiSwapSlippageNumeratorUpdated",
      "type": "event"
    },
    {
      "inputs": [
        {
          "internalType": "address[]",
          "name": "controllers_",
          "type": "address[]"
        },
        {
          "internalType": "address",
          "name": "moduleMap_",
          "type": "address"
        }
      ],
      "name": "__Controlled_init",
      "outputs": [],
      "stateMutability": "nonpayable",
      "type": "function"
    },
    {
      "inputs": [
        {
          "internalType": "address",
          "name": "controller",
          "type": "address"
        }
      ],
      "name": "addController",
      "outputs": [],
      "stateMutability": "nonpayable",
      "type": "function"
    },
    {
      "inputs": [],
      "name": "biosBuyBack",
      "outputs": [
        {
          "internalType": "bool",
          "name": "",
          "type": "bool"
        }
      ],
      "stateMutability": "nonpayable",
      "type": "function"
    },
    {
      "inputs": [
        {
          "internalType": "uint256",
          "name": "",
          "type": "uint256"
        }
      ],
      "name": "controllers",
      "outputs": [
        {
          "internalType": "address",
          "name": "",
          "type": "address"
        }
      ],
      "stateMutability": "view",
      "type": "function"
    },
    {
      "inputs": [
        {
          "internalType": "address",
          "name": "tokenIn",
          "type": "address"
        },
        {
          "internalType": "address",
          "name": "tokenOut",
          "type": "address"
        },
        {
          "internalType": "uint256",
          "name": "amountIn",
          "type": "uint256"
        }
      ],
      "name": "getAmountOut",
      "outputs": [
        {
          "internalType": "uint256",
          "name": "amountOut",
          "type": "uint256"
        }
      ],
      "stateMutability": "view",
      "type": "function"
    },
    {
      "inputs": [
        {
          "internalType": "address",
          "name": "tokenIn",
          "type": "address"
        },
        {
          "internalType": "address",
          "name": "tokenOut",
          "type": "address"
        },
        {
          "internalType": "uint256",
          "name": "amountIn",
          "type": "uint256"
        }
      ],
      "name": "getAmountOutMinimum",
      "outputs": [
        {
          "internalType": "uint256",
          "name": "amountOutMinimum",
          "type": "uint256"
        }
      ],
      "stateMutability": "view",
      "type": "function"
    },
    {
      "inputs": [],
      "name": "getFactoryAddress",
      "outputs": [
        {
          "internalType": "address",
          "name": "",
          "type": "address"
        }
      ],
      "stateMutability": "view",
      "type": "function"
    },
    {
      "inputs": [],
      "name": "getSlippageDenominator",
      "outputs": [
        {
          "internalType": "uint24",
          "name": "",
          "type": "uint24"
        }
      ],
      "stateMutability": "pure",
      "type": "function"
    },
    {
      "inputs": [],
      "name": "getSlippageNumerator",
      "outputs": [
        {
          "internalType": "uint24",
          "name": "",
          "type": "uint24"
        }
      ],
      "stateMutability": "view",
      "type": "function"
    },
    {
      "inputs": [
        {
          "internalType": "address[]",
          "name": "controllers_",
          "type": "address[]"
        },
        {
          "internalType": "address",
          "name": "moduleMap_",
          "type": "address"
        },
        {
          "internalType": "address",
          "name": "factoryAddress_",
          "type": "address"
        },
        {
          "internalType": "address",
          "name": "swapRouterAddress_",
          "type": "address"
        },
        {
          "internalType": "uint24",
          "name": "slippageNumerator_",
          "type": "uint24"
        }
      ],
      "name": "initialize",
      "outputs": [],
      "stateMutability": "nonpayable",
      "type": "function"
    },
    {
      "inputs": [],
      "name": "moduleMap",
      "outputs": [
        {
          "internalType": "contract IModuleMap",
          "name": "",
          "type": "address"
        }
      ],
      "stateMutability": "view",
      "type": "function"
    },
    {
      "inputs": [
        {
          "internalType": "address",
          "name": "tokenIn",
          "type": "address"
        },
        {
          "internalType": "address",
          "name": "tokenOut",
          "type": "address"
        },
        {
          "internalType": "address",
          "name": "recipient",
          "type": "address"
        },
        {
          "internalType": "uint256",
          "name": "amountIn",
          "type": "uint256"
        },
        {
          "internalType": "uint256",
          "name": "amountOutMin",
          "type": "uint256"
        }
      ],
      "name": "swapExactInput",
      "outputs": [
        {
          "internalType": "bool",
          "name": "",
          "type": "bool"
        }
      ],
      "stateMutability": "nonpayable",
      "type": "function"
    },
    {
      "inputs": [
        {
          "internalType": "uint24",
          "name": "slippageNumerator_",
          "type": "uint24"
        }
      ],
      "name": "updateSlippageNumerator",
      "outputs": [],
      "stateMutability": "nonpayable",
      "type": "function"
    }
  ],
  "transactionHash": "0x60634261cb8fdd8307d47ac2f5d0e95ff865ae07fdc3ad20eab3da5cb4da69b4",
  "args": [],
  "solcInputHash": "97ca3d881c0665fbcb6fbd64fc459161",
  "bytecode": "0x608060405234801561001057600080fd5b5061211d806100206000396000f3fe608060405234801561001057600080fd5b50600436106100cf5760003560e01c806398c671ce1161008c578063a9c2e36c11610066578063a9c2e36c146101c1578063bbb37017146101d9578063ccbfc16c146101e2578063e94b0dd2146101f557600080fd5b806398c671ce1461017e578063a0cae8f614610191578063a7fc7a07146101ae57600080fd5b80630f0a1c6f146100d4578063257b31851461010a5780632ef318c11461011f57806349470541146101325780634aa06652146101555780638f769ec914610176575b600080fd5b6000546100ed906201000090046001600160a01b031681565b6040516001600160a01b0390911681526020015b60405180910390f35b61011d610118366004611c19565b610208565b005b61011d61012d366004611d9e565b610394565b610145610140366004611b2f565b61069b565b6040519015158152602001610101565b610168610163366004611b89565b610b58565b604051908152602001610101565b610145610cbc565b61011d61018c366004611bc9565b610ff5565b60035462ffffff165b60405162ffffff9091168152602001610101565b61011d6101bc366004611af7565b6110f6565b600354630100000090046001600160a01b03166100ed565b620f424061019a565b6101686101f0366004611b89565b611331565b6100ed610203366004611db8565b611377565b600054610100900460ff1680610221575060005460ff16155b6102465760405162461bcd60e51b815260040161023d90611e5f565b60405180910390fd5b600054610100900460ff16158015610268576000805461ffff19166101011790555b600354620f424062ffffff909116111561031b5760405162461bcd60e51b815260206004820152606260248201527f5375736869537761705472616465723a3a696e697469616c697a653a20536c6960448201527f7070616765204e756d657261746f72206d757374206265206c6573732074686160648201527f6e206f7220657175616c20746f20736c6970706167652064656e6f6d696e617460848201526137b960f11b60a482015260c40161023d565b6103258686610ff5565b61032e856113a1565b60038054600480546001600160a01b0319166001600160a01b03878116919091179091556001600160b81b031990911663010000009187169190910262ffffff19161762ffffff8416179055801561038c576000805461ff00191690555b505050505050565b600080546040516337c61fc560e11b8152620100009091046001600160a01b031691636f8c3f8a916103c99190600401611e04565b60206040518083038186803b1580156103e157600080fd5b505afa1580156103f5573d6000803e3d6000fd5b505050506040513d601f19601f820116820180604052508101906104199190611b13565b60405163f3ae241560e01b81523360048201526001600160a01b03919091169063f3ae24159060240160206040518083038186803b15801561045a57600080fd5b505afa15801561046e573d6000803e3d6000fd5b505050506040513d601f19601f820116820180604052508101906104929190611d30565b6104f55760405162461bcd60e51b815260206004820152602e60248201527f436f6e74726f6c6c65643a3a6f6e6c794d616e616765723a2043616c6c65722060448201526d34b9903737ba1036b0b730b3b2b960911b606482015260840161023d565b60035462ffffff828116911614156105925760405162461bcd60e51b815260206004820152605460248201527f5375736869537761705472616465723a3a736574536c6970706167654e756d6560448201527f7261746f723a20536c697070616765206e756d657261746f72206d7573742062606482015273652073657420746f2061206e65772076616c756560601b608482015260a40161023d565b600354620f424062ffffff909116111561064f5760405162461bcd60e51b815260206004820152606c60248201527f5375736869537761705472616465723a3a736574536c6970706167654e756d6560448201527f7261746f723a20536c697070616765204e756d657261746f72206d757374206260648201527f65206c657373207468616e206f7220657175616c20746f20736c69707061676560848201526b103232b737b6b4b730ba37b960a11b60a482015260c40161023d565b6003805462ffffff191662ffffff83169081179091556040519081527f2946b3a1ef03d9a59c864dc0f1780b8ce4a27cdf227a341877e28742649efb909060200160405180910390a150565b3360009081526001602052604081205460ff166106ca5760405162461bcd60e51b815260040161023d90611ead565b6040516370a0823160e01b815230600482015283906001600160a01b038816906370a082319060240160206040518083038186803b15801561070b57600080fd5b505afa15801561071f573d6000803e3d6000fd5b505050506040513d601f19601f820116820180604052508101906107439190611dd0565b10156107c25760405162461bcd60e51b815260206004820152604260248201527f5375736869537761705472616465723a3a737761704578616374496e7075743a60448201527f2042616c616e6365206973206c657373207468616e20747261646520616d6f756064820152611b9d60f21b608482015260a40161023d565b604080516002808252606082018352600092602083019080368337019050509050868160008151811061080557634e487b7160e01b600052603260045260246000fd5b60200260200101906001600160a01b031690816001600160a01b031681525050858160018151811061084757634e487b7160e01b600052603260045260246000fd5b6001600160a01b03928316602091820292909201015260048054604051636eb1769f60e11b8152309281019290925282166024820152429189169063dd62ed3e9060440160206040518083038186803b1580156108a357600080fd5b505afa1580156108b7573d6000803e3d6000fd5b505050506040513d601f19601f820116820180604052508101906108db9190611dd0565b6108fb576004546108fb906001600160a01b038a8116911660001961142f565b6040516370a0823160e01b81526001600160a01b038781166004830152600091908916906370a082319060240160206040518083038186803b15801561094057600080fd5b505afa158015610954573d6000803e3d6000fd5b505050506040513d601f19601f820116820180604052508101906109789190611dd0565b600480546040516338ed173960e01b81529293506001600160a01b0316916338ed1739916109b0918a918a9189918e918a9101611f01565b600060405180830381600087803b1580156109ca57600080fd5b505af19250505080156109ff57506040513d6000823e601f3d908101601f191682016040526109fc9190810190611c9d565b60015b610a6157604080516001600160a01b03808c1682528a166020820152908101879052606081018690527fc6025cc9171961a5e71ebf48ad90ba0ec8fe882c4f0c422b084f1b82bbe767e29060800160405180910390a160009350505050610b4f565b506040516370a0823160e01b81526001600160a01b0388811660048301527fbaaf81d8ac8c3accbbfd1f5837a8785ccae1884dcd7f2d30ca408cc7b926af99918b918b918a918a9187918516906370a082319060240160206040518083038186803b158015610acf57600080fd5b505afa158015610ae3573d6000803e3d6000fd5b505050506040513d601f19601f82011682018060405250810190610b079190611dd0565b610b119190612041565b604080516001600160a01b039687168152959094166020860152928401919091526060830152608082015260a00160405180910390a1600193505050505b95945050505050565b6000808211610bd95760405162461bcd60e51b815260206004820152604160248201527f5375736869537761705472616465723a3a676574416d6f756e744f75743a206160448201527f6d6f756e74496e206d7573742062652067726561746572207468616e207a65726064820152606f60f81b608482015260a40161023d565b600080610be68686611575565b91509150600082118015610bfa5750600081115b610c6c5760405162461bcd60e51b815260206004820152603c60248201527f5375736869537761705472616465723a3a676574416d6f756e744f75743a204e60448201527f6f206c697175696469747920696e20706f6f6c20726573657276657300000000606482015260840161023d565b6000610c7a856103e5611ffe565b90506000610c888383611ffe565b9050600082610c99866103e8611ffe565b610ca39190611fc6565b9050610caf8183611fde565b9998505050505050505050565b3360009081526001602052604081205460ff16610ceb5760405162461bcd60e51b815260040161023d90611ead565b600080546040516337c61fc560e11b8152620100009091046001600160a01b031690636f8c3f8a90610d2290600390600401611e04565b60206040518083038186803b158015610d3a57600080fd5b505afa158015610d4e573d6000803e3d6000fd5b505050506040513d601f19601f82011682018060405250810190610d729190611b13565b90506000816001600160a01b0316638b9c94896040518163ffffffff1660e01b815260040160206040518083038186803b158015610daf57600080fd5b505afa158015610dc3573d6000803e3d6000fd5b505050506040513d601f19601f82011682018060405250810190610de79190611b13565b90506000826001600160a01b03166344fc9b566040518163ffffffff1660e01b815260040160206040518083038186803b158015610e2457600080fd5b505afa158015610e38573d6000803e3d6000fd5b505050506040513d601f19601f82011682018060405250810190610e5c9190611b13565b6040516370a0823160e01b81523060048201529091506000906001600160a01b038416906370a082319060240160206040518083038186803b158015610ea157600080fd5b505afa158015610eb5573d6000803e3d6000fd5b505050506040513d601f19601f82011682018060405250810190610ed99190611dd0565b90506000610ee8848484611331565b9050610feb84866001600160a01b03166344fc9b566040518163ffffffff1660e01b815260040160206040518083038186803b158015610f2757600080fd5b505afa158015610f3b573d6000803e3d6000fd5b505050506040513d601f19601f82011682018060405250810190610f5f9190611b13565b600080546040516337c61fc560e11b8152620100009091046001600160a01b031691636f8c3f8a91610f949190600401611e04565b60206040518083038186803b158015610fac57600080fd5b505afa158015610fc0573d6000803e3d6000fd5b505050506040513d601f19601f82011682018060405250810190610fe49190611b13565b858561069b565b9550505050505090565b600054610100900460ff168061100e575060005460ff16155b61102a5760405162461bcd60e51b815260040161023d90611e5f565b600054610100900460ff1615801561104c576000805461ffff19166101011790555b60005b83518110156110c157600180600086848151811061107d57634e487b7160e01b600052603260045260246000fd5b6020908102919091018101516001600160a01b03168252810191909152604001600020805460ff1916911515919091179055806110b981612088565b91505061104f565b5082516110d59060029060208601906119d6565b506110df826113a1565b80156110f1576000805461ff00191690555b505050565b600080546040516337c61fc560e11b8152620100009091046001600160a01b031691636f8c3f8a9161112b9190600401611e04565b60206040518083038186803b15801561114357600080fd5b505afa158015611157573d6000803e3d6000fd5b505050506040513d601f19601f8201168201806040525081019061117b9190611b13565b6040516317aa5fb760e11b81523360048201526001600160a01b039190911690632f54bf6e9060240160206040518083038186803b1580156111bc57600080fd5b505afa1580156111d0573d6000803e3d6000fd5b505050506040513d601f19601f820116820180604052508101906111f49190611d30565b6112535760405162461bcd60e51b815260206004820152602a60248201527f436f6e74726f6c6c65643a3a6f6e6c794f776e65723a2043616c6c6572206973604482015269103737ba1037bbb732b960b11b606482015260840161023d565b6001600160a01b03811660009081526001602081905260408220805460ff19169091179055805b6002548110156112db57600281815481106112a557634e487b7160e01b600052603260045260246000fd5b6000918252602090912001546001600160a01b03848116911614156112c957600191505b806112d381612088565b91505061127a565b508061132d57600280546001810182556000919091527f405787fa12a823e0f2b7631cc41b3ba8828b3321ca811111fa75cd3aa3bb5ace0180546001600160a01b0319166001600160a01b0384161790555b5050565b600354600090620f42409061134b9062ffffff168261201d565b62ffffff1661135b868686610b58565b6113659190611ffe565b61136f9190611fde565b949350505050565b6002818154811061138757600080fd5b6000918252602090912001546001600160a01b0316905081565b600054610100900460ff16806113ba575060005460ff16155b6113d65760405162461bcd60e51b815260040161023d90611e5f565b600054610100900460ff161580156113f8576000805461ffff19166101011790555b6000805462010000600160b01b031916620100006001600160a01b03851602179055801561132d576000805461ff00191690555050565b8015806114b85750604051636eb1769f60e11b81523060048201526001600160a01b03838116602483015284169063dd62ed3e9060440160206040518083038186803b15801561147e57600080fd5b505afa158015611492573d6000803e3d6000fd5b505050506040513d601f19601f820116820180604052508101906114b69190611dd0565b155b6115235760405162461bcd60e51b815260206004820152603660248201527f5361666545524332303a20617070726f76652066726f6d206e6f6e2d7a65726f60448201527520746f206e6f6e2d7a65726f20616c6c6f77616e636560501b606482015260840161023d565b604080516001600160a01b038416602482015260448082018490528251808303909101815260649091019091526020810180516001600160e01b031663095ea7b360e01b1790526110f190849061164c565b6000806000611584858561171e565b5090506000806115948787611837565b6001600160a01b0316630902f1ac6040518163ffffffff1660e01b815260040160606040518083038186803b1580156115cc57600080fd5b505afa1580156115e0573d6000803e3d6000fd5b505050506040513d601f19601f820116820180604052508101906116049190611d50565b506001600160701b031691506001600160701b03169150826001600160a01b0316876001600160a01b03161461163b57808261163e565b81815b909890975095505050505050565b60006116a1826040518060400160405280602081526020017f5361666545524332303a206c6f772d6c6576656c2063616c6c206661696c6564815250856001600160a01b03166118cb9092919063ffffffff16565b8051909150156110f157808060200190518101906116bf9190611d30565b6110f15760405162461bcd60e51b815260206004820152602a60248201527f5361666545524332303a204552433230206f7065726174696f6e20646964206e6044820152691bdd081cdd58d8d9595960b21b606482015260840161023d565b600080826001600160a01b0316846001600160a01b031614156117a15760405162461bcd60e51b815260206004820152603560248201527f5375736869537761705472616465723a3a736f7274546f6b656e3a204964656e604482015274746963616c20746f6b656e2061646472657373657360581b606482015260840161023d565b826001600160a01b0316846001600160a01b0316106117c15782846117c4565b83835b90925090506001600160a01b0382166118305760405162461bcd60e51b815260206004820152602860248201527f5375736869537761705472616465723a3a736f7274546f6b656e3a205a65726f604482015267206164647265737360c01b606482015260840161023d565b9250929050565b60035460405163e6a4390560e01b81526001600160a01b038481166004830152838116602483015260009263010000009004169063e6a439059060440160206040518083038186803b15801561188c57600080fd5b505afa1580156118a0573d6000803e3d6000fd5b505050506040513d601f19601f820116820180604052508101906118c49190611b13565b9392505050565b606061136f848460008585843b6119245760405162461bcd60e51b815260206004820152601d60248201527f416464726573733a2063616c6c20746f206e6f6e2d636f6e7472616374000000604482015260640161023d565b600080866001600160a01b031685876040516119409190611de8565b60006040518083038185875af1925050503d806000811461197d576040519150601f19603f3d011682016040523d82523d6000602084013e611982565b606091505b509150915061199282828661199d565b979650505050505050565b606083156119ac5750816118c4565b8251156119bc5782518084602001fd5b8160405162461bcd60e51b815260040161023d9190611e2c565b828054828255906000526020600020908101928215611a2b579160200282015b82811115611a2b57825182546001600160a01b0319166001600160a01b039091161782556020909201916001909101906119f6565b50611a37929150611a3b565b5090565b5b80821115611a375760008155600101611a3c565b600082601f830112611a60578081fd5b81356020611a75611a7083611fa2565b611f71565b80838252828201915082860187848660051b8901011115611a94578586fd5b855b85811015611abb578135611aa9816120cf565b84529284019290840190600101611a96565b5090979650505050505050565b80516001600160701b0381168114611adf57600080fd5b919050565b803562ffffff81168114611adf57600080fd5b600060208284031215611b08578081fd5b81356118c4816120cf565b600060208284031215611b24578081fd5b81516118c4816120cf565b600080600080600060a08688031215611b46578081fd5b8535611b51816120cf565b94506020860135611b61816120cf565b93506040860135611b71816120cf565b94979396509394606081013594506080013592915050565b600080600060608486031215611b9d578283fd5b8335611ba8816120cf565b92506020840135611bb8816120cf565b929592945050506040919091013590565b60008060408385031215611bdb578182fd5b823567ffffffffffffffff811115611bf1578283fd5b611bfd85828601611a50565b9250506020830135611c0e816120cf565b809150509250929050565b600080600080600060a08688031215611c30578081fd5b853567ffffffffffffffff811115611c46578182fd5b611c5288828901611a50565b9550506020860135611c63816120cf565b93506040860135611c73816120cf565b92506060860135611c83816120cf565b9150611c9160808701611ae4565b90509295509295909350565b60006020808385031215611caf578182fd5b825167ffffffffffffffff811115611cc5578283fd5b8301601f81018513611cd5578283fd5b8051611ce3611a7082611fa2565b80828252848201915084840188868560051b8701011115611d02578687fd5b8694505b83851015611d24578051835260019490940193918501918501611d06565b50979650505050505050565b600060208284031215611d41578081fd5b815180151581146118c4578182fd5b600080600060608486031215611d64578283fd5b611d6d84611ac8565b9250611d7b60208501611ac8565b9150604084015163ffffffff81168114611d93578182fd5b809150509250925092565b600060208284031215611daf578081fd5b6118c482611ae4565b600060208284031215611dc9578081fd5b5035919050565b600060208284031215611de1578081fd5b5051919050565b60008251611dfa818460208701612058565b9190910192915050565b60208101600a8310611e2657634e487b7160e01b600052602160045260246000fd5b91905290565b6020815260008251806020840152611e4b816040850160208701612058565b601f01601f19169190910160400192915050565b6020808252602e908201527f496e697469616c697a61626c653a20636f6e747261637420697320616c72656160408201526d191e481a5b9a5d1a585b1a5e995960921b606082015260800190565b60208082526034908201527f436f6e74726f6c6c65643a3a6f6e6c79436f6e74726f6c6c65723a2043616c6c60408201527332b91034b9903737ba1031b7b73a3937b63632b960611b606082015260800190565b600060a082018783526020878185015260a0604085015281875180845260c0860191508289019350845b81811015611f505784516001600160a01b031683529383019391830191600101611f2b565b50506001600160a01b03969096166060850152505050608001529392505050565b604051601f8201601f1916810167ffffffffffffffff81118282101715611f9a57611f9a6120b9565b604052919050565b600067ffffffffffffffff821115611fbc57611fbc6120b9565b5060051b60200190565b60008219821115611fd957611fd96120a3565b500190565b600082611ff957634e487b7160e01b81526012600452602481fd5b500490565b6000816000190483118215151615612018576120186120a3565b500290565b600062ffffff83811690831681811015612039576120396120a3565b039392505050565b600082821015612053576120536120a3565b500390565b60005b8381101561207357818101518382015260200161205b565b83811115612082576000848401525b50505050565b600060001982141561209c5761209c6120a3565b5060010190565b634e487b7160e01b600052601160045260246000fd5b634e487b7160e01b600052604160045260246000fd5b6001600160a01b03811681146120e457600080fd5b5056fea2646970667358221220939ea69640bb77c2c0582d073379e55755d556f22ee75614c3f70d689a422da364736f6c63430008040033",
  "devdoc": {
    "kind": "dev",
    "methods": {
      "biosBuyBack()": {
        "returns": {
          "_0": "Bool indicating whether the trade succeeded"
        }
      },
      "getAmountOut(address,address,uint256)": {
        "params": {
          "amountIn": "The exact amount of the input to swap",
          "tokenIn": "The address of the input token",
          "tokenOut": "The address of the output token"
        },
        "returns": {
          "amountOut": "The estimated amount of tokenOut to receive"
        }
      },
      "getAmountOutMinimum(address,address,uint256)": {
        "params": {
          "amountIn": "The exact amount of the input to swap",
          "tokenIn": "The address of the input token",
          "tokenOut": "The address of the output token"
        },
        "returns": {
          "amountOutMinimum": "The minimum amount of tokenOut to receive, factoring in allowable slippage"
        }
      },
      "getFactoryAddress()": {
        "returns": {
          "_0": "SushiSwap Factory address"
        }
      },
      "getSlippageDenominator()": {
        "returns": {
          "_0": "The slippage denominator"
        }
      },
      "getSlippageNumerator()": {
        "returns": {
          "_0": "The slippage numerator"
        }
      },
      "initialize(address[],address,address,address,uint24)": {
        "params": {
          "controllers_": "The addresses of the controlling contracts",
          "factoryAddress_": "The address of the SushiSwap factory contract",
          "moduleMap_": "The address of the module map contract",
          "slippageNumerator_": "The number divided by the slippage denominator to get the slippage percentage",
          "swapRouterAddress_": "The address of the SushiSwap swap router contract"
        }
      },
      "swapExactInput(address,address,address,uint256,uint256)": {
        "params": {
          "amountIn": "The exact amount of the input to swap",
          "amountOutMin": "The minimum amount of tokenOut to receive from the swap",
          "recipient": "The address of the token out recipient",
          "tokenIn": "The address of the input token",
          "tokenOut": "The address of the output token"
        },
        "returns": {
          "_0": "bool Indicates whether the swap succeeded"
        }
      },
      "updateSlippageNumerator(uint24)": {
        "params": {
          "slippageNumerator_": "The number divided by the slippage denominator to get the slippage percentage"
        }
      }
    },
    "version": 1
  },
  "userdoc": {
    "kind": "user",
    "methods": {
      "biosBuyBack()": {
        "notice": "Swaps all WETH held in this contract for BIOS and sends to the kernel"
      }
    },
    "notice": "Integrates 0x Nodes to SushiSwap",
    "version": 1
  },
  "storageLayout": {
    "storage": [
      {
        "astId": 753,
        "contract": "contracts/core/SushiSwapTrader.sol:SushiSwapTrader",
        "label": "_initialized",
        "offset": 0,
        "slot": "0",
        "type": "t_bool"
      },
      {
        "astId": 756,
        "contract": "contracts/core/SushiSwapTrader.sol:SushiSwapTrader",
        "label": "_initializing",
        "offset": 1,
        "slot": "0",
        "type": "t_bool"
      },
      {
        "astId": 5695,
        "contract": "contracts/core/SushiSwapTrader.sol:SushiSwapTrader",
        "label": "moduleMap",
        "offset": 2,
        "slot": "0",
        "type": "t_contract(IModuleMap)13708"
      },
      {
        "astId": 2791,
        "contract": "contracts/core/SushiSwapTrader.sol:SushiSwapTrader",
        "label": "_controllers",
        "offset": 0,
        "slot": "1",
        "type": "t_mapping(t_address,t_bool)"
      },
      {
        "astId": 2794,
        "contract": "contracts/core/SushiSwapTrader.sol:SushiSwapTrader",
        "label": "controllers",
        "offset": 0,
        "slot": "2",
        "type": "t_array(t_address)dyn_storage"
      },
      {
        "astId": 7371,
        "contract": "contracts/core/SushiSwapTrader.sol:SushiSwapTrader",
        "label": "slippageNumerator",
        "offset": 0,
        "slot": "3",
        "type": "t_uint24"
      },
      {
        "astId": 7373,
        "contract": "contracts/core/SushiSwapTrader.sol:SushiSwapTrader",
        "label": "factoryAddress",
        "offset": 3,
        "slot": "3",
        "type": "t_address"
      },
      {
        "astId": 7375,
        "contract": "contracts/core/SushiSwapTrader.sol:SushiSwapTrader",
        "label": "swapRouterAddress",
        "offset": 0,
        "slot": "4",
        "type": "t_address"
      }
    ],
    "types": {
      "t_address": {
        "encoding": "inplace",
        "label": "address",
        "numberOfBytes": "20"
      },
      "t_array(t_address)dyn_storage": {
        "base": "t_address",
        "encoding": "dynamic_array",
        "label": "address[]",
        "numberOfBytes": "32"
      },
      "t_bool": {
        "encoding": "inplace",
        "label": "bool",
        "numberOfBytes": "1"
      },
      "t_contract(IModuleMap)13708": {
        "encoding": "inplace",
        "label": "contract IModuleMap",
        "numberOfBytes": "20"
      },
      "t_mapping(t_address,t_bool)": {
        "encoding": "mapping",
        "key": "t_address",
        "label": "mapping(address => bool)",
        "numberOfBytes": "32",
        "value": "t_bool"
      },
      "t_uint24": {
        "encoding": "inplace",
        "label": "uint24",
        "numberOfBytes": "3"
      }
    }
  }
}