{
  "address": "0xDE1910ECde9B3fa1599414AED33e2691431017b6",
  "abi": [
    {
      "anonymous": false,
      "inputs": [
        {
          "indexed": true,
          "internalType": "address",
          "name": "token0",
          "type": "address"
        },
        {
          "indexed": true,
          "internalType": "address",
          "name": "token1",
          "type": "address"
        },
        {
          "indexed": false,
          "internalType": "uint256",
          "name": "primaryPoolIndex",
          "type": "uint256"
        }
      ],
      "name": "UniswapPairPrimaryPoolUpdated",
      "type": "event"
    },
    {
      "anonymous": false,
      "inputs": [
        {
          "indexed": true,
          "internalType": "address",
          "name": "token0",
          "type": "address"
        },
        {
          "indexed": true,
          "internalType": "address",
          "name": "token1",
          "type": "address"
        },
        {
          "indexed": false,
          "internalType": "uint24",
          "name": "fee",
          "type": "uint24"
        },
        {
          "indexed": false,
          "internalType": "uint24",
          "name": "slippageNumerator",
          "type": "uint24"
        }
      ],
      "name": "UniswapPoolAdded",
      "type": "event"
    },
    {
      "anonymous": false,
      "inputs": [
        {
          "indexed": true,
          "internalType": "address",
          "name": "token0",
          "type": "address"
        },
        {
          "indexed": true,
          "internalType": "address",
          "name": "token1",
          "type": "address"
        },
        {
          "indexed": false,
          "internalType": "uint256",
          "name": "poolIndex",
          "type": "uint256"
        },
        {
          "indexed": false,
          "internalType": "uint24",
          "name": "slippageNumerator",
          "type": "uint24"
        }
      ],
      "name": "UniswapPoolSlippageNumeratorUpdated",
      "type": "event"
    },
    {
      "inputs": [
        {
          "internalType": "address[]",
          "name": "controllers_",
          "type": "address[]"
        },
        {
          "internalType": "address",
          "name": "moduleMap_",
          "type": "address"
        }
      ],
      "name": "__Controlled_init",
      "outputs": [],
      "stateMutability": "nonpayable",
      "type": "function"
    },
    {
      "inputs": [
        {
          "internalType": "address",
          "name": "controller",
          "type": "address"
        }
      ],
      "name": "addController",
      "outputs": [],
      "stateMutability": "nonpayable",
      "type": "function"
    },
    {
      "inputs": [
        {
          "internalType": "address",
          "name": "tokenA",
          "type": "address"
        },
        {
          "internalType": "address",
          "name": "tokenB",
          "type": "address"
        },
        {
          "internalType": "uint24",
          "name": "feeNumerator",
          "type": "uint24"
        },
        {
          "internalType": "uint24",
          "name": "slippageNumerator",
          "type": "uint24"
        }
      ],
      "name": "addPool",
      "outputs": [],
      "stateMutability": "nonpayable",
      "type": "function"
    },
    {
      "inputs": [
        {
          "internalType": "uint256",
          "name": "",
          "type": "uint256"
        }
      ],
      "name": "controllers",
      "outputs": [
        {
          "internalType": "address",
          "name": "",
          "type": "address"
        }
      ],
      "stateMutability": "view",
      "type": "function"
    },
    {
      "inputs": [
        {
          "internalType": "address",
          "name": "tokenIn",
          "type": "address"
        },
        {
          "internalType": "address",
          "name": "tokenOut",
          "type": "address"
        },
        {
          "internalType": "uint256",
          "name": "amountOut",
          "type": "uint256"
        }
      ],
      "name": "getAmountInMaximum",
      "outputs": [
        {
          "internalType": "uint256",
          "name": "amountInMaximum",
          "type": "uint256"
        }
      ],
      "stateMutability": "view",
      "type": "function"
    },
    {
      "inputs": [
        {
          "internalType": "address",
          "name": "tokenIn",
          "type": "address"
        },
        {
          "internalType": "address",
          "name": "tokenOut",
          "type": "address"
        },
        {
          "internalType": "uint256",
          "name": "amountIn",
          "type": "uint256"
        }
      ],
      "name": "getAmountOutMinimum",
      "outputs": [
        {
          "internalType": "uint256",
          "name": "amountOutMinimum",
          "type": "uint256"
        }
      ],
      "stateMutability": "view",
      "type": "function"
    },
    {
      "inputs": [
        {
          "internalType": "address",
          "name": "tokenIn",
          "type": "address"
        },
        {
          "internalType": "address",
          "name": "tokenOut",
          "type": "address"
        },
        {
          "internalType": "uint256",
          "name": "amountOut",
          "type": "uint256"
        }
      ],
      "name": "getEstimatedTokenIn",
      "outputs": [
        {
          "internalType": "uint256",
          "name": "amountIn",
          "type": "uint256"
        }
      ],
      "stateMutability": "view",
      "type": "function"
    },
    {
      "inputs": [
        {
          "internalType": "address",
          "name": "tokenIn",
          "type": "address"
        },
        {
          "internalType": "address",
          "name": "tokenOut",
          "type": "address"
        },
        {
          "internalType": "uint256",
          "name": "amountIn",
          "type": "uint256"
        }
      ],
      "name": "getEstimatedTokenOut",
      "outputs": [
        {
          "internalType": "uint256",
          "name": "amountOut",
          "type": "uint256"
        }
      ],
      "stateMutability": "view",
      "type": "function"
    },
    {
      "inputs": [],
      "name": "getFeeDenominator",
      "outputs": [
        {
          "internalType": "uint24",
          "name": "",
          "type": "uint24"
        }
      ],
      "stateMutability": "pure",
      "type": "function"
    },
    {
      "inputs": [
        {
          "internalType": "address",
          "name": "tokenIn",
          "type": "address"
        },
        {
          "internalType": "address",
          "name": "tokenOut",
          "type": "address"
        }
      ],
      "name": "getPathFor",
      "outputs": [
        {
          "components": [
            {
              "internalType": "address",
              "name": "tokenOut",
              "type": "address"
            },
            {
              "internalType": "uint256",
              "name": "firstPoolFee",
              "type": "uint256"
            },
            {
              "internalType": "address",
              "name": "tokenInTokenOut",
              "type": "address"
            },
            {
              "internalType": "uint256",
              "name": "secondPoolFee",
              "type": "uint256"
            },
            {
              "internalType": "address",
              "name": "tokenIn",
              "type": "address"
            }
          ],
          "internalType": "struct IUniswapTrader.Path",
          "name": "",
          "type": "tuple"
        }
      ],
      "stateMutability": "view",
      "type": "function"
    },
    {
      "inputs": [
        {
          "internalType": "address",
          "name": "token0",
          "type": "address"
        },
        {
          "internalType": "address",
          "name": "token1",
          "type": "address"
        },
        {
          "internalType": "uint256",
          "name": "poolIndex",
          "type": "uint256"
        }
      ],
      "name": "getPool",
      "outputs": [
        {
          "internalType": "uint24",
          "name": "",
          "type": "uint24"
        },
        {
          "internalType": "uint24",
          "name": "",
          "type": "uint24"
        }
      ],
      "stateMutability": "view",
      "type": "function"
    },
    {
      "inputs": [
        {
          "internalType": "address",
          "name": "tokenA",
          "type": "address"
        },
        {
          "internalType": "address",
          "name": "tokenB",
          "type": "address"
        }
      ],
      "name": "getPoolAddress",
      "outputs": [
        {
          "internalType": "address",
          "name": "pool",
          "type": "address"
        }
      ],
      "stateMutability": "view",
      "type": "function"
    },
    {
      "inputs": [
        {
          "internalType": "address",
          "name": "tokenA",
          "type": "address"
        },
        {
          "internalType": "address",
          "name": "tokenB",
          "type": "address"
        },
        {
          "internalType": "uint256",
          "name": "poolId",
          "type": "uint256"
        }
      ],
      "name": "getPoolFeeNumerator",
      "outputs": [
        {
          "internalType": "uint24",
          "name": "feeNumerator",
          "type": "uint24"
        }
      ],
      "stateMutability": "view",
      "type": "function"
    },
    {
      "inputs": [
        {
          "internalType": "address",
          "name": "tokenA",
          "type": "address"
        },
        {
          "internalType": "address",
          "name": "tokenB",
          "type": "address"
        },
        {
          "internalType": "uint256",
          "name": "poolId",
          "type": "uint256"
        }
      ],
      "name": "getPoolSlippageNumerator",
      "outputs": [
        {
          "internalType": "uint24",
          "name": "slippageNumerator",
          "type": "uint24"
        }
      ],
      "stateMutability": "view",
      "type": "function"
    },
    {
      "inputs": [],
      "name": "getSlippageDenominator",
      "outputs": [
        {
          "internalType": "uint24",
          "name": "",
          "type": "uint24"
        }
      ],
      "stateMutability": "pure",
      "type": "function"
    },
    {
      "inputs": [
        {
          "internalType": "address",
          "name": "tokenA",
          "type": "address"
        },
        {
          "internalType": "address",
          "name": "tokenB",
          "type": "address"
        }
      ],
      "name": "getSqrtPriceX96",
      "outputs": [
        {
          "internalType": "uint256",
          "name": "",
          "type": "uint256"
        }
      ],
      "stateMutability": "view",
      "type": "function"
    },
    {
      "inputs": [
        {
          "internalType": "uint256",
          "name": "tokenPairIndex",
          "type": "uint256"
        }
      ],
      "name": "getTokenPair",
      "outputs": [
        {
          "internalType": "address",
          "name": "",
          "type": "address"
        },
        {
          "internalType": "address",
          "name": "",
          "type": "address"
        }
      ],
      "stateMutability": "view",
      "type": "function"
    },
    {
      "inputs": [
        {
          "internalType": "address",
          "name": "tokenA",
          "type": "address"
        },
        {
          "internalType": "address",
          "name": "tokenB",
          "type": "address"
        }
      ],
      "name": "getTokenPairPoolsLength",
      "outputs": [
        {
          "internalType": "uint256",
          "name": "",
          "type": "uint256"
        }
      ],
      "stateMutability": "view",
      "type": "function"
    },
    {
      "inputs": [],
      "name": "getTokenPairsLength",
      "outputs": [
        {
          "internalType": "uint256",
          "name": "",
          "type": "uint256"
        }
      ],
      "stateMutability": "view",
      "type": "function"
    },
    {
      "inputs": [
        {
          "internalType": "address",
          "name": "tokenA",
          "type": "address"
        },
        {
          "internalType": "address",
          "name": "tokenB",
          "type": "address"
        },
        {
          "internalType": "uint256",
          "name": "amountA",
          "type": "uint256"
        },
        {
          "internalType": "uint256",
          "name": "amountB",
          "type": "uint256"
        }
      ],
      "name": "getTokensAndAmountsSorted",
      "outputs": [
        {
          "internalType": "address",
          "name": "token0",
          "type": "address"
        },
        {
          "internalType": "address",
          "name": "token1",
          "type": "address"
        },
        {
          "internalType": "uint256",
          "name": "amount0",
          "type": "uint256"
        },
        {
          "internalType": "uint256",
          "name": "amount1",
          "type": "uint256"
        }
      ],
      "stateMutability": "pure",
      "type": "function"
    },
    {
      "inputs": [
        {
          "internalType": "address",
          "name": "tokenA",
          "type": "address"
        },
        {
          "internalType": "address",
          "name": "tokenB",
          "type": "address"
        }
      ],
      "name": "getTokensSorted",
      "outputs": [
        {
          "internalType": "address",
          "name": "token0",
          "type": "address"
        },
        {
          "internalType": "address",
          "name": "token1",
          "type": "address"
        }
      ],
      "stateMutability": "pure",
      "type": "function"
    },
    {
      "inputs": [
        {
          "internalType": "address[]",
          "name": "controllers_",
          "type": "address[]"
        },
        {
          "internalType": "address",
          "name": "moduleMap_",
          "type": "address"
        },
        {
          "internalType": "address",
          "name": "factoryAddress_",
          "type": "address"
        },
        {
          "internalType": "address",
          "name": "swapRouterAddress_",
          "type": "address"
        }
      ],
      "name": "initialize",
      "outputs": [],
      "stateMutability": "nonpayable",
      "type": "function"
    },
    {
      "inputs": [],
      "name": "moduleMap",
      "outputs": [
        {
          "internalType": "contract IModuleMap",
          "name": "",
          "type": "address"
        }
      ],
      "stateMutability": "view",
      "type": "function"
    },
    {
      "inputs": [
        {
          "internalType": "address",
          "name": "tokenIn",
          "type": "address"
        },
        {
          "internalType": "address",
          "name": "tokenOut",
          "type": "address"
        },
        {
          "internalType": "uint256",
          "name": "firstPoolFee",
          "type": "uint256"
        },
        {
          "internalType": "address",
          "name": "tokenInTokenOut",
          "type": "address"
        },
        {
          "internalType": "uint256",
          "name": "secondPoolFee",
          "type": "uint256"
        }
      ],
      "name": "setPathFor",
      "outputs": [],
      "stateMutability": "nonpayable",
      "type": "function"
    },
    {
      "inputs": [
        {
          "internalType": "address",
          "name": "tokenIn",
          "type": "address"
        },
        {
          "internalType": "address",
          "name": "tokenOut",
          "type": "address"
        },
        {
          "internalType": "address",
          "name": "recipient",
          "type": "address"
        },
        {
          "internalType": "uint256",
          "name": "amountIn",
          "type": "uint256"
        }
      ],
      "name": "swapExactInput",
      "outputs": [
        {
          "internalType": "bool",
          "name": "tradeSuccess",
          "type": "bool"
        }
      ],
      "stateMutability": "nonpayable",
      "type": "function"
    },
    {
      "inputs": [
        {
          "internalType": "address",
          "name": "tokenIn",
          "type": "address"
        },
        {
          "internalType": "address",
          "name": "tokenOut",
          "type": "address"
        },
        {
          "internalType": "address",
          "name": "recipient",
          "type": "address"
        },
        {
          "internalType": "uint256",
          "name": "amountOut",
          "type": "uint256"
        }
      ],
      "name": "swapExactOutput",
      "outputs": [
        {
          "internalType": "bool",
          "name": "tradeSuccess",
          "type": "bool"
        }
      ],
      "stateMutability": "nonpayable",
      "type": "function"
    },
    {
      "inputs": [
        {
          "internalType": "address",
          "name": "tokenA",
          "type": "address"
        },
        {
          "internalType": "address",
          "name": "tokenB",
          "type": "address"
        },
        {
          "internalType": "uint256",
          "name": "primaryPoolIndex",
          "type": "uint256"
        }
      ],
      "name": "updatePairPrimaryPool",
      "outputs": [],
      "stateMutability": "nonpayable",
      "type": "function"
    },
    {
      "inputs": [
        {
          "internalType": "address",
          "name": "tokenA",
          "type": "address"
        },
        {
          "internalType": "address",
          "name": "tokenB",
          "type": "address"
        },
        {
          "internalType": "uint256",
          "name": "poolIndex",
          "type": "uint256"
        },
        {
          "internalType": "uint24",
          "name": "slippageNumerator",
          "type": "uint24"
        }
      ],
      "name": "updatePoolSlippageNumerator",
      "outputs": [],
      "stateMutability": "nonpayable",
      "type": "function"
    }
  ],
  "transactionHash": "0x0bd0d308784ed984ffb967527dd8b4e418fe6eeb00e12ed4da7acd19b90871a1",
  "args": [],
  "solcInputHash": "97ca3d881c0665fbcb6fbd64fc459161",
  "bytecode": "0x608060405234801561001057600080fd5b506143fa806100206000396000f3fe608060405234801561001057600080fd5b50600436106101c45760003560e01c80637757f6d2116100f9578063acf6cc1a11610097578063ccbfc16c11610071578063ccbfc16c14610481578063d46005b114610494578063e94b0dd2146104a7578063f4e1fc411461047857600080fd5b8063acf6cc1a14610436578063b9b6d1b014610465578063bbb370171461047857600080fd5b80639c922100116100d35780639c922100146103bf578063a6cda833146103d2578063a7fc7a0714610410578063ab2f06511461042357600080fd5b80637757f6d2146103865780637c21ce141461039957806398c671ce146103ac57600080fd5b806334857bb0116101665780634ac558f3116101405780634ac558f31461031a5780635245da561461032d578063527c22d314610360578063634461741461037357600080fd5b806334857bb0146102865780633fa1e0c8146102a9578063413ca0b7146102bc57600080fd5b80630f0a1c6f116101a25780630f0a1c6f1461021c578063160855ba1461024d578063305df65d14610260578063320d3e781461027357600080fd5b806304102ba1146101c9578063048417a4146101de57806306bec6e7146101f5575b600080fd5b6101dc6101d7366004613ce7565b6104ba565b005b6008545b6040519081526020015b60405180910390f35b610208610203366004613d3e565b611281565b60405162ffffff90911681526020016101ec565b600054610235906201000090046001600160a01b031681565b6040516001600160a01b0390911681526020016101ec565b6101dc61025b366004613dd8565b61138f565b61020861026e366004613d3e565b6117cf565b6101e2610281366004613c5f565b61184e565b610299610294366004613c97565b6118e6565b60405190151581526020016101ec565b6102356102b7366004613c5f565b611eaf565b6102cf6102ca366004613c5f565b611f50565b6040516101ec919081516001600160a01b0390811682526020808401519083015260408084015182169083015260608084015190830152608092830151169181019190915260a00190565b6101dc610328366004613d7e565b612066565b61034061033b366004613c5f565b612242565b604080516001600160a01b039384168152929091166020830152016101ec565b6101e261036e366004613d3e565b612276565b6101e2610381366004613c5f565b6123ba565b6101e2610394366004613d3e565b6123fa565b6103406103a7366004613fcb565b6124e4565b6101dc6103ba366004613e62565b6125e1565b6102996103cd366004613c97565b6126e2565b6103e56103e0366004613e1d565b612a7e565b604080516001600160a01b0395861681529490931660208501529183015260608201526080016101ec565b6101dc61041e366004613c27565b612ac5565b6101dc610431366004613d3e565b612d00565b610449610444366004613d3e565b6132c6565b6040805162ffffff9384168152929091166020830152016101ec565b6101e2610473366004613d3e565b61340f565b620f4240610208565b6101e261048f366004613d3e565b61344c565b6101dc6104a2366004613ea7565b61347a565b6102356104b5366004613fcb565b61352d565b600080546040516337c61fc560e11b8152620100009091046001600160a01b031691636f8c3f8a916104ef91906004016140d4565b60206040518083038186803b15801561050757600080fd5b505afa15801561051b573d6000803e3d6000fd5b505050506040513d601f19601f8201168201806040525081019061053f9190613c43565b60405163f3ae241560e01b81523360048201526001600160a01b03919091169063f3ae24159060240160206040518083038186803b15801561058057600080fd5b505afa158015610594573d6000803e3d6000fd5b505050506040513d601f19601f820116820180604052508101906105b89190613f1a565b6105dd5760405162461bcd60e51b81526004016105d49061415d565b60405180910390fd5b6000546040516337c61fc560e11b8152620100009091046001600160a01b031690636f8c3f8a90610613906003906004016140d4565b60206040518083038186803b15801561062b57600080fd5b505afa15801561063f573d6000803e3d6000fd5b505050506040513d601f19601f820116820180604052508101906106639190613c43565b604051637faa059760e01b81526001600160a01b0386811660048301529190911690637faa05979060240160206040518083038186803b1580156106a657600080fd5b505afa1580156106ba573d6000803e3d6000fd5b505050506040513d601f19601f820116820180604052508101906106de9190613f1a565b6107615760405162461bcd60e51b815260206004820152604860248201527f556e69737761705472616465723a3a616464506f6f6c3a20546f6b656e41206860448201527f6173206e6f74206265656e20616464656420696e2074686520496e7465677261606482015267074696f6e204d61760c41b608482015260a4016105d4565b6000546040516337c61fc560e11b8152620100009091046001600160a01b031690636f8c3f8a90610797906003906004016140d4565b60206040518083038186803b1580156107af57600080fd5b505afa1580156107c3573d6000803e3d6000fd5b505050506040513d601f19601f820116820180604052508101906107e79190613c43565b604051637faa059760e01b81526001600160a01b0385811660048301529190911690637faa05979060240160206040518083038186803b15801561082a57600080fd5b505afa15801561083e573d6000803e3d6000fd5b505050506040513d601f19601f820116820180604052508101906108629190613f1a565b6108e55760405162461bcd60e51b815260206004820152604860248201527f556e69737761705472616465723a3a616464506f6f6c3a20546f6b656e42206860448201527f6173206e6f74206265656e20616464656420696e2074686520496e7465677261606482015267074696f6e204d61760c41b608482015260a4016105d4565b620f424062ffffff821611156109895760405162461bcd60e51b815260206004820152605760248201527f556e69737761705472616465723a3a616464506f6f6c3a20536c69707061676560448201527f206e756d657261746f722063616e6e6f7420626520677265617465722074686160648201527f6e20736c697070617067652064656e6f6d696e61746f72000000000000000000608482015260a4016105d4565b600354604051630b4c774160e11b81526001600160a01b038681166004830152858116602483015262ffffff851660448301526000921690631698ee829060640160206040518083038186803b1580156109e257600080fd5b505afa1580156109f6573d6000803e3d6000fd5b505050506040513d601f19601f82011682018060405250810190610a1a9190613c43565b6001600160a01b03161415610a855760405162461bcd60e51b815260206004820152602b60248201527f556e69737761705472616465723a3a616464506f6f6c3a20506f6f6c20646f6560448201526a1cc81b9bdd08195e1a5cdd60aa1b60648201526084016105d4565b600080610a928686612242565b915091506000805b6001600160a01b03808516600090815260056020908152604080832093871683529290522054811015610b42576001600160a01b038085166000908152600560209081526040808320938716835292905220805462ffffff8816919083908110610b1457634e487b7160e01b600052603260045260246000fd5b60009182526020909120015462ffffff161415610b3057600191505b80610b3a81614365565b915050610a9a565b508015610bad5760405162461bcd60e51b815260206004820152603360248201527f556e69737761705472616465723a3a616464506f6f6c3a20506f6f6c2068617360448201527208185b1c9958591e481899595b881859191959606a1b60648201526084016105d4565b60408051808201825262ffffff878116825286811660208084019182526001600160a01b03888116600090815260058352868120918916815290825294852080546001810182559086529085208451910180549251841663010000000265ffffffffffff19909316919093161717905590805b600854811015610cdd57856001600160a01b031660088281548110610c5557634e487b7160e01b600052603260045260246000fd5b60009182526020909120600290910201546001600160a01b0316148015610cc15750846001600160a01b031660088281548110610ca257634e487b7160e01b600052603260045260246000fd5b60009182526020909120600160029092020101546001600160a01b0316145b15610ccb57600191505b80610cd581614365565b915050610c20565b5080611227576040805180820182526001600160a01b0387811680835287821660208401908152600880546001810182556000918252855160029182027ff3f7a9fe364faab93b216da50a3214154f22a0a2b415b23a84c8169e8b636ee3810180549288166001600160a01b031993841617905593517ff3f7a9fe364faab93b216da50a3214154f22a0a2b415b23a84c8169e8b636ee4909401805494871694909116939093179092555494516337c61fc560e11b81529394919363dd62ed3e9330936201000090041691636f8c3f8a91610dbb91906004016140d4565b60206040518083038186803b158015610dd357600080fd5b505afa158015610de7573d6000803e3d6000fd5b505050506040513d601f19601f82011682018060405250810190610e0b9190613c43565b6040516001600160e01b031960e085901b1681526001600160a01b0392831660048201529116602482015260440160206040518083038186803b158015610e5157600080fd5b505afa158015610e65573d6000803e3d6000fd5b505050506040513d601f19601f82011682018060405250810190610e899190613fe3565b610f29576000546040516337c61fc560e11b8152610f29916201000090046001600160a01b031690636f8c3f8a90610ec6906002906004016140d4565b60206040518083038186803b158015610ede57600080fd5b505afa158015610ef2573d6000803e3d6000fd5b505050506040513d601f19601f82011682018060405250810190610f169190613c43565b6001600160a01b03881690600019613557565b6000546040516337c61fc560e11b81526001600160a01b038088169263dd62ed3e9230926201000090920490911690636f8c3f8a90610f6d906002906004016140d4565b60206040518083038186803b158015610f8557600080fd5b505afa158015610f99573d6000803e3d6000fd5b505050506040513d601f19601f82011682018060405250810190610fbd9190613c43565b6040516001600160e01b031960e085901b1681526001600160a01b0392831660048201529116602482015260440160206040518083038186803b15801561100357600080fd5b505afa158015611017573d6000803e3d6000fd5b505050506040513d601f19601f8201168201806040525081019061103b9190613fe3565b6110db576000546040516337c61fc560e11b81526110db916201000090046001600160a01b031690636f8c3f8a90611078906002906004016140d4565b60206040518083038186803b15801561109057600080fd5b505afa1580156110a4573d6000803e3d6000fd5b505050506040513d601f19601f820116820180604052508101906110c89190613c43565b6001600160a01b03871690600019613557565b60048054604051636eb1769f60e11b815230928101929092526001600160a01b03908116602483015287169063dd62ed3e9060440160206040518083038186803b15801561112857600080fd5b505afa15801561113c573d6000803e3d6000fd5b505050506040513d601f19601f820116820180604052508101906111609190613fe3565b61118057600454611180906001600160a01b038881169116600019613557565b60048054604051636eb1769f60e11b815230928101929092526001600160a01b03908116602483015286169063dd62ed3e9060440160206040518083038186803b1580156111cd57600080fd5b505afa1580156111e1573d6000803e3d6000fd5b505050506040513d601f19601f820116820180604052508101906112059190613fe3565b61122557600454611225906001600160a01b038781169116600019613557565b505b6040805162ffffff808a168252881660208201526001600160a01b0380871692908816917fa2ef711760cee8cd3a81db17763c9b2fc95b6b9491d0b2abccc28180269f80d9910160405180910390a3505050505050505050565b60008060006112908686612242565b6001600160a01b038083166000908152600560209081526040808320938516835292905220549193509150841061132f5760405162461bcd60e51b815260206004820152603a60248201527f556e69737761705472616465723a3a676574506f6f6c4665654e756d6572617460448201527f6f723a20506f6f6c20494420646f6573206e6f7420657869737400000000000060648201526084016105d4565b6001600160a01b03808316600090815260056020908152604080832093851683529290522080548590811061137457634e487b7160e01b600052603260045260246000fd5b60009182526020909120015462ffffff169695505050505050565b600080546040516337c61fc560e11b8152620100009091046001600160a01b031691636f8c3f8a916113c491906004016140d4565b60206040518083038186803b1580156113dc57600080fd5b505afa1580156113f0573d6000803e3d6000fd5b505050506040513d601f19601f820116820180604052508101906114149190613c43565b60405163f3ae241560e01b81523360048201526001600160a01b03919091169063f3ae24159060240160206040518083038186803b15801561145557600080fd5b505afa158015611469573d6000803e3d6000fd5b505050506040513d601f19601f8201168201806040525081019061148d9190613f1a565b6114a95760405162461bcd60e51b81526004016105d49061415d565b620f424062ffffff821611156115615760405162461bcd60e51b815260206004820152606b60248201527f556e69737761705472616465723a757064617465506f6f6c536c69707061676560448201527f4e756d657261746f723a20536c697070616765206e756d657261746f72206d7560648201527f7374206e6f742062652067726561746572207468616e20736c6970706167652060848201526a3232b737b6b4b730ba37b960a91b60a482015260c4016105d4565b60008061156e8686612242565b6001600160a01b038083166000908152600560209081526040808320938516835292905220805492945090925062ffffff851691869081106115c057634e487b7160e01b600052603260045260246000fd5b6000918252602090912001546301000000900462ffffff1614156116725760405162461bcd60e51b815260206004820152605d60248201527f556e69737761705472616465723a757064617465506f6f6c536c69707061676560448201527f4e756d657261746f723a20536c697070616765206e756d657261746f72206d7560648201527f7374206265207570646174656420746f2061206e6577206e756d626572000000608482015260a4016105d4565b6001600160a01b03808316600090815260056020908152604080832093851683529290522054841061170c5760405162461bcd60e51b815260206004820152603e60248201527f556e69737761705472616465723a757064617465506f6f6c536c69707061676560448201527f4e756d657261746f723a20506f6f6c20646f6573206e6f74206578697374000060648201526084016105d4565b6001600160a01b03808316600090815260056020908152604080832093851683529290522080548491908690811061175457634e487b7160e01b600052603260045260246000fd5b600091825260209182902001805465ffffff0000001916630100000062ffffff9485160217905560408051878152928616918301919091526001600160a01b0383811692908516917f687cb316011045b0b6aa372665979f03ae3d37b62e4cdc380472dc8582417bda910160405180910390a3505050505050565b60008060006117de8686612242565b6001600160a01b0380831660009081526005602090815260408083209385168352929052208054929450909250908590811061182a57634e487b7160e01b600052603260045260246000fd5b6000918252602090912001546301000000900462ffffff16925050505b9392505050565b60008061185b8484611eaf565b6001600160a01b0316633850c7bd6040518163ffffffff1660e01b815260040160e06040518083038186803b15801561189357600080fd5b505afa1580156118a7573d6000803e3d6000fd5b505050506040513d601f19601f820116820180604052508101906118cb9190613f34565b50506001600160a01b03909416955050505050505b92915050565b3360009081526001602052604081205460ff166119155760405162461bcd60e51b81526004016105d4906141ab565b6001600160a01b03808616600090815260076020908152604080832093881683529290522054859060ff1615611ae25760006119518787611f50565b905060006040518060a001604052808360800151846020015185604001518660600151876000015160405160200161198d959493929190614078565b60408051601f198184030181529181529082526001600160a01b03808a1660208401524283830152606083018990526000608090930192909252600480549151631e51809360e31b815293945091169163f28c0498916119ef918591016141ff565b602060405180830381600087803b158015611a0957600080fd5b505af1925050508015611a39575060408051601f3d908101601f19168201909252611a3691810190613fe3565b60015b611ad4576040516370a0823160e01b815230600482015260009450611acf9087906001600160a01b038616906370a082319060240160206040518083038186803b158015611a8657600080fd5b505afa158015611a9a573d6000803e3d6000fd5b505050506040513d601f19601f82011682018060405250810190611abe9190613fe3565b6001600160a01b03861691906136ae565b611ada565b50600193505b505050611ea7565b600080611aef8888612242565b6001600160a01b03808316600090815260056020908152604080832093851683529290529081208054939550919350918290611b3b57634e487b7160e01b600052603260045260246000fd5b60009182526020909120015462ffffff1611611bbf5760405162461bcd60e51b815260206004820152603760248201527f556e69737761705472616465723a3a7377617045786163744f75747075743a2060448201527f506f6f6c20686173206e6f74206265656e20616464656400000000000000000060648201526084016105d4565b6000611bcc89898861340f565b6040516370a0823160e01b815230600482015290915081906001600160a01b038616906370a082319060240160206040518083038186803b158015611c1057600080fd5b505afa158015611c24573d6000803e3d6000fd5b505050506040513d601f19601f82011682018060405250810190611c489190613fe3565b1015611cc65760405162461bcd60e51b815260206004820152604160248201527f556e69737761705472616465723a3a7377617045786163744f75747075743a2060448201527f42616c616e6365206973206c657373207468616e20747261646520616d6f756e6064820152601d60fa1b608482015260a4016105d4565b60408051610100810182526000818301819052606082018190526080820181905260a0820181905260c0820181905260e082018190526001600160a01b038c811683528b8116602080850191909152878216835260058152848320918716835252918220805491929091611d4a57634e487b7160e01b600052603260045260246000fd5b600091825260208220015462ffffff166040808401919091526001600160a01b03808b16606085015242608085015260a084018a905260c0840185905260e0840192909252600480549151631b67c43360e31b8152919092169163db3e219891611db691859101614212565b602060405180830381600087803b158015611dd057600080fd5b505af1925050508015611e00575060408051601f3d908101601f19168201909252611dfd91810190613fe3565b60015b611e9b576040516370a0823160e01b815230600482015260009650611e969089906001600160a01b038816906370a082319060240160206040518083038186803b158015611e4d57600080fd5b505afa158015611e61573d6000803e3d6000fd5b505050506040513d601f19601f82011682018060405250810190611e859190613fe3565b6001600160a01b03881691906136ae565b611ea1565b50600195505b50505050505b949350505050565b600080611ebe84846000611281565b600354604051630b4c774160e11b81526001600160a01b038781166004830152868116602483015262ffffff84166044830152929350911690631698ee829060640160206040518083038186803b158015611f1857600080fd5b505afa158015611f2c573d6000803e3d6000fd5b505050506040513d601f19601f82011682018060405250810190611ea79190613c43565b6040805160a0810182526000808252602080830182905282840182905260608301829052608083018290526001600160a01b0386811683526007825284832090861683529052919091205460ff16611ffa5760405162461bcd60e51b815260206004820152602760248201527f546865726520697320616e206578697374696e6720506f6f6c20666f7220746860448201526634b9903830b4b960c91b60648201526084016105d4565b506001600160a01b039182166000908152600660209081526040808320938516835292815290829020825160a081018452815485168152600182015492810192909252600281015484169282019290925260038201546060820152600490910154909116608082015290565b600080546040516337c61fc560e11b8152620100009091046001600160a01b031691636f8c3f8a9161209b91906004016140d4565b60206040518083038186803b1580156120b357600080fd5b505afa1580156120c7573d6000803e3d6000fd5b505050506040513d601f19601f820116820180604052508101906120eb9190613c43565b60405163f3ae241560e01b81523360048201526001600160a01b03919091169063f3ae24159060240160206040518083038186803b15801561212c57600080fd5b505afa158015612140573d6000803e3d6000fd5b505050506040513d601f19601f820116820180604052508101906121649190613f1a565b6121805760405162461bcd60e51b81526004016105d49061415d565b6040805160a0810182526001600160a01b0396871680825260208083019687529488168284019081526060830194855296881660808301818152600083815260068852858120838252885285812094518554908c166001600160a01b031991821617865598516001808701919091559951600286018054918d16918b169190911790559551600385015551600490930180549390991692909616919091179096559481526007825284812092815291905291909120805460ff19169091179055565b600080826001600160a01b0316846001600160a01b0316101561226957508290508161226f565b50819050825b9250929050565b6001600160a01b03808416600090815260076020908152604080832093861683529290529081205460ff16156122e75760006122b28585611f50565b905060006122c98260800151836040015186612276565b90506122de8260400151836000015183612276565b92505050611847565b60006122f585856000611281565b90506000612303868661184e565b9050846001600160a01b0316866001600160a01b0316101561236a57620f424061232d83826142fa565b62ffffff1661234f6123448785600160601b6136de565b84600160601b6136de565b61235991906142db565b61236391906142bb565b92506123b1565b620f424061237883826142fa565b62ffffff1661239a61238f87600160601b866136de565b600160601b856136de565b6123a491906142db565b6123ae91906142bb565b92505b50509392505050565b60008060006123c98585612242565b6001600160a01b03918216600090815260056020908152604080832093909416825291909152205495945050505050565b6001600160a01b03808416600090815260076020908152604080832093861683529290529081205460ff16156124625760006124368585611f50565b9050600061244d82604001518360000151866123fa565b90506122de82608001518360400151836123fa565b600061247085856000611281565b9050600061247e868661184e565b9050846001600160a01b0316866001600160a01b031610156124bf57620f42406124a883826142fa565b62ffffff1661234f61238f87600160601b866136de565b620f42406124cd83826142fa565b62ffffff1661239a6123448785600160601b6136de565b600854600090819083106125595760405162461bcd60e51b815260206004820152603660248201527f556e69737761705472616465723a3a676574546f6b656e506169723a20546f6b604482015275195b881c185a5c88191bd95cc81b9bdd08195e1a5cdd60521b60648201526084016105d4565b6008838154811061257a57634e487b7160e01b600052603260045260246000fd5b6000918252602090912060029091020154600880546001600160a01b0390921691859081106125b957634e487b7160e01b600052603260045260246000fd5b600091825260209091206001600290920201015490946001600160a01b039091169350915050565b600054610100900460ff16806125fa575060005460ff16155b6126165760405162461bcd60e51b81526004016105d49061410f565b600054610100900460ff16158015612638576000805461ffff19166101011790555b60005b83518110156126ad57600180600086848151811061266957634e487b7160e01b600052603260045260246000fd5b6020908102919091018101516001600160a01b03168252810191909152604001600020805460ff1916911515919091179055806126a581614365565b91505061263b565b5082516126c1906002906020860190613ac3565b506126cb82613858565b80156126dd576000805461ff00191690555b505050565b3360009081526001602052604081205460ff166127115760405162461bcd60e51b81526004016105d4906141ab565b6001600160a01b03808616600090815260076020908152604080832093881683529290522054859060ff16156127eb57600061274d8787611f50565b905060006040518060a0016040528083608001518460200151856040015186606001518760000151604051602001612789959493929190614078565b60408051601f198184030181529181529082526001600160a01b03808a166020840152428383015260608301899052600060809093019290925260048054915163c04b8d5960e01b815293945091169163c04b8d59916119ef918591016141ff565b6000806127f88888612242565b6001600160a01b03808316600090815260056020908152604080832093851683529290522054919350915061288e5760405162461bcd60e51b815260206004820152603660248201527f556e69737761705472616465723a3a737761704578616374496e7075743a20506044820152751bdbdb081a185cc81b9bdd081899595b88185919195960521b60648201526084016105d4565b6040516370a0823160e01b815230600482015285906001600160a01b038516906370a082319060240160206040518083038186803b1580156128cf57600080fd5b505afa1580156128e3573d6000803e3d6000fd5b505050506040513d601f19601f820116820180604052508101906129079190613fe3565b101561297d576040805162461bcd60e51b81526020600482015260248101919091527f556e69737761705472616465723a3a737761704578616374496e7075743a204260448201527f616c616e6365206973206c657373207468616e20747261646520616d6f756e7460648201526084016105d4565b600061298a89898861344c565b60408051610100810182526000818301819052606082018190526080820181905260a0820181905260c0820181905260e082018190526001600160a01b038d811683528c811660208085019190915288821683526005815284832091881683525291822080549394509092909190612a1257634e487b7160e01b600052603260045260246000fd5b600091825260208220015462ffffff166040808401919091526001600160a01b03808b16606085015242608085015260a084018a905260c0840185905260e084019290925260048054915163414bf38960e01b8152919092169163414bf38991611db691859101614212565b600080600080866001600160a01b0316886001600160a01b03161015612aae575086925085915084905083612aba565b50859250869150839050845b945094509450949050565b600080546040516337c61fc560e11b8152620100009091046001600160a01b031691636f8c3f8a91612afa91906004016140d4565b60206040518083038186803b158015612b1257600080fd5b505afa158015612b26573d6000803e3d6000fd5b505050506040513d601f19601f82011682018060405250810190612b4a9190613c43565b6040516317aa5fb760e11b81523360048201526001600160a01b039190911690632f54bf6e9060240160206040518083038186803b158015612b8b57600080fd5b505afa158015612b9f573d6000803e3d6000fd5b505050506040513d601f19601f82011682018060405250810190612bc39190613f1a565b612c225760405162461bcd60e51b815260206004820152602a60248201527f436f6e74726f6c6c65643a3a6f6e6c794f776e65723a2043616c6c6572206973604482015269103737ba1037bbb732b960b11b60648201526084016105d4565b6001600160a01b03811660009081526001602081905260408220805460ff19169091179055805b600254811015612caa5760028181548110612c7457634e487b7160e01b600052603260045260246000fd5b6000918252602090912001546001600160a01b0384811691161415612c9857600191505b80612ca281614365565b915050612c49565b5080612cfc57600280546001810182556000919091527f405787fa12a823e0f2b7631cc41b3ba8828b3321ca811111fa75cd3aa3bb5ace0180546001600160a01b0319166001600160a01b0384161790555b5050565b600080546040516337c61fc560e11b8152620100009091046001600160a01b031691636f8c3f8a91612d3591906004016140d4565b60206040518083038186803b158015612d4d57600080fd5b505afa158015612d61573d6000803e3d6000fd5b505050506040513d601f19601f82011682018060405250810190612d859190613c43565b60405163f3ae241560e01b81523360048201526001600160a01b03919091169063f3ae24159060240160206040518083038186803b158015612dc657600080fd5b505afa158015612dda573d6000803e3d6000fd5b505050506040513d601f19601f82011682018060405250810190612dfe9190613f1a565b612e1a5760405162461bcd60e51b81526004016105d49061415d565b80612ea75760405162461bcd60e51b815260206004820152605160248201527f556e69737761705472616465723a3a757064617465506169725072696d61727960448201527f506f6f6c3a2053706563696669656420696e64657820697320616c7265616479606482015270081d1a19481c1c9a5b585c9e481c1bdbdb607a1b608482015260a4016105d4565b600080612eb48585612242565b6001600160a01b0380831660009081526005602090815260408083209385168352929052205491935091508310612f655760405162461bcd60e51b815260206004820152604960248201527f556e69737761705472616465723a3a757064617465506169725072696d61727960448201527f506f6f6c3a2053706563696669656420706f6f6c20696e64657820646f6573206064820152681b9bdd08195e1a5cdd60ba1b608482015260a4016105d4565b6001600160a01b0380831660009081526005602090815260408083209385168352929052908120805485908110612fac57634e487b7160e01b600052603260045260246000fd5b60009182526020808320909101546001600160a01b03808716845260058352604080852091871685529252908220805462ffffff9092169350908690811061300457634e487b7160e01b600052603260045260246000fd5b6000918252602080832091909101546001600160a01b038781168452600583526040808520918816855292529082208054630100000090920462ffffff169350919061306057634e487b7160e01b600052603260045260246000fd5b60009182526020808320909101546001600160a01b038088168452600583526040808520918816855292529120805462ffffff90921691879081106130b557634e487b7160e01b600052603260045260246000fd5b6000918252602080832091909101805462ffffff191662ffffff94909416939093179092556001600160a01b03868116825260058352604080832091871683529252908120805490919061311957634e487b7160e01b600052603260045260246000fd5b6000918252602080832091909101546001600160a01b0387811684526005835260408085209188168552925291208054630100000090920462ffffff16918790811061317557634e487b7160e01b600052603260045260246000fd5b60009182526020808320909101805462ffffff9490941663010000000265ffffff00000019909416939093179092556001600160a01b0380871682526005835260408083209187168352925290812080548492906131e357634e487b7160e01b600052603260045260246000fd5b6000918252602080832091909101805462ffffff191662ffffff94909416939093179092556001600160a01b03868116825260058352604080832091871683529252908120805483929061324757634e487b7160e01b600052603260045260246000fd5b9060005260206000200160000160036101000a81548162ffffff021916908362ffffff160217905550826001600160a01b0316846001600160a01b03167fa5059aac7a947fedcf9741dd4daa56b660656aa44187109ca1aeb2d46f9aa3b6876040516132b591815260200190565b60405180910390a350505050505050565b6001600160a01b038084166000908152600560209081526040808320938616835292905290812054819083106133515760405162461bcd60e51b815260206004820152602a60248201527f556e69737761705472616465723a676574506f6f6c3a20506f6f6c20646f6573604482015269081b9bdd08195e1a5cdd60b21b60648201526084016105d4565b6001600160a01b03808616600090815260056020908152604080832093881683529290522080548490811061339657634e487b7160e01b600052603260045260246000fd5b60009182526020808320909101546001600160a01b038089168452600583526040808520918916855292529120805462ffffff90921691859081106133eb57634e487b7160e01b600052603260045260246000fd5b6000918252602090912001549096630100000090910462ffffff1695509350505050565b60008061341d8585856123fa565b9050600061342d868660006117cf565b9050620f424061343d828261427c565b6123a49062ffffff16846142db565b60008061345a858585612276565b9050600061346a868660006117cf565b9050620f424061343d82826142fa565b600054610100900460ff1680613493575060005460ff16155b6134af5760405162461bcd60e51b81526004016105d49061410f565b600054610100900460ff161580156134d1576000805461ffff19166101011790555b6134db85856125e1565b6134e484613858565b600380546001600160a01b038086166001600160a01b03199283161790925560048054928516929091169190911790558015613526576000805461ff00191690555b5050505050565b6002818154811061353d57600080fd5b6000918252602090912001546001600160a01b0316905081565b8015806135e05750604051636eb1769f60e11b81523060048201526001600160a01b03838116602483015284169063dd62ed3e9060440160206040518083038186803b1580156135a657600080fd5b505afa1580156135ba573d6000803e3d6000fd5b505050506040513d601f19601f820116820180604052508101906135de9190613fe3565b155b61364b5760405162461bcd60e51b815260206004820152603660248201527f5361666545524332303a20617070726f76652066726f6d206e6f6e2d7a65726f60448201527520746f206e6f6e2d7a65726f20616c6c6f77616e636560501b60648201526084016105d4565b6040516001600160a01b0383166024820152604481018290526126dd90849063095ea7b360e01b906064015b60408051601f198184030181529190526020810180516001600160e01b03166001600160e01b0319909316929092179091526138e6565b6040516001600160a01b0383166024820152604481018290526126dd90849063a9059cbb60e01b90606401613677565b600080806000198587098587029250828110838203039150508060001415613718576000841161370d57600080fd5b508290049050611847565b80841161372457600080fd5b6000848688098084039381119092039190506000613744861960016142a3565b861695869004959384900493600081900304600101905061376581846142db565b9093179260006137768760036142db565b600218905061378581886142db565b61379090600261431e565b61379a90826142db565b90506137a681886142db565b6137b190600261431e565b6137bb90826142db565b90506137c781886142db565b6137d290600261431e565b6137dc90826142db565b90506137e881886142db565b6137f390600261431e565b6137fd90826142db565b905061380981886142db565b61381490600261431e565b61381e90826142db565b905061382a81886142db565b61383590600261431e565b61383f90826142db565b905061384b81866142db565b9998505050505050505050565b600054610100900460ff1680613871575060005460ff16155b61388d5760405162461bcd60e51b81526004016105d49061410f565b600054610100900460ff161580156138af576000805461ffff19166101011790555b6000805462010000600160b01b031916620100006001600160a01b038516021790558015612cfc576000805461ff00191690555050565b600061393b826040518060400160405280602081526020017f5361666545524332303a206c6f772d6c6576656c2063616c6c206661696c6564815250856001600160a01b03166139b89092919063ffffffff16565b8051909150156126dd57808060200190518101906139599190613f1a565b6126dd5760405162461bcd60e51b815260206004820152602a60248201527f5361666545524332303a204552433230206f7065726174696f6e20646964206e6044820152691bdd081cdd58d8d9595960b21b60648201526084016105d4565b6060611ea7848460008585843b613a115760405162461bcd60e51b815260206004820152601d60248201527f416464726573733a2063616c6c20746f206e6f6e2d636f6e747261637400000060448201526064016105d4565b600080866001600160a01b03168587604051613a2d91906140b8565b60006040518083038185875af1925050503d8060008114613a6a576040519150601f19603f3d011682016040523d82523d6000602084013e613a6f565b606091505b5091509150613a7f828286613a8a565b979650505050505050565b60608315613a99575081611847565b825115613aa95782518084602001fd5b8160405162461bcd60e51b81526004016105d491906140fc565b828054828255906000526020600020908101928215613b18579160200282015b82811115613b1857825182546001600160a01b0319166001600160a01b03909116178255602090920191600190910190613ae3565b50613b24929150613b28565b5090565b5b80821115613b245760008155600101613b29565b8035613b48816143ac565b919050565b600082601f830112613b5d578081fd5b8135602067ffffffffffffffff80831115613b7a57613b7a614396565b8260051b604051601f19603f83011681018181108482111715613b9f57613b9f614396565b60405284815283810192508684018288018501891015613bbd578687fd5b8692505b85831015613be657613bd281613b3d565b845292840192600192909201918401613bc1565b50979650505050505050565b80518015158114613b4857600080fd5b805161ffff81168114613b4857600080fd5b803562ffffff81168114613b4857600080fd5b600060208284031215613c38578081fd5b8135611847816143ac565b600060208284031215613c54578081fd5b8151611847816143ac565b60008060408385031215613c71578081fd5b8235613c7c816143ac565b91506020830135613c8c816143ac565b809150509250929050565b60008060008060808587031215613cac578182fd5b8435613cb7816143ac565b93506020850135613cc7816143ac565b92506040850135613cd7816143ac565b9396929550929360600135925050565b60008060008060808587031215613cfc578384fd5b8435613d07816143ac565b93506020850135613d17816143ac565b9250613d2560408601613c14565b9150613d3360608601613c14565b905092959194509250565b600080600060608486031215613d52578283fd5b8335613d5d816143ac565b92506020840135613d6d816143ac565b929592945050506040919091013590565b600080600080600060a08688031215613d95578081fd5b8535613da0816143ac565b94506020860135613db0816143ac565b9350604086013592506060860135613dc7816143ac565b949793965091946080013592915050565b60008060008060808587031215613ded578384fd5b8435613df8816143ac565b93506020850135613e08816143ac565b925060408501359150613d3360608601613c14565b60008060008060808587031215613e32578384fd5b8435613e3d816143ac565b93506020850135613e4d816143ac565b93969395505050506040820135916060013590565b60008060408385031215613e74578182fd5b823567ffffffffffffffff811115613e8a578283fd5b613e9685828601613b4d565b9250506020830135613c8c816143ac565b60008060008060808587031215613ebc578182fd5b843567ffffffffffffffff811115613ed2578283fd5b613ede87828801613b4d565b9450506020850135613eef816143ac565b92506040850135613eff816143ac565b91506060850135613f0f816143ac565b939692955090935050565b600060208284031215613f2b578081fd5b61184782613bf2565b600080600080600080600060e0888a031215613f4e578485fd5b8751613f59816143ac565b8097505060208801518060020b8114613f70578586fd5b9550613f7e60408901613c02565b9450613f8c60608901613c02565b9350613f9a60808901613c02565b925060a088015160ff81168114613faf578283fd5b9150613fbd60c08901613bf2565b905092959891949750929550565b600060208284031215613fdc578081fd5b5035919050565b600060208284031215613ff4578081fd5b5051919050565b60008151808452614013816020860160208601614335565b601f01601f19169290920160200192915050565b6000815160a0845261403c60a0850182613ffb565b6020848101516001600160a01b031690860152604080850151908601526060808501519086015260809384015193909401929092525090919050565b6bffffffffffffffffffffffff19606096871b81168252601482019590955292851b84166034840152604883019190915290921b166068820152607c0190565b600082516140ca818460208701614335565b9190910192915050565b60208101600a83106140f657634e487b7160e01b600052602160045260246000fd5b91905290565b6020815260006118476020830184613ffb565b6020808252602e908201527f496e697469616c697a61626c653a20636f6e747261637420697320616c72656160408201526d191e481a5b9a5d1a585b1a5e995960921b606082015260800190565b6020808252602e908201527f436f6e74726f6c6c65643a3a6f6e6c794d616e616765723a2043616c6c65722060408201526d34b9903737ba1036b0b730b3b2b960911b606082015260800190565b60208082526034908201527f436f6e74726f6c6c65643a3a6f6e6c79436f6e74726f6c6c65723a2043616c6c60408201527332b91034b9903737ba1031b7b73a3937b63632b960611b606082015260800190565b6020815260006118476020830184614027565b61010081016118e0828480516001600160a01b03908116835260208083015182169084015260408083015162ffffff16908401526060808301518216908401526080808301519084015260a0828101519084015260c0808301519084015260e09182015116910152565b600062ffffff80831681851680830382111561429a5761429a614380565b01949350505050565b600082198211156142b6576142b6614380565b500190565b6000826142d657634e487b7160e01b81526012600452602481fd5b500490565b60008160001904831182151516156142f5576142f5614380565b500290565b600062ffffff8381169083168181101561431657614316614380565b039392505050565b60008282101561433057614330614380565b500390565b60005b83811015614350578181015183820152602001614338565b8381111561435f576000848401525b50505050565b600060001982141561437957614379614380565b5060010190565b634e487b7160e01b600052601160045260246000fd5b634e487b7160e01b600052604160045260246000fd5b6001600160a01b03811681146143c157600080fd5b5056fea264697066735822122038e80860c05fb575e365d08667bdd25dd3ea59747f4ae59494fd8d25e50400dc64736f6c63430008040033",
  "devdoc": {
    "kind": "dev",
    "methods": {
      "addPool(address,address,uint24,uint24)": {
        "params": {
          "feeNumerator": "The Uniswap pool fee numerator",
          "slippageNumerator": "The value divided by the slippage denominator to calculate the allowable slippage positions is enabled for this pool",
          "tokenA": "The address of tokenA ERC20 contract",
          "tokenB": "The address of tokenB ERC20 contract"
        }
      },
      "getAmountInMaximum(address,address,uint256)": {
        "params": {
          "amountOut": "The exact amount of token being swapped for",
          "tokenIn": "The address of the input token",
          "tokenOut": "The address of the output token"
        },
        "returns": {
          "amountInMaximum": "The maximum amount of tokenIn to spend, factoring in allowable slippage"
        }
      },
      "getAmountOutMinimum(address,address,uint256)": {
        "params": {
          "amountIn": "The exact amount of the input to swap",
          "tokenIn": "The address of the input token",
          "tokenOut": "The address of the output token"
        },
        "returns": {
          "amountOutMinimum": "The minimum amount of tokenOut to receive, factoring in allowable slippage"
        }
      },
      "getEstimatedTokenIn(address,address,uint256)": {
        "params": {
          "amountOut": "The exact amount of the output token to swap for",
          "tokenIn": "The address of the input token",
          "tokenOut": "The address of the output token"
        },
        "returns": {
          "amountIn": "The estimated amount of tokenIn to spend"
        }
      },
      "getEstimatedTokenOut(address,address,uint256)": {
        "params": {
          "amountIn": "The exact amount of the input to swap",
          "tokenIn": "The address of the input token",
          "tokenOut": "The address of the output token"
        },
        "returns": {
          "amountOut": "The estimated amount of tokenOut to receive"
        }
      },
      "getFeeDenominator()": {
        "returns": {
          "_0": "The denominator used to calculate the pool fee percentage"
        }
      },
      "getPool(address,address,uint256)": {
        "params": {
          "poolIndex": "The index of the pool",
          "token0": "The address of token0 of the pool",
          "token1": "The address of token1 of the pool"
        },
        "returns": {
          "_0": "The pool fee numerator",
          "_1": "The pool slippage numerator"
        }
      },
      "getPoolAddress(address,address)": {
        "params": {
          "tokenA": "The address of tokenA ERC20 contract",
          "tokenB": "The address of tokenB ERC20 contract"
        },
        "returns": {
          "pool": "The pool address"
        }
      },
      "getPoolFeeNumerator(address,address,uint256)": {
        "params": {
          "poolId": "The index of the pool in the pools mapping",
          "tokenA": "The address of tokenA",
          "tokenB": "The address of tokenB"
        },
        "returns": {
          "feeNumerator": "The numerator that gets divided by the fee denominator"
        }
      },
      "getPoolSlippageNumerator(address,address,uint256)": {
        "params": {
          "poolId": "The index of the pool in the pools mapping",
          "tokenA": "The address of tokenA",
          "tokenB": "The address of tokenB"
        },
        "returns": {
          "slippageNumerator": "The numerator that gets divided by the slippage denominator"
        }
      },
      "getSlippageDenominator()": {
        "returns": {
          "_0": "The denominator used to calculate the allowable slippage percentage"
        }
      },
      "getSqrtPriceX96(address,address)": {
        "returns": {
          "_0": "sqrtPriceX96 The current price of the pool as a sqrt(token1/token0) Q64.96 value"
        }
      },
      "getTokenPair(uint256)": {
        "params": {
          "tokenPairIndex": "The index of the token pair"
        },
        "returns": {
          "_0": "The address of token0",
          "_1": "The address of token1"
        }
      },
      "getTokenPairPoolsLength(address,address)": {
        "params": {
          "tokenA": "The address of tokenA",
          "tokenB": "The address of tokenB"
        },
        "returns": {
          "_0": "The quantity of pools configured for the specified token pair"
        }
      },
      "getTokenPairsLength()": {
        "returns": {
          "_0": "The number of token pairs configured"
        }
      },
      "getTokensAndAmountsSorted(address,address,uint256,uint256)": {
        "params": {
          "amountA": "The amount of tokenA",
          "amountB": "The amount of tokenB",
          "tokenA": "The address of tokenA",
          "tokenB": "The address of tokenB"
        },
        "returns": {
          "amount0": "The amount of sorted token0",
          "amount1": "The amount of sorted token1",
          "token0": "The address of sorted token0",
          "token1": "The address of sorted token1"
        }
      },
      "getTokensSorted(address,address)": {
        "params": {
          "tokenA": "The address of tokenA",
          "tokenB": "The address of tokenB"
        },
        "returns": {
          "token0": "The address of the sorted token0",
          "token1": "The address of the sorted token1"
        }
      },
      "initialize(address[],address,address,address)": {
        "params": {
          "controllers_": "The addresses of the controlling contracts",
          "factoryAddress_": "The address of the Uniswap factory contract",
          "moduleMap_": "Module Map address",
          "swapRouterAddress_": "The address of the Uniswap swap router contract"
        }
      },
      "swapExactInput(address,address,address,uint256)": {
        "params": {
          "amountIn": "The exact amount of the input to swap",
          "recipient": "The address to receive the tokens",
          "tokenIn": "The address of the input token",
          "tokenOut": "The address of the output token"
        },
        "returns": {
          "tradeSuccess": "Indicates whether the trade succeeded"
        }
      },
      "swapExactOutput(address,address,address,uint256)": {
        "params": {
          "amountOut": "The exact amount of the output token to receive",
          "recipient": "The address to receive the tokens",
          "tokenIn": "The address of the input token",
          "tokenOut": "The address of the output token"
        },
        "returns": {
          "tradeSuccess": "Indicates whether the trade succeeded"
        }
      },
      "updatePairPrimaryPool(address,address,uint256)": {
        "params": {
          "primaryPoolIndex": "The index of the Uniswap pool to make the new primary pool",
          "tokenA": "The address of tokenA of the pool",
          "tokenB": "The address of tokenB of the pool"
        }
      },
      "updatePoolSlippageNumerator(address,address,uint256,uint24)": {
        "params": {
          "poolIndex": "The index of the pool for the specified token pair",
          "slippageNumerator": "The new slippage numerator to update the pool",
          "tokenA": "The address of tokenA of the pool",
          "tokenB": "The address of tokenB of the pool"
        }
      }
    },
    "version": 1
  },
  "userdoc": {
    "kind": "user",
    "methods": {
      "updatePairPrimaryPool(address,address,uint256)": {
        "notice": "Updates which Uniswap pool to use as the default poolwhen swapping between token0 and token1"
      }
    },
    "notice": "Integrates 0x Nodes to Uniswap v3tokenA/tokenB naming implies tokens are unsortedtoken0/token1 naming implies tokens are sorted",
    "version": 1
  },
  "storageLayout": {
    "storage": [
      {
        "astId": 753,
        "contract": "contracts/core/UniswapTrader.sol:UniswapTrader",
        "label": "_initialized",
        "offset": 0,
        "slot": "0",
        "type": "t_bool"
      },
      {
        "astId": 756,
        "contract": "contracts/core/UniswapTrader.sol:UniswapTrader",
        "label": "_initializing",
        "offset": 1,
        "slot": "0",
        "type": "t_bool"
      },
      {
        "astId": 5695,
        "contract": "contracts/core/UniswapTrader.sol:UniswapTrader",
        "label": "moduleMap",
        "offset": 2,
        "slot": "0",
        "type": "t_contract(IModuleMap)13708"
      },
      {
        "astId": 2791,
        "contract": "contracts/core/UniswapTrader.sol:UniswapTrader",
        "label": "_controllers",
        "offset": 0,
        "slot": "1",
        "type": "t_mapping(t_address,t_bool)"
      },
      {
        "astId": 2794,
        "contract": "contracts/core/UniswapTrader.sol:UniswapTrader",
        "label": "controllers",
        "offset": 0,
        "slot": "2",
        "type": "t_array(t_address)dyn_storage"
      },
      {
        "astId": 7968,
        "contract": "contracts/core/UniswapTrader.sol:UniswapTrader",
        "label": "factoryAddress",
        "offset": 0,
        "slot": "3",
        "type": "t_address"
      },
      {
        "astId": 7970,
        "contract": "contracts/core/UniswapTrader.sol:UniswapTrader",
        "label": "swapRouterAddress",
        "offset": 0,
        "slot": "4",
        "type": "t_address"
      },
      {
        "astId": 7978,
        "contract": "contracts/core/UniswapTrader.sol:UniswapTrader",
        "label": "pools",
        "offset": 0,
        "slot": "5",
        "type": "t_mapping(t_address,t_mapping(t_address,t_array(t_struct(Pool)7955_storage)dyn_storage))"
      },
      {
        "astId": 7985,
        "contract": "contracts/core/UniswapTrader.sol:UniswapTrader",
        "label": "paths",
        "offset": 0,
        "slot": "6",
        "type": "t_mapping(t_address,t_mapping(t_address,t_struct(Path)14859_storage))"
      },
      {
        "astId": 7991,
        "contract": "contracts/core/UniswapTrader.sol:UniswapTrader",
        "label": "isMultihopPair",
        "offset": 0,
        "slot": "7",
        "type": "t_mapping(t_address,t_mapping(t_address,t_bool))"
      },
      {
        "astId": 7995,
        "contract": "contracts/core/UniswapTrader.sol:UniswapTrader",
        "label": "tokenPairs",
        "offset": 0,
        "slot": "8",
        "type": "t_array(t_struct(TokenPair)7960_storage)dyn_storage"
      }
    ],
    "types": {
      "t_address": {
        "encoding": "inplace",
        "label": "address",
        "numberOfBytes": "20"
      },
      "t_array(t_address)dyn_storage": {
        "base": "t_address",
        "encoding": "dynamic_array",
        "label": "address[]",
        "numberOfBytes": "32"
      },
      "t_array(t_struct(Pool)7955_storage)dyn_storage": {
        "base": "t_struct(Pool)7955_storage",
        "encoding": "dynamic_array",
        "label": "struct UniswapTrader.Pool[]",
        "numberOfBytes": "32"
      },
      "t_array(t_struct(TokenPair)7960_storage)dyn_storage": {
        "base": "t_struct(TokenPair)7960_storage",
        "encoding": "dynamic_array",
        "label": "struct UniswapTrader.TokenPair[]",
        "numberOfBytes": "32"
      },
      "t_bool": {
        "encoding": "inplace",
        "label": "bool",
        "numberOfBytes": "1"
      },
      "t_contract(IModuleMap)13708": {
        "encoding": "inplace",
        "label": "contract IModuleMap",
        "numberOfBytes": "20"
      },
      "t_mapping(t_address,t_array(t_struct(Pool)7955_storage)dyn_storage)": {
        "encoding": "mapping",
        "key": "t_address",
        "label": "mapping(address => struct UniswapTrader.Pool[])",
        "numberOfBytes": "32",
        "value": "t_array(t_struct(Pool)7955_storage)dyn_storage"
      },
      "t_mapping(t_address,t_bool)": {
        "encoding": "mapping",
        "key": "t_address",
        "label": "mapping(address => bool)",
        "numberOfBytes": "32",
        "value": "t_bool"
      },
      "t_mapping(t_address,t_mapping(t_address,t_array(t_struct(Pool)7955_storage)dyn_storage))": {
        "encoding": "mapping",
        "key": "t_address",
        "label": "mapping(address => mapping(address => struct UniswapTrader.Pool[]))",
        "numberOfBytes": "32",
        "value": "t_mapping(t_address,t_array(t_struct(Pool)7955_storage)dyn_storage)"
      },
      "t_mapping(t_address,t_mapping(t_address,t_bool))": {
        "encoding": "mapping",
        "key": "t_address",
        "label": "mapping(address => mapping(address => bool))",
        "numberOfBytes": "32",
        "value": "t_mapping(t_address,t_bool)"
      },
      "t_mapping(t_address,t_mapping(t_address,t_struct(Path)14859_storage))": {
        "encoding": "mapping",
        "key": "t_address",
        "label": "mapping(address => mapping(address => struct IUniswapTrader.Path))",
        "numberOfBytes": "32",
        "value": "t_mapping(t_address,t_struct(Path)14859_storage)"
      },
      "t_mapping(t_address,t_struct(Path)14859_storage)": {
        "encoding": "mapping",
        "key": "t_address",
        "label": "mapping(address => struct IUniswapTrader.Path)",
        "numberOfBytes": "32",
        "value": "t_struct(Path)14859_storage"
      },
      "t_struct(Path)14859_storage": {
        "encoding": "inplace",
        "label": "struct IUniswapTrader.Path",
        "members": [
          {
            "astId": 14850,
            "contract": "contracts/core/UniswapTrader.sol:UniswapTrader",
            "label": "tokenOut",
            "offset": 0,
            "slot": "0",
            "type": "t_address"
          },
          {
            "astId": 14852,
            "contract": "contracts/core/UniswapTrader.sol:UniswapTrader",
            "label": "firstPoolFee",
            "offset": 0,
            "slot": "1",
            "type": "t_uint256"
          },
          {
            "astId": 14854,
            "contract": "contracts/core/UniswapTrader.sol:UniswapTrader",
            "label": "tokenInTokenOut",
            "offset": 0,
            "slot": "2",
            "type": "t_address"
          },
          {
            "astId": 14856,
            "contract": "contracts/core/UniswapTrader.sol:UniswapTrader",
            "label": "secondPoolFee",
            "offset": 0,
            "slot": "3",
            "type": "t_uint256"
          },
          {
            "astId": 14858,
            "contract": "contracts/core/UniswapTrader.sol:UniswapTrader",
            "label": "tokenIn",
            "offset": 0,
            "slot": "4",
            "type": "t_address"
          }
        ],
        "numberOfBytes": "160"
      },
      "t_struct(Pool)7955_storage": {
        "encoding": "inplace",
        "label": "struct UniswapTrader.Pool",
        "members": [
          {
            "astId": 7952,
            "contract": "contracts/core/UniswapTrader.sol:UniswapTrader",
            "label": "feeNumerator",
            "offset": 0,
            "slot": "0",
            "type": "t_uint24"
          },
          {
            "astId": 7954,
            "contract": "contracts/core/UniswapTrader.sol:UniswapTrader",
            "label": "slippageNumerator",
            "offset": 3,
            "slot": "0",
            "type": "t_uint24"
          }
        ],
        "numberOfBytes": "32"
      },
      "t_struct(TokenPair)7960_storage": {
        "encoding": "inplace",
        "label": "struct UniswapTrader.TokenPair",
        "members": [
          {
            "astId": 7957,
            "contract": "contracts/core/UniswapTrader.sol:UniswapTrader",
            "label": "token0",
            "offset": 0,
            "slot": "0",
            "type": "t_address"
          },
          {
            "astId": 7959,
            "contract": "contracts/core/UniswapTrader.sol:UniswapTrader",
            "label": "token1",
            "offset": 0,
            "slot": "1",
            "type": "t_address"
          }
        ],
        "numberOfBytes": "64"
      },
      "t_uint24": {
        "encoding": "inplace",
        "label": "uint24",
        "numberOfBytes": "3"
      },
      "t_uint256": {
        "encoding": "inplace",
        "label": "uint256",
        "numberOfBytes": "32"
      }
    }
  }
}