{
  "address": "0x6fB03842Db80D118A4c9C9F099Ce2d67293a0B5B",
  "abi": [
    {
      "anonymous": false,
      "inputs": [
        {
          "indexed": true,
          "internalType": "address",
          "name": "previousOwner",
          "type": "address"
        },
        {
          "indexed": true,
          "internalType": "address",
          "name": "newOwner",
          "type": "address"
        }
      ],
      "name": "OwnershipTransferred",
      "type": "event"
    },
    {
      "inputs": [],
      "name": "initialize",
      "outputs": [],
      "stateMutability": "nonpayable",
      "type": "function"
    },
    {
      "inputs": [
        {
          "internalType": "address",
          "name": "newUserPositions",
          "type": "address"
        },
        {
          "components": [
            {
              "internalType": "address",
              "name": "user",
              "type": "address"
            },
            {
              "internalType": "address[]",
              "name": "tokens",
              "type": "address[]"
            },
            {
              "internalType": "uint256[]",
              "name": "amounts",
              "type": "uint256[]"
            }
          ],
          "internalType": "struct UserMigration.MigrateDeposits[]",
          "name": "users",
          "type": "tuple[]"
        }
      ],
      "name": "moveDeposits",
      "outputs": [],
      "stateMutability": "nonpayable",
      "type": "function"
    },
    {
      "inputs": [],
      "name": "owner",
      "outputs": [
        {
          "internalType": "address",
          "name": "",
          "type": "address"
        }
      ],
      "stateMutability": "view",
      "type": "function"
    },
    {
      "inputs": [],
      "name": "renounceOwnership",
      "outputs": [],
      "stateMutability": "nonpayable",
      "type": "function"
    },
    {
      "inputs": [
        {
          "internalType": "address",
          "name": "yieldManager",
          "type": "address"
        },
        {
          "internalType": "address",
          "name": "kernel",
          "type": "address"
        },
        {
          "internalType": "address[]",
          "name": "ymTokens",
          "type": "address[]"
        },
        {
          "internalType": "uint256[]",
          "name": "ymAmounts",
          "type": "uint256[]"
        }
      ],
      "name": "transferFunds",
      "outputs": [],
      "stateMutability": "nonpayable",
      "type": "function"
    },
    {
      "inputs": [
        {
          "internalType": "address",
          "name": "newOwner",
          "type": "address"
        }
      ],
      "name": "transferOwnership",
      "outputs": [],
      "stateMutability": "nonpayable",
      "type": "function"
    }
  ],
  "transactionHash": "0xdcd712c0f6c9d972e5238c2ba40b1015d0ed8da1bbde7b8ac52fe3d6ce483ba7",
  "args": [],
  "solcInputHash": "563dca194d74df0c2e48991b15d6329a",
  "bytecode": "0x608060405234801561001057600080fd5b506109c8806100206000396000f3fe608060405234801561001057600080fd5b50600436106100625760003560e01c8063506117e314610067578063715018a61461007c5780638129fc1c146100845780638da5cb5b1461008c578063afe3a37b146100ab578063f2fde38b146100be575b600080fd5b61007a61007536600461078d565b6100d1565b005b61007a61024f565b61007a610285565b603354604080516001600160a01b039092168252519081900360200190f35b61007a6100b93660046106ff565b6102f9565b61007a6100cc3660046106de565b610461565b6033546001600160a01b031633146101045760405162461bcd60e51b81526004016100fb906108cf565b60405180910390fd5b60005b8181101561024957836001600160a01b031663776f5a8d84848481811061013e57634e487b7160e01b600052603260045260246000fd5b9050602002810190610150919061094c565b61015e9060208101906106de565b85858581811061017e57634e487b7160e01b600052603260045260246000fd5b9050602002810190610190919061094c565b61019e906020810190610904565b8787878181106101be57634e487b7160e01b600052603260045260246000fd5b90506020028101906101d0919061094c565b6101de906040810190610904565b600060016040518863ffffffff1660e01b815260040161020497969594939291906107de565b600060405180830381600087803b15801561021e57600080fd5b505af1158015610232573d6000803e3d6000fd5b5050505080806102419061096b565b915050610107565b50505050565b6033546001600160a01b031633146102795760405162461bcd60e51b81526004016100fb906108cf565b61028360006104f5565b565b600054610100900460ff168061029e575060005460ff16155b6102ba5760405162461bcd60e51b81526004016100fb90610881565b600054610100900460ff161580156102dc576000805461ffff19166101011790555b6102e4610547565b80156102f6576000805461ff00191690555b50565b6033546001600160a01b031633146103235760405162461bcd60e51b81526004016100fb906108cf565b8083146103665760405162461bcd60e51b8152602060048201526011602482015270696e636f7272656374206c656e6774687360781b60448201526064016100fb565b60005b8381101561045857866001600160a01b031663983b64e8878787858181106103a157634e487b7160e01b600052603260045260246000fd5b90506020020160208101906103b691906106de565b8686868181106103d657634e487b7160e01b600052603260045260246000fd5b6040516001600160e01b031960e088901b1681526001600160a01b03958616600482015294909316602485015250602090910201356044820152606401600060405180830381600087803b15801561042d57600080fd5b505af1158015610441573d6000803e3d6000fd5b5050505080806104509061096b565b915050610369565b50505050505050565b6033546001600160a01b0316331461048b5760405162461bcd60e51b81526004016100fb906108cf565b6001600160a01b0381166104f05760405162461bcd60e51b815260206004820152602660248201527f4f776e61626c653a206e6577206f776e657220697320746865207a65726f206160448201526564647265737360d01b60648201526084016100fb565b6102f6815b603380546001600160a01b038381166001600160a01b0319831681179093556040519116919082907f8be0079c531659141344cd1fd0a4f28419497f9722a3daafe3b4186f6b6457e090600090a35050565b600054610100900460ff1680610560575060005460ff16155b61057c5760405162461bcd60e51b81526004016100fb90610881565b600054610100900460ff1615801561059e576000805461ffff19166101011790555b6105a66105ae565b6102e4610618565b600054610100900460ff16806105c7575060005460ff16155b6105e35760405162461bcd60e51b81526004016100fb90610881565b600054610100900460ff161580156102e4576000805461ffff191661010117905580156102f6576000805461ff001916905550565b600054610100900460ff1680610631575060005460ff16155b61064d5760405162461bcd60e51b81526004016100fb90610881565b600054610100900460ff1615801561066f576000805461ffff19166101011790555b6102e4336104f5565b80356001600160a01b038116811461068f57600080fd5b919050565b60008083601f8401126106a5578182fd5b50813567ffffffffffffffff8111156106bc578182fd5b6020830191508360208260051b85010111156106d757600080fd5b9250929050565b6000602082840312156106ef578081fd5b6106f882610678565b9392505050565b60008060008060008060808789031215610717578182fd5b61072087610678565b955061072e60208801610678565b9450604087013567ffffffffffffffff8082111561074a578384fd5b6107568a838b01610694565b9096509450606089013591508082111561076e578384fd5b5061077b89828a01610694565b979a9699509497509295939492505050565b6000806000604084860312156107a1578283fd5b6107aa84610678565b9250602084013567ffffffffffffffff8111156107c5578283fd5b6107d186828701610694565b9497909650939450505050565b6001600160a01b03888116825260a06020808401829052908301889052600091899160c08501845b8b81101561082b578361081886610678565b1682529382019390820190600101610806565b5085810360408701528881526001600160fb1b0389111561084a578485fd5b8860051b9350838a838301379092019091019182525060608201849052610875608083018415159052565b98975050505050505050565b6020808252602e908201527f496e697469616c697a61626c653a20636f6e747261637420697320616c72656160408201526d191e481a5b9a5d1a585b1a5e995960921b606082015260800190565b6020808252818101527f4f776e61626c653a2063616c6c6572206973206e6f7420746865206f776e6572604082015260600190565b6000808335601e1984360301811261091a578283fd5b83018035915067ffffffffffffffff821115610934578283fd5b6020019150600581901b36038213156106d757600080fd5b60008235605e19833603018112610961578182fd5b9190910192915050565b600060001982141561098b57634e487b7160e01b81526011600452602481fd5b506001019056fea2646970667358221220ab151d59a0f23e447781ed6e84c003b39ae50e6497d31bba5ae21984d410480464736f6c63430008040033",
  "devdoc": {
    "kind": "dev",
    "methods": {
      "owner()": {
        "details": "Returns the address of the current owner."
      },
      "renounceOwnership()": {
        "details": "Leaves the contract without owner. It will not be possible to call `onlyOwner` functions anymore. Can only be called by the current owner. NOTE: Renouncing ownership will leave the contract without an owner, thereby removing any functionality that is only available to the owner."
      },
      "transferOwnership(address)": {
        "details": "Transfers ownership of the contract to a new account (`newOwner`). Can only be called by the current owner."
      }
    },
    "title": "Kernel",
    "version": 1
  },
  "userdoc": {
    "kind": "user",
    "methods": {},
    "notice": "Allows users to deposit/withdraw erc20 tokensAllows a system admin to control which tokens are depositable",
    "version": 1
  },
  "storageLayout": {
    "storage": [
      {
        "astId": 773,
        "contract": "contracts/UserMigration.sol:UserMigration",
        "label": "_initialized",
        "offset": 0,
        "slot": "0",
        "type": "t_bool"
      },
      {
        "astId": 776,
        "contract": "contracts/UserMigration.sol:UserMigration",
        "label": "_initializing",
        "offset": 1,
        "slot": "0",
        "type": "t_bool"
      },
      {
        "astId": 1486,
        "contract": "contracts/UserMigration.sol:UserMigration",
        "label": "__gap",
        "offset": 0,
        "slot": "1",
        "type": "t_array(t_uint256)50_storage"
      },
      {
        "astId": 653,
        "contract": "contracts/UserMigration.sol:UserMigration",
        "label": "_owner",
        "offset": 0,
        "slot": "51",
        "type": "t_address"
      },
      {
        "astId": 766,
        "contract": "contracts/UserMigration.sol:UserMigration",
        "label": "__gap",
        "offset": 0,
        "slot": "52",
        "type": "t_array(t_uint256)49_storage"
      }
    ],
    "types": {
      "t_address": {
        "encoding": "inplace",
        "label": "address",
        "numberOfBytes": "20"
      },
      "t_array(t_uint256)49_storage": {
        "base": "t_uint256",
        "encoding": "inplace",
        "label": "uint256[49]",
        "numberOfBytes": "1568"
      },
      "t_array(t_uint256)50_storage": {
        "base": "t_uint256",
        "encoding": "inplace",
        "label": "uint256[50]",
        "numberOfBytes": "1600"
      },
      "t_bool": {
        "encoding": "inplace",
        "label": "bool",
        "numberOfBytes": "1"
      },
      "t_uint256": {
        "encoding": "inplace",
        "label": "uint256",
        "numberOfBytes": "32"
      }
    }
  }
}