{
  "address": "0xE3848aa1439ebF4737f90964f1D85327Bca36f18",
  "abi": [
    {
      "anonymous": false,
      "inputs": [
        {
          "indexed": true,
          "internalType": "address",
          "name": "user",
          "type": "address"
        },
        {
          "indexed": false,
          "internalType": "address[]",
          "name": "tokens",
          "type": "address[]"
        },
        {
          "indexed": false,
          "internalType": "uint256[]",
          "name": "tokenAmounts",
          "type": "uint256[]"
        },
        {
          "indexed": false,
          "internalType": "uint256",
          "name": "ethAmount",
          "type": "uint256"
        }
      ],
      "name": "Deposit",
      "type": "event"
    },
    {
      "anonymous": false,
      "inputs": [
        {
          "indexed": true,
          "internalType": "uint256",
          "name": "id",
          "type": "uint256"
        },
        {
          "indexed": true,
          "internalType": "address",
          "name": "user",
          "type": "address"
        },
        {
          "components": [
            {
              "internalType": "address",
              "name": "token",
              "type": "address"
            },
            {
              "internalType": "uint256",
              "name": "amount",
              "type": "uint256"
            }
          ],
          "indexed": false,
          "internalType": "struct IUserPositions.TokenMovement[]",
          "name": "tokens",
          "type": "tuple[]"
        }
      ],
      "name": "EnterStrategy",
      "type": "event"
    },
    {
      "anonymous": false,
      "inputs": [
        {
          "indexed": true,
          "internalType": "uint256",
          "name": "id",
          "type": "uint256"
        },
        {
          "indexed": true,
          "internalType": "address",
          "name": "user",
          "type": "address"
        },
        {
          "components": [
            {
              "internalType": "address",
              "name": "token",
              "type": "address"
            },
            {
              "internalType": "uint256",
              "name": "amount",
              "type": "uint256"
            }
          ],
          "indexed": false,
          "internalType": "struct IUserPositions.TokenMovement[]",
          "name": "tokens",
          "type": "tuple[]"
        }
      ],
      "name": "ExitStrategy",
      "type": "event"
    },
    {
      "anonymous": false,
      "inputs": [
        {
          "indexed": false,
          "internalType": "bool",
          "name": "isPaused",
          "type": "bool"
        }
      ],
      "name": "Pause",
      "type": "event"
    },
    {
      "inputs": [
        {
          "internalType": "uint256",
          "name": "strategyID",
          "type": "uint256"
        },
        {
          "internalType": "address",
          "name": "user",
          "type": "address"
        },
        {
          "components": [
            {
              "internalType": "address",
              "name": "token",
              "type": "address"
            },
            {
              "internalType": "uint256",
              "name": "amount",
              "type": "uint256"
            }
          ],
          "internalType": "struct IUserPositions.TokenMovement[]",
          "name": "tokens",
          "type": "tuple[]"
        },
        {
          "internalType": "bool",
          "name": "enterStrat",
          "type": "bool"
        }
      ],
      "name": "_remoteStrategyExecution",
      "outputs": [],
      "stateMutability": "nonpayable",
      "type": "function"
    },
    {
      "inputs": [
        {
          "internalType": "address",
          "name": "controller",
          "type": "address"
        }
      ],
      "name": "addController",
      "outputs": [],
      "stateMutability": "nonpayable",
      "type": "function"
    },
    {
      "inputs": [
        {
          "internalType": "address",
          "name": "token",
          "type": "address"
        },
        {
          "internalType": "address[]",
          "name": "users",
          "type": "address[]"
        },
        {
          "internalType": "uint256[]",
          "name": "amounts",
          "type": "uint256[]"
        }
      ],
      "name": "airdrop",
      "outputs": [],
      "stateMutability": "nonpayable",
      "type": "function"
    },
    {
      "inputs": [
        {
          "internalType": "address",
          "name": "recipient",
          "type": "address"
        },
        {
          "internalType": "uint256[]",
          "name": "strategies",
          "type": "uint256[]"
        }
      ],
      "name": "claimEthRewards",
      "outputs": [
        {
          "internalType": "uint256",
          "name": "ethClaimed",
          "type": "uint256"
        }
      ],
      "stateMutability": "nonpayable",
      "type": "function"
    },
    {
      "inputs": [
        {
          "internalType": "uint256",
          "name": "",
          "type": "uint256"
        }
      ],
      "name": "controllers",
      "outputs": [
        {
          "internalType": "address",
          "name": "",
          "type": "address"
        }
      ],
      "stateMutability": "view",
      "type": "function"
    },
    {
      "inputs": [
        {
          "internalType": "address",
          "name": "depositor",
          "type": "address"
        },
        {
          "internalType": "address[]",
          "name": "tokens",
          "type": "address[]"
        },
        {
          "internalType": "uint256[]",
          "name": "amounts",
          "type": "uint256[]"
        },
        {
          "internalType": "uint256",
          "name": "ethAmount",
          "type": "uint256"
        },
        {
          "internalType": "bool",
          "name": "migration",
          "type": "bool"
        }
      ],
      "name": "deposit",
      "outputs": [],
      "stateMutability": "nonpayable",
      "type": "function"
    },
    {
      "inputs": [
        {
          "internalType": "uint256",
          "name": "strategyID",
          "type": "uint256"
        },
        {
          "components": [
            {
              "internalType": "address",
              "name": "token",
              "type": "address"
            },
            {
              "internalType": "uint256",
              "name": "amount",
              "type": "uint256"
            }
          ],
          "internalType": "struct IUserPositions.TokenMovement[]",
          "name": "tokens",
          "type": "tuple[]"
        }
      ],
      "name": "enterStrategy",
      "outputs": [],
      "stateMutability": "nonpayable",
      "type": "function"
    },
    {
      "inputs": [
        {
          "internalType": "uint256",
          "name": "strategyID",
          "type": "uint256"
        },
        {
          "components": [
            {
              "internalType": "address",
              "name": "token",
              "type": "address"
            },
            {
              "internalType": "uint256",
              "name": "amount",
              "type": "uint256"
            }
          ],
          "internalType": "struct IUserPositions.TokenMovement[]",
          "name": "tokens",
          "type": "tuple[]"
        }
      ],
      "name": "exitStrategy",
      "outputs": [],
      "stateMutability": "nonpayable",
      "type": "function"
    },
    {
      "inputs": [],
      "name": "getAllControllers",
      "outputs": [
        {
          "internalType": "address[]",
          "name": "currentControllers",
          "type": "address[]"
        }
      ],
      "stateMutability": "view",
      "type": "function"
    },
    {
      "inputs": [
        {
          "internalType": "address",
          "name": "user",
          "type": "address"
        },
        {
          "internalType": "uint256[]",
          "name": "_strategies",
          "type": "uint256[]"
        },
        {
          "internalType": "address[]",
          "name": "_tokens",
          "type": "address[]"
        }
      ],
      "name": "getUserBalances",
      "outputs": [
        {
          "components": [
            {
              "internalType": "uint256",
              "name": "strategyID",
              "type": "uint256"
            },
            {
              "components": [
                {
                  "internalType": "address",
                  "name": "token",
                  "type": "address"
                },
                {
                  "internalType": "uint256",
                  "name": "balance",
                  "type": "uint256"
                }
              ],
              "internalType": "struct IStrategyMap.GeneralBalance[]",
              "name": "tokens",
              "type": "tuple[]"
            }
          ],
          "internalType": "struct IStrategyMap.StrategyBalance[]",
          "name": "strategyBalance",
          "type": "tuple[]"
        },
        {
          "components": [
            {
              "internalType": "address",
              "name": "token",
              "type": "address"
            },
            {
              "internalType": "uint256",
              "name": "balance",
              "type": "uint256"
            }
          ],
          "internalType": "struct IStrategyMap.GeneralBalance[]",
          "name": "userBalance",
          "type": "tuple[]"
        }
      ],
      "stateMutability": "view",
      "type": "function"
    },
    {
      "inputs": [
        {
          "internalType": "address",
          "name": "token",
          "type": "address"
        },
        {
          "internalType": "address",
          "name": "user",
          "type": "address"
        }
      ],
      "name": "getUserInvestedAmountByToken",
      "outputs": [
        {
          "internalType": "uint256",
          "name": "amount",
          "type": "uint256"
        }
      ],
      "stateMutability": "view",
      "type": "function"
    },
    {
      "inputs": [
        {
          "internalType": "uint256",
          "name": "id",
          "type": "uint256"
        },
        {
          "internalType": "address",
          "name": "token",
          "type": "address"
        },
        {
          "internalType": "address",
          "name": "user",
          "type": "address"
        }
      ],
      "name": "getUserStrategyBalanceByToken",
      "outputs": [
        {
          "internalType": "uint256",
          "name": "amount",
          "type": "uint256"
        }
      ],
      "stateMutability": "view",
      "type": "function"
    },
    {
      "inputs": [
        {
          "internalType": "address[]",
          "name": "controllers_",
          "type": "address[]"
        },
        {
          "internalType": "address",
          "name": "moduleMap_",
          "type": "address"
        }
      ],
      "name": "initialize",
      "outputs": [],
      "stateMutability": "nonpayable",
      "type": "function"
    },
    {
      "inputs": [
        {
          "internalType": "address",
          "name": "controller",
          "type": "address"
        }
      ],
      "name": "isController",
      "outputs": [
        {
          "internalType": "bool",
          "name": "status",
          "type": "bool"
        }
      ],
      "stateMutability": "view",
      "type": "function"
    },
    {
      "inputs": [],
      "name": "moduleMap",
      "outputs": [
        {
          "internalType": "contract IModuleMap",
          "name": "",
          "type": "address"
        }
      ],
      "stateMutability": "view",
      "type": "function"
    },
    {
      "inputs": [],
      "name": "pause",
      "outputs": [],
      "stateMutability": "nonpayable",
      "type": "function"
    },
    {
      "inputs": [],
      "name": "paused",
      "outputs": [
        {
          "internalType": "bool",
          "name": "",
          "type": "bool"
        }
      ],
      "stateMutability": "view",
      "type": "function"
    },
    {
      "inputs": [
        {
          "internalType": "address",
          "name": "asset",
          "type": "address"
        }
      ],
      "name": "totalTokenBalance",
      "outputs": [
        {
          "internalType": "uint256",
          "name": "",
          "type": "uint256"
        }
      ],
      "stateMutability": "view",
      "type": "function"
    },
    {
      "inputs": [],
      "name": "unpause",
      "outputs": [],
      "stateMutability": "nonpayable",
      "type": "function"
    },
    {
      "inputs": [
        {
          "internalType": "address[]",
          "name": "assets",
          "type": "address[]"
        },
        {
          "internalType": "address",
          "name": "account",
          "type": "address"
        },
        {
          "internalType": "uint256[]",
          "name": "amounts",
          "type": "uint256[]"
        },
        {
          "internalType": "bool[]",
          "name": "add",
          "type": "bool[]"
        }
      ],
      "name": "updateUserInterconnectBalances",
      "outputs": [],
      "stateMutability": "nonpayable",
      "type": "function"
    },
    {
      "inputs": [
        {
          "internalType": "address[]",
          "name": "assets",
          "type": "address[]"
        },
        {
          "internalType": "address",
          "name": "account",
          "type": "address"
        },
        {
          "internalType": "uint256[]",
          "name": "amounts",
          "type": "uint256[]"
        },
        {
          "internalType": "bool[]",
          "name": "add",
          "type": "bool[]"
        }
      ],
      "name": "updateUserTokenBalances",
      "outputs": [],
      "stateMutability": "nonpayable",
      "type": "function"
    },
    {
      "inputs": [
        {
          "internalType": "address",
          "name": "asset",
          "type": "address"
        },
        {
          "internalType": "address",
          "name": "account",
          "type": "address"
        }
      ],
      "name": "userDeployableBalance",
      "outputs": [
        {
          "internalType": "uint256",
          "name": "",
          "type": "uint256"
        }
      ],
      "stateMutability": "view",
      "type": "function"
    },
    {
      "inputs": [
        {
          "internalType": "address",
          "name": "asset",
          "type": "address"
        },
        {
          "internalType": "address",
          "name": "account",
          "type": "address"
        }
      ],
      "name": "userInterconnectBalance",
      "outputs": [
        {
          "internalType": "uint256",
          "name": "",
          "type": "uint256"
        }
      ],
      "stateMutability": "view",
      "type": "function"
    },
    {
      "inputs": [
        {
          "internalType": "address",
          "name": "asset",
          "type": "address"
        },
        {
          "internalType": "address",
          "name": "account",
          "type": "address"
        }
      ],
      "name": "userTokenBalance",
      "outputs": [
        {
          "internalType": "uint256",
          "name": "",
          "type": "uint256"
        }
      ],
      "stateMutability": "view",
      "type": "function"
    },
    {
      "inputs": [
        {
          "internalType": "address",
          "name": "recipient",
          "type": "address"
        },
        {
          "internalType": "address[]",
          "name": "tokens",
          "type": "address[]"
        },
        {
          "internalType": "uint256[]",
          "name": "amounts",
          "type": "uint256[]"
        },
        {
          "internalType": "bool",
          "name": "withdrawWethAsEth",
          "type": "bool"
        }
      ],
      "name": "withdraw",
      "outputs": [
        {
          "internalType": "uint256",
          "name": "ethWithdrawn",
          "type": "uint256"
        }
      ],
      "stateMutability": "nonpayable",
      "type": "function"
    },
    {
      "inputs": [
        {
          "internalType": "address",
          "name": "recipient",
          "type": "address"
        },
        {
          "internalType": "address[]",
          "name": "tokens",
          "type": "address[]"
        },
        {
          "internalType": "uint256[]",
          "name": "strategies",
          "type": "uint256[]"
        },
        {
          "internalType": "bool",
          "name": "withdrawWethAsEth",
          "type": "bool"
        }
      ],
      "name": "withdrawAllAndClaim",
      "outputs": [
        {
          "components": [
            {
              "internalType": "uint256[]",
              "name": "tokenAmounts",
              "type": "uint256[]"
            },
            {
              "internalType": "uint256",
              "name": "ethWithdrawn",
              "type": "uint256"
            },
            {
              "internalType": "uint256",
              "name": "ethClaimed",
              "type": "uint256"
            },
            {
              "internalType": "uint256",
              "name": "biosClaimed",
              "type": "uint256"
            }
          ],
          "internalType": "struct IUserPositions.WithdrawAllAndClaimResponse",
          "name": "_withdrawAllAndClaimResponse",
          "type": "tuple"
        }
      ],
      "stateMutability": "nonpayable",
      "type": "function"
    }
  ],
  "transactionHash": "0x8fad0ebde34d81911a14c2556935ebc0186770489764f4cab51f15b74241b359",
  "args": [],
  "solcInputHash": "6b3cff8e9848db73a4b75e9fcec41d40",
  "bytecode": "0x608060405234801561001057600080fd5b50615f9f80620000216000396000f3fe608060405234801561001057600080fd5b506004361061013e5760003560e01c8063025ff12f146101435780630f0a1c6f1461015857806316d805bd14610187578063337993cb146101a85780633f4ba83a146101bd57806341127a67146101c5578063462d0b2e146101d8578063558c811e146101eb5780635702ea2a146101fe5780635c975abb14610211578063776f5a8d1461022e5780638456cb59146102415780638a22eee31461024957806395be05461461025c578063a7fc7a071461027c578063a810b3781461028f578063b429afeb146102b0578063b47064c8146102dc578063b81f4499146102ef578063c3b2a7f414610302578063d969f1b514610315578063df9b1af914610328578063e88d4d0e14610361578063e94b0dd214610374578063f0f25dd514610387578063f54659921461039a575b600080fd5b6101566101513660046151b4565b6103c3565b005b600054610171906201000090046001600160a01b031681565b60405161017e9190615925565b60405180910390f35b61019a61019536600461517c565b610787565b60405190815260200161017e565b6101b06107b4565b60405161017e91906159a7565b610156610816565b61019a6101d336600461572d565b610961565b6101566101e636600461550b565b610997565b61019a6101f93660046152c4565b610a19565b61015661020c36600461554f565b610aa9565b60095461021e9060ff1681565b604051901515815260200161017e565b61015661023c366004615349565b610eb0565b610156610f35565b6101566102573660046157d1565b61107f565b61026f61026a366004615233565b61119c565b60405161017e9190615d44565b61015661028a366004615144565b6115a6565b6102a261029d36600461542c565b61179e565b60405161017e9291906159f0565b61021e6102be366004615144565b6001600160a01b031660009081526001602052604090205460ff1690565b61019a6102ea36600461517c565b611d89565b6101566102fd3660046157d1565b611e13565b61019a6103103660046153da565b611e42565b61015661032336600461576e565b611ecd565b61019a61033636600461517c565b6001600160a01b03918216600090815260086020908152604080832093909416825291909152205490565b61019a61036f36600461517c565b612008565b6101716103823660046156fd565b6120b9565b610156610395366004615469565b6120e3565b61019a6103a8366004615144565b6001600160a01b031660009081526004602052604090205490565b600080546040516337c61fc560e11b8152620100009091046001600160a01b031691636f8c3f8a916103f89190600401615a8b565b60206040518083038186803b15801561041057600080fd5b505afa158015610424573d6000803e3d6000fd5b505050506040513d601f19601f820116820180604052508101906104489190615160565b6001600160a01b0316632f54bf6e336040518263ffffffff1660e01b81526004016104739190615925565b60206040518083038186803b15801561048b57600080fd5b505afa15801561049f573d6000803e3d6000fd5b505050506040513d601f19601f820116820180604052508101906104c391906155e7565b6104e85760405162461bcd60e51b81526004016104df90615b56565b60405180910390fd5b8281811461052c5760405162461bcd60e51b81526020600482015260116024820152700c2d2e4c8e4dee07440dad2e6dac2e8c6d607b1b60448201526064016104df565b6000546040516337c61fc560e11b8152620100009091046001600160a01b031690636f8c3f8a9061056290600390600401615a8b565b60206040518083038186803b15801561057a57600080fd5b505afa15801561058e573d6000803e3d6000fd5b505050506040513d601f19601f820116820180604052508101906105b29190615160565b6001600160a01b03166358fcf37a876040518263ffffffff1660e01b81526004016105dd9190615925565b60206040518083038186803b1580156105f557600080fd5b505afa158015610609573d6000803e3d6000fd5b505050506040513d601f19601f8201168201806040525081019061062d91906155e7565b6106495760405162461bcd60e51b81526004016104df90615c94565b60408051600180825281830190925260009160208083019080368337019050509050868160008151811061068d57634e487b7160e01b600052603260045260246000fd5b6001600160a01b03929092166020928302919091019091015260408051600180825281830190925260009181602001602082028036833701905050905060005b8381101561077c578585828181106106f557634e487b7160e01b600052603260045260246000fd5b905060200201358260008151811061071d57634e487b7160e01b600052603260045260246000fd5b60200260200101818152505061076c88888381811061074c57634e487b7160e01b600052603260045260246000fd5b90506020020160208101906107619190615144565b8484600060016124aa565b61077581615e9c565b90506106cd565b505050505050505050565b6001600160a01b038082166000908152600660209081526040808320938616835292905220545b92915050565b6060600280548060200260200160405190810160405280929190818152602001828054801561080c57602002820191906000526020600020905b81546001600160a01b031681526001909101906020018083116107ee575b5050505050905090565b600080546040516337c61fc560e11b8152620100009091046001600160a01b031691636f8c3f8a9161084b9190600401615a8b565b60206040518083038186803b15801561086357600080fd5b505afa158015610877573d6000803e3d6000fd5b505050506040513d601f19601f8201168201806040525081019061089b9190615160565b6001600160a01b0316632f54bf6e336040518263ffffffff1660e01b81526004016108c69190615925565b60206040518083038186803b1580156108de57600080fd5b505afa1580156108f2573d6000803e3d6000fd5b505050506040513d601f19601f8201168201806040525081019061091691906155e7565b6109325760405162461bcd60e51b81526004016104df90615b56565b6009805460ff1916905560405160008152600080516020615f4a833981519152906020015b60405180910390a1565b6001600160a01b0380821660009081526007602090815260408083208784528252808320938616835292905220545b9392505050565b600054610100900460ff166109b25760005460ff16156109ba565b6109ba612d67565b6109d65760405162461bcd60e51b81526004016104df90615ba0565b600054610100900460ff161580156109f8576000805461ffff19166101011790555b610a028383612d78565b8015610a14576000805461ff00191690555b505050565b60095460009060ff1615610a3f5760405162461bcd60e51b81526004016104df90615c13565b3360009081526001602052604090205460ff16610a6e5760405162461bcd60e51b81526004016104df90615cf0565b6001600160a01b038516610a945760405162461bcd60e51b81526004016104df90615bee565b610aa085858585612f07565b95945050505050565b3360009081526001602052604090205460ff16610ad85760405162461bcd60e51b81526004016104df90615cf0565b6001600160a01b038316610afe5760405162461bcd60e51b81526004016104df90615bee565b8151845114610b765760405162461bcd60e51b815260206004820152604a6024820152600080516020615f2a83398151915260448201527f6e6e65637442616c616e6365733a20617272617973206d7573742062652065716064820152690eac2d840d8cadccee8d60b31b608482015260a4016104df565b60005b8451811015610ea957600060086000878481518110610ba857634e487b7160e01b600052603260045260246000fd5b60200260200101516001600160a01b03166001600160a01b031681526020019081526020016000206000866001600160a01b03166001600160a01b03168152602001908152602001600020549050838281518110610c1657634e487b7160e01b600052603260045260246000fd5b602002602001015160001415610cbd5760405162461bcd60e51b815260206004820152606c6024820152600080516020615f2a83398151915260448201527f6e6e65637442616c616e6365733a204d7573742068617665206120706f73697460648201527f697665206f72206e65676174697665206e756d62657220746f206368616e676560848201526b207468652062616c616e636560a01b60a482015260c4016104df565b6000838381518110610cdf57634e487b7160e01b600052603260045260246000fd5b602002602001015115610d2657848381518110610d0c57634e487b7160e01b600052603260045260246000fd5b602002602001015182610d1f9190615e41565b9050610e22565b81858481518110610d4757634e487b7160e01b600052603260045260246000fd5b60200260200101511115610dec5760405162461bcd60e51b815260206004820152606c6024820152600080516020615f2a83398151915260448201527f6e6e65637442616c616e6365733a20416d6f756e7420746f207265647563652060648201527f62616c616e6365206d757374206265206e6f206d6f7265207468616e2063757260848201526b72656e742062616c616e636560a01b60a482015260c4016104df565b848381518110610e0c57634e487b7160e01b600052603260045260246000fd5b602002602001015182610e1f9190615e59565b90505b8060086000898681518110610e4757634e487b7160e01b600052603260045260246000fd5b60200260200101516001600160a01b03166001600160a01b031681526020019081526020016000206000886001600160a01b03166001600160a01b0316815260200190815260200160002081905550505080610ea290615e9c565b9050610b79565b5050505050565b3360009081526001602052604090205460ff16610edf5760405162461bcd60e51b81526004016104df90615cf0565b60095460ff1615610f025760405162461bcd60e51b81526004016104df90615c13565b6001600160a01b038516610f285760405162461bcd60e51b81526004016104df90615bee565b610ea985858585856124aa565b600080546040516337c61fc560e11b8152620100009091046001600160a01b031691636f8c3f8a91610f6a9190600401615a8b565b60206040518083038186803b158015610f8257600080fd5b505afa158015610f96573d6000803e3d6000fd5b505050506040513d601f19601f82011682018060405250810190610fba9190615160565b6001600160a01b0316632f54bf6e336040518263ffffffff1660e01b8152600401610fe59190615925565b60206040518083038186803b158015610ffd57600080fd5b505afa158015611011573d6000803e3d6000fd5b505050506040513d601f19601f8201168201806040525081019061103591906155e7565b6110515760405162461bcd60e51b81526004016104df90615b56565b6009805460ff19166001908117909155604051908152600080516020615f4a83398151915290602001610957565b60095460ff16156110a25760405162461bcd60e51b81526004016104df90615c13565b6110b0833384846000613da5565b6000546040516337c61fc560e11b8152620100009091046001600160a01b031690636f8c3f8a906110e690600890600401615a8b565b60206040518083038186803b1580156110fe57600080fd5b505afa158015611112573d6000803e3d6000fd5b505050506040513d601f19601f820116820180604052508101906111369190615160565b6001600160a01b0316631416110b8484846040518463ffffffff1660e01b815260040161116593929190615d8a565b600060405180830381600087803b15801561117f57600080fd5b505af1158015611193573d6000803e3d6000fd5b50505050505050565b6111c76040518060800160405280606081526020016000815260200160008152602001600081525090565b3360009081526001602052604090205460ff166111f65760405162461bcd60e51b81526004016104df90615cf0565b6001600160a01b03871661121c5760405162461bcd60e51b81526004016104df90615bee565b600080546040516337c61fc560e11b8152620100009091046001600160a01b031690636f8c3f8a9061125390600d90600401615a8b565b60206040518083038186803b15801561126b57600080fd5b505afa15801561127f573d6000803e3d6000fd5b505050506040513d601f19601f820116820180604052508101906112a39190615160565b90506040518060800160405280888890506001600160401b038111156112d957634e487b7160e01b600052604160045260246000fd5b604051908082528060200260200182016040528015611302578160200160208202803683370190505b50815260200160008152602001600081526020016000815250915060005b868110156113a55761136688888381811061134b57634e487b7160e01b600052603260045260246000fd5b90506020020160208101906113609190615144565b8a611d89565b835180518390811061138857634e487b7160e01b600052603260045260246000fd5b60209081029190910101528061139d81615e9c565b915050611320565b5060405163699bdca960e01b81526001600160a01b0382169063699bdca9906113d2908b90600401615925565b602060405180830381600087803b1580156113ec57600080fd5b505af1158015611400573d6000803e3d6000fd5b505050506040513d601f19601f820116820180604052508101906114249190615715565b826060018181516114359190615e41565b9150818152505061147d888888808060200260200160405190810160405280939291908181526020018383602002808284376000920191909152505086519150879050612f07565b6020830152600080546040516337c61fc560e11b8152620100009091046001600160a01b031690636f8c3f8a906114b990600590600401615a8b565b60206040518083038186803b1580156114d157600080fd5b505afa1580156114e5573d6000803e3d6000fd5b505050506040513d601f19601f820116820180604052508101906115099190615160565b6001600160a01b03166354ed0e598a6040518263ffffffff1660e01b81526004016115349190615925565b60206040518083038186803b15801561154c57600080fd5b505afa158015611560573d6000803e3d6000fd5b505050506040513d601f19601f820116820180604052508101906115849190615715565b111561159b576115958886866142a7565b60408301525b509695505050505050565b600080546040516337c61fc560e11b8152620100009091046001600160a01b031691636f8c3f8a916115db9190600401615a8b565b60206040518083038186803b1580156115f357600080fd5b505afa158015611607573d6000803e3d6000fd5b505050506040513d601f19601f8201168201806040525081019061162b9190615160565b6001600160a01b0316632f54bf6e336040518263ffffffff1660e01b81526004016116569190615925565b60206040518083038186803b15801561166e57600080fd5b505afa158015611682573d6000803e3d6000fd5b505050506040513d601f19601f820116820180604052508101906116a691906155e7565b6116c25760405162461bcd60e51b81526004016104df90615b56565b6001600160a01b03811660009081526001602081905260408220805460ff19169091179055805b600254811015611748576002818154811061171457634e487b7160e01b600052603260045260246000fd5b6000918252602090912001546001600160a01b038481169116141561173857600191505b61174181615e9c565b90506116e9565b508061179a57600280546001810182556000919091527f405787fa12a823e0f2b7631cc41b3ba8828b3321ca811111fa75cd3aa3bb5ace0180546001600160a01b0319166001600160a01b0384161790555b5050565b606080846001600160401b038111156117c757634e487b7160e01b600052604160045260246000fd5b60405190808252806020026020018201604052801561180d57816020015b6040805180820190915260008152606060208201528152602001906001900390816117e55790505b509150826001600160401b0381111561183657634e487b7160e01b600052604160045260246000fd5b60405190808252806020026020018201604052801561186f57816020015b61185c614da0565b8152602001906001900390816118545790505b50905060005b838110156119a55784848281811061189d57634e487b7160e01b600052603260045260246000fd5b90506020020160208101906118b29190615144565b8282815181106118d257634e487b7160e01b600052603260045260246000fd5b60209081029190910101516001600160a01b0390911690526005600086868481811061190e57634e487b7160e01b600052603260045260246000fd5b90506020020160208101906119239190615144565b6001600160a01b03166001600160a01b031681526020019081526020016000206000896001600160a01b03166001600160a01b031681526020019081526020016000205482828151811061198757634e487b7160e01b600052603260045260246000fd5b602090810291909101810151015261199e81615e9c565b9050611875565b50600080546040516337c61fc560e11b8152620100009091046001600160a01b031690636f8c3f8a906119dd90600890600401615a8b565b60206040518083038186803b1580156119f557600080fd5b505afa158015611a09573d6000803e3d6000fd5b505050506040513d601f19601f82011682018060405250810190611a2d9190615160565b905060005b86811015611d7d576000826001600160a01b031663cfc0cc348a8a85818110611a6b57634e487b7160e01b600052603260045260246000fd5b905060200201356040518263ffffffff1660e01b8152600401611a9091815260200190565b60006040518083038186803b158015611aa857600080fd5b505afa158015611abc573d6000803e3d6000fd5b505050506040513d6000823e601f3d908101601f19168201604052611ae49190810190615603565b60400151905080516001600160401b03811115611b1157634e487b7160e01b600052604160045260246000fd5b604051908082528060200260200182016040528015611b4a57816020015b611b37614da0565b815260200190600190039081611b2f5790505b50858381518110611b6b57634e487b7160e01b600052603260045260246000fd5b602002602001015160200181905250888883818110611b9a57634e487b7160e01b600052603260045260246000fd5b90506020020135858381518110611bc157634e487b7160e01b600052603260045260246000fd5b60209081029190910101515260005b8151811015611d6a57818181518110611bf957634e487b7160e01b600052603260045260246000fd5b602002602001015160200151868481518110611c2557634e487b7160e01b600052603260045260246000fd5b6020026020010151602001518281518110611c5057634e487b7160e01b600052603260045260246000fd5b6020908102919091018101516001600160a01b039283169052908c166000908152600790915260408120908b8b86818110611c9b57634e487b7160e01b600052603260045260246000fd5b9050602002013581526020019081526020016000206000838381518110611cd257634e487b7160e01b600052603260045260246000fd5b6020026020010151602001516001600160a01b03166001600160a01b0316815260200190815260200160002054868481518110611d1f57634e487b7160e01b600052603260045260246000fd5b6020026020010151602001518281518110611d4a57634e487b7160e01b600052603260045260246000fd5b602090810291909101810151015280611d6281615e9c565b915050611bd0565b505080611d7690615e9c565b9050611a32565b50509550959350505050565b6001600160a01b038083166000818152600560209081526040808320948616835293815283822054600682528483209383529290529182205410611dcf575060006107ae565b6001600160a01b0380831660008181526006602090815260408083209488168352938152838220546005825284832093835292905291909120546109909190615e59565b60095460ff1615611e365760405162461bcd60e51b81526004016104df90615c13565b610a14833384846143af565b3360009081526001602052604081205460ff16611e715760405162461bcd60e51b81526004016104df90615cf0565b60095460ff1615611e945760405162461bcd60e51b81526004016104df90615c13565b6001600160a01b038416611eba5760405162461bcd60e51b81526004016104df90615bee565b611ec58484846142a7565b949350505050565b3360009081526001602052604090205460ff16611efc5760405162461bcd60e51b81526004016104df90615cf0565b8015611ffc57611f10858585856000613da5565b6000546040516337c61fc560e11b8152620100009091046001600160a01b031690636f8c3f8a90611f4690600890600401615a8b565b60206040518083038186803b158015611f5e57600080fd5b505afa158015611f72573d6000803e3d6000fd5b505050506040513d601f19601f82011682018060405250810190611f969190615160565b6001600160a01b0316631416110b8685856040518463ffffffff1660e01b8152600401611fc593929190615d8a565b600060405180830381600087803b158015611fdf57600080fd5b505af1158015611ff3573d6000803e3d6000fd5b50505050610ea9565b610ea9858585856143af565b6001600160a01b038083166000818152600860209081526040808320948616808452948252808320549383526005825280832094835293905291822054829161205091615e41565b6001600160a01b0380851660009081526006602090815260408083209389168352929052205490915081116120895760009150506107ae565b6001600160a01b03808416600090815260066020908152604080832093881683529290522054611ec59082615e59565b600281815481106120c957600080fd5b6000918252602090912001546001600160a01b0316905081565b3360009081526001602052604090205460ff166121125760405162461bcd60e51b81526004016104df90615cf0565b6001600160a01b0384166121385760405162461bcd60e51b81526004016104df90615bee565b8482146121a75760405162461bcd60e51b81526020600482015260436024820152600080516020615f0a83398151915260448201527f6c616e6365733a20617272617973206d75737420626520657175616c206c656e6064820152620cee8d60eb1b608482015260a4016104df565b60005b85811015611193576000600560008989858181106121d857634e487b7160e01b600052603260045260246000fd5b90506020020160208101906121ed9190615144565b6001600160a01b03908116825260208083019390935260409182016000908120918a1681529252902054905084848381811061223957634e487b7160e01b600052603260045260246000fd5b90506020020135600014156122d85760405162461bcd60e51b81526020600482015260656024820152600080516020615f0a83398151915260448201527f6c616e6365733a204d7573742068617665206120706f736974697665206f722060648201527f6e65676174697665206e756d62657220746f206368616e6765207468652062616084820152646c616e636560d81b60a482015260c4016104df565b60008383815181106122fa57634e487b7160e01b600052603260045260246000fd5b6020026020010151156123405785858481811061232757634e487b7160e01b600052603260045260246000fd5b90506020020135826123399190615e41565b9050612433565b8186868581811061236157634e487b7160e01b600052603260045260246000fd5b9050602002013511156123fe5760405162461bcd60e51b81526020600482015260656024820152600080516020615f0a83398151915260448201527f6c616e6365733a20416d6f756e7420746f207265647563652062616c616e636560648201527f206d757374206265206e6f206d6f7265207468616e2063757272656e742062616084820152646c616e636560d81b60a482015260c4016104df565b85858481811061241e57634e487b7160e01b600052603260045260246000fd5b90506020020135826124309190615e59565b90505b80600560008b8b8781811061245857634e487b7160e01b600052603260045260246000fd5b905060200201602081019061246d9190615144565b6001600160a01b03908116825260208083019390935260409182016000908120918c1681529252902055506124a3905081615e9c565b90506121aa565b600080546040516337c61fc560e11b8152620100009091046001600160a01b031690636f8c3f8a906124e190600390600401615a8b565b60206040518083038186803b1580156124f957600080fd5b505afa15801561250d573d6000803e3d6000fd5b505050506040513d601f19601f820116820180604052508101906125319190615160565b90506000816001600160a01b03166344fc9b566040518163ffffffff1660e01b815260040160206040518083038186803b15801561256e57600080fd5b505afa158015612582573d6000803e3d6000fd5b505050506040513d601f19601f820116820180604052508101906125a69190615160565b905060006001600160a01b0382166125bf576000612645565b6000546040516337c61fc560e11b8152620100009091046001600160a01b031690636f8c3f8a906125f590600d90600401615a8b565b60206040518083038186803b15801561260d57600080fd5b505afa158015612621573d6000803e3d6000fd5b505050506040513d601f19601f820116820180604052508101906126459190615160565b9050600087516001600160401b0381111561267057634e487b7160e01b600052604160045260246000fd5b604051908082528060200260200182016040528015612699578160200160208202803683370190505b5090508515612785576000846001600160a01b0316638b9c94896040518163ffffffff1660e01b815260040160206040518083038186803b1580156126dd57600080fd5b505afa1580156126f1573d6000803e3d6000fd5b505050506040513d601f19601f820116820180604052508101906127159190615160565b6001600160a01b038116600090815260046020526040812080549293508992909190612742908490615e41565b90915550506001600160a01b038082166000908152600560209081526040808320938e168352929052908120805489929061277e908490615e41565b9091555050505b60005b8851811015612d165760008882815181106127b357634e487b7160e01b600052603260045260246000fd5b602002602001015111612830576040805162461bcd60e51b81526020600482015260248101919091527f55736572506f736974696f6e733a3a6465706f7369743a204465706f7369742060448201527f616d6f756e74206d7573742062652067726561746572207468616e207a65726f60648201526084016104df565b600086156128675788828151811061285857634e487b7160e01b600052603260045260246000fd5b60200260200101519050612982565b856001600160a01b03166358fcf37a8b848151811061289657634e487b7160e01b600052603260045260246000fd5b60200260200101516040518263ffffffff1660e01b81526004016128ba9190615925565b60206040518083038186803b1580156128d257600080fd5b505afa1580156128e6573d6000803e3d6000fd5b505050506040513d601f19601f8201168201806040525081019061290a91906155e7565b6129265760405162461bcd60e51b81526004016104df90615c94565b61297f8b8b848151811061294a57634e487b7160e01b600052603260045260246000fd5b60200260200101518b858151811061297257634e487b7160e01b600052603260045260246000fd5b6020026020010151614910565b90505b6001600160a01b03841615612ac357836001600160a01b0316633e4cd0568b84815181106129c057634e487b7160e01b600052603260045260246000fd5b60200260200101516040518263ffffffff1660e01b81526004016129e49190615925565b60206040518083038186803b1580156129fc57600080fd5b505afa158015612a10573d6000803e3d6000fd5b505050506040513d601f19601f82011682018060405250810190612a3491906155e7565b15612ac357836001600160a01b031663f45346dc8b8481518110612a6857634e487b7160e01b600052603260045260246000fd5b6020026020010151838e6040518463ffffffff1660e01b8152600401612a9093929190615984565b600060405180830381600087803b158015612aaa57600080fd5b505af1158015612abe573d6000803e3d6000fd5b505050505b80838381518110612ae457634e487b7160e01b600052603260045260246000fd5b60200260200101818152505080600460008c8581518110612b1557634e487b7160e01b600052603260045260246000fd5b60200260200101516001600160a01b03166001600160a01b031681526020019081526020016000206000828254612b4c9190615e41565b9250508190555080600560008c8581518110612b7857634e487b7160e01b600052603260045260246000fd5b60200260200101516001600160a01b03166001600160a01b0316815260200190815260200160002060008d6001600160a01b03166001600160a01b031681526020019081526020016000206000828254612bd29190615e41565b92505081905550846001600160a01b03168a8381518110612c0357634e487b7160e01b600052603260045260246000fd5b60200260200101516001600160a01b03161415612d03576000546040516337c61fc560e11b8152620100009091046001600160a01b031690636f8c3f8a90612c5090600590600401615a8b565b60206040518083038186803b158015612c6857600080fd5b505afa158015612c7c573d6000803e3d6000fd5b505050506040513d601f19601f82011682018060405250810190612ca09190615160565b6001600160a01b03166313cf6b006000838e6040518463ffffffff1660e01b8152600401612cd093929190615ab3565b600060405180830381600087803b158015612cea57600080fd5b505af1158015612cfe573d6000803e3d6000fd5b505050505b5080612d0e81615e9c565b915050612788565b50886001600160a01b03167f8a0e0d2e597a2c18e7266d384fcd37c696485c4f2d04f8f90cebe3cf9453a15b898389604051612d54939291906159ba565b60405180910390a2505050505050505050565b6000612d7230614ac5565b15905090565b600054610100900460ff16612d935760005460ff1615612d9b565b612d9b612d67565b612db75760405162461bcd60e51b81526004016104df90615ba0565b600054610100900460ff16158015612dd9576000805461ffff19166101011790555b6001600160a01b038216612dff5760405162461bcd60e51b81526004016104df90615bee565b60005b8351811015612e755760006001600160a01b0316848281518110612e3657634e487b7160e01b600052603260045260246000fd5b60200260200101516001600160a01b03161415612e655760405162461bcd60e51b81526004016104df90615bee565b612e6e81615e9c565b9050612e02565b5060005b8351811015612ee9576001806000868481518110612ea757634e487b7160e01b600052603260045260246000fd5b6020908102919091018101516001600160a01b03168252810191909152604001600020805460ff1916911515919091179055612ee281615e9c565b9050612e79565b508251612efd906002906020860190614db7565b50610a0282614ad4565b600080546040516337c61fc560e11b815282916201000090046001600160a01b031690636f8c3f8a90612f3f90600390600401615a8b565b60206040518083038186803b158015612f5757600080fd5b505afa158015612f6b573d6000803e3d6000fd5b505050506040513d601f19601f82011682018060405250810190612f8f9190615160565b90506000816001600160a01b0316638b9c94896040518163ffffffff1660e01b815260040160206040518083038186803b158015612fcc57600080fd5b505afa158015612fe0573d6000803e3d6000fd5b505050506040513d601f19601f820116820180604052508101906130049190615160565b90506000826001600160a01b03166344fc9b566040518163ffffffff1660e01b815260040160206040518083038186803b15801561304157600080fd5b505afa158015613055573d6000803e3d6000fd5b505050506040513d601f19601f820116820180604052508101906130799190615160565b600080546040516337c61fc560e11b81529293509091620100009091046001600160a01b031690636f8c3f8a906130b590600d90600401615a8b565b60206040518083038186803b1580156130cd57600080fd5b505afa1580156130e1573d6000803e3d6000fd5b505050506040513d601f19601f820116820180604052508101906131059190615160565b905060009450865188511461319c5760405162461bcd60e51b815260206004820152605160248201527f55736572506f736974696f6e733a3a5f77697468647261773a20546f6b656e7360448201527f206172726179206c656e67746820646f6573206e6f74206d6174636820616d6f6064820152700eadce8e640c2e4e4c2f240d8cadccee8d607b1b608482015260a4016104df565b60005b8851811015613d98578781815181106131c857634e487b7160e01b600052603260045260246000fd5b6020026020010151600014156131dd57613d86565b846001600160a01b0316630b3972cb8a838151811061320c57634e487b7160e01b600052603260045260246000fd5b60200260200101516040518263ffffffff1660e01b81526004016132309190615925565b60206040518083038186803b15801561324857600080fd5b505afa15801561325c573d6000803e3d6000fd5b505050506040513d601f19601f8201168201806040525081019061328091906155e7565b6132fc5760405162461bcd60e51b815260206004820152604160248201527f55736572506f736974696f6e733a3a5f77697468647261773a2054686973207460448201527f6f6b656e206973206e6f7420616363657074696e67207769746864726177616c6064820152607360f81b608482015260a4016104df565b61332d89828151811061331f57634e487b7160e01b600052603260045260246000fd5b60200260200101518b611d89565b88828151811061334d57634e487b7160e01b600052603260045260246000fd5b602002602001015111156133c95760405162461bcd60e51b815260206004820152603e60248201527f55736572506f736974696f6e733a3a5f77697468647261773a2057697468647260448201527f617720616d6f756e74206578636565647320757365722062616c616e6365000060648201526084016104df565b60008982815181106133eb57634e487b7160e01b600052603260045260246000fd5b60200260200101516001600160a01b03166370a08231600060029054906101000a90046001600160a01b03166001600160a01b0316636f8c3f8a60006040518263ffffffff1660e01b81526004016134439190615a8b565b60206040518083038186803b15801561345b57600080fd5b505afa15801561346f573d6000803e3d6000fd5b505050506040513d601f19601f820116820180604052508101906134939190615160565b6040518263ffffffff1660e01b81526004016134af9190615925565b60206040518083038186803b1580156134c757600080fd5b505afa1580156134db573d6000803e3d6000fd5b505050506040513d601f19601f820116820180604052508101906134ff9190615715565b905088828151811061352157634e487b7160e01b600052603260045260246000fd5b6020026020010151811015613678576000546040516337c61fc560e11b8152620100009091046001600160a01b031690636f8c3f8a9061356690600890600401615a8b565b60206040518083038186803b15801561357e57600080fd5b505afa158015613592573d6000803e3d6000fd5b505050506040513d601f19601f820116820180604052508101906135b69190615160565b6001600160a01b0316635560066a8b84815181106135e457634e487b7160e01b600052603260045260246000fd5b60200260200101518b858151811061360c57634e487b7160e01b600052603260045260246000fd5b60200260200101516040518363ffffffff1660e01b81526004016136459291906001600160a01b03929092168252602082015260400190565b600060405180830381600087803b15801561365f57600080fd5b505af1158015613673573d6000803e3d6000fd5b505050505b6000856001600160a01b03168b84815181106136a457634e487b7160e01b600052603260045260246000fd5b60200260200101516001600160a01b03161480156136bf5750885b1561371d578983815181106136e457634e487b7160e01b600052603260045260246000fd5b6020026020010151975089838151811061370e57634e487b7160e01b600052603260045260246000fd5b60200260200101519050613985565b60008b848151811061373f57634e487b7160e01b600052603260045260246000fd5b60200260200101516001600160a01b03166370a08231600060029054906101000a90046001600160a01b03166001600160a01b0316636f8c3f8a60006040518263ffffffff1660e01b81526004016137979190615a8b565b60206040518083038186803b1580156137af57600080fd5b505afa1580156137c3573d6000803e3d6000fd5b505050506040513d601f19601f820116820180604052508101906137e79190615160565b6040518263ffffffff1660e01b81526004016138039190615925565b60206040518083038186803b15801561381b57600080fd5b505afa15801561382f573d6000803e3d6000fd5b505050506040513d601f19601f820116820180604052508101906138539190615715565b90508a848151811061387557634e487b7160e01b600052603260045260246000fd5b602002602001015181101561388c578091506138b7565b8a84815181106138ac57634e487b7160e01b600052603260045260246000fd5b602002602001015191505b600080546040516337c61fc560e11b815261398392620100009092046001600160a01b031691636f8c3f8a916138f09190600401615a8b565b60206040518083038186803b15801561390857600080fd5b505afa15801561391c573d6000803e3d6000fd5b505050506040513d601f19601f820116820180604052508101906139409190615160565b8e848f888151811061396257634e487b7160e01b600052603260045260246000fd5b60200260200101516001600160a01b0316614b6c909392919063ffffffff16565b505b6001600160a01b03841615613ac657836001600160a01b0316633e4cd0568c85815181106139c357634e487b7160e01b600052603260045260246000fd5b60200260200101516040518263ffffffff1660e01b81526004016139e79190615925565b60206040518083038186803b1580156139ff57600080fd5b505afa158015613a13573d6000803e3d6000fd5b505050506040513d601f19601f82011682018060405250810190613a3791906155e7565b15613ac657836001600160a01b03166369328dec8c8581518110613a6b57634e487b7160e01b600052603260045260246000fd5b6020026020010151838f6040518463ffffffff1660e01b8152600401613a9393929190615984565b600060405180830381600087803b158015613aad57600080fd5b505af1158015613ac1573d6000803e3d6000fd5b505050505b600460008c8581518110613aea57634e487b7160e01b600052603260045260246000fd5b60200260200101516001600160a01b03166001600160a01b0316815260200190815260200160002054811115613b71576000600460008d8681518110613b4057634e487b7160e01b600052603260045260246000fd5b60200260200101516001600160a01b03166001600160a01b0316815260200190815260200160002081905550613bd3565b80600460008d8681518110613b9657634e487b7160e01b600052603260045260246000fd5b60200260200101516001600160a01b03166001600160a01b031681526020019081526020016000206000828254613bcd9190615e59565b90915550505b80600560008d8681518110613bf857634e487b7160e01b600052603260045260246000fd5b60200260200101516001600160a01b03166001600160a01b0316815260200190815260200160002060008e6001600160a01b03166001600160a01b031681526020019081526020016000206000828254613c529190615e59565b92505081905550846001600160a01b03168b8481518110613c8357634e487b7160e01b600052603260045260246000fd5b60200260200101516001600160a01b03161415613d83576000546040516337c61fc560e11b8152620100009091046001600160a01b031690636f8c3f8a90613cd090600590600401615a8b565b60206040518083038186803b158015613ce857600080fd5b505afa158015613cfc573d6000803e3d6000fd5b505050506040513d601f19601f82011682018060405250810190613d209190615160565b6001600160a01b031663a22aecd16000838f6040518463ffffffff1660e01b8152600401613d5093929190615ab3565b600060405180830381600087803b158015613d6a57600080fd5b505af1158015613d7e573d6000803e3d6000fd5b505050505b50505b80613d9081615e9c565b91505061319f565b5050505050949350505050565b81613dc25760405162461bcd60e51b81526004016104df90615b05565b60005b8281101561414a576000848483818110613def57634e487b7160e01b600052603260045260246000fd5b613e059260206040909202019081019150615144565b6001600160a01b03161415613e2c5760405162461bcd60e51b81526004016104df90615c41565b6000848483818110613e4e57634e487b7160e01b600052603260045260246000fd5b9050604002016020013511613e755760405162461bcd60e51b81526004016104df90615b2e565b81613f0657838382818110613e9a57634e487b7160e01b600052603260045260246000fd5b90506040020160200135613ee3858584818110613ec757634e487b7160e01b600052603260045260246000fd5b613edd9260206040909202019081019150615144565b87612008565b1015613f015760405162461bcd60e51b81526004016104df90615c68565b613fc2565b838382818110613f2657634e487b7160e01b600052603260045260246000fd5b9050604002016020013560056000868685818110613f5457634e487b7160e01b600052603260045260246000fd5b613f6a9260206040909202019081019150615144565b6001600160a01b03166001600160a01b031681526020019081526020016000206000876001600160a01b03166001600160a01b031681526020019081526020016000206000828254613fbc9190615e41565b90915550505b838382818110613fe257634e487b7160e01b600052603260045260246000fd5b6001600160a01b03881660009081526007602090815260408083208c84528252808320930294909401909301359290915086868581811061403357634e487b7160e01b600052603260045260246000fd5b6140499260206040909202019081019150615144565b6001600160a01b03166001600160a01b0316815260200190815260200160002060008282546140789190615e41565b90915550849050838281811061409e57634e487b7160e01b600052603260045260246000fd5b9050604002016020013560066000876001600160a01b03166001600160a01b0316815260200190815260200160002060008686858181106140ef57634e487b7160e01b600052603260045260246000fd5b6141059260206040909202019081019150615144565b6001600160a01b03166001600160a01b0316815260200190815260200160002060008282546141349190615e41565b90915550614143905081615e9c565b9050613dc5565b506000546040516337c61fc560e11b8152620100009091046001600160a01b031690636f8c3f8a9061418190600590600401615a8b565b60206040518083038186803b15801561419957600080fd5b505afa1580156141ad573d6000803e3d6000fd5b505050506040513d601f19601f820116820180604052508101906141d19190615160565b6001600160a01b03166313cf6b00868585600081811061420157634e487b7160e01b600052603260045260246000fd5b90506040020160200135336040518463ffffffff1660e01b815260040161422a93929190615ab3565b600060405180830381600087803b15801561424457600080fd5b505af1158015614258573d6000803e3d6000fd5b50505050836001600160a01b0316857f334bb5f87e7c3a4187387befedac3205b6e6516e347d3a9142aae21a2ef122148585604051614298929190615a77565b60405180910390a35050505050565b600080546040516337c61fc560e11b8152620100009091046001600160a01b031690636f8c3f8a906142de90600590600401615a8b565b60206040518083038186803b1580156142f657600080fd5b505afa15801561430a573d6000803e3d6000fd5b505050506040513d601f19601f8201168201806040525081019061432e9190615160565b6001600160a01b031663c3b2a7f48585856040518463ffffffff1660e01b815260040161435d93929190615939565b602060405180830381600087803b15801561437757600080fd5b505af115801561438b573d6000803e3d6000fd5b505050506040513d601f19601f82011682018060405250810190611ec59190615715565b806143cc5760405162461bcd60e51b81526004016104df90615b05565b60005b818110156146cd5760008383838181106143f957634e487b7160e01b600052603260045260246000fd5b61440f9260206040909202019081019150615144565b6001600160a01b031614156144365760405162461bcd60e51b81526004016104df90615c41565b600083838381811061445857634e487b7160e01b600052603260045260246000fd5b905060400201602001351161447f5760405162461bcd60e51b81526004016104df90615b2e565b82828281811061449f57634e487b7160e01b600052603260045260246000fd5b6001600160a01b03871660009081526007602090815260408083208b8452825280832093029490940190930135929091508585858181106144f057634e487b7160e01b600052603260045260246000fd5b6145069260206040909202019081019150615144565b6001600160a01b03166001600160a01b031681526020019081526020016000205410156145455760405162461bcd60e51b81526004016104df90615c68565b82828281811061456557634e487b7160e01b600052603260045260246000fd5b9050604002016020013560066000866001600160a01b03166001600160a01b0316815260200190815260200160002060008585858181106145b657634e487b7160e01b600052603260045260246000fd5b6145cc9260206040909202019081019150615144565b6001600160a01b03166001600160a01b0316815260200190815260200160002060008282546145fb9190615e59565b90915550839050828281811061462157634e487b7160e01b600052603260045260246000fd5b6001600160a01b03871660009081526007602090815260408083208b84528252808320930294909401909301359290915085858581811061467257634e487b7160e01b600052603260045260246000fd5b6146889260206040909202019081019150615144565b6001600160a01b03166001600160a01b0316815260200190815260200160002060008282546146b79190615e59565b909155506146c6905081615e9c565b90506143cf565b506000546040516337c61fc560e11b8152620100009091046001600160a01b031690636f8c3f8a9061470490600590600401615a8b565b60206040518083038186803b15801561471c57600080fd5b505afa158015614730573d6000803e3d6000fd5b505050506040513d601f19601f820116820180604052508101906147549190615160565b6001600160a01b031663a22aecd1858484600081811061478457634e487b7160e01b600052603260045260246000fd5b90506040020160200135336040518463ffffffff1660e01b81526004016147ad93929190615ab3565b600060405180830381600087803b1580156147c757600080fd5b505af11580156147db573d6000803e3d6000fd5b50505050826001600160a01b0316847f3ad24ebe8503084720eb1ca09347e684215bd91ce405e748489d5d7551544171848460405161481b929190615a77565b60405180910390a36000546040516337c61fc560e11b8152620100009091046001600160a01b031690636f8c3f8a9061485990600890600401615a8b565b60206040518083038186803b15801561487157600080fd5b505afa158015614885573d6000803e3d6000fd5b505050506040513d601f19601f820116820180604052508101906148a99190615160565b6001600160a01b031663d4a4a0438584846040518463ffffffff1660e01b81526004016148d893929190615d8a565b600060405180830381600087803b1580156148f257600080fd5b505af1158015614906573d6000803e3d6000fd5b5050505050505050565b600080546040516337c61fc560e11b815282916201000090046001600160a01b031690636f8c3f8a90614947908490600401615a8b565b60206040518083038186803b15801561495f57600080fd5b505afa158015614973573d6000803e3d6000fd5b505050506040513d601f19601f820116820180604052508101906149979190615160565b6040516370a0823160e01b815290915084906000906001600160a01b038316906370a08231906149cb908690600401615925565b60206040518083038186803b1580156149e357600080fd5b505afa1580156149f7573d6000803e3d6000fd5b505050506040513d601f19601f82011682018060405250810190614a1b9190615715565b9050614a326001600160a01b038316888588614b6c565b6040516370a0823160e01b815281906001600160a01b038416906370a0823190614a60908790600401615925565b60206040518083038186803b158015614a7857600080fd5b505afa158015614a8c573d6000803e3d6000fd5b505050506040513d601f19601f82011682018060405250810190614ab09190615715565b614aba9190615e59565b979650505050505050565b6001600160a01b03163b151590565b600054610100900460ff16614aef5760005460ff1615614af7565b614af7612d67565b614b135760405162461bcd60e51b81526004016104df90615ba0565b600054610100900460ff16158015614b35576000805461ffff19166101011790555b6000805462010000600160b01b031916620100006001600160a01b03851602179055801561179a576000805461ff00191690555050565b604080516001600160a01b0385811660248301528416604482015260648082018490528251808303909101815260849091019091526020810180516001600160e01b03166323b872dd60e01b179052614bc6908590614bcc565b50505050565b6000614c21826040518060400160405280602081526020017f5361666545524332303a206c6f772d6c6576656c2063616c6c206661696c6564815250856001600160a01b0316614c9e9092919063ffffffff16565b805190915015610a145780806020019051810190614c3f91906155e7565b610a145760405162461bcd60e51b815260206004820152602a60248201527f5361666545524332303a204552433230206f7065726174696f6e20646964206e6044820152691bdd081cdd58d8d9595960b21b60648201526084016104df565b6060611ec5848460008585614cb285614ac5565b614cfe5760405162461bcd60e51b815260206004820152601d60248201527f416464726573733a2063616c6c20746f206e6f6e2d636f6e747261637400000060448201526064016104df565b600080866001600160a01b03168587604051614d1a9190615909565b60006040518083038185875af1925050503d8060008114614d57576040519150601f19603f3d011682016040523d82523d6000602084013e614d5c565b606091505b5091509150614aba82828660608315614d76575081610990565b825115614d865782518084602001fd5b8160405162461bcd60e51b81526004016104df9190615ad2565b604080518082019091526000808252602082015290565b828054828255906000526020600020908101928215614e0c579160200282015b82811115614e0c57825182546001600160a01b0319166001600160a01b03909116178255602090920191600190910190614dd7565b50614e18929150614e1c565b5090565b5b80821115614e185760008155600101614e1d565b60008083601f840112614e42578182fd5b5081356001600160401b03811115614e58578182fd5b6020830191508360208260051b8501011115614e7357600080fd5b9250929050565b600082601f830112614e8a578081fd5b81356020614e9f614e9a83615e1e565b615dee565b80838252828201915082860187848660051b8901011115614ebe578586fd5b855b85811015614ee5578135614ed381615ee3565b84529284019290840190600101614ec0565b5090979650505050505050565b600082601f830112614f02578081fd5b81356020614f12614e9a83615e1e565b80838252828201915082860187848660051b8901011115614f31578586fd5b855b85811015614ee5578135614f4681615efb565b84529284019290840190600101614f33565b600082601f830112614f68578081fd5b81516020614f78614e9a83615e1e565b80838252828201915082860187848660061b8901011115614f97578586fd5b855b85811015614ee557604080838b031215614fb1578788fd5b614fb9615da4565b8351614fc481615ee3565b8152614fd184880161512b565b818801528552938501939190910190600101614f99565b60008083601f840112614ff9578182fd5b5081356001600160401b0381111561500f578182fd5b6020830191508360208260061b8501011115614e7357600080fd5b600082601f83011261503a578081fd5b8151602061504a614e9a83615e1e565b82815281810190858301606080860288018501891015615068578687fd5b865b868110156150c05781838b031215615080578788fd5b615088615dcc565b835181528684015161509981615ee3565b8188015260406150aa85820161512b565b908201528552938501939181019160010161506a565b509198975050505050505050565b600082601f8301126150de578081fd5b813560206150ee614e9a83615e1e565b80838252828201915082860187848660051b890101111561510d578586fd5b855b85811015614ee55781358452928401929084019060010161510f565b805163ffffffff8116811461513f57600080fd5b919050565b600060208284031215615155578081fd5b813561099081615ee3565b600060208284031215615171578081fd5b815161099081615ee3565b6000806040838503121561518e578081fd5b823561519981615ee3565b915060208301356151a981615ee3565b809150509250929050565b6000806000806000606086880312156151cb578081fd5b85356151d681615ee3565b945060208601356001600160401b03808211156151f1578283fd5b6151fd89838a01614e31565b90965094506040880135915080821115615215578283fd5b5061522288828901614e31565b969995985093965092949392505050565b6000806000806000806080878903121561524b578384fd5b863561525681615ee3565b955060208701356001600160401b0380821115615271578586fd5b61527d8a838b01614e31565b90975095506040890135915080821115615295578283fd5b506152a289828a01614e31565b90945092505060608701356152b681615efb565b809150509295509295509295565b600080600080608085870312156152d9578182fd5b84356152e481615ee3565b935060208501356001600160401b03808211156152ff578384fd5b61530b88838901614e7a565b94506040870135915080821115615320578384fd5b5061532d878288016150ce565b925050606085013561533e81615efb565b939692955090935050565b600080600080600060a08688031215615360578283fd5b853561536b81615ee3565b945060208601356001600160401b0380821115615386578485fd5b61539289838a01614e7a565b955060408801359150808211156153a7578485fd5b506153b4888289016150ce565b9350506060860135915060808601356153cc81615efb565b809150509295509295909350565b6000806000604084860312156153ee578081fd5b83356153f981615ee3565b925060208401356001600160401b03811115615413578182fd5b61541f86828701614e31565b9497909650939450505050565b600080600080600060608688031215615443578283fd5b853561544e81615ee3565b945060208601356001600160401b03808211156151f1578485fd5b60008060008060008060808789031215615481578384fd5b86356001600160401b0380821115615497578586fd5b6154a38a838b01614e31565b9098509650602089013591506154b882615ee3565b909450604088013590808211156154cd578384fd5b6154d98a838b01614e31565b909550935060608901359150808211156154f1578283fd5b506154fe89828a01614ef2565b9150509295509295509295565b6000806040838503121561551d578182fd5b82356001600160401b03811115615532578283fd5b61553e85828601614e7a565b92505060208301356151a981615ee3565b60008060008060808587031215615564578182fd5b84356001600160401b038082111561557a578384fd5b61558688838901614e7a565b95506020870135915061559882615ee3565b909350604086013590808211156155ad578384fd5b6155b9888389016150ce565b935060608701359150808211156155ce578283fd5b506155db87828801614ef2565b91505092959194509250565b6000602082840312156155f8578081fd5b815161099081615efb565b60006020808385031215615615578182fd5b82516001600160401b038082111561562b578384fd5b908401906060828703121561563e578384fd5b615646615dcc565b825182811115615654578586fd5b8301601f81018813615664578586fd5b80518381111561567657615676615ecd565b615688601f8201601f19168701615dee565b818152898783850101111561569b578788fd5b6156aa82888301898601615e70565b8352505082840151828111156156be578586fd5b6156ca88828601614f58565b858301525060408301519350818411156156e2578485fd5b6156ee8785850161502a565b60408201529695505050505050565b60006020828403121561570e578081fd5b5035919050565b600060208284031215615726578081fd5b5051919050565b600080600060608486031215615741578081fd5b83359250602084013561575381615ee3565b9150604084013561576381615ee3565b809150509250925092565b600080600080600060808688031215615785578283fd5b85359450602086013561579781615ee3565b935060408601356001600160401b038111156157b1578384fd5b6157bd88828901614fe8565b90945092505060608601356153cc81615efb565b6000806000604084860312156157e5578081fd5b8335925060208401356001600160401b03811115615801578182fd5b61541f86828701614fe8565b6000815180845260208085019450808401835b838110156158455781516001600160a01b031687529582019590820190600101615820565b509495945050505050565b6000815180845260208085019450808401835b8381101561584557815180516001600160a01b031688528301518388015260409096019590820190600101615863565b81835260006020808501945082825b858110156158455781356158b581615ee3565b6001600160a01b031687528183013583880152604096870196909101906001016158a2565b6000815180845260208085019450808401835b83811015615845578151875295820195908201906001016158ed565b6000825161591b818460208701615e70565b9190910192915050565b6001600160a01b0391909116815260200190565b6001600160a01b0384168152604060208201819052810182905260006001600160fb1b03831115615968578081fd5b8260051b80856060850137919091016060019081529392505050565b6001600160a01b0393841681526020810192909252909116604082015260600190565b602081526000610990602083018461580d565b6060815260006159cd606083018661580d565b82810360208401526159df81866158da565b915050826040830152949350505050565b6000604080830181845280865180835260608601915060608160051b87010192506020808901865b83811015615a5757888603605f19018552815180518752830151838701889052615a4488880182615850565b9650509382019390820190600101615a18565b505086840381880152505050615a6d8186615850565b9695505050505050565b602081526000611ec5602083018486615893565b60208101600e8310615aad57634e487b7160e01b600052602160045260246000fd5b91905290565b92835260208301919091526001600160a01b0316604082015260600190565b6020815260008251806020840152615af1816040850160208701615e70565b601f01601f19169190910160400192915050565b6020808252600f908201526e1d1bdad95b9cc81c995c5d5a5c9959608a1b604082015260600190565b6020808252600e908201526d1a5b9d985b1a5908185b5bdd5b9d60921b604082015260600190565b6020808252602a908201527f436f6e74726f6c6c65643a3a6f6e6c794f776e65723a2043616c6c6572206973604082015269103737ba1037bbb732b960b11b606082015260800190565b6020808252602e908201527f496e697469616c697a61626c653a20636f6e747261637420697320616c72656160408201526d191e481a5b9a5d1a585b1a5e995960921b606082015260800190565b6020808252600b908201526a626164206164647265737360a81b604082015260600190565b60208082526014908201527318dbdb9d1c9858dd1cc8185c99481c185d5cd95960621b604082015260600190565b6020808252600d908201526c34b73b30b634b2103a37b5b2b760991b604082015260600190565b602080825260129082015271696e73756666696369656e742066756e647360701b604082015260600190565b6020808252603c908201527f55736572506f736974696f6e733a3a6465706f7369743a205468697320746f6b60408201527b656e206973206e6f7420616363657074696e67206465706f7369747360201b606082015260800190565b60208082526034908201527f436f6e74726f6c6c65643a3a6f6e6c79436f6e74726f6c6c65723a2043616c6c60408201527332b91034b9903737ba1031b7b73a3937b63632b960611b606082015260800190565b602081526000825160806020840152615d6060a08401826158da565b90506020840151604084015260408401516060840152606084015160808401528091505092915050565b838152604060208201526000610aa0604083018486615893565b604080519081016001600160401b0381118282101715615dc657615dc6615ecd565b60405290565b604051606081016001600160401b0381118282101715615dc657615dc6615ecd565b604051601f8201601f191681016001600160401b0381118282101715615e1657615e16615ecd565b604052919050565b60006001600160401b03821115615e3757615e37615ecd565b5060051b60200190565b60008219821115615e5457615e54615eb7565b500190565b600082821015615e6b57615e6b615eb7565b500390565b60005b83811015615e8b578181015183820152602001615e73565b83811115614bc65750506000910152565b6000600019821415615eb057615eb0615eb7565b5060010190565b634e487b7160e01b600052601160045260246000fd5b634e487b7160e01b600052604160045260246000fd5b6001600160a01b0381168114615ef857600080fd5b50565b8015158114615ef857600080fdfe55736572506f736974696f6e733a3a75706461746555736572546f6b656e426155736572506f736974696f6e733a3a75706461746555736572496e746572636f9422424b175dda897495a07b091ef74a3ef715cf6d866fc972954c1c7f459304a26469706673582212202d7342a099c44b381d2a43332c16643351f27272d8ab2470fb2257920616123e64736f6c63430008040033",
  "devdoc": {
    "kind": "dev",
    "methods": {
      "claimEthRewards(address,uint256[])": {
        "params": {
          "recipient": "The address of the user claiming ETH rewards",
          "strategies": "An array of strategyIDs to claim rewards for"
        }
      },
      "deposit(address,address[],uint256[],uint256,bool)": {
        "params": {
          "amounts": "Array of token amounts",
          "depositor": "Address of the account depositing",
          "ethAmount": "The amount of ETH sent with the deposit",
          "tokens": "Array of token the token addresses"
        }
      },
      "enterStrategy(uint256,(address,uint256)[])": {
        "params": {
          "strategyID": "The strategy to enter",
          "tokens": "The tokens and amounts to enter into the strategy"
        }
      },
      "exitStrategy(uint256,(address,uint256)[])": {
        "params": {
          "strategyID": "The strategy to withdrawfrom",
          "tokens": "The tokens and amounts to withdraw"
        }
      },
      "getUserBalances(address,uint256[],address[])": {
        "params": {
          "_strategies": "the strategies to get balances for",
          "_tokens": "the tokens to get balances for",
          "user": "the user to request for"
        },
        "returns": {
          "strategyBalance": " The user's invested funds in the strategies",
          "userBalance": " User total token balances"
        }
      },
      "getUserInvestedAmountByToken(address,address)": {
        "params": {
          "token": "the token address",
          "user": "the user holding the funds"
        },
        "returns": {
          "amount": " the amount of tokens the user has invested across all strategies"
        }
      },
      "getUserStrategyBalanceByToken(uint256,address,address)": {
        "params": {
          "id": "the strategy id",
          "token": "the token address",
          "user": "the user who holds the funds"
        },
        "returns": {
          "amount": " the amount of token that the user has invested in the strategy "
        }
      },
      "initialize(address[],address)": {
        "params": {
          "controllers_": "The addresses of the controlling contracts",
          "moduleMap_": "Address of the Module Map"
        }
      },
      "totalTokenBalance(address)": {
        "params": {
          "asset": "Address of the ERC20 token contract"
        },
        "returns": {
          "_0": "The total balance of the asset deposited in the system"
        }
      },
      "updateUserInterconnectBalances(address[],address,uint256[],bool[])": {
        "params": {
          "account": "user ",
          "amounts": "list of amounts to update ",
          "assets": "list of tokens to update"
        }
      },
      "updateUserTokenBalances(address[],address,uint256[],bool[])": {
        "params": {
          "account": "user ",
          "amounts": "list of amounts to update ",
          "assets": "list of tokens to update"
        }
      },
      "userDeployableBalance(address,address)": {
        "params": {
          "account": "Address of the user account",
          "asset": "Address of the ERC20 token contract"
        }
      },
      "userInterconnectBalance(address,address)": {
        "params": {
          "account": "Address of the user account",
          "asset": "Address of the ERC20 token contract"
        }
      },
      "userTokenBalance(address,address)": {
        "params": {
          "account": "Address of the user account",
          "asset": "Address of the ERC20 token contract"
        }
      },
      "withdraw(address,address[],uint256[],bool)": {
        "params": {
          "amounts": "Array of token amounts",
          "recipient": "The address of the user withdrawing",
          "tokens": "Array of token the token addresses",
          "withdrawWethAsEth": "Boolean indicating whether should receive WETH balance as ETH"
        }
      },
      "withdrawAllAndClaim(address,address[],uint256[],bool)": {
        "params": {
          "recipient": "The address of the user withdrawing tokens",
          "strategies": "Array of strategy IDs that user is claiming rewards from",
          "tokens": "Array of token address that user is exiting positions from",
          "withdrawWethAsEth": "Boolean indicating whether should receive WETH balance as ETH"
        },
        "returns": {
          "_withdrawAllAndClaimResponse": "/// WithdrawAllAndClaimResponse.tokenAmounts The amounts of each token being withdrawn /// WithdrawAllAndClaimResponse.ethWithdrawn The amount of ETH being withdrawn /// WithdrawAllAndClaimResponse.ethClaimed The amount of ETH being claimed from rewards /// WithdrawAllAndClaimResponse.biosClaimed The amount of BIOS being claimed from rewards"
        }
      }
    },
    "stateVariables": {
      "_biosRewardsDuration": {
        "details": "This is deprecated - now live in BiosRewards.sol"
      }
    },
    "title": "User Positions",
    "version": 1
  },
  "userdoc": {
    "kind": "user",
    "methods": {
      "deposit(address,address[],uint256[],uint256,bool)": {
        "notice": "User is allowed to deposit whitelisted tokens"
      },
      "enterStrategy(uint256,(address,uint256)[])": {
        "notice": "Adds a user's funds to a strategy to be deployed"
      },
      "exitStrategy(uint256,(address,uint256)[])": {
        "notice": "Marks a user's funds as withdrawable"
      },
      "getUserBalances(address,uint256[],address[])": {
        "notice": "Returns a user's balances for requested strategies, and the users total invested amounts for each token requested"
      },
      "getUserInvestedAmountByToken(address,address)": {
        "notice": "Returns the amount of a given token that a user has invested across all strategies"
      },
      "getUserStrategyBalanceByToken(uint256,address,address)": {
        "notice": "returns the amount of a given token a user has invested in a given strategy"
      },
      "updateUserInterconnectBalances(address[],address,uint256[],bool[])": {
        "notice": "Updates a user's interconnected balance. Only called by controlled contracts or relayer"
      },
      "updateUserTokenBalances(address[],address,uint256[],bool[])": {
        "notice": "Updates a user's local balance. Only called by controlled contracts or relayer"
      },
      "withdraw(address,address[],uint256[],bool)": {
        "notice": "User is allowed to withdraw tokens"
      },
      "withdrawAllAndClaim(address,address[],uint256[],bool)": {
        "notice": "Allows a user to withdraw entire balances of the specified tokens and claim rewards"
      }
    },
    "notice": "Allows users to deposit/withdraw erc20 tokens",
    "version": 1
  },
  "storageLayout": {
    "storage": [
      {
        "astId": 702,
        "contract": "contracts/core/UserPositions.sol:UserPositions",
        "label": "_initialized",
        "offset": 0,
        "slot": "0",
        "type": "t_bool"
      },
      {
        "astId": 705,
        "contract": "contracts/core/UserPositions.sol:UserPositions",
        "label": "_initializing",
        "offset": 1,
        "slot": "0",
        "type": "t_bool"
      },
      {
        "astId": 11341,
        "contract": "contracts/core/UserPositions.sol:UserPositions",
        "label": "moduleMap",
        "offset": 2,
        "slot": "0",
        "type": "t_contract(IModuleMap)22677"
      },
      {
        "astId": 5851,
        "contract": "contracts/core/UserPositions.sol:UserPositions",
        "label": "_controllers",
        "offset": 0,
        "slot": "1",
        "type": "t_mapping(t_address,t_bool)"
      },
      {
        "astId": 5854,
        "contract": "contracts/core/UserPositions.sol:UserPositions",
        "label": "controllers",
        "offset": 0,
        "slot": "2",
        "type": "t_array(t_address)dyn_storage"
      },
      {
        "astId": 16987,
        "contract": "contracts/core/UserPositions.sol:UserPositions",
        "label": "_biosRewardsDuration",
        "offset": 0,
        "slot": "3",
        "type": "t_uint32"
      },
      {
        "astId": 16991,
        "contract": "contracts/core/UserPositions.sol:UserPositions",
        "label": "_totalSupply",
        "offset": 0,
        "slot": "4",
        "type": "t_mapping(t_address,t_uint256)"
      },
      {
        "astId": 16997,
        "contract": "contracts/core/UserPositions.sol:UserPositions",
        "label": "_balances",
        "offset": 0,
        "slot": "5",
        "type": "t_mapping(t_address,t_mapping(t_address,t_uint256))"
      },
      {
        "astId": 17003,
        "contract": "contracts/core/UserPositions.sol:UserPositions",
        "label": "_deployedBalances",
        "offset": 0,
        "slot": "6",
        "type": "t_mapping(t_address,t_mapping(t_address,t_uint256))"
      },
      {
        "astId": 17011,
        "contract": "contracts/core/UserPositions.sol:UserPositions",
        "label": "_userStrategyBalances",
        "offset": 0,
        "slot": "7",
        "type": "t_mapping(t_address,t_mapping(t_uint256,t_mapping(t_address,t_uint256)))"
      },
      {
        "astId": 17017,
        "contract": "contracts/core/UserPositions.sol:UserPositions",
        "label": "_interconnectBalances",
        "offset": 0,
        "slot": "8",
        "type": "t_mapping(t_address,t_mapping(t_address,t_uint256))"
      },
      {
        "astId": 17019,
        "contract": "contracts/core/UserPositions.sol:UserPositions",
        "label": "paused",
        "offset": 0,
        "slot": "9",
        "type": "t_bool"
      }
    ],
    "types": {
      "t_address": {
        "encoding": "inplace",
        "label": "address",
        "numberOfBytes": "20"
      },
      "t_array(t_address)dyn_storage": {
        "base": "t_address",
        "encoding": "dynamic_array",
        "label": "address[]",
        "numberOfBytes": "32"
      },
      "t_bool": {
        "encoding": "inplace",
        "label": "bool",
        "numberOfBytes": "1"
      },
      "t_contract(IModuleMap)22677": {
        "encoding": "inplace",
        "label": "contract IModuleMap",
        "numberOfBytes": "20"
      },
      "t_mapping(t_address,t_bool)": {
        "encoding": "mapping",
        "key": "t_address",
        "label": "mapping(address => bool)",
        "numberOfBytes": "32",
        "value": "t_bool"
      },
      "t_mapping(t_address,t_mapping(t_address,t_uint256))": {
        "encoding": "mapping",
        "key": "t_address",
        "label": "mapping(address => mapping(address => uint256))",
        "numberOfBytes": "32",
        "value": "t_mapping(t_address,t_uint256)"
      },
      "t_mapping(t_address,t_mapping(t_uint256,t_mapping(t_address,t_uint256)))": {
        "encoding": "mapping",
        "key": "t_address",
        "label": "mapping(address => mapping(uint256 => mapping(address => uint256)))",
        "numberOfBytes": "32",
        "value": "t_mapping(t_uint256,t_mapping(t_address,t_uint256))"
      },
      "t_mapping(t_address,t_uint256)": {
        "encoding": "mapping",
        "key": "t_address",
        "label": "mapping(address => uint256)",
        "numberOfBytes": "32",
        "value": "t_uint256"
      },
      "t_mapping(t_uint256,t_mapping(t_address,t_uint256))": {
        "encoding": "mapping",
        "key": "t_uint256",
        "label": "mapping(uint256 => mapping(address => uint256))",
        "numberOfBytes": "32",
        "value": "t_mapping(t_address,t_uint256)"
      },
      "t_uint256": {
        "encoding": "inplace",
        "label": "uint256",
        "numberOfBytes": "32"
      },
      "t_uint32": {
        "encoding": "inplace",
        "label": "uint32",
        "numberOfBytes": "4"
      }
    }
  }
}