{
  "address": "0x3ED2974d2e649db84F22F43e75Cd2600a7eec26A",
  "abi": [
    {
      "anonymous": false,
      "inputs": [
        {
          "indexed": false,
          "internalType": "address",
          "name": "token",
          "type": "address"
        },
        {
          "indexed": false,
          "internalType": "uint256",
          "name": "amount",
          "type": "uint256"
        }
      ],
      "name": "Deploy",
      "type": "event"
    },
    {
      "anonymous": false,
      "inputs": [
        {
          "indexed": false,
          "internalType": "address",
          "name": "token",
          "type": "address"
        },
        {
          "indexed": false,
          "internalType": "uint256",
          "name": "amount",
          "type": "uint256"
        }
      ],
      "name": "Deposit",
      "type": "event"
    },
    {
      "anonymous": false,
      "inputs": [
        {
          "indexed": false,
          "internalType": "address",
          "name": "token",
          "type": "address"
        },
        {
          "indexed": false,
          "internalType": "uint256",
          "name": "amount",
          "type": "uint256"
        }
      ],
      "name": "HarvestYield",
      "type": "event"
    },
    {
      "anonymous": false,
      "inputs": [
        {
          "indexed": false,
          "internalType": "address",
          "name": "token",
          "type": "address"
        },
        {
          "indexed": false,
          "internalType": "uint256",
          "name": "amount",
          "type": "uint256"
        }
      ],
      "name": "Withdraw",
      "type": "event"
    },
    {
      "inputs": [
        {
          "internalType": "address",
          "name": "controller",
          "type": "address"
        }
      ],
      "name": "addController",
      "outputs": [],
      "stateMutability": "nonpayable",
      "type": "function"
    },
    {
      "inputs": [
        {
          "internalType": "uint256",
          "name": "",
          "type": "uint256"
        }
      ],
      "name": "controllers",
      "outputs": [
        {
          "internalType": "address",
          "name": "",
          "type": "address"
        }
      ],
      "stateMutability": "view",
      "type": "function"
    },
    {
      "inputs": [],
      "name": "deploy",
      "outputs": [],
      "stateMutability": "nonpayable",
      "type": "function"
    },
    {
      "inputs": [
        {
          "internalType": "address",
          "name": "tokenAddress",
          "type": "address"
        },
        {
          "internalType": "uint256",
          "name": "amount",
          "type": "uint256"
        }
      ],
      "name": "deposit",
      "outputs": [],
      "stateMutability": "nonpayable",
      "type": "function"
    },
    {
      "inputs": [],
      "name": "getAllControllers",
      "outputs": [
        {
          "internalType": "address[]",
          "name": "currentControllers",
          "type": "address[]"
        }
      ],
      "stateMutability": "view",
      "type": "function"
    },
    {
      "inputs": [
        {
          "internalType": "address",
          "name": "token",
          "type": "address"
        }
      ],
      "name": "getAvailableYieldInShares",
      "outputs": [
        {
          "internalType": "uint256",
          "name": "",
          "type": "uint256"
        }
      ],
      "stateMutability": "view",
      "type": "function"
    },
    {
      "inputs": [
        {
          "internalType": "address",
          "name": "token",
          "type": "address"
        }
      ],
      "name": "getBalance",
      "outputs": [
        {
          "internalType": "uint256",
          "name": "",
          "type": "uint256"
        }
      ],
      "stateMutability": "view",
      "type": "function"
    },
    {
      "inputs": [
        {
          "internalType": "address",
          "name": "token",
          "type": "address"
        }
      ],
      "name": "getPendingYield",
      "outputs": [
        {
          "internalType": "uint256",
          "name": "",
          "type": "uint256"
        }
      ],
      "stateMutability": "view",
      "type": "function"
    },
    {
      "inputs": [
        {
          "internalType": "address",
          "name": "token",
          "type": "address"
        }
      ],
      "name": "getPricePerShare",
      "outputs": [
        {
          "internalType": "uint256",
          "name": "",
          "type": "uint256"
        }
      ],
      "stateMutability": "view",
      "type": "function"
    },
    {
      "inputs": [
        {
          "internalType": "address",
          "name": "token",
          "type": "address"
        }
      ],
      "name": "getVaultAddress",
      "outputs": [
        {
          "internalType": "address",
          "name": "",
          "type": "address"
        }
      ],
      "stateMutability": "view",
      "type": "function"
    },
    {
      "inputs": [
        {
          "internalType": "address",
          "name": "token",
          "type": "address"
        }
      ],
      "name": "getVaultWithdrawableAmount",
      "outputs": [
        {
          "internalType": "uint256",
          "name": "",
          "type": "uint256"
        }
      ],
      "stateMutability": "view",
      "type": "function"
    },
    {
      "inputs": [],
      "name": "harvestYield",
      "outputs": [],
      "stateMutability": "nonpayable",
      "type": "function"
    },
    {
      "inputs": [
        {
          "internalType": "address[]",
          "name": "controllers_",
          "type": "address[]"
        },
        {
          "internalType": "address",
          "name": "moduleMap_",
          "type": "address"
        },
        {
          "internalType": "address",
          "name": "yearnRegistryAddress_",
          "type": "address"
        }
      ],
      "name": "initialize",
      "outputs": [],
      "stateMutability": "nonpayable",
      "type": "function"
    },
    {
      "inputs": [
        {
          "internalType": "address",
          "name": "controller",
          "type": "address"
        }
      ],
      "name": "isController",
      "outputs": [
        {
          "internalType": "bool",
          "name": "status",
          "type": "bool"
        }
      ],
      "stateMutability": "view",
      "type": "function"
    },
    {
      "inputs": [],
      "name": "moduleMap",
      "outputs": [
        {
          "internalType": "contract IModuleMap",
          "name": "",
          "type": "address"
        }
      ],
      "stateMutability": "view",
      "type": "function"
    },
    {
      "inputs": [
        {
          "internalType": "address",
          "name": "tokenAddress",
          "type": "address"
        }
      ],
      "name": "retrievePrincipal",
      "outputs": [],
      "stateMutability": "nonpayable",
      "type": "function"
    },
    {
      "inputs": [
        {
          "internalType": "address",
          "name": "tokenAddress",
          "type": "address"
        },
        {
          "internalType": "uint256",
          "name": "amount",
          "type": "uint256"
        }
      ],
      "name": "withdraw",
      "outputs": [],
      "stateMutability": "nonpayable",
      "type": "function"
    }
  ],
  "transactionHash": "0xbd2faf1cc612901ff1514655c490ec2038c1eeb5607cd4fd2940fccb74f52485",
  "args": [],
  "solcInputHash": "9e1b0628549e14d8a16ede02d30b58a0",
  "bytecode": "0x608060405234801561001057600080fd5b50611b37806100206000396000f3fe608060405234801561001057600080fd5b50600436106100db5760003560e01c80630f0a1c6f146100e0578063337993cb1461010f57806347e7ef2414610124578063537bb13714610139578063714f583b1461015a578063775c300c1461016d57806390482d72146101755780639067820614610188578063a7fc7a071461019b578063b429afeb146101ae578063d27d806b146101ea578063e8d991d11461016d578063e94b0dd2146101fd578063ec422afd14610210578063ef88c31e14610223578063f3fef3a314610236578063f8b2cb4f14610249575b600080fd5b6000546100f9906201000090046001600160a01b031681565b6040516101069190611784565b60405180910390f35b610117610272565b60405161010691906117b1565b6101376101323660046115e4565b6102d4565b005b61014c6101473660046115ac565b610377565b604051908152602001610106565b6101376101683660046115ac565b610388565b610137610500565b61013761018336600461160f565b610531565b61014c6101963660046115ac565b61063c565b6101376101a93660046115ac565b610766565b6101da6101bc3660046115ac565b6001600160a01b031660009081526001602052604090205460ff1690565b6040519015158152602001610106565b61014c6101f83660046115ac565b6109a1565b6100f961020b366004611717565b6109fc565b61014c61021e3660046115ac565b610a26565b6100f96102313660046115ac565b610aa1565b6101376102443660046115e4565b610b6c565b61014c6102573660046115ac565b6001600160a01b031660009081526004602052604090205490565b606060028054806020026020016040519081016040528092919081815260200182805480156102ca57602002820191906000526020600020905b81546001600160a01b031681526001909101906020018083116102ac575b5050505050905090565b3360009081526001602052604090205460ff1661030c5760405162461bcd60e51b81526004016103039061187e565b60405180910390fd5b6001600160a01b0382166000908152600460205260408120805483929061033490849061191d565b90915550506040517fe1fffcc4923d04b559f4d29a8bfc6cda04eb5b0d3c460751c2402c5c5cc9109c9061036b9084908490611798565b60405180910390a15050565b6000610382826109a1565b92915050565b600080546040516337c61fc560e11b8152620100009091046001600160a01b031691636f8c3f8a916103bd91906004016117fe565b60206040518083038186803b1580156103d557600080fd5b505afa1580156103e9573d6000803e3d6000fd5b505050506040513d601f19601f8201168201806040525081019061040d91906115c8565b6001600160a01b031663f3ae2415336040518263ffffffff1660e01b81526004016104389190611784565b60206040518083038186803b15801561045057600080fd5b505afa158015610464573d6000803e3d6000fd5b505050506040513d601f19601f8201168201806040525081019061048891906116f7565b6104eb5760405162461bcd60e51b815260206004820152602e60248201527f436f6e74726f6c6c65643a3a6f6e6c794d616e616765723a2043616c6c65722060448201526d34b9903737ba1036b0b730b3b2b960911b6064820152608401610303565b6104fd816104f88361063c565b610ba1565b50565b3360009081526001602052604090205460ff1661052f5760405162461bcd60e51b81526004016103039061187e565b565b600054610100900460ff1661054c5760005460ff1615610554565b6105546110b5565b6105b75760405162461bcd60e51b815260206004820152602e60248201527f496e697469616c697a61626c653a20636f6e747261637420697320616c72656160448201526d191e481a5b9a5d1a585b1a5e995960921b6064820152608401610303565b600054610100900460ff161580156105d9576000805461ffff19166101011790555b6001600160a01b0382166105ff5760405162461bcd60e51b815260040161030390611859565b61060984846110c6565b600380546001600160a01b0319166001600160a01b0384161790558015610636576000805461ff00191690555b50505050565b60008061064883610aa1565b9050806001600160a01b031663313ce5676040518163ffffffff1660e01b815260040160206040518083038186803b15801561068357600080fd5b505afa158015610697573d6000803e3d6000fd5b505050506040513d601f19601f820116820180604052508101906106bb9190611747565b6106c690600a611998565b6040516370a0823160e01b81526001600160a01b038316906370a08231906106f2903090600401611784565b60206040518083038186803b15801561070a57600080fd5b505afa15801561071e573d6000803e3d6000fd5b505050506040513d601f19601f82011682018060405250810190610742919061172f565b61074b85610a26565b6107559190611a43565b61075f9190611935565b9392505050565b600080546040516337c61fc560e11b8152620100009091046001600160a01b031691636f8c3f8a9161079b91906004016117fe565b60206040518083038186803b1580156107b357600080fd5b505afa1580156107c7573d6000803e3d6000fd5b505050506040513d601f19601f820116820180604052508101906107eb91906115c8565b6001600160a01b0316632f54bf6e336040518263ffffffff1660e01b81526004016108169190611784565b60206040518083038186803b15801561082e57600080fd5b505afa158015610842573d6000803e3d6000fd5b505050506040513d601f19601f8201168201806040525081019061086691906116f7565b6108c55760405162461bcd60e51b815260206004820152602a60248201527f436f6e74726f6c6c65643a3a6f6e6c794f776e65723a2043616c6c6572206973604482015269103737ba1037bbb732b960b11b6064820152608401610303565b6001600160a01b03811660009081526001602081905260408220805460ff19169091179055805b60025481101561094b576002818154811061091757634e487b7160e01b600052603260045260246000fd5b6000918252602090912001546001600160a01b038481169116141561093b57600191505b61094481611aa5565b90506108ec565b508061099d57600280546001810182556000919091527f405787fa12a823e0f2b7631cc41b3ba8828b3321ca811111fa75cd3aa3bb5ace0180546001600160a01b0319166001600160a01b0384161790555b5050565b6000806109ad8361063c565b6001600160a01b0384166000908152600460205260409020549091508111156109f3576001600160a01b03831660009081526004602052604090205461075f9082611a62565b50600092915050565b60028181548110610a0c57600080fd5b6000918252602090912001546001600160a01b0316905081565b6000610a3182610aa1565b6001600160a01b03166399530b066040518163ffffffff1660e01b815260040160206040518083038186803b158015610a6957600080fd5b505afa158015610a7d573d6000803e3d6000fd5b505050506040513d601f19601f82011682018060405250810190610382919061172f565b60006001600160a01b03821673a0b86991c6218b36c1d19d4a2e9eb0ce3606eb481415610ae35750735f18c75abdae578b483e5f43f12a39cf75b973a9919050565b600354604051630e177dc760e41b81526001600160a01b039091169063e177dc7090610b13908590600401611784565b60206040518083038186803b158015610b2b57600080fd5b505afa925050508015610b5b575060408051601f3d908101601f19168201909252610b58918101906115c8565b60015b61038257506000919050565b919050565b3360009081526001602052604090205460ff16610b9b5760405162461bcd60e51b81526004016103039061187e565b61099d82825b6000610bac83610aa1565b6040516370a0823160e01b8152909150839083906001600160a01b038316906370a0823190610bdf903090600401611784565b60206040518083038186803b158015610bf757600080fd5b505afa158015610c0b573d6000803e3d6000fd5b505050506040513d601f19601f82011682018060405250810190610c2f919061172f565b1015610e4f576000610c408561063c565b90508015610e4d576000606482856001600160a01b03166370a08231306040518263ffffffff1660e01b8152600401610c799190611784565b60206040518083038186803b158015610c9157600080fd5b505afa158015610ca5573d6000803e3d6000fd5b505050506040513d601f19601f82011682018060405250810190610cc9919061172f565b610cd4886065611a43565b610cde9190611a43565b610ce89190611935565b610cf29190611935565b6040516370a0823160e01b81529091506001600160a01b038516906370a0823190610d21903090600401611784565b60206040518083038186803b158015610d3957600080fd5b505afa158015610d4d573d6000803e3d6000fd5b505050506040513d601f19601f82011682018060405250810190610d71919061172f565b811115610df7576040516370a0823160e01b81526001600160a01b038516906370a0823190610da4903090600401611784565b60206040518083038186803b158015610dbc57600080fd5b505afa158015610dd0573d6000803e3d6000fd5b505050506040513d601f19601f82011682018060405250810190610df4919061172f565b90505b604051632e1a7d4d60e01b8152600481018290526001600160a01b03851690632e1a7d4d90602401600060405180830381600087803b158015610e3957600080fd5b505af1925050508015610e4a575060015b50505b505b6040516370a0823160e01b815283906001600160a01b038316906370a0823190610e7d903090600401611784565b60206040518083038186803b158015610e9557600080fd5b505afa158015610ea9573d6000803e3d6000fd5b505050506040513d601f19601f82011682018060405250810190610ecd919061172f565b1015610f52576040516370a0823160e01b81526001600160a01b038216906370a0823190610eff903090600401611784565b60206040518083038186803b158015610f1757600080fd5b505afa158015610f2b573d6000803e3d6000fd5b505050506040513d601f19601f82011682018060405250810190610f4f919061172f565b92505b6001600160a01b03841660009081526004602052604090205415610fdc576001600160a01b038416600090815260046020526040902054831115610fae576001600160a01b038416600090815260046020526040812055610fdc565b6001600160a01b03841660009081526004602052604081208054859290610fd6908490611a62565b90915550505b600080546040516337c61fc560e11b815261107692620100009092046001600160a01b031691636f8c3f8a9161101591906004016117fe565b60206040518083038186803b15801561102d57600080fd5b505afa158015611041573d6000803e3d6000fd5b505050506040513d601f19601f8201168201806040525081019061106591906115c8565b6001600160a01b038316908561121b565b7f884edad9ce6fa2440d8a54cc123490eb96d2768479d49ff9c7366125a942436484846040516110a7929190611798565b60405180910390a150505050565b60006110c030611276565b15905090565b600054610100900460ff166110ed5760405162461bcd60e51b8152600401610303906118d2565b6001600160a01b0381166111135760405162461bcd60e51b815260040161030390611859565b60005b82518110156111895760006001600160a01b031683828151811061114a57634e487b7160e01b600052603260045260246000fd5b60200260200101516001600160a01b031614156111795760405162461bcd60e51b815260040161030390611859565b61118281611aa5565b9050611116565b5060005b82518110156111fd5760018060008584815181106111bb57634e487b7160e01b600052603260045260246000fd5b6020908102919091018101516001600160a01b03168252810191909152604001600020805460ff19169115159190911790556111f681611aa5565b905061118d565b508151611211906002906020850190611527565b5061099d81611285565b6112718363a9059cbb60e01b848460405160240161123a929190611798565b60408051601f198184030181529190526020810180516001600160e01b03166001600160e01b0319909316929092179091526112d6565b505050565b6001600160a01b03163b151590565b600054610100900460ff166112ac5760405162461bcd60e51b8152600401610303906118d2565b600080546001600160a01b03909216620100000262010000600160b01b0319909216919091179055565b600061132b826040518060400160405280602081526020017f5361666545524332303a206c6f772d6c6576656c2063616c6c206661696c6564815250856001600160a01b03166113a89092919063ffffffff16565b805190915015611271578080602001905181019061134991906116f7565b6112715760405162461bcd60e51b815260206004820152602a60248201527f5361666545524332303a204552433230206f7065726174696f6e20646964206e6044820152691bdd081cdd58d8d9595960b21b6064820152608401610303565b60606113b784846000856113bf565b949350505050565b6060824710156114205760405162461bcd60e51b815260206004820152602660248201527f416464726573733a20696e73756666696369656e742062616c616e636520666f6044820152651c8818d85b1b60d21b6064820152608401610303565b61142985611276565b6114755760405162461bcd60e51b815260206004820152601d60248201527f416464726573733a2063616c6c20746f206e6f6e2d636f6e74726163740000006044820152606401610303565b600080866001600160a01b031685876040516114919190611768565b60006040518083038185875af1925050503d80600081146114ce576040519150601f19603f3d011682016040523d82523d6000602084013e6114d3565b606091505b50915091506114e38282866114ee565b979650505050505050565b606083156114fd57508161075f565b82511561150d5782518084602001fd5b8160405162461bcd60e51b81526004016103039190611826565b82805482825590600052602060002090810192821561157c579160200282015b8281111561157c57825182546001600160a01b0319166001600160a01b03909116178255602090920191600190910190611547565b5061158892915061158c565b5090565b5b80821115611588576000815560010161158d565b8035610b6781611aec565b6000602082840312156115bd578081fd5b813561075f81611aec565b6000602082840312156115d9578081fd5b815161075f81611aec565b600080604083850312156115f6578081fd5b823561160181611aec565b946020939093013593505050565b600080600060608486031215611623578081fd5b83356001600160401b0380821115611639578283fd5b818601915086601f83011261164c578283fd5b813560208282111561166057611660611ad6565b8160051b604051601f19603f8301168101818110868211171561168557611685611ad6565b604052838152828101945085830182870184018c10156116a3578788fd5b8796505b848710156116cc576116b8816115a1565b8652600196909601959483019483016116a7565b5097506116dc90508882016115a1565b9550505050506116ee604085016115a1565b90509250925092565b600060208284031215611708578081fd5b8151801515811461075f578182fd5b600060208284031215611728578081fd5b5035919050565b600060208284031215611740578081fd5b5051919050565b600060208284031215611758578081fd5b815160ff8116811461075f578182fd5b6000825161177a818460208701611a79565b9190910192915050565b6001600160a01b0391909116815260200190565b6001600160a01b03929092168252602082015260400190565b6020808252825182820181905260009190848201906040850190845b818110156117f25783516001600160a01b0316835292840192918401916001016117cd565b50909695505050505050565b60208101600e831061182057634e487b7160e01b600052602160045260246000fd5b91905290565b6020815260008251806020840152611845816040850160208701611a79565b601f01601f19169190910160400192915050565b6020808252600b908201526a626164206164647265737360a81b604082015260600190565b60208082526034908201527f436f6e74726f6c6c65643a3a6f6e6c79436f6e74726f6c6c65723a2043616c6c60408201527332b91034b9903737ba1031b7b73a3937b63632b960611b606082015260800190565b6020808252602b908201527f496e697469616c697a61626c653a20636f6e7472616374206973206e6f74206960408201526a6e697469616c697a696e6760a81b606082015260800190565b6000821982111561193057611930611ac0565b500190565b60008261195057634e487b7160e01b81526012600452602481fd5b500490565b600181815b8085111561199057816000190482111561197657611976611ac0565b8085161561198357918102915b93841c939080029061195a565b509250929050565b600061075f60ff8416836000826119b157506001610382565b816119be57506000610382565b81600181146119d457600281146119de576119fa565b6001915050610382565b60ff8411156119ef576119ef611ac0565b50506001821b610382565b5060208310610133831016604e8410600b8410161715611a1d575081810a610382565b611a278383611955565b8060001904821115611a3b57611a3b611ac0565b029392505050565b6000816000190483118215151615611a5d57611a5d611ac0565b500290565b600082821015611a7457611a74611ac0565b500390565b60005b83811015611a94578181015183820152602001611a7c565b838111156106365750506000910152565b6000600019821415611ab957611ab9611ac0565b5060010190565b634e487b7160e01b600052601160045260246000fd5b634e487b7160e01b600052604160045260246000fd5b6001600160a01b03811681146104fd57600080fdfea2646970667358221220170c034c978150071c72b1508ba5c9f842c7b2cdb81fdfdcc828c8bea9e429de64736f6c63430008040033",
  "devdoc": {
    "kind": "dev",
    "methods": {
      "deposit(address,uint256)": {
        "params": {
          "amount": "The amount of the token being deposited",
          "tokenAddress": "The address of the deposited token"
        }
      },
      "getAvailableYieldInShares(address)": {
        "params": {
          "token": "The address of the deposited token"
        },
        "returns": {
          "_0": "The amount of available yield to be harvested in value of the share token"
        }
      },
      "getBalance(address)": {
        "details": "This returns the total amount of the underlying token thathas been deposited to the integration contract",
        "params": {
          "token": "The address of the deployed token"
        },
        "returns": {
          "_0": "The amount of the underlying token that can be withdrawn"
        }
      },
      "getPendingYield(address)": {
        "details": "Returns total amount of pending yield for the specified token in Yearn",
        "params": {
          "token": "The of the token to check for available yield"
        },
        "returns": {
          "_0": "Amount of yield available for harvest"
        }
      },
      "getPricePerShare(address)": {
        "params": {
          "token": "The address of the deposited token"
        },
        "returns": {
          "_0": "The price per vault share in the underlying asset"
        }
      },
      "getVaultAddress(address)": {
        "params": {
          "token": "The address of the token"
        },
        "returns": {
          "_0": "The address of the vault for the specified token"
        }
      },
      "getVaultWithdrawableAmount(address)": {
        "params": {
          "token": "The address of the deposited token"
        },
        "returns": {
          "_0": "The amount of the deposited token that can be withdrawn from the vault"
        }
      },
      "initialize(address[],address,address)": {
        "params": {
          "controllers_": "The addresses of the controlling contracts",
          "moduleMap_": "The address of the module map contract",
          "yearnRegistryAddress_": "The address of the Yearn registry contract"
        }
      },
      "retrievePrincipal(address)": {
        "params": {
          "tokenAddress": "The address of the underlying token to withdraw"
        }
      },
      "withdraw(address,uint256)": {
        "params": {
          "amount": "The amoutn of the token to withdraw",
          "tokenAddress": "The address of the underlying token to withdraw"
        }
      }
    },
    "version": 1
  },
  "userdoc": {
    "kind": "user",
    "methods": {
      "deploy()": {
        "notice": "Deploys all available tokens to Aave"
      },
      "harvestYield()": {
        "notice": "Harvests all token yield from the Aave lending pool"
      },
      "retrievePrincipal(address)": {
        "notice": "Withdraws ALL the tokens from the integration"
      },
      "withdraw(address,uint256)": {
        "notice": "Withdraws token from the integration"
      }
    },
    "notice": "Integrates 0x Nodes to Yearn v2 vaults",
    "version": 1
  },
  "storageLayout": {
    "storage": [
      {
        "astId": 702,
        "contract": "contracts/yield-integrations/YearnIntegration.sol:YearnIntegration",
        "label": "_initialized",
        "offset": 0,
        "slot": "0",
        "type": "t_bool"
      },
      {
        "astId": 705,
        "contract": "contracts/yield-integrations/YearnIntegration.sol:YearnIntegration",
        "label": "_initializing",
        "offset": 1,
        "slot": "0",
        "type": "t_bool"
      },
      {
        "astId": 15684,
        "contract": "contracts/yield-integrations/YearnIntegration.sol:YearnIntegration",
        "label": "moduleMap",
        "offset": 2,
        "slot": "0",
        "type": "t_contract(IModuleMap)29669"
      },
      {
        "astId": 9016,
        "contract": "contracts/yield-integrations/YearnIntegration.sol:YearnIntegration",
        "label": "_controllers",
        "offset": 0,
        "slot": "1",
        "type": "t_mapping(t_address,t_bool)"
      },
      {
        "astId": 9019,
        "contract": "contracts/yield-integrations/YearnIntegration.sol:YearnIntegration",
        "label": "controllers",
        "offset": 0,
        "slot": "2",
        "type": "t_array(t_address)dyn_storage"
      },
      {
        "astId": 74946,
        "contract": "contracts/yield-integrations/YearnIntegration.sol:YearnIntegration",
        "label": "yearnRegistryAddress",
        "offset": 0,
        "slot": "3",
        "type": "t_address"
      },
      {
        "astId": 74950,
        "contract": "contracts/yield-integrations/YearnIntegration.sol:YearnIntegration",
        "label": "balances",
        "offset": 0,
        "slot": "4",
        "type": "t_mapping(t_address,t_uint256)"
      }
    ],
    "types": {
      "t_address": {
        "encoding": "inplace",
        "label": "address",
        "numberOfBytes": "20"
      },
      "t_array(t_address)dyn_storage": {
        "base": "t_address",
        "encoding": "dynamic_array",
        "label": "address[]",
        "numberOfBytes": "32"
      },
      "t_bool": {
        "encoding": "inplace",
        "label": "bool",
        "numberOfBytes": "1"
      },
      "t_contract(IModuleMap)29669": {
        "encoding": "inplace",
        "label": "contract IModuleMap",
        "numberOfBytes": "20"
      },
      "t_mapping(t_address,t_bool)": {
        "encoding": "mapping",
        "key": "t_address",
        "label": "mapping(address => bool)",
        "numberOfBytes": "32",
        "value": "t_bool"
      },
      "t_mapping(t_address,t_uint256)": {
        "encoding": "mapping",
        "key": "t_address",
        "label": "mapping(address => uint256)",
        "numberOfBytes": "32",
        "value": "t_uint256"
      },
      "t_uint256": {
        "encoding": "inplace",
        "label": "uint256",
        "numberOfBytes": "32"
      }
    }
  }
}